{
  "contractName": "Activity",
  "abi": [
    {
      "inputs": [],
      "stateMutability": "nonpayable",
      "type": "constructor"
    },
    {
      "anonymous": false,
      "inputs": [
        {
          "indexed": true,
          "internalType": "address",
          "name": "previousOwner",
          "type": "address"
        },
        {
          "indexed": true,
          "internalType": "address",
          "name": "newOwner",
          "type": "address"
        }
      ],
      "name": "OwnershipTransferStarted",
      "type": "event"
    },
    {
      "anonymous": false,
      "inputs": [
        {
          "indexed": true,
          "internalType": "address",
          "name": "previousOwner",
          "type": "address"
        },
        {
          "indexed": true,
          "internalType": "address",
          "name": "newOwner",
          "type": "address"
        }
      ],
      "name": "OwnershipTransferred",
      "type": "event"
    },
    {
      "inputs": [],
      "name": "acceptOwnership",
      "outputs": [],
      "stateMutability": "nonpayable",
      "type": "function"
    },
    {
      "inputs": [],
      "name": "owner",
      "outputs": [
        {
          "internalType": "address",
          "name": "",
          "type": "address"
        }
      ],
      "stateMutability": "view",
      "type": "function"
    },
    {
      "inputs": [],
      "name": "pendingOwner",
      "outputs": [
        {
          "internalType": "address",
          "name": "",
          "type": "address"
        }
      ],
      "stateMutability": "view",
      "type": "function"
    },
    {
      "inputs": [],
      "name": "renounceOwnership",
      "outputs": [],
      "stateMutability": "nonpayable",
      "type": "function"
    },
    {
      "inputs": [
        {
          "internalType": "address",
          "name": "newOwner",
          "type": "address"
        }
      ],
      "name": "transferOwnership",
      "outputs": [],
      "stateMutability": "nonpayable",
      "type": "function"
    },
    {
      "inputs": [
        {
          "internalType": "address",
          "name": "user",
          "type": "address"
        },
        {
          "internalType": "uint256",
          "name": "amountBorrowedInUSD",
          "type": "uint256"
        }
      ],
      "name": "_borrowLoan",
      "outputs": [],
      "stateMutability": "nonpayable",
      "type": "function"
    },
    {
      "inputs": [
        {
          "internalType": "address",
          "name": "user",
          "type": "address"
        },
        {
          "internalType": "uint256",
          "name": "amountPaidInUSD",
          "type": "uint256"
        },
        {
          "internalType": "uint256",
          "name": "interestPaidInUSD",
          "type": "uint256"
        }
      ],
      "name": "_repayLoan",
      "outputs": [],
      "stateMutability": "nonpayable",
      "type": "function"
    },
    {
      "inputs": [
        {
          "internalType": "address",
          "name": "user",
          "type": "address"
        },
        {
          "internalType": "uint256",
          "name": "amountInUSD",
          "type": "uint256"
        }
      ],
      "name": "_dropCollateral",
      "outputs": [],
      "stateMutability": "nonpayable",
      "type": "function"
    },
    {
      "inputs": [
        {
          "internalType": "address",
          "name": "user",
          "type": "address"
        }
      ],
      "name": "pendingLoansCount",
      "outputs": [
        {
          "internalType": "uint16",
          "name": "",
          "type": "uint16"
        }
      ],
      "stateMutability": "view",
      "type": "function"
    },
    {
      "inputs": [
        {
          "internalType": "address",
          "name": "user",
          "type": "address"
        }
      ],
      "name": "isDefaulter",
      "outputs": [
        {
          "internalType": "bool",
          "name": "",
          "type": "bool"
        }
      ],
      "stateMutability": "view",
      "type": "function"
    },
    {
      "inputs": [
        {
          "internalType": "address",
          "name": "user",
          "type": "address"
        }
      ],
      "name": "getActivity",
      "outputs": [
        {
          "components": [
            {
              "internalType": "uint16",
              "name": "repaymentTimes",
              "type": "uint16"
            },
            {
              "internalType": "uint16",
              "name": "borrowedTimes",
              "type": "uint16"
            },
            {
              "internalType": "uint256",
              "name": "borrowedVolume",
              "type": "uint256"
            },
            {
              "internalType": "uint256",
              "name": "repaymentVolume",
              "type": "uint256"
            },
            {
              "internalType": "uint160",
              "name": "lastActive",
              "type": "uint160"
            },
            {
              "internalType": "uint256",
              "name": "collateralVolume",
              "type": "uint256"
            },
            {
              "internalType": "uint256",
              "name": "interestPaidVolume",
              "type": "uint256"
            },
            {
              "internalType": "uint16",
              "name": "defaultedTimes",
              "type": "uint16"
            },
            {
              "internalType": "uint256",
              "name": "defaultedVolume",
              "type": "uint256"
            }
          ],
          "internalType": "struct Activity.ActivityModel",
          "name": "",
          "type": "tuple"
        }
      ],
      "stateMutability": "view",
      "type": "function"
    },
    {
      "inputs": [
        {
          "internalType": "address",
          "name": "address_",
          "type": "address"
        }
      ],
      "name": "setLendingPool",
      "outputs": [],
      "stateMutability": "nonpayable",
      "type": "function"
    }
  ],
  "bytecode": "0x6080806040523461006357600180546001600160a01b03199081169091556000805433928116831782556001600160a01b0316907f8be0079c531659141344cd1fd0a4f28419497f9722a3daafe3b4186f6b6457e09080a361071c90816100698239f35b600080fdfe6080604090808252600436101561001557600080fd5b600091823560e01c9182630c01fb72146105a057508163113aa8b11461055b578163129ec31a1461050a57816347aea77c1461049757816366d13fb614610371578163715018a61461030c578163720722fd1461026e57816379ba5097146101af5781638da5cb5b14610187578163d8689e1314610144578163e30c397814610117575063f2fde38b146100a857600080fd5b34610114576020366003190112610114576100c1610606565b6100c9610621565b600180546001600160a01b0319166001600160a01b0392831690811790915582549091167f38d16b8cac22d99fc7c124b9cd0de2d3fa1faef420bfe791d8c362d765e227008380a380f35b80fd5b90503461014057816003193601126101405760015490516001600160a01b039091168152602090f35b5080fd5b9050346101405760203660031901126101405760209161ffff9060069083906001600160a01b03610173610606565b168152600386522001541615159051908152f35b905034610140578160031936011261014057905490516001600160a01b039091168152602090f35b905034610140578160031936011261014057600154906001600160a01b0390338284160361021957506001600160a01b031991821660015582543392811683178455167f8be0079c531659141344cd1fd0a4f28419497f9722a3daafe3b4186f6b6457e08380a380f35b5162461bcd60e51b815260206004820152602960248201527f4f776e61626c6532537465703a2063616c6c6572206973206e6f7420746865206044820152683732bb9037bbb732b960b91b6064820152608490fd5b90503461014057606036600319011261014057610289610606565b6002546001600160a01b039290831633036103085782600392168452816020528320805461ffff6102bb818316610679565b169061ffff1916178155600281016102d660243582546106a2565b9055600581016102e960443582546106a2565b9055019042166bffffffffffffffffffffffff60a01b82541617905580f35b8380fd5b8234610114578060031936011261011457610325610621565b600180546001600160a01b03199081169091558154908116825581906001600160a01b03167f8be0079c531659141344cd1fd0a4f28419497f9722a3daafe3b4186f6b6457e08280a380f35b9050346101405760203660031901126101405761012091610390610606565b826103996106af565b9280845280602085015280828501528060608501528060808501528060a08501528060c08501528060e0850152806101008095015260018060a01b038093168152600360205220906103e96106af565b8281935461ffff938482169788855285602086019360101c168352600184015490808601918252600285015490606087019182528360038701541692608088019384528860048801549660a08a019788528c600760058b01549a60c08d019b8c5260e0856006830154169d019c8d5201549c019b8c5283519d8e52511660208d015251908b01525160608a0152511660808801525160a08701525160c0860152511660e08401525190820152f35b9050346101405780600319360112610140576104b1610606565b6002546001600160a01b039290831633036103085782600392168452816020528320805463ffff00006104ea61ffff8360101c16610679565b60101b169063ffff00001916178155600181016102e960243582546106a2565b905034610140578060031936011261014057610524610606565b6002549091906001600160a01b03908116330361030857600492168352600360205282200161055660243582546106a2565b905580f35b823461011457602036600319011261011457610575610606565b61057d610621565b60018060a01b03166bffffffffffffffffffffffff60a01b600254161760025580f35b915034610602576020366003190112610602576001600160a01b036105c3610606565b168352600360205282205461ffff9080821660109190911c8216038181116105ee5760209350168152f35b634e487b7160e01b84526011600452602484fd5b8280fd5b600435906001600160a01b038216820361061c57565b600080fd5b6000546001600160a01b0316330361063557565b606460405162461bcd60e51b815260206004820152602060248201527f4f776e61626c653a2063616c6c6572206973206e6f7420746865206f776e65726044820152fd5b90600161ffff8093160191821161068c57565b634e487b7160e01b600052601160045260246000fd5b9190820180921161068c57565b60405190610120820182811067ffffffffffffffff8211176106d057604052565b634e487b7160e01b600052604160045260246000fdfea26469706673582212203e76c895a73393d324db14ad6191b2e288015a32125dd8e7d766d4182aca1c8b64736f6c63430008110033",
  "immutableReferences": {},
  "source": "// SPDX-License-Identifier: GPL-3.0\r\npragma solidity >=0.7.0 <0.9.0;\r\n\r\nimport \"@openzeppelin/contracts/access/Ownable2Step.sol\";\r\n\r\ncontract Activity is Ownable2Step {\r\n    address lendingPool;\r\n\r\n    constructor() Ownable2Step() {}\r\n\r\n    /*\r\n        The activity contract keeps record of every\r\n        users wallet address activity on the lending pool.\r\n\r\n        These data and other externally sourced data are used to calculate\r\n        the creditworthiness of a borrower's wallet address.\r\n    */\r\n\r\n    struct ActivityModel {\r\n        // frequency\r\n        uint16 repaymentTimes;\r\n        uint16 borrowedTimes;\r\n        // volume\r\n        uint256 borrowedVolume;\r\n        uint256 repaymentVolume;\r\n        // active\r\n        uint160 lastActive;\r\n        // collateral\r\n        uint256 collateralVolume;\r\n        // interest\r\n        uint256 interestPaidVolume;\r\n        // defaulting\r\n        uint16 defaultedTimes;\r\n        uint256 defaultedVolume;\r\n    }\r\n\r\n    mapping(address => ActivityModel) private activities;\r\n\r\n    function _borrowLoan(address user, uint256 amountBorrowedInUSD)\r\n        external\r\n        onlyLendingPool\r\n    {\r\n        ActivityModel storage activity = activities[user];\r\n        activity.borrowedTimes += 1;\r\n        activity.borrowedVolume += amountBorrowedInUSD;\r\n        activity.lastActive = uint160(block.timestamp);\r\n    }\r\n\r\n    function _repayLoan(\r\n        address user,\r\n        uint256 amountPaidInUSD,\r\n        uint256 interestPaidInUSD\r\n    ) external onlyLendingPool {\r\n        ActivityModel storage activity = activities[user];\r\n        activity.repaymentTimes += 1;\r\n        activity.repaymentVolume += amountPaidInUSD;\r\n        activity.interestPaidVolume += interestPaidInUSD;\r\n        activity.lastActive = uint160(block.timestamp);\r\n    }\r\n\r\n    function _dropCollateral(address user, uint256 amountInUSD)\r\n        external\r\n        onlyLendingPool\r\n    {\r\n        ActivityModel storage activity = activities[user];\r\n        activity.collateralVolume += amountInUSD;\r\n    }\r\n\r\n    function pendingLoansCount(address user) external view returns (uint16) {\r\n        return activities[user].borrowedTimes - activities[user].repaymentTimes;\r\n    }\r\n\r\n    function isDefaulter(address user) external view returns (bool) {\r\n        return activities[user].defaultedTimes > 0;\r\n    }\r\n\r\n    function getActivity(address user) external view returns(ActivityModel memory) {\r\n        return activities[user];\r\n    }\r\n\r\n    function setLendingPool(address address_) public onlyOwner {\r\n        lendingPool = address_;\r\n    }\r\n\r\n    modifier onlyLendingPool() {\r\n        require(msg.sender == lendingPool);\r\n        _;\r\n    }\r\n}\r\n",
  "sourcePath": "C:\\Users\\DELL\\Documents\\darsh\\smart-contracts\\contracts\\Activity.sol",
  "compiler": {
    "name": "solc",
    "version": "0.8.17+commit.8df45f5f.Emscripten.clang"
  },
  "schemaVersion": "3.4.11",
  "updatedAt": "2023-02-11T17:40:35.414Z",
  "devdoc": {
    "kind": "dev",
    "methods": {
      "acceptOwnership()": {
        "details": "The new owner accepts the ownership transfer."
      },
      "owner()": {
        "details": "Returns the address of the current owner."
      },
      "pendingOwner()": {
        "details": "Returns the address of the pending owner."
      },
      "renounceOwnership()": {
        "details": "Leaves the contract without owner. It will not be possible to call `onlyOwner` functions anymore. Can only be called by the current owner. NOTE: Renouncing ownership will leave the contract without an owner, thereby removing any functionality that is only available to the owner."
      },
      "transferOwnership(address)": {
        "details": "Starts the ownership transfer of the contract to a new account. Replaces the pending transfer if there is one. Can only be called by the current owner."
      }
    },
    "version": 1
  },
  "userdoc": {
    "kind": "user",
    "methods": {},
    "version": 1
  }
}