{
  "contractName": "Activity",
  "abi": [
    {
      "inputs": [],
      "stateMutability": "nonpayable",
      "type": "constructor"
    },
    {
      "anonymous": false,
      "inputs": [
        {
          "indexed": true,
          "internalType": "address",
          "name": "previousOwner",
          "type": "address"
        },
        {
          "indexed": true,
          "internalType": "address",
          "name": "newOwner",
          "type": "address"
        }
      ],
      "name": "OwnershipTransferStarted",
      "type": "event"
    },
    {
      "anonymous": false,
      "inputs": [
        {
          "indexed": true,
          "internalType": "address",
          "name": "previousOwner",
          "type": "address"
        },
        {
          "indexed": true,
          "internalType": "address",
          "name": "newOwner",
          "type": "address"
        }
      ],
      "name": "OwnershipTransferred",
      "type": "event"
    },
    {
      "inputs": [],
      "name": "acceptOwnership",
      "outputs": [],
      "stateMutability": "nonpayable",
      "type": "function"
    },
    {
      "inputs": [],
      "name": "owner",
      "outputs": [
        {
          "internalType": "address",
          "name": "",
          "type": "address"
        }
      ],
      "stateMutability": "view",
      "type": "function"
    },
    {
      "inputs": [],
      "name": "pendingOwner",
      "outputs": [
        {
          "internalType": "address",
          "name": "",
          "type": "address"
        }
      ],
      "stateMutability": "view",
      "type": "function"
    },
    {
      "inputs": [],
      "name": "renounceOwnership",
      "outputs": [],
      "stateMutability": "nonpayable",
      "type": "function"
    },
    {
      "inputs": [
        {
          "internalType": "address",
          "name": "newOwner",
          "type": "address"
        }
      ],
      "name": "transferOwnership",
      "outputs": [],
      "stateMutability": "nonpayable",
      "type": "function"
    },
    {
      "inputs": [
        {
          "internalType": "address",
          "name": "lender",
          "type": "address"
        },
        {
          "internalType": "address",
          "name": "borrower",
          "type": "address"
        },
        {
          "internalType": "uint256",
          "name": "amountBorrowedInUSD",
          "type": "uint256"
        }
      ],
      "name": "borrowLoan",
      "outputs": [],
      "stateMutability": "nonpayable",
      "type": "function"
    },
    {
      "inputs": [
        {
          "internalType": "address",
          "name": "lender",
          "type": "address"
        },
        {
          "internalType": "address",
          "name": "borrower",
          "type": "address"
        },
        {
          "internalType": "uint256",
          "name": "interestPaidInUSD",
          "type": "uint256"
        },
        {
          "internalType": "bool",
          "name": "completed",
          "type": "bool"
        }
      ],
      "name": "repayLoan",
      "outputs": [],
      "stateMutability": "nonpayable",
      "type": "function"
    },
    {
      "inputs": [
        {
          "internalType": "address",
          "name": "user",
          "type": "address"
        }
      ],
      "name": "activeLoansCount",
      "outputs": [
        {
          "internalType": "uint16",
          "name": "",
          "type": "uint16"
        }
      ],
      "stateMutability": "view",
      "type": "function"
    },
    {
      "inputs": [
        {
          "internalType": "address",
          "name": "borrower",
          "type": "address"
        },
        {
          "internalType": "uint256",
          "name": "amountInUSD",
          "type": "uint256"
        }
      ],
      "name": "dropCollateral",
      "outputs": [],
      "stateMutability": "nonpayable",
      "type": "function"
    },
    {
      "inputs": [
        {
          "internalType": "address",
          "name": "user",
          "type": "address"
        }
      ],
      "name": "isDefaulter",
      "outputs": [
        {
          "internalType": "bool",
          "name": "",
          "type": "bool"
        }
      ],
      "stateMutability": "view",
      "type": "function"
    },
    {
      "inputs": [
        {
          "internalType": "address",
          "name": "user",
          "type": "address"
        }
      ],
      "name": "getActivity",
      "outputs": [
        {
          "components": [
            {
              "internalType": "uint16",
              "name": "borrowedTimes",
              "type": "uint16"
            },
            {
              "internalType": "uint16",
              "name": "lentTimes",
              "type": "uint16"
            },
            {
              "internalType": "uint256",
              "name": "borrowedVolume",
              "type": "uint256"
            },
            {
              "internalType": "uint256",
              "name": "lentVolume",
              "type": "uint256"
            },
            {
              "internalType": "uint256",
              "name": "lastActive",
              "type": "uint256"
            },
            {
              "internalType": "uint256",
              "name": "collateralVolume",
              "type": "uint256"
            },
            {
              "internalType": "uint256",
              "name": "interestPaidVolume",
              "type": "uint256"
            },
            {
              "internalType": "uint16",
              "name": "defaultedTimes",
              "type": "uint16"
            },
            {
              "internalType": "uint256",
              "name": "defaultedVolume",
              "type": "uint256"
            },
            {
              "internalType": "uint256",
              "name": "firstBorrowAt",
              "type": "uint256"
            },
            {
              "internalType": "uint16",
              "name": "activeLoans",
              "type": "uint16"
            }
          ],
          "internalType": "struct Activity.ActivityModel",
          "name": "",
          "type": "tuple"
        }
      ],
      "stateMutability": "view",
      "type": "function"
    },
    {
      "inputs": [
        {
          "internalType": "address",
          "name": "address_",
          "type": "address"
        }
      ],
      "name": "setLendingPool",
      "outputs": [],
      "stateMutability": "nonpayable",
      "type": "function"
    }
  ],
  "bytecode": "0x6080806040523461006357600180546001600160a01b03199081169091556000805433928116831782556001600160a01b0316907f8be0079c531659141344cd1fd0a4f28419497f9722a3daafe3b4186f6b6457e09080a361081390816100698239f35b600080fdfe6080604052600436101561001257600080fd5b6000803560e01c8063113aa8b11461068e578063519badd61461058a57806363a6c9811461053657806366d13fb6146103ca578063715018a61461036557806379ba5097146102a8578063875bc3d1146101e65780638da5cb5b146101bf5780639445ae041461017d578063d8689e1314610139578063e30c3978146101105763f2fde38b146100a157600080fd5b3461010d57602036600319011261010d576100ba6106d3565b6100c2610704565b600180546001600160a01b0319166001600160a01b0392831690811790915582549091167f38d16b8cac22d99fc7c124b9cd0de2d3fa1faef420bfe791d8c362d765e227008380a380f35b80fd5b503461010d578060031936011261010d576001546040516001600160a01b039091168152602090f35b503461010d57602036600319011261010d5760209061ffff906006906040906001600160a01b036101686106d3565b16815260038552200154161515604051908152f35b503461010d57602036600319011261010d5760209061ffff906009906040906001600160a01b036101ac6106d3565b1681526003855220015416604051908152f35b503461010d578060031936011261010d57546040516001600160a01b039091168152602090f35b503461010d57608036600319011261010d576102006106d3565b6102086106ee565b6064359182151583036102a4576002546001600160a01b039190821633036102a05781168452600360205260408420911683526040832091600583016102516044358254610785565b9055426003840155610261578280f35b600901600981549261ffff9283610279818716610792565b1661ffff198096161790550191825491610294818416610792565b16911617905538808280f35b8480fd5b8380fd5b503461010d578060031936011261010d576001546001600160a01b03338183160361030e576001600160a01b031991821660015582543392811683178455167f8be0079c531659141344cd1fd0a4f28419497f9722a3daafe3b4186f6b6457e08380a380f35b60405162461bcd60e51b815260206004820152602960248201527f4f776e61626c6532537465703a2063616c6c6572206973206e6f7420746865206044820152683732bb9037bbb732b960b91b6064820152608490fd5b503461010d578060031936011261010d5761037e610704565b600180546001600160a01b03199081169091558154908116825581906001600160a01b03167f8be0079c531659141344cd1fd0a4f28419497f9722a3daafe3b4186f6b6457e08280a380f35b503461010d57602036600319011261010d576040610160916103ea6106d3565b816101406103f66107a6565b82815282602082015282868201528260608201528260808201528260a08201528260c08201528260e08201528261010082015282610120820152015260018060a01b0316815260036020522061ffff6101406104506107a6565b8260098554958287168452828760101c166020850152600181015460408501526002810154606085015260038101546080850152600481015460a0850152600581015460c08501528260068201541660e08501526007810154610100850152600881015461012085015201541682820152826040519416845282602082015116602085015260408101516040850152606081015160608501526080810151608085015260a081015160a085015260c081015160c08501528260e08201511660e0850152610100810151610100850152610120810151610120850152015116610140820152f35b503461010d57604036600319011261010d576105506106d3565b6002546001600160a01b03919082163303610586571681526003602052600460408220016105816024358254610785565b905580f35b8280fd5b503461010d57606036600319011261010d576105a46106d3565b6105ac6106ee565b60025460443591906001600160a01b0390811633036102a0578060089416855260036020526040852091168452604084209181549061ffff9163ffff00006105f8848360101c1661075c565b60101b169063ffff0000191617835560028301610616828254610785565b905560098301928354938361062c81871661075c565b1661ffff198096161790556003429101558354838361064c81841661075c565b16911617845561066160018501918254610785565b9055600983019182549161067681841661075c565b16911617905501805415610688575080f35b42905580f35b503461010d57602036600319011261010d576106a86106d3565b6106b0610704565b60018060a01b03166bffffffffffffffffffffffff60a01b600254161760025580f35b600435906001600160a01b03821682036106e957565b600080fd5b602435906001600160a01b03821682036106e957565b6000546001600160a01b0316330361071857565b606460405162461bcd60e51b815260206004820152602060248201527f4f776e61626c653a2063616c6c6572206973206e6f7420746865206f776e65726044820152fd5b90600161ffff8093160191821161076f57565b634e487b7160e01b600052601160045260246000fd5b9190820180921161076f57565b61ffff908116600019019190821161076f57565b60405190610160820182811067ffffffffffffffff8211176107c757604052565b634e487b7160e01b600052604160045260246000fdfea2646970667358221220b34701c26eee12f4aa68ce2aeecfd9b16aceaaabe2faefba3250fdfa8ff7f6e664736f6c63430008110033",
  "immutableReferences": {},
  "source": "// SPDX-License-Identifier: GPL-3.0\r\npragma solidity >=0.7.0 <0.9.0;\r\n\r\nimport \"@openzeppelin/contracts/access/Ownable2Step.sol\";\r\n\r\n/// @title Activity contract\r\n/// @author Arogundade Ibrahim\r\n/// @notice Keeps record of every user's activity on the LendingPool contract\r\n/// @dev These records are use to calculate user's darsh score\r\ncontract Activity is Ownable2Step {\r\n    address lendingPool;\r\n\r\n    constructor() Ownable2Step() {}\r\n\r\n    struct ActivityModel {\r\n        // frequency\r\n        uint16 borrowedTimes;\r\n        uint16 lentTimes;\r\n        // volume\r\n        uint256 borrowedVolume;\r\n        uint256 lentVolume;\r\n        // last active\r\n        uint256 lastActive;\r\n        // collateral volume\r\n        uint256 collateralVolume;\r\n        // interestRate\r\n        uint256 interestPaidVolume;\r\n        // defaulting\r\n        uint16 defaultedTimes;\r\n        uint256 defaultedVolume;\r\n        // first borrow date\r\n        uint256 firstBorrowAt;\r\n        // active loans\r\n        uint16 activeLoans;\r\n    }\r\n\r\n    mapping(address => ActivityModel) activities;\r\n\r\n    function borrowLoan(\r\n        address lender,\r\n        address borrower,\r\n        uint256 amountBorrowedInUSD\r\n    ) external onlyLendingPool {\r\n        ActivityModel storage lenderActivity = activities[lender];\r\n        ActivityModel storage borrowerActivity = activities[borrower];\r\n\r\n        lenderActivity.lentTimes += 1;\r\n        lenderActivity.lentVolume += amountBorrowedInUSD;\r\n        lenderActivity.activeLoans += 1;\r\n\r\n        lenderActivity.lastActive = block.timestamp;\r\n\r\n        borrowerActivity.borrowedTimes += 1;\r\n        borrowerActivity.borrowedVolume += amountBorrowedInUSD;\r\n        borrowerActivity.activeLoans += 1;\r\n\r\n        if (borrowerActivity.firstBorrowAt == 0) {\r\n            borrowerActivity.firstBorrowAt = block.timestamp;\r\n        }\r\n    }\r\n\r\n    function repayLoan(\r\n        address lender,\r\n        address borrower,\r\n        uint256 interestPaidInUSD,\r\n        bool completed\r\n    ) external onlyLendingPool {\r\n        ActivityModel storage lenderActivity = activities[lender];\r\n        ActivityModel storage borrowerActivity = activities[borrower];\r\n\r\n        borrowerActivity.interestPaidVolume += interestPaidInUSD;\r\n        borrowerActivity.lastActive = block.timestamp;\r\n\r\n        if (completed) {\r\n            lenderActivity.activeLoans -= 1;\r\n            borrowerActivity.activeLoans -= 1;\r\n        }\r\n    }\r\n\r\n    function activeLoansCount(address user) external view returns(uint16) {\r\n        return activities[user].activeLoans;\r\n    }\r\n\r\n    function dropCollateral(address borrower, uint256 amountInUSD)\r\n        external\r\n        onlyLendingPool\r\n    {\r\n        ActivityModel storage activity = activities[borrower];\r\n        activity.collateralVolume += amountInUSD;\r\n    }\r\n\r\n    function isDefaulter(address user) external view returns (bool) {\r\n        return activities[user].defaultedTimes > 0;\r\n    }\r\n\r\n    function getActivity(address user)\r\n        external\r\n        view\r\n        returns (ActivityModel memory)\r\n    {\r\n        return activities[user];\r\n    }\r\n\r\n    function setLendingPool(address address_) public onlyOwner {\r\n        lendingPool = address_;\r\n    }\r\n\r\n    modifier onlyLendingPool() {\r\n        require(msg.sender == lendingPool);\r\n        _;\r\n    }\r\n}\r\n",
  "sourcePath": "C:\\Users\\DELL\\Documents\\darsh\\smart-contracts\\contracts\\Activity.sol",
  "compiler": {
    "name": "solc",
    "version": "0.8.17+commit.8df45f5f.Emscripten.clang"
  },
  "schemaVersion": "3.4.11",
  "updatedAt": "2023-02-26T15:25:32.230Z",
  "devdoc": {
    "author": "Arogundade Ibrahim",
    "details": "These records are use to calculate user's darsh score",
    "kind": "dev",
    "methods": {
      "acceptOwnership()": {
        "details": "The new owner accepts the ownership transfer."
      },
      "owner()": {
        "details": "Returns the address of the current owner."
      },
      "pendingOwner()": {
        "details": "Returns the address of the pending owner."
      },
      "renounceOwnership()": {
        "details": "Leaves the contract without owner. It will not be possible to call `onlyOwner` functions anymore. Can only be called by the current owner. NOTE: Renouncing ownership will leave the contract without an owner, thereby removing any functionality that is only available to the owner."
      },
      "transferOwnership(address)": {
        "details": "Starts the ownership transfer of the contract to a new account. Replaces the pending transfer if there is one. Can only be called by the current owner."
      }
    },
    "title": "Activity contract",
    "version": 1
  },
  "userdoc": {
    "kind": "user",
    "methods": {},
    "notice": "Keeps record of every user's activity on the LendingPool contract",
    "version": 1
  }
}