{
  "contractName": "Activity",
  "abi": [
    {
      "inputs": [
        {
          "internalType": "address",
          "name": "",
          "type": "address"
        }
      ],
      "name": "models",
      "outputs": [
        {
          "internalType": "uint256",
          "name": "repaidNumbers",
          "type": "uint256"
        },
        {
          "internalType": "uint256",
          "name": "borrowedNumbers",
          "type": "uint256"
        },
        {
          "internalType": "uint256",
          "name": "borrowedValue",
          "type": "uint256"
        },
        {
          "internalType": "uint256",
          "name": "repaidValue",
          "type": "uint256"
        },
        {
          "internalType": "uint256",
          "name": "defaultNumbers",
          "type": "uint256"
        }
      ],
      "stateMutability": "view",
      "type": "function"
    },
    {
      "inputs": [
        {
          "internalType": "address",
          "name": "user",
          "type": "address"
        },
        {
          "internalType": "uint256",
          "name": "amount",
          "type": "uint256"
        }
      ],
      "name": "incrementBorrowed",
      "outputs": [],
      "stateMutability": "nonpayable",
      "type": "function"
    },
    {
      "inputs": [
        {
          "internalType": "address",
          "name": "user",
          "type": "address"
        },
        {
          "internalType": "uint256",
          "name": "amount",
          "type": "uint256"
        }
      ],
      "name": "incrementRepaid",
      "outputs": [],
      "stateMutability": "nonpayable",
      "type": "function"
    },
    {
      "inputs": [
        {
          "internalType": "address",
          "name": "user",
          "type": "address"
        }
      ],
      "name": "pendingLoans",
      "outputs": [
        {
          "internalType": "uint256",
          "name": "",
          "type": "uint256"
        }
      ],
      "stateMutability": "view",
      "type": "function"
    },
    {
      "inputs": [
        {
          "internalType": "address",
          "name": "user",
          "type": "address"
        }
      ],
      "name": "isDefaulter",
      "outputs": [
        {
          "internalType": "bool",
          "name": "",
          "type": "bool"
        }
      ],
      "stateMutability": "view",
      "type": "function"
    },
    {
      "inputs": [
        {
          "internalType": "address",
          "name": "user",
          "type": "address"
        }
      ],
      "name": "model",
      "outputs": [
        {
          "components": [
            {
              "internalType": "uint256",
              "name": "repaidNumbers",
              "type": "uint256"
            },
            {
              "internalType": "uint256",
              "name": "borrowedNumbers",
              "type": "uint256"
            },
            {
              "internalType": "uint256",
              "name": "borrowedValue",
              "type": "uint256"
            },
            {
              "internalType": "uint256",
              "name": "repaidValue",
              "type": "uint256"
            },
            {
              "internalType": "uint256",
              "name": "defaultNumbers",
              "type": "uint256"
            }
          ],
          "internalType": "struct Activity.Model",
          "name": "",
          "type": "tuple"
        }
      ],
      "stateMutability": "view",
      "type": "function"
    }
  ],
  "bytecode": "0x608080604052346100165761037f908161001c8239f35b600080fdfe6040608081526004908136101561001557600080fd5b600091823560e01c80632fd0c0581461027a5780633df18d2a146101d157806340e181de1461017457806354222aa51461010057806354917f831461009f5763d8689e131461006357600080fd5b3461009b57602036600319011261009b5760209282906001600160a01b036100896102d5565b16815280855220015415159051908152f35b8280fd5b50903461009b57602036600319011261009b5760a09281906001600160a01b036100c76102d5565b16815280602052208054926001820154926002830154916003840154930154938151958652602086015284015260608301526080820152f35b509190346101705780600319360112610170576001600160a01b036101236102d5565b16808352826020528183208054906001820180921161015d5760039495505583528260205282200161015860243582546102f0565b905580f35b634e487b7160e01b855260118652602485fd5b5080fd5b50919034610170576020366003190112610170576001600160a01b036101986102d5565b1682528160205260018183200154918181205483039283116101be576020838351908152f35b634e487b7160e01b815260118452602490fd5b50903461009b57602036600319011261009b578060a0936101f06102d5565b8160806101fb610313565b82815282602082015282868201528260608201520152600180871b031681528060205220610227610313565b918154938484526001830154602085019081526080600285015492848701938452600386015495606088019687520154950194855282519586525160208601525190840152516060830152516080820152f35b509190346101705780600319360112610170576001600160a01b0361029d6102d5565b16808352826020526001828420018054906001820180921161015d5760029495505583528260205282200161015860243582546102f0565b600435906001600160a01b03821682036102eb57565b600080fd5b919082018092116102fd57565b634e487b7160e01b600052601160045260246000fd5b6040519060a0820182811067ffffffffffffffff82111761033357604052565b634e487b7160e01b600052604160045260246000fdfea26469706673582212202e6cbaa7ae67331f6d11465f5421ccd93b42e48c522c58bc31a117eaf7fd508364736f6c63430008110033",
  "immutableReferences": {},
  "source": "// SPDX-License-Identifier: GPL-3.0\r\npragma solidity >=0.7.0 <0.9.0;\r\n\r\ncontract Activity {\r\n    \r\n    struct Model {\r\n        uint repaidNumbers;\r\n        uint borrowedNumbers;\r\n        uint256 borrowedValue;\r\n        uint256 repaidValue;\r\n        uint256 defaultNumbers;\r\n    }\r\n\r\n    mapping(address => Model) public models;\r\n\r\n    function incrementBorrowed(address user, uint256 amount) external {\r\n        models[user].borrowedNumbers += 1;\r\n        models[user].borrowedValue += amount;\r\n    }\r\n\r\n    function incrementRepaid(address user, uint256 amount) external {\r\n        models[user].repaidNumbers += 1;\r\n        models[user].repaidValue += amount;\r\n    }\r\n\r\n    function pendingLoans(address user) external view returns(uint) {\r\n        return models[user].borrowedNumbers - models[user].repaidNumbers;\r\n    }\r\n\r\n    function isDefaulter(address user) external view returns(bool) {\r\n        return models[user].defaultNumbers > 0;\r\n    }\r\n\r\n    function model(address user) external view returns(Model memory) {\r\n        return models[user];\r\n    }\r\n\r\n}\r\n",
  "sourcePath": "C:\\Users\\DELL\\Documents\\darsh\\smart-contracts\\contracts\\Activity.sol",
  "compiler": {
    "name": "solc",
    "version": "0.8.17+commit.8df45f5f.Emscripten.clang"
  },
  "schemaVersion": "3.4.11",
  "updatedAt": "2023-02-11T06:38:09.087Z",
  "devdoc": {
    "kind": "dev",
    "methods": {},
    "version": 1
  },
  "userdoc": {
    "kind": "user",
    "methods": {},
    "version": 1
  }
}