{
  "contractName": "Activity",
  "abi": [
    {
      "inputs": [],
      "stateMutability": "nonpayable",
      "type": "constructor"
    },
    {
      "anonymous": false,
      "inputs": [
        {
          "indexed": true,
          "internalType": "address",
          "name": "previousOwner",
          "type": "address"
        },
        {
          "indexed": true,
          "internalType": "address",
          "name": "newOwner",
          "type": "address"
        }
      ],
      "name": "OwnershipTransferStarted",
      "type": "event"
    },
    {
      "anonymous": false,
      "inputs": [
        {
          "indexed": true,
          "internalType": "address",
          "name": "previousOwner",
          "type": "address"
        },
        {
          "indexed": true,
          "internalType": "address",
          "name": "newOwner",
          "type": "address"
        }
      ],
      "name": "OwnershipTransferred",
      "type": "event"
    },
    {
      "inputs": [],
      "name": "acceptOwnership",
      "outputs": [],
      "stateMutability": "nonpayable",
      "type": "function"
    },
    {
      "inputs": [],
      "name": "owner",
      "outputs": [
        {
          "internalType": "address",
          "name": "",
          "type": "address"
        }
      ],
      "stateMutability": "view",
      "type": "function"
    },
    {
      "inputs": [],
      "name": "pendingOwner",
      "outputs": [
        {
          "internalType": "address",
          "name": "",
          "type": "address"
        }
      ],
      "stateMutability": "view",
      "type": "function"
    },
    {
      "inputs": [],
      "name": "renounceOwnership",
      "outputs": [],
      "stateMutability": "nonpayable",
      "type": "function"
    },
    {
      "inputs": [
        {
          "internalType": "address",
          "name": "newOwner",
          "type": "address"
        }
      ],
      "name": "transferOwnership",
      "outputs": [],
      "stateMutability": "nonpayable",
      "type": "function"
    },
    {
      "inputs": [
        {
          "internalType": "address",
          "name": "user",
          "type": "address"
        },
        {
          "internalType": "uint256",
          "name": "amountBorrowedInUSD",
          "type": "uint256"
        }
      ],
      "name": "_borrowLoan",
      "outputs": [],
      "stateMutability": "nonpayable",
      "type": "function"
    },
    {
      "inputs": [
        {
          "internalType": "address",
          "name": "user",
          "type": "address"
        },
        {
          "internalType": "uint256",
          "name": "amountPaidInUSD",
          "type": "uint256"
        },
        {
          "internalType": "uint256",
          "name": "interestPaidInUSD",
          "type": "uint256"
        }
      ],
      "name": "_repayLoan",
      "outputs": [],
      "stateMutability": "nonpayable",
      "type": "function"
    },
    {
      "inputs": [
        {
          "internalType": "address",
          "name": "user",
          "type": "address"
        },
        {
          "internalType": "uint256",
          "name": "amountInUSD",
          "type": "uint256"
        }
      ],
      "name": "_dropCollateral",
      "outputs": [],
      "stateMutability": "nonpayable",
      "type": "function"
    },
    {
      "inputs": [
        {
          "internalType": "address",
          "name": "user",
          "type": "address"
        }
      ],
      "name": "pendingLoansCount",
      "outputs": [
        {
          "internalType": "uint16",
          "name": "",
          "type": "uint16"
        }
      ],
      "stateMutability": "view",
      "type": "function"
    },
    {
      "inputs": [
        {
          "internalType": "address",
          "name": "user",
          "type": "address"
        }
      ],
      "name": "isDefaulter",
      "outputs": [
        {
          "internalType": "bool",
          "name": "",
          "type": "bool"
        }
      ],
      "stateMutability": "view",
      "type": "function"
    },
    {
      "inputs": [
        {
          "internalType": "address",
          "name": "user",
          "type": "address"
        }
      ],
      "name": "getActivity",
      "outputs": [
        {
          "components": [
            {
              "internalType": "uint16",
              "name": "repaymentTimes",
              "type": "uint16"
            },
            {
              "internalType": "uint16",
              "name": "borrowedTimes",
              "type": "uint16"
            },
            {
              "internalType": "uint256",
              "name": "borrowedVolume",
              "type": "uint256"
            },
            {
              "internalType": "uint256",
              "name": "repaymentVolume",
              "type": "uint256"
            },
            {
              "internalType": "uint160",
              "name": "lastActive",
              "type": "uint160"
            },
            {
              "internalType": "uint256",
              "name": "collateralVolume",
              "type": "uint256"
            },
            {
              "internalType": "uint256",
              "name": "interestPaidVolume",
              "type": "uint256"
            },
            {
              "internalType": "uint16",
              "name": "defaultedTimes",
              "type": "uint16"
            },
            {
              "internalType": "uint256",
              "name": "defaultedVolume",
              "type": "uint256"
            },
            {
              "internalType": "uint160",
              "name": "firstBorrowAt",
              "type": "uint160"
            },
            {
              "internalType": "uint16",
              "name": "stars",
              "type": "uint16"
            }
          ],
          "internalType": "struct Activity.ActivityModel",
          "name": "",
          "type": "tuple"
        }
      ],
      "stateMutability": "view",
      "type": "function"
    },
    {
      "inputs": [
        {
          "internalType": "address",
          "name": "address_",
          "type": "address"
        }
      ],
      "name": "setLendingPool",
      "outputs": [],
      "stateMutability": "nonpayable",
      "type": "function"
    }
  ],
  "bytecode": "0x6080806040523461006357600180546001600160a01b03199081169091556000805433928116831782556001600160a01b0316907f8be0079c531659141344cd1fd0a4f28419497f9722a3daafe3b4186f6b6457e09080a361077c90816100698239f35b600080fdfe608080604052600436101561001357600080fd5b600090813560e01c9081630c01fb72146105fd57508063113aa8b1146105b8578063129ec31a1461056957806347aea77c146104f457806366d13fb614610369578063715018a614610304578063720722fd1461026557806379ba5097146101a85780638da5cb5b14610181578063d8689e131461013d578063e30c3978146101145763f2fde38b146100a557600080fd5b34610111576020366003190112610111576100be610666565b6100c6610681565b600180546001600160a01b0319166001600160a01b0392831690811790915582549091167f38d16b8cac22d99fc7c124b9cd0de2d3fa1faef420bfe791d8c362d765e227008380a380f35b80fd5b50346101115780600319360112610111576001546040516001600160a01b039091168152602090f35b50346101115760203660031901126101115760209061ffff906006906040906001600160a01b0361016c610666565b16815260038552200154161515604051908152f35b5034610111578060031936011261011157546040516001600160a01b039091168152602090f35b50346101115780600319360112610111576001546001600160a01b03338183160361020e576001600160a01b031991821660015582543392811683178455167f8be0079c531659141344cd1fd0a4f28419497f9722a3daafe3b4186f6b6457e08380a380f35b60405162461bcd60e51b815260206004820152602960248201527f4f776e61626c6532537465703a2063616c6c6572206973206e6f7420746865206044820152683732bb9037bbb732b960b91b6064820152608490fd5b50346101115760603660031901126101115761027f610666565b6002546001600160a01b0391908216330361030057811682526003602052600360408320805461ffff6102b38183166106d9565b169061ffff1916178155600281016102ce6024358254610702565b9055600581016102e16044358254610702565b9055019042166bffffffffffffffffffffffff60a01b82541617905580f35b8280fd5b503461011157806003193601126101115761031d610681565b600180546001600160a01b03199081169091558154908116825581906001600160a01b03167f8be0079c531659141344cd1fd0a4f28419497f9722a3daafe3b4186f6b6457e08280a380f35b503461011157602036600319011261011157604061016091610389610666565b8161014061039561070f565b82815282602082015282868201528260608201528260808201528260a08201528260c08201528260e08201528261010082015282610120820152015260018060a01b0316815260036020522061ffff6101406103ef61070f565b8260088554958287168452828760101c166020850152600181015460408501526002810154606085015260018060a01b036003820154166080850152600481015460a0850152600581015460c08501528260068201541660e08501526007810154610100850152015460018060a01b03811661012084015260a01c16828201528260405194168452826020820151166020850152604081015160408501526060810151606085015260018060a01b03608082015116608085015260a081015160a085015260c081015160c08501528260e08201511660e085015261010081015161010085015260018060a01b0361012082015116610120850152015116610140820152f35b50346101115760403660031901126101115761050e610666565b6002546001600160a01b0391908216330361030057811682526003602052600360408320805463ffff000061054961ffff8360101c166106d9565b60101b169063ffff00001916178155600181016102e16024358254610702565b503461011157604036600319011261011157610583610666565b6002546001600160a01b0391908216330361030057811682526003602052600360408320600481016102e16024358254610702565b5034610111576020366003190112610111576105d2610666565b6105da610681565b60018060a01b03166bffffffffffffffffffffffff60a01b600254161760025580f35b905034610662576020366003190112610662576001600160a01b03610620610666565b168252600360205261ffff80604084205460101c1681604085205416900381811161064e5760209350168152f35b634e487b7160e01b84526011600452602484fd5b5080fd5b600435906001600160a01b038216820361067c57565b600080fd5b6000546001600160a01b0316330361069557565b606460405162461bcd60e51b815260206004820152602060248201527f4f776e61626c653a2063616c6c6572206973206e6f7420746865206f776e65726044820152fd5b90600161ffff809316019182116106ec57565b634e487b7160e01b600052601160045260246000fd5b919082018092116106ec57565b60405190610160820182811067ffffffffffffffff82111761073057604052565b634e487b7160e01b600052604160045260246000fdfea26469706673582212203d4e0f6de87bf0a508a9392dc2bf31aa04a3bdda500b0524a06e3c62483f844064736f6c63430008110033",
  "immutableReferences": {},
  "source": "// SPDX-License-Identifier: GPL-3.0\r\npragma solidity >=0.7.0 <0.9.0;\r\n\r\nimport \"@openzeppelin/contracts/access/Ownable2Step.sol\";\r\n\r\ncontract Activity is Ownable2Step {\r\n    address lendingPool;\r\n\r\n    constructor() Ownable2Step() {}\r\n\r\n    /*\r\n        The activity contract keeps record of every\r\n        users wallet address activity on the lending pool.\r\n\r\n        These data and other externally sourced data are used to calculate\r\n        the creditworthiness of a borrower's wallet address.\r\n    */\r\n\r\n    struct ActivityModel {\r\n        // frequency\r\n        uint16 repaymentTimes;\r\n        uint16 borrowedTimes;\r\n        // volume\r\n        uint256 borrowedVolume;\r\n        uint256 repaymentVolume;\r\n        // active\r\n        uint160 lastActive;\r\n        // collateral\r\n        uint256 collateralVolume;\r\n        // interest\r\n        uint256 interestPaidVolume;\r\n        // defaulting\r\n        uint16 defaultedTimes;\r\n        uint256 defaultedVolume;\r\n        // first borrow date\r\n        uint160 firstBorrowAt;\r\n        // hero stars collected\r\n        uint16 stars;\r\n    }\r\n\r\n    mapping(address => ActivityModel) activities;\r\n\r\n    function _borrowLoan(address user, uint256 amountBorrowedInUSD)\r\n        external\r\n        onlyLendingPool\r\n    {\r\n        ActivityModel storage activity = activities[user];\r\n        activity.borrowedTimes += 1;\r\n        activity.borrowedVolume += amountBorrowedInUSD;\r\n        activity.lastActive = uint160(block.timestamp);\r\n    }\r\n\r\n    function _repayLoan(\r\n        address user,\r\n        uint256 amountPaidInUSD,\r\n        uint256 interestPaidInUSD\r\n    ) external onlyLendingPool {\r\n        ActivityModel storage activity = activities[user];\r\n        activity.repaymentTimes += 1;\r\n        activity.repaymentVolume += amountPaidInUSD;\r\n        activity.interestPaidVolume += interestPaidInUSD;\r\n        activity.lastActive = uint160(block.timestamp);\r\n    }\r\n\r\n    function _dropCollateral(address user, uint256 amountInUSD)\r\n        external\r\n        onlyLendingPool\r\n    {\r\n        ActivityModel storage activity = activities[user];\r\n        activity.collateralVolume += amountInUSD;\r\n        activity.lastActive = uint160(block.timestamp);\r\n    }\r\n\r\n    function pendingLoansCount(address user) external view returns (uint16) {\r\n        return activities[user].borrowedTimes - activities[user].repaymentTimes;\r\n    }\r\n\r\n    function isDefaulter(address user) external view returns (bool) {\r\n        return activities[user].defaultedTimes > 0;\r\n    }\r\n\r\n    function getActivity(address user) external view returns(ActivityModel memory) {\r\n        return activities[user];\r\n    }\r\n\r\n    function setLendingPool(address address_) public onlyOwner {\r\n        lendingPool = address_;\r\n    }\r\n\r\n    modifier onlyLendingPool() {\r\n        require(msg.sender == lendingPool);\r\n        _;\r\n    }\r\n}\r\n",
  "sourcePath": "C:\\Users\\DELL\\Documents\\darsh\\smart-contracts\\contracts\\Activity.sol",
  "compiler": {
    "name": "solc",
    "version": "0.8.17+commit.8df45f5f.Emscripten.clang"
  },
  "schemaVersion": "3.4.11",
  "updatedAt": "2023-02-12T14:01:17.883Z",
  "devdoc": {
    "kind": "dev",
    "methods": {
      "acceptOwnership()": {
        "details": "The new owner accepts the ownership transfer."
      },
      "owner()": {
        "details": "Returns the address of the current owner."
      },
      "pendingOwner()": {
        "details": "Returns the address of the pending owner."
      },
      "renounceOwnership()": {
        "details": "Leaves the contract without owner. It will not be possible to call `onlyOwner` functions anymore. Can only be called by the current owner. NOTE: Renouncing ownership will leave the contract without an owner, thereby removing any functionality that is only available to the owner."
      },
      "transferOwnership(address)": {
        "details": "Starts the ownership transfer of the contract to a new account. Replaces the pending transfer if there is one. Can only be called by the current owner."
      }
    },
    "version": 1
  },
  "userdoc": {
    "kind": "user",
    "methods": {},
    "version": 1
  }
}