{
  "contractName": "Activity",
  "abi": [
    {
      "inputs": [],
      "stateMutability": "nonpayable",
      "type": "constructor"
    },
    {
      "anonymous": false,
      "inputs": [
        {
          "indexed": true,
          "internalType": "address",
          "name": "previousOwner",
          "type": "address"
        },
        {
          "indexed": true,
          "internalType": "address",
          "name": "newOwner",
          "type": "address"
        }
      ],
      "name": "OwnershipTransferStarted",
      "type": "event"
    },
    {
      "anonymous": false,
      "inputs": [
        {
          "indexed": true,
          "internalType": "address",
          "name": "previousOwner",
          "type": "address"
        },
        {
          "indexed": true,
          "internalType": "address",
          "name": "newOwner",
          "type": "address"
        }
      ],
      "name": "OwnershipTransferred",
      "type": "event"
    },
    {
      "inputs": [],
      "name": "acceptOwnership",
      "outputs": [],
      "stateMutability": "nonpayable",
      "type": "function"
    },
    {
      "inputs": [],
      "name": "owner",
      "outputs": [
        {
          "internalType": "address",
          "name": "",
          "type": "address"
        }
      ],
      "stateMutability": "view",
      "type": "function",
      "constant": true
    },
    {
      "inputs": [],
      "name": "pendingOwner",
      "outputs": [
        {
          "internalType": "address",
          "name": "",
          "type": "address"
        }
      ],
      "stateMutability": "view",
      "type": "function",
      "constant": true
    },
    {
      "inputs": [],
      "name": "renounceOwnership",
      "outputs": [],
      "stateMutability": "nonpayable",
      "type": "function"
    },
    {
      "inputs": [
        {
          "internalType": "address",
          "name": "newOwner",
          "type": "address"
        }
      ],
      "name": "transferOwnership",
      "outputs": [],
      "stateMutability": "nonpayable",
      "type": "function"
    },
    {
      "inputs": [
        {
          "internalType": "address",
          "name": "lender",
          "type": "address"
        },
        {
          "internalType": "address",
          "name": "borrower",
          "type": "address"
        },
        {
          "internalType": "uint256",
          "name": "amountBorrowedInUSD",
          "type": "uint256"
        }
      ],
      "name": "borrowLoan",
      "outputs": [],
      "stateMutability": "nonpayable",
      "type": "function"
    },
    {
      "inputs": [
        {
          "internalType": "address",
          "name": "lender",
          "type": "address"
        },
        {
          "internalType": "address",
          "name": "borrower",
          "type": "address"
        },
        {
          "internalType": "uint256",
          "name": "interestPaidInUSD",
          "type": "uint256"
        },
        {
          "internalType": "bool",
          "name": "completed",
          "type": "bool"
        }
      ],
      "name": "repayLoan",
      "outputs": [],
      "stateMutability": "nonpayable",
      "type": "function"
    },
    {
      "inputs": [
        {
          "internalType": "address",
          "name": "user",
          "type": "address"
        }
      ],
      "name": "activeLoansCount",
      "outputs": [
        {
          "internalType": "uint16",
          "name": "",
          "type": "uint16"
        }
      ],
      "stateMutability": "view",
      "type": "function",
      "constant": true
    },
    {
      "inputs": [
        {
          "internalType": "address",
          "name": "borrower",
          "type": "address"
        },
        {
          "internalType": "uint256",
          "name": "amountInUSD",
          "type": "uint256"
        }
      ],
      "name": "dropCollateral",
      "outputs": [],
      "stateMutability": "nonpayable",
      "type": "function"
    },
    {
      "inputs": [
        {
          "internalType": "address",
          "name": "user",
          "type": "address"
        }
      ],
      "name": "isDefaulter",
      "outputs": [
        {
          "internalType": "bool",
          "name": "",
          "type": "bool"
        }
      ],
      "stateMutability": "view",
      "type": "function",
      "constant": true
    },
    {
      "inputs": [
        {
          "internalType": "address",
          "name": "user",
          "type": "address"
        }
      ],
      "name": "getActivity",
      "outputs": [
        {
          "components": [
            {
              "internalType": "uint16",
              "name": "borrowedTimes",
              "type": "uint16"
            },
            {
              "internalType": "uint16",
              "name": "lentTimes",
              "type": "uint16"
            },
            {
              "internalType": "uint256",
              "name": "borrowedVolume",
              "type": "uint256"
            },
            {
              "internalType": "uint256",
              "name": "lentVolume",
              "type": "uint256"
            },
            {
              "internalType": "uint256",
              "name": "lastActive",
              "type": "uint256"
            },
            {
              "internalType": "uint256",
              "name": "collateralVolume",
              "type": "uint256"
            },
            {
              "internalType": "uint256",
              "name": "interestPaidVolume",
              "type": "uint256"
            },
            {
              "internalType": "uint16",
              "name": "defaultedTimes",
              "type": "uint16"
            },
            {
              "internalType": "uint256",
              "name": "defaultedVolume",
              "type": "uint256"
            },
            {
              "internalType": "uint256",
              "name": "firstBorrowAt",
              "type": "uint256"
            },
            {
              "internalType": "uint16",
              "name": "activeLoans",
              "type": "uint16"
            }
          ],
          "internalType": "struct ActivityLibrary.Model",
          "name": "",
          "type": "tuple"
        }
      ],
      "stateMutability": "view",
      "type": "function",
      "constant": true
    },
    {
      "inputs": [
        {
          "internalType": "address",
          "name": "address_",
          "type": "address"
        }
      ],
      "name": "setLendingPool",
      "outputs": [],
      "stateMutability": "nonpayable",
      "type": "function"
    }
  ],
  "bytecode": "0x6080806040523461006357600180546001600160a01b03199081169091556000805433928116831782556001600160a01b0316907f8be0079c531659141344cd1fd0a4f28419497f9722a3daafe3b4186f6b6457e09080a361091c90816100698239f35b600080fdfe604060808152600436101561001357600080fd5b600090813560e01c908163113aa8b11461065c578163519badd61461054657816363a6c981146104e957816366d13fb6146103f1578163715018a61461038c57816379ba5097146102cd578163875bc3d1146101ed5781638da5cb5b146101c55781639445ae0414610184578163d8689e1314610141578163e30c397814610114575063f2fde38b146100a557600080fd5b34610111576020366003190112610111576100be6106a1565b6100c66106d2565b600180546001600160a01b0319166001600160a01b0392831690811790915582549091167f38d16b8cac22d99fc7c124b9cd0de2d3fa1faef420bfe791d8c362d765e227008380a380f35b80fd5b90503461013d578160031936011261013d5760015490516001600160a01b039091168152602090f35b5080fd5b90503461013d57602036600319011261013d5760209161ffff9060069083906001600160a01b036101706106a1565b168152600386522001541615159051908152f35b90503461013d57602036600319011261013d5760209161ffff9060099083906001600160a01b036101b36106a1565b16815260038652200154169051908152f35b90503461013d578160031936011261013d57905490516001600160a01b039091168152602090f35b90503461013d57608036600319011261013d576102086106a1565b906102116106bc565b9060643580151581036102c9576002546001600160a01b0390811633036102c55784610278826102789561027d9461028299168a526003602052808a209188168a52892094600586016102676044358254610753565b905542600387015561028557610797565b61082c565b610797565b80f35b6009810180549061ffff908161029c818516610818565b1661ffff1980941617905560098701918254916102ba818416610818565b169116179055610797565b8580fd5b8480fd5b90503461013d578160031936011261013d57600154906001600160a01b0390338284160361033757506001600160a01b031991821660015582543392811683178455167f8be0079c531659141344cd1fd0a4f28419497f9722a3daafe3b4186f6b6457e08380a380f35b5162461bcd60e51b815260206004820152602960248201527f4f776e61626c6532537465703a2063616c6c6572206973206e6f7420746865206044820152683732bb9037bbb732b960b91b6064820152608490fd5b82346101115780600319360112610111576103a56106d2565b600180546001600160a01b03199081169091558154908116825581906001600160a01b03167f8be0079c531659141344cd1fd0a4f28419497f9722a3daafe3b4186f6b6457e08280a380f35b90503461013d57602036600319011261013d57610160916104106106a1565b91610419610760565b82815282602082015282828201528260608201528260808201528260a08201528260c08201528260e082015261010093838583015261047a838561012093818587015261014097888097015260018060a01b03168152600360205220610797565b9083519561ffff948584511688528560208501511660208901528084015190880152606083015160608801526080830151608088015260a083015160a088015260c083015160c08801528460e08401511660e08801528083015190870152808201519086015201511690820152f35b90503461013d578060031936011261013d576105036106a1565b6002546001600160a01b03908116330361054257610282926102789183168552600360205284206004810161053b6024358254610753565b9055610797565b8380fd5b90503461013d57606036600319011261013d576105616106a1565b9061056a6106bc565b9060443560018060a01b03806002541633036102c55784610278826102789561027d9461028299168a526003602052808a209188168a52892094815461ffff9063ffff00006105bd838360101c1661072a565b60101b169063ffff00001916178355600283016105db838254610753565b90556009830191825492826105f181861661072a565b1661ffff198095161790554260038501558754838361061181841661072a565b16911617885561062660018901918254610753565b9055600987019182549161063b81841661072a565b16911617905560088501805415610653575b50610797565b4290553861064d565b8234610111576020366003190112610111576106766106a1565b61067e6106d2565b60018060a01b03166bffffffffffffffffffffffff60a01b600254161760025580f35b600435906001600160a01b03821682036106b757565b600080fd5b602435906001600160a01b03821682036106b757565b6000546001600160a01b031633036106e657565b606460405162461bcd60e51b815260206004820152602060248201527f4f776e61626c653a2063616c6c6572206973206e6f7420746865206f776e65726044820152fd5b90600161ffff8093160191821161073d57565b634e487b7160e01b600052601160045260246000fd5b9190820180921161073d57565b60405190610160820182811067ffffffffffffffff82111761078157604052565b634e487b7160e01b600052604160045260246000fd5b906107a0610760565b91600981549161ffff8381809516875260101c166020860152600181015460408601526002810154606086015260038101546080860152600481015460a0860152600581015460c08601528260068201541660e086015260078101546101008601526008810154610120860152015416610140830152565b61ffff908116600019019190821161073d57565b9061ffff808351169281602082015116604082015190606083015160808401519060a085015160c0860151908760e0880151169361010093848901519761012097888b01519b610140809c0151169c6040519e8f91600160a01b6001900316825260208201526040015260608d015260808c015260a08b015260c08a015260e08901528701528501528301526101608201526101807f2dd01e2b69318edb9d1b3c3b89892c0035f669809d9fa20e7a489c2663e0519491a156fea264697066735822122051811e33fef9e8e0798d7769b2750793c8a080f0b2692ffc58d0c953e7789dc364736f6c63430008110033",
  "immutableReferences": {},
  "source": "// SPDX-License-Identifier: GPL-3.0\r\npragma solidity >=0.7.0 <0.9.0;\r\n\r\nimport \"./libraries/ActivityLibrary.sol\";\r\n\r\nimport \"@openzeppelin/contracts/access/Ownable2Step.sol\";\r\n\r\n/// @title Activity contract\r\n/// @author Arogundade Ibrahim\r\n/// @notice Keeps record of every user's activity on the LendingPool contract\r\n/// @dev These records are use to calculate user's darsh score\r\ncontract Activity is Ownable2Step {\r\n    address lendingPool;\r\n\r\n    constructor() Ownable2Step() {}\r\n\r\n    mapping(address => ActivityLibrary.Model) activities;\r\n\r\n    function borrowLoan(\r\n        address lender,\r\n        address borrower,\r\n        uint256 amountBorrowedInUSD\r\n    ) external onlyLendingPool {\r\n        ActivityLibrary.Model storage lenderActivity = activities[lender];\r\n        ActivityLibrary.Model storage borrowerActivity = activities[borrower];\r\n\r\n        lenderActivity.lentTimes += 1;\r\n        lenderActivity.lentVolume += amountBorrowedInUSD;\r\n        lenderActivity.activeLoans += 1;\r\n\r\n        lenderActivity.lastActive = block.timestamp;\r\n\r\n        borrowerActivity.borrowedTimes += 1;\r\n        borrowerActivity.borrowedVolume += amountBorrowedInUSD;\r\n        borrowerActivity.activeLoans += 1;\r\n\r\n        if (borrowerActivity.firstBorrowAt == 0) {\r\n            borrowerActivity.firstBorrowAt = block.timestamp;\r\n        }\r\n\r\n        _emitActivity(lenderActivity, lender);\r\n        _emitActivity(borrowerActivity, borrower);\r\n    }\r\n\r\n    function repayLoan(\r\n        address lender,\r\n        address borrower,\r\n        uint256 interestPaidInUSD,\r\n        bool completed\r\n    ) external onlyLendingPool {\r\n        ActivityLibrary.Model storage lenderActivity = activities[lender];\r\n        ActivityLibrary.Model storage borrowerActivity = activities[borrower];\r\n\r\n        borrowerActivity.interestPaidVolume += interestPaidInUSD;\r\n        borrowerActivity.lastActive = block.timestamp;\r\n\r\n        if (completed) {\r\n            lenderActivity.activeLoans -= 1;\r\n            borrowerActivity.activeLoans -= 1;\r\n        }\r\n\r\n        _emitActivity(lenderActivity, lender);\r\n        _emitActivity(borrowerActivity, borrower);\r\n    }\r\n\r\n    function activeLoansCount(address user) external view returns (uint16) {\r\n        return activities[user].activeLoans;\r\n    }\r\n\r\n    function dropCollateral(address borrower, uint256 amountInUSD)\r\n        external\r\n        onlyLendingPool\r\n    {\r\n        ActivityLibrary.Model storage activity = activities[borrower];\r\n        activity.collateralVolume += amountInUSD;\r\n\r\n        _emitActivity(activity, borrower);\r\n    }\r\n\r\n    function isDefaulter(address user) external view returns (bool) {\r\n        return activities[user].defaultedTimes > 0;\r\n    }\r\n\r\n    function getActivity(address user)\r\n        external\r\n        view\r\n        returns (ActivityLibrary.Model memory)\r\n    {\r\n        return activities[user];\r\n    }\r\n\r\n    function _emitActivity(ActivityLibrary.Model memory activity, address user) private {\r\n        emit ActivityLibrary.ActivityChanged(\r\n            user,\r\n            activity.borrowedTimes,\r\n            activity.lentTimes,\r\n            activity.borrowedVolume,\r\n            activity.lentVolume,\r\n            activity.lastActive,\r\n            activity.collateralVolume,\r\n            activity.interestPaidVolume,\r\n            activity.defaultedTimes,\r\n            activity.defaultedVolume,\r\n            activity.firstBorrowAt,\r\n            activity.activeLoans\r\n        );\r\n    }\r\n\r\n    function setLendingPool(address address_) public onlyOwner {\r\n        lendingPool = address_;\r\n    }\r\n\r\n    modifier onlyLendingPool() {\r\n        require(msg.sender == lendingPool);\r\n        _;\r\n    }\r\n}\r\n",
  "sourcePath": "C:\\Users\\DELL\\Documents\\darsh\\smart-contracts\\contracts\\Activity.sol",
  "compiler": {
    "name": "solc",
    "version": "0.8.17+commit.8df45f5f.Emscripten.clang"
  },
  "schemaVersion": "3.4.11",
  "updatedAt": "2023-03-01T16:50:31.689Z",
  "networkType": "ethereum",
  "devdoc": {
    "author": "Arogundade Ibrahim",
    "details": "These records are use to calculate user's darsh score",
    "kind": "dev",
    "methods": {
      "acceptOwnership()": {
        "details": "The new owner accepts the ownership transfer."
      },
      "owner()": {
        "details": "Returns the address of the current owner."
      },
      "pendingOwner()": {
        "details": "Returns the address of the pending owner."
      },
      "renounceOwnership()": {
        "details": "Leaves the contract without owner. It will not be possible to call `onlyOwner` functions anymore. Can only be called by the current owner. NOTE: Renouncing ownership will leave the contract without an owner, thereby removing any functionality that is only available to the owner."
      },
      "transferOwnership(address)": {
        "details": "Starts the ownership transfer of the contract to a new account. Replaces the pending transfer if there is one. Can only be called by the current owner."
      }
    },
    "title": "Activity contract",
    "version": 1
  },
  "userdoc": {
    "kind": "user",
    "methods": {},
    "notice": "Keeps record of every user's activity on the LendingPool contract",
    "version": 1
  }
}