{
  "contractName": "Borrowing",
  "abi": [
    {
      "inputs": [
        {
          "internalType": "address",
          "name": "poolManager_",
          "type": "address"
        },
        {
          "internalType": "address",
          "name": "loanManager_",
          "type": "address"
        },
        {
          "internalType": "address",
          "name": "offerManager_",
          "type": "address"
        },
        {
          "internalType": "address",
          "name": "activity_",
          "type": "address"
        },
        {
          "internalType": "address",
          "name": "stakingManager_",
          "type": "address"
        },
        {
          "internalType": "address",
          "name": "trustScore_",
          "type": "address"
        },
        {
          "internalType": "address",
          "name": "tokenFeed_",
          "type": "address"
        },
        {
          "internalType": "address",
          "name": "priceFeed_",
          "type": "address"
        }
      ],
      "stateMutability": "nonpayable",
      "type": "constructor"
    },
    {
      "inputs": [
        {
          "internalType": "enum AssetLibrary.Type",
          "name": "principalType",
          "type": "uint8"
        },
        {
          "internalType": "uint256",
          "name": "principal",
          "type": "uint256"
        },
        {
          "internalType": "enum AssetLibrary.Type",
          "name": "collateralType",
          "type": "uint8"
        },
        {
          "internalType": "uint256",
          "name": "_collateral",
          "type": "uint256"
        },
        {
          "internalType": "uint256",
          "name": "interest",
          "type": "uint256"
        },
        {
          "internalType": "uint256",
          "name": "daysToMaturity",
          "type": "uint256"
        },
        {
          "internalType": "uint256",
          "name": "daysToExpire",
          "type": "uint256"
        }
      ],
      "name": "createBorrowingOffer",
      "outputs": [],
      "stateMutability": "payable",
      "type": "function",
      "payable": true
    },
    {
      "inputs": [
        {
          "internalType": "uint256",
          "name": "offerId",
          "type": "uint256"
        },
        {
          "internalType": "uint256",
          "name": "desiredAmount",
          "type": "uint256"
        },
        {
          "internalType": "enum AssetLibrary.Type",
          "name": "collateralType",
          "type": "uint8"
        }
      ],
      "name": "acceptLendingOffer",
      "outputs": [],
      "stateMutability": "payable",
      "type": "function",
      "payable": true
    },
    {
      "inputs": [
        {
          "internalType": "uint256",
          "name": "loanId",
          "type": "uint256"
        }
      ],
      "name": "repayLoan",
      "outputs": [],
      "stateMutability": "payable",
      "type": "function",
      "payable": true
    },
    {
      "inputs": [
        {
          "internalType": "uint256",
          "name": "loanId",
          "type": "uint256"
        }
      ],
      "name": "repayLiquidatedLoan",
      "outputs": [],
      "stateMutability": "payable",
      "type": "function",
      "payable": true
    }
  ],
  "bytecode": "0x6080346200015857601f6200145438819003918201601f19168301916001600160401b038311848410176200015d578084926101009460405283398101031262000158576200004e8162000173565b906200005d6020820162000173565b916200006c6040830162000173565b926200007b6060840162000173565b936200008a6080850162000173565b906200009960a0860162000173565b92620000b660e0620000ae60c0890162000173565b970162000173565b9460018060a01b03199760018060a01b031688600054161760005560018060a01b031687600154161760015560018060a01b031686600254161760025560018060a01b031685600354161760035560018060a01b031684600454161760045560018060a01b031683600554161760055560018060a01b031682600754161760075560018060a01b03169060065416176006556040516112cb9081620001898239f35b600080fd5b634e487b7160e01b600052604160045260246000fd5b51906001600160a01b0382168203620001585756fe608080604052600436101561001357600080fd5b600090813560e01c90816361ba944314610fca575080637af33148146106235780637f88c128146101005763ab7b1c891461004d57600080fd5b60203660031901126100b157600254604051632820036560e11b81526004803590820152610180918290829060249082906001600160a01b03165afa9081156100f55760209284926100c8575b5050015160038110156100b4576002146100b15780f35b80fd5b634e487b7160e01b82526021600452602482fd5b6100e79250803d106100ee575b6100df8183611075565b8101906111c0565b388061009a565b503d6100d5565b6040513d85823e3d90fd5b5060e03660031901126100b15760043560068110156104fc5760443590600682101561061f57825460405163d8689e1360e01b815233600482015260209360249390926001600160a01b039260643591879082908890829088165afa8015610614576101749189916105f7575b50156110af565b826006541691604051630b5a7f2360e31b81526101946004820187611105565b87818881875afa9384156105755788918a956105bc575b50604051632e47633760e01b81529190829060049082905afa9283156105755788918a94610580575b50848616938616840361050757505090503490876004888660015416604051928380926338cc483160e01b82525afa801561046757848391889383916104c4575b509082938392165af13d156104bf573d67ffffffffffffffff81116104ac576040519061024b601f8201601f19168b0183611075565b815289893d92013e5b15610472575b600154604051638340f54960e01b81523360048201526001600160a01b038516602482015260448101849052899189908290606490829086908b165af18015610467576102fa956102b586928c94869161044a575b50611128565b60048054604051635f62f12960e01b815233928101929092526001600160a01b0390921660248201526044810192909252909586918816908290859082906064820190565b03925af192831561043d57889561031f61010495610343978591610410575b50611174565b60035416906103536040519889978896633b19293960e21b88526004880190611105565b8a358b8701526044860190611105565b6064840152608435608484015260a43560a484015260c43560c48401523360e48401525af19081156104055784916103d3575b5015610390578280f35b9060186064926040519262461bcd60e51b845260048401528201527f4552525f4f464645525f4d414e414745525f43524541544500000000000000006044820152fd5b90508281813d83116103fe575b6103ea8183611075565b810103126103f9575138610386565b600080fd5b503d6103e0565b6040513d86823e3d90fd5b6104309150893d8b11610436575b6104288183611075565b810190611097565b38610319565b503d61041e565b50604051903d90823e3d90fd5b6104619150853d8711610436576104288183611075565b386102af565b6040513d84823e3d90fd5b60405162461bcd60e51b815260048101889052601381880152724552525f5452414e534645525f4e415449564560681b6044820152606490fd5b634e487b7160e01b8a526041600452878afd5b610254565b93505050508881813d8311610500575b6104de8183611075565b810103126104fc575185811681036104fc5785908290859082610215565b5080fd5b503d6104d4565b6001546040516323b872dd60e01b81523360048201529087166001600160a01b031660248201526044810182905290939091908290818c816064810103925af1801561057557610558575b5061025a565b61056e90883d8a11610436576104288183611075565b5038610552565b6040513d8b823e3d90fd5b8281939295503d83116105b5575b6105988183611075565b810103126105b1576105aa88916110f1565b92386101d4565b8880fd5b503d61058e565b8281939296503d83116105f0575b6105d48183611075565b810103126105b157876105e86004926110f1565b9490916101ab565b503d6105ca565b61060e9150883d8a11610436576104288183611075565b3861016d565b6040513d8a823e3d90fd5b8280fd5b5060603660031901126100b157600660443510156100b15760035460405163ab64a18560e01b8152600480359082015290610100908190839060249082906001600160a01b03165afa9182156100f5578392610f0d575b5050604081015160243511610ec857815460e082015160405163d8689e1360e01b8082526001600160a01b039283166004830152919092169291602081602481875afa908115610ba8578591610ea9575b50610e7057604051908152336004820152602081602481865afa8015610405576106fc918591610e575750156110af565b60068054602083018051909290916001600160a01b031690821015610e4357604051630b5a7f2360e31b815291610737906004840190611105565b602082602481845afa918215610be3578692610e04575b5090602060249260405193848092630b5a7f2360e31b825261077560048301604435611105565b5afa918215610be3578692610dc3575b50602060249560405196878092632070c0ef60e11b82523360048301525afa948515610be3578695610d8f575b5060055460408051632638eae560e11b8152336004820152602481019790975290869060449082906001600160a01b03165afa948515610be3578695610d4e575b5060075460405163102a5f9160e01b81526001600160a01b03838116600483015284811660248084019190915235604483015290969160209188916064918391165afa958615610bee578796610d1a575b5060405195635b8828f160e11b87526004870152602486015260208560448173__SimpleMath____________________________5af4948515610be3578695610ce2575b50600654604051632e47633760e01b815290602090829060049082906001600160a01b03165afa8015610bee5786918891610ca2575b506001600160a01b0384811691168103610c36575050348510610bf9575b600154604051638340f54960e01b81523360048201526001600160a01b038481166024830152604482018890529091602091839160649183918c91165af18015610bee576109849361093888926020948b9161044a5750611128565b6004805460e0890151604051635f62f12960e01b81526001600160a01b0391821693810193909352928316602483015260448201939093529485929091169082908a9082906064820190565b03925af1908115610be3576109a56020926109f4948991610bcc5750611174565b6004805460e0870151604051631189c13b60e11b81526001600160a01b039182169381019390935292831660248084019190915235604483015290938492909116908290899082906064820190565b03925af18015610ba857610a0e918691610bb35750611174565b60035484906001600160a01b0316803b156104fc5781906044604051809481936304c677dd60e41b8352600435600484015260243560248401525af18015610ba857610b95575b5060018060a01b03600254169051916006831015610b815760209285610abd938360606101449501519060808101519060e060018060a01b039101511691604051998a98899763cc2d5a2f60e01b895260043560048a01528760248a01526044890190611105565b610acc60648801604435611105565b602435608488015260a487015260c486015260e4850152336101048501526101248401525af1801561046757610b56575b50805481906001600160a01b0316803b15610b53578180916044604051809481936305fa180b60e31b83523360048401528160248401525af1801561046757610b435750f35b610b4c9061104b565b6100b15780f35b50fd5b602090813d8311610b7a575b610b6c8183611075565b810103126103f95738610afd565b503d610b62565b634e487b7160e01b85526021600452602485fd5b610ba19094919461104b565b9238610a55565b6040513d87823e3d90fd5b610430915060203d602011610436576104288183611075565b6104309150843d8611610436576104288183611075565b6040513d88823e3d90fd5b6040513d89823e3d90fd5b60405162461bcd60e51b815260206004820152601560248201527411549497d0d3d31310551154905317d05353d55395605a1b6044820152606490fd5b6001546040516323b872dd60e01b81523360048201526001600160a01b0390911660248201526044810192909252602090829060649082908b905af18015610bee57610c83575b506108dc565b610c9b9060203d602011610436576104288183611075565b5038610c7d565b9150506020813d602011610cda575b81610cbe60209383611075565b81010312610cd657610cd086916110f1565b386108be565b8680fd5b3d9150610cb1565b9094506020813d602011610d12575b81610cfe60209383611075565b81010312610d0e57519338610888565b8580fd5b3d9150610cf1565b9095506020813d602011610d46575b81610d3660209383611075565b81010312610cd657519438610844565b3d9150610d29565b9094506040813d604011610d87575b81610d6a60409383611075565b81010312610d0e57600381511015610d0e576020015193386107f3565b3d9150610d5d565b9094506020813d602011610dbb575b81610dab60209383611075565b81010312610d0e575193386107b2565b3d9150610d9e565b9491506020853d602011610dfc575b81610ddf60209383611075565b81010312610d0e576020610df46024966110f1565b929550610785565b3d9150610dd2565b91506020823d602011610e3b575b81610e1f60209383611075565b81010312610d0e576020610e346024936110f1565b925061074e565b3d9150610e12565b634e487b7160e01b86526021600452602486fd5b61060e915060203d602011610436576104288183611075565b60405162461bcd60e51b815260206004820152601160248201527022a9292faaa729a0a322afa622a72222a960791b6044820152606490fd5b610ec2915060203d602011610436576104288183611075565b386106cb565b60405162461bcd60e51b815260206004820152601760248201527f4552525f494e53554646494349454e545f414d4f554e540000000000000000006044820152606490fd5b9080925081813d8311610fc3575b610f258183611075565b8101031261061f5760405191820182811067ffffffffffffffff821117610faf576040528051825260208101516006811015610fab57610f9f9160e091602085015260408101516040850152606081015160608501526080810151608085015260a081015160a085015260c081015160c0850152016110f1565b60e0820152388061067a565b8380fd5b634e487b7160e01b84526041600452602484fd5b503d610f1b565b905060203660031901126104fc57600254632820036560e11b8252600480359083015261018091908290829060249082906001600160a01b03165afa9081156100f557602092849261102e575b5050015160038110156100b4576002036100b15780f35b6110449250803d106100ee576100df8183611075565b3880611017565b67ffffffffffffffff811161105f57604052565b634e487b7160e01b600052604160045260246000fd5b90601f8019910116810190811067ffffffffffffffff82111761105f57604052565b908160209103126103f9575180151581036103f95790565b156110b657565b60405162461bcd60e51b815260206004820152601360248201527222a9292faaa729a0a322afa127a92927aba2a960691b6044820152606490fd5b51906001600160a01b03821682036103f957565b9060068210156111125752565b634e487b7160e01b600052602160045260246000fd5b1561112f57565b60405162461bcd60e51b815260206004820152601860248201527f4552525f504f4f4c5f4d414e414745525f4445504f53495400000000000000006044820152606490fd5b1561117b57565b60405162461bcd60e51b815260206004820152601b60248201527f4552525f5354414b494e475f4d414e414745525f50524f5649444500000000006044820152606490fd5b809161018092839103126103f95760405191820182811067ffffffffffffffff82111761105f5760405280518252602081015160038110156103f9576020830152604081015160028110156103f9576040830152606081015160068110156103f9576060830152608081015160068110156103f957608083015260a081015160a083015260c081015160c083015260e081015160e08301526101008082015190830152610120808201519083015261014061127c8183016110f1565b9083015261128e6101608092016110f1565b908201529056fea26469706673582212200914538bd686f8c58599c7e4ec8695bab5b9f4f7a1de91dc5f3a5cc635257ce964736f6c63430008110033",
  "immutableReferences": {},
  "source": "// SPDX-License-Identifier: GPL-3.0\r\npragma solidity >=0.7.0 <0.9.0;\r\n\r\nimport \"./TrustScore.sol\";\r\nimport \"./LoanManager.sol\";\r\nimport \"./PoolManager.sol\";\r\nimport \"./OfferManager.sol\";\r\nimport \"./Activity.sol\";\r\nimport \"./StakingManager.sol\";\r\nimport \"@openzeppelin/contracts/token/ERC20/IERC20.sol\";\r\nimport \"@openzeppelin/contracts/utils/math/SafeMath.sol\";\r\nimport \"@openzeppelin/contracts/utils/Context.sol\";\r\nimport \"../math/SimpleMath.sol\";\r\nimport \"../libraries/AssetLibrary.sol\";\r\nimport \"../libraries/OfferLibrary.sol\";\r\nimport \"../data/PriceFeed.sol\";\r\nimport \"../data/TokenFeed.sol\";\r\n\r\ncontract Borrowing is Context {\r\n    using SafeMath for uint256;\r\n\r\n    Activity private _activity;\r\n    PoolManager private _poolManager;\r\n    LoanManager private _loanManager;\r\n    OfferManager private _offerManager;\r\n    StakingManager private _stakingManager;\r\n    TrustScore private _trustScore;\r\n    TokenFeed private _tokenFeed;\r\n    PriceFeed private _priceFeed;\r\n\r\n    constructor(\r\n        address poolManager_,\r\n        address loanManager_,\r\n        address offerManager_,\r\n        address activity_,\r\n        address stakingManager_,\r\n        address trustScore_,\r\n        address tokenFeed_,\r\n        address priceFeed_\r\n    ) {\r\n        _activity = Activity(activity_);\r\n        _poolManager = PoolManager(poolManager_);\r\n        _loanManager = LoanManager(loanManager_);\r\n        _offerManager = OfferManager(offerManager_);\r\n        _stakingManager = StakingManager(stakingManager_);\r\n        _trustScore = TrustScore(trustScore_);\r\n        _priceFeed = PriceFeed(priceFeed_);\r\n        _tokenFeed = TokenFeed(tokenFeed_);\r\n    }\r\n\r\n    function createBorrowingOffer(\r\n        AssetLibrary.Type principalType,\r\n        uint256 principal, // for ERC20 assets\r\n        AssetLibrary.Type collateralType,\r\n        uint256 _collateral, // for ERC20 assets\r\n        uint256 interest,\r\n        uint256 daysToMaturity,\r\n        uint256 daysToExpire\r\n    ) public payable {\r\n        uint256 collateral;\r\n\r\n        /* checks if the borrower is a defaulter */\r\n        require(!_activity.isDefaulter(_msgSender()), \"ERR_UNSAFE_BORROWER\");\r\n\r\n        /* derive the address of the collateral from data repository */\r\n        address collateralToken = _tokenFeed.getTokenAddress(collateralType);\r\n\r\n        /* extract collateral from borrower */\r\n        if (collateralToken == _tokenFeed.nativeAddress()) {\r\n            collateral = msg.value;\r\n            (bool success, ) = _poolManager.getAddress().call{\r\n                value: collateral\r\n            }(\"\");\r\n            require(success, \"ERR_TRANSFER_NATIVE\");\r\n        } else {\r\n            collateral = _collateral;\r\n            IERC20(collateralToken).transferFrom(\r\n                _msgSender(),\r\n                address(_poolManager),\r\n                collateral\r\n            );\r\n        }\r\n\r\n        /* deposit tokens to vault */\r\n        require(\r\n            _poolManager.deposit(\r\n                _msgSender(),\r\n                collateralToken,\r\n                collateral\r\n            ),\r\n            \"ERR_POOL_MANAGER_DEPOSIT\"\r\n        );\r\n\r\n        /* allocate staking reward */\r\n        require(\r\n            _stakingManager.provideLiquidityFor(\r\n                _msgSender(),\r\n                collateralToken,\r\n                collateral\r\n            ),\r\n            \"ERR_STAKING_MANAGER_PROVIDE\"\r\n        );\r\n\r\n        /* create the offer */\r\n        require(\r\n            _offerManager.createBorrowingOffer(\r\n                principalType,\r\n                principal,\r\n                collateralType,\r\n                collateral,\r\n                interest,\r\n                daysToMaturity,\r\n                daysToExpire,\r\n                _msgSender()\r\n            ) > 0,\r\n            \"ERR_OFFER_MANAGER_CREATE\"\r\n        );\r\n    }\r\n\r\n    function acceptLendingOffer(\r\n        uint256 offerId,\r\n        uint256 desiredAmount,\r\n        AssetLibrary.Type collateralType\r\n    ) public payable {\r\n        OfferLibrary.LendingOffer memory offer = _offerManager.getLendingOffer(\r\n            offerId\r\n        );\r\n\r\n        require(\r\n            desiredAmount <= offer.principal,\r\n            \"ERR_INSUFFICIENT_AMOUNT\"\r\n        );\r\n\r\n        /* checks if the lender is a defaulter */\r\n        /* checks if the borrower is a defaulter */\r\n        require(!_activity.isDefaulter(offer.lender), \"ERR_UNSAFE_LENDER\");\r\n        require(!_activity.isDefaulter(_msgSender()), \"ERR_UNSAFE_BORROWER\");\r\n\r\n        /* derive the address of the asset types from data repository */\r\n        address principalToken = _tokenFeed.getTokenAddress(offer.principalType);\r\n        address collateralToken = _tokenFeed.getTokenAddress(collateralType);\r\n\r\n        /* get the trust factor of the borrower */\r\n        uint256 pendingLoans = _activity.pendingLoans(_msgSender());\r\n        (, uint256 percentage) = _trustScore.trustGrade(\r\n            _msgSender(),\r\n            pendingLoans\r\n        );\r\n\r\n        /* calculate the collateral amount */\r\n        uint256 fullCollateral = _priceFeed.estimate(\r\n            principalToken,\r\n            collateralToken,\r\n            desiredAmount\r\n        );\r\n\r\n        uint256 collateral = SimpleMath.percentageOf(\r\n            fullCollateral,\r\n            percentage\r\n        );\r\n\r\n        /* extract collateral tokens from borrower */\r\n        if (collateralToken == _tokenFeed.nativeAddress()) {\r\n            require(collateral >= msg.value, \"ERR_COLLATERAL_AMOUNT\");\r\n            // (bool success, ) = _poolManager.getAddress().call{\r\n            //     value: collateral\r\n            // }(\"\");\r\n            // require(success, \"ERR_TRANSFER_NATIVE\");\r\n        } else {\r\n            IERC20(collateralToken).transferFrom(\r\n                _msgSender(),\r\n                address(_poolManager),\r\n                collateral\r\n            );\r\n        }\r\n\r\n        require(\r\n            _poolManager.deposit(\r\n                _msgSender(),\r\n                collateralToken,\r\n                collateral\r\n            ),\r\n            \"ERR_POOL_MANAGER_DEPOSIT\"\r\n        );\r\n\r\n        /* allocate staking reward for lender on collateral */\r\n        require(\r\n            _stakingManager.provideLiquidityFor(\r\n                offer.lender,\r\n                collateralToken,\r\n                collateral\r\n            ),\r\n            \"ERR_STAKING_MANAGER_PROVIDE\"\r\n        );\r\n\r\n        /* unallocate staking reward for lender on principal */\r\n        require(\r\n            _stakingManager.withdrawLiquidityFor(\r\n                offer.lender,\r\n                principalToken,\r\n                desiredAmount\r\n            ),\r\n            \"ERR_STAKING_MANAGER_PROVIDE\"\r\n        );\r\n\r\n        /* transfer the asset to borrower */\r\n        // _poolManager.transfer(\r\n        //     _msgSender(),\r\n        //     principalToken,\r\n        //     desiredAmount,\r\n        //     principalToken == _tokenFeed.nativeAddress()\r\n        // );\r\n\r\n        /* update offer balance */\r\n        _offerManager.deductOfferAmount(offerId, desiredAmount);\r\n\r\n        /* register the loan */\r\n        _loanManager.createLoan(\r\n            offerId,\r\n            OfferLibrary.Type.LENDING_OFFER,\r\n            offer.principalType,\r\n            collateralType,\r\n            desiredAmount,\r\n            collateral,\r\n            offer.interest,\r\n            offer.daysToMaturity,\r\n            _msgSender(),\r\n            offer.lender\r\n        );\r\n\r\n        /* update experience */\r\n        // amount in USD\r\n        _activity.incrementBorrowed(_msgSender(), 0);\r\n    }\r\n\r\n    function repayLoan(uint256 loanId) public payable {\r\n        LoanLibrary.Loan memory loan = _loanManager.getLoan(loanId);\r\n\r\n        bool liquidated = loan.status == LoanLibrary.State.LIQUIDATED;\r\n        require(!liquidated);\r\n    }\r\n\r\n    function repayLiquidatedLoan(uint256 loanId) public payable {\r\n        LoanLibrary.Loan memory loan = _loanManager.getLoan(loanId);\r\n\r\n        bool liquidated = loan.status == LoanLibrary.State.LIQUIDATED;\r\n        require(liquidated);\r\n    }\r\n}\r\n",
  "sourcePath": "C:\\Users\\DELL\\Documents\\darsh\\smart-contracts\\contracts\\core\\Borrowing.sol",
  "compiler": {
    "name": "solc",
    "version": "0.8.17+commit.8df45f5f.Emscripten.clang"
  },
  "schemaVersion": "3.4.11",
  "updatedAt": "2023-02-03T22:21:06.102Z",
  "networkType": "ethereum",
  "devdoc": {
    "kind": "dev",
    "methods": {},
    "version": 1
  },
  "userdoc": {
    "kind": "user",
    "methods": {},
    "version": 1
  }
}