{
  "contractName": "DarshNFT",
  "abi": [
    {
      "inputs": [],
      "stateMutability": "nonpayable",
      "type": "constructor"
    },
    {
      "anonymous": false,
      "inputs": [
        {
          "indexed": true,
          "internalType": "address",
          "name": "owner",
          "type": "address"
        },
        {
          "indexed": true,
          "internalType": "address",
          "name": "approved",
          "type": "address"
        },
        {
          "indexed": true,
          "internalType": "uint256",
          "name": "tokenId",
          "type": "uint256"
        }
      ],
      "name": "Approval",
      "type": "event"
    },
    {
      "anonymous": false,
      "inputs": [
        {
          "indexed": true,
          "internalType": "address",
          "name": "owner",
          "type": "address"
        },
        {
          "indexed": true,
          "internalType": "address",
          "name": "operator",
          "type": "address"
        },
        {
          "indexed": false,
          "internalType": "bool",
          "name": "approved",
          "type": "bool"
        }
      ],
      "name": "ApprovalForAll",
      "type": "event"
    },
    {
      "anonymous": false,
      "inputs": [
        {
          "indexed": true,
          "internalType": "address",
          "name": "previousOwner",
          "type": "address"
        },
        {
          "indexed": true,
          "internalType": "address",
          "name": "newOwner",
          "type": "address"
        }
      ],
      "name": "OwnershipTransferStarted",
      "type": "event"
    },
    {
      "anonymous": false,
      "inputs": [
        {
          "indexed": true,
          "internalType": "address",
          "name": "previousOwner",
          "type": "address"
        },
        {
          "indexed": true,
          "internalType": "address",
          "name": "newOwner",
          "type": "address"
        }
      ],
      "name": "OwnershipTransferred",
      "type": "event"
    },
    {
      "anonymous": false,
      "inputs": [
        {
          "indexed": true,
          "internalType": "address",
          "name": "from",
          "type": "address"
        },
        {
          "indexed": true,
          "internalType": "address",
          "name": "to",
          "type": "address"
        },
        {
          "indexed": true,
          "internalType": "uint256",
          "name": "tokenId",
          "type": "uint256"
        }
      ],
      "name": "Transfer",
      "type": "event"
    },
    {
      "inputs": [],
      "name": "acceptOwnership",
      "outputs": [],
      "stateMutability": "nonpayable",
      "type": "function"
    },
    {
      "inputs": [
        {
          "internalType": "address",
          "name": "to",
          "type": "address"
        },
        {
          "internalType": "uint256",
          "name": "tokenId",
          "type": "uint256"
        }
      ],
      "name": "approve",
      "outputs": [],
      "stateMutability": "nonpayable",
      "type": "function"
    },
    {
      "inputs": [
        {
          "internalType": "address",
          "name": "owner",
          "type": "address"
        }
      ],
      "name": "balanceOf",
      "outputs": [
        {
          "internalType": "uint256",
          "name": "",
          "type": "uint256"
        }
      ],
      "stateMutability": "view",
      "type": "function"
    },
    {
      "inputs": [
        {
          "internalType": "uint256",
          "name": "tokenId",
          "type": "uint256"
        }
      ],
      "name": "getApproved",
      "outputs": [
        {
          "internalType": "address",
          "name": "",
          "type": "address"
        }
      ],
      "stateMutability": "view",
      "type": "function"
    },
    {
      "inputs": [
        {
          "internalType": "address",
          "name": "owner",
          "type": "address"
        },
        {
          "internalType": "address",
          "name": "operator",
          "type": "address"
        }
      ],
      "name": "isApprovedForAll",
      "outputs": [
        {
          "internalType": "bool",
          "name": "",
          "type": "bool"
        }
      ],
      "stateMutability": "view",
      "type": "function"
    },
    {
      "inputs": [],
      "name": "name",
      "outputs": [
        {
          "internalType": "string",
          "name": "",
          "type": "string"
        }
      ],
      "stateMutability": "view",
      "type": "function"
    },
    {
      "inputs": [],
      "name": "owner",
      "outputs": [
        {
          "internalType": "address",
          "name": "",
          "type": "address"
        }
      ],
      "stateMutability": "view",
      "type": "function"
    },
    {
      "inputs": [
        {
          "internalType": "uint256",
          "name": "tokenId",
          "type": "uint256"
        }
      ],
      "name": "ownerOf",
      "outputs": [
        {
          "internalType": "address",
          "name": "",
          "type": "address"
        }
      ],
      "stateMutability": "view",
      "type": "function"
    },
    {
      "inputs": [],
      "name": "pendingOwner",
      "outputs": [
        {
          "internalType": "address",
          "name": "",
          "type": "address"
        }
      ],
      "stateMutability": "view",
      "type": "function"
    },
    {
      "inputs": [],
      "name": "renounceOwnership",
      "outputs": [],
      "stateMutability": "nonpayable",
      "type": "function"
    },
    {
      "inputs": [
        {
          "internalType": "address",
          "name": "from",
          "type": "address"
        },
        {
          "internalType": "address",
          "name": "to",
          "type": "address"
        },
        {
          "internalType": "uint256",
          "name": "tokenId",
          "type": "uint256"
        }
      ],
      "name": "safeTransferFrom",
      "outputs": [],
      "stateMutability": "nonpayable",
      "type": "function"
    },
    {
      "inputs": [
        {
          "internalType": "address",
          "name": "from",
          "type": "address"
        },
        {
          "internalType": "address",
          "name": "to",
          "type": "address"
        },
        {
          "internalType": "uint256",
          "name": "tokenId",
          "type": "uint256"
        },
        {
          "internalType": "bytes",
          "name": "data",
          "type": "bytes"
        }
      ],
      "name": "safeTransferFrom",
      "outputs": [],
      "stateMutability": "nonpayable",
      "type": "function"
    },
    {
      "inputs": [
        {
          "internalType": "address",
          "name": "operator",
          "type": "address"
        },
        {
          "internalType": "bool",
          "name": "approved",
          "type": "bool"
        }
      ],
      "name": "setApprovalForAll",
      "outputs": [],
      "stateMutability": "nonpayable",
      "type": "function"
    },
    {
      "inputs": [
        {
          "internalType": "bytes4",
          "name": "interfaceId",
          "type": "bytes4"
        }
      ],
      "name": "supportsInterface",
      "outputs": [
        {
          "internalType": "bool",
          "name": "",
          "type": "bool"
        }
      ],
      "stateMutability": "view",
      "type": "function"
    },
    {
      "inputs": [],
      "name": "symbol",
      "outputs": [
        {
          "internalType": "string",
          "name": "",
          "type": "string"
        }
      ],
      "stateMutability": "view",
      "type": "function"
    },
    {
      "inputs": [
        {
          "internalType": "uint256",
          "name": "tokenId",
          "type": "uint256"
        }
      ],
      "name": "tokenURI",
      "outputs": [
        {
          "internalType": "string",
          "name": "",
          "type": "string"
        }
      ],
      "stateMutability": "view",
      "type": "function"
    },
    {
      "inputs": [
        {
          "internalType": "address",
          "name": "from",
          "type": "address"
        },
        {
          "internalType": "address",
          "name": "to",
          "type": "address"
        },
        {
          "internalType": "uint256",
          "name": "tokenId",
          "type": "uint256"
        }
      ],
      "name": "transferFrom",
      "outputs": [],
      "stateMutability": "nonpayable",
      "type": "function"
    },
    {
      "inputs": [
        {
          "internalType": "address",
          "name": "newOwner",
          "type": "address"
        }
      ],
      "name": "transferOwnership",
      "outputs": [],
      "stateMutability": "nonpayable",
      "type": "function"
    }
  ],
  "bytecode": "0x60803462000371576040906001600160401b03818301818111838210176200035b578352600882526020906711185c9cda13919560c21b828401528351848101818110838211176200035b57855260048152630f088a6960e31b83820152600180546001600160a01b031990811682556000805491821633908117825590969293916001600160a01b03167f8be0079c531659141344cd1fd0a4f28419497f9722a3daafe3b4186f6b6457e08880a381518481116200034757600254928484811c941680156200033c575b8785101462000328578190601f94858111620002d4575b5087908583116001146200026e57899262000262575b5050600019600383901b1c191690841b176002555b80519384116200024e5760039586548481811c9116801562000243575b878210146200022f57838111620001e7575b50859285116001146200018157939450849291908362000175575b50501b9160001990841b1c19161790555b5161104b9081620003778239f35b01519250388062000156565b86815285812093958591601f198316915b88838310620001cc5750505010620001b3575b505050811b01905562000167565b015160001983861b60f8161c19169055388080620001a5565b85870151885590960195948501948793509081019062000192565b8782528682208480880160051c82019289891062000225575b0160051c019085905b828110620002195750506200013b565b83815501859062000209565b9250819262000200565b634e487b7160e01b82526022600452602482fd5b90607f169062000129565b634e487b7160e01b86526041600452602486fd5b015190503880620000f7565b60028a52888a208794509190601f1984168b5b8b828210620002bd5750508411620002a3575b505050811b016002556200010c565b015160001960f88460031b161c1916905538808062000294565b8385015186558a9790950194938401930162000281565b909150600289528789208580850160051c8201928a86106200031e575b918891869594930160051c01915b8281106200030f575050620000e1565b8b8155859450889101620002ff565b92508192620002f1565b634e487b7160e01b88526022600452602488fd5b93607f1693620000ca565b634e487b7160e01b87526041600452602487fd5b634e487b7160e01b600052604160045260246000fd5b600080fdfe60806040908082526004918236101561001757600080fd5b600092833560e01c92836301ffc9a7146109855750826306fdde03146108b8578263081812fc14610898578263095ea7b31461072657826323b872dd146106fc57826342842e0e146106ae5782636352211e1461067d57826370a08231146105e8578263715018a61461058357826379ba5097146104c35782638da5cb5b1461049b57826395d89b4114610384578263a22cb465146102b5578263b88d4fde14610228578263c87b56dd146101d757508163e30c3978146101ae578163e985e9c51461015c575063f2fde38b146100ed57600080fd5b3461015957602036600319011261015957610106610a30565b61010e610b06565b600180546001600160a01b0319166001600160a01b0392831690811790915582549091167f38d16b8cac22d99fc7c124b9cd0de2d3fa1faef420bfe791d8c362d765e227008380a380f35b80fd5b9050346101aa57806003193601126101aa5760ff8160209361017c610a30565b610184610a4b565b6001600160a01b0391821683526007875283832091168252855220549151911615158152f35b5080fd5b9050346101aa57816003193601126101aa5760015490516001600160a01b039091168152602090f35b8382346101aa5760203660031901126101aa576101f76102249335610ecf565b81815161020381610a96565b5280519161021083610a96565b8252519182916020835260208301906109f0565b0390f35b9150346102b15760803660031901126102b157610243610a30565b61024b610a4b565b846064359467ffffffffffffffff86116101aa57366023870112156101aa578501359461028361027a87610aea565b95519586610ac8565b85855236602487830101116101aa57856102ae96602460209301838801378501015260443591610c56565b80f35b8280fd5b9150346102b157806003193601126102b1576102cf610a30565b9060243591821515809303610380576001600160a01b03169233841461033e5750338452600760205280842083855260205280842060ff1981541660ff8416179055519081527f17307eab39ab6107e8899845ad3d59bd9653f200f220920489ca2b5937696c3160203392a380f35b6020606492519162461bcd60e51b8352820152601960248201527f4552433732313a20617070726f766520746f2063616c6c6572000000000000006044820152fd5b8480fd5b9083346101595780600319360112610159578151918160035492600184811c91818616958615610491575b602096878510811461047e578899509688969785829a5291826000146104575750506001146103fb575b50505061022492916103ec910385610ac8565b519282849384528301906109f0565b9190869350600383527fc2575a0e9e593c00f959f8c92f12db2869c3395a3b0502d05e2516446f71f85b5b82841061043f57505050820101816103ec6102246103d9565b8054848a018601528895508794909301928101610426565b60ff19168782015293151560051b860190930193508492506103ec915061022490506103d9565b634e487b7160e01b835260228a52602483fd5b92607f16926103af565b8382346101aa57816003193601126101aa57905490516001600160a01b039091168152602090f35b9150346102b157826003193601126102b157600154916001600160a01b0391338385160361052e5750506001600160a01b031991821660015582543392811683178455167f8be0079c531659141344cd1fd0a4f28419497f9722a3daafe3b4186f6b6457e08380a380f35b906020608492519162461bcd60e51b8352820152602960248201527f4f776e61626c6532537465703a2063616c6c6572206973206e6f7420746865206044820152683732bb9037bbb732b960b91b6064820152fd5b833461015957806003193601126101595761059c610b06565b600180546001600160a01b03199081169091558154908116825581906001600160a01b03167f8be0079c531659141344cd1fd0a4f28419497f9722a3daafe3b4186f6b6457e08280a380f35b8390346101aa5760203660031901126101aa576001600160a01b0361060b610a30565b169081156106285760208480858581526005845220549051908152f35b608490602085519162461bcd60e51b8352820152602960248201527f4552433732313a2061646472657373207a65726f206973206e6f7420612076616044820152683634b21037bbb732b960b91b6064820152fd5b908334610159576020366003190112610159575061069d60209235610baa565b90516001600160a01b039091168152f35b8382346101aa576106be36610a61565b91835193602085019085821067ffffffffffffffff8311176106e9576102ae96975052858452610c56565b634e487b7160e01b875260418852602487fd5b8334610159576102ae61070e36610a61565b9161072161071c8433610cf1565b610bf4565b610db9565b909150346102b157816003193601126102b157610741610a30565b6024359290916001600160a01b039190828061075c87610baa565b1694169380851461084b5780331490811561082c575b50156107c457508385526006602052842080546001600160a01b0319168317905561079c83610baa565b167f8c5be1e5ebec7d5bd14f71427d1e84f3dd0314c0f7b2291e5b200ac8c7c3b9258480a480f35b6020608492519162461bcd60e51b8352820152603d60248201527f4552433732313a20617070726f76652063616c6c6572206973206e6f7420746f60448201527f6b656e206f776e6572206f7220617070726f76656420666f7220616c6c0000006064820152fd5b90508652600760205281862033875260205260ff828720541638610772565b506020608492519162461bcd60e51b8352820152602160248201527f4552433732313a20617070726f76616c20746f2063757272656e74206f776e656044820152603960f91b6064820152fd5b908334610159576020366003190112610159575061069d60209235610bd0565b9083346101595780600319360112610159578151918160025492600184811c9181861695861561097b575b602096878510811461047e578899509688969785829a52918260001461045757505060011461091f5750505061022492916103ec910385610ac8565b9190869350600283527f405787fa12a823e0f2b7631cc41b3ba8828b3321ca811111fa75cd3aa3bb5ace5b82841061096357505050820101816103ec6102246103d9565b8054848a01860152889550879490930192810161094a565b92607f16926108e3565b8491346102b15760203660031901126102b1573563ffffffff60e01b81168091036102b157602092506380ac58cd60e01b81149081156109df575b81156109ce575b5015158152f35b6301ffc9a760e01b149050836109c7565b635b5e139f60e01b811491506109c0565b919082519283825260005b848110610a1c575050826000602080949584010152601f8019910116010190565b6020818301810151848301820152016109fb565b600435906001600160a01b0382168203610a4657565b600080fd5b602435906001600160a01b0382168203610a4657565b6060906003190112610a46576001600160a01b03906004358281168103610a4657916024359081168103610a46579060443590565b6020810190811067ffffffffffffffff821117610ab257604052565b634e487b7160e01b600052604160045260246000fd5b90601f8019910116810190811067ffffffffffffffff821117610ab257604052565b67ffffffffffffffff8111610ab257601f01601f191660200190565b6000546001600160a01b03163303610b1a57565b606460405162461bcd60e51b815260206004820152602060248201527f4f776e61626c653a2063616c6c6572206973206e6f7420746865206f776e65726044820152fd5b15610b6557565b60405162461bcd60e51b815260206004820152601860248201527f4552433732313a20696e76616c696420746f6b656e20494400000000000000006044820152606490fd5b6000908152600460205260409020546001600160a01b0316610bcd811515610b5e565b90565b610bd981610ecf565b6000908152600660205260409020546001600160a01b031690565b15610bfb57565b60405162461bcd60e51b815260206004820152602d60248201527f4552433732313a2063616c6c6572206973206e6f7420746f6b656e206f776e6560448201526c1c881bdc88185c1c1c9bdd9959609a1b6064820152608490fd5b90610c7a939291610c6a61071c8433610cf1565b610c75838383610db9565b610ef4565b15610c8157565b60405162461bcd60e51b815280610c9a60048201610c9e565b0390fd5b60809060208152603260208201527f4552433732313a207472616e7366657220746f206e6f6e20455243373231526560408201527131b2b4bb32b91034b6b83632b6b2b73a32b960711b60608201520190565b906001600160a01b038080610d0584610baa565b16931691838314938415610d38575b508315610d22575b50505090565b610d2e91929350610bd0565b1614388080610d1c565b909350600052600760205260406000208260005260205260ff604060002054169238610d14565b15610d6657565b60405162461bcd60e51b815260206004820152602560248201527f4552433732313a207472616e736665722066726f6d20696e636f72726563742060448201526437bbb732b960d91b6064820152608490fd5b90610de191610dc784610baa565b6001600160a01b0393918416928492909183168414610d5f565b16918215610e7e5781610dfe91610df786610baa565b1614610d5f565b7fddf252ad1be2c89b69c2b068fc378daa952ba7f163c4a11628f55a4df523b3ef60008481526006602052604081206bffffffffffffffffffffffff60a01b9081815416905583825260056020526040822060001981540190558482526040822060018154019055858252600460205284604083209182541617905580a4565b60405162461bcd60e51b8152602060048201526024808201527f4552433732313a207472616e7366657220746f20746865207a65726f206164646044820152637265737360e01b6064820152608490fd5b600090815260046020526040902054610ef2906001600160a01b03161515610b5e565b565b9293600093909291803b1561100a57948491610f4e9660405180948193630a85bd0160e11b9788845233600485015260018060a01b0380921660248501526044840152608060648401528260209b8c9760848301906109f0565b0393165af1849181610fca575b50610fb9575050503d600014610fb1573d610f7581610aea565b90610f836040519283610ac8565b81528091833d92013e5b80519182610fae5760405162461bcd60e51b815280610c9a60048201610c9e565b01fd5b506060610f8d565b6001600160e01b0319161492509050565b9091508581813d8311611003575b610fe28183610ac8565b8101031261038057516001600160e01b031981168103610380579038610f5b565b503d610fd8565b50505091505060019056fea26469706673582212200d5f43ea6bf6be8886b868f5cd84640461b2e6a0476b37af8ea7786bb575f29764736f6c63430008110033",
  "immutableReferences": {},
  "source": "// SPDX-License-Identifier: MIT\r\npragma solidity ^0.8.17;\r\n\r\nimport \"@openzeppelin/contracts/access/Ownable2Step.sol\";\r\nimport \"@openzeppelin/contracts/token/ERC721/ERC721.sol\";\r\n\r\ncontract DarshNFT is Ownable2Step, ERC721 {\r\n    constructor() Ownable2Step() ERC721(\"DarshNFT\", \"xDSH\") {}\r\n}\r\n",
  "sourcePath": "C:\\Users\\DELL\\Documents\\darsh\\smart-contracts\\contracts\\governanace\\DarshNFT.sol",
  "compiler": {
    "name": "solc",
    "version": "0.8.17+commit.8df45f5f.Emscripten.clang"
  },
  "schemaVersion": "3.4.11",
  "updatedAt": "2023-03-06T17:44:41.161Z",
  "devdoc": {
    "kind": "dev",
    "methods": {
      "acceptOwnership()": {
        "details": "The new owner accepts the ownership transfer."
      },
      "approve(address,uint256)": {
        "details": "See {IERC721-approve}."
      },
      "balanceOf(address)": {
        "details": "See {IERC721-balanceOf}."
      },
      "getApproved(uint256)": {
        "details": "See {IERC721-getApproved}."
      },
      "isApprovedForAll(address,address)": {
        "details": "See {IERC721-isApprovedForAll}."
      },
      "name()": {
        "details": "See {IERC721Metadata-name}."
      },
      "owner()": {
        "details": "Returns the address of the current owner."
      },
      "ownerOf(uint256)": {
        "details": "See {IERC721-ownerOf}."
      },
      "pendingOwner()": {
        "details": "Returns the address of the pending owner."
      },
      "renounceOwnership()": {
        "details": "Leaves the contract without owner. It will not be possible to call `onlyOwner` functions anymore. Can only be called by the current owner. NOTE: Renouncing ownership will leave the contract without an owner, thereby removing any functionality that is only available to the owner."
      },
      "safeTransferFrom(address,address,uint256)": {
        "details": "See {IERC721-safeTransferFrom}."
      },
      "safeTransferFrom(address,address,uint256,bytes)": {
        "details": "See {IERC721-safeTransferFrom}."
      },
      "setApprovalForAll(address,bool)": {
        "details": "See {IERC721-setApprovalForAll}."
      },
      "supportsInterface(bytes4)": {
        "details": "See {IERC165-supportsInterface}."
      },
      "symbol()": {
        "details": "See {IERC721Metadata-symbol}."
      },
      "tokenURI(uint256)": {
        "details": "See {IERC721Metadata-tokenURI}."
      },
      "transferFrom(address,address,uint256)": {
        "details": "See {IERC721-transferFrom}."
      },
      "transferOwnership(address)": {
        "details": "Starts the ownership transfer of the contract to a new account. Replaces the pending transfer if there is one. Can only be called by the current owner."
      }
    },
    "version": 1
  },
  "userdoc": {
    "kind": "user",
    "methods": {},
    "version": 1
  }
}