{
  "contractName": "DarshNFT",
  "abi": [
    {
      "inputs": [],
      "stateMutability": "nonpayable",
      "type": "constructor"
    },
    {
      "anonymous": false,
      "inputs": [
        {
          "indexed": true,
          "internalType": "address",
          "name": "owner",
          "type": "address"
        },
        {
          "indexed": true,
          "internalType": "address",
          "name": "approved",
          "type": "address"
        },
        {
          "indexed": true,
          "internalType": "uint256",
          "name": "tokenId",
          "type": "uint256"
        }
      ],
      "name": "Approval",
      "type": "event"
    },
    {
      "anonymous": false,
      "inputs": [
        {
          "indexed": true,
          "internalType": "address",
          "name": "owner",
          "type": "address"
        },
        {
          "indexed": true,
          "internalType": "address",
          "name": "operator",
          "type": "address"
        },
        {
          "indexed": false,
          "internalType": "bool",
          "name": "approved",
          "type": "bool"
        }
      ],
      "name": "ApprovalForAll",
      "type": "event"
    },
    {
      "anonymous": false,
      "inputs": [
        {
          "indexed": true,
          "internalType": "address",
          "name": "previousOwner",
          "type": "address"
        },
        {
          "indexed": true,
          "internalType": "address",
          "name": "newOwner",
          "type": "address"
        }
      ],
      "name": "OwnershipTransferStarted",
      "type": "event"
    },
    {
      "anonymous": false,
      "inputs": [
        {
          "indexed": true,
          "internalType": "address",
          "name": "previousOwner",
          "type": "address"
        },
        {
          "indexed": true,
          "internalType": "address",
          "name": "newOwner",
          "type": "address"
        }
      ],
      "name": "OwnershipTransferred",
      "type": "event"
    },
    {
      "anonymous": false,
      "inputs": [
        {
          "indexed": true,
          "internalType": "address",
          "name": "from",
          "type": "address"
        },
        {
          "indexed": true,
          "internalType": "address",
          "name": "to",
          "type": "address"
        },
        {
          "indexed": true,
          "internalType": "uint256",
          "name": "tokenId",
          "type": "uint256"
        }
      ],
      "name": "Transfer",
      "type": "event"
    },
    {
      "inputs": [],
      "name": "acceptOwnership",
      "outputs": [],
      "stateMutability": "nonpayable",
      "type": "function"
    },
    {
      "inputs": [
        {
          "internalType": "address",
          "name": "to",
          "type": "address"
        },
        {
          "internalType": "uint256",
          "name": "tokenId",
          "type": "uint256"
        }
      ],
      "name": "approve",
      "outputs": [],
      "stateMutability": "nonpayable",
      "type": "function"
    },
    {
      "inputs": [
        {
          "internalType": "address",
          "name": "owner",
          "type": "address"
        }
      ],
      "name": "balanceOf",
      "outputs": [
        {
          "internalType": "uint256",
          "name": "",
          "type": "uint256"
        }
      ],
      "stateMutability": "view",
      "type": "function"
    },
    {
      "inputs": [
        {
          "internalType": "uint256",
          "name": "tokenId",
          "type": "uint256"
        }
      ],
      "name": "getApproved",
      "outputs": [
        {
          "internalType": "address",
          "name": "",
          "type": "address"
        }
      ],
      "stateMutability": "view",
      "type": "function"
    },
    {
      "inputs": [
        {
          "internalType": "address",
          "name": "owner",
          "type": "address"
        },
        {
          "internalType": "address",
          "name": "operator",
          "type": "address"
        }
      ],
      "name": "isApprovedForAll",
      "outputs": [
        {
          "internalType": "bool",
          "name": "",
          "type": "bool"
        }
      ],
      "stateMutability": "view",
      "type": "function"
    },
    {
      "inputs": [],
      "name": "name",
      "outputs": [
        {
          "internalType": "string",
          "name": "",
          "type": "string"
        }
      ],
      "stateMutability": "view",
      "type": "function"
    },
    {
      "inputs": [],
      "name": "owner",
      "outputs": [
        {
          "internalType": "address",
          "name": "",
          "type": "address"
        }
      ],
      "stateMutability": "view",
      "type": "function"
    },
    {
      "inputs": [
        {
          "internalType": "uint256",
          "name": "tokenId",
          "type": "uint256"
        }
      ],
      "name": "ownerOf",
      "outputs": [
        {
          "internalType": "address",
          "name": "",
          "type": "address"
        }
      ],
      "stateMutability": "view",
      "type": "function"
    },
    {
      "inputs": [],
      "name": "pendingOwner",
      "outputs": [
        {
          "internalType": "address",
          "name": "",
          "type": "address"
        }
      ],
      "stateMutability": "view",
      "type": "function"
    },
    {
      "inputs": [],
      "name": "renounceOwnership",
      "outputs": [],
      "stateMutability": "nonpayable",
      "type": "function"
    },
    {
      "inputs": [
        {
          "internalType": "address",
          "name": "from",
          "type": "address"
        },
        {
          "internalType": "address",
          "name": "to",
          "type": "address"
        },
        {
          "internalType": "uint256",
          "name": "tokenId",
          "type": "uint256"
        }
      ],
      "name": "safeTransferFrom",
      "outputs": [],
      "stateMutability": "nonpayable",
      "type": "function"
    },
    {
      "inputs": [
        {
          "internalType": "address",
          "name": "from",
          "type": "address"
        },
        {
          "internalType": "address",
          "name": "to",
          "type": "address"
        },
        {
          "internalType": "uint256",
          "name": "tokenId",
          "type": "uint256"
        },
        {
          "internalType": "bytes",
          "name": "data",
          "type": "bytes"
        }
      ],
      "name": "safeTransferFrom",
      "outputs": [],
      "stateMutability": "nonpayable",
      "type": "function"
    },
    {
      "inputs": [
        {
          "internalType": "address",
          "name": "operator",
          "type": "address"
        },
        {
          "internalType": "bool",
          "name": "approved",
          "type": "bool"
        }
      ],
      "name": "setApprovalForAll",
      "outputs": [],
      "stateMutability": "nonpayable",
      "type": "function"
    },
    {
      "inputs": [
        {
          "internalType": "bytes4",
          "name": "interfaceId",
          "type": "bytes4"
        }
      ],
      "name": "supportsInterface",
      "outputs": [
        {
          "internalType": "bool",
          "name": "",
          "type": "bool"
        }
      ],
      "stateMutability": "view",
      "type": "function"
    },
    {
      "inputs": [],
      "name": "symbol",
      "outputs": [
        {
          "internalType": "string",
          "name": "",
          "type": "string"
        }
      ],
      "stateMutability": "view",
      "type": "function"
    },
    {
      "inputs": [
        {
          "internalType": "uint256",
          "name": "tokenId",
          "type": "uint256"
        }
      ],
      "name": "tokenURI",
      "outputs": [
        {
          "internalType": "string",
          "name": "",
          "type": "string"
        }
      ],
      "stateMutability": "view",
      "type": "function"
    },
    {
      "inputs": [
        {
          "internalType": "address",
          "name": "from",
          "type": "address"
        },
        {
          "internalType": "address",
          "name": "to",
          "type": "address"
        },
        {
          "internalType": "uint256",
          "name": "tokenId",
          "type": "uint256"
        }
      ],
      "name": "transferFrom",
      "outputs": [],
      "stateMutability": "nonpayable",
      "type": "function"
    },
    {
      "inputs": [
        {
          "internalType": "address",
          "name": "newOwner",
          "type": "address"
        }
      ],
      "name": "transferOwnership",
      "outputs": [],
      "stateMutability": "nonpayable",
      "type": "function"
    },
    {
      "inputs": [
        {
          "internalType": "address",
          "name": "user",
          "type": "address"
        }
      ],
      "name": "mintFor",
      "outputs": [],
      "stateMutability": "nonpayable",
      "type": "function"
    },
    {
      "inputs": [
        {
          "internalType": "address",
          "name": "address_",
          "type": "address"
        }
      ],
      "name": "setLendingPool",
      "outputs": [],
      "stateMutability": "nonpayable",
      "type": "function"
    }
  ],
  "bytecode": "0x60803462000372576040906001600160401b03818301818111838210176200035c578352600882526020906711185c9cda13919560c21b828401528351848101818110838211176200035c578552600581526408882a4a6960db1b83820152600180546001600160a01b031990811682556000805491821633908117825590969293916001600160a01b03167f8be0079c531659141344cd1fd0a4f28419497f9722a3daafe3b4186f6b6457e08880a381518481116200034857600254928484811c941680156200033d575b8785101462000329578190601f94858111620002d5575b5087908583116001146200026f57899262000263575b5050600019600383901b1c191690841b176002555b80519384116200024f5760039586548481811c9116801562000244575b878210146200023057838111620001e8575b50859285116001146200018257939450849291908362000176575b50501b9160001990841b1c19161790555b516110d69081620003788239f35b01519250388062000157565b86815285812093958591601f198316915b88838310620001cd5750505010620001b4575b505050811b01905562000168565b015160001983861b60f8161c19169055388080620001a6565b85870151885590960195948501948793509081019062000193565b8782528682208480880160051c82019289891062000226575b0160051c019085905b8281106200021a5750506200013c565b8381550185906200020a565b9250819262000201565b634e487b7160e01b82526022600452602482fd5b90607f16906200012a565b634e487b7160e01b86526041600452602486fd5b015190503880620000f8565b60028a52888a208794509190601f1984168b5b8b828210620002be5750508411620002a4575b505050811b016002556200010d565b015160001960f88460031b161c1916905538808062000295565b8385015186558a9790950194938401930162000282565b909150600289528789208580850160051c8201928a86106200031f575b918891869594930160051c01915b82811062000310575050620000e2565b8b815585945088910162000300565b92508192620002f2565b634e487b7160e01b88526022600452602488fd5b93607f1693620000cb565b634e487b7160e01b87526041600452602487fd5b634e487b7160e01b600052604160045260246000fd5b600080fdfe60806040908082526004918236101561001757600080fd5b600092833560e01c92836301ffc9a714610a105750826306fdde0314610943578263081812fc14610923578263095ea7b3146107b1578263113aa8b11461076c57826323b872dd1461074257826342842e0e146106f45782636352211e146106c357826370a082311461062e578263715018a6146105c957826371e578dc1461059957826379ba5097146104d95782638da5cb5b146104b157826395d89b411461039a578263a22cb465146102cb578263b88d4fde1461023e578263c87b56dd146101ed57508163e30c3978146101c4578163e985e9c514610172575063f2fde38b1461010357600080fd5b3461016f57602036600319011261016f5761011c610abb565b610124610b91565b600180546001600160a01b0319166001600160a01b0392831690811790915582549091167f38d16b8cac22d99fc7c124b9cd0de2d3fa1faef420bfe791d8c362d765e227008380a380f35b80fd5b9050346101c057806003193601126101c05760ff81602093610192610abb565b61019a610ad6565b6001600160a01b0391821683526007875283832091168252855220549151911615158152f35b5080fd5b9050346101c057816003193601126101c05760015490516001600160a01b039091168152602090f35b8382346101c05760203660031901126101c05761020d61023a9335610f5a565b81815161021981610b21565b5280519161022683610b21565b825251918291602083526020830190610a7b565b0390f35b9150346102c75760803660031901126102c757610259610abb565b610261610ad6565b846064359467ffffffffffffffff86116101c057366023870112156101c0578501359461029961029087610b75565b95519586610b53565b85855236602487830101116101c057856102c496602460209301838801378501015260443591610ce1565b80f35b8280fd5b9150346102c757806003193601126102c7576102e5610abb565b9060243591821515809303610396576001600160a01b0316923384146103545750338452600760205280842083855260205280842060ff1981541660ff8416179055519081527f17307eab39ab6107e8899845ad3d59bd9653f200f220920489ca2b5937696c3160203392a380f35b6020606492519162461bcd60e51b8352820152601960248201527f4552433732313a20617070726f766520746f2063616c6c6572000000000000006044820152fd5b8480fd5b90833461016f578060031936011261016f578151918160035492600184811c918186169586156104a7575b6020968785108114610494578899509688969785829a52918260001461046d575050600114610411575b50505061023a9291610402910385610b53565b51928284938452830190610a7b565b9190869350600383527fc2575a0e9e593c00f959f8c92f12db2869c3395a3b0502d05e2516446f71f85b5b828410610455575050508201018161040261023a6103ef565b8054848a01860152889550879490930192810161043c565b60ff19168782015293151560051b86019093019350849250610402915061023a90506103ef565b634e487b7160e01b835260228a52602483fd5b92607f16926103c5565b8382346101c057816003193601126101c057905490516001600160a01b039091168152602090f35b9150346102c757826003193601126102c757600154916001600160a01b039133838516036105445750506001600160a01b031991821660015582543392811683178455167f8be0079c531659141344cd1fd0a4f28419497f9722a3daafe3b4186f6b6457e08380a380f35b906020608492519162461bcd60e51b8352820152602960248201527f4f776e61626c6532537465703a2063616c6c6572206973206e6f7420746865206044820152683732bb9037bbb732b960b91b6064820152fd5b833461016f57602036600319011261016f576105b3610abb565b506008546001600160a01b0316330361016f5780f35b833461016f578060031936011261016f576105e2610b91565b600180546001600160a01b03199081169091558154908116825581906001600160a01b03167f8be0079c531659141344cd1fd0a4f28419497f9722a3daafe3b4186f6b6457e08280a380f35b8390346101c05760203660031901126101c0576001600160a01b03610651610abb565b1690811561066e5760208480858581526005845220549051908152f35b608490602085519162461bcd60e51b8352820152602960248201527f4552433732313a2061646472657373207a65726f206973206e6f7420612076616044820152683634b21037bbb732b960b91b6064820152fd5b90833461016f57602036600319011261016f57506106e360209235610c35565b90516001600160a01b039091168152f35b8382346101c05761070436610aec565b91835193602085019085821067ffffffffffffffff83111761072f576102c496975052858452610ce1565b634e487b7160e01b875260418852602487fd5b833461016f576102c461075436610aec565b916107676107628433610d7c565b610c7f565b610e44565b833461016f57602036600319011261016f57610786610abb565b61078e610b91565b60018060a01b03166bffffffffffffffffffffffff60a01b600854161760085580f35b909150346102c757816003193601126102c7576107cc610abb565b6024359290916001600160a01b03919082806107e787610c35565b169416938085146108d6578033149081156108b7575b501561084f57508385526006602052842080546001600160a01b0319168317905561082783610c35565b167f8c5be1e5ebec7d5bd14f71427d1e84f3dd0314c0f7b2291e5b200ac8c7c3b9258480a480f35b6020608492519162461bcd60e51b8352820152603d60248201527f4552433732313a20617070726f76652063616c6c6572206973206e6f7420746f60448201527f6b656e206f776e6572206f7220617070726f76656420666f7220616c6c0000006064820152fd5b90508652600760205281862033875260205260ff8287205416386107fd565b506020608492519162461bcd60e51b8352820152602160248201527f4552433732313a20617070726f76616c20746f2063757272656e74206f776e656044820152603960f91b6064820152fd5b90833461016f57602036600319011261016f57506106e360209235610c5b565b90833461016f578060031936011261016f578151918160025492600184811c91818616958615610a06575b6020968785108114610494578899509688969785829a52918260001461046d5750506001146109aa5750505061023a9291610402910385610b53565b9190869350600283527f405787fa12a823e0f2b7631cc41b3ba8828b3321ca811111fa75cd3aa3bb5ace5b8284106109ee575050508201018161040261023a6103ef565b8054848a0186015288955087949093019281016109d5565b92607f169261096e565b8491346102c75760203660031901126102c7573563ffffffff60e01b81168091036102c757602092506380ac58cd60e01b8114908115610a6a575b8115610a59575b5015158152f35b6301ffc9a760e01b14905083610a52565b635b5e139f60e01b81149150610a4b565b919082519283825260005b848110610aa7575050826000602080949584010152601f8019910116010190565b602081830181015184830182015201610a86565b600435906001600160a01b0382168203610ad157565b600080fd5b602435906001600160a01b0382168203610ad157565b6060906003190112610ad1576001600160a01b03906004358281168103610ad157916024359081168103610ad1579060443590565b6020810190811067ffffffffffffffff821117610b3d57604052565b634e487b7160e01b600052604160045260246000fd5b90601f8019910116810190811067ffffffffffffffff821117610b3d57604052565b67ffffffffffffffff8111610b3d57601f01601f191660200190565b6000546001600160a01b03163303610ba557565b606460405162461bcd60e51b815260206004820152602060248201527f4f776e61626c653a2063616c6c6572206973206e6f7420746865206f776e65726044820152fd5b15610bf057565b60405162461bcd60e51b815260206004820152601860248201527f4552433732313a20696e76616c696420746f6b656e20494400000000000000006044820152606490fd5b6000908152600460205260409020546001600160a01b0316610c58811515610be9565b90565b610c6481610f5a565b6000908152600660205260409020546001600160a01b031690565b15610c8657565b60405162461bcd60e51b815260206004820152602d60248201527f4552433732313a2063616c6c6572206973206e6f7420746f6b656e206f776e6560448201526c1c881bdc88185c1c1c9bdd9959609a1b6064820152608490fd5b90610d05939291610cf56107628433610d7c565b610d00838383610e44565b610f7f565b15610d0c57565b60405162461bcd60e51b815280610d2560048201610d29565b0390fd5b60809060208152603260208201527f4552433732313a207472616e7366657220746f206e6f6e20455243373231526560408201527131b2b4bb32b91034b6b83632b6b2b73a32b960711b60608201520190565b906001600160a01b038080610d9084610c35565b16931691838314938415610dc3575b508315610dad575b50505090565b610db991929350610c5b565b1614388080610da7565b909350600052600760205260406000208260005260205260ff604060002054169238610d9f565b15610df157565b60405162461bcd60e51b815260206004820152602560248201527f4552433732313a207472616e736665722066726f6d20696e636f72726563742060448201526437bbb732b960d91b6064820152608490fd5b90610e6c91610e5284610c35565b6001600160a01b0393918416928492909183168414610dea565b16918215610f095781610e8991610e8286610c35565b1614610dea565b7fddf252ad1be2c89b69c2b068fc378daa952ba7f163c4a11628f55a4df523b3ef60008481526006602052604081206bffffffffffffffffffffffff60a01b9081815416905583825260056020526040822060001981540190558482526040822060018154019055858252600460205284604083209182541617905580a4565b60405162461bcd60e51b8152602060048201526024808201527f4552433732313a207472616e7366657220746f20746865207a65726f206164646044820152637265737360e01b6064820152608490fd5b600090815260046020526040902054610f7d906001600160a01b03161515610be9565b565b9293600093909291803b1561109557948491610fd99660405180948193630a85bd0160e11b9788845233600485015260018060a01b0380921660248501526044840152608060648401528260209b8c976084830190610a7b565b0393165af1849181611055575b50611044575050503d60001461103c573d61100081610b75565b9061100e6040519283610b53565b81528091833d92013e5b805191826110395760405162461bcd60e51b815280610d2560048201610d29565b01fd5b506060611018565b6001600160e01b0319161492509050565b9091508581813d831161108e575b61106d8183610b53565b8101031261039657516001600160e01b031981168103610396579038610fe6565b503d611063565b50505091505060019056fea2646970667358221220516ca82724ba4cbef064320f274ce622ec90f0fc687a5f46dc60da537f7d9e8164736f6c63430008110033",
  "immutableReferences": {},
  "source": "// SPDX-License-Identifier: GPL-3.0\r\npragma solidity >=0.7.0 <0.9.0;\r\n\r\nimport \"@openzeppelin/contracts/access/Ownable2Step.sol\";\r\nimport \"@openzeppelin/contracts/token/ERC721/ERC721.sol\";\r\n\r\ncontract DarshNFT is Ownable2Step, ERC721 {\r\n    address lendingPool;\r\n\r\n    constructor() Ownable2Step() ERC721(\"DarshNFT\", \"DARSH\") {}\r\n\r\n    function mintFor(address user) public onlyLendingPool {}\r\n\r\n    function setLendingPool(address address_) public onlyOwner {\r\n        lendingPool = address_;\r\n    }\r\n\r\n    modifier onlyLendingPool() {\r\n        require(msg.sender == lendingPool);\r\n        _;\r\n    }\r\n}\r\n",
  "sourcePath": "C:\\Users\\DELL\\Documents\\darsh\\smart-contracts\\contracts\\DarshNFT.sol",
  "compiler": {
    "name": "solc",
    "version": "0.8.17+commit.8df45f5f.Emscripten.clang"
  },
  "schemaVersion": "3.4.11",
  "updatedAt": "2023-02-18T16:02:15.428Z",
  "devdoc": {
    "kind": "dev",
    "methods": {
      "acceptOwnership()": {
        "details": "The new owner accepts the ownership transfer."
      },
      "approve(address,uint256)": {
        "details": "See {IERC721-approve}."
      },
      "balanceOf(address)": {
        "details": "See {IERC721-balanceOf}."
      },
      "getApproved(uint256)": {
        "details": "See {IERC721-getApproved}."
      },
      "isApprovedForAll(address,address)": {
        "details": "See {IERC721-isApprovedForAll}."
      },
      "name()": {
        "details": "See {IERC721Metadata-name}."
      },
      "owner()": {
        "details": "Returns the address of the current owner."
      },
      "ownerOf(uint256)": {
        "details": "See {IERC721-ownerOf}."
      },
      "pendingOwner()": {
        "details": "Returns the address of the pending owner."
      },
      "renounceOwnership()": {
        "details": "Leaves the contract without owner. It will not be possible to call `onlyOwner` functions anymore. Can only be called by the current owner. NOTE: Renouncing ownership will leave the contract without an owner, thereby removing any functionality that is only available to the owner."
      },
      "safeTransferFrom(address,address,uint256)": {
        "details": "See {IERC721-safeTransferFrom}."
      },
      "safeTransferFrom(address,address,uint256,bytes)": {
        "details": "See {IERC721-safeTransferFrom}."
      },
      "setApprovalForAll(address,bool)": {
        "details": "See {IERC721-setApprovalForAll}."
      },
      "supportsInterface(bytes4)": {
        "details": "See {IERC165-supportsInterface}."
      },
      "symbol()": {
        "details": "See {IERC721Metadata-symbol}."
      },
      "tokenURI(uint256)": {
        "details": "See {IERC721Metadata-tokenURI}."
      },
      "transferFrom(address,address,uint256)": {
        "details": "See {IERC721-transferFrom}."
      },
      "transferOwnership(address)": {
        "details": "Starts the ownership transfer of the contract to a new account. Replaces the pending transfer if there is one. Can only be called by the current owner."
      }
    },
    "version": 1
  },
  "userdoc": {
    "kind": "user",
    "methods": {},
    "version": 1
  }
}