{
  "contractName": "Errors",
  "abi": [
    {
      "inputs": [],
      "name": "PRICE_FEED_TOKEN_BELOW_ZERO",
      "outputs": [
        {
          "internalType": "string",
          "name": "",
          "type": "string"
        }
      ],
      "stateMutability": "view",
      "type": "function"
    },
    {
      "inputs": [],
      "name": "PRICE_FEED_TOKEN_NOT_SUPPORTED",
      "outputs": [
        {
          "internalType": "string",
          "name": "",
          "type": "string"
        }
      ],
      "stateMutability": "view",
      "type": "function"
    }
  ],
  "bytecode": "0x6080806040523461001a576101509081610020823930815050f35b600080fdfe6080604052600436101561001257600080fd5b6000803560e01c80634933f511146100685763d517828f1461003357600080fd5b8060031936011261006557610061610049610097565b6231303160e81b6020820152604051918291826100d1565b0390f35b80fd5b50806003193601126100655761006161007f610097565b6203130360ec1b6020820152604051918291826100d1565b604051906040820182811067ffffffffffffffff8211176100bb5760405260038252565b634e487b7160e01b600052604160045260246000fd5b6020808252825181830181905290939260005b82811061010657505060409293506000838284010152601f8019910116010190565b8181018601518482016040015285016100e456fea26469706673582212208b37f96098b246329910b0b2ff482cc6c8f9dfc0da720a230f2b9abcae90e92164736f6c63430008110033",
  "immutableReferences": {},
  "source": "// SPDX-License-Identifier: None\r\npragma solidity ^0.8.0;\r\n\r\nlibrary Errors {\r\n    string public constant PRICE_FEED_TOKEN_NOT_SUPPORTED = \"100\"; // Token is not supported\r\n    string public constant PRICE_FEED_TOKEN_BELOW_ZERO = \"101\"; // Token below zero price\r\n}",
  "sourcePath": "C:\\Users\\DELL\\Documents\\darsh\\smart-contracts\\contracts\\libraries\\Errors.sol",
  "compiler": {
    "name": "solc",
    "version": "0.8.17+commit.8df45f5f.Emscripten.clang"
  },
  "schemaVersion": "3.4.11",
  "updatedAt": "2023-03-06T17:44:41.181Z",
  "devdoc": {
    "kind": "dev",
    "methods": {},
    "version": 1
  },
  "userdoc": {
    "kind": "user",
    "methods": {},
    "version": 1
  }
}