{
  "contractName": "FeeManager",
  "abi": [
    {
      "inputs": [],
      "stateMutability": "nonpayable",
      "type": "constructor"
    },
    {
      "anonymous": false,
      "inputs": [
        {
          "indexed": true,
          "internalType": "address",
          "name": "previousOwner",
          "type": "address"
        },
        {
          "indexed": true,
          "internalType": "address",
          "name": "newOwner",
          "type": "address"
        }
      ],
      "name": "OwnershipTransferStarted",
      "type": "event"
    },
    {
      "anonymous": false,
      "inputs": [
        {
          "indexed": true,
          "internalType": "address",
          "name": "previousOwner",
          "type": "address"
        },
        {
          "indexed": true,
          "internalType": "address",
          "name": "newOwner",
          "type": "address"
        }
      ],
      "name": "OwnershipTransferred",
      "type": "event"
    },
    {
      "inputs": [],
      "name": "acceptOwnership",
      "outputs": [],
      "stateMutability": "nonpayable",
      "type": "function"
    },
    {
      "inputs": [],
      "name": "owner",
      "outputs": [
        {
          "internalType": "address",
          "name": "",
          "type": "address"
        }
      ],
      "stateMutability": "view",
      "type": "function"
    },
    {
      "inputs": [],
      "name": "pendingOwner",
      "outputs": [
        {
          "internalType": "address",
          "name": "",
          "type": "address"
        }
      ],
      "stateMutability": "view",
      "type": "function"
    },
    {
      "inputs": [],
      "name": "renounceOwnership",
      "outputs": [],
      "stateMutability": "nonpayable",
      "type": "function"
    },
    {
      "inputs": [
        {
          "internalType": "address",
          "name": "newOwner",
          "type": "address"
        }
      ],
      "name": "transferOwnership",
      "outputs": [],
      "stateMutability": "nonpayable",
      "type": "function"
    },
    {
      "inputs": [
        {
          "internalType": "address",
          "name": "token",
          "type": "address"
        },
        {
          "internalType": "uint256",
          "name": "amount",
          "type": "uint256"
        }
      ],
      "name": "credit",
      "outputs": [],
      "stateMutability": "nonpayable",
      "type": "function"
    },
    {
      "inputs": [
        {
          "internalType": "address",
          "name": "token",
          "type": "address"
        },
        {
          "internalType": "uint256",
          "name": "amount",
          "type": "uint256"
        }
      ],
      "name": "debit",
      "outputs": [],
      "stateMutability": "nonpayable",
      "type": "function"
    },
    {
      "inputs": [
        {
          "internalType": "address",
          "name": "token",
          "type": "address"
        }
      ],
      "name": "balanceOf",
      "outputs": [
        {
          "internalType": "uint256",
          "name": "",
          "type": "uint256"
        }
      ],
      "stateMutability": "view",
      "type": "function"
    },
    {
      "inputs": [],
      "name": "feePercentage",
      "outputs": [
        {
          "internalType": "uint160",
          "name": "",
          "type": "uint160"
        }
      ],
      "stateMutability": "view",
      "type": "function"
    },
    {
      "inputs": [
        {
          "internalType": "uint160",
          "name": "percentage_",
          "type": "uint160"
        }
      ],
      "name": "changePercentage",
      "outputs": [],
      "stateMutability": "nonpayable",
      "type": "function"
    },
    {
      "inputs": [
        {
          "internalType": "address",
          "name": "lendingPool_",
          "type": "address"
        }
      ],
      "name": "setLendingPool",
      "outputs": [],
      "stateMutability": "nonpayable",
      "type": "function"
    }
  ],
  "bytecode": "0x6080806040523461006a57600560018060a01b031980600154166001556000543382821617600055339060018060a01b03167f8be0079c531659141344cd1fd0a4f28419497f9722a3daafe3b4186f6b6457e0600080a3600354161760035561056490816100708239f35b600080fdfe6040608081526004908136101561001557600080fd5b600091823560e01c918263113aa8b114610432578263636be27a1461039857826370a0823114610362578263715018a6146102fd57826379ba50971461023c5782638da5cb5b146102145782639f409998146101cb578263a001ecdd146101a2578263e30c397814610175578263ef6506db1461010c57505063f2fde38b1461009d57600080fd5b34610109576020366003190112610109576100b6610477565b6100be610492565b600180546001600160a01b0319166001600160a01b0392831690811790915582549091167f38d16b8cac22d99fc7c124b9cd0de2d3fa1faef420bfe791d8c362d765e227008380a380f35b80fd5b90915034610171578060031936011261017157610127610477565b6002546001600160a01b03919061014190831633146104ea565b168352816020528220805491602435830180931161015e57505580f35b634e487b7160e01b845260119052602483fd5b8280fd5b83903461019e578160031936011261019e5760015490516001600160a01b039091168152602090f35b5080fd5b83903461019e578160031936011261019e5760035490516001600160a01b039091168152602090f35b83823461019e57602036600319011261019e57356001600160a01b0381169081900361019e576101f9610492565b6bffffffffffffffffffffffff60a01b600354161760035580f35b83903461019e578160031936011261019e57905490516001600160a01b039091168152602090f35b90915034610171578260031936011261017157600154916001600160a01b039133838516036102a85750506001600160a01b031991821660015582543392811683178455167f8be0079c531659141344cd1fd0a4f28419497f9722a3daafe3b4186f6b6457e08380a380f35b906020608492519162461bcd60e51b8352820152602960248201527f4f776e61626c6532537465703a2063616c6c6572206973206e6f7420746865206044820152683732bb9037bbb732b960b91b6064820152fd5b8334610109578060031936011261010957610316610492565b600180546001600160a01b03199081169091558154908116825581906001600160a01b03167f8be0079c531659141344cd1fd0a4f28419497f9722a3daafe3b4186f6b6457e08280a380f35b9150346101715760203660031901126101715760209282916001600160a01b0361038a610477565b168252845220549051908152f35b9150346101715781600319360112610171576103b2610477565b60025460243593916001600160a01b03916103d090831633146104ea565b16808552826020528382862054106103fc57845281602052832090815492830392831161015e57505580f35b815162461bcd60e51b8152602081850152601060248201526f11549497d25394d551919250d251539560821b6044820152606490fd5b83346101095760203660031901126101095761044c610477565b610454610492565b60018060a01b03166bffffffffffffffffffffffff60a01b600254161760025580f35b600435906001600160a01b038216820361048d57565b600080fd5b6000546001600160a01b031633036104a657565b606460405162461bcd60e51b815260206004820152602060248201527f4f776e61626c653a2063616c6c6572206973206e6f7420746865206f776e65726044820152fd5b156104f157565b60405162461bcd60e51b815260206004820152601560248201527411549497d3d3931657d3115391125391d7d413d3d3605a1b6044820152606490fdfea2646970667358221220a3fd1dd919b21edb1fbf0a33d2cbdda8f32a55d26abb5aebd06a29732dacb6a464736f6c63430008110033",
  "immutableReferences": {},
  "source": "// SPDX-License-Identifier: MIT\r\npragma solidity ^0.8.17;\r\n\r\nimport \"../interfaces/IFeeManager.sol\";\r\n\r\nimport \"@openzeppelin/contracts/access/Ownable2Step.sol\";\r\n\r\n/*\r\n    The FeeManager contract is solely created to bookkeep\r\n    @dev revenue from the LendingPool contract.\r\n   This contract can only be modified by the LendingPool \r\n    contract.\r\n*/\r\n \r\n\r\ncontract FeeManager is IFeeManager, Ownable2Step {\r\n    address deployer;\r\n\r\n    uint160 private _percentage = 5; // 2%\r\n    mapping(address => uint256) private _balances;\r\n\r\n    constructor() Ownable2Step() {}\r\n\r\n    function credit(address token, uint256 amount)\r\n        public\r\n        override\r\n        onlyLendingPool\r\n    {\r\n        _balances[token] += amount;\r\n    }\r\n\r\n    function debit(address token, uint256 amount)\r\n        public\r\n        override\r\n        onlyLendingPool\r\n    {\r\n        uint256 balance = _balances[token];\r\n        require(balance >= amount, \"ERR_INSUFFICIENT\");\r\n        _balances[token] -= amount;\r\n    }\r\n\r\n    function balanceOf(address token) public view override returns (uint256) {\r\n        return _balances[token];\r\n    }\r\n\r\n    function feePercentage() public view override returns (uint160) {\r\n        return _percentage;\r\n    }\r\n\r\n    function changePercentage(uint160 percentage_) public onlyOwner {\r\n        _percentage = percentage_;\r\n    }\r\n\r\n    function setLendingPool(address lendingPool_) public onlyOwner {\r\n        deployer = lendingPool_;\r\n    }\r\n\r\n    modifier onlyLendingPool() {\r\n        require(deployer == msg.sender, \"ERR_ONLY_LENDING_POOL\");\r\n        _;\r\n    }\r\n}\r\n",
  "sourcePath": "C:\\Users\\DELL\\Documents\\darsh\\smart-contracts\\contracts\\managers\\FeeManager.sol",
  "compiler": {
    "name": "solc",
    "version": "0.8.17+commit.8df45f5f.Emscripten.clang"
  },
  "schemaVersion": "3.4.11",
  "updatedAt": "2023-03-04T14:05:23.844Z",
  "devdoc": {
    "kind": "dev",
    "methods": {
      "acceptOwnership()": {
        "details": "The new owner accepts the ownership transfer."
      },
      "owner()": {
        "details": "Returns the address of the current owner."
      },
      "pendingOwner()": {
        "details": "Returns the address of the pending owner."
      },
      "renounceOwnership()": {
        "details": "Leaves the contract without owner. It will not be possible to call `onlyOwner` functions anymore. Can only be called by the current owner. NOTE: Renouncing ownership will leave the contract without an owner, thereby removing any functionality that is only available to the owner."
      },
      "transferOwnership(address)": {
        "details": "Starts the ownership transfer of the contract to a new account. Replaces the pending transfer if there is one. Can only be called by the current owner."
      }
    },
    "version": 1
  },
  "userdoc": {
    "kind": "user",
    "methods": {},
    "version": 1
  }
}