{
  "contractName": "HealthScore",
  "abi": [
    {
      "inputs": [],
      "stateMutability": "nonpayable",
      "type": "constructor"
    },
    {
      "anonymous": false,
      "inputs": [
        {
          "indexed": true,
          "internalType": "address",
          "name": "previousOwner",
          "type": "address"
        },
        {
          "indexed": true,
          "internalType": "address",
          "name": "newOwner",
          "type": "address"
        }
      ],
      "name": "OwnershipTransferStarted",
      "type": "event"
    },
    {
      "anonymous": false,
      "inputs": [
        {
          "indexed": true,
          "internalType": "address",
          "name": "previousOwner",
          "type": "address"
        },
        {
          "indexed": true,
          "internalType": "address",
          "name": "newOwner",
          "type": "address"
        }
      ],
      "name": "OwnershipTransferred",
      "type": "event"
    },
    {
      "inputs": [],
      "name": "acceptOwnership",
      "outputs": [],
      "stateMutability": "nonpayable",
      "type": "function"
    },
    {
      "inputs": [],
      "name": "owner",
      "outputs": [
        {
          "internalType": "address",
          "name": "",
          "type": "address"
        }
      ],
      "stateMutability": "view",
      "type": "function"
    },
    {
      "inputs": [],
      "name": "pendingOwner",
      "outputs": [
        {
          "internalType": "address",
          "name": "",
          "type": "address"
        }
      ],
      "stateMutability": "view",
      "type": "function"
    },
    {
      "inputs": [],
      "name": "renounceOwnership",
      "outputs": [],
      "stateMutability": "nonpayable",
      "type": "function"
    },
    {
      "inputs": [
        {
          "internalType": "address",
          "name": "newOwner",
          "type": "address"
        }
      ],
      "name": "transferOwnership",
      "outputs": [],
      "stateMutability": "nonpayable",
      "type": "function"
    },
    {
      "inputs": [
        {
          "internalType": "address",
          "name": "user",
          "type": "address"
        }
      ],
      "name": "getScore",
      "outputs": [
        {
          "internalType": "uint16",
          "name": "",
          "type": "uint16"
        }
      ],
      "stateMutability": "view",
      "type": "function"
    },
    {
      "inputs": [
        {
          "internalType": "address",
          "name": "activity_",
          "type": "address"
        }
      ],
      "name": "setActivity",
      "outputs": [],
      "stateMutability": "nonpayable",
      "type": "function"
    }
  ],
  "bytecode": "0x6080806040523461006357600180546001600160a01b03199081169091556000805433928116831782556001600160a01b0316907f8be0079c531659141344cd1fd0a4f28419497f9722a3daafe3b4186f6b6457e09080a361156e90816100698239f35b600080fdfe60406080815260048036101561001457600080fd5b600091823560e01c908163715018a61461129f57816379ba5097146111df5781638da5cb5b146111b7578163d47875d014610151578163e30c39781461012857508063e3f43fdb146100e05763f2fde38b1461006f57600080fd5b346100dc5760203660031901126100dc57356001600160a01b03818116918290036100d85761009c611304565b600180546001600160a01b031916831790558254167f38d16b8cac22d99fc7c124b9cd0de2d3fa1faef420bfe791d8c362d765e227008380a380f35b8280fd5b5080fd5b50346100dc5760203660031901126100dc57356001600160a01b038116908190036100dc5761010d611304565b6bffffffffffffffffffffffff60a01b600254161760025580f35b8390346100dc57816003193601126100dc5760015490516001600160a01b039091168152602090f35b919050346100d857602092836003193601126111b45781356001600160a01b0381811693918490036100d8576002805486516333689fdb60e11b81528085018790529391602491841661016080878581855afa9687156106a45788976110c7575b50508690895198630600fdb960e11b92838b5281878c01528c8b8781865afa9a8b156110bd578a9b611082575b508461ffff809c1611600014610f3d576101f890611454565b8b5184815282888201528d818881875afa9081156106f15786918d918d91610f04575b50161115610d235761022c90611467565b8b5184815282888201528d818881875afa9081156106f15786918d918d91610cea575b50161115610b955761026090611441565b8b5184815282888201528d818881875afa9081156106f15786918d918d91610b5c575b5016111561097c5761029490611441565b8b5184815282888201528d818881875afa9081156106f15786918d918d91610943575b50161115610734576102c890611454565b925b8b5181815282888201528d818881875afa9081156106f15786918d918d916106fb575b501611156104de5750505061030190611467565b61014086015188166005811115610489575061031c9061141e565b905b60e086015188168061045a5750506103359061141e565b61010085015180610419575061034a9061141e565b945b6080844216950184815116801560001461037957505050505050506103709061142e565b915b5191168152f35b6213c680018581116104075785168610156103a35750505050505061039d9061141e565b91610372565b6220f58085825116018581116104075785168610156103cb5750505050505061039d906113f8565b518416623b538001928484116103f7575050501611156103ee5761039d906114ec565b61039d90611441565b634e487b7160e01b825260119052fd5b5050634e487b7160e01b815260118352fd5b6801158e460913d000008111610439575061043390611454565b9461034c565b6802b5e3af16b1880000106104515761043390611525565b61043390611512565b6001810361047257505061046d90611454565b610335565b036104805761046d90611525565b61046d90611512565b60038111156104a2575061049c9061140b565b9061031e565b828111156104b4575061049c906113f8565b60018111156104c7575061049c906113e5565b156104d55761049c906113bc565b61049c90611441565b8b5181815282888201528d818881875afa9081156106f15791868f949389938f918f916106ae575b50160361052057505050505061051b90611454565b610301565b8d51948593849283528a8301525afa80156106a45789908990610669575b166001141590506105525761051b90611441565b60c0860151680821ab0d4414980000811115610572575061051b9061141e565b68068155a43676e0000081111561058d575061051b9061140b565b68056bc75e2d631000008111156105a8575061051b906113f8565b6804563918244f4000008111156105c3575061051b906113e5565b680340aad21b3b7000008111156105de575061051b906113bc565b680270801d946c9400008111156105f9575061051b90611441565b68015af1d78b58c40000811115610614575061051b906114b3565b67d02ab486cedc000081111561062e575061051b906114a0565b678ac7230489e80000811115610648575061051b9061148d565b674563918244f4000010156106605761051b9061147a565b61051b90611467565b50508a81813d831161069d575b610680818361135c565b810103126106995788610694600192611394565b61053e565b8780fd5b503d610676565b8a513d8a823e3d90fd5b9450505050919281813d83116106ea575b6106c9818361135c565b810103126106e6578d9291868d6106e08a94611394565b38610506565b8a80fd5b503d6106bf565b8d513d8d823e3d90fd5b925050508d81813d831161072d575b610714818361135c565b810103126106e6578b6107278792611394565b386102ed565b503d61070a565b8b5184815282888201528d818881875afa9081156106f15786918d918d9161090a575b50160361076d5761076790611441565b926102ca565b8b5184815282888201528d818881875afa80156106f1578c908c906108d3575b166001141590506107a1576107679061142e565b8a60a08a01516907695a92c20d6fe0000081116000146107c65750506107679061141e565b69054b40b1f852bda000008111156107e3575050610767906114ff565b6903635c9adc5dea0000008111156108005750506107679061140b565b69028a857425466f80000081111561081d575050610767906114c6565b6901e7e4171bf4d3a0000081111561083a5750506107679061142e565b69014542ba12a337c00000811115610857575050610767906114ec565b68bdbc41e0348b300000811115610873575050610767906114d9565b686c6b935b8bbd4000008111156108a8575016600b018a811161089657926102ca565b634e487b7160e01b8a5260118752858afd5b681b1ae4d6e2ef50000010156108c95716600d018a811161089657926102ca565b5061076790611454565b50508d81813d8311610903575b6108ea818361135c565b810103126106e6578b6108fe600192611394565b61078d565b503d6108e0565b925050508d81813d831161093c575b610923818361135c565b810103126106e6578b6109368792611394565b38610757565b503d610919565b925050508d81813d8311610975575b61095c818361135c565b810103126106e6578b61096f8792611394565b386102b7565b503d610952565b8b5184815282888201528d818881875afa9081156106f15786918d918d91610b23575b5016036109b4576109af906113bc565b610294565b8b5184815282888201528d818881875afa80156106f1578c908c90610aec575b166001141590506109e8576109af906113e5565b888c01516907695a92c20d6fe00000811115610a0857506109af9061141e565b69054b40b1f852bda00000811115610a2457506109af906114ff565b6903635c9adc5dea000000811115610a4057506109af9061140b565b69028a857425466f800000811115610a5c57506109af906114c6565b6901e7e4171bf4d3a00000811115610a7857506109af906113f8565b69014542ba12a337c00000811115610a9457506109af906113e5565b68bdbc41e0348b300000811115610aaf57506109af906114ec565b686c6b935b8bbd400000811115610aca57506109af906113bc565b681b1ae4d6e2ef5000001015610ae3576109af906114d9565b6109af90611441565b50508d81813d8311610b1c575b610b03818361135c565b810103126106e6578b610b17600192611394565b6109d4565b503d610af9565b925050508d81813d8311610b55575b610b3c818361135c565b810103126106e6578b610b4f8792611394565b3861099f565b503d610b32565b925050508d81813d8311610b8e575b610b75818361135c565b810103126106e6578b610b888792611394565b38610283565b503d610b6b565b8b5184815282888201528d818881875afa9081156106f15786918d918d91610cb1575b501603610bcd57610bc8906113e5565b610260565b8b5184815282888201528d818881875afa9081156106f1578e87928e928e91610c73575b508216600103610c0757505050610bc8906114c6565b8b015116601a811115610c1f575050610bc89061141e565b6012811115610c33575050610bc89061140b565b600a811115610c47575050610bc8906113f8565b6005811115610c5b575050610bc8906113e5565b1115610c6a57610bc8906113bc565b610bc890611441565b935050905081813d8311610caa575b610c8c818361135c565b810103126106e6578b8e600182610ca38a95611394565b9150610bf1565b503d610c82565b925050508d81813d8311610ce3575b610cca818361135c565b810103126106e6578b610cdd8792611394565b38610bb8565b503d610cc0565b925050508d81813d8311610d1c575b610d03818361135c565b810103126106e6578b610d168792611394565b3861024f565b503d610cf9565b8b5184815282888201528d818881875afa9081156106f15786918d918d91610ecb575b501603610d5b57610d5690611454565b61022c565b8b5184815282888201528d818881875afa80156106f1578c908c90610e94575b16600114159050610d8f57610d5690611441565b60608901516907695a92c20d6fe00000811115610db05750610d569061141e565b69054b40b1f852bda00000811115610dcc5750610d56906114c6565b6903635c9adc5dea000000811115610de85750610d56906113e5565b69028a857425466f800000811115610e045750610d56906113bc565b6901e7e4171bf4d3a00000811115610e205750610d5690611441565b69014542ba12a337c00000811115610e3c5750610d56906114b3565b68bdbc41e0348b300000811115610e575750610d56906114a0565b686c6b935b8bbd400000811115610e725750610d569061148d565b681b1ae4d6e2ef5000001015610e8b57610d569061147a565b610d5690611467565b50508d81813d8311610ec4575b610eab818361135c565b810103126106e6578b610ebf600192611394565b610d7b565b503d610ea1565b925050508d81813d8311610efd575b610ee4818361135c565b810103126106e6578b610ef78792611394565b38610d46565b503d610eda565b925050508d81813d8311610f36575b610f1d818361135c565b810103126106e6578b610f308792611394565b3861021b565b503d610f13565b8b5184815282888201528d818881875afa9081156106f15786918d918d91611049575b501603610f7557610f7090611441565b6101f8565b8b5184815282888201528d818881875afa80156106f1578c908c90611012575b16600114159050610fa957610f709061142e565b88518b16601e811115610fc05750610f709061141e565b6015811115610fd35750610f709061140b565b600d811115610fe65750610f70906113f8565b6007811115610ff95750610f70906113e5565b6003101561100a57610f70906113bc565b50600a6101f8565b50508d81813d8311611042575b611029818361135c565b810103126106e6578b61103d600192611394565b610f95565b503d61101f565b925050508d81813d831161107b575b611062818361135c565b810103126106e6578b6110758792611394565b38610f60565b503d611058565b909a508c81813d83116110b6575b61109a818361135c565b810103126110b2576110ab90611394565b99386101df565b8980fd5b503d611090565b8c513d8c823e3d90fd5b908092975081813d83116111ad575b6110e0818361135c565b8101031261069957895191820182811067ffffffffffffffff82111761119b578a5261110b81611394565b82526111188b8201611394565b8b830152898101518a8301526060810151606083015261113a608082016113a8565b608083015260a081015160a083015260c081015160c083015261115f60e08201611394565b60e0830152610100808201519083015261012061117d8183016113a8565b9083015261118f610140809201611394565b908201529438806101b2565b634e487b7160e01b8952604186528489fd5b503d6110d6565b80fd5b8390346100dc57816003193601126100dc57905490516001600160a01b039091168152602090f35b9050346100d857826003193601126100d857600154916001600160a01b0391338385160361124a5750506001600160a01b031991821660015582543392811683178455167f8be0079c531659141344cd1fd0a4f28419497f9722a3daafe3b4186f6b6457e08380a380f35b906020608492519162461bcd60e51b8352820152602960248201527f4f776e61626c6532537465703a2063616c6c6572206973206e6f7420746865206044820152683732bb9037bbb732b960b91b6064820152fd5b83346111b457806003193601126111b4576112b8611304565b600180546001600160a01b03199081169091558154908116825581906001600160a01b03167f8be0079c531659141344cd1fd0a4f28419497f9722a3daafe3b4186f6b6457e08280a380f35b6000546001600160a01b0316330361131857565b606460405162461bcd60e51b815260206004820152602060248201527f4f776e61626c653a2063616c6c6572206973206e6f7420746865206f776e65726044820152fd5b90601f8019910116810190811067ffffffffffffffff82111761137e57604052565b634e487b7160e01b600052604160045260246000fd5b519061ffff821682036113a357565b600080fd5b51906001600160a01b03821682036113a357565b90600861ffff809316019182116113cf57565b634e487b7160e01b600052601160045260246000fd5b90600661ffff809316019182116113cf57565b90600461ffff809316019182116113cf57565b90600261ffff809316019182116113cf57565b9061ffff8092169182116113cf57565b90600561ffff809316019182116113cf57565b90600a61ffff809316019182116113cf57565b90600f61ffff809316019182116113cf57565b90601461ffff809316019182116113cf57565b90601261ffff809316019182116113cf57565b90601061ffff809316019182116113cf57565b90600e61ffff809316019182116113cf57565b90600c61ffff809316019182116113cf57565b90600361ffff809316019182116113cf57565b90600961ffff809316019182116113cf57565b90600761ffff809316019182116113cf57565b90600161ffff809316019182116113cf57565b90603261ffff809316019182116113cf57565b90601961ffff809316019182116113cf5756fea2646970667358221220d6f8c8caa0325124a0b0f122dd5580fdf9b6e5c64e35a2550c36c70df8551d4764736f6c63430008110033",
  "immutableReferences": {},
  "source": "// SPDX-License-Identifier: GPL-3.0\r\npragma solidity >=0.7.0 <0.9.0;\r\n\r\nimport \"./Activity.sol\";\r\nimport \"./interfaces/IHealthScore.sol\";\r\nimport \"@openzeppelin/contracts/access/Ownable2Step.sol\";\r\n\r\ncontract HealthScore is Ownable2Step, IHealthScore {\r\n    Activity private _activity;\r\n\r\n    constructor() Ownable2Step() {}\r\n\r\n    function getScore(address user) public view override returns (uint16) {\r\n        Activity.ActivityModel memory activity = _activity.getActivity(user);\r\n        uint16 result;\r\n\r\n        // repaymentTimes - 15 marks\r\n        if (_activity.pendingLoansCount(user) > 2) {\r\n            result += 15;\r\n        } else if (_activity.pendingLoansCount(user) == 2) {\r\n            result += 10;\r\n        } else if (_activity.pendingLoansCount(user) == 1) {\r\n            result += 5;\r\n        } else if (activity.repaymentTimes > 30) {\r\n            result += 0;\r\n        } else if (activity.repaymentTimes > 21) {\r\n            result += 2;\r\n        } else if (activity.repaymentTimes > 13) {\r\n            result += 4;\r\n        } else if (activity.repaymentTimes > 7) {\r\n            result += 6;\r\n        } else if (activity.repaymentTimes > 3) {\r\n            result += 8;\r\n        } else {\r\n            result += 10;\r\n        }\r\n\r\n        // repaymentVolume - 20 marks\r\n        if (_activity.pendingLoansCount(user) > 2) {\r\n            result += 20;\r\n        } else if (_activity.pendingLoansCount(user) == 2) {\r\n            result += 15;\r\n        } else if (_activity.pendingLoansCount(user) == 1) {\r\n            result += 10;\r\n        } else if (activity.repaymentVolume > 35000 * 1e18) {\r\n            result += 0;\r\n        } else if (activity.repaymentVolume > 25000 * 1e18) {\r\n            result += 3;\r\n        } else if (activity.repaymentVolume > 16000 * 1e18) {\r\n            result += 6;\r\n        } else if (activity.repaymentVolume > 12000 * 1e18) {\r\n            result += 8;\r\n        } else if (activity.repaymentVolume > 9000 * 1e18) {\r\n            result += 10;\r\n        } else if (activity.repaymentVolume > 6000 * 1e18) {\r\n            result += 12;\r\n        } else if (activity.repaymentVolume > 3500 * 1e18) {\r\n            result += 14;\r\n        } else if (activity.repaymentVolume > 2000 * 1e18) {\r\n            result += 16;\r\n        } else if (activity.repaymentVolume > 500 * 1e18) {\r\n            result += 18;\r\n        } else {\r\n            result += 20;\r\n        }\r\n\r\n        // borrowedTimes - 10 marks\r\n        if (_activity.pendingLoansCount(user) > 2) {\r\n            result += 10;\r\n        } else if (_activity.pendingLoansCount(user) == 2) {\r\n            result += 6;\r\n        } else if (_activity.pendingLoansCount(user) == 1) {\r\n            result += 3;\r\n        } else if (activity.borrowedTimes > 26) {\r\n            result += 0;\r\n        } else if (activity.borrowedTimes > 18) {\r\n            result += 2;\r\n        } else if (activity.borrowedTimes > 10) {\r\n            result += 4;\r\n        } else if (activity.borrowedTimes > 5) {\r\n            result += 6;\r\n        } else if (activity.borrowedTimes > 2) {\r\n            result += 8;\r\n        } else {\r\n            result += 10;\r\n        }\r\n\r\n        // borrowedVolume - 10 marks\r\n        if (_activity.pendingLoansCount(user) > 2) {\r\n            result += 10;\r\n        } else if (_activity.pendingLoansCount(user) == 2) {\r\n            result += 8;\r\n        } else if (_activity.pendingLoansCount(user) == 1) {\r\n            result += 6;\r\n        } else if (activity.borrowedVolume > 35000 * 1e18) {\r\n            result += 0;\r\n        } else if (activity.borrowedVolume > 25000 * 1e18) {\r\n            result += 1;\r\n        } else if (activity.borrowedVolume > 16000 * 1e18) {\r\n            result += 2;\r\n        } else if (activity.borrowedVolume > 12000 * 1e18) {\r\n            result += 3;\r\n        } else if (activity.borrowedVolume > 9000 * 1e18) {\r\n            result += 4;\r\n        } else if (activity.borrowedVolume > 6000 * 1e18) {\r\n            result += 6;\r\n        } else if (activity.borrowedVolume > 3500 * 1e18) {\r\n            result += 7;\r\n        } else if (activity.borrowedVolume > 2000 * 1e18) {\r\n            result += 8;\r\n        } else if (activity.borrowedVolume > 500 * 1e18) {\r\n            result += 9;\r\n        } else {\r\n            result += 10;\r\n        }\r\n\r\n        // collateralVolume - 15 marks\r\n        if (_activity.pendingLoansCount(user) > 2) {\r\n            result += 15;\r\n        } else if (_activity.pendingLoansCount(user) == 2) {\r\n            result += 10;\r\n        } else if (_activity.pendingLoansCount(user) == 1) {\r\n            result += 5;\r\n        } else if (activity.collateralVolume > 35000 * 1e18) {\r\n            result += 0;\r\n        } else if (activity.collateralVolume > 25000 * 1e18) {\r\n            result += 1;\r\n        } else if (activity.collateralVolume > 16000 * 1e18) {\r\n            result += 2;\r\n        } else if (activity.collateralVolume > 12000 * 1e18) {\r\n            result += 3;\r\n        } else if (activity.collateralVolume > 9000 * 1e18) {\r\n            result += 5;\r\n        } else if (activity.collateralVolume > 6000 * 1e18) {\r\n            result += 7;\r\n        } else if (activity.collateralVolume > 3500 * 1e18) {\r\n            result += 9;\r\n        } else if (activity.collateralVolume > 2000 * 1e18) {\r\n            result += 11;\r\n        } else if (activity.collateralVolume > 500 * 1e18) {\r\n            result += 13;\r\n        } else {\r\n            result += 15;\r\n        }\r\n\r\n        // interestPaidVolume - 20 marks\r\n        if (_activity.pendingLoansCount(user) > 2) {\r\n            result += 20;\r\n        } else if (_activity.pendingLoansCount(user) == 2) {\r\n            result += 15;\r\n        } else if (_activity.pendingLoansCount(user) == 1) {\r\n            result += 10;\r\n        } else if (activity.interestPaidVolume > 150 * 1e18) {\r\n            result += 0;\r\n        } else if (activity.interestPaidVolume > 120 * 1e18) {\r\n            result += 2;\r\n        } else if (activity.interestPaidVolume > 100 * 1e18) {\r\n            result += 4;\r\n        } else if (activity.interestPaidVolume > 80 * 1e18) {\r\n            result += 6;\r\n        } else if (activity.interestPaidVolume > 60 * 1e18) {\r\n            result += 8;\r\n        } else if (activity.interestPaidVolume > 45 * 1e18) {\r\n            result += 10;\r\n        } else if (activity.interestPaidVolume > 25 * 1e18) {\r\n            result += 12;\r\n        } else if (activity.interestPaidVolume > 15 * 1e18) {\r\n            result += 14;\r\n        } else if (activity.interestPaidVolume > 10 * 1e18) {\r\n            result += 16;\r\n        } else if (activity.interestPaidVolume > 5 * 1e18) {\r\n            result += 18;\r\n        } else {\r\n            result += 20;\r\n        }\r\n\r\n        // stars - 10 marks\r\n        if (activity.stars > 5) {\r\n            result += 0;\r\n        } else if (activity.stars > 3) {\r\n            result += 2;\r\n        } else if (activity.stars > 2) {\r\n            result += 4;\r\n        } else if (activity.stars > 1) {\r\n            result += 6;\r\n        } else if (activity.stars > 0) {\r\n            result += 8;\r\n        } else {\r\n            result += 10;\r\n        }\r\n\r\n        // EXTRA -- MARKS\r\n\r\n        // defaultedTimes - 50 marks\r\n        if (activity.defaultedTimes == 0) {\r\n            result += 0;\r\n        } else if (activity.defaultedTimes == 1) {\r\n            result += 15;\r\n        } else if (activity.defaultedTimes == 2) {\r\n            result += 25;\r\n        } else {\r\n            result += 50;\r\n        }\r\n\r\n        // defaultedVolume - 50 marks\r\n        if (activity.defaultedVolume == 0) {\r\n            result += 0;\r\n        } else if (activity.defaultedVolume <= 20 * 1e18) {\r\n            result += 15;\r\n        } else if (activity.defaultedVolume <= 50 * 1e18) {\r\n            result += 25;\r\n        } else {\r\n            result += 50;\r\n        }\r\n\r\n        // lastActive - 5 ~ 10 marks\r\n        uint160 currentTime = uint160(block.timestamp);\r\n\r\n        if (activity.lastActive == 0) {\r\n            result += 5;\r\n        } else if ((activity.lastActive + 15 days) > currentTime) {\r\n            result += 0;\r\n        } else if ((activity.lastActive + 25 days) > currentTime) {\r\n            result += 4;\r\n        } else if ((activity.lastActive + 45 days) > currentTime) {\r\n            result += 7;\r\n        } else {\r\n            result += 10;\r\n        }\r\n\r\n        return result;\r\n    }\r\n\r\n    function setActivity(address activity_) public onlyOwner {\r\n        _activity = Activity(activity_);\r\n    }\r\n}\r\n",
  "sourcePath": "C:\\Users\\DELL\\Documents\\darsh\\smart-contracts\\contracts\\HealthScore.sol",
  "compiler": {
    "name": "solc",
    "version": "0.8.17+commit.8df45f5f.Emscripten.clang"
  },
  "schemaVersion": "3.4.11",
  "updatedAt": "2023-02-20T16:31:39.420Z",
  "devdoc": {
    "kind": "dev",
    "methods": {
      "acceptOwnership()": {
        "details": "The new owner accepts the ownership transfer."
      },
      "owner()": {
        "details": "Returns the address of the current owner."
      },
      "pendingOwner()": {
        "details": "Returns the address of the pending owner."
      },
      "renounceOwnership()": {
        "details": "Leaves the contract without owner. It will not be possible to call `onlyOwner` functions anymore. Can only be called by the current owner. NOTE: Renouncing ownership will leave the contract without an owner, thereby removing any functionality that is only available to the owner."
      },
      "transferOwnership(address)": {
        "details": "Starts the ownership transfer of the contract to a new account. Replaces the pending transfer if there is one. Can only be called by the current owner."
      }
    },
    "version": 1
  },
  "userdoc": {
    "kind": "user",
    "methods": {},
    "version": 1
  }
}