{
  "contractName": "LendingPool",
  "abi": [
    {
      "inputs": [
        {
          "internalType": "address",
          "name": "ltv_",
          "type": "address"
        },
        {
          "internalType": "address",
          "name": "activity_",
          "type": "address"
        },
        {
          "internalType": "address",
          "name": "poolManager_",
          "type": "address"
        },
        {
          "internalType": "address",
          "name": "loanManager_",
          "type": "address"
        },
        {
          "internalType": "address",
          "name": "offerManager_",
          "type": "address"
        }
      ],
      "stateMutability": "nonpayable",
      "type": "constructor"
    },
    {
      "inputs": [],
      "name": "INTEREST_RATE_DENOMINATOR",
      "outputs": [
        {
          "internalType": "uint256",
          "name": "",
          "type": "uint256"
        }
      ],
      "stateMutability": "view",
      "type": "function"
    },
    {
      "inputs": [
        {
          "internalType": "uint256",
          "name": "principal",
          "type": "uint256"
        },
        {
          "internalType": "uint256",
          "name": "durationSecs",
          "type": "uint256"
        },
        {
          "internalType": "uint256",
          "name": "interest",
          "type": "uint256"
        }
      ],
      "name": "getFullInterestAmount",
      "outputs": [
        {
          "internalType": "uint256",
          "name": "",
          "type": "uint256"
        }
      ],
      "stateMutability": "pure",
      "type": "function"
    },
    {
      "inputs": [],
      "name": "nativeAddress",
      "outputs": [
        {
          "internalType": "address",
          "name": "",
          "type": "address"
        }
      ],
      "stateMutability": "view",
      "type": "function"
    },
    {
      "inputs": [
        {
          "internalType": "uint256",
          "name": "total",
          "type": "uint256"
        },
        {
          "internalType": "uint160",
          "name": "percent",
          "type": "uint160"
        }
      ],
      "name": "percentageInverseOf",
      "outputs": [
        {
          "internalType": "uint256",
          "name": "",
          "type": "uint256"
        }
      ],
      "stateMutability": "pure",
      "type": "function"
    },
    {
      "inputs": [
        {
          "internalType": "uint256",
          "name": "total",
          "type": "uint256"
        },
        {
          "internalType": "uint160",
          "name": "percent",
          "type": "uint160"
        }
      ],
      "name": "percentageOf",
      "outputs": [
        {
          "internalType": "uint256",
          "name": "",
          "type": "uint256"
        }
      ],
      "stateMutability": "pure",
      "type": "function"
    },
    {
      "inputs": [
        {
          "internalType": "uint256",
          "name": "principalAmount_",
          "type": "uint256"
        },
        {
          "internalType": "address",
          "name": "principalToken",
          "type": "address"
        },
        {
          "internalType": "address[]",
          "name": "collateralTypes",
          "type": "address[]"
        },
        {
          "internalType": "uint256",
          "name": "daysToMaturity",
          "type": "uint256"
        },
        {
          "internalType": "uint256",
          "name": "interest",
          "type": "uint256"
        },
        {
          "internalType": "uint256",
          "name": "daysToExpire",
          "type": "uint256"
        }
      ],
      "name": "createLendingOffer",
      "outputs": [],
      "stateMutability": "payable",
      "type": "function"
    },
    {
      "inputs": [
        {
          "internalType": "uint256",
          "name": "offerId",
          "type": "uint256"
        },
        {
          "internalType": "uint16",
          "name": "desiredPercentage",
          "type": "uint16"
        }
      ],
      "name": "acceptBorrowingOffer",
      "outputs": [],
      "stateMutability": "payable",
      "type": "function"
    },
    {
      "inputs": [
        {
          "internalType": "uint256",
          "name": "requestId",
          "type": "uint256"
        }
      ],
      "name": "acceptBorrowingRequest",
      "outputs": [],
      "stateMutability": "payable",
      "type": "function"
    },
    {
      "inputs": [
        {
          "internalType": "address",
          "name": "principalToken",
          "type": "address"
        },
        {
          "internalType": "address",
          "name": "collateralToken",
          "type": "address"
        },
        {
          "internalType": "uint256",
          "name": "collateralAmount_",
          "type": "uint256"
        },
        {
          "internalType": "uint256",
          "name": "interest",
          "type": "uint256"
        },
        {
          "internalType": "uint256",
          "name": "daysToMaturity",
          "type": "uint256"
        },
        {
          "internalType": "uint256",
          "name": "daysToExpire",
          "type": "uint256"
        }
      ],
      "name": "createBorrowingOffer",
      "outputs": [],
      "stateMutability": "payable",
      "type": "function"
    },
    {
      "inputs": [
        {
          "internalType": "uint256",
          "name": "offerId",
          "type": "uint256"
        },
        {
          "internalType": "uint16",
          "name": "desiredPercentage",
          "type": "uint16"
        },
        {
          "internalType": "address",
          "name": "collateralToken",
          "type": "address"
        }
      ],
      "name": "acceptLendingOffer",
      "outputs": [],
      "stateMutability": "payable",
      "type": "function"
    },
    {
      "inputs": [
        {
          "internalType": "uint256",
          "name": "requestId",
          "type": "uint256"
        }
      ],
      "name": "acceptLendingRequest",
      "outputs": [],
      "stateMutability": "payable",
      "type": "function"
    },
    {
      "inputs": [
        {
          "internalType": "uint256",
          "name": "loanId",
          "type": "uint256"
        }
      ],
      "name": "repayLoan",
      "outputs": [],
      "stateMutability": "payable",
      "type": "function"
    },
    {
      "inputs": [
        {
          "internalType": "uint256",
          "name": "loanId",
          "type": "uint256"
        }
      ],
      "name": "repayLiquidatedLoan",
      "outputs": [],
      "stateMutability": "payable",
      "type": "function"
    },
    {
      "inputs": [
        {
          "internalType": "address",
          "name": "priceFeed_",
          "type": "address"
        }
      ],
      "name": "setPriceFeed",
      "outputs": [],
      "stateMutability": "nonpayable",
      "type": "function"
    },
    {
      "inputs": [
        {
          "internalType": "address",
          "name": "newOwner",
          "type": "address"
        }
      ],
      "name": "changeOwner",
      "outputs": [],
      "stateMutability": "nonpayable",
      "type": "function"
    }
  ],
  "bytecode": "0x608034620000f057601f62002ba538819003918201601f19168301916001600160401b03831184841017620000f55780849260a094604052833981010312620000f0576200004d816200010b565b906200005c602082016200010b565b906200006b604082016200010b565b9162000088608062000080606085016200010b565b93016200010b565b91600160005560018060a01b0380948180948160018060a01b031999168960045416176004551687600254161760025516856005541617600555168360065416176006551681600754161760075533906001541617600155604051612a849081620001218239f35b600080fd5b634e487b7160e01b600052604160045260246000fd5b51906001600160a01b0382168203620000f05756fe608080604052600436101561001357600080fd5b60009060e08235811c9182632e476337146121f6575081634add7c8214611d115781635c7f31aa146118b457816361ba94431461181e578163724e78da146117ce578163a33928da1461132a578163a49dd9b51461103f578163a6f9dae114610ff1578163ab7b1c8914610d10578163b9610db414610927578163cc3266e814610904578163e0b26959146108ea578163e0f7dffd146108c5578163e826fbe7146100ec575063f4e02f46146100c857600080fd5b346100e95760206100e16100db366122af565b90612a17565b604051908152f35b80fd5b8260603660031901126100e957610101612250565b9160449081356001600160a01b03811691908290036104d15760075460405163ab64a18560e01b8152600480359082015291908590839060249082906001600160a01b03165afa91821561053057859261089d575b5081015161016e906001600160a01b0316421061245f565b61019061ffff80961695610185606488111561249f565b6019870616156124dd565b8394845b60c0830151805182101561089257600582901b01602001516001600160a01b031684146101e05760001981146101cc57600101610194565b634e487b7160e01b86526011600452602486fd5b50909192945060015b1561084e576101fc9060608301516129f3565b918260408301511061080a576024602060018060a01b0360045416604051928380926356512fcd60e11b82523360048301525afa80156105305785906107cf575b600354602085810151604051631c07d98160e21b81526001600160a01b0391821660048201528a35821660248201526044810189905294509091849116818981606481015b03925af1801561076157869061079b575b61029d92506129f3565b60048054604051636882509b60e11b81529160209183919082906001600160a01b03165afa908115610761576102e0929160ff91889161076c575b501690612776565b9073eeeeeeeeeeeeeeeeeeeeeeeeeeeeeeeeeeeeeeee908181036106f257503482106106b6575b60208301516001600160a01b03169081036105455750938394848085801561053b575b8280929181923390f1156104f2575b602060018060a01b03600654169160018060a01b03828601511692868860808801519561039860a08a01518960018060a01b036101208d015116916040519a8b998a988997631c57bf7160e21b89523395359060043560048b0161251a565b03925af1801561053057610501575b506007546001600160a01b031690813b156104fd57849182916040518094819363f094cb9560e01b835260043560048401528860248401525af19081156104f25784916104de575b505060035460209182015160405163912d228f60e01b81526001600160a01b0391821660048201526024810194909452839160449183918791165af19081156104955782916104a4575b506002546001600160a01b0316803b156104a0576040516311eba9df60e21b8152336004820152602481019290925282908290818381604481015b03925af18015610495576104855750f35b61048e90612261565b6100e95780f35b6040513d84823e3d90fd5b5050fd5b9150506020813d6020116104d6575b816104c060209383612275565b810103126104d15781905183610439565b600080fd5b3d91506104b3565b6104e790612261565b6104a05782856103ef565b6040513d86823e3d90fd5b8480fd5b6020809295503d8311610529575b6105198183612275565b810103126104d1578392856103a7565b503d61050f565b6040513d87823e3d90fd5b6108fc915061032a565b60405163a9059cbb60e01b602082015233602482015260448082018690528152610570606482612275565b6040519081604081011067ffffffffffffffff6040840111176106935786809160408401604052602084527f5361666545524332303a206c6f772d6c6576656c2063616c6c206661696c6564602085015260208151910182865af13d156106a9573d9067ffffffffffffffff82116106935761060c93604051926105fe6020601f19601f8401160185612275565b83523d89602085013e612796565b80518061061e575b5050938394610339565b906020806106309383010191016122d5565b1561063c578580610614565b60405162461bcd60e51b815260206004820152602a60248201527f5361666545524332303a204552433230206f7065726174696f6e20646964206e81870152691bdd081cdd58d8d9595960b21b6064820152608490fd5b634e487b7160e01b600052604160045260246000fd5b9161060c92606091612796565b60405162461bcd60e51b815260206004820152601560248201527411549497d0d3d31310551154905317d05353d55395605a1b81880152606490fd5b6040516323b872dd60e01b81523360048201523060248201526044810184905290602090829060649082908a905af1801561076157610732575b50610307565b6107539060203d60201161075a575b61074b8183612275565b8101906122d5565b508661072c565b503d610741565b6040513d88823e3d90fd5b61078e915060203d602011610794575b6107868183612275565b81019061275d565b896102d8565b503d61077c565b506020823d6020116107c7575b816107b560209383612275565b810103126104d15761029d9151610293565b3d91506107a8565b506020813d602011610802575b816107e960209383612275565b810103126104fd576107fd61028291612385565b61023d565b3d91506107dc565b60405162461bcd60e51b815260206004820152601760248201527f4552525f494e53554646494349454e545f414d4f554e5400000000000000000081870152606490fd5b60405162461bcd60e51b815260206004820152601c60248201527f4552525f434f4c4c41544552414c5f4e4f545f535550504f525445440000000081870152606490fd5b5050909192946101e9565b61016e9192506108be903d8088833e6108b68183612275565b8101906125fd565b9190610156565b82346100e95760603660031901126100e95760206100e16044356024356004356129c9565b82346100e95760206100e16108fe366122af565b906129f3565b82346100e957806003193601126100e9576020604051670de0b6b3a76400008152f35b8260c03660031901126100e9578061093d612224565b61094561223a565b6001600160a01b03908082169060443573eeeeeeeeeeeeeeeeeeeeeeeeeeeeeeeeeeeeeeee8303610ca9575034915b83600454169460405180966356512fcd60e11b82523360048301528160246020998a935afa908115610c9e578891610c65575b50600354604051631c07d98160e21b81526001600160a01b0386811660048301528416602482015260448101879052908890829060649082908d908c165af1908115610c09578991610c31575b50600491610a0191612a17565b878783541660405193848092636882509b60e11b82525afa918215610c0957610a359260ff918b91610c1457501690612776565b600554604051638340f54960e01b81523360048201526001600160a01b038616602482015260448101879052908890829060649082908d908c165af1928315610c0957898893610a918b96610104958491610bec575b506122ed565b8460075416906040519788968795637789f19f60e01b875216600486015260248501528960448501526064840152606435608484015260843560a484015260a43560c48401523360e48401525af1908115610761578691610bb7575b50918491610aff610b3a941515612339565b60035460405163912d228f60e01b81526001600160a01b03909216600483015260248201929092529283918516908290889082906044820190565b03925af19283156104f2578493610b84575b505060025416803b156104a05760405163094f618d60e11b815233600482015260248101929092528290829081838160448101610474565b819450809293503d8311610bb0575b610b9d8183612275565b810103126104d157829151908480610b4c565b503d610b93565b8092939650858092503d8311610be5575b610bd28183612275565b810103126104d157518594919084610aed565b503d610bc8565b610c039150883d8a1161075a5761074b8183612275565b8f610a8b565b6040513d8b823e3d90fd5b610c2b91508a3d8c11610794576107868183612275565b8c6102d8565b809950888092503d8311610c5e575b610c4a8183612275565b810103126104d157965188979060046109f4565b503d610c40565b90508681813d8311610c97575b610c7c8183612275565b81010312610c9357610c8d90612385565b896109a7565b8780fd5b503d610c72565b6040513d8a823e3d90fd5b6040516323b872dd60e01b8152336004820152306024820152604481018290529092906020816064818a865af18015610d0557610ce7575b50610974565b610cfe9060203d811161075a5761074b8183612275565b5087610ce1565b6040513d89823e3d90fd5b602083366003190182136100e957600654604051632820036560e11b8152600480359082018190526001600160a01b03928316946101e0939092602490858183818b5afa958615610d05578796610fc2575b5050816101a0860151163303610f8c57838501516003811015610f7957610f405781610140860151164203428111610f2d57869787969792610db1879360c08b0151906101208c0151916129c9565b9560405194859384926387d709b760e01b845260048401525af1801561053057610f10575b508060608601511691848473eeeeeeeeeeeeeeeeeeeeeeeeeeeeeeeeeeeeeeee94858114600014610eb6575050503410610eb2575b608085015116908103610e4b575050808061010081940151818115610e42575b3390f115610e365780f35b604051903d90823e3d90fd5b506108fc610e2b565b610100939093015160405163a9059cbb60e01b8152336004820152602481019190915290929091839183916044918391905af18015610ea757610e8d57505080f35b81610ea392903d1061075a5761074b8183612275565b5080f35b6040513d85823e3d90fd5b8380fd5b6040516323b872dd60e01b815233600482015230602482015260448101949094529091839160649183915af1801561053057610ef3575b50610e0b565b610f0990843d861161075a5761074b8183612275565b5086610eed565b610f2690843d861161075a5761074b8183612275565b5086610dd6565b50634e487b7160e01b8652601160045285fd5b8360136064926040519262461bcd60e51b84526004840152820152724552525f4c4f414e5f4e4f545f41435449564560681b6044820152fd5b50634e487b7160e01b8652602160045285fd5b8360106064926040519262461bcd60e51b845260048401528201526f22a9292fa727aa2fa127a92927aba2a960811b6044820152fd5b610fe2929650803d10610fea575b610fda8183612275565b81019061286a565b938780610d62565b503d610fd0565b82346100e95760203660031901126100e95761100b612224565b600154906001600160a01b03906110253383851614612963565b16906bffffffffffffffffffffffff60a01b161760015580f35b905060c03660031901126113265760043561105861223a565b916044359167ffffffffffffffff83116104fd57366023840112156104fd5782600401359061108682612297565b6110936040519182612275565b8281526020948582016024819560051b8301019136831161132257602401905b828210611303575050508051156112be576001600160a01b038681169290919073eeeeeeeeeeeeeeeeeeeeeeeeeeeeeeeeeeeeeeee84036112515750611138863480995b600554604051638340f54960e01b81523360048201526001600160a01b039092166024830152604482019290925292839186169082908d9082906064820190565b03925af18015610c095761115d918a91611234575b50938993918897999693956122ed565b816007541694604051998a9763dbaf4f7f60e01b895260e489019360048a015260248901526084356044890152606435606489015260a435608489015260a4880152518091526101048601929184905b8282106112135750505050908380923360c483015203925af1908115610ea75783916111e3575b836111e0831515612339565b80f35b905081813d831161120c575b6111f98183612275565b810103126104d1576111e09051386111d4565b503d6111ef565b83518116855289988b98508c965094850194909301926001909101906111ad565b61124b9150883d8a1161075a5761074b8183612275565b3861114d565b6040516323b872dd60e01b81523360048201523060248201526044810182905290979087816064818d895af180156112b3576111389289928b92611296575b506110f7565b6112ac90843d861161075a5761074b8183612275565b5038611290565b6040513d8c823e3d90fd5b60405162461bcd60e51b815260048101869052601760248201527f4552525f4e4f5f434f4c4c41544552414c5f54595045530000000000000000006044820152606490fd5b81356001600160a01b03811681036104d15781529087019087016110b3565b8980fd5b5080fd5b905060403660031901126113265760043590611344612250565b9060018060a01b038060075416604051809163bf1e609760e01b82528660048301528160246101809485935afa918215610d055787926117a1575b50506113938261012083015116421061245f565b610160810193828551163314611766576113c561ffff809216916113ba606484111561249f565b6019830616156124dd565b6113e16113d68260808501516129f3565b9160c08401516129f3565b91816060820151101580611758575b15611714578796602095868301928684511673eeeeeeeeeeeeeeeeeeeeeeeeeeeeeeeeeeeeeeee811460001461164157508534106113225789808080898b8e5116828215611638575bf115610c09578861014489925b8c8a600654168251928c8a5116958d610100816040850151169a84015193015191511691604051998a988997631c57bf7160e21b8952600489015260016024890152604488015260648701528d60848701528c60a487015260c486015260e4850152610104840152336101248401525af1908115610c09578991611604575b506114d190151561256f565b846007541692833b15611600576040516324b42bc160e01b815260048101929092526024820185905260448201529187908390606490829084905af18015610d0557859288916115e3575b5050600354905160405163912d228f60e01b81529085166001600160a01b031660048201526024810193909352829084168188816044810103925af19283156105305785936115b0575b5050806002541692511690823b156115ab576040516311eba9df60e21b81526001600160a01b0390921660048301526024820152908290829081838160448101610474565b505050fd5b819550809293503d83116115dc575b6115c98183612275565b810103126104d157839251903880611566565b503d6115bf565b6115ef91929350612261565b6115fc578390863861151c565b8580fd5b8880fd5b809950878092503d8311611631575b61161d8183612275565b810103126104d1576114d1899851906114c5565b503d611613565b506108fc611439565b6040516323b872dd60e01b815233600482015230602482015260448101889052908990829060649082908f905af180156116ec576116f7575b508351895160405163a9059cbb60e01b81529089166001600160a01b031660048201526024810188905290899082908a16818e816044810103925af180156116ec5789928b92610144926116cf575b50611446565b6116e590853d871161075a5761074b8183612275565b50386116c9565b6040513d8d823e3d90fd5b61170d90893d8b1161075a5761074b8183612275565b503861167a565b606460405162461bcd60e51b815260206004820152602060248201527f4552525f434f4c4c41544552414c5f5052494e434950414c5f42414c414e43456044820152fd5b508260a082015110156113f0565b60405162461bcd60e51b815260206004820152601360248201527222a9292fa1a0a72a2fa127a92927abafa7aba760691b6044820152606490fd5b6117c09250803d106117c7575b6117b88183612275565b810190612399565b388061137f565b503d6117ae565b82346100e95760203660031901126100e9576117e8612224565b6001546001600160a01b0391906118029083163314612963565b166bffffffffffffffffffffffff60a01b600354161760035580f35b8260203660031901126100e957600654604051632820036560e11b815260048035908201526101e0918290829060249082906001600160a01b03165afa908115610ea7576020928492611897575b505001516003811015611883576002036100e95780f35b634e487b7160e01b82526021600452602482fd5b6118ad9250803d10610fea57610fda8183612275565b838061186c565b82602080600319360112611326576007546040516314c7eb4960e01b815260048035908201526001600160a01b039182166101208083602481855afa928315610761578693611c62575b505061190f60a083015142106125bb565b6101008201805160405192839163bf1e609760e01b835260048301528160246101809586935afa928315610d05578793611c43575b505083610160830151163303611c0a5785966080830151906119836060860161197461ffff9485835116906129f3565b9360c0870151915116906129f3565b94826060860151101580611bfc575b61199b9061271f565b8785019389898987511673eeeeeeeeeeeeeeeeeeeeeeeeeeeeeeeeeeeeeeee8114600014611b9957505080888015611b8f575b8280929181923390f115610c0957878a87611a298c96898c975b8660408180600654169a5194511696015116968a82015193608083015192015116926040519b8c9a8b998a98631c57bf7160e21b8a52339660048b0161251a565b03925af1908115610d05578791611b5b575b50611a4790151561256f565b83600754169151823b15611b5757869260448492604051958693849263f094cb9560e01b845260048401528860248401525af180156107615785928791611b3e575b5050600354905160405163912d228f60e01b81529085166001600160a01b031660048201526024810193909352829084168187816044810103925af19283156104f2578493611b0b575b505060025416803b156104a0576040516311eba9df60e21b815233600482015260248101929092528290829081838160448101610474565b819450809293503d8311611b37575b611b248183612275565b810103126104d157829151908480611ad3565b503d611b1a565b611b4a91929350612261565b6104fd5783908588611a89565b8680fd5b809750868092503d8311611b88575b611b748183612275565b810103126104d157611a4787965190611a3b565b503d611b6a565b6108fc91506119ce565b60405163a9059cbb60e01b8152336004820152602481018b9052949592859160449183915af180156116ec5787611a298b93898f94988f99988e99611bdf575b506119e8565b611bf5908b3d8d1161075a5761074b8183612275565b5038611bd9565b5060a0850151861115611992565b60405162461bcd60e51b815260048101869052601160248201527022a9292fa7a7262cafa127a92927aba2a960791b6044820152606490fd5b611c5a929350803d106117c7576117b88183612275565b908780611944565b908092935081813d8311611d0a575b611c7b8183612275565b810103126115fc5760405191820182811067ffffffffffffffff8211176106935760405280518252848101518583015260408101516040830152606081015161ffff81168103611b575760608301526080810151608083015260a081015160a083015260c081015160c0830152611cf3878201612385565b8783015261010080910151908201529086806118fe565b503d611c71565b8260203660031901126100e957600754604051632a3884d760e21b815260048035908201526001600160a01b03918216939190610140908181602481895afa938415610530578594612128575b505050611d7060c083015142106125bb565b61012093838584015160246040518094819363ab64a18560e01b835260048301525afa9081156104f257849161210e575b5081858201511633036120d757604081015194611dc560608501968751111561271f565b848360208401511673eeeeeeeeeeeeeeeeeeeeeeeeeeeeeeeeeeeeeeee811460001461200957505085518034106115fc578580808093876101008a015116828215612000575bf1156104f2575b82600654166020828601519185828601511690868389015116898b5193611e6b60408c01519760808d01518d8d61010060a083015192015116916040519b8c9a8b998a98631c57bf7160e21b8a52339760048b0161251a565b03925af18015610761578690611fcc575b611e889150151561256f565b826007541690840151908651604086015192823b15610c93576040516324b42bc160e01b815260048101919091526024810191909152604481019290925285908290606490829084905af1801561053057611fb2575b50600354602091820151955160405163912d228f60e01b81529684166001600160a01b031660048801526024870152939485949092919083908316818781604481015b03925af19182156104f2578492611f7b575b5061010081600254169301511690823b156115ab576040516311eba9df60e21b81526001600160a01b0390921660048301526024820152908290829081838160448101610474565b935090506020833d602011611faa575b81611f9860209383612275565b810103126104d1578392519085611f33565b3d9150611f8b565b611f21929194611fc3602092612261565b94919250611ede565b506020813d602011611ff8575b81611fe660209383612275565b810103126115fc57611e889051611e7c565b3d9150611fd9565b506108fc611e0b565b87516040516323b872dd60e01b815233600482015230602482015260448101919091529160209183916064918391905af18015610761576120b8575b50602082810151610100860151885160405163a9059cbb60e01b81529187166001600160a01b0316600483015260248201529190829086168189816044810103925af1801561076157612099575b50611e12565b6120b19060203d60201161075a5761074b8183612275565b5086612093565b6120d09060203d60201161075a5761074b8183612275565b5086612045565b60405162461bcd60e51b815260206004820152600f60248201526e22a9292fa7a7262cafa622a72222a960891b6044820152606490fd5b61212291503d8086833e6108b68183612275565b85611da1565b90918093945082813d83116121ef575b6121428183612275565b810103126104fd5760405192830183811067ffffffffffffffff8211176121db576040528151835261217660208301612385565b602084015260408201516040840152606082015160608401526080820151608084015260a082015160a084015260c082015160c084015280820151908301526101006121c3818301612385565b90830152610120809101519082015290848080611d5e565b634e487b7160e01b86526041600452602486fd5b503d612138565b8390346113265781600319360112611326578073eeeeeeeeeeeeeeeeeeeeeeeeeeeeeeeeeeeeeeee60209252f35b600435906001600160a01b03821682036104d157565b602435906001600160a01b03821682036104d157565b6024359061ffff821682036104d157565b67ffffffffffffffff811161069357604052565b90601f8019910116810190811067ffffffffffffffff82111761069357604052565b67ffffffffffffffff81116106935760051b60200190565b60409060031901126104d157600435906024356001600160a01b03811681036104d15790565b908160209103126104d1575180151581036104d15790565b156122f457565b60405162461bcd60e51b815260206004820152601860248201527f4552525f504f4f4c5f4d414e414745525f4445504f53495400000000000000006044820152606490fd5b1561234057565b60405162461bcd60e51b815260206004820152601860248201527f4552525f4f464645525f4d414e414745525f43524541544500000000000000006044820152606490fd5b51906001600160a01b03821682036104d157565b809161018092839103126104d15760405191820182811067ffffffffffffffff82111761069357604052805182526123d360208201612385565b60208301526123e460408201612385565b6040830152606081015160608301526080810151608083015260a081015160a083015260c081015160c083015260e081015160e08301526101008082015190830152610120612434818301612385565b90830152610140612446818301612385565b90830152612458610160809201612385565b9082015290565b1561246657565b60405162461bcd60e51b815260206004820152601160248201527011549497d3d191915497d1561412549151607a1b6044820152606490fd5b156124a657565b60405162461bcd60e51b815260206004820152600f60248201526e4f5645525f50455243454e5441474560881b6044820152606490fd5b156124e457565b60405162461bcd60e51b815260206004820152600e60248201526d4552525f50455243454e5441474560901b6044820152606490fd5b979295909998946101209792946101408a019b8a52600060208b015260018060a01b0380988180981660408d01521660608b015260808a015260a089015260c088015260e08701521661010085015216910152565b1561257657565b60405162461bcd60e51b815260206004820152601760248201527f4552525f4c4f414e5f4d414e414745525f4352454154450000000000000000006044820152606490fd5b156125c257565b60405162461bcd60e51b815260206004820152601360248201527211549497d49154555154d517d1561412549151606a1b6044820152606490fd5b9060209081838203126104d157825167ffffffffffffffff938482116104d15701916101409384848403126104d15760405194850185811082821117610693576040528351855261264f828501612385565b8286015260408401516040860152606084015160608601526080840151608086015260a084015160a086015260c08401519081116104d15783019180601f840112156104d15782516126a081612297565b936126ae6040519586612275565b818552838086019260051b8201019283116104d1578301905b828210612708575050505060c08301526126e360e08201612385565b60e08301526101006126f6818301612385565b90830152612458610120809201612385565b83809161271484612385565b8152019101906126c7565b1561272657565b60405162461bcd60e51b815260206004820152600f60248201526e11549497d25394d5519250d2515395608a1b6044820152606490fd5b908160209103126104d1575160ff811681036104d15790565b8115612780570490565b634e487b7160e01b600052601260045260246000fd5b919290156127f857508151156127aa575090565b3b156127b35790565b60405162461bcd60e51b815260206004820152601d60248201527f416464726573733a2063616c6c20746f206e6f6e2d636f6e74726163740000006044820152606490fd5b82519091501561280b5750805190602001fd5b6040519062461bcd60e51b82528160208060048301528251908160248401526000935b828510612851575050604492506000838284010152601f80199101168101030190fd5b848101820151868601604401529381019385935061282e565b80916101e092839103126104d15760405191820182811067ffffffffffffffff8211176106935760405280518252602081015160038110156104d1576020830152604081015160028110156104d15760408301526128ca60608201612385565b60608301526128db60808201612385565b608083015260a081015160a083015260c081015160c083015260e081015160e083015261010080820151908301526101208082015190830152610140612922818301612385565b90830152610160612934818301612385565b9083015261018080820151908301526101a0612951818301612385565b908301526124586101c0809201612385565b1561296a57565b60405162461bcd60e51b815260206004820152600e60248201526d22a9292fa7a7262cafa7aba722a960911b6044820152606490fd5b818102929181159184041417156129b357565b634e487b7160e01b600052601160045260246000fd5b91670de0b6b3a7640000916129e16129e692856129a0565b6129a0565b0481018091116129b35790565b906001600160a01b03168015612a1357612a0f906064926129a0565b0490565b5090565b906001600160a01b03908116606481106104d157606319018181116129b35781166064039081116129b357612a4b916129f3565b9056fea264697066735822122034a0ab3cdd171a2f14a8d7bd887bc263c414d9addb3e20a50b6fd24b7955cbd464736f6c63430008110033",
  "immutableReferences": {},
  "source": "// SPDX-License-Identifier: GPL-3.0\r\npragma solidity >=0.7.0 <0.9.0;\r\n\r\nimport \"./Activity.sol\";\r\n\r\nimport \"./libraries/Errors.sol\";\r\nimport \"./libraries/AssetLibrary.sol\";\r\n\r\nimport \"./math/SimpleInterest.sol\";\r\n\r\nimport \"./interfaces/IPriceFeed.sol\";\r\nimport \"./interfaces/ILoanToValueRatio.sol\";\r\n\r\nimport \"./managers/LoanManager.sol\";\r\nimport \"./managers/OfferManager.sol\";\r\nimport \"./managers/PoolManager.sol\";\r\n\r\nimport \"@openzeppelin/contracts/utils/Context.sol\";\r\nimport \"@openzeppelin/contracts/utils/math/SafeMath.sol\";\r\nimport \"@openzeppelin/contracts/token/ERC20/utils/SafeERC20.sol\";\r\nimport \"@openzeppelin/contracts/token/ERC20/ERC20.sol\";\r\nimport \"@openzeppelin/contracts/security/ReentrancyGuard.sol\";\r\n\r\ncontract LendingPool is Context, ReentrancyGuard, SimpleInterest {\r\n    using SafeMath for uint256;\r\n    using SafeERC20 for ERC20;\r\n\r\n    address deployer;\r\n\r\n    Activity private _activity;\r\n    IPriceFeed private _priceFeed;\r\n    ILoanToValueRatio private _ltv;\r\n\r\n    // managers\r\n    PoolManager private _poolManager;\r\n    LoanManager private _loanManager;\r\n    OfferManager private _offerManager;\r\n\r\n    address public constant nativeAddress =\r\n        0xEeeeeEeeeEeEeeEeEeEeeEEEeeeeEeeeeeeeEEeE;\r\n\r\n    constructor(\r\n        address ltv_,\r\n        address activity_,\r\n        address poolManager_,\r\n        address loanManager_,\r\n        address offerManager_\r\n    ) ReentrancyGuard() {\r\n        _ltv = ILoanToValueRatio(ltv_);\r\n        _activity = Activity(activity_);\r\n        _poolManager = PoolManager(poolManager_);\r\n        _loanManager = LoanManager(loanManager_);\r\n        _offerManager = OfferManager(offerManager_);\r\n\r\n        deployer = _msgSender();\r\n    }\r\n\r\n    // @lenders\r\n    function createLendingOffer(\r\n        uint256 principalAmount_, // only for ERC20 assets\r\n        address principalToken,\r\n        address[] memory collateralTypes,\r\n        uint256 daysToMaturity,\r\n        uint256 interest,\r\n        uint256 daysToExpire\r\n    ) public payable {\r\n        uint256 principalAmount;\r\n\r\n        require(collateralTypes.length > 0, \"ERR_NO_COLLATERAL_TYPES\");\r\n\r\n        /* extract tokens from lender */\r\n        if (principalToken == nativeAddress) {\r\n            principalAmount = msg.value;\r\n        } else {\r\n            principalAmount = principalAmount_;\r\n            ERC20(principalToken).transferFrom(\r\n                _msgSender(),\r\n                address(this),\r\n                principalAmount\r\n            );\r\n        }\r\n\r\n        /* record principal to pool manager */\r\n        require(\r\n            _poolManager.deposit(_msgSender(), principalToken, principalAmount),\r\n            \"ERR_POOL_MANAGER_DEPOSIT\"\r\n        );\r\n\r\n        /* create the lending offer */\r\n        require(\r\n            _offerManager.createLendingOffer(\r\n                principalToken,\r\n                principalAmount,\r\n                interest,\r\n                daysToMaturity,\r\n                daysToExpire,\r\n                collateralTypes,\r\n                _msgSender()\r\n            ) > 0,\r\n            \"ERR_OFFER_MANAGER_CREATE\"\r\n        );\r\n    }\r\n\r\n    // @lenders\r\n    function acceptBorrowingOffer(uint256 offerId, uint16 desiredPercentage)\r\n        public\r\n        payable\r\n    {\r\n        OfferLibrary.BorrowingOffer memory offer = _offerManager\r\n            .getBorrowingOffer(offerId);\r\n\r\n        // platform safety\r\n        require(offer.expiresAt > block.timestamp, \"ERR_OFFER_EXPIRED\");\r\n        require(_msgSender() != offer.borrower, \"ERR_CANT_BORROW_OWN\");\r\n\r\n        // percentage must be 25, 50, 75 or 100\r\n        require(desiredPercentage <= 100, \"OVER_PERCENTAGE\");\r\n        require(desiredPercentage % 25 == 0, \"ERR_PERCENTAGE\");\r\n\r\n        uint256 collateralAmount = percentageOf(\r\n            offer.initialCollateral,\r\n            desiredPercentage\r\n        );\r\n\r\n        uint256 principalAmount = percentageOf(\r\n            offer.initialPrincipal,\r\n            desiredPercentage\r\n        );\r\n\r\n        // verify if the remain offer amounts are enough\r\n        require(\r\n            offer.currentCollateral >= collateralAmount &&\r\n                offer.currentPrincipal >= principalAmount,\r\n            \"ERR_COLLATERAL_PRINCIPAL_BALANCE\"\r\n        );\r\n\r\n        /* extract principal from lender/caller and transfer to borrower */\r\n        if (offer.principalToken == nativeAddress) {\r\n            require(msg.value >= principalAmount);\r\n            payable(offer.borrower).transfer(principalAmount);\r\n        } else {\r\n            ERC20(offer.principalToken).transferFrom(\r\n                _msgSender(),\r\n                address(this),\r\n                principalAmount\r\n            );\r\n            ERC20(offer.principalToken).transfer(\r\n                offer.borrower,\r\n                principalAmount\r\n            );\r\n        }\r\n\r\n        /* register the loan from the loan manager */\r\n        require(\r\n            _loanManager.createLoan(\r\n                offer.offerId,\r\n                OfferLibrary.Type.BORROWING_OFFER,\r\n                offer.principalToken,\r\n                offer.collateralToken,\r\n                principalAmount,\r\n                collateralAmount,\r\n                offer.interest,\r\n                offer.daysToMaturity,\r\n                offer.borrower,\r\n                _msgSender()\r\n            ) > 0,\r\n            \"ERR_LOAN_MANAGER_CREATE\"\r\n        );\r\n\r\n        _offerManager._afterOfferBorrowingLoan(\r\n            offerId,\r\n            principalAmount,\r\n            collateralAmount\r\n        );\r\n        uint256 borrowedAmountInUSD = _priceFeed.amountInUSD(\r\n            offer.principalToken,\r\n            principalAmount\r\n        );\r\n        _activity._borrowLoan(offer.borrower, borrowedAmountInUSD);\r\n    }\r\n\r\n    // @lenders\r\n    function acceptBorrowingRequest(uint256 requestId) public payable {\r\n        RequestLibrary.BorrowingRequest memory request = _offerManager\r\n            .getBorrowingRequest(requestId);\r\n\r\n        require(request.expiresAt > block.timestamp, \"ERR_REQUEST_EXPIRED\");\r\n\r\n        OfferLibrary.LendingOffer memory offer = _offerManager.getLendingOffer(\r\n            request.offerId\r\n        );\r\n        require(offer.lender == _msgSender(), \"ERR_ONLY_LENDER\");\r\n\r\n        // verify if the remain offer is enough\r\n        require(\r\n            offer.currentPrincipal >= request.principalAmount,\r\n            \"ERR_INSUFICIENT\"\r\n        );\r\n\r\n        /* extract principal from lender */\r\n        /* transfer principal to borrower */\r\n        if (offer.principalToken == nativeAddress) {\r\n            // if principal is native coin\r\n            require(msg.value >= request.principalAmount);\r\n            payable(request.borrower).transfer(request.principalAmount);\r\n        } else {\r\n            // if principal is ERC20\r\n            ERC20(offer.principalToken).transferFrom(\r\n                _msgSender(),\r\n                address(this),\r\n                request.principalAmount\r\n            );\r\n            ERC20(offer.principalToken).transfer(\r\n                request.borrower,\r\n                request.principalAmount\r\n            );\r\n        }\r\n\r\n        /* register the loan from the loan manager */\r\n        require(\r\n            _loanManager.createLoan(\r\n                request.offerId,\r\n                OfferLibrary.Type.LENDING_OFFER,\r\n                offer.principalToken,\r\n                request.collateralToken,\r\n                request.principalAmount,\r\n                request.collateralAmount,\r\n                request.interest,\r\n                request.daysToMaturity,\r\n                request.borrower,\r\n                _msgSender()\r\n            ) > 0,\r\n            \"ERR_LOAN_MANAGER_CREATE\"\r\n        );\r\n\r\n        _offerManager._afterOfferBorrowingLoan(\r\n            request.offerId,\r\n            request.principalAmount,\r\n            request.collateralAmount\r\n        );\r\n        uint256 amountBorrowedInUSD = _priceFeed.amountInUSD(\r\n            offer.principalToken,\r\n            request.principalAmount\r\n        );\r\n        _activity._borrowLoan(request.borrower, amountBorrowedInUSD);\r\n    }\r\n\r\n    // @borrower\r\n    function createBorrowingOffer(\r\n        address principalToken,\r\n        address collateralToken,\r\n        uint256 collateralAmount_, // for ERC20 assets\r\n        uint256 interest,\r\n        uint256 daysToMaturity,\r\n        uint256 daysToExpire\r\n    ) public payable {\r\n        uint256 collateralAmount;\r\n\r\n        /* extract collateral from borrower */\r\n        if (collateralToken == nativeAddress) {\r\n            collateralAmount = msg.value;\r\n        } else {\r\n            collateralAmount = collateralAmount_;\r\n            ERC20(collateralToken).transferFrom(\r\n                _msgSender(),\r\n                address(this),\r\n                collateralAmount\r\n            );\r\n        }\r\n\r\n        uint160 ltv = _ltv.getLTV(_msgSender());\r\n\r\n        uint256 principalPrice = _priceFeed.exchangeRate(\r\n            collateralToken,\r\n            principalToken,\r\n            collateralAmount\r\n        );\r\n\r\n        uint256 principalAmount = percentageInverseOf(principalPrice, ltv) /\r\n            _ltv.getBase();\r\n\r\n        /* deposit tokens to vault */\r\n        require(\r\n            _poolManager.deposit(\r\n                _msgSender(),\r\n                collateralToken,\r\n                collateralAmount\r\n            ),\r\n            \"ERR_POOL_MANAGER_DEPOSIT\"\r\n        );\r\n\r\n        /* create the offer */\r\n        require(\r\n            _offerManager.createBorrowingOffer(\r\n                principalToken,\r\n                collateralToken,\r\n                collateralAmount,\r\n                principalAmount,\r\n                interest,\r\n                daysToMaturity,\r\n                daysToExpire,\r\n                _msgSender()\r\n            ) > 0,\r\n            \"ERR_OFFER_MANAGER_CREATE\"\r\n        );\r\n\r\n        uint256 amountInUSD = _priceFeed.amountInUSD(\r\n            collateralToken,\r\n            collateralAmount\r\n        );\r\n        _activity._dropCollateral(_msgSender(), amountInUSD);\r\n    }\r\n\r\n    // @borrower\r\n    function acceptLendingOffer(\r\n        uint256 offerId,\r\n        uint16 desiredPercentage,\r\n        address collateralToken\r\n    ) public payable {\r\n        OfferLibrary.LendingOffer memory offer = _offerManager.getLendingOffer(\r\n            offerId\r\n        );\r\n\r\n        require(offer.expiresAt > block.timestamp, \"ERR_OFFER_EXPIRED\");\r\n        // percentage must be 25, 50, 75 or 100\r\n        require(desiredPercentage <= 100, \"OVER_PERCENTAGE\");\r\n        require(desiredPercentage % 25 == 0, \"ERR_PERCENTAGE\");\r\n\r\n        bool supported = false;\r\n        for (uint256 index = 0; index < offer.collateralTypes.length; index++) {\r\n            if (offer.collateralTypes[index] == collateralToken) {\r\n                supported = true;\r\n                break;\r\n            }\r\n        }\r\n        require(supported, \"ERR_COLLATERAL_NOT_SUPPORTED\");\r\n\r\n        uint256 principalAmount = percentageOf(\r\n            offer.initialPrincipal,\r\n            desiredPercentage\r\n        );\r\n\r\n        require(\r\n            offer.currentPrincipal >= principalAmount,\r\n            \"ERR_INSUFFICIENT_AMOUNT\"\r\n        );\r\n\r\n        /* get the trust factor of the borrower */\r\n        uint160 ltv = _ltv.getLTV(_msgSender());\r\n\r\n        /* calculate the collateral amount */\r\n        uint256 collateralNormalAmount = _priceFeed.exchangeRate(\r\n            offer.principalToken,\r\n            collateralToken,\r\n            principalAmount\r\n        );\r\n\r\n        uint256 collateralAmount = percentageOf(collateralNormalAmount, ltv) /\r\n            _ltv.getBase();\r\n\r\n        /* extract collateral tokens from borrower */\r\n        if (collateralToken == nativeAddress) {\r\n            require(collateralAmount >= msg.value, \"ERR_COLLATERAL_AMOUNT\");\r\n        } else {\r\n            ERC20(collateralToken).transferFrom(\r\n                _msgSender(),\r\n                address(this),\r\n                collateralAmount\r\n            );\r\n        }\r\n\r\n        /* transfer the asset to borrower */\r\n        if (offer.principalToken == nativeAddress) {\r\n            payable(_msgSender()).transfer(principalAmount);\r\n        } else {\r\n            ERC20(offer.principalToken).safeTransfer(\r\n                _msgSender(),\r\n                principalAmount\r\n            );\r\n        }\r\n\r\n        /* register the loan */\r\n        _loanManager.createLoan(\r\n            offerId,\r\n            OfferLibrary.Type.LENDING_OFFER,\r\n            offer.principalToken,\r\n            collateralToken,\r\n            principalAmount,\r\n            collateralAmount,\r\n            offer.interest,\r\n            offer.daysToMaturity,\r\n            _msgSender(),\r\n            offer.lender\r\n        );\r\n\r\n        _offerManager._afterOfferLendingLoan(offerId, principalAmount);\r\n        uint256 amountBorrowedInUSD = _priceFeed.amountInUSD(\r\n            offer.principalToken,\r\n            principalAmount\r\n        );\r\n        _activity._borrowLoan(_msgSender(), amountBorrowedInUSD);\r\n    }\r\n\r\n    // @borrower\r\n    function acceptLendingRequest(uint256 requestId) public payable {\r\n        RequestLibrary.LendingRequest memory request = _offerManager\r\n            .getLendingRequest(requestId);\r\n\r\n        require(request.expiresAt > block.timestamp, \"ERR_REQUEST_EXPIRED\");\r\n\r\n        OfferLibrary.BorrowingOffer memory offer = _offerManager\r\n            .getBorrowingOffer(request.offerId);\r\n\r\n        require(offer.borrower == _msgSender(), \"ERR_ONLY_BORROWER\");\r\n\r\n        uint256 collateralAmount = percentageOf(\r\n            offer.initialCollateral,\r\n            request.desiredPercentage\r\n        );\r\n\r\n        uint256 principalAmount = percentageOf(\r\n            offer.initialPrincipal,\r\n            request.desiredPercentage\r\n        );\r\n\r\n        // verify if the remain offer amounts is enough\r\n        require(\r\n            offer.currentCollateral >= collateralAmount &&\r\n                offer.currentPrincipal >= principalAmount,\r\n            \"ERR_INSUFICIENT\"\r\n        );\r\n\r\n        /* extract principal from lender */\r\n        /* transfer principal to borrower */\r\n        if (offer.principalToken == nativeAddress) {\r\n            // if principal is native coin\r\n            payable(_msgSender()).transfer(principalAmount);\r\n        } else {\r\n            // if principal is ERC20\r\n            ERC20(offer.principalToken).transfer(_msgSender(), principalAmount);\r\n        }\r\n\r\n        /* register the loan from the loan manager */\r\n        require(\r\n            _loanManager.createLoan(\r\n                request.offerId,\r\n                OfferLibrary.Type.LENDING_OFFER,\r\n                offer.principalToken,\r\n                offer.collateralToken,\r\n                principalAmount,\r\n                collateralAmount,\r\n                request.interest,\r\n                request.daysToMaturity,\r\n                _msgSender(),\r\n                request.lender\r\n            ) > 0,\r\n            \"ERR_LOAN_MANAGER_CREATE\"\r\n        );\r\n\r\n        _offerManager._afterOfferLendingLoan(offer.offerId, principalAmount);\r\n        uint256 amountBorrowedInUSD = _priceFeed.amountInUSD(\r\n            offer.principalToken,\r\n            principalAmount\r\n        );\r\n        _activity._borrowLoan(_msgSender(), amountBorrowedInUSD);\r\n    }\r\n\r\n    function repayLoan(uint256 loanId) public payable {\r\n        LoanLibrary.Loan memory loan = _loanManager.getLoan(loanId);\r\n\r\n        // verify the borrower is the repayer\r\n        require(loan.borrower == _msgSender(), \"ERR_NOT_BORROWER\");\r\n\r\n        // ensure valid initial loan state when starting loan\r\n        require(loan.state == LoanLibrary.State.ACTIVE, \"ERR_LOAN_NOT_ACTIVE\");\r\n\r\n        // calculate the duration of the loan\r\n        uint256 time = block.timestamp;\r\n        uint256 ellapsedSecs = (time - loan.startDate);\r\n\r\n        // calculate the pay back amount\r\n        uint256 repayAmount = getFullInterestAmount(\r\n            loan.currentPrincipal,\r\n            ellapsedSecs,\r\n            loan.interest\r\n        );\r\n\r\n        // update ledger book\r\n        _loanManager.repayLoanAll(loanId);\r\n\r\n        /* extract pay back amount */\r\n        if (loan.principalToken == nativeAddress) {\r\n            // if principal is native coin\r\n            require(msg.value >= repayAmount);\r\n        } else {\r\n            // if principal is ERC20 token\r\n            ERC20(loan.principalToken).transferFrom(\r\n                _msgSender(),\r\n                address(this),\r\n                repayAmount\r\n            );\r\n        }\r\n\r\n        /* transfer collateral */\r\n        if (loan.collateralToken == nativeAddress) {\r\n            // if collateral is native coin\r\n            payable(_msgSender()).transfer(loan.currentCollateral);\r\n        } else {\r\n            // if collateral is ERC20 token\r\n            ERC20(loan.collateralToken).transfer(\r\n                _msgSender(),\r\n                loan.currentCollateral\r\n            );\r\n        }\r\n    }\r\n\r\n    function repayLiquidatedLoan(uint256 loanId) public payable {\r\n        LoanLibrary.Loan memory loan = _loanManager.getLoan(loanId);\r\n\r\n        bool liquidated = loan.state == LoanLibrary.State.LIQUIDATED;\r\n        require(liquidated);\r\n    }\r\n\r\n    function setPriceFeed(address priceFeed_) public onlyOwner {\r\n        _priceFeed = IPriceFeed(priceFeed_);\r\n    }\r\n\r\n    function changeOwner(address newOwner) public onlyOwner {\r\n        deployer = newOwner;\r\n    }\r\n\r\n    modifier onlyOwner() {\r\n        require(_msgSender() == deployer, \"ERR_ONLY_OWNER\");\r\n        _;\r\n    }\r\n}\r\n",
  "sourcePath": "C:\\Users\\DELL\\Documents\\darsh\\smart-contracts\\contracts\\LendingPool.sol",
  "compiler": {
    "name": "solc",
    "version": "0.8.17+commit.8df45f5f.Emscripten.clang"
  },
  "schemaVersion": "3.4.11",
  "updatedAt": "2023-02-12T05:39:44.085Z",
  "devdoc": {
    "kind": "dev",
    "methods": {},
    "version": 1
  },
  "userdoc": {
    "kind": "user",
    "methods": {},
    "version": 1
  }
}