{
  "contractName": "LendingPool",
  "abi": [
    {
      "inputs": [],
      "stateMutability": "nonpayable",
      "type": "constructor"
    },
    {
      "anonymous": false,
      "inputs": [
        {
          "indexed": true,
          "internalType": "address",
          "name": "previousOwner",
          "type": "address"
        },
        {
          "indexed": true,
          "internalType": "address",
          "name": "newOwner",
          "type": "address"
        }
      ],
      "name": "OwnershipTransferStarted",
      "type": "event"
    },
    {
      "anonymous": false,
      "inputs": [
        {
          "indexed": true,
          "internalType": "address",
          "name": "previousOwner",
          "type": "address"
        },
        {
          "indexed": true,
          "internalType": "address",
          "name": "newOwner",
          "type": "address"
        }
      ],
      "name": "OwnershipTransferred",
      "type": "event"
    },
    {
      "anonymous": false,
      "inputs": [
        {
          "indexed": false,
          "internalType": "address",
          "name": "account",
          "type": "address"
        }
      ],
      "name": "Paused",
      "type": "event"
    },
    {
      "anonymous": false,
      "inputs": [
        {
          "indexed": false,
          "internalType": "address",
          "name": "account",
          "type": "address"
        }
      ],
      "name": "Unpaused",
      "type": "event"
    },
    {
      "inputs": [],
      "name": "INTEREST_RATE_DENOMINATOR",
      "outputs": [
        {
          "internalType": "uint256",
          "name": "",
          "type": "uint256"
        }
      ],
      "stateMutability": "view",
      "type": "function"
    },
    {
      "inputs": [],
      "name": "LENDINGPOOL_VERSION",
      "outputs": [
        {
          "internalType": "uint256",
          "name": "",
          "type": "uint256"
        }
      ],
      "stateMutability": "view",
      "type": "function"
    },
    {
      "inputs": [],
      "name": "PERCENT",
      "outputs": [
        {
          "internalType": "uint16",
          "name": "",
          "type": "uint16"
        }
      ],
      "stateMutability": "view",
      "type": "function"
    },
    {
      "inputs": [],
      "name": "acceptOwnership",
      "outputs": [],
      "stateMutability": "nonpayable",
      "type": "function"
    },
    {
      "inputs": [
        {
          "internalType": "uint16",
          "name": "percentage",
          "type": "uint16"
        }
      ],
      "name": "checkPercentage",
      "outputs": [],
      "stateMutability": "pure",
      "type": "function"
    },
    {
      "inputs": [
        {
          "internalType": "uint256",
          "name": "principal",
          "type": "uint256"
        },
        {
          "internalType": "uint256",
          "name": "durationSecs",
          "type": "uint256"
        },
        {
          "internalType": "uint256",
          "name": "interest",
          "type": "uint256"
        }
      ],
      "name": "getFullInterestAmount",
      "outputs": [
        {
          "internalType": "uint256",
          "name": "",
          "type": "uint256"
        }
      ],
      "stateMutability": "pure",
      "type": "function"
    },
    {
      "inputs": [],
      "name": "nativeAddress",
      "outputs": [
        {
          "internalType": "address",
          "name": "",
          "type": "address"
        }
      ],
      "stateMutability": "view",
      "type": "function"
    },
    {
      "inputs": [],
      "name": "owner",
      "outputs": [
        {
          "internalType": "address",
          "name": "",
          "type": "address"
        }
      ],
      "stateMutability": "view",
      "type": "function"
    },
    {
      "inputs": [],
      "name": "paused",
      "outputs": [
        {
          "internalType": "bool",
          "name": "",
          "type": "bool"
        }
      ],
      "stateMutability": "view",
      "type": "function"
    },
    {
      "inputs": [],
      "name": "pendingOwner",
      "outputs": [
        {
          "internalType": "address",
          "name": "",
          "type": "address"
        }
      ],
      "stateMutability": "view",
      "type": "function"
    },
    {
      "inputs": [
        {
          "internalType": "uint256",
          "name": "total",
          "type": "uint256"
        },
        {
          "internalType": "uint160",
          "name": "percent",
          "type": "uint160"
        }
      ],
      "name": "percentageOf",
      "outputs": [
        {
          "internalType": "uint256",
          "name": "",
          "type": "uint256"
        }
      ],
      "stateMutability": "pure",
      "type": "function"
    },
    {
      "inputs": [],
      "name": "renounceOwnership",
      "outputs": [],
      "stateMutability": "nonpayable",
      "type": "function"
    },
    {
      "inputs": [
        {
          "internalType": "address",
          "name": "newOwner",
          "type": "address"
        }
      ],
      "name": "transferOwnership",
      "outputs": [],
      "stateMutability": "nonpayable",
      "type": "function"
    },
    {
      "inputs": [
        {
          "internalType": "uint256",
          "name": "principalAmount_",
          "type": "uint256"
        },
        {
          "internalType": "address",
          "name": "principalToken",
          "type": "address"
        },
        {
          "internalType": "address[]",
          "name": "collateralTokens",
          "type": "address[]"
        },
        {
          "internalType": "uint16",
          "name": "daysToMaturity",
          "type": "uint16"
        },
        {
          "internalType": "uint256",
          "name": "interest",
          "type": "uint256"
        },
        {
          "internalType": "uint16",
          "name": "daysToExpire",
          "type": "uint16"
        }
      ],
      "name": "createLendingOffer",
      "outputs": [],
      "stateMutability": "payable",
      "type": "function"
    },
    {
      "inputs": [
        {
          "internalType": "uint256",
          "name": "offerId",
          "type": "uint256"
        },
        {
          "internalType": "uint16",
          "name": "percentage",
          "type": "uint16"
        },
        {
          "internalType": "uint16",
          "name": "daysToMaturity",
          "type": "uint16"
        },
        {
          "internalType": "uint256",
          "name": "interest",
          "type": "uint256"
        },
        {
          "internalType": "uint16",
          "name": "hoursToExpire",
          "type": "uint16"
        }
      ],
      "name": "createLendingRequest",
      "outputs": [],
      "stateMutability": "payable",
      "type": "function"
    },
    {
      "inputs": [
        {
          "internalType": "uint256",
          "name": "offerId",
          "type": "uint256"
        },
        {
          "internalType": "uint16",
          "name": "percentage",
          "type": "uint16"
        }
      ],
      "name": "acceptBorrowingOffer",
      "outputs": [],
      "stateMutability": "payable",
      "type": "function"
    },
    {
      "inputs": [
        {
          "internalType": "uint256",
          "name": "requestId",
          "type": "uint256"
        }
      ],
      "name": "acceptBorrowingRequest",
      "outputs": [],
      "stateMutability": "nonpayable",
      "type": "function"
    },
    {
      "inputs": [
        {
          "internalType": "address",
          "name": "principalToken",
          "type": "address"
        },
        {
          "internalType": "uint256",
          "name": "principalAmount",
          "type": "uint256"
        },
        {
          "internalType": "address",
          "name": "collateralToken",
          "type": "address"
        },
        {
          "internalType": "uint256",
          "name": "interest",
          "type": "uint256"
        },
        {
          "internalType": "uint16",
          "name": "daysToMaturity",
          "type": "uint16"
        },
        {
          "internalType": "uint16",
          "name": "hoursToExpire",
          "type": "uint16"
        }
      ],
      "name": "createBorrowingOffer",
      "outputs": [],
      "stateMutability": "payable",
      "type": "function"
    },
    {
      "inputs": [
        {
          "internalType": "uint256",
          "name": "offerId",
          "type": "uint256"
        },
        {
          "internalType": "uint16",
          "name": "percentage",
          "type": "uint16"
        },
        {
          "internalType": "address",
          "name": "collateralToken",
          "type": "address"
        },
        {
          "internalType": "uint256",
          "name": "interest",
          "type": "uint256"
        },
        {
          "internalType": "uint16",
          "name": "daysToMaturity",
          "type": "uint16"
        },
        {
          "internalType": "uint16",
          "name": "hoursToExpire",
          "type": "uint16"
        }
      ],
      "name": "createBorrowingRequest",
      "outputs": [],
      "stateMutability": "payable",
      "type": "function"
    },
    {
      "inputs": [
        {
          "internalType": "uint256",
          "name": "offerId",
          "type": "uint256"
        },
        {
          "internalType": "uint16",
          "name": "percentage",
          "type": "uint16"
        },
        {
          "internalType": "address",
          "name": "collateralToken",
          "type": "address"
        }
      ],
      "name": "acceptLendingOffer",
      "outputs": [],
      "stateMutability": "payable",
      "type": "function"
    },
    {
      "inputs": [
        {
          "internalType": "uint256",
          "name": "requestId",
          "type": "uint256"
        }
      ],
      "name": "acceptLendingRequest",
      "outputs": [],
      "stateMutability": "payable",
      "type": "function"
    },
    {
      "inputs": [
        {
          "internalType": "uint256",
          "name": "offerId",
          "type": "uint256"
        },
        {
          "internalType": "uint16",
          "name": "toExpire",
          "type": "uint16"
        }
      ],
      "name": "reActivateOffer",
      "outputs": [],
      "stateMutability": "nonpayable",
      "type": "function"
    },
    {
      "inputs": [
        {
          "internalType": "uint256",
          "name": "loanId",
          "type": "uint256"
        },
        {
          "internalType": "uint16",
          "name": "percentage",
          "type": "uint16"
        }
      ],
      "name": "repayLoan",
      "outputs": [],
      "stateMutability": "payable",
      "type": "function"
    },
    {
      "inputs": [
        {
          "internalType": "uint256",
          "name": "requestId",
          "type": "uint256"
        }
      ],
      "name": "rejectRequest",
      "outputs": [],
      "stateMutability": "nonpayable",
      "type": "function"
    },
    {
      "inputs": [
        {
          "internalType": "uint256",
          "name": "requestId",
          "type": "uint256"
        }
      ],
      "name": "cancelLendRequest",
      "outputs": [],
      "stateMutability": "nonpayable",
      "type": "function"
    },
    {
      "inputs": [
        {
          "internalType": "uint256",
          "name": "requestId",
          "type": "uint256"
        }
      ],
      "name": "cancelBorrowRequest",
      "outputs": [],
      "stateMutability": "nonpayable",
      "type": "function"
    },
    {
      "inputs": [
        {
          "internalType": "uint256",
          "name": "loanId",
          "type": "uint256"
        }
      ],
      "name": "claimCollateral",
      "outputs": [],
      "stateMutability": "nonpayable",
      "type": "function"
    },
    {
      "inputs": [
        {
          "internalType": "uint256",
          "name": "loanId",
          "type": "uint256"
        }
      ],
      "name": "claimLoanPrincipal",
      "outputs": [],
      "stateMutability": "nonpayable",
      "type": "function"
    },
    {
      "inputs": [
        {
          "internalType": "uint256",
          "name": "loanId",
          "type": "uint256"
        }
      ],
      "name": "claimPrincipal",
      "outputs": [],
      "stateMutability": "nonpayable",
      "type": "function"
    },
    {
      "inputs": [
        {
          "internalType": "uint256",
          "name": "loanId",
          "type": "uint256"
        }
      ],
      "name": "claimDefaultCollateral",
      "outputs": [],
      "stateMutability": "nonpayable",
      "type": "function"
    },
    {
      "inputs": [
        {
          "internalType": "uint256",
          "name": "loanId",
          "type": "uint256"
        }
      ],
      "name": "repayLiquidatedLoan",
      "outputs": [],
      "stateMutability": "payable",
      "type": "function"
    },
    {
      "inputs": [],
      "name": "getVersion",
      "outputs": [
        {
          "internalType": "uint256",
          "name": "",
          "type": "uint256"
        }
      ],
      "stateMutability": "pure",
      "type": "function"
    },
    {
      "inputs": [
        {
          "internalType": "uint256",
          "name": "loanId",
          "type": "uint256"
        }
      ],
      "name": "liquidateLoan",
      "outputs": [],
      "stateMutability": "nonpayable",
      "type": "function"
    },
    {
      "inputs": [
        {
          "internalType": "address",
          "name": "ltv_",
          "type": "address"
        },
        {
          "internalType": "address",
          "name": "activity_",
          "type": "address"
        },
        {
          "internalType": "address",
          "name": "priceFeed_",
          "type": "address"
        }
      ],
      "name": "setFeeds",
      "outputs": [],
      "stateMutability": "nonpayable",
      "type": "function"
    },
    {
      "inputs": [
        {
          "internalType": "address",
          "name": "vaultManager_",
          "type": "address"
        },
        {
          "internalType": "address",
          "name": "loanManager_",
          "type": "address"
        },
        {
          "internalType": "address",
          "name": "offerManager_",
          "type": "address"
        },
        {
          "internalType": "address",
          "name": "feeManager_",
          "type": "address"
        }
      ],
      "name": "setManagers",
      "outputs": [],
      "stateMutability": "nonpayable",
      "type": "function"
    },
    {
      "inputs": [
        {
          "internalType": "address",
          "name": "token",
          "type": "address"
        },
        {
          "internalType": "address payable",
          "name": "receiver",
          "type": "address"
        },
        {
          "internalType": "uint256",
          "name": "amount",
          "type": "uint256"
        }
      ],
      "name": "claim",
      "outputs": [],
      "stateMutability": "nonpayable",
      "type": "function"
    }
  ],
  "bytecode": "0x6080806040523461006c5760016000556002546001543360018060a01b0319821617600155339060018060a01b03167f8be0079c531659141344cd1fd0a4f28419497f9722a3daafe3b4186f6b6457e0600080a36001600160a81b03191660025561436490816100728239f35b600080fdfe6080604052600436101561001257600080fd5b6000803560e01c80630548db12146137ab5780630d8e6e2c14612bde5780632672a87a146132b25780632b994b43146131355780632d7788db146130da5780632e476337146130b15780634add7c8214612bfa5780634ae3223514612bde57806353188b14146127ab5780635c7f31aa146122aa5780635c975abb1461228457806361ba94431461226f578063628118ee14611e3f578063715018a614611dd757806379ba509714611d135780637a5ae69e14611ce75780637cc5805a14611b865780638c21eb8b14611af65780638da5cb5b14611acd578063996cba68146119b1578063a33928da14611514578063a6aea415146114b6578063aa71b2e714611458578063b2ac850d146113e4578063b85a8b20146113c8578063c1bc89ef146111d9578063c49785b41461117b578063cc3266e814611158578063ccdd9f5d14610d1b578063e0b2695914610ce7578063e0f7dffd14610cba578063e30c397814610c91578063e826fbe7146104f4578063e9d1f8df14610320578063f2fde38b146102b25763f9af0579146101a957600080fd5b346102af5760203660031901126102af576101c26141ce565b6101ca61397b565b6007546040805163f400c74360e01b81526004803590820152336024820152839290916001600160a01b039183908316818681604481015b03925af180156102a4578392849161026f575b501660008051602061430f833981519152810361025e575081808092818115610255575b3390f115610249575b6001815580f35b604051903d90823e3d90fd5b506108fc610239565b61026a92503390613e67565b610242565b905061029491925060403d60401161029d575b61028c81836138bf565b8101906141b1565b91909138610215565b503d610282565b6040513d85823e3d90fd5b80fd5b50346102af5760203660031901126102af576102cc613820565b6102d46138f9565b600280546001600160a01b0319166001600160a01b039283169081179091556001549091167f38d16b8cac22d99fc7c124b9cd0de2d3fa1faef420bfe791d8c362d765e227008380a380f35b50346102af5760203660031901126102af578060043561033e61397b565b60085460405163c58343ef60e01b8152600481018390526001600160a01b03916101c091908316908281602481855afa9283156104e95786936104ba575b50506103a160016101a084015161039281613dd2565b61039b81613dd2565b14614172565b846101008301516024604051809481936322bc934560e11b835260048301525afa80156104af5761016084918793849161048d575b5001511660008051602061430f8339815191528103610475575080806101408194015181811561046c575b3390f11561045d575b60085416803b1561046857604051639498506560e01b8152600481019290925233602483015282908290818381604481015b03925af1801561045d5761044d5750f35b61045690613895565b6102af5780f35b6040513d84823e3d90fd5b5050fd5b506108fc610401565b9050610140610488920151903390613e67565b61040a565b6104a991503d8086833e6104a181836138bf565b810190613c61565b386103d6565b6040513d87823e3d90fd5b6104da929350803d106104e2575b6104d281836138bf565b810190613ea0565b90388061037c565b503d6104c8565b6040513d88823e3d90fd5b5060603660031901126102af57610509613862565b61051161384c565b9061051a61397b565b61052381614288565b6008546040516322bc934560e11b81526004803590820152916001600160a01b03909116908483602481855afa9283156104af578593610c75575b50604051633970062960e01b815260048035908201526001600160a01b0385166024820152916020908390604490829089905af19182156104af576105be926105ae918791610c46575b50613fca565b61ffff6080840151911690614264565b60048054604084810151905163912d228f60e01b81526001600160a01b039182169381019390935260248301849052602091839160449183918a91165af19081156104af578591610c13575b506005546040516322a0fe3360e21b81523360048201526024810192909252602090829060449082906001600160a01b03165afa9081156104af578591610bd9575b50600480546040858101519051631c07d98160e21b81526001600160a01b0391821693810193909352868116602484015260448301859052602091839160649183918b91165af19081156104e9578691610ba7575b50600554604051636882509b60e11b815290602090829060049082906001600160a01b03165afa908115610b9c578791610b56575b506106ee9260ff6106e8921690613f9c565b90614264565b91846001600160a01b03851660008051602061430f83398151915203610b3b5750348310610afe5784935b6006546001600160a01b0316803b15610afa578560405180926320e8c56560e01b82528183816107516004358c8a3360048601613951565b03925af19081156104e9578691610ae6575b505060065460408301516001600160a01b039081169116803b15610ae2576107ab8792918392604051948580948193631effa54360e21b83528b600435913360048601613951565b03925af19081156104e9578691610ace575b50506004805460405163912d228f60e01b81526001600160a01b0384811693820193909352602481018790529591602091879160449183918b91165af19485156104e9578695610a95575b506007546101c084015160209291610184919089906001600160a01b031661082f83613dd2565b60018060a01b036040890151169460a089015161ffff60c08b0151169060018060a01b036101208c015116926040519a8b998a986319467e2760e01b8a5260043560048b015261087e81613dd2565b60248a015260448901526001600160a01b03166064880152608487018d905260a487015260c486018d905260e486015261010485015261012484018a9052336101448501526101648401525af180156104af57610a66575b506008546001600160a01b0316803b15610a6257848091604460405180948193631b6eb38160e21b835260043560048401528860248401525af19081156104af578591610a4e575b505060048054604092830151925163912d228f60e01b81526001600160a01b0393841692810192909252602482019390935291602091839160449183918891165af19081156102a4578391610a14575b506003546001600160a01b0316803b15610a0f5760405163456db94760e01b8152336004820152602481019290925283908290604490829084905af19081156102a45783916109f8575b50506003546001600160a01b0316803b15610468576040516363a6c98160e01b81523360048201526024810192909252829082908183816044810161043c565b610a0190613895565b610a0c5781386109b8565b50fd5b505050fd5b9250506020823d602011610a46575b81610a30602093836138bf565b81010312610a41578291513861096e565b600080fd5b3d9150610a23565b610a5790613895565b610a0f57833861091e565b8480fd5b6020809295503d8311610a8e575b610a7e81836138bf565b81010312610a41578392386108d6565b503d610a74565b955093506020853d602011610ac6575b81610ab2602093836138bf565b81010312610a415760208695519490610808565b3d9150610aa5565b610ad790613895565b610a625784386107bd565b8680fd5b610aef90613895565b610a62578438610763565b8580fd5b60405162461bcd60e51b815260206004820152601560248201527411549497d0d3d31310551154905317d05353d55395605a1b6044820152606490fd5b93610b518430336001600160a01b0385166139c2565b610719565b90506020813d602011610b94575b81610b71602093836138bf565b81010312610ae2576106ee9260ff610b8b6106e893613f8e565b925050926106d6565b3d9150610b64565b6040513d89823e3d90fd5b90506020813d602011610bd1575b81610bc2602093836138bf565b81010312610a415751386106a1565b3d9150610bb5565b90506020813d602011610c0b575b81610bf4602093836138bf565b81010312610a6257610c0590613c3e565b3861064c565b3d9150610be7565b90506020813d602011610c3e575b81610c2e602093836138bf565b81010312610a415751602061060a565b3d9150610c21565b610c68915060203d602011610c6e575b610c6081836138bf565b810190613a15565b386105a8565b503d610c56565b610c8a9193503d8087833e6104a181836138bf565b913861055e565b50346102af57806003193601126102af576002546040516001600160a01b039091168152602090f35b50346102af5760603660031901126102af576020610cdf604435602435600435614237565b604051908152f35b50346102af5760403660031901126102af57602435906001600160a01b03821682036102af576020610cdf83600435614264565b50346102af5780602080600319360112610a0c57610d376138f9565b610d3f6141ce565b8160018060a01b0391826007541660405190632820036560e11b82526004356004830152816024816102a09687945af19283156104af578593611129575b5050610d8e6101408301514261414f565b92610da660a084019485519061012086015191614237565b600480546040868101516060880180519251631c07d98160e21b8082526001600160a01b0393891684169682019690965292871690911660248301526044820185905295939092918490849060649082908d908a165af19283156110ea5789936110f5575b5083610e6591888a8c610e308a6040816004541695015116948b8d511693519061414f565b6040518881526001600160a01b0395861660048201529290941660248301526044820193909352938492839182906064820190565b03925af19081156110ea5789916110b8575b50889084866009541660046040518095819363a001ecdd60e01b83525af19081156110ad578a91611071575b610ead9250614264565b9260e08701968751610ebf868661414f565b11610fda57505050610ed1828261414f565b95519451818110610fbd575050915b81806009541691511690803b15610ae25760405163ef6506db60e01b81526001600160a01b039290921660048301526024820184905286908290604490829084905af19081156104e9578691610fa9575b5050610f429060075416918461414f565b90803b15610a6257604051633799ba3f60e01b815260048035908201526024810193909352604483019390935260648201529082908290608490829084905af1801561045d57610f95575b506001905580f35b610f9e90613895565b6102af578038610f8d565b610fb290613895565b610a62578438610f31565b909550610fce610fd492829761414f565b9061414f565b91610ee0565b965160048054885160409a8b01519a5195865288166001600160a01b03908116928601929092529887161660248401526044830181905297509395909250839150829060649082908a9089165af19182156104e9578692611040575b5050918491610ee0565b8196508092503d831161106a575b61105881836138bf565b81010312610a41578493513880611036565b503d61104e565b90508482813d83116110a6575b61108881836138bf565b810103126110a25761109c610ead92613c3e565b90610ea3565b8980fd5b503d61107e565b6040513d8c823e3d90fd5b809950848092503d83116110e3575b6110d181836138bf565b81010312610a41578880985190610e77565b503d6110c7565b6040513d8b823e3d90fd5b985091508288813d8111611122575b61110e81836138bf565b81010312610a415796518897909183610e0b565b503d611104565b611149929350803d10611151575b61114181836138bf565b810190614016565b903880610d7d565b503d611137565b50346102af57806003193601126102af576020604051670de0b6b3a76400008152f35b50346102af5760203660031901126102af576111956141ce565b61119d61397b565b6007546040805163014b594760e71b81526004803590820152336024820152839290916001600160a01b03918390831681868160448101610202565b5060c03660031901126102af57600435906111f2613836565b916044359267ffffffffffffffff84116113c457366023850112156113c457836004013593611220856138e1565b61122d60405191826138bf565b8581526020918282016024819860051b830101913683116113c057602401905b8282106113a15750505060643561ffff94858216809203610a4157611270613884565b9061127961397b565b6001600160a01b03938685169160008051602061430f833981519152830361138f575034975b8560085416936040519563031137cd60e61b875260e487019460048801528a60248801526084356044880152606487015216608485015260e060a48501525180915261010483019890885b81811061137957505050818491818981819c3360c483015203925af19283156104e9578693611346575b505060065416803b15610a625761043c93858094604051968795869485936320e8c56560e01b85523360048601613951565b819650809293503d8311611372575b61135f81836138bf565b81010312610a4157849351903880611314565b503d611355565b825186168b5299860199918601916001016112ea565b9761139c893033866139c2565b61129f565b81356001600160a01b0381168103610a4157815290840190840161124d565b8780fd5b8280fd5b50346102af57806003193601126102af57602060405160648152f35b50346102af5760403660031901126102af57806113ff613862565b61140761397b565b6008546001600160a01b031690813b156104685761ffff6064849283604051958694859363099bfe6b60e01b855260043560048601521660248401523360448401525af1801561045d5761044d5750f35b50346102af5760203660031901126102af576114726141ce565b61147a61397b565b6007546040805163cb7ec57b60e01b81526004803590820152336024820152839290916001600160a01b03918390831681868160448101610202565b50346102af5760203660031901126102af576114d06141ce565b6114d861397b565b6007546040805163e41936d760e01b81526004803590820152336024820152839290916001600160a01b03918390831681868160448101610202565b5060403660031901126102af5780602461152c613862565b61153461397b565b61153d81614288565b6008546040516322bc934560e11b8152600480359082015292849184919082906001600160a01b03165afa9182156102a4578392611995575b5061159a61158f61ffff6101a085015193168093614264565b916080840151614264565b60408301519091906001600160a01b03168260008051602061430f83398151915282036119605790503410610a0f57838080808560018060a01b0361012089015116828215611957575bf1156102a4575b60065460408401516001600160a01b039081169116803b15610afa5761163186929183926040519485809481936320e8c56560e01b83528a600435913360048601613951565b03925af19081156104af578591611943575b50506006546101608401516001600160a01b039081169116803b15610afa5761168c8692918392604051948580948193631effa54360e21b835289600435913360048601613951565b03925af19081156104af57859161192f575b50506004805461016085015160405163912d228f60e01b81526001600160a01b039182169381019390935260248301849052602091839160449183918a91165af19081156104af5785916118f7575b506020839160018060a01b03600754168651886101c089015161170f81613dd2565b61176e60018060a01b0360408c0151169360018060a01b036101608d015116968c60a081015161ffff60c0830151169161012060018060a01b0391015116928d6040519d8e9c8d9b8c9a6319467e2760e01b8c52339960048d01613df2565b03925af180156104af576118c8575b506008546001600160a01b0316803b15610a6257604051633496841f60e11b8152600480359082015260248101849052604481019290925284908290606490829084905af19081156118bd5784916118a9575b505060048054604084810151905163912d228f60e01b81526001600160a01b039182169381019390935260248301939093529091602091839160449183918891165af19081156102a4578391611874575b50600354610120909201516001600160a01b03928316921690823b15610a0f5760405163456db94760e01b81526001600160a01b039092166004830152602482015290829082908183816044810161043c565b9250506020823d6020116118a1575b81611890602093836138bf565b81010312610a415782915138611821565b3d9150611883565b6118b290613895565b6104685782386117d0565b6040513d86823e3d90fd5b6020809295503d83116118f0575b6118e081836138bf565b81010312610a415783923861177d565b503d6118d6565b9450506020843d602011611927575b81611913602093836138bf565b81010312610a4157925184939060206116ed565b3d9150611906565b61193890613895565b610a0f57833861169e565b61194c90613895565b610a0f578338611643565b506108fc6115e4565b61196d91309033906139c2565b60408301516101208401516119909184916001600160a01b039081169116613e67565b6115eb565b6119aa9192503d8085833e6104a181836138bf565b9038611576565b50346102af5760603660031901126102af576119cb613820565b6001600160a01b0360243581811690819003611ac957604435916119ed6138f9565b6119f56141ce565b8215611a925784938160095416803b15610afa576040516331b5f13d60e11b81526001600160a01b0383166004820152602481018690529086908290604490829084905af19081156104e9578691611a7e575b50501660008051602061430f8339815191528103611a745750828092819282f115610249576001815580f35b61026a9350613e67565b611a8790613895565b610a62578438611a48565b60405162461bcd60e51b815260206004820152600f60248201526e11549497d6915493d7d05353d55395608a1b6044820152606490fd5b8380fd5b50346102af57806003193601126102af576001546040516001600160a01b039091168152602090f35b50346102af5760803660031901126102af57611b10613820565b611b18613836565b90611b2161384c565b6064356001600160a01b0381811694909291859003610a41578290611b446138f9565b611b4c6141ce565b816001600160601b0360a01b9516856006541617600655168360075416176007551681600854161760085560095416176009556001815580f35b5060a03660031901126102af57600435611b9e613862565b9060443561ffff808216809203610a4157611bb7613873565b93611bc061397b565b611bc981614288565b8560018060a01b03926024828560085416604051928380926322bc934560e11b82528b60048301525afa9081156102a4578391611ccd575b50846040611c1784608085015197168097614264565b9201511660008051602061430f8339815191528103611cb457503410611cb05760209560c4945b60085416916040519889978896630b438b8960e41b885260048801526064356024880152604487015216606485015233608485015260a48401525af1801561045d57611c88575080f35b602090813d8111611ca9575b611c9e81836138bf565b81010312610a415780f35b503d611c94565b5080fd5b94611cc86020989260c497309033906139c2565b611c3e565b611ce191503d8085833e6104a181836138bf565b38611c01565b50346102af5760203660031901126102af5760043561ffff81168103610a4157611d1090614288565b80f35b50346102af57806003193601126102af576002546001600160a01b033381831603611d80576001600160601b0360a01b8092166002556001549133908316176001553391167f8be0079c531659141344cd1fd0a4f28419497f9722a3daafe3b4186f6b6457e0600080a380f35b60405162461bcd60e51b815260206004820152602960248201527f4f776e61626c6532537465703a2063616c6c6572206973206e6f7420746865206044820152683732bb9037bbb732b960b91b6064820152608490fd5b50346102af57806003193601126102af57611df06138f9565b600280546001600160a01b03199081169091556001805491821690556000906001600160a01b03167f8be0079c531659141344cd1fd0a4f28419497f9722a3daafe3b4186f6b6457e08280a380f35b5060403660031901126102af5760043581611e58613862565b611e6061397b565b611e6981614288565b600754604051632820036560e11b8152600481018590526001600160a01b03946102a09490928591839160249183918a165af19384156104e9578694612250575b5050836102608401511633036122185784938492611ecd6101408601514261414f565b94611f01611ef3611ee861ffff608085015195168095614264565b9360c0840151614264565b966101208301519084614237565b93611f0c838661414f565b9184600954166040519063a001ecdd60e01b82528160048160209b8c945af19081156110ad578a916121dc575b50611f47611f4e9185614264565b809461414f565b91604086600954169201938685511690833b156121d85760405163ef6506db60e01b81526001600160a01b039290921660048301526024820152918a908390604490829084905af19283156110ad578a86938a956121b6575b50876007541692611fe56040519c8d968795869463094bb9f160e11b8652600486019094939260609260808301968352602083015260408201520152565b03925af1958615610b9c578796612197575b50868382511660008051602061430f8339815191528114600014612181575050833410610ae25786935b8561206d856004541661203886888751169561414f565b60405163912d228f60e01b8082526001600160a01b039096166004820152602481019190915297889283919082906044820190565b03925af194851561217657889561213e575b5060048054925160405192835285166001600160a01b03169082015260248101929092528490829060449082908a9087165af19384156104e957869461210b575b505060035416803b15610a62578492836084926040519687958694637bc5e09f60e11b865233600487015260248601526044850152151560648401525af1801561045d5761044d5750f35b819650809294503d8311612137575b61212481836138bf565b81010312610a41578493519138806120c0565b503d61211a565b9297509350908481813d811161216f575b61215981836138bf565b81010312610a415751879690939091908561207f565b503d61214f565b6040513d8a823e3d90fd5b8561219291969296309033906139c2565b612021565b6121af919650853d8711610c6e57610c6081836138bf565b9438611ff7565b909294506121c5919350613895565b6121d457869184918a38611fa7565b8880fd5b8b80fd5b90508781813d8311612211575b6121f381836138bf565b810103126110a257611f4761220a611f4e92613c3e565b9150611f39565b503d6121e9565b60405162461bcd60e51b815260206004820152601060248201526f22a9292fa727aa2fa127a92927aba2a960811b6044820152606490fd5b612267929450803d106111515761114181836138bf565b913880611eaa565b5060203660031901126102af576102426141ce565b50346102af57806003193601126102af57602060ff60025460a01c166040519015158152f35b5060203660031901126102af576122bf61397b565b60085460405163c58343ef60e01b8152600480359082015282916001600160a01b03166101c082602481845afa9182156102a4578392612788575b50826101008301516024604051809481936322bc934560e11b835260048301525afa9081156102a457839161276e575b506101a08101519161235b612349604083019461ffff86511690614264565b9361ffff608085015191511690614264565b60408301519093906001600160a01b03168460008051602061430f833981519152820361275e5750508480858015612754575b8280929181923390f1156118bd575b6006546101608401516101008401516001600160a01b039283169290911690823b156113c0576123e99284898094604051968795869485936320e8c56560e01b85523360048601613951565b03925af19081156104e9578691612740575b505060065460408401516101008401516001600160a01b039283169290911690823b156113c057612448928789809460405196879586948593631effa54360e21b85523360048601613951565b03925af19081156104e957869161272c575b50506004805461016085015160405163912d228f60e01b81526001600160a01b039182169381019390935260248301849052919391602091859160449183918b91165af19283156104e95786936126f1575b509160209185938760018060a01b036007541692612533610100840151916101c08a0151926124da84613dd2565b60408b8101516101608d0151608089015160608a015160e0909a015193516319467e2760e01b81529d8e9c8d9b8c9a6001600160a01b0397881699339961ffff9093169895979396909590811693169160048d01613df2565b03925af180156118bd576126c2575b5060018060a01b03600854168151813b15610a62578491604483926040519485938492631b6eb38160e21b845260048401528860248401525af19081156118bd5784916126ae575b50506008546001600160a01b0316803b15610a0f57604051636d5d42c560e11b815260048035908201523360248201529084908290604490829084905af19081156118bd57849161269a575b505060048054604092830151925163912d228f60e01b81526001600160a01b0393841692810192909252602482019390935291602091839160449183918791165af190811561045d578291612665575b506003546001600160a01b0316803b156104685760405163456db94760e01b81523360048201526024810192909252829082908183816044810161043c565b9150506020813d602011612692575b81612681602093836138bf565b81010312610a415781905138612626565b3d9150612674565b6126a390613895565b6104685782386125d6565b6126b790613895565b61046857823861258a565b6020809294503d83116126ea575b6126da81836138bf565b81010312610a4157829138612542565b503d6126d0565b91925094506020813d602011612724575b8161270f602093836138bf565b81010312610a415751859490919060206124ac565b3d9150612702565b61273590613895565b610a6257843861245a565b61274990613895565b610a625784386123fb565b6108fc915061238e565b612769913390613e67565b61239d565b61278291503d8085833e6104a181836138bf565b3861232a565b6127a49192506101c03d6101c0116104e2576104d281836138bf565b90386122fa565b5060c03660031901126102af57806127c1613820565b6127c961384c565b906127d2613873565b916127db613884565b6127e361397b565b6004805460405163912d228f60e01b81526001600160a01b0386811693820193909352602480359082015291949190602090829060449082908b908a165af1908115610b9c578791612ba6575b506005546040516322a0fe3360e21b815233600482015260248101929092526020908290604490829089165afa908115610b9c578791612b6c575b5060048054604051631c07d98160e21b81526001600160a01b0385811693820193909352918616602480840191909152356044830152602090829060649082908c908b165af1908115612176578891612b37575b5060046020876005541660405192838092636882509b60e11b82525afa9081156110ea578991612af1575b506128fc9260ff6106e8921690613f9c565b9483851692858860008051602061430f8339815191528603612ad75750508634106113c057602092886101049288945b856008541691604051988997889663486c386960e11b885216600487015260248601528b60448601526024356064860152606435608486015261ffff80921660a48601521660c48401523360e48401525af19081156104af578591612aa2575b508260065416803b15610afa576040516320e8c56560e01b815291869183918290849082906129c1908b8a3360048601613951565b03925af19081156104af578591612a8e575b50506004805460405163912d228f60e01b81526001600160a01b03939093169183019190915260248201939093529160209083906044908290879086165af19182156102a4578392612a57575b5060035416803b15610468576040516363a6c98160e01b81523360048201526024810192909252829082908183816044810161043c565b925090506020823d602011612a86575b81612a74602093836138bf565b81010312610a41578291519038612a20565b3d9150612a67565b612a9790613895565b610a0f5783386129d3565b9450506020843d602011612acf575b81612abe602093836138bf565b81010312610a41578493513861298c565b3d9150612ab1565b610104926020959294612aec8b30338b6139c2565b61292c565b90506020813d602011612b2f575b81612b0c602093836138bf565b810103126121d4576128fc9260ff612b266106e893613f8e565b925050926128ea565b3d9150612aff565b9750506020873d602011612b64575b81612b53602093836138bf565b81010312610a4157879651386128bf565b3d9150612b46565b90506020813d602011612b9e575b81612b87602093836138bf565b81010312610ae257612b9890613c3e565b3861286b565b3d9150612b7a565b9650506020863d602011612bd6575b81612bc2602093836138bf565b81010312610a415794518695906020612830565b3d9150612bb5565b50346102af57806003193601126102af57602060405160028152f35b50346102af5760203660031901126102af57612c1461397b565b60085460405163c58343ef60e01b8152600480359082015282916001600160a01b03166101c082602481845afa9182156102a457839261308e575b50826101008301516024604051809481936322bc934560e11b835260048301525afa9081156102a4578391613074575b50612c97608082015161ffff60408501511690614264565b60408201519091906001600160a01b03168260008051602061430f83398151915282036130555760e0850151869250829182918291906001600160a01b031682821561304c575bf1156102a4575b60065460e0840151610120850151610140860151610100870151936001600160a01b039384169391929082169116813b156121d457888094612d3d604051978896879586946320e8c56560e01b865260048601613951565b03925af19081156104af578591613038575b505060065460408201516101008501516001600160a01b039283169290911690823b15610ae257612d9c928588809460405196879586948593631effa54360e21b85523360048601613951565b03925af19081156104af578591613024575b505081602060018060a01b0360075416610100860151906101c0850151612dd481613dd2565b8860018060a01b0360408801511691612e3f60018060a01b036101208c015116956101408c01518c61016081015160808201519061ffff6060840151169260e060018060a01b0391015116936040519d8e9c8d9b8c9a6319467e2760e01b8c52339960048d01613df2565b03925af180156104af57612ff5575b5060018060a01b0360085416610100840151610140850151823b15610ae257604051633496841f60e11b815260048101929092526024820185905260448201529085908290606490829084905af19081156104af578591612fe1575b50506008546001600160a01b0316803b15610a6257604051636d5d42c560e11b815260048035908201523360248201529085908290604490829084905af19081156104af578591612fcd575b505060048054604092830151925163912d228f60e01b81526001600160a01b0393841692810192909252602482019390935291602091839160449183918891165af19081156102a4578391612f98575b5060035460e0909201516001600160a01b03928316921690823b15610a0f5760405163456db94760e01b81526001600160a01b039092166004830152602482015290829082908183816044810161043c565b9250506020823d602011612fc5575b81612fb4602093836138bf565b81010312610a415782915138612f46565b3d9150612fa7565b612fd690613895565b610a0f578338612ef6565b612fea90613895565b610a0f578338612eaa565b6020809295503d831161301d575b61300d81836138bf565b81010312610a4157839238612e4e565b503d613003565b61302d90613895565b610a0f578338612dae565b61304190613895565b610a0f578338612d4f565b506108fc612cde565b60e085015161306f926001600160a01b0390911690613e67565b612ce5565b61308891503d8085833e6104a181836138bf565b38612c7f565b6130aa9192506101c03d6101c0116104e2576104d281836138bf565b9038612c4f565b50346102af57806003193601126102af57602060405160008051602061430f8339815191528152f35b50346102af5760203660031901126102af576130f461397b565b60085481906001600160a01b0316803b15610a0c5760405163774d3df560e01b8152600480359082015233602482015290829082908183816044810161043c565b50346102af5760203660031901126102af578060043561315361397b565b60085460405163c58343ef60e01b8152600481018390526001600160a01b03916101c091908316908281602481855afa9283156104e9578693613293575b50506131b46101a08301516131a581613dd2565b6131ae81613dd2565b15614172565b846101008301516024604051809481936322bc934560e11b835260048301525afa9081156104af57859284918493613270575b5061320160409161ffff8360808701519201511690614264565b9201511660008051602061430f833981519152810361326457508180809281811561046c573390f11561045d5760085416803b1561046857604051639498506560e01b81526004810192909252336024830152829082908183816044810161043c565b61048892503390613e67565b604091935061328b613201913d8088833e6104a181836138bf565b9391506131e7565b6132aa929350803d106104e2576104d281836138bf565b903880613191565b5060c03660031901126102af57806132c8613862565b6132d061384c565b6132d8613873565b916132e1613884565b926132ea61397b565b6132f382614288565b6008546040516322bc934560e11b815260048035908201526001600160a01b0390911694908681602481895afa908115610b9c578791613791575b50604051633970062960e01b815260048035908201526001600160a01b038616602482015295602090879060449082908b905af1958615610b9c576133da9661337d918991610c465750613fca565b613390608082015161ffff861690614264565b6004805460409384018051945163912d228f60e01b81526001600160a01b0395861693810193909352602483018490529198929391926020928a92169082908c9082906044820190565b03925af196871561217657889761375c575b506005546040516322a0fe3360e21b81523360048201526024810198909852602090889060449082906001600160a01b03165afa968715612176578897613718575b50600480549151604051631c07d98160e21b81526001600160a01b03918216928101929092528088166024830152604482019390935291602091839116818a81606481015b03925af18015610b9c5787906136e5575b600554604051636882509b60e11b81529250602090839060049082906001600160a01b03165afa9182156121765788926136a1575b506106e860ff6134ca931688613f9c565b906001600160a01b03851660008051602061430f8339815191520361368757348210610ae2575b6004805460405163912d228f60e01b81526001600160a01b0388811693820193909352602481018590529491602091869160449183918d91165af19687156121765788948598613644575b50600854604051633bb1374b60e01b815261ffff9788166004808301919091526001600160a01b03998a166024830152604482019690965260648082018b90529289166084820152913560a483015291861660c48201529190941660e4820152336101048201529035610124820152926020928492610144928492165af180156102a457613619575b506003546001600160a01b031690813b15610468576040516363a6c98160e01b8152336004820152602481019190915291908290604490829084905af1801561045d57613610575080f35b611d1090613895565b602090813d831161363d575b61362f81836138bf565b81010312610a0c57386135c5565b503d613625565b9194509650602094919294813d60201161367f575b81613666602093836138bf565b810103126113c05751959093879390929161ffff61353c565b3d9150613659565b61369c8230336001600160a01b0389166139c2565b6134f1565b91506020823d6020116136dd575b816136bc602093836138bf565b810103126113c0576106e860ff6136d56134ca94613f8e565b9350506134b9565b3d91506136af565b506020813d602011613710575b816136ff602093836138bf565b81010312610ae25760049051613484565b3d91506136f2565b9096506020813d602011613754575b81613734602093836138bf565b810103126113c0576134739161374b602092613c3e565b9791509161342e565b3d9150613727565b96506020873d602011613789575b81613777602093836138bf565b810103126113c05795519560206133ec565b3d915061376a565b6137a591503d8089833e6104a181836138bf565b3861332e565b50346102af5760603660031901126102af576137c5613820565b6137cd613836565b6137d561384c565b6137dd6138f9565b6137e56141ce565b60018060a01b038092816001600160601b0360a01b951685600554161760055516836003541617600355169060045416176004556001815580f35b600435906001600160a01b0382168203610a4157565b602435906001600160a01b0382168203610a4157565b604435906001600160a01b0382168203610a4157565b6024359061ffff82168203610a4157565b6084359061ffff82168203610a4157565b60a4359061ffff82168203610a4157565b67ffffffffffffffff81116138a957604052565b634e487b7160e01b600052604160045260246000fd5b90601f8019910116810190811067ffffffffffffffff8211176138a957604052565b67ffffffffffffffff81116138a95760051b60200190565b6001546001600160a01b0316330361390d57565b606460405162461bcd60e51b815260206004820152602060248201527f4f776e61626c653a2063616c6c6572206973206e6f7420746865206f776e65726044820152fd5b6001600160a01b039182168152911660208201526040810191909152606081019190915260800190565b60ff60025460a01c1661398a57565b60405162461bcd60e51b815260206004820152601060248201526f14185d5cd8589b194e881c185d5cd95960821b6044820152606490fd5b6040516323b872dd60e01b60208201526001600160a01b0392831660248201529290911660448301526064820192909252613a1391613a0e82608481015b03601f1981018452836138bf565b613a2d565b565b90816020910312610a4157518015158103610a415790565b6040805167ffffffffffffffff94936001600160a01b039093169290918201858111838210176138a9576040526020928383527f5361666545524332303a206c6f772d6c6576656c2063616c6c206661696c6564848401526000808386829551910182855af1903d15613b5d573d968711613b4957613acd94959660405190613abf88601f19601f84011601836138bf565b81528093873d92013e613b6a565b80519081613ada57505050565b8280613aea938301019101613a15565b15613af25750565b6084906040519062461bcd60e51b82526004820152602a60248201527f5361666545524332303a204552433230206f7065726174696f6e20646964206e6044820152691bdd081cdd58d8d9595960b21b6064820152fd5b634e487b7160e01b83526041600452602483fd5b9150613acd939495506060915b91929015613bcc5750815115613b7e575090565b3b15613b875790565b60405162461bcd60e51b815260206004820152601d60248201527f416464726573733a2063616c6c20746f206e6f6e2d636f6e74726163740000006044820152606490fd5b825190915015613bdf5750805190602001fd5b6040519062461bcd60e51b82528160208060048301528251908160248401526000935b828510613c25575050604492506000838284010152601f80199101168101030190fd5b8481018201518686016044015293810193859350613c02565b51906001600160a01b0382168203610a4157565b519061ffff82168203610a4157565b6020918282820312610a4157815167ffffffffffffffff92838211610a415701916101e0938484840312610a4157604051948501858110838211176138a95760405283518552808401516002811015610a415781860152613cc460408501613c3e565b6040860152606084015160608601526080840151608086015260a084015160a0860152613cf360c08501613c52565b60c086015260e084015160e08601526101008085015190860152610120613d1b818601613c3e565b908601526101409182850151908111610a415784019280601f85011215610a41578351613d47816138e1565b94613d5560405196876138bf565b818652838087019260051b820101928311610a41578301905b828210613dbb5750505050830152610160613d8a818301613c3e565b9083015261018080820151908301526101a080820151908301526101c080910151906002821015610a415782015290565b838091613dc784613c3e565b815201910190613d6e565b60021115613ddc57565b634e487b7160e01b600052602160045260246000fd5b9995919b9a97939894909b9692966101808b019c8b52613e1181613dd2565b60208b0152600160a01b6001900380998180991660408d01521660608b015260808a015260a089015260c088015260e087015261ffff166101008601526101208501600090521661014084015216906101600152565b60405163a9059cbb60e01b60208201526001600160a01b0390921660248301526044820192909252613a1391613a0e8260648101613a00565b80916101c09283910312610a415760405191820182811067ffffffffffffffff8211176138a9576040528051825260208101516004811015610a41576020830152613eed60408201613c52565b6040830152613efe60608201613c52565b60608301526080810151608083015260a081015160a083015260c081015160c0830152613f2d60e08201613c3e565b60e08301526101008082015190830152610120613f4b818301613c3e565b9083015261014080820151908301526101608082015190830152610180613f73818301613c3e565b908301526101a080910151906002821015610a415782015290565b519060ff82168203610a4157565b6001600160a01b0391821691908215613fb457160490565b634e487b7160e01b600052601260045260246000fd5b15613fd157565b60405162461bcd60e51b815260206004820152601c60248201527f4552525f434f4c4c41544552414c5f4e4f545f535550504f52544544000000006044820152606490fd5b80916102a09283910312610a415760405191820182811067ffffffffffffffff8211176138a9576040528051825260208101516004811015610a4157602083015261406360408201613c3e565b604083015261407460608201613c3e565b60608301526080810151608083015260a081015160a083015260c081015160c083015260e081015160e083015261010080820151908301526101208082015190830152610140808201519083015261016080820151908301526101806140db818301613c52565b908301526101a06140ed818301613f8e565b908301526101c080820151908301526101e08082015190830152610200808201519083015261022080820151908301526102408082015190830152610260614136818301613c3e565b90830152614148610280809201613c3e565b9082015290565b9190820391821161415c57565b634e487b7160e01b600052601160045260246000fd5b1561417957565b60405162461bcd60e51b815260206004820152601060248201526f4552525f524551554553545f5459504560801b6044820152606490fd5b9190826040910312610a41576141cb602083519301613c3e565b90565b6002600054146141df576002600055565b60405162461bcd60e51b815260206004820152601f60248201527f5265656e7472616e637947756172643a207265656e7472616e742063616c6c006044820152606490fd5b8181029291811591840414171561415c57565b91614256606492614251670de0b6b3a76400009386614224565b614224565b0404810180911161415c5790565b906001600160a01b031680156142845761428090606492614224565b0490565b5090565b61ffff809116606481116142d75760199006166142a157565b60405162461bcd60e51b815260206004820152600e60248201526d4552525f50455243454e5441474560901b6044820152606490fd5b60405162461bcd60e51b815260206004820152600f60248201526e4f5645525f50455243454e5441474560881b6044820152606490fdfe000000000000000000000000eeeeeeeeeeeeeeeeeeeeeeeeeeeeeeeeeeeeeeeea264697066735822122085199d85ebebf741ab20ffd1c8f57ef3f5fc6d0073f640afdbb9a77cc8e8062564736f6c63430008110033",
  "immutableReferences": {},
  "source": "// SPDX-License-Identifier: GPL-3.0\r\npragma solidity >=0.7.0 <0.9.0;\r\n\r\nimport \"./Activity.sol\";\r\n\r\nimport \"./libraries/Errors.sol\";\r\n\r\nimport \"./math/SimpleInterest.sol\";\r\n\r\nimport \"./interfaces/IPriceFeed.sol\";\r\nimport \"./interfaces/IFeeManager.sol\";\r\nimport \"./interfaces/IVaultManager.sol\";\r\nimport \"./interfaces/IOfferManager.sol\";\r\nimport \"./interfaces/ILoanManager.sol\";\r\nimport \"./interfaces/ILoanToValueRatio.sol\";\r\n\r\nimport \"@openzeppelin/contracts/utils/Context.sol\";\r\nimport \"@openzeppelin/contracts/token/ERC20/ERC20.sol\";\r\nimport \"@openzeppelin/contracts/token/ERC20/utils/SafeERC20.sol\";\r\nimport \"@openzeppelin/contracts/security/ReentrancyGuard.sol\";\r\nimport \"@openzeppelin/contracts/access/Ownable2Step.sol\";\r\nimport \"@openzeppelin/contracts/security/Pausable.sol\";\r\n\r\n/**\r\n * @title LendingPool contract\r\n * @dev Main point of interaction with the DARSH protocol's market\r\n * - Users can:\r\n *   # Create Lending/Borrowing offers\r\n *   # Request for new terms on offers\r\n *   # Repay (Fully/Installment)\r\n *   # Claim principal and earnings\r\n *   # Claim back collateral\r\n *   # Cancel/Reject/Accept requests\r\n * - All admin functions are callable by the deployer address\r\n * @author Arogundade Ibrahim\r\n **/\r\ncontract LendingPool is\r\n    Context,\r\n    ReentrancyGuard,\r\n    SimpleInterest,\r\n    Ownable2Step,\r\n    Pausable\r\n{\r\n    using SafeERC20 for ERC20;\r\n\r\n    /// @dev contract version\r\n    uint256 public constant LENDINGPOOL_VERSION = 0x2;\r\n\r\n    Activity private _activity;\r\n    IPriceFeed private _priceFeed;\r\n    ILoanToValueRatio private _ltv;\r\n\r\n    IVaultManager private _vaultManager;\r\n    ILoanManager private _loanManager;\r\n    IOfferManager private _offerManager;\r\n    IFeeManager private _feeManager;\r\n\r\n    /// @dev for convienency this address is used to represent FTM just like ERC20\r\n    address public constant nativeAddress =\r\n        0xEeeeeEeeeEeEeeEeEeEeeEEEeeeeEeeeeeeeEEeE;\r\n\r\n    constructor() ReentrancyGuard() Ownable2Step() {}\r\n\r\n    /// @notice This function creates a lending new lending offer\r\n    /// @dev the principalAmount_ parameter is use for ERC20 tokens only\r\n    function createLendingOffer(\r\n        uint256 principalAmount_,\r\n        address principalToken,\r\n        address[] memory collateralTokens,\r\n        uint16 daysToMaturity,\r\n        uint256 interest,\r\n        uint16 daysToExpire\r\n    ) public payable whenNotPaused {\r\n        uint256 principalAmount;\r\n\r\n        /* extract tokens from lender */\r\n        if (principalToken == nativeAddress) {\r\n            principalAmount = msg.value;\r\n        } else {\r\n            principalAmount = principalAmount_;\r\n            ERC20(principalToken).safeTransferFrom(\r\n                _msgSender(),\r\n                address(this),\r\n                principalAmount\r\n            );\r\n        }\r\n\r\n        /* create the lending offer */\r\n        uint256 offerId = _offerManager.createLendingOffer(\r\n            principalToken,\r\n            principalAmount,\r\n            interest,\r\n            daysToMaturity,\r\n            daysToExpire,\r\n            collateralTokens,\r\n            _msgSender()\r\n        );\r\n\r\n        /* delegate principal to lender */\r\n        _vaultManager.deposit(\r\n            _msgSender(),\r\n            principalToken,\r\n            principalAmount,\r\n            offerId\r\n        );\r\n    }\r\n\r\n    /// @notice Explain to an end user what this does\r\n    /// @dev Explain to a developer any extra details\r\n    function createLendingRequest(\r\n        uint256 offerId,\r\n        uint16 percentage,\r\n        uint16 daysToMaturity,\r\n        uint256 interest,\r\n        uint16 hoursToExpire\r\n    ) public payable whenNotPaused {\r\n        checkPercentage(percentage);\r\n\r\n        OfferLibrary.Offer memory offer = _offerManager.getOffer(offerId);\r\n\r\n        uint256 principalAmount = percentageOf(\r\n            offer.initialPrincipal,\r\n            percentage\r\n        );\r\n\r\n        /* extract tokens from lender */\r\n        if (offer.principalToken == nativeAddress) {\r\n            require(msg.value >= principalAmount);\r\n        } else {\r\n            ERC20(offer.principalToken).safeTransferFrom(\r\n                _msgSender(),\r\n                address(this),\r\n                principalAmount\r\n            );\r\n        }\r\n\r\n        /* create the lending request */\r\n        _offerManager.createLendingRequest(\r\n            percentage,\r\n            interest,\r\n            daysToMaturity,\r\n            hoursToExpire,\r\n            _msgSender(),\r\n            offerId\r\n        );\r\n    }\r\n\r\n    // @lenders\r\n    function acceptBorrowingOffer(uint256 offerId, uint16 percentage)\r\n        public\r\n        payable\r\n        whenNotPaused\r\n    {\r\n        checkPercentage(percentage);\r\n        OfferLibrary.Offer memory offer = _offerManager.getOffer(offerId);\r\n\r\n        uint256 collateralAmount = percentageOf(\r\n            offer.initialCollateral,\r\n            percentage\r\n        );\r\n\r\n        uint256 principalAmount = percentageOf(\r\n            offer.initialPrincipal,\r\n            percentage\r\n        );\r\n\r\n        /* extract principal from lender/caller and transfer to borrower */\r\n        if (offer.principalToken == nativeAddress) {\r\n            require(msg.value >= principalAmount);\r\n            payable(offer.creator).transfer(principalAmount);\r\n        } else {\r\n            ERC20(offer.principalToken).safeTransferFrom(\r\n                _msgSender(),\r\n                address(this),\r\n                principalAmount\r\n            );\r\n            ERC20(offer.principalToken).safeTransfer(\r\n                offer.creator,\r\n                principalAmount\r\n            );\r\n        }\r\n\r\n        /* undelegate the loan principal from to lender */\r\n        _vaultManager.deposit(\r\n            _msgSender(),\r\n            offer.principalToken,\r\n            principalAmount,\r\n            offerId\r\n        );\r\n\r\n        /* delegate the loan collateral to lender */\r\n        _vaultManager.withdraw(\r\n            _msgSender(),\r\n            offer.collateralToken,\r\n            collateralAmount,\r\n            offerId\r\n        );\r\n\r\n        uint256 collateralPriceInUSD = _priceFeed.amountInUSD(\r\n            offer.collateralToken,\r\n            collateralAmount\r\n        );\r\n\r\n        /* register the loan from the loan manager */\r\n        _loanManager.createLoan(\r\n            offer.offerId,\r\n            offer.offerType,\r\n            offer.principalToken,\r\n            offer.collateralToken,\r\n            principalAmount,\r\n            collateralAmount,\r\n            collateralPriceInUSD,\r\n            offer.interest,\r\n            offer.daysToMaturity,\r\n            0,\r\n            offer.creator,\r\n            _msgSender()\r\n        );\r\n\r\n        // will revert the transaction if fail\r\n        _offerManager.afterOfferBorrowingLoan(\r\n            offerId,\r\n            principalAmount,\r\n            collateralAmount\r\n        );\r\n\r\n        // update activity\r\n        uint256 borrowedAmountInUSD = _priceFeed.amountInUSD(\r\n            offer.principalToken,\r\n            principalAmount\r\n        );\r\n        _activity.borrowLoan(offer.creator, borrowedAmountInUSD);\r\n    }\r\n\r\n    /// @notice accept new borrowing request placed on a lender's offer\r\n    function acceptBorrowingRequest(uint256 requestId) public whenNotPaused {\r\n        RequestLibrary.Request memory request = _offerManager.getRequest(\r\n            requestId\r\n        );\r\n\r\n        OfferLibrary.Offer memory offer = _offerManager.getOffer(\r\n            request.offerId\r\n        );\r\n\r\n        uint256 principalAmount = percentageOf(\r\n            offer.initialPrincipal,\r\n            request.percentage\r\n        );\r\n\r\n        /* transfer principal to borrower */\r\n        if (offer.principalToken == nativeAddress) {\r\n            payable(request.creator).transfer(principalAmount);\r\n        } else {\r\n            ERC20(offer.principalToken).safeTransfer(\r\n                request.creator,\r\n                principalAmount\r\n            );\r\n        }\r\n\r\n        /* delegate the collateral to borrower */\r\n        _vaultManager.deposit(\r\n            request.creator,\r\n            request.collateralToken,\r\n            request.collateralAmount,\r\n            request.offerId\r\n        );\r\n\r\n        /* undelegate the principal from lender */\r\n        _vaultManager.withdraw(\r\n            _msgSender(),\r\n            offer.principalToken,\r\n            principalAmount,\r\n            request.offerId\r\n        );\r\n\r\n        /* register the loan from the loan manager */\r\n        _loanManager.createLoan(\r\n            request.offerId,\r\n            offer.offerType,\r\n            offer.principalToken,\r\n            request.collateralToken,\r\n            principalAmount,\r\n            request.collateralAmount,\r\n            request.collateralPriceInUSD,\r\n            request.interest,\r\n            request.daysToMaturity,\r\n            0,\r\n            request.creator,\r\n            _msgSender()\r\n        );\r\n\r\n        // will revert the transaction if fail\r\n        _offerManager.afterOfferBorrowingLoan(\r\n            request.offerId,\r\n            principalAmount,\r\n            request.collateralAmount\r\n        );\r\n\r\n        _offerManager.acceptRequest(requestId, _msgSender());\r\n\r\n        // update activity\r\n        uint256 amountBorrowedInUSD = _priceFeed.amountInUSD(\r\n            offer.principalToken,\r\n            principalAmount\r\n        );\r\n\r\n        _activity.borrowLoan(request.creator, amountBorrowedInUSD);\r\n    }\r\n\r\n    // @borrower\r\n    function createBorrowingOffer(\r\n        address principalToken,\r\n        uint256 principalAmount,\r\n        address collateralToken,\r\n        uint256 interest,\r\n        uint16 daysToMaturity,\r\n        uint16 hoursToExpire\r\n    ) public payable whenNotPaused {\r\n        uint256 principalAmountInUSD = _priceFeed.amountInUSD(\r\n            principalToken,\r\n            principalAmount\r\n        );\r\n\r\n        uint160 ltv = _ltv.getRelativeLTV(_msgSender(), principalAmountInUSD);\r\n\r\n        uint256 collateralNormalAmount = _priceFeed.exchangeRate(\r\n            principalToken,\r\n            collateralToken,\r\n            principalAmount\r\n        );\r\n\r\n        uint256 collateralAmount = percentageOf(\r\n            collateralNormalAmount,\r\n            ltv / _ltv.getBase()\r\n        );\r\n\r\n        /* extract collateral from borrower */\r\n        if (collateralToken == nativeAddress) {\r\n            require(msg.value >= collateralAmount);\r\n        } else {\r\n            ERC20(collateralToken).safeTransferFrom(\r\n                _msgSender(),\r\n                address(this),\r\n                collateralAmount\r\n            );\r\n        }\r\n\r\n        /* create the offer */\r\n        uint256 offerId = _offerManager.createBorrowingOffer(\r\n            principalToken,\r\n            collateralToken,\r\n            collateralAmount,\r\n            principalAmount,\r\n            interest,\r\n            daysToMaturity,\r\n            hoursToExpire,\r\n            _msgSender()\r\n        );\r\n\r\n        /* delegate the collateral to borrower */\r\n        _vaultManager.deposit(\r\n            _msgSender(),\r\n            collateralToken,\r\n            collateralAmount,\r\n            offerId\r\n        );\r\n\r\n        // update activity\r\n        uint256 amountInUSD = _priceFeed.amountInUSD(\r\n            collateralToken,\r\n            collateralAmount\r\n        );\r\n        _activity.dropCollateral(_msgSender(), amountInUSD);\r\n    }\r\n\r\n    // @borrower\r\n    function createBorrowingRequest(\r\n        uint256 offerId,\r\n        uint16 percentage,\r\n        address collateralToken,\r\n        uint256 interest,\r\n        uint16 daysToMaturity,\r\n        uint16 hoursToExpire\r\n    ) public payable whenNotPaused {\r\n        checkPercentage(percentage);\r\n\r\n        OfferLibrary.Offer memory offer = _offerManager.getOffer(offerId);\r\n\r\n        require(\r\n            _offerManager.isCollateralSupported(offerId, collateralToken),\r\n            \"ERR_COLLATERAL_NOT_SUPPORTED\"\r\n        );\r\n\r\n        uint256 principalAmount = percentageOf(\r\n            offer.initialPrincipal,\r\n            percentage\r\n        );\r\n\r\n        uint256 principalPriceInUSD = _priceFeed.amountInUSD(\r\n            offer.principalToken,\r\n            principalAmount\r\n        );\r\n\r\n        uint160 ltv = _ltv.getRelativeLTV(_msgSender(), principalPriceInUSD);\r\n\r\n        uint256 collateralNormalAmount = _priceFeed.exchangeRate(\r\n            offer.principalToken,\r\n            collateralToken,\r\n            principalAmount\r\n        );\r\n\r\n        uint256 collateralAmount = percentageOf(\r\n            collateralNormalAmount,\r\n            ltv / _ltv.getBase()\r\n        );\r\n\r\n        /* extract collateral from borrower */\r\n        if (collateralToken == nativeAddress) {\r\n            require(collateralAmount >= msg.value);\r\n        } else {\r\n            ERC20(collateralToken).safeTransferFrom(\r\n                _msgSender(),\r\n                address(this),\r\n                collateralAmount\r\n            );\r\n        }\r\n\r\n        uint256 collateralPriceInUSD = _priceFeed.amountInUSD(\r\n            collateralToken,\r\n            collateralAmount\r\n        );\r\n\r\n        /* create the request */\r\n        _offerManager.createBorrowingRequest(\r\n            percentage,\r\n            collateralToken,\r\n            collateralAmount,\r\n            collateralPriceInUSD,\r\n            ltv,\r\n            interest,\r\n            daysToMaturity,\r\n            hoursToExpire,\r\n            _msgSender(),\r\n            offerId\r\n        );\r\n\r\n        // update activity\r\n        _activity.dropCollateral(_msgSender(), collateralPriceInUSD);\r\n    }\r\n\r\n    // @borrower\r\n    function acceptLendingOffer(\r\n        uint256 offerId,\r\n        uint16 percentage,\r\n        address collateralToken\r\n    ) public payable whenNotPaused {\r\n        checkPercentage(percentage);\r\n\r\n        OfferLibrary.Offer memory offer = _offerManager.getOffer(offerId);\r\n\r\n        require(\r\n            _offerManager.isCollateralSupported(offerId, collateralToken),\r\n            \"ERR_COLLATERAL_NOT_SUPPORTED\"\r\n        );\r\n\r\n        uint256 principalAmount = percentageOf(\r\n            offer.initialPrincipal,\r\n            percentage\r\n        );\r\n\r\n        uint256 principalPriceInUSD = _priceFeed.amountInUSD(\r\n            offer.principalToken,\r\n            principalAmount\r\n        );\r\n\r\n        uint160 ltv = _ltv.getRelativeLTV(_msgSender(), principalPriceInUSD);\r\n\r\n        /* calculate the collateral amount */\r\n        uint256 collateralNormalAmount = _priceFeed.exchangeRate(\r\n            offer.principalToken,\r\n            collateralToken,\r\n            principalAmount\r\n        );\r\n\r\n        uint256 collateralAmount = percentageOf(\r\n            collateralNormalAmount,\r\n            ltv / _ltv.getBase()\r\n        );\r\n\r\n        /* extract collateral tokens from borrower */\r\n        if (collateralToken == nativeAddress) {\r\n            require(collateralAmount >= msg.value, \"ERR_COLLATERAL_AMOUNT\");\r\n        } else {\r\n            ERC20(collateralToken).safeTransferFrom(\r\n                _msgSender(),\r\n                address(this),\r\n                collateralAmount\r\n            );\r\n        }\r\n\r\n        /* delegate the loan collateral to lender */\r\n        _vaultManager.deposit(\r\n            _msgSender(),\r\n            collateralToken,\r\n            collateralAmount,\r\n            offerId\r\n        );\r\n\r\n        /* undelegate the loan principal from lender */\r\n        _vaultManager.withdraw(\r\n            _msgSender(),\r\n            offer.principalToken,\r\n            principalAmount,\r\n            offerId\r\n        );\r\n\r\n        uint256 collateralPriceInUSD = _priceFeed.amountInUSD(\r\n            collateralToken,\r\n            collateralAmount\r\n        );\r\n\r\n        /* register the loan */\r\n        _loanManager.createLoan(\r\n            offerId,\r\n            offer.offerType,\r\n            offer.principalToken,\r\n            collateralToken,\r\n            principalAmount,\r\n            collateralAmount,\r\n            collateralPriceInUSD,\r\n            offer.interest,\r\n            offer.daysToMaturity,\r\n            principalAmount,\r\n            _msgSender(),\r\n            offer.creator\r\n        );\r\n\r\n        // will revert if transaction fail\r\n        _offerManager.afterOfferLendingLoan(offerId, principalAmount);\r\n\r\n        // update activity\r\n        uint256 amountBorrowedInUSD = _priceFeed.amountInUSD(\r\n            offer.principalToken,\r\n            principalAmount\r\n        );\r\n        _activity.borrowLoan(_msgSender(), amountBorrowedInUSD);\r\n        _activity.dropCollateral(_msgSender(), collateralPriceInUSD);\r\n    }\r\n\r\n    // @borrower\r\n    function acceptLendingRequest(uint256 requestId)\r\n        public\r\n        payable\r\n        whenNotPaused\r\n    {\r\n        RequestLibrary.Request memory request = _offerManager.getRequest(\r\n            requestId\r\n        );\r\n\r\n        OfferLibrary.Offer memory offer = _offerManager.getOffer(\r\n            request.offerId\r\n        );\r\n\r\n        uint256 collateralAmount = percentageOf(\r\n            offer.initialCollateral,\r\n            request.percentage\r\n        );\r\n\r\n        uint256 principalAmount = percentageOf(\r\n            offer.initialPrincipal,\r\n            request.percentage\r\n        );\r\n\r\n        /* transfer principal to borrower */\r\n        if (offer.principalToken == nativeAddress) {\r\n            payable(_msgSender()).transfer(principalAmount);\r\n        } else {\r\n            ERC20(offer.principalToken).safeTransfer(\r\n                _msgSender(),\r\n                principalAmount\r\n            );\r\n        }\r\n\r\n        /* delegate the loan collateral to lender */\r\n        _vaultManager.deposit(\r\n            _msgSender(),\r\n            offer.collateralToken,\r\n            collateralAmount,\r\n            request.offerId\r\n        );\r\n\r\n        /* undelegate the loan principal from lender */\r\n        _vaultManager.withdraw(\r\n            _msgSender(),\r\n            offer.principalToken,\r\n            principalAmount,\r\n            request.offerId\r\n        );\r\n\r\n        uint256 collateralPriceInUSD = _priceFeed.amountInUSD(\r\n            offer.collateralToken,\r\n            collateralAmount\r\n        );\r\n\r\n        /* register the loan from the loan manager */\r\n        _loanManager.createLoan(\r\n            request.offerId,\r\n            offer.offerType,\r\n            offer.principalToken,\r\n            offer.collateralToken,\r\n            principalAmount,\r\n            collateralAmount,\r\n            collateralPriceInUSD,\r\n            request.interest,\r\n            request.daysToMaturity,\r\n            0,\r\n            _msgSender(),\r\n            request.creator\r\n        );\r\n\r\n        // will revert the transaction if fail\r\n        _offerManager.afterOfferLendingLoan(offer.offerId, principalAmount);\r\n\r\n        _offerManager.acceptRequest(requestId, _msgSender());\r\n\r\n        // update activityj\r\n        uint256 amountBorrowedInUSD = _priceFeed.amountInUSD(\r\n            offer.principalToken,\r\n            principalAmount\r\n        );\r\n\r\n        _activity.borrowLoan(_msgSender(), amountBorrowedInUSD);\r\n    }\r\n\r\n    // @lender\r\n    function reActivateOffer(uint256 offerId, uint16 toExpire)\r\n        public\r\n        whenNotPaused\r\n    {\r\n        _offerManager.reActivateOffer(offerId, toExpire, _msgSender());\r\n    }\r\n\r\n    // @borrower\r\n    function repayLoan(uint256 loanId, uint16 percentage)\r\n        public\r\n        payable\r\n        whenNotPaused\r\n    {\r\n        checkPercentage(percentage);\r\n\r\n        LoanLibrary.Loan memory loan = _loanManager.getLoan(loanId);\r\n\r\n        // verify the borrower is the repayer\r\n        require(loan.borrower == _msgSender(), \"ERR_NOT_BORROWER\");\r\n\r\n        // calculate the duration of the loan\r\n        uint256 time = block.timestamp;\r\n        uint256 ellapsedSecs = (time - loan.startDate);\r\n\r\n        uint256 principalAmount = percentageOf(\r\n            loan.initialPrincipal,\r\n            percentage\r\n        );\r\n\r\n        uint256 collateralAmount = percentageOf(\r\n            loan.initialCollateral,\r\n            percentage\r\n        );\r\n\r\n        // calculate the pay back amount\r\n        uint256 repaymentPrincipal = getFullInterestAmount(\r\n            principalAmount,\r\n            ellapsedSecs,\r\n            loan.interest\r\n        );\r\n\r\n        uint256 interestPaid = (repaymentPrincipal - principalAmount);\r\n        uint256 fee = percentageOf(interestPaid, _feeManager.feePercentage());\r\n        uint256 unClaimedInterest = (interestPaid - fee);\r\n\r\n        _feeManager.credit(loan.principalToken, fee);\r\n\r\n        // will revert the transaction if fail\r\n        bool completed = _loanManager.repayLoan(\r\n            loanId,\r\n            unClaimedInterest,\r\n            principalAmount,\r\n            collateralAmount\r\n        );\r\n\r\n        /* extract pay back amount */\r\n        if (loan.principalToken == nativeAddress) {\r\n            require(msg.value >= repaymentPrincipal);\r\n        } else {\r\n            ERC20(loan.principalToken).safeTransferFrom(\r\n                _msgSender(),\r\n                address(this),\r\n                repaymentPrincipal\r\n            );\r\n        }\r\n\r\n        // update activity\r\n        uint256 interestPaidInUSD = _priceFeed.amountInUSD(\r\n            loan.principalToken,\r\n            (repaymentPrincipal - principalAmount)\r\n        );\r\n\r\n        uint256 amountPaidInUSD = _priceFeed.amountInUSD(\r\n            loan.principalToken,\r\n            principalAmount\r\n        );\r\n\r\n        _activity.repayLoan(\r\n            _msgSender(),\r\n            amountPaidInUSD,\r\n            interestPaidInUSD,\r\n            completed\r\n        );\r\n    }\r\n\r\n    function rejectRequest(uint256 requestId) public whenNotPaused {\r\n        _offerManager.rejectRequest(requestId, _msgSender());\r\n    }\r\n\r\n    function cancelLendRequest(uint256 requestId) public whenNotPaused {\r\n        RequestLibrary.Request memory request = _offerManager.getRequest(\r\n            requestId\r\n        );\r\n\r\n        require(\r\n            request.requestType == RequestLibrary.Type.LENDING_REQUEST,\r\n            \"ERR_REQUEST_TYPE\"\r\n        );\r\n\r\n        OfferLibrary.Offer memory offer = _offerManager.getOffer(\r\n            request.offerId\r\n        );\r\n\r\n        uint256 principalAmount = percentageOf(\r\n            offer.initialPrincipal,\r\n            request.percentage\r\n        );\r\n\r\n        if (offer.principalToken == nativeAddress) {\r\n            payable(_msgSender()).transfer(principalAmount);\r\n        } else {\r\n            ERC20(offer.principalToken).safeTransfer(\r\n                _msgSender(),\r\n                principalAmount\r\n            );\r\n        }\r\n\r\n        _offerManager.cancelRequest(requestId, _msgSender());\r\n    }\r\n\r\n    function cancelBorrowRequest(uint256 requestId) public whenNotPaused {\r\n        RequestLibrary.Request memory request = _offerManager.getRequest(\r\n            requestId\r\n        );\r\n\r\n        require(\r\n            request.requestType == RequestLibrary.Type.BORROWING_REQUEST,\r\n            \"ERR_REQUEST_TYPE\"\r\n        );\r\n\r\n        OfferLibrary.Offer memory offer = _offerManager.getOffer(\r\n            request.offerId\r\n        );\r\n\r\n        if (offer.collateralToken == nativeAddress) {\r\n            payable(_msgSender()).transfer(request.collateralAmount);\r\n        } else {\r\n            ERC20(offer.collateralToken).safeTransfer(\r\n                _msgSender(),\r\n                request.collateralAmount\r\n            );\r\n        }\r\n\r\n        _offerManager.cancelRequest(requestId, _msgSender());\r\n    }\r\n\r\n    function claimCollateral(uint256 loanId) public nonReentrant whenNotPaused {\r\n        (uint256 amount, address token) = _loanManager.claimCollateral(\r\n            loanId,\r\n            _msgSender()\r\n        );\r\n\r\n        if (token == nativeAddress) {\r\n            payable(_msgSender()).transfer(amount);\r\n        } else {\r\n            ERC20(token).safeTransfer(_msgSender(), amount);\r\n        }\r\n    }\r\n\r\n    function claimLoanPrincipal(uint256 loanId)\r\n        public\r\n        nonReentrant\r\n        whenNotPaused\r\n    {\r\n        (uint256 amount, address token) = _loanManager.claimLoanPrincipal(\r\n            loanId,\r\n            _msgSender()\r\n        );\r\n\r\n        if (token == nativeAddress) {\r\n            payable(_msgSender()).transfer(amount);\r\n        } else {\r\n            ERC20(token).safeTransfer(_msgSender(), amount);\r\n        }\r\n    }\r\n\r\n    function claimPrincipal(uint256 loanId) public nonReentrant whenNotPaused {\r\n        (uint256 amount, address token) = _loanManager.claimPrincipal(\r\n            loanId,\r\n            _msgSender()\r\n        );\r\n\r\n        if (token == nativeAddress) {\r\n            payable(_msgSender()).transfer(amount);\r\n        } else {\r\n            ERC20(token).safeTransfer(_msgSender(), amount);\r\n        }\r\n    }\r\n\r\n    function claimDefaultCollateral(uint256 loanId)\r\n        public\r\n        nonReentrant\r\n        whenNotPaused\r\n    {\r\n        (uint256 amount, address token) = _loanManager.claimDefaultCollateral(\r\n            loanId,\r\n            _msgSender()\r\n        );\r\n\r\n        if (token == nativeAddress) {\r\n            payable(_msgSender()).transfer(amount);\r\n        } else {\r\n            ERC20(token).safeTransfer(_msgSender(), amount);\r\n        }\r\n    }\r\n\r\n    function repayLiquidatedLoan(uint256 loanId) public payable nonReentrant {}\r\n\r\n    // ============= ABOUT ============ //\r\n\r\n    function getVersion() public pure returns (uint256) {\r\n        return LENDINGPOOL_VERSION;\r\n    }\r\n\r\n    // ============= ADMIN FUNCTIONS =============== //\r\n\r\n    function liquidateLoan(uint256 loanId) public onlyOwner nonReentrant {\r\n        LoanLibrary.Loan memory loan = _loanManager.getLoan(loanId);\r\n\r\n        // calculate the duration of the loan\r\n        uint256 time = block.timestamp;\r\n        uint256 ellapsedSecs = (time - loan.startDate);\r\n\r\n        uint256 repaymentPrincipal = getFullInterestAmount(\r\n            loan.currentPrincipal,\r\n            ellapsedSecs,\r\n            loan.interest\r\n        );\r\n\r\n        uint256 repaymentCollateral = _priceFeed.exchangeRate(\r\n            loan.principalToken,\r\n            loan.collateralToken,\r\n            repaymentPrincipal\r\n        );\r\n\r\n        uint256 interestInCollateral = _priceFeed.exchangeRate(\r\n            loan.principalToken,\r\n            loan.collateralToken,\r\n            (repaymentPrincipal - loan.currentPrincipal)\r\n        );\r\n\r\n        uint256 principalPaid;\r\n        uint256 collateralRetrieved;\r\n        uint256 collateralFee;\r\n\r\n        uint256 fee = percentageOf(\r\n            interestInCollateral,\r\n            _feeManager.feePercentage()\r\n        );\r\n\r\n        if (loan.currentCollateral >= (repaymentCollateral - fee)) {\r\n            collateralRetrieved = (repaymentCollateral - fee);\r\n            principalPaid = loan.currentPrincipal;\r\n\r\n            if (loan.currentCollateral >= repaymentCollateral) {\r\n                collateralFee = fee;\r\n            } else {\r\n                collateralRetrieved = loan.currentCollateral;\r\n                collateralFee = (loan.currentCollateral -\r\n                    (repaymentCollateral - fee));\r\n            }\r\n        } else {\r\n            collateralRetrieved = loan.currentCollateral;\r\n\r\n            uint256 collateralInPrincipal = _priceFeed.exchangeRate(\r\n                loan.collateralToken,\r\n                loan.principalToken,\r\n                collateralRetrieved\r\n            );\r\n\r\n            principalPaid = collateralInPrincipal;\r\n            collateralFee = 0;\r\n        }\r\n\r\n        _feeManager.credit(loan.collateralToken, collateralFee);\r\n\r\n        _loanManager.liquidateLoan(\r\n            loanId,\r\n            principalPaid,\r\n            collateralRetrieved,\r\n            (collateralRetrieved - collateralFee)\r\n        );\r\n    }\r\n\r\n    function setFeeds(\r\n        address ltv_,\r\n        address activity_,\r\n        address priceFeed_\r\n    ) public onlyOwner nonReentrant {\r\n        _ltv = ILoanToValueRatio(ltv_);\r\n        _activity = Activity(activity_);\r\n        _priceFeed = IPriceFeed(priceFeed_);\r\n    }\r\n\r\n    function setManagers(\r\n        address vaultManager_,\r\n        address loanManager_,\r\n        address offerManager_,\r\n        address feeManager_\r\n    ) public onlyOwner nonReentrant {\r\n        _vaultManager = IVaultManager(vaultManager_);\r\n        _loanManager = ILoanManager(loanManager_);\r\n        _offerManager = IOfferManager(offerManager_);\r\n        _feeManager = IFeeManager(feeManager_);\r\n    }\r\n\r\n    /// @dev to claim revenue\r\n    function claim(\r\n        address token,\r\n        address payable receiver,\r\n        uint256 amount\r\n    ) public onlyOwner nonReentrant {\r\n        require(amount > 0, \"ERR_ZERO_AMOUNT\");\r\n        _feeManager.debit(token, amount);\r\n        if (token == nativeAddress) {\r\n            receiver.transfer(amount);\r\n        } else {\r\n            ERC20(token).safeTransfer(receiver, amount);\r\n        }\r\n    }\r\n}\r\n",
  "sourcePath": "C:\\Users\\DELL\\Documents\\darsh\\smart-contracts\\contracts\\LendingPool.sol",
  "compiler": {
    "name": "solc",
    "version": "0.8.17+commit.8df45f5f.Emscripten.clang"
  },
  "schemaVersion": "3.4.11",
  "updatedAt": "2023-02-21T15:06:15.790Z",
  "devdoc": {
    "author": "Arogundade Ibrahim*",
    "details": "Main point of interaction with the DARSH protocol's market - Users can:   # Create Lending/Borrowing offers   # Request for new terms on offers   # Repay (Fully/Installment)   # Claim principal and earnings   # Claim back collateral   # Cancel/Reject/Accept requests - All admin functions are callable by the deployer address",
    "kind": "dev",
    "methods": {
      "acceptOwnership()": {
        "details": "The new owner accepts the ownership transfer."
      },
      "claim(address,address,uint256)": {
        "details": "to claim revenue"
      },
      "createLendingOffer(uint256,address,address[],uint16,uint256,uint16)": {
        "details": "the principalAmount_ parameter is use for ERC20 tokens only"
      },
      "createLendingRequest(uint256,uint16,uint16,uint256,uint16)": {
        "details": "Explain to a developer any extra details"
      },
      "owner()": {
        "details": "Returns the address of the current owner."
      },
      "paused()": {
        "details": "Returns true if the contract is paused, and false otherwise."
      },
      "pendingOwner()": {
        "details": "Returns the address of the pending owner."
      },
      "renounceOwnership()": {
        "details": "Leaves the contract without owner. It will not be possible to call `onlyOwner` functions anymore. Can only be called by the current owner. NOTE: Renouncing ownership will leave the contract without an owner, thereby removing any functionality that is only available to the owner."
      },
      "transferOwnership(address)": {
        "details": "Starts the ownership transfer of the contract to a new account. Replaces the pending transfer if there is one. Can only be called by the current owner."
      }
    },
    "stateVariables": {
      "LENDINGPOOL_VERSION": {
        "details": "contract version"
      },
      "nativeAddress": {
        "details": "for convienency this address is used to represent FTM just like ERC20"
      }
    },
    "title": "LendingPool contract",
    "version": 1
  },
  "userdoc": {
    "kind": "user",
    "methods": {
      "acceptBorrowingRequest(uint256)": {
        "notice": "accept new borrowing request placed on a lender's offer"
      },
      "createLendingOffer(uint256,address,address[],uint16,uint256,uint16)": {
        "notice": "This function creates a lending new lending offer"
      },
      "createLendingRequest(uint256,uint16,uint16,uint256,uint16)": {
        "notice": "Explain to an end user what this does"
      }
    },
    "version": 1
  }
}