{
  "contractName": "LendingPool",
  "abi": [
    {
      "inputs": [
        {
          "internalType": "address",
          "name": "poolManager_",
          "type": "address"
        },
        {
          "internalType": "address",
          "name": "loanManager_",
          "type": "address"
        },
        {
          "internalType": "address",
          "name": "offerManager_",
          "type": "address"
        }
      ],
      "stateMutability": "nonpayable",
      "type": "constructor"
    },
    {
      "inputs": [],
      "name": "INTEREST_RATE_DENOMINATOR",
      "outputs": [
        {
          "internalType": "uint256",
          "name": "",
          "type": "uint256"
        }
      ],
      "stateMutability": "view",
      "type": "function"
    },
    {
      "inputs": [],
      "name": "PERCENT",
      "outputs": [
        {
          "internalType": "uint16",
          "name": "",
          "type": "uint16"
        }
      ],
      "stateMutability": "view",
      "type": "function"
    },
    {
      "inputs": [
        {
          "internalType": "uint256",
          "name": "principal",
          "type": "uint256"
        },
        {
          "internalType": "uint256",
          "name": "durationSecs",
          "type": "uint256"
        },
        {
          "internalType": "uint256",
          "name": "interest",
          "type": "uint256"
        }
      ],
      "name": "getFullInterestAmount",
      "outputs": [
        {
          "internalType": "uint256",
          "name": "",
          "type": "uint256"
        }
      ],
      "stateMutability": "pure",
      "type": "function"
    },
    {
      "inputs": [],
      "name": "nativeAddress",
      "outputs": [
        {
          "internalType": "address",
          "name": "",
          "type": "address"
        }
      ],
      "stateMutability": "view",
      "type": "function"
    },
    {
      "inputs": [
        {
          "internalType": "uint256",
          "name": "total",
          "type": "uint256"
        },
        {
          "internalType": "uint160",
          "name": "percent",
          "type": "uint160"
        }
      ],
      "name": "percentageInverseOf",
      "outputs": [
        {
          "internalType": "uint256",
          "name": "",
          "type": "uint256"
        }
      ],
      "stateMutability": "pure",
      "type": "function"
    },
    {
      "inputs": [
        {
          "internalType": "uint256",
          "name": "total",
          "type": "uint256"
        },
        {
          "internalType": "uint160",
          "name": "percent",
          "type": "uint160"
        }
      ],
      "name": "percentageOf",
      "outputs": [
        {
          "internalType": "uint256",
          "name": "",
          "type": "uint256"
        }
      ],
      "stateMutability": "pure",
      "type": "function"
    },
    {
      "inputs": [
        {
          "internalType": "uint256",
          "name": "principalAmount_",
          "type": "uint256"
        },
        {
          "internalType": "address",
          "name": "principalToken",
          "type": "address"
        },
        {
          "internalType": "address[]",
          "name": "collateralTokens",
          "type": "address[]"
        },
        {
          "internalType": "uint16",
          "name": "daysToMaturity",
          "type": "uint16"
        },
        {
          "internalType": "uint256",
          "name": "interest",
          "type": "uint256"
        },
        {
          "internalType": "uint16",
          "name": "daysToExpire",
          "type": "uint16"
        }
      ],
      "name": "createLendingOffer",
      "outputs": [],
      "stateMutability": "payable",
      "type": "function"
    },
    {
      "inputs": [
        {
          "internalType": "uint160",
          "name": "offerId",
          "type": "uint160"
        },
        {
          "internalType": "uint16",
          "name": "percentage",
          "type": "uint16"
        },
        {
          "internalType": "uint16",
          "name": "daysToMaturity",
          "type": "uint16"
        },
        {
          "internalType": "uint256",
          "name": "interest",
          "type": "uint256"
        },
        {
          "internalType": "uint16",
          "name": "daysToExpire",
          "type": "uint16"
        }
      ],
      "name": "createLendingRequest",
      "outputs": [],
      "stateMutability": "payable",
      "type": "function"
    },
    {
      "inputs": [
        {
          "internalType": "uint160",
          "name": "offerId",
          "type": "uint160"
        },
        {
          "internalType": "uint16",
          "name": "percentage",
          "type": "uint16"
        }
      ],
      "name": "acceptBorrowingOffer",
      "outputs": [],
      "stateMutability": "payable",
      "type": "function"
    },
    {
      "inputs": [
        {
          "internalType": "uint256",
          "name": "requestId",
          "type": "uint256"
        }
      ],
      "name": "acceptBorrowingRequest",
      "outputs": [],
      "stateMutability": "nonpayable",
      "type": "function"
    },
    {
      "inputs": [
        {
          "internalType": "address",
          "name": "principalToken",
          "type": "address"
        },
        {
          "internalType": "address",
          "name": "collateralToken",
          "type": "address"
        },
        {
          "internalType": "uint256",
          "name": "collateralAmount_",
          "type": "uint256"
        },
        {
          "internalType": "uint256",
          "name": "interest",
          "type": "uint256"
        },
        {
          "internalType": "uint16",
          "name": "daysToMaturity",
          "type": "uint16"
        },
        {
          "internalType": "uint16",
          "name": "daysToExpire",
          "type": "uint16"
        }
      ],
      "name": "createBorrowingOffer",
      "outputs": [],
      "stateMutability": "payable",
      "type": "function"
    },
    {
      "inputs": [
        {
          "internalType": "uint160",
          "name": "offerId",
          "type": "uint160"
        },
        {
          "internalType": "uint16",
          "name": "percentage",
          "type": "uint16"
        },
        {
          "internalType": "address",
          "name": "collateralToken",
          "type": "address"
        },
        {
          "internalType": "uint256",
          "name": "interest",
          "type": "uint256"
        },
        {
          "internalType": "uint16",
          "name": "daysToMaturity",
          "type": "uint16"
        },
        {
          "internalType": "uint16",
          "name": "daysToExpire",
          "type": "uint16"
        }
      ],
      "name": "createBorrowingRequest",
      "outputs": [],
      "stateMutability": "payable",
      "type": "function"
    },
    {
      "inputs": [
        {
          "internalType": "uint160",
          "name": "offerId",
          "type": "uint160"
        },
        {
          "internalType": "uint16",
          "name": "percentage",
          "type": "uint16"
        },
        {
          "internalType": "address",
          "name": "collateralToken",
          "type": "address"
        }
      ],
      "name": "acceptLendingOffer",
      "outputs": [],
      "stateMutability": "payable",
      "type": "function"
    },
    {
      "inputs": [
        {
          "internalType": "uint256",
          "name": "requestId",
          "type": "uint256"
        }
      ],
      "name": "acceptLendingRequest",
      "outputs": [],
      "stateMutability": "payable",
      "type": "function"
    },
    {
      "inputs": [],
      "name": "reActivateOffer",
      "outputs": [],
      "stateMutability": "payable",
      "type": "function"
    },
    {
      "inputs": [],
      "name": "reActivateRequest",
      "outputs": [],
      "stateMutability": "payable",
      "type": "function"
    },
    {
      "inputs": [
        {
          "internalType": "uint256",
          "name": "loanId",
          "type": "uint256"
        },
        {
          "internalType": "uint16",
          "name": "percentage",
          "type": "uint16"
        }
      ],
      "name": "repayLoan",
      "outputs": [],
      "stateMutability": "payable",
      "type": "function"
    },
    {
      "inputs": [
        {
          "internalType": "uint256",
          "name": "loanId",
          "type": "uint256"
        }
      ],
      "name": "repayLiquidatedLoan",
      "outputs": [],
      "stateMutability": "payable",
      "type": "function"
    },
    {
      "inputs": [
        {
          "internalType": "address",
          "name": "ltv_",
          "type": "address"
        }
      ],
      "name": "setLTV",
      "outputs": [],
      "stateMutability": "nonpayable",
      "type": "function"
    },
    {
      "inputs": [
        {
          "internalType": "address",
          "name": "activity_",
          "type": "address"
        }
      ],
      "name": "setActivity",
      "outputs": [],
      "stateMutability": "nonpayable",
      "type": "function"
    },
    {
      "inputs": [
        {
          "internalType": "address",
          "name": "priceFeed_",
          "type": "address"
        }
      ],
      "name": "setPriceFeed",
      "outputs": [],
      "stateMutability": "nonpayable",
      "type": "function"
    },
    {
      "inputs": [
        {
          "internalType": "address",
          "name": "newOwner",
          "type": "address"
        }
      ],
      "name": "changeOwner",
      "outputs": [],
      "stateMutability": "nonpayable",
      "type": "function"
    }
  ],
  "bytecode": "0x608034620000ba57601f6200398138819003918201601f19168301916001600160401b03831184841017620000bf57808492606094604052833981010312620000ba576200004d81620000d5565b906200006a60406200006260208401620000d5565b9201620000d5565b600160005560018060a01b0380928160018060a01b031995168560055416176005551683600654161760065516816007541617600755339060015416176001556040516138969081620000eb8239f35b600080fd5b634e487b7160e01b600052604160045260246000fd5b51906001600160a01b0382168203620000ba5756fe6080604052600436101561001257600080fd5b6000803560e01c806310e14e19146131da5780632e476337146131ab57806331f00e8d14612bef57806337787d51146101415780634ab2618c146126595780634add7c82146120825780635c7f31aa14611b305780635cb933981461122957806361ba944314611219578063628118ee14610ccf578063724e78da14610c845780639ca6005f14610779578063a6f9dae114610730578063afaa069114610518578063b85a8b20146104fc578063c1bc89ef14610205578063cc3266e8146101e2578063e0b26959146101bb578063e0f7dffd14610196578063e3f43fdb1461014b578063eb1f613d146101415763f4e02f4614610110575b600080fd5b3461013e57604036600319011261013e57602061013661012e613251565b600435613829565b604051908152f35b80fd5b505061010b61329a565b503461013e57602036600319011261013e57610165613225565b6001546001600160a01b03919061017f90831633146136ec565b166001600160601b0360a01b600254161760025580f35b503461013e57606036600319011261013e5760206101366044356024356004356137d8565b503461013e57604036600319011261013e5760206101366101da613251565b600435613805565b503461013e578060031936011261013e576020604051670de0b6b3a76400008152f35b5060c036600319011261013e5761021a613251565b60443567ffffffffffffffff81116104215736602382011215610421578060040135610245816132df565b9061025360405192836132bd565b8082526020928383016024819360051b830101913683116104f857602401905b8282106104d9575050506064359161ffff80841680940361010b57610296613289565b91805115610494576001600160a01b038781169390929073eeeeeeeeeeeeeeeeeeeeeeeeeeeeeeeeeeeeeeee8503610425578934995b8560055416803b1561042157604051638340f54960e01b81523360048201526001600160a01b03929092166024830152604482018c905282908290606490829084905af18015610416576103fe575b5093919288979996938360079793975416966040519b8c9963031137cd60e61b8b5260e48b019560048c015260248b015260843560448b015260648a015216608488015260e060a4880152518091526101048601929184905b8282106103dd5750505050908380923360c483015203925af180156103d25761039b578280f35b81813d83116103cb575b6103af81836132bd565b810103126103c7576103c09061330f565b5038808280f35b5080fd5b503d6103a5565b6040513d85823e3d90fd5b83518116855289988b98508c96509485019490930192600190910190610374565b610407906132a9565b61041257893861031b565b8980fd5b6040513d84823e3d90fd5b8280fd5b6040516323b872dd60e01b8152336004808301919091523060248301523560448201819052998b918a81606481868c5af180156103d257610467575b506102cc565b610486908b3d8d1161048d575b61047e81836132bd565b8101906132f7565b5038610461565b503d610474565b60405162461bcd60e51b815260048101879052601760248201527f4552525f4e4f5f434f4c4c41544552414c5f54595045530000000000000000006044820152606490fd5b81356001600160a01b038116810361010b578152908501908501610273565b8780fd5b503461013e578060031936011261013e57602060405160648152f35b5060a036600319011261013e5761052d613225565b610535613267565b906044359061ffff80831680930361010b578492610551613278565b9461055b81613729565b60018060a01b03948593818560075416966024604051809a8193630ce7621960e11b835216998a60048301525afa96871561041657829761070c575b506105aa81606089015194168094613805565b956020809801968688511673eeeeeeeeeeeeeeeeeeeeeeeeeeeeeeeeeeeeeeee81146000146106a557508034106106a1575b86806005541698511690883b1561069d57604051638340f54960e01b81523360048201526001600160a01b0392909216602483015260448201529683908890606490829084905af19586156103d2578896610682575b60c4959697506007541691604051998a97889663ab488b0b60e01b885260048801526064356024880152604487015216606485015233608485015260a48401525af180156103d25761039b578280f35b9495509561069083916132a9565b6103c75785879594610632565b8480fd5b8380fd5b6040516323b872dd60e01b815233600482015230602482015260448101839052908a908290606490829089905af18015610701576106e4575b506105dc565b6106fa908a3d8c1161048d5761047e81836132bd565b50386106de565b6040513d87823e3d90fd5b6107299197503d8084833e61072181836132bd565b810190613332565b9538610597565b503461013e57602036600319011261013e5761074a613225565b600154906001600160a01b039061076433838516146136ec565b16906001600160601b0360a01b161760015580f35b5060c036600319011261013e578061078f613225565b610797613251565b90604435906107a4613278565b906107ad613289565b906001600160a01b03851673eeeeeeeeeeeeeeeeeeeeeeeeeeeeeeeeeeeeeeee03610c1c5734935061081f925b600354604051631c07d98160e21b81526001600160a01b03888116600483015284811660248301526044820188905290956020928792169082908b9082906064820190565b03925af1938415610c11578794610bda575b5060035460405163912d228f60e01b8082526001600160a01b0385811660048401526024830188905290969192602091849160449183918e91165af1918215610b03578992610ba2575b50600480546040516322a0fe3360e21b815233928101929092526024820193909352916001600160a01b03169060208380604481015b0381855afa928315610b97578a93610b52575b506108d3600493602092613829565b9160405193848092636882509b60e11b82525afa918215610b03578992610b12575b5060ff6109039216906135ac565b9060018060a01b036005541690813b15610b0e57604051638340f54960e01b81523360048201526001600160a01b0389166024820152604481018890529189908390606490829084905af1918215610b03578992610aeb575b5060075460405163486c386960e11b81526001600160a01b0395861660048201528986166024820152604481018990526064808201959095529335608485015261ffff91821660a4850152941660c48301523360e483015290926020928492610104928492165af1801561070157610aa7575b506003546040519182526001600160a01b039384166004830152602482019290925291602091839116818581604481015b03925af1908115610416578291610a72575b506002546001600160a01b0316803b15610a6e5760405163094f618d60e11b8152336004820152602481019290925282908290818381604481015b03925af1801561041657610a5e5750f35b610a67906132a9565b61013e5780f35b5050fd5b9150506020813d602011610a9f575b81610a8e602093836132bd565b8101031261010b5781905138610a12565b3d9150610a81565b91906020833d602011610ae3575b81610ac2602093836132bd565b8101031261069d57610a0093610ad960209461330f565b50935090916109cf565b3d9150610ab5565b610af7909291926132a9565b6104f85787903861095c565b6040513d8b823e3d90fd5b8880fd5b91506020823d602011610b4a575b81610b2d602093836132bd565b81010312610b0e5760ff610b436109039361359e565b92506108f5565b3d9150610b20565b92506020833d602011610b8f575b81610b6d602093836132bd565b81010312610412576108d3602091610b8660049561330f565b945091506108c4565b3d9150610b60565b6040513d8c823e3d90fd5b915097506020813d602011610bd2575b81610bbf602093836132bd565b8101031261010b575188976108b161087b565b3d9150610bb2565b965092506020863d602011610c09575b81610bf7602093836132bd565b8101031261010b578695519238610831565b3d9150610bea565b6040513d89823e3d90fd5b6040516323b872dd60e01b815233600482015230602482015260448101859052926020846064818a6001600160a01b038b165af1938415610c115761081f94610c66575b506107da565b610c7d9060203d811161048d5761047e81836132bd565b5038610c60565b503461013e57602036600319011261013e57610c9e613225565b6001546001600160a01b039190610cb890831633146136ec565b166001600160601b0360a01b600354161760035580f35b50604036600319011261013e5760043590610ce8613267565b91610cf283613729565b600654604051632820036560e11b8152600481018390526024946001600160a01b0392909190831661020080838981855afa928315610c115787936110c8575b5050836101c08301511633036110915783610160830151168442160384811161107c578695610d8c610d7c610d7161ffff60a088015198168098613805565b9660e0870151613805565b92876101408701519116876137d8565b926040519163464244f960e11b83526004830152858a8301528260448301528160648160209a8b945af18015610f7a5761105f575b50606083018051909373eeeeeeeeeeeeeeeeeeeeeeeeeeeeeeeeeeeeeeee918716828103610ff85750833410610b0e57918789939288608086955b015116908103610fa1575050818091818115610f98575b3390f115610701575b83600354168483511691848103908111610f855760405163912d228f60e01b8082526001600160a01b0394909416600482015260248101919091529697889796909590949093909290918590889060449082908c905af1968715610f7a578897610f42575b50600354915160405191825284166001600160a01b0316600482015260248101929092528390829060449082908a9087165af1928315610f37578693610f04575b505060025416803b1561069d57849283606492604051968795869463720722fd60e01b865233600487015285015260448401525af1801561041657610a5e5750f35b819650809293503d8311610f30575b610f1d81836132bd565b8101031261010b57849351903880610ec2565b503d610f13565b6040513d88823e3d90fd5b9297509550908381813d8111610f73575b610f5d81836132bd565b8101031261010b57518796909590919084610e81565b503d610f53565b6040513d8a823e3d90fd5b634e487b7160e01b885260116004528888fd5b506108fc610e13565b60405163a9059cbb60e01b815233600482015260248101939093529193909250839160449183915af18015610c1157610fdb575b50610e1c565b610ff190863d881161048d5761047e81836132bd565b5038610fd5565b6040516323b872dd60e01b815233600482015230602482015260448101869052908990829060649082908e905af18015610b9757928860808c96948c948897611042575b50610dfc565b61105890863d881161048d5761047e81836132bd565b503861103c565b61107590873d891161048d5761047e81836132bd565b5038610dc1565b87634e487b7160e01b60005260116004526000fd5b60405162461bcd60e51b8152602060048201526010818901526f22a9292fa727aa2fa127a92927aba2a960811b6044820152606490fd5b908092935081813d8311611212575b6110e181836132bd565b8101031261120e5760405191820182811067ffffffffffffffff8211176111f95760405261110e8161330f565b8252602081015160038110156104f8576020830152604081015160028110156104f85760408301526111426060820161330f565b60608301526111536080820161330f565b608083015260a081015160a083015260c081015160c083015260e081015160e08301526101008082015190830152610120808201519083015261014080820151908301526101606111a581830161330f565b908301526101806111b781830161330f565b908301526101a06111c981830161359e565b908301526101c06111db81830161330f565b908301526111ed6101e080920161330f565b90820152903880610d32565b88634e487b7160e01b60005260416004526000fd5b8680fd5b503d6110d7565b50602036600319011261013e5780f35b50606036600319011261013e5761123e613225565b90611247613267565b61124f61323b565b9061125981613729565b600754604051630ce7621960e11b81526001600160a01b038681166004830152602496919391921685848881845afa938415610f37578694611b14575b50604051634cf732f160e11b81526001600160a01b0384811660048301528616602482015290602090829060449082905afa908115610f37576112f592916112e5918891611af5575b506135cc565b61ffff6060850151911690613805565b60035460208481015160405163912d228f60e01b81526001600160a01b0391821660048201526024810185905293969392839160449183918b91165af1908115610f37578691611ac2575b50600480546040516322a0fe3360e21b81523392810192909252602482019290925290602090829060449082906001600160a01b03165afa8015610f37578690611a87575b600354602086810151604051631c07d98160e21b81526001600160a01b0391821660048201528682166024820152604481018a905294509091849116818a81606481015b03925af18015610c11578790611a53575b6113e49250613805565b60048054604051636882509b60e11b81529160209183919082906001600160a01b03165afa908115610c11578791611a11575b509060ff6114269216906135ac565b9073eeeeeeeeeeeeeeeeeeeeeeeeeeeeeeeeeeeeeeee6001600160a01b0382168181036119b25750348310611976575b60208501516001600160a01b03169081036117e5575085808098508680156117db575b8280929181923390f115610701575b6005546101208501516001600160a01b039081169116803b156104f857604051638340f54960e01b81526001600160a01b03928316600482015291831660248301526044820184905287908290606490829084905af1908115610c115787916117c7575b505060055461012085015160208601516001600160a01b03928316929081169116823b15610b0e57604051633dae446f60e21b81526001600160a01b03918216600482015291166024820152604481018790529087908290606490829084905af1908115610c115787916117af575b505060035460405163912d228f60e01b81526001600160a01b03838116600483015260248201859052909291602091849160449183918c91165af1918215610c11578792611778575b5060209186918860018060a01b03600654169261160760018060a01b03878b01511691898b61ffff60a0608083015192015116908d61012060018060a01b0391015116936040519c8d9b8c9a8b99636667fe2160e11b8b52339760048c01613536565b03925af1801561070157611749575b506007546001600160a01b0316803b1561069d5760405163d0dd830360e01b81526001600160a01b0390921660048301526024820184905284908290818381604481015b03925af190811561173e57849161172a575b505060035460209182015160405163912d228f60e01b81526001600160a01b0391821660048201526024810194909452839160449183918791165af19081156104165782916116f5575b506002546001600160a01b0316803b15610a6e576040516311eba9df60e21b815233600482015260248101929092528290829081838160448101610a4d565b9150506020813d602011611722575b81611711602093836132bd565b8101031261010b57819051386116b6565b3d9150611704565b611733906132a9565b610a6e57823861166c565b6040513d86823e3d90fd5b6020809295503d8311611771575b61176181836132bd565b8101031261010b57839238611616565b503d611757565b965090506020863d6020116117a7575b81611795602093836132bd565b8101031261010b5794518695856115a4565b3d9150611788565b6117b8906132a9565b6117c357853861155b565b8580fd5b6117d0906132a9565b6117c35785386114ec565b6108fc9150611479565b6040805163a9059cbb60e01b602080830191909152338b83019081528082018a90528290039081018252909161181c9101826132bd565b6040519081604081011067ffffffffffffffff6040840111176119615788809160408401604052602084527f5361666545524332303a206c6f772d6c6576656c2063616c6c206661696c6564602085015260208151910182865af13d15611954573d9067ffffffffffffffff821161193f576118b893604051926118aa6020601f19601f84011601856132bd565b83523d8b602085013e613618565b8051806118ca575b5050859650611488565b906020806118dc9383010191016132f7565b156118e85786806118c0565b60405162461bcd60e51b815260206004820152602a818901527f5361666545524332303a204552433230206f7065726174696f6e20646964206e6044820152691bdd081cdd58d8d9595960b21b6064820152608490fd5b8a634e487b7160e01b60005260416004526000fd5b916118b892606091613618565b89634e487b7160e01b60005260416004526000fd5b60405162461bcd60e51b8152602060048201526015818a01527411549497d0d3d31310551154905317d05353d55395605a1b6044820152606490fd5b6040516323b872dd60e01b81523360048201523060248201526044810185905290602090829060649082908c905af18015610f7a576119f2575b50611456565b611a0a9060203d60201161048d5761047e81836132bd565b50386119ec565b90506020813d602011611a4b575b81611a2c602093836132bd565b8101031261120e579060ff611a436114269361359e565b919250611417565b3d9150611a1f565b506020823d602011611a7f575b81611a6d602093836132bd565b8101031261010b576113e491516113da565b3d9150611a60565b506020813d602011611aba575b81611aa1602093836132bd565b810103126117c357611ab56113c99161330f565b611385565b3d9150611a94565b90506020813d602011611aed575b81611add602093836132bd565b8101031261010b57516020611340565b3d9150611ad0565b611b0e915060203d60201161048d5761047e81836132bd565b386112df565b611b299194503d8088833e61072181836132bd565b9238611296565b50602036600319011261013e576007546040516314c7eb4960e01b815260048035908201526001600160a01b03909116906101008082602481865afa91821561173e578492611fa6575b505060e0810151604051632bdd7c7760e01b81526001600160a01b039091166004820152610180928390829060249082905afa92831561173e578493611f77575b50506101608201516001600160a01b03163303611f3e5781608084930151611c02611bf0602085019261ffff84511690613805565b9161ffff60c085015191511690613805565b60208301519093906001600160a01b031673eeeeeeeeeeeeeeeeeeeeeeeeeeeeeeeeeeeeeeee8103611ee557508480858015611edb575b8280929181923390f11561173e575b60055460c082015160408501516001600160a01b03928316929081169116823b156104f857604051633c6340f360e21b81523360048201526001600160a01b03918216602482015291166044820152606481018490529086908290608490829084905af1908115610f37578691611ec7575b505060055460c082015160208501516001600160a01b03928316929081169116823b156104f857604051633dae446f60e21b81526001600160a01b03918216600482015291166024820152604481018690529086908290606490829084905af1908115610f37578691611eb3575b5050600354604084810151905163912d228f60e01b81526001600160a01b039182166004820152602481018590529291602091849160449183918b91165af1918215610f37578692611e7c575b5060209185918760018060a01b036006541692611df060018060a01b0360e0850151169160018060a01b03888b0151169260018060a01b0360408c01511695608081015161ffff6040830151169160c060018060a01b0391015116936040519c8d9b8c9a8b99636667fe2160e11b8b52339760048c01613536565b03925af1801561173e57611e4d575b5060075481516001600160a01b039081169116803b1561069d5760405163d0dd830360e01b81526001600160a01b03909216600483015260248201849052849082908183816044810161165a565b6020809294503d8311611e75575b611e6581836132bd565b8101031261010b57829138611dff565b503d611e5b565b955090506020853d602011611eab575b81611e99602093836132bd565b8101031261010b579351859484611d75565b3d9150611e8c565b611ebc906132a9565b61069d578438611d28565b611ed0906132a9565b61069d578438611cba565b6108fc9150611c39565b60405163a9059cbb60e01b81523360048201526024810186905290602090829060449082908a905af18015610f3757611f1f575b50611c48565b611f379060203d60201161048d5761047e81836132bd565b5038611f19565b60405162461bcd60e51b815260206004820152601160248201527022a9292fa7a7262cafa127a92927aba2a960791b6044820152606490fd5b611f97929350803d10611f9f575b611f8f81836132bd565b810190613469565b903880611bbb565b503d611f85565b9080925081813d831161207b575b611fbe81836132bd565b810103126106a15760405191820182811067ffffffffffffffff821117612065576120599160e091604052611ff28161330f565b845261200060208201613323565b602085015261201160408201613323565b60408501526120226060820161330f565b60608501526080810151608085015261203d60a0820161330f565b60a085015261204e60c0820161330f565b60c08501520161330f565b60e08201523880611b7a565b634e487b7160e01b600052604160045260246000fd5b503d611fb4565b503461013e57602036600319011261013e57600754604051632a3884d760e21b815260048035908201526001600160a01b03909116906101608082602481865afa91821561173e57849261256c575b50508260018060a01b0361014083015116602460405180958193630ce7621960e11b835260048301525afa9182156103d2578392612550575b50610120828101519091906001600160a01b03163303612519578261213d60608695015161ffff60208501511690613805565b602082015190929083906001600160a01b031673eeeeeeeeeeeeeeeeeeeeeeeeeeeeeeeeeeeeeeee81036124b257508185015186918291829182916001600160a01b03168282156124a9575bf11561173e575b60055493810180516040830151606084015192966001600160a01b0391821693928216929116803b15610b0e57604051633c6340f360e21b81526001600160a01b039384166004820152336024820152939092166044840152606483015286908290608490829084905af1908115610f37578691612495575b505060055460208301516001600160a01b039081169116803b1561120e57604051633dae446f60e21b81523360048201526001600160a01b039290921660248301526044820185905286908290606490829084905af1908115610f37578691612481575b505060018060a01b036006541660208460018060a01b03610140850151169260018060a01b0383870151168960018060a01b03604088015116916122f060608901519760808a01518d8b61ffff60a060e0830151920151169160018060a01b03905116926040519c8d9b8c9a8b99636667fe2160e11b8b52339860048c01613536565b03925af18015610f3757612452575b506007546101408201516060909201516001600160a01b039182169290911690823b1561120e57604051634e1df74360e01b81526001600160a01b039290921660048301526024820185905260448201529085908290606490829084905af190811561070157859161243e575b505060035460209182015160405163912d228f60e01b81526001600160a01b0391821660048201526024810194909452839160449183918891165af19081156103d2578391612409575b5060025491516001600160a01b03928316921690823b15612404576040516311eba9df60e21b81526001600160a01b0390921660048301526024820152908290829081838160448101610a4d565b505050fd5b9250506020823d602011612436575b81612425602093836132bd565b8101031261010b57829151386123b6565b3d9150612418565b612447906132a9565b61240457833861236c565b6020809296503d831161247a575b61246a81836132bd565b8101031261010b578493386122ff565b503d612460565b61248a906132a9565b61069d57843861226d565b61249e906132a9565b61069d578438612209565b506108fc612189565b8286015160405163a9059cbb60e01b81526001600160a01b0390911660048201526024810192909252602090829060449082908a905af18015610f37576124fa575b50612190565b6125129060203d60201161048d5761047e81836132bd565b50386124f4565b60405162461bcd60e51b815260206004820152600f60248201526e22a9292fa7a7262cafa622a72222a960891b6044820152606490fd5b6125659192503d8085833e61072181836132bd565b903861210a565b9080925081813d8311612652575b61258481836132bd565b810103126106a15760405191820182811067ffffffffffffffff821117612065576040526125b18161330f565b82526125bf60208201613323565b60208301526125d06040820161330f565b604083015260608101516060830152608081015160808301526125f560a08201613323565b60a083015261260660c0820161330f565b60c083015260e081015160e083015261010061262381830161330f565b9083015261012061263581830161330f565b9083015261264761014080920161330f565b9082015238806120d1565b503d61257a565b5060c036600319011261013e578061266f613225565b612677613267565b61267f61323b565b90612688613278565b92612691613289565b9061269b83613729565b600754604051630ce7621960e11b81526001600160a01b0383811660048301529091168782602481845afa918215610f7a578892612bd3575b50604051634cf732f160e11b81526001600160a01b0384811660048301528716602482015290602090829060449082905afa8015610f7a5761271c918991611af557506135cc565b61272f606082015161ffff861690613805565b6003546020928301805160405163912d228f60e01b81526001600160a01b039182166004820152602481018590529394919392839160449183918e91165af1908115610b03578991612b99575b50600480546040516322a0fe3360e21b815233928101929092526024820192909252929190602090849060449082906001600160a01b03165afa928315610b03578993612b55575b506003549051604051631c07d98160e21b81526001600160a01b03918216600482015281891660248201526044810193909352602091839116818b81606481015b03925af1908115610f7a578891612b1d575b5060049161282491613805565b8154604051636882509b60e11b81529260209184919082906001600160a01b03165afa918215610f7a578892612add575b5060ff6128639216906135ac565b916001600160a01b03851673eeeeeeeeeeeeeeeeeeeeeeeeeeeeeeeeeeeeeeee03612a7a5734831061120e575b6005546001600160a01b0316803b156104f857604051638340f54960e01b81523360048201526001600160a01b0387166024820152604481018590529088908290606490829084905af1908115610f7a578891612a66575b505060035460405163912d228f60e01b81526001600160a01b03878116600483015260248201869052909791602091899160449183918d91165af1968715610f7a578897612a23575b5060075460405163aba001ed60e01b815261ffff96871660048201526001600160a01b0397881660248201526044810195909552606480860189905235608486015290851660a4850152931660c48301523360e483015283166101048201529160209183916101249183918891165af180156103d2576129ea57506002546001600160a01b0316803b15610a6e5760405163094f618d60e11b815233600482015260248101929092528290829081838160448101610a4d565b6020813d602011612a1b575b81612a03602093836132bd565b81010312610a6e57612a149061330f565b5038610a12565b3d91506129f6565b92939491975095506020823d602011612a5e575b81612a44602093836132bd565b8101031261010b579051879690959193929161ffff612931565b3d9150612a37565b612a6f906132a9565b61120e5786386128e8565b6040516323b872dd60e01b8152336004820152306024820152604481018490526020816064818b6001600160a01b038b165af18015610f7a57612abe575b50612890565b612ad69060203d60201161048d5761047e81836132bd565b5038612ab8565b91506020823d602011612b15575b81612af8602093836132bd565b810103126104f85760ff612b0e6128639361359e565b9250612855565b3d9150612aeb565b9750506020873d602011612b4d575b81612b39602093836132bd565b8101031261010b5795518796906004612817565b3d9150612b2c565b9092506020813d602011612b91575b81612b71602093836132bd565b81010312610b0e5761280591612b8860209261330f565b939150916127c4565b3d9150612b64565b92919850506020823d602011612bcb575b81612bb7602093836132bd565b8101031261010b579051889790602061277c565b3d9150612baa565b612be89192503d808a833e61072181836132bd565b90386126d4565b50604036600319011261013e57612c04613225565b90612c0d613267565b612c1681613729565b600754604051632bdd7c7760e01b81526001600160a01b0385811660048301526101809392849183916024918391165afa92831561173e57849361318c575b50506101608201516001600160a01b0316331461315157612c8e612c8361ffff608085015193168093613805565b9160c0840151613805565b60208301519091906001600160a01b031673eeeeeeeeeeeeeeeeeeeeeeeeeeeeeeeeeeeeeeee810361308957508134106106a157838080808560018060a01b0361016089015116828215613080575bf1156103d2575b60055461016084015160408501516001600160a01b0392831697929081169116873b1561120e57604051633c6340f360e21b81526001600160a01b03918216600482015233602482015291166044820152606481018390529585908790608490829084905af180156107015761306c575b600554602085015195965086956001600160a01b039081169116803b1561120e57604051633dae446f60e21b81523360048201526001600160a01b039290921660248301526044820185905286908290606490829084905af1908115610f37578691613058575b5050600354604085810151905163912d228f60e01b81526001600160a01b0391821660048201526024810185905291602091839160449183918b91165af1908115610f37578691613023575b5060065485516020808801516040808a015160e08b01516101008c01516101608d01519351636667fe2160e11b81526001600160a01b0397881660048201526001602482015294871660448601529186166064850152608484018b905260a484018a905260c484019790975260e483019690965261ffff909516610104820152938216610124850152336101448501529183916101649183918b91165af18015610f3757612ff4575b506007546001600160a01b031691823b156117c357604051634e1df74360e01b81526001600160a01b039290921660048301526024820184905260448201529084908290606490829084905af190811561173e578491612fe0575b505060035460208381015160405163912d228f60e01b81526001600160a01b03918216600482015260248101949094529091839160449183918891165af19081156103d2578391612fab575b50600254610160909201516001600160a01b03928316921690823b15612404576040516311eba9df60e21b81526001600160a01b0390921660048301526024820152908290829081838160448101610a4d565b9250506020823d602011612fd8575b81612fc7602093836132bd565b8101031261010b5782915138612f58565b3d9150612fba565b612fe9906132a9565b610a6e578238612f0c565b6020809296503d831161301c575b61300c81836132bd565b8101031261010b57849338612eb1565b503d613002565b9550506020853d602011613050575b8161303f602093836132bd565b8101031261010b5785945138612e08565b3d9150613032565b613061906132a9565b61069d578438612dbc565b939094613078906132a9565b928490612d55565b506108fc612cdd565b6040516323b872dd60e01b815233600482015230602482015260448101849052906020908290606490829089905af1801561070157613132575b5060208381015161016085015160405163a9059cbb60e01b81526001600160a01b039182166004820152602481018690529291839160449183918a91165af1801561070157613113575b50612ce4565b61312b9060203d60201161048d5761047e81836132bd565b503861310d565b61314a9060203d60201161048d5761047e81836132bd565b50386130c3565b60405162461bcd60e51b815260206004820152601360248201527222a9292fa1a0a72a2fa127a92927abafa7aba760691b6044820152606490fd5b6131a3929350803d10611f9f57611f8f81836132bd565b903880612c55565b503461013e578060031936011261013e57602060405173eeeeeeeeeeeeeeeeeeeeeeeeeeeeeeeeeeeeeeee8152f35b503461013e57602036600319011261013e576131f4613225565b6001546001600160a01b03919061320e90831633146136ec565b166001600160601b0360a01b600454161760045580f35b600435906001600160a01b038216820361010b57565b604435906001600160a01b038216820361010b57565b602435906001600160a01b038216820361010b57565b6024359061ffff8216820361010b57565b6084359061ffff8216820361010b57565b60a4359061ffff8216820361010b57565b50600036600319011261010b57005b67ffffffffffffffff811161206557604052565b90601f8019910116810190811067ffffffffffffffff82111761206557604052565b67ffffffffffffffff81116120655760051b60200190565b9081602091031261010b5751801515810361010b5790565b51906001600160a01b038216820361010b57565b519061ffff8216820361010b57565b90602090818382031261010b57825167ffffffffffffffff9384821161010b57019161014093848484031261010b57604051948501858110828211176120655760405261337e8461330f565b855261338b82850161330f565b828601526040840151604086015260608401516060860152608084015160808601526133b960a08501613323565b60a086015260c084015190811161010b5783019180601f8401121561010b5782516133e3816132df565b936133f160405195866132bd565b818552838086019260051b82010192831161010b578301905b828210613452575050505060c083015261342660e0820161330f565b60e083015261010061343981830161330f565b9083015261344b61012080920161330f565b9082015290565b83809161345e8461330f565b81520191019061340a565b8091610180928391031261010b5760405191820182811067ffffffffffffffff8211176120655760405261349c8161330f565b82526134aa6020820161330f565b60208301526134bb6040820161330f565b6040830152606081015160608301526080810151608083015260a081015160a083015260c081015160c083015260e081015160e0830152610100613500818301613323565b9083015261012061351281830161330f565b9083015261014061352481830161330f565b9083015261344b61016080920161330f565b6001600160a01b0391821681526000602082015291811660408301529182166060820152608081019290925260a082019290925260c081019290925260e082019290925261ffff90921661010083015291821661012082015291166101408201526101600190565b519060ff8216820361010b57565b81156135b6570490565b634e487b7160e01b600052601260045260246000fd5b156135d357565b60405162461bcd60e51b815260206004820152601c60248201527f4552525f434f4c4c41544552414c5f4e4f545f535550504f52544544000000006044820152606490fd5b9192901561367a575081511561362c575090565b3b156136355790565b60405162461bcd60e51b815260206004820152601d60248201527f416464726573733a2063616c6c20746f206e6f6e2d636f6e74726163740000006044820152606490fd5b82519091501561368d5750805190602001fd5b6040519062461bcd60e51b82528160208060048301528251908160248401526000935b8285106136d3575050604492506000838284010152601f80199101168101030190fd5b84810182015186860160440152938101938593506136b0565b156136f357565b60405162461bcd60e51b815260206004820152600e60248201526d22a9292fa7a7262cafa7aba722a960911b6044820152606490fd5b61ffff8091166064811161377857601990061661374257565b60405162461bcd60e51b815260206004820152600e60248201526d4552525f50455243454e5441474560901b6044820152606490fd5b60405162461bcd60e51b815260206004820152600f60248201526e4f5645525f50455243454e5441474560881b6044820152606490fd5b818102929181159184041417156137c257565b634e487b7160e01b600052601160045260246000fd5b916137f76064926137f2670de0b6b3a764000093866137af565b6137af565b040481018091116137c25790565b906001600160a01b0316801561382557613821906064926137af565b0490565b5090565b906001600160a01b039081166064811061010b57606319018181116137c25781166064039081116137c25761385d91613805565b9056fea26469706673582212209b456e3cdd2a604d01d13042e05be570cecd48ad03548f0ef00de29148a3072164736f6c63430008110033",
  "immutableReferences": {},
  "source": "// SPDX-License-Identifier: GPL-3.0\r\npragma solidity >=0.7.0 <0.9.0;\r\n\r\nimport \"./Activity.sol\";\r\n\r\nimport \"./libraries/Errors.sol\";\r\nimport \"./libraries/PoolLibrary.sol\";\r\n\r\nimport \"./math/SimpleInterest.sol\";\r\n\r\nimport \"./interfaces/IPriceFeed.sol\";\r\nimport \"./interfaces/ILoanToValueRatio.sol\";\r\n\r\nimport \"./managers/LoanManager.sol\";\r\nimport \"./managers/OfferManager.sol\";\r\nimport \"./managers/PoolManager.sol\";\r\n\r\nimport \"@openzeppelin/contracts/utils/Context.sol\";\r\nimport \"@openzeppelin/contracts/utils/math/SafeMath.sol\";\r\nimport \"@openzeppelin/contracts/token/ERC20/utils/SafeERC20.sol\";\r\nimport \"@openzeppelin/contracts/token/ERC20/ERC20.sol\";\r\nimport \"@openzeppelin/contracts/security/ReentrancyGuard.sol\";\r\n\r\ncontract LendingPool is Context, ReentrancyGuard, SimpleInterest {\r\n    using SafeMath for uint256;\r\n    using SafeERC20 for ERC20;\r\n\r\n    address deployer;\r\n\r\n    Activity private _activity;\r\n    IPriceFeed private _priceFeed;\r\n    ILoanToValueRatio private _ltv;\r\n\r\n    // managers\r\n    PoolManager private _poolManager;\r\n    LoanManager private _loanManager;\r\n    OfferManager private _offerManager;\r\n\r\n    address public constant nativeAddress =\r\n        0xEeeeeEeeeEeEeeEeEeEeeEEEeeeeEeeeeeeeEEeE;\r\n\r\n    constructor(\r\n        address poolManager_,\r\n        address loanManager_,\r\n        address offerManager_\r\n    ) ReentrancyGuard() {\r\n        _poolManager = PoolManager(poolManager_);\r\n        _loanManager = LoanManager(loanManager_);\r\n        _offerManager = OfferManager(offerManager_);\r\n\r\n        deployer = _msgSender();\r\n    }\r\n\r\n    // @lenders\r\n    function createLendingOffer(\r\n        uint256 principalAmount_, // only for ERC20 assets\r\n        address principalToken,\r\n        address[] memory collateralTokens,\r\n        uint16 daysToMaturity,\r\n        uint256 interest,\r\n        uint16 daysToExpire\r\n    ) public payable {\r\n        uint256 principalAmount;\r\n\r\n        require(collateralTokens.length > 0, \"ERR_NO_COLLATERAL_TYPES\");\r\n\r\n        /* extract tokens from lender */\r\n        if (principalToken == nativeAddress) {\r\n            principalAmount = msg.value;\r\n        } else {\r\n            principalAmount = principalAmount_;\r\n            ERC20(principalToken).transferFrom(\r\n                _msgSender(),\r\n                address(this),\r\n                principalAmount\r\n            );\r\n        }\r\n\r\n        /* delegate principal to lender */\r\n        _poolManager.deposit(_msgSender(), principalToken, principalAmount);\r\n\r\n        /* create the lending offer */\r\n        _offerManager.createLendingOffer(\r\n            principalToken,\r\n            principalAmount,\r\n            interest,\r\n            daysToMaturity,\r\n            daysToExpire,\r\n            collateralTokens,\r\n            _msgSender()\r\n        );\r\n    }\r\n\r\n    // @lenders\r\n    function createLendingRequest(\r\n        uint160 offerId,\r\n        uint16 percentage,\r\n        uint16 daysToMaturity,\r\n        uint256 interest,\r\n        uint16 daysToExpire\r\n    ) public payable {\r\n        _checkPercentage(percentage);\r\n\r\n        OfferLibrary.LendingOffer memory offer = _offerManager.getLendingOffer(\r\n            offerId\r\n        );\r\n\r\n        uint256 principalAmount = percentageOf(\r\n            offer.initialPrincipal,\r\n            percentage\r\n        );\r\n\r\n        /* extract tokens from lender */\r\n        if (offer.principalToken == nativeAddress) {\r\n            require(msg.value >= principalAmount);\r\n        } else {\r\n            ERC20(offer.principalToken).transferFrom(\r\n                _msgSender(),\r\n                address(this),\r\n                principalAmount\r\n            );\r\n        }\r\n\r\n        /* delegate principal to lender */\r\n        _poolManager.deposit(\r\n            _msgSender(),\r\n            offer.principalToken,\r\n            principalAmount\r\n        );\r\n\r\n        /* create the lending request */\r\n        _offerManager.createLendingRequest(\r\n            percentage,\r\n            interest,\r\n            daysToMaturity,\r\n            daysToExpire,\r\n            _msgSender(),\r\n            offerId\r\n        );\r\n    }\r\n\r\n    // @lenders\r\n    function acceptBorrowingOffer(uint160 offerId, uint16 percentage)\r\n        public\r\n        payable\r\n    {\r\n        _checkPercentage(percentage);\r\n\r\n        OfferLibrary.BorrowingOffer memory offer = _offerManager\r\n            .getBorrowingOffer(offerId);\r\n\r\n        require(_msgSender() != offer.borrower, \"ERR_CANT_BORROW_OWN\");\r\n\r\n        uint256 collateralAmount = percentageOf(\r\n            offer.initialCollateral,\r\n            percentage\r\n        );\r\n\r\n        uint256 principalAmount = percentageOf(\r\n            offer.initialPrincipal,\r\n            percentage\r\n        );\r\n\r\n        /* extract principal from lender/caller and transfer to borrower */\r\n        if (offer.principalToken == nativeAddress) {\r\n            require(msg.value >= principalAmount);\r\n            payable(offer.borrower).transfer(principalAmount);\r\n        } else {\r\n            ERC20(offer.principalToken).transferFrom(\r\n                _msgSender(),\r\n                address(this),\r\n                principalAmount\r\n            );\r\n            ERC20(offer.principalToken).transfer(\r\n                offer.borrower,\r\n                principalAmount\r\n            );\r\n        }\r\n\r\n        /* delegate the loan collateral to lender */\r\n        _poolManager.transfer(\r\n            offer.borrower,\r\n            _msgSender(),\r\n            offer.collateralToken,\r\n            collateralAmount\r\n        );\r\n        /* undelegate the principal from lender */\r\n        _poolManager.burn(_msgSender(), offer.principalToken, principalAmount);\r\n\r\n        uint256 collateralPriceInUSD = _priceFeed.amountInUSD(\r\n            offer.collateralToken,\r\n            collateralAmount\r\n        );\r\n\r\n        /* register the loan from the loan manager */\r\n        _loanManager.createLoan(\r\n            offer.offerId,\r\n            OfferLibrary.Type.BORROWING_OFFER,\r\n            offer.principalToken,\r\n            offer.collateralToken,\r\n            principalAmount,\r\n            collateralAmount,\r\n            collateralPriceInUSD,\r\n            offer.interest,\r\n            offer.daysToMaturity,\r\n            offer.borrower,\r\n            _msgSender()\r\n        );\r\n\r\n        // will revert the transaction if fail\r\n        _offerManager._afterOfferBorrowingLoan(\r\n            offerId,\r\n            principalAmount,\r\n            collateralAmount\r\n        );\r\n\r\n        // update activity\r\n        uint256 borrowedAmountInUSD = _priceFeed.amountInUSD(\r\n            offer.principalToken,\r\n            principalAmount\r\n        );\r\n        _activity._borrowLoan(offer.borrower, borrowedAmountInUSD);\r\n    }\r\n\r\n    // @lenders\r\n    function acceptBorrowingRequest(uint256 requestId) public {\r\n        RequestLibrary.BorrowingRequest memory request = _offerManager\r\n            .getBorrowingRequest(requestId);\r\n\r\n        OfferLibrary.LendingOffer memory offer = _offerManager.getLendingOffer(\r\n            request.offerId\r\n        );\r\n\r\n        require(offer.lender == _msgSender(), \"ERR_ONLY_LENDER\");\r\n\r\n        uint256 principalAmount = percentageOf(\r\n            offer.initialPrincipal,\r\n            request.percentage\r\n        );\r\n\r\n        /* transfer principal to borrower */\r\n        if (offer.principalToken == nativeAddress) {\r\n            payable(request.borrower).transfer(principalAmount);\r\n        } else {\r\n            ERC20(offer.principalToken).transfer(\r\n                request.borrower,\r\n                principalAmount\r\n            );\r\n        }\r\n\r\n        /* delegate the loan collateral to lender */\r\n        _poolManager.transfer(\r\n            request.borrower,\r\n            _msgSender(),\r\n            request.collateralToken,\r\n            request.collateralAmount\r\n        );\r\n        /* undelegate the principal from lender */\r\n        _poolManager.burn(_msgSender(), offer.principalToken, principalAmount);\r\n\r\n        /* register the loan from the loan manager */\r\n        _loanManager.createLoan(\r\n            request.offerId,\r\n            OfferLibrary.Type.LENDING_OFFER,\r\n            offer.principalToken,\r\n            request.collateralToken,\r\n            principalAmount,\r\n            request.collateralAmount,\r\n            request.collateralPriceInUSD,\r\n            request.interest,\r\n            request.daysToMaturity,\r\n            request.borrower,\r\n            _msgSender()\r\n        );\r\n\r\n        // will revert the transaction if fail\r\n        _offerManager._afterOfferBorrowingLoan(\r\n            request.offerId,\r\n            principalAmount,\r\n            request.collateralAmount\r\n        );\r\n\r\n        // update activity\r\n        uint256 amountBorrowedInUSD = _priceFeed.amountInUSD(\r\n            offer.principalToken,\r\n            principalAmount\r\n        );\r\n        _activity._borrowLoan(request.borrower, amountBorrowedInUSD);\r\n    }\r\n\r\n    // @borrower\r\n    function createBorrowingOffer(\r\n        address principalToken,\r\n        address collateralToken,\r\n        uint256 collateralAmount_, // for ERC20 assets\r\n        uint256 interest,\r\n        uint16 daysToMaturity,\r\n        uint16 daysToExpire\r\n    ) public payable {\r\n        uint256 collateralAmount;\r\n\r\n        /* extract collateral from borrower */\r\n        if (collateralToken == nativeAddress) {\r\n            collateralAmount = msg.value;\r\n        } else {\r\n            collateralAmount = collateralAmount_;\r\n            ERC20(collateralToken).transferFrom(\r\n                _msgSender(),\r\n                address(this),\r\n                collateralAmount\r\n            );\r\n        }\r\n\r\n        uint256 principalNormalAmount = _priceFeed.exchangeRate(\r\n            collateralToken,\r\n            principalToken,\r\n            collateralAmount\r\n        );\r\n\r\n        uint256 principalAmountInUSD = _priceFeed.amountInUSD(\r\n            principalToken,\r\n            principalNormalAmount\r\n        );\r\n\r\n        uint160 ltv = _ltv.getRelativeLTV(_msgSender(), principalAmountInUSD);\r\n\r\n        uint256 principalAmount = percentageInverseOf(\r\n            principalNormalAmount,\r\n            ltv\r\n        ) / _ltv.getBase();\r\n\r\n        /* delegate the collateral to borrower */\r\n        _poolManager.deposit(_msgSender(), collateralToken, collateralAmount);\r\n\r\n        /* create the offer */\r\n        _offerManager.createBorrowingOffer(\r\n            principalToken,\r\n            collateralToken,\r\n            collateralAmount,\r\n            principalAmount,\r\n            interest,\r\n            daysToMaturity,\r\n            daysToExpire,\r\n            _msgSender()\r\n        );\r\n\r\n        // update activity\r\n        uint256 amountInUSD = _priceFeed.amountInUSD(\r\n            collateralToken,\r\n            collateralAmount\r\n        );\r\n        _activity._dropCollateral(_msgSender(), amountInUSD);\r\n    }\r\n\r\n    // @borrower\r\n    function createBorrowingRequest(\r\n        uint160 offerId,\r\n        uint16 percentage,\r\n        address collateralToken,\r\n        uint256 interest,\r\n        uint16 daysToMaturity,\r\n        uint16 daysToExpire\r\n    ) public payable {\r\n        _checkPercentage(percentage);\r\n\r\n        OfferLibrary.LendingOffer memory offer = _offerManager.getLendingOffer(\r\n            offerId\r\n        );\r\n\r\n        require(\r\n            _offerManager.isCollateralSupported(offerId, collateralToken),\r\n            \"ERR_COLLATERAL_NOT_SUPPORTED\"\r\n        );\r\n\r\n        uint256 principalAmount = percentageOf(\r\n            offer.initialPrincipal,\r\n            percentage\r\n        );\r\n\r\n        uint256 principalPriceInUSD = _priceFeed.amountInUSD(\r\n            offer.principalToken,\r\n            principalAmount\r\n        );\r\n\r\n        uint160 ltv = _ltv.getRelativeLTV(_msgSender(), principalPriceInUSD);\r\n\r\n        uint256 collateralNormalAmount = _priceFeed.exchangeRate(\r\n            offer.principalToken,\r\n            collateralToken,\r\n            principalAmount\r\n        );\r\n\r\n        uint256 collateralAmount = percentageOf(collateralNormalAmount, ltv) /\r\n            _ltv.getBase();\r\n\r\n        /* extract collateral from borrower */\r\n        if (collateralToken == nativeAddress) {\r\n            require(collateralAmount >= msg.value);\r\n        } else {\r\n            ERC20(collateralToken).transferFrom(\r\n                _msgSender(),\r\n                address(this),\r\n                collateralAmount\r\n            );\r\n        }\r\n\r\n        /* delegate the collateral to borrower */\r\n        _poolManager.deposit(_msgSender(), collateralToken, collateralAmount);\r\n\r\n        uint256 collateralPriceInUSD = _priceFeed.amountInUSD(\r\n            collateralToken,\r\n            collateralAmount\r\n        );\r\n\r\n        /* create the request */\r\n        _offerManager.createBorrowingRequest(\r\n            percentage,\r\n            collateralToken,\r\n            collateralAmount,\r\n            collateralPriceInUSD,\r\n            interest,\r\n            daysToMaturity,\r\n            daysToExpire,\r\n            _msgSender(),\r\n            offerId\r\n        );\r\n\r\n        // update activity\r\n        _activity._dropCollateral(_msgSender(), collateralPriceInUSD);\r\n    }\r\n\r\n    // @borrower\r\n    function acceptLendingOffer(\r\n        uint160 offerId,\r\n        uint16 percentage,\r\n        address collateralToken\r\n    ) public payable {\r\n        _checkPercentage(percentage);\r\n\r\n        OfferLibrary.LendingOffer memory offer = _offerManager.getLendingOffer(\r\n            offerId\r\n        );\r\n\r\n        require(\r\n            _offerManager.isCollateralSupported(offerId, collateralToken),\r\n            \"ERR_COLLATERAL_NOT_SUPPORTED\"\r\n        );\r\n\r\n        uint256 principalAmount = percentageOf(\r\n            offer.initialPrincipal,\r\n            percentage\r\n        );\r\n\r\n        uint256 principalPriceInUSD = _priceFeed.amountInUSD(\r\n            offer.principalToken,\r\n            principalAmount\r\n        );\r\n\r\n        uint160 ltv = _ltv.getRelativeLTV(_msgSender(), principalPriceInUSD);\r\n\r\n        /* calculate the collateral amount */\r\n        uint256 collateralNormalAmount = _priceFeed.exchangeRate(\r\n            offer.principalToken,\r\n            collateralToken,\r\n            principalAmount\r\n        );\r\n\r\n        uint256 collateralAmount = percentageOf(collateralNormalAmount, ltv) /\r\n            _ltv.getBase();\r\n\r\n        /* extract collateral tokens from borrower */\r\n        if (collateralToken == nativeAddress) {\r\n            require(collateralAmount >= msg.value, \"ERR_COLLATERAL_AMOUNT\");\r\n        } else {\r\n            ERC20(collateralToken).transferFrom(\r\n                _msgSender(),\r\n                address(this),\r\n                collateralAmount\r\n            );\r\n        }\r\n\r\n        /* transfer the principal to borrower */\r\n        if (offer.principalToken == nativeAddress) {\r\n            payable(_msgSender()).transfer(principalAmount);\r\n        } else {\r\n            ERC20(offer.principalToken).safeTransfer(\r\n                _msgSender(),\r\n                principalAmount\r\n            );\r\n        }\r\n\r\n        /* delegate the loan collateral to lender */\r\n        _poolManager.deposit(offer.lender, collateralToken, collateralAmount);\r\n        /* undelegate the loan principal from lender */\r\n        _poolManager.burn(offer.lender, offer.principalToken, principalAmount);\r\n\r\n        uint256 collateralPriceInUSD = _priceFeed.amountInUSD(\r\n            collateralToken,\r\n            collateralAmount\r\n        );\r\n\r\n        /* register the loan */\r\n        _loanManager.createLoan(\r\n            offerId,\r\n            OfferLibrary.Type.LENDING_OFFER,\r\n            offer.principalToken,\r\n            collateralToken,\r\n            principalAmount,\r\n            collateralAmount,\r\n            collateralPriceInUSD,\r\n            offer.interest,\r\n            offer.daysToMaturity,\r\n            _msgSender(),\r\n            offer.lender\r\n        );\r\n\r\n        // will revert if transaction fail\r\n        _offerManager._afterOfferLendingLoan(offerId, principalAmount);\r\n\r\n        // update activity\r\n        uint256 amountBorrowedInUSD = _priceFeed.amountInUSD(\r\n            offer.principalToken,\r\n            principalAmount\r\n        );\r\n        _activity._borrowLoan(_msgSender(), amountBorrowedInUSD);\r\n    }\r\n\r\n    // @borrower\r\n    function acceptLendingRequest(uint256 requestId) public payable {\r\n        RequestLibrary.LendingRequest memory request = _offerManager\r\n            .getLendingRequest(requestId);\r\n\r\n        OfferLibrary.BorrowingOffer memory offer = _offerManager\r\n            .getBorrowingOffer(request.offerId);\r\n\r\n        require(offer.borrower == _msgSender(), \"ERR_ONLY_BORROWER\");\r\n\r\n        uint256 collateralAmount = percentageOf(\r\n            offer.initialCollateral,\r\n            request.percentage\r\n        );\r\n\r\n        uint256 principalAmount = percentageOf(\r\n            offer.initialPrincipal,\r\n            request.percentage\r\n        );\r\n\r\n        /* transfer principal to borrower */\r\n        if (offer.principalToken == nativeAddress) {\r\n            payable(_msgSender()).transfer(principalAmount);\r\n        } else {\r\n            ERC20(offer.principalToken).transfer(_msgSender(), principalAmount);\r\n        }\r\n\r\n        /* delegate the loan collateral to lender */\r\n        _poolManager.transfer(\r\n            _msgSender(),\r\n            request.lender,\r\n            offer.collateralToken,\r\n            collateralAmount\r\n        );\r\n        /* undelegate the loan principal from lender */\r\n        _poolManager.burn(\r\n            request.lender,\r\n            offer.principalToken,\r\n            principalAmount\r\n        );\r\n\r\n        uint256 collateralPriceInUSD = _priceFeed.amountInUSD(\r\n            offer.collateralToken,\r\n            collateralAmount\r\n        );\r\n\r\n        /* register the loan from the loan manager */\r\n        _loanManager.createLoan(\r\n            request.offerId,\r\n            OfferLibrary.Type.LENDING_OFFER,\r\n            offer.principalToken,\r\n            offer.collateralToken,\r\n            principalAmount,\r\n            collateralAmount,\r\n            collateralPriceInUSD,\r\n            request.interest,\r\n            request.daysToMaturity,\r\n            _msgSender(),\r\n            request.lender\r\n        );\r\n\r\n        // will revert the transaction if fail\r\n        _offerManager._afterOfferLendingLoan(offer.offerId, principalAmount);\r\n\r\n        // update activity\r\n        uint256 amountBorrowedInUSD = _priceFeed.amountInUSD(\r\n            offer.principalToken,\r\n            principalAmount\r\n        );\r\n        _activity._borrowLoan(_msgSender(), amountBorrowedInUSD);\r\n    }\r\n\r\n    // @borrower\r\n    function reActivateOffer() public payable {}\r\n\r\n    // @borrower\r\n    function reActivateRequest() public payable {}\r\n\r\n    // @borrower\r\n    function repayLoan(uint256 loanId, uint16 percentage) public payable {\r\n        _checkPercentage(percentage);\r\n\r\n        LoanLibrary.Loan memory loan = _loanManager.getLoan(loanId);\r\n\r\n        // verify the borrower is the repayer\r\n        require(loan.borrower == _msgSender(), \"ERR_NOT_BORROWER\");\r\n\r\n        // calculate the duration of the loan\r\n        uint160 time = uint160(block.timestamp);\r\n        uint160 ellapsedSecs = (time - loan.startDate);\r\n\r\n        uint256 principalAmount = percentageOf(\r\n            loan.initialPrincipal,\r\n            percentage\r\n        );\r\n\r\n        uint256 collateralAmount = percentageOf(\r\n            loan.initialCollateral,\r\n            percentage\r\n        );\r\n\r\n        // calculate the pay back amount\r\n        uint256 repaymentPrincipalAmount = getFullInterestAmount(\r\n            principalAmount,\r\n            ellapsedSecs,\r\n            loan.interest\r\n        );\r\n\r\n        // will revert the transaction if fail\r\n        _loanManager.repayLoan(loanId, principalAmount, collateralAmount);\r\n\r\n        /* extract pay back amount */\r\n        if (loan.principalToken == nativeAddress) {\r\n            require(msg.value >= repaymentPrincipalAmount);\r\n        } else {\r\n            ERC20(loan.principalToken).transferFrom(\r\n                _msgSender(),\r\n                address(this),\r\n                repaymentPrincipalAmount\r\n            );\r\n        }\r\n\r\n        /* transfer collateral */\r\n        if (loan.collateralToken == nativeAddress) {\r\n            payable(_msgSender()).transfer(collateralAmount);\r\n        } else {\r\n            ERC20(loan.collateralToken).transfer(\r\n                _msgSender(),\r\n                collateralAmount\r\n            );\r\n        }\r\n\r\n        // update activity\r\n        uint256 interestPaidInUSD = _priceFeed.amountInUSD(\r\n            loan.principalToken,\r\n            (repaymentPrincipalAmount - principalAmount)\r\n        );\r\n\r\n        uint256 amountPaidInUSD = _priceFeed.amountInUSD(\r\n            loan.principalToken,\r\n            principalAmount\r\n        );\r\n\r\n        _activity._repayLoan(_msgSender(), amountPaidInUSD, interestPaidInUSD);\r\n    }\r\n\r\n    function repayLiquidatedLoan(uint256 loanId) public payable {}\r\n\r\n    function setLTV(address ltv_) public onlyOwner {\r\n        _ltv = ILoanToValueRatio(ltv_);\r\n    }\r\n\r\n    function setActivity(address activity_) public onlyOwner {\r\n        _activity = Activity(activity_);\r\n    }\r\n\r\n    function setPriceFeed(address priceFeed_) public onlyOwner {\r\n        _priceFeed = IPriceFeed(priceFeed_);\r\n    }\r\n\r\n    function changeOwner(address newOwner) public onlyOwner {\r\n        deployer = newOwner;\r\n    }\r\n\r\n    function _checkPercentage(uint16 percentage) private pure {\r\n        // percentage must be 25, 50, 75 or 100\r\n        require(percentage <= 100, \"OVER_PERCENTAGE\");\r\n        require(percentage % 25 == 0, \"ERR_PERCENTAGE\");\r\n    }\r\n\r\n    modifier onlyOwner() {\r\n        require(_msgSender() == deployer, \"ERR_ONLY_OWNER\");\r\n        _;\r\n    }\r\n}\r\n",
  "sourcePath": "C:\\Users\\DELL\\Documents\\darsh\\smart-contracts\\contracts\\LendingPool.sol",
  "compiler": {
    "name": "solc",
    "version": "0.8.17+commit.8df45f5f.Emscripten.clang"
  },
  "schemaVersion": "3.4.11",
  "updatedAt": "2023-02-12T22:21:58.077Z",
  "devdoc": {
    "kind": "dev",
    "methods": {},
    "version": 1
  },
  "userdoc": {
    "kind": "user",
    "methods": {},
    "version": 1
  }
}