{
  "contractName": "LendingPool",
  "abi": [
    {
      "inputs": [
        {
          "internalType": "address",
          "name": "poolManager_",
          "type": "address"
        },
        {
          "internalType": "address",
          "name": "loanManager_",
          "type": "address"
        },
        {
          "internalType": "address",
          "name": "offerManager_",
          "type": "address"
        }
      ],
      "stateMutability": "nonpayable",
      "type": "constructor"
    },
    {
      "inputs": [],
      "name": "INTEREST_RATE_DENOMINATOR",
      "outputs": [
        {
          "internalType": "uint256",
          "name": "",
          "type": "uint256"
        }
      ],
      "stateMutability": "view",
      "type": "function"
    },
    {
      "inputs": [
        {
          "internalType": "uint256",
          "name": "principal",
          "type": "uint256"
        },
        {
          "internalType": "uint256",
          "name": "durationSecs",
          "type": "uint256"
        },
        {
          "internalType": "uint256",
          "name": "interest",
          "type": "uint256"
        }
      ],
      "name": "getFullInterestAmount",
      "outputs": [
        {
          "internalType": "uint256",
          "name": "",
          "type": "uint256"
        }
      ],
      "stateMutability": "pure",
      "type": "function"
    },
    {
      "inputs": [],
      "name": "nativeAddress",
      "outputs": [
        {
          "internalType": "address",
          "name": "",
          "type": "address"
        }
      ],
      "stateMutability": "view",
      "type": "function"
    },
    {
      "inputs": [
        {
          "internalType": "uint256",
          "name": "total",
          "type": "uint256"
        },
        {
          "internalType": "uint160",
          "name": "percent",
          "type": "uint160"
        }
      ],
      "name": "percentageInverseOf",
      "outputs": [
        {
          "internalType": "uint256",
          "name": "",
          "type": "uint256"
        }
      ],
      "stateMutability": "pure",
      "type": "function"
    },
    {
      "inputs": [
        {
          "internalType": "uint256",
          "name": "total",
          "type": "uint256"
        },
        {
          "internalType": "uint160",
          "name": "percent",
          "type": "uint160"
        }
      ],
      "name": "percentageOf",
      "outputs": [
        {
          "internalType": "uint256",
          "name": "",
          "type": "uint256"
        }
      ],
      "stateMutability": "pure",
      "type": "function"
    },
    {
      "inputs": [
        {
          "internalType": "uint256",
          "name": "principalAmount_",
          "type": "uint256"
        },
        {
          "internalType": "address",
          "name": "principalToken",
          "type": "address"
        },
        {
          "internalType": "address[]",
          "name": "collateralTokens",
          "type": "address[]"
        },
        {
          "internalType": "uint16",
          "name": "daysToMaturity",
          "type": "uint16"
        },
        {
          "internalType": "uint256",
          "name": "interest",
          "type": "uint256"
        },
        {
          "internalType": "uint16",
          "name": "daysToExpire",
          "type": "uint16"
        }
      ],
      "name": "createLendingOffer",
      "outputs": [],
      "stateMutability": "payable",
      "type": "function"
    },
    {
      "inputs": [
        {
          "internalType": "uint160",
          "name": "offerId",
          "type": "uint160"
        },
        {
          "internalType": "uint16",
          "name": "percentage",
          "type": "uint16"
        },
        {
          "internalType": "uint16",
          "name": "daysToMaturity",
          "type": "uint16"
        },
        {
          "internalType": "uint256",
          "name": "interest",
          "type": "uint256"
        },
        {
          "internalType": "uint16",
          "name": "daysToExpire",
          "type": "uint16"
        }
      ],
      "name": "createLendingRequest",
      "outputs": [],
      "stateMutability": "payable",
      "type": "function"
    },
    {
      "inputs": [
        {
          "internalType": "uint160",
          "name": "offerId",
          "type": "uint160"
        },
        {
          "internalType": "uint16",
          "name": "percentage",
          "type": "uint16"
        }
      ],
      "name": "acceptBorrowingOffer",
      "outputs": [],
      "stateMutability": "payable",
      "type": "function"
    },
    {
      "inputs": [
        {
          "internalType": "uint256",
          "name": "requestId",
          "type": "uint256"
        }
      ],
      "name": "acceptBorrowingRequest",
      "outputs": [],
      "stateMutability": "nonpayable",
      "type": "function"
    },
    {
      "inputs": [
        {
          "internalType": "address",
          "name": "principalToken",
          "type": "address"
        },
        {
          "internalType": "address",
          "name": "collateralToken",
          "type": "address"
        },
        {
          "internalType": "uint256",
          "name": "collateralAmount_",
          "type": "uint256"
        },
        {
          "internalType": "uint256",
          "name": "interest",
          "type": "uint256"
        },
        {
          "internalType": "uint16",
          "name": "daysToMaturity",
          "type": "uint16"
        },
        {
          "internalType": "uint16",
          "name": "daysToExpire",
          "type": "uint16"
        }
      ],
      "name": "createBorrowingOffer",
      "outputs": [],
      "stateMutability": "payable",
      "type": "function"
    },
    {
      "inputs": [
        {
          "internalType": "uint160",
          "name": "offerId",
          "type": "uint160"
        },
        {
          "internalType": "uint16",
          "name": "percentage",
          "type": "uint16"
        },
        {
          "internalType": "address",
          "name": "collateralToken",
          "type": "address"
        },
        {
          "internalType": "uint256",
          "name": "interest",
          "type": "uint256"
        },
        {
          "internalType": "uint16",
          "name": "daysToMaturity",
          "type": "uint16"
        },
        {
          "internalType": "uint16",
          "name": "daysToExpire",
          "type": "uint16"
        }
      ],
      "name": "createBorrowingRequest",
      "outputs": [],
      "stateMutability": "payable",
      "type": "function"
    },
    {
      "inputs": [
        {
          "internalType": "uint160",
          "name": "offerId",
          "type": "uint160"
        },
        {
          "internalType": "uint16",
          "name": "percentage",
          "type": "uint16"
        },
        {
          "internalType": "address",
          "name": "collateralToken",
          "type": "address"
        }
      ],
      "name": "acceptLendingOffer",
      "outputs": [],
      "stateMutability": "payable",
      "type": "function"
    },
    {
      "inputs": [
        {
          "internalType": "uint256",
          "name": "requestId",
          "type": "uint256"
        }
      ],
      "name": "acceptLendingRequest",
      "outputs": [],
      "stateMutability": "payable",
      "type": "function"
    },
    {
      "inputs": [],
      "name": "reActivateOffer",
      "outputs": [],
      "stateMutability": "payable",
      "type": "function"
    },
    {
      "inputs": [],
      "name": "reActivateRequest",
      "outputs": [],
      "stateMutability": "payable",
      "type": "function"
    },
    {
      "inputs": [
        {
          "internalType": "uint256",
          "name": "loanId",
          "type": "uint256"
        },
        {
          "internalType": "uint16",
          "name": "percentage",
          "type": "uint16"
        }
      ],
      "name": "repayLoan",
      "outputs": [],
      "stateMutability": "payable",
      "type": "function"
    },
    {
      "inputs": [
        {
          "internalType": "uint256",
          "name": "loanId",
          "type": "uint256"
        }
      ],
      "name": "repayLiquidatedLoan",
      "outputs": [],
      "stateMutability": "payable",
      "type": "function"
    },
    {
      "inputs": [
        {
          "internalType": "address",
          "name": "ltv_",
          "type": "address"
        }
      ],
      "name": "setLTV",
      "outputs": [],
      "stateMutability": "nonpayable",
      "type": "function"
    },
    {
      "inputs": [
        {
          "internalType": "address",
          "name": "activity_",
          "type": "address"
        }
      ],
      "name": "setActivity",
      "outputs": [],
      "stateMutability": "nonpayable",
      "type": "function"
    },
    {
      "inputs": [
        {
          "internalType": "address",
          "name": "priceFeed_",
          "type": "address"
        }
      ],
      "name": "setPriceFeed",
      "outputs": [],
      "stateMutability": "nonpayable",
      "type": "function"
    },
    {
      "inputs": [
        {
          "internalType": "address",
          "name": "newOwner",
          "type": "address"
        }
      ],
      "name": "changeOwner",
      "outputs": [],
      "stateMutability": "nonpayable",
      "type": "function"
    }
  ],
  "bytecode": "0x608034620000ba57601f6200398838819003918201601f19168301916001600160401b03831184841017620000bf57808492606094604052833981010312620000ba576200004d81620000d5565b906200006a60406200006260208401620000d5565b9201620000d5565b600160005560018060a01b0380928160018060a01b0319951685600554161760055516836006541617600655168160075416176007553390600154161760015560405161389d9081620000eb8239f35b600080fd5b634e487b7160e01b600052604160045260246000fd5b51906001600160a01b0382168203620000ba5756fe6080604052600436101561001257600080fd5b6000803560e01c806310e14e19146131cc5780632e4763371461319d57806331f00e8d14612be157806337787d51146101365780634ab2618c1461264b5780634add7c82146120745780635c7f31aa14611b225780635cb933981461121557806361ba944314611205578063628118ee14610ca8578063724e78da14610c5d5780639ca6005f14610752578063a6f9dae114610709578063afaa0691146104f1578063c1bc89ef146101fa578063cc3266e8146101d7578063e0b26959146101b0578063e0f7dffd1461018b578063e3f43fdb14610140578063eb1f613d146101365763f4e02f4614610105575b600080fd5b3461013357604036600319011261013357602061012b610123613243565b600435613830565b604051908152f35b80fd5b505061010061328c565b50346101335760203660031901126101335761015a613217565b6001546001600160a01b0391906101749083163314613759565b166001600160601b0360a01b600254161760025580f35b503461013357606036600319011261013357602061012b6044356024356004356137e2565b503461013357604036600319011261013357602061012b6101cf613243565b60043561380c565b50346101335780600319360112610133576020604051670de0b6b3a76400008152f35b5060c03660031901126101335761020f613243565b60443567ffffffffffffffff8111610416573660238201121561041657806004013561023a816132d1565b9061024860405192836132af565b8082526020928383016024819360051b830101913683116104ed57602401905b8282106104ce575050506064359161ffff8084168094036101005761028b61327b565b91805115610489576001600160a01b038781169390929073eeeeeeeeeeeeeeeeeeeeeeeeeeeeeeeeeeeeeeee850361041a578934995b8560055416803b1561041657604051638340f54960e01b81523360048201526001600160a01b03929092166024830152604482018c905282908290606490829084905af1801561040b576103f3575b5093919288979996938360079793975416966040519b8c9963031137cd60e61b8b5260e48b019560048c015260248b015260843560448b015260648a015216608488015260e060a4880152518091526101048601929184905b8282106103d25750505050908380923360c483015203925af180156103c757610390578280f35b81813d83116103c0575b6103a481836132af565b810103126103bc576103b590613301565b5038808280f35b5080fd5b503d61039a565b6040513d85823e3d90fd5b83518116855289988b98508c96509485019490930192600190910190610369565b6103fc9061329b565b610407578938610310565b8980fd5b6040513d84823e3d90fd5b8280fd5b6040516323b872dd60e01b8152336004808301919091523060248301523560448201819052998b918a81606481868c5af180156103c75761045c575b506102c1565b61047b908b3d8d11610482575b61047381836132af565b8101906132e9565b5038610456565b503d610469565b60405162461bcd60e51b815260048101879052601760248201527f4552525f4e4f5f434f4c4c41544552414c5f54595045530000000000000000006044820152606490fd5b81356001600160a01b0381168103610100578152908501908501610268565b8780fd5b5060a036600319011261013357610506613217565b61050e613259565b906044359061ffff80831680930361010057849261052a61326a565b9461053481613796565b60018060a01b03948593818560075416966024604051809a8193630ce7621960e11b835216998a60048301525afa96871561040b5782976106e5575b506105838160608901519416809461380c565b956020809801968688511673eeeeeeeeeeeeeeeeeeeeeeeeeeeeeeeeeeeeeeee811460001461067e575080341061067a575b86806005541698511690883b1561067657604051638340f54960e01b81523360048201526001600160a01b0392909216602483015260448201529683908890606490829084905af19586156103c757889661065b575b60c4959697506007541691604051998a97889663ab488b0b60e01b885260048801526064356024880152604487015216606485015233608485015260a48401525af180156103c757610390578280f35b94955095610669839161329b565b6103bc578587959461060b565b8480fd5b8380fd5b6040516323b872dd60e01b815233600482015230602482015260448101839052908a908290606490829089905af180156106da576106bd575b506105b5565b6106d3908a3d8c116104825761047381836132af565b50386106b7565b6040513d87823e3d90fd5b6107029197503d8084833e6106fa81836132af565b810190613324565b9538610570565b503461013357602036600319011261013357610723613217565b600154906001600160a01b039061073d3383851614613759565b16906001600160601b0360a01b161760015580f35b5060c03660031901126101335780610768613217565b610770613243565b906044359061077d61326a565b9061078661327b565b906001600160a01b03851673eeeeeeeeeeeeeeeeeeeeeeeeeeeeeeeeeeeeeeee03610bf5573493506107f8925b600354604051631c07d98160e21b81526001600160a01b03888116600483015284811660248301526044820188905290956020928792169082908b9082906064820190565b03925af1938415610bea578794610bb3575b5060035460405163912d228f60e01b8082526001600160a01b0385811660048401526024830188905290969192602091849160449183918e91165af1918215610adc578992610b7b575b50600480546040516322a0fe3360e21b815233928101929092526024820193909352916001600160a01b03169060208380604481015b0381855afa928315610b70578a93610b2b575b506108ac600493602092613830565b9160405193848092636882509b60e11b82525afa918215610adc578992610aeb575b5060ff6108dc92169061359e565b9060018060a01b036005541690813b15610ae757604051638340f54960e01b81523360048201526001600160a01b0389166024820152604481018890529189908390606490829084905af1918215610adc578992610ac4575b5060075460405163486c386960e11b81526001600160a01b0395861660048201528986166024820152604481018990526064808201959095529335608485015261ffff91821660a4850152941660c48301523360e483015290926020928492610104928492165af180156106da57610a80575b506003546040519182526001600160a01b039384166004830152602482019290925291602091839116818581604481015b03925af190811561040b578291610a4b575b506002546001600160a01b0316803b15610a475760405163094f618d60e11b8152336004820152602481019290925282908290818381604481015b03925af1801561040b57610a375750f35b610a409061329b565b6101335780f35b5050fd5b9150506020813d602011610a78575b81610a67602093836132af565b8101031261010057819051386109eb565b3d9150610a5a565b91906020833d602011610abc575b81610a9b602093836132af565b81010312610676576109d993610ab2602094613301565b50935090916109a8565b3d9150610a8e565b610ad09092919261329b565b6104ed57879038610935565b6040513d8b823e3d90fd5b8880fd5b91506020823d602011610b23575b81610b06602093836132af565b81010312610ae75760ff610b1c6108dc93613590565b92506108ce565b3d9150610af9565b92506020833d602011610b68575b81610b46602093836132af565b81010312610407576108ac602091610b5f600495613301565b9450915061089d565b3d9150610b39565b6040513d8c823e3d90fd5b915097506020813d602011610bab575b81610b98602093836132af565b810103126101005751889761088a610854565b3d9150610b8b565b965092506020863d602011610be2575b81610bd0602093836132af565b8101031261010057869551923861080a565b3d9150610bc3565b6040513d89823e3d90fd5b6040516323b872dd60e01b815233600482015230602482015260448101859052926020846064818a6001600160a01b038b165af1938415610bea576107f894610c3f575b506107b3565b610c569060203d81116104825761047381836132af565b5038610c39565b503461013357602036600319011261013357610c77613217565b6001546001600160a01b039190610c919083163314613759565b166001600160601b0360a01b600354161760035580f35b5060403660031901126101335760043590610cc1613259565b600654604051632820036560e11b815260048101859052602494926001600160a01b0392909190831661020080838981855afa928315610bea5787936110b4575b5050610d2661ffff80941693610d1b60648611156136de565b60198506161561371c565b836101c083015116330361107d57836101608301511684421603848111611068578695610d78610d68610d5d8760a088015161380c565b9660e087015161380c565b92876101408701519116876137e2565b926040519163464244f960e11b83526004830152858a8301528260448301528160648160209a8b945af18015610f665761104b575b50606083018051909373eeeeeeeeeeeeeeeeeeeeeeeeeeeeeeeeeeeeeeee918716828103610fe45750833410610ae757918789939288608086955b015116908103610f8d575050818091818115610f84575b3390f1156106da575b83600354168483511691848103908111610f715760405163912d228f60e01b8082526001600160a01b0394909416600482015260248101919091529697889796909590949093909290918590889060449082908c905af1968715610f66578897610f2e575b50600354915160405191825284166001600160a01b0316600482015260248101929092528390829060449082908a9087165af1928315610f23578693610ef0575b505060025416803b1561067657849283606492604051968795869463720722fd60e01b865233600487015285015260448401525af1801561040b57610a375750f35b819650809293503d8311610f1c575b610f0981836132af565b8101031261010057849351903880610eae565b503d610eff565b6040513d88823e3d90fd5b9297509550908381813d8111610f5f575b610f4981836132af565b8101031261010057518796909590919084610e6d565b503d610f3f565b6040513d8a823e3d90fd5b634e487b7160e01b885260116004528888fd5b506108fc610dff565b60405163a9059cbb60e01b815233600482015260248101939093529193909250839160449183915af18015610bea57610fc7575b50610e08565b610fdd90863d88116104825761047381836132af565b5038610fc1565b6040516323b872dd60e01b815233600482015230602482015260448101869052908990829060649082908e905af18015610b7057928860808c96948c94889761102e575b50610de8565b61104490863d88116104825761047381836132af565b5038611028565b61106190873d89116104825761047381836132af565b5038610dad565b87634e487b7160e01b60005260116004526000fd5b60405162461bcd60e51b8152602060048201526010818901526f22a9292fa727aa2fa127a92927aba2a960811b6044820152606490fd5b908092935081813d83116111fe575b6110cd81836132af565b810103126111fa5760405191820182811067ffffffffffffffff8211176111e5576040526110fa81613301565b8252602081015160038110156104ed576020830152604081015160028110156104ed57604083015261112e60608201613301565b606083015261113f60808201613301565b608083015260a081015160a083015260c081015160c083015260e081015160e0830152610100808201519083015261012080820151908301526101408082015190830152610160611191818301613301565b908301526101806111a3818301613301565b908301526101a06111b5818301613590565b908301526101c06111c7818301613301565b908301526111d96101e0809201613301565b90820152903880610d02565b88634e487b7160e01b60005260416004526000fd5b8680fd5b503d6110c3565b5060203660031901126101335780f35b5060603660031901126101335761122a613217565b90611233613259565b61123b61322d565b9061124581613796565b600754604051630ce7621960e11b81526001600160a01b038681166004830152602496919391921685848881845afa938415610f23578694611b06575b50604051634cf732f160e11b81526001600160a01b0384811660048301528616602482015290602090829060449082905afa908115610f23576112e192916112d1918891611ae7575b506135be565b61ffff606085015191169061380c565b60035460208481015160405163912d228f60e01b81526001600160a01b0391821660048201526024810185905293969392839160449183918b91165af1908115610f23578691611ab4575b50600480546040516322a0fe3360e21b81523392810192909252602482019290925290602090829060449082906001600160a01b03165afa8015610f23578690611a79575b600354602086810151604051631c07d98160e21b81526001600160a01b0391821660048201528682166024820152604481018a905294509091849116818a81606481015b03925af18015610bea578790611a45575b6113d0925061380c565b60048054604051636882509b60e11b81529160209183919082906001600160a01b03165afa908115610bea578791611a03575b509060ff61141292169061359e565b9073eeeeeeeeeeeeeeeeeeeeeeeeeeeeeeeeeeeeeeee6001600160a01b0382168181036119a45750348310611968575b60208501516001600160a01b03169081036117d7575085808098508680156117cd575b8280929181923390f1156106da575b6005546101208501516001600160a01b039081169116803b156104ed57604051633c6340f360e21b81523360048201526001600160a01b03928316602482015291831660448301526064820184905287908290608490829084905af1908115610bea5787916117b9575b505060055461012085015160208601516001600160a01b03928316929081169116823b15610ae757604051633dae446f60e21b81526001600160a01b03918216600482015291166024820152604481018790529087908290606490829084905af1908115610bea5787916117a1575b505060035460405163912d228f60e01b81526001600160a01b03838116600483015260248201859052909291602091849160449183918c91165af1918215610bea57879261176a575b5060209186918860018060a01b0360065416926115f960018060a01b03878b01511691898b61ffff60a0608083015192015116908d61012060018060a01b0391015116936040519c8d9b8c9a8b99636667fe2160e11b8b52339760048c01613528565b03925af180156106da5761173b575b506007546001600160a01b0316803b156106765760405163d0dd830360e01b81526001600160a01b0390921660048301526024820184905284908290818381604481015b03925af190811561173057849161171c575b505060035460209182015160405163912d228f60e01b81526001600160a01b0391821660048201526024810194909452839160449183918791165af190811561040b5782916116e7575b506002546001600160a01b0316803b15610a47576040516311eba9df60e21b815233600482015260248101929092528290829081838160448101610a26565b9150506020813d602011611714575b81611703602093836132af565b8101031261010057819051386116a8565b3d91506116f6565b6117259061329b565b610a4757823861165e565b6040513d86823e3d90fd5b6020809295503d8311611763575b61175381836132af565b8101031261010057839238611608565b503d611749565b965090506020863d602011611799575b81611787602093836132af565b81010312610100579451869585611596565b3d915061177a565b6117aa9061329b565b6117b557853861154d565b8580fd5b6117c29061329b565b6117b55785386114de565b6108fc9150611465565b6040805163a9059cbb60e01b602080830191909152338b83019081528082018a90528290039081018252909161180e9101826132af565b6040519081604081011067ffffffffffffffff6040840111176119535788809160408401604052602084527f5361666545524332303a206c6f772d6c6576656c2063616c6c206661696c6564602085015260208151910182865af13d15611946573d9067ffffffffffffffff8211611931576118aa936040519261189c6020601f19601f84011601856132af565b83523d8b602085013e61360a565b8051806118bc575b5050859650611474565b906020806118ce9383010191016132e9565b156118da5786806118b2565b60405162461bcd60e51b815260206004820152602a818901527f5361666545524332303a204552433230206f7065726174696f6e20646964206e6044820152691bdd081cdd58d8d9595960b21b6064820152608490fd5b8a634e487b7160e01b60005260416004526000fd5b916118aa9260609161360a565b89634e487b7160e01b60005260416004526000fd5b60405162461bcd60e51b8152602060048201526015818a01527411549497d0d3d31310551154905317d05353d55395605a1b6044820152606490fd5b6040516323b872dd60e01b81523360048201523060248201526044810185905290602090829060649082908c905af18015610f66576119e4575b50611442565b6119fc9060203d6020116104825761047381836132af565b50386119de565b90506020813d602011611a3d575b81611a1e602093836132af565b810103126111fa579060ff611a3561141293613590565b919250611403565b3d9150611a11565b506020823d602011611a71575b81611a5f602093836132af565b81010312610100576113d091516113c6565b3d9150611a52565b506020813d602011611aac575b81611a93602093836132af565b810103126117b557611aa76113b591613301565b611371565b3d9150611a86565b90506020813d602011611adf575b81611acf602093836132af565b810103126101005751602061132c565b3d9150611ac2565b611b00915060203d6020116104825761047381836132af565b386112cb565b611b1b9194503d8088833e6106fa81836132af565b9238611282565b506020366003190112610133576007546040516314c7eb4960e01b815260048035908201526001600160a01b03909116906101008082602481865afa918215611730578492611f98575b505060e0810151604051632bdd7c7760e01b81526001600160a01b039091166004820152610180928390829060249082905afa928315611730578493611f69575b50506101608201516001600160a01b03163303611f305781608084930151611bf4611be2602085019261ffff8451169061380c565b9161ffff60c08501519151169061380c565b60208301519093906001600160a01b031673eeeeeeeeeeeeeeeeeeeeeeeeeeeeeeeeeeeeeeee8103611ed757508480858015611ecd575b8280929181923390f115611730575b60055460c082015160408501516001600160a01b03928316929081169116823b156104ed57604051633c6340f360e21b81523360048201526001600160a01b03918216602482015291166044820152606481018490529086908290608490829084905af1908115610f23578691611eb9575b505060055460c082015160208501516001600160a01b03928316929081169116823b156104ed57604051633dae446f60e21b81526001600160a01b03918216600482015291166024820152604481018690529086908290606490829084905af1908115610f23578691611ea5575b5050600354604084810151905163912d228f60e01b81526001600160a01b039182166004820152602481018590529291602091849160449183918b91165af1918215610f23578692611e6e575b5060209185918760018060a01b036006541692611de260018060a01b0360e0850151169160018060a01b03888b0151169260018060a01b0360408c01511695608081015161ffff6040830151169160c060018060a01b0391015116936040519c8d9b8c9a8b99636667fe2160e11b8b52339760048c01613528565b03925af1801561173057611e3f575b5060075481516001600160a01b039081169116803b156106765760405163d0dd830360e01b81526001600160a01b03909216600483015260248201849052849082908183816044810161164c565b6020809294503d8311611e67575b611e5781836132af565b8101031261010057829138611df1565b503d611e4d565b955090506020853d602011611e9d575b81611e8b602093836132af565b81010312610100579351859484611d67565b3d9150611e7e565b611eae9061329b565b610676578438611d1a565b611ec29061329b565b610676578438611cac565b6108fc9150611c2b565b60405163a9059cbb60e01b81523360048201526024810186905290602090829060449082908a905af18015610f2357611f11575b50611c3a565b611f299060203d6020116104825761047381836132af565b5038611f0b565b60405162461bcd60e51b815260206004820152601160248201527022a9292fa7a7262cafa127a92927aba2a960791b6044820152606490fd5b611f89929350803d10611f91575b611f8181836132af565b81019061345b565b903880611bad565b503d611f77565b9080925081813d831161206d575b611fb081836132af565b8101031261067a5760405191820182811067ffffffffffffffff8211176120575761204b9160e091604052611fe481613301565b8452611ff260208201613315565b602085015261200360408201613315565b604085015261201460608201613301565b60608501526080810151608085015261202f60a08201613301565b60a085015261204060c08201613301565b60c085015201613301565b60e08201523880611b6c565b634e487b7160e01b600052604160045260246000fd5b503d611fa6565b503461013357602036600319011261013357600754604051632a3884d760e21b815260048035908201526001600160a01b03909116906101608082602481865afa91821561173057849261255e575b50508260018060a01b0361014083015116602460405180958193630ce7621960e11b835260048301525afa9182156103c7578392612542575b50610120828101519091906001600160a01b0316330361250b578261212f60608695015161ffff6020850151169061380c565b602082015190929083906001600160a01b031673eeeeeeeeeeeeeeeeeeeeeeeeeeeeeeeeeeeeeeee81036124a457508185015186918291829182916001600160a01b031682821561249b575bf115611730575b60055493810180516040830151606084015192966001600160a01b0391821693928216929116803b15610ae757604051633c6340f360e21b81526001600160a01b039384166004820152336024820152939092166044840152606483015286908290608490829084905af1908115610f23578691612487575b505060055460208301516001600160a01b039081169116803b156111fa57604051633dae446f60e21b81523360048201526001600160a01b039290921660248301526044820185905286908290606490829084905af1908115610f23578691612473575b505060018060a01b036006541660208460018060a01b03610140850151169260018060a01b0383870151168960018060a01b03604088015116916122e260608901519760808a01518d8b61ffff60a060e0830151920151169160018060a01b03905116926040519c8d9b8c9a8b99636667fe2160e11b8b52339860048c01613528565b03925af18015610f2357612444575b506007546101408201516060909201516001600160a01b039182169290911690823b156111fa57604051634e1df74360e01b81526001600160a01b039290921660048301526024820185905260448201529085908290606490829084905af19081156106da578591612430575b505060035460209182015160405163912d228f60e01b81526001600160a01b0391821660048201526024810194909452839160449183918891165af19081156103c75783916123fb575b5060025491516001600160a01b03928316921690823b156123f6576040516311eba9df60e21b81526001600160a01b0390921660048301526024820152908290829081838160448101610a26565b505050fd5b9250506020823d602011612428575b81612417602093836132af565b8101031261010057829151386123a8565b3d915061240a565b6124399061329b565b6123f657833861235e565b6020809296503d831161246c575b61245c81836132af565b81010312610100578493386122f1565b503d612452565b61247c9061329b565b61067657843861225f565b6124909061329b565b6106765784386121fb565b506108fc61217b565b8286015160405163a9059cbb60e01b81526001600160a01b0390911660048201526024810192909252602090829060449082908a905af18015610f23576124ec575b50612182565b6125049060203d6020116104825761047381836132af565b50386124e6565b60405162461bcd60e51b815260206004820152600f60248201526e22a9292fa7a7262cafa622a72222a960891b6044820152606490fd5b6125579192503d8085833e6106fa81836132af565b90386120fc565b9080925081813d8311612644575b61257681836132af565b8101031261067a5760405191820182811067ffffffffffffffff821117612057576040526125a381613301565b82526125b160208201613315565b60208301526125c260408201613301565b604083015260608101516060830152608081015160808301526125e760a08201613315565b60a08301526125f860c08201613301565b60c083015260e081015160e0830152610100612615818301613301565b90830152610120612627818301613301565b90830152612639610140809201613301565b9082015238806120c3565b503d61256c565b5060c03660031901126101335780612661613217565b612669613259565b61267161322d565b9061267a61326a565b9261268361327b565b9061268d83613796565b600754604051630ce7621960e11b81526001600160a01b0383811660048301529091168782602481845afa918215610f66578892612bc5575b50604051634cf732f160e11b81526001600160a01b0384811660048301528716602482015290602090829060449082905afa8015610f665761270e918991611ae757506135be565b612721606082015161ffff86169061380c565b6003546020928301805160405163912d228f60e01b81526001600160a01b039182166004820152602481018590529394919392839160449183918e91165af1908115610adc578991612b8b575b50600480546040516322a0fe3360e21b815233928101929092526024820192909252929190602090849060449082906001600160a01b03165afa928315610adc578993612b47575b506003549051604051631c07d98160e21b81526001600160a01b03918216600482015281891660248201526044810193909352602091839116818b81606481015b03925af1908115610f66578891612b0f575b506004916128169161380c565b8154604051636882509b60e11b81529260209184919082906001600160a01b03165afa918215610f66578892612acf575b5060ff61285592169061359e565b916001600160a01b03851673eeeeeeeeeeeeeeeeeeeeeeeeeeeeeeeeeeeeeeee03612a6c573483106111fa575b6005546001600160a01b0316803b156104ed57604051638340f54960e01b81523360048201526001600160a01b0387166024820152604481018590529088908290606490829084905af1908115610f66578891612a58575b505060035460405163912d228f60e01b81526001600160a01b03878116600483015260248201869052909791602091899160449183918d91165af1968715610f66578897612a15575b5060075460405163aba001ed60e01b815261ffff96871660048201526001600160a01b0397881660248201526044810195909552606480860189905235608486015290851660a4850152931660c48301523360e483015283166101048201529160209183916101249183918891165af180156103c7576129dc57506002546001600160a01b0316803b15610a475760405163094f618d60e11b815233600482015260248101929092528290829081838160448101610a26565b6020813d602011612a0d575b816129f5602093836132af565b81010312610a4757612a0690613301565b50386109eb565b3d91506129e8565b92939491975095506020823d602011612a50575b81612a36602093836132af565b81010312610100579051879690959193929161ffff612923565b3d9150612a29565b612a619061329b565b6111fa5786386128da565b6040516323b872dd60e01b8152336004820152306024820152604481018490526020816064818b6001600160a01b038b165af18015610f6657612ab0575b50612882565b612ac89060203d6020116104825761047381836132af565b5038612aaa565b91506020823d602011612b07575b81612aea602093836132af565b810103126104ed5760ff612b0061285593613590565b9250612847565b3d9150612add565b9750506020873d602011612b3f575b81612b2b602093836132af565b810103126101005795518796906004612809565b3d9150612b1e565b9092506020813d602011612b83575b81612b63602093836132af565b81010312610ae7576127f791612b7a602092613301565b939150916127b6565b3d9150612b56565b92919850506020823d602011612bbd575b81612ba9602093836132af565b81010312610100579051889790602061276e565b3d9150612b9c565b612bda9192503d808a833e6106fa81836132af565b90386126c6565b50604036600319011261013357612bf6613217565b90612bff613259565b612c0881613796565b600754604051632bdd7c7760e01b81526001600160a01b0385811660048301526101809392849183916024918391165afa92831561173057849361317e575b50506101608201516001600160a01b0316331461314357612c80612c7561ffff60808501519316809361380c565b9160c084015161380c565b60208301519091906001600160a01b031673eeeeeeeeeeeeeeeeeeeeeeeeeeeeeeeeeeeeeeee810361307b575081341061067a57838080808560018060a01b0361016089015116828215613072575bf1156103c7575b60055461016084015160408501516001600160a01b0392831697929081169116873b156111fa57604051633c6340f360e21b81526001600160a01b03918216600482015233602482015291166044820152606481018390529585908790608490829084905af180156106da5761305e575b600554602085015195965086956001600160a01b039081169116803b156111fa57604051633dae446f60e21b81523360048201526001600160a01b039290921660248301526044820185905286908290606490829084905af1908115610f2357869161304a575b5050600354604085810151905163912d228f60e01b81526001600160a01b0391821660048201526024810185905291602091839160449183918b91165af1908115610f23578691613015575b5060065485516020808801516040808a015160e08b01516101008c01516101608d01519351636667fe2160e11b81526001600160a01b0397881660048201526001602482015294871660448601529186166064850152608484018b905260a484018a905260c484019790975260e483019690965261ffff909516610104820152938216610124850152336101448501529183916101649183918b91165af18015610f2357612fe6575b506007546001600160a01b031691823b156117b557604051634e1df74360e01b81526001600160a01b039290921660048301526024820184905260448201529084908290606490829084905af1908115611730578491612fd2575b505060035460208381015160405163912d228f60e01b81526001600160a01b03918216600482015260248101949094529091839160449183918891165af19081156103c7578391612f9d575b50600254610160909201516001600160a01b03928316921690823b156123f6576040516311eba9df60e21b81526001600160a01b0390921660048301526024820152908290829081838160448101610a26565b9250506020823d602011612fca575b81612fb9602093836132af565b810103126101005782915138612f4a565b3d9150612fac565b612fdb9061329b565b610a47578238612efe565b6020809296503d831161300e575b612ffe81836132af565b8101031261010057849338612ea3565b503d612ff4565b9550506020853d602011613042575b81613031602093836132af565b810103126101005785945138612dfa565b3d9150613024565b6130539061329b565b610676578438612dae565b93909461306a9061329b565b928490612d47565b506108fc612ccf565b6040516323b872dd60e01b815233600482015230602482015260448101849052906020908290606490829089905af180156106da57613124575b5060208381015161016085015160405163a9059cbb60e01b81526001600160a01b039182166004820152602481018690529291839160449183918a91165af180156106da57613105575b50612cd6565b61311d9060203d6020116104825761047381836132af565b50386130ff565b61313c9060203d6020116104825761047381836132af565b50386130b5565b60405162461bcd60e51b815260206004820152601360248201527222a9292fa1a0a72a2fa127a92927abafa7aba760691b6044820152606490fd5b613195929350803d10611f9157611f8181836132af565b903880612c47565b5034610133578060031936011261013357602060405173eeeeeeeeeeeeeeeeeeeeeeeeeeeeeeeeeeeeeeee8152f35b5034610133576020366003190112610133576131e6613217565b6001546001600160a01b0391906132009083163314613759565b166001600160601b0360a01b600454161760045580f35b600435906001600160a01b038216820361010057565b604435906001600160a01b038216820361010057565b602435906001600160a01b038216820361010057565b6024359061ffff8216820361010057565b6084359061ffff8216820361010057565b60a4359061ffff8216820361010057565b50600036600319011261010057005b67ffffffffffffffff811161205757604052565b90601f8019910116810190811067ffffffffffffffff82111761205757604052565b67ffffffffffffffff81116120575760051b60200190565b90816020910312610100575180151581036101005790565b51906001600160a01b038216820361010057565b519061ffff8216820361010057565b90602090818382031261010057825167ffffffffffffffff9384821161010057019161014093848484031261010057604051948501858110828211176120575760405261337084613301565b855261337d828501613301565b828601526040840151604086015260608401516060860152608084015160808601526133ab60a08501613315565b60a086015260c08401519081116101005783019180601f840112156101005782516133d5816132d1565b936133e360405195866132af565b818552838086019260051b820101928311610100578301905b828210613444575050505060c083015261341860e08201613301565b60e083015261010061342b818301613301565b9083015261343d610120809201613301565b9082015290565b83809161345084613301565b8152019101906133fc565b809161018092839103126101005760405191820182811067ffffffffffffffff8211176120575760405261348e81613301565b825261349c60208201613301565b60208301526134ad60408201613301565b6040830152606081015160608301526080810151608083015260a081015160a083015260c081015160c083015260e081015160e08301526101006134f2818301613315565b90830152610120613504818301613301565b90830152610140613516818301613301565b9083015261343d610160809201613301565b6001600160a01b0391821681526000602082015291811660408301529182166060820152608081019290925260a082019290925260c081019290925260e082019290925261ffff90921661010083015291821661012082015291166101408201526101600190565b519060ff8216820361010057565b81156135a8570490565b634e487b7160e01b600052601260045260246000fd5b156135c557565b60405162461bcd60e51b815260206004820152601c60248201527f4552525f434f4c4c41544552414c5f4e4f545f535550504f52544544000000006044820152606490fd5b9192901561366c575081511561361e575090565b3b156136275790565b60405162461bcd60e51b815260206004820152601d60248201527f416464726573733a2063616c6c20746f206e6f6e2d636f6e74726163740000006044820152606490fd5b82519091501561367f5750805190602001fd5b6040519062461bcd60e51b82528160208060048301528251908160248401526000935b8285106136c5575050604492506000838284010152601f80199101168101030190fd5b84810182015186860160440152938101938593506136a2565b156136e557565b60405162461bcd60e51b815260206004820152600f60248201526e4f5645525f50455243454e5441474560881b6044820152606490fd5b1561372357565b60405162461bcd60e51b815260206004820152600e60248201526d4552525f50455243454e5441474560901b6044820152606490fd5b1561376057565b60405162461bcd60e51b815260206004820152600e60248201526d22a9292fa7a7262cafa7aba722a960911b6044820152606490fd5b6137b790601961ffff8092166137af60648211156136de565b06161561371c565b565b818102929181159184041417156137cc57565b634e487b7160e01b600052601160045260246000fd5b91670de0b6b3a7640000916137fa6137ff92856137b9565b6137b9565b0481018091116137cc5790565b906001600160a01b0316801561382c57613828906064926137b9565b0490565b5090565b906001600160a01b039081166064811061010057606319018181116137cc5781166064039081116137cc576138649161380c565b9056fea264697066735822122025b57f785f62a7050a070ad9fdc043a9155b163903c3ac59422914eebcc309ab64736f6c63430008110033",
  "immutableReferences": {},
  "source": "// SPDX-License-Identifier: GPL-3.0\r\npragma solidity >=0.7.0 <0.9.0;\r\n\r\nimport \"./Activity.sol\";\r\n\r\nimport \"./libraries/Errors.sol\";\r\nimport \"./libraries/PoolLibrary.sol\";\r\n\r\nimport \"./math/SimpleInterest.sol\";\r\n\r\nimport \"./interfaces/IPriceFeed.sol\";\r\nimport \"./interfaces/ILoanToValueRatio.sol\";\r\n\r\nimport \"./managers/LoanManager.sol\";\r\nimport \"./managers/OfferManager.sol\";\r\nimport \"./managers/PoolManager.sol\";\r\n\r\nimport \"@openzeppelin/contracts/utils/Context.sol\";\r\nimport \"@openzeppelin/contracts/utils/math/SafeMath.sol\";\r\nimport \"@openzeppelin/contracts/token/ERC20/utils/SafeERC20.sol\";\r\nimport \"@openzeppelin/contracts/token/ERC20/ERC20.sol\";\r\nimport \"@openzeppelin/contracts/security/ReentrancyGuard.sol\";\r\n\r\ncontract LendingPool is Context, ReentrancyGuard, SimpleInterest {\r\n    using SafeMath for uint256;\r\n    using SafeERC20 for ERC20;\r\n\r\n    address deployer;\r\n\r\n    Activity private _activity;\r\n    IPriceFeed private _priceFeed;\r\n    ILoanToValueRatio private _ltv;\r\n\r\n    // managers\r\n    PoolManager private _poolManager;\r\n    LoanManager private _loanManager;\r\n    OfferManager private _offerManager;\r\n\r\n    address public constant nativeAddress =\r\n        0xEeeeeEeeeEeEeeEeEeEeeEEEeeeeEeeeeeeeEEeE;\r\n\r\n    constructor(\r\n        address poolManager_,\r\n        address loanManager_,\r\n        address offerManager_\r\n    ) ReentrancyGuard() {\r\n        _poolManager = PoolManager(poolManager_);\r\n        _loanManager = LoanManager(loanManager_);\r\n        _offerManager = OfferManager(offerManager_);\r\n\r\n        deployer = _msgSender();\r\n    }\r\n\r\n    // @lenders\r\n    function createLendingOffer(\r\n        uint256 principalAmount_, // only for ERC20 assets\r\n        address principalToken,\r\n        address[] memory collateralTokens,\r\n        uint16 daysToMaturity,\r\n        uint256 interest,\r\n        uint16 daysToExpire\r\n    ) public payable {\r\n        uint256 principalAmount;\r\n\r\n        require(collateralTokens.length > 0, \"ERR_NO_COLLATERAL_TYPES\");\r\n\r\n        /* extract tokens from lender */\r\n        if (principalToken == nativeAddress) {\r\n            principalAmount = msg.value;\r\n        } else {\r\n            principalAmount = principalAmount_;\r\n            ERC20(principalToken).transferFrom(\r\n                _msgSender(),\r\n                address(this),\r\n                principalAmount\r\n            );\r\n        }\r\n\r\n        /* delegate principal to lender */\r\n        _poolManager.deposit(_msgSender(), principalToken, principalAmount);\r\n\r\n        /* create the lending offer */\r\n        _offerManager.createLendingOffer(\r\n            principalToken,\r\n            principalAmount,\r\n            interest,\r\n            daysToMaturity,\r\n            daysToExpire,\r\n            collateralTokens,\r\n            _msgSender()\r\n        );\r\n    }\r\n\r\n    // @lenders\r\n    function createLendingRequest(\r\n        uint160 offerId,\r\n        uint16 percentage,\r\n        uint16 daysToMaturity,\r\n        uint256 interest,\r\n        uint16 daysToExpire\r\n    ) public payable {\r\n        _checkPercentage(percentage);\r\n\r\n        OfferLibrary.LendingOffer memory offer = _offerManager.getLendingOffer(\r\n            offerId\r\n        );\r\n\r\n        uint256 principalAmount = percentageOf(\r\n            offer.initialPrincipal,\r\n            percentage\r\n        );\r\n\r\n        /* extract tokens from lender */\r\n        if (offer.principalToken == nativeAddress) {\r\n            require(msg.value >= principalAmount);\r\n        } else {\r\n            ERC20(offer.principalToken).transferFrom(\r\n                _msgSender(),\r\n                address(this),\r\n                principalAmount\r\n            );\r\n        }\r\n\r\n        /* delegate principal to lender */\r\n        _poolManager.deposit(\r\n            _msgSender(),\r\n            offer.principalToken,\r\n            principalAmount\r\n        );\r\n\r\n        /* create the lending request */\r\n        _offerManager.createLendingRequest(\r\n            percentage,\r\n            interest,\r\n            daysToMaturity,\r\n            daysToExpire,\r\n            _msgSender(),\r\n            offerId\r\n        );\r\n    }\r\n\r\n    // @lenders\r\n    function acceptBorrowingOffer(uint160 offerId, uint16 percentage)\r\n        public\r\n        payable\r\n    {\r\n        _checkPercentage(percentage);\r\n\r\n        OfferLibrary.BorrowingOffer memory offer = _offerManager\r\n            .getBorrowingOffer(offerId);\r\n\r\n        require(_msgSender() != offer.borrower, \"ERR_CANT_BORROW_OWN\");\r\n\r\n        uint256 collateralAmount = percentageOf(\r\n            offer.initialCollateral,\r\n            percentage\r\n        );\r\n\r\n        uint256 principalAmount = percentageOf(\r\n            offer.initialPrincipal,\r\n            percentage\r\n        );\r\n\r\n        /* extract principal from lender/caller and transfer to borrower */\r\n        if (offer.principalToken == nativeAddress) {\r\n            require(msg.value >= principalAmount);\r\n            payable(offer.borrower).transfer(principalAmount);\r\n        } else {\r\n            ERC20(offer.principalToken).transferFrom(\r\n                _msgSender(),\r\n                address(this),\r\n                principalAmount\r\n            );\r\n            ERC20(offer.principalToken).transfer(\r\n                offer.borrower,\r\n                principalAmount\r\n            );\r\n        }\r\n\r\n        /* delegate the loan collateral to lender */\r\n        _poolManager.transfer(\r\n            offer.borrower,\r\n            _msgSender(),\r\n            offer.collateralToken,\r\n            collateralAmount\r\n        );\r\n        /* undelegate the principal from lender */\r\n        _poolManager.burn(_msgSender(), offer.principalToken, principalAmount);\r\n\r\n        uint256 collateralPriceInUSD = _priceFeed.amountInUSD(\r\n            offer.collateralToken,\r\n            collateralAmount\r\n        );\r\n\r\n        /* register the loan from the loan manager */\r\n        _loanManager.createLoan(\r\n            offer.offerId,\r\n            OfferLibrary.Type.BORROWING_OFFER,\r\n            offer.principalToken,\r\n            offer.collateralToken,\r\n            principalAmount,\r\n            collateralAmount,\r\n            collateralPriceInUSD,\r\n            offer.interest,\r\n            offer.daysToMaturity,\r\n            offer.borrower,\r\n            _msgSender()\r\n        );\r\n\r\n        // will revert the transaction if fail\r\n        _offerManager._afterOfferBorrowingLoan(\r\n            offerId,\r\n            principalAmount,\r\n            collateralAmount\r\n        );\r\n\r\n        // update activity\r\n        uint256 borrowedAmountInUSD = _priceFeed.amountInUSD(\r\n            offer.principalToken,\r\n            principalAmount\r\n        );\r\n        _activity._borrowLoan(offer.borrower, borrowedAmountInUSD);\r\n    }\r\n\r\n    // @lenders\r\n    function acceptBorrowingRequest(uint256 requestId) public {\r\n        RequestLibrary.BorrowingRequest memory request = _offerManager\r\n            .getBorrowingRequest(requestId);\r\n\r\n        OfferLibrary.LendingOffer memory offer = _offerManager.getLendingOffer(\r\n            request.offerId\r\n        );\r\n\r\n        require(offer.lender == _msgSender(), \"ERR_ONLY_LENDER\");\r\n\r\n        uint256 principalAmount = percentageOf(\r\n            offer.initialPrincipal,\r\n            request.percentage\r\n        );\r\n\r\n        /* transfer principal to borrower */\r\n        if (offer.principalToken == nativeAddress) {\r\n            payable(request.borrower).transfer(principalAmount);\r\n        } else {\r\n            ERC20(offer.principalToken).transfer(\r\n                request.borrower,\r\n                principalAmount\r\n            );\r\n        }\r\n\r\n        /* delegate the loan collateral to lender */\r\n        _poolManager.transfer(\r\n            request.borrower,\r\n            _msgSender(),\r\n            request.collateralToken,\r\n            request.collateralAmount\r\n        );\r\n        /* undelegate the principal from lender */\r\n        _poolManager.burn(_msgSender(), offer.principalToken, principalAmount);\r\n\r\n        /* register the loan from the loan manager */\r\n        _loanManager.createLoan(\r\n            request.offerId,\r\n            OfferLibrary.Type.LENDING_OFFER,\r\n            offer.principalToken,\r\n            request.collateralToken,\r\n            principalAmount,\r\n            request.collateralAmount,\r\n            request.collateralPriceInUSD,\r\n            request.interest,\r\n            request.daysToMaturity,\r\n            request.borrower,\r\n            _msgSender()\r\n        );\r\n\r\n        // will revert the transaction if fail\r\n        _offerManager._afterOfferBorrowingLoan(\r\n            request.offerId,\r\n            principalAmount,\r\n            request.collateralAmount\r\n        );\r\n\r\n        // update activity\r\n        uint256 amountBorrowedInUSD = _priceFeed.amountInUSD(\r\n            offer.principalToken,\r\n            principalAmount\r\n        );\r\n        _activity._borrowLoan(request.borrower, amountBorrowedInUSD);\r\n    }\r\n\r\n    // @borrower\r\n    function createBorrowingOffer(\r\n        address principalToken,\r\n        address collateralToken,\r\n        uint256 collateralAmount_, // for ERC20 assets\r\n        uint256 interest,\r\n        uint16 daysToMaturity,\r\n        uint16 daysToExpire\r\n    ) public payable {\r\n        uint256 collateralAmount;\r\n\r\n        /* extract collateral from borrower */\r\n        if (collateralToken == nativeAddress) {\r\n            collateralAmount = msg.value;\r\n        } else {\r\n            collateralAmount = collateralAmount_;\r\n            ERC20(collateralToken).transferFrom(\r\n                _msgSender(),\r\n                address(this),\r\n                collateralAmount\r\n            );\r\n        }\r\n\r\n        uint256 principalNormalAmount = _priceFeed.exchangeRate(\r\n            collateralToken,\r\n            principalToken,\r\n            collateralAmount\r\n        );\r\n\r\n        uint256 principalAmountInUSD = _priceFeed.amountInUSD(\r\n            principalToken,\r\n            principalNormalAmount\r\n        );\r\n\r\n        uint160 ltv = _ltv.getRelativeLTV(_msgSender(), principalAmountInUSD);\r\n\r\n        uint256 principalAmount = percentageInverseOf(\r\n            principalNormalAmount,\r\n            ltv\r\n        ) / _ltv.getBase();\r\n\r\n        /* delegate the collateral to borrower */\r\n        _poolManager.deposit(_msgSender(), collateralToken, collateralAmount);\r\n\r\n        /* create the offer */\r\n        _offerManager.createBorrowingOffer(\r\n            principalToken,\r\n            collateralToken,\r\n            collateralAmount,\r\n            principalAmount,\r\n            interest,\r\n            daysToMaturity,\r\n            daysToExpire,\r\n            _msgSender()\r\n        );\r\n\r\n        // update activity\r\n        uint256 amountInUSD = _priceFeed.amountInUSD(\r\n            collateralToken,\r\n            collateralAmount\r\n        );\r\n        _activity._dropCollateral(_msgSender(), amountInUSD);\r\n    }\r\n\r\n    // @borrower\r\n    function createBorrowingRequest(\r\n        uint160 offerId,\r\n        uint16 percentage,\r\n        address collateralToken,\r\n        uint256 interest,\r\n        uint16 daysToMaturity,\r\n        uint16 daysToExpire\r\n    ) public payable {\r\n        _checkPercentage(percentage);\r\n\r\n        OfferLibrary.LendingOffer memory offer = _offerManager.getLendingOffer(\r\n            offerId\r\n        );\r\n\r\n        require(\r\n            _offerManager.isCollateralSupported(offerId, collateralToken),\r\n            \"ERR_COLLATERAL_NOT_SUPPORTED\"\r\n        );\r\n\r\n        uint256 principalAmount = percentageOf(\r\n            offer.initialPrincipal,\r\n            percentage\r\n        );\r\n\r\n        uint256 principalPriceInUSD = _priceFeed.amountInUSD(\r\n            offer.principalToken,\r\n            principalAmount\r\n        );\r\n\r\n        uint160 ltv = _ltv.getRelativeLTV(_msgSender(), principalPriceInUSD);\r\n\r\n        uint256 collateralNormalAmount = _priceFeed.exchangeRate(\r\n            offer.principalToken,\r\n            collateralToken,\r\n            principalAmount\r\n        );\r\n\r\n        uint256 collateralAmount = percentageOf(collateralNormalAmount, ltv) /\r\n            _ltv.getBase();\r\n\r\n        /* extract collateral from borrower */\r\n        if (collateralToken == nativeAddress) {\r\n            require(collateralAmount >= msg.value);\r\n        } else {\r\n            ERC20(collateralToken).transferFrom(\r\n                _msgSender(),\r\n                address(this),\r\n                collateralAmount\r\n            );\r\n        }\r\n\r\n        /* delegate the collateral to borrower */\r\n        _poolManager.deposit(_msgSender(), collateralToken, collateralAmount);\r\n\r\n        uint256 collateralPriceInUSD = _priceFeed.amountInUSD(\r\n            collateralToken,\r\n            collateralAmount\r\n        );\r\n\r\n        /* create the request */\r\n        _offerManager.createBorrowingRequest(\r\n            percentage,\r\n            collateralToken,\r\n            collateralAmount,\r\n            collateralPriceInUSD,\r\n            interest,\r\n            daysToMaturity,\r\n            daysToExpire,\r\n            _msgSender(),\r\n            offerId\r\n        );\r\n\r\n        // update activity\r\n        _activity._dropCollateral(_msgSender(), collateralPriceInUSD);\r\n    }\r\n\r\n    // @borrower\r\n    function acceptLendingOffer(\r\n        uint160 offerId,\r\n        uint16 percentage,\r\n        address collateralToken\r\n    ) public payable {\r\n        _checkPercentage(percentage);\r\n\r\n        OfferLibrary.LendingOffer memory offer = _offerManager.getLendingOffer(\r\n            offerId\r\n        );\r\n\r\n        require(\r\n            _offerManager.isCollateralSupported(offerId, collateralToken),\r\n            \"ERR_COLLATERAL_NOT_SUPPORTED\"\r\n        );\r\n\r\n        uint256 principalAmount = percentageOf(\r\n            offer.initialPrincipal,\r\n            percentage\r\n        );\r\n\r\n        uint256 principalPriceInUSD = _priceFeed.amountInUSD(\r\n            offer.principalToken,\r\n            principalAmount\r\n        );\r\n\r\n        uint160 ltv = _ltv.getRelativeLTV(_msgSender(), principalPriceInUSD);\r\n\r\n        /* calculate the collateral amount */\r\n        uint256 collateralNormalAmount = _priceFeed.exchangeRate(\r\n            offer.principalToken,\r\n            collateralToken,\r\n            principalAmount\r\n        );\r\n\r\n        uint256 collateralAmount = percentageOf(collateralNormalAmount, ltv) /\r\n            _ltv.getBase();\r\n\r\n        /* extract collateral tokens from borrower */\r\n        if (collateralToken == nativeAddress) {\r\n            require(collateralAmount >= msg.value, \"ERR_COLLATERAL_AMOUNT\");\r\n        } else {\r\n            ERC20(collateralToken).transferFrom(\r\n                _msgSender(),\r\n                address(this),\r\n                collateralAmount\r\n            );\r\n        }\r\n\r\n        /* transfer the principal to borrower */\r\n        if (offer.principalToken == nativeAddress) {\r\n            payable(_msgSender()).transfer(principalAmount);\r\n        } else {\r\n            ERC20(offer.principalToken).safeTransfer(\r\n                _msgSender(),\r\n                principalAmount\r\n            );\r\n        }\r\n\r\n        /* delegate the loan collateral to lender */\r\n        _poolManager.transfer(\r\n            _msgSender(),\r\n            offer.lender,\r\n            collateralToken,\r\n            collateralAmount\r\n        );\r\n        /* undelegate the loan principal from lender */\r\n        _poolManager.burn(offer.lender, offer.principalToken, principalAmount);\r\n\r\n        uint256 collateralPriceInUSD = _priceFeed.amountInUSD(\r\n            collateralToken,\r\n            collateralAmount\r\n        );\r\n\r\n        /* register the loan */\r\n        _loanManager.createLoan(\r\n            offerId,\r\n            OfferLibrary.Type.LENDING_OFFER,\r\n            offer.principalToken,\r\n            collateralToken,\r\n            principalAmount,\r\n            collateralAmount,\r\n            collateralPriceInUSD,\r\n            offer.interest,\r\n            offer.daysToMaturity,\r\n            _msgSender(),\r\n            offer.lender\r\n        );\r\n\r\n        // will revert if transaction fail\r\n        _offerManager._afterOfferLendingLoan(offerId, principalAmount);\r\n\r\n        // update activity\r\n        uint256 amountBorrowedInUSD = _priceFeed.amountInUSD(\r\n            offer.principalToken,\r\n            principalAmount\r\n        );\r\n        _activity._borrowLoan(_msgSender(), amountBorrowedInUSD);\r\n    }\r\n\r\n    // @borrower\r\n    function acceptLendingRequest(uint256 requestId) public payable {\r\n        RequestLibrary.LendingRequest memory request = _offerManager\r\n            .getLendingRequest(requestId);\r\n\r\n        OfferLibrary.BorrowingOffer memory offer = _offerManager\r\n            .getBorrowingOffer(request.offerId);\r\n\r\n        require(offer.borrower == _msgSender(), \"ERR_ONLY_BORROWER\");\r\n\r\n        uint256 collateralAmount = percentageOf(\r\n            offer.initialCollateral,\r\n            request.percentage\r\n        );\r\n\r\n        uint256 principalAmount = percentageOf(\r\n            offer.initialPrincipal,\r\n            request.percentage\r\n        );\r\n\r\n        /* transfer principal to borrower */\r\n        if (offer.principalToken == nativeAddress) {\r\n            payable(_msgSender()).transfer(principalAmount);\r\n        } else {\r\n            ERC20(offer.principalToken).transfer(_msgSender(), principalAmount);\r\n        }\r\n\r\n        /* delegate the loan collateral to lender */\r\n        _poolManager.transfer(\r\n            _msgSender(),\r\n            request.lender,\r\n            offer.collateralToken,\r\n            collateralAmount\r\n        );\r\n        /* undelegate the loan principal from lender */\r\n        _poolManager.burn(\r\n            request.lender,\r\n            offer.principalToken,\r\n            principalAmount\r\n        );\r\n\r\n        uint256 collateralPriceInUSD = _priceFeed.amountInUSD(\r\n            offer.collateralToken,\r\n            collateralAmount\r\n        );\r\n\r\n        /* register the loan from the loan manager */\r\n        _loanManager.createLoan(\r\n            request.offerId,\r\n            OfferLibrary.Type.LENDING_OFFER,\r\n            offer.principalToken,\r\n            offer.collateralToken,\r\n            principalAmount,\r\n            collateralAmount,\r\n            collateralPriceInUSD,\r\n            request.interest,\r\n            request.daysToMaturity,\r\n            _msgSender(),\r\n            request.lender\r\n        );\r\n\r\n        // will revert the transaction if fail\r\n        _offerManager._afterOfferLendingLoan(offer.offerId, principalAmount);\r\n\r\n        // update activity\r\n        uint256 amountBorrowedInUSD = _priceFeed.amountInUSD(\r\n            offer.principalToken,\r\n            principalAmount\r\n        );\r\n        _activity._borrowLoan(_msgSender(), amountBorrowedInUSD);\r\n    }\r\n\r\n    // @borrower\r\n    function reActivateOffer() public payable {}\r\n\r\n    // @borrower\r\n    function reActivateRequest() public payable {}\r\n\r\n    // @borrower\r\n    function repayLoan(uint256 loanId, uint16 percentage) public payable {\r\n        LoanLibrary.Loan memory loan = _loanManager.getLoan(loanId);\r\n\r\n        // percentage must be 25, 50, 75 or 100\r\n        require(percentage <= 100, \"OVER_PERCENTAGE\");\r\n        require(percentage % 25 == 0, \"ERR_PERCENTAGE\");\r\n\r\n        // verify the borrower is the repayer\r\n        require(loan.borrower == _msgSender(), \"ERR_NOT_BORROWER\");\r\n\r\n        // calculate the duration of the loan\r\n        uint160 time = uint160(block.timestamp);\r\n        uint160 ellapsedSecs = (time - loan.startDate);\r\n\r\n        uint256 principalAmount = percentageOf(\r\n            loan.initialPrincipal,\r\n            percentage\r\n        );\r\n\r\n        uint256 collateralAmount = percentageOf(\r\n            loan.initialCollateral,\r\n            percentage\r\n        );\r\n\r\n        // calculate the pay back amount\r\n        uint256 repaymentPrincipalAmount = getFullInterestAmount(\r\n            principalAmount,\r\n            ellapsedSecs,\r\n            loan.interest\r\n        );\r\n\r\n        // will revert the transaction if fail\r\n        _loanManager.repayLoan(loanId, principalAmount, collateralAmount);\r\n\r\n        /* extract pay back amount */\r\n        if (loan.principalToken == nativeAddress) {\r\n            require(msg.value >= repaymentPrincipalAmount);\r\n        } else {\r\n            ERC20(loan.principalToken).transferFrom(\r\n                _msgSender(),\r\n                address(this),\r\n                repaymentPrincipalAmount\r\n            );\r\n        }\r\n\r\n        /* transfer collateral */\r\n        if (loan.collateralToken == nativeAddress) {\r\n            payable(_msgSender()).transfer(collateralAmount);\r\n        } else {\r\n            ERC20(loan.collateralToken).transfer(\r\n                _msgSender(),\r\n                collateralAmount\r\n            );\r\n        }\r\n\r\n        // update activity\r\n        uint256 interestPaidInUSD = _priceFeed.amountInUSD(\r\n            loan.principalToken,\r\n            (repaymentPrincipalAmount - principalAmount)\r\n        );\r\n\r\n        uint256 amountPaidInUSD = _priceFeed.amountInUSD(\r\n            loan.principalToken,\r\n            principalAmount\r\n        );\r\n\r\n        _activity._repayLoan(_msgSender(), amountPaidInUSD, interestPaidInUSD);\r\n    }\r\n\r\n    function repayLiquidatedLoan(uint256 loanId) public payable {}\r\n\r\n    function setLTV(address ltv_) public onlyOwner {\r\n        _ltv = ILoanToValueRatio(ltv_);\r\n    }\r\n\r\n    function setActivity(address activity_) public onlyOwner {\r\n        _activity = Activity(activity_);\r\n    }\r\n\r\n    function setPriceFeed(address priceFeed_) public onlyOwner {\r\n        _priceFeed = IPriceFeed(priceFeed_);\r\n    }\r\n\r\n    function changeOwner(address newOwner) public onlyOwner {\r\n        deployer = newOwner;\r\n    }\r\n\r\n    function _checkPercentage(uint16 percentage) private pure {\r\n        // percentage must be 25, 50, 75 or 100\r\n        require(percentage <= 100, \"OVER_PERCENTAGE\");\r\n        require(percentage % 25 == 0, \"ERR_PERCENTAGE\");\r\n    }\r\n\r\n    modifier onlyOwner() {\r\n        require(_msgSender() == deployer, \"ERR_ONLY_OWNER\");\r\n        _;\r\n    }\r\n}\r\n",
  "sourcePath": "C:\\Users\\DELL\\Documents\\darsh\\smart-contracts\\contracts\\LendingPool.sol",
  "compiler": {
    "name": "solc",
    "version": "0.8.17+commit.8df45f5f.Emscripten.clang"
  },
  "schemaVersion": "3.4.11",
  "updatedAt": "2023-02-12T21:20:13.522Z",
  "devdoc": {
    "kind": "dev",
    "methods": {},
    "version": 1
  },
  "userdoc": {
    "kind": "user",
    "methods": {},
    "version": 1
  }
}