{
  "contractName": "LendingPool",
  "abi": [
    {
      "inputs": [],
      "stateMutability": "nonpayable",
      "type": "constructor"
    },
    {
      "anonymous": false,
      "inputs": [
        {
          "indexed": true,
          "internalType": "address",
          "name": "previousOwner",
          "type": "address"
        },
        {
          "indexed": true,
          "internalType": "address",
          "name": "newOwner",
          "type": "address"
        }
      ],
      "name": "OwnershipTransferStarted",
      "type": "event"
    },
    {
      "anonymous": false,
      "inputs": [
        {
          "indexed": true,
          "internalType": "address",
          "name": "previousOwner",
          "type": "address"
        },
        {
          "indexed": true,
          "internalType": "address",
          "name": "newOwner",
          "type": "address"
        }
      ],
      "name": "OwnershipTransferred",
      "type": "event"
    },
    {
      "anonymous": false,
      "inputs": [
        {
          "indexed": false,
          "internalType": "address",
          "name": "account",
          "type": "address"
        }
      ],
      "name": "Paused",
      "type": "event"
    },
    {
      "anonymous": false,
      "inputs": [
        {
          "indexed": false,
          "internalType": "address",
          "name": "account",
          "type": "address"
        }
      ],
      "name": "Unpaused",
      "type": "event"
    },
    {
      "inputs": [],
      "name": "INTEREST_RATE_DENOMINATOR",
      "outputs": [
        {
          "internalType": "uint256",
          "name": "",
          "type": "uint256"
        }
      ],
      "stateMutability": "view",
      "type": "function"
    },
    {
      "inputs": [],
      "name": "LENDINGPOOL_REVISION",
      "outputs": [
        {
          "internalType": "uint256",
          "name": "",
          "type": "uint256"
        }
      ],
      "stateMutability": "view",
      "type": "function"
    },
    {
      "inputs": [],
      "name": "PERCENT",
      "outputs": [
        {
          "internalType": "uint16",
          "name": "",
          "type": "uint16"
        }
      ],
      "stateMutability": "view",
      "type": "function"
    },
    {
      "inputs": [],
      "name": "acceptOwnership",
      "outputs": [],
      "stateMutability": "nonpayable",
      "type": "function"
    },
    {
      "inputs": [
        {
          "internalType": "uint16",
          "name": "percentage",
          "type": "uint16"
        }
      ],
      "name": "checkPercentage",
      "outputs": [],
      "stateMutability": "pure",
      "type": "function"
    },
    {
      "inputs": [
        {
          "internalType": "uint256",
          "name": "principal",
          "type": "uint256"
        },
        {
          "internalType": "uint256",
          "name": "durationSecs",
          "type": "uint256"
        },
        {
          "internalType": "uint256",
          "name": "interest",
          "type": "uint256"
        }
      ],
      "name": "getFullInterestAmount",
      "outputs": [
        {
          "internalType": "uint256",
          "name": "",
          "type": "uint256"
        }
      ],
      "stateMutability": "pure",
      "type": "function"
    },
    {
      "inputs": [],
      "name": "nativeAddress",
      "outputs": [
        {
          "internalType": "address",
          "name": "",
          "type": "address"
        }
      ],
      "stateMutability": "view",
      "type": "function"
    },
    {
      "inputs": [],
      "name": "owner",
      "outputs": [
        {
          "internalType": "address",
          "name": "",
          "type": "address"
        }
      ],
      "stateMutability": "view",
      "type": "function"
    },
    {
      "inputs": [],
      "name": "paused",
      "outputs": [
        {
          "internalType": "bool",
          "name": "",
          "type": "bool"
        }
      ],
      "stateMutability": "view",
      "type": "function"
    },
    {
      "inputs": [],
      "name": "pendingOwner",
      "outputs": [
        {
          "internalType": "address",
          "name": "",
          "type": "address"
        }
      ],
      "stateMutability": "view",
      "type": "function"
    },
    {
      "inputs": [
        {
          "internalType": "uint256",
          "name": "total",
          "type": "uint256"
        },
        {
          "internalType": "uint160",
          "name": "percent",
          "type": "uint160"
        }
      ],
      "name": "percentageOf",
      "outputs": [
        {
          "internalType": "uint256",
          "name": "",
          "type": "uint256"
        }
      ],
      "stateMutability": "pure",
      "type": "function"
    },
    {
      "inputs": [],
      "name": "renounceOwnership",
      "outputs": [],
      "stateMutability": "nonpayable",
      "type": "function"
    },
    {
      "inputs": [
        {
          "internalType": "address",
          "name": "newOwner",
          "type": "address"
        }
      ],
      "name": "transferOwnership",
      "outputs": [],
      "stateMutability": "nonpayable",
      "type": "function"
    },
    {
      "inputs": [
        {
          "internalType": "uint256",
          "name": "principalAmount_",
          "type": "uint256"
        },
        {
          "internalType": "address",
          "name": "principalToken",
          "type": "address"
        },
        {
          "internalType": "address[]",
          "name": "collateralTokens",
          "type": "address[]"
        },
        {
          "internalType": "uint16",
          "name": "daysToMaturity",
          "type": "uint16"
        },
        {
          "internalType": "uint256",
          "name": "interest",
          "type": "uint256"
        },
        {
          "internalType": "uint16",
          "name": "daysToExpire",
          "type": "uint16"
        }
      ],
      "name": "createLendingOffer",
      "outputs": [],
      "stateMutability": "payable",
      "type": "function"
    },
    {
      "inputs": [
        {
          "internalType": "uint256",
          "name": "offerId",
          "type": "uint256"
        },
        {
          "internalType": "uint16",
          "name": "percentage",
          "type": "uint16"
        },
        {
          "internalType": "uint16",
          "name": "daysToMaturity",
          "type": "uint16"
        },
        {
          "internalType": "uint256",
          "name": "interest",
          "type": "uint256"
        },
        {
          "internalType": "uint16",
          "name": "hoursToExpire",
          "type": "uint16"
        }
      ],
      "name": "createLendingRequest",
      "outputs": [],
      "stateMutability": "payable",
      "type": "function"
    },
    {
      "inputs": [
        {
          "internalType": "uint256",
          "name": "offerId",
          "type": "uint256"
        },
        {
          "internalType": "uint16",
          "name": "percentage",
          "type": "uint16"
        }
      ],
      "name": "acceptBorrowingOffer",
      "outputs": [],
      "stateMutability": "payable",
      "type": "function"
    },
    {
      "inputs": [
        {
          "internalType": "uint256",
          "name": "requestId",
          "type": "uint256"
        }
      ],
      "name": "acceptBorrowingRequest",
      "outputs": [],
      "stateMutability": "nonpayable",
      "type": "function"
    },
    {
      "inputs": [
        {
          "internalType": "address",
          "name": "principalToken",
          "type": "address"
        },
        {
          "internalType": "uint256",
          "name": "principalAmount",
          "type": "uint256"
        },
        {
          "internalType": "address",
          "name": "collateralToken",
          "type": "address"
        },
        {
          "internalType": "uint256",
          "name": "interest",
          "type": "uint256"
        },
        {
          "internalType": "uint16",
          "name": "daysToMaturity",
          "type": "uint16"
        },
        {
          "internalType": "uint16",
          "name": "hoursToExpire",
          "type": "uint16"
        }
      ],
      "name": "createBorrowingOffer",
      "outputs": [],
      "stateMutability": "payable",
      "type": "function"
    },
    {
      "inputs": [
        {
          "internalType": "uint256",
          "name": "offerId",
          "type": "uint256"
        },
        {
          "internalType": "uint16",
          "name": "percentage",
          "type": "uint16"
        },
        {
          "internalType": "address",
          "name": "collateralToken",
          "type": "address"
        },
        {
          "internalType": "uint256",
          "name": "interest",
          "type": "uint256"
        },
        {
          "internalType": "uint16",
          "name": "daysToMaturity",
          "type": "uint16"
        },
        {
          "internalType": "uint16",
          "name": "hoursToExpire",
          "type": "uint16"
        }
      ],
      "name": "createBorrowingRequest",
      "outputs": [],
      "stateMutability": "payable",
      "type": "function"
    },
    {
      "inputs": [
        {
          "internalType": "uint256",
          "name": "offerId",
          "type": "uint256"
        },
        {
          "internalType": "uint16",
          "name": "percentage",
          "type": "uint16"
        },
        {
          "internalType": "address",
          "name": "collateralToken",
          "type": "address"
        }
      ],
      "name": "acceptLendingOffer",
      "outputs": [],
      "stateMutability": "payable",
      "type": "function"
    },
    {
      "inputs": [
        {
          "internalType": "uint256",
          "name": "requestId",
          "type": "uint256"
        }
      ],
      "name": "acceptLendingRequest",
      "outputs": [],
      "stateMutability": "payable",
      "type": "function"
    },
    {
      "inputs": [
        {
          "internalType": "uint256",
          "name": "offerId",
          "type": "uint256"
        },
        {
          "internalType": "uint16",
          "name": "toExpire",
          "type": "uint16"
        }
      ],
      "name": "reActivateOffer",
      "outputs": [],
      "stateMutability": "nonpayable",
      "type": "function"
    },
    {
      "inputs": [
        {
          "internalType": "uint256",
          "name": "loanId",
          "type": "uint256"
        },
        {
          "internalType": "uint16",
          "name": "percentage",
          "type": "uint16"
        }
      ],
      "name": "repayLoan",
      "outputs": [],
      "stateMutability": "payable",
      "type": "function"
    },
    {
      "inputs": [
        {
          "internalType": "uint256",
          "name": "requestId",
          "type": "uint256"
        }
      ],
      "name": "rejectRequest",
      "outputs": [],
      "stateMutability": "nonpayable",
      "type": "function"
    },
    {
      "inputs": [
        {
          "internalType": "uint256",
          "name": "requestId",
          "type": "uint256"
        }
      ],
      "name": "cancelLendRequest",
      "outputs": [],
      "stateMutability": "nonpayable",
      "type": "function"
    },
    {
      "inputs": [
        {
          "internalType": "uint256",
          "name": "requestId",
          "type": "uint256"
        }
      ],
      "name": "cancelBorrowRequest",
      "outputs": [],
      "stateMutability": "nonpayable",
      "type": "function"
    },
    {
      "inputs": [
        {
          "internalType": "uint256",
          "name": "loanId",
          "type": "uint256"
        }
      ],
      "name": "claimCollateral",
      "outputs": [],
      "stateMutability": "nonpayable",
      "type": "function"
    },
    {
      "inputs": [
        {
          "internalType": "uint256",
          "name": "loanId",
          "type": "uint256"
        }
      ],
      "name": "claimPrincipal",
      "outputs": [],
      "stateMutability": "nonpayable",
      "type": "function"
    },
    {
      "inputs": [
        {
          "internalType": "uint256",
          "name": "loanId",
          "type": "uint256"
        }
      ],
      "name": "claimDefaultCollateral",
      "outputs": [],
      "stateMutability": "nonpayable",
      "type": "function"
    },
    {
      "inputs": [
        {
          "internalType": "uint256",
          "name": "loanId",
          "type": "uint256"
        }
      ],
      "name": "repayLiquidatedLoan",
      "outputs": [],
      "stateMutability": "payable",
      "type": "function"
    },
    {
      "inputs": [],
      "name": "getRevision",
      "outputs": [
        {
          "internalType": "uint256",
          "name": "",
          "type": "uint256"
        }
      ],
      "stateMutability": "pure",
      "type": "function"
    },
    {
      "inputs": [
        {
          "internalType": "uint256",
          "name": "loanId",
          "type": "uint256"
        }
      ],
      "name": "liquidateLoan",
      "outputs": [],
      "stateMutability": "nonpayable",
      "type": "function"
    },
    {
      "inputs": [
        {
          "internalType": "address",
          "name": "ltv_",
          "type": "address"
        },
        {
          "internalType": "address",
          "name": "activity_",
          "type": "address"
        },
        {
          "internalType": "address",
          "name": "priceFeed_",
          "type": "address"
        }
      ],
      "name": "setFeeds",
      "outputs": [],
      "stateMutability": "nonpayable",
      "type": "function"
    },
    {
      "inputs": [
        {
          "internalType": "address",
          "name": "vaultManager_",
          "type": "address"
        },
        {
          "internalType": "address",
          "name": "loanManager_",
          "type": "address"
        },
        {
          "internalType": "address",
          "name": "offerManager_",
          "type": "address"
        },
        {
          "internalType": "address",
          "name": "feeManager_",
          "type": "address"
        }
      ],
      "name": "setManagers",
      "outputs": [],
      "stateMutability": "nonpayable",
      "type": "function"
    },
    {
      "inputs": [
        {
          "internalType": "address",
          "name": "token",
          "type": "address"
        },
        {
          "internalType": "address payable",
          "name": "receiver",
          "type": "address"
        },
        {
          "internalType": "uint256",
          "name": "amount",
          "type": "uint256"
        }
      ],
      "name": "claim",
      "outputs": [],
      "stateMutability": "nonpayable",
      "type": "function"
    }
  ],
  "bytecode": "0x6080806040523461006c5760016000556002546001543360018060a01b0319821617600155339060018060a01b03167f8be0079c531659141344cd1fd0a4f28419497f9722a3daafe3b4186f6b6457e0600080a36001600160a81b0319166002556143e190816100728239f35b600080fdfe6080604052600436101561001257600080fd5b6000803560e01c80630548db12146138985780631316529d14611c425780632672a87a146133485780632b994b43146131d05780632d7788db146131755780632e4763371461314c5780634add7c8214612c7457806353188b14146128585780635c7f31aa146123dd5780635c975abb146123b757806361ba9443146123a2578063628118ee14611f81578063715018a614611f1957806379ba509714611e555780637a5ae69e14611e295780637cc5805a14611c5e5780638afaff0214611c425780638c21eb8b14611bb25780638da5cb5b14611b89578063996cba6814611a5b578063a33928da1461164c578063a6aea4151461153a578063b2ac850d146114c6578063b85a8b20146114aa578063c1bc89ef146112bf578063c49785b4146111ad578063cc3266e81461118a578063ccdd9f5d14610d81578063e0b2695914610d4d578063e0f7dffd14610d20578063e30c397814610cf7578063e826fbe71461052b578063e9d1f8df14610371578063f2fde38b146103035763f9af05791461019e57600080fd5b3461029857602036600319011261029857806004356101bb61424b565b6101c3613a68565b60018060a01b0382816007541660405190632820036560e11b8252846004830152816024816102809586945af19182156102f85785926102cb575b5050838260408301511660008051602061438c83398151915281146000146102b3575080806101c0819401518181156102aa575b3390f11561029b575b60075416803b156102a65760405163f400c74360e01b8152600481019290925233602483015282908290818381604481015b03925af1801561029b57610284575b506001905580f35b61028d90613982565b61029857803861027c565b80fd5b6040513d84823e3d90fd5b5050fd5b506108fc610232565b90506101c06102c6920151903390613f4b565b61023b565b6102ea9250803d106102f1575b6102e281836139ac565b8101906140fa565b38806101fe565b503d6102d8565b6040513d87823e3d90fd5b50346102985760203660031901126102985761031d61390d565b6103256139e6565b600280546001600160a01b0319166001600160a01b039283169081179091556001549091167f38d16b8cac22d99fc7c124b9cd0de2d3fa1faef420bfe791d8c362d765e227008380a380f35b5034610298576020366003190112610298578060043561038f613a68565b60085460405163c58343ef60e01b8152600481018390526001600160a01b03916101c091908316908281602481855afa9283156105205786936104f1575b505060016101a08301516103e081613ebf565b6103e981613ebf565b036104ed57846101008301516024604051809481936322bc934560e11b835260048301525afa80156102f8576101608491879384916104cb575b5001511660008051602061438c83398151915281036104b357508080610140819401518181156104aa575b3390f11561029b575b60085416803b156102a657604051639498506560e01b8152600481019290925233602483015282908290818381604481015b03925af1801561029b5761049a5750f35b6104a390613982565b6102985780f35b506108fc61044e565b90506101406104c6920151903390613f4b565b610457565b6104e791503d8086833e6104df81836139ac565b810190613d4e565b38610423565b8480fd5b610511929350803d10610519575b61050981836139ac565b810190613f84565b9038806103cd565b503d6104ff565b6040513d88823e3d90fd5b5060603660031901126102985761054061394f565b610548613939565b610550613a68565b61055982614305565b6008546040516322bc934560e11b81526004803590820152926001600160a01b03909116908484602481855afa9384156102f8578594610cdb575b50604051633970062960e01b815260048035908201526001600160a01b0384166024820152916020908390604490829089905af19182156102f8576105f4926105e4918791610cac575b506140ae565b61ffff60808501519116906142e1565b60048054604085810151905163912d228f60e01b81526001600160a01b039182169381019390935260248301849052602091839160449183918a91165af19081156102f8578591610c79575b506005546040516322a0fe3360e21b81523360048201526024810192909252602090829060449082906001600160a01b03165afa9081156102f8578591610c3f575b50600480546040868101519051631c07d98160e21b81526001600160a01b0391821693810193909352858116602484015260448301859052602091839160649183918b91165af1908115610520578691610c0d575b50600554604051636882509b60e11b815290602090829060049082906001600160a01b03165afa908115610c02578791610bbc575b506107249260ff61071e921690614080565b906142e1565b60008051602061438c8339815191529390856001600160a01b038516868103610ba6575050348110610b695785945b60408301516001600160a01b03169084908203610b595750508480848015610b4f575b8280929181923390f115610b44575b6006546101208301516001600160a01b039081169116803b15610b40576107cc87929183926040519485809481936320e8c56560e01b8352898d6004359260048601613a3e565b03925af1908115610520578691610b2c575b505060065461012083015160408401516001600160a01b03928316929081169116823b15610b285761082f928689809460405196879586948593631effa54360e21b85526004359260048601613a3e565b03925af1908115610520578691610b14575b50506004805460405163912d228f60e01b81526001600160a01b0387811693820193909352602481018490529591602091879160449183918b91165af1948515610520578695610adb575b506007546101c084015160209286926001600160a01b03169189906108b081613ebf565b6109038a60018060a01b0360408b0151169260a08b015161ffff60c08d015116908c61012060018060a01b0391015116936040519c8d9b8c9a8b9963298b04a560e01b8b52339760043560048d01613edf565b03925af180156102f857610aac575b506008546001600160a01b0316803b156104ed57848091604460405180948193631b6eb38160e21b835260043560048401528860248401525af19081156102f8578591610a98575b505060048054604092830151925163912d228f60e01b81526001600160a01b0393841692810192909252602482019390935291602091839116818681604481015b03925af1908115610a4e578391610a5e575b506003546001600160a01b0316803b15610a595760405163456db94760e01b8152336004820152602481019290925283908290604490829084905af1908115610a4e578391610a37575b50506003546001600160a01b0316803b156102a6576040516363a6c98160e01b815233600482015260248101929092528290829081838160448101610489565b610a4090613982565b610a4b5781386109f7565b50fd5b6040513d85823e3d90fd5b505050fd5b9250506020823d602011610a90575b81610a7a602093836139ac565b81010312610a8b57829151386109ad565b600080fd5b3d9150610a6d565b610aa190613982565b610a5957833861095a565b6020809295503d8311610ad4575b610ac481836139ac565b81010312610a8b57839238610912565b503d610aba565b955093506020853d602011610b0c575b81610af8602093836139ac565b81010312610a8b579351859490938361088c565b3d9150610aeb565b610b1d90613982565b6104ed578438610841565b8780fd5b610b3590613982565b6104ed5784386107de565b8680fd5b6040513d86823e3d90fd5b6108fc9150610776565b610b64913390613f4b565b610785565b60405162461bcd60e51b815260206004820152601560248201527411549497d0d3d31310551154905317d05353d55395605a1b6044820152606490fd5b82610bb79197929730903390613aaf565b610753565b90506020813d602011610bfa575b81610bd7602093836139ac565b81010312610b40576107249260ff610bf161071e93614072565b9250509261070c565b3d9150610bca565b6040513d89823e3d90fd5b90506020813d602011610c37575b81610c28602093836139ac565b81010312610a8b5751386106d7565b3d9150610c1b565b90506020813d602011610c71575b81610c5a602093836139ac565b810103126104ed57610c6b90613d2b565b38610682565b3d9150610c4d565b90506020813d602011610ca4575b81610c94602093836139ac565b81010312610a8b57516020610640565b3d9150610c87565b610cce915060203d602011610cd4575b610cc681836139ac565b810190613b02565b386105de565b503d610cbc565b610cf09194503d8087833e6104df81836139ac565b9238610594565b50346102985780600319360112610298576002546040516001600160a01b039091168152602090f35b5034610298576060366003190112610298576020610d456044356024356004356142b4565b604051908152f35b503461029857604036600319011261029857602435906001600160a01b0382168203610298576020610d45836004356142e1565b50346102985780602080600319360112610a4b57610d9d6139e6565b610da561424b565b8160018060a01b0391826007541660405190632820036560e11b82526004356004830152816024816102809687945af19283156102f857859361116b575b5050610df461014083015142614228565b92610e0c60a0840194855190610120860151916142b4565b600480546040868101516060880180519251631c07d98160e21b8082526001600160a01b0393891684169682019690965292871690911660248301526044820185905295939092918490849060649082908d908a165af192831561112c578993611137575b5083610ecb91888a8c610e968a6040816004541695015116948b8d5116935190614228565b6040518881526001600160a01b0395861660048201529290941660248301526044820193909352938492839182906064820190565b03925af190811561112c5789916110fa575b50889084866009541660046040518095819363a001ecdd60e01b83525af19081156110ef578a916110b3575b610f1392506142e1565b9260e08701968751610f258686614228565b1161101c57505050610f378282614228565b95519451818110610fff575050915b81806009541691511690803b15610b405760405163ef6506db60e01b81526001600160a01b039290921660048301526024820184905286908290604490829084905af1908115610520578691610feb575b5050610fa890600754169184614228565b90803b156104ed57604051633799ba3f60e01b8152600480359082015260248101939093526044830193909352606482015290829082908183816084810161026d565b610ff490613982565b6104ed578438610f97565b909550611010611016928297614228565b90614228565b91610f46565b965160048054885160409a8b01519a5195865288166001600160a01b03908116928601929092529887161660248401526044830181905297509395909250839150829060649082908a9089165af1918215610520578692611082575b5050918491610f46565b8196508092503d83116110ac575b61109a81836139ac565b81010312610a8b578493513880611078565b503d611090565b90508482813d83116110e8575b6110ca81836139ac565b810103126110e4576110de610f1392613d2b565b90610f09565b8980fd5b503d6110c0565b6040513d8c823e3d90fd5b809950848092503d8311611125575b61111381836139ac565b81010312610a8b578880985190610edd565b503d611109565b6040513d8b823e3d90fd5b985091508288813d8111611164575b61115081836139ac565b81010312610a8b5796518897909183610e71565b503d611146565b611182929350803d106102f1576102e281836139ac565b903880610de3565b50346102985780600319360112610298576020604051670de0b6b3a76400008152f35b503461029857602036600319011261029857806004356111cb61424b565b6111d3613a68565b60018060a01b0382816007541660405190632820036560e11b8252846004830152816024816102809586945af19182156102f85785926112a2575b5050838260608301511660008051602061438c833981519152811460001461128a575080806101e081940151818115611281575b3390f11561029b575b60075416803b156102a65760405163014b594760e71b81526004810192909252336024830152829082908183816044810161026d565b506108fc611242565b90506101e061129d920151903390613f4b565b61124b565b6112b89250803d106102f1576102e281836139ac565b388061120e565b5060c036600319011261029857600435906112d8613923565b916044359267ffffffffffffffff84116114a657366023850112156114a657836004013593611306856139ce565b61131360405191826139ac565b8581526020918282016024819860051b83010191368311610b2857602401905b8282106114875750505060643561ffff94858216809203610a8b57611356613971565b9061135f613a68565b6001600160a01b03938685169160008051602061438c8339815191528303611475575034975b8560085416936040519563031137cd60e61b875260e487019460048801528a60248801526084356044880152606487015216608485015260e060a48501525180915261010483019890885b81811061145f57505050818491818981819c3360c483015203925af192831561052057869361142c575b505060065416803b156104ed5761048993858094604051968795869485936320e8c56560e01b85523360048601613a3e565b819650809293503d8311611458575b61144581836139ac565b81010312610a8b578493519038806113fa565b503d61143b565b825186168b5299860199918601916001016113d0565b9761148289303386613aaf565b611385565b81356001600160a01b0381168103610a8b578152908401908401611333565b8280fd5b5034610298578060031936011261029857602060405160648152f35b503461029857604036600319011261029857806114e161394f565b6114e9613a68565b6008546001600160a01b031690813b156102a65761ffff6064849283604051958694859363099bfe6b60e01b855260043560048601521660248401523360448401525af1801561029b5761049a5750f35b5034610298576020366003190112610298578060043561155861424b565b611560613a68565b60018060a01b0382816007541660405190632820036560e11b8252846004830152816024816102809586945af19182156102f857859261162f575b5050838260608301511660008051602061438c8339815191528114600014611617575080806102008194015181811561160e575b3390f11561029b575b60075416803b156102a65760405163e41936d760e01b81526004810192909252336024830152829082908183816044810161026d565b506108fc6115cf565b905061020061162a920151903390613f4b565b6115d8565b6116459250803d106102f1576102e281836139ac565b388061159b565b5060403660031901126102985780602461166461394f565b61166c613a68565b61167581614305565b6008546040516322bc934560e11b81526004803590820152926001600160a01b039185918591829085165afa928315610b44578493611a3f575b506116d36116c861ffff6101a0860151941680946142e1565b9260808501516142e1565b916040840190828251168460008051602061438c8339815191528214600014611a175790503410611a13578580808087876101208b015116828215611a0a575bf1156102f8575b82600654169361012086019584875116956101608201968688511690823b15611a065760405163481fd22360e11b81526001600160a01b039182166004808301919091523360248301529290911660448201526064810186905290356084820152908990829060a490829084905af190811561112c5789916119f2575b5060048054885160405163912d228f60e01b808252918a166001600160a01b031693810193909352602483018790526020999094939092918a91839160449183918d165af19081156119e7578b916119b4575b50849289928c8961184b8c958f8c908860075416978051938a806101c0840151986118148a613ebf565b51169951169a61ffff60c060a085015194015116935116936040519d8e9c8d9b8c9a63298b04a560e01b8c52339960048d01613edf565b03925af1801561112c57611986575b508460085416803b1561198257604051633496841f60e11b8152600480359082015260248101849052604481019490945288908490606490829084905af18015611977578693899161195e575b5060048054955160405193845287166001600160a01b031690830152602482019290925292839160449183919087165af19283156102f857859361192b575b5050806003541692511690823b15610a595760405163456db94760e01b81526001600160a01b0390921660048301526024820152908290829081838160448101610489565b819550809293503d8311611957575b61194481836139ac565b81010312610a8b578392519038806118e6565b503d61193a565b61196a91929450613982565b610b4057849187386118a7565b6040513d8a823e3d90fd5b8880fd5b86809299503d83116119ad575b61199d81836139ac565b81010312610a8b5787963861185a565b503d611993565b809b50898092503d83116119e0575b6119cd81836139ac565b81010312610a8b5798518a9990846117ea565b503d6119c3565b6040513d8d823e3d90fd5b6119fb90613982565b610b28578738611797565b8a80fd5b506108fc611713565b8580fd5b611a249130903390613aaf565b611a3a8484845116856101208901511690613f4b565b61171a565b611a549193503d8086833e6104df81836139ac565b91386116af565b503461029857606036600319011261029857611a7561390d565b6001600160a01b0360243581811690819003611b855760443591611a976139e6565b611a9f61424b565b8215611b4e5784938160095416803b15611a13576040516331b5f13d60e11b81526001600160a01b0383166004820152602481018690529086908290604490829084905af1908115610520578691611b3a575b50501660008051602061438c8339815191528103611b2b5750828092819282f115611b1f575b6001815580f35b604051903d90823e3d90fd5b611b359350613f4b565b611b18565b611b4390613982565b6104ed578438611af2565b60405162461bcd60e51b815260206004820152600f60248201526e11549497d6915493d7d05353d55395608a1b6044820152606490fd5b8380fd5b50346102985780600319360112610298576001546040516001600160a01b039091168152602090f35b503461029857608036600319011261029857611bcc61390d565b611bd4613923565b90611bdd613939565b6064356001600160a01b0381811694909291859003610a8b578290611c006139e6565b611c0861424b565b816001600160601b0360a01b9516856006541617600655168360075416176007551681600854161760085560095416176009556001815580f35b5034610298578060031936011261029857602060405160028152f35b5060a036600319011261029857600435611c7661394f565b9060443561ffff92838216809203610a8b5784611c91613960565b94611c9a613a68565b611ca383614305565b6008546040516322bc934560e11b8152600481018790526001600160a01b039184908290602490829086165afa908115610b44578491611e0f575b506040611cf3846080840151971680976142e1565b910190828251168160008051602061438c8339815191528214600014611dfd57905034106104ed575b828060065416925116823b15611a1357611d53928692838b93604051968795869485936320e8c56560e01b85523360048601613a3e565b03925af18015610b4457611dde575b509060209560c494939260085416916040519889978896630b438b8960e41b885260048801526064356024880152604487015216606485015233608485015260a48401525af1801561029b57611db6575080f35b602090813d8111611dd7575b611dcc81836139ac565b81010312610a8b5780f35b503d611dc2565b92611dec8193929594613982565b611df95790919238611d62565b5080fd5b611e0a9130903390613aaf565b611d1c565b611e2391503d8086833e6104df81836139ac565b38611cde565b50346102985760203660031901126102985760043561ffff81168103610a8b57611e5290614305565b80f35b50346102985780600319360112610298576002546001600160a01b033381831603611ec2576001600160601b0360a01b8092166002556001549133908316176001553391167f8be0079c531659141344cd1fd0a4f28419497f9722a3daafe3b4186f6b6457e0600080a380f35b60405162461bcd60e51b815260206004820152602960248201527f4f776e61626c6532537465703a2063616c6c6572206973206e6f7420746865206044820152683732bb9037bbb732b960b91b6064820152608490fd5b5034610298578060031936011261029857611f326139e6565b600280546001600160a01b03199081169091556001805491821690556000906001600160a01b03167f8be0079c531659141344cd1fd0a4f28419497f9722a3daafe3b4186f6b6457e08280a380f35b5060403660031901126102985760043581611f9a61394f565b611fa2613a68565b611fab81614305565b600754604051632820036560e11b8152600481018590526001600160a01b03946102809490928591839160249183918a165af1938415610520578694612383575b50508361024084015116330361234b578493849261200f61014086015142614228565b9461204361203561202a61ffff6080850151951680956142e1565b9360c08401516142e1565b9661012083015190846142b4565b9361204e8386614228565b9184600954166040519063a001ecdd60e01b82528160048160209b8c945af19081156110ef578a9161230f575b5061208961209091856142e1565b8094614228565b91604086600954169201938685511690833b1561230b5760405163ef6506db60e01b81526001600160a01b039290921660048301526024820152918a908390604490829084905af19283156110ef578a86938a956122ed575b508760075416926121276040519c8d968795869463094bb9f160e11b8652600486019094939260609260808301968352602083015260408201520152565b03925af1958615610c025787966122ce575b50868382511660008051602061438c83398151915281146000146122b8575050833410610b405786935b856121af856004541661217a868887511695614228565b60405163912d228f60e01b8082526001600160a01b039096166004820152602481019190915297889283919082906044820190565b03925af1948515611977578895612280575b5060048054925160405192835285166001600160a01b03169082015260248101929092528490829060449082908a9087165af193841561052057869461224d575b505060035416803b156104ed578492836084926040519687958694637bc5e09f60e11b865233600487015260248601526044850152151560648401525af1801561029b5761049a5750f35b819650809294503d8311612279575b61226681836139ac565b81010312610a8b57849351913880612202565b503d61225c565b9297509350908481813d81116122b1575b61229b81836139ac565b81010312610a8b575187969093909190856121c1565b503d612291565b856122c99196929630903390613aaf565b612163565b6122e6919650853d8711610cd457610cc681836139ac565b9438612139565b909294506122fc919350613982565b61198257869184918a386120e9565b8b80fd5b90508781813d8311612344575b61232681836139ac565b810103126110e45761208961233d61209092613d2b565b915061207b565b503d61231c565b60405162461bcd60e51b815260206004820152601060248201526f22a9292fa727aa2fa127a92927aba2a960811b6044820152606490fd5b61239a929450803d106102f1576102e281836139ac565b913880611fec565b50602036600319011261029857611b1861424b565b5034610298578060031936011261029857602060ff60025460a01c166040519015158152f35b506020366003190112610298576123f2613a68565b60085460405163c58343ef60e01b8152600480359082015282916001600160a01b0316906101c081602481855afa908115610a4e578391612837575b50826101008201516024604051809581936322bc934560e11b835260048301525afa918215610a4e57839261281b575b506124776101a083015161ffff604084015116906142e1565b9161248f608082015161ffff604085015116906142e1565b60408201519092906001600160a01b03168360008051602061438c833981519152820361280b5750508480848015612801575b8280929181923390f115610b44575b60065460e0820151610160840151610100840151926001600160a01b039182169282169116803b15611982578892838993612522604051978896879586946320e8c56560e01b865260048601613a3e565b03925af19081156105205786916127ed575b505060065460e08201516040840151610100840151926001600160a01b039182169282169116803b1561198257889283889361258660405197889687958694631effa54360e21b865260048601613a3e565b03925af19081156105205786916127d9575b50506004805461016084015160405163912d228f60e01b81526001600160a01b039182169381019390935260248301879052919591602091879160449183918b91165af19485156105205786956127a0575b506007546101008301516101c0850151869460209490936001600160a01b031692918a916126769061261b83613ebf565b60018060a01b0360408b0151169460018060a01b036101608c015116978d60808201519061ffff6060840151169260e060018060a01b0391015116946040519d8e9c8d9b8c9a63298b04a560e01b8c52339860048d01613edf565b03925af180156102f857612771575b5060018060a01b03600854168151813b15611a13578591604483926040519485938492631b6eb38160e21b845260048401528860248401525af19081156102f857859161275d575b50506008546001600160a01b0316803b156104ed57604051636d5d42c560e11b815260048035908201523360248201529085908290604490829084905af19081156102f8578591610a9857505060048054604092830151925163912d228f60e01b81526001600160a01b03938416928101929092526024820193909352916020918391168186816044810161099b565b61276690613982565b610a595783386126cd565b6020809295503d8311612799575b61278981836139ac565b81010312610a8b57839238612685565b503d61277f565b955093506020853d6020116127d1575b816127bd602093836139ac565b81010312610a8b57935185949093836125ea565b3d91506127b0565b6127e290613982565b6104ed578438612598565b6127f690613982565b6104ed578438612534565b6108fc91506124c2565b612816913390613f4b565b6124d1565b6128309192503d8085833e6104df81836139ac565b903861245e565b61285291506101c03d6101c0116105195761050981836139ac565b3861242e565b5060c0366003190112610298578061286e61390d565b612876613939565b61287e613960565b612886613971565b61288e613a68565b6004805460405163912d228f60e01b81526001600160a01b03878116938201939093526024803590820152602096929592918790829060449082908c908b165af1908115611977578891612c41575b506005546040516322a0fe3360e21b815233600482015260248101929092528790829060449082908a165afa908115611977578891612c0c575b5060048054604051631c07d98160e21b81526001600160a01b03858116938201939093529185166024808401919091523560448301528890829060649082908d908c165af190811561112c578991612bdb575b50600488886005541660405192838092636882509b60e11b82525afa9081156110ef578a91612b9a575b506129a69260ff61071e921690614080565b938286169387878a60008051602061438c8339815191528803612b7f57505050853410611982578792896101049289945b856008541691604051998a97889663486c386960e11b885216600487015260248601528a60448601526024356064860152606435608486015261ffff80921660a48601521660c48401523360e48401525af1918215610520578692612b4d575b508360065416803b15610b40576040516320e8c56560e01b81529287918491829084908290612a6c908a893360048601613a3e565b03925af180156105205785928791612b34575b50506004805460405163912d228f60e01b81526001600160a01b03939093169183019190915260248201939093529182906044908290889087165af1928315610b44578493612b01575b505060035416803b156102a6576040516363a6c98160e01b815233600482015260248101929092528290829081838160448101610489565b819450809293503d8311612b2d575b612b1a81836139ac565b81010312610a8b57829151903880612ac9565b503d612b10565b612b4091929350613982565b6104ed5783908538612a7f565b955090508385813d8111612b78575b612b6681836139ac565b81010312610a8b578594519038612a37565b503d612b5c565b90939261010493612b958a97949730338c613aaf565b6129d7565b90508881813d8311612bd4575b612bb181836139ac565b810103126110e4576129a69260ff612bcb61071e93614072565b92505092612994565b503d612ba7565b809950888092503d8311612c05575b612bf481836139ac565b81010312610a8b578897513861296a565b503d612bea565b90508681813d8311612c3a575b612c2381836139ac565b81010312610b2857612c3490613d2b565b38612917565b503d612c19565b809850878092503d8311612c6d575b612c5a81836139ac565b81010312610a8b579551879690866128dd565b503d612c50565b503461029857602036600319011261029857612c8e613a68565b60085460405163c58343ef60e01b8152600480359082015282916001600160a01b03166101c082602481845afa918215610a4e578392613129575b50826101008301516024604051809481936322bc934560e11b835260048301525afa908115610a4e57839161310f575b50612d11608082015161ffff604085015116906142e1565b60408201519091906001600160a01b03168260008051602061438c83398151915282036130f05760e0850151869250829182918291906001600160a01b03168282156130e7575bf115610a4e575b60065460e0840151610120850151610140860151610100870151936001600160a01b039384169391929082169116813b156119825760405163481fd22360e11b81526001600160a01b0394851660048201523360248201529316604484015260648301919091526084820192909252908590829060a490829084905af19081156102f85785916130d3575b505060065460408201516101008501516001600160a01b039283169290911690823b15610b4057612e37928588809460405196879586948593631effa54360e21b85523360048601613a3e565b03925af19081156102f85785916130bf575b505081602060018060a01b0360075416610100860151906101c0850151612e6f81613ebf565b8860018060a01b0360408801511691612eda60018060a01b036101208c015116956101408c01518c61016081015160808201519061ffff6060840151169260e060018060a01b0391015116936040519d8e9c8d9b8c9a63298b04a560e01b8c52339960048d01613edf565b03925af180156102f857613090575b5060018060a01b0360085416610100840151610140850151823b15610b4057604051633496841f60e11b815260048101929092526024820185905260448201529085908290606490829084905af19081156102f857859161307c575b50506008546001600160a01b0316803b156104ed57604051636d5d42c560e11b815260048035908201523360248201529085908290604490829084905af19081156102f8578591613068575b505060048054604092830151925163912d228f60e01b81526001600160a01b0393841692810192909252602482019390935291602091839160449183918891165af1908115610a4e578391613033575b5060035460e0909201516001600160a01b03928316921690823b15610a595760405163456db94760e01b81526001600160a01b0390921660048301526024820152908290829081838160448101610489565b9250506020823d602011613060575b8161304f602093836139ac565b81010312610a8b5782915138612fe1565b3d9150613042565b61307190613982565b610a59578338612f91565b61308590613982565b610a59578338612f45565b6020809295503d83116130b8575b6130a881836139ac565b81010312610a8b57839238612ee9565b503d61309e565b6130c890613982565b610a59578338612e49565b6130dc90613982565b610a59578338612dea565b506108fc612d58565b60e085015161310a926001600160a01b0390911690613f4b565b612d5f565b61312391503d8085833e6104df81836139ac565b38612cf9565b6131459192506101c03d6101c0116105195761050981836139ac565b9038612cc9565b5034610298578060031936011261029857602060405160008051602061438c8339815191528152f35b50346102985760203660031901126102985761318f613a68565b60085481906001600160a01b0316803b15610a4b5760405163774d3df560e01b81526004803590820152336024820152908290829081838160448101610489565b503461029857602036600319011261029857806004356131ee613a68565b60085460405163c58343ef60e01b8152600481018390526001600160a01b03916101c091908316908281602481855afa928315610520578693613329575b50506101a082015161323d81613ebf565b61324681613ebf565b6104ed57846101008301516024604051809481936322bc934560e11b835260048301525afa9081156102f857859284918493613306575b5061329760409161ffff83608087015192015116906142e1565b9201511660008051602061438c83398151915281036132fa5750818080928181156104aa573390f11561029b5760085416803b156102a657604051639498506560e01b815260048101929092523360248301528290829081838160448101610489565b6104c692503390613f4b565b6040919350613321613297913d8088833e6104df81836139ac565b93915061327d565b613340929350803d106105195761050981836139ac565b90388061322c565b5060c03660031901126102985761335d61394f565b90613366613939565b9061336f613960565b91613378613971565b93613381613a68565b61338a81614305565b6008546040516322bc934560e11b815260048035908201526001600160a01b03909116959084816024818a5afa9081156102f857859161387e575b50604051633970062960e01b815260048035908201526001600160a01b0385166024820152966020908890604490829089905af19687156102f85761346f97613414918791610cac57506140ae565b613427608082015161ffff8516906142e1565b60048054604080850151905163912d228f60e01b81526001600160a01b03918216938101939093526024830184905291999293926020928b92169082908a9082906044820190565b03925af1978815610520578698613849575b506005546040516322a0fe3360e21b8152336004820152602481019990995296979596602090879060449082906001600160a01b03165afa958615610c02578796613805575b50600480546040928301519251631c07d98160e21b81526001600160a01b03938416928101929092528287166024830152604482019390935291602091839116818981606481015b03925af19081156105205786916137d3575b50600554604051636882509b60e11b815290602090829060049082906001600160a01b03165afa908115610c0257879161378d575b509061071e60ff613568931687614080565b906001600160a01b03841660008051602061438c8339815191520361377357348210611a13575b6006546001600160a01b031696873b15610b40578660405180996320e8c56560e01b82528183816135c86004358a8d3360048601613a3e565b03925af18015610c025761375f575b6004805460405163912d228f60e01b81526001600160a01b03888116938201939093526024810186905298995089989791602091899160449183918d91165af196871561197757889761371e575b50600854604051633bb1374b60e01b815261ffff9687166004808301919091526001600160a01b039889166024830152604482019690965260648082018a90529288166084820152913560a483015291851660c48201529190931660e48201523361010482015290356101248201529160209183916101449183918891165af18015610a4e576136ef575b506003546001600160a01b0316803b156102a6576040516363a6c98160e01b815233600482015260248101929092528290829081838160448101610489565b6020809293503d8311613717575b61370781836139ac565b81010312610a8b578190386136b0565b503d6136fd565b9750955091926020873d602011613757575b8161373d602093836139ac565b81010312610a8b579551879690959093929061ffff613625565b3d9150613730565b95909661376b90613982565b9486906135d7565b6137888230336001600160a01b038816613aaf565b61358f565b90506020813d6020116137cb575b816137a8602093836139ac565b81010312610b40579061071e60ff6137c261356894614072565b92935050613556565b3d915061379b565b90506020813d6020116137fd575b816137ee602093836139ac565b81010312611a13575138613521565b3d91506137e1565b9095506020813d602011613841575b81613821602093836139ac565b81010312610b405761350f91613838602092613d2b565b969150916134c7565b3d9150613814565b97506020883d602011613876575b81613864602093836139ac565b81010312611a13579651966020613481565b3d9150613857565b61389291503d8087833e6104df81836139ac565b386133c5565b5034610298576060366003190112610298576138b261390d565b6138ba613923565b6138c2613939565b6138ca6139e6565b6138d261424b565b60018060a01b038092816001600160601b0360a01b951685600554161760055516836003541617600355169060045416176004556001815580f35b600435906001600160a01b0382168203610a8b57565b602435906001600160a01b0382168203610a8b57565b604435906001600160a01b0382168203610a8b57565b6024359061ffff82168203610a8b57565b6084359061ffff82168203610a8b57565b60a4359061ffff82168203610a8b57565b67ffffffffffffffff811161399657604052565b634e487b7160e01b600052604160045260246000fd5b90601f8019910116810190811067ffffffffffffffff82111761399657604052565b67ffffffffffffffff81116139965760051b60200190565b6001546001600160a01b031633036139fa57565b606460405162461bcd60e51b815260206004820152602060248201527f4f776e61626c653a2063616c6c6572206973206e6f7420746865206f776e65726044820152fd5b6001600160a01b039182168152911660208201526040810191909152606081019190915260800190565b60ff60025460a01c16613a7757565b60405162461bcd60e51b815260206004820152601060248201526f14185d5cd8589b194e881c185d5cd95960821b6044820152606490fd5b6040516323b872dd60e01b60208201526001600160a01b0392831660248201529290911660448301526064820192909252613b0091613afb82608481015b03601f1981018452836139ac565b613b1a565b565b90816020910312610a8b57518015158103610a8b5790565b6040805167ffffffffffffffff94936001600160a01b03909316929091820185811183821017613996576040526020928383527f5361666545524332303a206c6f772d6c6576656c2063616c6c206661696c6564848401526000808386829551910182855af1903d15613c4a573d968711613c3657613bba94959660405190613bac88601f19601f84011601836139ac565b81528093873d92013e613c57565b80519081613bc757505050565b8280613bd7938301019101613b02565b15613bdf5750565b6084906040519062461bcd60e51b82526004820152602a60248201527f5361666545524332303a204552433230206f7065726174696f6e20646964206e6044820152691bdd081cdd58d8d9595960b21b6064820152fd5b634e487b7160e01b83526041600452602483fd5b9150613bba939495506060915b91929015613cb95750815115613c6b575090565b3b15613c745790565b60405162461bcd60e51b815260206004820152601d60248201527f416464726573733a2063616c6c20746f206e6f6e2d636f6e74726163740000006044820152606490fd5b825190915015613ccc5750805190602001fd5b6040519062461bcd60e51b82528160208060048301528251908160248401526000935b828510613d12575050604492506000838284010152601f80199101168101030190fd5b8481018201518686016044015293810193859350613cef565b51906001600160a01b0382168203610a8b57565b519061ffff82168203610a8b57565b6020918282820312610a8b57815167ffffffffffffffff92838211610a8b5701916101e0938484840312610a8b57604051948501858110838211176139965760405283518552808401516002811015610a8b5781860152613db160408501613d2b565b6040860152606084015160608601526080840151608086015260a084015160a0860152613de060c08501613d3f565b60c086015260e084015160e08601526101008085015190860152610120613e08818601613d2b565b908601526101409182850151908111610a8b5784019280601f85011215610a8b578351613e34816139ce565b94613e4260405196876139ac565b818652838087019260051b820101928311610a8b578301905b828210613ea85750505050830152610160613e77818301613d2b565b9083015261018080820151908301526101a080820151908301526101c080910151906002821015610a8b5782015290565b838091613eb484613d2b565b815201910190613e5b565b60021115613ec957565b634e487b7160e01b600052602160045260246000fd5b9995919b9a97939894909b9692966101608b019c8b52613efe81613ebf565b60208b0152600160a01b6001900380998180991660408d01521660608b015260808a015260a089015260c088015260e087015261ffff166101008601521661012084015216906101400152565b60405163a9059cbb60e01b60208201526001600160a01b0390921660248301526044820192909252613b0091613afb8260648101613aed565b80916101c09283910312610a8b5760405191820182811067ffffffffffffffff821117613996576040528051825260208101516004811015610a8b576020830152613fd160408201613d3f565b6040830152613fe260608201613d3f565b60608301526080810151608083015260a081015160a083015260c081015160c083015261401160e08201613d2b565b60e0830152610100808201519083015261012061402f818301613d2b565b9083015261014080820151908301526101608082015190830152610180614057818301613d2b565b908301526101a080910151906002821015610a8b5782015290565b519060ff82168203610a8b57565b6001600160a01b039182169190821561409857160490565b634e487b7160e01b600052601260045260246000fd5b156140b557565b60405162461bcd60e51b815260206004820152601c60248201527f4552525f434f4c4c41544552414c5f4e4f545f535550504f52544544000000006044820152606490fd5b80916102809283910312610a8b5760405191820182811067ffffffffffffffff821117613996576040528051825260208101516004811015610a8b57602083015261414760408201613d2b565b604083015261415860608201613d2b565b60608301526080810151608083015260a081015160a083015260c081015160c083015260e081015160e083015261010080820151908301526101208082015190830152610140808201519083015261016080820151908301526101806141bf818301613d3f565b908301526101a06141d1818301614072565b908301526101c080820151908301526101e080820151908301526102008082015190830152610220808201519083015261024061420f818301613d2b565b90830152614221610260809201613d2b565b9082015290565b9190820391821161423557565b634e487b7160e01b600052601160045260246000fd5b60026000541461425c576002600055565b60405162461bcd60e51b815260206004820152601f60248201527f5265656e7472616e637947756172643a207265656e7472616e742063616c6c006044820152606490fd5b8181029291811591840414171561423557565b916142d36064926142ce670de0b6b3a764000093866142a1565b6142a1565b040481018091116142355790565b906001600160a01b03168015614301576142fd906064926142a1565b0490565b5090565b61ffff8091166064811161435457601990061661431e57565b60405162461bcd60e51b815260206004820152600e60248201526d4552525f50455243454e5441474560901b6044820152606490fd5b60405162461bcd60e51b815260206004820152600f60248201526e4f5645525f50455243454e5441474560881b6044820152606490fdfe000000000000000000000000eeeeeeeeeeeeeeeeeeeeeeeeeeeeeeeeeeeeeeeea264697066735822122033c5b8481c2d84c4b3632054f23383a4dbfbc2e5f8c53101cc7636da657d134a64736f6c63430008110033",
  "immutableReferences": {},
  "source": "// SPDX-License-Identifier: GPL-3.0\r\npragma solidity >=0.7.0 <0.9.0;\r\n\r\nimport \"./Activity.sol\";\r\n\r\nimport \"./libraries/Errors.sol\";\r\n\r\nimport \"./math/SimpleInterest.sol\";\r\n\r\nimport \"./interfaces/IPriceFeed.sol\";\r\nimport \"./interfaces/IFeeManager.sol\";\r\nimport \"./interfaces/IVaultManager.sol\";\r\nimport \"./interfaces/IOfferManager.sol\";\r\nimport \"./interfaces/ILoanManager.sol\";\r\nimport \"./interfaces/ILoanToValueRatio.sol\";\r\n\r\nimport \"@openzeppelin/contracts/utils/Context.sol\";\r\nimport \"@openzeppelin/contracts/token/ERC20/ERC20.sol\";\r\nimport \"@openzeppelin/contracts/token/ERC20/utils/SafeERC20.sol\";\r\nimport \"@openzeppelin/contracts/security/ReentrancyGuard.sol\";\r\nimport \"@openzeppelin/contracts/access/Ownable2Step.sol\";\r\nimport \"@openzeppelin/contracts/security/Pausable.sol\";\r\n\r\n/**\r\n * @title LendingPool contract\r\n * @dev Main point of interaction with the DARSH protocol's market\r\n * - Users can:\r\n *   # Create Lending/Borrowing offers\r\n *   # Request for new terms on offers\r\n *   # Repay (Fully/Installment)\r\n *   # Claim principal and earnings\r\n *   # Claim back collateral\r\n *   # Cancel/Reject/Accept requests\r\n * - All admin functions are callable by the deployer address\r\n * @author Arogundade Ibrahim\r\n **/\r\ncontract LendingPool is\r\n    Context,\r\n    ReentrancyGuard,\r\n    SimpleInterest,\r\n    Ownable2Step,\r\n    Pausable\r\n{\r\n    using SafeERC20 for ERC20;\r\n\r\n    /// @dev contract version\r\n    uint256 public constant LENDINGPOOL_REVISION = 0x2;\r\n\r\n    Activity private _activity;\r\n    IPriceFeed private _priceFeed;\r\n    ILoanToValueRatio private _ltv;\r\n\r\n    IVaultManager private _vaultManager;\r\n    ILoanManager private _loanManager;\r\n    IOfferManager private _offerManager;\r\n    IFeeManager private _feeManager;\r\n\r\n    /// @dev for convienency this address is used to represent FTM just like ERC20\r\n    address public constant nativeAddress =\r\n        0xEeeeeEeeeEeEeeEeEeEeeEEEeeeeEeeeeeeeEEeE;\r\n\r\n    constructor() ReentrancyGuard() Ownable2Step() {}\r\n\r\n    /// @notice This function creates a lending new lending offer\r\n    /// @dev the principalAmount_ parameter is use for ERC20 tokens only\r\n    function createLendingOffer(\r\n        uint256 principalAmount_,\r\n        address principalToken,\r\n        address[] memory collateralTokens,\r\n        uint16 daysToMaturity,\r\n        uint256 interest,\r\n        uint16 daysToExpire\r\n    ) public payable whenNotPaused {\r\n        uint256 principalAmount;\r\n\r\n        /* extract tokens from lender */\r\n        if (principalToken == nativeAddress) {\r\n            principalAmount = msg.value;\r\n        } else {\r\n            principalAmount = principalAmount_;\r\n            ERC20(principalToken).safeTransferFrom(\r\n                _msgSender(),\r\n                address(this),\r\n                principalAmount\r\n            );\r\n        }\r\n\r\n        /* create the lending offer */\r\n        uint256 offerId = _offerManager.createLendingOffer(\r\n            principalToken,\r\n            principalAmount,\r\n            interest,\r\n            daysToMaturity,\r\n            daysToExpire,\r\n            collateralTokens,\r\n            _msgSender()\r\n        );\r\n\r\n        /* delegate principal to lender */\r\n        _vaultManager.deposit(\r\n            _msgSender(),\r\n            principalToken,\r\n            principalAmount,\r\n            offerId\r\n        );\r\n    }\r\n\r\n    // @lenders\r\n    function createLendingRequest(\r\n        uint256 offerId,\r\n        uint16 percentage,\r\n        uint16 daysToMaturity,\r\n        uint256 interest,\r\n        uint16 hoursToExpire\r\n    ) public payable whenNotPaused {\r\n        checkPercentage(percentage);\r\n\r\n        OfferLibrary.Offer memory offer = _offerManager.getOffer(offerId);\r\n\r\n        uint256 principalAmount = percentageOf(\r\n            offer.initialPrincipal,\r\n            percentage\r\n        );\r\n\r\n        /* extract tokens from lender */\r\n        if (offer.principalToken == nativeAddress) {\r\n            require(msg.value >= principalAmount);\r\n        } else {\r\n            ERC20(offer.principalToken).safeTransferFrom(\r\n                _msgSender(),\r\n                address(this),\r\n                principalAmount\r\n            );\r\n        }\r\n\r\n        /* delegate principal to lender */\r\n        _vaultManager.deposit(\r\n            _msgSender(),\r\n            offer.principalToken,\r\n            principalAmount,\r\n            offerId\r\n        );\r\n\r\n        /* create the lending request */\r\n        _offerManager.createLendingRequest(\r\n            percentage,\r\n            interest,\r\n            daysToMaturity,\r\n            hoursToExpire,\r\n            _msgSender(),\r\n            offerId\r\n        );\r\n    }\r\n\r\n    // @lenders\r\n    function acceptBorrowingOffer(uint256 offerId, uint16 percentage)\r\n        public\r\n        payable\r\n        whenNotPaused\r\n    {\r\n        checkPercentage(percentage);\r\n        OfferLibrary.Offer memory offer = _offerManager.getOffer(offerId);\r\n\r\n        uint256 collateralAmount = percentageOf(\r\n            offer.initialCollateral,\r\n            percentage\r\n        );\r\n\r\n        uint256 principalAmount = percentageOf(\r\n            offer.initialPrincipal,\r\n            percentage\r\n        );\r\n\r\n        /* extract principal from lender/caller and transfer to borrower */\r\n        if (offer.principalToken == nativeAddress) {\r\n            require(msg.value >= principalAmount);\r\n            payable(offer.creator).transfer(principalAmount);\r\n        } else {\r\n            ERC20(offer.principalToken).safeTransferFrom(\r\n                _msgSender(),\r\n                address(this),\r\n                principalAmount\r\n            );\r\n            ERC20(offer.principalToken).safeTransfer(\r\n                offer.creator,\r\n                principalAmount\r\n            );\r\n        }\r\n\r\n        /* delegate the loan collateral to lender */\r\n        _vaultManager.transfer(\r\n            offer.creator,\r\n            _msgSender(),\r\n            offer.collateralToken,\r\n            collateralAmount,\r\n            offerId\r\n        );\r\n\r\n        uint256 collateralPriceInUSD = _priceFeed.amountInUSD(\r\n            offer.collateralToken,\r\n            collateralAmount\r\n        );\r\n\r\n        /* register the loan from the loan manager */\r\n        _loanManager.createLoan(\r\n            offer.offerId,\r\n            offer.offerType,\r\n            offer.principalToken,\r\n            offer.collateralToken,\r\n            principalAmount,\r\n            collateralAmount,\r\n            collateralPriceInUSD,\r\n            offer.interest,\r\n            offer.daysToMaturity,\r\n            offer.creator,\r\n            _msgSender()\r\n        );\r\n\r\n        // will revert the transaction if fail\r\n        _offerManager.afterOfferBorrowingLoan(\r\n            offerId,\r\n            principalAmount,\r\n            collateralAmount\r\n        );\r\n\r\n        // update activity\r\n        uint256 borrowedAmountInUSD = _priceFeed.amountInUSD(\r\n            offer.principalToken,\r\n            principalAmount\r\n        );\r\n        _activity.borrowLoan(offer.creator, borrowedAmountInUSD);\r\n    }\r\n\r\n    // @lenders\r\n    function acceptBorrowingRequest(uint256 requestId) public whenNotPaused {\r\n        RequestLibrary.Request memory request = _offerManager.getRequest(\r\n            requestId\r\n        );\r\n\r\n        OfferLibrary.Offer memory offer = _offerManager.getOffer(\r\n            request.offerId\r\n        );\r\n\r\n        uint256 principalAmount = percentageOf(\r\n            offer.initialPrincipal,\r\n            request.percentage\r\n        );\r\n\r\n        /* transfer principal to borrower */\r\n        if (offer.principalToken == nativeAddress) {\r\n            payable(request.creator).transfer(principalAmount);\r\n        } else {\r\n            ERC20(offer.principalToken).safeTransfer(\r\n                request.creator,\r\n                principalAmount\r\n            );\r\n        }\r\n\r\n        /* delegate the loan collateral to lender */\r\n        _vaultManager.transfer(\r\n            request.creator,\r\n            _msgSender(),\r\n            request.collateralToken,\r\n            request.collateralAmount,\r\n            request.offerId\r\n        );\r\n\r\n        /* undelegate the principal from lender */\r\n        _vaultManager.withdraw(\r\n            _msgSender(),\r\n            offer.principalToken,\r\n            principalAmount,\r\n            request.offerId\r\n        );\r\n\r\n        /* register the loan from the loan manager */\r\n        _loanManager.createLoan(\r\n            request.offerId,\r\n            offer.offerType,\r\n            offer.principalToken,\r\n            request.collateralToken,\r\n            principalAmount,\r\n            request.collateralAmount,\r\n            request.collateralPriceInUSD,\r\n            request.interest,\r\n            request.daysToMaturity,\r\n            request.creator,\r\n            _msgSender()\r\n        );\r\n\r\n        // will revert the transaction if fail\r\n        _offerManager.afterOfferBorrowingLoan(\r\n            request.offerId,\r\n            principalAmount,\r\n            request.collateralAmount\r\n        );\r\n        _offerManager.acceptRequest(requestId, _msgSender());\r\n\r\n        // update activity\r\n        uint256 amountBorrowedInUSD = _priceFeed.amountInUSD(\r\n            offer.principalToken,\r\n            principalAmount\r\n        );\r\n        _activity.borrowLoan(request.creator, amountBorrowedInUSD);\r\n    }\r\n\r\n    // @borrower\r\n    function createBorrowingOffer(\r\n        address principalToken,\r\n        uint256 principalAmount,\r\n        address collateralToken,\r\n        uint256 interest,\r\n        uint16 daysToMaturity,\r\n        uint16 hoursToExpire\r\n    ) public payable whenNotPaused {\r\n        uint256 principalAmountInUSD = _priceFeed.amountInUSD(\r\n            principalToken,\r\n            principalAmount\r\n        );\r\n\r\n        uint160 ltv = _ltv.getRelativeLTV(_msgSender(), principalAmountInUSD);\r\n\r\n        uint256 collateralNormalAmount = _priceFeed.exchangeRate(\r\n            principalToken,\r\n            collateralToken,\r\n            principalAmount\r\n        );\r\n\r\n        uint256 collateralAmount = percentageOf(\r\n            collateralNormalAmount,\r\n            ltv / _ltv.getBase()\r\n        );\r\n\r\n        /* extract collateral from borrower */\r\n        if (collateralToken == nativeAddress) {\r\n            require(msg.value >= collateralAmount);\r\n        } else {\r\n            ERC20(collateralToken).safeTransferFrom(\r\n                _msgSender(),\r\n                address(this),\r\n                collateralAmount\r\n            );\r\n        }\r\n\r\n        /* create the offer */\r\n        uint256 offerId = _offerManager.createBorrowingOffer(\r\n            principalToken,\r\n            collateralToken,\r\n            collateralAmount,\r\n            principalAmount,\r\n            interest,\r\n            daysToMaturity,\r\n            hoursToExpire,\r\n            _msgSender()\r\n        );\r\n\r\n        /* delegate the collateral to borrower */\r\n        _vaultManager.deposit(\r\n            _msgSender(),\r\n            collateralToken,\r\n            collateralAmount,\r\n            offerId\r\n        );\r\n\r\n        // update activity\r\n        uint256 amountInUSD = _priceFeed.amountInUSD(\r\n            collateralToken,\r\n            collateralAmount\r\n        );\r\n        _activity.dropCollateral(_msgSender(), amountInUSD);\r\n    }\r\n\r\n    // @borrower\r\n    function createBorrowingRequest(\r\n        uint256 offerId,\r\n        uint16 percentage,\r\n        address collateralToken,\r\n        uint256 interest,\r\n        uint16 daysToMaturity,\r\n        uint16 hoursToExpire\r\n    ) public payable whenNotPaused {\r\n        checkPercentage(percentage);\r\n\r\n        OfferLibrary.Offer memory offer = _offerManager.getOffer(offerId);\r\n\r\n        require(\r\n            _offerManager.isCollateralSupported(offerId, collateralToken),\r\n            \"ERR_COLLATERAL_NOT_SUPPORTED\"\r\n        );\r\n\r\n        uint256 principalAmount = percentageOf(\r\n            offer.initialPrincipal,\r\n            percentage\r\n        );\r\n\r\n        uint256 principalPriceInUSD = _priceFeed.amountInUSD(\r\n            offer.principalToken,\r\n            principalAmount\r\n        );\r\n\r\n        uint160 ltv = _ltv.getRelativeLTV(_msgSender(), principalPriceInUSD);\r\n\r\n        uint256 collateralNormalAmount = _priceFeed.exchangeRate(\r\n            offer.principalToken,\r\n            collateralToken,\r\n            principalAmount\r\n        );\r\n\r\n        uint256 collateralAmount = percentageOf(\r\n            collateralNormalAmount,\r\n            ltv / _ltv.getBase()\r\n        );\r\n\r\n        /* extract collateral from borrower */\r\n        if (collateralToken == nativeAddress) {\r\n            require(collateralAmount >= msg.value);\r\n        } else {\r\n            ERC20(collateralToken).safeTransferFrom(\r\n                _msgSender(),\r\n                address(this),\r\n                collateralAmount\r\n            );\r\n        }\r\n\r\n        /* delegate the collateral to borrower */\r\n        _vaultManager.deposit(\r\n            _msgSender(),\r\n            collateralToken,\r\n            collateralAmount,\r\n            offerId\r\n        );\r\n\r\n        uint256 collateralPriceInUSD = _priceFeed.amountInUSD(\r\n            collateralToken,\r\n            collateralAmount\r\n        );\r\n\r\n        /* create the request */\r\n        _offerManager.createBorrowingRequest(\r\n            percentage,\r\n            collateralToken,\r\n            collateralAmount,\r\n            collateralPriceInUSD,\r\n            ltv,\r\n            interest,\r\n            daysToMaturity,\r\n            hoursToExpire,\r\n            _msgSender(),\r\n            offerId\r\n        );\r\n\r\n        // update activity\r\n        _activity.dropCollateral(_msgSender(), collateralPriceInUSD);\r\n    }\r\n\r\n    // @borrower\r\n    function acceptLendingOffer(\r\n        uint256 offerId,\r\n        uint16 percentage,\r\n        address collateralToken\r\n    ) public payable whenNotPaused {\r\n        checkPercentage(percentage);\r\n\r\n        OfferLibrary.Offer memory offer = _offerManager.getOffer(offerId);\r\n\r\n        require(\r\n            _offerManager.isCollateralSupported(offerId, collateralToken),\r\n            \"ERR_COLLATERAL_NOT_SUPPORTED\"\r\n        );\r\n\r\n        uint256 principalAmount = percentageOf(\r\n            offer.initialPrincipal,\r\n            percentage\r\n        );\r\n\r\n        uint256 principalPriceInUSD = _priceFeed.amountInUSD(\r\n            offer.principalToken,\r\n            principalAmount\r\n        );\r\n\r\n        uint160 ltv = _ltv.getRelativeLTV(_msgSender(), principalPriceInUSD);\r\n\r\n        /* calculate the collateral amount */\r\n        uint256 collateralNormalAmount = _priceFeed.exchangeRate(\r\n            offer.principalToken,\r\n            collateralToken,\r\n            principalAmount\r\n        );\r\n\r\n        uint256 collateralAmount = percentageOf(\r\n            collateralNormalAmount,\r\n            ltv / _ltv.getBase()\r\n        );\r\n\r\n        /* extract collateral tokens from borrower */\r\n        if (collateralToken == nativeAddress) {\r\n            require(collateralAmount >= msg.value, \"ERR_COLLATERAL_AMOUNT\");\r\n        } else {\r\n            ERC20(collateralToken).safeTransferFrom(\r\n                _msgSender(),\r\n                address(this),\r\n                collateralAmount\r\n            );\r\n        }\r\n\r\n        /* transfer the principal to borrower */\r\n        if (offer.principalToken == nativeAddress) {\r\n            payable(_msgSender()).transfer(principalAmount);\r\n        } else {\r\n            ERC20(offer.principalToken).safeTransfer(\r\n                _msgSender(),\r\n                principalAmount\r\n            );\r\n        }\r\n\r\n        /* delegate the loan collateral to lender */\r\n        _vaultManager.deposit(\r\n            offer.creator,\r\n            collateralToken,\r\n            collateralAmount,\r\n            offerId\r\n        );\r\n\r\n        /* undelegate the loan principal from lender */\r\n        _vaultManager.withdraw(\r\n            offer.creator,\r\n            offer.principalToken,\r\n            principalAmount,\r\n            offerId\r\n        );\r\n\r\n        uint256 collateralPriceInUSD = _priceFeed.amountInUSD(\r\n            collateralToken,\r\n            collateralAmount\r\n        );\r\n\r\n        /* register the loan */\r\n        _loanManager.createLoan(\r\n            offerId,\r\n            offer.offerType,\r\n            offer.principalToken,\r\n            collateralToken,\r\n            principalAmount,\r\n            collateralAmount,\r\n            collateralPriceInUSD,\r\n            offer.interest,\r\n            offer.daysToMaturity,\r\n            _msgSender(),\r\n            offer.creator\r\n        );\r\n\r\n        // will revert if transaction fail\r\n        _offerManager.afterOfferLendingLoan(offerId, principalAmount);\r\n\r\n        // update activity\r\n        uint256 amountBorrowedInUSD = _priceFeed.amountInUSD(\r\n            offer.principalToken,\r\n            principalAmount\r\n        );\r\n        _activity.borrowLoan(_msgSender(), amountBorrowedInUSD);\r\n        _activity.dropCollateral(_msgSender(), collateralPriceInUSD);\r\n    }\r\n\r\n    // @borrower\r\n    function acceptLendingRequest(uint256 requestId)\r\n        public\r\n        payable\r\n        whenNotPaused\r\n    {\r\n        RequestLibrary.Request memory request = _offerManager.getRequest(\r\n            requestId\r\n        );\r\n\r\n        OfferLibrary.Offer memory offer = _offerManager.getOffer(\r\n            request.offerId\r\n        );\r\n\r\n        uint256 collateralAmount = percentageOf(\r\n            offer.initialCollateral,\r\n            request.percentage\r\n        );\r\n\r\n        uint256 principalAmount = percentageOf(\r\n            offer.initialPrincipal,\r\n            request.percentage\r\n        );\r\n\r\n        /* transfer principal to borrower */\r\n        if (offer.principalToken == nativeAddress) {\r\n            payable(_msgSender()).transfer(principalAmount);\r\n        } else {\r\n            ERC20(offer.principalToken).safeTransfer(\r\n                _msgSender(),\r\n                principalAmount\r\n            );\r\n        }\r\n\r\n        /* delegate the loan collateral to lender */\r\n        _vaultManager.deposit(\r\n            request.creator,\r\n            offer.collateralToken,\r\n            collateralAmount,\r\n            request.offerId\r\n        );\r\n\r\n        /* undelegate the loan principal from lender */\r\n        _vaultManager.withdraw(\r\n            request.creator,\r\n            offer.principalToken,\r\n            principalAmount,\r\n            request.offerId\r\n        );\r\n\r\n        uint256 collateralPriceInUSD = _priceFeed.amountInUSD(\r\n            offer.collateralToken,\r\n            collateralAmount\r\n        );\r\n\r\n        /* register the loan from the loan manager */\r\n        _loanManager.createLoan(\r\n            request.offerId,\r\n            offer.offerType,\r\n            offer.principalToken,\r\n            offer.collateralToken,\r\n            principalAmount,\r\n            collateralAmount,\r\n            collateralPriceInUSD,\r\n            request.interest,\r\n            request.daysToMaturity,\r\n            _msgSender(),\r\n            request.creator\r\n        );\r\n\r\n        // will revert the transaction if fail\r\n        _offerManager.afterOfferLendingLoan(offer.offerId, principalAmount);\r\n        _offerManager.acceptRequest(requestId, _msgSender());\r\n\r\n        // update activityj\r\n        uint256 amountBorrowedInUSD = _priceFeed.amountInUSD(\r\n            offer.principalToken,\r\n            principalAmount\r\n        );\r\n        _activity.borrowLoan(_msgSender(), amountBorrowedInUSD);\r\n        _activity.dropCollateral(_msgSender(), collateralPriceInUSD);\r\n    }\r\n\r\n    // @lender\r\n    function reActivateOffer(uint256 offerId, uint16 toExpire)\r\n        public\r\n        whenNotPaused\r\n    {\r\n        _offerManager.reActivateOffer(offerId, toExpire, _msgSender());\r\n    }\r\n\r\n    // @borrower\r\n    function repayLoan(uint256 loanId, uint16 percentage)\r\n        public\r\n        payable\r\n        whenNotPaused\r\n    {\r\n        checkPercentage(percentage);\r\n\r\n        LoanLibrary.Loan memory loan = _loanManager.getLoan(loanId);\r\n\r\n        // verify the borrower is the repayer\r\n        require(loan.borrower == _msgSender(), \"ERR_NOT_BORROWER\");\r\n\r\n        // calculate the duration of the loan\r\n        uint256 time = block.timestamp;\r\n        uint256 ellapsedSecs = (time - loan.startDate);\r\n\r\n        uint256 principalAmount = percentageOf(\r\n            loan.initialPrincipal,\r\n            percentage\r\n        );\r\n\r\n        uint256 collateralAmount = percentageOf(\r\n            loan.initialCollateral,\r\n            percentage\r\n        );\r\n\r\n        // calculate the pay back amount\r\n        uint256 repaymentPrincipal = getFullInterestAmount(\r\n            principalAmount,\r\n            ellapsedSecs,\r\n            loan.interest\r\n        );\r\n\r\n        uint256 interestPaid = (repaymentPrincipal - principalAmount);\r\n        uint256 fee = percentageOf(interestPaid, _feeManager.feePercentage());\r\n        uint256 unClaimedInterest = (interestPaid - fee);\r\n\r\n        _feeManager.credit(loan.principalToken, fee);\r\n\r\n        // will revert the transaction if fail\r\n        bool completed = _loanManager.repayLoan(\r\n            loanId,\r\n            unClaimedInterest,\r\n            principalAmount,\r\n            collateralAmount\r\n        );\r\n\r\n        /* extract pay back amount */\r\n        if (loan.principalToken == nativeAddress) {\r\n            require(msg.value >= repaymentPrincipal);\r\n        } else {\r\n            ERC20(loan.principalToken).safeTransferFrom(\r\n                _msgSender(),\r\n                address(this),\r\n                repaymentPrincipal\r\n            );\r\n        }\r\n\r\n        // update activity\r\n        uint256 interestPaidInUSD = _priceFeed.amountInUSD(\r\n            loan.principalToken,\r\n            (repaymentPrincipal - principalAmount)\r\n        );\r\n\r\n        uint256 amountPaidInUSD = _priceFeed.amountInUSD(\r\n            loan.principalToken,\r\n            principalAmount\r\n        );\r\n\r\n        _activity.repayLoan(\r\n            _msgSender(),\r\n            amountPaidInUSD,\r\n            interestPaidInUSD,\r\n            completed\r\n        );\r\n    }\r\n\r\n    function rejectRequest(uint256 requestId) public whenNotPaused {\r\n        _offerManager.rejectRequest(requestId, _msgSender());\r\n    }\r\n\r\n    function cancelLendRequest(uint256 requestId) public whenNotPaused {\r\n        RequestLibrary.Request memory request = _offerManager.getRequest(\r\n            requestId\r\n        );\r\n        require(request.requestType == RequestLibrary.Type.LENDING_REQUEST);\r\n\r\n        OfferLibrary.Offer memory offer = _offerManager.getOffer(\r\n            request.offerId\r\n        );\r\n\r\n        uint256 principalAmount = percentageOf(\r\n            offer.initialPrincipal,\r\n            request.percentage\r\n        );\r\n\r\n        if (offer.principalToken == nativeAddress) {\r\n            payable(_msgSender()).transfer(principalAmount);\r\n        } else {\r\n            ERC20(offer.principalToken).safeTransfer(\r\n                _msgSender(),\r\n                principalAmount\r\n            );\r\n        }\r\n\r\n        _offerManager.cancelRequest(requestId, _msgSender());\r\n    }\r\n\r\n    function cancelBorrowRequest(uint256 requestId) public whenNotPaused {\r\n        RequestLibrary.Request memory request = _offerManager.getRequest(\r\n            requestId\r\n        );\r\n        require(request.requestType == RequestLibrary.Type.BORROWING_REQUEST);\r\n\r\n        OfferLibrary.Offer memory offer = _offerManager.getOffer(\r\n            request.offerId\r\n        );\r\n\r\n        if (offer.collateralToken == nativeAddress) {\r\n            payable(_msgSender()).transfer(request.collateralAmount);\r\n        } else {\r\n            ERC20(offer.collateralToken).safeTransfer(\r\n                _msgSender(),\r\n                request.collateralAmount\r\n            );\r\n        }\r\n\r\n        _offerManager.cancelRequest(requestId, _msgSender());\r\n    }\r\n\r\n    function claimCollateral(uint256 loanId) public nonReentrant whenNotPaused {\r\n        LoanLibrary.Loan memory loan = _loanManager.getLoan(loanId);\r\n\r\n        if (loan.collateralToken == nativeAddress) {\r\n            payable(_msgSender()).transfer(loan.unClaimedCollateral);\r\n        } else {\r\n            ERC20(loan.collateralToken).safeTransfer(\r\n                _msgSender(),\r\n                loan.unClaimedCollateral\r\n            );\r\n        }\r\n\r\n        _loanManager.claimCollateral(loanId, _msgSender());\r\n    }\r\n\r\n    function claimPrincipal(uint256 loanId) public nonReentrant whenNotPaused {\r\n        LoanLibrary.Loan memory loan = _loanManager.getLoan(loanId);\r\n\r\n        if (loan.principalToken == nativeAddress) {\r\n            payable(_msgSender()).transfer(loan.unClaimedPrincipal);\r\n        } else {\r\n            ERC20(loan.principalToken).safeTransfer(\r\n                _msgSender(),\r\n                loan.unClaimedPrincipal\r\n            );\r\n        }\r\n\r\n        _loanManager.claimPrincipal(loanId, _msgSender());\r\n    }\r\n\r\n    function claimDefaultCollateral(uint256 loanId)\r\n        public\r\n        nonReentrant\r\n        whenNotPaused\r\n    {\r\n        LoanLibrary.Loan memory loan = _loanManager.getLoan(loanId);\r\n\r\n        if (loan.collateralToken == nativeAddress) {\r\n            payable(_msgSender()).transfer(loan.unClaimedDefaultCollateral);\r\n        } else {\r\n            ERC20(loan.collateralToken).safeTransfer(\r\n                _msgSender(),\r\n                loan.unClaimedDefaultCollateral\r\n            );\r\n        }\r\n\r\n        _loanManager.claimDefaultCollateral(loanId, _msgSender());\r\n    }\r\n\r\n    function repayLiquidatedLoan(uint256 loanId) public payable nonReentrant {}\r\n\r\n    // ============= ABOUT ============ //\r\n\r\n    function getRevision() public pure returns (uint256) {\r\n        return LENDINGPOOL_REVISION;\r\n    }\r\n\r\n    // ============= ADMIN FUNCTIONS =============== //\r\n\r\n    function liquidateLoan(uint256 loanId) public onlyOwner nonReentrant {\r\n        LoanLibrary.Loan memory loan = _loanManager.getLoan(loanId);\r\n\r\n        // calculate the duration of the loan\r\n        uint256 time = block.timestamp;\r\n        uint256 ellapsedSecs = (time - loan.startDate);\r\n\r\n        uint256 repaymentPrincipal = getFullInterestAmount(\r\n            loan.currentPrincipal,\r\n            ellapsedSecs,\r\n            loan.interest\r\n        );\r\n\r\n        uint256 repaymentCollateral = _priceFeed.exchangeRate(\r\n            loan.principalToken,\r\n            loan.collateralToken,\r\n            repaymentPrincipal\r\n        );\r\n\r\n        uint256 interestInCollateral = _priceFeed.exchangeRate(\r\n            loan.principalToken,\r\n            loan.collateralToken,\r\n            (repaymentPrincipal - loan.currentPrincipal)\r\n        );\r\n\r\n        uint256 principalPaid;\r\n        uint256 collateralRetrieved;\r\n        uint256 collateralFee;\r\n\r\n        uint256 fee = percentageOf(\r\n            interestInCollateral,\r\n            _feeManager.feePercentage()\r\n        );\r\n\r\n        if (loan.currentCollateral >= (repaymentCollateral - fee)) {\r\n            collateralRetrieved = (repaymentCollateral - fee);\r\n            principalPaid = loan.currentPrincipal;\r\n\r\n            if (loan.currentCollateral >= repaymentCollateral) {\r\n                collateralFee = fee;\r\n            } else {\r\n                collateralRetrieved = loan.currentCollateral;\r\n                collateralFee = (loan.currentCollateral -\r\n                    (repaymentCollateral - fee));\r\n            }\r\n        } else {\r\n            collateralRetrieved = loan.currentCollateral;\r\n\r\n            uint256 collateralInPrincipal = _priceFeed.exchangeRate(\r\n                loan.collateralToken,\r\n                loan.principalToken,\r\n                collateralRetrieved\r\n            );\r\n\r\n            principalPaid = collateralInPrincipal;\r\n            collateralFee = 0;\r\n        }\r\n\r\n        _feeManager.credit(loan.collateralToken, collateralFee);\r\n\r\n        _loanManager.liquidateLoan(\r\n            loanId,\r\n            principalPaid,\r\n            collateralRetrieved,\r\n            (collateralRetrieved - collateralFee)\r\n        );\r\n    }\r\n\r\n    function setFeeds(\r\n        address ltv_,\r\n        address activity_,\r\n        address priceFeed_\r\n    ) public onlyOwner nonReentrant {\r\n        _ltv = ILoanToValueRatio(ltv_);\r\n        _activity = Activity(activity_);\r\n        _priceFeed = IPriceFeed(priceFeed_);\r\n    }\r\n\r\n    function setManagers(\r\n        address vaultManager_,\r\n        address loanManager_,\r\n        address offerManager_,\r\n        address feeManager_\r\n    ) public onlyOwner nonReentrant {\r\n        _vaultManager = IVaultManager(vaultManager_);\r\n        _loanManager = ILoanManager(loanManager_);\r\n        _offerManager = IOfferManager(offerManager_);\r\n        _feeManager = IFeeManager(feeManager_);\r\n    }\r\n\r\n    /// @dev to claim revenue\r\n    function claim(\r\n        address token,\r\n        address payable receiver,\r\n        uint256 amount\r\n    ) public onlyOwner nonReentrant {\r\n        require(amount > 0, \"ERR_ZERO_AMOUNT\");\r\n        _feeManager.debit(token, amount);\r\n        if (token == nativeAddress) {\r\n            receiver.transfer(amount);\r\n        } else {\r\n            ERC20(token).safeTransfer(receiver, amount);\r\n        }\r\n    }\r\n}\r\n",
  "sourcePath": "C:\\Users\\DELL\\Documents\\darsh\\smart-contracts\\contracts\\LendingPool.sol",
  "compiler": {
    "name": "solc",
    "version": "0.8.17+commit.8df45f5f.Emscripten.clang"
  },
  "schemaVersion": "3.4.11",
  "updatedAt": "2023-02-20T16:31:39.432Z",
  "devdoc": {
    "author": "Arogundade Ibrahim*",
    "details": "Main point of interaction with the DARSH protocol's market - Users can:   # Create Lending/Borrowing offers   # Request for new terms on offers   # Repay (Fully/Installment)   # Claim principal and earnings   # Claim back collateral   # Cancel/Reject/Accept requests - All admin functions are callable by the deployer address",
    "kind": "dev",
    "methods": {
      "acceptOwnership()": {
        "details": "The new owner accepts the ownership transfer."
      },
      "claim(address,address,uint256)": {
        "details": "to claim revenue"
      },
      "createLendingOffer(uint256,address,address[],uint16,uint256,uint16)": {
        "details": "the principalAmount_ parameter is use for ERC20 tokens only"
      },
      "owner()": {
        "details": "Returns the address of the current owner."
      },
      "paused()": {
        "details": "Returns true if the contract is paused, and false otherwise."
      },
      "pendingOwner()": {
        "details": "Returns the address of the pending owner."
      },
      "renounceOwnership()": {
        "details": "Leaves the contract without owner. It will not be possible to call `onlyOwner` functions anymore. Can only be called by the current owner. NOTE: Renouncing ownership will leave the contract without an owner, thereby removing any functionality that is only available to the owner."
      },
      "transferOwnership(address)": {
        "details": "Starts the ownership transfer of the contract to a new account. Replaces the pending transfer if there is one. Can only be called by the current owner."
      }
    },
    "stateVariables": {
      "LENDINGPOOL_REVISION": {
        "details": "contract version"
      },
      "nativeAddress": {
        "details": "for convienency this address is used to represent FTM just like ERC20"
      }
    },
    "title": "LendingPool contract",
    "version": 1
  },
  "userdoc": {
    "kind": "user",
    "methods": {
      "createLendingOffer(uint256,address,address[],uint16,uint256,uint16)": {
        "notice": "This function creates a lending new lending offer"
      }
    },
    "version": 1
  }
}