{
  "contractName": "LendingPool",
  "abi": [
    {
      "inputs": [
        {
          "internalType": "address",
          "name": "poolManager_",
          "type": "address"
        },
        {
          "internalType": "address",
          "name": "loanManager_",
          "type": "address"
        },
        {
          "internalType": "address",
          "name": "offerManager_",
          "type": "address"
        }
      ],
      "stateMutability": "nonpayable",
      "type": "constructor"
    },
    {
      "inputs": [],
      "name": "INTEREST_RATE_DENOMINATOR",
      "outputs": [
        {
          "internalType": "uint256",
          "name": "",
          "type": "uint256"
        }
      ],
      "stateMutability": "view",
      "type": "function"
    },
    {
      "inputs": [
        {
          "internalType": "uint256",
          "name": "principal",
          "type": "uint256"
        },
        {
          "internalType": "uint256",
          "name": "durationSecs",
          "type": "uint256"
        },
        {
          "internalType": "uint256",
          "name": "interest",
          "type": "uint256"
        }
      ],
      "name": "getFullInterestAmount",
      "outputs": [
        {
          "internalType": "uint256",
          "name": "",
          "type": "uint256"
        }
      ],
      "stateMutability": "pure",
      "type": "function"
    },
    {
      "inputs": [
        {
          "internalType": "uint256",
          "name": "total",
          "type": "uint256"
        },
        {
          "internalType": "uint256",
          "name": "percent",
          "type": "uint256"
        }
      ],
      "name": "percentageOf",
      "outputs": [
        {
          "internalType": "uint256",
          "name": "",
          "type": "uint256"
        }
      ],
      "stateMutability": "pure",
      "type": "function"
    },
    {
      "inputs": [
        {
          "internalType": "enum AssetLibrary.Type",
          "name": "principalType",
          "type": "uint8"
        },
        {
          "internalType": "uint256",
          "name": "_principal",
          "type": "uint256"
        },
        {
          "internalType": "uint256",
          "name": "interest",
          "type": "uint256"
        },
        {
          "internalType": "uint256",
          "name": "daysToMaturity",
          "type": "uint256"
        },
        {
          "internalType": "uint256",
          "name": "daysToExpire",
          "type": "uint256"
        },
        {
          "internalType": "enum AssetLibrary.Type[]",
          "name": "collateralTypes",
          "type": "uint8[]"
        }
      ],
      "name": "createLendingOffer",
      "outputs": [],
      "stateMutability": "payable",
      "type": "function"
    },
    {
      "inputs": [
        {
          "internalType": "uint256",
          "name": "offerId",
          "type": "uint256"
        },
        {
          "internalType": "uint256",
          "name": "desiredPercentage",
          "type": "uint256"
        }
      ],
      "name": "acceptBorrowingOffer",
      "outputs": [],
      "stateMutability": "payable",
      "type": "function"
    },
    {
      "inputs": [
        {
          "internalType": "uint256",
          "name": "requestId",
          "type": "uint256"
        }
      ],
      "name": "acceptBorrowingRequest",
      "outputs": [],
      "stateMutability": "payable",
      "type": "function"
    },
    {
      "inputs": [
        {
          "internalType": "enum AssetLibrary.Type",
          "name": "principalType",
          "type": "uint8"
        },
        {
          "internalType": "enum AssetLibrary.Type",
          "name": "collateralType",
          "type": "uint8"
        },
        {
          "internalType": "uint256",
          "name": "_collateral",
          "type": "uint256"
        },
        {
          "internalType": "uint256",
          "name": "interest",
          "type": "uint256"
        },
        {
          "internalType": "uint256",
          "name": "daysToMaturity",
          "type": "uint256"
        },
        {
          "internalType": "uint256",
          "name": "daysToExpire",
          "type": "uint256"
        }
      ],
      "name": "createBorrowingOffer",
      "outputs": [],
      "stateMutability": "payable",
      "type": "function"
    },
    {
      "inputs": [
        {
          "internalType": "uint256",
          "name": "offerId",
          "type": "uint256"
        },
        {
          "internalType": "uint256",
          "name": "desiredPercentage",
          "type": "uint256"
        },
        {
          "internalType": "enum AssetLibrary.Type",
          "name": "collateralType",
          "type": "uint8"
        }
      ],
      "name": "acceptLendingOffer",
      "outputs": [],
      "stateMutability": "payable",
      "type": "function"
    },
    {
      "inputs": [
        {
          "internalType": "uint256",
          "name": "requestId",
          "type": "uint256"
        }
      ],
      "name": "acceptLendingRequest",
      "outputs": [],
      "stateMutability": "payable",
      "type": "function"
    },
    {
      "inputs": [
        {
          "internalType": "uint256",
          "name": "loanId",
          "type": "uint256"
        }
      ],
      "name": "repayLoan",
      "outputs": [],
      "stateMutability": "payable",
      "type": "function"
    },
    {
      "inputs": [
        {
          "internalType": "uint256",
          "name": "loanId",
          "type": "uint256"
        }
      ],
      "name": "repayLiquidatedLoan",
      "outputs": [],
      "stateMutability": "payable",
      "type": "function"
    },
    {
      "inputs": [
        {
          "internalType": "address",
          "name": "priceFeed_",
          "type": "address"
        }
      ],
      "name": "setPriceFeed",
      "outputs": [],
      "stateMutability": "nonpayable",
      "type": "function"
    },
    {
      "inputs": [
        {
          "internalType": "address",
          "name": "tokenFeed_",
          "type": "address"
        }
      ],
      "name": "setTokenFeed",
      "outputs": [],
      "stateMutability": "nonpayable",
      "type": "function"
    },
    {
      "inputs": [
        {
          "internalType": "address",
          "name": "trustScore_",
          "type": "address"
        }
      ],
      "name": "setTrustScore",
      "outputs": [],
      "stateMutability": "nonpayable",
      "type": "function"
    },
    {
      "inputs": [
        {
          "internalType": "address",
          "name": "activity_",
          "type": "address"
        }
      ],
      "name": "setActivity",
      "outputs": [],
      "stateMutability": "nonpayable",
      "type": "function"
    },
    {
      "inputs": [
        {
          "internalType": "address",
          "name": "newOwner",
          "type": "address"
        }
      ],
      "name": "changeOwner",
      "outputs": [],
      "stateMutability": "nonpayable",
      "type": "function"
    }
  ],
  "bytecode": "0x608034620000bb57601f620037fb38819003918201601f19168301916001600160401b03831184841017620000c057808492606094604052833981010312620000bb576200004d81620000d6565b906200006a60406200006260208401620000d6565b9201620000d6565b600160005560018060a01b0319923384600154161760015560018060a01b039283809216856006541617600655168360075416176007551690600854161760085560405161370f9081620000ec8239f35b600080fd5b634e487b7160e01b600052604160045260246000fd5b51906001600160a01b0382168203620000bb5756fe6080604052600436101561001257600080fd5b600060e08135811c9081631322e74f14612e845781632a7a370b14612a8e5781634add7c82146123235781635c7f31aa14611c4557816361ba944314611baf578163724e78da14611b625781637af33148146110c25781638fc8395414610daf5781639d8dcbbf146106ec57508063a6f9dae1146106a3578063ab7b1c89146101da578063b71051e2146101c0578063cc3266e81461019d578063e0f7dffd14610170578063e3f43fdb146101235763f7f65f42146100d057600080fd5b34610120576020366003190112610120576004356001600160a01b038181169182900361011c576101069060015416331461362e565b6001600160601b0360a01b600354161760035580f35b8280fd5b80fd5b5034610120576020366003190112610120576004356001600160a01b038181169182900361011c5761015a9060015416331461362e565b6001600160601b0360a01b600254161760025580f35b5034610120576060366003190112610120576020610195604435602435600435613694565b604051908152f35b50346101205780600319360112610120576020604051670de0b6b3a76400008152f35b50346101205760206101956101d436612f1f565b906136be565b506020908160031936011261012057600754604051632820036560e11b8152600480359082018190526024946101e09390926001600160a01b039182169085818981855afa95861561056e578796610674575b5050816101a086015116330361063d578385015160038110156105c1576106035785908261014087015116420390884283116105f15760c0880151610120890151889461027992613694565b9560405194859384926387d709b760e01b845260048401525af180156104db576105d4575b5080600354169160608501519060068210156105c157604051630b5a7f2360e31b808252926102d1906004830190612fa1565b85818a81885afa90811561052857889161058c575b506080870151926006841015610579578690899a61031260409b9a9b5196879384526004840190612fa1565b81885afa92831561056e578793610533575b50604051908682600481632e47633760e01b998a82525afa8015610528578588928a9485936104e6575b5081169116810361048157505050341061046b575b8382600354169360046040518096819382525afa92831561047657859361043a575b508116911681036103c35750508080610100819401518181156103ba575b3390f1156103ae5780f35b604051903d90823e3d90fd5b506108fc6103a3565b610100939093015160405163a9059cbb60e01b8152336004820152602481019190915290929091839183916044918391905af1801561042f5761040557505080f35b8161042492903d10610428575b61041c8183612ee5565b810190612f35565b5080f35b503d610412565b6040513d85823e3d90fd5b9092508381813d831161046f575b6104528183612ee5565b8101031261046b576104648291612f8d565b9290610385565b8480fd5b503d610448565b6040513d87823e3d90fd5b6040516323b872dd60e01b815233600482015230602482015260448101949094529091839160649183915af180156104db576104be575b50610363565b6104d490853d87116104285761041c8183612ee5565b50386104b8565b6040513d88823e3d90fd5b93925093505081813d8311610521575b6105008183612ee5565b8101031261051d57879185806105168a94612f8d565b929061034e565b8780fd5b503d6104f6565b6040513d8a823e3d90fd5b9092508581813d8311610567575b61054b8183612ee5565b810103126105635761055c90612f8d565b9138610324565b8680fd5b503d610541565b6040513d89823e3d90fd5b634e487b7160e01b895260216004528989fd5b90508581813d83116105ba575b6105a38183612ee5565b8101031261051d576105b490612f8d565b386102e6565b503d610599565b634e487b7160e01b875260216004528787fd5b6105ea90843d86116104285761041c8183612ee5565b503861029e565b634e487b7160e01b8452601160045283fd5b60405162461bcd60e51b815260048101859052601381890152724552525f4c4f414e5f4e4f545f41435449564560681b6044820152606490fd5b60405162461bcd60e51b8152600481018590526010818901526f22a9292fa727aa2fa127a92927aba2a960811b6044820152606490fd5b610694929650803d1061069c575b61068c8183612ee5565b810190613531565b93388061022d565b503d610682565b5034610120576020366003190112610120576004356001600160a01b038181169182900361011c576106db600154918216331461362e565b6001600160a01b0319161760015580f35b826106f636612f1f565b60085460405163bf1e609760e01b815260048101849052919461014093926001600160a01b039285908290602490829087165afa9485156104db578695610d7a575b50508161074a91850151164210613110565b80600254169461012084019382855116916040519263d8689e1360e01b8452600484015260209283816024818c5afa9081156105285790610793918991610d5d575b5015613150565b838651163314610d2257806107ae60646107c5931115613192565b6107bb60198206156131d0565b60808301516136be565b948560608301511061056357836003541683830151906006821015610d0e57604051630b5a7f2360e31b815291610800906004840190612fa1565b8482602481845afa918215610b99578992610cd3575b5060408401998a516006811015610ad75761084a602488926040519586938492630b5a7f2360e31b84526004840190612fa1565b5afa918215610bc1578a92610c9c575b508587855116602460405180948193632070c0ef60e11b835260048301525afa908115610bc1578a91610c6e575b506005548451604080516301a4421d60e21b8152918a166001600160a01b03166004830152602482019390935291908290891681806044810103915afa908115610bc1578987918c93610c39575b5060048054604051631c07d98160e21b81526001600160a01b039687169281019290925294861660248201526044810191909152919282908916818d81606481015b03925af1908115610bc1578a91610c0b575b50600491610937916136be565b9185876003541660405193848092632e47633760e01b82525afa918215610bc1579087918b93610bcc575b50811691168103610af4575080341061051d57878080808489875116828215610aeb575bf11561056e575b846007541691835193858101519a60068c1015610ad75751926006841015610ad75786948b9c9461014494848e94610a038d60c060a06109f99e9a0151940151945116946040519c8d9b8c9a63cc2d5a2f60e01b8c5260048c0152600160248c015260448b0190612fa1565b6064890190612fa1565b60848701528d60a487015260c486015260e4850152610104840152336101248401525af19182156104db578692610a9e575b5050610a4290151561328f565b6008541691823b15610a995760448492836040519586948593630aab2ceb60e31b8552600485015260248401525af18015610a8e57610a7e5750f35b610a8790612ed1565b6101205780f35b6040513d84823e3d90fd5b505050fd5b8196508092503d8311610ad0575b610ab68183612ee5565b81010312610acb57610a428594519087610a35565b600080fd5b503d610aac565b634e487b7160e01b8b52602160045260248bfd5b506108fc610986565b6040516323b872dd60e01b81523360048201523060248201526044810183905285816064818d865af18015610bc157610b679287928592610ba4575b50888651168c60405180968195829463a9059cbb60e01b84526004840160209093929193604081019460018060a01b031681520152565b03925af18015610b9957610b7c575b5061098d565b610b9290853d87116104285761041c8183612ee5565b5089610b76565b6040513d8b823e3d90fd5b610bba90843d86116104285761041c8183612ee5565b508d610b30565b6040513d8c823e3d90fd5b87809294508193503d8311610c04575b610be68183612ee5565b81010312610c005786610bf98192612f8d565b9290610962565b8980fd5b503d610bdc565b90508581813d8311610c32575b610c228183612ee5565b81010312610acb5751600461092a565b503d610c18565b6109189350610c5f9060403d604011610c67575b610c578183612ee5565b81019061320d565b9050926108d6565b503d610c4d565b90508581813d8311610c95575b610c858183612ee5565b81010312610acb57516040610888565b503d610c7b565b9091508581813d8311610ccc575b610cb48183612ee5565b81010312610c0057610cc590612f8d565b908b61085a565b503d610caa565b9091508481813d8311610d07575b610ceb8183612ee5565b81010312610d0357610cfc90612f8d565b908a610816565b8880fd5b503d610ce1565b634e487b7160e01b89526021600452602489fd5b60405162461bcd60e51b815260048101849052601360248201527222a9292fa1a0a72a2fa127a92927abafa7aba760691b6044820152606490fd5b610d749150853d87116104285761041c8183612ee5565b8a61078c565b61074a929550839181610da192903d10610da8575b610d998183612ee5565b81019061305c565b9491610738565b503d610d8f565b8260c03660031901126101205760043560068110156110be5760243590600682101561011c5760025460405163d8689e1360e01b81523360048201526020926001600160a01b0392604435929085908290602490829088165afa801561056e57610e209188916110a1575015613150565b82600354169060405192630b5a7f2360e31b8452610e416004850188612fa1565b8584602481865afa928315610528578690899461106a575b604051632e47633760e01b81529550859060049082905afa938415610528578894611033575b5087868680861696168614600014610fcc57909150610ede94503480945b600654604051638340f54960e01b81523360048201526001600160a01b03909216602483015260448201929092529586918816908290859082906064820190565b03925af1928315610fbf578695610f0260e495610f26978591610fa2575b50612fc4565b6008541690610f30604051998a978896630b1b120f60e21b88526004880190612fa1565b6024860190612fa1565b60448401526064356064840152608435608484015260a43560a48401523360c48401525af190811561042f578391610f72575b83610f6f831515613010565b80f35b905081813d8311610f9b575b610f888183612ee5565b81010312610acb57610f6f905183610f63565b503d610f7e565b610fb99150893d8b116104285761041c8183612ee5565b8c610efc565b50604051903d90823e3d90fd5b6040516323b872dd60e01b8152336004820152306024820152604481018490529495929491928290606490829086905af18015610a8e57610ede9588928692611016575b50610e9d565b61102c90843d86116104285761041c8183612ee5565b508b611010565b9093508581813d8311611063575b61104b8183612ee5565b8101031261051d5761105c90612f8d565b9288610e7f565b503d611041565b935084813d831161109a575b6110808183612ee5565b8101031261051d5785611094600495612f8d565b93610e59565b503d611076565b6110b89150863d88116104285761041c8183612ee5565b8861078c565b5080fd5b8260603660031901126101205760066044351015916024358361011c5760085460405163ab64a18560e01b815260048035908201529291908490849060249082906001600160a01b03165afa928315611659578493611b3e575b5061112a6064821115613192565b61113760198206156131d0565b8394845b60c08501518051821015611b33576020908260051b0101516006811015611b1f5782611b1f576044351461118e57600019811461117a5760010161113b565b634e487b7160e01b86526011600452602486fd5b50509091935060015b15611ada57908301516111c391906111b9906001600160a01b03164210613110565b60608401516136be565b9160408101518311611a955760025461012082015160405163d8689e1360e01b8082526001600160a01b0392831660048301529190921691602081602481865afa908115610476579061121e918691611a76575b5015612f4d565b604051908152336004820152602081602481855afa908115611659579061124c918591611a57575015613150565b60035460208301516001600160a01b0390911691600682101561163157604051630b5a7f2360e31b815291611285906004840190612fa1565b602082602481865afa918215610476578592611a14575b50602060249360405194858092630b5a7f2360e31b82526112c260048301604435612fa1565b5afa9283156104765785936119d3575b50602060249160405192838092632070c0ef60e11b82523360048301525afa9081156104765785916119a0575b5060055460408051632638eae560e11b8152336004820152602481019390935290829060449082906001600160a01b03165afa90811561047657859161197f575b5060048054604051631c07d98160e21b81526001600160a01b03858116938201939093528583166024820152604481018990529291602091849160649183918b91165af180156104db57869061194b575b61139b92506136be565b600354604051632e47633760e01b815291939190602090829060049082906001600160a01b03165afa9081156104db57869161190d575b506001600160a01b03828116911681036118a7575034831061186a57602083611439925b600654604051638340f54960e01b81523360048201526001600160a01b039283166024820152604481019390935291938492909116908290899082906064820190565b03925af1908115610476579061145591869161184b5750612fc4565b600654604051636ce5768960e11b81523360048201526001600160a01b038381166024830152604482018890529091602091839160649183918a91165af180156104765761182c575b50600354604051632e47633760e01b815290602090829060049082906001600160a01b03165afa9081156104765785916117f2575b506001600160a01b0382811691160361167257508280858015611668575b8280929181923390f115610a8e575b6008546001600160a01b0316803b156116645783809160446040518094819363f094cb9560e01b835260043560048401528a60248401525af1801561165957908491611645575b505060018060a01b0360075416602083015191600683101561163157848495966115ad608060209701519560a08901519861012060018060a01b039101511690604051998a988997889663cc2d5a2f60e01b885233946044359060043560048b0161322d565b03925af18015610a8e57611606575b5060025481906001600160a01b0316803b15611603578180916044604051809481936305fa180b60e31b83523360048401528160248401525af18015610a8e57610a7e5750f35b50fd5b602090813d831161162a575b61161c8183612ee5565b81010312610acb57816115bc565b503d611612565b634e487b7160e01b85526021600452602485fd5b61164e90612ed1565b61011c578285611547565b6040513d86823e3d90fd5b8380fd5b6108fc91506114f1565b60405163a9059cbb60e01b60208201523360248201526044808201879052815261169d606482612ee5565b6040519081604081011067ffffffffffffffff6040840111176117cf576040828101905260208083527f5361666545524332303a206c6f772d6c6576656c2063616c6c206661696c65648184015281518792839201826001600160a01b0387165af13d156117e5573d9067ffffffffffffffff82116117cf5761174a93604051926117326020601f19601f8401160185612ee5565b83523d88602085013e5b6001600160a01b031661345d565b8051908161175a575b5050611500565b60208061176b938301019101612f35565b15611777578480611753565b60405162461bcd60e51b815260206004820152602a60248201527f5361666545524332303a204552433230206f7065726174696f6e20646964206e6044820152691bdd081cdd58d8d9595960b21b6064820152608490fd5b634e487b7160e01b600052604160045260246000fd5b9161174a9260609161173c565b90506020813d602011611824575b8161180d60209383612ee5565b8101031261046b5761181e90612f8d565b866114d3565b3d9150611800565b6118449060203d6020116104285761041c8183612ee5565b508561149e565b611864915060203d6020116104285761041c8183612ee5565b87610efc565b60405162461bcd60e51b815260206004820152601560248201527411549497d0d3d31310551154905317d05353d55395605a1b6044820152606490fd5b6040516323b872dd60e01b81523360048201523060248201526044810185905290602090829060649082908a905af180156104db576114399260209286926118f0575b506113f6565b61190690843d86116104285761041c8183612ee5565b50896118ea565b90506020813d602011611943575b8161192860209383612ee5565b8101031261193f5761193990612f8d565b876113d2565b8580fd5b3d915061191b565b506020823d602011611977575b8161196560209383612ee5565b81010312610acb5761139b9151611391565b3d9150611958565b611998915060403d604011610c6757610c578183612ee5565b905086611340565b90506020813d6020116119cb575b816119bb60209383612ee5565b81010312610acb575160406112ff565b3d91506119ae565b9092506020813d602011611a0c575b816119ef60209383612ee5565b8101031261046b576020611a04602492612f8d565b9391506112d2565b3d91506119e2565b9091506020813d602011611a4f575b81611a3060209383612ee5565b8101031261046b57906020611a4760249493612f8d565b92935061129c565b3d9150611a23565b611a70915060203d6020116104285761041c8183612ee5565b8661078c565b611a8f915060203d6020116104285761041c8183612ee5565b87611217565b60405162461bcd60e51b815260206004820152601760248201527f4552525f494e53554646494349454e545f414d4f554e540000000000000000006044820152606490fd5b60405162461bcd60e51b815260206004820152601c60248201527f4552525f434f4c4c41544552414c5f4e4f545f535550504f52544544000000006044820152606490fd5b634e487b7160e01b87526021600452602487fd5b505050909193611197565b611b5b9193503d8086833e611b538183612ee5565b81019061331d565b918561111c565b8234610120576020366003190112610120576004356001600160a01b038181169182900361011c57611b999060015416331461362e565b6001600160601b0360a01b600454161760045580f35b82602036600319011261012057600754604051632820036560e11b815260048035908201526101e0918290829060249082906001600160a01b03165afa90811561042f576020928492611c28575b505001516003811015611c14576002036101205780f35b634e487b7160e01b82526021600452602482fd5b611c3e9250803d1061069c5761068c8183612ee5565b8380611bfd565b905060203660031901126110be576008546040516314c7eb4960e01b8152600480359082015292906001600160a01b0316602461010080868381865afa958615611659578496612272575b505060025460c086015160405163d8689e1360e01b81526001600160a01b03918216600482015291602091839185918391165afa9081156116595790611cdd918591612253575015612f4d565b611cec608086015142106132db565b8385015160405190630262b60d60e31b82526004820152338282015260016044820152602081606481865afa908115611659578491612234575b50156121fc578385015160405192839163bf1e609760e01b8352600483015281836101409586935afa9283156116595784936121dd575b50506003546020830180516001600160a01b039092169660068310156121ca57604051630b5a7f2360e31b8082529093611d9b906004860190612fa1565b60208486818c5afa93841561056e57879461218e575b5060408601519860068a101561217b579885602092611dde9b6040519c8d94859384526004840190612fa1565b5afa9283156104db578693612138575b611e529697985060206080870194611e0c86516040860151906136be565b600480549751604051631c07d98160e21b81526001600160a01b0394851692810192909252838616602483015260448201529990968a92169082908c9082906064820190565b03925af1968715610528578897612103575b50600490611e78856060890151101561341f565b600354604051632e47633760e01b81529260209184919082906001600160a01b03165afa918215610b995789926120c7575b506001600160a01b0390811691168103612019575085341061056357868087801561200f575b8280929181923390f1156104db575b60018060a01b0360075416978101519151906006821015611ffc576040860151926006841015611fe95792888893611f4e8460209788859f9701519160608101519060c060018060a01b0391015116926040519b8c9a8b998a9863cc2d5a2f60e01b8a52339660048b0161322d565b03925af1908115610476578591611fb1575b50611f6c90151561328f565b6008549151916001600160a01b0316803b1561046b57849283604492604051968795869463f094cb9560e01b865260048601528401525af18015610a8e57610a7e5750f35b9450506020843d602011611fe1575b81611fcd60209383612ee5565b81010312610acb57611f6c85945190611f60565b3d9150611fc0565b634e487b7160e01b895260216004528589fd5b634e487b7160e01b885260216004528488fd5b6108fc9150611ed0565b6040516323b872dd60e01b8152336004820152306024820152604481018890526020816064818c865af18015610b99576120a8575b5060405163a9059cbb60e01b81523360048201526024810188905290602090829060449082908c905af1801561052857612089575b50611edf565b6120a19060203d6020116104285761041c8183612ee5565b5038612083565b6120c09060203d6020116104285761041c8183612ee5565b503861204e565b9091506020813d6020116120fb575b816120e360209383612ee5565b81010312610d03576120f490612f8d565b9038611eaa565b3d91506120d6565b9096506020813d602011612130575b8161211f60209383612ee5565b81010312610acb5751956004611e64565b3d9150612112565b92506020883d602011612173575b8161215360209383612ee5565b8101031261193f57612169611e52969798612f8d565b9288979650611dee565b3d9150612146565b634e487b7160e01b885260216004528588fd5b9093506020813d6020116121c2575b816121aa60209383612ee5565b81010312610563576121bb90612f8d565b9238611db1565b3d915061219d565b634e487b7160e01b865260216004528386fd5b6121f4929350803d10610da857610d998183612ee5565b903880611d5d565b60649060116040519162461bcd60e51b8352602060048401528201527022a9292fa7a7262cafa127a92927aba2a960791b6044820152fd5b61224d915060203d6020116104285761041c8183612ee5565b38611d26565b61226c915060203d6020116104285761041c8183612ee5565b38611217565b908092965081813d831161231c575b61228b8183612ee5565b81010312611664576040519182019082821067ffffffffffffffff831117612307578591604052805183526020810151602084015260408101516040840152606081015160608401526080810151608084015260a081015160a08401526122f460c08201612f8d565b60c0840152015184820152933880611c90565b86634e487b7160e01b60005260416004526000fd5b503d612281565b826020806003193601126110be57600854604051632a3884d760e21b81526004803590820152916024916001600160a01b039081169161012080868681875afa95861561056e5787966129ce575b5050816002541696850190828251166040519063d8689e1360e01b82526004820152818187818c5afa90811561052857906123b39189916129b7575015613150565b6123c260a087015142106132db565b610100860197885160405190630262b60d60e31b8252600482015233878201528860448201528281606481895afa908115610b9957899161299a575b501561296457878951876040518098819363ab64a18560e01b835260048301525afa948515610528578895612948575b50836003541696828601519160068310156129355760405198612460630b5a7f2360e31b94858c5260048c0190612fa1565b848a8a81845afa998a156127bd578b9a6128fe575b50604083019384519160068310156128eb57918a87926124a49594604051968794859384526004840190612fa1565b5afa9182156127bd578b926128b4575b5084878751168a60405180948193632070c0ef60e11b835260048301525afa9081156127bd578b91612882575b506005548651604080516301a4421d60e21b8152918a166001600160a01b03166004830152602482019390935291908290891681806044810103915afa9081156127bd5790858c95949392869261285d575b50600480548583018051604051631c07d98160e21b81526001600160a01b0397881694810194909452958f166024840152604483019590955293969293909283918b1690829081606481015b03925af19081156127e5578c9161282f575b5060049161259e916136be565b996125af8b60408b0151101561341f565b85886003541660405193848092632e47633760e01b82525afa9182156127e5579088918d936127f0575b508116911681036127145750883410610c0057898080808c8a8a511682821561270b575bf115610b99575b85600754169a5190848801519260068410156126f857519360068510156126f8579a8a9b93612665829e94889794849e97519a8c60806060840151930151915116916040519c8d9a8b998a9863cc2d5a2f60e01b8a52339760048b0161322d565b03925af19081156104db5786916126c8575b506126849150151561328f565b600854169051813b156116645783604492604051968795869463f094cb9560e01b865260048601528401525af18015610a8e576126bf575080f35b610f6f90612ed1565b905081813d83116126f1575b6126de8183612ee5565b8101031261046b57612684905188612677565b503d6126d4565b634e487b7160e01b8c526021600452898cfd5b506108fc6125fd565b6040516323b872dd60e01b8152336004820152306024820152604481018b905285816064818f865af180156127e55761278b9287928d926127c8575b50885160405163a9059cbb60e01b8152908b166001600160a01b031660048201526024810192909252909283919082908f9082906044820190565b03925af180156127bd576127a0575b50612604565b6127b690853d87116104285761041c8183612ee5565b508b61279a565b6040513d8d823e3d90fd5b6127de90843d86116104285761041c8183612ee5565b508f612750565b6040513d8e823e3d90fd5b87809294508193503d8311612828575b61280a8183612ee5565b81010312612824578761281d8192612f8d565b92906125d9565b8b80fd5b503d612800565b90508581813d8311612856575b6128468183612ee5565b8101031261282457516004612591565b503d61283c565b61257f925061287a9060403d604011610c6757610c578183612ee5565b905091612533565b90508481813d83116128ad575b6128998183612ee5565b810103126128a9575160406124e1565b8a80fd5b503d61288f565b9091508481813d83116128e4575b6128cc8183612ee5565b810103126128a9576128dd90612f8d565b908c6124b4565b503d6128c2565b634e487b7160e01b8d5260216004528a8dfd5b9099508481813d831161292e575b6129168183612ee5565b810103126128a95761292790612f8d565b988c612475565b503d61290c565b634e487b7160e01b8a526021600452878afd5b61295d9195503d808a833e611b538183612ee5565b938961242e565b60405162461bcd60e51b815260048101839052600f818801526e22a9292fa7a7262cafa622a72222a960891b6044820152606490fd5b6129b19150833d85116104285761041c8183612ee5565b8a6123fe565b610d749150833d85116104285761041c8183612ee5565b908092965081813d8311612a87575b6129e78183612ee5565b810103126105635760405191820182811067ffffffffffffffff821117612a74576040528051825285810151868301526040810151600681101561051d576040830152606081015160608301526080810151608083015260a081015160a083015260c081015160c0830152612a5d888201612f8d565b888301526101008091015190820152938780612371565b634e487b7160e01b885260416004528588fd5b503d6129dd565b905060c03660031901126110be576004356006808210156116645760249260a43592843567ffffffffffffffff8511610563573660238601121561056357846004013592612adb84612f07565b91612ae96040519384612ee5565b84835260209687840189819760051b83010191368311612824578a01905b828210612e6957505060025460405163d8689e1360e01b81523360048201526001600160a01b0398925090899082908c9082908c165afa80156127bd57612b55918c91612e52575015612f4d565b835115612e0e57866003541660405192630b5a7f2360e31b8452612b7c6004850188612fa1565b8b8a858d81865afa928315610fbf578b908294612dd7575b604051632e47633760e01b81529650869060049082905afa8015610fbf578b958291612da1575b50838b16908b168103612d395750505091612c1991889334998a925b54604051638340f54960e01b81523360048201526001600160a01b039093166024840152604483019390935290938492919091169082908e9082906064820190565b03925af18015610bc157612c3f918b91612d1c575b50918a949189989a97949693612fc4565b6008541694604051998a976352677ae960e01b8952612c6660e48a019560048b0190612fa1565b88015260443560448801526064356064880152608435608488015260a48701525180915261010485019190835b818110612cf457505050908380923360c483015203925af190811561042f578391612cc45783610f6f831515613010565b905081813d8311612ced575b612cda8183612ee5565b810103126110be57610f6f905138610f63565b503d612cd0565b9350939581955082612d0a600194839451612fa1565b01940191019287918695938895612c93565b612d339150893d8b116104285761041c8183612ee5565b38612c2e565b6040516323b872dd60e01b815233600482015230602482015260448101849052929a9593949391839160649183915af19283156127e557848b938b93612c1996612d84575b50612bd7565b612d9a90863d88116104285761041c8183612ee5565b5038612d7e565b86819792503d8311612dd0575b612db88183612ee5565b8101031261012057612dca8b95612f8d565b38612bbb565b503d612dae565b935085813d8311612e07575b612ded8183612ee5565b81010312610120578a612e01600496612f8d565b93612b94565b503d612de3565b60405162461bcd60e51b8152600481018990526017818b01527f4552525f4e4f5f434f4c4c41544552414c5f54595045530000000000000000006044820152606490fd5b61226c91508a3d8c116104285761041c8183612ee5565b813589811015612e80578152908901908901612b07565b8c80fd5b8234610120576020366003190112610120576004356001600160a01b038181169182900361011c57612ebb9060015416331461362e565b6001600160601b0360a01b600554161760055580f35b67ffffffffffffffff81116117cf57604052565b90601f8019910116810190811067ffffffffffffffff8211176117cf57604052565b67ffffffffffffffff81116117cf5760051b60200190565b6040906003190112610acb576004359060243590565b90816020910312610acb57518015158103610acb5790565b15612f5457565b60405162461bcd60e51b815260206004820152601160248201527022a9292faaa729a0a322afa622a72222a960791b6044820152606490fd5b51906001600160a01b0382168203610acb57565b906006821015612fae5752565b634e487b7160e01b600052602160045260246000fd5b15612fcb57565b60405162461bcd60e51b815260206004820152601860248201527f4552525f504f4f4c5f4d414e414745525f4445504f53495400000000000000006044820152606490fd5b1561301757565b60405162461bcd60e51b815260206004820152601860248201527f4552525f4f464645525f4d414e414745525f43524541544500000000000000006044820152606490fd5b80916101409283910312610acb5760405191820182811067ffffffffffffffff8211176117cf576040528051825260208101516006811015610acb57602083015260408101516006811015610acb576040830152606081015160608301526080810151608083015260a081015160a083015260c081015160c08301526130e460e08201612f8d565b60e08301526101006130f7818301612f8d565b90830152613109610120809201612f8d565b9082015290565b1561311757565b60405162461bcd60e51b815260206004820152601160248201527011549497d3d191915497d1561412549151607a1b6044820152606490fd5b1561315757565b60405162461bcd60e51b815260206004820152601360248201527222a9292faaa729a0a322afa127a92927aba2a960691b6044820152606490fd5b1561319957565b60405162461bcd60e51b815260206004820152600f60248201526e4f5645525f50455243454e5441474560881b6044820152606490fd5b156131d757565b60405162461bcd60e51b815260206004820152600e60248201526d4552525f50455243454e5441474560901b6044820152606490fd5b9190826040910312610acb5781516003811015610acb5760209092015190565b9795926132649061325a6101209996939c9b97946101408c019d8c52600060208d015260408c0190612fa1565b60608a0190612fa1565b608088015260a087015260c086015260e08501526001600160a01b0391821661010085015216910152565b1561329657565b60405162461bcd60e51b815260206004820152601760248201527f4552525f4c4f414e5f4d414e414745525f4352454154450000000000000000006044820152606490fd5b156132e257565b60405162461bcd60e51b815260206004820152601360248201527211549497d49154555154d517d1561412549151606a1b6044820152606490fd5b6020908181840312610acb57805167ffffffffffffffff91828211610acb570191610140938484820312610acb57604051948501858110848211176117cf5760405283518552818401519260069384811015610acb578387015260408501516040870152606085015160608701526080850151608087015260a085015160a087015260c0850151908111610acb5784019281601f85011215610acb5783516133c481612f07565b946133d26040519687612ee5565b818652848087019260051b820101938411610acb578401905b83821061340857505050505060c08301526130e460e08201612f8d565b815183811015610acb5781529084019084016133eb565b1561342657565b60405162461bcd60e51b815260206004820152600f60248201526e11549497d25394d5519250d2515395608a1b6044820152606490fd5b919290156134bf5750815115613471575090565b3b1561347a5790565b60405162461bcd60e51b815260206004820152601d60248201527f416464726573733a2063616c6c20746f206e6f6e2d636f6e74726163740000006044820152606490fd5b8251909150156134d25750805190602001fd5b6040519062461bcd60e51b82528160208060048301528251908160248401526000935b828510613518575050604492506000838284010152601f80199101168101030190fd5b84810182015186860160440152938101938593506134f5565b80916101e09283910312610acb5760405191820182811067ffffffffffffffff8211176117cf576040528051825260208101516003811015610acb57602083015260408101516002811015610acb57604083015260608101516006811015610acb57606083015260808101516006811015610acb57608083015260a081015160a083015260c081015160c083015260e081015160e0830152610100808201519083015261012080820151908301526101406135ed818301612f8d565b908301526101606135ff818301612f8d565b9083015261018080820151908301526101a061361c818301612f8d565b908301526131096101c0809201612f8d565b1561363557565b60405162461bcd60e51b815260206004820152600e60248201526d22a9292fa7a7262cafa7aba722a960911b6044820152606490fd5b8181029291811591840414171561367e57565b634e487b7160e01b600052601160045260246000fd5b91670de0b6b3a7640000916136ac6136b1928561366b565b61366b565b04810180911161367e5790565b9080156136d5576136d19060649261366b565b0490565b509056fea2646970667358221220a995bb550ef211904b8ae5a3b68c43b510784e54cafc463042061f6012d5852864736f6c63430008110033",
  "immutableReferences": {},
  "source": "// SPDX-License-Identifier: GPL-3.0\r\npragma solidity >=0.7.0 <0.9.0;\r\n\r\nimport \"./Activity.sol\";\r\nimport \"./TrustScore.sol\";\r\n\r\nimport \"./data/TokenFeed.sol\";\r\n\r\nimport \"./libraries/Errors.sol\";\r\nimport \"./libraries/AssetLibrary.sol\";\r\n\r\nimport \"./math/SimpleInterest.sol\";\r\n\r\nimport \"./interfaces/IPriceFeed.sol\";\r\n\r\nimport \"./managers/LoanManager.sol\";\r\nimport \"./managers/OfferManager.sol\";\r\nimport \"./managers/PoolManager.sol\";\r\n\r\nimport \"@openzeppelin/contracts/utils/Context.sol\";\r\nimport \"@openzeppelin/contracts/utils/math/SafeMath.sol\";\r\nimport \"@openzeppelin/contracts/token/ERC20/utils/SafeERC20.sol\";\r\nimport \"@openzeppelin/contracts/token/ERC20/ERC20.sol\";\r\nimport \"@openzeppelin/contracts/security/ReentrancyGuard.sol\";\r\n\r\ncontract LendingPool is Context, ReentrancyGuard, SimpleInterest {\r\n    using SafeMath for uint256;\r\n    using SafeERC20 for ERC20;\r\n\r\n    address deployer;\r\n\r\n    Activity private _activity;\r\n    TokenFeed private _tokenFeed;\r\n    IPriceFeed private _priceFeed;\r\n    TrustScore private _trustScore;\r\n\r\n    // managers\r\n    PoolManager private _poolManager;\r\n    LoanManager private _loanManager;\r\n    OfferManager private _offerManager;\r\n\r\n    constructor(\r\n        address poolManager_,\r\n        address loanManager_,\r\n        address offerManager_\r\n    ) ReentrancyGuard() {\r\n        deployer = _msgSender();\r\n\r\n        _poolManager = PoolManager(poolManager_);\r\n        _loanManager = LoanManager(loanManager_);\r\n        _offerManager = OfferManager(offerManager_);\r\n    }\r\n\r\n    // @lenders\r\n    function createLendingOffer(\r\n        AssetLibrary.Type principalType,\r\n        uint256 _principal, // only for ERC20 assets\r\n        uint256 interest,\r\n        uint256 daysToMaturity,\r\n        uint256 daysToExpire,\r\n        AssetLibrary.Type[] memory collateralTypes\r\n    ) public payable {\r\n        uint256 principal;\r\n\r\n        /* checks if the lender is a defaulter */\r\n        require(!_activity.isDefaulter(_msgSender()), \"ERR_UNSAFE_LENDER\");\r\n\r\n        require(collateralTypes.length > 0, \"ERR_NO_COLLATERAL_TYPES\");\r\n\r\n        /* derive the address of the principal from data repository */\r\n        address principalToken = _tokenFeed.getTokenAddress(principalType);\r\n\r\n        /* extract tokens from lender */\r\n        if (principalToken == _tokenFeed.nativeAddress()) {\r\n            principal = msg.value;\r\n        } else {\r\n            principal = _principal;\r\n            ERC20(principalToken).transferFrom(\r\n                _msgSender(),\r\n                address(this),\r\n                principal\r\n            );\r\n        }\r\n\r\n        require(\r\n            _poolManager.deposit(_msgSender(), principalToken, principal),\r\n            \"ERR_POOL_MANAGER_DEPOSIT\"\r\n        );\r\n\r\n        /* create the offer */\r\n        require(\r\n            _offerManager.createLendingOffer(\r\n                principalType,\r\n                principal,\r\n                interest,\r\n                daysToMaturity,\r\n                daysToExpire,\r\n                collateralTypes,\r\n                _msgSender()\r\n            ) > 0,\r\n            \"ERR_OFFER_MANAGER_CREATE\"\r\n        );\r\n    }\r\n\r\n    // @lenders\r\n    function acceptBorrowingOffer(uint256 offerId, uint256 desiredPercentage)\r\n        public\r\n        payable\r\n    {\r\n        OfferLibrary.BorrowingOffer memory offer = _offerManager\r\n            .getBorrowingOffer(offerId);\r\n\r\n        // platform safety\r\n        require(offer.expiresAt > block.timestamp, \"ERR_OFFER_EXPIRED\");\r\n        require(!_activity.isDefaulter(offer.borrower), \"ERR_UNSAFE_BORROWER\");\r\n        require(_msgSender() != offer.borrower, \"ERR_CANT_BORROW_OWN\");\r\n\r\n        // percentage must be 25, 50, 75 or 100\r\n        require(desiredPercentage <= 100, \"OVER_PERCENTAGE\");\r\n        require(desiredPercentage % 25 == 0, \"ERR_PERCENTAGE\");\r\n\r\n        uint256 collateral = percentageOf(\r\n            offer.initialCollateral,\r\n            desiredPercentage\r\n        );\r\n\r\n        // verify if the remain offer is enough\r\n        require(offer.currentCollateral >= collateral);\r\n\r\n        /* derive the address of the asset types from data repository */\r\n        address principalToken = _tokenFeed.getTokenAddress(\r\n            offer.principalType\r\n        );\r\n        address collateralToken = _tokenFeed.getTokenAddress(\r\n            offer.collateralType\r\n        );\r\n\r\n        /* get the trust factor of the borrower */\r\n        uint256 pendingLoans = _activity.pendingLoans(offer.borrower);\r\n        (, uint256 percentage) = _trustScore.inverseTrustGrade(\r\n            offer.borrower,\r\n            pendingLoans\r\n        );\r\n\r\n        /* calculate the collateral amount */\r\n        uint256 priceInFullPrincipal = _priceFeed.exchangeRate(\r\n            collateralToken,\r\n            principalToken,\r\n            collateral\r\n        );\r\n\r\n        uint256 principal = percentageOf(priceInFullPrincipal, percentage);\r\n\r\n        /* extract principal from lender */\r\n        /* transfer principal to borrower */\r\n        if (principalToken == _tokenFeed.nativeAddress()) {\r\n            // if principal is native coin\r\n            require(msg.value >= principal);\r\n            payable(offer.borrower).transfer(principal);\r\n        } else {\r\n            // if principal is ERC20\r\n            ERC20(principalToken).transferFrom(\r\n                _msgSender(),\r\n                address(this),\r\n                principal\r\n            );\r\n            ERC20(principalToken).transfer(offer.borrower, principal);\r\n        }\r\n\r\n        /* register the loan from the loan manager */\r\n        require(\r\n            _loanManager.createLoan(\r\n                offer.offerId,\r\n                OfferLibrary.Type.BORROWING_OFFER,\r\n                offer.principalType,\r\n                offer.collateralType,\r\n                principal,\r\n                collateral,\r\n                offer.interest,\r\n                offer.daysToMaturity,\r\n                offer.borrower,\r\n                _msgSender()\r\n            ) > 0,\r\n            \"ERR_LOAN_MANAGER_CREATE\"\r\n        );\r\n\r\n        _offerManager._afterOfferBorrowingLoan(offerId, collateral);\r\n    }\r\n\r\n    // @lenders\r\n    function acceptBorrowingRequest(uint256 requestId) public payable {\r\n        RequestLibrary.BorrowingRequest memory request = _offerManager\r\n            .getBorrowingRequest(requestId);\r\n\r\n        // platform safety\r\n        require(\r\n            !_activity.isDefaulter(request.borrower),\r\n            \"ERR_UNSAFE_BORROWER\"\r\n        );\r\n        require(request.expiresAt > block.timestamp, \"ERR_REQUEST_EXPIRED\");\r\n        require(\r\n            _offerManager.belongsTo(\r\n                request.offerId,\r\n                _msgSender(),\r\n                OfferLibrary.Type.LENDING_OFFER\r\n            ),\r\n            \"ERR_ONLY_LENDER\"\r\n        );\r\n\r\n        OfferLibrary.LendingOffer memory offer = _offerManager.getLendingOffer(\r\n            request.offerId\r\n        );\r\n\r\n        /* derive the address of the asset types from data repository */\r\n        address principalToken = _tokenFeed.getTokenAddress(\r\n            offer.principalType\r\n        );\r\n        address collateralToken = _tokenFeed.getTokenAddress(\r\n            request.collateralType\r\n        );\r\n\r\n        /* get the trust factor of the borrower */\r\n        uint256 pendingLoans = _activity.pendingLoans(request.borrower);\r\n        (, uint256 percentage) = _trustScore.inverseTrustGrade(\r\n            request.borrower,\r\n            pendingLoans\r\n        );\r\n\r\n        /* calculate the collateral amount */\r\n        uint256 priceInFullPrincipal = _priceFeed.exchangeRate(\r\n            collateralToken,\r\n            principalToken,\r\n            request.collateral\r\n        );\r\n\r\n        uint256 principal = percentageOf(priceInFullPrincipal, percentage);\r\n\r\n        // verify if the remain offer is enough\r\n        require(offer.currentPrincipal >= principal, \"ERR_INSUFICIENT\");\r\n\r\n        /* extract principal from lender */\r\n        /* transfer principal to borrower */\r\n        if (principalToken == _tokenFeed.nativeAddress()) {\r\n            // if principal is native coin\r\n            require(msg.value >= principal);\r\n            payable(request.borrower).transfer(principal);\r\n        } else {\r\n            // if principal is ERC20\r\n            ERC20(principalToken).transferFrom(\r\n                _msgSender(),\r\n                address(this),\r\n                principal\r\n            );\r\n            ERC20(principalToken).transfer(request.borrower, principal);\r\n        }\r\n\r\n        /* register the loan from the loan manager */\r\n        require(\r\n            _loanManager.createLoan(\r\n                request.offerId,\r\n                OfferLibrary.Type.LENDING_OFFER,\r\n                offer.principalType,\r\n                request.collateralType,\r\n                principal,\r\n                request.collateral,\r\n                request.interest,\r\n                request.daysToMaturity,\r\n                request.borrower,\r\n                _msgSender()\r\n            ) > 0,\r\n            \"ERR_LOAN_MANAGER_CREATE\"\r\n        );\r\n\r\n        _offerManager._afterOfferLendingLoan(offer.offerId, principal);\r\n    }\r\n\r\n    // @borrower\r\n    function createBorrowingOffer(\r\n        AssetLibrary.Type principalType,\r\n        AssetLibrary.Type collateralType,\r\n        uint256 _collateral, // for ERC20 assets\r\n        uint256 interest,\r\n        uint256 daysToMaturity,\r\n        uint256 daysToExpire\r\n    ) public payable {\r\n        uint256 collateral;\r\n\r\n        /* checks if the borrower is a defaulter */\r\n        require(!_activity.isDefaulter(_msgSender()), \"ERR_UNSAFE_BORROWER\");\r\n\r\n        /* derive the address of the collateral from data repository */\r\n        address collateralToken = _tokenFeed.getTokenAddress(collateralType);\r\n\r\n        /* extract collateral from borrower */\r\n        if (collateralToken == _tokenFeed.nativeAddress()) {\r\n            collateral = msg.value;\r\n        } else {\r\n            collateral = _collateral;\r\n            ERC20(collateralToken).transferFrom(\r\n                _msgSender(),\r\n                address(this),\r\n                collateral\r\n            );\r\n        }\r\n\r\n        /* deposit tokens to vault */\r\n        require(\r\n            _poolManager.deposit(_msgSender(), collateralToken, collateral),\r\n            \"ERR_POOL_MANAGER_DEPOSIT\"\r\n        );\r\n\r\n        /* create the offer */\r\n        require(\r\n            _offerManager.createBorrowingOffer(\r\n                principalType,\r\n                collateralType,\r\n                collateral,\r\n                interest,\r\n                daysToMaturity,\r\n                daysToExpire,\r\n                _msgSender()\r\n            ) > 0,\r\n            \"ERR_OFFER_MANAGER_CREATE\"\r\n        );\r\n    }\r\n\r\n    // @borrower\r\n    function acceptLendingOffer(\r\n        uint256 offerId,\r\n        uint256 desiredPercentage,\r\n        AssetLibrary.Type collateralType\r\n    ) public payable {\r\n        OfferLibrary.LendingOffer memory offer = _offerManager.getLendingOffer(\r\n            offerId\r\n        );\r\n\r\n        // percentage must be 25, 50, 75 or 100\r\n        require(desiredPercentage <= 100, \"OVER_PERCENTAGE\");\r\n        require(desiredPercentage % 25 == 0, \"ERR_PERCENTAGE\");\r\n\r\n        bool supported = false;\r\n        for (uint256 index = 0; index < offer.collateralTypes.length; index++) {\r\n            if (offer.collateralTypes[index] == collateralType) {\r\n                supported = true;\r\n                break;\r\n            }\r\n        }\r\n        require(supported, \"ERR_COLLATERAL_NOT_SUPPORTED\");\r\n\r\n        require(offer.expiresAt > block.timestamp, \"ERR_OFFER_EXPIRED\");\r\n\r\n        uint256 desiredAmount = percentageOf(\r\n            offer.initialPrincipal,\r\n            desiredPercentage\r\n        );\r\n\r\n        require(\r\n            desiredAmount <= offer.currentPrincipal,\r\n            \"ERR_INSUFFICIENT_AMOUNT\"\r\n        );\r\n\r\n        /* checks if the lender is a defaulter */\r\n        /* checks if the borrower is a defaulter */\r\n        require(!_activity.isDefaulter(offer.lender), \"ERR_UNSAFE_LENDER\");\r\n        require(!_activity.isDefaulter(_msgSender()), \"ERR_UNSAFE_BORROWER\");\r\n\r\n        /* derive the address of the asset types from data repository */\r\n        address principalToken = _tokenFeed.getTokenAddress(\r\n            offer.principalType\r\n        );\r\n        address collateralToken = _tokenFeed.getTokenAddress(collateralType);\r\n\r\n        /* get the trust factor of the borrower */\r\n        uint256 pendingLoans = _activity.pendingLoans(_msgSender());\r\n        (, uint256 percentage) = _trustScore.trustGrade(\r\n            _msgSender(),\r\n            pendingLoans\r\n        );\r\n\r\n        /* calculate the collateral amount */\r\n        uint256 priceInFullCollateral = _priceFeed.exchangeRate(\r\n            principalToken,\r\n            collateralToken,\r\n            desiredAmount\r\n        );\r\n\r\n        uint256 collateral = percentageOf(priceInFullCollateral, percentage);\r\n\r\n        /* extract collateral tokens from borrower */\r\n        if (collateralToken == _tokenFeed.nativeAddress()) {\r\n            require(collateral >= msg.value, \"ERR_COLLATERAL_AMOUNT\");\r\n        } else {\r\n            ERC20(collateralToken).transferFrom(\r\n                _msgSender(),\r\n                address(this),\r\n                collateral\r\n            );\r\n        }\r\n\r\n        require(\r\n            _poolManager.deposit(_msgSender(), collateralToken, collateral),\r\n            \"ERR_POOL_MANAGER_DEPOSIT\"\r\n        );\r\n\r\n        /* transfer the asset to borrower */\r\n        _poolManager.withdraw(_msgSender(), principalToken, desiredAmount);\r\n\r\n        if (principalToken == _tokenFeed.nativeAddress()) {\r\n            payable(_msgSender()).transfer(desiredAmount);\r\n        } else {\r\n            ERC20(principalToken).safeTransfer(_msgSender(), desiredAmount);\r\n        }\r\n\r\n        /* update offer balance */\r\n        _offerManager._afterOfferLendingLoan(offerId, desiredAmount);\r\n\r\n        /* register the loan */\r\n        _loanManager.createLoan(\r\n            offerId,\r\n            OfferLibrary.Type.LENDING_OFFER,\r\n            offer.principalType,\r\n            collateralType,\r\n            desiredAmount,\r\n            collateral,\r\n            offer.interest,\r\n            offer.daysToMaturity,\r\n            _msgSender(),\r\n            offer.lender\r\n        );\r\n\r\n        /* update experience */\r\n        // amount in USD\r\n        _activity.incrementBorrowed(_msgSender(), 0);\r\n    }\r\n\r\n    // @borrower\r\n    function acceptLendingRequest(uint256 requestId) public payable {\r\n        RequestLibrary.LendingRequest memory request = _offerManager\r\n            .getLendingRequest(requestId);\r\n\r\n        // platform safety\r\n        require(!_activity.isDefaulter(request.lender), \"ERR_UNSAFE_LENDER\");\r\n        require(request.expiresAt > block.timestamp, \"ERR_REQUEST_EXPIRED\");\r\n        require(\r\n            _offerManager.belongsTo(\r\n                request.offerId,\r\n                _msgSender(),\r\n                OfferLibrary.Type.BORROWING_OFFER\r\n            ),\r\n            \"ERR_ONLY_BORROWER\"\r\n        );\r\n\r\n        OfferLibrary.BorrowingOffer memory offer = _offerManager\r\n            .getBorrowingOffer(request.offerId);\r\n\r\n        /* derive the address of the asset types from data repository */\r\n        address principalToken = _tokenFeed.getTokenAddress(\r\n            offer.principalType\r\n        );\r\n        address collateralToken = _tokenFeed.getTokenAddress(\r\n            offer.collateralType\r\n        );\r\n\r\n        uint256 collateral = percentageOf(\r\n            offer.initialCollateral,\r\n            request.desiredPercentage\r\n        );\r\n\r\n        uint256 principal = _priceFeed.exchangeRate(\r\n            collateralToken,\r\n            principalToken,\r\n            offer.initialCollateral\r\n        );\r\n\r\n        // verify if the remain offer is enough\r\n        require(offer.currentCollateral >= collateral, \"ERR_INSUFICIENT\");\r\n\r\n        /* extract principal from lender */\r\n        /* transfer principal to borrower */\r\n        if (principalToken == _tokenFeed.nativeAddress()) {\r\n            // if principal is native coin\r\n            require(msg.value >= principal);\r\n            payable(_msgSender()).transfer(principal);\r\n        } else {\r\n            // if principal is ERC20\r\n            ERC20(principalToken).transferFrom(\r\n                _msgSender(),\r\n                address(this),\r\n                principal\r\n            );\r\n            ERC20(principalToken).transfer(_msgSender(), principal);\r\n        }\r\n\r\n        /* register the loan from the loan manager */\r\n        require(\r\n            _loanManager.createLoan(\r\n                request.offerId,\r\n                OfferLibrary.Type.LENDING_OFFER,\r\n                offer.principalType,\r\n                offer.collateralType,\r\n                principal,\r\n                collateral,\r\n                request.interest,\r\n                request.daysToMaturity,\r\n                _msgSender(),\r\n                request.lender\r\n            ) > 0,\r\n            \"ERR_LOAN_MANAGER_CREATE\"\r\n        );\r\n\r\n        _offerManager._afterOfferLendingLoan(offer.offerId, principal);\r\n    }\r\n\r\n    function repayLoan(uint256 loanId) public payable {\r\n        LoanLibrary.Loan memory loan = _loanManager.getLoan(loanId);\r\n\r\n        // verify the borrower is the repayer\r\n        require(loan.borrower == _msgSender(), \"ERR_NOT_BORROWER\");\r\n\r\n        // ensure valid initial loan state when starting loan\r\n        require(loan.state == LoanLibrary.State.ACTIVE, \"ERR_LOAN_NOT_ACTIVE\");\r\n\r\n        // calculate the duration of the loan\r\n        uint256 time = block.timestamp;\r\n        uint256 ellapsedSecs = (time - loan.startDate);\r\n\r\n        // calculate the pay back amount\r\n        uint256 repayAmount = getFullInterestAmount(\r\n            loan.currentPrincipal,\r\n            ellapsedSecs,\r\n            loan.interest\r\n        );\r\n\r\n        // update ledger book\r\n        _loanManager.repayLoanAll(loanId);\r\n\r\n        /* derive the address of the collateral from data repository */\r\n        address principalToken = _tokenFeed.getTokenAddress(loan.principalType);\r\n        address collateralToken = _tokenFeed.getTokenAddress(\r\n            loan.collateralType\r\n        );\r\n\r\n        /* extract pay back amount */\r\n        if (principalToken == _tokenFeed.nativeAddress()) {\r\n            // if principal is native coin\r\n            require(msg.value >= repayAmount);\r\n        } else {\r\n            // if principal is ERC20 token\r\n            ERC20(principalToken).transferFrom(\r\n                _msgSender(),\r\n                address(this),\r\n                repayAmount\r\n            );\r\n        }\r\n\r\n        /* transfer collateral */\r\n        if (collateralToken == _tokenFeed.nativeAddress()) {\r\n            // if collateral is native coin\r\n            payable(_msgSender()).transfer(loan.currentCollateral);\r\n        } else {\r\n            // if collateral is ERC20 token\r\n            ERC20(collateralToken).transfer(\r\n                _msgSender(),\r\n                loan.currentCollateral\r\n            );\r\n        }\r\n    }\r\n\r\n    function repayLiquidatedLoan(uint256 loanId) public payable {\r\n        LoanLibrary.Loan memory loan = _loanManager.getLoan(loanId);\r\n\r\n        bool liquidated = loan.state == LoanLibrary.State.LIQUIDATED;\r\n        require(liquidated);\r\n    }\r\n\r\n    function setPriceFeed(address priceFeed_) public onlyOwner {\r\n        _priceFeed = IPriceFeed(priceFeed_);\r\n    }\r\n\r\n    function setTokenFeed(address tokenFeed_) public onlyOwner {\r\n        _tokenFeed = TokenFeed(tokenFeed_);\r\n    }\r\n\r\n    function setTrustScore(address trustScore_) public onlyOwner {\r\n        _trustScore = TrustScore(trustScore_);\r\n    }\r\n\r\n    function setActivity(address activity_) public onlyOwner {\r\n        _activity = Activity(activity_);\r\n    }\r\n\r\n    function changeOwner(address newOwner) public onlyOwner {\r\n        deployer = newOwner;\r\n    }\r\n\r\n    modifier onlyOwner() {\r\n        require(_msgSender() == deployer, \"ERR_ONLY_OWNER\");\r\n        _;\r\n    }\r\n}\r\n",
  "sourcePath": "C:\\Users\\DELL\\Documents\\darsh\\smart-contracts\\contracts\\LendingPool.sol",
  "compiler": {
    "name": "solc",
    "version": "0.8.17+commit.8df45f5f.Emscripten.clang"
  },
  "schemaVersion": "3.4.11",
  "updatedAt": "2023-02-11T06:38:09.094Z",
  "devdoc": {
    "kind": "dev",
    "methods": {},
    "version": 1
  },
  "userdoc": {
    "kind": "user",
    "methods": {},
    "version": 1
  }
}