{
  "contractName": "LendingPool",
  "abi": [
    {
      "inputs": [
        {
          "internalType": "address",
          "name": "poolManager_",
          "type": "address"
        },
        {
          "internalType": "address",
          "name": "loanManager_",
          "type": "address"
        },
        {
          "internalType": "address",
          "name": "offerManager_",
          "type": "address"
        },
        {
          "internalType": "address",
          "name": "feeManager_",
          "type": "address"
        }
      ],
      "stateMutability": "nonpayable",
      "type": "constructor"
    },
    {
      "inputs": [],
      "name": "INTEREST_RATE_DENOMINATOR",
      "outputs": [
        {
          "internalType": "uint256",
          "name": "",
          "type": "uint256"
        }
      ],
      "stateMutability": "view",
      "type": "function"
    },
    {
      "inputs": [],
      "name": "PERCENT",
      "outputs": [
        {
          "internalType": "uint16",
          "name": "",
          "type": "uint16"
        }
      ],
      "stateMutability": "view",
      "type": "function"
    },
    {
      "inputs": [
        {
          "internalType": "uint256",
          "name": "principal",
          "type": "uint256"
        },
        {
          "internalType": "uint256",
          "name": "durationSecs",
          "type": "uint256"
        },
        {
          "internalType": "uint256",
          "name": "interest",
          "type": "uint256"
        }
      ],
      "name": "getFullInterestAmount",
      "outputs": [
        {
          "internalType": "uint256",
          "name": "",
          "type": "uint256"
        }
      ],
      "stateMutability": "pure",
      "type": "function"
    },
    {
      "inputs": [],
      "name": "nativeAddress",
      "outputs": [
        {
          "internalType": "address",
          "name": "",
          "type": "address"
        }
      ],
      "stateMutability": "view",
      "type": "function"
    },
    {
      "inputs": [
        {
          "internalType": "uint256",
          "name": "total",
          "type": "uint256"
        },
        {
          "internalType": "uint160",
          "name": "percent",
          "type": "uint160"
        }
      ],
      "name": "percentageInverseOf",
      "outputs": [
        {
          "internalType": "uint256",
          "name": "",
          "type": "uint256"
        }
      ],
      "stateMutability": "pure",
      "type": "function"
    },
    {
      "inputs": [
        {
          "internalType": "uint256",
          "name": "total",
          "type": "uint256"
        },
        {
          "internalType": "uint160",
          "name": "percent",
          "type": "uint160"
        }
      ],
      "name": "percentageOf",
      "outputs": [
        {
          "internalType": "uint256",
          "name": "",
          "type": "uint256"
        }
      ],
      "stateMutability": "pure",
      "type": "function"
    },
    {
      "inputs": [
        {
          "internalType": "uint256",
          "name": "principalAmount_",
          "type": "uint256"
        },
        {
          "internalType": "address",
          "name": "principalToken",
          "type": "address"
        },
        {
          "internalType": "address[]",
          "name": "collateralTokens",
          "type": "address[]"
        },
        {
          "internalType": "uint16",
          "name": "daysToMaturity",
          "type": "uint16"
        },
        {
          "internalType": "uint256",
          "name": "interest",
          "type": "uint256"
        },
        {
          "internalType": "uint16",
          "name": "daysToExpire",
          "type": "uint16"
        }
      ],
      "name": "createLendingOffer",
      "outputs": [],
      "stateMutability": "payable",
      "type": "function"
    },
    {
      "inputs": [
        {
          "internalType": "uint160",
          "name": "offerId",
          "type": "uint160"
        },
        {
          "internalType": "uint16",
          "name": "percentage",
          "type": "uint16"
        },
        {
          "internalType": "uint16",
          "name": "daysToMaturity",
          "type": "uint16"
        },
        {
          "internalType": "uint256",
          "name": "interest",
          "type": "uint256"
        },
        {
          "internalType": "uint16",
          "name": "daysToExpire",
          "type": "uint16"
        }
      ],
      "name": "createLendingRequest",
      "outputs": [],
      "stateMutability": "payable",
      "type": "function"
    },
    {
      "inputs": [
        {
          "internalType": "uint160",
          "name": "offerId",
          "type": "uint160"
        },
        {
          "internalType": "uint16",
          "name": "percentage",
          "type": "uint16"
        }
      ],
      "name": "acceptBorrowingOffer",
      "outputs": [],
      "stateMutability": "payable",
      "type": "function"
    },
    {
      "inputs": [
        {
          "internalType": "uint256",
          "name": "requestId",
          "type": "uint256"
        }
      ],
      "name": "acceptBorrowingRequest",
      "outputs": [],
      "stateMutability": "nonpayable",
      "type": "function"
    },
    {
      "inputs": [
        {
          "internalType": "address",
          "name": "principalToken",
          "type": "address"
        },
        {
          "internalType": "address",
          "name": "collateralToken",
          "type": "address"
        },
        {
          "internalType": "uint256",
          "name": "collateralAmount_",
          "type": "uint256"
        },
        {
          "internalType": "uint256",
          "name": "interest",
          "type": "uint256"
        },
        {
          "internalType": "uint16",
          "name": "daysToMaturity",
          "type": "uint16"
        },
        {
          "internalType": "uint16",
          "name": "daysToExpire",
          "type": "uint16"
        }
      ],
      "name": "createBorrowingOffer",
      "outputs": [],
      "stateMutability": "payable",
      "type": "function"
    },
    {
      "inputs": [
        {
          "internalType": "uint160",
          "name": "offerId",
          "type": "uint160"
        },
        {
          "internalType": "uint16",
          "name": "percentage",
          "type": "uint16"
        },
        {
          "internalType": "address",
          "name": "collateralToken",
          "type": "address"
        },
        {
          "internalType": "uint256",
          "name": "interest",
          "type": "uint256"
        },
        {
          "internalType": "uint16",
          "name": "daysToMaturity",
          "type": "uint16"
        },
        {
          "internalType": "uint16",
          "name": "daysToExpire",
          "type": "uint16"
        }
      ],
      "name": "createBorrowingRequest",
      "outputs": [],
      "stateMutability": "payable",
      "type": "function"
    },
    {
      "inputs": [
        {
          "internalType": "uint160",
          "name": "offerId",
          "type": "uint160"
        },
        {
          "internalType": "uint16",
          "name": "percentage",
          "type": "uint16"
        },
        {
          "internalType": "address",
          "name": "collateralToken",
          "type": "address"
        }
      ],
      "name": "acceptLendingOffer",
      "outputs": [],
      "stateMutability": "payable",
      "type": "function"
    },
    {
      "inputs": [
        {
          "internalType": "uint256",
          "name": "requestId",
          "type": "uint256"
        }
      ],
      "name": "acceptLendingRequest",
      "outputs": [],
      "stateMutability": "payable",
      "type": "function"
    },
    {
      "inputs": [],
      "name": "reActivateOffer",
      "outputs": [],
      "stateMutability": "payable",
      "type": "function"
    },
    {
      "inputs": [],
      "name": "reActivateRequest",
      "outputs": [],
      "stateMutability": "payable",
      "type": "function"
    },
    {
      "inputs": [
        {
          "internalType": "uint256",
          "name": "loanId",
          "type": "uint256"
        },
        {
          "internalType": "uint16",
          "name": "percentage",
          "type": "uint16"
        }
      ],
      "name": "repayLoan",
      "outputs": [],
      "stateMutability": "payable",
      "type": "function"
    },
    {
      "inputs": [
        {
          "internalType": "uint256",
          "name": "loanId",
          "type": "uint256"
        }
      ],
      "name": "repayLiquidatedLoan",
      "outputs": [],
      "stateMutability": "payable",
      "type": "function"
    },
    {
      "inputs": [
        {
          "internalType": "address",
          "name": "ltv_",
          "type": "address"
        }
      ],
      "name": "setLTV",
      "outputs": [],
      "stateMutability": "nonpayable",
      "type": "function"
    },
    {
      "inputs": [
        {
          "internalType": "address",
          "name": "activity_",
          "type": "address"
        }
      ],
      "name": "setActivity",
      "outputs": [],
      "stateMutability": "nonpayable",
      "type": "function"
    },
    {
      "inputs": [
        {
          "internalType": "address",
          "name": "priceFeed_",
          "type": "address"
        }
      ],
      "name": "setPriceFeed",
      "outputs": [],
      "stateMutability": "nonpayable",
      "type": "function"
    },
    {
      "inputs": [
        {
          "internalType": "address",
          "name": "newOwner",
          "type": "address"
        }
      ],
      "name": "changeOwner",
      "outputs": [],
      "stateMutability": "nonpayable",
      "type": "function"
    },
    {
      "inputs": [
        {
          "internalType": "address",
          "name": "token",
          "type": "address"
        },
        {
          "internalType": "address payable",
          "name": "receiver",
          "type": "address"
        },
        {
          "internalType": "uint256",
          "name": "amount",
          "type": "uint256"
        }
      ],
      "name": "claim",
      "outputs": [],
      "stateMutability": "nonpayable",
      "type": "function"
    }
  ],
  "bytecode": "0x608034620000d557601f62003c9b38819003918201601f19168301916001600160401b03831184841017620000da57808492608094604052833981010312620000d5576200004d81620000f0565b906200005c60208201620000f0565b6200007860606200007060408501620000f0565b9301620000f0565b90600160005560018060a01b03928380928160018060a01b0319971687600554161760055516856006541617600655168360075416176007551681600854161760085533906001541617600155604051613b959081620001068239f35b600080fd5b634e487b7160e01b600052604160045260246000fd5b51906001600160a01b0382168203620000d55756fe6080604052600436101561001257600080fd5b6000803560e01c806310e14e19146134cc5780632e4763371461349d57806331f00e8d14612ee157806337787d511461014c5780634ab2618c1461294b5780634add7c82146123795780635c7f31aa14611e205780635cb93398146114b757806361ba9443146114a7578063628118ee14610e42578063724e78da14610df7578063996cba6814610c8f5780639ca6005f14610784578063a6f9dae11461073b578063afaa069114610523578063b85a8b2014610507578063c1bc89ef14610210578063cc3266e8146101ed578063e0b26959146101c6578063e0f7dffd146101a1578063e3f43fdb14610156578063eb1f613d1461014c5763f4e02f461461011b575b600080fd5b34610149576040366003190112610149576020610141610139613543565b600435613b28565b604051908152f35b80fd5b505061011661358c565b503461014957602036600319011261014957610170613517565b6001546001600160a01b03919061018a9083163314613a01565b166001600160601b0360a01b600254161760025580f35b5034610149576060366003190112610149576020610141604435602435600435613ad7565b50346101495760403660031901126101495760206101416101e5613543565b600435613b04565b50346101495780600319360112610149576020604051670de0b6b3a76400008152f35b5060c036600319011261014957610225613543565b60443567ffffffffffffffff811161042c573660238201121561042c578060040135610250816135d1565b9061025e60405192836135af565b8082526020928383016024819360051b8301019136831161050357602401905b8282106104e4575050506064359161ffff808416809403610116576102a161357b565b9180511561049f576001600160a01b038781169390929073eeeeeeeeeeeeeeeeeeeeeeeeeeeeeeeeeeeeeeee8503610430578934995b8560055416803b1561042c57604051638340f54960e01b81523360048201526001600160a01b03929092166024830152604482018c905282908290606490829084905af1801561042157610409575b5093919288979996938360079793975416966040519b8c9963031137cd60e61b8b5260e48b019560048c015260248b015260843560448b015260648a015216608488015260e060a4880152518091526101048601929184905b8282106103e85750505050908380923360c483015203925af180156103dd576103a6578280f35b81813d83116103d6575b6103ba81836135af565b810103126103d2576103cb90613601565b5038808280f35b5080fd5b503d6103b0565b6040513d85823e3d90fd5b83518116855289988b98508c9650948501949093019260019091019061037f565b6104129061359b565b61041d578938610326565b8980fd5b6040513d84823e3d90fd5b8280fd5b6040516323b872dd60e01b8152336004808301919091523060248301523560448201819052998b918a81606481868c5af180156103dd57610472575b506102d7565b610491908b3d8d11610498575b61048981836135af565b8101906135e9565b503861046c565b503d61047f565b60405162461bcd60e51b815260048101879052601760248201527f4552525f4e4f5f434f4c4c41544552414c5f54595045530000000000000000006044820152606490fd5b81356001600160a01b038116810361011657815290850190850161027e565b8780fd5b5034610149578060031936011261014957602060405160648152f35b5060a036600319011261014957610538613517565b610540613559565b906044359061ffff80831680930361011657849261055c61356a565b9461056681613a3e565b60018060a01b03948593818560075416966024604051809a8193630ce7621960e11b835216998a60048301525afa968715610421578297610717575b506105b581606089015194168094613b04565b956020809801968688511673eeeeeeeeeeeeeeeeeeeeeeeeeeeeeeeeeeeeeeee81146000146106b057508034106106ac575b86806005541698511690883b156106a857604051638340f54960e01b81523360048201526001600160a01b0392909216602483015260448201529683908890606490829084905af19586156103dd57889661068d575b60c4959697506007541691604051998a97889663ab488b0b60e01b885260048801526064356024880152604487015216606485015233608485015260a48401525af180156103dd576103a6578280f35b9495509561069b839161359b565b6103d2578587959461063d565b8480fd5b8380fd5b6040516323b872dd60e01b815233600482015230602482015260448101839052908a908290606490829089905af1801561070c576106ef575b506105e7565b610705908a3d8c116104985761048981836135af565b50386106e9565b6040513d87823e3d90fd5b6107349197503d8084833e61072c81836135af565b810190613624565b95386105a2565b503461014957602036600319011261014957610755613517565b600154906001600160a01b039061076f3383851614613a01565b16906001600160601b0360a01b161760015580f35b5060c0366003190112610149578061079a613517565b6107a2613543565b90604435906107af61356a565b906107b861357b565b906001600160a01b03851673eeeeeeeeeeeeeeeeeeeeeeeeeeeeeeeeeeeeeeee03610c275734935061082a925b600354604051631c07d98160e21b81526001600160a01b03888116600483015284811660248301526044820188905290956020928792169082908b9082906064820190565b03925af1938415610c1c578794610be5575b5060035460405163912d228f60e01b8082526001600160a01b0385811660048401526024830188905290969192602091849160449183918e91165af1918215610b0e578992610bad575b50600480546040516322a0fe3360e21b815233928101929092526024820193909352916001600160a01b03169060208380604481015b0381855afa928315610ba2578a93610b5d575b506108de600493602092613b28565b9160405193848092636882509b60e11b82525afa918215610b0e578992610b1d575b5060ff61090e92169061389e565b9060018060a01b036005541690813b15610b1957604051638340f54960e01b81523360048201526001600160a01b0389166024820152604481018890529189908390606490829084905af1918215610b0e578992610af6575b5060075460405163486c386960e11b81526001600160a01b0395861660048201528986166024820152604481018990526064808201959095529335608485015261ffff91821660a4850152941660c48301523360e483015290926020928492610104928492165af1801561070c57610ab2575b506003546040519182526001600160a01b039384166004830152602482019290925291602091839116818581604481015b03925af1908115610421578291610a7d575b506002546001600160a01b0316803b15610a795760405163094f618d60e11b8152336004820152602481019290925282908290818381604481015b03925af1801561042157610a695750f35b610a729061359b565b6101495780f35b5050fd5b9150506020813d602011610aaa575b81610a99602093836135af565b810103126101165781905138610a1d565b3d9150610a8c565b91906020833d602011610aee575b81610acd602093836135af565b810103126106a857610a0b93610ae4602094613601565b50935090916109da565b3d9150610ac0565b610b029092919261359b565b61050357879038610967565b6040513d8b823e3d90fd5b8880fd5b91506020823d602011610b55575b81610b38602093836135af565b81010312610b195760ff610b4e61090e93613890565b9250610900565b3d9150610b2b565b92506020833d602011610b9a575b81610b78602093836135af565b8101031261041d576108de602091610b91600495613601565b945091506108cf565b3d9150610b6b565b6040513d8c823e3d90fd5b915097506020813d602011610bdd575b81610bca602093836135af565b81010312610116575188976108bc610886565b3d9150610bbd565b965092506020863d602011610c14575b81610c02602093836135af565b8101031261011657869551923861083c565b3d9150610bf5565b6040513d89823e3d90fd5b6040516323b872dd60e01b815233600482015230602482015260448101859052926020846064818a6001600160a01b038b165af1938415610c1c5761082a94610c71575b506107e5565b610c889060203d81116104985761048981836135af565b5038610c6b565b503461014957606036600319011261014957610ca9613517565b6001600160a01b03602435818116908190036106ac5760443591610cd281600154163314613a01565b848160085416803b156103d2576040516331b5f13d60e11b81526001600160a01b0387166004820152602481018690529082908290604490829084905af1801561042157610de3575b50508215610dac5784931673eeeeeeeeeeeeeeeeeeeeeeeeeeeeeeeeeeeeeeee8103610d5d5750828092819282f115610d515780f35b604051903d90823e3d90fd5b9260209291604491604051958694859363a9059cbb60e01b8552600485015260248401525af1801561042157610d91575080f35b610da89060203d81116104985761048981836135af565b5080f35b60405162461bcd60e51b815260206004820152600f60248201526e11549497d6915493d7d05353d55395608a1b6044820152606490fd5b610dec9061359b565b6106a8578438610d1b565b503461014957602036600319011261014957610e11613517565b6001546001600160a01b039190610e2b9083163314613a01565b166001600160601b0360a01b600354161760035580f35b5060403660031901126101495760043590610e5b613559565b91610e6583613a3e565b600654604051632820036560e11b8152600481018390526024949092916001600160a01b03919061022090819086908990829087165afa94851561149c578695611340575b5050816101e0850151163303611309578161016085015116824216038281116112f457918596918693610f08610ef8610eed61ffff60a08b015195168095613b04565b9360e08a0151613b04565b91846101408a0151911684613ad7565b96610f1383896139de565b9184600854166040519063a001ecdd60e01b82528160048160209b8c945af19081156112e9578b916112ad575b50610f4e610f559185613b04565b80946139de565b85600854169060608401948786511690833b156112a95760405163ef6506db60e01b81526001600160a01b039290921660048301526024820152918c908390604490829084905af180156112665789928d91611290575b5050608487600654169a8d6040519c8d94859363094bb9f160e11b855260048501528c8401528960448401528660648401525af1978815610ba2578a98611271575b50848351168a8873eeeeeeeeeeeeeeeeeeeeeeeeeeeeeeeeeeeeeeee9283811460001461120757505050893410611203578560808c945b0151169081036111a857508180809281811561119f575b3390f115610c1c5787965b85611093856003541661105e8688875116956139de565b60405163912d228f60e01b8082526001600160a01b03909616600482015260248101919091529a8b9283919082906044820190565b03925af1978815610b0e578998611167575b50600354915160405191825284166001600160a01b0316600482015260248101929092528490829060449082908b9087165af1938415610c1c578794611134575b50506002541690813b156111305785608492819560405197889687956311dd211f60e31b87523360048801528601526044850152151560648401525af1801561042157610a695750f35b8580fd5b819750809294503d8311611160575b61114d81836135af565b81010312610116578594519138806110e6565b503d611143565b9298509650908481813d8111611198575b61118281836135af565b81010312610116575188979096909190856110a5565b503d611178565b506108fc61103c565b60405163a9059cbb60e01b8152336004820152602481019290925290989187918a916044918391905af1978815610b0e5789986111e6575b50611047565b6111fc90873d89116104985761048981836135af565b50386111e0565b8a80fd5b6040516323b872dd60e01b8152336004820152306024820152604481018e905292839160649183915af18015611266578c948892608092611249575b50611025565b61125f908c8d3d106104985761048981836135af565b5038611243565b6040513d8e823e3d90fd5b611289919850873d89116104985761048981836135af565b9638610fee565b61129c9192935061359b565b6112035787908b38610fac565b8d80fd5b90508781813d83116112e2575b6112c481836135af565b8101031261120357610f4e6112db610f5592613601565b9150610f40565b503d6112ba565b6040513d8d823e3d90fd5b86634e487b7160e01b60005260116004526000fd5b60405162461bcd60e51b8152602060048201526010818801526f22a9292fa727aa2fa127a92927aba2a960811b6044820152606490fd5b908092955081813d8311611495575b61135981836135af565b810103126111305760405191820182811067ffffffffffffffff8211176114805760405261138681613601565b82526020810151600381101561147c5760208301526040810151600281101561147c5760408301526113ba60608201613601565b60608301526113cb60808201613601565b608083015260a081015160a083015260c081015160c083015260e081015160e083015261010080820151908301526101208082015190830152610140808201519083015261016061141d818301613601565b9083015261018061142f818301613601565b908301526101a0611441818301613890565b908301526101c080820151908301526101e061145e818301613601565b90830152611470610200809201613601565b90820152923880610eaa565b8680fd5b87634e487b7160e01b60005260416004526000fd5b503d61134f565b6040513d88823e3d90fd5b5060203660031901126101495780f35b506060366003190112610149576114cc613517565b906114d5613559565b916114de61352d565b906114e884613a3e565b600754604051630ce7621960e11b81526001600160a01b03838116600483015260249691921685838881845afa92831561149c578693611e04575b50604051634cf732f160e11b81526001600160a01b0385811660048301528616602482015290602090829060449082905afa90811561149c576115829291611572918891611de5575b506138be565b61ffff6060840151911690613b04565b60035460208381015160405163912d228f60e01b81526001600160a01b0391821660048201526024810185905293959392839160449183918b91165af190811561149c578691611db2575b50600480546040516322a0fe3360e21b81523392810192909252602482019290925290602090829060449082906001600160a01b03165afa801561149c578690611d77575b600354602085810151604051631c07d98160e21b81526001600160a01b03918216600482015289821660248201526044810189905294509091849116818a81606481015b03925af18015610c1c578790611d43575b6116719250613b04565b60048054604051636882509b60e11b81529160209183919082906001600160a01b03165afa908115610c1c578791611d01575b509060ff6116b392169061389e565b73eeeeeeeeeeeeeeeeeeeeeeeeeeeeeeeeeeeeeeee6001600160a01b038616818103611c975750348210611c5b575b60208401516001600160a01b0316908103611aca57508580809850858015611ac0575b8280929181923390f11561070c575b6005546101208401516001600160a01b039081169116803b1561050357604051638340f54960e01b81526001600160a01b03928316600482015291871660248301526044820183905287908290606490829084905af1908115610c1c578791611aac575b505060055461012084015160208501516001600160a01b03928316929081169116823b15610b1957604051633dae446f60e21b81526001600160a01b03918216600482015291166024820152604481018690529087908290606490829084905af1908115610c1c578791611a98575b505060035460405163912d228f60e01b81526001600160a01b03878116600483015260248201849052909691602091889160449183918c91165af1958615610c1c578796611a5f575b508460209160018060a01b0360065416908960018060a01b0385890151166118928b898b61ffff60a0608083015192015116908d61012060018060a01b0391015116936040519c8d9b8c9a8b99636667fe2160e11b8b52339760048c01613828565b03925af1801561149c57611a30575b506007546001600160a01b0316803b156111305760405163d0dd830360e01b81526001600160a01b0390921660048301526024820184905285908290818381604481015b03925af190811561070c578591611a1c575b505060035460209182015160405163912d228f60e01b81526001600160a01b0391821660048201526024810194909452839160449183918891165af19081156103dd5783916119e7575b506002546001600160a01b0316803b156119e2576040516311eba9df60e21b8152336004820152602481019290925283908290604490829084905af19081156103dd5783916119cb575b50506002546001600160a01b0316803b15610a795760405163094f618d60e11b815233600482015260248101929092528290829081838160448101610a58565b6119d49061359b565b6119df57813861198b565b50fd5b505050fd5b9250506020823d602011611a14575b81611a03602093836135af565b810103126101165782915138611941565b3d91506119f6565b611a259061359b565b6119e25783386118f7565b6020809296503d8311611a58575b611a4881836135af565b81010312610116578493386118a1565b503d611a3e565b965094506020863d602011611a90575b81611a7c602093836135af565b810103126101165794518695909484611830565b3d9150611a6f565b611aa19061359b565b6111305785386117e7565b611ab59061359b565b611130578538611778565b6108fc9150611705565b6040805163a9059cbb60e01b602080830191909152338b830190815280820189905282900390810182529091611b019101826135af565b6040519081604081011067ffffffffffffffff604084011117611c465788809160408401604052602084527f5361666545524332303a206c6f772d6c6576656c2063616c6c206661696c6564602085015260208151910182865af13d15611c39573d9067ffffffffffffffff8211611c2457611b9d9360405192611b8f6020601f19601f84011601856135af565b83523d8b602085013e61390a565b805180611baf575b5050859650611714565b90602080611bc19383010191016135e9565b15611bcd578680611ba5565b60405162461bcd60e51b815260206004820152602a818901527f5361666545524332303a204552433230206f7065726174696f6e20646964206e6044820152691bdd081cdd58d8d9595960b21b6064820152608490fd5b8a634e487b7160e01b60005260416004526000fd5b91611b9d9260609161390a565b89634e487b7160e01b60005260416004526000fd5b60405162461bcd60e51b8152602060048201526015818a01527411549497d0d3d31310551154905317d05353d55395605a1b6044820152606490fd5b6040516323b872dd60e01b81523360048201523060248201526044810184905290602090829060649082908c905af18015611cf657611cd7575b506116e2565b611cef9060203d6020116104985761048981836135af565b5038611cd1565b6040513d8a823e3d90fd5b90506020813d602011611d3b575b81611d1c602093836135af565b8101031261147c579060ff611d336116b393613890565b9192506116a4565b3d9150611d0f565b506020823d602011611d6f575b81611d5d602093836135af565b81010312610116576116719151611667565b3d9150611d50565b506020813d602011611daa575b81611d91602093836135af565b8101031261113057611da561165691613601565b611612565b3d9150611d84565b90506020813d602011611ddd575b81611dcd602093836135af565b81010312610116575160206115cd565b3d9150611dc0565b611dfe915060203d6020116104985761048981836135af565b3861156c565b611e199193503d8088833e61072c81836135af565b9138611523565b506020366003190112610149576007546040516314c7eb4960e01b815260048035908201526001600160a01b03909116906101008082602481865afa9182156121c757849261229d575b505060e0810151604051632bdd7c7760e01b81526001600160a01b039091166004820152610180928390829060249082905afa9283156121c757849361226e575b50506101608201516001600160a01b03163303612235578160808493015190611ef3611ee1602085019361ffff85511690613b04565b9261ffff60c084015191511690613b04565b60208201519092906001600160a01b031673eeeeeeeeeeeeeeeeeeeeeeeeeeeeeeeeeeeeeeee81036121dc575084808480156121d2575b8280929181923390f1156121c7575b60055460c085015160408401516001600160a01b03928316929081169116823b1561050357604051638340f54960e01b81526001600160a01b03918216600482015291166024820152604481018390529086908290606490829084905af190811561149c5786916121b3575b505060055460c085015160208401516001600160a01b03928316929081169116823b1561050357604051633dae446f60e21b81526001600160a01b03918216600482015291166024820152604481018590529086908290606490829084905af190811561149c57869161219f575b5050600354604083810151905163912d228f60e01b81526001600160a01b039182166004820152602481018490529591602091879160449183918b91165af194851561149c578695612166575b508360209160018060a01b0360065416908860018060a01b0360e0830151166120da8a60018060a01b03888b0151169260018060a01b0360408c01511695608081015161ffff6040830151169160c060018060a01b0391015116936040519c8d9b8c9a8b99636667fe2160e11b8b52339760048c01613828565b03925af1801561070c57612137575b5060075481516001600160a01b039081169116803b156111305760405163d0dd830360e01b81526001600160a01b0390921660048301526024820184905285908290818381604481016118e5565b6020809295503d831161215f575b61214f81836135af565b81010312610116578392386120e9565b503d612145565b955093506020853d602011612197575b81612183602093836135af565b810103126101165793518594909383612060565b3d9150612176565b6121a89061359b565b6106a8578438612013565b6121bc9061359b565b6106a8578438611fa5565b6040513d86823e3d90fd5b6108fc9150611f2a565b60405163a9059cbb60e01b81523360048201526024810185905290602090829060449082908a905af1801561149c57612216575b50611f39565b61222e9060203d6020116104985761048981836135af565b5038612210565b60405162461bcd60e51b815260206004820152601160248201527022a9292fa7a7262cafa127a92927aba2a960791b6044820152606490fd5b61228e929350803d10612296575b61228681836135af565b81019061375b565b903880611eab565b503d61227c565b9080925081813d8311612372575b6122b581836135af565b810103126106ac5760405191820182811067ffffffffffffffff82111761235c576123509160e0916040526122e981613601565b84526122f760208201613615565b602085015261230860408201613615565b604085015261231960608201613601565b60608501526080810151608085015261233460a08201613601565b60a085015261234560c08201613601565b60c085015201613601565b60e08201523880611e6a565b634e487b7160e01b600052604160045260246000fd5b503d6122ab565b503461014957602036600319011261014957600754604051632a3884d760e21b815260048035908201526001600160a01b03909116906101608082602481865afa9182156121c757849261285e575b50508260018060a01b0361014083015116602460405180958193630ce7621960e11b835260048301525afa9182156103dd578392612842575b50610120828101519091906001600160a01b0316330361280b578261243460608695015161ffff60208501511690613b04565b602082015190929083906001600160a01b031673eeeeeeeeeeeeeeeeeeeeeeeeeeeeeeeeeeeeeeee81036127a457508185015186918291829182916001600160a01b031682821561279b575bf1156121c7575b60055493810180516040830151606084015192966001600160a01b0391821693928216929116803b15610b1957604051633c6340f360e21b81526001600160a01b039384166004820152336024820152939092166044840152606483015286908290608490829084905af190811561149c578691612787575b505060055460208301516001600160a01b039081169116803b1561147c57604051633dae446f60e21b81523360048201526001600160a01b039290921660248301526044820185905286908290606490829084905af190811561149c578691612773575b505060018060a01b036006541660208460018060a01b03610140850151169260018060a01b0383870151168960018060a01b03604088015116916125e760608901519760808a01518d8b61ffff60a060e0830151920151169160018060a01b03905116926040519c8d9b8c9a8b99636667fe2160e11b8b52339860048c01613828565b03925af1801561149c57612744575b506007546101408201516060909201516001600160a01b039182169290911690823b1561147c57604051634e1df74360e01b81526001600160a01b039290921660048301526024820185905260448201529085908290606490829084905af190811561070c578591612730575b505060035460209182015160405163912d228f60e01b81526001600160a01b0391821660048201526024810194909452839160449183918891165af19081156103dd5783916126fb575b5060025491516001600160a01b03928316921690823b156119e2576040516311eba9df60e21b81526001600160a01b0390921660048301526024820152908290829081838160448101610a58565b9250506020823d602011612728575b81612717602093836135af565b8101031261011657829151386126ad565b3d915061270a565b6127399061359b565b6119e2578338612663565b6020809296503d831161276c575b61275c81836135af565b81010312610116578493386125f6565b503d612752565b61277c9061359b565b6106a8578438612564565b6127909061359b565b6106a8578438612500565b506108fc612480565b8286015160405163a9059cbb60e01b81526001600160a01b0390911660048201526024810192909252602090829060449082908a905af1801561149c576127ec575b50612487565b6128049060203d6020116104985761048981836135af565b50386127e6565b60405162461bcd60e51b815260206004820152600f60248201526e22a9292fa7a7262cafa622a72222a960891b6044820152606490fd5b6128579192503d8085833e61072c81836135af565b9038612401565b9080925081813d8311612944575b61287681836135af565b810103126106ac5760405191820182811067ffffffffffffffff82111761235c576040526128a381613601565b82526128b160208201613615565b60208301526128c260408201613601565b604083015260608101516060830152608081015160808301526128e760a08201613615565b60a08301526128f860c08201613601565b60c083015260e081015160e0830152610100612915818301613601565b90830152610120612927818301613601565b90830152612939610140809201613601565b9082015238806123c8565b503d61286c565b5060c03660031901126101495780612961613517565b612969613559565b61297161352d565b9061297a61356a565b9261298361357b565b9061298d83613a3e565b600754604051630ce7621960e11b81526001600160a01b0383811660048301529091168782602481845afa918215611cf6578892612ec5575b50604051634cf732f160e11b81526001600160a01b0384811660048301528716602482015290602090829060449082905afa8015611cf657612a0e918991611de557506138be565b612a21606082015161ffff861690613b04565b6003546020928301805160405163912d228f60e01b81526001600160a01b039182166004820152602481018590529394919392839160449183918e91165af1908115610b0e578991612e8b575b50600480546040516322a0fe3360e21b815233928101929092526024820192909252929190602090849060449082906001600160a01b03165afa928315610b0e578993612e47575b506003549051604051631c07d98160e21b81526001600160a01b03918216600482015281891660248201526044810193909352602091839116818b81606481015b03925af1908115611cf6578891612e0f575b50600491612b1691613b04565b8154604051636882509b60e11b81529260209184919082906001600160a01b03165afa918215611cf6578892612dcf575b5060ff612b5592169061389e565b916001600160a01b03851673eeeeeeeeeeeeeeeeeeeeeeeeeeeeeeeeeeeeeeee03612d6c5734831061147c575b6005546001600160a01b0316803b1561050357604051638340f54960e01b81523360048201526001600160a01b0387166024820152604481018590529088908290606490829084905af1908115611cf6578891612d58575b505060035460405163912d228f60e01b81526001600160a01b03878116600483015260248201869052909791602091899160449183918d91165af1968715611cf6578897612d15575b5060075460405163aba001ed60e01b815261ffff96871660048201526001600160a01b0397881660248201526044810195909552606480860189905235608486015290851660a4850152931660c48301523360e483015283166101048201529160209183916101249183918891165af180156103dd57612cdc57506002546001600160a01b0316803b15610a795760405163094f618d60e11b815233600482015260248101929092528290829081838160448101610a58565b6020813d602011612d0d575b81612cf5602093836135af565b81010312610a7957612d0690613601565b5038610a1d565b3d9150612ce8565b92939491975095506020823d602011612d50575b81612d36602093836135af565b81010312610116579051879690959193929161ffff612c23565b3d9150612d29565b612d619061359b565b61147c578638612bda565b6040516323b872dd60e01b8152336004820152306024820152604481018490526020816064818b6001600160a01b038b165af18015611cf657612db0575b50612b82565b612dc89060203d6020116104985761048981836135af565b5038612daa565b91506020823d602011612e07575b81612dea602093836135af565b810103126105035760ff612e00612b5593613890565b9250612b47565b3d9150612ddd565b9750506020873d602011612e3f575b81612e2b602093836135af565b810103126101165795518796906004612b09565b3d9150612e1e565b9092506020813d602011612e83575b81612e63602093836135af565b81010312610b1957612af791612e7a602092613601565b93915091612ab6565b3d9150612e56565b92919850506020823d602011612ebd575b81612ea9602093836135af565b810103126101165790518897906020612a6e565b3d9150612e9c565b612eda9192503d808a833e61072c81836135af565b90386129c6565b50604036600319011261014957612ef6613517565b90612eff613559565b612f0881613a3e565b600754604051632bdd7c7760e01b81526001600160a01b0385811660048301526101809392849183916024918391165afa9283156121c757849361347e575b50506101608201516001600160a01b0316331461344357612f80612f7561ffff608085015193168093613b04565b9160c0840151613b04565b60208301519091906001600160a01b031673eeeeeeeeeeeeeeeeeeeeeeeeeeeeeeeeeeeeeeee810361337b57508134106106ac57838080808560018060a01b0361016089015116828215613372575bf1156103dd575b60055461016084015160408501516001600160a01b0392831697929081169116873b1561147c57604051633c6340f360e21b81526001600160a01b03918216600482015233602482015291166044820152606481018390529585908790608490829084905af1801561070c5761335e575b600554602085015195965086956001600160a01b039081169116803b1561147c57604051633dae446f60e21b81523360048201526001600160a01b039290921660248301526044820185905286908290606490829084905af190811561149c57869161334a575b5050600354604085810151905163912d228f60e01b81526001600160a01b0391821660048201526024810185905291602091839160449183918b91165af190811561149c578691613315575b5060065485516020808801516040808a015160e08b01516101008c01516101608d01519351636667fe2160e11b81526001600160a01b0397881660048201526001602482015294871660448601529186166064850152608484018b905260a484018a905260c484019790975260e483019690965261ffff909516610104820152938216610124850152336101448501529183916101649183918b91165af1801561149c576132e6575b506007546001600160a01b031691823b1561113057604051634e1df74360e01b81526001600160a01b039290921660048301526024820184905260448201529084908290606490829084905af19081156121c75784916132d2575b505060035460208381015160405163912d228f60e01b81526001600160a01b03918216600482015260248101949094529091839160449183918891165af19081156103dd57839161329d575b50600254610160909201516001600160a01b03928316921690823b156119e2576040516311eba9df60e21b81526001600160a01b0390921660048301526024820152908290829081838160448101610a58565b9250506020823d6020116132ca575b816132b9602093836135af565b81010312610116578291513861324a565b3d91506132ac565b6132db9061359b565b610a795782386131fe565b6020809296503d831161330e575b6132fe81836135af565b81010312610116578493386131a3565b503d6132f4565b9550506020853d602011613342575b81613331602093836135af565b8101031261011657859451386130fa565b3d9150613324565b6133539061359b565b6106a85784386130ae565b93909461336a9061359b565b928490613047565b506108fc612fcf565b6040516323b872dd60e01b815233600482015230602482015260448101849052906020908290606490829089905af1801561070c57613424575b5060208381015161016085015160405163a9059cbb60e01b81526001600160a01b039182166004820152602481018690529291839160449183918a91165af1801561070c57613405575b50612fd6565b61341d9060203d6020116104985761048981836135af565b50386133ff565b61343c9060203d6020116104985761048981836135af565b50386133b5565b60405162461bcd60e51b815260206004820152601360248201527222a9292fa1a0a72a2fa127a92927abafa7aba760691b6044820152606490fd5b613495929350803d106122965761228681836135af565b903880612f47565b5034610149578060031936011261014957602060405173eeeeeeeeeeeeeeeeeeeeeeeeeeeeeeeeeeeeeeee8152f35b5034610149576020366003190112610149576134e6613517565b6001546001600160a01b0391906135009083163314613a01565b166001600160601b0360a01b600454161760045580f35b600435906001600160a01b038216820361011657565b604435906001600160a01b038216820361011657565b602435906001600160a01b038216820361011657565b6024359061ffff8216820361011657565b6084359061ffff8216820361011657565b60a4359061ffff8216820361011657565b50600036600319011261011657005b67ffffffffffffffff811161235c57604052565b90601f8019910116810190811067ffffffffffffffff82111761235c57604052565b67ffffffffffffffff811161235c5760051b60200190565b90816020910312610116575180151581036101165790565b51906001600160a01b038216820361011657565b519061ffff8216820361011657565b90602090818382031261011657825167ffffffffffffffff93848211610116570191610140938484840312610116576040519485018581108282111761235c5760405261367084613601565b855261367d828501613601565b828601526040840151604086015260608401516060860152608084015160808601526136ab60a08501613615565b60a086015260c08401519081116101165783019180601f840112156101165782516136d5816135d1565b936136e360405195866135af565b818552838086019260051b820101928311610116578301905b828210613744575050505060c083015261371860e08201613601565b60e083015261010061372b818301613601565b9083015261373d610120809201613601565b9082015290565b83809161375084613601565b8152019101906136fc565b809161018092839103126101165760405191820182811067ffffffffffffffff82111761235c5760405261378e81613601565b825261379c60208201613601565b60208301526137ad60408201613601565b6040830152606081015160608301526080810151608083015260a081015160a083015260c081015160c083015260e081015160e08301526101006137f2818301613615565b90830152610120613804818301613601565b90830152610140613816818301613601565b9083015261373d610160809201613601565b6001600160a01b0391821681526000602082015291811660408301529182166060820152608081019290925260a082019290925260c081019290925260e082019290925261ffff90921661010083015291821661012082015291166101408201526101600190565b519060ff8216820361011657565b81156138a8570490565b634e487b7160e01b600052601260045260246000fd5b156138c557565b60405162461bcd60e51b815260206004820152601c60248201527f4552525f434f4c4c41544552414c5f4e4f545f535550504f52544544000000006044820152606490fd5b9192901561396c575081511561391e575090565b3b156139275790565b60405162461bcd60e51b815260206004820152601d60248201527f416464726573733a2063616c6c20746f206e6f6e2d636f6e74726163740000006044820152606490fd5b82519091501561397f5750805190602001fd5b6040519062461bcd60e51b82528160208060048301528251908160248401526000935b8285106139c5575050604492506000838284010152601f80199101168101030190fd5b84810182015186860160440152938101938593506139a2565b919082039182116139eb57565b634e487b7160e01b600052601160045260246000fd5b15613a0857565b60405162461bcd60e51b815260206004820152600e60248201526d22a9292fa7a7262cafa7aba722a960911b6044820152606490fd5b61ffff80911660648111613a8d576019900616613a5757565b60405162461bcd60e51b815260206004820152600e60248201526d4552525f50455243454e5441474560901b6044820152606490fd5b60405162461bcd60e51b815260206004820152600f60248201526e4f5645525f50455243454e5441474560881b6044820152606490fd5b818102929181159184041417156139eb57565b91613af6606492613af1670de0b6b3a76400009386613ac4565b613ac4565b040481018091116139eb5790565b906001600160a01b03168015613b2457613b2090606492613ac4565b0490565b5090565b906001600160a01b039081166064811061011657606319018181116139eb5781166064039081116139eb57613b5c91613b04565b9056fea26469706673582212203daa4b787beb6d23c75ba4405c5338b52069d2c4dda10dc890b43cc4325ad82664736f6c63430008110033",
  "immutableReferences": {},
  "source": "// SPDX-License-Identifier: GPL-3.0\r\npragma solidity >=0.7.0 <0.9.0;\r\n\r\nimport \"./Activity.sol\";\r\n\r\nimport \"./libraries/Errors.sol\";\r\nimport \"./libraries/PoolLibrary.sol\";\r\n\r\nimport \"./math/SimpleInterest.sol\";\r\n\r\nimport \"./interfaces/IPriceFeed.sol\";\r\nimport \"./interfaces/ILoanToValueRatio.sol\";\r\nimport \"./interfaces/IFeeManager.sol\";\r\n\r\nimport \"./managers/LoanManager.sol\";\r\nimport \"./managers/OfferManager.sol\";\r\nimport \"./managers/PoolManager.sol\";\r\n\r\nimport \"@openzeppelin/contracts/utils/Context.sol\";\r\nimport \"@openzeppelin/contracts/utils/math/SafeMath.sol\";\r\nimport \"@openzeppelin/contracts/token/ERC20/utils/SafeERC20.sol\";\r\nimport \"@openzeppelin/contracts/token/ERC20/ERC20.sol\";\r\nimport \"@openzeppelin/contracts/security/ReentrancyGuard.sol\";\r\n\r\ncontract LendingPool is Context, ReentrancyGuard, SimpleInterest {\r\n    using SafeMath for uint256;\r\n    using SafeERC20 for ERC20;\r\n\r\n    address deployer;\r\n\r\n    Activity private _activity;\r\n    IPriceFeed private _priceFeed;\r\n    ILoanToValueRatio private _ltv;\r\n\r\n    // managers\r\n    PoolManager private _poolManager;\r\n    LoanManager private _loanManager;\r\n    OfferManager private _offerManager;\r\n    IFeeManager private _feeManager;\r\n\r\n    address public constant nativeAddress =\r\n        0xEeeeeEeeeEeEeeEeEeEeeEEEeeeeEeeeeeeeEEeE;\r\n\r\n    constructor(\r\n        address poolManager_,\r\n        address loanManager_,\r\n        address offerManager_,\r\n        address feeManager_\r\n    ) ReentrancyGuard() {\r\n        _poolManager = PoolManager(poolManager_);\r\n        _loanManager = LoanManager(loanManager_);\r\n        _offerManager = OfferManager(offerManager_);\r\n        _feeManager = IFeeManager(feeManager_);\r\n\r\n        deployer = _msgSender();\r\n    }\r\n\r\n    // @lenders\r\n    function createLendingOffer(\r\n        uint256 principalAmount_, // only for ERC20 assets\r\n        address principalToken,\r\n        address[] memory collateralTokens,\r\n        uint16 daysToMaturity,\r\n        uint256 interest,\r\n        uint16 daysToExpire\r\n    ) public payable {\r\n        uint256 principalAmount;\r\n\r\n        require(collateralTokens.length > 0, \"ERR_NO_COLLATERAL_TYPES\");\r\n\r\n        /* extract tokens from lender */\r\n        if (principalToken == nativeAddress) {\r\n            principalAmount = msg.value;\r\n        } else {\r\n            principalAmount = principalAmount_;\r\n            ERC20(principalToken).transferFrom(\r\n                _msgSender(),\r\n                address(this),\r\n                principalAmount\r\n            );\r\n        }\r\n\r\n        /* delegate principal to lender */\r\n        _poolManager.deposit(_msgSender(), principalToken, principalAmount);\r\n\r\n        /* create the lending offer */\r\n        _offerManager.createLendingOffer(\r\n            principalToken,\r\n            principalAmount,\r\n            interest,\r\n            daysToMaturity,\r\n            daysToExpire,\r\n            collateralTokens,\r\n            _msgSender()\r\n        );\r\n    }\r\n\r\n    // @lenders\r\n    function createLendingRequest(\r\n        uint160 offerId,\r\n        uint16 percentage,\r\n        uint16 daysToMaturity,\r\n        uint256 interest,\r\n        uint16 daysToExpire\r\n    ) public payable {\r\n        _checkPercentage(percentage);\r\n\r\n        OfferLibrary.LendingOffer memory offer = _offerManager.getLendingOffer(\r\n            offerId\r\n        );\r\n\r\n        uint256 principalAmount = percentageOf(\r\n            offer.initialPrincipal,\r\n            percentage\r\n        );\r\n\r\n        /* extract tokens from lender */\r\n        if (offer.principalToken == nativeAddress) {\r\n            require(msg.value >= principalAmount);\r\n        } else {\r\n            ERC20(offer.principalToken).transferFrom(\r\n                _msgSender(),\r\n                address(this),\r\n                principalAmount\r\n            );\r\n        }\r\n\r\n        /* delegate principal to lender */\r\n        _poolManager.deposit(\r\n            _msgSender(),\r\n            offer.principalToken,\r\n            principalAmount\r\n        );\r\n\r\n        /* create the lending request */\r\n        _offerManager.createLendingRequest(\r\n            percentage,\r\n            interest,\r\n            daysToMaturity,\r\n            daysToExpire,\r\n            _msgSender(),\r\n            offerId\r\n        );\r\n    }\r\n\r\n    // @lenders\r\n    function acceptBorrowingOffer(uint160 offerId, uint16 percentage)\r\n        public\r\n        payable\r\n    {\r\n        _checkPercentage(percentage);\r\n\r\n        OfferLibrary.BorrowingOffer memory offer = _offerManager\r\n            .getBorrowingOffer(offerId);\r\n\r\n        require(_msgSender() != offer.borrower, \"ERR_CANT_BORROW_OWN\");\r\n\r\n        uint256 collateralAmount = percentageOf(\r\n            offer.initialCollateral,\r\n            percentage\r\n        );\r\n\r\n        uint256 principalAmount = percentageOf(\r\n            offer.initialPrincipal,\r\n            percentage\r\n        );\r\n\r\n        /* extract principal from lender/caller and transfer to borrower */\r\n        if (offer.principalToken == nativeAddress) {\r\n            require(msg.value >= principalAmount);\r\n            payable(offer.borrower).transfer(principalAmount);\r\n        } else {\r\n            ERC20(offer.principalToken).transferFrom(\r\n                _msgSender(),\r\n                address(this),\r\n                principalAmount\r\n            );\r\n            ERC20(offer.principalToken).transfer(\r\n                offer.borrower,\r\n                principalAmount\r\n            );\r\n        }\r\n\r\n        /* delegate the loan collateral to lender */\r\n        _poolManager.transfer(\r\n            offer.borrower,\r\n            _msgSender(),\r\n            offer.collateralToken,\r\n            collateralAmount\r\n        );\r\n        /* undelegate the principal from lender */\r\n        _poolManager.burn(_msgSender(), offer.principalToken, principalAmount);\r\n\r\n        uint256 collateralPriceInUSD = _priceFeed.amountInUSD(\r\n            offer.collateralToken,\r\n            collateralAmount\r\n        );\r\n\r\n        /* register the loan from the loan manager */\r\n        _loanManager.createLoan(\r\n            offer.offerId,\r\n            OfferLibrary.Type.BORROWING_OFFER,\r\n            offer.principalToken,\r\n            offer.collateralToken,\r\n            principalAmount,\r\n            collateralAmount,\r\n            collateralPriceInUSD,\r\n            offer.interest,\r\n            offer.daysToMaturity,\r\n            offer.borrower,\r\n            _msgSender()\r\n        );\r\n\r\n        // will revert the transaction if fail\r\n        _offerManager._afterOfferBorrowingLoan(\r\n            offerId,\r\n            principalAmount,\r\n            collateralAmount\r\n        );\r\n\r\n        // update activity\r\n        uint256 borrowedAmountInUSD = _priceFeed.amountInUSD(\r\n            offer.principalToken,\r\n            principalAmount\r\n        );\r\n        _activity._borrowLoan(offer.borrower, borrowedAmountInUSD);\r\n    }\r\n\r\n    // @lenders\r\n    function acceptBorrowingRequest(uint256 requestId) public {\r\n        RequestLibrary.BorrowingRequest memory request = _offerManager\r\n            .getBorrowingRequest(requestId);\r\n\r\n        OfferLibrary.LendingOffer memory offer = _offerManager.getLendingOffer(\r\n            request.offerId\r\n        );\r\n\r\n        require(offer.lender == _msgSender(), \"ERR_ONLY_LENDER\");\r\n\r\n        uint256 principalAmount = percentageOf(\r\n            offer.initialPrincipal,\r\n            request.percentage\r\n        );\r\n\r\n        /* transfer principal to borrower */\r\n        if (offer.principalToken == nativeAddress) {\r\n            payable(request.borrower).transfer(principalAmount);\r\n        } else {\r\n            ERC20(offer.principalToken).transfer(\r\n                request.borrower,\r\n                principalAmount\r\n            );\r\n        }\r\n\r\n        /* delegate the loan collateral to lender */\r\n        _poolManager.transfer(\r\n            request.borrower,\r\n            _msgSender(),\r\n            request.collateralToken,\r\n            request.collateralAmount\r\n        );\r\n        /* undelegate the principal from lender */\r\n        _poolManager.burn(_msgSender(), offer.principalToken, principalAmount);\r\n\r\n        /* register the loan from the loan manager */\r\n        _loanManager.createLoan(\r\n            request.offerId,\r\n            OfferLibrary.Type.LENDING_OFFER,\r\n            offer.principalToken,\r\n            request.collateralToken,\r\n            principalAmount,\r\n            request.collateralAmount,\r\n            request.collateralPriceInUSD,\r\n            request.interest,\r\n            request.daysToMaturity,\r\n            request.borrower,\r\n            _msgSender()\r\n        );\r\n\r\n        // will revert the transaction if fail\r\n        _offerManager._afterOfferBorrowingLoan(\r\n            request.offerId,\r\n            principalAmount,\r\n            request.collateralAmount\r\n        );\r\n\r\n        // update activity\r\n        uint256 amountBorrowedInUSD = _priceFeed.amountInUSD(\r\n            offer.principalToken,\r\n            principalAmount\r\n        );\r\n        _activity._borrowLoan(request.borrower, amountBorrowedInUSD);\r\n    }\r\n\r\n    // @borrower\r\n    function createBorrowingOffer(\r\n        address principalToken,\r\n        address collateralToken,\r\n        uint256 collateralAmount_, // for ERC20 assets\r\n        uint256 interest,\r\n        uint16 daysToMaturity,\r\n        uint16 daysToExpire\r\n    ) public payable {\r\n        uint256 collateralAmount;\r\n\r\n        /* extract collateral from borrower */\r\n        if (collateralToken == nativeAddress) {\r\n            collateralAmount = msg.value;\r\n        } else {\r\n            collateralAmount = collateralAmount_;\r\n            ERC20(collateralToken).transferFrom(\r\n                _msgSender(),\r\n                address(this),\r\n                collateralAmount\r\n            );\r\n        }\r\n\r\n        uint256 principalNormalAmount = _priceFeed.exchangeRate(\r\n            collateralToken,\r\n            principalToken,\r\n            collateralAmount\r\n        );\r\n\r\n        uint256 principalAmountInUSD = _priceFeed.amountInUSD(\r\n            principalToken,\r\n            principalNormalAmount\r\n        );\r\n\r\n        uint160 ltv = _ltv.getRelativeLTV(_msgSender(), principalAmountInUSD);\r\n\r\n        uint256 principalAmount = percentageInverseOf(\r\n            principalNormalAmount,\r\n            ltv\r\n        ) / _ltv.getBase();\r\n\r\n        /* delegate the collateral to borrower */\r\n        _poolManager.deposit(_msgSender(), collateralToken, collateralAmount);\r\n\r\n        /* create the offer */\r\n        _offerManager.createBorrowingOffer(\r\n            principalToken,\r\n            collateralToken,\r\n            collateralAmount,\r\n            principalAmount,\r\n            interest,\r\n            daysToMaturity,\r\n            daysToExpire,\r\n            _msgSender()\r\n        );\r\n\r\n        // update activity\r\n        uint256 amountInUSD = _priceFeed.amountInUSD(\r\n            collateralToken,\r\n            collateralAmount\r\n        );\r\n        _activity._dropCollateral(_msgSender(), amountInUSD);\r\n    }\r\n\r\n    // @borrower\r\n    function createBorrowingRequest(\r\n        uint160 offerId,\r\n        uint16 percentage,\r\n        address collateralToken,\r\n        uint256 interest,\r\n        uint16 daysToMaturity,\r\n        uint16 daysToExpire\r\n    ) public payable {\r\n        _checkPercentage(percentage);\r\n\r\n        OfferLibrary.LendingOffer memory offer = _offerManager.getLendingOffer(\r\n            offerId\r\n        );\r\n\r\n        require(\r\n            _offerManager.isCollateralSupported(offerId, collateralToken),\r\n            \"ERR_COLLATERAL_NOT_SUPPORTED\"\r\n        );\r\n\r\n        uint256 principalAmount = percentageOf(\r\n            offer.initialPrincipal,\r\n            percentage\r\n        );\r\n\r\n        uint256 principalPriceInUSD = _priceFeed.amountInUSD(\r\n            offer.principalToken,\r\n            principalAmount\r\n        );\r\n\r\n        uint160 ltv = _ltv.getRelativeLTV(_msgSender(), principalPriceInUSD);\r\n\r\n        uint256 collateralNormalAmount = _priceFeed.exchangeRate(\r\n            offer.principalToken,\r\n            collateralToken,\r\n            principalAmount\r\n        );\r\n\r\n        uint256 collateralAmount = percentageOf(collateralNormalAmount, ltv) /\r\n            _ltv.getBase();\r\n\r\n        /* extract collateral from borrower */\r\n        if (collateralToken == nativeAddress) {\r\n            require(collateralAmount >= msg.value);\r\n        } else {\r\n            ERC20(collateralToken).transferFrom(\r\n                _msgSender(),\r\n                address(this),\r\n                collateralAmount\r\n            );\r\n        }\r\n\r\n        /* delegate the collateral to borrower */\r\n        _poolManager.deposit(_msgSender(), collateralToken, collateralAmount);\r\n\r\n        uint256 collateralPriceInUSD = _priceFeed.amountInUSD(\r\n            collateralToken,\r\n            collateralAmount\r\n        );\r\n\r\n        /* create the request */\r\n        _offerManager.createBorrowingRequest(\r\n            percentage,\r\n            collateralToken,\r\n            collateralAmount,\r\n            collateralPriceInUSD,\r\n            interest,\r\n            daysToMaturity,\r\n            daysToExpire,\r\n            _msgSender(),\r\n            offerId\r\n        );\r\n\r\n        // update activity\r\n        _activity._dropCollateral(_msgSender(), collateralPriceInUSD);\r\n    }\r\n\r\n    // @borrower\r\n    function acceptLendingOffer(\r\n        uint160 offerId,\r\n        uint16 percentage,\r\n        address collateralToken\r\n    ) public payable {\r\n        _checkPercentage(percentage);\r\n\r\n        OfferLibrary.LendingOffer memory offer = _offerManager.getLendingOffer(\r\n            offerId\r\n        );\r\n\r\n        require(\r\n            _offerManager.isCollateralSupported(offerId, collateralToken),\r\n            \"ERR_COLLATERAL_NOT_SUPPORTED\"\r\n        );\r\n\r\n        uint256 principalAmount = percentageOf(\r\n            offer.initialPrincipal,\r\n            percentage\r\n        );\r\n\r\n        uint256 principalPriceInUSD = _priceFeed.amountInUSD(\r\n            offer.principalToken,\r\n            principalAmount\r\n        );\r\n\r\n        uint160 ltv = _ltv.getRelativeLTV(_msgSender(), principalPriceInUSD);\r\n\r\n        /* calculate the collateral amount */\r\n        uint256 collateralNormalAmount = _priceFeed.exchangeRate(\r\n            offer.principalToken,\r\n            collateralToken,\r\n            principalAmount\r\n        );\r\n\r\n        uint256 collateralAmount = percentageOf(collateralNormalAmount, ltv) /\r\n            _ltv.getBase();\r\n\r\n        /* extract collateral tokens from borrower */\r\n        if (collateralToken == nativeAddress) {\r\n            require(collateralAmount >= msg.value, \"ERR_COLLATERAL_AMOUNT\");\r\n        } else {\r\n            ERC20(collateralToken).transferFrom(\r\n                _msgSender(),\r\n                address(this),\r\n                collateralAmount\r\n            );\r\n        }\r\n\r\n        /* transfer the principal to borrower */\r\n        if (offer.principalToken == nativeAddress) {\r\n            payable(_msgSender()).transfer(principalAmount);\r\n        } else {\r\n            ERC20(offer.principalToken).safeTransfer(\r\n                _msgSender(),\r\n                principalAmount\r\n            );\r\n        }\r\n\r\n        /* delegate the loan collateral to lender */\r\n        _poolManager.deposit(offer.lender, collateralToken, collateralAmount);\r\n        /* undelegate the loan principal from lender */\r\n        _poolManager.burn(offer.lender, offer.principalToken, principalAmount);\r\n\r\n        uint256 collateralPriceInUSD = _priceFeed.amountInUSD(\r\n            collateralToken,\r\n            collateralAmount\r\n        );\r\n\r\n        /* register the loan */\r\n        _loanManager.createLoan(\r\n            offerId,\r\n            OfferLibrary.Type.LENDING_OFFER,\r\n            offer.principalToken,\r\n            collateralToken,\r\n            principalAmount,\r\n            collateralAmount,\r\n            collateralPriceInUSD,\r\n            offer.interest,\r\n            offer.daysToMaturity,\r\n            _msgSender(),\r\n            offer.lender\r\n        );\r\n\r\n        // will revert if transaction fail\r\n        _offerManager._afterOfferLendingLoan(offerId, principalAmount);\r\n\r\n        // update activity\r\n        uint256 amountBorrowedInUSD = _priceFeed.amountInUSD(\r\n            offer.principalToken,\r\n            principalAmount\r\n        );\r\n        _activity._borrowLoan(_msgSender(), amountBorrowedInUSD);\r\n        _activity._dropCollateral(_msgSender(), collateralPriceInUSD);\r\n    }\r\n\r\n    // @borrower\r\n    function acceptLendingRequest(uint256 requestId) public payable {\r\n        RequestLibrary.LendingRequest memory request = _offerManager\r\n            .getLendingRequest(requestId);\r\n\r\n        OfferLibrary.BorrowingOffer memory offer = _offerManager\r\n            .getBorrowingOffer(request.offerId);\r\n\r\n        require(offer.borrower == _msgSender(), \"ERR_ONLY_BORROWER\");\r\n\r\n        uint256 collateralAmount = percentageOf(\r\n            offer.initialCollateral,\r\n            request.percentage\r\n        );\r\n\r\n        uint256 principalAmount = percentageOf(\r\n            offer.initialPrincipal,\r\n            request.percentage\r\n        );\r\n\r\n        /* transfer principal to borrower */\r\n        if (offer.principalToken == nativeAddress) {\r\n            payable(_msgSender()).transfer(principalAmount);\r\n        } else {\r\n            ERC20(offer.principalToken).transfer(_msgSender(), principalAmount);\r\n        }\r\n\r\n        /* delegate the loan collateral to lender */\r\n        _poolManager.deposit(\r\n            request.lender,\r\n            offer.collateralToken,\r\n            collateralAmount\r\n        );\r\n        /* undelegate the loan principal from lender */\r\n        _poolManager.burn(\r\n            request.lender,\r\n            offer.principalToken,\r\n            principalAmount\r\n        );\r\n\r\n        uint256 collateralPriceInUSD = _priceFeed.amountInUSD(\r\n            offer.collateralToken,\r\n            collateralAmount\r\n        );\r\n\r\n        /* register the loan from the loan manager */\r\n        _loanManager.createLoan(\r\n            request.offerId,\r\n            OfferLibrary.Type.LENDING_OFFER,\r\n            offer.principalToken,\r\n            offer.collateralToken,\r\n            principalAmount,\r\n            collateralAmount,\r\n            collateralPriceInUSD,\r\n            request.interest,\r\n            request.daysToMaturity,\r\n            _msgSender(),\r\n            request.lender\r\n        );\r\n\r\n        // will revert the transaction if fail\r\n        _offerManager._afterOfferLendingLoan(offer.offerId, principalAmount);\r\n\r\n        // update activity\r\n        uint256 amountBorrowedInUSD = _priceFeed.amountInUSD(\r\n            offer.principalToken,\r\n            principalAmount\r\n        );\r\n        _activity._borrowLoan(_msgSender(), amountBorrowedInUSD);\r\n        _activity._dropCollateral(_msgSender(), collateralPriceInUSD);\r\n    }\r\n\r\n    // @borrower\r\n    function reActivateOffer() public payable {}\r\n\r\n    // @borrower\r\n    function reActivateRequest() public payable {}\r\n\r\n    // @borrower\r\n    function repayLoan(uint256 loanId, uint16 percentage) public payable {\r\n        _checkPercentage(percentage);\r\n\r\n        LoanLibrary.Loan memory loan = _loanManager.getLoan(loanId);\r\n\r\n        // verify the borrower is the repayer\r\n        require(loan.borrower == _msgSender(), \"ERR_NOT_BORROWER\");\r\n\r\n        // calculate the duration of the loan\r\n        uint160 time = uint160(block.timestamp);\r\n        uint160 ellapsedSecs = (time - loan.startDate);\r\n\r\n        uint256 principalAmount = percentageOf(\r\n            loan.initialPrincipal,\r\n            percentage\r\n        );\r\n\r\n        uint256 collateralAmount = percentageOf(\r\n            loan.initialCollateral,\r\n            percentage\r\n        );\r\n\r\n        // calculate the pay back amount\r\n        uint256 repaymentPrincipalAmount = getFullInterestAmount(\r\n            principalAmount,\r\n            ellapsedSecs,\r\n            loan.interest\r\n        );\r\n\r\n        uint256 interestPaid = (repaymentPrincipalAmount - principalAmount);\r\n        uint256 fee = percentageOf(interestPaid, _feeManager.feePercentage());\r\n        uint256 unClaimedInterest = (interestPaid - fee);\r\n\r\n        _feeManager.credit(loan.principalToken, fee);\r\n\r\n        // will revert the transaction if fail\r\n        bool completed = _loanManager.repayLoan(\r\n            loanId,\r\n            unClaimedInterest,\r\n            principalAmount,\r\n            collateralAmount\r\n        );\r\n\r\n        /* extract pay back amount */\r\n        if (loan.principalToken == nativeAddress) {\r\n            require(msg.value >= repaymentPrincipalAmount);\r\n        } else {\r\n            ERC20(loan.principalToken).transferFrom(\r\n                _msgSender(),\r\n                address(this),\r\n                repaymentPrincipalAmount\r\n            );\r\n        }\r\n\r\n        /* transfer collateral */\r\n        if (loan.collateralToken == nativeAddress) {\r\n            payable(_msgSender()).transfer(collateralAmount);\r\n        } else {\r\n            ERC20(loan.collateralToken).transfer(\r\n                _msgSender(),\r\n                collateralAmount\r\n            );\r\n        }\r\n\r\n        // update activity\r\n        uint256 interestPaidInUSD = _priceFeed.amountInUSD(\r\n            loan.principalToken,\r\n            (repaymentPrincipalAmount - principalAmount)\r\n        );\r\n\r\n        uint256 amountPaidInUSD = _priceFeed.amountInUSD(\r\n            loan.principalToken,\r\n            principalAmount\r\n        );\r\n\r\n        _activity._repayLoan(\r\n            _msgSender(),\r\n            amountPaidInUSD,\r\n            interestPaidInUSD,\r\n            completed\r\n        );\r\n    }\r\n\r\n    function repayLiquidatedLoan(uint256 loanId) public payable {}\r\n\r\n    function setLTV(address ltv_) public onlyOwner {\r\n        _ltv = ILoanToValueRatio(ltv_);\r\n    }\r\n\r\n    function setActivity(address activity_) public onlyOwner {\r\n        _activity = Activity(activity_);\r\n    }\r\n\r\n    function setPriceFeed(address priceFeed_) public onlyOwner {\r\n        _priceFeed = IPriceFeed(priceFeed_);\r\n    }\r\n\r\n    function changeOwner(address newOwner) public onlyOwner {\r\n        deployer = newOwner;\r\n    }\r\n\r\n    /// @dev to claim revenue\r\n    function claim(\r\n        address token,\r\n        address payable receiver,\r\n        uint256 amount\r\n    ) public onlyOwner {\r\n        _feeManager.debit(token, amount);\r\n        require(amount > 0, \"ERR_ZERO_AMOUNT\");\r\n        if (token == nativeAddress) {\r\n            receiver.transfer(amount);\r\n        } else {\r\n            ERC20(token).transfer(receiver, amount);\r\n        }\r\n    }\r\n\r\n    function _checkPercentage(uint16 percentage) private pure {\r\n        // percentage must be 25, 50, 75 or 100\r\n        require(percentage <= 100, \"OVER_PERCENTAGE\");\r\n        require(percentage % 25 == 0, \"ERR_PERCENTAGE\");\r\n    }\r\n\r\n    modifier onlyOwner() {\r\n        require(_msgSender() == deployer, \"ERR_ONLY_OWNER\");\r\n        _;\r\n    }\r\n}\r\n",
  "sourcePath": "C:\\Users\\DELL\\Documents\\darsh\\smart-contracts\\contracts\\LendingPool.sol",
  "compiler": {
    "name": "solc",
    "version": "0.8.17+commit.8df45f5f.Emscripten.clang"
  },
  "schemaVersion": "3.4.11",
  "updatedAt": "2023-02-13T15:12:10.738Z",
  "devdoc": {
    "kind": "dev",
    "methods": {
      "claim(address,address,uint256)": {
        "details": "to claim revenue"
      }
    },
    "version": 1
  },
  "userdoc": {
    "kind": "user",
    "methods": {},
    "version": 1
  }
}