{
  "contractName": "LendingPool",
  "abi": [
    {
      "inputs": [
        {
          "internalType": "address",
          "name": "poolManager_",
          "type": "address"
        },
        {
          "internalType": "address",
          "name": "loanManager_",
          "type": "address"
        },
        {
          "internalType": "address",
          "name": "offerManager_",
          "type": "address"
        },
        {
          "internalType": "address",
          "name": "feeManager_",
          "type": "address"
        }
      ],
      "stateMutability": "nonpayable",
      "type": "constructor"
    },
    {
      "inputs": [],
      "name": "INTEREST_RATE_DENOMINATOR",
      "outputs": [
        {
          "internalType": "uint256",
          "name": "",
          "type": "uint256"
        }
      ],
      "stateMutability": "view",
      "type": "function"
    },
    {
      "inputs": [],
      "name": "PERCENT",
      "outputs": [
        {
          "internalType": "uint16",
          "name": "",
          "type": "uint16"
        }
      ],
      "stateMutability": "view",
      "type": "function"
    },
    {
      "inputs": [
        {
          "internalType": "uint256",
          "name": "principal",
          "type": "uint256"
        },
        {
          "internalType": "uint256",
          "name": "durationSecs",
          "type": "uint256"
        },
        {
          "internalType": "uint256",
          "name": "interest",
          "type": "uint256"
        }
      ],
      "name": "getFullInterestAmount",
      "outputs": [
        {
          "internalType": "uint256",
          "name": "",
          "type": "uint256"
        }
      ],
      "stateMutability": "pure",
      "type": "function"
    },
    {
      "inputs": [],
      "name": "nativeAddress",
      "outputs": [
        {
          "internalType": "address",
          "name": "",
          "type": "address"
        }
      ],
      "stateMutability": "view",
      "type": "function"
    },
    {
      "inputs": [
        {
          "internalType": "uint256",
          "name": "total",
          "type": "uint256"
        },
        {
          "internalType": "uint160",
          "name": "percent",
          "type": "uint160"
        }
      ],
      "name": "percentageOf",
      "outputs": [
        {
          "internalType": "uint256",
          "name": "",
          "type": "uint256"
        }
      ],
      "stateMutability": "pure",
      "type": "function"
    },
    {
      "inputs": [
        {
          "internalType": "uint256",
          "name": "principalAmount_",
          "type": "uint256"
        },
        {
          "internalType": "address",
          "name": "principalToken",
          "type": "address"
        },
        {
          "internalType": "address[]",
          "name": "collateralTokens",
          "type": "address[]"
        },
        {
          "internalType": "uint16",
          "name": "daysToMaturity",
          "type": "uint16"
        },
        {
          "internalType": "uint256",
          "name": "interest",
          "type": "uint256"
        },
        {
          "internalType": "uint16",
          "name": "daysToExpire",
          "type": "uint16"
        }
      ],
      "name": "createLendingOffer",
      "outputs": [],
      "stateMutability": "payable",
      "type": "function"
    },
    {
      "inputs": [
        {
          "internalType": "uint256",
          "name": "offerId",
          "type": "uint256"
        },
        {
          "internalType": "uint16",
          "name": "percentage",
          "type": "uint16"
        },
        {
          "internalType": "uint16",
          "name": "daysToMaturity",
          "type": "uint16"
        },
        {
          "internalType": "uint256",
          "name": "interest",
          "type": "uint256"
        },
        {
          "internalType": "uint16",
          "name": "hoursToExpire",
          "type": "uint16"
        }
      ],
      "name": "createLendingRequest",
      "outputs": [],
      "stateMutability": "payable",
      "type": "function"
    },
    {
      "inputs": [
        {
          "internalType": "uint256",
          "name": "offerId",
          "type": "uint256"
        },
        {
          "internalType": "uint16",
          "name": "percentage",
          "type": "uint16"
        }
      ],
      "name": "acceptBorrowingOffer",
      "outputs": [],
      "stateMutability": "payable",
      "type": "function"
    },
    {
      "inputs": [
        {
          "internalType": "uint256",
          "name": "requestId",
          "type": "uint256"
        }
      ],
      "name": "acceptBorrowingRequest",
      "outputs": [],
      "stateMutability": "nonpayable",
      "type": "function"
    },
    {
      "inputs": [
        {
          "internalType": "address",
          "name": "principalToken",
          "type": "address"
        },
        {
          "internalType": "uint256",
          "name": "principalAmount",
          "type": "uint256"
        },
        {
          "internalType": "address",
          "name": "collateralToken",
          "type": "address"
        },
        {
          "internalType": "uint256",
          "name": "interest",
          "type": "uint256"
        },
        {
          "internalType": "uint16",
          "name": "daysToMaturity",
          "type": "uint16"
        },
        {
          "internalType": "uint16",
          "name": "hoursToExpire",
          "type": "uint16"
        }
      ],
      "name": "createBorrowingOffer",
      "outputs": [],
      "stateMutability": "payable",
      "type": "function"
    },
    {
      "inputs": [
        {
          "internalType": "uint256",
          "name": "offerId",
          "type": "uint256"
        },
        {
          "internalType": "uint16",
          "name": "percentage",
          "type": "uint16"
        },
        {
          "internalType": "address",
          "name": "collateralToken",
          "type": "address"
        },
        {
          "internalType": "uint256",
          "name": "interest",
          "type": "uint256"
        },
        {
          "internalType": "uint16",
          "name": "daysToMaturity",
          "type": "uint16"
        },
        {
          "internalType": "uint16",
          "name": "hoursToExpire",
          "type": "uint16"
        }
      ],
      "name": "createBorrowingRequest",
      "outputs": [],
      "stateMutability": "payable",
      "type": "function"
    },
    {
      "inputs": [
        {
          "internalType": "uint256",
          "name": "offerId",
          "type": "uint256"
        },
        {
          "internalType": "uint16",
          "name": "percentage",
          "type": "uint16"
        },
        {
          "internalType": "address",
          "name": "collateralToken",
          "type": "address"
        }
      ],
      "name": "acceptLendingOffer",
      "outputs": [],
      "stateMutability": "payable",
      "type": "function"
    },
    {
      "inputs": [
        {
          "internalType": "uint256",
          "name": "requestId",
          "type": "uint256"
        }
      ],
      "name": "acceptLendingRequest",
      "outputs": [],
      "stateMutability": "payable",
      "type": "function"
    },
    {
      "inputs": [
        {
          "internalType": "uint256",
          "name": "offerId",
          "type": "uint256"
        },
        {
          "internalType": "uint16",
          "name": "toExpire",
          "type": "uint16"
        }
      ],
      "name": "reActivateOffer",
      "outputs": [],
      "stateMutability": "nonpayable",
      "type": "function"
    },
    {
      "inputs": [
        {
          "internalType": "uint256",
          "name": "loanId",
          "type": "uint256"
        },
        {
          "internalType": "uint16",
          "name": "percentage",
          "type": "uint16"
        }
      ],
      "name": "repayLoan",
      "outputs": [],
      "stateMutability": "payable",
      "type": "function"
    },
    {
      "inputs": [
        {
          "internalType": "uint256",
          "name": "requestId",
          "type": "uint256"
        }
      ],
      "name": "rejectRequest",
      "outputs": [],
      "stateMutability": "nonpayable",
      "type": "function"
    },
    {
      "inputs": [
        {
          "internalType": "uint256",
          "name": "requestId",
          "type": "uint256"
        }
      ],
      "name": "cancelLendRequest",
      "outputs": [],
      "stateMutability": "nonpayable",
      "type": "function"
    },
    {
      "inputs": [
        {
          "internalType": "uint256",
          "name": "requestId",
          "type": "uint256"
        }
      ],
      "name": "cancelBorrowRequest",
      "outputs": [],
      "stateMutability": "nonpayable",
      "type": "function"
    },
    {
      "inputs": [
        {
          "internalType": "uint256",
          "name": "loanId",
          "type": "uint256"
        }
      ],
      "name": "claimCollateral",
      "outputs": [],
      "stateMutability": "nonpayable",
      "type": "function"
    },
    {
      "inputs": [
        {
          "internalType": "uint256",
          "name": "loanId",
          "type": "uint256"
        }
      ],
      "name": "claimPrincipal",
      "outputs": [],
      "stateMutability": "nonpayable",
      "type": "function"
    },
    {
      "inputs": [
        {
          "internalType": "uint256",
          "name": "loanId",
          "type": "uint256"
        }
      ],
      "name": "claimDefaultCollateral",
      "outputs": [],
      "stateMutability": "nonpayable",
      "type": "function"
    },
    {
      "inputs": [
        {
          "internalType": "uint256",
          "name": "loanId",
          "type": "uint256"
        }
      ],
      "name": "repayLiquidatedLoan",
      "outputs": [],
      "stateMutability": "payable",
      "type": "function"
    },
    {
      "inputs": [
        {
          "internalType": "uint256",
          "name": "loanId",
          "type": "uint256"
        }
      ],
      "name": "liquidateLoan",
      "outputs": [],
      "stateMutability": "nonpayable",
      "type": "function"
    },
    {
      "inputs": [
        {
          "internalType": "address",
          "name": "ltv_",
          "type": "address"
        }
      ],
      "name": "setLTV",
      "outputs": [],
      "stateMutability": "nonpayable",
      "type": "function"
    },
    {
      "inputs": [
        {
          "internalType": "address",
          "name": "activity_",
          "type": "address"
        }
      ],
      "name": "setActivity",
      "outputs": [],
      "stateMutability": "nonpayable",
      "type": "function"
    },
    {
      "inputs": [
        {
          "internalType": "address",
          "name": "priceFeed_",
          "type": "address"
        }
      ],
      "name": "setPriceFeed",
      "outputs": [],
      "stateMutability": "nonpayable",
      "type": "function"
    },
    {
      "inputs": [
        {
          "internalType": "address",
          "name": "newOwner",
          "type": "address"
        }
      ],
      "name": "changeOwner",
      "outputs": [],
      "stateMutability": "nonpayable",
      "type": "function"
    },
    {
      "inputs": [
        {
          "internalType": "address",
          "name": "token",
          "type": "address"
        },
        {
          "internalType": "address payable",
          "name": "receiver",
          "type": "address"
        },
        {
          "internalType": "uint256",
          "name": "amount",
          "type": "uint256"
        }
      ],
      "name": "claim",
      "outputs": [],
      "stateMutability": "nonpayable",
      "type": "function"
    }
  ],
  "bytecode": "0x608034620000d557601f620041e338819003918201601f19168301916001600160401b03831184841017620000da57808492608094604052833981010312620000d5576200004d81620000f0565b906200005c60208201620000f0565b6200007860606200007060408501620000f0565b9301620000f0565b90600160005560018060a01b03928380928160018060a01b03199716876005541617600555168560065416176006551683600754161760075516816008541617600855339060015416176001556040516140dd9081620001068239f35b600080fd5b634e487b7160e01b600052604160045260246000fd5b51906001600160a01b0382168203620000d55756fe6080604052600436101561001257600080fd5b6000803560e01c806310e14e191461363a5780632672a87a146130ed5780632b994b4314612f815780632d7788db14612f2e5780632e47633714612f055780634add7c8214612a4557806353188b14146126375780635c7f31aa146121b857806361ba9443146121a8578063628118ee14611dc3578063724e78da14611d785780637cc5805a14611ba8578063996cba6814611a82578063a33928da14611655578063a6aea41514611540578063a6f9dae1146114f7578063b2ac850d1461148b578063b85a8b201461146f578063c1bc89ef146111ff578063c49785b4146110ea578063cc3266e8146110c7578063ccdd9f5d14610cbe578063e0b2695914610c8a578063e0f7dffd14610c5d578063e3f43fdb14610c12578063e826fbe714610440578063e9d1f8df146102a25763f9af05791461015157600080fd5b34610237576020366003190112610237578060043560018060a01b0380600654166040518091632820036560e11b82528460048301528160246102809485935afa91821561029757859261026a575b50506101b482610260830151163314613f23565b83826040830151166000805160206140888339815191528114600014610252575080806101c081940151818115610249575b3390f11561023a575b6006541690813b1561024557829160248392604051948593849263f9af057960e01b845260048401525af1801561023a576102275750f35b610230906136e4565b6102375780f35b80fd5b6040513d84823e3d90fd5b5050fd5b506108fc6101e6565b90506101c0610265920151903390613be4565b6101ef565b6102899250803d10610290575b610281818361370e565b810190613d93565b38806101a0565b503d610277565b6040513d87823e3d90fd5b5034610237576020366003190112610237578060043560018060a01b0380600754166040519063c58343ef60e01b82528360048301526101c0918281602481855afa928315610435578693610406575b505060016101a083015161030581613b58565b61030e81613b58565b0361040257846101008301516024604051809481936322bc934560e11b835260048301525afa8015610297576101608491879384916103e0575b5001511660008051602061408883398151915281036103c857508080610140819401518181156103bf575b3390f11561023a575b60075416803b1561024557604051639498506560e01b8152600481019290925233602483015282908290818381604481015b03925af1801561023a576102275750f35b506108fc610373565b90506101406103db920151903390613be4565b61037c565b6103fc91503d8086833e6103f4818361370e565b8101906139e7565b38610348565b8480fd5b610426929350803d1061042e575b61041e818361370e565b810190613c1d565b9038806102f2565b503d610414565b6040513d88823e3d90fd5b506060366003190112610237576104556136b1565b61045d61369b565b61046682613f9d565b6007546040516322bc934560e11b81526004803590820152926001600160a01b03909116908484602481855afa938415610297578594610bf6575b50604051633970062960e01b815260048035908201526001600160a01b038416602482015291602090839060449082905afa918215610297576104ff926104ef918791610bc7575b50613d47565b61ffff6080850151911690614063565b600354604084810151905163912d228f60e01b81526001600160a01b0391821660048201526024810184905291602091839160449183918a91165af1908115610297578591610b94575b50600480546040516322a0fe3360e21b81523392810192909252602482019290925290602090829060449082906001600160a01b03165afa908115610297578591610b5a575b506003546040858101519051631c07d98160e21b81526001600160a01b03918216600482015285821660248201526044810185905291602091839160649183918b91165af1908115610435578691610b28575b5060048054604051636882509b60e11b81529160209183919082906001600160a01b03165afa908115610b1d578791610ad7575b5061062e9260ff610628921690613d19565b90614063565b6000805160206140888339815191529390856001600160a01b038516868103610ac1575050348110610a845785945b60408301516001600160a01b03169084908203610a745750508480848015610a6a575b8280929181923390f115610a5f575b6005546101208301516001600160a01b039081169116803b15610a5b57604051638340f54960e01b81526001600160a01b03928316600482015291861660248301526044820183905286908290606490829084905af1908115610435578691610a47575b505060055461012083015160408401516001600160a01b03928316929081169116823b15610a4357604051633dae446f60e21b81526001600160a01b03918216600482015291166024820152604481018590529086908290606490829084905af1908115610435578691610a2f575b505060035460405163912d228f60e01b81526001600160a01b03868116600483015260248201849052909591602091879160449183918b91165af19485156104355786956109f6575b506006546101c084015160209286926001600160a01b03169189906107cf81613b58565b6108228a60018060a01b0360408b0151169260a08b015161ffff60c08d015116908c61012060018060a01b0391015116936040519c8d9b8c9a8b9963298b04a560e01b8b52339760043560048d01613b78565b03925af18015610297576109c7575b506007546001600160a01b0316803b156104025784809160446040518094819363f094cb9560e01b835260043560048401528860248401525af19081156102975785916109b3575b5050600354604091820151915163912d228f60e01b81526001600160a01b0392831660048201526024810193909352602091839116818681604481015b03925af1908115610969578391610979575b506002546001600160a01b0316803b15610974576040516311eba9df60e21b8152336004820152602481019290925283908290604490829084905af1908115610969578391610952575b50506002546001600160a01b0316803b156102455760405163094f618d60e11b8152336004820152602481019290925282908290818381604481016103ae565b61095b906136e4565b610966578138610912565b50fd5b6040513d85823e3d90fd5b505050fd5b9250506020823d6020116109ab575b816109956020938361370e565b810103126109a657829151386108c8565b600080fd5b3d9150610988565b6109bc906136e4565b610974578338610879565b6020809295503d83116109ef575b6109df818361370e565b810103126109a657839238610831565b503d6109d5565b955093506020853d602011610a27575b81610a136020938361370e565b810103126109a657935185949093836107ab565b3d9150610a06565b610a38906136e4565b610402578438610762565b8780fd5b610a50906136e4565b6104025784386106f3565b8680fd5b6040513d86823e3d90fd5b6108fc9150610680565b610a7f913390613be4565b61068f565b60405162461bcd60e51b815260206004820152601560248201527411549497d0d3d31310551154905317d05353d55395605a1b6044820152606490fd5b82610ad29197929730903390613748565b61065d565b90506020813d602011610b15575b81610af26020938361370e565b81010312610a5b5761062e9260ff610b0c61062893613d0b565b92505092610616565b3d9150610ae5565b6040513d89823e3d90fd5b90506020813d602011610b52575b81610b436020938361370e565b810103126109a65751386105e2565b3d9150610b36565b90506020813d602011610b8c575b81610b756020938361370e565b8101031261040257610b86906139c4565b3861058f565b3d9150610b68565b90506020813d602011610bbf575b81610baf6020938361370e565b810103126109a657516020610549565b3d9150610ba2565b610be9915060203d602011610bef575b610be1818361370e565b81019061379b565b386104e9565b503d610bd7565b610c0b9194503d8087833e6103f4818361370e565b92386104a1565b503461023757602036600319011261023757610c2c613685565b6001546001600160a01b039190610c469083163314613f60565b166001600160601b0360a01b600254161760025580f35b5034610237576060366003190112610237576020610c82604435602435600435614036565b604051908152f35b503461023757604036600319011261023757602435906001600160a01b0382168203610237576020610c8283600435614063565b50346102375780602080600319360112610966576001546001600160a01b039190610cec9083163314613f60565b8160065416906040518092632820036560e11b825260043560048301528160246102809586935afa9283156102975785936110a8575b5050610d3361014083015142613f00565b92610d4b60a084019485519061012086015191614036565b6003546040858101516060870180519251631c07d98160e21b8082526001600160a01b03938816841660048301529387169290921660248301526044820185905295939092849084908716818c816064810103925af1928315611069578993611074575b5083610e0991888a8c610dd48a6040816003541695015116948b8d5116935190613f00565b6040518881526001600160a01b0395861660048201529290941660248301526044820193909352938492839182906064820190565b03925af1908115611069578991611037575b50889084866008541660046040518095819363a001ecdd60e01b83525af190811561102c578a91610ff0575b610e519250614063565b9260e08701968751610e638686613f00565b11610f5a57505050610e758282613f00565b95519451818110610f3d575050915b81806008541691511690803b15610a5b5760405163ef6506db60e01b81526001600160a01b039290921660048301526024820184905286908290604490829084905af1908115610435578691610f29575b5050610ee690600654169184613f00565b90803b1561040257604051633799ba3f60e01b815260048035908201526024810193909352604483019390935260648201529082908290818381608481016103ae565b610f32906136e4565b610402578438610ed5565b909550610f4e610f54928297613f00565b90613f00565b91610e84565b965160035487516040998a015199519485526001600160a01b039088168116600486015298871690981660248401526044830181905297509395909250839150829060649082908a9089165af1918215610435578692610fbf575b5050918491610e84565b8196508092503d8311610fe9575b610fd7818361370e565b810103126109a6578493513880610fb5565b503d610fcd565b90508482813d8311611025575b611007818361370e565b810103126110215761101b610e51926139c4565b90610e47565b8980fd5b503d610ffd565b6040513d8c823e3d90fd5b809950848092503d8311611062575b611050818361370e565b810103126109a6578880985190610e1b565b503d611046565b6040513d8b823e3d90fd5b985091508288813d81116110a1575b61108d818361370e565b810103126109a65796518897909183610daf565b503d611083565b6110bf929350803d1061029057610281818361370e565b903880610d22565b50346102375780600319360112610237576020604051670de0b6b3a76400008152f35b5034610237576020366003190112610237578060043560018060a01b0380600654166040518091632820036560e11b82528460048301528160246102809485935afa9182156102975785926111e2575b505061114e82610240830151163314613ec1565b838260608301511660008051602061408883398151915281146000146111ca575080806101e0819401518181156111c1575b3390f11561023a575b6006541690813b15610245578291602483926040519485938492633125e16d60e21b845260048401525af1801561023a576102275750f35b506108fc611180565b90506101e06111dd920151903390613be4565b611189565b6111f89250803d1061029057610281818361370e565b388061113a565b5060c0366003190112610237576001600160a01b0360243581811691600435908383036109a6576044359367ffffffffffffffff851161146b573660238601121561146b5784600401359161125383613730565b611260604051918261370e565b8381526020968782016024819660051b8301019136831161146757602401905b82821061144f575050506064359461ffff908187168097036109a6576112a46136d3565b9083511561140a578a60008051602061408883398151915287036113f757905034985b8560055416803b156113f357604051638340f54960e01b81523360048201526001600160a01b03929092166024830152604482018b905282908290606490829084905af1801561023a576113df575b5093919289979896938360079793975416966040519a8b9963031137cd60e61b8b5260e48b019560048c015260248b015260843560448b015260648a015216608488015260e060a4880152518091526101048601929184905b8282106113be5750505050908380923360c483015203925af1801561096957611396578280f35b813d83116113b7575b6113a9818361370e565b810103126109a65738808280f35b503d61139f565b8351811685528a988a98508c9650948501949093019260019091019061136f565b6113e8906136e4565b611021578938611316565b8280fd5b90986114058a30338a613748565b6112c7565b60405162461bcd60e51b8152600481018b9052601760248201527f4552525f4e4f5f434f4c4c41544552414c5f54595045530000000000000000006044820152606490fd5b813585811681036109a6578152908901908901611280565b8a80fd5b8580fd5b5034610237578060031936011261023757602060405160648152f35b503461023757604036600319011261023757806114a66136b1565b6007546001600160a01b031690813b156102455761ffff6064849283604051958694859363099bfe6b60e01b855260043560048601521660248401523360448401525af1801561023a576102275750f35b503461023757602036600319011261023757611511613685565b600154906001600160a01b039061152b3383851614613f60565b16906001600160601b0360a01b161760015580f35b5034610237576020366003190112610237578060043560018060a01b0380600654166040518091632820036560e11b82528460048301528160246102809485935afa918215610297578592611638575b50506115a482610260830151163314613f23565b838260608301511660008051602061408883398151915281146000146116205750808061020081940151818115611617575b3390f11561023a575b6006541690813b1561024557829160248392604051948593849263a6aea41560e01b845260048401525af1801561023a576102275750f35b506108fc6115d6565b9050610200611633920151903390613be4565b6115df565b61164e9250803d1061029057610281818361370e565b3880611590565b5060403660031901126102375761166a6136b1565b61167381613f9d565b6007546040516322bc934560e11b815260048035908201526001600160a01b039184908290602490829086165afa908115610a5f578491611a68575b50610120810191808351163314611a2d5784936116e56116da61ffff6101a086015193168093614063565b916080850151614063565b90604084019183835116816000805160206140888339815191528214600014611a095790503410610a5b578680808084888b5116828215611a00575bf115610435575b83600554169484875116956101608201968688511690823b1561146757604051633c6340f360e21b81526001600160a01b03918216600482015233602482015291166044820152606481018590529089908290608490829084905af19081156110695789916119ec575b50600354875160405163912d228f60e01b8082529189166001600160a01b0316600482015260248101879052602099919493919290918a9183916044918391908d165af19081156119e1578b916119ae575b50849289928c896118458c958f8c908860065416978051938a806101c08401519861180e8a613b58565b51169951169a61ffff60c060a085015194015116935116936040519d8e9c8d9b8c9a63298b04a560e01b8c52339960048d01613b78565b03925af1801561106957611980575b508460075416803b1561197c576040516324b42bc160e01b8152600480359082015260248101849052604481019490945288908490606490829084905af180156119715786938991611958575b50600354945160405192835286166001600160a01b03166004830152602482019290925292839160449183919087165af1928315610297578593611925575b5050806002541692511690823b15610974576040516311eba9df60e21b81526001600160a01b03909216600483015260248201529082908290818381604481016103ae565b819550809293503d8311611951575b61193e818361370e565b810103126109a6578392519038806118e0565b503d611934565b611964919294506136e4565b610a5b57849187386118a1565b6040513d8a823e3d90fd5b8880fd5b86809299503d83116119a7575b611997818361370e565b810103126109a657879638611854565b503d61198d565b809b50898092503d83116119da575b6119c7818361370e565b810103126109a65798518a9990846117e4565b503d6119bd565b6040513d8d823e3d90fd5b6119f5906136e4565b610a43578738611792565b506108fc611721565b611a169130903390613748565b611a2881858551168689511690613be4565b611728565b60405162461bcd60e51b815260206004820152601360248201527222a9292fa1a0a72a2fa127a92927abafa7aba760691b6044820152606490fd5b611a7c91503d8086833e6103f4818361370e565b386116af565b503461023757606036600319011261023757611a9c613685565b6001600160a01b0360243581811690819003611ba45760443591611ac581600154163314613f60565b8215611b6d5784938160085416803b1561146b576040516331b5f13d60e11b81526001600160a01b0383166004820152602481018690529086908290604490829084905af1908115610435578691611b59575b5050166000805160206140888339815191528103611b4c5750828092819282f115611b405780f35b604051903d90823e3d90fd5b611b569350613be4565b80f35b611b62906136e4565b610402578438611b18565b60405162461bcd60e51b815260206004820152600f60248201526e11549497d6915493d7d05353d55395608a1b6044820152606490fd5b8380fd5b5060a036600319011261023757600435611bc06136b1565b9060443561ffff928382168092036109a65784611bdb6136c2565b94611be583613f9d565b6007546040516322bc934560e11b8152600481018790526001600160a01b039184908290602490829086165afa908115610a5f578491611d5e575b506040611c3584608084015197168097614063565b91019082825116816000805160206140888339815191528214600014611d4c5790503410610402575b82806005541692511690823b1561146b57604051638340f54960e01b81523360048201526001600160a01b0392909216602483015260448201529084908290606490829084905af18015610a5f57611d2d575b509060209560c494939260075416916040519889978896630b438b8960e41b885260048801526064356024880152604487015216606485015233608485015260a48401525af1801561023a57611d05575080f35b602090813d8111611d26575b611d1b818361370e565b810103126109a65780f35b503d611d11565b92611d3b81939295946136e4565b611d485790919238611cb1565b5080fd5b611d599130903390613748565b611c5e565b611d7291503d8086833e6103f4818361370e565b38611c20565b503461023757602036600319011261023757611d92613685565b6001546001600160a01b039190611dac9083163314613f60565b166001600160601b0360a01b600354161760035580f35b5060403660031901126102375780600435611ddc6136b1565b90611de682613f9d565b600654604051632820036560e11b8152600481018390529261028092916001600160a01b03919084908690602490829086165afa9485156104355786948596612189575b5050611e3e82610240870151163314613ec1565b611e4d61014086015142613f00565b94611e81611e73611e6861ffff608085015195168095614063565b9360c0840151614063565b966101208301519084614036565b93611e8c8386613f00565b9184600854166040519063a001ecdd60e01b82528160048160209b8c945af190811561102c578a9161214d575b50611ec7611ece9185614063565b8094613f00565b91604086600854169201938685511690833b156121495760405163ef6506db60e01b81526001600160a01b039290921660048301526024820152918a908390604490829084905af192831561102c578a86938a9561212b575b50876006541692611f656040519c8d968795869463094bb9f160e11b8652600486019094939260609260808301968352602083015260408201520152565b03925af1958615610b1d57879661210c575b50868382511660008051602061408883398151915281146000146120f6575050833410610a5b5786935b85611fed8560035416611fb8868887511695613f00565b60405163912d228f60e01b8082526001600160a01b039096166004820152602481019190915297889283919082906044820190565b03925af19485156119715788956120be575b50600354915160405191825284166001600160a01b0316600482015260248101929092528490829060449082908a9087165af193841561043557869461208b575b505060025416803b156104025784928360849260405196879586946311dd211f60e31b865233600487015260248601526044850152151560648401525af1801561023a576102275750f35b819650809294503d83116120b7575b6120a4818361370e565b810103126109a657849351913880612040565b503d61209a565b9297509350908481813d81116120ef575b6120d9818361370e565b810103126109a657518796909390919085611fff565b503d6120cf565b856121079196929630903390613748565b611fa1565b612124919650853d8711610bef57610be1818361370e565b9438611f77565b9092945061213a9193506136e4565b61197c57869184918a38611f27565b8b80fd5b90508781813d8311612182575b612164818361370e565b8101031261102157611ec761217b611ece926139c4565b9150611eb9565b503d61215a565b6121a0929650803d1061029057610281818361370e565b933880611e2a565b5060203660031901126102375780f35b5060203660031901126102375760075460405163c58343ef60e01b8152600480359082015282916001600160a01b0316906101c081602481855afa908115610969578391612616575b50826101008201516024604051809581936322bc934560e11b835260048301525afa9182156109695783926125fa575b5061224a6101a083015161ffff60408401511690614063565b91612262608082015161ffff60408501511690614063565b60408201519092906001600160a01b03168360008051602061408883398151915282036125ea57505084808480156125e0575b8280929181923390f115610a5f575b60055460e08201516101608401516001600160a01b03928316929081169116823b15610a4357604051638340f54960e01b81526001600160a01b03918216600482015291166024820152604481018690529086908290606490829084905af19081156104355786916125cc575b505060055460e082015160408401516001600160a01b03928316929081169116823b15610a4357604051633dae446f60e21b81526001600160a01b03918216600482015291166024820152604481018590529086908290606490829084905af19081156104355786916125b8575b505060035461016083015160405163912d228f60e01b81526001600160a01b039182166004820152602481018790529591602091879160449183918b91165af194851561043557869561257f575b506006546101008301516101c0850151869460209490936001600160a01b031692918a91612459906123fe83613b58565b60018060a01b0360408b0151169460018060a01b036101608c015116978d60808201519061ffff6060840151169260e060018060a01b0391015116946040519d8e9c8d9b8c9a63298b04a560e01b8c52339860048d01613b78565b03925af1801561029757612550575b5060018060a01b03600754168151813b1561146b57859160448392604051948593849263f094cb9560e01b845260048401528860248401525af190811561029757859161253c575b50506007546001600160a01b0316803b1561040257604051636d5d42c560e11b815260048035908201523360248201529085908290604490829084905af19081156102975785916109b3575050600354604091820151915163912d228f60e01b81526001600160a01b0392831660048201526024810193909352602091839116818681604481016108b6565b612545906136e4565b6109745783386124b0565b6020809295503d8311612578575b612568818361370e565b810103126109a657839238612468565b503d61255e565b955093506020853d6020116125b0575b8161259c6020938361370e565b810103126109a657935185949093836123cd565b3d915061258f565b6125c1906136e4565b61040257843861237f565b6125d5906136e4565b610402578438612311565b6108fc9150612295565b6125f5913390613be4565b6122a4565b61260f9192503d8085833e6103f4818361370e565b9038612231565b61263191506101c03d6101c01161042e5761041e818361370e565b38612201565b5060c0366003190112610237578061264d613685565b61265561369b565b61265d6136c2565b906126666136d3565b60035460405163912d228f60e01b81526001600160a01b03868116600483015260248035908301526020969095939493929091908790829060449082908c908b165af1908115611971578891612a12575b50600480546040516322a0fe3360e21b815233928101929092526024820192909252908790829060449082908a165afa9081156119715788916129dd575b50600354604051631c07d98160e21b81526001600160a01b0384811660048301528616602480830191909152356044820152908890829060649082908d908c165af19081156110695789916129ac575b506004888882541660405192838092636882509b60e11b82525afa90811561102c578a9161296b575b506127809260ff610628921690613d19565b9383861692600080516020614088833981519152840361295a5785341061197c575b866005541692833b1561102157604051638340f54960e01b81523360048201526001600160a01b038716602482015260448101889052938a908590606490829084905af1801561102c57899389938c9261293c575b84610104959697506007541691604051988997889663486c386960e11b885216600487015260248601528a60448601526024356064860152606435608486015261ffff80921660a48601521660c48401523360e48401525af180156104355761290e575b5060035460405163912d228f60e01b81526001600160a01b03929092166004830152602482019290925290839082906044908290889087165af1928315610a5f5784936128db575b505060025416803b156102455760405163094f618d60e11b8152336004820152602481019290925282908290818381604481016103ae565b819450809293503d8311612907575b6128f4818361370e565b810103126109a6578291519038806128a3565b503d6128ea565b84809296503d8311612935575b612925818361370e565b810103126109a65784933861285b565b503d61291b565b94509250909361294b906136e4565b61197c57828988928a946127f7565b61296686303387613748565b6127a2565b90508881813d83116129a5575b612982818361370e565b81010312611021576127809260ff61299c61062893613d0b565b9250509261276e565b503d612978565b809950888092503d83116129d6575b6129c5818361370e565b810103126109a65788975138612745565b503d6129bb565b90508681813d8311612a0b575b6129f4818361370e565b81010312610a4357612a05906139c4565b386126f5565b503d6129ea565b809850878092503d8311612a3e575b612a2b818361370e565b810103126109a6579551879690866126b7565b503d612a21565b50346102375760203660031901126102375760075460405163c58343ef60e01b8152600480359082015282916001600160a01b03166101c082602481845afa918215610969578392612ee2575b50826101008301516024604051809481936322bc934560e11b835260048301525afa908115610969578391612ec8575b50612ada608082015161ffff60408501511690614063565b60408201519091906001600160a01b0316826000805160206140888339815191528203612ea95760e0850151869250829182918291906001600160a01b0316828215612ea0575bf115610969575b60055460e08401516101208501516101408601516001600160a01b039182169392821692909116803b15610a4357604051633c6340f360e21b81526001600160a01b039384166004820152336024820152939092166044840152606483015285908290608490829084905af1908115610297578591612e8c575b505060055460408201516001600160a01b039081169116803b1561146b57604051633dae446f60e21b81523360048201526001600160a01b039290921660248301526044820184905285908290606490829084905af1908115610297578591612e78575b505081602060018060a01b0360065416610100860151906101c0850151612c2c81613b58565b8860018060a01b0360408801511691612c9760018060a01b036101208c015116956101408c01518c61016081015160808201519061ffff6060840151169260e060018060a01b0391015116936040519d8e9c8d9b8c9a63298b04a560e01b8c52339960048d01613b78565b03925af1801561029757612e49575b5060018060a01b0360075416610100840151610140850151823b15610a5b576040516324b42bc160e01b815260048101929092526024820185905260448201529085908290606490829084905af1908115610297578591612e35575b50506007546001600160a01b0316803b1561040257604051636d5d42c560e11b815260048035908201523360248201529085908290604490829084905af1908115610297578591612e21575b5050600354604091820151915163912d228f60e01b81526001600160a01b0392831660048201526024810193909352602091839160449183918891165af1908115610969578391612dec575b5060025460e0909201516001600160a01b03928316921690823b15610974576040516311eba9df60e21b81526001600160a01b03909216600483015260248201529082908290818381604481016103ae565b9250506020823d602011612e19575b81612e086020938361370e565b810103126109a65782915138612d9a565b3d9150612dfb565b612e2a906136e4565b610974578338612d4e565b612e3e906136e4565b610974578338612d02565b6020809295503d8311612e71575b612e61818361370e565b810103126109a657839238612ca6565b503d612e57565b612e81906136e4565b610974578338612c06565b612e95906136e4565b610974578338612ba2565b506108fc612b21565b60e0850151612ec3926001600160a01b0390911690613be4565b612b28565b612edc91503d8085833e6103f4818361370e565b38612ac2565b612efe9192506101c03d6101c01161042e5761041e818361370e565b9038612a92565b503461023757806003193601126102375760206040516000805160206140888339815191528152f35b50346102375760203660031901126102375760075481906001600160a01b0316803b156109665760405163774d3df560e01b815260048035908201523360248201529082908290818381604481016103ae565b5034610237576020366003190112610237578060043560018060a01b0380600754166040519063c58343ef60e01b82528360048301526101c0918281602481855afa9283156104355786936130ce575b50506101a0820151612fe281613b58565b612feb81613b58565b61040257846101008301516024604051809481936322bc934560e11b835260048301525afa908115610297578592849184936130ab575b5061303c60409161ffff8360808701519201511690614063565b92015116600080516020614088833981519152810361309f5750818080928181156103bf573390f11561023a5760075416803b1561024557604051639498506560e01b8152600481019290925233602483015282908290818381604481016103ae565b6103db92503390613be4565b60409193506130c661303c913d8088833e6103f4818361370e565b939150613022565b6130e5929350803d1061042e5761041e818361370e565b903880612fd1565b5060c0366003190112610237576131026136b1565b9061310b61369b565b906131146136c2565b9161311d6136d3565b9361312781613f9d565b6007546040516322bc934560e11b815260048035908201526001600160a01b03909116959084816024818a5afa908115610297578591613620575b50604051633970062960e01b815260048035908201526001600160a01b038516602482015296602090889060449082905afa96871561029757613206976131af918791610bc75750613d47565b6131c2608082015161ffff851690614063565b600354604080840151905163912d228f60e01b81526001600160a01b03918216600482015260248101849052999293926020928b92169082908a9082906044820190565b03925af19788156104355786986135eb575b50600480546040516322a0fe3360e21b8152339281019290925260248201999099529697959695602090879060449082906001600160a01b03165afa958615610b1d5787966135a7575b506003546040918201519151631c07d98160e21b81526001600160a01b03928316600482015282871660248201526044810193909352602091839116818981606481015b03925af1908115610435578691613575575b5060048054604051636882509b60e11b81529160209183919082906001600160a01b03165afa908115610b1d57879161352f575b509061062860ff6132fe931687613d19565b906001600160a01b038416600080516020614088833981519152036135155734821061146b575b6005546001600160a01b031696873b15610a5b57604051638340f54960e01b81523360048201526001600160a01b0386166024820152604481018490529787908990606490829084905af18015610b1d57613501575b60035460405163912d228f60e01b81526001600160a01b038781166004830152602482018690529899508998909791602091899160449183918d91165af19687156119715788976134c0575b50600754604051633bb1374b60e01b815261ffff9687166004808301919091526001600160a01b039889166024830152604482019690965260648082018a90529288166084820152913560a483015291851660c48201529190931660e48201523361010482015290356101248201529160209183916101449183918891165af1801561096957613491575b506002546001600160a01b0316803b156102455760405163094f618d60e11b8152336004820152602481019290925282908290818381604481016103ae565b6020809293503d83116134b9575b6134a9818361370e565b810103126109a657819038613452565b503d61349f565b9750955091926020873d6020116134f9575b816134df6020938361370e565b810103126109a6579551879690959093929061ffff6133c7565b3d91506134d2565b95909661350d906136e4565b94869061337b565b61352a8230336001600160a01b038816613748565b613325565b90506020813d60201161356d575b8161354a6020938361370e565b81010312610a5b579061062860ff6135646132fe94613d0b565b929350506132ec565b3d915061353d565b90506020813d60201161359f575b816135906020938361370e565b8101031261146b5751386132b8565b3d9150613583565b9095506020813d6020116135e3575b816135c36020938361370e565b81010312610a5b576132a6916135da6020926139c4565b96915091613262565b3d91506135b6565b97506020883d602011613618575b816136066020938361370e565b8101031261146b579651966020613218565b3d91506135f9565b61363491503d8087833e6103f4818361370e565b38613162565b503461023757602036600319011261023757613654613685565b6001546001600160a01b03919061366e9083163314613f60565b166001600160601b0360a01b600454161760045580f35b600435906001600160a01b03821682036109a657565b604435906001600160a01b03821682036109a657565b6024359061ffff821682036109a657565b6084359061ffff821682036109a657565b60a4359061ffff821682036109a657565b67ffffffffffffffff81116136f857604052565b634e487b7160e01b600052604160045260246000fd5b90601f8019910116810190811067ffffffffffffffff8211176136f857604052565b67ffffffffffffffff81116136f85760051b60200190565b6040516323b872dd60e01b60208201526001600160a01b03928316602482015292909116604483015260648201929092526137999161379482608481015b03601f19810184528361370e565b6137b3565b565b908160209103126109a6575180151581036109a65790565b6040805167ffffffffffffffff94936001600160a01b039093169290918201858111838210176136f8576040526020928383527f5361666545524332303a206c6f772d6c6576656c2063616c6c206661696c6564848401526000808386829551910182855af1903d156138e3573d9687116138cf576138539495966040519061384588601f19601f840116018361370e565b81528093873d92013e6138f0565b8051908161386057505050565b828061387093830101910161379b565b156138785750565b6084906040519062461bcd60e51b82526004820152602a60248201527f5361666545524332303a204552433230206f7065726174696f6e20646964206e6044820152691bdd081cdd58d8d9595960b21b6064820152fd5b634e487b7160e01b83526041600452602483fd5b9150613853939495506060915b919290156139525750815115613904575090565b3b1561390d5790565b60405162461bcd60e51b815260206004820152601d60248201527f416464726573733a2063616c6c20746f206e6f6e2d636f6e74726163740000006044820152606490fd5b8251909150156139655750805190602001fd5b6040519062461bcd60e51b82528160208060048301528251908160248401526000935b8285106139ab575050604492506000838284010152601f80199101168101030190fd5b8481018201518686016044015293810193859350613988565b51906001600160a01b03821682036109a657565b519061ffff821682036109a657565b60209182828203126109a657815167ffffffffffffffff928382116109a65701916101e09384848403126109a657604051948501858110838211176136f857604052835185528084015160028110156109a65781860152613a4a604085016139c4565b6040860152606084015160608601526080840151608086015260a084015160a0860152613a7960c085016139d8565b60c086015260e084015160e08601526101008085015190860152610120613aa18186016139c4565b9086015261014091828501519081116109a65784019280601f850112156109a6578351613acd81613730565b94613adb604051968761370e565b818652838087019260051b8201019283116109a6578301905b828210613b415750505050830152610160613b108183016139c4565b9083015261018080820151908301526101a080820151908301526101c0809101519060028210156109a65782015290565b838091613b4d846139c4565b815201910190613af4565b60021115613b6257565b634e487b7160e01b600052602160045260246000fd5b9995919b9a97939894909b9692966101608b019c8b52613b9781613b58565b60208b0152600160a01b6001900380998180991660408d01521660608b015260808a015260a089015260c088015260e087015261ffff166101008601521661012084015216906101400152565b60405163a9059cbb60e01b60208201526001600160a01b0390921660248301526044820192909252613799916137948260648101613786565b80916101c092839103126109a65760405191820182811067ffffffffffffffff8211176136f85760405280518252602081015160048110156109a6576020830152613c6a604082016139d8565b6040830152613c7b606082016139d8565b60608301526080810151608083015260a081015160a083015260c081015160c0830152613caa60e082016139c4565b60e08301526101008082015190830152610120613cc88183016139c4565b9083015261014080820151908301526101608082015190830152610180613cf08183016139c4565b908301526101a0809101519060028210156109a65782015290565b519060ff821682036109a657565b6001600160a01b0391821691908215613d3157160490565b634e487b7160e01b600052601260045260246000fd5b15613d4e57565b60405162461bcd60e51b815260206004820152601c60248201527f4552525f434f4c4c41544552414c5f4e4f545f535550504f52544544000000006044820152606490fd5b809161028092839103126109a65760405191820182811067ffffffffffffffff8211176136f85760405280518252602081015160048110156109a6576020830152613de0604082016139c4565b6040830152613df1606082016139c4565b60608301526080810151608083015260a081015160a083015260c081015160c083015260e081015160e08301526101008082015190830152610120808201519083015261014080820151908301526101608082015190830152610180613e588183016139d8565b908301526101a0613e6a818301613d0b565b908301526101c080820151908301526101e0808201519083015261020080820151908301526102208082015190830152610240613ea88183016139c4565b90830152613eba6102608092016139c4565b9082015290565b15613ec857565b60405162461bcd60e51b815260206004820152601060248201526f22a9292fa727aa2fa127a92927aba2a960811b6044820152606490fd5b91908203918211613f0d57565b634e487b7160e01b600052601160045260246000fd5b15613f2a57565b60405162461bcd60e51b815260206004820152600e60248201526d22a9292fa727aa2fa622a72222a960911b6044820152606490fd5b15613f6757565b60405162461bcd60e51b815260206004820152600e60248201526d22a9292fa7a7262cafa7aba722a960911b6044820152606490fd5b61ffff80911660648111613fec576019900616613fb657565b60405162461bcd60e51b815260206004820152600e60248201526d4552525f50455243454e5441474560901b6044820152606490fd5b60405162461bcd60e51b815260206004820152600f60248201526e4f5645525f50455243454e5441474560881b6044820152606490fd5b81810292918115918404141715613f0d57565b91614055606492614050670de0b6b3a76400009386614023565b614023565b04048101809111613f0d5790565b906001600160a01b031680156140835761407f90606492614023565b0490565b509056fe000000000000000000000000eeeeeeeeeeeeeeeeeeeeeeeeeeeeeeeeeeeeeeeea26469706673582212208fb906414678869d08d2f5d9420282b1d9cf308ba618b3cac44ac847c5a000fd64736f6c63430008110033",
  "immutableReferences": {},
  "source": "// SPDX-License-Identifier: GPL-3.0\r\npragma solidity >=0.7.0 <0.9.0;\r\n\r\nimport \"./Activity.sol\";\r\n\r\nimport \"./libraries/Errors.sol\";\r\nimport \"./libraries/PoolLibrary.sol\";\r\n\r\nimport \"./math/SimpleInterest.sol\";\r\n\r\nimport \"./interfaces/IPriceFeed.sol\";\r\nimport \"./interfaces/ILoanToValueRatio.sol\";\r\nimport \"./interfaces/IFeeManager.sol\";\r\n\r\nimport \"./managers/LoanManager.sol\";\r\nimport \"./managers/OfferManager.sol\";\r\nimport \"./managers/PoolManager.sol\";\r\n\r\nimport \"@openzeppelin/contracts/utils/Context.sol\";\r\nimport \"@openzeppelin/contracts/token/ERC20/ERC20.sol\";\r\nimport \"@openzeppelin/contracts/token/ERC20/utils/SafeERC20.sol\";\r\nimport \"@openzeppelin/contracts/security/ReentrancyGuard.sol\";\r\n\r\n/*\r\n    LendingPool is the core contract of the DARSH protocol.\r\n    It interacts with managers, price feed, loan-to-Value ratio, math libraries,\r\n    trust score, and others to carry out the peer to peer functionality.\r\n*/\r\n\r\ncontract LendingPool is Context, ReentrancyGuard, SimpleInterest {\r\n    using SafeERC20 for ERC20;\r\n\r\n    address deployer;\r\n\r\n    Activity private _activity;\r\n    IPriceFeed private _priceFeed;\r\n    ILoanToValueRatio private _ltv;\r\n\r\n    // managers\r\n    PoolManager private _poolManager;\r\n    LoanManager private _loanManager;\r\n    OfferManager private _offerManager;\r\n    IFeeManager private _feeManager;\r\n\r\n    address public constant nativeAddress =\r\n        0xEeeeeEeeeEeEeeEeEeEeeEEEeeeeEeeeeeeeEEeE;\r\n\r\n    constructor(\r\n        address poolManager_,\r\n        address loanManager_,\r\n        address offerManager_,\r\n        address feeManager_\r\n    ) ReentrancyGuard() {\r\n        _poolManager = PoolManager(poolManager_);\r\n        _loanManager = LoanManager(loanManager_);\r\n        _offerManager = OfferManager(offerManager_);\r\n        _feeManager = IFeeManager(feeManager_);\r\n\r\n        deployer = _msgSender();\r\n    }\r\n\r\n    // @lenders\r\n    function createLendingOffer(\r\n        uint256 principalAmount_, // only for ERC20 assets\r\n        address principalToken,\r\n        address[] memory collateralTokens,\r\n        uint16 daysToMaturity,\r\n        uint256 interest,\r\n        uint16 daysToExpire\r\n    ) public payable {\r\n        uint256 principalAmount;\r\n\r\n        require(collateralTokens.length > 0, \"ERR_NO_COLLATERAL_TYPES\");\r\n\r\n        /* extract tokens from lender */\r\n        if (principalToken == nativeAddress) {\r\n            principalAmount = msg.value;\r\n        } else {\r\n            principalAmount = principalAmount_;\r\n            ERC20(principalToken).safeTransferFrom(\r\n                _msgSender(),\r\n                address(this),\r\n                principalAmount\r\n            );\r\n        }\r\n\r\n        /* delegate principal to lender */\r\n        _poolManager.deposit(_msgSender(), principalToken, principalAmount);\r\n\r\n        /* create the lending offer */\r\n        _offerManager.createLendingOffer(\r\n            principalToken,\r\n            principalAmount,\r\n            interest,\r\n            daysToMaturity,\r\n            daysToExpire,\r\n            collateralTokens,\r\n            _msgSender()\r\n        );\r\n    }\r\n\r\n    // @lenders\r\n    function createLendingRequest(\r\n        uint256 offerId,\r\n        uint16 percentage,\r\n        uint16 daysToMaturity,\r\n        uint256 interest,\r\n        uint16 hoursToExpire\r\n    ) public payable {\r\n        _checkPercentage(percentage);\r\n\r\n        OfferLibrary.Offer memory offer = _offerManager.getOffer(offerId);\r\n\r\n        uint256 principalAmount = percentageOf(\r\n            offer.initialPrincipal,\r\n            percentage\r\n        );\r\n\r\n        /* extract tokens from lender */\r\n        if (offer.principalToken == nativeAddress) {\r\n            require(msg.value >= principalAmount);\r\n        } else {\r\n            ERC20(offer.principalToken).safeTransferFrom(\r\n                _msgSender(),\r\n                address(this),\r\n                principalAmount\r\n            );\r\n        }\r\n\r\n        /* delegate principal to lender */\r\n        _poolManager.deposit(\r\n            _msgSender(),\r\n            offer.principalToken,\r\n            principalAmount\r\n        );\r\n\r\n        /* create the lending request */\r\n        _offerManager.createLendingRequest(\r\n            percentage,\r\n            interest,\r\n            daysToMaturity,\r\n            hoursToExpire,\r\n            _msgSender(),\r\n            offerId\r\n        );\r\n    }\r\n\r\n    // @lenders\r\n    function acceptBorrowingOffer(uint256 offerId, uint16 percentage)\r\n        public\r\n        payable\r\n    {\r\n        _checkPercentage(percentage);\r\n\r\n        OfferLibrary.Offer memory offer = _offerManager.getOffer(offerId);\r\n\r\n        require(_msgSender() != offer.creator, \"ERR_CANT_BORROW_OWN\");\r\n\r\n        uint256 collateralAmount = percentageOf(\r\n            offer.initialCollateral,\r\n            percentage\r\n        );\r\n\r\n        uint256 principalAmount = percentageOf(\r\n            offer.initialPrincipal,\r\n            percentage\r\n        );\r\n\r\n        /* extract principal from lender/caller and transfer to borrower */\r\n        if (offer.principalToken == nativeAddress) {\r\n            require(msg.value >= principalAmount);\r\n            payable(offer.creator).transfer(principalAmount);\r\n        } else {\r\n            ERC20(offer.principalToken).safeTransferFrom(\r\n                _msgSender(),\r\n                address(this),\r\n                principalAmount\r\n            );\r\n            ERC20(offer.principalToken).safeTransfer(\r\n                offer.creator,\r\n                principalAmount\r\n            );\r\n        }\r\n\r\n        /* delegate the loan collateral to lender */\r\n        _poolManager.transfer(\r\n            offer.creator,\r\n            _msgSender(),\r\n            offer.collateralToken,\r\n            collateralAmount\r\n        );\r\n\r\n        uint256 collateralPriceInUSD = _priceFeed.amountInUSD(\r\n            offer.collateralToken,\r\n            collateralAmount\r\n        );\r\n\r\n        /* register the loan from the loan manager */\r\n        _loanManager.createLoan(\r\n            offer.offerId,\r\n            offer.offerType,\r\n            offer.principalToken,\r\n            offer.collateralToken,\r\n            principalAmount,\r\n            collateralAmount,\r\n            collateralPriceInUSD,\r\n            offer.interest,\r\n            offer.daysToMaturity,\r\n            offer.creator,\r\n            _msgSender()\r\n        );\r\n\r\n        // will revert the transaction if fail\r\n        _offerManager._afterOfferBorrowingLoan(\r\n            offerId,\r\n            principalAmount,\r\n            collateralAmount\r\n        );\r\n\r\n        // update activity\r\n        uint256 borrowedAmountInUSD = _priceFeed.amountInUSD(\r\n            offer.principalToken,\r\n            principalAmount\r\n        );\r\n        _activity._borrowLoan(offer.creator, borrowedAmountInUSD);\r\n    }\r\n\r\n    // @lenders\r\n    function acceptBorrowingRequest(uint256 requestId) public {\r\n        RequestLibrary.Request memory request = _offerManager.getRequest(\r\n            requestId\r\n        );\r\n\r\n        OfferLibrary.Offer memory offer = _offerManager.getOffer(\r\n            request.offerId\r\n        );\r\n\r\n        uint256 principalAmount = percentageOf(\r\n            offer.initialPrincipal,\r\n            request.percentage\r\n        );\r\n\r\n        /* transfer principal to borrower */\r\n        if (offer.principalToken == nativeAddress) {\r\n            payable(request.creator).transfer(principalAmount);\r\n        } else {\r\n            ERC20(offer.principalToken).safeTransfer(\r\n                request.creator,\r\n                principalAmount\r\n            );\r\n        }\r\n\r\n        /* delegate the loan collateral to lender */\r\n        _poolManager.transfer(\r\n            request.creator,\r\n            _msgSender(),\r\n            request.collateralToken,\r\n            request.collateralAmount\r\n        );\r\n        /* undelegate the principal from lender */\r\n        _poolManager.burn(_msgSender(), offer.principalToken, principalAmount);\r\n\r\n        /* register the loan from the loan manager */\r\n        _loanManager.createLoan(\r\n            request.offerId,\r\n            offer.offerType,\r\n            offer.principalToken,\r\n            request.collateralToken,\r\n            principalAmount,\r\n            request.collateralAmount,\r\n            request.collateralPriceInUSD,\r\n            request.interest,\r\n            request.daysToMaturity,\r\n            request.creator,\r\n            _msgSender()\r\n        );\r\n\r\n        // will revert the transaction if fail\r\n        _offerManager._afterOfferBorrowingLoan(\r\n            request.offerId,\r\n            principalAmount,\r\n            request.collateralAmount\r\n        );\r\n        _offerManager.acceptRequest(requestId, _msgSender());\r\n\r\n        // update activity\r\n        uint256 amountBorrowedInUSD = _priceFeed.amountInUSD(\r\n            offer.principalToken,\r\n            principalAmount\r\n        );\r\n        _activity._borrowLoan(request.creator, amountBorrowedInUSD);\r\n    }\r\n\r\n    // @borrower\r\n    function createBorrowingOffer(\r\n        address principalToken,\r\n        uint256 principalAmount,\r\n        address collateralToken,\r\n        uint256 interest,\r\n        uint16 daysToMaturity,\r\n        uint16 hoursToExpire\r\n    ) public payable {\r\n        uint256 principalAmountInUSD = _priceFeed.amountInUSD(\r\n            principalToken,\r\n            principalAmount\r\n        );\r\n\r\n        uint160 ltv = _ltv.getRelativeLTV(_msgSender(), principalAmountInUSD);\r\n\r\n        uint256 collateralNormalAmount = _priceFeed.exchangeRate(\r\n            principalToken,\r\n            collateralToken,\r\n            principalAmount\r\n        );\r\n\r\n        uint256 collateralAmount = percentageOf(\r\n            collateralNormalAmount,\r\n            ltv / _ltv.getBase()\r\n        );\r\n\r\n        /* extract collateral from borrower */\r\n        if (collateralToken == nativeAddress) {\r\n            require(msg.value >= collateralAmount);\r\n        } else {\r\n            ERC20(collateralToken).safeTransferFrom(\r\n                _msgSender(),\r\n                address(this),\r\n                collateralAmount\r\n            );\r\n        }\r\n\r\n        /* delegate the collateral to borrower */\r\n        _poolManager.deposit(_msgSender(), collateralToken, collateralAmount);\r\n\r\n        /* create the offer */\r\n        _offerManager.createBorrowingOffer(\r\n            principalToken,\r\n            collateralToken,\r\n            collateralAmount,\r\n            principalAmount,\r\n            interest,\r\n            daysToMaturity,\r\n            hoursToExpire,\r\n            _msgSender()\r\n        );\r\n\r\n        // update activity\r\n        uint256 amountInUSD = _priceFeed.amountInUSD(\r\n            collateralToken,\r\n            collateralAmount\r\n        );\r\n        _activity._dropCollateral(_msgSender(), amountInUSD);\r\n    }\r\n\r\n    // @borrower\r\n    function createBorrowingRequest(\r\n        uint256 offerId,\r\n        uint16 percentage,\r\n        address collateralToken,\r\n        uint256 interest,\r\n        uint16 daysToMaturity,\r\n        uint16 hoursToExpire\r\n    ) public payable {\r\n        _checkPercentage(percentage);\r\n\r\n        OfferLibrary.Offer memory offer = _offerManager.getOffer(offerId);\r\n\r\n        require(\r\n            _offerManager.isCollateralSupported(offerId, collateralToken),\r\n            \"ERR_COLLATERAL_NOT_SUPPORTED\"\r\n        );\r\n\r\n        uint256 principalAmount = percentageOf(\r\n            offer.initialPrincipal,\r\n            percentage\r\n        );\r\n\r\n        uint256 principalPriceInUSD = _priceFeed.amountInUSD(\r\n            offer.principalToken,\r\n            principalAmount\r\n        );\r\n\r\n        uint160 ltv = _ltv.getRelativeLTV(_msgSender(), principalPriceInUSD);\r\n\r\n        uint256 collateralNormalAmount = _priceFeed.exchangeRate(\r\n            offer.principalToken,\r\n            collateralToken,\r\n            principalAmount\r\n        );\r\n\r\n        uint256 collateralAmount = percentageOf(\r\n            collateralNormalAmount,\r\n            ltv / _ltv.getBase()\r\n        );\r\n\r\n        /* extract collateral from borrower */\r\n        if (collateralToken == nativeAddress) {\r\n            require(collateralAmount >= msg.value);\r\n        } else {\r\n            ERC20(collateralToken).safeTransferFrom(\r\n                _msgSender(),\r\n                address(this),\r\n                collateralAmount\r\n            );\r\n        }\r\n\r\n        /* delegate the collateral to borrower */\r\n        _poolManager.deposit(_msgSender(), collateralToken, collateralAmount);\r\n\r\n        uint256 collateralPriceInUSD = _priceFeed.amountInUSD(\r\n            collateralToken,\r\n            collateralAmount\r\n        );\r\n\r\n        /* create the request */\r\n        _offerManager.createBorrowingRequest(\r\n            percentage,\r\n            collateralToken,\r\n            collateralAmount,\r\n            collateralPriceInUSD,\r\n            ltv,\r\n            interest,\r\n            daysToMaturity,\r\n            hoursToExpire,\r\n            _msgSender(),\r\n            offerId\r\n        );\r\n\r\n        // update activity\r\n        _activity._dropCollateral(_msgSender(), collateralPriceInUSD);\r\n    }\r\n\r\n    // @borrower\r\n    function acceptLendingOffer(\r\n        uint256 offerId,\r\n        uint16 percentage,\r\n        address collateralToken\r\n    ) public payable {\r\n        _checkPercentage(percentage);\r\n\r\n        OfferLibrary.Offer memory offer = _offerManager.getOffer(offerId);\r\n\r\n        require(\r\n            _offerManager.isCollateralSupported(offerId, collateralToken),\r\n            \"ERR_COLLATERAL_NOT_SUPPORTED\"\r\n        );\r\n\r\n        uint256 principalAmount = percentageOf(\r\n            offer.initialPrincipal,\r\n            percentage\r\n        );\r\n\r\n        uint256 principalPriceInUSD = _priceFeed.amountInUSD(\r\n            offer.principalToken,\r\n            principalAmount\r\n        );\r\n\r\n        uint160 ltv = _ltv.getRelativeLTV(_msgSender(), principalPriceInUSD);\r\n\r\n        /* calculate the collateral amount */\r\n        uint256 collateralNormalAmount = _priceFeed.exchangeRate(\r\n            offer.principalToken,\r\n            collateralToken,\r\n            principalAmount\r\n        );\r\n\r\n        uint256 collateralAmount = percentageOf(\r\n            collateralNormalAmount,\r\n            ltv / _ltv.getBase()\r\n        );\r\n\r\n        /* extract collateral tokens from borrower */\r\n        if (collateralToken == nativeAddress) {\r\n            require(collateralAmount >= msg.value, \"ERR_COLLATERAL_AMOUNT\");\r\n        } else {\r\n            ERC20(collateralToken).safeTransferFrom(\r\n                _msgSender(),\r\n                address(this),\r\n                collateralAmount\r\n            );\r\n        }\r\n\r\n        /* transfer the principal to borrower */\r\n        if (offer.principalToken == nativeAddress) {\r\n            payable(_msgSender()).transfer(principalAmount);\r\n        } else {\r\n            ERC20(offer.principalToken).safeTransfer(\r\n                _msgSender(),\r\n                principalAmount\r\n            );\r\n        }\r\n\r\n        /* delegate the loan collateral to lender */\r\n        _poolManager.deposit(offer.creator, collateralToken, collateralAmount);\r\n        /* undelegate the loan principal from lender */\r\n        _poolManager.burn(offer.creator, offer.principalToken, principalAmount);\r\n\r\n        uint256 collateralPriceInUSD = _priceFeed.amountInUSD(\r\n            collateralToken,\r\n            collateralAmount\r\n        );\r\n\r\n        /* register the loan */\r\n        _loanManager.createLoan(\r\n            offerId,\r\n            offer.offerType,\r\n            offer.principalToken,\r\n            collateralToken,\r\n            principalAmount,\r\n            collateralAmount,\r\n            collateralPriceInUSD,\r\n            offer.interest,\r\n            offer.daysToMaturity,\r\n            _msgSender(),\r\n            offer.creator\r\n        );\r\n\r\n        // will revert if transaction fail\r\n        _offerManager._afterOfferLendingLoan(offerId, principalAmount);\r\n\r\n        // update activity\r\n        uint256 amountBorrowedInUSD = _priceFeed.amountInUSD(\r\n            offer.principalToken,\r\n            principalAmount\r\n        );\r\n        _activity._borrowLoan(_msgSender(), amountBorrowedInUSD);\r\n        _activity._dropCollateral(_msgSender(), collateralPriceInUSD);\r\n    }\r\n\r\n    // @borrower\r\n    function acceptLendingRequest(uint256 requestId) public payable {\r\n        RequestLibrary.Request memory request = _offerManager.getRequest(\r\n            requestId\r\n        );\r\n\r\n        OfferLibrary.Offer memory offer = _offerManager.getOffer(\r\n            request.offerId\r\n        );\r\n\r\n        uint256 collateralAmount = percentageOf(\r\n            offer.initialCollateral,\r\n            request.percentage\r\n        );\r\n\r\n        uint256 principalAmount = percentageOf(\r\n            offer.initialPrincipal,\r\n            request.percentage\r\n        );\r\n\r\n        /* transfer principal to borrower */\r\n        if (offer.principalToken == nativeAddress) {\r\n            payable(_msgSender()).transfer(principalAmount);\r\n        } else {\r\n            ERC20(offer.principalToken).safeTransfer(\r\n                _msgSender(),\r\n                principalAmount\r\n            );\r\n        }\r\n\r\n        /* delegate the loan collateral to lender */\r\n        _poolManager.deposit(\r\n            request.creator,\r\n            offer.collateralToken,\r\n            collateralAmount\r\n        );\r\n        /* undelegate the loan principal from lender */\r\n        _poolManager.burn(\r\n            request.creator,\r\n            offer.principalToken,\r\n            principalAmount\r\n        );\r\n\r\n        uint256 collateralPriceInUSD = _priceFeed.amountInUSD(\r\n            offer.collateralToken,\r\n            collateralAmount\r\n        );\r\n\r\n        /* register the loan from the loan manager */\r\n        _loanManager.createLoan(\r\n            request.offerId,\r\n            offer.offerType,\r\n            offer.principalToken,\r\n            offer.collateralToken,\r\n            principalAmount,\r\n            collateralAmount,\r\n            collateralPriceInUSD,\r\n            request.interest,\r\n            request.daysToMaturity,\r\n            _msgSender(),\r\n            request.creator\r\n        );\r\n\r\n        // will revert the transaction if fail\r\n        _offerManager._afterOfferLendingLoan(offer.offerId, principalAmount);\r\n        _offerManager.acceptRequest(requestId, _msgSender());\r\n\r\n        // update activityj\r\n        uint256 amountBorrowedInUSD = _priceFeed.amountInUSD(\r\n            offer.principalToken,\r\n            principalAmount\r\n        );\r\n        _activity._borrowLoan(_msgSender(), amountBorrowedInUSD);\r\n        _activity._dropCollateral(_msgSender(), collateralPriceInUSD);\r\n    }\r\n\r\n    // @lender\r\n    function reActivateOffer(uint256 offerId, uint16 toExpire) public {\r\n        _offerManager.reActivateOffer(offerId, toExpire, _msgSender());\r\n    }\r\n\r\n    // @borrower\r\n    function repayLoan(uint256 loanId, uint16 percentage) public payable {\r\n        _checkPercentage(percentage);\r\n\r\n        LoanLibrary.Loan memory loan = _loanManager.getLoan(loanId);\r\n\r\n        // verify the borrower is the repayer\r\n        require(loan.borrower == _msgSender(), \"ERR_NOT_BORROWER\");\r\n\r\n        // calculate the duration of the loan\r\n        uint256 time = block.timestamp;\r\n        uint256 ellapsedSecs = (time - loan.startDate);\r\n\r\n        uint256 principalAmount = percentageOf(\r\n            loan.initialPrincipal,\r\n            percentage\r\n        );\r\n\r\n        uint256 collateralAmount = percentageOf(\r\n            loan.initialCollateral,\r\n            percentage\r\n        );\r\n\r\n        // calculate the pay back amount\r\n        uint256 repaymentPrincipal = getFullInterestAmount(\r\n            principalAmount,\r\n            ellapsedSecs,\r\n            loan.interest\r\n        );\r\n\r\n        uint256 interestPaid = (repaymentPrincipal - principalAmount);\r\n        uint256 fee = percentageOf(interestPaid, _feeManager.feePercentage());\r\n        uint256 unClaimedInterest = (interestPaid - fee);\r\n\r\n        _feeManager.credit(loan.principalToken, fee);\r\n\r\n        // will revert the transaction if fail\r\n        bool completed = _loanManager.repayLoan(\r\n            loanId,\r\n            unClaimedInterest,\r\n            principalAmount,\r\n            collateralAmount\r\n        );\r\n\r\n        /* extract pay back amount */\r\n        if (loan.principalToken == nativeAddress) {\r\n            require(msg.value >= repaymentPrincipal);\r\n        } else {\r\n            ERC20(loan.principalToken).safeTransferFrom(\r\n                _msgSender(),\r\n                address(this),\r\n                repaymentPrincipal\r\n            );\r\n        }\r\n\r\n        // update activity\r\n        uint256 interestPaidInUSD = _priceFeed.amountInUSD(\r\n            loan.principalToken,\r\n            (repaymentPrincipal - principalAmount)\r\n        );\r\n\r\n        uint256 amountPaidInUSD = _priceFeed.amountInUSD(\r\n            loan.principalToken,\r\n            principalAmount\r\n        );\r\n\r\n        _activity._repayLoan(\r\n            _msgSender(),\r\n            amountPaidInUSD,\r\n            interestPaidInUSD,\r\n            completed\r\n        );\r\n    }\r\n\r\n    function rejectRequest(uint256 requestId) public {\r\n        _offerManager.rejectRequest(requestId, _msgSender());\r\n    }\r\n\r\n    function cancelLendRequest(uint256 requestId) public {\r\n        RequestLibrary.Request memory request = _offerManager.getRequest(\r\n            requestId\r\n        );\r\n        require(request.requestType == RequestLibrary.Type.LENDING_REQUEST);\r\n\r\n        OfferLibrary.Offer memory offer = _offerManager.getOffer(\r\n            request.offerId\r\n        );\r\n\r\n        uint256 principalAmount = percentageOf(\r\n            offer.initialPrincipal,\r\n            request.percentage\r\n        );\r\n\r\n        if (offer.principalToken == nativeAddress) {\r\n            payable(_msgSender()).transfer(principalAmount);\r\n        } else {\r\n            ERC20(offer.principalToken).safeTransfer(\r\n                _msgSender(),\r\n                principalAmount\r\n            );\r\n        }\r\n\r\n        _offerManager.cancelRequest(requestId, _msgSender());\r\n    }\r\n\r\n    function cancelBorrowRequest(uint256 requestId) public {\r\n        RequestLibrary.Request memory request = _offerManager.getRequest(\r\n            requestId\r\n        );\r\n        require(request.requestType == RequestLibrary.Type.BORROWING_REQUEST);\r\n\r\n        OfferLibrary.Offer memory offer = _offerManager.getOffer(\r\n            request.offerId\r\n        );\r\n\r\n        if (offer.collateralToken == nativeAddress) {\r\n            payable(_msgSender()).transfer(request.collateralAmount);\r\n        } else {\r\n            ERC20(offer.collateralToken).safeTransfer(\r\n                _msgSender(),\r\n                request.collateralAmount\r\n            );\r\n        }\r\n\r\n        _offerManager.cancelRequest(requestId, _msgSender());\r\n    }\r\n\r\n    function claimCollateral(uint256 loanId) public {\r\n        LoanLibrary.Loan memory loan = _loanManager.getLoan(loanId);\r\n\r\n        require(loan.borrower == _msgSender(), \"ERR_NOT_BORROWER\");\r\n\r\n        if (loan.collateralToken == nativeAddress) {\r\n            payable(_msgSender()).transfer(loan.unClaimedCollateral);\r\n        } else {\r\n            ERC20(loan.collateralToken).safeTransfer(\r\n                _msgSender(),\r\n                loan.unClaimedCollateral\r\n            );\r\n        }\r\n\r\n        _loanManager.claimCollateral(loanId);\r\n    }\r\n\r\n    function claimPrincipal(uint256 loanId) public {\r\n        LoanLibrary.Loan memory loan = _loanManager.getLoan(loanId);\r\n\r\n        require(loan.lender == _msgSender(), \"ERR_NOT_LENDER\");\r\n\r\n        if (loan.principalToken == nativeAddress) {\r\n            payable(_msgSender()).transfer(loan.unClaimedPrincipal);\r\n        } else {\r\n            ERC20(loan.principalToken).safeTransfer(\r\n                _msgSender(),\r\n                loan.unClaimedPrincipal\r\n            );\r\n        }\r\n\r\n        _loanManager.claimPrincipal(loanId);\r\n    }\r\n\r\n    function claimDefaultCollateral(uint256 loanId) public {\r\n        LoanLibrary.Loan memory loan = _loanManager.getLoan(loanId);\r\n\r\n        require(loan.lender == _msgSender(), \"ERR_NOT_LENDER\");\r\n\r\n        if (loan.collateralToken == nativeAddress) {\r\n            payable(_msgSender()).transfer(loan.unClaimedDefaultCollateral);\r\n        } else {\r\n            ERC20(loan.collateralToken).safeTransfer(\r\n                _msgSender(),\r\n                loan.unClaimedDefaultCollateral\r\n            );\r\n        }\r\n\r\n        _loanManager.claimDefaultCollateral(loanId);\r\n    }\r\n\r\n    function repayLiquidatedLoan(uint256 loanId) public payable {}\r\n\r\n    function liquidateLoan(uint256 loanId) public onlyOwner {\r\n        LoanLibrary.Loan memory loan = _loanManager.getLoan(loanId);\r\n\r\n        // calculate the duration of the loan\r\n        uint256 time = block.timestamp;\r\n        uint256 ellapsedSecs = (time - loan.startDate);\r\n\r\n        uint256 repaymentPrincipal = getFullInterestAmount(\r\n            loan.currentPrincipal,\r\n            ellapsedSecs,\r\n            loan.interest\r\n        );\r\n\r\n        uint256 repaymentCollateral = _priceFeed.exchangeRate(\r\n            loan.principalToken,\r\n            loan.collateralToken,\r\n            repaymentPrincipal\r\n        );\r\n\r\n        uint256 interestInCollateral = _priceFeed.exchangeRate(\r\n            loan.principalToken,\r\n            loan.collateralToken,\r\n            (repaymentPrincipal - loan.currentPrincipal)\r\n        );\r\n\r\n        uint256 principalPaid;\r\n        uint256 collateralRetrieved;\r\n        uint256 collateralFee;\r\n\r\n        uint256 fee = percentageOf(\r\n            interestInCollateral,\r\n            _feeManager.feePercentage()\r\n        );\r\n\r\n        if (loan.currentCollateral >= (repaymentCollateral - fee)) {\r\n            collateralRetrieved = (repaymentCollateral - fee);\r\n            principalPaid = loan.currentPrincipal;\r\n\r\n            if (loan.currentCollateral >= repaymentCollateral) {\r\n                collateralFee = fee;\r\n            } else {\r\n                collateralRetrieved = loan.currentCollateral;\r\n                collateralFee = (loan.currentCollateral -\r\n                    (repaymentCollateral - fee));\r\n            }\r\n        } else {\r\n            collateralRetrieved = loan.currentCollateral;\r\n\r\n            uint256 collateralInPrincipal = _priceFeed.exchangeRate(\r\n                loan.collateralToken,\r\n                loan.principalToken,\r\n                collateralRetrieved\r\n            );\r\n\r\n            principalPaid = collateralInPrincipal;\r\n            collateralFee = 0;\r\n        }\r\n\r\n        _feeManager.credit(loan.collateralToken, collateralFee);\r\n\r\n        _loanManager.liquidateLoan(\r\n            loanId,\r\n            principalPaid,\r\n            collateralRetrieved,\r\n            (collateralRetrieved - collateralFee)\r\n        );\r\n    }\r\n\r\n    function setLTV(address ltv_) public onlyOwner {\r\n        _ltv = ILoanToValueRatio(ltv_);\r\n    }\r\n\r\n    function setActivity(address activity_) public onlyOwner {\r\n        _activity = Activity(activity_);\r\n    }\r\n\r\n    function setPriceFeed(address priceFeed_) public onlyOwner {\r\n        _priceFeed = IPriceFeed(priceFeed_);\r\n    }\r\n\r\n    function changeOwner(address newOwner) public onlyOwner {\r\n        deployer = newOwner;\r\n    }\r\n\r\n    /// @dev to claim revenue\r\n    function claim(\r\n        address token,\r\n        address payable receiver,\r\n        uint256 amount\r\n    ) public onlyOwner {\r\n        require(amount > 0, \"ERR_ZERO_AMOUNT\");\r\n        _feeManager.debit(token, amount);\r\n        if (token == nativeAddress) {\r\n            receiver.transfer(amount);\r\n        } else {\r\n            ERC20(token).safeTransfer(receiver, amount);\r\n        }\r\n    }\r\n\r\n    function _checkPercentage(uint16 percentage) private pure {\r\n        // percentage must be 25, 50, 75 or 100\r\n        require(percentage <= 100, \"OVER_PERCENTAGE\");\r\n        require(percentage % 25 == 0, \"ERR_PERCENTAGE\");\r\n    }\r\n\r\n    modifier onlyOwner() {\r\n        require(_msgSender() == deployer, \"ERR_ONLY_OWNER\");\r\n        _;\r\n    }\r\n}\r\n",
  "sourcePath": "C:\\Users\\DELL\\Documents\\darsh\\smart-contracts\\contracts\\LendingPool.sol",
  "compiler": {
    "name": "solc",
    "version": "0.8.17+commit.8df45f5f.Emscripten.clang"
  },
  "schemaVersion": "3.4.11",
  "updatedAt": "2023-02-18T16:02:15.438Z",
  "devdoc": {
    "kind": "dev",
    "methods": {
      "claim(address,address,uint256)": {
        "details": "to claim revenue"
      }
    },
    "version": 1
  },
  "userdoc": {
    "kind": "user",
    "methods": {},
    "version": 1
  }
}