{
  "contractName": "LendingPool",
  "abi": [
    {
      "inputs": [
        {
          "internalType": "address",
          "name": "poolManager_",
          "type": "address"
        },
        {
          "internalType": "address",
          "name": "loanManager_",
          "type": "address"
        },
        {
          "internalType": "address",
          "name": "offerManager_",
          "type": "address"
        }
      ],
      "stateMutability": "nonpayable",
      "type": "constructor"
    },
    {
      "inputs": [],
      "name": "INTEREST_RATE_DENOMINATOR",
      "outputs": [
        {
          "internalType": "uint256",
          "name": "",
          "type": "uint256"
        }
      ],
      "stateMutability": "view",
      "type": "function"
    },
    {
      "inputs": [
        {
          "internalType": "uint256",
          "name": "principal",
          "type": "uint256"
        },
        {
          "internalType": "uint256",
          "name": "durationSecs",
          "type": "uint256"
        },
        {
          "internalType": "uint256",
          "name": "interest",
          "type": "uint256"
        }
      ],
      "name": "getFullInterestAmount",
      "outputs": [
        {
          "internalType": "uint256",
          "name": "",
          "type": "uint256"
        }
      ],
      "stateMutability": "pure",
      "type": "function"
    },
    {
      "inputs": [],
      "name": "nativeAddress",
      "outputs": [
        {
          "internalType": "address",
          "name": "",
          "type": "address"
        }
      ],
      "stateMutability": "view",
      "type": "function"
    },
    {
      "inputs": [
        {
          "internalType": "uint256",
          "name": "total",
          "type": "uint256"
        },
        {
          "internalType": "uint16",
          "name": "percent",
          "type": "uint16"
        }
      ],
      "name": "percentageInverseOf",
      "outputs": [
        {
          "internalType": "uint256",
          "name": "",
          "type": "uint256"
        }
      ],
      "stateMutability": "pure",
      "type": "function"
    },
    {
      "inputs": [
        {
          "internalType": "uint256",
          "name": "total",
          "type": "uint256"
        },
        {
          "internalType": "uint16",
          "name": "percent",
          "type": "uint16"
        }
      ],
      "name": "percentageOf",
      "outputs": [
        {
          "internalType": "uint256",
          "name": "",
          "type": "uint256"
        }
      ],
      "stateMutability": "pure",
      "type": "function"
    },
    {
      "inputs": [
        {
          "internalType": "address",
          "name": "principalType",
          "type": "address"
        },
        {
          "internalType": "uint256",
          "name": "_principal",
          "type": "uint256"
        },
        {
          "internalType": "uint256",
          "name": "interest",
          "type": "uint256"
        },
        {
          "internalType": "uint256",
          "name": "daysToMaturity",
          "type": "uint256"
        },
        {
          "internalType": "uint256",
          "name": "daysToExpire",
          "type": "uint256"
        },
        {
          "internalType": "address[]",
          "name": "collateralTypes",
          "type": "address[]"
        }
      ],
      "name": "createLendingOffer",
      "outputs": [],
      "stateMutability": "payable",
      "type": "function"
    },
    {
      "inputs": [
        {
          "internalType": "uint256",
          "name": "offerId",
          "type": "uint256"
        },
        {
          "internalType": "uint16",
          "name": "desiredPercentage",
          "type": "uint16"
        }
      ],
      "name": "acceptBorrowingOffer",
      "outputs": [],
      "stateMutability": "payable",
      "type": "function"
    },
    {
      "inputs": [
        {
          "internalType": "uint256",
          "name": "requestId",
          "type": "uint256"
        }
      ],
      "name": "acceptBorrowingRequest",
      "outputs": [],
      "stateMutability": "payable",
      "type": "function"
    },
    {
      "inputs": [
        {
          "internalType": "address",
          "name": "principalType",
          "type": "address"
        },
        {
          "internalType": "address",
          "name": "collateralType",
          "type": "address"
        },
        {
          "internalType": "uint256",
          "name": "_collateral",
          "type": "uint256"
        },
        {
          "internalType": "uint256",
          "name": "interest",
          "type": "uint256"
        },
        {
          "internalType": "uint256",
          "name": "daysToMaturity",
          "type": "uint256"
        },
        {
          "internalType": "uint256",
          "name": "daysToExpire",
          "type": "uint256"
        }
      ],
      "name": "createBorrowingOffer",
      "outputs": [],
      "stateMutability": "payable",
      "type": "function"
    },
    {
      "inputs": [
        {
          "internalType": "uint256",
          "name": "offerId",
          "type": "uint256"
        },
        {
          "internalType": "uint16",
          "name": "desiredPercentage",
          "type": "uint16"
        },
        {
          "internalType": "address",
          "name": "collateralType",
          "type": "address"
        }
      ],
      "name": "acceptLendingOffer",
      "outputs": [],
      "stateMutability": "payable",
      "type": "function"
    },
    {
      "inputs": [
        {
          "internalType": "uint256",
          "name": "requestId",
          "type": "uint256"
        }
      ],
      "name": "acceptLendingRequest",
      "outputs": [],
      "stateMutability": "payable",
      "type": "function"
    },
    {
      "inputs": [
        {
          "internalType": "uint256",
          "name": "loanId",
          "type": "uint256"
        }
      ],
      "name": "repayLoan",
      "outputs": [],
      "stateMutability": "payable",
      "type": "function"
    },
    {
      "inputs": [
        {
          "internalType": "uint256",
          "name": "loanId",
          "type": "uint256"
        }
      ],
      "name": "repayLiquidatedLoan",
      "outputs": [],
      "stateMutability": "payable",
      "type": "function"
    },
    {
      "inputs": [
        {
          "internalType": "address",
          "name": "priceFeed_",
          "type": "address"
        }
      ],
      "name": "setPriceFeed",
      "outputs": [],
      "stateMutability": "nonpayable",
      "type": "function"
    },
    {
      "inputs": [
        {
          "internalType": "address",
          "name": "newOwner",
          "type": "address"
        }
      ],
      "name": "changeOwner",
      "outputs": [],
      "stateMutability": "nonpayable",
      "type": "function"
    }
  ],
  "bytecode": "0x608034620000bb57601f6200296738819003918201601f19168301916001600160401b03831184841017620000c057808492606094604052833981010312620000bb576200004d81620000d6565b906200006a60406200006260208401620000d6565b9201620000d6565b600160005560018060a01b0319923384600154161760015560018060a01b039283809216856004541617600455168360055416176005551690600654161760065560405161287b9081620000ec8239f35b600080fd5b634e487b7160e01b600052604160045260246000fd5b51906001600160a01b0382168203620000bb5756fe608080604052600436101561001357600080fd5b600060e0918135831c9081632e476337146120245750806344566c1214611d485780634add7c82146119485780635c7f31aa1461144957806361ba9443146113b3578063724e78da146113635780639389ccad1461133c5780639f0a55dc14611315578063a33928da14610f45578063a6f9dae114610ef7578063ab7b1c8914610c24578063b9610db414610902578063cc3266e8146108df578063e0f7dffd146108b25763e826fbe7146100c757600080fd5b60603660031901126108af576100db6120b6565b916044356001600160a01b038116908190036104905760065460405163ab64a18560e01b8152600480359082015292908490849060249082906001600160a01b03165afa9283156108a457849361087c575b50820151610145906001600160a01b03164210612251565b61016561ffff601981871661015d6064821115612291565b0616156122cf565b8293835b60c0840151805182101561087157600582901b01602001516001600160a01b031683146101b55760001981146101a157600101610169565b634e487b7160e01b85526011600452602485fd5b50909192935060015b1561082c576101d19060608401516127f4565b604083015181116107e7576003546040516356512fcd60e11b815233600482015290602090829060249082906001600160a01b03165afa9081156107dc57859161079e575b50600254602085810151604051631c07d98160e21b81526001600160a01b0391821660048201526044803583166024830152810186905292839160649183918b91165af190811561067657869161076b575b50600491610275916127f4565b600354604051636882509b60e11b81529260209184919082906001600160a01b03165afa918215610676576102b69260ff91889161073c575b501690612577565b9173eeeeeeeeeeeeeeeeeeeeeeeeeeeeeeeeeeeeeeee908181036106dd57503483106106a0575b60048054604051638340f54960e01b815233928101929092526001600160a01b03604480358216602485015283018690526020918391168189816064810103925af1801561067657610336918791610681575b506120df565b60048054602086810151604051636ce5768960e11b815233948101949094526001600160a01b039081166024850152604484018690529091839160649183918b91165af1801561067657610647575b5060208401516001600160a01b03169081036104d8575083808280156104ce575b8280929181923390f1156104c3575b60065484906001600160a01b0316803b156104bf5781809160446040518094819363f094cb9560e01b835260043560048401528860248401525af1801561049c576104a7575b5050600554602084810151608086015160a087015161012090970151604051631c57bf7160e21b815297939688966001600160a01b039687169688968c96889661045d9684169533959394919390929091604435911660048035908b0161230c565b03925af1801561049c5761046f575080f35b602090813d8311610495575b610485818361207c565b810103126104905780f35b600080fd5b503d61047b565b6040513d84823e3d90fd5b6104b090612068565b6104bb5783386103fb565b8380fd5b5080fd5b6040513d85823e3d90fd5b6108fc91506103a6565b60405163a9059cbb60e01b60208201523360248201526044808201849052815261050360648261207c565b6040519081604081011067ffffffffffffffff6040840111176106245786809160408401604052602084527f5361666545524332303a206c6f772d6c6576656c2063616c6c206661696c6564602085015260208151910182865af13d1561063a573d9067ffffffffffffffff82116106245761059f93604051926105916020601f19601f840116018561207c565b83523d89602085013e612597565b805190816105af575b50506103b5565b6020806105c09383010191016120c7565b156105cc5738806105a8565b60405162461bcd60e51b815260206004820152602a60248201527f5361666545524332303a204552433230206f7065726174696f6e20646964206e6044820152691bdd081cdd58d8d9595960b21b6064820152608490fd5b634e487b7160e01b600052604160045260246000fd5b9161059f92606091612597565b6106689060203d60201161066f575b610660818361207c565b8101906120c7565b5038610385565b503d610656565b6040513d88823e3d90fd5b61069a915060203d60201161066f57610660818361207c565b38610330565b60405162461bcd60e51b815260206004820152601560248201527411549497d0d3d31310551154905317d05353d55395605a1b6044820152606490fd5b6040516323b872dd60e01b81523360048201523060248201526044810185905290602090829060649082908a905af180156106765761071d575b506102dd565b6107359060203d60201161066f57610660818361207c565b5038610717565b61075e915060203d602011610764575b610756818361207c565b81019061255e565b386102ae565b503d61074c565b90506020813d602011610796575b816107866020938361207c565b8101031261049057516004610268565b3d9150610779565b90506020813d6020116107d4575b816107b96020938361207c565b810103126107d0576107ca9061254f565b38610216565b8480fd5b3d91506107ac565b6040513d87823e3d90fd5b60405162461bcd60e51b815260206004820152601760248201527f4552525f494e53554646494349454e545f414d4f554e540000000000000000006044820152606490fd5b60405162461bcd60e51b815260206004820152601c60248201527f4552525f434f4c4c41544552414c5f4e4f545f535550504f52544544000000006044820152606490fd5b5050909192936101be565b61014591935061089d903d8087833e610895818361207c565b8101906123ef565b929061012d565b6040513d86823e3d90fd5b80fd5b50346108af5760603660031901126108af5760206108d76044356024356004356127ca565b604051908152f35b50346108af57806003193601126108af576020604051670de0b6b3a76400008152f35b5060c03660031901126108af57610917612052565b6024356001600160a01b0381811692908383036104905760443573eeeeeeeeeeeeeeeeeeeeeeeeeeeeeeeeeeeeeeee8503610bbd575034925b816003541692866040519586956356512fcd60e11b87523360048801528660246020998a935afa95861561049c578296610b86575b50600254604051631c07d98160e21b81526001600160a01b03868116600483015285166024820152604481018390529088908290606490829087908b165af19081156104c3578391610b50575b506004966109df91612813565b87866003541660405198898092636882509b60e11b82525afa9687156104c357610a1a899260ff610a5c9a86948891610b3357501690612577565b9587600454169085604051809b81958294638340f54960e01b8452336004850160409194939294606082019560018060a01b0380921683521660208201520152565b03925af193841561049c57610a7c6101049589988591610b1657506120df565b856006541691604051998a978896637789f19f60e01b8852166004870152602486015260448501526064840152606435608484015260843560a484015260a43560c48401523360e48401525af19081156104c3578391610ae6575b83610ae383151561212b565b80f35b905081813d8311610b0f575b610afc818361207c565b8101031261049057610ae3905183610ad7565b503d610af2565b610b2d9150893d8b1161066f57610660818361207c565b8c610330565b610b4a9150863d881161076457610756818361207c565b8f6102ae565b80979350888092503d8311610b7f575b610b6a818361207c565b810103126104905794519094889160046109d2565b503d610b60565b9095508681813d8311610bb6575b610b9e818361207c565b810103126104bf57610baf9061254f565b9489610985565b503d610b94565b6040516323b872dd60e01b8152336004820152306024820152604481018290529093906020816064818a8a5af18015610c1957610bfb575b50610950565b610c129060203d811161066f57610660818361207c565b5086610bf5565b6040513d89823e3d90fd5b50602090816003193601126108af57600554604051632820036560e11b8152600480359082018190526001600160a01b03928316946101e0939092602490858183818b5afa958615610c19578796610ec8575b5050816101a0860151163303610e9257838501516003811015610e7f57610e465781610140860151164203428111610e3357869787969792610cc6879360c08b0151906101208c0151916127ca565b9560405194859384926387d709b760e01b845260048401525af180156107dc57610e16575b508060608601511691848473eeeeeeeeeeeeeeeeeeeeeeeeeeeeeeeeeeeeeeee94858114600014610dbc5750505034106104bb575b608085015116908103610d60575050808061010081940151818115610d57575b3390f115610d4b5780f35b604051903d90823e3d90fd5b506108fc610d40565b610100939093015160405163a9059cbb60e01b8152336004820152602481019190915290929091839183916044918391905af180156104c357610da257505080f35b81610db892903d1061066f57610660818361207c565b5080f35b6040516323b872dd60e01b815233600482015230602482015260448101949094529091839160649183915af180156107dc57610df9575b50610d20565b610e0f90843d861161066f57610660818361207c565b5086610df3565b610e2c90843d861161066f57610660818361207c565b5086610ceb565b50634e487b7160e01b8652601160045285fd5b8360136064926040519262461bcd60e51b84526004840152820152724552525f4c4f414e5f4e4f545f41435449564560681b6044820152fd5b50634e487b7160e01b8652602160045285fd5b8360106064926040519262461bcd60e51b845260048401528201526f22a9292fa727aa2fa127a92927aba2a960811b6044820152fd5b610ee8929650803d10610ef0575b610ee0818361207c565b81019061266b565b938780610c77565b503d610ed6565b50346108af5760203660031901126108af57610f11612052565b600154906001600160a01b0390610f2b3383851614612764565b16906bffffffffffffffffffffffff60a01b161760015580f35b509060403660031901126104bf57600435610f5e6120b6565b9060018060a01b03806006541693604051809563bf1e609760e01b82528460048301528160246101809889935afa958615610c195787966112e6575b5050610fae82610120870151164210612251565b6101608501908282511633146112ab57610fd661ffff601981881661015d6064821115612291565b610ff2610fe78660808901516127f4565b9560c08801516127f4565b85606088015110158061129d575b1561125f5787966020938482018681511673eeeeeeeeeeeeeeeeeeeeeeeeeeeeeeeeeeeeeeee811460001461117d57508334106111795789808080878b875116828215611170575bf11561116557896101449287955b8960055416918a8751955116968b610100816040840151169b830151920151925116926040519a8b998a98631c57bf7160e21b8a5260048a0152600160248a01526044890152606488015260848701528d60a487015260c486015260e4850152610104840152336101248401525af1918215610676578692611131575b50506110e0901515612361565b6006541691823b1561112c5760448492836040519586948593630aab2ceb60e31b8552600485015260248401525af1801561049c5761111c5750f35b61112590612068565b6108af5780f35b505050fd5b8196508092503d831161115e575b611149818361207c565b81010312610490576110e085945190386110d3565b503d61113f565b6040513d8b823e3d90fd5b506108fc611048565b8980fd5b6040516323b872dd60e01b81523360048201523060248201526044810186905292908790849060649082908f905af1928315611237576111fc93611242575b508151815160405163a9059cbb60e01b8152908a166001600160a01b03166004820152602481018790529388918591908b169082908f9082906044820190565b03925af1908115611237578795610144948d9361121a575b50611056565b61123090883d8a1161066f57610660818361207c565b5038611214565b6040513d8d823e3d90fd5b61125890883d8a1161066f57610660818361207c565b50386111bc565b60405162461bcd60e51b81526020600482015260166024820152754552525f434f4c4c41544552414c5f42414c414e434560501b6044820152606490fd5b508060a08801511015611000565b60405162461bcd60e51b815260206004820152601360248201527222a9292fa1a0a72a2fa127a92927abafa7aba760691b6044820152606490fd5b611306929650803d1061130e575b6112fe818361207c565b81019061218b565b933880610f9a565b503d6112f4565b50346108af5760403660031901126108af5760206108d76113346120b6565b6004356127f4565b50346108af5760403660031901126108af5760206108d761135b6120b6565b600435612813565b50346108af5760203660031901126108af5761137d612052565b6001546001600160a01b0391906113979083163314612764565b166bffffffffffffffffffffffff60a01b600254161760025580f35b5060203660031901126108af57600554604051632820036560e11b815260048035908201526101e0918290829060249082906001600160a01b03165afa9081156104c357602092849261142c575b505001516003811015611418576002036108af5780f35b634e487b7160e01b82526021600452602482fd5b6114429250803d10610ef057610ee0818361207c565b8380611401565b50809160209081600319360112611944576006546040516314c7eb4960e01b815260048035908201526001600160a01b03918216936101209390918481602481895afa948515610c19578795611891575b50506114ab60a085015142106123ad565b610100840190815160405196879163bf1e609760e01b83526004830152816024610180998a935afa968715611886578897611867575b505060808601906114fc825161ffff606089015116906127f4565b600254604089810151878b01805196519251631c07d98160e21b81526001600160a01b03928b1683166004820152968a169091166024870152604486019190915291949193908690829060649082908e908c165af190811561185c578a9161182b575b5086600354166040516356512fcd60e11b81523360048201528781602481855afa9283156118205788918d946117de575b5060049361159d91612813565b9160405193848092636882509b60e11b82525afa918215611237576115cd9260ff918d916117c757501690612577565b966115de8560608b01511015612511565b89868886511673eeeeeeeeeeeeeeeeeeeeeeeeeeeeeeeeeeeeeeee811460001461170b57505050873410611179578980898015611701575b8280929181923390f1156111655789896116708a9589975b8b6040818060055416995193511695015116958c8a82015193608083015192015116926040519b8c9a8b998a98631c57bf7160e21b8a52339660048b0161230c565b03925af19182156106765786926116cd575b505061168f901515612361565b60065416915190823b1561112c576044849283604051958694859363f094cb9560e01b8552600485015260248401525af1801561049c5761111c5750f35b8196508092503d83116116fa575b6116e5818361207c565b810103126104905761168f8594519038611682565b503d6116db565b6108fc9150611616565b6040516323b872dd60e01b8152336004820152306024820152604481018c90529692879160649183915af1948515611237578b956117aa575b50805160405163a9059cbb60e01b8152336004820152602481018b905295889187916044918391908d165af1948515611237576116708a958d938d938b9961178d575b5061162e565b6117a3908a3d8c1161066f57610660818361207c565b5038611787565b6117c090883d8a1161066f57610660818361207c565b5038611744565b61075e9150893d8b1161076457610756818361207c565b93509083813d8111611819575b6117f5818361207c565b810103126118155761159d889161180d60049561254f565b945090611590565b8b80fd5b503d6117eb565b6040513d8e823e3d90fd5b809a50868092503d8311611855575b611844818361207c565b81010312610490578998513861155f565b503d61183a565b6040513d8c823e3d90fd5b61187e929750803d1061130e576112fe818361207c565b9438806114e1565b6040513d8a823e3d90fd5b91945095508086813d831161193d575b6118ab818361207c565b81010312611939576040519081019581871067ffffffffffffffff881117610624578796604052805182528281015183830152604081015160408301526118f46060820161254f565b60608301526080810151608083015260a081015160a083015260c081015160c0830152611922858201612177565b85830152610100809101519082015292388061149a565b8680fd5b503d6118a1565b5050fd5b50602091826003193601126104bf57600654604051632a3884d760e21b815260048035908201526001600160a01b03918216929190610140908181602481885afa938415610676578694611c78575b5050506119a960c083015142106123ad565b610120918281019285845160246040518098819363ab64a18560e01b835260048301525afa948515610676578695611c5a575b5084015182163303611c235784956040859695015193611a03606084019586511115612511565b81870186838683511673eeeeeeeeeeeeeeeeeeeeeeeeeeeeeeeeeeeeeeee8114600014611b4f575050508551803410611b4b578780808093896101008a015116828215611b42575bf1156106765782915b85806005541691519251168887858801511691611aa68a519560408a0151996080810151908c61010060a083015192015116916040519c8d9a8b998a98631c57bf7160e21b8a52339760048b0161230c565b03925af19081156107dc578591611b12575b50611ac591501515612361565b600654169251905190833b15611b0e5760449083604051958694859363f094cb9560e01b8552600485015260248401525af1801561049c57611b05575080f35b610ae390612068565b8280fd5b905081813d8311611b3b575b611b28818361207c565b810103126104bb57611ac5905138611ab8565b503d611b1e565b506108fc611a4b565b8780fd5b88516040516323b872dd60e01b815233600482015230602482015260448101919091529492859160649183915af192831561188657611bd193611c06575b508151610100860151885160405163a9059cbb60e01b81529189166001600160a01b03166004830152602482015293859185919089169082908c9082906044820190565b03925af1928315611886578493611be9575b50611a54565b611bff90843d861161066f57610660818361207c565b5038611be3565b611c1c90853d871161066f57610660818361207c565b5038611b8d565b60405162461bcd60e51b815260048101879052600f60248201526e22a9292fa7a7262cafa622a72222a960891b6044820152606490fd5b83919550611c71903d8089833e610895818361207c565b94906119dc565b90918093945082813d8311611d41575b611c92818361207c565b81010312611d3d5760405192830183811067ffffffffffffffff821117611d295760405281518352611cc5878301612177565b8784015260408201516040840152606082015160608401526080820151608084015260a082015160a084015260c082015160c08401528082015190830152610100611d11818301612177565b90830152610120809101519082015290388080611997565b634e487b7160e01b87526041600452602487fd5b8580fd5b503d611c88565b509060c03660031901126104bf57611d5e612052565b9060a4359060243567ffffffffffffffff83116107d057366023840112156107d057826004013590611d8f8261209e565b611d9c604051918261207c565b8281526020948582016024819560051b8301019136831161117957602401905b82821061200157505050805115611fbc576001600160a01b038681169290919073eeeeeeeeeeeeeeeeeeeeeeeeeeeeeeeeeeeeeeee8403611f5a5750611e45863480995b60048054604051638340f54960e01b815233928101929092526001600160a01b03909216602482015260448101929092529092839186169082908d9082906064820190565b03925af1801561116557611e6a918a91611f3d575b50938993918897999693956120df565b816006541694604051998a9763dbaf4f7f60e01b895260e489019360048a0152602489015260443560448901526064356064890152608435608489015260a4880152518091526101048601929184905b828210611f1c5750505050908380923360c483015203925af19081156104c3578391611eec5783610ae383151561212b565b905081813d8311611f15575b611f02818361207c565b810103126104bf57610ae3905138610ad7565b503d611ef8565b83518116855289988b98508c96509485019490930192600190910190611eba565b611f549150883d8a1161066f57610660818361207c565b38611e5a565b6040516323b872dd60e01b81523360048201523060248201526044810182905290979087816064818d895af1801561185c57611e459289928b92611f9f575b50611e00565b611fb590843d861161066f57610660818361207c565b5038611f99565b60405162461bcd60e51b815260048101869052601760248201527f4552525f4e4f5f434f4c4c41544552414c5f54595045530000000000000000006044820152606490fd5b81356001600160a01b0381168103612020578152908701908701611dbc565b8a80fd5b9050346104bf57816003193601126104bf578073eeeeeeeeeeeeeeeeeeeeeeeeeeeeeeeeeeeeeeee60209252f35b600435906001600160a01b038216820361049057565b67ffffffffffffffff811161062457604052565b90601f8019910116810190811067ffffffffffffffff82111761062457604052565b67ffffffffffffffff81116106245760051b60200190565b6024359061ffff8216820361049057565b90816020910312610490575180151581036104905790565b156120e657565b60405162461bcd60e51b815260206004820152601860248201527f4552525f504f4f4c5f4d414e414745525f4445504f53495400000000000000006044820152606490fd5b1561213257565b60405162461bcd60e51b815260206004820152601860248201527f4552525f4f464645525f4d414e414745525f43524541544500000000000000006044820152606490fd5b51906001600160a01b038216820361049057565b809161018092839103126104905760405191820182811067ffffffffffffffff82111761062457604052805182526121c560208201612177565b60208301526121d660408201612177565b6040830152606081015160608301526080810151608083015260a081015160a083015260c081015160c083015260e081015160e08301526101008082015190830152610120612226818301612177565b90830152610140612238818301612177565b9083015261224a610160809201612177565b9082015290565b1561225857565b60405162461bcd60e51b815260206004820152601160248201527011549497d3d191915497d1561412549151607a1b6044820152606490fd5b1561229857565b60405162461bcd60e51b815260206004820152600f60248201526e4f5645525f50455243454e5441474560881b6044820152606490fd5b156122d657565b60405162461bcd60e51b815260206004820152600e60248201526d4552525f50455243454e5441474560901b6044820152606490fd5b979295909998946101209792946101408a019b8a52600060208b015260018060a01b0380988180981660408d01521660608b015260808a015260a089015260c088015260e08701521661010085015216910152565b1561236857565b60405162461bcd60e51b815260206004820152601760248201527f4552525f4c4f414e5f4d414e414745525f4352454154450000000000000000006044820152606490fd5b156123b457565b60405162461bcd60e51b815260206004820152601360248201527211549497d49154555154d517d1561412549151606a1b6044820152606490fd5b90602090818382031261049057825167ffffffffffffffff9384821161049057019161014093848484031261049057604051948501858110828211176106245760405283518552612441828501612177565b8286015260408401516040860152606084015160608601526080840151608086015260a084015160a086015260c08401519081116104905783019180601f840112156104905782516124928161209e565b936124a0604051958661207c565b818552838086019260051b820101928311610490578301905b8282106124fa575050505060c08301526124d560e08201612177565b60e08301526101006124e8818301612177565b9083015261224a610120809201612177565b83809161250684612177565b8152019101906124b9565b1561251857565b60405162461bcd60e51b815260206004820152600f60248201526e11549497d25394d5519250d2515395608a1b6044820152606490fd5b519061ffff8216820361049057565b90816020910312610490575160ff811681036104905790565b8115612581570490565b634e487b7160e01b600052601260045260246000fd5b919290156125f957508151156125ab575090565b3b156125b45790565b60405162461bcd60e51b815260206004820152601d60248201527f416464726573733a2063616c6c20746f206e6f6e2d636f6e74726163740000006044820152606490fd5b82519091501561260c5750805190602001fd5b6040519062461bcd60e51b82528160208060048301528251908160248401526000935b828510612652575050604492506000838284010152601f80199101168101030190fd5b848101820151868601604401529381019385935061262f565b80916101e092839103126104905760405191820182811067ffffffffffffffff821117610624576040528051825260208101516003811015610490576020830152604081015160028110156104905760408301526126cb60608201612177565b60608301526126dc60808201612177565b608083015260a081015160a083015260c081015160c083015260e081015160e083015261010080820151908301526101208082015190830152610140612723818301612177565b90830152610160612735818301612177565b9083015261018080820151908301526101a0612752818301612177565b9083015261224a6101c0809201612177565b1561276b57565b60405162461bcd60e51b815260206004820152600e60248201526d22a9292fa7a7262cafa7aba722a960911b6044820152606490fd5b818102929181159184041417156127b457565b634e487b7160e01b600052601160045260246000fd5b91670de0b6b3a7640000916127e26127e792856127a1565b6127a1565b0481018091116127b45790565b9061ffff16801561280f5761280b906064926127a1565b0490565b5090565b9061ffff8091166064811061049057606319018181116127b45781166064039081116127b457612842916127f4565b9056fea2646970667358221220f38fda8f23883521ea3d304530c7b4696e247bd47e5951758224f91ff00a591064736f6c63430008110033",
  "immutableReferences": {},
  "source": "// SPDX-License-Identifier: GPL-3.0\r\npragma solidity >=0.7.0 <0.9.0;\r\n\r\nimport \"./libraries/Errors.sol\";\r\nimport \"./libraries/AssetLibrary.sol\";\r\n\r\nimport \"./math/SimpleInterest.sol\";\r\n\r\nimport \"./interfaces/IPriceFeed.sol\";\r\nimport \"./interfaces/ILoanToValueRatio.sol\";\r\n\r\nimport \"./managers/LoanManager.sol\";\r\nimport \"./managers/OfferManager.sol\";\r\nimport \"./managers/PoolManager.sol\";\r\n\r\nimport \"@openzeppelin/contracts/utils/Context.sol\";\r\nimport \"@openzeppelin/contracts/utils/math/SafeMath.sol\";\r\nimport \"@openzeppelin/contracts/token/ERC20/utils/SafeERC20.sol\";\r\nimport \"@openzeppelin/contracts/token/ERC20/ERC20.sol\";\r\nimport \"@openzeppelin/contracts/security/ReentrancyGuard.sol\";\r\n\r\ncontract LendingPool is Context, ReentrancyGuard, SimpleInterest {\r\n    using SafeMath for uint256;\r\n    using SafeERC20 for ERC20;\r\n\r\n    address deployer;\r\n\r\n    IPriceFeed private _priceFeed;\r\n    ILoanToValueRatio private _ltv;\r\n\r\n    // managers\r\n    PoolManager private _poolManager;\r\n    LoanManager private _loanManager;\r\n    OfferManager private _offerManager;\r\n\r\n    address public constant nativeAddress =\r\n        0xEeeeeEeeeEeEeeEeEeEeeEEEeeeeEeeeeeeeEEeE;\r\n\r\n    constructor(\r\n        address poolManager_,\r\n        address loanManager_,\r\n        address offerManager_\r\n    ) ReentrancyGuard() {\r\n        deployer = _msgSender();\r\n\r\n        _poolManager = PoolManager(poolManager_);\r\n        _loanManager = LoanManager(loanManager_);\r\n        _offerManager = OfferManager(offerManager_);\r\n    }\r\n\r\n    // @lenders\r\n    function createLendingOffer(\r\n        address principalType,\r\n        uint256 _principal, // only for ERC20 assets\r\n        uint256 interest,\r\n        uint256 daysToMaturity,\r\n        uint256 daysToExpire,\r\n        address[] memory collateralTypes\r\n    ) public payable {\r\n        uint256 principalAmount;\r\n\r\n        require(collateralTypes.length > 0, \"ERR_NO_COLLATERAL_TYPES\");\r\n\r\n        /* extract tokens from lender */\r\n        if (principalType == nativeAddress) {\r\n            principalAmount = msg.value;\r\n        } else {\r\n            principalAmount = _principal;\r\n            ERC20(principalType).transferFrom(\r\n                _msgSender(),\r\n                address(this),\r\n                principalAmount\r\n            );\r\n        }\r\n\r\n        require(\r\n            _poolManager.deposit(_msgSender(), principalType, principalAmount),\r\n            \"ERR_POOL_MANAGER_DEPOSIT\"\r\n        );\r\n\r\n        /* create the offer */\r\n        require(\r\n            _offerManager.createLendingOffer(\r\n                principalType,\r\n                principalAmount,\r\n                interest,\r\n                daysToMaturity,\r\n                daysToExpire,\r\n                collateralTypes,\r\n                _msgSender()\r\n            ) > 0,\r\n            \"ERR_OFFER_MANAGER_CREATE\"\r\n        );\r\n    }\r\n\r\n    // @lenders\r\n    function acceptBorrowingOffer(uint256 offerId, uint16 desiredPercentage)\r\n        public\r\n        payable\r\n    {\r\n        OfferLibrary.BorrowingOffer memory offer = _offerManager\r\n            .getBorrowingOffer(offerId);\r\n\r\n        // platform safety\r\n        require(offer.expiresAt > block.timestamp, \"ERR_OFFER_EXPIRED\");\r\n        require(_msgSender() != offer.borrower, \"ERR_CANT_BORROW_OWN\");\r\n\r\n        // percentage must be 25, 50, 75 or 100\r\n        require(desiredPercentage <= 100, \"OVER_PERCENTAGE\");\r\n        require(desiredPercentage % 25 == 0, \"ERR_PERCENTAGE\");\r\n\r\n        uint256 collateralAmount = percentageOf(\r\n            offer.initialCollateral,\r\n            desiredPercentage\r\n        );\r\n\r\n        uint256 principalAmount = percentageOf(\r\n            offer.initialPrincipal,\r\n            desiredPercentage\r\n        );\r\n\r\n        // verify if the remain offer is enough\r\n        require(\r\n            offer.currentCollateral >= collateralAmount &&\r\n                offer.currentPrincipal >= principalAmount,\r\n            \"ERR_COLLATERAL_BALANCE\"\r\n        );\r\n\r\n        /* extract principal from lender */\r\n        /* transfer principal to borrower */\r\n        if (offer.principalType == nativeAddress) {\r\n            // if principal is native coin\r\n            require(msg.value >= principalAmount);\r\n            payable(offer.borrower).transfer(principalAmount);\r\n        } else {\r\n            // if principal is ERC20\r\n            ERC20(offer.principalType).transferFrom(\r\n                _msgSender(),\r\n                address(this),\r\n                principalAmount\r\n            );\r\n            ERC20(offer.principalType).transfer(\r\n                offer.borrower,\r\n                principalAmount\r\n            );\r\n        }\r\n\r\n        /* register the loan from the loan manager */\r\n        require(\r\n            _loanManager.createLoan(\r\n                offer.offerId,\r\n                OfferLibrary.Type.BORROWING_OFFER,\r\n                offer.principalType,\r\n                offer.collateralType,\r\n                principalAmount,\r\n                collateralAmount,\r\n                offer.interest,\r\n                offer.daysToMaturity,\r\n                offer.borrower,\r\n                _msgSender()\r\n            ) > 0,\r\n            \"ERR_LOAN_MANAGER_CREATE\"\r\n        );\r\n\r\n        _offerManager._afterOfferBorrowingLoan(offerId, collateralAmount);\r\n    }\r\n\r\n    // @lenders\r\n    function acceptBorrowingRequest(uint256 requestId) public payable {\r\n        RequestLibrary.BorrowingRequest memory request = _offerManager\r\n            .getBorrowingRequest(requestId);\r\n\r\n        require(request.expiresAt > block.timestamp, \"ERR_REQUEST_EXPIRED\");\r\n\r\n        OfferLibrary.LendingOffer memory offer = _offerManager.getLendingOffer(\r\n            request.offerId\r\n        );\r\n        require(offer.lender == _msgSender(), \"ERR_ONLY_LENDER\");\r\n\r\n        // verify if the remain offer is enough\r\n        require(\r\n            offer.currentPrincipal >= request.principalAmount,\r\n            \"ERR_INSUFICIENT\"\r\n        );\r\n\r\n        /* extract principal from lender */\r\n        /* transfer principal to borrower */\r\n        if (offer.principalType == nativeAddress) {\r\n            // if principal is native coin\r\n            require(msg.value >= request.principalAmount);\r\n            payable(request.borrower).transfer(request.principalAmount);\r\n        } else {\r\n            // if principal is ERC20\r\n            ERC20(offer.principalType).transferFrom(\r\n                _msgSender(),\r\n                address(this),\r\n                request.principalAmount\r\n            );\r\n            ERC20(offer.principalType).transfer(\r\n                request.borrower,\r\n                request.principalAmount\r\n            );\r\n        }\r\n\r\n        /* register the loan from the loan manager */\r\n        require(\r\n            _loanManager.createLoan(\r\n                request.offerId,\r\n                OfferLibrary.Type.LENDING_OFFER,\r\n                offer.principalType,\r\n                request.collateralType,\r\n                request.principalAmount,\r\n                request.collateralAmount,\r\n                request.interest,\r\n                request.daysToMaturity,\r\n                request.borrower,\r\n                _msgSender()\r\n            ) > 0,\r\n            \"ERR_LOAN_MANAGER_CREATE\"\r\n        );\r\n\r\n        _offerManager._afterOfferLendingLoan(\r\n            offer.offerId,\r\n            request.principalAmount\r\n        );\r\n    }\r\n\r\n    // @borrower\r\n    function createBorrowingOffer(\r\n        address principalType,\r\n        address collateralType,\r\n        uint256 _collateral, // for ERC20 assets\r\n        uint256 interest,\r\n        uint256 daysToMaturity,\r\n        uint256 daysToExpire\r\n    ) public payable {\r\n        uint256 collateralAmount;\r\n\r\n        /* extract collateral from borrower */\r\n        if (collateralType == nativeAddress) {\r\n            collateralAmount = msg.value;\r\n        } else {\r\n            collateralAmount = _collateral;\r\n            ERC20(collateralType).transferFrom(\r\n                _msgSender(),\r\n                address(this),\r\n                collateralAmount\r\n            );\r\n        }\r\n\r\n        uint16 ltv = _ltv.getLTV(_msgSender());\r\n\r\n        uint256 principalPrice = _priceFeed.exchangeRate(\r\n            collateralType,\r\n            principalType,\r\n            collateralAmount\r\n        );\r\n\r\n        uint256 principalAmount = percentageInverseOf(principalPrice, ltv) /\r\n            _ltv.getBase();\r\n\r\n        /* deposit tokens to vault */\r\n        require(\r\n            _poolManager.deposit(\r\n                _msgSender(),\r\n                collateralType,\r\n                collateralAmount\r\n            ),\r\n            \"ERR_POOL_MANAGER_DEPOSIT\"\r\n        );\r\n\r\n        /* create the offer */\r\n        require(\r\n            _offerManager.createBorrowingOffer(\r\n                principalType,\r\n                collateralType,\r\n                collateralAmount,\r\n                principalAmount,\r\n                interest,\r\n                daysToMaturity,\r\n                daysToExpire,\r\n                _msgSender()\r\n            ) > 0,\r\n            \"ERR_OFFER_MANAGER_CREATE\"\r\n        );\r\n    }\r\n\r\n    // @borrower\r\n    function acceptLendingOffer(\r\n        uint256 offerId,\r\n        uint16 desiredPercentage,\r\n        address collateralType\r\n    ) public payable {\r\n        OfferLibrary.LendingOffer memory offer = _offerManager.getLendingOffer(\r\n            offerId\r\n        );\r\n\r\n        require(offer.expiresAt > block.timestamp, \"ERR_OFFER_EXPIRED\");\r\n        // percentage must be 25, 50, 75 or 100\r\n        require(desiredPercentage <= 100, \"OVER_PERCENTAGE\");\r\n        require(desiredPercentage % 25 == 0, \"ERR_PERCENTAGE\");\r\n\r\n        bool supported = false;\r\n        for (uint256 index = 0; index < offer.collateralTypes.length; index++) {\r\n            if (offer.collateralTypes[index] == collateralType) {\r\n                supported = true;\r\n                break;\r\n            }\r\n        }\r\n        require(supported, \"ERR_COLLATERAL_NOT_SUPPORTED\");\r\n\r\n        uint256 principalAmount = percentageOf(\r\n            offer.initialPrincipal,\r\n            desiredPercentage\r\n        );\r\n\r\n        require(\r\n            principalAmount <= offer.currentPrincipal,\r\n            \"ERR_INSUFFICIENT_AMOUNT\"\r\n        );\r\n\r\n        /* get the trust factor of the borrower */\r\n        uint16 ltv = _ltv.getLTV(_msgSender());\r\n\r\n        /* calculate the collateral amount */\r\n        uint256 priceInFullCollateral = _priceFeed.exchangeRate(\r\n            offer.principalType,\r\n            collateralType,\r\n            principalAmount\r\n        );\r\n\r\n        uint256 collateralAmount = percentageOf(priceInFullCollateral, ltv) /\r\n            _ltv.getBase();\r\n\r\n        /* extract collateral tokens from borrower */\r\n        if (collateralType == nativeAddress) {\r\n            require(collateralAmount >= msg.value, \"ERR_COLLATERAL_AMOUNT\");\r\n        } else {\r\n            ERC20(collateralType).transferFrom(\r\n                _msgSender(),\r\n                address(this),\r\n                collateralAmount\r\n            );\r\n        }\r\n\r\n        require(\r\n            _poolManager.deposit(\r\n                _msgSender(),\r\n                collateralType,\r\n                collateralAmount\r\n            ),\r\n            \"ERR_POOL_MANAGER_DEPOSIT\"\r\n        );\r\n\r\n        /* transfer the asset to borrower */\r\n        _poolManager.withdraw(\r\n            _msgSender(),\r\n            offer.principalType,\r\n            principalAmount\r\n        );\r\n\r\n        if (offer.principalType == nativeAddress) {\r\n            payable(_msgSender()).transfer(principalAmount);\r\n        } else {\r\n            ERC20(offer.principalType).safeTransfer(\r\n                _msgSender(),\r\n                principalAmount\r\n            );\r\n        }\r\n\r\n        /* update offer balance */\r\n        _offerManager._afterOfferLendingLoan(offerId, principalAmount);\r\n\r\n        /* register the loan */\r\n        _loanManager.createLoan(\r\n            offerId,\r\n            OfferLibrary.Type.LENDING_OFFER,\r\n            offer.principalType,\r\n            collateralType,\r\n            principalAmount,\r\n            collateralAmount,\r\n            offer.interest,\r\n            offer.daysToMaturity,\r\n            _msgSender(),\r\n            offer.lender\r\n        );\r\n\r\n        // amount in USD\r\n        // _activity.borrowLoan(_msgSender(), 0);\r\n    }\r\n\r\n    // @borrower\r\n    function acceptLendingRequest(uint256 requestId) public payable {\r\n        RequestLibrary.LendingRequest memory request = _offerManager\r\n            .getLendingRequest(requestId);\r\n\r\n        require(request.expiresAt > block.timestamp, \"ERR_REQUEST_EXPIRED\");\r\n        // require(request.borrower == _msgSender(), \"ERR_ONLY_BORROWER\");\r\n\r\n        OfferLibrary.BorrowingOffer memory offer = _offerManager\r\n            .getBorrowingOffer(request.offerId);\r\n\r\n        uint256 collateralAmount = percentageOf(\r\n            offer.initialCollateral,\r\n            request.desiredPercentage\r\n        );\r\n\r\n        uint256 principalNormalAmount = _priceFeed.exchangeRate(\r\n            offer.collateralType,\r\n            offer.principalType,\r\n            offer.initialCollateral\r\n        );\r\n\r\n        uint16 ltv = _ltv.getLTV(_msgSender());\r\n\r\n        uint256 principalAmount = percentageInverseOf(\r\n            principalNormalAmount,\r\n            ltv\r\n        ) / _ltv.getBase();\r\n\r\n        // verify if the remain offer is enough\r\n        require(offer.currentCollateral >= collateralAmount, \"ERR_INSUFICIENT\");\r\n\r\n        /* extract principal from lender */\r\n        /* transfer principal to borrower */\r\n        if (offer.principalType == nativeAddress) {\r\n            // if principal is native coin\r\n            require(msg.value >= principalAmount);\r\n            payable(_msgSender()).transfer(principalAmount);\r\n        } else {\r\n            // if principal is ERC20\r\n            ERC20(offer.principalType).transferFrom(\r\n                _msgSender(),\r\n                address(this),\r\n                principalAmount\r\n            );\r\n            ERC20(offer.principalType).transfer(_msgSender(), principalAmount);\r\n        }\r\n\r\n        /* register the loan from the loan manager */\r\n        require(\r\n            _loanManager.createLoan(\r\n                request.offerId,\r\n                OfferLibrary.Type.LENDING_OFFER,\r\n                offer.principalType,\r\n                offer.collateralType,\r\n                principalAmount,\r\n                collateralAmount,\r\n                request.interest,\r\n                request.daysToMaturity,\r\n                _msgSender(),\r\n                request.lender\r\n            ) > 0,\r\n            \"ERR_LOAN_MANAGER_CREATE\"\r\n        );\r\n\r\n        _offerManager._afterOfferLendingLoan(offer.offerId, principalAmount);\r\n    }\r\n\r\n    function repayLoan(uint256 loanId) public payable {\r\n        LoanLibrary.Loan memory loan = _loanManager.getLoan(loanId);\r\n\r\n        // verify the borrower is the repayer\r\n        require(loan.borrower == _msgSender(), \"ERR_NOT_BORROWER\");\r\n\r\n        // ensure valid initial loan state when starting loan\r\n        require(loan.state == LoanLibrary.State.ACTIVE, \"ERR_LOAN_NOT_ACTIVE\");\r\n\r\n        // calculate the duration of the loan\r\n        uint256 time = block.timestamp;\r\n        uint256 ellapsedSecs = (time - loan.startDate);\r\n\r\n        // calculate the pay back amount\r\n        uint256 repayAmount = getFullInterestAmount(\r\n            loan.currentPrincipal,\r\n            ellapsedSecs,\r\n            loan.interest\r\n        );\r\n\r\n        // update ledger book\r\n        _loanManager.repayLoanAll(loanId);\r\n\r\n        /* extract pay back amount */\r\n        if (loan.principalType == nativeAddress) {\r\n            // if principal is native coin\r\n            require(msg.value >= repayAmount);\r\n        } else {\r\n            // if principal is ERC20 token\r\n            ERC20(loan.principalType).transferFrom(\r\n                _msgSender(),\r\n                address(this),\r\n                repayAmount\r\n            );\r\n        }\r\n\r\n        /* transfer collateral */\r\n        if (loan.collateralType == nativeAddress) {\r\n            // if collateral is native coin\r\n            payable(_msgSender()).transfer(loan.currentCollateral);\r\n        } else {\r\n            // if collateral is ERC20 token\r\n            ERC20(loan.collateralType).transfer(\r\n                _msgSender(),\r\n                loan.currentCollateral\r\n            );\r\n        }\r\n    }\r\n\r\n    function repayLiquidatedLoan(uint256 loanId) public payable {\r\n        LoanLibrary.Loan memory loan = _loanManager.getLoan(loanId);\r\n\r\n        bool liquidated = loan.state == LoanLibrary.State.LIQUIDATED;\r\n        require(liquidated);\r\n    }\r\n\r\n    function setPriceFeed(address priceFeed_) public onlyOwner {\r\n        _priceFeed = IPriceFeed(priceFeed_);\r\n    }\r\n\r\n    function changeOwner(address newOwner) public onlyOwner {\r\n        deployer = newOwner;\r\n    }\r\n\r\n    modifier onlyOwner() {\r\n        require(_msgSender() == deployer, \"ERR_ONLY_OWNER\");\r\n        _;\r\n    }\r\n}\r\n",
  "sourcePath": "C:\\Users\\DELL\\Documents\\darsh\\smart-contracts\\contracts\\LendingPool.sol",
  "compiler": {
    "name": "solc",
    "version": "0.8.17+commit.8df45f5f.Emscripten.clang"
  },
  "schemaVersion": "3.4.11",
  "updatedAt": "2023-02-11T16:42:48.035Z",
  "devdoc": {
    "kind": "dev",
    "methods": {},
    "version": 1
  },
  "userdoc": {
    "kind": "user",
    "methods": {},
    "version": 1
  }
}