{
  "contractName": "LendingPool",
  "abi": [
    {
      "inputs": [],
      "stateMutability": "nonpayable",
      "type": "constructor"
    },
    {
      "anonymous": false,
      "inputs": [
        {
          "indexed": true,
          "internalType": "address",
          "name": "previousOwner",
          "type": "address"
        },
        {
          "indexed": true,
          "internalType": "address",
          "name": "newOwner",
          "type": "address"
        }
      ],
      "name": "OwnershipTransferStarted",
      "type": "event"
    },
    {
      "anonymous": false,
      "inputs": [
        {
          "indexed": true,
          "internalType": "address",
          "name": "previousOwner",
          "type": "address"
        },
        {
          "indexed": true,
          "internalType": "address",
          "name": "newOwner",
          "type": "address"
        }
      ],
      "name": "OwnershipTransferred",
      "type": "event"
    },
    {
      "anonymous": false,
      "inputs": [
        {
          "indexed": false,
          "internalType": "address",
          "name": "account",
          "type": "address"
        }
      ],
      "name": "Paused",
      "type": "event"
    },
    {
      "anonymous": false,
      "inputs": [
        {
          "indexed": false,
          "internalType": "address",
          "name": "account",
          "type": "address"
        }
      ],
      "name": "Unpaused",
      "type": "event"
    },
    {
      "inputs": [],
      "name": "INTEREST_RATE_DENOMINATOR",
      "outputs": [
        {
          "internalType": "uint256",
          "name": "",
          "type": "uint256"
        }
      ],
      "stateMutability": "view",
      "type": "function"
    },
    {
      "inputs": [],
      "name": "LENDINGPOOL_VERSION",
      "outputs": [
        {
          "internalType": "uint256",
          "name": "",
          "type": "uint256"
        }
      ],
      "stateMutability": "view",
      "type": "function"
    },
    {
      "inputs": [],
      "name": "PERCENT",
      "outputs": [
        {
          "internalType": "uint16",
          "name": "",
          "type": "uint16"
        }
      ],
      "stateMutability": "view",
      "type": "function"
    },
    {
      "inputs": [],
      "name": "acceptOwnership",
      "outputs": [],
      "stateMutability": "nonpayable",
      "type": "function"
    },
    {
      "inputs": [
        {
          "internalType": "uint16",
          "name": "percentage",
          "type": "uint16"
        }
      ],
      "name": "checkPercentage",
      "outputs": [],
      "stateMutability": "pure",
      "type": "function"
    },
    {
      "inputs": [
        {
          "internalType": "uint256",
          "name": "principal",
          "type": "uint256"
        },
        {
          "internalType": "uint256",
          "name": "durationSecs",
          "type": "uint256"
        },
        {
          "internalType": "uint256",
          "name": "interest",
          "type": "uint256"
        }
      ],
      "name": "getFullInterestAmount",
      "outputs": [
        {
          "internalType": "uint256",
          "name": "",
          "type": "uint256"
        }
      ],
      "stateMutability": "pure",
      "type": "function"
    },
    {
      "inputs": [],
      "name": "nativeAddress",
      "outputs": [
        {
          "internalType": "address",
          "name": "",
          "type": "address"
        }
      ],
      "stateMutability": "view",
      "type": "function"
    },
    {
      "inputs": [],
      "name": "owner",
      "outputs": [
        {
          "internalType": "address",
          "name": "",
          "type": "address"
        }
      ],
      "stateMutability": "view",
      "type": "function"
    },
    {
      "inputs": [],
      "name": "paused",
      "outputs": [
        {
          "internalType": "bool",
          "name": "",
          "type": "bool"
        }
      ],
      "stateMutability": "view",
      "type": "function"
    },
    {
      "inputs": [],
      "name": "pendingOwner",
      "outputs": [
        {
          "internalType": "address",
          "name": "",
          "type": "address"
        }
      ],
      "stateMutability": "view",
      "type": "function"
    },
    {
      "inputs": [
        {
          "internalType": "uint256",
          "name": "total",
          "type": "uint256"
        },
        {
          "internalType": "uint160",
          "name": "percent",
          "type": "uint160"
        }
      ],
      "name": "percentageOf",
      "outputs": [
        {
          "internalType": "uint256",
          "name": "",
          "type": "uint256"
        }
      ],
      "stateMutability": "pure",
      "type": "function"
    },
    {
      "inputs": [],
      "name": "renounceOwnership",
      "outputs": [],
      "stateMutability": "nonpayable",
      "type": "function"
    },
    {
      "inputs": [
        {
          "internalType": "address",
          "name": "newOwner",
          "type": "address"
        }
      ],
      "name": "transferOwnership",
      "outputs": [],
      "stateMutability": "nonpayable",
      "type": "function"
    },
    {
      "inputs": [
        {
          "internalType": "uint256",
          "name": "principalAmount_",
          "type": "uint256"
        },
        {
          "internalType": "address",
          "name": "principalToken",
          "type": "address"
        },
        {
          "internalType": "address[]",
          "name": "collateralTokens",
          "type": "address[]"
        },
        {
          "internalType": "uint16",
          "name": "daysToMaturity",
          "type": "uint16"
        },
        {
          "internalType": "uint256",
          "name": "interest",
          "type": "uint256"
        },
        {
          "internalType": "uint16",
          "name": "daysToExpire",
          "type": "uint16"
        }
      ],
      "name": "createLendingOffer",
      "outputs": [],
      "stateMutability": "payable",
      "type": "function"
    },
    {
      "inputs": [
        {
          "internalType": "uint256",
          "name": "offerId",
          "type": "uint256"
        },
        {
          "internalType": "uint16",
          "name": "percentage",
          "type": "uint16"
        },
        {
          "internalType": "uint16",
          "name": "daysToMaturity",
          "type": "uint16"
        },
        {
          "internalType": "uint256",
          "name": "interest",
          "type": "uint256"
        },
        {
          "internalType": "uint16",
          "name": "hoursToExpire",
          "type": "uint16"
        }
      ],
      "name": "createLendingRequest",
      "outputs": [],
      "stateMutability": "payable",
      "type": "function"
    },
    {
      "inputs": [
        {
          "internalType": "uint256",
          "name": "offerId",
          "type": "uint256"
        },
        {
          "internalType": "uint16",
          "name": "percentage",
          "type": "uint16"
        }
      ],
      "name": "acceptBorrowingOffer",
      "outputs": [],
      "stateMutability": "payable",
      "type": "function"
    },
    {
      "inputs": [
        {
          "internalType": "uint256",
          "name": "requestId",
          "type": "uint256"
        }
      ],
      "name": "acceptBorrowingRequest",
      "outputs": [],
      "stateMutability": "nonpayable",
      "type": "function"
    },
    {
      "inputs": [
        {
          "internalType": "address",
          "name": "principalToken",
          "type": "address"
        },
        {
          "internalType": "uint256",
          "name": "principalAmount",
          "type": "uint256"
        },
        {
          "internalType": "address",
          "name": "collateralToken",
          "type": "address"
        },
        {
          "internalType": "uint256",
          "name": "interest",
          "type": "uint256"
        },
        {
          "internalType": "uint16",
          "name": "daysToMaturity",
          "type": "uint16"
        },
        {
          "internalType": "uint16",
          "name": "hoursToExpire",
          "type": "uint16"
        }
      ],
      "name": "createBorrowingOffer",
      "outputs": [],
      "stateMutability": "payable",
      "type": "function"
    },
    {
      "inputs": [
        {
          "internalType": "uint256",
          "name": "offerId",
          "type": "uint256"
        },
        {
          "internalType": "uint16",
          "name": "percentage",
          "type": "uint16"
        },
        {
          "internalType": "address",
          "name": "collateralToken",
          "type": "address"
        },
        {
          "internalType": "uint256",
          "name": "interest",
          "type": "uint256"
        },
        {
          "internalType": "uint16",
          "name": "daysToMaturity",
          "type": "uint16"
        },
        {
          "internalType": "uint16",
          "name": "hoursToExpire",
          "type": "uint16"
        }
      ],
      "name": "createBorrowingRequest",
      "outputs": [],
      "stateMutability": "payable",
      "type": "function"
    },
    {
      "inputs": [
        {
          "internalType": "uint256",
          "name": "offerId",
          "type": "uint256"
        },
        {
          "internalType": "uint16",
          "name": "percentage",
          "type": "uint16"
        },
        {
          "internalType": "address",
          "name": "collateralToken",
          "type": "address"
        }
      ],
      "name": "acceptLendingOffer",
      "outputs": [],
      "stateMutability": "payable",
      "type": "function"
    },
    {
      "inputs": [
        {
          "internalType": "uint256",
          "name": "requestId",
          "type": "uint256"
        }
      ],
      "name": "acceptLendingRequest",
      "outputs": [],
      "stateMutability": "payable",
      "type": "function"
    },
    {
      "inputs": [
        {
          "internalType": "uint256",
          "name": "offerId",
          "type": "uint256"
        },
        {
          "internalType": "uint16",
          "name": "toExpire",
          "type": "uint16"
        }
      ],
      "name": "reActivateOffer",
      "outputs": [],
      "stateMutability": "nonpayable",
      "type": "function"
    },
    {
      "inputs": [
        {
          "internalType": "uint256",
          "name": "loanId",
          "type": "uint256"
        },
        {
          "internalType": "uint16",
          "name": "percentage",
          "type": "uint16"
        }
      ],
      "name": "repayLoan",
      "outputs": [],
      "stateMutability": "payable",
      "type": "function"
    },
    {
      "inputs": [
        {
          "internalType": "uint256",
          "name": "requestId",
          "type": "uint256"
        }
      ],
      "name": "rejectRequest",
      "outputs": [],
      "stateMutability": "nonpayable",
      "type": "function"
    },
    {
      "inputs": [
        {
          "internalType": "uint256",
          "name": "requestId",
          "type": "uint256"
        }
      ],
      "name": "cancelLendRequest",
      "outputs": [],
      "stateMutability": "nonpayable",
      "type": "function"
    },
    {
      "inputs": [
        {
          "internalType": "uint256",
          "name": "requestId",
          "type": "uint256"
        }
      ],
      "name": "cancelBorrowRequest",
      "outputs": [],
      "stateMutability": "nonpayable",
      "type": "function"
    },
    {
      "inputs": [
        {
          "internalType": "uint256",
          "name": "loanId",
          "type": "uint256"
        }
      ],
      "name": "claimCollateral",
      "outputs": [],
      "stateMutability": "nonpayable",
      "type": "function"
    },
    {
      "inputs": [
        {
          "internalType": "uint256",
          "name": "loanId",
          "type": "uint256"
        }
      ],
      "name": "claimLoanPrincipal",
      "outputs": [],
      "stateMutability": "nonpayable",
      "type": "function"
    },
    {
      "inputs": [
        {
          "internalType": "uint256",
          "name": "loanId",
          "type": "uint256"
        }
      ],
      "name": "claimPrincipal",
      "outputs": [],
      "stateMutability": "nonpayable",
      "type": "function"
    },
    {
      "inputs": [
        {
          "internalType": "uint256",
          "name": "loanId",
          "type": "uint256"
        }
      ],
      "name": "claimDefaultCollateral",
      "outputs": [],
      "stateMutability": "nonpayable",
      "type": "function"
    },
    {
      "inputs": [
        {
          "internalType": "uint256",
          "name": "loanId",
          "type": "uint256"
        }
      ],
      "name": "repayLiquidatedLoan",
      "outputs": [],
      "stateMutability": "payable",
      "type": "function"
    },
    {
      "inputs": [],
      "name": "getVersion",
      "outputs": [
        {
          "internalType": "uint256",
          "name": "",
          "type": "uint256"
        }
      ],
      "stateMutability": "pure",
      "type": "function"
    },
    {
      "inputs": [
        {
          "internalType": "uint256",
          "name": "loanId",
          "type": "uint256"
        }
      ],
      "name": "liquidateLoan",
      "outputs": [],
      "stateMutability": "nonpayable",
      "type": "function"
    },
    {
      "inputs": [
        {
          "internalType": "address",
          "name": "ltv_",
          "type": "address"
        },
        {
          "internalType": "address",
          "name": "activity_",
          "type": "address"
        },
        {
          "internalType": "address",
          "name": "priceFeed_",
          "type": "address"
        }
      ],
      "name": "setFeeds",
      "outputs": [],
      "stateMutability": "nonpayable",
      "type": "function"
    },
    {
      "inputs": [
        {
          "internalType": "address",
          "name": "vaultManager_",
          "type": "address"
        },
        {
          "internalType": "address",
          "name": "loanManager_",
          "type": "address"
        },
        {
          "internalType": "address",
          "name": "offerManager_",
          "type": "address"
        },
        {
          "internalType": "address",
          "name": "feeManager_",
          "type": "address"
        }
      ],
      "name": "setManagers",
      "outputs": [],
      "stateMutability": "nonpayable",
      "type": "function"
    },
    {
      "inputs": [
        {
          "internalType": "address",
          "name": "token",
          "type": "address"
        },
        {
          "internalType": "address payable",
          "name": "receiver",
          "type": "address"
        },
        {
          "internalType": "uint256",
          "name": "amount",
          "type": "uint256"
        }
      ],
      "name": "claim",
      "outputs": [],
      "stateMutability": "nonpayable",
      "type": "function"
    }
  ],
  "bytecode": "0x6080806040523461006c5760016000556002546001543360018060a01b0319821617600155339060018060a01b03167f8be0079c531659141344cd1fd0a4f28419497f9722a3daafe3b4186f6b6457e0600080a36001600160a81b03191660025561444a90816100728239f35b600080fdfe6080604052600436101561001257600080fd5b6000803560e01c80630548db12146138325780630d8e6e2c14612c4c5780632672a87a146133205780632b994b43146131a35780632d7788db146131485780632e4763371461311f5780634add7c8214612c685780634ae3223514612c4c57806353188b14146128195780635c7f31aa146123185780635c975abb146122f257806361ba9443146122dd578063628118ee14611d75578063715018a614611d0d57806379ba509714611c495780637a5ae69e14611c1d5780637cc5805a14611abc5780638c21eb8b14611a2c5780638da5cb5b14611a03578063996cba68146118e7578063a33928da14611496578063a6aea41514611438578063aa71b2e7146113da578063b2ac850d14611366578063b85a8b201461134a578063c1bc89ef1461115f578063c49785b414611101578063cc3266e8146110de578063ccdd9f5d14610ca7578063e0b2695914610c73578063e0f7dffd14610c27578063e30c397814610bfe578063e826fbe7146104f4578063e9d1f8df14610320578063f2fde38b146102b25763f9af0579146101a957600080fd5b346102af5760203660031901126102af576101c26142e1565b6101ca613a02565b6007546040805163f400c74360e01b81526004803590820152336024820152839290916001600160a01b039183908316818681604481015b03925af180156102a4578392849161026f575b50166000805160206143f5833981519152810361025e575081808092818115610255575b3390f115610249575b6001815580f35b604051903d90823e3d90fd5b506108fc610239565b61026a92503390614050565b610242565b905061029491925060403d60401161029d575b61028c8183613946565b8101906142c4565b91909138610215565b503d610282565b6040513d85823e3d90fd5b80fd5b50346102af5760203660031901126102af576102cc6138a7565b6102d4613980565b600280546001600160a01b0319166001600160a01b039283169081179091556001549091167f38d16b8cac22d99fc7c124b9cd0de2d3fa1faef420bfe791d8c362d765e227008380a380f35b50346102af5760203660031901126102af578060043561033e613a02565b60085460405163c58343ef60e01b8152600481018390526001600160a01b03916101c091908316908281602481855afa9283156104e95786936104ba575b50506103a160016101a084015161039281613e59565b61039b81613e59565b14614285565b846101008301516024604051809481936322bc934560e11b835260048301525afa80156104af5761016084918793849161048d575b500151166000805160206143f58339815191528103610475575080806101408194015181811561046c575b3390f11561045d575b60085416803b1561046857604051639498506560e01b8152600481019290925233602483015282908290818381604481015b03925af1801561045d5761044d5750f35b6104569061391c565b6102af5780f35b6040513d84823e3d90fd5b5050fd5b506108fc610401565b9050610140610488920151903390614050565b61040a565b6104a991503d8086833e6104a18183613946565b810190613ce8565b386103d6565b6040513d87823e3d90fd5b6104da929350803d106104e2575b6104d28183613946565b810190613eed565b90388061037c565b503d6104c8565b6040513d88823e3d90fd5b5060603660031901126102af576105096138e9565b906105126138d3565b61051a613a02565b6105238361436e565b6008546040516322bc934560e11b81526004803590820152936001600160a01b03918216908486602481855afa9586156104af578596610be2575b50604051633970062960e01b815260048035908201526001600160a01b03851660248201526020928390829060449082908a905af19081156104e9576105c092916105b0918891610bb5575b506140c5565b61ffff608088015191169061434a565b826004541660408701918483511691846040518092818b816106068863912d228f60e01b9a8b84526004840160209093929193604081019460018060a01b031681520152565b03925af180156109d15785908990610b86575b6005546040516322a0fe3360e21b81523360048201526024810192909252909250829088168180604481015b03915afa80156109d1578890610b50575b600480548651604051631c07d98160e21b81526001600160a01b03918b168216938101939093528a16602483015260448201859052909250869083908916818c81606481015b03925af1918215610b45578992610b16575b50600486886005541660405192838092636882509b60e11b82525afa908115610a42578a91610ad3575b506106f1929160ff6106eb921690614097565b9061434a565b8686166000805160206143f58339815191528103610abe5750348110610a815787985b8660065416803b15610a7d578961074981928b6040519485809481936320e8c56560e01b83528a6004359133600486016139d8565b03925af1908115610a42578a91610a69575b505086600654168786511690803b15610a65576107988b92918392604051948580948193631effa54360e21b83528b6004359133600486016139d8565b03925af1908115610a42578a91610a4d575b5050600480546040518681526001600160a01b038b16928101929092526024820184905290989087908a9060449082908e908d165af1988915610a42578a99610a0e575b50869184918b8a61084e8d8b87846007541697856101c08201519361081285613e59565b51169560a08201519061012061ffff60c08501511693015116946040519d8e9c8d9b8c9a6319467e2760e01b8c5233988c600480359101613e79565b03925af180156109d1576109e0575b50846008541691823b156109dc57878093604460405180968193631b6eb38160e21b835260043560048401528760248401525af180156109d157859389916109b4575b5060048054955160405193845288166001600160a01b031690830152602482019290925292839160449183919088165af19182156104af57859261097e575b50508160035416803b1561097a5760405163456db94760e01b8152336004820152602481019290925284908290604490829084905af190811561096f57849161095b575b505060035416803b15610468576040516363a6c98160e01b81523360048201526024810192909252829082908183816044810161043c565b6109649061391c565b610468578238610923565b6040513d86823e3d90fd5b8480fd5b8195508092503d83116109ad575b6109968183613946565b810103126109a85783925138806108df565b600080fd5b503d61098c565b6109c09192945061391c565b6109cd57839187386108a0565b8680fd5b6040513d8a823e3d90fd5b8780fd5b84809298503d8311610a07575b6109f78183613946565b810103126109a85786953861085d565b503d6109ed565b995097508589813d8111610a3b575b610a278183613946565b810103126109a857975189989097866107ee565b503d610a1d565b6040513d8c823e3d90fd5b610a569061391c565b610a615788386107aa565b8880fd5b8a80fd5b610a729061391c565b610a6157883861075b565b8980fd5b60405162461bcd60e51b815260048101869052601560248201527411549497d0d3d31310551154905317d05353d55395605a1b6044820152606490fd5b98610ace828a9b30903390613a49565b610714565b90508681813d8311610b0f575b610aea8183613946565b81010312610a7d576106f1929160ff610b056106eb93614089565b92505091926106d8565b503d610ae0565b9091508581813d8311610b3e575b610b2e8183613946565b810103126109a8575190386106ae565b503d610b24565b6040513d8b823e3d90fd5b508481813d8311610b7f575b610b668183613946565b810103126109dc57610b7a61069c91613cc5565b610656565b503d610b5c565b5081813d8311610bae575b610b9b8183613946565b810103126109a857846106459151610619565b503d610b91565b610bd59150853d8711610bdb575b610bcd8183613946565b810190613a9c565b386105aa565b503d610bc3565b610bf79196503d8087833e6104a18183613946565b943861055e565b50346102af57806003193601126102af576002546040516001600160a01b039091168152602090f35b50346102af5760603660031901126102af576020610c6b6004356064670de0b6b3a7640000610c63602435610c5e60443586614337565b614337565b040490614278565b604051908152f35b50346102af5760403660031901126102af57602435906001600160a01b03821682036102af576020610c6b8360043561434a565b50346102af57806020806003193601126110db57610cc3613980565b610ccb6142e1565b8160018060a01b0391826007541660405190632820036560e11b82526004356004830152816024816102c09687945af19283156104af5785936110ac575b5050610d1a61014083015142614255565b92610d4360a08401946064670de0b6b3a7640000610c63885193610c5e6101208a015186614337565b600480546040868101516060880180519251631c07d98160e21b8082526001600160a01b0393891684169682019690965292871690911660248301526044820185905295939092918490849060649082908d908a165af1928315610b45578993611078575b5083610e0291888a8c610dcd8a6040816004541695015116948b8d5116935190614255565b6040518881526001600160a01b0395861660048201529290941660248301526044820193909352938492839182906064820190565b03925af1908115610b45578991611046575b50889084866009541660046040518095819363a001ecdd60e01b83525af1908115610a42578a9161100e575b610e4a925061434a565b9260e08701968751610e5c8686614255565b11610f7757505050610e6e8282614255565b95519451818110610f5a575050915b81806009541691511690803b156109cd5760405163ef6506db60e01b81526001600160a01b039290921660048301526024820184905286908290604490829084905af19081156104e9578691610f46575b5050610edf90600754169184614255565b90803b1561097a57604051633799ba3f60e01b815260048035908201526024810193909352604483019390935260648201529082908290608490829084905af1801561045d57610f32575b506001905580f35b610f3b9061391c565b6102af578038610f2a565b610f4f9061391c565b61097a578438610ece565b909550610f6b610f71928297614255565b90614255565b91610e7d565b965160048054885160409a8b01519a5195865288166001600160a01b03908116928601929092529887161660248401526044830181905297509395909250839150829060649082908a9089165af19182156104e9578692610fdd575b5050918491610e7d565b8196508092503d8311611007575b610ff58183613946565b810103126109a8578493513880610fd3565b503d610feb565b90508482813d831161103f575b6110258183613946565b81010312610a7d57611039610e4a92613cc5565b90610e40565b503d61101b565b809950848092503d8311611071575b61105f8183613946565b810103126109a8578880985190610e14565b503d611055565b985091508288813d81116110a5575b6110918183613946565b810103126109a85796518897909183610da8565b503d611087565b6110cc929350803d106110d4575b6110c48183613946565b810190614111565b903880610d09565b503d6110ba565b50fd5b50346102af57806003193601126102af576020604051670de0b6b3a76400008152f35b50346102af5760203660031901126102af5761111b6142e1565b611123613a02565b6007546040805163014b594760e71b81526004803590820152336024820152839290916001600160a01b03918390831681868160448101610202565b5060c03660031901126102af57600435906111786138bd565b916044359267ffffffffffffffff84116113465736602385011215611346578360040135936111a685613968565b6111b36040519182613946565b8581526020918282016024819860051b830101913683116109dc57602401905b8282106113275750505060643561ffff948582168092036109a8576111f661390b565b906111ff613a02565b6001600160a01b0393868516916000805160206143f58339815191528303611315575034975b8560085416936040519563031137cd60e61b875260e487019460048801528a60248801526084356044880152606487015216608485015260e060a48501525180915261010483019890885b8181106112ff57505050818491818981819c3360c483015203925af19283156104e95786936112cc575b505060065416803b1561097a5761043c93858094604051968795869485936320e8c56560e01b855233600486016139d8565b819650809293503d83116112f8575b6112e58183613946565b810103126109a85784935190388061129a565b503d6112db565b825186168b529986019991860191600101611270565b9761132289303386613a49565b611225565b81356001600160a01b03811681036109a85781529084019084016111d3565b8280fd5b50346102af57806003193601126102af57602060405160648152f35b50346102af5760403660031901126102af57806113816138e9565b611389613a02565b6008546001600160a01b031690813b156104685761ffff6064849283604051958694859363099bfe6b60e01b855260043560048601521660248401523360448401525af1801561045d5761044d5750f35b50346102af5760203660031901126102af576113f46142e1565b6113fc613a02565b6007546040805163cb7ec57b60e01b81526004803590820152336024820152839290916001600160a01b03918390831681868160448101610202565b50346102af5760203660031901126102af576114526142e1565b61145a613a02565b6007546040805163e41936d760e01b81526004803590820152336024820152839290916001600160a01b03918390831681868160448101610202565b5060403660031901126102af578060246114ae6138e9565b6114b6613a02565b6114bf8161436e565b6008546040516322bc934560e11b8152600480359082015292849184919082906001600160a01b03165afa9182156102a45783926118cb575b5061151c61151161ffff6101a08501519316809361434a565b91608084015161434a565b60408301519091906001600160a01b0316826000805160206143f583398151915282036118b957905034106117d8575b60065460408401516001600160a01b039081169116803b156118a15761159286929183926040519485809481936320e8c56560e01b83528a6004359133600486016139d8565b03925af19081156104af5785916118a5575b50506006546101608401516001600160a01b039081169116803b156118a1576115ed8692918392604051948580948193631effa54360e21b8352896004359133600486016139d8565b03925af19081156104af57859161188d575b50506004805461016085015160405163912d228f60e01b81526001600160a01b039182169381019390935260248301849052602091839160449183918a91165af19081156104af578591611855575b506020839160018060a01b03600754168651886101c089015161167081613e59565b6116d260018060a01b0360408c0151169389898d60018060a01b03610160820151169960a08201519061ffff60c0840151169261012060018060a01b0391015116946040519e8f9d8e9c8d9b8c9a6319467e2760e01b8c526004339c01613e79565b03925af180156104af57611826575b506008546001600160a01b0316803b1561097a57604051633496841f60e11b8152600480359082015260248101849052604481019290925284908290606490829084905af190811561096f578491611812575b505060048054604084810151905163912d228f60e01b81526001600160a01b039182169381019390935260248301939093529091602091839160449183918891165af19081156102a45783916117dd575b50600354610120909201516001600160a01b03928316921690823b156117d85760405163456db94760e01b81526001600160a01b039092166004830152602482015290829082908183816044810161043c565b505050fd5b9250506020823d60201161180a575b816117f960209383613946565b810103126109a85782915138611785565b3d91506117ec565b61181b9061391c565b610468578238611734565b6020809295503d831161184e575b61183e8183613946565b810103126109a8578392386116e1565b503d611834565b9450506020843d602011611885575b8161187160209383613946565b810103126109a8579251849390602061164e565b3d9150611864565b6118969061391c565b6117d85783386115ff565b8580fd5b6118ae9061391c565b6117d85783386115a4565b6118c69130903390613a49565b61154c565b6118e09192503d8085833e6104a18183613946565b90386114f8565b50346102af5760603660031901126102af576119016138a7565b6001600160a01b03602435818116908190036119ff5760443591611923613980565b61192b6142e1565b82156119c85784938160095416803b156118a1576040516331b5f13d60e11b81526001600160a01b0383166004820152602481018690529086908290604490829084905af19081156104e95786916119b4575b5050166000805160206143f583398151915281036119aa5750828092819282f115610249576001815580f35b61026a9350614050565b6119bd9061391c565b61097a57843861197e565b60405162461bcd60e51b815260206004820152600f60248201526e11549497d6915493d7d05353d55395608a1b6044820152606490fd5b8380fd5b50346102af57806003193601126102af576001546040516001600160a01b039091168152602090f35b50346102af5760803660031901126102af57611a466138a7565b611a4e6138bd565b90611a576138d3565b6064356001600160a01b03818116949092918590036109a8578290611a7a613980565b611a826142e1565b816001600160601b0360a01b9516856006541617600655168360075416176007551681600854161760085560095416176009556001815580f35b5060a03660031901126102af57600435611ad46138e9565b9060443561ffff8082168092036109a857611aed6138fa565b93611af6613a02565b611aff8161436e565b8560018060a01b03926024828560085416604051928380926322bc934560e11b82528b60048301525afa9081156102a4578391611c03575b50846040611b4d8460808501519716809761434a565b920151166000805160206143f58339815191528103611bea57503410611be65760209560c4945b60085416916040519889978896630b438b8960e41b885260048801526064356024880152604487015216606485015233608485015260a48401525af1801561045d57611bbe575080f35b602090813d8111611bdf575b611bd48183613946565b810103126109a85780f35b503d611bca565b5080fd5b94611bfe6020989260c49730903390613a49565b611b74565b611c1791503d8085833e6104a18183613946565b38611b37565b50346102af5760203660031901126102af5760043561ffff811681036109a857611c469061436e565b80f35b50346102af57806003193601126102af576002546001600160a01b033381831603611cb6576001600160601b0360a01b8092166002556001549133908316176001553391167f8be0079c531659141344cd1fd0a4f28419497f9722a3daafe3b4186f6b6457e0600080a380f35b60405162461bcd60e51b815260206004820152602960248201527f4f776e61626c6532537465703a2063616c6c6572206973206e6f7420746865206044820152683732bb9037bbb732b960b91b6064820152608490fd5b50346102af57806003193601126102af57611d26613980565b600280546001600160a01b03199081169091556001805491821690556000906001600160a01b03167f8be0079c531659141344cd1fd0a4f28419497f9722a3daafe3b4186f6b6457e08280a380f35b5060403660031901126102af5760043581611d8e6138e9565b91611d97613a02565b611da08361436e565b600754604051632820036560e11b8152600481018390526102c09390918491839160249183916001600160a01b03165af19283156104af5785936122be575b50506102808201516001600160a01b03163303612286578392611e0761014084015142614255565b92611e536064670de0b6b3a7640000611e4b611e3b611e3061ffff60808801519816809861434a565b9660c087015161434a565b97610c5e61012087015188614337565b040483614278565b611e5d8382614255565b9386602060018060a01b036009541660046040518094819363a001ecdd60e01b83525af19081156109d1578891612245575b50611e9d611ea4918761434a565b8096614255565b60095460408501516001600160a01b0391821697929392911690873b15610a7d5760405163ef6506db60e01b81526001600160a01b0392909216600483015260248201529588908790604490829084905af180156109d1578796899161222c575b5060075460405163094bb9f160e11b81526004810193909352602483018490526044830187905260648301989098529096602091889160849183916001600160a01b03165af19586156121ee57879661220b575b5060408301516001600160a01b0316826000805160206143f583398151915282036121f957905034106109cd575b60065460408401516001600160a01b0391821692911690611fa89086614278565b91845190803b15610a7d57611fd8938a8094604051968795869485936320e8c56560e01b855233600486016139d8565b03925af19081156121ee5787916121da575b5050600654606083015183516001600160a01b0391821692909116803b15610a615761203196898094604051998a9586948593631effa54360e21b855233600486016139d8565b03925af19384156104e95786946121c2575b5060045460408301516001600160a01b03908116926020926120a192169061206c908790614255565b60405163912d228f60e01b8082526001600160a01b039096166004820152602481019190915296879283919082906044820190565b03925af19384156104e9578694612185575b506004805460409384015193519283526001600160a01b039384169183019190915260248201939093529291602091849160449183918991165af191821561096f57849261214e575b506003546001600160a01b0316803b1561097a578492836084926040519687958694637bc5e09f60e11b865233600487015260248601526044850152151560648401525af1801561045d5761044d5750f35b935090506020833d60201161217d575b8161216b60209383613946565b810103126109a85783925190386120fc565b3d915061215e565b9193509194506020813d6020116121ba575b816121a460209383613946565b810103126109a8575185949092909160206120b3565b3d9150612197565b6121ce9094919461391c565b61097a57849238612043565b6121e39061391c565b6118a1578538611fea565b6040513d89823e3d90fd5b6122069130903390613a49565b611f87565b61222591965060203d602011610bdb57610bcd8183613946565b9438611f59565b6122389192975061391c565b6109cd5785948738611f05565b90506020813d60201161227e575b8161226060209383613946565b810103126109dc57611e9d612277611ea492613cc5565b9150611e8f565b3d9150612253565b60405162461bcd60e51b815260206004820152601060248201526f22a9292fa727aa2fa127a92927aba2a960811b6044820152606490fd5b6122d5929350803d106110d4576110c48183613946565b903880611ddf565b5060203660031901126102af576102426142e1565b50346102af57806003193601126102af57602060ff60025460a01c166040519015158152f35b5060203660031901126102af5761232d613a02565b60085460405163c58343ef60e01b8152600480359082015282916001600160a01b03166101c082602481845afa9182156102a45783926127f6575b50826101008301516024604051809481936322bc934560e11b835260048301525afa9081156102a45783916127dc575b506101a0810151916123c96123b7604083019461ffff8651169061434a565b9361ffff60808501519151169061434a565b60408301519093906001600160a01b0316846000805160206143f583398151915282036127cc57505084808580156127c2575b8280929181923390f11561096f575b6006546101608401516101008401516001600160a01b039283169290911690823b156109dc576124579284898094604051968795869485936320e8c56560e01b855233600486016139d8565b03925af19081156104e95786916127ae575b505060065460408401516101008401516001600160a01b039283169290911690823b156109dc576124b6928789809460405196879586948593631effa54360e21b855233600486016139d8565b03925af19081156104e957869161279a575b50506004805461016085015160405163912d228f60e01b81526001600160a01b039182169381019390935260248301849052919391602091859160449183918b91165af19283156104e957869361275f575b509160209185938760018060a01b0360075416926125a1610100840151916101c08a01519261254884613e59565b60408b8101516101608d0151608089015160608a015160e0909a015193516319467e2760e01b81529d8e9c8d9b8c9a6001600160a01b0397881699339961ffff9093169895979396909590811693169160048d01613fdb565b03925af1801561096f57612730575b5060018060a01b03600854168151813b1561097a578491604483926040519485938492631b6eb38160e21b845260048401528860248401525af190811561096f57849161271c575b50506008546001600160a01b0316803b156117d857604051636d5d42c560e11b815260048035908201523360248201529084908290604490829084905af190811561096f578491612708575b505060048054604092830151925163912d228f60e01b81526001600160a01b0393841692810192909252602482019390935291602091839160449183918791165af190811561045d5782916126d3575b506003546001600160a01b0316803b156104685760405163456db94760e01b81523360048201526024810192909252829082908183816044810161043c565b9150506020813d602011612700575b816126ef60209383613946565b810103126109a85781905138612694565b3d91506126e2565b6127119061391c565b610468578238612644565b6127259061391c565b6104685782386125f8565b6020809294503d8311612758575b6127488183613946565b810103126109a8578291386125b0565b503d61273e565b91925094506020813d602011612792575b8161277d60209383613946565b810103126109a857518594909190602061251a565b3d9150612770565b6127a39061391c565b61097a5784386124c8565b6127b79061391c565b61097a578438612469565b6108fc91506123fc565b6127d7913390614050565b61240b565b6127f091503d8085833e6104a18183613946565b38612398565b6128129192506101c03d6101c0116104e2576104d28183613946565b9038612368565b5060c03660031901126102af578061282f6138a7565b6128376138d3565b906128406138fa565b9161284961390b565b612851613a02565b6004805460405163912d228f60e01b81526001600160a01b0386811693820193909352602480359082015291949190602090829060449082908b908a165af19081156121ee578791612c14575b506005546040516322a0fe3360e21b815233600482015260248101929092526020908290604490829089165afa9081156121ee578791612bda575b5060048054604051631c07d98160e21b81526001600160a01b0385811693820193909352918616602480840191909152356044830152602090829060649082908c908b165af19081156109d1578891612ba5575b5060046020876005541660405192838092636882509b60e11b82525afa908115610b45578991612b5f575b5061296a9260ff6106eb921690614097565b948385169285886000805160206143f58339815191528603612b455750508634106109dc57602092886101049288945b856008541691604051988997889663486c386960e11b885216600487015260248601528b60448601526024356064860152606435608486015261ffff80921660a48601521660c48401523360e48401525af19081156104af578591612b10575b508260065416803b156118a1576040516320e8c56560e01b81529186918391829084908290612a2f908b8a33600486016139d8565b03925af19081156104af578591612afc575b50506004805460405163912d228f60e01b81526001600160a01b03939093169183019190915260248201939093529160209083906044908290879086165af19182156102a4578392612ac5575b5060035416803b15610468576040516363a6c98160e01b81523360048201526024810192909252829082908183816044810161043c565b925090506020823d602011612af4575b81612ae260209383613946565b810103126109a8578291519038612a8e565b3d9150612ad5565b612b059061391c565b6117d8578338612a41565b9450506020843d602011612b3d575b81612b2c60209383613946565b810103126109a857849351386129fa565b3d9150612b1f565b610104926020959294612b5a8b30338b613a49565b61299a565b90506020813d602011612b9d575b81612b7a60209383613946565b81010312610a615761296a9260ff612b946106eb93614089565b92505092612958565b3d9150612b6d565b9750506020873d602011612bd2575b81612bc160209383613946565b810103126109a8578796513861292d565b3d9150612bb4565b90506020813d602011612c0c575b81612bf560209383613946565b810103126109cd57612c0690613cc5565b386128d9565b3d9150612be8565b9650506020863d602011612c44575b81612c3060209383613946565b810103126109a8579451869590602061289e565b3d9150612c23565b50346102af57806003193601126102af57602060405160028152f35b50346102af5760203660031901126102af57612c82613a02565b60085460405163c58343ef60e01b8152600480359082015282916001600160a01b03166101c082602481845afa9182156102a45783926130fc575b50826101008301516024604051809481936322bc934560e11b835260048301525afa9081156102a45783916130e2575b50612d05608082015161ffff6040850151169061434a565b60408201519091906001600160a01b0316826000805160206143f583398151915282036130c35760e0850151869250829182918291906001600160a01b03168282156130ba575bf1156102a4575b60065460e0840151610120850151610140860151610100870151936001600160a01b039384169391929082169116813b15610a6157888094612dab604051978896879586946320e8c56560e01b8652600486016139d8565b03925af19081156104af5785916130a6575b505060065460408201516101008501516001600160a01b039283169290911690823b156109cd57612e0a928588809460405196879586948593631effa54360e21b855233600486016139d8565b03925af19081156104af578591613092575b505081602060018060a01b0360075416610100860151906101c0850151612e4281613e59565b8860018060a01b0360408801511691612ead60018060a01b036101208c015116956101408c01518c61016081015160808201519061ffff6060840151169260e060018060a01b0391015116936040519d8e9c8d9b8c9a6319467e2760e01b8c52339960048d01613fdb565b03925af180156104af57613063575b5060018060a01b0360085416610100840151610140850151823b156109cd57604051633496841f60e11b815260048101929092526024820185905260448201529085908290606490829084905af19081156104af57859161304f575b50506008546001600160a01b0316803b1561097a57604051636d5d42c560e11b815260048035908201523360248201529085908290604490829084905af19081156104af57859161303b575b505060048054604092830151925163912d228f60e01b81526001600160a01b0393841692810192909252602482019390935291602091839160449183918891165af19081156102a4578391613006575b5060035460e0909201516001600160a01b03928316921690823b156117d85760405163456db94760e01b81526001600160a01b039092166004830152602482015290829082908183816044810161043c565b9250506020823d602011613033575b8161302260209383613946565b810103126109a85782915138612fb4565b3d9150613015565b6130449061391c565b6117d8578338612f64565b6130589061391c565b6117d8578338612f18565b6020809295503d831161308b575b61307b8183613946565b810103126109a857839238612ebc565b503d613071565b61309b9061391c565b6117d8578338612e1c565b6130af9061391c565b6117d8578338612dbd565b506108fc612d4c565b60e08501516130dd926001600160a01b0390911690614050565b612d53565b6130f691503d8085833e6104a18183613946565b38612ced565b6131189192506101c03d6101c0116104e2576104d28183613946565b9038612cbd565b50346102af57806003193601126102af5760206040516000805160206143f58339815191528152f35b50346102af5760203660031901126102af57613162613a02565b60085481906001600160a01b0316803b156110db5760405163774d3df560e01b8152600480359082015233602482015290829082908183816044810161043c565b50346102af5760203660031901126102af57806004356131c1613a02565b60085460405163c58343ef60e01b8152600481018390526001600160a01b03916101c091908316908281602481855afa9283156104e9578693613301575b50506132226101a083015161321381613e59565b61321c81613e59565b15614285565b846101008301516024604051809481936322bc934560e11b835260048301525afa9081156104af578592849184936132de575b5061326f60409161ffff836080870151920151169061434a565b920151166000805160206143f583398151915281036132d257508180809281811561046c573390f11561045d5760085416803b1561046857604051639498506560e01b81526004810192909252336024830152829082908183816044810161043c565b61048892503390614050565b60409193506132f961326f913d8088833e6104a18183613946565b939150613255565b613318929350803d106104e2576104d28183613946565b9038806131ff565b5060c03660031901126102af57806133366138e9565b61333e6138d3565b6133466138fa565b9161334f61390b565b92613358613a02565b6133618261436e565b6008546040516322bc934560e11b815260048035908201526001600160a01b0390911694908681602481895afa9081156121ee578791613818575b50604051633970062960e01b815260048035908201526001600160a01b038616602482015295602090879060449082908b905af19586156121ee57613448966133eb9189916137ff57506140c5565b6133fe608082015161ffff86169061434a565b6004805460409384018051945163912d228f60e01b81526001600160a01b0395861693810193909352602483018490529198929391926020928a92169082908c9082906044820190565b03925af19687156109d15788976137ca575b506005546040516322a0fe3360e21b81523360048201526024810198909852602090889060449082906001600160a01b03165afa9687156109d1578897613786575b50600480549151604051631c07d98160e21b81526001600160a01b03918216928101929092528088166024830152604482019390935291602091839116818a81606481015b03925af180156121ee578790613753575b600554604051636882509b60e11b81529250602090839060049082906001600160a01b03165afa9182156109d157889261370f575b506106eb60ff613538931688614097565b906001600160a01b0385166000805160206143f5833981519152036136f5573482106109cd575b6004805460405163912d228f60e01b81526001600160a01b0388811693820193909352602481018590529491602091869160449183918d91165af19687156109d157889485986136b2575b50600854604051633bb1374b60e01b815261ffff9788166004808301919091526001600160a01b03998a166024830152604482019690965260648082018b90529289166084820152913560a483015291861660c48201529190941660e4820152336101048201529035610124820152926020928492610144928492165af180156102a457613687575b506003546001600160a01b031690813b15610468576040516363a6c98160e01b8152336004820152602481019190915291908290604490829084905af1801561045d5761367e575080f35b611c469061391c565b602090813d83116136ab575b61369d8183613946565b810103126110db5738613633565b503d613693565b9194509650602094919294813d6020116136ed575b816136d460209383613946565b810103126109dc5751959093879390929161ffff6135aa565b3d91506136c7565b61370a8230336001600160a01b038916613a49565b61355f565b91506020823d60201161374b575b8161372a60209383613946565b810103126109dc576106eb60ff61374361353894614089565b935050613527565b3d915061371d565b506020813d60201161377e575b8161376d60209383613946565b810103126109cd57600490516134f2565b3d9150613760565b9096506020813d6020116137c2575b816137a260209383613946565b810103126109dc576134e1916137b9602092613cc5565b9791509161349c565b3d9150613795565b96506020873d6020116137f7575b816137e560209383613946565b810103126109dc57955195602061345a565b3d91506137d8565b610bd5915060203d602011610bdb57610bcd8183613946565b61382c91503d8089833e6104a18183613946565b3861339c565b50346102af5760603660031901126102af5761384c6138a7565b6138546138bd565b61385c6138d3565b613864613980565b61386c6142e1565b60018060a01b038092816001600160601b0360a01b951685600554161760055516836003541617600355169060045416176004556001815580f35b600435906001600160a01b03821682036109a857565b602435906001600160a01b03821682036109a857565b604435906001600160a01b03821682036109a857565b6024359061ffff821682036109a857565b6084359061ffff821682036109a857565b60a4359061ffff821682036109a857565b67ffffffffffffffff811161393057604052565b634e487b7160e01b600052604160045260246000fd5b90601f8019910116810190811067ffffffffffffffff82111761393057604052565b67ffffffffffffffff81116139305760051b60200190565b6001546001600160a01b0316330361399457565b606460405162461bcd60e51b815260206004820152602060248201527f4f776e61626c653a2063616c6c6572206973206e6f7420746865206f776e65726044820152fd5b6001600160a01b039182168152911660208201526040810191909152606081019190915260800190565b60ff60025460a01c16613a1157565b60405162461bcd60e51b815260206004820152601060248201526f14185d5cd8589b194e881c185d5cd95960821b6044820152606490fd5b6040516323b872dd60e01b60208201526001600160a01b0392831660248201529290911660448301526064820192909252613a9a91613a9582608481015b03601f198101845283613946565b613ab4565b565b908160209103126109a8575180151581036109a85790565b6040805167ffffffffffffffff94936001600160a01b03909316929091820185811183821017613930576040526020928383527f5361666545524332303a206c6f772d6c6576656c2063616c6c206661696c6564848401526000808386829551910182855af1903d15613be4573d968711613bd057613b5494959660405190613b4688601f19601f8401160183613946565b81528093873d92013e613bf1565b80519081613b6157505050565b8280613b71938301019101613a9c565b15613b795750565b6084906040519062461bcd60e51b82526004820152602a60248201527f5361666545524332303a204552433230206f7065726174696f6e20646964206e6044820152691bdd081cdd58d8d9595960b21b6064820152fd5b634e487b7160e01b83526041600452602483fd5b9150613b54939495506060915b91929015613c535750815115613c05575090565b3b15613c0e5790565b60405162461bcd60e51b815260206004820152601d60248201527f416464726573733a2063616c6c20746f206e6f6e2d636f6e74726163740000006044820152606490fd5b825190915015613c665750805190602001fd5b6040519062461bcd60e51b82528160208060048301528251908160248401526000935b828510613cac575050604492506000838284010152601f80199101168101030190fd5b8481018201518686016044015293810193859350613c89565b51906001600160a01b03821682036109a857565b519061ffff821682036109a857565b60209182828203126109a857815167ffffffffffffffff928382116109a85701916101e09384848403126109a8576040519485018581108382111761393057604052835185528084015160028110156109a85781860152613d4b60408501613cc5565b6040860152606084015160608601526080840151608086015260a084015160a0860152613d7a60c08501613cd9565b60c086015260e084015160e08601526101008085015190860152610120613da2818601613cc5565b9086015261014091828501519081116109a85784019280601f850112156109a8578351613dce81613968565b94613ddc6040519687613946565b818652838087019260051b8201019283116109a8578301905b828210613e425750505050830152610160613e11818301613cc5565b9083015261018080820151908301526101a080820151908301526101c0809101519060028210156109a85782015290565b838091613e4e84613cc5565b815201910190613df5565b60021115613e6357565b634e487b7160e01b600052602160045260246000fd5b9a96928b98949a96929d9c9995919d6101808a019e8a52613e9981613e59565b60208a0152600160a01b600190039a8b998a80931690604001521660608c015260808b015260a08a015260c089015260e088015261ffff166101008701526101208601521661014084015216906101600152565b80916101c092839103126109a85760405191820182811067ffffffffffffffff8211176139305760405280518252602081015160048110156109a8576020830152613f3a60408201613cd9565b6040830152613f4b60608201613cd9565b60608301526080810151608083015260a081015160a083015260c081015160c0830152613f7a60e08201613cc5565b60e08301526101008082015190830152610120613f98818301613cc5565b9083015261014080820151908301526101608082015190830152610180613fc0818301613cc5565b908301526101a0809101519060028210156109a85782015290565b9995919b9a97939894909b9692966101808b019c8b52613ffa81613e59565b60208b0152600160a01b6001900380998180991660408d01521660608b015260808a015260a089015260c088015260e087015261ffff166101008601526101208501600090521661014084015216906101600152565b60405163a9059cbb60e01b60208201526001600160a01b0390921660248301526044820192909252613a9a91613a958260648101613a87565b519060ff821682036109a857565b6001600160a01b03918216919082156140af57160490565b634e487b7160e01b600052601260045260246000fd5b156140cc57565b60405162461bcd60e51b815260206004820152601c60248201527f4552525f434f4c4c41544552414c5f4e4f545f535550504f52544544000000006044820152606490fd5b80916102c092839103126109a85760405191820182811067ffffffffffffffff8211176139305760405280518252602081015160048110156109a857602083015261415e60408201613cc5565b604083015261416f60608201613cc5565b60608301526080810151608083015260a081015160a083015260c081015160c083015260e081015160e083015261010080820151908301526101208082015190830152610140808201519083015261016080820151908301526101806141d6818301613cd9565b908301526101a06141e8818301614089565b908301526101c080820151908301526101e08082015190830152610200808201519083015261022080820151908301526102408082015190830152610260808201519083015261028061423c818301613cc5565b9083015261424e6102a0809201613cc5565b9082015290565b9190820391821161426257565b634e487b7160e01b600052601160045260246000fd5b9190820180921161426257565b1561428c57565b60405162461bcd60e51b815260206004820152601060248201526f4552525f524551554553545f5459504560801b6044820152606490fd5b91908260409103126109a8576142de602083519301613cc5565b90565b6002600054146142f2576002600055565b60405162461bcd60e51b815260206004820152601f60248201527f5265656e7472616e637947756172643a207265656e7472616e742063616c6c006044820152606490fd5b8181029291811591840414171561426257565b906001600160a01b0316801561436a5761436690606492614337565b0490565b5090565b61ffff809116606481116143bd57601990061661438757565b60405162461bcd60e51b815260206004820152600e60248201526d4552525f50455243454e5441474560901b6044820152606490fd5b60405162461bcd60e51b815260206004820152600f60248201526e4f5645525f50455243454e5441474560881b6044820152606490fdfe000000000000000000000000eeeeeeeeeeeeeeeeeeeeeeeeeeeeeeeeeeeeeeeea2646970667358221220f461c8b353afbba226a493f97b62b07ea79631ea0b75a9b396293489a2356e8d64736f6c63430008110033",
  "immutableReferences": {},
  "source": "// SPDX-License-Identifier: GPL-3.0\r\npragma solidity >=0.7.0 <0.9.0;\r\n\r\nimport \"./Activity.sol\";\r\n\r\nimport \"./libraries/Errors.sol\";\r\n\r\nimport \"./math/SimpleInterest.sol\";\r\n\r\nimport \"./interfaces/IPriceFeed.sol\";\r\nimport \"./interfaces/IFeeManager.sol\";\r\nimport \"./interfaces/IVaultManager.sol\";\r\nimport \"./interfaces/IOfferManager.sol\";\r\nimport \"./interfaces/ILoanManager.sol\";\r\nimport \"./interfaces/ILoanToValueRatio.sol\";\r\n\r\nimport \"@openzeppelin/contracts/utils/Context.sol\";\r\nimport \"@openzeppelin/contracts/token/ERC20/ERC20.sol\";\r\nimport \"@openzeppelin/contracts/token/ERC20/utils/SafeERC20.sol\";\r\nimport \"@openzeppelin/contracts/security/ReentrancyGuard.sol\";\r\nimport \"@openzeppelin/contracts/access/Ownable2Step.sol\";\r\nimport \"@openzeppelin/contracts/security/Pausable.sol\";\r\n\r\n/**\r\n * @title LendingPool contract\r\n * @dev Main point of interaction with the DARSH protocol's market\r\n * - Users can:\r\n *   # Create Lending/Borrowing offers\r\n *   # Request for new terms on offers\r\n *   # Repay (Fully/Installment)\r\n *   # Claim principal and earnings\r\n *   # Claim back collateral\r\n *   # Cancel/Reject/Accept requests\r\n * - All admin functions are callable by the deployer address\r\n * @author Arogundade Ibrahim\r\n **/\r\ncontract LendingPool is\r\n    Context,\r\n    ReentrancyGuard,\r\n    SimpleInterest,\r\n    Ownable2Step,\r\n    Pausable\r\n{\r\n    using SafeERC20 for ERC20;\r\n\r\n    /// @dev contract version\r\n    uint256 public constant LENDINGPOOL_VERSION = 0x2;\r\n\r\n    Activity private _activity;\r\n    IPriceFeed private _priceFeed;\r\n    ILoanToValueRatio private _ltv;\r\n\r\n    IVaultManager private _vaultManager;\r\n    ILoanManager private _loanManager;\r\n    IOfferManager private _offerManager;\r\n    IFeeManager private _feeManager;\r\n\r\n    /// @dev for convienency this address is used to represent FTM just like ERC20\r\n    address public constant nativeAddress =\r\n        0xEeeeeEeeeEeEeeEeEeEeeEEEeeeeEeeeeeeeEEeE;\r\n\r\n    constructor() ReentrancyGuard() Ownable2Step() {}\r\n\r\n    /// @notice This function creates a lending new lending offer\r\n    /// @dev the principalAmount_ parameter is use for ERC20 tokens only\r\n    function createLendingOffer(\r\n        uint256 principalAmount_,\r\n        address principalToken,\r\n        address[] memory collateralTokens,\r\n        uint16 daysToMaturity,\r\n        uint256 interest,\r\n        uint16 daysToExpire\r\n    ) public payable whenNotPaused {\r\n        uint256 principalAmount;\r\n\r\n        /* extract tokens from lender */\r\n        if (principalToken == nativeAddress) {\r\n            principalAmount = msg.value;\r\n        } else {\r\n            principalAmount = principalAmount_;\r\n            ERC20(principalToken).safeTransferFrom(\r\n                _msgSender(),\r\n                address(this),\r\n                principalAmount\r\n            );\r\n        }\r\n\r\n        /* create the lending offer */\r\n        uint256 offerId = _offerManager.createLendingOffer(\r\n            principalToken,\r\n            principalAmount,\r\n            interest,\r\n            daysToMaturity,\r\n            daysToExpire,\r\n            collateralTokens,\r\n            _msgSender()\r\n        );\r\n\r\n        /* delegate principal to lender */\r\n        _vaultManager.deposit(\r\n            _msgSender(),\r\n            principalToken,\r\n            principalAmount,\r\n            offerId\r\n        );\r\n    }\r\n\r\n    /// @notice Explain to an end user what this does\r\n    /// @dev Explain to a developer any extra details\r\n    function createLendingRequest(\r\n        uint256 offerId,\r\n        uint16 percentage,\r\n        uint16 daysToMaturity,\r\n        uint256 interest,\r\n        uint16 hoursToExpire\r\n    ) public payable whenNotPaused {\r\n        checkPercentage(percentage);\r\n\r\n        OfferLibrary.Offer memory offer = _offerManager.getOffer(offerId);\r\n\r\n        uint256 principalAmount = percentageOf(\r\n            offer.initialPrincipal,\r\n            percentage\r\n        );\r\n\r\n        /* extract tokens from lender */\r\n        if (offer.principalToken == nativeAddress) {\r\n            require(msg.value >= principalAmount);\r\n        } else {\r\n            ERC20(offer.principalToken).safeTransferFrom(\r\n                _msgSender(),\r\n                address(this),\r\n                principalAmount\r\n            );\r\n        }\r\n\r\n        /* create the lending request */\r\n        _offerManager.createLendingRequest(\r\n            percentage,\r\n            interest,\r\n            daysToMaturity,\r\n            hoursToExpire,\r\n            _msgSender(),\r\n            offerId\r\n        );\r\n    }\r\n\r\n    // @lenders\r\n    function acceptBorrowingOffer(uint256 offerId, uint16 percentage)\r\n        public\r\n        payable\r\n        whenNotPaused\r\n    {\r\n        checkPercentage(percentage);\r\n        OfferLibrary.Offer memory offer = _offerManager.getOffer(offerId);\r\n\r\n        uint256 collateralAmount = percentageOf(\r\n            offer.initialCollateral,\r\n            percentage\r\n        );\r\n\r\n        uint256 principalAmount = percentageOf(\r\n            offer.initialPrincipal,\r\n            percentage\r\n        );\r\n\r\n        /* extract principal from lender/caller */\r\n        if (offer.principalToken == nativeAddress) {\r\n            require(msg.value >= principalAmount);\r\n        } else {\r\n            ERC20(offer.principalToken).safeTransferFrom(\r\n                _msgSender(),\r\n                address(this),\r\n                principalAmount\r\n            );\r\n        }\r\n\r\n        /* undelegate the loan principal from to lender */\r\n        _vaultManager.deposit(\r\n            _msgSender(),\r\n            offer.principalToken,\r\n            principalAmount,\r\n            offerId\r\n        );\r\n\r\n        /* delegate the loan collateral to lender */\r\n        _vaultManager.withdraw(\r\n            _msgSender(),\r\n            offer.collateralToken,\r\n            collateralAmount,\r\n            offerId\r\n        );\r\n\r\n        uint256 collateralPriceInUSD = _priceFeed.amountInUSD(\r\n            offer.collateralToken,\r\n            collateralAmount\r\n        );\r\n\r\n        /* register the loan from the loan manager */\r\n        _loanManager.createLoan(\r\n            offer.offerId,\r\n            offer.offerType,\r\n            offer.principalToken,\r\n            offer.collateralToken,\r\n            principalAmount,\r\n            collateralAmount,\r\n            collateralPriceInUSD,\r\n            offer.interest,\r\n            offer.daysToMaturity,\r\n            principalAmount,\r\n            offer.creator,\r\n            _msgSender()\r\n        );\r\n\r\n        // will revert the transaction if fail\r\n        _offerManager.afterOfferBorrowingLoan(\r\n            offerId,\r\n            principalAmount,\r\n            collateralAmount\r\n        );\r\n\r\n        // update activity\r\n        uint256 borrowedAmountInUSD = _priceFeed.amountInUSD(\r\n            offer.principalToken,\r\n            principalAmount\r\n        );\r\n        _activity.borrowLoan(offer.creator, borrowedAmountInUSD);\r\n    }\r\n\r\n    /// @notice accept new borrowing request placed on a lender's offer\r\n    function acceptBorrowingRequest(uint256 requestId) public whenNotPaused {\r\n        RequestLibrary.Request memory request = _offerManager.getRequest(\r\n            requestId\r\n        );\r\n\r\n        OfferLibrary.Offer memory offer = _offerManager.getOffer(\r\n            request.offerId\r\n        );\r\n\r\n        uint256 principalAmount = percentageOf(\r\n            offer.initialPrincipal,\r\n            request.percentage\r\n        );\r\n\r\n        /* transfer principal to borrower */\r\n        if (offer.principalToken == nativeAddress) {\r\n            payable(request.creator).transfer(principalAmount);\r\n        } else {\r\n            ERC20(offer.principalToken).safeTransfer(\r\n                request.creator,\r\n                principalAmount\r\n            );\r\n        }\r\n\r\n        /* delegate the collateral to borrower */\r\n        _vaultManager.deposit(\r\n            request.creator,\r\n            request.collateralToken,\r\n            request.collateralAmount,\r\n            request.offerId\r\n        );\r\n\r\n        /* undelegate the principal from lender */\r\n        _vaultManager.withdraw(\r\n            _msgSender(),\r\n            offer.principalToken,\r\n            principalAmount,\r\n            request.offerId\r\n        );\r\n\r\n        /* register the loan from the loan manager */\r\n        _loanManager.createLoan(\r\n            request.offerId,\r\n            offer.offerType,\r\n            offer.principalToken,\r\n            request.collateralToken,\r\n            principalAmount,\r\n            request.collateralAmount,\r\n            request.collateralPriceInUSD,\r\n            request.interest,\r\n            request.daysToMaturity,\r\n            0,\r\n            request.creator,\r\n            _msgSender()\r\n        );\r\n\r\n        // will revert the transaction if fail\r\n        _offerManager.afterOfferBorrowingLoan(\r\n            request.offerId,\r\n            principalAmount,\r\n            request.collateralAmount\r\n        );\r\n\r\n        _offerManager.acceptRequest(requestId, _msgSender());\r\n\r\n        // update activity\r\n        uint256 amountBorrowedInUSD = _priceFeed.amountInUSD(\r\n            offer.principalToken,\r\n            principalAmount\r\n        );\r\n\r\n        _activity.borrowLoan(request.creator, amountBorrowedInUSD);\r\n    }\r\n\r\n    // @borrower\r\n    function createBorrowingOffer(\r\n        address principalToken,\r\n        uint256 principalAmount,\r\n        address collateralToken,\r\n        uint256 interest,\r\n        uint16 daysToMaturity,\r\n        uint16 hoursToExpire\r\n    ) public payable whenNotPaused {\r\n        uint256 principalAmountInUSD = _priceFeed.amountInUSD(\r\n            principalToken,\r\n            principalAmount\r\n        );\r\n\r\n        uint160 ltv = _ltv.getRelativeLTV(_msgSender(), principalAmountInUSD);\r\n\r\n        uint256 collateralNormalAmount = _priceFeed.exchangeRate(\r\n            principalToken,\r\n            collateralToken,\r\n            principalAmount\r\n        );\r\n\r\n        uint256 collateralAmount = percentageOf(\r\n            collateralNormalAmount,\r\n            ltv / _ltv.getBase()\r\n        );\r\n\r\n        /* extract collateral from borrower */\r\n        if (collateralToken == nativeAddress) {\r\n            require(msg.value >= collateralAmount);\r\n        } else {\r\n            ERC20(collateralToken).safeTransferFrom(\r\n                _msgSender(),\r\n                address(this),\r\n                collateralAmount\r\n            );\r\n        }\r\n\r\n        /* create the offer */\r\n        uint256 offerId = _offerManager.createBorrowingOffer(\r\n            principalToken,\r\n            collateralToken,\r\n            collateralAmount,\r\n            principalAmount,\r\n            interest,\r\n            daysToMaturity,\r\n            hoursToExpire,\r\n            _msgSender()\r\n        );\r\n\r\n        /* delegate the collateral to borrower */\r\n        _vaultManager.deposit(\r\n            _msgSender(),\r\n            collateralToken,\r\n            collateralAmount,\r\n            offerId\r\n        );\r\n\r\n        // update activity\r\n        uint256 amountInUSD = _priceFeed.amountInUSD(\r\n            collateralToken,\r\n            collateralAmount\r\n        );\r\n        _activity.dropCollateral(_msgSender(), amountInUSD);\r\n    }\r\n\r\n    // @borrower\r\n    function createBorrowingRequest(\r\n        uint256 offerId,\r\n        uint16 percentage,\r\n        address collateralToken,\r\n        uint256 interest,\r\n        uint16 daysToMaturity,\r\n        uint16 hoursToExpire\r\n    ) public payable whenNotPaused {\r\n        checkPercentage(percentage);\r\n\r\n        OfferLibrary.Offer memory offer = _offerManager.getOffer(offerId);\r\n\r\n        require(\r\n            _offerManager.isCollateralSupported(offerId, collateralToken),\r\n            \"ERR_COLLATERAL_NOT_SUPPORTED\"\r\n        );\r\n\r\n        uint256 principalAmount = percentageOf(\r\n            offer.initialPrincipal,\r\n            percentage\r\n        );\r\n\r\n        uint256 principalPriceInUSD = _priceFeed.amountInUSD(\r\n            offer.principalToken,\r\n            principalAmount\r\n        );\r\n\r\n        uint160 ltv = _ltv.getRelativeLTV(_msgSender(), principalPriceInUSD);\r\n\r\n        uint256 collateralNormalAmount = _priceFeed.exchangeRate(\r\n            offer.principalToken,\r\n            collateralToken,\r\n            principalAmount\r\n        );\r\n\r\n        uint256 collateralAmount = percentageOf(\r\n            collateralNormalAmount,\r\n            ltv / _ltv.getBase()\r\n        );\r\n\r\n        /* extract collateral from borrower */\r\n        if (collateralToken == nativeAddress) {\r\n            require(collateralAmount >= msg.value);\r\n        } else {\r\n            ERC20(collateralToken).safeTransferFrom(\r\n                _msgSender(),\r\n                address(this),\r\n                collateralAmount\r\n            );\r\n        }\r\n\r\n        uint256 collateralPriceInUSD = _priceFeed.amountInUSD(\r\n            collateralToken,\r\n            collateralAmount\r\n        );\r\n\r\n        /* create the request */\r\n        _offerManager.createBorrowingRequest(\r\n            percentage,\r\n            collateralToken,\r\n            collateralAmount,\r\n            collateralPriceInUSD,\r\n            ltv,\r\n            interest,\r\n            daysToMaturity,\r\n            hoursToExpire,\r\n            _msgSender(),\r\n            offerId\r\n        );\r\n\r\n        // update activity\r\n        _activity.dropCollateral(_msgSender(), collateralPriceInUSD);\r\n    }\r\n\r\n    // @borrower\r\n    function acceptLendingOffer(\r\n        uint256 offerId,\r\n        uint16 percentage,\r\n        address collateralToken\r\n    ) public payable whenNotPaused {\r\n        checkPercentage(percentage);\r\n\r\n        OfferLibrary.Offer memory offer = _offerManager.getOffer(offerId);\r\n\r\n        require(\r\n            _offerManager.isCollateralSupported(offerId, collateralToken),\r\n            \"ERR_COLLATERAL_NOT_SUPPORTED\"\r\n        );\r\n\r\n        uint256 principalAmount = percentageOf(\r\n            offer.initialPrincipal,\r\n            percentage\r\n        );\r\n\r\n        uint256 principalPriceInUSD = _priceFeed.amountInUSD(\r\n            offer.principalToken,\r\n            principalAmount\r\n        );\r\n\r\n        uint160 ltv = _ltv.getRelativeLTV(_msgSender(), principalPriceInUSD);\r\n\r\n        /* calculate the collateral amount */\r\n        uint256 collateralNormalAmount = _priceFeed.exchangeRate(\r\n            offer.principalToken,\r\n            collateralToken,\r\n            principalAmount\r\n        );\r\n\r\n        uint256 collateralAmount = percentageOf(\r\n            collateralNormalAmount,\r\n            ltv / _ltv.getBase()\r\n        );\r\n\r\n        /* extract collateral tokens from borrower */\r\n        if (collateralToken == nativeAddress) {\r\n            require(collateralAmount >= msg.value, \"ERR_COLLATERAL_AMOUNT\");\r\n        } else {\r\n            ERC20(collateralToken).safeTransferFrom(\r\n                _msgSender(),\r\n                address(this),\r\n                collateralAmount\r\n            );\r\n        }\r\n\r\n        /* delegate the loan collateral to lender */\r\n        _vaultManager.deposit(\r\n            _msgSender(),\r\n            collateralToken,\r\n            collateralAmount,\r\n            offerId\r\n        );\r\n\r\n        /* undelegate the loan principal from lender */\r\n        _vaultManager.withdraw(\r\n            _msgSender(),\r\n            offer.principalToken,\r\n            principalAmount,\r\n            offerId\r\n        );\r\n\r\n        uint256 collateralPriceInUSD = _priceFeed.amountInUSD(\r\n            collateralToken,\r\n            collateralAmount\r\n        );\r\n\r\n        /* register the loan */\r\n        _loanManager.createLoan(\r\n            offerId,\r\n            offer.offerType,\r\n            offer.principalToken,\r\n            collateralToken,\r\n            principalAmount,\r\n            collateralAmount,\r\n            collateralPriceInUSD,\r\n            offer.interest,\r\n            offer.daysToMaturity,\r\n            principalAmount,\r\n            _msgSender(),\r\n            offer.creator\r\n        );\r\n\r\n        // will revert if transaction fail\r\n        _offerManager.afterOfferLendingLoan(offerId, principalAmount);\r\n\r\n        // update activity\r\n        uint256 amountBorrowedInUSD = _priceFeed.amountInUSD(\r\n            offer.principalToken,\r\n            principalAmount\r\n        );\r\n        _activity.borrowLoan(_msgSender(), amountBorrowedInUSD);\r\n        _activity.dropCollateral(_msgSender(), collateralPriceInUSD);\r\n    }\r\n\r\n    // @borrower\r\n    function acceptLendingRequest(uint256 requestId)\r\n        public\r\n        payable\r\n        whenNotPaused\r\n    {\r\n        RequestLibrary.Request memory request = _offerManager.getRequest(\r\n            requestId\r\n        );\r\n\r\n        OfferLibrary.Offer memory offer = _offerManager.getOffer(\r\n            request.offerId\r\n        );\r\n\r\n        uint256 collateralAmount = percentageOf(\r\n            offer.initialCollateral,\r\n            request.percentage\r\n        );\r\n\r\n        uint256 principalAmount = percentageOf(\r\n            offer.initialPrincipal,\r\n            request.percentage\r\n        );\r\n\r\n        /* transfer principal to borrower */\r\n        if (offer.principalToken == nativeAddress) {\r\n            payable(_msgSender()).transfer(principalAmount);\r\n        } else {\r\n            ERC20(offer.principalToken).safeTransfer(\r\n                _msgSender(),\r\n                principalAmount\r\n            );\r\n        }\r\n\r\n        /* delegate the loan collateral to lender */\r\n        _vaultManager.deposit(\r\n            _msgSender(),\r\n            offer.collateralToken,\r\n            collateralAmount,\r\n            request.offerId\r\n        );\r\n\r\n        /* undelegate the loan principal from lender */\r\n        _vaultManager.withdraw(\r\n            _msgSender(),\r\n            offer.principalToken,\r\n            principalAmount,\r\n            request.offerId\r\n        );\r\n\r\n        uint256 collateralPriceInUSD = _priceFeed.amountInUSD(\r\n            offer.collateralToken,\r\n            collateralAmount\r\n        );\r\n\r\n        /* register the loan from the loan manager */\r\n        _loanManager.createLoan(\r\n            request.offerId,\r\n            offer.offerType,\r\n            offer.principalToken,\r\n            offer.collateralToken,\r\n            principalAmount,\r\n            collateralAmount,\r\n            collateralPriceInUSD,\r\n            request.interest,\r\n            request.daysToMaturity,\r\n            0,\r\n            _msgSender(),\r\n            request.creator\r\n        );\r\n\r\n        // will revert the transaction if fail\r\n        _offerManager.afterOfferLendingLoan(offer.offerId, principalAmount);\r\n\r\n        _offerManager.acceptRequest(requestId, _msgSender());\r\n\r\n        // update activityj\r\n        uint256 amountBorrowedInUSD = _priceFeed.amountInUSD(\r\n            offer.principalToken,\r\n            principalAmount\r\n        );\r\n\r\n        _activity.borrowLoan(_msgSender(), amountBorrowedInUSD);\r\n    }\r\n\r\n    // @lender\r\n    function reActivateOffer(uint256 offerId, uint16 toExpire)\r\n        public\r\n        whenNotPaused\r\n    {\r\n        _offerManager.reActivateOffer(offerId, toExpire, _msgSender());\r\n    }\r\n\r\n    // @borrower\r\n    function repayLoan(uint256 loanId, uint16 percentage)\r\n        public\r\n        payable\r\n        whenNotPaused\r\n    {\r\n        checkPercentage(percentage);\r\n\r\n        LoanLibrary.Loan memory loan = _loanManager.getLoan(loanId);\r\n\r\n        // verify the borrower is the repayer\r\n        require(loan.borrower == _msgSender(), \"ERR_NOT_BORROWER\");\r\n\r\n        // calculate the duration of the loan\r\n        uint256 time = block.timestamp;\r\n        uint256 ellapsedSecs = (time - loan.startDate);\r\n\r\n        uint256 principalAmount = percentageOf(\r\n            loan.initialPrincipal,\r\n            percentage\r\n        );\r\n\r\n        uint256 collateralAmount = percentageOf(\r\n            loan.initialCollateral,\r\n            percentage\r\n        );\r\n\r\n        // calculate the pay back amount\r\n        uint256 repaymentPrincipal = getFullInterestAmount(\r\n            principalAmount,\r\n            ellapsedSecs,\r\n            loan.interest\r\n        );\r\n\r\n        uint256 interestPaid = (repaymentPrincipal - principalAmount);\r\n        uint256 fee = percentageOf(interestPaid, _feeManager.feePercentage());\r\n        \r\n        uint256 unClaimedInterest = (interestPaid - fee);\r\n\r\n        _feeManager.credit(loan.principalToken, fee);\r\n\r\n        // will revert the transaction if fail\r\n        bool completed = _loanManager.repayLoan(\r\n            loanId,\r\n            unClaimedInterest,\r\n            principalAmount,\r\n            collateralAmount\r\n        );\r\n\r\n        /* extract pay back amount */\r\n        if (loan.principalToken == nativeAddress) {\r\n            require(msg.value >= repaymentPrincipal);\r\n        } else {\r\n            ERC20(loan.principalToken).safeTransferFrom(\r\n                _msgSender(),\r\n                address(this),\r\n                repaymentPrincipal\r\n            );\r\n        }\r\n\r\n        /* delegate principal to lender */\r\n        _vaultManager.deposit(\r\n            _msgSender(),\r\n            loan.principalToken,\r\n            (principalAmount + unClaimedInterest),\r\n            loan.offerId\r\n        );\r\n\r\n        /* undelegate collateral from lender to borrower */\r\n        _vaultManager.withdraw(\r\n            _msgSender(),\r\n            loan.collateralToken,\r\n            collateralAmount,\r\n            loan.offerId\r\n        );\r\n\r\n        // update activity\r\n        uint256 interestPaidInUSD = _priceFeed.amountInUSD(\r\n            loan.principalToken,\r\n            (repaymentPrincipal - principalAmount)\r\n        );\r\n\r\n        uint256 amountPaidInUSD = _priceFeed.amountInUSD(\r\n            loan.principalToken,\r\n            principalAmount\r\n        );\r\n\r\n        _activity.repayLoan(\r\n            _msgSender(),\r\n            amountPaidInUSD,\r\n            interestPaidInUSD,\r\n            completed\r\n        );\r\n    }\r\n\r\n    // =========== Request Functions =========== //\r\n\r\n    function rejectRequest(uint256 requestId) public whenNotPaused {\r\n        _offerManager.rejectRequest(requestId, _msgSender());\r\n    }\r\n\r\n    function cancelLendRequest(uint256 requestId) public whenNotPaused {\r\n        RequestLibrary.Request memory request = _offerManager.getRequest(\r\n            requestId\r\n        );\r\n\r\n        require(\r\n            request.requestType == RequestLibrary.Type.LENDING_REQUEST,\r\n            \"ERR_REQUEST_TYPE\"\r\n        );\r\n\r\n        OfferLibrary.Offer memory offer = _offerManager.getOffer(\r\n            request.offerId\r\n        );\r\n\r\n        uint256 principalAmount = percentageOf(\r\n            offer.initialPrincipal,\r\n            request.percentage\r\n        );\r\n\r\n        if (offer.principalToken == nativeAddress) {\r\n            payable(_msgSender()).transfer(principalAmount);\r\n        } else {\r\n            ERC20(offer.principalToken).safeTransfer(\r\n                _msgSender(),\r\n                principalAmount\r\n            );\r\n        }\r\n\r\n        _offerManager.cancelRequest(requestId, _msgSender());\r\n    }\r\n\r\n    function cancelBorrowRequest(uint256 requestId) public whenNotPaused {\r\n        RequestLibrary.Request memory request = _offerManager.getRequest(\r\n            requestId\r\n        );\r\n\r\n        require(\r\n            request.requestType == RequestLibrary.Type.BORROWING_REQUEST,\r\n            \"ERR_REQUEST_TYPE\"\r\n        );\r\n\r\n        OfferLibrary.Offer memory offer = _offerManager.getOffer(\r\n            request.offerId\r\n        );\r\n\r\n        if (offer.collateralToken == nativeAddress) {\r\n            payable(_msgSender()).transfer(request.collateralAmount);\r\n        } else {\r\n            ERC20(offer.collateralToken).safeTransfer(\r\n                _msgSender(),\r\n                request.collateralAmount\r\n            );\r\n        }\r\n\r\n        _offerManager.cancelRequest(requestId, _msgSender());\r\n    }\r\n\r\n    // =========== Claim Functions =========== //\r\n\r\n    function claimCollateral(uint256 loanId) public nonReentrant whenNotPaused {\r\n        (uint256 amount, address token) = _loanManager.claimCollateral(\r\n            loanId,\r\n            _msgSender()\r\n        );\r\n\r\n        if (token == nativeAddress) {\r\n            payable(_msgSender()).transfer(amount);\r\n        } else {\r\n            ERC20(token).safeTransfer(_msgSender(), amount);\r\n        }\r\n    }\r\n\r\n    function claimLoanPrincipal(uint256 loanId)\r\n        public\r\n        nonReentrant\r\n        whenNotPaused\r\n    {\r\n        (uint256 amount, address token) = _loanManager.claimLoanPrincipal(\r\n            loanId,\r\n            _msgSender()\r\n        );\r\n\r\n        if (token == nativeAddress) {\r\n            payable(_msgSender()).transfer(amount);\r\n        } else {\r\n            ERC20(token).safeTransfer(_msgSender(), amount);\r\n        }\r\n    }\r\n\r\n    function claimPrincipal(uint256 loanId) public nonReentrant whenNotPaused {\r\n        (uint256 amount, address token) = _loanManager.claimPrincipal(\r\n            loanId,\r\n            _msgSender()\r\n        );\r\n\r\n        if (token == nativeAddress) {\r\n            payable(_msgSender()).transfer(amount);\r\n        } else {\r\n            ERC20(token).safeTransfer(_msgSender(), amount);\r\n        }\r\n    }\r\n\r\n    function claimDefaultCollateral(uint256 loanId)\r\n        public\r\n        nonReentrant\r\n        whenNotPaused\r\n    {\r\n        (uint256 amount, address token) = _loanManager.claimDefaultCollateral(\r\n            loanId,\r\n            _msgSender()\r\n        );\r\n\r\n        if (token == nativeAddress) {\r\n            payable(_msgSender()).transfer(amount);\r\n        } else {\r\n            ERC20(token).safeTransfer(_msgSender(), amount);\r\n        }\r\n    }\r\n\r\n    function repayLiquidatedLoan(uint256 loanId) public payable nonReentrant {}\r\n\r\n    // ============= ABOUT ============ //\r\n\r\n    function getVersion() public pure returns (uint256) {\r\n        return LENDINGPOOL_VERSION;\r\n    }\r\n\r\n    // ============= ADMIN FUNCTIONS =============== //\r\n\r\n    function liquidateLoan(uint256 loanId) public onlyOwner nonReentrant {\r\n        LoanLibrary.Loan memory loan = _loanManager.getLoan(loanId);\r\n\r\n        // calculate the duration of the loan\r\n        uint256 time = block.timestamp;\r\n        uint256 ellapsedSecs = (time - loan.startDate);\r\n\r\n        uint256 repaymentPrincipal = getFullInterestAmount(\r\n            loan.currentPrincipal,\r\n            ellapsedSecs,\r\n            loan.interest\r\n        );\r\n\r\n        uint256 repaymentCollateral = _priceFeed.exchangeRate(\r\n            loan.principalToken,\r\n            loan.collateralToken,\r\n            repaymentPrincipal\r\n        );\r\n\r\n        uint256 interestInCollateral = _priceFeed.exchangeRate(\r\n            loan.principalToken,\r\n            loan.collateralToken,\r\n            (repaymentPrincipal - loan.currentPrincipal)\r\n        );\r\n\r\n        uint256 principalPaid;\r\n        uint256 collateralRetrieved;\r\n        uint256 collateralFee;\r\n\r\n        uint256 fee = percentageOf(\r\n            interestInCollateral,\r\n            _feeManager.feePercentage()\r\n        );\r\n\r\n        if (loan.currentCollateral >= (repaymentCollateral - fee)) {\r\n            collateralRetrieved = (repaymentCollateral - fee);\r\n            principalPaid = loan.currentPrincipal;\r\n\r\n            if (loan.currentCollateral >= repaymentCollateral) {\r\n                collateralFee = fee;\r\n            } else {\r\n                collateralRetrieved = loan.currentCollateral;\r\n                collateralFee = (loan.currentCollateral -\r\n                    (repaymentCollateral - fee));\r\n            }\r\n        } else {\r\n            collateralRetrieved = loan.currentCollateral;\r\n\r\n            uint256 collateralInPrincipal = _priceFeed.exchangeRate(\r\n                loan.collateralToken,\r\n                loan.principalToken,\r\n                collateralRetrieved\r\n            );\r\n\r\n            principalPaid = collateralInPrincipal;\r\n            collateralFee = 0;\r\n        }\r\n\r\n        _feeManager.credit(loan.collateralToken, collateralFee);\r\n\r\n        _loanManager.liquidateLoan(\r\n            loanId,\r\n            principalPaid,\r\n            collateralRetrieved,\r\n            (collateralRetrieved - collateralFee)\r\n        );\r\n    }\r\n\r\n    function setFeeds(\r\n        address ltv_,\r\n        address activity_,\r\n        address priceFeed_\r\n    ) public onlyOwner nonReentrant {\r\n        _ltv = ILoanToValueRatio(ltv_);\r\n        _activity = Activity(activity_);\r\n        _priceFeed = IPriceFeed(priceFeed_);\r\n    }\r\n\r\n    function setManagers(\r\n        address vaultManager_,\r\n        address loanManager_,\r\n        address offerManager_,\r\n        address feeManager_\r\n    ) public onlyOwner nonReentrant {\r\n        _vaultManager = IVaultManager(vaultManager_);\r\n        _loanManager = ILoanManager(loanManager_);\r\n        _offerManager = IOfferManager(offerManager_);\r\n        _feeManager = IFeeManager(feeManager_);\r\n    }\r\n\r\n    /// @dev to claim revenue\r\n    function claim(\r\n        address token,\r\n        address payable receiver,\r\n        uint256 amount\r\n    ) public onlyOwner nonReentrant {\r\n        require(amount > 0, \"ERR_ZERO_AMOUNT\");\r\n        _feeManager.debit(token, amount);\r\n        if (token == nativeAddress) {\r\n            receiver.transfer(amount);\r\n        } else {\r\n            ERC20(token).safeTransfer(receiver, amount);\r\n        }\r\n    }\r\n}\r\n",
  "sourcePath": "C:\\Users\\DELL\\Documents\\darsh\\smart-contracts\\contracts\\LendingPool.sol",
  "compiler": {
    "name": "solc",
    "version": "0.8.17+commit.8df45f5f.Emscripten.clang"
  },
  "schemaVersion": "3.4.11",
  "updatedAt": "2023-02-21T19:17:15.231Z",
  "devdoc": {
    "author": "Arogundade Ibrahim*",
    "details": "Main point of interaction with the DARSH protocol's market - Users can:   # Create Lending/Borrowing offers   # Request for new terms on offers   # Repay (Fully/Installment)   # Claim principal and earnings   # Claim back collateral   # Cancel/Reject/Accept requests - All admin functions are callable by the deployer address",
    "kind": "dev",
    "methods": {
      "acceptOwnership()": {
        "details": "The new owner accepts the ownership transfer."
      },
      "claim(address,address,uint256)": {
        "details": "to claim revenue"
      },
      "createLendingOffer(uint256,address,address[],uint16,uint256,uint16)": {
        "details": "the principalAmount_ parameter is use for ERC20 tokens only"
      },
      "createLendingRequest(uint256,uint16,uint16,uint256,uint16)": {
        "details": "Explain to a developer any extra details"
      },
      "owner()": {
        "details": "Returns the address of the current owner."
      },
      "paused()": {
        "details": "Returns true if the contract is paused, and false otherwise."
      },
      "pendingOwner()": {
        "details": "Returns the address of the pending owner."
      },
      "renounceOwnership()": {
        "details": "Leaves the contract without owner. It will not be possible to call `onlyOwner` functions anymore. Can only be called by the current owner. NOTE: Renouncing ownership will leave the contract without an owner, thereby removing any functionality that is only available to the owner."
      },
      "transferOwnership(address)": {
        "details": "Starts the ownership transfer of the contract to a new account. Replaces the pending transfer if there is one. Can only be called by the current owner."
      }
    },
    "stateVariables": {
      "LENDINGPOOL_VERSION": {
        "details": "contract version"
      },
      "nativeAddress": {
        "details": "for convienency this address is used to represent FTM just like ERC20"
      }
    },
    "title": "LendingPool contract",
    "version": 1
  },
  "userdoc": {
    "kind": "user",
    "methods": {
      "acceptBorrowingRequest(uint256)": {
        "notice": "accept new borrowing request placed on a lender's offer"
      },
      "createLendingOffer(uint256,address,address[],uint16,uint256,uint16)": {
        "notice": "This function creates a lending new lending offer"
      },
      "createLendingRequest(uint256,uint16,uint16,uint256,uint16)": {
        "notice": "Explain to an end user what this does"
      }
    },
    "version": 1
  }
}