{
  "contractName": "LendingPool",
  "abi": [
    {
      "inputs": [
        {
          "internalType": "address",
          "name": "poolManager_",
          "type": "address"
        },
        {
          "internalType": "address",
          "name": "loanManager_",
          "type": "address"
        },
        {
          "internalType": "address",
          "name": "offerManager_",
          "type": "address"
        }
      ],
      "stateMutability": "nonpayable",
      "type": "constructor"
    },
    {
      "inputs": [],
      "name": "INTEREST_RATE_DENOMINATOR",
      "outputs": [
        {
          "internalType": "uint256",
          "name": "",
          "type": "uint256"
        }
      ],
      "stateMutability": "view",
      "type": "function"
    },
    {
      "inputs": [],
      "name": "PERCENT",
      "outputs": [
        {
          "internalType": "uint16",
          "name": "",
          "type": "uint16"
        }
      ],
      "stateMutability": "view",
      "type": "function"
    },
    {
      "inputs": [
        {
          "internalType": "uint256",
          "name": "principal",
          "type": "uint256"
        },
        {
          "internalType": "uint256",
          "name": "durationSecs",
          "type": "uint256"
        },
        {
          "internalType": "uint256",
          "name": "interest",
          "type": "uint256"
        }
      ],
      "name": "getFullInterestAmount",
      "outputs": [
        {
          "internalType": "uint256",
          "name": "",
          "type": "uint256"
        }
      ],
      "stateMutability": "pure",
      "type": "function"
    },
    {
      "inputs": [],
      "name": "nativeAddress",
      "outputs": [
        {
          "internalType": "address",
          "name": "",
          "type": "address"
        }
      ],
      "stateMutability": "view",
      "type": "function"
    },
    {
      "inputs": [
        {
          "internalType": "uint256",
          "name": "total",
          "type": "uint256"
        },
        {
          "internalType": "uint160",
          "name": "percent",
          "type": "uint160"
        }
      ],
      "name": "percentageInverseOf",
      "outputs": [
        {
          "internalType": "uint256",
          "name": "",
          "type": "uint256"
        }
      ],
      "stateMutability": "pure",
      "type": "function"
    },
    {
      "inputs": [
        {
          "internalType": "uint256",
          "name": "total",
          "type": "uint256"
        },
        {
          "internalType": "uint160",
          "name": "percent",
          "type": "uint160"
        }
      ],
      "name": "percentageOf",
      "outputs": [
        {
          "internalType": "uint256",
          "name": "",
          "type": "uint256"
        }
      ],
      "stateMutability": "pure",
      "type": "function"
    },
    {
      "inputs": [
        {
          "internalType": "uint256",
          "name": "principalAmount_",
          "type": "uint256"
        },
        {
          "internalType": "address",
          "name": "principalToken",
          "type": "address"
        },
        {
          "internalType": "address[]",
          "name": "collateralTokens",
          "type": "address[]"
        },
        {
          "internalType": "uint16",
          "name": "daysToMaturity",
          "type": "uint16"
        },
        {
          "internalType": "uint256",
          "name": "interest",
          "type": "uint256"
        },
        {
          "internalType": "uint16",
          "name": "daysToExpire",
          "type": "uint16"
        }
      ],
      "name": "createLendingOffer",
      "outputs": [],
      "stateMutability": "payable",
      "type": "function"
    },
    {
      "inputs": [
        {
          "internalType": "uint160",
          "name": "offerId",
          "type": "uint160"
        },
        {
          "internalType": "uint16",
          "name": "percentage",
          "type": "uint16"
        },
        {
          "internalType": "uint16",
          "name": "daysToMaturity",
          "type": "uint16"
        },
        {
          "internalType": "uint256",
          "name": "interest",
          "type": "uint256"
        },
        {
          "internalType": "uint16",
          "name": "daysToExpire",
          "type": "uint16"
        }
      ],
      "name": "createLendingRequest",
      "outputs": [],
      "stateMutability": "payable",
      "type": "function"
    },
    {
      "inputs": [
        {
          "internalType": "uint160",
          "name": "offerId",
          "type": "uint160"
        },
        {
          "internalType": "uint16",
          "name": "percentage",
          "type": "uint16"
        }
      ],
      "name": "acceptBorrowingOffer",
      "outputs": [],
      "stateMutability": "payable",
      "type": "function"
    },
    {
      "inputs": [
        {
          "internalType": "uint256",
          "name": "requestId",
          "type": "uint256"
        }
      ],
      "name": "acceptBorrowingRequest",
      "outputs": [],
      "stateMutability": "nonpayable",
      "type": "function"
    },
    {
      "inputs": [
        {
          "internalType": "address",
          "name": "principalToken",
          "type": "address"
        },
        {
          "internalType": "address",
          "name": "collateralToken",
          "type": "address"
        },
        {
          "internalType": "uint256",
          "name": "collateralAmount_",
          "type": "uint256"
        },
        {
          "internalType": "uint256",
          "name": "interest",
          "type": "uint256"
        },
        {
          "internalType": "uint16",
          "name": "daysToMaturity",
          "type": "uint16"
        },
        {
          "internalType": "uint16",
          "name": "daysToExpire",
          "type": "uint16"
        }
      ],
      "name": "createBorrowingOffer",
      "outputs": [],
      "stateMutability": "payable",
      "type": "function"
    },
    {
      "inputs": [
        {
          "internalType": "uint160",
          "name": "offerId",
          "type": "uint160"
        },
        {
          "internalType": "uint16",
          "name": "percentage",
          "type": "uint16"
        },
        {
          "internalType": "address",
          "name": "collateralToken",
          "type": "address"
        },
        {
          "internalType": "uint256",
          "name": "interest",
          "type": "uint256"
        },
        {
          "internalType": "uint16",
          "name": "daysToMaturity",
          "type": "uint16"
        },
        {
          "internalType": "uint16",
          "name": "daysToExpire",
          "type": "uint16"
        }
      ],
      "name": "createBorrowingRequest",
      "outputs": [],
      "stateMutability": "payable",
      "type": "function"
    },
    {
      "inputs": [
        {
          "internalType": "uint160",
          "name": "offerId",
          "type": "uint160"
        },
        {
          "internalType": "uint16",
          "name": "percentage",
          "type": "uint16"
        },
        {
          "internalType": "address",
          "name": "collateralToken",
          "type": "address"
        }
      ],
      "name": "acceptLendingOffer",
      "outputs": [],
      "stateMutability": "payable",
      "type": "function"
    },
    {
      "inputs": [
        {
          "internalType": "uint256",
          "name": "requestId",
          "type": "uint256"
        }
      ],
      "name": "acceptLendingRequest",
      "outputs": [],
      "stateMutability": "payable",
      "type": "function"
    },
    {
      "inputs": [],
      "name": "reActivateOffer",
      "outputs": [],
      "stateMutability": "payable",
      "type": "function"
    },
    {
      "inputs": [],
      "name": "reActivateRequest",
      "outputs": [],
      "stateMutability": "payable",
      "type": "function"
    },
    {
      "inputs": [
        {
          "internalType": "uint256",
          "name": "loanId",
          "type": "uint256"
        },
        {
          "internalType": "uint16",
          "name": "percentage",
          "type": "uint16"
        }
      ],
      "name": "repayLoan",
      "outputs": [],
      "stateMutability": "payable",
      "type": "function"
    },
    {
      "inputs": [
        {
          "internalType": "uint256",
          "name": "loanId",
          "type": "uint256"
        }
      ],
      "name": "repayLiquidatedLoan",
      "outputs": [],
      "stateMutability": "payable",
      "type": "function"
    },
    {
      "inputs": [
        {
          "internalType": "address",
          "name": "ltv_",
          "type": "address"
        }
      ],
      "name": "setLTV",
      "outputs": [],
      "stateMutability": "nonpayable",
      "type": "function"
    },
    {
      "inputs": [
        {
          "internalType": "address",
          "name": "activity_",
          "type": "address"
        }
      ],
      "name": "setActivity",
      "outputs": [],
      "stateMutability": "nonpayable",
      "type": "function"
    },
    {
      "inputs": [
        {
          "internalType": "address",
          "name": "priceFeed_",
          "type": "address"
        }
      ],
      "name": "setPriceFeed",
      "outputs": [],
      "stateMutability": "nonpayable",
      "type": "function"
    },
    {
      "inputs": [
        {
          "internalType": "address",
          "name": "newOwner",
          "type": "address"
        }
      ],
      "name": "changeOwner",
      "outputs": [],
      "stateMutability": "nonpayable",
      "type": "function"
    }
  ],
  "bytecode": "0x608034620000ba57601f6200399838819003918201601f19168301916001600160401b03831184841017620000bf57808492606094604052833981010312620000ba576200004d81620000d5565b906200006a60406200006260208401620000d5565b9201620000d5565b600160005560018060a01b0380928160018060a01b031995168560055416176005551683600654161760065516816007541617600755339060015416176001556040516138ad9081620000eb8239f35b600080fd5b634e487b7160e01b600052604160045260246000fd5b51906001600160a01b0382168203620000ba5756fe6080604052600436101561001257600080fd5b6000803560e01c806310e14e19146131f15780632e476337146131c257806331f00e8d14612c0657806337787d51146101415780634ab2618c146126705780634add7c82146120995780635c7f31aa14611b475780635cb933981461124457806361ba944314611234578063628118ee14610ccf578063724e78da14610c845780639ca6005f14610779578063a6f9dae114610730578063afaa069114610518578063b85a8b20146104fc578063c1bc89ef14610205578063cc3266e8146101e2578063e0b26959146101bb578063e0f7dffd14610196578063e3f43fdb1461014b578063eb1f613d146101415763f4e02f4614610110575b600080fd5b3461013e57604036600319011261013e57602061013661012e613268565b600435613840565b604051908152f35b80fd5b505061010b6132b1565b503461013e57602036600319011261013e5761016561323c565b6001546001600160a01b03919061017f9083163314613703565b166001600160601b0360a01b600254161760025580f35b503461013e57606036600319011261013e5760206101366044356024356004356137ef565b503461013e57604036600319011261013e5760206101366101da613268565b60043561381c565b503461013e578060031936011261013e576020604051670de0b6b3a76400008152f35b5060c036600319011261013e5761021a613268565b60443567ffffffffffffffff81116104215736602382011215610421578060040135610245816132f6565b9061025360405192836132d4565b8082526020928383016024819360051b830101913683116104f857602401905b8282106104d9575050506064359161ffff80841680940361010b576102966132a0565b91805115610494576001600160a01b038781169390929073eeeeeeeeeeeeeeeeeeeeeeeeeeeeeeeeeeeeeeee8503610425578934995b8560055416803b1561042157604051638340f54960e01b81523360048201526001600160a01b03929092166024830152604482018c905282908290606490829084905af18015610416576103fe575b5093919288979996938360079793975416966040519b8c9963031137cd60e61b8b5260e48b019560048c015260248b015260843560448b015260648a015216608488015260e060a4880152518091526101048601929184905b8282106103dd5750505050908380923360c483015203925af180156103d25761039b578280f35b81813d83116103cb575b6103af81836132d4565b810103126103c7576103c090613326565b5038808280f35b5080fd5b503d6103a5565b6040513d85823e3d90fd5b83518116855289988b98508c96509485019490930192600190910190610374565b610407906132c0565b61041257893861031b565b8980fd5b6040513d84823e3d90fd5b8280fd5b6040516323b872dd60e01b8152336004808301919091523060248301523560448201819052998b918a81606481868c5af180156103d257610467575b506102cc565b610486908b3d8d1161048d575b61047e81836132d4565b81019061330e565b5038610461565b503d610474565b60405162461bcd60e51b815260048101879052601760248201527f4552525f4e4f5f434f4c4c41544552414c5f54595045530000000000000000006044820152606490fd5b81356001600160a01b038116810361010b578152908501908501610273565b8780fd5b503461013e578060031936011261013e57602060405160648152f35b5060a036600319011261013e5761052d61323c565b61053561327e565b906044359061ffff80831680930361010b57849261055161328f565b9461055b81613740565b60018060a01b03948593818560075416966024604051809a8193630ce7621960e11b835216998a60048301525afa96871561041657829761070c575b506105aa8160608901519416809461381c565b956020809801968688511673eeeeeeeeeeeeeeeeeeeeeeeeeeeeeeeeeeeeeeee81146000146106a557508034106106a1575b86806005541698511690883b1561069d57604051638340f54960e01b81523360048201526001600160a01b0392909216602483015260448201529683908890606490829084905af19586156103d2578896610682575b60c4959697506007541691604051998a97889663ab488b0b60e01b885260048801526064356024880152604487015216606485015233608485015260a48401525af180156103d25761039b578280f35b9495509561069083916132c0565b6103c75785879594610632565b8480fd5b8380fd5b6040516323b872dd60e01b815233600482015230602482015260448101839052908a908290606490829089905af18015610701576106e4575b506105dc565b6106fa908a3d8c1161048d5761047e81836132d4565b50386106de565b6040513d87823e3d90fd5b6107299197503d8084833e61072181836132d4565b810190613349565b9538610597565b503461013e57602036600319011261013e5761074a61323c565b600154906001600160a01b03906107643383851614613703565b16906001600160601b0360a01b161760015580f35b5060c036600319011261013e578061078f61323c565b610797613268565b90604435906107a461328f565b906107ad6132a0565b906001600160a01b03851673eeeeeeeeeeeeeeeeeeeeeeeeeeeeeeeeeeeeeeee03610c1c5734935061081f925b600354604051631c07d98160e21b81526001600160a01b03888116600483015284811660248301526044820188905290956020928792169082908b9082906064820190565b03925af1938415610c11578794610bda575b5060035460405163912d228f60e01b8082526001600160a01b0385811660048401526024830188905290969192602091849160449183918e91165af1918215610b03578992610ba2575b50600480546040516322a0fe3360e21b815233928101929092526024820193909352916001600160a01b03169060208380604481015b0381855afa928315610b97578a93610b52575b506108d3600493602092613840565b9160405193848092636882509b60e11b82525afa918215610b03578992610b12575b5060ff6109039216906135c3565b9060018060a01b036005541690813b15610b0e57604051638340f54960e01b81523360048201526001600160a01b0389166024820152604481018890529189908390606490829084905af1918215610b03578992610aeb575b5060075460405163486c386960e11b81526001600160a01b0395861660048201528986166024820152604481018990526064808201959095529335608485015261ffff91821660a4850152941660c48301523360e483015290926020928492610104928492165af1801561070157610aa7575b506003546040519182526001600160a01b039384166004830152602482019290925291602091839116818581604481015b03925af1908115610416578291610a72575b506002546001600160a01b0316803b15610a6e5760405163094f618d60e11b8152336004820152602481019290925282908290818381604481015b03925af1801561041657610a5e5750f35b610a67906132c0565b61013e5780f35b5050fd5b9150506020813d602011610a9f575b81610a8e602093836132d4565b8101031261010b5781905138610a12565b3d9150610a81565b91906020833d602011610ae3575b81610ac2602093836132d4565b8101031261069d57610a0093610ad9602094613326565b50935090916109cf565b3d9150610ab5565b610af7909291926132c0565b6104f85787903861095c565b6040513d8b823e3d90fd5b8880fd5b91506020823d602011610b4a575b81610b2d602093836132d4565b81010312610b0e5760ff610b43610903936135b5565b92506108f5565b3d9150610b20565b92506020833d602011610b8f575b81610b6d602093836132d4565b81010312610412576108d3602091610b86600495613326565b945091506108c4565b3d9150610b60565b6040513d8c823e3d90fd5b915097506020813d602011610bd2575b81610bbf602093836132d4565b8101031261010b575188976108b161087b565b3d9150610bb2565b965092506020863d602011610c09575b81610bf7602093836132d4565b8101031261010b578695519238610831565b3d9150610bea565b6040513d89823e3d90fd5b6040516323b872dd60e01b815233600482015230602482015260448101859052926020846064818a6001600160a01b038b165af1938415610c115761081f94610c66575b506107da565b610c7d9060203d811161048d5761047e81836132d4565b5038610c60565b503461013e57602036600319011261013e57610c9e61323c565b6001546001600160a01b039190610cb89083163314613703565b166001600160601b0360a01b600354161760035580f35b50604036600319011261013e5760043590610ce861327e565b91610cf283613740565b600654604051632820036560e11b8152600481018390526001600160a01b039182169460249291610200808286818b5afa918215610c115787926110e5575b5050826101c08201511633036110ae5782610160820151168342160396838811611099578697610d8c610d7c610d7161ffff60a08701519716809761381c565b9560e086015161381c565b91866101408601519116866137ef565b916040519763464244f960e11b8952600489015284878901528160448901528760648160209c8d945af1968715610ffd57889761107a575b50606083018051909373eeeeeeeeeeeeeeeeeeeeeeeeeeeeeeeeeeeeeeee918716828103611008575083341061041257918a8a939288608086955b015116908103610fa6575050818091818115610f9d575b3390f115610f92575b83600354168483511691848103908111610f7f5760405163912d228f60e01b8082526001600160a01b039490941660048201526024810191909152979889989796909590949093909290918690899060449082908d905af1978815610b03578998610f47575b50600354915160405191825284166001600160a01b0316600482015260248101929092528490829060449082908b9087165af1938415610c11578794610f14575b50506002541690813b15610f105785608492819560405197889687956311dd211f60e31b87523360048801528601526044850152151560648401525af1801561041657610a5e5750f35b8580fd5b819750809294503d8311610f40575b610f2d81836132d4565b8101031261010b57859451913880610ec6565b503d610f23565b9298509650908481813d8111610f78575b610f6281836132d4565b8101031261010b57518897909690919085610e85565b503d610f58565b634e487b7160e01b895260116004528689fd5b6040513d88823e3d90fd5b506108fc610e16565b60405163a9059cbb60e01b815233600482015260248101939093529193909250839160449183915af18015610ffd57610fe0575b50610e1f565b610ff690893d8b1161048d5761047e81836132d4565b5038610fda565b6040513d8a823e3d90fd5b6040516323b872dd60e01b815233600482015230602482015260448101869052908c90829060649082908f905af1801561106f57928860808d96948f948897611052575b50610dff565b61106890863d881161048d5761047e81836132d4565b503861104c565b6040513d8d823e3d90fd5b611092919750893d8b1161048d5761047e81836132d4565b9538610dc4565b84634e487b7160e01b60005260116004526000fd5b60405162461bcd60e51b8152602060048201526010818601526f22a9292fa727aa2fa127a92927aba2a960811b6044820152606490fd5b9080925081813d831161122d575b6110fd81836132d4565b810103126112295760405191820182811067ffffffffffffffff8211176112145760405261112a81613326565b8252602081015160038110156104f8576020830152604081015160028110156104f857604083015261115e60608201613326565b606083015261116f60808201613326565b608083015260a081015160a083015260c081015160c083015260e081015160e08301526101008082015190830152610120808201519083015261014080820151908301526101606111c1818301613326565b908301526101806111d3818301613326565b908301526101a06111e58183016135b5565b908301526101c06111f7818301613326565b908301526112096101e0809201613326565b908201523880610d31565b85634e487b7160e01b60005260416004526000fd5b8680fd5b503d6110f3565b50602036600319011261013e5780f35b50606036600319011261013e5761125961323c565b9061126261327e565b61126a613252565b9061127481613740565b600754604051630ce7621960e11b81526001600160a01b038681166004830152602496919391921685848881845afa938415610f92578694611b2b575b50604051634cf732f160e11b81526001600160a01b0384811660048301528616602482015290602090829060449082905afa908115610f92576113109291611300918891611b0c575b506135e3565b61ffff606085015191169061381c565b60035460208481015160405163912d228f60e01b81526001600160a01b0391821660048201526024810185905293969392839160449183918b91165af1908115610f92578691611ad9575b50600480546040516322a0fe3360e21b81523392810192909252602482019290925290602090829060449082906001600160a01b03165afa8015610f92578690611a9e575b600354602086810151604051631c07d98160e21b81526001600160a01b0391821660048201528682166024820152604481018a905294509091849116818a81606481015b03925af18015610c11578790611a6a575b6113ff925061381c565b60048054604051636882509b60e11b81529160209183919082906001600160a01b03165afa908115610c11578791611a28575b509060ff6114419216906135c3565b9073eeeeeeeeeeeeeeeeeeeeeeeeeeeeeeeeeeeeeeee6001600160a01b0382168181036119c9575034831061198d575b60208501516001600160a01b03169081036117fc575085808098508680156117f2575b8280929181923390f115610701575b6005546101208501516001600160a01b039081169116803b156104f857604051638340f54960e01b81526001600160a01b03928316600482015291831660248301526044820184905287908290606490829084905af1908115610c115787916117de575b505060055461012085015160208601516001600160a01b03928316929081169116823b15610b0e57604051633dae446f60e21b81526001600160a01b03918216600482015291166024820152604481018790529087908290606490829084905af1908115610c115787916117ca575b505060035460405163912d228f60e01b81526001600160a01b03838116600483015260248201859052909291602091849160449183918c91165af1918215610c11578792611793575b5060209186918860018060a01b03600654169261162260018060a01b03878b01511691898b61ffff60a0608083015192015116908d61012060018060a01b0391015116936040519c8d9b8c9a8b99636667fe2160e11b8b52339760048c0161354d565b03925af1801561070157611764575b506007546001600160a01b0316803b1561069d5760405163d0dd830360e01b81526001600160a01b0390921660048301526024820184905284908290818381604481015b03925af1908115611759578491611745575b505060035460209182015160405163912d228f60e01b81526001600160a01b0391821660048201526024810194909452839160449183918791165af1908115610416578291611710575b506002546001600160a01b0316803b15610a6e576040516311eba9df60e21b815233600482015260248101929092528290829081838160448101610a4d565b9150506020813d60201161173d575b8161172c602093836132d4565b8101031261010b57819051386116d1565b3d915061171f565b61174e906132c0565b610a6e578238611687565b6040513d86823e3d90fd5b6020809295503d831161178c575b61177c81836132d4565b8101031261010b57839238611631565b503d611772565b965090506020863d6020116117c2575b816117b0602093836132d4565b8101031261010b5794518695856115bf565b3d91506117a3565b6117d3906132c0565b610f10578538611576565b6117e7906132c0565b610f10578538611507565b6108fc9150611494565b6040805163a9059cbb60e01b602080830191909152338b83019081528082018a9052829003908101825290916118339101826132d4565b6040519081604081011067ffffffffffffffff6040840111176119785788809160408401604052602084527f5361666545524332303a206c6f772d6c6576656c2063616c6c206661696c6564602085015260208151910182865af13d1561196b573d9067ffffffffffffffff8211611956576118cf93604051926118c16020601f19601f84011601856132d4565b83523d8b602085013e61362f565b8051806118e1575b50508596506114a3565b906020806118f393830101910161330e565b156118ff5786806118d7565b60405162461bcd60e51b815260206004820152602a818901527f5361666545524332303a204552433230206f7065726174696f6e20646964206e6044820152691bdd081cdd58d8d9595960b21b6064820152608490fd5b8a634e487b7160e01b60005260416004526000fd5b916118cf9260609161362f565b89634e487b7160e01b60005260416004526000fd5b60405162461bcd60e51b8152602060048201526015818a01527411549497d0d3d31310551154905317d05353d55395605a1b6044820152606490fd5b6040516323b872dd60e01b81523360048201523060248201526044810185905290602090829060649082908c905af18015610ffd57611a09575b50611471565b611a219060203d60201161048d5761047e81836132d4565b5038611a03565b90506020813d602011611a62575b81611a43602093836132d4565b81010312611229579060ff611a5a611441936135b5565b919250611432565b3d9150611a36565b506020823d602011611a96575b81611a84602093836132d4565b8101031261010b576113ff91516113f5565b3d9150611a77565b506020813d602011611ad1575b81611ab8602093836132d4565b81010312610f1057611acc6113e491613326565b6113a0565b3d9150611aab565b90506020813d602011611b04575b81611af4602093836132d4565b8101031261010b5751602061135b565b3d9150611ae7565b611b25915060203d60201161048d5761047e81836132d4565b386112fa565b611b409194503d8088833e61072181836132d4565b92386112b1565b50602036600319011261013e576007546040516314c7eb4960e01b815260048035908201526001600160a01b03909116906101008082602481865afa918215611759578492611fbd575b505060e0810151604051632bdd7c7760e01b81526001600160a01b039091166004820152610180928390829060249082905afa928315611759578493611f8e575b50506101608201516001600160a01b03163303611f555781608084930151611c19611c07602085019261ffff8451169061381c565b9161ffff60c08501519151169061381c565b60208301519093906001600160a01b031673eeeeeeeeeeeeeeeeeeeeeeeeeeeeeeeeeeeeeeee8103611efc57508480858015611ef2575b8280929181923390f115611759575b60055460c082015160408501516001600160a01b03928316929081169116823b156104f857604051633c6340f360e21b81523360048201526001600160a01b03918216602482015291166044820152606481018490529086908290608490829084905af1908115610f92578691611ede575b505060055460c082015160208501516001600160a01b03928316929081169116823b156104f857604051633dae446f60e21b81526001600160a01b03918216600482015291166024820152604481018690529086908290606490829084905af1908115610f92578691611eca575b5050600354604084810151905163912d228f60e01b81526001600160a01b039182166004820152602481018590529291602091849160449183918b91165af1918215610f92578692611e93575b5060209185918760018060a01b036006541692611e0760018060a01b0360e0850151169160018060a01b03888b0151169260018060a01b0360408c01511695608081015161ffff6040830151169160c060018060a01b0391015116936040519c8d9b8c9a8b99636667fe2160e11b8b52339760048c0161354d565b03925af1801561175957611e64575b5060075481516001600160a01b039081169116803b1561069d5760405163d0dd830360e01b81526001600160a01b039092166004830152602482018490528490829081838160448101611675565b6020809294503d8311611e8c575b611e7c81836132d4565b8101031261010b57829138611e16565b503d611e72565b955090506020853d602011611ec2575b81611eb0602093836132d4565b8101031261010b579351859484611d8c565b3d9150611ea3565b611ed3906132c0565b61069d578438611d3f565b611ee7906132c0565b61069d578438611cd1565b6108fc9150611c50565b60405163a9059cbb60e01b81523360048201526024810186905290602090829060449082908a905af18015610f9257611f36575b50611c5f565b611f4e9060203d60201161048d5761047e81836132d4565b5038611f30565b60405162461bcd60e51b815260206004820152601160248201527022a9292fa7a7262cafa127a92927aba2a960791b6044820152606490fd5b611fae929350803d10611fb6575b611fa681836132d4565b810190613480565b903880611bd2565b503d611f9c565b9080925081813d8311612092575b611fd581836132d4565b810103126106a15760405191820182811067ffffffffffffffff82111761207c576120709160e09160405261200981613326565b84526120176020820161333a565b60208501526120286040820161333a565b604085015261203960608201613326565b60608501526080810151608085015261205460a08201613326565b60a085015261206560c08201613326565b60c085015201613326565b60e08201523880611b91565b634e487b7160e01b600052604160045260246000fd5b503d611fcb565b503461013e57602036600319011261013e57600754604051632a3884d760e21b815260048035908201526001600160a01b03909116906101608082602481865afa918215611759578492612583575b50508260018060a01b0361014083015116602460405180958193630ce7621960e11b835260048301525afa9182156103d2578392612567575b50610120828101519091906001600160a01b03163303612530578261215460608695015161ffff6020850151169061381c565b602082015190929083906001600160a01b031673eeeeeeeeeeeeeeeeeeeeeeeeeeeeeeeeeeeeeeee81036124c957508185015186918291829182916001600160a01b03168282156124c0575bf115611759575b60055493810180516040830151606084015192966001600160a01b0391821693928216929116803b15610b0e57604051633c6340f360e21b81526001600160a01b039384166004820152336024820152939092166044840152606483015286908290608490829084905af1908115610f925786916124ac575b505060055460208301516001600160a01b039081169116803b1561122957604051633dae446f60e21b81523360048201526001600160a01b039290921660248301526044820185905286908290606490829084905af1908115610f92578691612498575b505060018060a01b036006541660208460018060a01b03610140850151169260018060a01b0383870151168960018060a01b036040880151169161230760608901519760808a01518d8b61ffff60a060e0830151920151169160018060a01b03905116926040519c8d9b8c9a8b99636667fe2160e11b8b52339860048c0161354d565b03925af18015610f9257612469575b506007546101408201516060909201516001600160a01b039182169290911690823b1561122957604051634e1df74360e01b81526001600160a01b039290921660048301526024820185905260448201529085908290606490829084905af1908115610701578591612455575b505060035460209182015160405163912d228f60e01b81526001600160a01b0391821660048201526024810194909452839160449183918891165af19081156103d2578391612420575b5060025491516001600160a01b03928316921690823b1561241b576040516311eba9df60e21b81526001600160a01b0390921660048301526024820152908290829081838160448101610a4d565b505050fd5b9250506020823d60201161244d575b8161243c602093836132d4565b8101031261010b57829151386123cd565b3d915061242f565b61245e906132c0565b61241b578338612383565b6020809296503d8311612491575b61248181836132d4565b8101031261010b57849338612316565b503d612477565b6124a1906132c0565b61069d578438612284565b6124b5906132c0565b61069d578438612220565b506108fc6121a0565b8286015160405163a9059cbb60e01b81526001600160a01b0390911660048201526024810192909252602090829060449082908a905af18015610f9257612511575b506121a7565b6125299060203d60201161048d5761047e81836132d4565b503861250b565b60405162461bcd60e51b815260206004820152600f60248201526e22a9292fa7a7262cafa622a72222a960891b6044820152606490fd5b61257c9192503d8085833e61072181836132d4565b9038612121565b9080925081813d8311612669575b61259b81836132d4565b810103126106a15760405191820182811067ffffffffffffffff82111761207c576040526125c881613326565b82526125d66020820161333a565b60208301526125e760408201613326565b6040830152606081015160608301526080810151608083015261260c60a0820161333a565b60a083015261261d60c08201613326565b60c083015260e081015160e083015261010061263a818301613326565b9083015261012061264c818301613326565b9083015261265e610140809201613326565b9082015238806120e8565b503d612591565b5060c036600319011261013e578061268661323c565b61268e61327e565b612696613252565b9061269f61328f565b926126a86132a0565b906126b283613740565b600754604051630ce7621960e11b81526001600160a01b0383811660048301529091168782602481845afa918215610ffd578892612bea575b50604051634cf732f160e11b81526001600160a01b0384811660048301528716602482015290602090829060449082905afa8015610ffd57612733918991611b0c57506135e3565b612746606082015161ffff86169061381c565b6003546020928301805160405163912d228f60e01b81526001600160a01b039182166004820152602481018590529394919392839160449183918e91165af1908115610b03578991612bb0575b50600480546040516322a0fe3360e21b815233928101929092526024820192909252929190602090849060449082906001600160a01b03165afa928315610b03578993612b6c575b506003549051604051631c07d98160e21b81526001600160a01b03918216600482015281891660248201526044810193909352602091839116818b81606481015b03925af1908115610ffd578891612b34575b5060049161283b9161381c565b8154604051636882509b60e11b81529260209184919082906001600160a01b03165afa918215610ffd578892612af4575b5060ff61287a9216906135c3565b916001600160a01b03851673eeeeeeeeeeeeeeeeeeeeeeeeeeeeeeeeeeeeeeee03612a9157348310611229575b6005546001600160a01b0316803b156104f857604051638340f54960e01b81523360048201526001600160a01b0387166024820152604481018590529088908290606490829084905af1908115610ffd578891612a7d575b505060035460405163912d228f60e01b81526001600160a01b03878116600483015260248201869052909791602091899160449183918d91165af1968715610ffd578897612a3a575b5060075460405163aba001ed60e01b815261ffff96871660048201526001600160a01b0397881660248201526044810195909552606480860189905235608486015290851660a4850152931660c48301523360e483015283166101048201529160209183916101249183918891165af180156103d257612a0157506002546001600160a01b0316803b15610a6e5760405163094f618d60e11b815233600482015260248101929092528290829081838160448101610a4d565b6020813d602011612a32575b81612a1a602093836132d4565b81010312610a6e57612a2b90613326565b5038610a12565b3d9150612a0d565b92939491975095506020823d602011612a75575b81612a5b602093836132d4565b8101031261010b579051879690959193929161ffff612948565b3d9150612a4e565b612a86906132c0565b6112295786386128ff565b6040516323b872dd60e01b8152336004820152306024820152604481018490526020816064818b6001600160a01b038b165af18015610ffd57612ad5575b506128a7565b612aed9060203d60201161048d5761047e81836132d4565b5038612acf565b91506020823d602011612b2c575b81612b0f602093836132d4565b810103126104f85760ff612b2561287a936135b5565b925061286c565b3d9150612b02565b9750506020873d602011612b64575b81612b50602093836132d4565b8101031261010b579551879690600461282e565b3d9150612b43565b9092506020813d602011612ba8575b81612b88602093836132d4565b81010312610b0e5761281c91612b9f602092613326565b939150916127db565b3d9150612b7b565b92919850506020823d602011612be2575b81612bce602093836132d4565b8101031261010b5790518897906020612793565b3d9150612bc1565b612bff9192503d808a833e61072181836132d4565b90386126eb565b50604036600319011261013e57612c1b61323c565b90612c2461327e565b612c2d81613740565b600754604051632bdd7c7760e01b81526001600160a01b0385811660048301526101809392849183916024918391165afa9283156117595784936131a3575b50506101608201516001600160a01b0316331461316857612ca5612c9a61ffff60808501519316809361381c565b9160c084015161381c565b60208301519091906001600160a01b031673eeeeeeeeeeeeeeeeeeeeeeeeeeeeeeeeeeeeeeee81036130a057508134106106a157838080808560018060a01b0361016089015116828215613097575bf1156103d2575b60055461016084015160408501516001600160a01b0392831697929081169116873b1561122957604051633c6340f360e21b81526001600160a01b03918216600482015233602482015291166044820152606481018390529585908790608490829084905af1801561070157613083575b600554602085015195965086956001600160a01b039081169116803b1561122957604051633dae446f60e21b81523360048201526001600160a01b039290921660248301526044820185905286908290606490829084905af1908115610f9257869161306f575b5050600354604085810151905163912d228f60e01b81526001600160a01b0391821660048201526024810185905291602091839160449183918b91165af1908115610f9257869161303a575b5060065485516020808801516040808a015160e08b01516101008c01516101608d01519351636667fe2160e11b81526001600160a01b0397881660048201526001602482015294871660448601529186166064850152608484018b905260a484018a905260c484019790975260e483019690965261ffff909516610104820152938216610124850152336101448501529183916101649183918b91165af18015610f925761300b575b506007546001600160a01b031691823b15610f1057604051634e1df74360e01b81526001600160a01b039290921660048301526024820184905260448201529084908290606490829084905af1908115611759578491612ff7575b505060035460208381015160405163912d228f60e01b81526001600160a01b03918216600482015260248101949094529091839160449183918891165af19081156103d2578391612fc2575b50600254610160909201516001600160a01b03928316921690823b1561241b576040516311eba9df60e21b81526001600160a01b0390921660048301526024820152908290829081838160448101610a4d565b9250506020823d602011612fef575b81612fde602093836132d4565b8101031261010b5782915138612f6f565b3d9150612fd1565b613000906132c0565b610a6e578238612f23565b6020809296503d8311613033575b61302381836132d4565b8101031261010b57849338612ec8565b503d613019565b9550506020853d602011613067575b81613056602093836132d4565b8101031261010b5785945138612e1f565b3d9150613049565b613078906132c0565b61069d578438612dd3565b93909461308f906132c0565b928490612d6c565b506108fc612cf4565b6040516323b872dd60e01b815233600482015230602482015260448101849052906020908290606490829089905af1801561070157613149575b5060208381015161016085015160405163a9059cbb60e01b81526001600160a01b039182166004820152602481018690529291839160449183918a91165af180156107015761312a575b50612cfb565b6131429060203d60201161048d5761047e81836132d4565b5038613124565b6131619060203d60201161048d5761047e81836132d4565b50386130da565b60405162461bcd60e51b815260206004820152601360248201527222a9292fa1a0a72a2fa127a92927abafa7aba760691b6044820152606490fd5b6131ba929350803d10611fb657611fa681836132d4565b903880612c6c565b503461013e578060031936011261013e57602060405173eeeeeeeeeeeeeeeeeeeeeeeeeeeeeeeeeeeeeeee8152f35b503461013e57602036600319011261013e5761320b61323c565b6001546001600160a01b0391906132259083163314613703565b166001600160601b0360a01b600454161760045580f35b600435906001600160a01b038216820361010b57565b604435906001600160a01b038216820361010b57565b602435906001600160a01b038216820361010b57565b6024359061ffff8216820361010b57565b6084359061ffff8216820361010b57565b60a4359061ffff8216820361010b57565b50600036600319011261010b57005b67ffffffffffffffff811161207c57604052565b90601f8019910116810190811067ffffffffffffffff82111761207c57604052565b67ffffffffffffffff811161207c5760051b60200190565b9081602091031261010b5751801515810361010b5790565b51906001600160a01b038216820361010b57565b519061ffff8216820361010b57565b90602090818382031261010b57825167ffffffffffffffff9384821161010b57019161014093848484031261010b576040519485018581108282111761207c5760405261339584613326565b85526133a2828501613326565b828601526040840151604086015260608401516060860152608084015160808601526133d060a0850161333a565b60a086015260c084015190811161010b5783019180601f8401121561010b5782516133fa816132f6565b9361340860405195866132d4565b818552838086019260051b82010192831161010b578301905b828210613469575050505060c083015261343d60e08201613326565b60e0830152610100613450818301613326565b90830152613462610120809201613326565b9082015290565b83809161347584613326565b815201910190613421565b8091610180928391031261010b5760405191820182811067ffffffffffffffff82111761207c576040526134b381613326565b82526134c160208201613326565b60208301526134d260408201613326565b6040830152606081015160608301526080810151608083015260a081015160a083015260c081015160c083015260e081015160e083015261010061351781830161333a565b90830152610120613529818301613326565b9083015261014061353b818301613326565b90830152613462610160809201613326565b6001600160a01b0391821681526000602082015291811660408301529182166060820152608081019290925260a082019290925260c081019290925260e082019290925261ffff90921661010083015291821661012082015291166101408201526101600190565b519060ff8216820361010b57565b81156135cd570490565b634e487b7160e01b600052601260045260246000fd5b156135ea57565b60405162461bcd60e51b815260206004820152601c60248201527f4552525f434f4c4c41544552414c5f4e4f545f535550504f52544544000000006044820152606490fd5b919290156136915750815115613643575090565b3b1561364c5790565b60405162461bcd60e51b815260206004820152601d60248201527f416464726573733a2063616c6c20746f206e6f6e2d636f6e74726163740000006044820152606490fd5b8251909150156136a45750805190602001fd5b6040519062461bcd60e51b82528160208060048301528251908160248401526000935b8285106136ea575050604492506000838284010152601f80199101168101030190fd5b84810182015186860160440152938101938593506136c7565b1561370a57565b60405162461bcd60e51b815260206004820152600e60248201526d22a9292fa7a7262cafa7aba722a960911b6044820152606490fd5b61ffff8091166064811161378f57601990061661375957565b60405162461bcd60e51b815260206004820152600e60248201526d4552525f50455243454e5441474560901b6044820152606490fd5b60405162461bcd60e51b815260206004820152600f60248201526e4f5645525f50455243454e5441474560881b6044820152606490fd5b818102929181159184041417156137d957565b634e487b7160e01b600052601160045260246000fd5b9161380e606492613809670de0b6b3a764000093866137c6565b6137c6565b040481018091116137d95790565b906001600160a01b0316801561383c57613838906064926137c6565b0490565b5090565b906001600160a01b039081166064811061010b57606319018181116137d95781166064039081116137d9576138749161381c565b9056fea264697066735822122032344be0b191ecb3655f46c9f61495ed9b01e2dd5537fc3256ba8732327bfaeb64736f6c63430008110033",
  "immutableReferences": {},
  "source": "// SPDX-License-Identifier: GPL-3.0\r\npragma solidity >=0.7.0 <0.9.0;\r\n\r\nimport \"./Activity.sol\";\r\n\r\nimport \"./libraries/Errors.sol\";\r\nimport \"./libraries/PoolLibrary.sol\";\r\n\r\nimport \"./math/SimpleInterest.sol\";\r\n\r\nimport \"./interfaces/IPriceFeed.sol\";\r\nimport \"./interfaces/ILoanToValueRatio.sol\";\r\n\r\nimport \"./managers/LoanManager.sol\";\r\nimport \"./managers/OfferManager.sol\";\r\nimport \"./managers/PoolManager.sol\";\r\n\r\nimport \"@openzeppelin/contracts/utils/Context.sol\";\r\nimport \"@openzeppelin/contracts/utils/math/SafeMath.sol\";\r\nimport \"@openzeppelin/contracts/token/ERC20/utils/SafeERC20.sol\";\r\nimport \"@openzeppelin/contracts/token/ERC20/ERC20.sol\";\r\nimport \"@openzeppelin/contracts/security/ReentrancyGuard.sol\";\r\n\r\ncontract LendingPool is Context, ReentrancyGuard, SimpleInterest {\r\n    using SafeMath for uint256;\r\n    using SafeERC20 for ERC20;\r\n\r\n    address deployer;\r\n\r\n    Activity private _activity;\r\n    IPriceFeed private _priceFeed;\r\n    ILoanToValueRatio private _ltv;\r\n\r\n    // managers\r\n    PoolManager private _poolManager;\r\n    LoanManager private _loanManager;\r\n    OfferManager private _offerManager;\r\n\r\n    address public constant nativeAddress =\r\n        0xEeeeeEeeeEeEeeEeEeEeeEEEeeeeEeeeeeeeEEeE;\r\n\r\n    constructor(\r\n        address poolManager_,\r\n        address loanManager_,\r\n        address offerManager_\r\n    ) ReentrancyGuard() {\r\n        _poolManager = PoolManager(poolManager_);\r\n        _loanManager = LoanManager(loanManager_);\r\n        _offerManager = OfferManager(offerManager_);\r\n\r\n        deployer = _msgSender();\r\n    }\r\n\r\n    // @lenders\r\n    function createLendingOffer(\r\n        uint256 principalAmount_, // only for ERC20 assets\r\n        address principalToken,\r\n        address[] memory collateralTokens,\r\n        uint16 daysToMaturity,\r\n        uint256 interest,\r\n        uint16 daysToExpire\r\n    ) public payable {\r\n        uint256 principalAmount;\r\n\r\n        require(collateralTokens.length > 0, \"ERR_NO_COLLATERAL_TYPES\");\r\n\r\n        /* extract tokens from lender */\r\n        if (principalToken == nativeAddress) {\r\n            principalAmount = msg.value;\r\n        } else {\r\n            principalAmount = principalAmount_;\r\n            ERC20(principalToken).transferFrom(\r\n                _msgSender(),\r\n                address(this),\r\n                principalAmount\r\n            );\r\n        }\r\n\r\n        /* delegate principal to lender */\r\n        _poolManager.deposit(_msgSender(), principalToken, principalAmount);\r\n\r\n        /* create the lending offer */\r\n        _offerManager.createLendingOffer(\r\n            principalToken,\r\n            principalAmount,\r\n            interest,\r\n            daysToMaturity,\r\n            daysToExpire,\r\n            collateralTokens,\r\n            _msgSender()\r\n        );\r\n    }\r\n\r\n    // @lenders\r\n    function createLendingRequest(\r\n        uint160 offerId,\r\n        uint16 percentage,\r\n        uint16 daysToMaturity,\r\n        uint256 interest,\r\n        uint16 daysToExpire\r\n    ) public payable {\r\n        _checkPercentage(percentage);\r\n\r\n        OfferLibrary.LendingOffer memory offer = _offerManager.getLendingOffer(\r\n            offerId\r\n        );\r\n\r\n        uint256 principalAmount = percentageOf(\r\n            offer.initialPrincipal,\r\n            percentage\r\n        );\r\n\r\n        /* extract tokens from lender */\r\n        if (offer.principalToken == nativeAddress) {\r\n            require(msg.value >= principalAmount);\r\n        } else {\r\n            ERC20(offer.principalToken).transferFrom(\r\n                _msgSender(),\r\n                address(this),\r\n                principalAmount\r\n            );\r\n        }\r\n\r\n        /* delegate principal to lender */\r\n        _poolManager.deposit(\r\n            _msgSender(),\r\n            offer.principalToken,\r\n            principalAmount\r\n        );\r\n\r\n        /* create the lending request */\r\n        _offerManager.createLendingRequest(\r\n            percentage,\r\n            interest,\r\n            daysToMaturity,\r\n            daysToExpire,\r\n            _msgSender(),\r\n            offerId\r\n        );\r\n    }\r\n\r\n    // @lenders\r\n    function acceptBorrowingOffer(uint160 offerId, uint16 percentage)\r\n        public\r\n        payable\r\n    {\r\n        _checkPercentage(percentage);\r\n\r\n        OfferLibrary.BorrowingOffer memory offer = _offerManager\r\n            .getBorrowingOffer(offerId);\r\n\r\n        require(_msgSender() != offer.borrower, \"ERR_CANT_BORROW_OWN\");\r\n\r\n        uint256 collateralAmount = percentageOf(\r\n            offer.initialCollateral,\r\n            percentage\r\n        );\r\n\r\n        uint256 principalAmount = percentageOf(\r\n            offer.initialPrincipal,\r\n            percentage\r\n        );\r\n\r\n        /* extract principal from lender/caller and transfer to borrower */\r\n        if (offer.principalToken == nativeAddress) {\r\n            require(msg.value >= principalAmount);\r\n            payable(offer.borrower).transfer(principalAmount);\r\n        } else {\r\n            ERC20(offer.principalToken).transferFrom(\r\n                _msgSender(),\r\n                address(this),\r\n                principalAmount\r\n            );\r\n            ERC20(offer.principalToken).transfer(\r\n                offer.borrower,\r\n                principalAmount\r\n            );\r\n        }\r\n\r\n        /* delegate the loan collateral to lender */\r\n        _poolManager.transfer(\r\n            offer.borrower,\r\n            _msgSender(),\r\n            offer.collateralToken,\r\n            collateralAmount\r\n        );\r\n        /* undelegate the principal from lender */\r\n        _poolManager.burn(_msgSender(), offer.principalToken, principalAmount);\r\n\r\n        uint256 collateralPriceInUSD = _priceFeed.amountInUSD(\r\n            offer.collateralToken,\r\n            collateralAmount\r\n        );\r\n\r\n        /* register the loan from the loan manager */\r\n        _loanManager.createLoan(\r\n            offer.offerId,\r\n            OfferLibrary.Type.BORROWING_OFFER,\r\n            offer.principalToken,\r\n            offer.collateralToken,\r\n            principalAmount,\r\n            collateralAmount,\r\n            collateralPriceInUSD,\r\n            offer.interest,\r\n            offer.daysToMaturity,\r\n            offer.borrower,\r\n            _msgSender()\r\n        );\r\n\r\n        // will revert the transaction if fail\r\n        _offerManager._afterOfferBorrowingLoan(\r\n            offerId,\r\n            principalAmount,\r\n            collateralAmount\r\n        );\r\n\r\n        // update activity\r\n        uint256 borrowedAmountInUSD = _priceFeed.amountInUSD(\r\n            offer.principalToken,\r\n            principalAmount\r\n        );\r\n        _activity._borrowLoan(offer.borrower, borrowedAmountInUSD);\r\n    }\r\n\r\n    // @lenders\r\n    function acceptBorrowingRequest(uint256 requestId) public {\r\n        RequestLibrary.BorrowingRequest memory request = _offerManager\r\n            .getBorrowingRequest(requestId);\r\n\r\n        OfferLibrary.LendingOffer memory offer = _offerManager.getLendingOffer(\r\n            request.offerId\r\n        );\r\n\r\n        require(offer.lender == _msgSender(), \"ERR_ONLY_LENDER\");\r\n\r\n        uint256 principalAmount = percentageOf(\r\n            offer.initialPrincipal,\r\n            request.percentage\r\n        );\r\n\r\n        /* transfer principal to borrower */\r\n        if (offer.principalToken == nativeAddress) {\r\n            payable(request.borrower).transfer(principalAmount);\r\n        } else {\r\n            ERC20(offer.principalToken).transfer(\r\n                request.borrower,\r\n                principalAmount\r\n            );\r\n        }\r\n\r\n        /* delegate the loan collateral to lender */\r\n        _poolManager.transfer(\r\n            request.borrower,\r\n            _msgSender(),\r\n            request.collateralToken,\r\n            request.collateralAmount\r\n        );\r\n        /* undelegate the principal from lender */\r\n        _poolManager.burn(_msgSender(), offer.principalToken, principalAmount);\r\n\r\n        /* register the loan from the loan manager */\r\n        _loanManager.createLoan(\r\n            request.offerId,\r\n            OfferLibrary.Type.LENDING_OFFER,\r\n            offer.principalToken,\r\n            request.collateralToken,\r\n            principalAmount,\r\n            request.collateralAmount,\r\n            request.collateralPriceInUSD,\r\n            request.interest,\r\n            request.daysToMaturity,\r\n            request.borrower,\r\n            _msgSender()\r\n        );\r\n\r\n        // will revert the transaction if fail\r\n        _offerManager._afterOfferBorrowingLoan(\r\n            request.offerId,\r\n            principalAmount,\r\n            request.collateralAmount\r\n        );\r\n\r\n        // update activity\r\n        uint256 amountBorrowedInUSD = _priceFeed.amountInUSD(\r\n            offer.principalToken,\r\n            principalAmount\r\n        );\r\n        _activity._borrowLoan(request.borrower, amountBorrowedInUSD);\r\n    }\r\n\r\n    // @borrower\r\n    function createBorrowingOffer(\r\n        address principalToken,\r\n        address collateralToken,\r\n        uint256 collateralAmount_, // for ERC20 assets\r\n        uint256 interest,\r\n        uint16 daysToMaturity,\r\n        uint16 daysToExpire\r\n    ) public payable {\r\n        uint256 collateralAmount;\r\n\r\n        /* extract collateral from borrower */\r\n        if (collateralToken == nativeAddress) {\r\n            collateralAmount = msg.value;\r\n        } else {\r\n            collateralAmount = collateralAmount_;\r\n            ERC20(collateralToken).transferFrom(\r\n                _msgSender(),\r\n                address(this),\r\n                collateralAmount\r\n            );\r\n        }\r\n\r\n        uint256 principalNormalAmount = _priceFeed.exchangeRate(\r\n            collateralToken,\r\n            principalToken,\r\n            collateralAmount\r\n        );\r\n\r\n        uint256 principalAmountInUSD = _priceFeed.amountInUSD(\r\n            principalToken,\r\n            principalNormalAmount\r\n        );\r\n\r\n        uint160 ltv = _ltv.getRelativeLTV(_msgSender(), principalAmountInUSD);\r\n\r\n        uint256 principalAmount = percentageInverseOf(\r\n            principalNormalAmount,\r\n            ltv\r\n        ) / _ltv.getBase();\r\n\r\n        /* delegate the collateral to borrower */\r\n        _poolManager.deposit(_msgSender(), collateralToken, collateralAmount);\r\n\r\n        /* create the offer */\r\n        _offerManager.createBorrowingOffer(\r\n            principalToken,\r\n            collateralToken,\r\n            collateralAmount,\r\n            principalAmount,\r\n            interest,\r\n            daysToMaturity,\r\n            daysToExpire,\r\n            _msgSender()\r\n        );\r\n\r\n        // update activity\r\n        uint256 amountInUSD = _priceFeed.amountInUSD(\r\n            collateralToken,\r\n            collateralAmount\r\n        );\r\n        _activity._dropCollateral(_msgSender(), amountInUSD);\r\n    }\r\n\r\n    // @borrower\r\n    function createBorrowingRequest(\r\n        uint160 offerId,\r\n        uint16 percentage,\r\n        address collateralToken,\r\n        uint256 interest,\r\n        uint16 daysToMaturity,\r\n        uint16 daysToExpire\r\n    ) public payable {\r\n        _checkPercentage(percentage);\r\n\r\n        OfferLibrary.LendingOffer memory offer = _offerManager.getLendingOffer(\r\n            offerId\r\n        );\r\n\r\n        require(\r\n            _offerManager.isCollateralSupported(offerId, collateralToken),\r\n            \"ERR_COLLATERAL_NOT_SUPPORTED\"\r\n        );\r\n\r\n        uint256 principalAmount = percentageOf(\r\n            offer.initialPrincipal,\r\n            percentage\r\n        );\r\n\r\n        uint256 principalPriceInUSD = _priceFeed.amountInUSD(\r\n            offer.principalToken,\r\n            principalAmount\r\n        );\r\n\r\n        uint160 ltv = _ltv.getRelativeLTV(_msgSender(), principalPriceInUSD);\r\n\r\n        uint256 collateralNormalAmount = _priceFeed.exchangeRate(\r\n            offer.principalToken,\r\n            collateralToken,\r\n            principalAmount\r\n        );\r\n\r\n        uint256 collateralAmount = percentageOf(collateralNormalAmount, ltv) /\r\n            _ltv.getBase();\r\n\r\n        /* extract collateral from borrower */\r\n        if (collateralToken == nativeAddress) {\r\n            require(collateralAmount >= msg.value);\r\n        } else {\r\n            ERC20(collateralToken).transferFrom(\r\n                _msgSender(),\r\n                address(this),\r\n                collateralAmount\r\n            );\r\n        }\r\n\r\n        /* delegate the collateral to borrower */\r\n        _poolManager.deposit(_msgSender(), collateralToken, collateralAmount);\r\n\r\n        uint256 collateralPriceInUSD = _priceFeed.amountInUSD(\r\n            collateralToken,\r\n            collateralAmount\r\n        );\r\n\r\n        /* create the request */\r\n        _offerManager.createBorrowingRequest(\r\n            percentage,\r\n            collateralToken,\r\n            collateralAmount,\r\n            collateralPriceInUSD,\r\n            interest,\r\n            daysToMaturity,\r\n            daysToExpire,\r\n            _msgSender(),\r\n            offerId\r\n        );\r\n\r\n        // update activity\r\n        _activity._dropCollateral(_msgSender(), collateralPriceInUSD);\r\n    }\r\n\r\n    // @borrower\r\n    function acceptLendingOffer(\r\n        uint160 offerId,\r\n        uint16 percentage,\r\n        address collateralToken\r\n    ) public payable {\r\n        _checkPercentage(percentage);\r\n\r\n        OfferLibrary.LendingOffer memory offer = _offerManager.getLendingOffer(\r\n            offerId\r\n        );\r\n\r\n        require(\r\n            _offerManager.isCollateralSupported(offerId, collateralToken),\r\n            \"ERR_COLLATERAL_NOT_SUPPORTED\"\r\n        );\r\n\r\n        uint256 principalAmount = percentageOf(\r\n            offer.initialPrincipal,\r\n            percentage\r\n        );\r\n\r\n        uint256 principalPriceInUSD = _priceFeed.amountInUSD(\r\n            offer.principalToken,\r\n            principalAmount\r\n        );\r\n\r\n        uint160 ltv = _ltv.getRelativeLTV(_msgSender(), principalPriceInUSD);\r\n\r\n        /* calculate the collateral amount */\r\n        uint256 collateralNormalAmount = _priceFeed.exchangeRate(\r\n            offer.principalToken,\r\n            collateralToken,\r\n            principalAmount\r\n        );\r\n\r\n        uint256 collateralAmount = percentageOf(collateralNormalAmount, ltv) /\r\n            _ltv.getBase();\r\n\r\n        /* extract collateral tokens from borrower */\r\n        if (collateralToken == nativeAddress) {\r\n            require(collateralAmount >= msg.value, \"ERR_COLLATERAL_AMOUNT\");\r\n        } else {\r\n            ERC20(collateralToken).transferFrom(\r\n                _msgSender(),\r\n                address(this),\r\n                collateralAmount\r\n            );\r\n        }\r\n\r\n        /* transfer the principal to borrower */\r\n        if (offer.principalToken == nativeAddress) {\r\n            payable(_msgSender()).transfer(principalAmount);\r\n        } else {\r\n            ERC20(offer.principalToken).safeTransfer(\r\n                _msgSender(),\r\n                principalAmount\r\n            );\r\n        }\r\n\r\n        /* delegate the loan collateral to lender */\r\n        _poolManager.deposit(offer.lender, collateralToken, collateralAmount);\r\n        /* undelegate the loan principal from lender */\r\n        _poolManager.burn(offer.lender, offer.principalToken, principalAmount);\r\n\r\n        uint256 collateralPriceInUSD = _priceFeed.amountInUSD(\r\n            collateralToken,\r\n            collateralAmount\r\n        );\r\n\r\n        /* register the loan */\r\n        _loanManager.createLoan(\r\n            offerId,\r\n            OfferLibrary.Type.LENDING_OFFER,\r\n            offer.principalToken,\r\n            collateralToken,\r\n            principalAmount,\r\n            collateralAmount,\r\n            collateralPriceInUSD,\r\n            offer.interest,\r\n            offer.daysToMaturity,\r\n            _msgSender(),\r\n            offer.lender\r\n        );\r\n\r\n        // will revert if transaction fail\r\n        _offerManager._afterOfferLendingLoan(offerId, principalAmount);\r\n\r\n        // update activity\r\n        uint256 amountBorrowedInUSD = _priceFeed.amountInUSD(\r\n            offer.principalToken,\r\n            principalAmount\r\n        );\r\n        _activity._borrowLoan(_msgSender(), amountBorrowedInUSD);\r\n    }\r\n\r\n    // @borrower\r\n    function acceptLendingRequest(uint256 requestId) public payable {\r\n        RequestLibrary.LendingRequest memory request = _offerManager\r\n            .getLendingRequest(requestId);\r\n\r\n        OfferLibrary.BorrowingOffer memory offer = _offerManager\r\n            .getBorrowingOffer(request.offerId);\r\n\r\n        require(offer.borrower == _msgSender(), \"ERR_ONLY_BORROWER\");\r\n\r\n        uint256 collateralAmount = percentageOf(\r\n            offer.initialCollateral,\r\n            request.percentage\r\n        );\r\n\r\n        uint256 principalAmount = percentageOf(\r\n            offer.initialPrincipal,\r\n            request.percentage\r\n        );\r\n\r\n        /* transfer principal to borrower */\r\n        if (offer.principalToken == nativeAddress) {\r\n            payable(_msgSender()).transfer(principalAmount);\r\n        } else {\r\n            ERC20(offer.principalToken).transfer(_msgSender(), principalAmount);\r\n        }\r\n\r\n        /* delegate the loan collateral to lender */\r\n        _poolManager.transfer(\r\n            _msgSender(),\r\n            request.lender,\r\n            offer.collateralToken,\r\n            collateralAmount\r\n        );\r\n        /* undelegate the loan principal from lender */\r\n        _poolManager.burn(\r\n            request.lender,\r\n            offer.principalToken,\r\n            principalAmount\r\n        );\r\n\r\n        uint256 collateralPriceInUSD = _priceFeed.amountInUSD(\r\n            offer.collateralToken,\r\n            collateralAmount\r\n        );\r\n\r\n        /* register the loan from the loan manager */\r\n        _loanManager.createLoan(\r\n            request.offerId,\r\n            OfferLibrary.Type.LENDING_OFFER,\r\n            offer.principalToken,\r\n            offer.collateralToken,\r\n            principalAmount,\r\n            collateralAmount,\r\n            collateralPriceInUSD,\r\n            request.interest,\r\n            request.daysToMaturity,\r\n            _msgSender(),\r\n            request.lender\r\n        );\r\n\r\n        // will revert the transaction if fail\r\n        _offerManager._afterOfferLendingLoan(offer.offerId, principalAmount);\r\n\r\n        // update activity\r\n        uint256 amountBorrowedInUSD = _priceFeed.amountInUSD(\r\n            offer.principalToken,\r\n            principalAmount\r\n        );\r\n        _activity._borrowLoan(_msgSender(), amountBorrowedInUSD);\r\n    }\r\n\r\n    // @borrower\r\n    function reActivateOffer() public payable {}\r\n\r\n    // @borrower\r\n    function reActivateRequest() public payable {}\r\n\r\n    // @borrower\r\n    function repayLoan(uint256 loanId, uint16 percentage) public payable {\r\n        _checkPercentage(percentage);\r\n\r\n        LoanLibrary.Loan memory loan = _loanManager.getLoan(loanId);\r\n\r\n        // verify the borrower is the repayer\r\n        require(loan.borrower == _msgSender(), \"ERR_NOT_BORROWER\");\r\n\r\n        // calculate the duration of the loan\r\n        uint160 time = uint160(block.timestamp);\r\n        uint160 ellapsedSecs = (time - loan.startDate);\r\n\r\n        uint256 principalAmount = percentageOf(\r\n            loan.initialPrincipal,\r\n            percentage\r\n        );\r\n\r\n        uint256 collateralAmount = percentageOf(\r\n            loan.initialCollateral,\r\n            percentage\r\n        );\r\n\r\n        // calculate the pay back amount\r\n        uint256 repaymentPrincipalAmount = getFullInterestAmount(\r\n            principalAmount,\r\n            ellapsedSecs,\r\n            loan.interest\r\n        );\r\n\r\n        // will revert the transaction if fail\r\n        bool completed = _loanManager.repayLoan(\r\n            loanId,\r\n            principalAmount,\r\n            collateralAmount\r\n        );\r\n\r\n        /* extract pay back amount */\r\n        if (loan.principalToken == nativeAddress) {\r\n            require(msg.value >= repaymentPrincipalAmount);\r\n        } else {\r\n            ERC20(loan.principalToken).transferFrom(\r\n                _msgSender(),\r\n                address(this),\r\n                repaymentPrincipalAmount\r\n            );\r\n        }\r\n\r\n        /* transfer collateral */\r\n        if (loan.collateralToken == nativeAddress) {\r\n            payable(_msgSender()).transfer(collateralAmount);\r\n        } else {\r\n            ERC20(loan.collateralToken).transfer(\r\n                _msgSender(),\r\n                collateralAmount\r\n            );\r\n        }\r\n\r\n        // update activity\r\n        uint256 interestPaidInUSD = _priceFeed.amountInUSD(\r\n            loan.principalToken,\r\n            (repaymentPrincipalAmount - principalAmount)\r\n        );\r\n\r\n        uint256 amountPaidInUSD = _priceFeed.amountInUSD(\r\n            loan.principalToken,\r\n            principalAmount\r\n        );\r\n\r\n        _activity._repayLoan(\r\n            _msgSender(),\r\n            amountPaidInUSD,\r\n            interestPaidInUSD,\r\n            completed\r\n        );\r\n    }\r\n\r\n    function repayLiquidatedLoan(uint256 loanId) public payable {}\r\n\r\n    function setLTV(address ltv_) public onlyOwner {\r\n        _ltv = ILoanToValueRatio(ltv_);\r\n    }\r\n\r\n    function setActivity(address activity_) public onlyOwner {\r\n        _activity = Activity(activity_);\r\n    }\r\n\r\n    function setPriceFeed(address priceFeed_) public onlyOwner {\r\n        _priceFeed = IPriceFeed(priceFeed_);\r\n    }\r\n\r\n    function changeOwner(address newOwner) public onlyOwner {\r\n        deployer = newOwner;\r\n    }\r\n\r\n    function _checkPercentage(uint16 percentage) private pure {\r\n        // percentage must be 25, 50, 75 or 100\r\n        require(percentage <= 100, \"OVER_PERCENTAGE\");\r\n        require(percentage % 25 == 0, \"ERR_PERCENTAGE\");\r\n    }\r\n\r\n    modifier onlyOwner() {\r\n        require(_msgSender() == deployer, \"ERR_ONLY_OWNER\");\r\n        _;\r\n    }\r\n}\r\n",
  "sourcePath": "C:\\Users\\DELL\\Documents\\darsh\\smart-contracts\\contracts\\LendingPool.sol",
  "compiler": {
    "name": "solc",
    "version": "0.8.17+commit.8df45f5f.Emscripten.clang"
  },
  "schemaVersion": "3.4.11",
  "updatedAt": "2023-02-13T12:08:09.552Z",
  "devdoc": {
    "kind": "dev",
    "methods": {},
    "version": 1
  },
  "userdoc": {
    "kind": "user",
    "methods": {},
    "version": 1
  }
}