{
  "contractName": "LendingPool",
  "abi": [
    {
      "inputs": [
        {
          "internalType": "address",
          "name": "activity_",
          "type": "address"
        },
        {
          "internalType": "address",
          "name": "poolManager_",
          "type": "address"
        },
        {
          "internalType": "address",
          "name": "loanManager_",
          "type": "address"
        },
        {
          "internalType": "address",
          "name": "offerManager_",
          "type": "address"
        }
      ],
      "stateMutability": "nonpayable",
      "type": "constructor"
    },
    {
      "inputs": [],
      "name": "INTEREST_RATE_DENOMINATOR",
      "outputs": [
        {
          "internalType": "uint256",
          "name": "",
          "type": "uint256"
        }
      ],
      "stateMutability": "view",
      "type": "function"
    },
    {
      "inputs": [
        {
          "internalType": "uint256",
          "name": "principal",
          "type": "uint256"
        },
        {
          "internalType": "uint256",
          "name": "durationSecs",
          "type": "uint256"
        },
        {
          "internalType": "uint256",
          "name": "interest",
          "type": "uint256"
        }
      ],
      "name": "getFullInterestAmount",
      "outputs": [
        {
          "internalType": "uint256",
          "name": "",
          "type": "uint256"
        }
      ],
      "stateMutability": "pure",
      "type": "function"
    },
    {
      "inputs": [],
      "name": "nativeAddress",
      "outputs": [
        {
          "internalType": "address",
          "name": "",
          "type": "address"
        }
      ],
      "stateMutability": "view",
      "type": "function"
    },
    {
      "inputs": [
        {
          "internalType": "uint256",
          "name": "total",
          "type": "uint256"
        },
        {
          "internalType": "uint16",
          "name": "percent",
          "type": "uint16"
        }
      ],
      "name": "percentageInverseOf",
      "outputs": [
        {
          "internalType": "uint256",
          "name": "",
          "type": "uint256"
        }
      ],
      "stateMutability": "pure",
      "type": "function"
    },
    {
      "inputs": [
        {
          "internalType": "uint256",
          "name": "total",
          "type": "uint256"
        },
        {
          "internalType": "uint16",
          "name": "percent",
          "type": "uint16"
        }
      ],
      "name": "percentageOf",
      "outputs": [
        {
          "internalType": "uint256",
          "name": "",
          "type": "uint256"
        }
      ],
      "stateMutability": "pure",
      "type": "function"
    },
    {
      "inputs": [
        {
          "internalType": "uint256",
          "name": "principalAmount_",
          "type": "uint256"
        },
        {
          "internalType": "address",
          "name": "principalToken",
          "type": "address"
        },
        {
          "internalType": "address[]",
          "name": "collateralTypes",
          "type": "address[]"
        },
        {
          "internalType": "uint256",
          "name": "daysToMaturity",
          "type": "uint256"
        },
        {
          "internalType": "uint256",
          "name": "interest",
          "type": "uint256"
        },
        {
          "internalType": "uint256",
          "name": "daysToExpire",
          "type": "uint256"
        }
      ],
      "name": "createLendingOffer",
      "outputs": [],
      "stateMutability": "payable",
      "type": "function"
    },
    {
      "inputs": [
        {
          "internalType": "uint256",
          "name": "offerId",
          "type": "uint256"
        },
        {
          "internalType": "uint16",
          "name": "desiredPercentage",
          "type": "uint16"
        }
      ],
      "name": "acceptBorrowingOffer",
      "outputs": [],
      "stateMutability": "payable",
      "type": "function"
    },
    {
      "inputs": [
        {
          "internalType": "uint256",
          "name": "requestId",
          "type": "uint256"
        }
      ],
      "name": "acceptBorrowingRequest",
      "outputs": [],
      "stateMutability": "payable",
      "type": "function"
    },
    {
      "inputs": [
        {
          "internalType": "address",
          "name": "principalToken",
          "type": "address"
        },
        {
          "internalType": "address",
          "name": "collateralToken",
          "type": "address"
        },
        {
          "internalType": "uint256",
          "name": "collateralAmount_",
          "type": "uint256"
        },
        {
          "internalType": "uint256",
          "name": "interest",
          "type": "uint256"
        },
        {
          "internalType": "uint256",
          "name": "daysToMaturity",
          "type": "uint256"
        },
        {
          "internalType": "uint256",
          "name": "daysToExpire",
          "type": "uint256"
        }
      ],
      "name": "createBorrowingOffer",
      "outputs": [],
      "stateMutability": "payable",
      "type": "function"
    },
    {
      "inputs": [
        {
          "internalType": "uint256",
          "name": "offerId",
          "type": "uint256"
        },
        {
          "internalType": "uint16",
          "name": "desiredPercentage",
          "type": "uint16"
        },
        {
          "internalType": "address",
          "name": "collateralToken",
          "type": "address"
        }
      ],
      "name": "acceptLendingOffer",
      "outputs": [],
      "stateMutability": "payable",
      "type": "function"
    },
    {
      "inputs": [
        {
          "internalType": "uint256",
          "name": "requestId",
          "type": "uint256"
        }
      ],
      "name": "acceptLendingRequest",
      "outputs": [],
      "stateMutability": "payable",
      "type": "function"
    },
    {
      "inputs": [
        {
          "internalType": "uint256",
          "name": "loanId",
          "type": "uint256"
        }
      ],
      "name": "repayLoan",
      "outputs": [],
      "stateMutability": "payable",
      "type": "function"
    },
    {
      "inputs": [
        {
          "internalType": "uint256",
          "name": "loanId",
          "type": "uint256"
        }
      ],
      "name": "repayLiquidatedLoan",
      "outputs": [],
      "stateMutability": "payable",
      "type": "function"
    },
    {
      "inputs": [
        {
          "internalType": "address",
          "name": "priceFeed_",
          "type": "address"
        }
      ],
      "name": "setPriceFeed",
      "outputs": [],
      "stateMutability": "nonpayable",
      "type": "function"
    },
    {
      "inputs": [
        {
          "internalType": "address",
          "name": "newOwner",
          "type": "address"
        }
      ],
      "name": "changeOwner",
      "outputs": [],
      "stateMutability": "nonpayable",
      "type": "function"
    }
  ],
  "bytecode": "0x608034620000d557601f62002b7338819003918201601f19168301916001600160401b03831184841017620000da57808492608094604052833981010312620000d5576200004d81620000f0565b906200005c60208201620000f0565b6200007860606200007060408501620000f0565b9301620000f0565b90600160005560018060a01b03928380928160018060a01b0319971687600254161760025516856005541617600555168360065416176006551681600754161760075533906001541617600155604051612a6d9081620001068239f35b600080fd5b634e487b7160e01b600052604160045260246000fd5b51906001600160a01b0382168203620000d55756fe608080604052600436101561001357600080fd5b600060e0918135831c9081632e47633714612200575080634add7c8214611d1b5780635c7f31aa146118c257806361ba94431461182c578063724e78da146117dc5780639389ccad146117b55780639f0a55dc1461178e578063a33928da146112f4578063a49dd9b514611009578063a6f9dae114610fbb578063ab7b1c8914610cd9578063b9610db4146108f0578063cc3266e8146108cd578063e0f7dffd146108a05763e826fbe7146100c757600080fd5b606036600319011261046d576100db61225a565b9160449081356001600160a01b03811691908290036104ac5760075460405163ab64a18560e01b8152600480359082015291908590839060249082906001600160a01b03165afa91821561050b578592610878575b50810151610148906001600160a01b03164210612443565b61016861ffff60198188166101606064821115612483565b0616156124c1565b8394845b60c0830151805182101561086d57600582901b01602001516001600160a01b031684146101b85760001981146101a45760010161016c565b634e487b7160e01b86526011600452602486fd5b50909192945060015b15610829576101d49060608301516129e6565b91604082015183116107e5576024602060018060a01b0360045416604051928380926356512fcd60e11b82523360048301525afa801561050b5785906107aa575b600354602085810151604051631c07d98160e21b81526001600160a01b0391821660048201528a35821660248201526044810189905294509091849116818981606481015b03925af1801561073c578690610776575b61027592506129e6565b60048054604051636882509b60e11b81529160209183919082906001600160a01b03165afa90811561073c576102b8929160ff918891610747575b501690612769565b9073eeeeeeeeeeeeeeeeeeeeeeeeeeeeeeeeeeeeeeee908181036106cd5750348210610691575b60208301516001600160a01b031690810361052057509383948480858015610516575b8280929181923390f1156104cd575b602060018060a01b03600654169160018060a01b03828601511692868860808801519561037060a08a01518960018060a01b036101208d015116916040519a8b998a988997631c57bf7160e21b89523395359060043560048b016124fe565b03925af1801561050b576104dc575b506007546001600160a01b031690813b156104d857849182916040518094819363f094cb9560e01b835260043560048401528860248401525af19081156104cd5784916104b9575b505060035460209182015160405163912d228f60e01b81526001600160a01b0391821660048201526024810194909452839160449183918791165af190811561047057829161047f575b506002546001600160a01b0316803b1561047b576040516311eba9df60e21b8152336004820152602481019290925282908290818381604481015b03925af180156104705761045d5750f35b6104669061226b565b61046d5780f35b80fd5b6040513d84823e3d90fd5b5050fd5b9150506020813d6020116104b1575b8161049b6020938361227f565b810103126104ac5781905138610411565b600080fd5b3d915061048e565b6104c29061226b565b61047b5782386103c7565b6040513d86823e3d90fd5b8480fd5b6020809295503d8311610504575b6104f4818361227f565b810103126104ac5783923861037f565b503d6104ea565b6040513d87823e3d90fd5b6108fc9150610302565b60405163a9059cbb60e01b60208201523360248201526044808201869052815261054b60648261227f565b6040519081604081011067ffffffffffffffff60408401111761066e5786809160408401604052602084527f5361666545524332303a206c6f772d6c6576656c2063616c6c206661696c6564602085015260208151910182865af13d15610684573d9067ffffffffffffffff821161066e576105e793604051926105d96020601f19601f840116018561227f565b83523d89602085013e612789565b8051806105f9575b5050938394610311565b9060208061060b9383010191016122b9565b156106175738806105ef565b60405162461bcd60e51b815260206004820152602a60248201527f5361666545524332303a204552433230206f7065726174696f6e20646964206e81870152691bdd081cdd58d8d9595960b21b6064820152608490fd5b634e487b7160e01b600052604160045260246000fd5b916105e792606091612789565b60405162461bcd60e51b815260206004820152601560248201527411549497d0d3d31310551154905317d05353d55395605a1b81880152606490fd5b6040516323b872dd60e01b81523360048201523060248201526044810184905290602090829060649082908a905af1801561073c5761070d575b506102df565b61072e9060203d602011610735575b610726818361227f565b8101906122b9565b5038610707565b503d61071c565b6040513d88823e3d90fd5b610769915060203d60201161076f575b610761818361227f565b810190612750565b386102b0565b503d610757565b506020823d6020116107a2575b816107906020938361227f565b810103126104ac57610275915161026b565b3d9150610783565b506020813d6020116107dd575b816107c46020938361227f565b810103126104d8576107d861025a91612741565b610215565b3d91506107b7565b60405162461bcd60e51b815260206004820152601760248201527f4552525f494e53554646494349454e545f414d4f554e5400000000000000000081870152606490fd5b60405162461bcd60e51b815260206004820152601c60248201527f4552525f434f4c4c41544552414c5f4e4f545f535550504f525445440000000081870152606490fd5b5050909192946101c1565b610148919250610899903d8088833e610891818361227f565b8101906125e1565b9190610130565b503461046d57606036600319011261046d5760206108c56044356024356004356129bc565b604051908152f35b503461046d578060031936011261046d576020604051670de0b6b3a76400008152f35b5060c036600319011261046d578061090661222e565b61090e612244565b6001600160a01b03908082169060443573eeeeeeeeeeeeeeeeeeeeeeeeeeeeeeeeeeeeeeee8303610c72575034915b83600454169460405180966356512fcd60e11b82523360048301528160246020998a935afa908115610c67578891610c2e575b50600354604051631c07d98160e21b81526001600160a01b0386811660048301528416602482015260448101879052908890829060649082908d908c165af1908115610bd2578991610bfa575b506004916109ca91612a05565b878783541660405193848092636882509b60e11b82525afa918215610bd2576109fe9260ff918b91610bdd57501690612769565b600554604051638340f54960e01b81523360048201526001600160a01b038616602482015260448101879052908890829060649082908d908c165af1928315610bd257898893610a5a8b96610104958491610bb5575b506122d1565b8460075416906040519788968795637789f19f60e01b875216600486015260248501528960448501526064840152606435608484015260843560a484015260a43560c48401523360e48401525af190811561073c578691610b80575b50918491610ac8610b0394151561231d565b60035460405163912d228f60e01b81526001600160a01b03909216600483015260248201929092529283918516908290889082906044820190565b03925af19283156104cd578493610b4d575b505060025416803b1561047b5760405163094f618d60e11b81523360048201526024810192909252829082908183816044810161044c565b819450809293503d8311610b79575b610b66818361227f565b810103126104ac57829151908480610b15565b503d610b5c565b8092939650858092503d8311610bae575b610b9b818361227f565b810103126104ac57518594919084610ab6565b503d610b91565b610bcc9150883d8a1161073557610726818361227f565b8f610a54565b6040513d8b823e3d90fd5b610bf491508a3d8c1161076f57610761818361227f565b8c6102b0565b809950888092503d8311610c27575b610c13818361227f565b810103126104ac57965188979060046109bd565b503d610c09565b90508681813d8311610c60575b610c45818361227f565b81010312610c5c57610c5690612741565b89610970565b8780fd5b503d610c3b565b6040513d8a823e3d90fd5b6040516323b872dd60e01b8152336004820152306024820152604481018290529092906020816064818a865af18015610cce57610cb0575b5061093d565b610cc79060203d811161073557610726818361227f565b5087610caa565b6040513d89823e3d90fd5b506020908160031936011261046d57600654604051632820036560e11b8152600480359082018190526001600160a01b03928316946101e0939092602490858183818b5afa958615610cce578796610f8c575b5050816101a0860151163303610f5657838501516003811015610f4357610f0a5781610140860151164203428111610ef757869787969792610d7b879360c08b0151906101208c0151916129bc565b9560405194859384926387d709b760e01b845260048401525af1801561050b57610eda575b508060608601511691848473eeeeeeeeeeeeeeeeeeeeeeeeeeeeeeeeeeeeeeee94858114600014610e80575050503410610e7c575b608085015116908103610e15575050808061010081940151818115610e0c575b3390f115610e005780f35b604051903d90823e3d90fd5b506108fc610df5565b610100939093015160405163a9059cbb60e01b8152336004820152602481019190915290929091839183916044918391905af18015610e7157610e5757505080f35b81610e6d92903d1061073557610726818361227f565b5080f35b6040513d85823e3d90fd5b8380fd5b6040516323b872dd60e01b815233600482015230602482015260448101949094529091839160649183915af1801561050b57610ebd575b50610dd5565b610ed390843d861161073557610726818361227f565b5086610eb7565b610ef090843d861161073557610726818361227f565b5086610da0565b50634e487b7160e01b8652601160045285fd5b8360136064926040519262461bcd60e51b84526004840152820152724552525f4c4f414e5f4e4f545f41435449564560681b6044820152fd5b50634e487b7160e01b8652602160045285fd5b8360106064926040519262461bcd60e51b845260048401528201526f22a9292fa727aa2fa127a92927aba2a960811b6044820152fd5b610fac929650803d10610fb4575b610fa4818361227f565b81019061285d565b938780610d2c565b503d610f9a565b503461046d57602036600319011261046d57610fd561222e565b600154906001600160a01b0390610fef3383851614612956565b16906bffffffffffffffffffffffff60a01b161760015580f35b509060c03660031901126112f057600435611022612244565b916044359167ffffffffffffffff83116104d857366023840112156104d857826004013590611050826122a1565b61105d604051918261227f565b8281526020948582016024819560051b830101913683116112ec57602401905b8282106112cd57505050805115611288576001600160a01b038681169290919073eeeeeeeeeeeeeeeeeeeeeeeeeeeeeeeeeeeeeeee840361121b5750611102863480995b600554604051638340f54960e01b81523360048201526001600160a01b039092166024830152604482019290925292839186169082908d9082906064820190565b03925af18015610bd257611127918a916111fe575b50938993918897999693956122d1565b816007541694604051998a9763dbaf4f7f60e01b895260e489019360048a015260248901526084356044890152606435606489015260a435608489015260a4880152518091526101048601929184905b8282106111dd5750505050908380923360c483015203925af1908115610e715783916111ad575b836111aa83151561231d565b80f35b905081813d83116111d6575b6111c3818361227f565b810103126104ac576111aa90513861119e565b503d6111b9565b83518116855289988b98508c96509485019490930192600190910190611177565b6112159150883d8a1161073557610726818361227f565b38611117565b6040516323b872dd60e01b81523360048201523060248201526044810182905290979087816064818d895af1801561127d576111029289928b92611260575b506110c1565b61127690843d861161073557610726818361227f565b503861125a565b6040513d8c823e3d90fd5b60405162461bcd60e51b815260048101869052601760248201527f4552525f4e4f5f434f4c4c41544552414c5f54595045530000000000000000006044820152606490fd5b81356001600160a01b03811681036104ac57815290870190870161107d565b8980fd5b5080fd5b509060403660031901126112f0576004359061130e61225a565b9060018060a01b038060075416604051809163bf1e609760e01b82528660048301528160246101809485935afa918215610cce578792611761575b505061135d82610120830151164210612443565b6101608101938285511633146117265761138561ffff60198184166101606064821115612483565b6113a16113968260808501516129e6565b9160c08401516129e6565b91816060820151101580611718575b156116d4578796602095868301928684511673eeeeeeeeeeeeeeeeeeeeeeeeeeeeeeeeeeeeeeee811460001461160157508534106112ec5789808080898b8e51168282156115f8575bf115610bd2578861014489925b8c8a600654168251928c8a5116958d610100816040850151169a84015193015191511691604051998a988997631c57bf7160e21b8952600489015260016024890152604488015260648701528d60848701528c60a487015260c486015260e4850152610104840152336101248401525af1908115610bd25789916115c4575b50611491901515612553565b846007541692833b156115c0576040516324b42bc160e01b815260048101929092526024820185905260448201529187908390606490829084905af18015610cce57859288916115a3575b5050600354905160405163912d228f60e01b81529085166001600160a01b031660048201526024810193909352829084168188816044810103925af192831561050b578593611570575b5050806002541692511690823b1561156b576040516311eba9df60e21b81526001600160a01b039092166004830152602482015290829082908183816044810161044c565b505050fd5b819550809293503d831161159c575b611589818361227f565b810103126104ac57839251903880611526565b503d61157f565b6115af9192935061226b565b6115bc57839086386114dc565b8580fd5b8880fd5b809950878092503d83116115f1575b6115dd818361227f565b810103126104ac5761149189985190611485565b503d6115d3565b506108fc6113f9565b6040516323b872dd60e01b815233600482015230602482015260448101889052908990829060649082908f905af180156116ac576116b7575b508351895160405163a9059cbb60e01b81529089166001600160a01b031660048201526024810188905290899082908a16818e816044810103925af180156116ac5789928b926101449261168f575b50611406565b6116a590853d871161073557610726818361227f565b5038611689565b6040513d8d823e3d90fd5b6116cd90893d8b1161073557610726818361227f565b503861163a565b606460405162461bcd60e51b815260206004820152602060248201527f4552525f434f4c4c41544552414c5f5052494e434950414c5f42414c414e43456044820152fd5b508260a082015110156113b0565b60405162461bcd60e51b815260206004820152601360248201527222a9292fa1a0a72a2fa127a92927abafa7aba760691b6044820152606490fd5b6117809250803d10611787575b611778818361227f565b81019061237d565b3880611349565b503d61176e565b503461046d57604036600319011261046d5760206108c56117ad61225a565b6004356129e6565b503461046d57604036600319011261046d5760206108c56117d461225a565b600435612a05565b503461046d57602036600319011261046d576117f661222e565b6001546001600160a01b0391906118109083163314612956565b166bffffffffffffffffffffffff60a01b600354161760035580f35b50602036600319011261046d57600654604051632820036560e11b815260048035908201526101e0918290829060249082906001600160a01b03165afa908115610e715760209284926118a5575b5050015160038110156118915760020361046d5780f35b634e487b7160e01b82526021600452602482fd5b6118bb9250803d10610fb457610fa4818361227f565b838061187a565b506020806003193601126112f0576007546040516314c7eb4960e01b815260048035908201526001600160a01b039182166101208083602481855afa92831561073c578693611c70575b505061191d60a0830151421061259f565b6101008201805160405192839163bf1e609760e01b835260048301528160246101809586935afa928315610cce578793611c51575b505083610160830151163303611c185785966080830151906119916060860161198261ffff9485835116906129e6565b9360c0870151915116906129e6565b94826060860151101580611c0a575b6119a990612703565b8785019389898987511673eeeeeeeeeeeeeeeeeeeeeeeeeeeeeeeeeeeeeeee8114600014611ba757505080888015611b9d575b8280929181923390f115610bd257878a87611a378c96898c975b8660408180600654169a5194511696015116968a82015193608083015192015116926040519b8c9a8b998a98631c57bf7160e21b8a52339660048b016124fe565b03925af1908115610cce578791611b69575b50611a55901515612553565b83600754169151823b15611b6557869260448492604051958693849263f094cb9560e01b845260048401528860248401525af1801561073c5785928791611b4c575b5050600354905160405163912d228f60e01b81529085166001600160a01b031660048201526024810193909352829084168187816044810103925af19283156104cd578493611b19575b505060025416803b1561047b576040516311eba9df60e21b81523360048201526024810192909252829082908183816044810161044c565b819450809293503d8311611b45575b611b32818361227f565b810103126104ac57829151903880611ae1565b503d611b28565b611b589192935061226b565b6104d85783908538611a97565b8680fd5b809750868092503d8311611b96575b611b82818361227f565b810103126104ac57611a5587965190611a49565b503d611b78565b6108fc91506119dc565b60405163a9059cbb60e01b8152336004820152602481018b9052949592859160449183915af180156116ac5787611a378b93898f94988f99988e99611bed575b506119f6565b611c03908b3d8d1161073557610726818361227f565b5038611be7565b5060a08501518611156119a0565b60405162461bcd60e51b815260048101869052601160248201527022a9292fa7a7262cafa127a92927aba2a960791b6044820152606490fd5b611c68929350803d1061178757611778818361227f565b903880611952565b908092935081813d8311611d14575b611c89818361227f565b810103126115bc5760405191820182811067ffffffffffffffff82111761066e5760405280518252848101518583015260408101516040830152611ccf60608201612741565b60608301526080810151608083015260a081015160a083015260c081015160c0830152611cfd878201612369565b87830152610100809101519082015290388061190c565b503d611c7f565b50602036600319011261046d57600754604051632a3884d760e21b815260048035908201526001600160a01b03918216939190610140908181602481895afa93841561050b578594612132575b505050611d7a60c0830151421061259f565b61012093838584015160246040518094819363ab64a18560e01b835260048301525afa9081156104cd578491612118575b5081858201511633036120e157604081015194611dcf606085019687511115612703565b848360208401511673eeeeeeeeeeeeeeeeeeeeeeeeeeeeeeeeeeeeeeee811460001461201357505085518034106115bc578580808093876101008a01511682821561200a575bf1156104cd575b82600654166020828601519185828601511690868389015116898b5193611e7560408c01519760808d01518d8d61010060a083015192015116916040519b8c9a8b998a98631c57bf7160e21b8a52339760048b016124fe565b03925af1801561073c578690611fd6575b611e9291501515612553565b826007541690840151908651604086015192823b15610c5c576040516324b42bc160e01b815260048101919091526024810191909152604481019290925285908290606490829084905af1801561050b57611fbc575b50600354602091820151955160405163912d228f60e01b81529684166001600160a01b031660048801526024870152939485949092919083908316818781604481015b03925af19182156104cd578492611f85575b5061010081600254169301511690823b1561156b576040516311eba9df60e21b81526001600160a01b039092166004830152602482015290829082908183816044810161044c565b935090506020833d602011611fb4575b81611fa26020938361227f565b810103126104ac578392519038611f3d565b3d9150611f95565b611f2b929194611fcd60209261226b565b94919250611ee8565b506020813d602011612002575b81611ff06020938361227f565b810103126115bc57611e929051611e86565b3d9150611fe3565b506108fc611e15565b87516040516323b872dd60e01b815233600482015230602482015260448101919091529160209183916064918391905af1801561073c576120c2575b50602082810151610100860151885160405163a9059cbb60e01b81529187166001600160a01b0316600483015260248201529190829086168189816044810103925af1801561073c576120a3575b50611e1c565b6120bb9060203d60201161073557610726818361227f565b503861209d565b6120da9060203d60201161073557610726818361227f565b503861204f565b60405162461bcd60e51b815260206004820152600f60248201526e22a9292fa7a7262cafa622a72222a960891b6044820152606490fd5b61212c91503d8086833e610891818361227f565b38611dab565b90918093945082813d83116121f9575b61214c818361227f565b810103126104d85760405192830183811067ffffffffffffffff8211176121e5576040528151835261218060208301612369565b602084015260408201516040840152606082015160608401526080820151608084015260a082015160a084015260c082015160c084015280820151908301526101006121cd818301612369565b90830152610120809101519082015290388080611d68565b634e487b7160e01b86526041600452602486fd5b503d612142565b9050346112f057816003193601126112f0578073eeeeeeeeeeeeeeeeeeeeeeeeeeeeeeeeeeeeeeee60209252f35b600435906001600160a01b03821682036104ac57565b602435906001600160a01b03821682036104ac57565b6024359061ffff821682036104ac57565b67ffffffffffffffff811161066e57604052565b90601f8019910116810190811067ffffffffffffffff82111761066e57604052565b67ffffffffffffffff811161066e5760051b60200190565b908160209103126104ac575180151581036104ac5790565b156122d857565b60405162461bcd60e51b815260206004820152601860248201527f4552525f504f4f4c5f4d414e414745525f4445504f53495400000000000000006044820152606490fd5b1561232457565b60405162461bcd60e51b815260206004820152601860248201527f4552525f4f464645525f4d414e414745525f43524541544500000000000000006044820152606490fd5b51906001600160a01b03821682036104ac57565b809161018092839103126104ac5760405191820182811067ffffffffffffffff82111761066e57604052805182526123b760208201612369565b60208301526123c860408201612369565b6040830152606081015160608301526080810151608083015260a081015160a083015260c081015160c083015260e081015160e08301526101008082015190830152610120612418818301612369565b9083015261014061242a818301612369565b9083015261243c610160809201612369565b9082015290565b1561244a57565b60405162461bcd60e51b815260206004820152601160248201527011549497d3d191915497d1561412549151607a1b6044820152606490fd5b1561248a57565b60405162461bcd60e51b815260206004820152600f60248201526e4f5645525f50455243454e5441474560881b6044820152606490fd5b156124c857565b60405162461bcd60e51b815260206004820152600e60248201526d4552525f50455243454e5441474560901b6044820152606490fd5b979295909998946101209792946101408a019b8a52600060208b015260018060a01b0380988180981660408d01521660608b015260808a015260a089015260c088015260e08701521661010085015216910152565b1561255a57565b60405162461bcd60e51b815260206004820152601760248201527f4552525f4c4f414e5f4d414e414745525f4352454154450000000000000000006044820152606490fd5b156125a657565b60405162461bcd60e51b815260206004820152601360248201527211549497d49154555154d517d1561412549151606a1b6044820152606490fd5b9060209081838203126104ac57825167ffffffffffffffff938482116104ac5701916101409384848403126104ac576040519485018581108282111761066e5760405283518552612633828501612369565b8286015260408401516040860152606084015160608601526080840151608086015260a084015160a086015260c08401519081116104ac5783019180601f840112156104ac578251612684816122a1565b93612692604051958661227f565b818552838086019260051b8201019283116104ac578301905b8282106126ec575050505060c08301526126c760e08201612369565b60e08301526101006126da818301612369565b9083015261243c610120809201612369565b8380916126f884612369565b8152019101906126ab565b1561270a57565b60405162461bcd60e51b815260206004820152600f60248201526e11549497d25394d5519250d2515395608a1b6044820152606490fd5b519061ffff821682036104ac57565b908160209103126104ac575160ff811681036104ac5790565b8115612773570490565b634e487b7160e01b600052601260045260246000fd5b919290156127eb575081511561279d575090565b3b156127a65790565b60405162461bcd60e51b815260206004820152601d60248201527f416464726573733a2063616c6c20746f206e6f6e2d636f6e74726163740000006044820152606490fd5b8251909150156127fe5750805190602001fd5b6040519062461bcd60e51b82528160208060048301528251908160248401526000935b828510612844575050604492506000838284010152601f80199101168101030190fd5b8481018201518686016044015293810193859350612821565b80916101e092839103126104ac5760405191820182811067ffffffffffffffff82111761066e5760405280518252602081015160038110156104ac576020830152604081015160028110156104ac5760408301526128bd60608201612369565b60608301526128ce60808201612369565b608083015260a081015160a083015260c081015160c083015260e081015160e083015261010080820151908301526101208082015190830152610140612915818301612369565b90830152610160612927818301612369565b9083015261018080820151908301526101a0612944818301612369565b9083015261243c6101c0809201612369565b1561295d57565b60405162461bcd60e51b815260206004820152600e60248201526d22a9292fa7a7262cafa7aba722a960911b6044820152606490fd5b818102929181159184041417156129a657565b634e487b7160e01b600052601160045260246000fd5b91670de0b6b3a7640000916129d46129d99285612993565b612993565b0481018091116129a65790565b9061ffff168015612a01576129fd90606492612993565b0490565b5090565b9061ffff809116606481106104ac57606319018181116129a65781166064039081116129a657612a34916129e6565b9056fea264697066735822122017bba282577274be4afc17703f8978a8203dcdd76ea9d723bf8eda50945fa8a064736f6c63430008110033",
  "immutableReferences": {},
  "source": "// SPDX-License-Identifier: GPL-3.0\r\npragma solidity >=0.7.0 <0.9.0;\r\n\r\nimport \"./Activity.sol\";\r\n\r\nimport \"./libraries/Errors.sol\";\r\nimport \"./libraries/AssetLibrary.sol\";\r\n\r\nimport \"./math/SimpleInterest.sol\";\r\n\r\nimport \"./interfaces/IPriceFeed.sol\";\r\nimport \"./interfaces/ILoanToValueRatio.sol\";\r\n\r\nimport \"./managers/LoanManager.sol\";\r\nimport \"./managers/OfferManager.sol\";\r\nimport \"./managers/PoolManager.sol\";\r\n\r\nimport \"@openzeppelin/contracts/utils/Context.sol\";\r\nimport \"@openzeppelin/contracts/utils/math/SafeMath.sol\";\r\nimport \"@openzeppelin/contracts/token/ERC20/utils/SafeERC20.sol\";\r\nimport \"@openzeppelin/contracts/token/ERC20/ERC20.sol\";\r\nimport \"@openzeppelin/contracts/security/ReentrancyGuard.sol\";\r\n\r\ncontract LendingPool is Context, ReentrancyGuard, SimpleInterest {\r\n    using SafeMath for uint256;\r\n    using SafeERC20 for ERC20;\r\n\r\n    address deployer;\r\n\r\n    Activity private _activity;\r\n    IPriceFeed private _priceFeed;\r\n    ILoanToValueRatio private _ltv;\r\n\r\n    // managers\r\n    PoolManager private _poolManager;\r\n    LoanManager private _loanManager;\r\n    OfferManager private _offerManager;\r\n\r\n    address public constant nativeAddress =\r\n        0xEeeeeEeeeEeEeeEeEeEeeEEEeeeeEeeeeeeeEEeE;\r\n\r\n    constructor(\r\n        address activity_,\r\n        address poolManager_,\r\n        address loanManager_,\r\n        address offerManager_\r\n    ) ReentrancyGuard() {\r\n        _activity = Activity(activity_);\r\n        _poolManager = PoolManager(poolManager_);\r\n        _loanManager = LoanManager(loanManager_);\r\n        _offerManager = OfferManager(offerManager_);\r\n\r\n        deployer = _msgSender();\r\n    }\r\n\r\n    // @lenders\r\n    function createLendingOffer(\r\n        uint256 principalAmount_, // only for ERC20 assets\r\n        address principalToken,\r\n        address[] memory collateralTypes,\r\n        uint256 daysToMaturity,\r\n        uint256 interest,\r\n        uint256 daysToExpire\r\n    ) public payable {\r\n        uint256 principalAmount;\r\n\r\n        require(collateralTypes.length > 0, \"ERR_NO_COLLATERAL_TYPES\");\r\n\r\n        /* extract tokens from lender */\r\n        if (principalToken == nativeAddress) {\r\n            principalAmount = msg.value;\r\n        } else {\r\n            principalAmount = principalAmount_;\r\n            ERC20(principalToken).transferFrom(\r\n                _msgSender(),\r\n                address(this),\r\n                principalAmount\r\n            );\r\n        }\r\n\r\n        /* record principal to pool manager */\r\n        require(\r\n            _poolManager.deposit(_msgSender(), principalToken, principalAmount),\r\n            \"ERR_POOL_MANAGER_DEPOSIT\"\r\n        );\r\n\r\n        /* create the lending offer */\r\n        require(\r\n            _offerManager.createLendingOffer(\r\n                principalToken,\r\n                principalAmount,\r\n                interest,\r\n                daysToMaturity,\r\n                daysToExpire,\r\n                collateralTypes,\r\n                _msgSender()\r\n            ) > 0,\r\n            \"ERR_OFFER_MANAGER_CREATE\"\r\n        );\r\n    }\r\n\r\n    // @lenders\r\n    function acceptBorrowingOffer(uint256 offerId, uint16 desiredPercentage)\r\n        public\r\n        payable\r\n    {\r\n        OfferLibrary.BorrowingOffer memory offer = _offerManager\r\n            .getBorrowingOffer(offerId);\r\n\r\n        // platform safety\r\n        require(offer.expiresAt > block.timestamp, \"ERR_OFFER_EXPIRED\");\r\n        require(_msgSender() != offer.borrower, \"ERR_CANT_BORROW_OWN\");\r\n\r\n        // percentage must be 25, 50, 75 or 100\r\n        require(desiredPercentage <= 100, \"OVER_PERCENTAGE\");\r\n        require(desiredPercentage % 25 == 0, \"ERR_PERCENTAGE\");\r\n\r\n        uint256 collateralAmount = percentageOf(\r\n            offer.initialCollateral,\r\n            desiredPercentage\r\n        );\r\n\r\n        uint256 principalAmount = percentageOf(\r\n            offer.initialPrincipal,\r\n            desiredPercentage\r\n        );\r\n\r\n        // verify if the remain offer amounts are enough\r\n        require(\r\n            offer.currentCollateral >= collateralAmount &&\r\n                offer.currentPrincipal >= principalAmount,\r\n            \"ERR_COLLATERAL_PRINCIPAL_BALANCE\"\r\n        );\r\n\r\n        /* extract principal from lender/caller and transfer to borrower */\r\n        if (offer.principalToken == nativeAddress) {\r\n            require(msg.value >= principalAmount);\r\n            payable(offer.borrower).transfer(principalAmount);\r\n        } else {\r\n            ERC20(offer.principalToken).transferFrom(\r\n                _msgSender(),\r\n                address(this),\r\n                principalAmount\r\n            );\r\n            ERC20(offer.principalToken).transfer(\r\n                offer.borrower,\r\n                principalAmount\r\n            );\r\n        }\r\n\r\n        /* register the loan from the loan manager */\r\n        require(\r\n            _loanManager.createLoan(\r\n                offer.offerId,\r\n                OfferLibrary.Type.BORROWING_OFFER,\r\n                offer.principalToken,\r\n                offer.collateralToken,\r\n                principalAmount,\r\n                collateralAmount,\r\n                offer.interest,\r\n                offer.daysToMaturity,\r\n                offer.borrower,\r\n                _msgSender()\r\n            ) > 0,\r\n            \"ERR_LOAN_MANAGER_CREATE\"\r\n        );\r\n\r\n        _offerManager._afterOfferBorrowingLoan(\r\n            offerId,\r\n            principalAmount,\r\n            collateralAmount\r\n        );\r\n        uint256 borrowedAmountInUSD = _priceFeed.amountInUSD(\r\n            offer.principalToken,\r\n            principalAmount\r\n        );\r\n        _activity._borrowLoan(offer.borrower, borrowedAmountInUSD);\r\n    }\r\n\r\n    // @lenders\r\n    function acceptBorrowingRequest(uint256 requestId) public payable {\r\n        RequestLibrary.BorrowingRequest memory request = _offerManager\r\n            .getBorrowingRequest(requestId);\r\n\r\n        require(request.expiresAt > block.timestamp, \"ERR_REQUEST_EXPIRED\");\r\n\r\n        OfferLibrary.LendingOffer memory offer = _offerManager.getLendingOffer(\r\n            request.offerId\r\n        );\r\n        require(offer.lender == _msgSender(), \"ERR_ONLY_LENDER\");\r\n\r\n        // verify if the remain offer is enough\r\n        require(\r\n            offer.currentPrincipal >= request.principalAmount,\r\n            \"ERR_INSUFICIENT\"\r\n        );\r\n\r\n        /* extract principal from lender */\r\n        /* transfer principal to borrower */\r\n        if (offer.principalToken == nativeAddress) {\r\n            // if principal is native coin\r\n            require(msg.value >= request.principalAmount);\r\n            payable(request.borrower).transfer(request.principalAmount);\r\n        } else {\r\n            // if principal is ERC20\r\n            ERC20(offer.principalToken).transferFrom(\r\n                _msgSender(),\r\n                address(this),\r\n                request.principalAmount\r\n            );\r\n            ERC20(offer.principalToken).transfer(\r\n                request.borrower,\r\n                request.principalAmount\r\n            );\r\n        }\r\n\r\n        /* register the loan from the loan manager */\r\n        require(\r\n            _loanManager.createLoan(\r\n                request.offerId,\r\n                OfferLibrary.Type.LENDING_OFFER,\r\n                offer.principalToken,\r\n                request.collateralToken,\r\n                request.principalAmount,\r\n                request.collateralAmount,\r\n                request.interest,\r\n                request.daysToMaturity,\r\n                request.borrower,\r\n                _msgSender()\r\n            ) > 0,\r\n            \"ERR_LOAN_MANAGER_CREATE\"\r\n        );\r\n\r\n        _offerManager._afterOfferBorrowingLoan(\r\n            request.offerId,\r\n            request.principalAmount,\r\n            request.collateralAmount\r\n        );\r\n        uint256 amountBorrowedInUSD = _priceFeed.amountInUSD(\r\n            offer.principalToken,\r\n            request.principalAmount\r\n        );\r\n        _activity._borrowLoan(request.borrower, amountBorrowedInUSD);\r\n    }\r\n\r\n    // @borrower\r\n    function createBorrowingOffer(\r\n        address principalToken,\r\n        address collateralToken,\r\n        uint256 collateralAmount_, // for ERC20 assets\r\n        uint256 interest,\r\n        uint256 daysToMaturity,\r\n        uint256 daysToExpire\r\n    ) public payable {\r\n        uint256 collateralAmount;\r\n\r\n        /* extract collateral from borrower */\r\n        if (collateralToken == nativeAddress) {\r\n            collateralAmount = msg.value;\r\n        } else {\r\n            collateralAmount = collateralAmount_;\r\n            ERC20(collateralToken).transferFrom(\r\n                _msgSender(),\r\n                address(this),\r\n                collateralAmount\r\n            );\r\n        }\r\n\r\n        uint16 ltv = _ltv.getLTV(_msgSender());\r\n\r\n        uint256 principalPrice = _priceFeed.exchangeRate(\r\n            collateralToken,\r\n            principalToken,\r\n            collateralAmount\r\n        );\r\n\r\n        uint256 principalAmount = percentageInverseOf(principalPrice, ltv) /\r\n            _ltv.getBase();\r\n\r\n        /* deposit tokens to vault */\r\n        require(\r\n            _poolManager.deposit(\r\n                _msgSender(),\r\n                collateralToken,\r\n                collateralAmount\r\n            ),\r\n            \"ERR_POOL_MANAGER_DEPOSIT\"\r\n        );\r\n\r\n        /* create the offer */\r\n        require(\r\n            _offerManager.createBorrowingOffer(\r\n                principalToken,\r\n                collateralToken,\r\n                collateralAmount,\r\n                principalAmount,\r\n                interest,\r\n                daysToMaturity,\r\n                daysToExpire,\r\n                _msgSender()\r\n            ) > 0,\r\n            \"ERR_OFFER_MANAGER_CREATE\"\r\n        );\r\n\r\n        uint256 amountInUSD = _priceFeed.amountInUSD(\r\n            collateralToken,\r\n            collateralAmount\r\n        );\r\n        _activity._dropCollateral(_msgSender(), amountInUSD);\r\n    }\r\n\r\n    // @borrower\r\n    function acceptLendingOffer(\r\n        uint256 offerId,\r\n        uint16 desiredPercentage,\r\n        address collateralToken\r\n    ) public payable {\r\n        OfferLibrary.LendingOffer memory offer = _offerManager.getLendingOffer(\r\n            offerId\r\n        );\r\n\r\n        require(offer.expiresAt > block.timestamp, \"ERR_OFFER_EXPIRED\");\r\n        // percentage must be 25, 50, 75 or 100\r\n        require(desiredPercentage <= 100, \"OVER_PERCENTAGE\");\r\n        require(desiredPercentage % 25 == 0, \"ERR_PERCENTAGE\");\r\n\r\n        bool supported = false;\r\n        for (uint256 index = 0; index < offer.collateralTypes.length; index++) {\r\n            if (offer.collateralTypes[index] == collateralToken) {\r\n                supported = true;\r\n                break;\r\n            }\r\n        }\r\n        require(supported, \"ERR_COLLATERAL_NOT_SUPPORTED\");\r\n\r\n        uint256 principalAmount = percentageOf(\r\n            offer.initialPrincipal,\r\n            desiredPercentage\r\n        );\r\n\r\n        require(\r\n            principalAmount <= offer.currentPrincipal,\r\n            \"ERR_INSUFFICIENT_AMOUNT\"\r\n        );\r\n\r\n        /* get the trust factor of the borrower */\r\n        uint16 ltv = _ltv.getLTV(_msgSender());\r\n\r\n        /* calculate the collateral amount */\r\n        uint256 collateralNormalAmount = _priceFeed.exchangeRate(\r\n            offer.principalToken,\r\n            collateralToken,\r\n            principalAmount\r\n        );\r\n\r\n        uint256 collateralAmount = percentageOf(collateralNormalAmount, ltv) /\r\n            _ltv.getBase();\r\n\r\n        /* extract collateral tokens from borrower */\r\n        if (collateralToken == nativeAddress) {\r\n            require(collateralAmount >= msg.value, \"ERR_COLLATERAL_AMOUNT\");\r\n        } else {\r\n            ERC20(collateralToken).transferFrom(\r\n                _msgSender(),\r\n                address(this),\r\n                collateralAmount\r\n            );\r\n        }\r\n\r\n        /* transfer the asset to borrower */\r\n        if (offer.principalToken == nativeAddress) {\r\n            payable(_msgSender()).transfer(principalAmount);\r\n        } else {\r\n            ERC20(offer.principalToken).safeTransfer(\r\n                _msgSender(),\r\n                principalAmount\r\n            );\r\n        }\r\n\r\n        /* register the loan */\r\n        _loanManager.createLoan(\r\n            offerId,\r\n            OfferLibrary.Type.LENDING_OFFER,\r\n            offer.principalToken,\r\n            collateralToken,\r\n            principalAmount,\r\n            collateralAmount,\r\n            offer.interest,\r\n            offer.daysToMaturity,\r\n            _msgSender(),\r\n            offer.lender\r\n        );\r\n\r\n        _offerManager._afterOfferLendingLoan(offerId, principalAmount);\r\n        uint256 amountBorrowedInUSD = _priceFeed.amountInUSD(\r\n            offer.principalToken,\r\n            principalAmount\r\n        );\r\n        _activity._borrowLoan(_msgSender(), amountBorrowedInUSD);\r\n    }\r\n\r\n    // @borrower\r\n    function acceptLendingRequest(uint256 requestId) public payable {\r\n        RequestLibrary.LendingRequest memory request = _offerManager\r\n            .getLendingRequest(requestId);\r\n\r\n        require(request.expiresAt > block.timestamp, \"ERR_REQUEST_EXPIRED\");\r\n\r\n        OfferLibrary.BorrowingOffer memory offer = _offerManager\r\n            .getBorrowingOffer(request.offerId);\r\n\r\n        require(offer.borrower == _msgSender(), \"ERR_ONLY_BORROWER\");\r\n\r\n        uint256 collateralAmount = percentageOf(\r\n            offer.initialCollateral,\r\n            request.desiredPercentage\r\n        );\r\n\r\n        uint256 principalAmount = percentageOf(\r\n            offer.initialPrincipal,\r\n            request.desiredPercentage\r\n        );\r\n\r\n        // verify if the remain offer amounts is enough\r\n        require(\r\n            offer.currentCollateral >= collateralAmount &&\r\n                offer.currentPrincipal >= principalAmount,\r\n            \"ERR_INSUFICIENT\"\r\n        );\r\n\r\n        /* extract principal from lender */\r\n        /* transfer principal to borrower */\r\n        if (offer.principalToken == nativeAddress) {\r\n            // if principal is native coin\r\n            payable(_msgSender()).transfer(principalAmount);\r\n        } else {\r\n            // if principal is ERC20\r\n            ERC20(offer.principalToken).transfer(_msgSender(), principalAmount);\r\n        }\r\n\r\n        /* register the loan from the loan manager */\r\n        require(\r\n            _loanManager.createLoan(\r\n                request.offerId,\r\n                OfferLibrary.Type.LENDING_OFFER,\r\n                offer.principalToken,\r\n                offer.collateralToken,\r\n                principalAmount,\r\n                collateralAmount,\r\n                request.interest,\r\n                request.daysToMaturity,\r\n                _msgSender(),\r\n                request.lender\r\n            ) > 0,\r\n            \"ERR_LOAN_MANAGER_CREATE\"\r\n        );\r\n\r\n        _offerManager._afterOfferLendingLoan(offer.offerId, principalAmount);\r\n        uint256 amountBorrowedInUSD = _priceFeed.amountInUSD(\r\n            offer.principalToken,\r\n            principalAmount\r\n        );\r\n        _activity._borrowLoan(_msgSender(), amountBorrowedInUSD);\r\n    }\r\n\r\n    function repayLoan(uint256 loanId) public payable {\r\n        LoanLibrary.Loan memory loan = _loanManager.getLoan(loanId);\r\n\r\n        // verify the borrower is the repayer\r\n        require(loan.borrower == _msgSender(), \"ERR_NOT_BORROWER\");\r\n\r\n        // ensure valid initial loan state when starting loan\r\n        require(loan.state == LoanLibrary.State.ACTIVE, \"ERR_LOAN_NOT_ACTIVE\");\r\n\r\n        // calculate the duration of the loan\r\n        uint256 time = block.timestamp;\r\n        uint256 ellapsedSecs = (time - loan.startDate);\r\n\r\n        // calculate the pay back amount\r\n        uint256 repayAmount = getFullInterestAmount(\r\n            loan.currentPrincipal,\r\n            ellapsedSecs,\r\n            loan.interest\r\n        );\r\n\r\n        // update ledger book\r\n        _loanManager.repayLoanAll(loanId);\r\n\r\n        /* extract pay back amount */\r\n        if (loan.principalToken == nativeAddress) {\r\n            // if principal is native coin\r\n            require(msg.value >= repayAmount);\r\n        } else {\r\n            // if principal is ERC20 token\r\n            ERC20(loan.principalToken).transferFrom(\r\n                _msgSender(),\r\n                address(this),\r\n                repayAmount\r\n            );\r\n        }\r\n\r\n        /* transfer collateral */\r\n        if (loan.collateralToken == nativeAddress) {\r\n            // if collateral is native coin\r\n            payable(_msgSender()).transfer(loan.currentCollateral);\r\n        } else {\r\n            // if collateral is ERC20 token\r\n            ERC20(loan.collateralToken).transfer(\r\n                _msgSender(),\r\n                loan.currentCollateral\r\n            );\r\n        }\r\n    }\r\n\r\n    function repayLiquidatedLoan(uint256 loanId) public payable {\r\n        LoanLibrary.Loan memory loan = _loanManager.getLoan(loanId);\r\n\r\n        bool liquidated = loan.state == LoanLibrary.State.LIQUIDATED;\r\n        require(liquidated);\r\n    }\r\n\r\n    function setPriceFeed(address priceFeed_) public onlyOwner {\r\n        _priceFeed = IPriceFeed(priceFeed_);\r\n    }\r\n\r\n    function changeOwner(address newOwner) public onlyOwner {\r\n        deployer = newOwner;\r\n    }\r\n\r\n    modifier onlyOwner() {\r\n        require(_msgSender() == deployer, \"ERR_ONLY_OWNER\");\r\n        _;\r\n    }\r\n}\r\n",
  "sourcePath": "C:\\Users\\DELL\\Documents\\darsh\\smart-contracts\\contracts\\LendingPool.sol",
  "compiler": {
    "name": "solc",
    "version": "0.8.17+commit.8df45f5f.Emscripten.clang"
  },
  "schemaVersion": "3.4.11",
  "updatedAt": "2023-02-11T17:40:35.422Z",
  "devdoc": {
    "kind": "dev",
    "methods": {},
    "version": 1
  },
  "userdoc": {
    "kind": "user",
    "methods": {},
    "version": 1
  }
}