{
  "contractName": "LendingPool",
  "abi": [
    {
      "inputs": [],
      "stateMutability": "nonpayable",
      "type": "constructor"
    },
    {
      "anonymous": false,
      "inputs": [
        {
          "indexed": true,
          "internalType": "address",
          "name": "previousOwner",
          "type": "address"
        },
        {
          "indexed": true,
          "internalType": "address",
          "name": "newOwner",
          "type": "address"
        }
      ],
      "name": "OwnershipTransferStarted",
      "type": "event"
    },
    {
      "anonymous": false,
      "inputs": [
        {
          "indexed": true,
          "internalType": "address",
          "name": "previousOwner",
          "type": "address"
        },
        {
          "indexed": true,
          "internalType": "address",
          "name": "newOwner",
          "type": "address"
        }
      ],
      "name": "OwnershipTransferred",
      "type": "event"
    },
    {
      "anonymous": false,
      "inputs": [
        {
          "indexed": false,
          "internalType": "address",
          "name": "account",
          "type": "address"
        }
      ],
      "name": "Paused",
      "type": "event"
    },
    {
      "anonymous": false,
      "inputs": [
        {
          "indexed": false,
          "internalType": "address",
          "name": "account",
          "type": "address"
        }
      ],
      "name": "Unpaused",
      "type": "event"
    },
    {
      "inputs": [],
      "name": "INTEREST_RATE_DENOMINATOR",
      "outputs": [
        {
          "internalType": "uint256",
          "name": "",
          "type": "uint256"
        }
      ],
      "stateMutability": "view",
      "type": "function"
    },
    {
      "inputs": [],
      "name": "LENDINGPOOL_REVISION",
      "outputs": [
        {
          "internalType": "uint256",
          "name": "",
          "type": "uint256"
        }
      ],
      "stateMutability": "view",
      "type": "function"
    },
    {
      "inputs": [],
      "name": "PERCENT",
      "outputs": [
        {
          "internalType": "uint16",
          "name": "",
          "type": "uint16"
        }
      ],
      "stateMutability": "view",
      "type": "function"
    },
    {
      "inputs": [],
      "name": "acceptOwnership",
      "outputs": [],
      "stateMutability": "nonpayable",
      "type": "function"
    },
    {
      "inputs": [
        {
          "internalType": "uint16",
          "name": "percentage",
          "type": "uint16"
        }
      ],
      "name": "checkPercentage",
      "outputs": [],
      "stateMutability": "pure",
      "type": "function"
    },
    {
      "inputs": [
        {
          "internalType": "uint256",
          "name": "principal",
          "type": "uint256"
        },
        {
          "internalType": "uint256",
          "name": "durationSecs",
          "type": "uint256"
        },
        {
          "internalType": "uint256",
          "name": "interest",
          "type": "uint256"
        }
      ],
      "name": "getFullInterestAmount",
      "outputs": [
        {
          "internalType": "uint256",
          "name": "",
          "type": "uint256"
        }
      ],
      "stateMutability": "pure",
      "type": "function"
    },
    {
      "inputs": [],
      "name": "nativeAddress",
      "outputs": [
        {
          "internalType": "address",
          "name": "",
          "type": "address"
        }
      ],
      "stateMutability": "view",
      "type": "function"
    },
    {
      "inputs": [],
      "name": "owner",
      "outputs": [
        {
          "internalType": "address",
          "name": "",
          "type": "address"
        }
      ],
      "stateMutability": "view",
      "type": "function"
    },
    {
      "inputs": [],
      "name": "paused",
      "outputs": [
        {
          "internalType": "bool",
          "name": "",
          "type": "bool"
        }
      ],
      "stateMutability": "view",
      "type": "function"
    },
    {
      "inputs": [],
      "name": "pendingOwner",
      "outputs": [
        {
          "internalType": "address",
          "name": "",
          "type": "address"
        }
      ],
      "stateMutability": "view",
      "type": "function"
    },
    {
      "inputs": [
        {
          "internalType": "uint256",
          "name": "total",
          "type": "uint256"
        },
        {
          "internalType": "uint160",
          "name": "percent",
          "type": "uint160"
        }
      ],
      "name": "percentageOf",
      "outputs": [
        {
          "internalType": "uint256",
          "name": "",
          "type": "uint256"
        }
      ],
      "stateMutability": "pure",
      "type": "function"
    },
    {
      "inputs": [],
      "name": "renounceOwnership",
      "outputs": [],
      "stateMutability": "nonpayable",
      "type": "function"
    },
    {
      "inputs": [
        {
          "internalType": "address",
          "name": "newOwner",
          "type": "address"
        }
      ],
      "name": "transferOwnership",
      "outputs": [],
      "stateMutability": "nonpayable",
      "type": "function"
    },
    {
      "inputs": [
        {
          "internalType": "uint256",
          "name": "principalAmount_",
          "type": "uint256"
        },
        {
          "internalType": "address",
          "name": "principalToken",
          "type": "address"
        },
        {
          "internalType": "address[]",
          "name": "collateralTokens",
          "type": "address[]"
        },
        {
          "internalType": "uint16",
          "name": "daysToMaturity",
          "type": "uint16"
        },
        {
          "internalType": "uint256",
          "name": "interest",
          "type": "uint256"
        },
        {
          "internalType": "uint16",
          "name": "daysToExpire",
          "type": "uint16"
        }
      ],
      "name": "createLendingOffer",
      "outputs": [],
      "stateMutability": "payable",
      "type": "function"
    },
    {
      "inputs": [
        {
          "internalType": "uint256",
          "name": "offerId",
          "type": "uint256"
        },
        {
          "internalType": "uint16",
          "name": "percentage",
          "type": "uint16"
        },
        {
          "internalType": "uint16",
          "name": "daysToMaturity",
          "type": "uint16"
        },
        {
          "internalType": "uint256",
          "name": "interest",
          "type": "uint256"
        },
        {
          "internalType": "uint16",
          "name": "hoursToExpire",
          "type": "uint16"
        }
      ],
      "name": "createLendingRequest",
      "outputs": [],
      "stateMutability": "payable",
      "type": "function"
    },
    {
      "inputs": [
        {
          "internalType": "uint256",
          "name": "offerId",
          "type": "uint256"
        },
        {
          "internalType": "uint16",
          "name": "percentage",
          "type": "uint16"
        }
      ],
      "name": "acceptBorrowingOffer",
      "outputs": [],
      "stateMutability": "payable",
      "type": "function"
    },
    {
      "inputs": [
        {
          "internalType": "uint256",
          "name": "requestId",
          "type": "uint256"
        }
      ],
      "name": "acceptBorrowingRequest",
      "outputs": [],
      "stateMutability": "nonpayable",
      "type": "function"
    },
    {
      "inputs": [
        {
          "internalType": "address",
          "name": "principalToken",
          "type": "address"
        },
        {
          "internalType": "uint256",
          "name": "principalAmount",
          "type": "uint256"
        },
        {
          "internalType": "address",
          "name": "collateralToken",
          "type": "address"
        },
        {
          "internalType": "uint256",
          "name": "interest",
          "type": "uint256"
        },
        {
          "internalType": "uint16",
          "name": "daysToMaturity",
          "type": "uint16"
        },
        {
          "internalType": "uint16",
          "name": "hoursToExpire",
          "type": "uint16"
        }
      ],
      "name": "createBorrowingOffer",
      "outputs": [],
      "stateMutability": "payable",
      "type": "function"
    },
    {
      "inputs": [
        {
          "internalType": "uint256",
          "name": "offerId",
          "type": "uint256"
        },
        {
          "internalType": "uint16",
          "name": "percentage",
          "type": "uint16"
        },
        {
          "internalType": "address",
          "name": "collateralToken",
          "type": "address"
        },
        {
          "internalType": "uint256",
          "name": "interest",
          "type": "uint256"
        },
        {
          "internalType": "uint16",
          "name": "daysToMaturity",
          "type": "uint16"
        },
        {
          "internalType": "uint16",
          "name": "hoursToExpire",
          "type": "uint16"
        }
      ],
      "name": "createBorrowingRequest",
      "outputs": [],
      "stateMutability": "payable",
      "type": "function"
    },
    {
      "inputs": [
        {
          "internalType": "uint256",
          "name": "offerId",
          "type": "uint256"
        },
        {
          "internalType": "uint16",
          "name": "percentage",
          "type": "uint16"
        },
        {
          "internalType": "address",
          "name": "collateralToken",
          "type": "address"
        }
      ],
      "name": "acceptLendingOffer",
      "outputs": [],
      "stateMutability": "payable",
      "type": "function"
    },
    {
      "inputs": [
        {
          "internalType": "uint256",
          "name": "requestId",
          "type": "uint256"
        }
      ],
      "name": "acceptLendingRequest",
      "outputs": [],
      "stateMutability": "payable",
      "type": "function"
    },
    {
      "inputs": [
        {
          "internalType": "uint256",
          "name": "offerId",
          "type": "uint256"
        },
        {
          "internalType": "uint16",
          "name": "toExpire",
          "type": "uint16"
        }
      ],
      "name": "reActivateOffer",
      "outputs": [],
      "stateMutability": "nonpayable",
      "type": "function"
    },
    {
      "inputs": [
        {
          "internalType": "uint256",
          "name": "loanId",
          "type": "uint256"
        },
        {
          "internalType": "uint16",
          "name": "percentage",
          "type": "uint16"
        }
      ],
      "name": "repayLoan",
      "outputs": [],
      "stateMutability": "payable",
      "type": "function"
    },
    {
      "inputs": [
        {
          "internalType": "uint256",
          "name": "requestId",
          "type": "uint256"
        }
      ],
      "name": "rejectRequest",
      "outputs": [],
      "stateMutability": "nonpayable",
      "type": "function"
    },
    {
      "inputs": [
        {
          "internalType": "uint256",
          "name": "requestId",
          "type": "uint256"
        }
      ],
      "name": "cancelLendRequest",
      "outputs": [],
      "stateMutability": "nonpayable",
      "type": "function"
    },
    {
      "inputs": [
        {
          "internalType": "uint256",
          "name": "requestId",
          "type": "uint256"
        }
      ],
      "name": "cancelBorrowRequest",
      "outputs": [],
      "stateMutability": "nonpayable",
      "type": "function"
    },
    {
      "inputs": [
        {
          "internalType": "uint256",
          "name": "loanId",
          "type": "uint256"
        }
      ],
      "name": "claimCollateral",
      "outputs": [],
      "stateMutability": "nonpayable",
      "type": "function"
    },
    {
      "inputs": [
        {
          "internalType": "uint256",
          "name": "loanId",
          "type": "uint256"
        }
      ],
      "name": "claimPrincipal",
      "outputs": [],
      "stateMutability": "nonpayable",
      "type": "function"
    },
    {
      "inputs": [
        {
          "internalType": "uint256",
          "name": "loanId",
          "type": "uint256"
        }
      ],
      "name": "claimDefaultCollateral",
      "outputs": [],
      "stateMutability": "nonpayable",
      "type": "function"
    },
    {
      "inputs": [
        {
          "internalType": "uint256",
          "name": "loanId",
          "type": "uint256"
        }
      ],
      "name": "repayLiquidatedLoan",
      "outputs": [],
      "stateMutability": "payable",
      "type": "function"
    },
    {
      "inputs": [],
      "name": "getRevision",
      "outputs": [
        {
          "internalType": "uint256",
          "name": "",
          "type": "uint256"
        }
      ],
      "stateMutability": "pure",
      "type": "function"
    },
    {
      "inputs": [],
      "name": "pause",
      "outputs": [],
      "stateMutability": "nonpayable",
      "type": "function"
    },
    {
      "inputs": [],
      "name": "unpause",
      "outputs": [],
      "stateMutability": "nonpayable",
      "type": "function"
    },
    {
      "inputs": [
        {
          "internalType": "uint256",
          "name": "loanId",
          "type": "uint256"
        }
      ],
      "name": "liquidateLoan",
      "outputs": [],
      "stateMutability": "nonpayable",
      "type": "function"
    },
    {
      "inputs": [
        {
          "internalType": "address",
          "name": "ltv_",
          "type": "address"
        },
        {
          "internalType": "address",
          "name": "activity_",
          "type": "address"
        },
        {
          "internalType": "address",
          "name": "priceFeed_",
          "type": "address"
        }
      ],
      "name": "setFeeds",
      "outputs": [],
      "stateMutability": "nonpayable",
      "type": "function"
    },
    {
      "inputs": [
        {
          "internalType": "address",
          "name": "vaultManager_",
          "type": "address"
        },
        {
          "internalType": "address",
          "name": "loanManager_",
          "type": "address"
        },
        {
          "internalType": "address",
          "name": "offerManager_",
          "type": "address"
        },
        {
          "internalType": "address",
          "name": "feeManager_",
          "type": "address"
        }
      ],
      "name": "setManagers",
      "outputs": [],
      "stateMutability": "nonpayable",
      "type": "function"
    },
    {
      "inputs": [
        {
          "internalType": "address",
          "name": "token",
          "type": "address"
        },
        {
          "internalType": "address payable",
          "name": "receiver",
          "type": "address"
        },
        {
          "internalType": "uint256",
          "name": "amount",
          "type": "uint256"
        }
      ],
      "name": "claim",
      "outputs": [],
      "stateMutability": "nonpayable",
      "type": "function"
    }
  ],
  "bytecode": "0x6080806040523461006c5760016000556002546001543360018060a01b0319821617600155339060018060a01b03167f8be0079c531659141344cd1fd0a4f28419497f9722a3daafe3b4186f6b6457e0600080a36001600160a81b0319166002556144e790816100728239f35b600080fdfe6080604052600436101561001257600080fd5b6000803560e01c80630548db121461399e5780631316529d14611c585780632672a87a1461344e5780632b994b43146132d65780632d7788db1461327b5780632e476337146132525780633f4ba83a146131bd5780634add7c8214612ce557806353188b14146128c95780635c7f31aa1461244e5780635c975abb1461242857806361ba944314612413578063628118ee14611ff2578063715018a614611f8a57806379ba509714611ec65780637a5ae69e14611e9a5780637cc5805a14611ccf5780638456cb5914611c745780638afaff0214611c585780638c21eb8b14611bc85780638da5cb5b14611b9f578063996cba6814611a71578063a33928da14611662578063a6aea41514611550578063b2ac850d146114dc578063b85a8b20146114c0578063c1bc89ef146112d5578063c49785b4146111c3578063cc3266e8146111a0578063ccdd9f5d14610d97578063e0b2695914610d63578063e0f7dffd14610d36578063e30c397814610d0d578063e826fbe714610541578063e9d1f8df14610387578063f2fde38b146103195763f9af0579146101b457600080fd5b346102ae5760203660031901126102ae57806004356101d1614351565b6101d9613b6e565b60018060a01b0382816007541660405190632820036560e11b8252846004830152816024816102809586945af191821561030e5785926102e1575b5050838260408301511660008051602061449283398151915281146000146102c9575080806101c0819401518181156102c0575b3390f1156102b1575b60075416803b156102bc5760405163f400c74360e01b8152600481019290925233602483015282908290818381604481015b03925af180156102b15761029a575b506001905580f35b6102a390613a88565b6102ae578038610292565b80fd5b6040513d84823e3d90fd5b5050fd5b506108fc610248565b90506101c06102dc920151903390614051565b610251565b6103009250803d10610307575b6102f88183613ab2565b810190614200565b3880610214565b503d6102ee565b6040513d87823e3d90fd5b50346102ae5760203660031901126102ae57610333613a13565b61033b613aec565b600280546001600160a01b0319166001600160a01b039283169081179091556001549091167f38d16b8cac22d99fc7c124b9cd0de2d3fa1faef420bfe791d8c362d765e227008380a380f35b50346102ae5760203660031901126102ae57806004356103a5613b6e565b60085460405163c58343ef60e01b8152600481018390526001600160a01b03916101c091908316908281602481855afa928315610536578693610507575b505060016101a08301516103f681613fc5565b6103ff81613fc5565b0361050357846101008301516024604051809481936322bc934560e11b835260048301525afa801561030e576101608491879384916104e1575b5001511660008051602061449283398151915281036104c957508080610140819401518181156104c0575b3390f1156102b1575b60085416803b156102bc57604051639498506560e01b8152600481019290925233602483015282908290818381604481015b03925af180156102b1576104b05750f35b6104b990613a88565b6102ae5780f35b506108fc610464565b90506101406104dc920151903390614051565b61046d565b6104fd91503d8086833e6104f58183613ab2565b810190613e54565b38610439565b8480fd5b610527929350803d1061052f575b61051f8183613ab2565b81019061408a565b9038806103e3565b503d610515565b6040513d88823e3d90fd5b5060603660031901126102ae57610556613a55565b61055e613a3f565b610566613b6e565b61056f8261440b565b6008546040516322bc934560e11b81526004803590820152926001600160a01b03909116908484602481855afa93841561030e578594610cf1575b50604051633970062960e01b815260048035908201526001600160a01b0384166024820152916020908390604490829089905af191821561030e5761060a926105fa918791610cc2575b506141b4565b61ffff60808501519116906143e7565b60048054604085810151905163912d228f60e01b81526001600160a01b039182169381019390935260248301849052602091839160449183918a91165af190811561030e578591610c8f575b506005546040516322a0fe3360e21b81523360048201526024810192909252602090829060449082906001600160a01b03165afa90811561030e578591610c55575b50600480546040868101519051631c07d98160e21b81526001600160a01b0391821693810193909352858116602484015260448301859052602091839160649183918b91165af1908115610536578691610c23575b50600554604051636882509b60e11b815290602090829060049082906001600160a01b03165afa908115610c18578791610bd2575b5061073a9260ff610734921690614186565b906143e7565b6000805160206144928339815191529390856001600160a01b038516868103610bbc575050348110610b7f5785945b60408301516001600160a01b03169084908203610b6f5750508480848015610b65575b8280929181923390f115610b5a575b6006546101208301516001600160a01b039081169116803b15610b56576107e287929183926040519485809481936320e8c56560e01b8352898d6004359260048601613b44565b03925af1908115610536578691610b42575b505060065461012083015160408401516001600160a01b03928316929081169116823b15610b3e57610845928689809460405196879586948593631effa54360e21b85526004359260048601613b44565b03925af1908115610536578691610b2a575b50506004805460405163912d228f60e01b81526001600160a01b0387811693820193909352602481018490529591602091879160449183918b91165af1948515610536578695610af1575b506007546101c084015160209286926001600160a01b03169189906108c681613fc5565b6109198a60018060a01b0360408b0151169260a08b015161ffff60c08d015116908c61012060018060a01b0391015116936040519c8d9b8c9a8b9963298b04a560e01b8b52339760043560048d01613fe5565b03925af1801561030e57610ac2575b506008546001600160a01b0316803b1561050357848091604460405180948193631b6eb38160e21b835260043560048401528860248401525af190811561030e578591610aae575b505060048054604092830151925163912d228f60e01b81526001600160a01b0393841692810192909252602482019390935291602091839116818681604481015b03925af1908115610a64578391610a74575b506003546001600160a01b0316803b15610a6f5760405163456db94760e01b8152336004820152602481019290925283908290604490829084905af1908115610a64578391610a4d575b50506003546001600160a01b0316803b156102bc576040516363a6c98160e01b81523360048201526024810192909252829082908183816044810161049f565b610a5690613a88565b610a61578138610a0d565b50fd5b6040513d85823e3d90fd5b505050fd5b9250506020823d602011610aa6575b81610a9060209383613ab2565b81010312610aa157829151386109c3565b600080fd5b3d9150610a83565b610ab790613a88565b610a6f578338610970565b6020809295503d8311610aea575b610ada8183613ab2565b81010312610aa157839238610928565b503d610ad0565b955093506020853d602011610b22575b81610b0e60209383613ab2565b81010312610aa157935185949093836108a2565b3d9150610b01565b610b3390613a88565b610503578438610857565b8780fd5b610b4b90613a88565b6105035784386107f4565b8680fd5b6040513d86823e3d90fd5b6108fc915061078c565b610b7a913390614051565b61079b565b60405162461bcd60e51b815260206004820152601560248201527411549497d0d3d31310551154905317d05353d55395605a1b6044820152606490fd5b82610bcd9197929730903390613bb5565b610769565b90506020813d602011610c10575b81610bed60209383613ab2565b81010312610b565761073a9260ff610c0761073493614178565b92505092610722565b3d9150610be0565b6040513d89823e3d90fd5b90506020813d602011610c4d575b81610c3e60209383613ab2565b81010312610aa15751386106ed565b3d9150610c31565b90506020813d602011610c87575b81610c7060209383613ab2565b8101031261050357610c8190613e31565b38610698565b3d9150610c63565b90506020813d602011610cba575b81610caa60209383613ab2565b81010312610aa157516020610656565b3d9150610c9d565b610ce4915060203d602011610cea575b610cdc8183613ab2565b810190613c08565b386105f4565b503d610cd2565b610d069194503d8087833e6104f58183613ab2565b92386105aa565b50346102ae57806003193601126102ae576002546040516001600160a01b039091168152602090f35b50346102ae5760603660031901126102ae576020610d5b6044356024356004356143ba565b604051908152f35b50346102ae5760403660031901126102ae57602435906001600160a01b03821682036102ae576020610d5b836004356143e7565b50346102ae5780602080600319360112610a6157610db3613aec565b610dbb614351565b8160018060a01b0391826007541660405190632820036560e11b82526004356004830152816024816102809687945af192831561030e578593611181575b5050610e0a6101408301514261432e565b92610e2260a0840194855190610120860151916143ba565b600480546040868101516060880180519251631c07d98160e21b8082526001600160a01b0393891684169682019690965292871690911660248301526044820185905295939092918490849060649082908d908a165af192831561114257899361114d575b5083610ee191888a8c610eac8a6040816004541695015116948b8d511693519061432e565b6040518881526001600160a01b0395861660048201529290941660248301526044820193909352938492839182906064820190565b03925af1908115611142578991611110575b50889084866009541660046040518095819363a001ecdd60e01b83525af1908115611105578a916110c9575b610f2992506143e7565b9260e08701968751610f3b868661432e565b1161103257505050610f4d828261432e565b95519451818110611015575050915b81806009541691511690803b15610b565760405163ef6506db60e01b81526001600160a01b039290921660048301526024820184905286908290604490829084905af1908115610536578691611001575b5050610fbe9060075416918461432e565b90803b1561050357604051633799ba3f60e01b81526004803590820152602481019390935260448301939093526064820152908290829081838160848101610283565b61100a90613a88565b610503578438610fad565b90955061102661102c92829761432e565b9061432e565b91610f5c565b965160048054885160409a8b01519a5195865288166001600160a01b03908116928601929092529887161660248401526044830181905297509395909250839150829060649082908a9089165af1918215610536578692611098575b5050918491610f5c565b8196508092503d83116110c2575b6110b08183613ab2565b81010312610aa157849351388061108e565b503d6110a6565b90508482813d83116110fe575b6110e08183613ab2565b810103126110fa576110f4610f2992613e31565b90610f1f565b8980fd5b503d6110d6565b6040513d8c823e3d90fd5b809950848092503d831161113b575b6111298183613ab2565b81010312610aa1578880985190610ef3565b503d61111f565b6040513d8b823e3d90fd5b985091508288813d811161117a575b6111668183613ab2565b81010312610aa15796518897909183610e87565b503d61115c565b611198929350803d10610307576102f88183613ab2565b903880610df9565b50346102ae57806003193601126102ae576020604051670de0b6b3a76400008152f35b50346102ae5760203660031901126102ae57806004356111e1614351565b6111e9613b6e565b60018060a01b0382816007541660405190632820036560e11b8252846004830152816024816102809586945af191821561030e5785926112b8575b5050838260608301511660008051602061449283398151915281146000146112a0575080806101e081940151818115611297575b3390f1156102b1575b60075416803b156102bc5760405163014b594760e71b815260048101929092523360248301528290829081838160448101610283565b506108fc611258565b90506101e06112b3920151903390614051565b611261565b6112ce9250803d10610307576102f88183613ab2565b3880611224565b5060c03660031901126102ae57600435906112ee613a29565b916044359267ffffffffffffffff84116114bc57366023850112156114bc5783600401359361131c85613ad4565b6113296040519182613ab2565b8581526020918282016024819860051b83010191368311610b3e57602401905b82821061149d5750505060643561ffff94858216809203610aa15761136c613a77565b90611375613b6e565b6001600160a01b039386851691600080516020614492833981519152830361148b575034975b8560085416936040519563031137cd60e61b875260e487019460048801528a60248801526084356044880152606487015216608485015260e060a48501525180915261010483019890885b81811061147557505050818491818981819c3360c483015203925af1928315610536578693611442575b505060065416803b156105035761049f93858094604051968795869485936320e8c56560e01b85523360048601613b44565b819650809293503d831161146e575b61145b8183613ab2565b81010312610aa157849351903880611410565b503d611451565b825186168b5299860199918601916001016113e6565b9761149889303386613bb5565b61139b565b81356001600160a01b0381168103610aa1578152908401908401611349565b8280fd5b50346102ae57806003193601126102ae57602060405160648152f35b50346102ae5760403660031901126102ae57806114f7613a55565b6114ff613b6e565b6008546001600160a01b031690813b156102bc5761ffff6064849283604051958694859363099bfe6b60e01b855260043560048601521660248401523360448401525af180156102b1576104b05750f35b50346102ae5760203660031901126102ae578060043561156e614351565b611576613b6e565b60018060a01b0382816007541660405190632820036560e11b8252846004830152816024816102809586945af191821561030e578592611645575b50508382606083015116600080516020614492833981519152811460001461162d5750808061020081940151818115611624575b3390f1156102b1575b60075416803b156102bc5760405163e41936d760e01b815260048101929092523360248301528290829081838160448101610283565b506108fc6115e5565b9050610200611640920151903390614051565b6115ee565b61165b9250803d10610307576102f88183613ab2565b38806115b1565b5060403660031901126102ae5780602461167a613a55565b611682613b6e565b61168b8161440b565b6008546040516322bc934560e11b81526004803590820152926001600160a01b039185918591829085165afa928315610b5a578493611a55575b506116e96116de61ffff6101a0860151941680946143e7565b9260808501516143e7565b91604084019082825116846000805160206144928339815191528214600014611a2d5790503410611a29578580808087876101208b015116828215611a20575bf11561030e575b82600654169361012086019584875116956101608201968688511690823b15611a1c5760405163481fd22360e11b81526001600160a01b039182166004808301919091523360248301529290911660448201526064810186905290356084820152908990829060a490829084905af1908115611142578991611a08575b5060048054885160405163912d228f60e01b808252918a166001600160a01b031693810193909352602483018790526020999094939092918a91839160449183918d165af19081156119fd578b916119ca575b50849289928c896118618c958f8c908860075416978051938a806101c08401519861182a8a613fc5565b51169951169a61ffff60c060a085015194015116935116936040519d8e9c8d9b8c9a63298b04a560e01b8c52339960048d01613fe5565b03925af180156111425761199c575b508460085416803b1561199857604051633496841f60e11b8152600480359082015260248101849052604481019490945288908490606490829084905af1801561198d5786938991611974575b5060048054955160405193845287166001600160a01b031690830152602482019290925292839160449183919087165af192831561030e578593611941575b5050806003541692511690823b15610a6f5760405163456db94760e01b81526001600160a01b039092166004830152602482015290829082908183816044810161049f565b819550809293503d831161196d575b61195a8183613ab2565b81010312610aa1578392519038806118fc565b503d611950565b61198091929450613a88565b610b5657849187386118bd565b6040513d8a823e3d90fd5b8880fd5b86809299503d83116119c3575b6119b38183613ab2565b81010312610aa157879638611870565b503d6119a9565b809b50898092503d83116119f6575b6119e38183613ab2565b81010312610aa15798518a999084611800565b503d6119d9565b6040513d8d823e3d90fd5b611a1190613a88565b610b3e5787386117ad565b8a80fd5b506108fc611729565b8580fd5b611a3a9130903390613bb5565b611a508484845116856101208901511690614051565b611730565b611a6a9193503d8086833e6104f58183613ab2565b91386116c5565b50346102ae5760603660031901126102ae57611a8b613a13565b6001600160a01b0360243581811690819003611b9b5760443591611aad613aec565b611ab5614351565b8215611b645784938160095416803b15611a29576040516331b5f13d60e11b81526001600160a01b0383166004820152602481018690529086908290604490829084905af1908115610536578691611b50575b5050166000805160206144928339815191528103611b415750828092819282f115611b35575b6001815580f35b604051903d90823e3d90fd5b611b4b9350614051565b611b2e565b611b5990613a88565b610503578438611b08565b60405162461bcd60e51b815260206004820152600f60248201526e11549497d6915493d7d05353d55395608a1b6044820152606490fd5b8380fd5b50346102ae57806003193601126102ae576001546040516001600160a01b039091168152602090f35b50346102ae5760803660031901126102ae57611be2613a13565b611bea613a29565b90611bf3613a3f565b6064356001600160a01b0381811694909291859003610aa1578290611c16613aec565b611c1e614351565b816001600160601b0360a01b9516856006541617600655168360075416176007551681600854161760085560095416176009556001815580f35b50346102ae57806003193601126102ae57602060405160028152f35b50346102ae57806003193601126102ae57611c8d613b6e565b6002805460ff60a01b1916600160a01b1790556040513381527f62e78cea01bee320cd4e420270b5ea74000d11b0c9f74754ebdbfc544b05a25890602090a180f35b5060a03660031901126102ae57600435611ce7613a55565b9060443561ffff92838216809203610aa15784611d02613a66565b94611d0b613b6e565b611d148361440b565b6008546040516322bc934560e11b8152600481018790526001600160a01b039184908290602490829086165afa908115610b5a578491611e80575b506040611d64846080840151971680976143e7565b91019082825116816000805160206144928339815191528214600014611e6e5790503410610503575b828060065416925116823b15611a2957611dc4928692838b93604051968795869485936320e8c56560e01b85523360048601613b44565b03925af18015610b5a57611e4f575b509060209560c494939260085416916040519889978896630b438b8960e41b885260048801526064356024880152604487015216606485015233608485015260a48401525af180156102b157611e27575080f35b602090813d8111611e48575b611e3d8183613ab2565b81010312610aa15780f35b503d611e33565b92611e5d8193929594613a88565b611e6a5790919238611dd3565b5080fd5b611e7b9130903390613bb5565b611d8d565b611e9491503d8086833e6104f58183613ab2565b38611d4f565b50346102ae5760203660031901126102ae5760043561ffff81168103610aa157611ec39061440b565b80f35b50346102ae57806003193601126102ae576002546001600160a01b033381831603611f33576001600160601b0360a01b8092166002556001549133908316176001553391167f8be0079c531659141344cd1fd0a4f28419497f9722a3daafe3b4186f6b6457e0600080a380f35b60405162461bcd60e51b815260206004820152602960248201527f4f776e61626c6532537465703a2063616c6c6572206973206e6f7420746865206044820152683732bb9037bbb732b960b91b6064820152608490fd5b50346102ae57806003193601126102ae57611fa3613aec565b600280546001600160a01b03199081169091556001805491821690556000906001600160a01b03167f8be0079c531659141344cd1fd0a4f28419497f9722a3daafe3b4186f6b6457e08280a380f35b5060403660031901126102ae576004358161200b613a55565b612013613b6e565b61201c8161440b565b600754604051632820036560e11b8152600481018590526001600160a01b03946102809490928591839160249183918a165af19384156105365786946123f4575b5050836102408401511633036123bc57849384926120806101408601514261432e565b946120b46120a661209b61ffff6080850151951680956143e7565b9360c08401516143e7565b9661012083015190846143ba565b936120bf838661432e565b9184600954166040519063a001ecdd60e01b82528160048160209b8c945af1908115611105578a91612380575b506120fa61210191856143e7565b809461432e565b91604086600954169201938685511690833b1561237c5760405163ef6506db60e01b81526001600160a01b039290921660048301526024820152918a908390604490829084905af1928315611105578a86938a9561235e575b508760075416926121986040519c8d968795869463094bb9f160e11b8652600486019094939260609260808301968352602083015260408201520152565b03925af1958615610c1857879661233f575b5086838251166000805160206144928339815191528114600014612329575050833410610b565786935b8561222085600454166121eb86888751169561432e565b60405163912d228f60e01b8082526001600160a01b039096166004820152602481019190915297889283919082906044820190565b03925af194851561198d5788956122f1575b5060048054925160405192835285166001600160a01b03169082015260248101929092528490829060449082908a9087165af19384156105365786946122be575b505060035416803b15610503578492836084926040519687958694637bc5e09f60e11b865233600487015260248601526044850152151560648401525af180156102b1576104b05750f35b819650809294503d83116122ea575b6122d78183613ab2565b81010312610aa157849351913880612273565b503d6122cd565b9297509350908481813d8111612322575b61230c8183613ab2565b81010312610aa157518796909390919085612232565b503d612302565b8561233a9196929630903390613bb5565b6121d4565b612357919650853d8711610cea57610cdc8183613ab2565b94386121aa565b9092945061236d919350613a88565b61199857869184918a3861215a565b8b80fd5b90508781813d83116123b5575b6123978183613ab2565b810103126110fa576120fa6123ae61210192613e31565b91506120ec565b503d61238d565b60405162461bcd60e51b815260206004820152601060248201526f22a9292fa727aa2fa127a92927aba2a960811b6044820152606490fd5b61240b929450803d10610307576102f88183613ab2565b91388061205d565b5060203660031901126102ae57611b2e614351565b50346102ae57806003193601126102ae57602060ff60025460a01c166040519015158152f35b5060203660031901126102ae57612463613b6e565b60085460405163c58343ef60e01b8152600480359082015282916001600160a01b0316906101c081602481855afa908115610a645783916128a8575b50826101008201516024604051809581936322bc934560e11b835260048301525afa918215610a6457839261288c575b506124e86101a083015161ffff604084015116906143e7565b91612500608082015161ffff604085015116906143e7565b60408201519092906001600160a01b031683600080516020614492833981519152820361287c5750508480848015612872575b8280929181923390f115610b5a575b60065460e0820151610160840151610100840151926001600160a01b039182169282169116803b15611998578892838993612593604051978896879586946320e8c56560e01b865260048601613b44565b03925af190811561053657869161285e575b505060065460e08201516040840151610100840151926001600160a01b039182169282169116803b156119985788928388936125f760405197889687958694631effa54360e21b865260048601613b44565b03925af190811561053657869161284a575b50506004805461016084015160405163912d228f60e01b81526001600160a01b039182169381019390935260248301879052919591602091879160449183918b91165af1948515610536578695612811575b506007546101008301516101c0850151869460209490936001600160a01b031692918a916126e79061268c83613fc5565b60018060a01b0360408b0151169460018060a01b036101608c015116978d60808201519061ffff6060840151169260e060018060a01b0391015116946040519d8e9c8d9b8c9a63298b04a560e01b8c52339860048d01613fe5565b03925af1801561030e576127e2575b5060018060a01b03600854168151813b15611a29578591604483926040519485938492631b6eb38160e21b845260048401528860248401525af190811561030e5785916127ce575b50506008546001600160a01b0316803b1561050357604051636d5d42c560e11b815260048035908201523360248201529085908290604490829084905af190811561030e578591610aae57505060048054604092830151925163912d228f60e01b81526001600160a01b0393841692810192909252602482019390935291602091839116818681604481016109b1565b6127d790613a88565b610a6f57833861273e565b6020809295503d831161280a575b6127fa8183613ab2565b81010312610aa1578392386126f6565b503d6127f0565b955093506020853d602011612842575b8161282e60209383613ab2565b81010312610aa1579351859490938361265b565b3d9150612821565b61285390613a88565b610503578438612609565b61286790613a88565b6105035784386125a5565b6108fc9150612533565b612887913390614051565b612542565b6128a19192503d8085833e6104f58183613ab2565b90386124cf565b6128c391506101c03d6101c01161052f5761051f8183613ab2565b3861249f565b5060c03660031901126102ae57806128df613a13565b6128e7613a3f565b6128ef613a66565b6128f7613a77565b6128ff613b6e565b6004805460405163912d228f60e01b81526001600160a01b03878116938201939093526024803590820152602096929592918790829060449082908c908b165af190811561198d578891612cb2575b506005546040516322a0fe3360e21b815233600482015260248101929092528790829060449082908a165afa90811561198d578891612c7d575b5060048054604051631c07d98160e21b81526001600160a01b03858116938201939093529185166024808401919091523560448301528890829060649082908d908c165af1908115611142578991612c4c575b50600488886005541660405192838092636882509b60e11b82525afa908115611105578a91612c0b575b50612a179260ff610734921690614186565b938286169387878a6000805160206144928339815191528803612bf057505050853410611998578792896101049289945b856008541691604051998a97889663486c386960e11b885216600487015260248601528a60448601526024356064860152606435608486015261ffff80921660a48601521660c48401523360e48401525af1918215610536578692612bbe575b508360065416803b15610b56576040516320e8c56560e01b81529287918491829084908290612add908a893360048601613b44565b03925af180156105365785928791612ba5575b50506004805460405163912d228f60e01b81526001600160a01b03939093169183019190915260248201939093529182906044908290889087165af1928315610b5a578493612b72575b505060035416803b156102bc576040516363a6c98160e01b81523360048201526024810192909252829082908183816044810161049f565b819450809293503d8311612b9e575b612b8b8183613ab2565b81010312610aa157829151903880612b3a565b503d612b81565b612bb191929350613a88565b6105035783908538612af0565b955090508385813d8111612be9575b612bd78183613ab2565b81010312610aa1578594519038612aa8565b503d612bcd565b90939261010493612c068a97949730338c613bb5565b612a48565b90508881813d8311612c45575b612c228183613ab2565b810103126110fa57612a179260ff612c3c61073493614178565b92505092612a05565b503d612c18565b809950888092503d8311612c76575b612c658183613ab2565b81010312610aa157889751386129db565b503d612c5b565b90508681813d8311612cab575b612c948183613ab2565b81010312610b3e57612ca590613e31565b38612988565b503d612c8a565b809850878092503d8311612cde575b612ccb8183613ab2565b81010312610aa15795518796908661294e565b503d612cc1565b50346102ae5760203660031901126102ae57612cff613b6e565b60085460405163c58343ef60e01b8152600480359082015282916001600160a01b03166101c082602481845afa918215610a6457839261319a575b50826101008301516024604051809481936322bc934560e11b835260048301525afa908115610a64578391613180575b50612d82608082015161ffff604085015116906143e7565b60408201519091906001600160a01b03168260008051602061449283398151915282036131615760e0850151869250829182918291906001600160a01b0316828215613158575bf115610a64575b60065460e0840151610120850151610140860151610100870151936001600160a01b039384169391929082169116813b156119985760405163481fd22360e11b81526001600160a01b0394851660048201523360248201529316604484015260648301919091526084820192909252908590829060a490829084905af190811561030e578591613144575b505060065460408201516101008501516001600160a01b039283169290911690823b15610b5657612ea8928588809460405196879586948593631effa54360e21b85523360048601613b44565b03925af190811561030e578591613130575b505081602060018060a01b0360075416610100860151906101c0850151612ee081613fc5565b8860018060a01b0360408801511691612f4b60018060a01b036101208c015116956101408c01518c61016081015160808201519061ffff6060840151169260e060018060a01b0391015116936040519d8e9c8d9b8c9a63298b04a560e01b8c52339960048d01613fe5565b03925af1801561030e57613101575b5060018060a01b0360085416610100840151610140850151823b15610b5657604051633496841f60e11b815260048101929092526024820185905260448201529085908290606490829084905af190811561030e5785916130ed575b50506008546001600160a01b0316803b1561050357604051636d5d42c560e11b815260048035908201523360248201529085908290604490829084905af190811561030e5785916130d9575b505060048054604092830151925163912d228f60e01b81526001600160a01b0393841692810192909252602482019390935291602091839160449183918891165af1908115610a645783916130a4575b5060035460e0909201516001600160a01b03928316921690823b15610a6f5760405163456db94760e01b81526001600160a01b039092166004830152602482015290829082908183816044810161049f565b9250506020823d6020116130d1575b816130c060209383613ab2565b81010312610aa15782915138613052565b3d91506130b3565b6130e290613a88565b610a6f578338613002565b6130f690613a88565b610a6f578338612fb6565b6020809295503d8311613129575b6131198183613ab2565b81010312610aa157839238612f5a565b503d61310f565b61313990613a88565b610a6f578338612eba565b61314d90613a88565b610a6f578338612e5b565b506108fc612dc9565b60e085015161317b926001600160a01b0390911690614051565b612dd0565b61319491503d8085833e6104f58183613ab2565b38612d6a565b6131b69192506101c03d6101c01161052f5761051f8183613ab2565b9038612d3a565b50346102ae57806003193601126102ae5760025460ff8160a01c16156132165760ff60a01b19166002556040513381527f5db9ee0a495bf2e6ff9c91a7834c1ba4fdd244a5e8aa4e537bd38aeae4b073aa90602090a180f35b60405162461bcd60e51b815260206004820152601460248201527314185d5cd8589b194e881b9bdd081c185d5cd95960621b6044820152606490fd5b50346102ae57806003193601126102ae5760206040516000805160206144928339815191528152f35b50346102ae5760203660031901126102ae57613295613b6e565b60085481906001600160a01b0316803b15610a615760405163774d3df560e01b8152600480359082015233602482015290829082908183816044810161049f565b50346102ae5760203660031901126102ae57806004356132f4613b6e565b60085460405163c58343ef60e01b8152600481018390526001600160a01b03916101c091908316908281602481855afa92831561053657869361342f575b50506101a082015161334381613fc5565b61334c81613fc5565b61050357846101008301516024604051809481936322bc934560e11b835260048301525afa90811561030e5785928491849361340c575b5061339d60409161ffff83608087015192015116906143e7565b9201511660008051602061449283398151915281036134005750818080928181156104c0573390f1156102b15760085416803b156102bc57604051639498506560e01b81526004810192909252336024830152829082908183816044810161049f565b6104dc92503390614051565b604091935061342761339d913d8088833e6104f58183613ab2565b939150613383565b613446929350803d1061052f5761051f8183613ab2565b903880613332565b5060c03660031901126102ae57613463613a55565b9061346c613a3f565b90613475613a66565b9161347e613a77565b93613487613b6e565b6134908161440b565b6008546040516322bc934560e11b815260048035908201526001600160a01b03909116959084816024818a5afa90811561030e578591613984575b50604051633970062960e01b815260048035908201526001600160a01b0385166024820152966020908890604490829089905af196871561030e576135759761351a918791610cc257506141b4565b61352d608082015161ffff8516906143e7565b60048054604080850151905163912d228f60e01b81526001600160a01b03918216938101939093526024830184905291999293926020928b92169082908a9082906044820190565b03925af197881561053657869861394f575b506005546040516322a0fe3360e21b8152336004820152602481019990995296979596602090879060449082906001600160a01b03165afa958615610c1857879661390b575b50600480546040928301519251631c07d98160e21b81526001600160a01b03938416928101929092528287166024830152604482019390935291602091839116818981606481015b03925af19081156105365786916138d9575b50600554604051636882509b60e11b815290602090829060049082906001600160a01b03165afa908115610c18578791613893575b509061073460ff61366e931687614186565b906001600160a01b0384166000805160206144928339815191520361387957348210611a29575b6006546001600160a01b031696873b15610b56578660405180996320e8c56560e01b82528183816136ce6004358a8d3360048601613b44565b03925af18015610c1857613865575b6004805460405163912d228f60e01b81526001600160a01b03888116938201939093526024810186905298995089989791602091899160449183918d91165af196871561198d578897613824575b50600854604051633bb1374b60e01b815261ffff9687166004808301919091526001600160a01b039889166024830152604482019690965260648082018a90529288166084820152913560a483015291851660c48201529190931660e48201523361010482015290356101248201529160209183916101449183918891165af18015610a64576137f5575b506003546001600160a01b0316803b156102bc576040516363a6c98160e01b81523360048201526024810192909252829082908183816044810161049f565b6020809293503d831161381d575b61380d8183613ab2565b81010312610aa1578190386137b6565b503d613803565b9750955091926020873d60201161385d575b8161384360209383613ab2565b81010312610aa1579551879690959093929061ffff61372b565b3d9150613836565b95909661387190613a88565b9486906136dd565b61388e8230336001600160a01b038816613bb5565b613695565b90506020813d6020116138d1575b816138ae60209383613ab2565b81010312610b56579061073460ff6138c861366e94614178565b9293505061365c565b3d91506138a1565b90506020813d602011613903575b816138f460209383613ab2565b81010312611a29575138613627565b3d91506138e7565b9095506020813d602011613947575b8161392760209383613ab2565b81010312610b56576136159161393e602092613e31565b969150916135cd565b3d915061391a565b97506020883d60201161397c575b8161396a60209383613ab2565b81010312611a29579651966020613587565b3d915061395d565b61399891503d8087833e6104f58183613ab2565b386134cb565b50346102ae5760603660031901126102ae576139b8613a13565b6139c0613a29565b6139c8613a3f565b6139d0613aec565b6139d8614351565b60018060a01b038092816001600160601b0360a01b951685600554161760055516836003541617600355169060045416176004556001815580f35b600435906001600160a01b0382168203610aa157565b602435906001600160a01b0382168203610aa157565b604435906001600160a01b0382168203610aa157565b6024359061ffff82168203610aa157565b6084359061ffff82168203610aa157565b60a4359061ffff82168203610aa157565b67ffffffffffffffff8111613a9c57604052565b634e487b7160e01b600052604160045260246000fd5b90601f8019910116810190811067ffffffffffffffff821117613a9c57604052565b67ffffffffffffffff8111613a9c5760051b60200190565b6001546001600160a01b03163303613b0057565b606460405162461bcd60e51b815260206004820152602060248201527f4f776e61626c653a2063616c6c6572206973206e6f7420746865206f776e65726044820152fd5b6001600160a01b039182168152911660208201526040810191909152606081019190915260800190565b60ff60025460a01c16613b7d57565b60405162461bcd60e51b815260206004820152601060248201526f14185d5cd8589b194e881c185d5cd95960821b6044820152606490fd5b6040516323b872dd60e01b60208201526001600160a01b0392831660248201529290911660448301526064820192909252613c0691613c0182608481015b03601f198101845283613ab2565b613c20565b565b90816020910312610aa157518015158103610aa15790565b6040805167ffffffffffffffff94936001600160a01b03909316929091820185811183821017613a9c576040526020928383527f5361666545524332303a206c6f772d6c6576656c2063616c6c206661696c6564848401526000808386829551910182855af1903d15613d50573d968711613d3c57613cc094959660405190613cb288601f19601f8401160183613ab2565b81528093873d92013e613d5d565b80519081613ccd57505050565b8280613cdd938301019101613c08565b15613ce55750565b6084906040519062461bcd60e51b82526004820152602a60248201527f5361666545524332303a204552433230206f7065726174696f6e20646964206e6044820152691bdd081cdd58d8d9595960b21b6064820152fd5b634e487b7160e01b83526041600452602483fd5b9150613cc0939495506060915b91929015613dbf5750815115613d71575090565b3b15613d7a5790565b60405162461bcd60e51b815260206004820152601d60248201527f416464726573733a2063616c6c20746f206e6f6e2d636f6e74726163740000006044820152606490fd5b825190915015613dd25750805190602001fd5b6040519062461bcd60e51b82528160208060048301528251908160248401526000935b828510613e18575050604492506000838284010152601f80199101168101030190fd5b8481018201518686016044015293810193859350613df5565b51906001600160a01b0382168203610aa157565b519061ffff82168203610aa157565b6020918282820312610aa157815167ffffffffffffffff92838211610aa15701916101e0938484840312610aa15760405194850185811083821117613a9c5760405283518552808401516002811015610aa15781860152613eb760408501613e31565b6040860152606084015160608601526080840151608086015260a084015160a0860152613ee660c08501613e45565b60c086015260e084015160e08601526101008085015190860152610120613f0e818601613e31565b908601526101409182850151908111610aa15784019280601f85011215610aa1578351613f3a81613ad4565b94613f486040519687613ab2565b818652838087019260051b820101928311610aa1578301905b828210613fae5750505050830152610160613f7d818301613e31565b9083015261018080820151908301526101a080820151908301526101c080910151906002821015610aa15782015290565b838091613fba84613e31565b815201910190613f61565b60021115613fcf57565b634e487b7160e01b600052602160045260246000fd5b9995919b9a97939894909b9692966101608b019c8b5261400481613fc5565b60208b0152600160a01b6001900380998180991660408d01521660608b015260808a015260a089015260c088015260e087015261ffff166101008601521661012084015216906101400152565b60405163a9059cbb60e01b60208201526001600160a01b0390921660248301526044820192909252613c0691613c018260648101613bf3565b80916101c09283910312610aa15760405191820182811067ffffffffffffffff821117613a9c576040528051825260208101516004811015610aa15760208301526140d760408201613e45565b60408301526140e860608201613e45565b60608301526080810151608083015260a081015160a083015260c081015160c083015261411760e08201613e31565b60e08301526101008082015190830152610120614135818301613e31565b908301526101408082015190830152610160808201519083015261018061415d818301613e31565b908301526101a080910151906002821015610aa15782015290565b519060ff82168203610aa157565b6001600160a01b039182169190821561419e57160490565b634e487b7160e01b600052601260045260246000fd5b156141bb57565b60405162461bcd60e51b815260206004820152601c60248201527f4552525f434f4c4c41544552414c5f4e4f545f535550504f52544544000000006044820152606490fd5b80916102809283910312610aa15760405191820182811067ffffffffffffffff821117613a9c576040528051825260208101516004811015610aa157602083015261424d60408201613e31565b604083015261425e60608201613e31565b60608301526080810151608083015260a081015160a083015260c081015160c083015260e081015160e083015261010080820151908301526101208082015190830152610140808201519083015261016080820151908301526101806142c5818301613e45565b908301526101a06142d7818301614178565b908301526101c080820151908301526101e0808201519083015261020080820151908301526102208082015190830152610240614315818301613e31565b90830152614327610260809201613e31565b9082015290565b9190820391821161433b57565b634e487b7160e01b600052601160045260246000fd5b600260005414614362576002600055565b60405162461bcd60e51b815260206004820152601f60248201527f5265656e7472616e637947756172643a207265656e7472616e742063616c6c006044820152606490fd5b8181029291811591840414171561433b57565b916143d96064926143d4670de0b6b3a764000093866143a7565b6143a7565b0404810180911161433b5790565b906001600160a01b0316801561440757614403906064926143a7565b0490565b5090565b61ffff8091166064811161445a57601990061661442457565b60405162461bcd60e51b815260206004820152600e60248201526d4552525f50455243454e5441474560901b6044820152606490fd5b60405162461bcd60e51b815260206004820152600f60248201526e4f5645525f50455243454e5441474560881b6044820152606490fdfe000000000000000000000000eeeeeeeeeeeeeeeeeeeeeeeeeeeeeeeeeeeeeeeea26469706673582212203e65924fde8b510f188ed7b3c518d33f735385247cf1962bc8282381e62b14e464736f6c63430008110033",
  "immutableReferences": {},
  "source": "// SPDX-License-Identifier: GPL-3.0\r\npragma solidity >=0.7.0 <0.9.0;\r\n\r\nimport \"./Activity.sol\";\r\n\r\nimport \"./libraries/Errors.sol\";\r\n\r\nimport \"./math/SimpleInterest.sol\";\r\n\r\nimport \"./interfaces/IPriceFeed.sol\";\r\nimport \"./interfaces/IFeeManager.sol\";\r\nimport \"./interfaces/IVaultManager.sol\";\r\nimport \"./interfaces/IOfferManager.sol\";\r\nimport \"./interfaces/ILoanManager.sol\";\r\nimport \"./interfaces/ILoanToValueRatio.sol\";\r\n\r\nimport \"@openzeppelin/contracts/utils/Context.sol\";\r\nimport \"@openzeppelin/contracts/token/ERC20/ERC20.sol\";\r\nimport \"@openzeppelin/contracts/token/ERC20/utils/SafeERC20.sol\";\r\nimport \"@openzeppelin/contracts/security/ReentrancyGuard.sol\";\r\nimport \"@openzeppelin/contracts/access/Ownable2Step.sol\";\r\nimport \"@openzeppelin/contracts/security/Pausable.sol\";\r\n\r\n/**\r\n * @title LendingPool contract\r\n * @dev Main point of interaction with the DARSH protocol's market\r\n * - Users can:\r\n *   # Create Lending/Borrowing offers\r\n *   # Request for new terms on offers\r\n *   # Repay (Fully/Installment)\r\n *   # Claim principal and earnings\r\n *   # Claim back collateral\r\n *   # Cancel/Reject/Accept requests\r\n * - All admin functions are callable by the deployer address\r\n * @author Arogundade Ibrahim\r\n **/\r\ncontract LendingPool is\r\n    Context,\r\n    ReentrancyGuard,\r\n    SimpleInterest,\r\n    Ownable2Step,\r\n    Pausable\r\n{\r\n    using SafeERC20 for ERC20;\r\n\r\n    uint256 public constant LENDINGPOOL_REVISION = 0x2;\r\n\r\n    // feeds\r\n    Activity private _activity;\r\n    IPriceFeed private _priceFeed;\r\n    ILoanToValueRatio private _ltv;\r\n\r\n    // managers\r\n    IVaultManager private _vaultManager;\r\n    ILoanManager private _loanManager;\r\n    IOfferManager private _offerManager;\r\n    IFeeManager private _feeManager;\r\n\r\n    address public constant nativeAddress =\r\n        0xEeeeeEeeeEeEeeEeEeEeeEEEeeeeEeeeeeeeEEeE;\r\n\r\n    constructor() ReentrancyGuard() Ownable2Step() {}\r\n\r\n    // @lenders\r\n    function createLendingOffer(\r\n        uint256 principalAmount_, // only for ERC20 assets\r\n        address principalToken,\r\n        address[] memory collateralTokens,\r\n        uint16 daysToMaturity,\r\n        uint256 interest,\r\n        uint16 daysToExpire\r\n    ) public payable whenNotPaused {\r\n        uint256 principalAmount;\r\n\r\n        /* extract tokens from lender */\r\n        if (principalToken == nativeAddress) {\r\n            principalAmount = msg.value;\r\n        } else {\r\n            principalAmount = principalAmount_;\r\n            ERC20(principalToken).safeTransferFrom(\r\n                _msgSender(),\r\n                address(this),\r\n                principalAmount\r\n            );\r\n        }\r\n\r\n        /* create the lending offer */\r\n        uint256 offerId = _offerManager.createLendingOffer(\r\n            principalToken,\r\n            principalAmount,\r\n            interest,\r\n            daysToMaturity,\r\n            daysToExpire,\r\n            collateralTokens,\r\n            _msgSender()\r\n        );\r\n\r\n        /* delegate principal to lender */\r\n        _vaultManager.deposit(\r\n            _msgSender(),\r\n            principalToken,\r\n            principalAmount,\r\n            offerId\r\n        );\r\n    }\r\n\r\n    // @lenders\r\n    function createLendingRequest(\r\n        uint256 offerId,\r\n        uint16 percentage,\r\n        uint16 daysToMaturity,\r\n        uint256 interest,\r\n        uint16 hoursToExpire\r\n    ) public payable whenNotPaused {\r\n        checkPercentage(percentage);\r\n\r\n        OfferLibrary.Offer memory offer = _offerManager.getOffer(offerId);\r\n\r\n        uint256 principalAmount = percentageOf(\r\n            offer.initialPrincipal,\r\n            percentage\r\n        );\r\n\r\n        /* extract tokens from lender */\r\n        if (offer.principalToken == nativeAddress) {\r\n            require(msg.value >= principalAmount);\r\n        } else {\r\n            ERC20(offer.principalToken).safeTransferFrom(\r\n                _msgSender(),\r\n                address(this),\r\n                principalAmount\r\n            );\r\n        }\r\n\r\n        /* delegate principal to lender */\r\n        _vaultManager.deposit(\r\n            _msgSender(),\r\n            offer.principalToken,\r\n            principalAmount,\r\n            offerId\r\n        );\r\n\r\n        /* create the lending request */\r\n        _offerManager.createLendingRequest(\r\n            percentage,\r\n            interest,\r\n            daysToMaturity,\r\n            hoursToExpire,\r\n            _msgSender(),\r\n            offerId\r\n        );\r\n    }\r\n\r\n    // @lenders\r\n    function acceptBorrowingOffer(uint256 offerId, uint16 percentage)\r\n        public\r\n        payable\r\n        whenNotPaused\r\n    {\r\n        checkPercentage(percentage);\r\n        OfferLibrary.Offer memory offer = _offerManager.getOffer(offerId);\r\n\r\n        uint256 collateralAmount = percentageOf(\r\n            offer.initialCollateral,\r\n            percentage\r\n        );\r\n\r\n        uint256 principalAmount = percentageOf(\r\n            offer.initialPrincipal,\r\n            percentage\r\n        );\r\n\r\n        /* extract principal from lender/caller and transfer to borrower */\r\n        if (offer.principalToken == nativeAddress) {\r\n            require(msg.value >= principalAmount);\r\n            payable(offer.creator).transfer(principalAmount);\r\n        } else {\r\n            ERC20(offer.principalToken).safeTransferFrom(\r\n                _msgSender(),\r\n                address(this),\r\n                principalAmount\r\n            );\r\n            ERC20(offer.principalToken).safeTransfer(\r\n                offer.creator,\r\n                principalAmount\r\n            );\r\n        }\r\n\r\n        /* delegate the loan collateral to lender */\r\n        _vaultManager.transfer(\r\n            offer.creator,\r\n            _msgSender(),\r\n            offer.collateralToken,\r\n            collateralAmount,\r\n            offerId\r\n        );\r\n\r\n        uint256 collateralPriceInUSD = _priceFeed.amountInUSD(\r\n            offer.collateralToken,\r\n            collateralAmount\r\n        );\r\n\r\n        /* register the loan from the loan manager */\r\n        _loanManager.createLoan(\r\n            offer.offerId,\r\n            offer.offerType,\r\n            offer.principalToken,\r\n            offer.collateralToken,\r\n            principalAmount,\r\n            collateralAmount,\r\n            collateralPriceInUSD,\r\n            offer.interest,\r\n            offer.daysToMaturity,\r\n            offer.creator,\r\n            _msgSender()\r\n        );\r\n\r\n        // will revert the transaction if fail\r\n        _offerManager.afterOfferBorrowingLoan(\r\n            offerId,\r\n            principalAmount,\r\n            collateralAmount\r\n        );\r\n\r\n        // update activity\r\n        uint256 borrowedAmountInUSD = _priceFeed.amountInUSD(\r\n            offer.principalToken,\r\n            principalAmount\r\n        );\r\n        _activity.borrowLoan(offer.creator, borrowedAmountInUSD);\r\n    }\r\n\r\n    // @lenders\r\n    function acceptBorrowingRequest(uint256 requestId) public whenNotPaused {\r\n        RequestLibrary.Request memory request = _offerManager.getRequest(\r\n            requestId\r\n        );\r\n\r\n        OfferLibrary.Offer memory offer = _offerManager.getOffer(\r\n            request.offerId\r\n        );\r\n\r\n        uint256 principalAmount = percentageOf(\r\n            offer.initialPrincipal,\r\n            request.percentage\r\n        );\r\n\r\n        /* transfer principal to borrower */\r\n        if (offer.principalToken == nativeAddress) {\r\n            payable(request.creator).transfer(principalAmount);\r\n        } else {\r\n            ERC20(offer.principalToken).safeTransfer(\r\n                request.creator,\r\n                principalAmount\r\n            );\r\n        }\r\n\r\n        /* delegate the loan collateral to lender */\r\n        _vaultManager.transfer(\r\n            request.creator,\r\n            _msgSender(),\r\n            request.collateralToken,\r\n            request.collateralAmount,\r\n            request.offerId\r\n        );\r\n\r\n        /* undelegate the principal from lender */\r\n        _vaultManager.withdraw(\r\n            _msgSender(),\r\n            offer.principalToken,\r\n            principalAmount,\r\n            request.offerId\r\n        );\r\n\r\n        /* register the loan from the loan manager */\r\n        _loanManager.createLoan(\r\n            request.offerId,\r\n            offer.offerType,\r\n            offer.principalToken,\r\n            request.collateralToken,\r\n            principalAmount,\r\n            request.collateralAmount,\r\n            request.collateralPriceInUSD,\r\n            request.interest,\r\n            request.daysToMaturity,\r\n            request.creator,\r\n            _msgSender()\r\n        );\r\n\r\n        // will revert the transaction if fail\r\n        _offerManager.afterOfferBorrowingLoan(\r\n            request.offerId,\r\n            principalAmount,\r\n            request.collateralAmount\r\n        );\r\n        _offerManager.acceptRequest(requestId, _msgSender());\r\n\r\n        // update activity\r\n        uint256 amountBorrowedInUSD = _priceFeed.amountInUSD(\r\n            offer.principalToken,\r\n            principalAmount\r\n        );\r\n        _activity.borrowLoan(request.creator, amountBorrowedInUSD);\r\n    }\r\n\r\n    // @borrower\r\n    function createBorrowingOffer(\r\n        address principalToken,\r\n        uint256 principalAmount,\r\n        address collateralToken,\r\n        uint256 interest,\r\n        uint16 daysToMaturity,\r\n        uint16 hoursToExpire\r\n    ) public payable whenNotPaused {\r\n        uint256 principalAmountInUSD = _priceFeed.amountInUSD(\r\n            principalToken,\r\n            principalAmount\r\n        );\r\n\r\n        uint160 ltv = _ltv.getRelativeLTV(_msgSender(), principalAmountInUSD);\r\n\r\n        uint256 collateralNormalAmount = _priceFeed.exchangeRate(\r\n            principalToken,\r\n            collateralToken,\r\n            principalAmount\r\n        );\r\n\r\n        uint256 collateralAmount = percentageOf(\r\n            collateralNormalAmount,\r\n            ltv / _ltv.getBase()\r\n        );\r\n\r\n        /* extract collateral from borrower */\r\n        if (collateralToken == nativeAddress) {\r\n            require(msg.value >= collateralAmount);\r\n        } else {\r\n            ERC20(collateralToken).safeTransferFrom(\r\n                _msgSender(),\r\n                address(this),\r\n                collateralAmount\r\n            );\r\n        }\r\n\r\n        /* create the offer */\r\n        uint256 offerId = _offerManager.createBorrowingOffer(\r\n            principalToken,\r\n            collateralToken,\r\n            collateralAmount,\r\n            principalAmount,\r\n            interest,\r\n            daysToMaturity,\r\n            hoursToExpire,\r\n            _msgSender()\r\n        );\r\n\r\n        /* delegate the collateral to borrower */\r\n        _vaultManager.deposit(\r\n            _msgSender(),\r\n            collateralToken,\r\n            collateralAmount,\r\n            offerId\r\n        );\r\n\r\n        // update activity\r\n        uint256 amountInUSD = _priceFeed.amountInUSD(\r\n            collateralToken,\r\n            collateralAmount\r\n        );\r\n        _activity.dropCollateral(_msgSender(), amountInUSD);\r\n    }\r\n\r\n    // @borrower\r\n    function createBorrowingRequest(\r\n        uint256 offerId,\r\n        uint16 percentage,\r\n        address collateralToken,\r\n        uint256 interest,\r\n        uint16 daysToMaturity,\r\n        uint16 hoursToExpire\r\n    ) public payable whenNotPaused {\r\n        checkPercentage(percentage);\r\n\r\n        OfferLibrary.Offer memory offer = _offerManager.getOffer(offerId);\r\n\r\n        require(\r\n            _offerManager.isCollateralSupported(offerId, collateralToken),\r\n            \"ERR_COLLATERAL_NOT_SUPPORTED\"\r\n        );\r\n\r\n        uint256 principalAmount = percentageOf(\r\n            offer.initialPrincipal,\r\n            percentage\r\n        );\r\n\r\n        uint256 principalPriceInUSD = _priceFeed.amountInUSD(\r\n            offer.principalToken,\r\n            principalAmount\r\n        );\r\n\r\n        uint160 ltv = _ltv.getRelativeLTV(_msgSender(), principalPriceInUSD);\r\n\r\n        uint256 collateralNormalAmount = _priceFeed.exchangeRate(\r\n            offer.principalToken,\r\n            collateralToken,\r\n            principalAmount\r\n        );\r\n\r\n        uint256 collateralAmount = percentageOf(\r\n            collateralNormalAmount,\r\n            ltv / _ltv.getBase()\r\n        );\r\n\r\n        /* extract collateral from borrower */\r\n        if (collateralToken == nativeAddress) {\r\n            require(collateralAmount >= msg.value);\r\n        } else {\r\n            ERC20(collateralToken).safeTransferFrom(\r\n                _msgSender(),\r\n                address(this),\r\n                collateralAmount\r\n            );\r\n        }\r\n\r\n        /* delegate the collateral to borrower */\r\n        _vaultManager.deposit(\r\n            _msgSender(),\r\n            collateralToken,\r\n            collateralAmount,\r\n            offerId\r\n        );\r\n\r\n        uint256 collateralPriceInUSD = _priceFeed.amountInUSD(\r\n            collateralToken,\r\n            collateralAmount\r\n        );\r\n\r\n        /* create the request */\r\n        _offerManager.createBorrowingRequest(\r\n            percentage,\r\n            collateralToken,\r\n            collateralAmount,\r\n            collateralPriceInUSD,\r\n            ltv,\r\n            interest,\r\n            daysToMaturity,\r\n            hoursToExpire,\r\n            _msgSender(),\r\n            offerId\r\n        );\r\n\r\n        // update activity\r\n        _activity.dropCollateral(_msgSender(), collateralPriceInUSD);\r\n    }\r\n\r\n    // @borrower\r\n    function acceptLendingOffer(\r\n        uint256 offerId,\r\n        uint16 percentage,\r\n        address collateralToken\r\n    ) public payable whenNotPaused {\r\n        checkPercentage(percentage);\r\n\r\n        OfferLibrary.Offer memory offer = _offerManager.getOffer(offerId);\r\n\r\n        require(\r\n            _offerManager.isCollateralSupported(offerId, collateralToken),\r\n            \"ERR_COLLATERAL_NOT_SUPPORTED\"\r\n        );\r\n\r\n        uint256 principalAmount = percentageOf(\r\n            offer.initialPrincipal,\r\n            percentage\r\n        );\r\n\r\n        uint256 principalPriceInUSD = _priceFeed.amountInUSD(\r\n            offer.principalToken,\r\n            principalAmount\r\n        );\r\n\r\n        uint160 ltv = _ltv.getRelativeLTV(_msgSender(), principalPriceInUSD);\r\n\r\n        /* calculate the collateral amount */\r\n        uint256 collateralNormalAmount = _priceFeed.exchangeRate(\r\n            offer.principalToken,\r\n            collateralToken,\r\n            principalAmount\r\n        );\r\n\r\n        uint256 collateralAmount = percentageOf(\r\n            collateralNormalAmount,\r\n            ltv / _ltv.getBase()\r\n        );\r\n\r\n        /* extract collateral tokens from borrower */\r\n        if (collateralToken == nativeAddress) {\r\n            require(collateralAmount >= msg.value, \"ERR_COLLATERAL_AMOUNT\");\r\n        } else {\r\n            ERC20(collateralToken).safeTransferFrom(\r\n                _msgSender(),\r\n                address(this),\r\n                collateralAmount\r\n            );\r\n        }\r\n\r\n        /* transfer the principal to borrower */\r\n        if (offer.principalToken == nativeAddress) {\r\n            payable(_msgSender()).transfer(principalAmount);\r\n        } else {\r\n            ERC20(offer.principalToken).safeTransfer(\r\n                _msgSender(),\r\n                principalAmount\r\n            );\r\n        }\r\n\r\n        /* delegate the loan collateral to lender */\r\n        _vaultManager.deposit(\r\n            offer.creator,\r\n            collateralToken,\r\n            collateralAmount,\r\n            offerId\r\n        );\r\n\r\n        /* undelegate the loan principal from lender */\r\n        _vaultManager.withdraw(\r\n            offer.creator,\r\n            offer.principalToken,\r\n            principalAmount,\r\n            offerId\r\n        );\r\n\r\n        uint256 collateralPriceInUSD = _priceFeed.amountInUSD(\r\n            collateralToken,\r\n            collateralAmount\r\n        );\r\n\r\n        /* register the loan */\r\n        _loanManager.createLoan(\r\n            offerId,\r\n            offer.offerType,\r\n            offer.principalToken,\r\n            collateralToken,\r\n            principalAmount,\r\n            collateralAmount,\r\n            collateralPriceInUSD,\r\n            offer.interest,\r\n            offer.daysToMaturity,\r\n            _msgSender(),\r\n            offer.creator\r\n        );\r\n\r\n        // will revert if transaction fail\r\n        _offerManager.afterOfferLendingLoan(offerId, principalAmount);\r\n\r\n        // update activity\r\n        uint256 amountBorrowedInUSD = _priceFeed.amountInUSD(\r\n            offer.principalToken,\r\n            principalAmount\r\n        );\r\n        _activity.borrowLoan(_msgSender(), amountBorrowedInUSD);\r\n        _activity.dropCollateral(_msgSender(), collateralPriceInUSD);\r\n    }\r\n\r\n    // @borrower\r\n    function acceptLendingRequest(uint256 requestId)\r\n        public\r\n        payable\r\n        whenNotPaused\r\n    {\r\n        RequestLibrary.Request memory request = _offerManager.getRequest(\r\n            requestId\r\n        );\r\n\r\n        OfferLibrary.Offer memory offer = _offerManager.getOffer(\r\n            request.offerId\r\n        );\r\n\r\n        uint256 collateralAmount = percentageOf(\r\n            offer.initialCollateral,\r\n            request.percentage\r\n        );\r\n\r\n        uint256 principalAmount = percentageOf(\r\n            offer.initialPrincipal,\r\n            request.percentage\r\n        );\r\n\r\n        /* transfer principal to borrower */\r\n        if (offer.principalToken == nativeAddress) {\r\n            payable(_msgSender()).transfer(principalAmount);\r\n        } else {\r\n            ERC20(offer.principalToken).safeTransfer(\r\n                _msgSender(),\r\n                principalAmount\r\n            );\r\n        }\r\n\r\n        /* delegate the loan collateral to lender */\r\n        _vaultManager.deposit(\r\n            request.creator,\r\n            offer.collateralToken,\r\n            collateralAmount,\r\n            request.offerId\r\n        );\r\n\r\n        /* undelegate the loan principal from lender */\r\n        _vaultManager.withdraw(\r\n            request.creator,\r\n            offer.principalToken,\r\n            principalAmount,\r\n            request.offerId\r\n        );\r\n\r\n        uint256 collateralPriceInUSD = _priceFeed.amountInUSD(\r\n            offer.collateralToken,\r\n            collateralAmount\r\n        );\r\n\r\n        /* register the loan from the loan manager */\r\n        _loanManager.createLoan(\r\n            request.offerId,\r\n            offer.offerType,\r\n            offer.principalToken,\r\n            offer.collateralToken,\r\n            principalAmount,\r\n            collateralAmount,\r\n            collateralPriceInUSD,\r\n            request.interest,\r\n            request.daysToMaturity,\r\n            _msgSender(),\r\n            request.creator\r\n        );\r\n\r\n        // will revert the transaction if fail\r\n        _offerManager.afterOfferLendingLoan(offer.offerId, principalAmount);\r\n        _offerManager.acceptRequest(requestId, _msgSender());\r\n\r\n        // update activityj\r\n        uint256 amountBorrowedInUSD = _priceFeed.amountInUSD(\r\n            offer.principalToken,\r\n            principalAmount\r\n        );\r\n        _activity.borrowLoan(_msgSender(), amountBorrowedInUSD);\r\n        _activity.dropCollateral(_msgSender(), collateralPriceInUSD);\r\n    }\r\n\r\n    // @lender\r\n    function reActivateOffer(uint256 offerId, uint16 toExpire)\r\n        public\r\n        whenNotPaused\r\n    {\r\n        _offerManager.reActivateOffer(offerId, toExpire, _msgSender());\r\n    }\r\n\r\n    // @borrower\r\n    function repayLoan(uint256 loanId, uint16 percentage)\r\n        public\r\n        payable\r\n        whenNotPaused\r\n    {\r\n        checkPercentage(percentage);\r\n\r\n        LoanLibrary.Loan memory loan = _loanManager.getLoan(loanId);\r\n\r\n        // verify the borrower is the repayer\r\n        require(loan.borrower == _msgSender(), \"ERR_NOT_BORROWER\");\r\n\r\n        // calculate the duration of the loan\r\n        uint256 time = block.timestamp;\r\n        uint256 ellapsedSecs = (time - loan.startDate);\r\n\r\n        uint256 principalAmount = percentageOf(\r\n            loan.initialPrincipal,\r\n            percentage\r\n        );\r\n\r\n        uint256 collateralAmount = percentageOf(\r\n            loan.initialCollateral,\r\n            percentage\r\n        );\r\n\r\n        // calculate the pay back amount\r\n        uint256 repaymentPrincipal = getFullInterestAmount(\r\n            principalAmount,\r\n            ellapsedSecs,\r\n            loan.interest\r\n        );\r\n\r\n        uint256 interestPaid = (repaymentPrincipal - principalAmount);\r\n        uint256 fee = percentageOf(interestPaid, _feeManager.feePercentage());\r\n        uint256 unClaimedInterest = (interestPaid - fee);\r\n\r\n        _feeManager.credit(loan.principalToken, fee);\r\n\r\n        // will revert the transaction if fail\r\n        bool completed = _loanManager.repayLoan(\r\n            loanId,\r\n            unClaimedInterest,\r\n            principalAmount,\r\n            collateralAmount\r\n        );\r\n\r\n        /* extract pay back amount */\r\n        if (loan.principalToken == nativeAddress) {\r\n            require(msg.value >= repaymentPrincipal);\r\n        } else {\r\n            ERC20(loan.principalToken).safeTransferFrom(\r\n                _msgSender(),\r\n                address(this),\r\n                repaymentPrincipal\r\n            );\r\n        }\r\n\r\n        // update activity\r\n        uint256 interestPaidInUSD = _priceFeed.amountInUSD(\r\n            loan.principalToken,\r\n            (repaymentPrincipal - principalAmount)\r\n        );\r\n\r\n        uint256 amountPaidInUSD = _priceFeed.amountInUSD(\r\n            loan.principalToken,\r\n            principalAmount\r\n        );\r\n\r\n        _activity.repayLoan(\r\n            _msgSender(),\r\n            amountPaidInUSD,\r\n            interestPaidInUSD,\r\n            completed\r\n        );\r\n    }\r\n\r\n    function rejectRequest(uint256 requestId) public whenNotPaused {\r\n        _offerManager.rejectRequest(requestId, _msgSender());\r\n    }\r\n\r\n    function cancelLendRequest(uint256 requestId) public whenNotPaused {\r\n        RequestLibrary.Request memory request = _offerManager.getRequest(\r\n            requestId\r\n        );\r\n        require(request.requestType == RequestLibrary.Type.LENDING_REQUEST);\r\n\r\n        OfferLibrary.Offer memory offer = _offerManager.getOffer(\r\n            request.offerId\r\n        );\r\n\r\n        uint256 principalAmount = percentageOf(\r\n            offer.initialPrincipal,\r\n            request.percentage\r\n        );\r\n\r\n        if (offer.principalToken == nativeAddress) {\r\n            payable(_msgSender()).transfer(principalAmount);\r\n        } else {\r\n            ERC20(offer.principalToken).safeTransfer(\r\n                _msgSender(),\r\n                principalAmount\r\n            );\r\n        }\r\n\r\n        _offerManager.cancelRequest(requestId, _msgSender());\r\n    }\r\n\r\n    function cancelBorrowRequest(uint256 requestId) public whenNotPaused {\r\n        RequestLibrary.Request memory request = _offerManager.getRequest(\r\n            requestId\r\n        );\r\n        require(request.requestType == RequestLibrary.Type.BORROWING_REQUEST);\r\n\r\n        OfferLibrary.Offer memory offer = _offerManager.getOffer(\r\n            request.offerId\r\n        );\r\n\r\n        if (offer.collateralToken == nativeAddress) {\r\n            payable(_msgSender()).transfer(request.collateralAmount);\r\n        } else {\r\n            ERC20(offer.collateralToken).safeTransfer(\r\n                _msgSender(),\r\n                request.collateralAmount\r\n            );\r\n        }\r\n\r\n        _offerManager.cancelRequest(requestId, _msgSender());\r\n    }\r\n\r\n    function claimCollateral(uint256 loanId) public nonReentrant whenNotPaused {\r\n        LoanLibrary.Loan memory loan = _loanManager.getLoan(loanId);\r\n\r\n        if (loan.collateralToken == nativeAddress) {\r\n            payable(_msgSender()).transfer(loan.unClaimedCollateral);\r\n        } else {\r\n            ERC20(loan.collateralToken).safeTransfer(\r\n                _msgSender(),\r\n                loan.unClaimedCollateral\r\n            );\r\n        }\r\n\r\n        _loanManager.claimCollateral(loanId, _msgSender());\r\n    }\r\n\r\n    function claimPrincipal(uint256 loanId) public nonReentrant whenNotPaused {\r\n        LoanLibrary.Loan memory loan = _loanManager.getLoan(loanId);\r\n\r\n        if (loan.principalToken == nativeAddress) {\r\n            payable(_msgSender()).transfer(loan.unClaimedPrincipal);\r\n        } else {\r\n            ERC20(loan.principalToken).safeTransfer(\r\n                _msgSender(),\r\n                loan.unClaimedPrincipal\r\n            );\r\n        }\r\n\r\n        _loanManager.claimPrincipal(loanId, _msgSender());\r\n    }\r\n\r\n    function claimDefaultCollateral(uint256 loanId)\r\n        public\r\n        nonReentrant\r\n        whenNotPaused\r\n    {\r\n        LoanLibrary.Loan memory loan = _loanManager.getLoan(loanId);\r\n\r\n        if (loan.collateralToken == nativeAddress) {\r\n            payable(_msgSender()).transfer(loan.unClaimedDefaultCollateral);\r\n        } else {\r\n            ERC20(loan.collateralToken).safeTransfer(\r\n                _msgSender(),\r\n                loan.unClaimedDefaultCollateral\r\n            );\r\n        }\r\n\r\n        _loanManager.claimDefaultCollateral(loanId, _msgSender());\r\n    }\r\n\r\n    function repayLiquidatedLoan(uint256 loanId) public payable nonReentrant {}\r\n\r\n    // ============= ABOUT ============ //\r\n\r\n    function getRevision() public pure returns (uint256) {\r\n        return LENDINGPOOL_REVISION;\r\n    }\r\n\r\n    // ============= ADMIN FUNCTIONS =============== //\r\n\r\n    function pause() external {\r\n        _pause();\r\n    }\r\n\r\n    function unpause() external {\r\n        _unpause();\r\n    }\r\n\r\n    function liquidateLoan(uint256 loanId) public onlyOwner nonReentrant {\r\n        LoanLibrary.Loan memory loan = _loanManager.getLoan(loanId);\r\n\r\n        // calculate the duration of the loan\r\n        uint256 time = block.timestamp;\r\n        uint256 ellapsedSecs = (time - loan.startDate);\r\n\r\n        uint256 repaymentPrincipal = getFullInterestAmount(\r\n            loan.currentPrincipal,\r\n            ellapsedSecs,\r\n            loan.interest\r\n        );\r\n\r\n        uint256 repaymentCollateral = _priceFeed.exchangeRate(\r\n            loan.principalToken,\r\n            loan.collateralToken,\r\n            repaymentPrincipal\r\n        );\r\n\r\n        uint256 interestInCollateral = _priceFeed.exchangeRate(\r\n            loan.principalToken,\r\n            loan.collateralToken,\r\n            (repaymentPrincipal - loan.currentPrincipal)\r\n        );\r\n\r\n        uint256 principalPaid;\r\n        uint256 collateralRetrieved;\r\n        uint256 collateralFee;\r\n\r\n        uint256 fee = percentageOf(\r\n            interestInCollateral,\r\n            _feeManager.feePercentage()\r\n        );\r\n\r\n        if (loan.currentCollateral >= (repaymentCollateral - fee)) {\r\n            collateralRetrieved = (repaymentCollateral - fee);\r\n            principalPaid = loan.currentPrincipal;\r\n\r\n            if (loan.currentCollateral >= repaymentCollateral) {\r\n                collateralFee = fee;\r\n            } else {\r\n                collateralRetrieved = loan.currentCollateral;\r\n                collateralFee = (loan.currentCollateral -\r\n                    (repaymentCollateral - fee));\r\n            }\r\n        } else {\r\n            collateralRetrieved = loan.currentCollateral;\r\n\r\n            uint256 collateralInPrincipal = _priceFeed.exchangeRate(\r\n                loan.collateralToken,\r\n                loan.principalToken,\r\n                collateralRetrieved\r\n            );\r\n\r\n            principalPaid = collateralInPrincipal;\r\n            collateralFee = 0;\r\n        }\r\n\r\n        _feeManager.credit(loan.collateralToken, collateralFee);\r\n\r\n        _loanManager.liquidateLoan(\r\n            loanId,\r\n            principalPaid,\r\n            collateralRetrieved,\r\n            (collateralRetrieved - collateralFee)\r\n        );\r\n    }\r\n\r\n    function setFeeds(\r\n        address ltv_,\r\n        address activity_,\r\n        address priceFeed_\r\n    ) public onlyOwner nonReentrant {\r\n        _ltv = ILoanToValueRatio(ltv_);\r\n        _activity = Activity(activity_);\r\n        _priceFeed = IPriceFeed(priceFeed_);\r\n    }\r\n\r\n    function setManagers(\r\n        address vaultManager_,\r\n        address loanManager_,\r\n        address offerManager_,\r\n        address feeManager_\r\n    ) public onlyOwner nonReentrant {\r\n        _vaultManager = IVaultManager(vaultManager_);\r\n        _loanManager = ILoanManager(loanManager_);\r\n        _offerManager = IOfferManager(offerManager_);\r\n        _feeManager = IFeeManager(feeManager_);\r\n    }\r\n\r\n    /// @dev to claim revenue\r\n    function claim(\r\n        address token,\r\n        address payable receiver,\r\n        uint256 amount\r\n    ) public onlyOwner nonReentrant {\r\n        require(amount > 0, \"ERR_ZERO_AMOUNT\");\r\n        _feeManager.debit(token, amount);\r\n        if (token == nativeAddress) {\r\n            receiver.transfer(amount);\r\n        } else {\r\n            ERC20(token).safeTransfer(receiver, amount);\r\n        }\r\n    }\r\n}\r\n",
  "sourcePath": "C:\\Users\\DELL\\Documents\\darsh\\smart-contracts\\contracts\\LendingPool.sol",
  "compiler": {
    "name": "solc",
    "version": "0.8.17+commit.8df45f5f.Emscripten.clang"
  },
  "schemaVersion": "3.4.11",
  "updatedAt": "2023-02-20T11:03:35.492Z",
  "devdoc": {
    "author": "Arogundade Ibrahim*",
    "details": "Main point of interaction with the DARSH protocol's market - Users can:   # Create Lending/Borrowing offers   # Request for new terms on offers   # Repay (Fully/Installment)   # Claim principal and earnings   # Claim back collateral   # Cancel/Reject/Accept requests - All admin functions are callable by the deployer address",
    "kind": "dev",
    "methods": {
      "acceptOwnership()": {
        "details": "The new owner accepts the ownership transfer."
      },
      "claim(address,address,uint256)": {
        "details": "to claim revenue"
      },
      "owner()": {
        "details": "Returns the address of the current owner."
      },
      "paused()": {
        "details": "Returns true if the contract is paused, and false otherwise."
      },
      "pendingOwner()": {
        "details": "Returns the address of the pending owner."
      },
      "renounceOwnership()": {
        "details": "Leaves the contract without owner. It will not be possible to call `onlyOwner` functions anymore. Can only be called by the current owner. NOTE: Renouncing ownership will leave the contract without an owner, thereby removing any functionality that is only available to the owner."
      },
      "transferOwnership(address)": {
        "details": "Starts the ownership transfer of the contract to a new account. Replaces the pending transfer if there is one. Can only be called by the current owner."
      }
    },
    "title": "LendingPool contract",
    "version": 1
  },
  "userdoc": {
    "kind": "user",
    "methods": {},
    "version": 1
  }
}