{
  "contractName": "LendingPool",
  "abi": [
    {
      "inputs": [],
      "stateMutability": "nonpayable",
      "type": "constructor"
    },
    {
      "anonymous": false,
      "inputs": [
        {
          "indexed": false,
          "internalType": "uint256",
          "name": "id",
          "type": "uint256"
        },
        {
          "indexed": false,
          "internalType": "uint256",
          "name": "timestamp",
          "type": "uint256"
        },
        {
          "indexed": false,
          "internalType": "address",
          "name": "from",
          "type": "address"
        },
        {
          "indexed": false,
          "internalType": "address",
          "name": "to",
          "type": "address"
        }
      ],
      "name": "Notify",
      "type": "event"
    },
    {
      "anonymous": false,
      "inputs": [
        {
          "indexed": true,
          "internalType": "address",
          "name": "previousOwner",
          "type": "address"
        },
        {
          "indexed": true,
          "internalType": "address",
          "name": "newOwner",
          "type": "address"
        }
      ],
      "name": "OwnershipTransferStarted",
      "type": "event"
    },
    {
      "anonymous": false,
      "inputs": [
        {
          "indexed": true,
          "internalType": "address",
          "name": "previousOwner",
          "type": "address"
        },
        {
          "indexed": true,
          "internalType": "address",
          "name": "newOwner",
          "type": "address"
        }
      ],
      "name": "OwnershipTransferred",
      "type": "event"
    },
    {
      "anonymous": false,
      "inputs": [
        {
          "indexed": false,
          "internalType": "address",
          "name": "account",
          "type": "address"
        }
      ],
      "name": "Paused",
      "type": "event"
    },
    {
      "anonymous": false,
      "inputs": [
        {
          "indexed": false,
          "internalType": "uint256",
          "name": "transferId",
          "type": "uint256"
        },
        {
          "indexed": false,
          "internalType": "uint256",
          "name": "offerId",
          "type": "uint256"
        },
        {
          "indexed": false,
          "internalType": "address",
          "name": "from",
          "type": "address"
        },
        {
          "indexed": false,
          "internalType": "uint256",
          "name": "amount",
          "type": "uint256"
        },
        {
          "indexed": false,
          "internalType": "address",
          "name": "token",
          "type": "address"
        },
        {
          "indexed": false,
          "internalType": "enum LendingPoolProvider.Type",
          "name": "transferType",
          "type": "uint8"
        },
        {
          "indexed": false,
          "internalType": "uint256",
          "name": "timestamp",
          "type": "uint256"
        }
      ],
      "name": "Transfer",
      "type": "event"
    },
    {
      "anonymous": false,
      "inputs": [
        {
          "indexed": false,
          "internalType": "address",
          "name": "account",
          "type": "address"
        }
      ],
      "name": "Unpaused",
      "type": "event"
    },
    {
      "inputs": [],
      "name": "ACCEPT_REQUEST",
      "outputs": [
        {
          "internalType": "uint256",
          "name": "",
          "type": "uint256"
        }
      ],
      "stateMutability": "view",
      "type": "function"
    },
    {
      "inputs": [],
      "name": "EXPIRE_REQUEST",
      "outputs": [
        {
          "internalType": "uint256",
          "name": "",
          "type": "uint256"
        }
      ],
      "stateMutability": "view",
      "type": "function"
    },
    {
      "inputs": [],
      "name": "INTEREST_RATE_DENOMINATOR",
      "outputs": [
        {
          "internalType": "uint256",
          "name": "",
          "type": "uint256"
        }
      ],
      "stateMutability": "view",
      "type": "function"
    },
    {
      "inputs": [],
      "name": "LENDINGPOOL_VERSION",
      "outputs": [
        {
          "internalType": "uint256",
          "name": "",
          "type": "uint256"
        }
      ],
      "stateMutability": "view",
      "type": "function"
    },
    {
      "inputs": [],
      "name": "PERCENT",
      "outputs": [
        {
          "internalType": "uint16",
          "name": "",
          "type": "uint16"
        }
      ],
      "stateMutability": "view",
      "type": "function"
    },
    {
      "inputs": [],
      "name": "REJECT_REQUEST",
      "outputs": [
        {
          "internalType": "uint256",
          "name": "",
          "type": "uint256"
        }
      ],
      "stateMutability": "view",
      "type": "function"
    },
    {
      "inputs": [],
      "name": "REPAID_LOAN",
      "outputs": [
        {
          "internalType": "uint256",
          "name": "",
          "type": "uint256"
        }
      ],
      "stateMutability": "view",
      "type": "function"
    },
    {
      "inputs": [],
      "name": "acceptOwnership",
      "outputs": [],
      "stateMutability": "nonpayable",
      "type": "function"
    },
    {
      "inputs": [
        {
          "internalType": "uint16",
          "name": "percentage",
          "type": "uint16"
        }
      ],
      "name": "checkPercentage",
      "outputs": [],
      "stateMutability": "pure",
      "type": "function"
    },
    {
      "inputs": [
        {
          "internalType": "uint256",
          "name": "principal",
          "type": "uint256"
        },
        {
          "internalType": "uint256",
          "name": "durationSecs",
          "type": "uint256"
        },
        {
          "internalType": "uint256",
          "name": "interestRate",
          "type": "uint256"
        }
      ],
      "name": "getFullInterestAmount",
      "outputs": [
        {
          "internalType": "uint256",
          "name": "",
          "type": "uint256"
        }
      ],
      "stateMutability": "pure",
      "type": "function"
    },
    {
      "inputs": [],
      "name": "nativeAddress",
      "outputs": [
        {
          "internalType": "address",
          "name": "",
          "type": "address"
        }
      ],
      "stateMutability": "view",
      "type": "function"
    },
    {
      "inputs": [
        {
          "internalType": "address",
          "name": "from",
          "type": "address"
        },
        {
          "internalType": "address",
          "name": "to",
          "type": "address"
        },
        {
          "internalType": "uint256",
          "name": "notification",
          "type": "uint256"
        }
      ],
      "name": "notify",
      "outputs": [],
      "stateMutability": "nonpayable",
      "type": "function"
    },
    {
      "inputs": [],
      "name": "owner",
      "outputs": [
        {
          "internalType": "address",
          "name": "",
          "type": "address"
        }
      ],
      "stateMutability": "view",
      "type": "function"
    },
    {
      "inputs": [],
      "name": "paused",
      "outputs": [
        {
          "internalType": "bool",
          "name": "",
          "type": "bool"
        }
      ],
      "stateMutability": "view",
      "type": "function"
    },
    {
      "inputs": [],
      "name": "pendingOwner",
      "outputs": [
        {
          "internalType": "address",
          "name": "",
          "type": "address"
        }
      ],
      "stateMutability": "view",
      "type": "function"
    },
    {
      "inputs": [
        {
          "internalType": "uint256",
          "name": "total",
          "type": "uint256"
        },
        {
          "internalType": "uint160",
          "name": "percent",
          "type": "uint160"
        }
      ],
      "name": "percentageOf",
      "outputs": [
        {
          "internalType": "uint256",
          "name": "",
          "type": "uint256"
        }
      ],
      "stateMutability": "pure",
      "type": "function"
    },
    {
      "inputs": [],
      "name": "renounceOwnership",
      "outputs": [],
      "stateMutability": "nonpayable",
      "type": "function"
    },
    {
      "inputs": [
        {
          "internalType": "uint256",
          "name": "offerId",
          "type": "uint256"
        },
        {
          "internalType": "address",
          "name": "from",
          "type": "address"
        },
        {
          "internalType": "uint256",
          "name": "amount",
          "type": "uint256"
        },
        {
          "internalType": "address",
          "name": "token",
          "type": "address"
        },
        {
          "internalType": "enum LendingPoolProvider.Type",
          "name": "transferType",
          "type": "uint8"
        }
      ],
      "name": "transfer",
      "outputs": [],
      "stateMutability": "nonpayable",
      "type": "function"
    },
    {
      "inputs": [
        {
          "internalType": "address",
          "name": "newOwner",
          "type": "address"
        }
      ],
      "name": "transferOwnership",
      "outputs": [],
      "stateMutability": "nonpayable",
      "type": "function"
    },
    {
      "inputs": [
        {
          "internalType": "uint256",
          "name": "principalAmount_",
          "type": "uint256"
        },
        {
          "internalType": "address",
          "name": "principalToken",
          "type": "address"
        },
        {
          "internalType": "address[]",
          "name": "collateralTokens",
          "type": "address[]"
        },
        {
          "internalType": "uint16",
          "name": "daysToMaturity",
          "type": "uint16"
        },
        {
          "internalType": "uint256",
          "name": "interestRate",
          "type": "uint256"
        },
        {
          "internalType": "uint16",
          "name": "daysToExpire",
          "type": "uint16"
        }
      ],
      "name": "createLendingOffer",
      "outputs": [],
      "stateMutability": "payable",
      "type": "function"
    },
    {
      "inputs": [
        {
          "internalType": "address",
          "name": "principalToken",
          "type": "address"
        },
        {
          "internalType": "uint256",
          "name": "principalAmount",
          "type": "uint256"
        },
        {
          "internalType": "address",
          "name": "collateralToken",
          "type": "address"
        },
        {
          "internalType": "uint256",
          "name": "interestRate",
          "type": "uint256"
        },
        {
          "internalType": "uint16",
          "name": "daysToMaturity",
          "type": "uint16"
        },
        {
          "internalType": "uint16",
          "name": "hoursToExpire",
          "type": "uint16"
        }
      ],
      "name": "createBorrowingOffer",
      "outputs": [],
      "stateMutability": "payable",
      "type": "function"
    },
    {
      "inputs": [
        {
          "internalType": "uint256",
          "name": "offerId",
          "type": "uint256"
        },
        {
          "internalType": "uint16",
          "name": "percentage",
          "type": "uint16"
        },
        {
          "internalType": "uint16",
          "name": "daysToMaturity",
          "type": "uint16"
        },
        {
          "internalType": "uint256",
          "name": "interestRate",
          "type": "uint256"
        },
        {
          "internalType": "uint16",
          "name": "hoursToExpire",
          "type": "uint16"
        }
      ],
      "name": "createLendingRequest",
      "outputs": [],
      "stateMutability": "payable",
      "type": "function"
    },
    {
      "inputs": [
        {
          "internalType": "uint256",
          "name": "offerId",
          "type": "uint256"
        },
        {
          "internalType": "uint16",
          "name": "percentage",
          "type": "uint16"
        },
        {
          "internalType": "address",
          "name": "collateralToken",
          "type": "address"
        },
        {
          "internalType": "uint256",
          "name": "interestRate",
          "type": "uint256"
        },
        {
          "internalType": "uint16",
          "name": "daysToMaturity",
          "type": "uint16"
        },
        {
          "internalType": "uint16",
          "name": "hoursToExpire",
          "type": "uint16"
        }
      ],
      "name": "createBorrowingRequest",
      "outputs": [],
      "stateMutability": "payable",
      "type": "function"
    },
    {
      "inputs": [
        {
          "internalType": "uint256",
          "name": "offerId",
          "type": "uint256"
        },
        {
          "internalType": "uint16",
          "name": "percentage",
          "type": "uint16"
        }
      ],
      "name": "acceptBorrowingOffer",
      "outputs": [],
      "stateMutability": "payable",
      "type": "function"
    },
    {
      "inputs": [
        {
          "internalType": "uint256",
          "name": "offerId",
          "type": "uint256"
        },
        {
          "internalType": "uint16",
          "name": "percentage",
          "type": "uint16"
        },
        {
          "internalType": "address",
          "name": "collateralToken",
          "type": "address"
        }
      ],
      "name": "acceptLendingOffer",
      "outputs": [],
      "stateMutability": "payable",
      "type": "function"
    },
    {
      "inputs": [
        {
          "internalType": "uint256",
          "name": "offerId",
          "type": "uint256"
        },
        {
          "internalType": "uint16",
          "name": "percentage",
          "type": "uint16"
        }
      ],
      "name": "removePrincipal",
      "outputs": [],
      "stateMutability": "nonpayable",
      "type": "function"
    },
    {
      "inputs": [
        {
          "internalType": "uint256",
          "name": "offerId",
          "type": "uint256"
        },
        {
          "internalType": "uint16",
          "name": "percentage",
          "type": "uint16"
        }
      ],
      "name": "removeCollateral",
      "outputs": [],
      "stateMutability": "nonpayable",
      "type": "function"
    },
    {
      "inputs": [
        {
          "internalType": "uint256",
          "name": "requestId",
          "type": "uint256"
        }
      ],
      "name": "acceptBorrowingRequest",
      "outputs": [],
      "stateMutability": "nonpayable",
      "type": "function"
    },
    {
      "inputs": [
        {
          "internalType": "uint256",
          "name": "requestId",
          "type": "uint256"
        }
      ],
      "name": "acceptLendingRequest",
      "outputs": [],
      "stateMutability": "payable",
      "type": "function"
    },
    {
      "inputs": [
        {
          "internalType": "uint256",
          "name": "offerId",
          "type": "uint256"
        },
        {
          "internalType": "uint16",
          "name": "toExpire",
          "type": "uint16"
        }
      ],
      "name": "reActivateOffer",
      "outputs": [],
      "stateMutability": "nonpayable",
      "type": "function"
    },
    {
      "inputs": [
        {
          "internalType": "uint256",
          "name": "loanId",
          "type": "uint256"
        },
        {
          "internalType": "uint16",
          "name": "percentage",
          "type": "uint16"
        }
      ],
      "name": "repayLoan",
      "outputs": [],
      "stateMutability": "payable",
      "type": "function"
    },
    {
      "inputs": [
        {
          "internalType": "uint256",
          "name": "loanId",
          "type": "uint256"
        }
      ],
      "name": "repayLiquidatedLoan",
      "outputs": [],
      "stateMutability": "payable",
      "type": "function"
    },
    {
      "inputs": [
        {
          "internalType": "uint256",
          "name": "requestId",
          "type": "uint256"
        }
      ],
      "name": "rejectRequest",
      "outputs": [],
      "stateMutability": "nonpayable",
      "type": "function"
    },
    {
      "inputs": [
        {
          "internalType": "uint256",
          "name": "requestId",
          "type": "uint256"
        }
      ],
      "name": "cancelRequest",
      "outputs": [],
      "stateMutability": "nonpayable",
      "type": "function"
    },
    {
      "inputs": [
        {
          "internalType": "uint256",
          "name": "loanId",
          "type": "uint256"
        }
      ],
      "name": "claimCollateral",
      "outputs": [],
      "stateMutability": "nonpayable",
      "type": "function"
    },
    {
      "inputs": [
        {
          "internalType": "uint256",
          "name": "loanId",
          "type": "uint256"
        }
      ],
      "name": "claimBorrowedPrincipal",
      "outputs": [],
      "stateMutability": "nonpayable",
      "type": "function"
    },
    {
      "inputs": [
        {
          "internalType": "uint256",
          "name": "loanId",
          "type": "uint256"
        }
      ],
      "name": "claimPrincipal",
      "outputs": [],
      "stateMutability": "nonpayable",
      "type": "function"
    },
    {
      "inputs": [
        {
          "internalType": "uint256",
          "name": "loanId",
          "type": "uint256"
        }
      ],
      "name": "claimDefaultCollateral",
      "outputs": [],
      "stateMutability": "nonpayable",
      "type": "function"
    },
    {
      "inputs": [
        {
          "internalType": "uint256",
          "name": "loanId",
          "type": "uint256"
        }
      ],
      "name": "liquidateLoan",
      "outputs": [],
      "stateMutability": "nonpayable",
      "type": "function"
    },
    {
      "inputs": [],
      "name": "getVersion",
      "outputs": [
        {
          "internalType": "uint256",
          "name": "",
          "type": "uint256"
        }
      ],
      "stateMutability": "pure",
      "type": "function"
    },
    {
      "inputs": [
        {
          "internalType": "address",
          "name": "ltv_",
          "type": "address"
        },
        {
          "internalType": "address",
          "name": "activity_",
          "type": "address"
        },
        {
          "internalType": "address",
          "name": "priceFeed_",
          "type": "address"
        }
      ],
      "name": "setFeeds",
      "outputs": [],
      "stateMutability": "nonpayable",
      "type": "function"
    },
    {
      "inputs": [
        {
          "internalType": "address",
          "name": "loanManager_",
          "type": "address"
        },
        {
          "internalType": "address",
          "name": "offerManager_",
          "type": "address"
        },
        {
          "internalType": "address",
          "name": "feeManager_",
          "type": "address"
        }
      ],
      "name": "setManagers",
      "outputs": [],
      "stateMutability": "nonpayable",
      "type": "function"
    },
    {
      "inputs": [
        {
          "internalType": "address",
          "name": "token",
          "type": "address"
        },
        {
          "internalType": "address payable",
          "name": "receiver",
          "type": "address"
        },
        {
          "internalType": "uint256",
          "name": "amount",
          "type": "uint256"
        }
      ],
      "name": "claim",
      "outputs": [],
      "stateMutability": "nonpayable",
      "type": "function"
    }
  ],
  "bytecode": "0x6080806040523461006d576001805560035460028054336001600160a01b0319821681179092556001600160a01b03167f8be0079c531659141344cd1fd0a4f28419497f9722a3daafe3b4186f6b6457e0600080a36001600160a81b03191660035561460590816100738239f35b600080fdfe608080604052600436101561001357600080fd5b600090813560e01c90816303e77837146138a3575080630548db121461382e5780630c49f023146136cc5780630d11c0d3146112c45780630d8e6e2c14612a9657806310b3ed2a1461366f5780632672a87a146131955780632d7788db1461308a5780632e476337146130615780633015394c14612e7e578063380dad5714612e625780634add7c8214612ab25780634ae3223514612a9657806353188b14146126c75780635c7f31aa1461220b5780635c975abb146121e55780635d03999f1461217057806361ba94431461215b578063628118ee14611d38578063669c987f14611cad5780636fb9316714611b61578063715018a614611af957806379ba509714611a355780637a5ae69e14611a0c5780637cc5805a146118ab5780638da5cb5b14611882578063996cba6814611755578063a33928da146113b1578063a6aea41514611354578063b2ac850d146112e0578063b85a8b20146112c4578063c1bc89ef146110c7578063c49785b41461106a578063cc3266e814611047578063ccdd9f5d14610c03578063e0b2695914610bcf578063e0f7dffd14610b83578063e30c397814610b5a578063e643321b14610b3e578063e718851d14610adf578063e826fbe71461037e578063f2fde38b146103105763f9af0579146101fa57600080fd5b3461030d57602036600319011261030d576102136142d3565b61021b6139ef565b60075460405163f400c74360e01b81526004803590820152336024820152906001600160a01b039060609083908316818681604481015b03925af19081156102ac578390849385936102d6575b5082166000805160206145b083398151915281036102c1575083808280156102b7575b8280929181923390f1156102ac576102a5925b33906143b6565b6001805580f35b6040513d85823e3d90fd5b6108fc915061028b565b926102d1826102a5953390613fd7565b61029e565b915092506102fb915060603d8111610306575b6102f3818361395d565b8101906142b1565b929190929138610268565b503d6102e9565b80fd5b503461030d57602036600319011261030d5761032a6138be565b610332613997565b600380546001600160a01b0319166001600160a01b039283169081179091556002549091167f38d16b8cac22d99fc7c124b9cd0de2d3fa1faef420bfe791d8c362d765e227008380a380f35b50606036600319011261030d57610393613900565b61039b6138ea565b6103a36139ef565b6103ac826144e9565b6008546040516322bc934560e11b81526004803590820152926001600160a01b03909116908484602481855afa9384156108ad578594610abb575b50604051633970062960e01b815260048035908201526001600160a01b0384166024820152916020908390604490829089905af19182156108ad5761044792610437918791610a8c575b50613e82565b61ffff60808501519116906144c5565b600554604084810151905163912d228f60e01b81526001600160a01b0391821660048201526024810184905292949291602091839160449183918a91165af19081156108ad578591610a59575b506006546040516322a0fe3360e21b81523360048201526024810192909252602090829060449082906001600160a01b03165afa9081156108ad578591610a1f575b506005546040838101519051631c07d98160e21b81526001600160a01b03918216600482015285821660248201526044810187905291602091839160649183918b91165af19081156109205786916109ed575b50600654604051636882509b60e11b815290602090829060049082906001600160a01b03165afa9081156109e2578791610998575b506105769260ff610570921690613cd4565b906144c5565b6000805160206145b08339815191529390856001600160a01b0385168681036109825750503481106109455785945b6105b385833360043561440a565b60408401516001600160a01b03169083908203610935575050848083801561092b575b8280929181923390f115610889575b6040830151610601906001600160a01b031683336004356143b6565b60055460405163912d228f60e01b81526001600160a01b03868116600483015260248201849052909591602091879160449183918b91165af19485156109205786956108e7575b506007546101c085015160209285926001600160a01b031691899061066c81613ece565b6106c08a60018060a01b0360408c015116928b61ffff60c060a083015192015116908d61012060018060a01b0391015116936040519c8d9b8c9a8b996319467e2760e01b8b52339760043560048d01613f62565b03925af180156108ad576108b8575b506008546001600160a01b0316803b1561084b57848091604460405180948193630a5ff10960e41b835260043560048401528760248401525af19081156108ad578591610894575b5050600554604083810151905163912d228f60e01b81526001600160a01b0391821660048201526024810193909352602091839160449183918991165af190811561088957849161084f575b50600454610120909201516001600160a01b03928316921690823b1561084b576040516328cdd6eb60e11b81526001600160a01b0392909216600483015233602483015260448201529083908290606490829084905af19081156102ac578391610834575b50506004546001600160a01b0316803b15610830576040516363a6c98160e01b8152336004820152602481019290925282908290818381604481015b03925af18015610825576108155750f35b61081e90613933565b61030d5780f35b6040513d84823e3d90fd5b5050fd5b61083d90613933565b6108485781386107c8565b50fd5b8480fd5b9350506020833d602011610881575b8161086b6020938361395d565b8101031261087c5783925138610763565b600080fd5b3d915061085e565b6040513d86823e3d90fd5b61089d90613933565b6108a8578338610717565b505050fd5b6040513d87823e3d90fd5b6020809295503d83116108e0575b6108d0818361395d565b8101031261087c578392386106cf565b503d6108c6565b955093506020853d602011610918575b816109046020938361395d565b8101031261087c5793518594909382610648565b3d91506108f7565b6040513d88823e3d90fd5b6108fc91506105d6565b610940913390613fd7565b6105e5565b60405162461bcd60e51b815260206004820152601560248201527411549497d0d3d31310551154905317d05353d55395605a1b6044820152606490fd5b826109939197929730903390613a36565b6105a5565b90506020813d6020116109da575b816109b36020938361395d565b810103126109d6576105769260ff6109cd61057093613cc6565b9250509261055e565b8680fd5b3d91506109a6565b6040513d89823e3d90fd5b90506020813d602011610a17575b81610a086020938361395d565b8101031261087c575138610529565b3d91506109fb565b90506020813d602011610a51575b81610a3a6020938361395d565b8101031261084b57610a4b90613cb2565b386104d6565b3d9150610a2d565b90506020813d602011610a84575b81610a746020938361395d565b8101031261087c57516020610494565b3d9150610a67565b610aae915060203d602011610ab4575b610aa6818361395d565b810190613a89565b38610431565b503d610a9c565b610ad89194503d8087833e610ad0818361395d565b810190613d11565b92386103e7565b503461030d57606036600319011261030d576000805160206145708339815191526080610b0a6138be565b610b126138d4565b6040805160443581524260208201526001600160a01b039384169181019190915291166060820152a180f35b503461030d578060031936011261030d57602060405160668152f35b503461030d578060031936011261030d576003546040516001600160a01b039091168152602090f35b503461030d57606036600319011261030d576020610bc76004356064670de0b6b3a7640000610bbf602435610bba604435866144b2565b6144b2565b0404906142a4565b604051908152f35b503461030d57604036600319011261030d57602435906001600160a01b038216820361030d576020610bc7836004356144c5565b503461030d578060208060031936011261084857610c1f6142d3565b8160018060a01b0391826007541660405190632820036560e11b82526004356004830152816024816102c09687945af19283156108ad578593611018575b5050610c6e61014083015142614281565b92610c9760a08401946064670de0b6b3a7640000610bbf885193610bba6101208a0151866144b2565b6005546040858101516060870180519251631c07d98160e21b8082526001600160a01b03938816841660048301529387169290921660248301526044820185905295939092849084908716818c816064810103925af1928315610fd9578993610fe4575b5083610d5591888a8c610d208a6040816005541695015116948b8d5116935190614281565b6040518881526001600160a01b0395861660048201529290941660248301526044820193909352938492839182906064820190565b03925af1908115610fd9578991610fa7575b50889084866009541660046040518095819363a001ecdd60e01b83525af1908115610f9c578a91610f60575b610d9d92506144c5565b9260e08701968751610daf8686614281565b11610eca57505050610dc18282614281565b95519451818110610ead575050915b81806009541691511690803b156109d65760405163ef6506db60e01b81526001600160a01b039290921660048301526024820184905286908290604490829084905af1908115610920578691610e99575b5050610e3290600754169184614281565b90803b1561084b57604051633799ba3f60e01b815260048035908201526024810193909352604483019390935260648201529082908290608490829084905af1801561082557610e85575b506001805580f35b610e8e90613933565b61030d578038610e7d565b610ea290613933565b61084b578438610e21565b909550610ebe610ec4928297614281565b90614281565b91610dd0565b965160055487516040998a015199519485526001600160a01b039088168116600486015298871690981660248401526044830181905297509395909250839150829060649082908a9089165af1918215610920578692610f2f575b5050918491610dd0565b8196508092503d8311610f59575b610f47818361395d565b8101031261087c578493513880610f25565b503d610f3d565b90508482813d8311610f95575b610f77818361395d565b81010312610f9157610f8b610d9d92613cb2565b90610d93565b8980fd5b503d610f6d565b6040513d8c823e3d90fd5b809950848092503d8311610fd2575b610fc0818361395d565b8101031261087c578880985190610d67565b503d610fb6565b6040513d8b823e3d90fd5b985091508288813d8111611011575b610ffd818361395d565b8101031261087c5796518897909183610cfb565b503d610ff3565b611038929350803d10611040575b611030818361395d565b81019061413d565b903880610c5d565b503d611026565b503461030d578060031936011261030d576020604051670de0b6b3a76400008152f35b503461030d57602036600319011261030d576110846142d3565b61108c6139ef565b60075460405163014b594760e71b81526004803590820152336024820152906001600160a01b03906060908390831681868160448101610252565b5060c036600319011261030d576004356110df6138d4565b60443567ffffffffffffffff81116112c057366023820112156112c05780600401359061110b8261397f565b90611119604051928361395d565b82825260208201906024829460051b820101903682116112bc57602401915b81831061129c575050506064359161ffff8316830361087c57611159613922565b946111626139ef565b6001600160a01b0385166000805160206145b08339815191520361127957503492918661ffff9692935b60018060a01b03600854169260405198899563031137cd60e61b87528160e488019460018060a01b038c1660048a01528a60248a015260843560448a015216606488015216608486015260e060a48601525180915261010484019490825b818110611254575050508290816020953360c483015203925af18015610889578490611220575b61121d9350339061445e565b80f35b506020833d60201161124c575b8161123a6020938361395d565b8101031261087c5761121d9251611211565b3d915061122d565b82516001600160a01b031687526020968701968a96508b9450909201916001016111ea565b9261128f8430336001600160a01b038916613a36565b918661ffff96929361118c565b82356001600160a01b038116810361087c57815260209283019201611138565b8780fd5b8380fd5b503461030d578060031936011261030d57602060405160648152f35b503461030d57604036600319011261030d57806112fb613900565b6113036139ef565b6008546001600160a01b031690813b156108305761ffff6064849283604051958694859363099bfe6b60e01b855260043560048601521660248401523360448401525af18015610825576108155750f35b503461030d57602036600319011261030d5761136e6142d3565b6113766139ef565b60075460405163e41936d760e01b81526004803590820152336024820152906001600160a01b03906060908390831681868160448101610252565b50604036600319011261030d57806004356113ca613900565b6113d26139ef565b6113db816144e9565b6008546040516322bc934560e11b815260048101849052908490829060249082906001600160a01b03165afa90811561088957849161173b575b5061143961142e61ffff6101a0840151941680946144c5565b9260808301516144c5565b60408201519092906001600160a01b0316836000805160206145b08339815191528203611729579050341061084b575b6040820151611483906001600160a01b031684338761445e565b610120820180516101608401519195916114ac916001600160a01b03918216918591168461440a565b60055461016084015160405163912d228f60e01b81526001600160a01b0391821660048201526024810185905291602091839160449183918c91165af19081156109e25787916116f1575b506020859160018060a01b0360075416868a8a61157883518a896101c08701519461152186613ece565b60018060a01b036040890151169760018060a01b03610160820151169a61ffff60c060a0840151930151169260018060a01b03905116946040519e8f9d8e9c8d9b8c9a6319467e2760e01b8c526004339c01613eee565b03925af180156109e2576116c2575b506008546001600160a01b031691823b156109d65760405163346dab9960e01b815260048101929092526024820185905260448201529085908290606490829084905af19081156108ad5785916116ae575b5050600554604091820151915163912d228f60e01b81526001600160a01b0392831660048201526024810193909352602091839160449183918891165af19081156102ac578391611679575b5060045491516001600160a01b03928316921690823b156108a8576040516328cdd6eb60e11b81523360048201526001600160a01b0390921660248301526044820152908290829081838160648101610804565b9250506020823d6020116116a6575b816116956020938361395d565b8101031261087c5782915138611625565b3d9150611688565b6116b790613933565b6108a85783386115d9565b6020809297503d83116116ea575b6116da818361395d565b8101031261087c57859438611587565b503d6116d0565b9650506020863d602011611721575b8161170d6020938361395d565b8101031261087c57945186959060206114f7565b3d9150611700565b6117369130903390613a36565b611469565b61174f91503d8086833e610ad0818361395d565b38611415565b503461030d57606036600319011261030d5761176f6138be565b6001600160a01b03602435818116908190036112c05760443591611791613997565b6117996142d3565b821561184b5784938160095416803b15611847576040516331b5f13d60e11b81526001600160a01b0383166004820152602481018690529086908290604490829084905af1908115610920578691611833575b5050166000805160206145b083398151915281036118245750828092819282f115611818576001805580f35b604051903d90823e3d90fd5b61182e9350613fd7565b6102a5565b61183c90613933565b61084b5784386117ec565b8580fd5b60405162461bcd60e51b815260206004820152600f60248201526e11549497d6915493d7d05353d55395608a1b6044820152606490fd5b503461030d578060031936011261030d576002546040516001600160a01b039091168152602090f35b5060a036600319011261030d576004356118c3613900565b9060443561ffff80821680920361087c576118dc613911565b936118e56139ef565b6118ee816144e9565b8560018060a01b03926024828560085416604051928380926322bc934560e11b82528b60048301525afa9081156102ac5783916119f2575b5084604061193c846080850151971680976144c5565b920151166000805160206145b083398151915281036119d9575034106119d55760209560c4945b60085416916040519889978896630b438b8960e41b885260048801526064356024880152604487015216606485015233608485015260a48401525af18015610825576119ad575080f35b602090813d81116119ce575b6119c3818361395d565b8101031261087c5780f35b503d6119b9565b5080fd5b946119ed6020989260c49730903390613a36565b611963565b611a0691503d8085833e610ad0818361395d565b38611926565b503461030d57602036600319011261030d5760043561ffff8116810361087c5761121d906144e9565b503461030d578060031936011261030d576003546001600160a01b033381831603611aa2576001600160601b0360a01b8092166003556002549133908316176002553391167f8be0079c531659141344cd1fd0a4f28419497f9722a3daafe3b4186f6b6457e0600080a380f35b60405162461bcd60e51b815260206004820152602960248201527f4f776e61626c6532537465703a2063616c6c6572206973206e6f7420746865206044820152683732bb9037bbb732b960b91b6064820152608490fd5b503461030d578060031936011261030d57611b12613997565b600380546001600160a01b03199081169091556002805491821690556000906001600160a01b03167f8be0079c531659141344cd1fd0a4f28419497f9722a3daafe3b4186f6b6457e08280a380f35b503461030d57604036600319011261030d57806024600435611b81613900565b611b896139ef565b611b92816144e9565b6008546040516322bc934560e11b815260048101849052936001600160a01b03929186918691829086165afa9384156108ad578594611c8a575b50611be360409161ffff60808701519116906144c5565b93018184818351166000805160206145b08339815191528114600014611c75575050508480858015611c6b575b8280929181923390f1156108895781611c2e915b5116843385614362565b6008541691823b156108a857604051633fa5085b60e11b815260048101929092523360248301526044820152908290829081838160648101610804565b6108fc9150611c10565b611c2e9391611c85913390613fd7565b611c24565b6040919450611ca5611be3913d8089833e610ad0818361395d565b949150611bcc565b503461030d5760a036600319011261030d57611cc76138d4565b6001600160a01b03606435818116929083900361087c57608435600481101561084b576000805160206145908339815191529360e093600160005401938460005560405194855260043560208601521660408401526044356060840152608083015260a08201524260c0820152a180f35b50604036600319011261030d57600435611d50613900565b611d586139ef565b611d61816144e9565b8260018060a01b0392836007541660405190632820036560e11b8252826004830152816024816102c09687945af192831561092057869361213c575b50508361028083015116330361210457849382611dc06101408795015142614281565b94611e0c6064670de0b6b3a7640000611e04611df4611de961ffff6080890151971680976144c5565b9560c08801516144c5565b99610bba610120880151876144b2565b0404826142a4565b611e168282614281565b84600954166040519063a001ecdd60e01b82528160048160209b8c945af1908115610f9c578a916120c8575b50611e50611e5791836144c5565b8092614281565b95856009541660408601928784511690823b156120c45760405163ef6506db60e01b81526001600160a01b039290921660048301526024820152908b908290604490829084905af19182156120b9578b86928b9461209d575b508990896007541692611ef06040519e8f968795869463094bb9f160e11b8652600486019094939260609260808301968352602083015260408201520152565b03925af1978815610fd957899861207e575b5086858251166000805160206145b0833981519152811460001461205f57505081341061205b57611f5d8793611f4e611f91985b611f42885191846142a4565b8986511691339061445e565b86806005541693511693614281565b60405163912d228f60e01b81526001600160a01b0390931660048401526024830152909485919082908a9082906044820190565b03925af1928315610920578693612026575b5060806102a060008051602061457083398151915292019483865116604051916067835242908301523360408301526060820152a1806004541692511691803b1561084b57849283608492604051968795869463875bc3d160e01b865260048601523360248601526044850152151560648401525af18015610825576108155750f35b955091508285813d8111612054575b61203f818361395d565b8101031261087c579351859490916080611fa3565b503d612035565b8880fd5b93611f4e611f919861207986611f5d959830903390613a36565b611f36565b612096919850873d8911610ab457610aa6818361395d565b9638611f02565b9092506120ab919350613933565b610f91578388918b38611eb0565b6040513d8d823e3d90fd5b8c80fd5b90508781813d83116120fd575b6120df818361395d565b81010312610f9157611e506120f6611e5792613cb2565b9150611e42565b503d6120d5565b60405162461bcd60e51b815260206004820152601060248201526f22a9292fa727aa2fa127a92927aba2a960811b6044820152606490fd5b612153929350803d1061104057611030818361395d565b903880611d9d565b50602036600319011261030d5761121d6139ef565b503461030d57606036600319011261030d5761218a6138be565b6121926138d4565b61219a6138ea565b6121a2613997565b6121aa6142d3565b60018060a01b038092816001600160601b0360a01b951685600754161760075516836008541617600855169060095416176009556001805580f35b503461030d578060031936011261030d57602060ff60035460a01c166040519015158152f35b50602036600319011261030d576122206139ef565b60085460405163c58343ef60e01b8152600480359082015282916001600160a01b03166101c082602481845afa9182156102ac578392612694575b506101a061227e8184015161226f81613ece565b61227881613ece565b156140fe565b836101008401516024604051809581936322bc934560e11b835260048301525afa918215610889578492612678575b50810151906122db6122c9604085019361ffff855116906144c5565b9261ffff6080840151915116906144c5565b916122fc6101008501518260018060a01b036101608601511691339061440a565b60408201516001600160a01b0316836000805160206145b08339815191528203612668575050848084801561265e575b8280929181923390f115610889575b61235a6101008501518460018060a01b036040860151169133906143b6565b60e0840151612372906001600160a01b031633614329565b60055461016083015160405163912d228f60e01b81526001600160a01b0391821660048201526024810184905291602091839160449183918b91165af1908115610920578691612626575b506007546101008601516101c085015186936020936001600160a01b0316918a906123e781613ece565b61244560018060a01b0360408b0151169360018060a01b036101608c015116968d608081015161ffff6060830151169160e060018060a01b0391015116938d6040519d8e9c8d9b8c9a6319467e2760e01b8c52339860048d01613f62565b03925af18015610920576125f7575b5060085482516001600160a01b0390911691823b156109d65760405163346dab9960e01b815260048101929092526024820185905260448201529085908290606490829084905af19081156108ad5785916125e3575b50506008546001600160a01b0316803b1561084b57604051636d5d42c560e11b815260048035908201523360248201529085908290604490829084905af19081156108ad5785916125cf575b5050600554604091820151915163912d228f60e01b81526001600160a01b0392831660048201526024810193909352602091839160449183918891165af19081156102ac57839161259a575b5060045460e0909201516001600160a01b03928316921690823b156108a8576040516328cdd6eb60e11b81526001600160a01b0390921660048301523360248301526044820152908290829081838160648101610804565b9250506020823d6020116125c7575b816125b66020938361395d565b8101031261087c5782915138612542565b3d91506125a9565b6125d890613933565b6108a85783386124f6565b6125ec90613933565b6108a85783386124aa565b6020809296503d831161261f575b61260f818361395d565b8101031261087c57849338612454565b503d612605565b9550506020853d602011612656575b816126426020938361395d565b8101031261087c57935185949060206123bd565b3d9150612635565b6108fc915061232c565b612673913390613fd7565b61233b565b61268d9192503d8086833e610ad0818361395d565b90386122ad565b6126b99192506101c03d6101c0116126c0575b6126b1818361395d565b810190614010565b903861225b565b503d6126a7565b5060c036600319011261030d576126dc6138be565b816126e56138ea565b916126ee613911565b6126f6613922565b6126fe6139ef565b60055460405163912d228f60e01b81526001600160a01b03858116600483015260248035908301529491602090829060449082908a908a165af1908115610920578691612a5e575b506006546040516322a0fe3360e21b815233600482015260248101929092526020908290604490829089165afa908115610920578691612a24575b50600554604051631c07d98160e21b81526001600160a01b038481166004830152891660248083019190915235604482015290602090829060649082908b908b165af19081156109e25787916129ef575b5060046020876006541660405192838092636882509b60e11b82525afa9081156129e457889161299e575b5061280f9260ff610570921690613cd4565b928685169285876000805160206145b083398151915286036129845750508434106109d657602092876101049288945b856008541691604051988997889663486c386960e11b885216600487015260248601528960448601526024356064860152606435608486015261ffff80921660a48601521660c48401523360e48401525af1801561088957612955575b5060055460405163912d228f60e01b81526001600160a01b03959095166004860152602485019190915291929160209083906044908290879086165af19182156102ac57839261291e575b5060045416803b15610830576040516363a6c98160e01b815233600482015260248101929092528290829081838160448101610804565b925090506020823d60201161294d575b8161293b6020938361395d565b8101031261087c5782915190386128e7565b3d915061292e565b6020809294503d831161297d575b61296d818361395d565b8101031261087c5783913861289c565b503d612963565b6101049260209592946129998930338b613a36565b61283f565b90506020813d6020116129dc575b816129b96020938361395d565b810103126112bc5761280f9260ff6129d361057093613cc6565b925050926127fd565b3d91506129ac565b6040513d8a823e3d90fd5b9650506020863d602011612a1c575b81612a0b6020938361395d565b8101031261087c57879551386127d2565b3d91506129fe565b90506020813d602011612a56575b81612a3f6020938361395d565b8101031261184757612a5090613cb2565b38612781565b3d9150612a32565b9550506020853d602011612a8e575b81612a7a6020938361395d565b8101031261087c5793518694906020612746565b3d9150612a6d565b503461030d578060031936011261030d57602060405160028152f35b503461030d57602036600319011261030d57612acc6139ef565b60085460405163c58343ef60e01b8152600480359082015282916001600160a01b03166101c082602481845afa9182156102ac578392612e3f575b50612b2b60016101a0840151612b1c81613ece565b612b2581613ece565b146140fe565b826101008301516024604051809481936322bc934560e11b835260048301525afa9081156102ac578391612e25575b50612b72608082015161ffff604085015116906144c5565b61010083015160e0840151610140850151610120860151939493612ba5936001600160a01b03918216939091169061440a565b81602060018060a01b0360075416610100860151906101c0850151612bc981613ece565b8860018060a01b0360408801511691612c3660018060a01b036101208c015116956101408c0151898d61016081015160808201519061ffff6060840151169260e060018060a01b0391015116946040519e8f9d8e9c8d9b8c9a6319467e2760e01b8c526004339c01613eee565b03925af180156108ad57612df6575b5060e0830151612c5e906001600160a01b031633614329565b60018060a01b0360085416610100840151813b15611847578591604483926040519485938492630a5ff10960e41b845260048401528860248401525af19081156108ad578591612de2575b50506008546001600160a01b0316803b1561084b57604051636d5d42c560e11b815260048035908201523360248201529085908290604490829084905af19081156108ad578591612dce575b5050600554604091820151915163912d228f60e01b81526001600160a01b0392831660048201526024810193909352602091839160449183918891165af19081156102ac578391612d99575b5060045460e0909201516001600160a01b03928316921690823b156108a8576040516328cdd6eb60e11b81523360048201526001600160a01b0390921660248301526044820152908290829081838160648101610804565b9250506020823d602011612dc6575b81612db56020938361395d565b8101031261087c5782915138612d41565b3d9150612da8565b612dd790613933565b6108a8578338612cf5565b612deb90613933565b6108a8578338612ca9565b6020809295503d8311612e1e575b612e0e818361395d565b8101031261087c57839238612c45565b503d612e04565b612e3991503d8085833e610ad0818361395d565b38612b5a565b612e5b9192506101c03d6101c0116126c0576126b1818361395d565b9038612b07565b503461030d578060031936011261030d57602060405160678152f35b503461030d57602036600319011261030d5780600435612e9c6139ef565b60085460405163c58343ef60e01b8152600481018390526001600160a01b03916101c091908316908281602481855afa928315610920578693613042575b5050846101008301516024604051809481936322bc934560e11b835260048301525afa9081156108ad57859284918493613026575b506101a0810151612f1f81613ece565b612f2881613ece565b612fc457612f4560409161ffff83608087015192015116906144c5565b920151166000805160206145b08339815191528103612fb3575081808092818115612faa575b3390f115610825575b60085416803b1561083057604051639498506560e01b815260048101929092523360248301528290829081838160448101610804565b506108fc612f6b565b612fbf92503390613fd7565b612f74565b929150610120830151166000805160206145b08339815191528114600014613013575080806101408194015181811561300a575b3390f1612f74576040513d84823e3d90fd5b506108fc612ff8565b9050610140612fbf920151903390613fd7565b61303b9193503d8086833e610ad0818361395d565b9138612f0f565b613059929350803d106126c0576126b1818361395d565b903880612eda565b503461030d578060031936011261030d5760206040516000805160206145b08339815191528152f35b503461030d57602036600319011261030d576004356130a76139ef565b6008546001600160a01b03919083908316803b156119d55760405163774d3df560e01b8152600481018490523360248201529082908290604490829084905af180156108255761317d575b505081600854169160405192839263c58343ef60e01b845260048401528260246101c09586935afa928315610889576000805160206145708339815191529360809360e0928792613160575b505001511660405190606582524260208301523360408301526060820152a180f35b6131769250803d106126c0576126b1818361395d565b388061313e565b61318690613933565b6131915782386130f2565b8280fd5b5060c036600319011261030d57806004356131ae613900565b906131b76138ea565b916131c0613911565b916131c9613922565b916131d26139ef565b6131db816144e9565b6008546040516322bc934560e11b8152600481018490526001600160a01b039590949186169390918886602481885afa948515610fd957613258968a96613653575b50604051633970062960e01b8152600481018490526001600160a01b038a1660248201526020979091889183919082908e9082906044820190565b03925af18015610f9c57613272918b9161363c5750613e82565b608085015161ffff8516613285916144c5565b60055460409687018051975163912d228f60e01b808252988b166001600160a01b031660048201526024810184905290959291899082908c16818f816044810103925af1908115613586578c91613609575b506006546040516322a0fe3360e21b815233600482015260248101929092529091908990839060449082908e165afa958615613586578b8d8b9481996135c4575b506005549251604051631c07d98160e21b81526001600160a01b03918f1682166004820152921660248301526044820193909352929183918c1690829081606481015b03925af19081156120b9578b91613591575b50600490888a6006541660405193848092636882509b60e11b82525afa918215613586578c92613547575b5061057060ff6133a9931687613cd4565b93888a16968b6000805160206145b08339815191528914600014613533575034861061352f578b9a89915b6005546040519182526001600160a01b03929092166004820152602481018890529b8c9160449183918e165af1998a156120b9578b9a6134ef575b509088889695949392816008541695604051998a98633bb1374b60e01b8a5261ffff1660048a0152602489015260448801528b606488015216608486015260643560a486015261ffff1660c485015261ffff1660e48401523361010484015261012483015281885a9261014493f180156108ad576134c0575b505060045416803b15610830576040516363a6c98160e01b815233600482015260248101929092528290829081838160448101610804565b90809294503d83116134e8575b6134d7818361395d565b8101031261087c5782913880613488565b503d6134cd565b919a509850939291908685813d8111613528575b61350d818361395d565b8101031261087c578a99888896519a9192939495965061340f565b503d613503565b8b80fd5b9a89916135428830338d613a36565b6133d4565b91508882813d831161357f575b61355e818361395d565b8101031261352f5761057060ff6135776133a994613cc6565b935050613398565b503d613554565b6040513d8e823e3d90fd5b809b50888092503d83116135bd575b6135aa818361395d565b8101031261087c5760048b9a519061336d565b503d6135a0565b93985050509181813d8311613602575b6135de818361395d565b8101031261352f578b9561335b928c6135f78c94613cb2565b989091929394613318565b503d6135d4565b80929c50898092503d8311613635575b613623818361395d565b8101031261087c57518b9a90886132d7565b503d613619565b610aae9150883d8a11610ab457610aa6818361395d565b6136689196503d808c833e610ad0818361395d565b943861321d565b503461030d57602036600319011261030d576136896142d3565b6136916139ef565b600754604051630c4d25bb60e11b81526004803590820152336024820152906001600160a01b03906060908390831681868160448101610252565b503461030d57604036600319011261030d576004358160246136ec613900565b6136f46139ef565b6136fd816144e9565b6008546040516322bc934560e11b815260048101869052926001600160a01b03929185918591829086165afa92831561088957849361380a575b506137506101609161ffff6101a08601519116906144c5565b92018183818351166000805160206145b083398151915281146000146137f55750505083808480156137eb575b8280929181923390f1156102ac578161379b915b5116833387614362565b60085416803b156131915760405163021d5b1160e11b8152600481019490945233602485015260448401919091528290606490829084905af18015610825576137e2575080f35b61121d90613933565b6108fc915061377d565b61379b9391613805913390613fd7565b613791565b610160919350613826613750913d8088833e610ad0818361395d565b939150613737565b503461030d57606036600319011261030d576138486138be565b6138506138d4565b6138586138ea565b613860613997565b6138686142d3565b60018060a01b038092816001600160601b0360a01b951685600654161760065516836004541617600455169060055416176005556001805580f35b9050346119d557816003193601126119d55780606560209252f35b600435906001600160a01b038216820361087c57565b602435906001600160a01b038216820361087c57565b604435906001600160a01b038216820361087c57565b6024359061ffff8216820361087c57565b6084359061ffff8216820361087c57565b60a4359061ffff8216820361087c57565b67ffffffffffffffff811161394757604052565b634e487b7160e01b600052604160045260246000fd5b90601f8019910116810190811067ffffffffffffffff82111761394757604052565b67ffffffffffffffff81116139475760051b60200190565b6002546001600160a01b031633036139ab57565b606460405162461bcd60e51b815260206004820152602060248201527f4f776e61626c653a2063616c6c6572206973206e6f7420746865206f776e65726044820152fd5b60ff60035460a01c166139fe57565b60405162461bcd60e51b815260206004820152601060248201526f14185d5cd8589b194e881c185d5cd95960821b6044820152606490fd5b6040516323b872dd60e01b60208201526001600160a01b0392831660248201529290911660448301526064820192909252613a8791613a8282608481015b03601f19810184528361395d565b613aa1565b565b9081602091031261087c5751801515810361087c5790565b6040805167ffffffffffffffff94936001600160a01b03909316929091820185811183821017613947576040526020928383527f5361666545524332303a206c6f772d6c6576656c2063616c6c206661696c6564848401526000808386829551910182855af1903d15613bd1573d968711613bbd57613b4194959660405190613b3388601f19601f840116018361395d565b81528093873d92013e613bde565b80519081613b4e57505050565b8280613b5e938301019101613a89565b15613b665750565b6084906040519062461bcd60e51b82526004820152602a60248201527f5361666545524332303a204552433230206f7065726174696f6e20646964206e6044820152691bdd081cdd58d8d9595960b21b6064820152fd5b634e487b7160e01b83526041600452602483fd5b9150613b41939495506060915b91929015613c405750815115613bf2575090565b3b15613bfb5790565b60405162461bcd60e51b815260206004820152601d60248201527f416464726573733a2063616c6c20746f206e6f6e2d636f6e74726163740000006044820152606490fd5b825190915015613c535750805190602001fd5b6040519062461bcd60e51b82528160208060048301528251908160248401526000935b828510613c99575050604492506000838284010152601f80199101168101030190fd5b8481018201518686016044015293810193859350613c76565b51906001600160a01b038216820361087c57565b519060ff8216820361087c57565b6001600160a01b0391821691908215613cec57160490565b634e487b7160e01b600052601260045260246000fd5b519061ffff8216820361087c57565b602091828282031261087c57815167ffffffffffffffff9283821161087c5701916101e093848484031261087c5760405194850185811083821117613947576040528351855280840151600281101561087c5781860152613d7460408501613cb2565b6040860152606084015160608601526080840151608086015260a084015160a0860152613da360c08501613d02565b60c086015260e084015160e08601526101008085015190860152610120613dcb818601613cb2565b90860152610140918285015190811161087c5784019280601f8501121561087c578351613df78161397f565b94613e05604051968761395d565b818652838087019260051b82010192831161087c578301905b828210613e6b5750505050830152610160613e3a818301613cb2565b9083015261018080820151908301526101a080820151908301526101c08091015190600282101561087c5782015290565b838091613e7784613cb2565b815201910190613e1e565b15613e8957565b60405162461bcd60e51b815260206004820152601c60248201527f4552525f434f4c4c41544552414c5f4e4f545f535550504f52544544000000006044820152606490fd5b60021115613ed857565b634e487b7160e01b600052602160045260246000fd5b9a96928b98949a96929d9c9995919d6101808a019e8a52613f0e81613ece565b60208a0152600160a01b600190039a8b998a80931690604001521660608c015260808b015260a08a015260c089015260e088015261ffff166101008701526101208601521661014084015216906101600152565b9995919b9a97939894909b9692966101808b019c8b52613f8181613ece565b60208b0152600160a01b6001900380998180991660408d01521660608b015260808a015260a089015260c088015260e087015261ffff166101008601526101208501600090521661014084015216906101600152565b60405163a9059cbb60e01b60208201526001600160a01b0390921660248301526044820192909252613a8791613a828260648101613a74565b80916101c0928391031261087c5760405191820182811067ffffffffffffffff82111761394757604052805182526020810151600481101561087c57602083015261405d60408201613d02565b604083015261406e60608201613d02565b60608301526080810151608083015260a081015160a083015260c081015160c083015261409d60e08201613cb2565b60e083015261010080820151908301526101206140bb818301613cb2565b90830152610140808201519083015261016080820151908301526101806140e3818301613cb2565b908301526101a08091015190600282101561087c5782015290565b1561410557565b60405162461bcd60e51b815260206004820152601060248201526f4552525f524551554553545f5459504560801b6044820152606490fd5b80916102c0928391031261087c5760405191820182811067ffffffffffffffff82111761394757604052805182526020810151600481101561087c57602083015261418a60408201613cb2565b604083015261419b60608201613cb2565b60608301526080810151608083015260a081015160a083015260c081015160c083015260e081015160e08301526101008082015190830152610120808201519083015261014080820151908301526101608082015190830152610180614202818301613d02565b908301526101a0614214818301613cc6565b908301526101c080820151908301526101e080820151908301526102008082015190830152610220808201519083015261024080820151908301526102608082015190830152610280614268818301613cb2565b9083015261427a6102a0809201613cb2565b9082015290565b9190820391821161428e57565b634e487b7160e01b600052601160045260246000fd5b9190820180921161428e57565b9081606091031261087c578051916142d0604060208401519301613cb2565b90565b6002600154146142e4576002600155565b60405162461bcd60e51b815260206004820152601f60248201527f5265656e7472616e637947756172643a207265656e7472616e742063616c6c006044820152606490fd5b60008051602061457083398151915291608091604051916064835242602084015260018060a01b038092166040840152166060820152a1565b906000805160206145908339815191529360e0936001600054019384600055604051948552602085015260018060a01b0380931660408501526060840152166080820152600360a08201524260c0820152a1565b906000805160206145908339815191529360e0936001600054019384600055604051948552602085015260018060a01b0380931660408501526060840152166080820152600160a08201524260c0820152a1565b906000805160206145908339815191529360e0936001600054019384600055604051948552602085015260018060a01b0380931660408501526060840152166080820152600260a08201524260c0820152a1565b906000805160206145908339815191529360e0936001600054019384600055604051948552602085015260018060a01b0380931660408501526060840152166080820152600060a08201524260c0820152a1565b8181029291811591840414171561428e57565b906001600160a01b031680156144e5576144e1906064926144b2565b0490565b5090565b61ffff8091166064811161453857601990061661450257565b60405162461bcd60e51b815260206004820152600e60248201526d4552525f50455243454e5441474560901b6044820152606490fd5b60405162461bcd60e51b815260206004820152600f60248201526e4f5645525f50455243454e5441474560881b6044820152606490fdfe1d2c8eebe52407185ce804ee2979830eb94e9dac3a2679eae9c0e505f35c0b281b89f92faead76d76eeb15b01f4ca1cff0fcbad53196805a290812426389ea7e000000000000000000000000eeeeeeeeeeeeeeeeeeeeeeeeeeeeeeeeeeeeeeeea264697066735822122062cd112aa833145dcbfe8d0270c74dfb654ca19df1f6ca7686d7c334efb11a1864736f6c63430008110033",
  "immutableReferences": {},
  "source": "// SPDX-License-Identifier: MIT\r\npragma solidity ^0.8.17;\r\n\r\nimport \"./LendingPoolProvider.sol\";\r\n\r\nimport \"./libraries/Errors.sol\";\r\n\r\nimport \"./math/SimpleInterest.sol\";\r\n\r\nimport \"./interfaces/IPriceFeed.sol\";\r\nimport \"./interfaces/IFeeManager.sol\";\r\nimport \"./interfaces/IOfferManager.sol\";\r\nimport \"./interfaces/ILoanManager.sol\";\r\nimport \"./interfaces/ILoanToValueRatio.sol\";\r\nimport \"./interfaces/IActivity.sol\";\r\n\r\nimport \"@openzeppelin/contracts/utils/Context.sol\";\r\nimport \"@openzeppelin/contracts/token/ERC20/ERC20.sol\";\r\nimport \"@openzeppelin/contracts/token/ERC20/utils/SafeERC20.sol\";\r\nimport \"@openzeppelin/contracts/security/ReentrancyGuard.sol\";\r\nimport \"@openzeppelin/contracts/access/Ownable2Step.sol\";\r\nimport \"@openzeppelin/contracts/security/Pausable.sol\";\r\nimport \"@openzeppelin/contracts/utils/math/SafeMath.sol\";\r\n\r\n/**\r\n * @title LendingPool contract\r\n * @dev Main point of interaction with the DARSH protocol's market\r\n * - Users can:\r\n *   # Create Lending/Borrowing offers\r\n *   # Request for new terms on offers\r\n *   # Repay (Fully/Installment)\r\n *   # Claim principal and earnings\r\n *   # Claim back collateral\r\n *   # Cancel/Reject/Accept requests\r\n * - All admin functions are callable by the deployer address\r\n * @author Arogundade Ibrahim\r\n **/\r\ncontract LendingPool is\r\n    LendingPoolProvider,\r\n    Context,\r\n    ReentrancyGuard,\r\n    SimpleInterest,\r\n    Ownable2Step,\r\n    Pausable\r\n{\r\n    using SafeMath for uint256;\r\n    using SafeERC20 for ERC20;\r\n\r\n    /// @dev contract version\r\n    uint256 public constant LENDINGPOOL_VERSION = 0x2;\r\n\r\n    IActivity private _activity;\r\n    IPriceFeed private _priceFeed;\r\n    ILoanToValueRatio private _ltvRatio;\r\n    ILoanManager private _loanManager;\r\n    IOfferManager private _offerManager;\r\n    IFeeManager private _feeManager;\r\n\r\n    /// @dev for convienency this address is used to represent FTM just like ERC20\r\n    address public constant nativeAddress =\r\n        0xEeeeeEeeeEeEeeEeEeEeeEEEeeeeEeeeeeeeEEeE;\r\n\r\n    constructor() ReentrancyGuard() Ownable2Step() {}\r\n\r\n    // ============= Create Lending / Borrowing Offer ============ //\r\n\r\n    /// @notice This function creates a new lending offer\r\n    /// @dev the principalAmount_ parameter is use for ERC20 tokens only\r\n    function createLendingOffer(\r\n        uint256 principalAmount_,\r\n        address principalToken,\r\n        address[] memory collateralTokens,\r\n        uint16 daysToMaturity,\r\n        uint256 interestRate,\r\n        uint16 daysToExpire\r\n    ) public payable whenNotPaused {\r\n        uint256 principalAmount;\r\n\r\n        /* extract tokens from lender */\r\n        if (principalToken == nativeAddress) {\r\n            principalAmount = msg.value;\r\n        } else {\r\n            principalAmount = principalAmount_;\r\n            ERC20(principalToken).safeTransferFrom(\r\n                _msgSender(),\r\n                address(this),\r\n                principalAmount\r\n            );\r\n        }\r\n\r\n        /* create the lending offer */\r\n        uint256 offerId = _offerManager.createLendingOffer(\r\n            principalToken,\r\n            principalAmount,\r\n            interestRate,\r\n            daysToMaturity,\r\n            daysToExpire,\r\n            collateralTokens,\r\n            _msgSender()\r\n        );\r\n\r\n        transfer(\r\n            offerId,\r\n            _msgSender(),\r\n            principalAmount,\r\n            principalToken,\r\n            Type.ADDED\r\n        );\r\n    }\r\n\r\n    /// @notice This function creates a new borrowing offer\r\n    function createBorrowingOffer(\r\n        address principalToken,\r\n        uint256 principalAmount,\r\n        address collateralToken,\r\n        uint256 interestRate,\r\n        uint16 daysToMaturity,\r\n        uint16 hoursToExpire\r\n    ) public payable whenNotPaused {\r\n        uint256 principalAmountInUSD = _priceFeed.amountInUSD(\r\n            principalToken,\r\n            principalAmount\r\n        );\r\n\r\n        uint160 ltvRatio = _ltvRatio.getRelativeLTV(\r\n            _msgSender(),\r\n            principalAmountInUSD\r\n        );\r\n\r\n        uint256 collateralNormalAmount = _priceFeed.exchangeRate(\r\n            principalToken,\r\n            collateralToken,\r\n            principalAmount\r\n        );\r\n\r\n        uint256 collateralAmount = percentageOf(\r\n            collateralNormalAmount,\r\n            ltvRatio / _ltvRatio.getBase()\r\n        );\r\n\r\n        if (collateralToken == nativeAddress) {\r\n            require(msg.value >= collateralAmount);\r\n        } else {\r\n            ERC20(collateralToken).safeTransferFrom(\r\n                _msgSender(),\r\n                address(this),\r\n                collateralAmount\r\n            );\r\n        }\r\n\r\n        _offerManager.createBorrowingOffer(\r\n            principalToken,\r\n            collateralToken,\r\n            collateralAmount,\r\n            principalAmount,\r\n            interestRate,\r\n            daysToMaturity,\r\n            hoursToExpire,\r\n            _msgSender()\r\n        );\r\n\r\n        uint256 amountInUSD = _priceFeed.amountInUSD(\r\n            collateralToken,\r\n            collateralAmount\r\n        );\r\n\r\n        _activity.dropCollateral(_msgSender(), amountInUSD);\r\n    }\r\n\r\n    // ============ Create Lending / Borrowing Request ============= //\r\n\r\n    /// @notice This function creates a new lending request on a borrowing offer\r\n    function createLendingRequest(\r\n        uint256 offerId,\r\n        uint16 percentage,\r\n        uint16 daysToMaturity,\r\n        uint256 interestRate,\r\n        uint16 hoursToExpire\r\n    ) public payable whenNotPaused {\r\n        checkPercentage(percentage);\r\n\r\n        OfferLibrary.Offer memory offer = _offerManager.getOffer(offerId);\r\n\r\n        uint256 principalAmount = percentageOf(\r\n            offer.initialPrincipal,\r\n            percentage\r\n        );\r\n\r\n        if (offer.principalToken == nativeAddress) {\r\n            require(msg.value >= principalAmount);\r\n        } else {\r\n            ERC20(offer.principalToken).safeTransferFrom(\r\n                _msgSender(),\r\n                address(this),\r\n                principalAmount\r\n            );\r\n        }\r\n\r\n        /* create the lending request */\r\n        _offerManager.createLendingRequest(\r\n            percentage,\r\n            interestRate,\r\n            daysToMaturity,\r\n            hoursToExpire,\r\n            _msgSender(),\r\n            offerId\r\n        );\r\n    }\r\n\r\n    /// @notice This function creates a new borrowing request on a lending offer\r\n    function createBorrowingRequest(\r\n        uint256 offerId,\r\n        uint16 percentage,\r\n        address collateralToken,\r\n        uint256 interestRate,\r\n        uint16 daysToMaturity,\r\n        uint16 hoursToExpire\r\n    ) public payable whenNotPaused {\r\n        checkPercentage(percentage);\r\n\r\n        OfferLibrary.Offer memory offer = _offerManager.getOffer(offerId);\r\n\r\n        require(\r\n            _offerManager.isCollateralSupported(offerId, collateralToken),\r\n            \"ERR_COLLATERAL_NOT_SUPPORTED\"\r\n        );\r\n\r\n        uint256 principalAmount = percentageOf(\r\n            offer.initialPrincipal,\r\n            percentage\r\n        );\r\n\r\n        uint256 principalPriceInUSD = _priceFeed.amountInUSD(\r\n            offer.principalToken,\r\n            principalAmount\r\n        );\r\n\r\n        uint160 ltvRatio = _ltvRatio.getRelativeLTV(\r\n            _msgSender(),\r\n            principalPriceInUSD\r\n        );\r\n\r\n        uint256 collateralNormalAmount = _priceFeed.exchangeRate(\r\n            offer.principalToken,\r\n            collateralToken,\r\n            principalAmount\r\n        );\r\n\r\n        uint256 collateralAmount = percentageOf(\r\n            collateralNormalAmount,\r\n            ltvRatio / _ltvRatio.getBase()\r\n        );\r\n\r\n        if (collateralToken == nativeAddress) {\r\n            require(collateralAmount >= msg.value);\r\n        } else {\r\n            ERC20(collateralToken).safeTransferFrom(\r\n                _msgSender(),\r\n                address(this),\r\n                collateralAmount\r\n            );\r\n        }\r\n\r\n        uint256 collateralPriceInUSD = _priceFeed.amountInUSD(\r\n            collateralToken,\r\n            collateralAmount\r\n        );\r\n\r\n        _offerManager.createBorrowingRequest(\r\n            percentage,\r\n            collateralToken,\r\n            collateralAmount,\r\n            collateralPriceInUSD,\r\n            ltvRatio,\r\n            interestRate,\r\n            daysToMaturity,\r\n            hoursToExpire,\r\n            _msgSender(),\r\n            offerId\r\n        );\r\n\r\n        _activity.dropCollateral(_msgSender(), collateralPriceInUSD);\r\n    }\r\n\r\n    // ============ Accept Lending / Borrowing Offer =============== //\r\n\r\n    /// @notice This function accepts a borrowing offer | LEND\r\n    /// @dev The percentage params specifies the portion of the offer to accept\r\n    function acceptBorrowingOffer(uint256 offerId, uint16 percentage)\r\n        public\r\n        payable\r\n        whenNotPaused\r\n    {\r\n        checkPercentage(percentage);\r\n\r\n        OfferLibrary.Offer memory offer = _offerManager.getOffer(offerId);\r\n\r\n        uint256 collateralAmount = percentageOf(\r\n            offer.initialCollateral,\r\n            percentage\r\n        );\r\n\r\n        uint256 principalAmount = percentageOf(\r\n            offer.initialPrincipal,\r\n            percentage\r\n        );\r\n\r\n        if (offer.principalToken == nativeAddress) {\r\n            require(msg.value >= principalAmount);\r\n        } else {\r\n            ERC20(offer.principalToken).safeTransferFrom(\r\n                _msgSender(),\r\n                address(this),\r\n                principalAmount\r\n            );\r\n        }\r\n\r\n        transfer(\r\n            offerId,\r\n            _msgSender(),\r\n            principalAmount,\r\n            offer.principalToken,\r\n            Type.ADDED\r\n        );\r\n\r\n        transfer(\r\n            offerId,\r\n            offer.creator,\r\n            collateralAmount,\r\n            offer.collateralToken,\r\n            Type.LOCKED\r\n        );\r\n\r\n        uint256 collateralPriceInUSD = _priceFeed.amountInUSD(\r\n            offer.collateralToken,\r\n            collateralAmount\r\n        );\r\n\r\n        _loanManager.createLoan(\r\n            offer.offerId,\r\n            offer.offerType,\r\n            offer.principalToken,\r\n            offer.collateralToken,\r\n            principalAmount,\r\n            collateralAmount,\r\n            collateralPriceInUSD,\r\n            offer.interestRate,\r\n            offer.daysToMaturity,\r\n            principalAmount,\r\n            offer.creator,\r\n            _msgSender()\r\n        );\r\n\r\n        _offerManager.afterBorrowingLoan(\r\n            offerId,\r\n            principalAmount,\r\n            collateralAmount\r\n        );\r\n\r\n        uint256 borrowedAmountInUSD = _priceFeed.amountInUSD(\r\n            offer.principalToken,\r\n            principalAmount\r\n        );\r\n\r\n        _activity.borrowLoan(_msgSender(), offer.creator, borrowedAmountInUSD);\r\n    }\r\n\r\n    /// @notice This function accepts a lending offer | BORROW\r\n    /// @dev The percentage params specifies the portion of the offer to accept\r\n    function acceptLendingOffer(\r\n        uint256 offerId,\r\n        uint16 percentage,\r\n        address collateralToken\r\n    ) public payable whenNotPaused {\r\n        checkPercentage(percentage);\r\n\r\n        OfferLibrary.Offer memory offer = _offerManager.getOffer(offerId);\r\n\r\n        require(\r\n            _offerManager.isCollateralSupported(offerId, collateralToken),\r\n            \"ERR_COLLATERAL_NOT_SUPPORTED\"\r\n        );\r\n\r\n        uint256 principalAmount = percentageOf(\r\n            offer.initialPrincipal,\r\n            percentage\r\n        );\r\n\r\n        uint256 principalPriceInUSD = _priceFeed.amountInUSD(\r\n            offer.principalToken,\r\n            principalAmount\r\n        );\r\n\r\n        uint160 ltvRatio = _ltvRatio.getRelativeLTV(\r\n            _msgSender(),\r\n            principalPriceInUSD\r\n        );\r\n\r\n        /* calculate the collateral amount */\r\n        uint256 collateralNormalAmount = _priceFeed.exchangeRate(\r\n            offer.principalToken,\r\n            collateralToken,\r\n            principalAmount\r\n        );\r\n\r\n        uint256 collateralAmount = percentageOf(\r\n            collateralNormalAmount,\r\n            ltvRatio / _ltvRatio.getBase()\r\n        );\r\n\r\n        if (collateralToken == nativeAddress) {\r\n            require(collateralAmount >= msg.value, \"ERR_COLLATERAL_AMOUNT\");\r\n        } else {\r\n            ERC20(collateralToken).safeTransferFrom(\r\n                _msgSender(),\r\n                address(this),\r\n                collateralAmount\r\n            );\r\n        }\r\n\r\n        transfer(\r\n            offerId,\r\n            _msgSender(),\r\n            collateralAmount,\r\n            collateralToken,\r\n            Type.LOCKED\r\n        );\r\n\r\n        if (offer.principalToken == nativeAddress) {\r\n            payable(_msgSender()).transfer(principalAmount);\r\n        } else {\r\n            ERC20(offer.principalToken).safeTransfer(\r\n                _msgSender(),\r\n                principalAmount\r\n            );\r\n        }\r\n\r\n        transfer(\r\n            offerId,\r\n            _msgSender(),\r\n            principalAmount,\r\n            offer.principalToken,\r\n            Type.CLAIMED\r\n        );\r\n\r\n        uint256 collateralPriceInUSD = _priceFeed.amountInUSD(\r\n            collateralToken,\r\n            collateralAmount\r\n        );\r\n\r\n        _loanManager.createLoan(\r\n            offerId,\r\n            offer.offerType,\r\n            offer.principalToken,\r\n            collateralToken,\r\n            principalAmount,\r\n            collateralAmount,\r\n            collateralPriceInUSD,\r\n            offer.interestRate,\r\n            offer.daysToMaturity,\r\n            0,\r\n            _msgSender(),\r\n            offer.creator\r\n        );\r\n\r\n        _offerManager.afterLendingLoan(offerId, principalAmount);\r\n\r\n        uint256 amountBorrowedInUSD = _priceFeed.amountInUSD(\r\n            offer.principalToken,\r\n            principalAmount\r\n        );\r\n\r\n        _activity.borrowLoan(offer.creator, _msgSender(), amountBorrowedInUSD);\r\n\r\n        _activity.dropCollateral(_msgSender(), collateralPriceInUSD);\r\n    }\r\n\r\n    // =========== Withdraw From Offer ============== //\r\n    function removePrincipal(uint256 offerId, uint16 percentage)\r\n        public\r\n        whenNotPaused\r\n    {\r\n        checkPercentage(percentage);\r\n        OfferLibrary.Offer memory offer = _offerManager.getOffer(offerId);\r\n\r\n        uint256 principalAmount = percentageOf(\r\n            offer.initialPrincipal,\r\n            percentage\r\n        );\r\n\r\n        if (offer.principalToken == nativeAddress) {\r\n            payable(_msgSender()).transfer(principalAmount);\r\n        } else {\r\n            ERC20(offer.principalToken).safeTransfer(\r\n                _msgSender(),\r\n                principalAmount\r\n            );\r\n        }\r\n\r\n        transfer(\r\n            offerId,\r\n            _msgSender(),\r\n            principalAmount,\r\n            offer.principalToken,\r\n            Type.REMOVED\r\n        );\r\n\r\n        _offerManager.removePrincipal(offerId, _msgSender(), principalAmount);\r\n    }\r\n\r\n    function removeCollateral(uint256 offerId, uint16 percentage)\r\n        public\r\n        whenNotPaused\r\n    {\r\n        checkPercentage(percentage);\r\n        OfferLibrary.Offer memory offer = _offerManager.getOffer(offerId);\r\n\r\n        uint256 collateralAmount = percentageOf(\r\n            offer.initialCollateral,\r\n            percentage\r\n        );\r\n\r\n        if (offer.collateralToken == nativeAddress) {\r\n            payable(_msgSender()).transfer(collateralAmount);\r\n        } else {\r\n            ERC20(offer.collateralToken).safeTransfer(\r\n                _msgSender(),\r\n                collateralAmount\r\n            );\r\n        }\r\n\r\n        transfer(\r\n            offerId,\r\n            _msgSender(),\r\n            collateralAmount,\r\n            offer.collateralToken,\r\n            Type.REMOVED\r\n        );\r\n\r\n        _offerManager.removeCollateral(offerId, _msgSender(), collateralAmount);\r\n    }\r\n\r\n    // ============ Accept Lending / Borrowing Request =============== //\r\n\r\n    /// @notice This funcion accepts a borrowing request placed on a lender's offer\r\n    function acceptBorrowingRequest(uint256 requestId) public whenNotPaused {\r\n        RequestLibrary.Request memory request = _offerManager.getRequest(\r\n            requestId\r\n        );\r\n\r\n        require(\r\n            request.requestType == RequestLibrary.Type.BORROWING_REQUEST,\r\n            \"ERR_REQUEST_TYPE\"\r\n        );\r\n\r\n        OfferLibrary.Offer memory offer = _offerManager.getOffer(\r\n            request.offerId\r\n        );\r\n\r\n        uint256 principalAmount = percentageOf(\r\n            offer.initialPrincipal,\r\n            request.percentage\r\n        );\r\n\r\n        transfer(\r\n            request.offerId,\r\n            request.creator,\r\n            request.collateralAmount,\r\n            request.collateralToken,\r\n            Type.LOCKED\r\n        );\r\n\r\n        _loanManager.createLoan(\r\n            request.offerId,\r\n            offer.offerType,\r\n            offer.principalToken,\r\n            request.collateralToken,\r\n            principalAmount,\r\n            request.collateralAmount,\r\n            request.collateralPriceInUSD,\r\n            request.interestRate,\r\n            request.daysToMaturity,\r\n            principalAmount,\r\n            request.creator,\r\n            _msgSender()\r\n        );\r\n\r\n        notify(_msgSender(), request.creator, ACCEPT_REQUEST);\r\n\r\n        _offerManager.afterLendingLoan(request.offerId, principalAmount);\r\n        _offerManager.acceptRequest(requestId, _msgSender());\r\n\r\n        uint256 amountBorrowedInUSD = _priceFeed.amountInUSD(\r\n            offer.principalToken,\r\n            principalAmount\r\n        );\r\n\r\n        _activity.borrowLoan(\r\n            _msgSender(),\r\n            request.creator,\r\n            amountBorrowedInUSD\r\n        );\r\n    }\r\n\r\n    /// @notice This funcion accepts a lending request placed on a borrower's offer\r\n    function acceptLendingRequest(uint256 requestId)\r\n        public\r\n        payable\r\n        whenNotPaused\r\n    {\r\n        RequestLibrary.Request memory request = _offerManager.getRequest(\r\n            requestId\r\n        );\r\n\r\n        require(\r\n            request.requestType == RequestLibrary.Type.LENDING_REQUEST,\r\n            \"ERR_REQUEST_TYPE\"\r\n        );\r\n\r\n        OfferLibrary.Offer memory offer = _offerManager.getOffer(\r\n            request.offerId\r\n        );\r\n\r\n        uint256 collateralAmount = percentageOf(\r\n            offer.initialCollateral,\r\n            request.percentage\r\n        );\r\n\r\n        uint256 principalAmount = percentageOf(\r\n            offer.initialPrincipal,\r\n            request.percentage\r\n        );\r\n\r\n        transfer(\r\n            request.offerId,\r\n            _msgSender(),\r\n            collateralAmount,\r\n            offer.collateralToken,\r\n            Type.LOCKED\r\n        );\r\n\r\n        if (offer.principalToken == nativeAddress) {\r\n            payable(_msgSender()).transfer(principalAmount);\r\n        } else {\r\n            ERC20(offer.principalToken).safeTransfer(\r\n                _msgSender(),\r\n                principalAmount\r\n            );\r\n        }\r\n\r\n        transfer(\r\n            request.offerId,\r\n            _msgSender(),\r\n            principalAmount,\r\n            offer.principalToken,\r\n            Type.CLAIMED\r\n        );\r\n\r\n        notify(_msgSender(), request.creator, ACCEPT_REQUEST);\r\n\r\n        uint256 collateralPriceInUSD = _priceFeed.amountInUSD(\r\n            offer.collateralToken,\r\n            collateralAmount\r\n        );\r\n\r\n        _loanManager.createLoan(\r\n            request.offerId,\r\n            offer.offerType,\r\n            offer.principalToken,\r\n            offer.collateralToken,\r\n            principalAmount,\r\n            collateralAmount,\r\n            collateralPriceInUSD,\r\n            request.interestRate,\r\n            request.daysToMaturity,\r\n            0,\r\n            _msgSender(),\r\n            request.creator\r\n        );\r\n\r\n        _offerManager.afterBorrowingLoan(\r\n            offer.offerId,\r\n            principalAmount,\r\n            collateralAmount\r\n        );\r\n\r\n        _offerManager.acceptRequest(requestId, _msgSender());\r\n\r\n        uint256 amountBorrowedInUSD = _priceFeed.amountInUSD(\r\n            offer.principalToken,\r\n            principalAmount\r\n        );\r\n\r\n        _activity.borrowLoan(\r\n            request.creator,\r\n            _msgSender(),\r\n            amountBorrowedInUSD\r\n        );\r\n    }\r\n\r\n    // ============= ReActivating Lending / Borrowing Offer ============= //\r\n\r\n    /// @notice This function will reactivate a offer when they expires\r\n    function reActivateOffer(uint256 offerId, uint16 toExpire)\r\n        public\r\n        whenNotPaused\r\n    {\r\n        _offerManager.reActivateOffer(offerId, toExpire, _msgSender());\r\n    }\r\n\r\n    // =============== Loan Repayment ============= //\r\n\r\n    /// @notice This function is use to repay a loan\r\n    /// @dev The percentage params specifies the portion to be repaid\r\n    function repayLoan(uint256 loanId, uint16 percentage)\r\n        public\r\n        payable\r\n        whenNotPaused\r\n    {\r\n        checkPercentage(percentage);\r\n\r\n        LoanLibrary.Loan memory loan = _loanManager.getLoan(loanId);\r\n\r\n        require(loan.borrower == _msgSender(), \"ERR_NOT_BORROWER\");\r\n\r\n        uint256 time = block.timestamp;\r\n        uint256 ellapsedSecs = (time - loan.startDate);\r\n\r\n        uint256 principalAmount = percentageOf(\r\n            loan.initialPrincipal,\r\n            percentage\r\n        );\r\n\r\n        uint256 collateralAmount = percentageOf(\r\n            loan.initialCollateral,\r\n            percentage\r\n        );\r\n\r\n        uint256 repaymentPrincipal = getFullInterestAmount(\r\n            principalAmount,\r\n            ellapsedSecs,\r\n            loan.interestRate\r\n        );\r\n\r\n        uint256 interestPaid = (repaymentPrincipal - principalAmount);\r\n        uint256 fee = percentageOf(interestPaid, _feeManager.feePercentage());\r\n\r\n        uint256 unClaimedInterest = (interestPaid - fee);\r\n\r\n        _feeManager.credit(loan.principalToken, fee);\r\n\r\n        bool completed = _loanManager.repayLoan(\r\n            loanId,\r\n            unClaimedInterest,\r\n            principalAmount,\r\n            collateralAmount\r\n        );\r\n\r\n        if (loan.principalToken == nativeAddress) {\r\n            require(msg.value >= repaymentPrincipal);\r\n        } else {\r\n            ERC20(loan.principalToken).safeTransferFrom(\r\n                _msgSender(),\r\n                address(this),\r\n                repaymentPrincipal\r\n            );\r\n        }\r\n\r\n        transfer(\r\n            loan.offerId,\r\n            _msgSender(),\r\n            principalAmount.add(unClaimedInterest),\r\n            loan.principalToken,\r\n            Type.ADDED\r\n        );\r\n\r\n        uint256 interestPaidInUSD = _priceFeed.amountInUSD(\r\n            loan.principalToken,\r\n            (repaymentPrincipal - principalAmount)\r\n        );\r\n\r\n        notify(_msgSender(), loan.lender, REPAID_LOAN);\r\n\r\n        _activity.repayLoan(\r\n            loan.lender,\r\n            _msgSender(),\r\n            interestPaidInUSD,\r\n            completed\r\n        );\r\n    }\r\n\r\n    /// @notice This function is use to repay a liquidated loan\r\n    /// @dev Liquidated loans cannot be repaid by percentage\r\n    function repayLiquidatedLoan(uint256 loanId) public payable whenNotPaused {}\r\n\r\n    // =========== Cancel / Reject Request Functions =========== //\r\n\r\n    /// @notice This function will reject a request\r\n    /// @dev Request can only be rejected by the offer creator\r\n    function rejectRequest(uint256 requestId) public whenNotPaused {\r\n        _offerManager.rejectRequest(requestId, _msgSender());\r\n        RequestLibrary.Request memory request = _offerManager.getRequest(\r\n            requestId\r\n        );\r\n        notify(_msgSender(), request.creator, REJECT_REQUEST);\r\n    }\r\n\r\n    /// @notice This function will cancel a request\r\n    /// @dev Request can only be calncelled by the request creator\r\n    function cancelRequest(uint256 requestId) public whenNotPaused {\r\n        RequestLibrary.Request memory request = _offerManager.getRequest(\r\n            requestId\r\n        );\r\n\r\n        OfferLibrary.Offer memory offer = _offerManager.getOffer(\r\n            request.offerId\r\n        );\r\n\r\n        if (request.requestType == RequestLibrary.Type.LENDING_REQUEST) {\r\n            uint256 principalAmount = percentageOf(\r\n                offer.initialPrincipal,\r\n                request.percentage\r\n            );\r\n\r\n            if (offer.principalToken == nativeAddress) {\r\n                payable(_msgSender()).transfer(principalAmount);\r\n            } else {\r\n                ERC20(offer.principalToken).safeTransfer(\r\n                    _msgSender(),\r\n                    principalAmount\r\n                );\r\n            }\r\n        } else {\r\n            if (request.collateralToken == nativeAddress) {\r\n                payable(_msgSender()).transfer(request.collateralAmount);\r\n            } else {\r\n                ERC20(request.collateralToken).safeTransfer(\r\n                    _msgSender(),\r\n                    request.collateralAmount\r\n                );\r\n            }\r\n        }\r\n\r\n        _offerManager.cancelRequest(requestId, _msgSender());\r\n    }\r\n\r\n    // =========== Claim Functions =========== //\r\n\r\n    /// @notice This function is use to claim back unlocked collateral from a loan\r\n    /// @dev Can only be called by the borrower\r\n    function claimCollateral(uint256 loanId) public nonReentrant whenNotPaused {\r\n        (uint256 amount, uint256 offerId, address token) = _loanManager\r\n            .claimCollateral(loanId, _msgSender());\r\n\r\n        if (token == nativeAddress) {\r\n            payable(_msgSender()).transfer(amount);\r\n        } else {\r\n            ERC20(token).safeTransfer(_msgSender(), amount);\r\n        }\r\n\r\n        transfer(offerId, _msgSender(), amount, token, Type.CLAIMED);\r\n    }\r\n\r\n    /// @notice This function is use to claim borrowed loan principal\r\n    /// @dev Can only be called by the borrower\r\n    function claimBorrowedPrincipal(uint256 loanId)\r\n        public\r\n        nonReentrant\r\n        whenNotPaused\r\n    {\r\n        (uint256 amount, uint256 offerId, address token) = _loanManager\r\n            .claimBorrowedPrincipal(loanId, _msgSender());\r\n\r\n        if (token == nativeAddress) {\r\n            payable(_msgSender()).transfer(amount);\r\n        } else {\r\n            ERC20(token).safeTransfer(_msgSender(), amount);\r\n        }\r\n\r\n        transfer(offerId, _msgSender(), amount, token, Type.CLAIMED);\r\n    }\r\n\r\n    /// @notice This function is use to claim back repaid principal + interests from a loan\r\n    /// @dev Can only be called by the lender\r\n    function claimPrincipal(uint256 loanId) public nonReentrant whenNotPaused {\r\n        (uint256 amount, uint256 offerId, address token) = _loanManager\r\n            .claimPrincipal(loanId, _msgSender());\r\n\r\n        if (token == nativeAddress) {\r\n            payable(_msgSender()).transfer(amount);\r\n        } else {\r\n            ERC20(token).safeTransfer(_msgSender(), amount);\r\n        }\r\n\r\n        transfer(offerId, _msgSender(), amount, token, Type.CLAIMED);\r\n    }\r\n\r\n    /// @notice This function is use to claim defaulted loan collateral\r\n    /// @dev Can only be called by the lender\r\n    function claimDefaultCollateral(uint256 loanId)\r\n        public\r\n        nonReentrant\r\n        whenNotPaused\r\n    {\r\n        (uint256 amount, uint256 offerId, address token) = _loanManager\r\n            .claimDefaultCollateral(loanId, _msgSender());\r\n\r\n        if (token == nativeAddress) {\r\n            payable(_msgSender()).transfer(amount);\r\n        } else {\r\n            ERC20(token).safeTransfer(_msgSender(), amount);\r\n        }\r\n\r\n        transfer(offerId, _msgSender(), amount, token, Type.CLAIMED);\r\n    }\r\n\r\n    // =========== Loan Liquidation ============= //\r\n\r\n    /// @dev this function will liquidate a loan when it has pass\r\n    /// maturity date + grace days.\r\n    /// It can be call by anyone\r\n    function liquidateLoan(uint256 loanId) public nonReentrant {\r\n        LoanLibrary.Loan memory loan = _loanManager.getLoan(loanId);\r\n\r\n        // calculate the duration of the loan\r\n        uint256 time = block.timestamp;\r\n        uint256 ellapsedSecs = (time - loan.startDate);\r\n\r\n        uint256 repaymentPrincipal = getFullInterestAmount(\r\n            loan.currentPrincipal,\r\n            ellapsedSecs,\r\n            loan.interestRate\r\n        );\r\n\r\n        uint256 repaymentCollateral = _priceFeed.exchangeRate(\r\n            loan.principalToken,\r\n            loan.collateralToken,\r\n            repaymentPrincipal\r\n        );\r\n\r\n        uint256 interestInCollateral = _priceFeed.exchangeRate(\r\n            loan.principalToken,\r\n            loan.collateralToken,\r\n            (repaymentPrincipal - loan.currentPrincipal)\r\n        );\r\n\r\n        uint256 principalPaid;\r\n        uint256 collateralRetrieved;\r\n        uint256 collateralFee;\r\n\r\n        uint256 fee = percentageOf(\r\n            interestInCollateral,\r\n            _feeManager.feePercentage()\r\n        );\r\n\r\n        if (loan.currentCollateral >= (repaymentCollateral - fee)) {\r\n            collateralRetrieved = (repaymentCollateral - fee);\r\n            principalPaid = loan.currentPrincipal;\r\n\r\n            if (loan.currentCollateral >= repaymentCollateral) {\r\n                collateralFee = fee;\r\n            } else {\r\n                collateralRetrieved = loan.currentCollateral;\r\n                collateralFee = (loan.currentCollateral -\r\n                    (repaymentCollateral - fee));\r\n            }\r\n        } else {\r\n            collateralRetrieved = loan.currentCollateral;\r\n\r\n            uint256 collateralInPrincipal = _priceFeed.exchangeRate(\r\n                loan.collateralToken,\r\n                loan.principalToken,\r\n                collateralRetrieved\r\n            );\r\n\r\n            principalPaid = collateralInPrincipal;\r\n            collateralFee = 0;\r\n        }\r\n\r\n        _feeManager.credit(loan.collateralToken, collateralFee);\r\n\r\n        _loanManager.liquidateLoan(\r\n            loanId,\r\n            principalPaid,\r\n            collateralRetrieved,\r\n            (collateralRetrieved - collateralFee)\r\n        );\r\n    }\r\n\r\n    // ============= ABOUT ============ //\r\n\r\n    function getVersion() public pure returns (uint256) {\r\n        return LENDINGPOOL_VERSION;\r\n    }\r\n\r\n    // ============= ADMIN FUNCTIONS =============== //\r\n\r\n    function setFeeds(\r\n        address ltv_,\r\n        address activity_,\r\n        address priceFeed_\r\n    ) public onlyOwner nonReentrant {\r\n        _ltvRatio = ILoanToValueRatio(ltv_);\r\n        _activity = IActivity(activity_);\r\n        _priceFeed = IPriceFeed(priceFeed_);\r\n    }\r\n\r\n    function setManagers(\r\n        address loanManager_,\r\n        address offerManager_,\r\n        address feeManager_\r\n    ) public onlyOwner nonReentrant {\r\n        _loanManager = ILoanManager(loanManager_);\r\n        _offerManager = IOfferManager(offerManager_);\r\n        _feeManager = IFeeManager(feeManager_);\r\n    }\r\n\r\n    /// @dev to claim developer revenue\r\n    function claim(\r\n        address token,\r\n        address payable receiver,\r\n        uint256 amount\r\n    ) public onlyOwner nonReentrant {\r\n        require(amount > 0, \"ERR_ZERO_AMOUNT\");\r\n        _feeManager.debit(token, amount);\r\n        if (token == nativeAddress) {\r\n            receiver.transfer(amount);\r\n        } else {\r\n            ERC20(token).safeTransfer(receiver, amount);\r\n        }\r\n    }\r\n}\r\n",
  "sourcePath": "C:\\Users\\DELL\\Documents\\darsh\\smart-contracts\\contracts\\LendingPool.sol",
  "compiler": {
    "name": "solc",
    "version": "0.8.17+commit.8df45f5f.Emscripten.clang"
  },
  "schemaVersion": "3.4.11",
  "updatedAt": "2023-03-04T14:05:23.757Z",
  "devdoc": {
    "author": "Arogundade Ibrahim*",
    "details": "Main point of interaction with the DARSH protocol's market - Users can:   # Create Lending/Borrowing offers   # Request for new terms on offers   # Repay (Fully/Installment)   # Claim principal and earnings   # Claim back collateral   # Cancel/Reject/Accept requests - All admin functions are callable by the deployer address",
    "kind": "dev",
    "methods": {
      "acceptBorrowingOffer(uint256,uint16)": {
        "details": "The percentage params specifies the portion of the offer to accept"
      },
      "acceptLendingOffer(uint256,uint16,address)": {
        "details": "The percentage params specifies the portion of the offer to accept"
      },
      "acceptOwnership()": {
        "details": "The new owner accepts the ownership transfer."
      },
      "cancelRequest(uint256)": {
        "details": "Request can only be calncelled by the request creator"
      },
      "claim(address,address,uint256)": {
        "details": "to claim developer revenue"
      },
      "claimBorrowedPrincipal(uint256)": {
        "details": "Can only be called by the borrower"
      },
      "claimCollateral(uint256)": {
        "details": "Can only be called by the borrower"
      },
      "claimDefaultCollateral(uint256)": {
        "details": "Can only be called by the lender"
      },
      "claimPrincipal(uint256)": {
        "details": "Can only be called by the lender"
      },
      "createLendingOffer(uint256,address,address[],uint16,uint256,uint16)": {
        "details": "the principalAmount_ parameter is use for ERC20 tokens only"
      },
      "liquidateLoan(uint256)": {
        "details": "this function will liquidate a loan when it has pass maturity date + grace days. It can be call by anyone"
      },
      "owner()": {
        "details": "Returns the address of the current owner."
      },
      "paused()": {
        "details": "Returns true if the contract is paused, and false otherwise."
      },
      "pendingOwner()": {
        "details": "Returns the address of the pending owner."
      },
      "rejectRequest(uint256)": {
        "details": "Request can only be rejected by the offer creator"
      },
      "renounceOwnership()": {
        "details": "Leaves the contract without owner. It will not be possible to call `onlyOwner` functions anymore. Can only be called by the current owner. NOTE: Renouncing ownership will leave the contract without an owner, thereby removing any functionality that is only available to the owner."
      },
      "repayLiquidatedLoan(uint256)": {
        "details": "Liquidated loans cannot be repaid by percentage"
      },
      "repayLoan(uint256,uint16)": {
        "details": "The percentage params specifies the portion to be repaid"
      },
      "transferOwnership(address)": {
        "details": "Starts the ownership transfer of the contract to a new account. Replaces the pending transfer if there is one. Can only be called by the current owner."
      }
    },
    "stateVariables": {
      "LENDINGPOOL_VERSION": {
        "details": "contract version"
      },
      "nativeAddress": {
        "details": "for convienency this address is used to represent FTM just like ERC20"
      }
    },
    "title": "LendingPool contract",
    "version": 1
  },
  "userdoc": {
    "kind": "user",
    "methods": {
      "acceptBorrowingOffer(uint256,uint16)": {
        "notice": "This function accepts a borrowing offer | LEND"
      },
      "acceptBorrowingRequest(uint256)": {
        "notice": "This funcion accepts a borrowing request placed on a lender's offer"
      },
      "acceptLendingOffer(uint256,uint16,address)": {
        "notice": "This function accepts a lending offer | BORROW"
      },
      "acceptLendingRequest(uint256)": {
        "notice": "This funcion accepts a lending request placed on a borrower's offer"
      },
      "cancelRequest(uint256)": {
        "notice": "This function will cancel a request"
      },
      "claimBorrowedPrincipal(uint256)": {
        "notice": "This function is use to claim borrowed loan principal"
      },
      "claimCollateral(uint256)": {
        "notice": "This function is use to claim back unlocked collateral from a loan"
      },
      "claimDefaultCollateral(uint256)": {
        "notice": "This function is use to claim defaulted loan collateral"
      },
      "claimPrincipal(uint256)": {
        "notice": "This function is use to claim back repaid principal + interests from a loan"
      },
      "createBorrowingOffer(address,uint256,address,uint256,uint16,uint16)": {
        "notice": "This function creates a new borrowing offer"
      },
      "createBorrowingRequest(uint256,uint16,address,uint256,uint16,uint16)": {
        "notice": "This function creates a new borrowing request on a lending offer"
      },
      "createLendingOffer(uint256,address,address[],uint16,uint256,uint16)": {
        "notice": "This function creates a new lending offer"
      },
      "createLendingRequest(uint256,uint16,uint16,uint256,uint16)": {
        "notice": "This function creates a new lending request on a borrowing offer"
      },
      "reActivateOffer(uint256,uint16)": {
        "notice": "This function will reactivate a offer when they expires"
      },
      "rejectRequest(uint256)": {
        "notice": "This function will reject a request"
      },
      "repayLiquidatedLoan(uint256)": {
        "notice": "This function is use to repay a liquidated loan"
      },
      "repayLoan(uint256,uint16)": {
        "notice": "This function is use to repay a loan"
      }
    },
    "version": 1
  }
}