{
  "contractName": "LendingPool",
  "abi": [
    {
      "inputs": [
        {
          "internalType": "address",
          "name": "vaultManager_",
          "type": "address"
        },
        {
          "internalType": "address",
          "name": "loanManager_",
          "type": "address"
        },
        {
          "internalType": "address",
          "name": "offerManager_",
          "type": "address"
        },
        {
          "internalType": "address",
          "name": "feeManager_",
          "type": "address"
        }
      ],
      "stateMutability": "nonpayable",
      "type": "constructor"
    },
    {
      "inputs": [],
      "name": "INTEREST_RATE_DENOMINATOR",
      "outputs": [
        {
          "internalType": "uint256",
          "name": "",
          "type": "uint256"
        }
      ],
      "stateMutability": "view",
      "type": "function"
    },
    {
      "inputs": [],
      "name": "PERCENT",
      "outputs": [
        {
          "internalType": "uint16",
          "name": "",
          "type": "uint16"
        }
      ],
      "stateMutability": "view",
      "type": "function"
    },
    {
      "inputs": [
        {
          "internalType": "uint256",
          "name": "principal",
          "type": "uint256"
        },
        {
          "internalType": "uint256",
          "name": "durationSecs",
          "type": "uint256"
        },
        {
          "internalType": "uint256",
          "name": "interest",
          "type": "uint256"
        }
      ],
      "name": "getFullInterestAmount",
      "outputs": [
        {
          "internalType": "uint256",
          "name": "",
          "type": "uint256"
        }
      ],
      "stateMutability": "pure",
      "type": "function"
    },
    {
      "inputs": [],
      "name": "nativeAddress",
      "outputs": [
        {
          "internalType": "address",
          "name": "",
          "type": "address"
        }
      ],
      "stateMutability": "view",
      "type": "function"
    },
    {
      "inputs": [
        {
          "internalType": "uint256",
          "name": "total",
          "type": "uint256"
        },
        {
          "internalType": "uint160",
          "name": "percent",
          "type": "uint160"
        }
      ],
      "name": "percentageOf",
      "outputs": [
        {
          "internalType": "uint256",
          "name": "",
          "type": "uint256"
        }
      ],
      "stateMutability": "pure",
      "type": "function"
    },
    {
      "inputs": [
        {
          "internalType": "uint256",
          "name": "principalAmount_",
          "type": "uint256"
        },
        {
          "internalType": "address",
          "name": "principalToken",
          "type": "address"
        },
        {
          "internalType": "address[]",
          "name": "collateralTokens",
          "type": "address[]"
        },
        {
          "internalType": "uint16",
          "name": "daysToMaturity",
          "type": "uint16"
        },
        {
          "internalType": "uint256",
          "name": "interest",
          "type": "uint256"
        },
        {
          "internalType": "uint16",
          "name": "daysToExpire",
          "type": "uint16"
        }
      ],
      "name": "createLendingOffer",
      "outputs": [],
      "stateMutability": "payable",
      "type": "function"
    },
    {
      "inputs": [
        {
          "internalType": "uint256",
          "name": "offerId",
          "type": "uint256"
        },
        {
          "internalType": "uint16",
          "name": "percentage",
          "type": "uint16"
        },
        {
          "internalType": "uint16",
          "name": "daysToMaturity",
          "type": "uint16"
        },
        {
          "internalType": "uint256",
          "name": "interest",
          "type": "uint256"
        },
        {
          "internalType": "uint16",
          "name": "hoursToExpire",
          "type": "uint16"
        }
      ],
      "name": "createLendingRequest",
      "outputs": [],
      "stateMutability": "payable",
      "type": "function"
    },
    {
      "inputs": [
        {
          "internalType": "uint256",
          "name": "offerId",
          "type": "uint256"
        },
        {
          "internalType": "uint16",
          "name": "percentage",
          "type": "uint16"
        }
      ],
      "name": "acceptBorrowingOffer",
      "outputs": [],
      "stateMutability": "payable",
      "type": "function"
    },
    {
      "inputs": [
        {
          "internalType": "uint256",
          "name": "requestId",
          "type": "uint256"
        }
      ],
      "name": "acceptBorrowingRequest",
      "outputs": [],
      "stateMutability": "nonpayable",
      "type": "function"
    },
    {
      "inputs": [
        {
          "internalType": "address",
          "name": "principalToken",
          "type": "address"
        },
        {
          "internalType": "uint256",
          "name": "principalAmount",
          "type": "uint256"
        },
        {
          "internalType": "address",
          "name": "collateralToken",
          "type": "address"
        },
        {
          "internalType": "uint256",
          "name": "interest",
          "type": "uint256"
        },
        {
          "internalType": "uint16",
          "name": "daysToMaturity",
          "type": "uint16"
        },
        {
          "internalType": "uint16",
          "name": "hoursToExpire",
          "type": "uint16"
        }
      ],
      "name": "createBorrowingOffer",
      "outputs": [],
      "stateMutability": "payable",
      "type": "function"
    },
    {
      "inputs": [
        {
          "internalType": "uint256",
          "name": "offerId",
          "type": "uint256"
        },
        {
          "internalType": "uint16",
          "name": "percentage",
          "type": "uint16"
        },
        {
          "internalType": "address",
          "name": "collateralToken",
          "type": "address"
        },
        {
          "internalType": "uint256",
          "name": "interest",
          "type": "uint256"
        },
        {
          "internalType": "uint16",
          "name": "daysToMaturity",
          "type": "uint16"
        },
        {
          "internalType": "uint16",
          "name": "hoursToExpire",
          "type": "uint16"
        }
      ],
      "name": "createBorrowingRequest",
      "outputs": [],
      "stateMutability": "payable",
      "type": "function"
    },
    {
      "inputs": [
        {
          "internalType": "uint256",
          "name": "offerId",
          "type": "uint256"
        },
        {
          "internalType": "uint16",
          "name": "percentage",
          "type": "uint16"
        },
        {
          "internalType": "address",
          "name": "collateralToken",
          "type": "address"
        }
      ],
      "name": "acceptLendingOffer",
      "outputs": [],
      "stateMutability": "payable",
      "type": "function"
    },
    {
      "inputs": [
        {
          "internalType": "uint256",
          "name": "requestId",
          "type": "uint256"
        }
      ],
      "name": "acceptLendingRequest",
      "outputs": [],
      "stateMutability": "payable",
      "type": "function"
    },
    {
      "inputs": [
        {
          "internalType": "uint256",
          "name": "offerId",
          "type": "uint256"
        },
        {
          "internalType": "uint16",
          "name": "toExpire",
          "type": "uint16"
        }
      ],
      "name": "reActivateOffer",
      "outputs": [],
      "stateMutability": "nonpayable",
      "type": "function"
    },
    {
      "inputs": [
        {
          "internalType": "uint256",
          "name": "loanId",
          "type": "uint256"
        },
        {
          "internalType": "uint16",
          "name": "percentage",
          "type": "uint16"
        }
      ],
      "name": "repayLoan",
      "outputs": [],
      "stateMutability": "payable",
      "type": "function"
    },
    {
      "inputs": [
        {
          "internalType": "uint256",
          "name": "requestId",
          "type": "uint256"
        }
      ],
      "name": "rejectRequest",
      "outputs": [],
      "stateMutability": "nonpayable",
      "type": "function"
    },
    {
      "inputs": [
        {
          "internalType": "uint256",
          "name": "requestId",
          "type": "uint256"
        }
      ],
      "name": "cancelLendRequest",
      "outputs": [],
      "stateMutability": "nonpayable",
      "type": "function"
    },
    {
      "inputs": [
        {
          "internalType": "uint256",
          "name": "requestId",
          "type": "uint256"
        }
      ],
      "name": "cancelBorrowRequest",
      "outputs": [],
      "stateMutability": "nonpayable",
      "type": "function"
    },
    {
      "inputs": [
        {
          "internalType": "uint256",
          "name": "loanId",
          "type": "uint256"
        }
      ],
      "name": "claimCollateral",
      "outputs": [],
      "stateMutability": "nonpayable",
      "type": "function"
    },
    {
      "inputs": [
        {
          "internalType": "uint256",
          "name": "loanId",
          "type": "uint256"
        }
      ],
      "name": "claimPrincipal",
      "outputs": [],
      "stateMutability": "nonpayable",
      "type": "function"
    },
    {
      "inputs": [
        {
          "internalType": "uint256",
          "name": "loanId",
          "type": "uint256"
        }
      ],
      "name": "claimDefaultCollateral",
      "outputs": [],
      "stateMutability": "nonpayable",
      "type": "function"
    },
    {
      "inputs": [
        {
          "internalType": "uint256",
          "name": "loanId",
          "type": "uint256"
        }
      ],
      "name": "repayLiquidatedLoan",
      "outputs": [],
      "stateMutability": "payable",
      "type": "function"
    },
    {
      "inputs": [
        {
          "internalType": "uint256",
          "name": "loanId",
          "type": "uint256"
        }
      ],
      "name": "liquidateLoan",
      "outputs": [],
      "stateMutability": "nonpayable",
      "type": "function"
    },
    {
      "inputs": [
        {
          "internalType": "address",
          "name": "ltv_",
          "type": "address"
        }
      ],
      "name": "setLTV",
      "outputs": [],
      "stateMutability": "nonpayable",
      "type": "function"
    },
    {
      "inputs": [
        {
          "internalType": "address",
          "name": "activity_",
          "type": "address"
        }
      ],
      "name": "setActivity",
      "outputs": [],
      "stateMutability": "nonpayable",
      "type": "function"
    },
    {
      "inputs": [
        {
          "internalType": "address",
          "name": "priceFeed_",
          "type": "address"
        }
      ],
      "name": "setPriceFeed",
      "outputs": [],
      "stateMutability": "nonpayable",
      "type": "function"
    },
    {
      "inputs": [
        {
          "internalType": "address",
          "name": "newOwner",
          "type": "address"
        }
      ],
      "name": "changeOwner",
      "outputs": [],
      "stateMutability": "nonpayable",
      "type": "function"
    },
    {
      "inputs": [
        {
          "internalType": "address",
          "name": "token",
          "type": "address"
        },
        {
          "internalType": "address payable",
          "name": "receiver",
          "type": "address"
        },
        {
          "internalType": "uint256",
          "name": "amount",
          "type": "uint256"
        }
      ],
      "name": "claim",
      "outputs": [],
      "stateMutability": "nonpayable",
      "type": "function"
    }
  ],
  "bytecode": "0x608034620000d557601f620040d838819003918201601f19168301916001600160401b03831184841017620000da57808492608094604052833981010312620000d5576200004d81620000f0565b906200005c60208201620000f0565b6200007860606200007060408501620000f0565b9301620000f0565b90600160005560018060a01b03928380928160018060a01b0319971687600554161760055516856006541617600655168360075416176007551681600854161760085533906001541617600155604051613fd29081620001068239f35b600080fd5b634e487b7160e01b600052604160045260246000fd5b51906001600160a01b0382168203620000d55756fe6080604052600436101561001257600080fd5b6000803560e01c806310e14e19146135815780632672a87a146130405780632b994b4314612ed45780632d7788db14612e815780632e47633714612e585780634add7c821461298c57806353188b141461257c5780635c7f31aa1461211157806361ba944314612101578063628118ee14611ce8578063724e78da14611c9d5780637cc5805a14611ada578063996cba68146119b0578063a33928da14611572578063a6aea41514611470578063a6f9dae114611427578063b2ac850d146113bb578063b85a8b201461139f578063c1bc89ef146111c4578063c49785b4146110c2578063cc3266e81461109f578063ccdd9f5d14610c96578063e0b2695914610c62578063e0f7dffd14610c35578063e3f43fdb14610bea578063e826fbe71461042d578063e9d1f8df1461029c5763f9af05791461015157600080fd5b34610231576020366003190112610231578060043560018060a01b0382816006541660405190632820036560e11b8252846004830152816024816102809586945af1918215610291578592610264575b50508382604083015116600080516020613f7d833981519152811460001461024c575080806101c081940151818115610243575b3390f115610234575b60065416803b1561023f5760405163f400c74360e01b8152600481019290925233602483015282908290818381604481015b03925af18015610234576102215750f35b61022a9061362b565b6102315780f35b80fd5b6040513d84823e3d90fd5b5050fd5b506108fc6101d5565b90506101c061025f920151903390613b55565b6101de565b6102839250803d1061028a575b61027b8183613655565b810190613d04565b38806101a1565b503d610271565b6040513d87823e3d90fd5b5034610231576020366003190112610231578060043560018060a01b0380600754166040519063c58343ef60e01b82528360048301526101c0918281602481855afa9283156104225786936103f3575b505060016101a08301516102ff81613ac9565b61030881613ac9565b036103ef57846101008301516024604051809481936322bc934560e11b835260048301525afa8015610291576101608491879384916103cd575b50015116600080516020613f7d83398151915281036103b557508080610140819401518181156103ac575b3390f115610234575b60075416803b1561023f57604051639498506560e01b815260048101929092523360248301528290829081838160448101610210565b506108fc61036d565b90506101406103c8920151903390613b55565b610376565b6103e991503d8086833e6103e18183613655565b810190613958565b38610342565b8480fd5b610413929350803d1061041b575b61040b8183613655565b810190613b8e565b9038806102ec565b503d610401565b6040513d88823e3d90fd5b506060366003190112610231576104426135f8565b61044a6135e2565b61045382613e92565b6007546040516322bc934560e11b81526004803590820152926001600160a01b03909116908484602481855afa938415610291578594610bce575b50604051633970062960e01b815260048035908201526001600160a01b0384166024820152916020908390604490829089905af1918215610291576104ee926104de918791610b9f575b50613cb8565b61ffff6080850151911690613f58565b600354604084810151905163912d228f60e01b81526001600160a01b0391821660048201526024810184905291602091839160449183918a91165af1908115610291578591610b6c575b50600480546040516322a0fe3360e21b81523392810192909252602482019290925290602090829060449082906001600160a01b03165afa908115610291578591610b32575b506003546040858101519051631c07d98160e21b81526001600160a01b03918216600482015285821660248201526044810185905291602091839160649183918b91165af1908115610422578691610b00575b5060048054604051636882509b60e11b81529160209183919082906001600160a01b03165afa908115610af5578791610aaf575b5061061d9260ff610617921690613c8a565b90613f58565b600080516020613f7d8339815191529390856001600160a01b038516868103610a99575050348110610a5c5785945b60408301516001600160a01b03169084908203610a4c5750508480848015610a42575b8280929181923390f115610a37575b6005546101208301516001600160a01b039081169116803b15610a33576106c587929183926040519485809481936320e8c56560e01b8352898d600435926004860161368f565b03925af1908115610422578691610a1f575b505060055461012083015160408401516001600160a01b03928316929081169116823b15610a1b57610728928689809460405196879586948593631effa54360e21b8552600435926004860161368f565b03925af1908115610422578691610a07575b505060035460405163912d228f60e01b81526001600160a01b03868116600483015260248201849052909591602091879160449183918b91165af19485156104225786956109ce575b506006546101c084015160209286926001600160a01b03169189906107a781613ac9565b6107fa8a60018060a01b0360408b0151169260a08b015161ffff60c08d015116908c61012060018060a01b0391015116936040519c8d9b8c9a8b9963298b04a560e01b8b52339760043560048d01613ae9565b03925af180156102915761099f575b506007546001600160a01b0316803b156103ef57848091604460405180948193631b6eb38160e21b835260043560048401528860248401525af190811561029157859161098b575b5050600354604091820151915163912d228f60e01b81526001600160a01b0392831660048201526024810193909352602091839116818681604481015b03925af1908115610941578391610951575b506002546001600160a01b0316803b1561094c576040516311eba9df60e21b8152336004820152602481019290925283908290604490829084905af190811561094157839161092a575b50506002546001600160a01b0316803b1561023f5760405163094f618d60e11b815233600482015260248101929092528290829081838160448101610210565b6109339061362b565b61093e5781386108ea565b50fd5b6040513d85823e3d90fd5b505050fd5b9250506020823d602011610983575b8161096d60209383613655565b8101031261097e57829151386108a0565b600080fd5b3d9150610960565b6109949061362b565b61094c578338610851565b6020809295503d83116109c7575b6109b78183613655565b8101031261097e57839238610809565b503d6109ad565b955093506020853d6020116109ff575b816109eb60209383613655565b8101031261097e5793518594909383610783565b3d91506109de565b610a109061362b565b6103ef57843861073a565b8780fd5b610a289061362b565b6103ef5784386106d7565b8680fd5b6040513d86823e3d90fd5b6108fc915061066f565b610a57913390613b55565b61067e565b60405162461bcd60e51b815260206004820152601560248201527411549497d0d3d31310551154905317d05353d55395605a1b6044820152606490fd5b82610aaa91979297309033906136b9565b61064c565b90506020813d602011610aed575b81610aca60209383613655565b81010312610a335761061d9260ff610ae461061793613c7c565b92505092610605565b3d9150610abd565b6040513d89823e3d90fd5b90506020813d602011610b2a575b81610b1b60209383613655565b8101031261097e5751386105d1565b3d9150610b0e565b90506020813d602011610b64575b81610b4d60209383613655565b810103126103ef57610b5e90613935565b3861057e565b3d9150610b40565b90506020813d602011610b97575b81610b8760209383613655565b8101031261097e57516020610538565b3d9150610b7a565b610bc1915060203d602011610bc7575b610bb98183613655565b81019061370c565b386104d8565b503d610baf565b610be39194503d8087833e6103e18183613655565b923861048e565b503461023157602036600319011261023157610c046135cc565b6001546001600160a01b039190610c1e9083163314613e55565b166001600160601b0360a01b600254161760025580f35b5034610231576060366003190112610231576020610c5a604435602435600435613f2b565b604051908152f35b503461023157604036600319011261023157602435906001600160a01b0382168203610231576020610c5a83600435613f58565b5034610231578060208060031936011261093e576001546001600160a01b03918391610cc59084163314613e55565b826006541660405190632820036560e11b82526004356004830152816024816102809687945af1928315610291578593611080575b5050610d0b61014083015142613e32565b92610d2360a084019485519061012086015191613f2b565b6003546040858101516060870180519251631c07d98160e21b8082526001600160a01b03938816841660048301529387169290921660248301526044820185905295939092849084908716818c816064810103925af192831561104157899361104c575b5083610de191888a8c610dac8a6040816003541695015116948b8d5116935190613e32565b6040518881526001600160a01b0395861660048201529290941660248301526044820193909352938492839182906064820190565b03925af190811561104157899161100f575b50889084866008541660046040518095819363a001ecdd60e01b83525af1908115611004578a91610fc8575b610e299250613f58565b9260e08701968751610e3b8686613e32565b11610f3257505050610e4d8282613e32565b95519451818110610f15575050915b81806008541691511690803b15610a335760405163ef6506db60e01b81526001600160a01b039290921660048301526024820184905286908290604490829084905af1908115610422578691610f01575b5050610ebe90600654169184613e32565b90803b156103ef57604051633799ba3f60e01b81526004803590820152602481019390935260448301939093526064820152908290829081838160848101610210565b610f0a9061362b565b6103ef578438610ead565b909550610f26610f2c928297613e32565b90613e32565b91610e5c565b965160035487516040998a015199519485526001600160a01b039088168116600486015298871690981660248401526044830181905297509395909250839150829060649082908a9089165af1918215610422578692610f97575b5050918491610e5c565b8196508092503d8311610fc1575b610faf8183613655565b8101031261097e578493513880610f8d565b503d610fa5565b90508482813d8311610ffd575b610fdf8183613655565b81010312610ff957610ff3610e2992613935565b90610e1f565b8980fd5b503d610fd5565b6040513d8c823e3d90fd5b809950848092503d831161103a575b6110288183613655565b8101031261097e578880985190610df3565b503d61101e565b6040513d8b823e3d90fd5b985091508288813d8111611079575b6110658183613655565b8101031261097e5796518897909183610d87565b503d61105b565b611097929350803d1061028a5761027b8183613655565b903880610cfa565b50346102315780600319360112610231576020604051670de0b6b3a76400008152f35b5034610231576020366003190112610231578060043560018060a01b0382816006541660405190632820036560e11b8252846004830152816024816102809586945af19182156102915785926111a7575b50508382606083015116600080516020613f7d833981519152811460001461118f575080806101e081940151818115611186575b3390f115610234575b60065416803b1561023f5760405163014b594760e71b815260048101929092523360248301528290829081838160448101610210565b506108fc611147565b90506101e06111a2920151903390613b55565b611150565b6111bd9250803d1061028a5761027b8183613655565b3880611113565b5060c0366003190112610231576024356001600160a01b0381811692916004359184820361097e576044359067ffffffffffffffff82116103ef57366023830112156103ef5781600401359561121987613677565b946112276040519687613655565b8786526020938487016024819a60051b83010191368311610ff957602401905b828210611387575050506064359161ffff9687841680940361097e5761126b61361a565b92600080516020613f7d8339815191528303611375575034975b8560075416936040519563031137cd60e61b875260e487019460048801528a60248801526084356044880152606487015216608485015260e060a48501525180915261010483019890885b81811061135f57505050818491818981819c3360c483015203925af192831561042257869361132c575b505060055416803b156103ef5761021093858094604051968795869485936320e8c56560e01b8552336004860161368f565b819650809293503d8311611358575b6113458183613655565b8101031261097e578493519038806112fa565b503d61133b565b825186168b5299860199918601916001016112d0565b97611382893033866136b9565b611285565b8135868116810361097e578152908601908601611247565b5034610231578060031936011261023157602060405160648152f35b503461023157604036600319011261023157806113d66135f8565b6007546001600160a01b031690813b1561023f5761ffff6064849283604051958694859363099bfe6b60e01b855260043560048601521660248401523360448401525af18015610234576102215750f35b5034610231576020366003190112610231576114416135cc565b600154906001600160a01b039061145b3383851614613e55565b16906001600160601b0360a01b161760015580f35b5034610231576020366003190112610231578060043560018060a01b0382816006541660405190632820036560e11b8252846004830152816024816102809586945af1918215610291578592611555575b50508382606083015116600080516020613f7d833981519152811460001461153d5750808061020081940151818115611534575b3390f115610234575b60065416803b1561023f5760405163e41936d760e01b815260048101929092523360248301528290829081838160448101610210565b506108fc6114f5565b9050610200611550920151903390613b55565b6114fe565b61156b9250803d1061028a5761027b8183613655565b38806114c1565b506040366003190112610231576115876135f8565b61159081613e92565b6007546040516322bc934560e11b815260048035908201526001600160a01b039184908290602490829086165afa908115610a37578491611996575b5061012081019180835116331461195b5784936116026115f761ffff6101a086015193168093613f58565b916080850151613f58565b9060408401918383511681600080516020613f7d83398151915282146000146119375790503410610a33578680808084888b511682821561192e575bf115610422575b83600554169484875116956101608201968688511690823b1561192a5760405163481fd22360e11b81526001600160a01b039182166004808301919091523360248301529290911660448201526064810186905290356084820152908990829060a490829084905af1908115611041578991611916575b50600354875160405163912d228f60e01b8082529189166001600160a01b0316600482015260248101879052602099919493919290918a9183916044918391908d165af190811561190b578b916118d8575b50849289928c8961176f8c958f8c908860065416978051938a806101c0840151986117388a613ac9565b51169951169a61ffff60c060a085015194015116935116936040519d8e9c8d9b8c9a63298b04a560e01b8c52339960048d01613ae9565b03925af18015611041576118aa575b508460075416803b156118a657604051633496841f60e11b8152600480359082015260248101849052604481019490945288908490606490829084905af1801561189b5786938991611882575b50600354945160405192835286166001600160a01b03166004830152602482019290925292839160449183919087165af192831561029157859361184f575b5050806002541692511690823b1561094c576040516311eba9df60e21b81526001600160a01b0390921660048301526024820152908290829081838160448101610210565b819550809293503d831161187b575b6118688183613655565b8101031261097e5783925190388061180a565b503d61185e565b61188e9192945061362b565b610a3357849187386117cb565b6040513d8a823e3d90fd5b8880fd5b86809299503d83116118d1575b6118c18183613655565b8101031261097e5787963861177e565b503d6118b7565b809b50898092503d8311611904575b6118f18183613655565b8101031261097e5798518a99908461170e565b503d6118e7565b6040513d8d823e3d90fd5b61191f9061362b565b610a1b5787386116bc565b8a80fd5b506108fc61163e565b61194491309033906136b9565b61195681858551168689511690613b55565b611645565b60405162461bcd60e51b815260206004820152601360248201527222a9292fa1a0a72a2fa127a92927abafa7aba760691b6044820152606490fd5b6119aa91503d8086833e6103e18183613655565b386115cc565b5034610231576060366003190112610231576119ca6135cc565b6001600160a01b0360243581811690819003611ad657604435916119f381600154163314613e55565b8215611a9f5784938160085416803b15611a9b576040516331b5f13d60e11b81526001600160a01b0383166004820152602481018690529086908290604490829084905af1908115610422578691611a87575b505016600080516020613f7d8339815191528103611a7a5750828092819282f115611a6e5780f35b604051903d90823e3d90fd5b611a849350613b55565b80f35b611a909061362b565b6103ef578438611a46565b8580fd5b60405162461bcd60e51b815260206004820152600f60248201526e11549497d6915493d7d05353d55395608a1b6044820152606490fd5b8380fd5b5060a036600319011261023157600435611af26135f8565b9060443561ffff9283821680920361097e5784611b0d613609565b94611b1783613e92565b6007546040516322bc934560e11b8152600481018790526001600160a01b039184908290602490829086165afa908115610a37578491611c83575b506040611b6784608084015197168097613f58565b9101908282511681600080516020613f7d8339815191528214600014611c7157905034106103ef575b828060055416925116823b15611a9b57611bc7928692838b93604051968795869485936320e8c56560e01b8552336004860161368f565b03925af18015610a3757611c52575b509060209560c494939260075416916040519889978896630b438b8960e41b885260048801526064356024880152604487015216606485015233608485015260a48401525af1801561023457611c2a575080f35b602090813d8111611c4b575b611c408183613655565b8101031261097e5780f35b503d611c36565b92611c60819392959461362b565b611c6d5790919238611bd6565b5080fd5b611c7e91309033906136b9565b611b90565b611c9791503d8086833e6103e18183613655565b38611b52565b503461023157602036600319011261023157611cb76135cc565b6001546001600160a01b039190611cd19083163314613e55565b166001600160601b0360a01b600354161760035580f35b5060403660031901126102315760043581611d016135f8565b611d0a81613e92565b600654604051632820036560e11b8152600481018590526001600160a01b03946102809490928591839160249183918a165af19384156104225786946120e2575b5050836102408401511633036120aa5784938492611d6e61014086015142613e32565b94611da2611d94611d8961ffff608085015195168095613f58565b9360c0840151613f58565b966101208301519084613f2b565b93611dad8386613e32565b9184600854166040519063a001ecdd60e01b82528160048160209b8c945af1908115611004578a9161206e575b50611de8611def9185613f58565b8094613e32565b91604086600854169201938685511690833b1561206a5760405163ef6506db60e01b81526001600160a01b039290921660048301526024820152918a908390604490829084905af1928315611004578a86938a9561204c575b50876006541692611e866040519c8d968795869463094bb9f160e11b8652600486019094939260609260808301968352602083015260408201520152565b03925af1958615610af557879661202d575b508683825116600080516020613f7d8339815191528114600014612017575050833410610a335786935b85611f0e8560035416611ed9868887511695613e32565b60405163912d228f60e01b8082526001600160a01b039096166004820152602481019190915297889283919082906044820190565b03925af194851561189b578895611fdf575b50600354915160405191825284166001600160a01b0316600482015260248101929092528490829060449082908a9087165af1938415610422578694611fac575b505060025416803b156103ef5784928360849260405196879586946311dd211f60e31b865233600487015260248601526044850152151560648401525af18015610234576102215750f35b819650809294503d8311611fd8575b611fc58183613655565b8101031261097e57849351913880611f61565b503d611fbb565b9297509350908481813d8111612010575b611ffa8183613655565b8101031261097e57518796909390919085611f20565b503d611ff0565b8561202891969296309033906136b9565b611ec2565b612045919650853d8711610bc757610bb98183613655565b9438611e98565b9092945061205b91935061362b565b6118a657869184918a38611e48565b8b80fd5b90508781813d83116120a3575b6120858183613655565b81010312610ff957611de861209c611def92613935565b9150611dda565b503d61207b565b60405162461bcd60e51b815260206004820152601060248201526f22a9292fa727aa2fa127a92927aba2a960811b6044820152606490fd5b6120f9929450803d1061028a5761027b8183613655565b913880611d4b565b5060203660031901126102315780f35b5060203660031901126102315760075460405163c58343ef60e01b8152600480359082015282916001600160a01b0316906101c081602481855afa90811561094157839161255b575b50826101008201516024604051809581936322bc934560e11b835260048301525afa91821561094157839261253f575b506121a36101a083015161ffff60408401511690613f58565b916121bb608082015161ffff60408501511690613f58565b60408201519092906001600160a01b031683600080516020613f7d833981519152820361252f5750508480848015612525575b8280929181923390f115610a37575b60055460e0820151610160840151610100840151926001600160a01b039182169282169116803b156118a657889283899361224e604051978896879586946320e8c56560e01b86526004860161368f565b03925af1908115610422578691612511575b505060055460e08201516040840151610100840151926001600160a01b039182169282169116803b156118a65788928388936122b260405197889687958694631effa54360e21b86526004860161368f565b03925af19081156104225786916124fd575b505060035461016083015160405163912d228f60e01b81526001600160a01b039182166004820152602481018790529591602091879160449183918b91165af19485156104225786956124c4575b506006546101008301516101c0850151869460209490936001600160a01b031692918a9161239e9061234383613ac9565b60018060a01b0360408b0151169460018060a01b036101608c015116978d60808201519061ffff6060840151169260e060018060a01b0391015116946040519d8e9c8d9b8c9a63298b04a560e01b8c52339860048d01613ae9565b03925af1801561029157612495575b5060018060a01b03600754168151813b15611a9b578591604483926040519485938492631b6eb38160e21b845260048401528860248401525af1908115610291578591612481575b50506007546001600160a01b0316803b156103ef57604051636d5d42c560e11b815260048035908201523360248201529085908290604490829084905af190811561029157859161098b575050600354604091820151915163912d228f60e01b81526001600160a01b03928316600482015260248101939093526020918391168186816044810161088e565b61248a9061362b565b61094c5783386123f5565b6020809295503d83116124bd575b6124ad8183613655565b8101031261097e578392386123ad565b503d6124a3565b955093506020853d6020116124f5575b816124e160209383613655565b8101031261097e5793518594909383612312565b3d91506124d4565b6125069061362b565b6103ef5784386122c4565b61251a9061362b565b6103ef578438612260565b6108fc91506121ee565b61253a913390613b55565b6121fd565b6125549192503d8085833e6103e18183613655565b903861218a565b61257691506101c03d6101c01161041b5761040b8183613655565b3861215a565b5060c036600319011261023157806125926135cc565b61259a6135e2565b6125a2613609565b6125aa61361a565b60035460405163912d228f60e01b81526001600160a01b03868116600483015260248035908301526020969095929091908790829060449082908c908b165af190811561189b578891612959575b50600480546040516322a0fe3360e21b815233928101929092526024820192909252908790829060449082908a165afa90811561189b578891612924575b50600354604051631c07d98160e21b81526001600160a01b0384811660048301528516602480830191909152356044820152908890829060649082908d908c165af19081156110415789916128f3575b506004888882541660405192838092636882509b60e11b82525afa908115611004578a916128b2575b506126c19260ff610617921690613c8a565b938286169387878a600080516020613f7d8339815191528803612897575050508534106118a6578792896101049289945b856007541691604051998a97889663486c386960e11b885216600487015260248601528a60448601526024356064860152606435608486015261ffff80921660a48601521660c48401523360e48401525af1918215610422578692612865575b508360055416803b15610a33576040516320e8c56560e01b81529287918491829084908290612787908a89336004860161368f565b03925af18015610422578592879161284c575b505060035460405163912d228f60e01b81526001600160a01b0392909216600483015260248201939093529182906044908290889087165af1928315610a37578493612819575b505060025416803b1561023f5760405163094f618d60e11b815233600482015260248101929092528290829081838160448101610210565b819450809293503d8311612845575b6128328183613655565b8101031261097e578291519038806127e1565b503d612828565b6128589192935061362b565b6103ef578390853861279a565b955090508385813d8111612890575b61287e8183613655565b8101031261097e578594519038612752565b503d612874565b909392610104936128ad8a97949730338c6136b9565b6126f2565b90508881813d83116128ec575b6128c98183613655565b81010312610ff9576126c19260ff6128e361061793613c7c565b925050926126af565b503d6128bf565b809950888092503d831161291d575b61290c8183613655565b8101031261097e5788975138612686565b503d612902565b90508681813d8311612952575b61293b8183613655565b81010312610a1b5761294c90613935565b38612636565b503d612931565b809850878092503d8311612985575b6129728183613655565b8101031261097e579551879690866125f8565b503d612968565b50346102315760203660031901126102315760075460405163c58343ef60e01b8152600480359082015282916001600160a01b03166101c082602481845afa918215610941578392612e35575b50826101008301516024604051809481936322bc934560e11b835260048301525afa908115610941578391612e1b575b50612a21608082015161ffff60408501511690613f58565b60408201519091906001600160a01b031682600080516020613f7d8339815191528203612dfc5760e0850151869250829182918291906001600160a01b0316828215612df3575bf115610941575b60055460e0840151610120850151610140860151610100870151936001600160a01b039384169391929082169116813b156118a65760405163481fd22360e11b81526001600160a01b0394851660048201523360248201529316604484015260648301919091526084820192909252908590829060a490829084905af1908115610291578591612ddf575b505060055460408201516101008501516001600160a01b039283169290911690823b15610a3357612b47928588809460405196879586948593631effa54360e21b8552336004860161368f565b03925af1908115610291578591612dcb575b505081602060018060a01b0360065416610100860151906101c0850151612b7f81613ac9565b8860018060a01b0360408801511691612bea60018060a01b036101208c015116956101408c01518c61016081015160808201519061ffff6060840151169260e060018060a01b0391015116936040519d8e9c8d9b8c9a63298b04a560e01b8c52339960048d01613ae9565b03925af1801561029157612d9c575b5060018060a01b0360075416610100840151610140850151823b15610a3357604051633496841f60e11b815260048101929092526024820185905260448201529085908290606490829084905af1908115610291578591612d88575b50506007546001600160a01b0316803b156103ef57604051636d5d42c560e11b815260048035908201523360248201529085908290604490829084905af1908115610291578591612d74575b5050600354604091820151915163912d228f60e01b81526001600160a01b0392831660048201526024810193909352602091839160449183918891165af1908115610941578391612d3f575b5060025460e0909201516001600160a01b03928316921690823b1561094c576040516311eba9df60e21b81526001600160a01b0390921660048301526024820152908290829081838160448101610210565b9250506020823d602011612d6c575b81612d5b60209383613655565b8101031261097e5782915138612ced565b3d9150612d4e565b612d7d9061362b565b61094c578338612ca1565b612d919061362b565b61094c578338612c55565b6020809295503d8311612dc4575b612db48183613655565b8101031261097e57839238612bf9565b503d612daa565b612dd49061362b565b61094c578338612b59565b612de89061362b565b61094c578338612afa565b506108fc612a68565b60e0850151612e16926001600160a01b0390911690613b55565b612a6f565b612e2f91503d8085833e6103e18183613655565b38612a09565b612e519192506101c03d6101c01161041b5761040b8183613655565b90386129d9565b50346102315780600319360112610231576020604051600080516020613f7d8339815191528152f35b50346102315760203660031901126102315760075481906001600160a01b0316803b1561093e5760405163774d3df560e01b81526004803590820152336024820152908290829081838160448101610210565b5034610231576020366003190112610231578060043560018060a01b0380600754166040519063c58343ef60e01b82528360048301526101c0918281602481855afa928315610422578693613021575b50506101a0820151612f3581613ac9565b612f3e81613ac9565b6103ef57846101008301516024604051809481936322bc934560e11b835260048301525afa90811561029157859284918493612ffe575b50612f8f60409161ffff8360808701519201511690613f58565b92015116600080516020613f7d8339815191528103612ff25750818080928181156103ac573390f1156102345760075416803b1561023f57604051639498506560e01b815260048101929092523360248301528290829081838160448101610210565b6103c892503390613b55565b6040919350613019612f8f913d8088833e6103e18183613655565b939150612f75565b613038929350803d1061041b5761040b8183613655565b903880612f24565b5060c0366003190112610231576130556135f8565b9061305e6135e2565b90613067613609565b9161307061361a565b9361307a81613e92565b6007546040516322bc934560e11b815260048035908201526001600160a01b03909116959084816024818a5afa908115610291578591613567575b50604051633970062960e01b815260048035908201526001600160a01b0385166024820152966020908890604490829089905af19687156102915761315b97613104918791610b9f5750613cb8565b613117608082015161ffff851690613f58565b600354604080840151905163912d228f60e01b81526001600160a01b03918216600482015260248101849052999293926020928b92169082908a9082906044820190565b03925af1978815610422578698613532575b50600480546040516322a0fe3360e21b8152339281019290925260248201999099529697959695602090879060449082906001600160a01b03165afa958615610af55787966134ee575b506003546040918201519151631c07d98160e21b81526001600160a01b03928316600482015282871660248201526044810193909352602091839116818981606481015b03925af19081156104225786916134bc575b5060048054604051636882509b60e11b81529160209183919082906001600160a01b03165afa908115610af5578791613476575b509061061760ff613253931687613c8a565b906001600160a01b038416600080516020613f7d8339815191520361345c57348210611a9b575b6005546001600160a01b031696873b15610a33578660405180996320e8c56560e01b82528183816132b36004358a8d336004860161368f565b03925af18015610af557613448575b60035460405163912d228f60e01b81526001600160a01b038781166004830152602482018690529899508998909791602091899160449183918d91165af196871561189b578897613407575b50600754604051633bb1374b60e01b815261ffff9687166004808301919091526001600160a01b039889166024830152604482019690965260648082018a90529288166084820152913560a483015291851660c48201529190931660e48201523361010482015290356101248201529160209183916101449183918891165af18015610941576133d8575b506002546001600160a01b0316803b1561023f5760405163094f618d60e11b815233600482015260248101929092528290829081838160448101610210565b6020809293503d8311613400575b6133f08183613655565b8101031261097e57819038613399565b503d6133e6565b9750955091926020873d602011613440575b8161342660209383613655565b8101031261097e579551879690959093929061ffff61330e565b3d9150613419565b9590966134549061362b565b9486906132c2565b6134718230336001600160a01b0388166136b9565b61327a565b90506020813d6020116134b4575b8161349160209383613655565b81010312610a33579061061760ff6134ab61325394613c7c565b92935050613241565b3d9150613484565b90506020813d6020116134e6575b816134d760209383613655565b81010312611a9b57513861320d565b3d91506134ca565b9095506020813d60201161352a575b8161350a60209383613655565b81010312610a33576131fb91613521602092613935565b969150916131b7565b3d91506134fd565b97506020883d60201161355f575b8161354d60209383613655565b81010312611a9b57965196602061316d565b3d9150613540565b61357b91503d8087833e6103e18183613655565b386130b5565b50346102315760203660031901126102315761359b6135cc565b6001546001600160a01b0391906135b59083163314613e55565b166001600160601b0360a01b600454161760045580f35b600435906001600160a01b038216820361097e57565b604435906001600160a01b038216820361097e57565b6024359061ffff8216820361097e57565b6084359061ffff8216820361097e57565b60a4359061ffff8216820361097e57565b67ffffffffffffffff811161363f57604052565b634e487b7160e01b600052604160045260246000fd5b90601f8019910116810190811067ffffffffffffffff82111761363f57604052565b67ffffffffffffffff811161363f5760051b60200190565b6001600160a01b039182168152911660208201526040810191909152606081019190915260800190565b6040516323b872dd60e01b60208201526001600160a01b039283166024820152929091166044830152606482019290925261370a9161370582608481015b03601f198101845283613655565b613724565b565b9081602091031261097e5751801515810361097e5790565b6040805167ffffffffffffffff94936001600160a01b0390931692909182018581118382101761363f576040526020928383527f5361666545524332303a206c6f772d6c6576656c2063616c6c206661696c6564848401526000808386829551910182855af1903d15613854573d968711613840576137c4949596604051906137b688601f19601f8401160183613655565b81528093873d92013e613861565b805190816137d157505050565b82806137e193830101910161370c565b156137e95750565b6084906040519062461bcd60e51b82526004820152602a60248201527f5361666545524332303a204552433230206f7065726174696f6e20646964206e6044820152691bdd081cdd58d8d9595960b21b6064820152fd5b634e487b7160e01b83526041600452602483fd5b91506137c4939495506060915b919290156138c35750815115613875575090565b3b1561387e5790565b60405162461bcd60e51b815260206004820152601d60248201527f416464726573733a2063616c6c20746f206e6f6e2d636f6e74726163740000006044820152606490fd5b8251909150156138d65750805190602001fd5b6040519062461bcd60e51b82528160208060048301528251908160248401526000935b82851061391c575050604492506000838284010152601f80199101168101030190fd5b84810182015186860160440152938101938593506138f9565b51906001600160a01b038216820361097e57565b519061ffff8216820361097e57565b602091828282031261097e57815167ffffffffffffffff9283821161097e5701916101e093848484031261097e576040519485018581108382111761363f576040528351855280840151600281101561097e57818601526139bb60408501613935565b6040860152606084015160608601526080840151608086015260a084015160a08601526139ea60c08501613949565b60c086015260e084015160e08601526101008085015190860152610120613a12818601613935565b90860152610140918285015190811161097e5784019280601f8501121561097e578351613a3e81613677565b94613a4c6040519687613655565b818652838087019260051b82010192831161097e578301905b828210613ab25750505050830152610160613a81818301613935565b9083015261018080820151908301526101a080820151908301526101c08091015190600282101561097e5782015290565b838091613abe84613935565b815201910190613a65565b60021115613ad357565b634e487b7160e01b600052602160045260246000fd5b9995919b9a97939894909b9692966101608b019c8b52613b0881613ac9565b60208b0152600160a01b6001900380998180991660408d01521660608b015260808a015260a089015260c088015260e087015261ffff166101008601521661012084015216906101400152565b60405163a9059cbb60e01b60208201526001600160a01b039092166024830152604482019290925261370a9161370582606481016136f7565b80916101c0928391031261097e5760405191820182811067ffffffffffffffff82111761363f57604052805182526020810151600481101561097e576020830152613bdb60408201613949565b6040830152613bec60608201613949565b60608301526080810151608083015260a081015160a083015260c081015160c0830152613c1b60e08201613935565b60e08301526101008082015190830152610120613c39818301613935565b9083015261014080820151908301526101608082015190830152610180613c61818301613935565b908301526101a08091015190600282101561097e5782015290565b519060ff8216820361097e57565b6001600160a01b0391821691908215613ca257160490565b634e487b7160e01b600052601260045260246000fd5b15613cbf57565b60405162461bcd60e51b815260206004820152601c60248201527f4552525f434f4c4c41544552414c5f4e4f545f535550504f52544544000000006044820152606490fd5b8091610280928391031261097e5760405191820182811067ffffffffffffffff82111761363f57604052805182526020810151600481101561097e576020830152613d5160408201613935565b6040830152613d6260608201613935565b60608301526080810151608083015260a081015160a083015260c081015160c083015260e081015160e08301526101008082015190830152610120808201519083015261014080820151908301526101608082015190830152610180613dc9818301613949565b908301526101a0613ddb818301613c7c565b908301526101c080820151908301526101e0808201519083015261020080820151908301526102208082015190830152610240613e19818301613935565b90830152613e2b610260809201613935565b9082015290565b91908203918211613e3f57565b634e487b7160e01b600052601160045260246000fd5b15613e5c57565b60405162461bcd60e51b815260206004820152600e60248201526d22a9292fa7a7262cafa7aba722a960911b6044820152606490fd5b61ffff80911660648111613ee1576019900616613eab57565b60405162461bcd60e51b815260206004820152600e60248201526d4552525f50455243454e5441474560901b6044820152606490fd5b60405162461bcd60e51b815260206004820152600f60248201526e4f5645525f50455243454e5441474560881b6044820152606490fd5b81810292918115918404141715613e3f57565b91613f4a606492613f45670de0b6b3a76400009386613f18565b613f18565b04048101809111613e3f5790565b906001600160a01b03168015613f7857613f7490606492613f18565b0490565b509056fe000000000000000000000000eeeeeeeeeeeeeeeeeeeeeeeeeeeeeeeeeeeeeeeea264697066735822122079b429f97d52271fb5f007473be12022f13b94144b7f53bb4cf8344a4073058e64736f6c63430008110033",
  "immutableReferences": {},
  "source": "// SPDX-License-Identifier: GPL-3.0\r\npragma solidity >=0.7.0 <0.9.0;\r\n\r\nimport \"./Activity.sol\";\r\n\r\nimport \"./libraries/Errors.sol\";\r\n\r\nimport \"./math/SimpleInterest.sol\";\r\n\r\nimport \"./interfaces/IPriceFeed.sol\";\r\nimport \"./interfaces/IFeeManager.sol\";\r\nimport \"./interfaces/IVaultManager.sol\";\r\nimport \"./interfaces/IOfferManager.sol\";\r\nimport \"./interfaces/ILoanManager.sol\";\r\nimport \"./interfaces/ILoanToValueRatio.sol\";\r\n\r\nimport \"@openzeppelin/contracts/utils/Context.sol\";\r\nimport \"@openzeppelin/contracts/token/ERC20/ERC20.sol\";\r\nimport \"@openzeppelin/contracts/token/ERC20/utils/SafeERC20.sol\";\r\nimport \"@openzeppelin/contracts/security/ReentrancyGuard.sol\";\r\n\r\n/*\r\n    LendingPool is the core contract of the DARSH protocol.\r\n    It interacts with managers, price feed, loan-to-Value ratio, math libraries,\r\n    trust score, and others to carry out the peer to peer functionality.\r\n*/\r\n\r\ncontract LendingPool is Context, ReentrancyGuard, SimpleInterest {\r\n    using SafeERC20 for ERC20;\r\n\r\n    address deployer;\r\n\r\n    Activity private _activity;\r\n    IPriceFeed private _priceFeed;\r\n    ILoanToValueRatio private _ltv;\r\n\r\n    // managers\r\n    IVaultManager private _vaultManager;\r\n    ILoanManager private _loanManager;\r\n    IOfferManager private _offerManager;\r\n    IFeeManager private _feeManager;\r\n\r\n    address public constant nativeAddress =\r\n        0xEeeeeEeeeEeEeeEeEeEeeEEEeeeeEeeeeeeeEEeE;\r\n\r\n    constructor(\r\n        address vaultManager_,\r\n        address loanManager_,\r\n        address offerManager_,\r\n        address feeManager_\r\n    ) ReentrancyGuard() {\r\n        _vaultManager = IVaultManager(vaultManager_);\r\n        _loanManager = ILoanManager(loanManager_);\r\n        _offerManager = IOfferManager(offerManager_);\r\n        _feeManager = IFeeManager(feeManager_);\r\n\r\n        deployer = _msgSender();\r\n    }\r\n\r\n    // @lenders\r\n    function createLendingOffer(\r\n        uint256 principalAmount_, // only for ERC20 assets\r\n        address principalToken,\r\n        address[] memory collateralTokens,\r\n        uint16 daysToMaturity,\r\n        uint256 interest,\r\n        uint16 daysToExpire\r\n    ) public payable {\r\n        uint256 principalAmount;\r\n\r\n        /* extract tokens from lender */\r\n        if (principalToken == nativeAddress) {\r\n            principalAmount = msg.value;\r\n        } else {\r\n            principalAmount = principalAmount_;\r\n            ERC20(principalToken).safeTransferFrom(\r\n                _msgSender(),\r\n                address(this),\r\n                principalAmount\r\n            );\r\n        }\r\n\r\n        /* create the lending offer */\r\n        uint256 offerId = _offerManager.createLendingOffer(\r\n            principalToken,\r\n            principalAmount,\r\n            interest,\r\n            daysToMaturity,\r\n            daysToExpire,\r\n            collateralTokens,\r\n            _msgSender()\r\n        );\r\n\r\n        /* delegate principal to lender */\r\n        _vaultManager.deposit(\r\n            _msgSender(),\r\n            principalToken,\r\n            principalAmount,\r\n            offerId\r\n        );\r\n    }\r\n\r\n    // @lenders\r\n    function createLendingRequest(\r\n        uint256 offerId,\r\n        uint16 percentage,\r\n        uint16 daysToMaturity,\r\n        uint256 interest,\r\n        uint16 hoursToExpire\r\n    ) public payable {\r\n        _checkPercentage(percentage);\r\n\r\n        OfferLibrary.Offer memory offer = _offerManager.getOffer(offerId);\r\n\r\n        uint256 principalAmount = percentageOf(\r\n            offer.initialPrincipal,\r\n            percentage\r\n        );\r\n\r\n        /* extract tokens from lender */\r\n        if (offer.principalToken == nativeAddress) {\r\n            require(msg.value >= principalAmount);\r\n        } else {\r\n            ERC20(offer.principalToken).safeTransferFrom(\r\n                _msgSender(),\r\n                address(this),\r\n                principalAmount\r\n            );\r\n        }\r\n\r\n        /* delegate principal to lender */\r\n        _vaultManager.deposit(\r\n            _msgSender(),\r\n            offer.principalToken,\r\n            principalAmount,\r\n            offerId\r\n        );\r\n\r\n        /* create the lending request */\r\n        _offerManager.createLendingRequest(\r\n            percentage,\r\n            interest,\r\n            daysToMaturity,\r\n            hoursToExpire,\r\n            _msgSender(),\r\n            offerId\r\n        );\r\n    }\r\n\r\n    // @lenders\r\n    function acceptBorrowingOffer(uint256 offerId, uint16 percentage)\r\n        public\r\n        payable\r\n    {\r\n        _checkPercentage(percentage);\r\n\r\n        OfferLibrary.Offer memory offer = _offerManager.getOffer(offerId);\r\n\r\n        require(_msgSender() != offer.creator, \"ERR_CANT_BORROW_OWN\");\r\n\r\n        uint256 collateralAmount = percentageOf(\r\n            offer.initialCollateral,\r\n            percentage\r\n        );\r\n\r\n        uint256 principalAmount = percentageOf(\r\n            offer.initialPrincipal,\r\n            percentage\r\n        );\r\n\r\n        /* extract principal from lender/caller and transfer to borrower */\r\n        if (offer.principalToken == nativeAddress) {\r\n            require(msg.value >= principalAmount);\r\n            payable(offer.creator).transfer(principalAmount);\r\n        } else {\r\n            ERC20(offer.principalToken).safeTransferFrom(\r\n                _msgSender(),\r\n                address(this),\r\n                principalAmount\r\n            );\r\n            ERC20(offer.principalToken).safeTransfer(\r\n                offer.creator,\r\n                principalAmount\r\n            );\r\n        }\r\n\r\n        /* delegate the loan collateral to lender */\r\n        _vaultManager.transfer(\r\n            offer.creator,\r\n            _msgSender(),\r\n            offer.collateralToken,\r\n            collateralAmount,\r\n            offerId\r\n        );\r\n\r\n        uint256 collateralPriceInUSD = _priceFeed.amountInUSD(\r\n            offer.collateralToken,\r\n            collateralAmount\r\n        );\r\n\r\n        /* register the loan from the loan manager */\r\n        _loanManager.createLoan(\r\n            offer.offerId,\r\n            offer.offerType,\r\n            offer.principalToken,\r\n            offer.collateralToken,\r\n            principalAmount,\r\n            collateralAmount,\r\n            collateralPriceInUSD,\r\n            offer.interest,\r\n            offer.daysToMaturity,\r\n            offer.creator,\r\n            _msgSender()\r\n        );\r\n\r\n        // will revert the transaction if fail\r\n        _offerManager.afterOfferBorrowingLoan(\r\n            offerId,\r\n            principalAmount,\r\n            collateralAmount\r\n        );\r\n\r\n        // update activity\r\n        uint256 borrowedAmountInUSD = _priceFeed.amountInUSD(\r\n            offer.principalToken,\r\n            principalAmount\r\n        );\r\n        _activity._borrowLoan(offer.creator, borrowedAmountInUSD);\r\n    }\r\n\r\n    // @lenders\r\n    function acceptBorrowingRequest(uint256 requestId) public {\r\n        RequestLibrary.Request memory request = _offerManager.getRequest(\r\n            requestId\r\n        );\r\n\r\n        OfferLibrary.Offer memory offer = _offerManager.getOffer(\r\n            request.offerId\r\n        );\r\n\r\n        uint256 principalAmount = percentageOf(\r\n            offer.initialPrincipal,\r\n            request.percentage\r\n        );\r\n\r\n        /* transfer principal to borrower */\r\n        if (offer.principalToken == nativeAddress) {\r\n            payable(request.creator).transfer(principalAmount);\r\n        } else {\r\n            ERC20(offer.principalToken).safeTransfer(\r\n                request.creator,\r\n                principalAmount\r\n            );\r\n        }\r\n\r\n        /* delegate the loan collateral to lender */\r\n        _vaultManager.transfer(\r\n            request.creator,\r\n            _msgSender(),\r\n            request.collateralToken,\r\n            request.collateralAmount,\r\n            request.offerId\r\n        );\r\n\r\n        /* undelegate the principal from lender */\r\n        _vaultManager.withdraw(\r\n            _msgSender(),\r\n            offer.principalToken,\r\n            principalAmount,\r\n            request.offerId\r\n        );\r\n\r\n        /* register the loan from the loan manager */\r\n        _loanManager.createLoan(\r\n            request.offerId,\r\n            offer.offerType,\r\n            offer.principalToken,\r\n            request.collateralToken,\r\n            principalAmount,\r\n            request.collateralAmount,\r\n            request.collateralPriceInUSD,\r\n            request.interest,\r\n            request.daysToMaturity,\r\n            request.creator,\r\n            _msgSender()\r\n        );\r\n\r\n        // will revert the transaction if fail\r\n        _offerManager.afterOfferBorrowingLoan(\r\n            request.offerId,\r\n            principalAmount,\r\n            request.collateralAmount\r\n        );\r\n        _offerManager.acceptRequest(requestId, _msgSender());\r\n\r\n        // update activity\r\n        uint256 amountBorrowedInUSD = _priceFeed.amountInUSD(\r\n            offer.principalToken,\r\n            principalAmount\r\n        );\r\n        _activity._borrowLoan(request.creator, amountBorrowedInUSD);\r\n    }\r\n\r\n    // @borrower\r\n    function createBorrowingOffer(\r\n        address principalToken,\r\n        uint256 principalAmount,\r\n        address collateralToken,\r\n        uint256 interest,\r\n        uint16 daysToMaturity,\r\n        uint16 hoursToExpire\r\n    ) public payable {\r\n        uint256 principalAmountInUSD = _priceFeed.amountInUSD(\r\n            principalToken,\r\n            principalAmount\r\n        );\r\n\r\n        uint160 ltv = _ltv.getRelativeLTV(_msgSender(), principalAmountInUSD);\r\n\r\n        uint256 collateralNormalAmount = _priceFeed.exchangeRate(\r\n            principalToken,\r\n            collateralToken,\r\n            principalAmount\r\n        );\r\n\r\n        uint256 collateralAmount = percentageOf(\r\n            collateralNormalAmount,\r\n            ltv / _ltv.getBase()\r\n        );\r\n\r\n        /* extract collateral from borrower */\r\n        if (collateralToken == nativeAddress) {\r\n            require(msg.value >= collateralAmount);\r\n        } else {\r\n            ERC20(collateralToken).safeTransferFrom(\r\n                _msgSender(),\r\n                address(this),\r\n                collateralAmount\r\n            );\r\n        }\r\n\r\n        /* create the offer */\r\n        uint256 offerId = _offerManager.createBorrowingOffer(\r\n            principalToken,\r\n            collateralToken,\r\n            collateralAmount,\r\n            principalAmount,\r\n            interest,\r\n            daysToMaturity,\r\n            hoursToExpire,\r\n            _msgSender()\r\n        );\r\n\r\n        /* delegate the collateral to borrower */\r\n        _vaultManager.deposit(\r\n            _msgSender(),\r\n            collateralToken,\r\n            collateralAmount,\r\n            offerId\r\n        );\r\n\r\n        // update activity\r\n        uint256 amountInUSD = _priceFeed.amountInUSD(\r\n            collateralToken,\r\n            collateralAmount\r\n        );\r\n        _activity._dropCollateral(_msgSender(), amountInUSD);\r\n    }\r\n\r\n    // @borrower\r\n    function createBorrowingRequest(\r\n        uint256 offerId,\r\n        uint16 percentage,\r\n        address collateralToken,\r\n        uint256 interest,\r\n        uint16 daysToMaturity,\r\n        uint16 hoursToExpire\r\n    ) public payable {\r\n        _checkPercentage(percentage);\r\n\r\n        OfferLibrary.Offer memory offer = _offerManager.getOffer(offerId);\r\n\r\n        require(\r\n            _offerManager.isCollateralSupported(offerId, collateralToken),\r\n            \"ERR_COLLATERAL_NOT_SUPPORTED\"\r\n        );\r\n\r\n        uint256 principalAmount = percentageOf(\r\n            offer.initialPrincipal,\r\n            percentage\r\n        );\r\n\r\n        uint256 principalPriceInUSD = _priceFeed.amountInUSD(\r\n            offer.principalToken,\r\n            principalAmount\r\n        );\r\n\r\n        uint160 ltv = _ltv.getRelativeLTV(_msgSender(), principalPriceInUSD);\r\n\r\n        uint256 collateralNormalAmount = _priceFeed.exchangeRate(\r\n            offer.principalToken,\r\n            collateralToken,\r\n            principalAmount\r\n        );\r\n\r\n        uint256 collateralAmount = percentageOf(\r\n            collateralNormalAmount,\r\n            ltv / _ltv.getBase()\r\n        );\r\n\r\n        /* extract collateral from borrower */\r\n        if (collateralToken == nativeAddress) {\r\n            require(collateralAmount >= msg.value);\r\n        } else {\r\n            ERC20(collateralToken).safeTransferFrom(\r\n                _msgSender(),\r\n                address(this),\r\n                collateralAmount\r\n            );\r\n        }\r\n\r\n        /* delegate the collateral to borrower */\r\n        _vaultManager.deposit(\r\n            _msgSender(),\r\n            collateralToken,\r\n            collateralAmount,\r\n            offerId\r\n        );\r\n\r\n        uint256 collateralPriceInUSD = _priceFeed.amountInUSD(\r\n            collateralToken,\r\n            collateralAmount\r\n        );\r\n\r\n        /* create the request */\r\n        _offerManager.createBorrowingRequest(\r\n            percentage,\r\n            collateralToken,\r\n            collateralAmount,\r\n            collateralPriceInUSD,\r\n            ltv,\r\n            interest,\r\n            daysToMaturity,\r\n            hoursToExpire,\r\n            _msgSender(),\r\n            offerId\r\n        );\r\n\r\n        // update activity\r\n        _activity._dropCollateral(_msgSender(), collateralPriceInUSD);\r\n    }\r\n\r\n    // @borrower\r\n    function acceptLendingOffer(\r\n        uint256 offerId,\r\n        uint16 percentage,\r\n        address collateralToken\r\n    ) public payable {\r\n        _checkPercentage(percentage);\r\n\r\n        OfferLibrary.Offer memory offer = _offerManager.getOffer(offerId);\r\n\r\n        require(\r\n            _offerManager.isCollateralSupported(offerId, collateralToken),\r\n            \"ERR_COLLATERAL_NOT_SUPPORTED\"\r\n        );\r\n\r\n        uint256 principalAmount = percentageOf(\r\n            offer.initialPrincipal,\r\n            percentage\r\n        );\r\n\r\n        uint256 principalPriceInUSD = _priceFeed.amountInUSD(\r\n            offer.principalToken,\r\n            principalAmount\r\n        );\r\n\r\n        uint160 ltv = _ltv.getRelativeLTV(_msgSender(), principalPriceInUSD);\r\n\r\n        /* calculate the collateral amount */\r\n        uint256 collateralNormalAmount = _priceFeed.exchangeRate(\r\n            offer.principalToken,\r\n            collateralToken,\r\n            principalAmount\r\n        );\r\n\r\n        uint256 collateralAmount = percentageOf(\r\n            collateralNormalAmount,\r\n            ltv / _ltv.getBase()\r\n        );\r\n\r\n        /* extract collateral tokens from borrower */\r\n        if (collateralToken == nativeAddress) {\r\n            require(collateralAmount >= msg.value, \"ERR_COLLATERAL_AMOUNT\");\r\n        } else {\r\n            ERC20(collateralToken).safeTransferFrom(\r\n                _msgSender(),\r\n                address(this),\r\n                collateralAmount\r\n            );\r\n        }\r\n\r\n        /* transfer the principal to borrower */\r\n        if (offer.principalToken == nativeAddress) {\r\n            payable(_msgSender()).transfer(principalAmount);\r\n        } else {\r\n            ERC20(offer.principalToken).safeTransfer(\r\n                _msgSender(),\r\n                principalAmount\r\n            );\r\n        }\r\n\r\n        /* delegate the loan collateral to lender */\r\n        _vaultManager.deposit(\r\n            offer.creator,\r\n            collateralToken,\r\n            collateralAmount,\r\n            offerId\r\n        );\r\n\r\n        /* undelegate the loan principal from lender */\r\n        _vaultManager.withdraw(\r\n            offer.creator,\r\n            offer.principalToken,\r\n            principalAmount,\r\n            offerId\r\n        );\r\n\r\n        uint256 collateralPriceInUSD = _priceFeed.amountInUSD(\r\n            collateralToken,\r\n            collateralAmount\r\n        );\r\n\r\n        /* register the loan */\r\n        _loanManager.createLoan(\r\n            offerId,\r\n            offer.offerType,\r\n            offer.principalToken,\r\n            collateralToken,\r\n            principalAmount,\r\n            collateralAmount,\r\n            collateralPriceInUSD,\r\n            offer.interest,\r\n            offer.daysToMaturity,\r\n            _msgSender(),\r\n            offer.creator\r\n        );\r\n\r\n        // will revert if transaction fail\r\n        _offerManager.afterOfferLendingLoan(offerId, principalAmount);\r\n\r\n        // update activity\r\n        uint256 amountBorrowedInUSD = _priceFeed.amountInUSD(\r\n            offer.principalToken,\r\n            principalAmount\r\n        );\r\n        _activity._borrowLoan(_msgSender(), amountBorrowedInUSD);\r\n        _activity._dropCollateral(_msgSender(), collateralPriceInUSD);\r\n    }\r\n\r\n    // @borrower\r\n    function acceptLendingRequest(uint256 requestId) public payable {\r\n        RequestLibrary.Request memory request = _offerManager.getRequest(\r\n            requestId\r\n        );\r\n\r\n        OfferLibrary.Offer memory offer = _offerManager.getOffer(\r\n            request.offerId\r\n        );\r\n\r\n        uint256 collateralAmount = percentageOf(\r\n            offer.initialCollateral,\r\n            request.percentage\r\n        );\r\n\r\n        uint256 principalAmount = percentageOf(\r\n            offer.initialPrincipal,\r\n            request.percentage\r\n        );\r\n\r\n        /* transfer principal to borrower */\r\n        if (offer.principalToken == nativeAddress) {\r\n            payable(_msgSender()).transfer(principalAmount);\r\n        } else {\r\n            ERC20(offer.principalToken).safeTransfer(\r\n                _msgSender(),\r\n                principalAmount\r\n            );\r\n        }\r\n\r\n        /* delegate the loan collateral to lender */\r\n        _vaultManager.deposit(\r\n            request.creator,\r\n            offer.collateralToken,\r\n            collateralAmount,\r\n            request.offerId\r\n        );\r\n\r\n        /* undelegate the loan principal from lender */\r\n        _vaultManager.withdraw(\r\n            request.creator,\r\n            offer.principalToken,\r\n            principalAmount,\r\n            request.offerId\r\n        );\r\n\r\n        uint256 collateralPriceInUSD = _priceFeed.amountInUSD(\r\n            offer.collateralToken,\r\n            collateralAmount\r\n        );\r\n\r\n        /* register the loan from the loan manager */\r\n        _loanManager.createLoan(\r\n            request.offerId,\r\n            offer.offerType,\r\n            offer.principalToken,\r\n            offer.collateralToken,\r\n            principalAmount,\r\n            collateralAmount,\r\n            collateralPriceInUSD,\r\n            request.interest,\r\n            request.daysToMaturity,\r\n            _msgSender(),\r\n            request.creator\r\n        );\r\n\r\n        // will revert the transaction if fail\r\n        _offerManager.afterOfferLendingLoan(offer.offerId, principalAmount);\r\n        _offerManager.acceptRequest(requestId, _msgSender());\r\n\r\n        // update activityj\r\n        uint256 amountBorrowedInUSD = _priceFeed.amountInUSD(\r\n            offer.principalToken,\r\n            principalAmount\r\n        );\r\n        _activity._borrowLoan(_msgSender(), amountBorrowedInUSD);\r\n        _activity._dropCollateral(_msgSender(), collateralPriceInUSD);\r\n    }\r\n\r\n    // @lender\r\n    function reActivateOffer(uint256 offerId, uint16 toExpire) public {\r\n        _offerManager.reActivateOffer(offerId, toExpire, _msgSender());\r\n    }\r\n\r\n    // @borrower\r\n    function repayLoan(uint256 loanId, uint16 percentage) public payable {\r\n        _checkPercentage(percentage);\r\n\r\n        LoanLibrary.Loan memory loan = _loanManager.getLoan(loanId);\r\n\r\n        // verify the borrower is the repayer\r\n        require(loan.borrower == _msgSender(), \"ERR_NOT_BORROWER\");\r\n\r\n        // calculate the duration of the loan\r\n        uint256 time = block.timestamp;\r\n        uint256 ellapsedSecs = (time - loan.startDate);\r\n\r\n        uint256 principalAmount = percentageOf(\r\n            loan.initialPrincipal,\r\n            percentage\r\n        );\r\n\r\n        uint256 collateralAmount = percentageOf(\r\n            loan.initialCollateral,\r\n            percentage\r\n        );\r\n\r\n        // calculate the pay back amount\r\n        uint256 repaymentPrincipal = getFullInterestAmount(\r\n            principalAmount,\r\n            ellapsedSecs,\r\n            loan.interest\r\n        );\r\n\r\n        uint256 interestPaid = (repaymentPrincipal - principalAmount);\r\n        uint256 fee = percentageOf(interestPaid, _feeManager.feePercentage());\r\n        uint256 unClaimedInterest = (interestPaid - fee);\r\n\r\n        _feeManager.credit(loan.principalToken, fee);\r\n\r\n        // will revert the transaction if fail\r\n        bool completed = _loanManager.repayLoan(\r\n            loanId,\r\n            unClaimedInterest,\r\n            principalAmount,\r\n            collateralAmount\r\n        );\r\n\r\n        /* extract pay back amount */\r\n        if (loan.principalToken == nativeAddress) {\r\n            require(msg.value >= repaymentPrincipal);\r\n        } else {\r\n            ERC20(loan.principalToken).safeTransferFrom(\r\n                _msgSender(),\r\n                address(this),\r\n                repaymentPrincipal\r\n            );\r\n        }\r\n\r\n        // update activity\r\n        uint256 interestPaidInUSD = _priceFeed.amountInUSD(\r\n            loan.principalToken,\r\n            (repaymentPrincipal - principalAmount)\r\n        );\r\n\r\n        uint256 amountPaidInUSD = _priceFeed.amountInUSD(\r\n            loan.principalToken,\r\n            principalAmount\r\n        );\r\n\r\n        _activity._repayLoan(\r\n            _msgSender(),\r\n            amountPaidInUSD,\r\n            interestPaidInUSD,\r\n            completed\r\n        );\r\n    }\r\n\r\n    function rejectRequest(uint256 requestId) public {\r\n        _offerManager.rejectRequest(requestId, _msgSender());\r\n    }\r\n\r\n    function cancelLendRequest(uint256 requestId) public {\r\n        RequestLibrary.Request memory request = _offerManager.getRequest(\r\n            requestId\r\n        );\r\n        require(request.requestType == RequestLibrary.Type.LENDING_REQUEST);\r\n\r\n        OfferLibrary.Offer memory offer = _offerManager.getOffer(\r\n            request.offerId\r\n        );\r\n\r\n        uint256 principalAmount = percentageOf(\r\n            offer.initialPrincipal,\r\n            request.percentage\r\n        );\r\n\r\n        if (offer.principalToken == nativeAddress) {\r\n            payable(_msgSender()).transfer(principalAmount);\r\n        } else {\r\n            ERC20(offer.principalToken).safeTransfer(\r\n                _msgSender(),\r\n                principalAmount\r\n            );\r\n        }\r\n\r\n        _offerManager.cancelRequest(requestId, _msgSender());\r\n    }\r\n\r\n    function cancelBorrowRequest(uint256 requestId) public {\r\n        RequestLibrary.Request memory request = _offerManager.getRequest(\r\n            requestId\r\n        );\r\n        require(request.requestType == RequestLibrary.Type.BORROWING_REQUEST);\r\n\r\n        OfferLibrary.Offer memory offer = _offerManager.getOffer(\r\n            request.offerId\r\n        );\r\n\r\n        if (offer.collateralToken == nativeAddress) {\r\n            payable(_msgSender()).transfer(request.collateralAmount);\r\n        } else {\r\n            ERC20(offer.collateralToken).safeTransfer(\r\n                _msgSender(),\r\n                request.collateralAmount\r\n            );\r\n        }\r\n\r\n        _offerManager.cancelRequest(requestId, _msgSender());\r\n    }\r\n\r\n    function claimCollateral(uint256 loanId) public {\r\n        LoanLibrary.Loan memory loan = _loanManager.getLoan(loanId);\r\n\r\n        if (loan.collateralToken == nativeAddress) {\r\n            payable(_msgSender()).transfer(loan.unClaimedCollateral);\r\n        } else {\r\n            ERC20(loan.collateralToken).safeTransfer(\r\n                _msgSender(),\r\n                loan.unClaimedCollateral\r\n            );\r\n        }\r\n\r\n        _loanManager.claimCollateral(loanId, _msgSender());\r\n    }\r\n\r\n    function claimPrincipal(uint256 loanId) public {\r\n        LoanLibrary.Loan memory loan = _loanManager.getLoan(loanId);\r\n\r\n        if (loan.principalToken == nativeAddress) {\r\n            payable(_msgSender()).transfer(loan.unClaimedPrincipal);\r\n        } else {\r\n            ERC20(loan.principalToken).safeTransfer(\r\n                _msgSender(),\r\n                loan.unClaimedPrincipal\r\n            );\r\n        }\r\n\r\n        _loanManager.claimPrincipal(loanId, _msgSender());\r\n    }\r\n\r\n    function claimDefaultCollateral(uint256 loanId) public {\r\n        LoanLibrary.Loan memory loan = _loanManager.getLoan(loanId);\r\n\r\n        if (loan.collateralToken == nativeAddress) {\r\n            payable(_msgSender()).transfer(loan.unClaimedDefaultCollateral);\r\n        } else {\r\n            ERC20(loan.collateralToken).safeTransfer(\r\n                _msgSender(),\r\n                loan.unClaimedDefaultCollateral\r\n            );\r\n        }\r\n\r\n        _loanManager.claimDefaultCollateral(loanId, _msgSender());\r\n    }\r\n\r\n    function repayLiquidatedLoan(uint256 loanId) public payable {}\r\n\r\n    function liquidateLoan(uint256 loanId) public onlyOwner {\r\n        LoanLibrary.Loan memory loan = _loanManager.getLoan(loanId);\r\n\r\n        // calculate the duration of the loan\r\n        uint256 time = block.timestamp;\r\n        uint256 ellapsedSecs = (time - loan.startDate);\r\n\r\n        uint256 repaymentPrincipal = getFullInterestAmount(\r\n            loan.currentPrincipal,\r\n            ellapsedSecs,\r\n            loan.interest\r\n        );\r\n\r\n        uint256 repaymentCollateral = _priceFeed.exchangeRate(\r\n            loan.principalToken,\r\n            loan.collateralToken,\r\n            repaymentPrincipal\r\n        );\r\n\r\n        uint256 interestInCollateral = _priceFeed.exchangeRate(\r\n            loan.principalToken,\r\n            loan.collateralToken,\r\n            (repaymentPrincipal - loan.currentPrincipal)\r\n        );\r\n\r\n        uint256 principalPaid;\r\n        uint256 collateralRetrieved;\r\n        uint256 collateralFee;\r\n\r\n        uint256 fee = percentageOf(\r\n            interestInCollateral,\r\n            _feeManager.feePercentage()\r\n        );\r\n\r\n        if (loan.currentCollateral >= (repaymentCollateral - fee)) {\r\n            collateralRetrieved = (repaymentCollateral - fee);\r\n            principalPaid = loan.currentPrincipal;\r\n\r\n            if (loan.currentCollateral >= repaymentCollateral) {\r\n                collateralFee = fee;\r\n            } else {\r\n                collateralRetrieved = loan.currentCollateral;\r\n                collateralFee = (loan.currentCollateral -\r\n                    (repaymentCollateral - fee));\r\n            }\r\n        } else {\r\n            collateralRetrieved = loan.currentCollateral;\r\n\r\n            uint256 collateralInPrincipal = _priceFeed.exchangeRate(\r\n                loan.collateralToken,\r\n                loan.principalToken,\r\n                collateralRetrieved\r\n            );\r\n\r\n            principalPaid = collateralInPrincipal;\r\n            collateralFee = 0;\r\n        }\r\n\r\n        _feeManager.credit(loan.collateralToken, collateralFee);\r\n\r\n        _loanManager.liquidateLoan(\r\n            loanId,\r\n            principalPaid,\r\n            collateralRetrieved,\r\n            (collateralRetrieved - collateralFee)\r\n        );\r\n    }\r\n\r\n    function setLTV(address ltv_) public onlyOwner {\r\n        _ltv = ILoanToValueRatio(ltv_);\r\n    }\r\n\r\n    function setActivity(address activity_) public onlyOwner {\r\n        _activity = Activity(activity_);\r\n    }\r\n\r\n    function setPriceFeed(address priceFeed_) public onlyOwner {\r\n        _priceFeed = IPriceFeed(priceFeed_);\r\n    }\r\n\r\n    function changeOwner(address newOwner) public onlyOwner {\r\n        deployer = newOwner;\r\n    }\r\n\r\n    /// @dev to claim revenue\r\n    function claim(\r\n        address token,\r\n        address payable receiver,\r\n        uint256 amount\r\n    ) public onlyOwner {\r\n        require(amount > 0, \"ERR_ZERO_AMOUNT\");\r\n        _feeManager.debit(token, amount);\r\n        if (token == nativeAddress) {\r\n            receiver.transfer(amount);\r\n        } else {\r\n            ERC20(token).safeTransfer(receiver, amount);\r\n        }\r\n    }\r\n\r\n    function _checkPercentage(uint16 percentage) private pure {\r\n        // percentage must be 25, 50, 75 or 100\r\n        require(percentage <= 100, \"OVER_PERCENTAGE\");\r\n        require(percentage % 25 == 0, \"ERR_PERCENTAGE\");\r\n    }\r\n\r\n    modifier onlyOwner() {\r\n        require(_msgSender() == deployer, \"ERR_ONLY_OWNER\");\r\n        _;\r\n    }\r\n}\r\n",
  "sourcePath": "C:\\Users\\DELL\\Documents\\darsh\\smart-contracts\\contracts\\LendingPool.sol",
  "compiler": {
    "name": "solc",
    "version": "0.8.17+commit.8df45f5f.Emscripten.clang"
  },
  "schemaVersion": "3.4.11",
  "updatedAt": "2023-02-19T13:22:58.053Z",
  "devdoc": {
    "kind": "dev",
    "methods": {
      "claim(address,address,uint256)": {
        "details": "to claim revenue"
      }
    },
    "version": 1
  },
  "userdoc": {
    "kind": "user",
    "methods": {},
    "version": 1
  }
}