{
  "contractName": "LendingPool",
  "abi": [
    {
      "inputs": [
        {
          "internalType": "address",
          "name": "ltv_",
          "type": "address"
        },
        {
          "internalType": "address",
          "name": "activity_",
          "type": "address"
        },
        {
          "internalType": "address",
          "name": "poolManager_",
          "type": "address"
        },
        {
          "internalType": "address",
          "name": "loanManager_",
          "type": "address"
        },
        {
          "internalType": "address",
          "name": "offerManager_",
          "type": "address"
        }
      ],
      "stateMutability": "nonpayable",
      "type": "constructor"
    },
    {
      "inputs": [],
      "name": "INTEREST_RATE_DENOMINATOR",
      "outputs": [
        {
          "internalType": "uint256",
          "name": "",
          "type": "uint256"
        }
      ],
      "stateMutability": "view",
      "type": "function"
    },
    {
      "inputs": [
        {
          "internalType": "uint256",
          "name": "principal",
          "type": "uint256"
        },
        {
          "internalType": "uint256",
          "name": "durationSecs",
          "type": "uint256"
        },
        {
          "internalType": "uint256",
          "name": "interest",
          "type": "uint256"
        }
      ],
      "name": "getFullInterestAmount",
      "outputs": [
        {
          "internalType": "uint256",
          "name": "",
          "type": "uint256"
        }
      ],
      "stateMutability": "pure",
      "type": "function"
    },
    {
      "inputs": [],
      "name": "nativeAddress",
      "outputs": [
        {
          "internalType": "address",
          "name": "",
          "type": "address"
        }
      ],
      "stateMutability": "view",
      "type": "function"
    },
    {
      "inputs": [
        {
          "internalType": "uint256",
          "name": "total",
          "type": "uint256"
        },
        {
          "internalType": "uint160",
          "name": "percent",
          "type": "uint160"
        }
      ],
      "name": "percentageInverseOf",
      "outputs": [
        {
          "internalType": "uint256",
          "name": "",
          "type": "uint256"
        }
      ],
      "stateMutability": "pure",
      "type": "function"
    },
    {
      "inputs": [
        {
          "internalType": "uint256",
          "name": "total",
          "type": "uint256"
        },
        {
          "internalType": "uint160",
          "name": "percent",
          "type": "uint160"
        }
      ],
      "name": "percentageOf",
      "outputs": [
        {
          "internalType": "uint256",
          "name": "",
          "type": "uint256"
        }
      ],
      "stateMutability": "pure",
      "type": "function"
    },
    {
      "inputs": [
        {
          "internalType": "uint256",
          "name": "principalAmount_",
          "type": "uint256"
        },
        {
          "internalType": "address",
          "name": "principalToken",
          "type": "address"
        },
        {
          "internalType": "address[]",
          "name": "collateralTokens",
          "type": "address[]"
        },
        {
          "internalType": "uint256",
          "name": "daysToMaturity",
          "type": "uint256"
        },
        {
          "internalType": "uint256",
          "name": "interest",
          "type": "uint256"
        },
        {
          "internalType": "uint256",
          "name": "daysToExpire",
          "type": "uint256"
        }
      ],
      "name": "createLendingOffer",
      "outputs": [],
      "stateMutability": "payable",
      "type": "function"
    },
    {
      "inputs": [
        {
          "internalType": "uint256",
          "name": "offerId",
          "type": "uint256"
        },
        {
          "internalType": "uint16",
          "name": "percentage",
          "type": "uint16"
        }
      ],
      "name": "acceptBorrowingOffer",
      "outputs": [],
      "stateMutability": "payable",
      "type": "function"
    },
    {
      "inputs": [
        {
          "internalType": "uint256",
          "name": "requestId",
          "type": "uint256"
        }
      ],
      "name": "acceptBorrowingRequest",
      "outputs": [],
      "stateMutability": "payable",
      "type": "function"
    },
    {
      "inputs": [
        {
          "internalType": "address",
          "name": "principalToken",
          "type": "address"
        },
        {
          "internalType": "address",
          "name": "collateralToken",
          "type": "address"
        },
        {
          "internalType": "uint256",
          "name": "collateralAmount_",
          "type": "uint256"
        },
        {
          "internalType": "uint256",
          "name": "interest",
          "type": "uint256"
        },
        {
          "internalType": "uint256",
          "name": "daysToMaturity",
          "type": "uint256"
        },
        {
          "internalType": "uint256",
          "name": "daysToExpire",
          "type": "uint256"
        }
      ],
      "name": "createBorrowingOffer",
      "outputs": [],
      "stateMutability": "payable",
      "type": "function"
    },
    {
      "inputs": [
        {
          "internalType": "uint256",
          "name": "offerId",
          "type": "uint256"
        },
        {
          "internalType": "uint16",
          "name": "percentage",
          "type": "uint16"
        },
        {
          "internalType": "address",
          "name": "collateralToken",
          "type": "address"
        }
      ],
      "name": "acceptLendingOffer",
      "outputs": [],
      "stateMutability": "payable",
      "type": "function"
    },
    {
      "inputs": [
        {
          "internalType": "uint256",
          "name": "requestId",
          "type": "uint256"
        }
      ],
      "name": "acceptLendingRequest",
      "outputs": [],
      "stateMutability": "payable",
      "type": "function"
    },
    {
      "inputs": [
        {
          "internalType": "uint256",
          "name": "loanId",
          "type": "uint256"
        },
        {
          "internalType": "uint16",
          "name": "percentage",
          "type": "uint16"
        }
      ],
      "name": "repayLoan",
      "outputs": [],
      "stateMutability": "payable",
      "type": "function"
    },
    {
      "inputs": [
        {
          "internalType": "uint256",
          "name": "loanId",
          "type": "uint256"
        }
      ],
      "name": "repayLiquidatedLoan",
      "outputs": [],
      "stateMutability": "payable",
      "type": "function"
    },
    {
      "inputs": [
        {
          "internalType": "address",
          "name": "priceFeed_",
          "type": "address"
        }
      ],
      "name": "setPriceFeed",
      "outputs": [],
      "stateMutability": "nonpayable",
      "type": "function"
    },
    {
      "inputs": [
        {
          "internalType": "address",
          "name": "newOwner",
          "type": "address"
        }
      ],
      "name": "changeOwner",
      "outputs": [],
      "stateMutability": "nonpayable",
      "type": "function"
    }
  ],
  "bytecode": "0x608034620000f057601f62002ce638819003918201601f19168301916001600160401b03831184841017620000f55780849260a094604052833981010312620000f0576200004d816200010b565b906200005c602082016200010b565b906200006b604082016200010b565b9162000088608062000080606085016200010b565b93016200010b565b91600160005560018060a01b0380948180948160018060a01b031999168960045416176004551687600254161760025516856005541617600555168360065416176006551681600754161760075533906001541617600155604051612bc59081620001218239f35b600080fd5b634e487b7160e01b600052604160045260246000fd5b51906001600160a01b0382168203620000f05756fe608080604052600436101561001357600080fd5b60009060e08235811c9182632e4763371461234d575081634add7c8214611e685781635c7f31aa14611a0b57816361ba944314611975578163628118ee14611548578163724e78da146114f8578163a33928da14611054578163a49dd9b514610d5e578163a6f9dae114610d10578163b9610db414610927578163cc3266e814610904578163e0b26959146108ea578163e0f7dffd146108c5578163e826fbe7146100ec575063f4e02f46146100c857600080fd5b346100e95760206100e16100db36612406565b90612b58565b604051908152f35b80fd5b8260603660031901126100e95761010161237b565b9160449081356001600160a01b03811691908290036104d15760075460405163ab64a18560e01b8152600480359082015291908590839060249082906001600160a01b03165afa91821561053057859261089d575b5081015161016e906001600160a01b031642106125b6565b61019061ffff8096169561018560648811156125f6565b601987061615612634565b8394845b60c0830151805182101561089257600582901b01602001516001600160a01b031684146101e05760001981146101cc57600101610194565b634e487b7160e01b86526011600452602486fd5b50909192945060015b1561084e576101fc906060830151612b34565b918260408301511061080a576024602060018060a01b0360045416604051928380926356512fcd60e11b82523360048301525afa80156105305785906107cf575b600354602085810151604051631c07d98160e21b81526001600160a01b0391821660048201528a35821660248201526044810189905294509091849116818981606481015b03925af1801561076157869061079b575b61029d9250612b34565b60048054604051636882509b60e11b81529160209183919082906001600160a01b03165afa908115610761576102e0929160ff91889161076c575b5016906128cd565b9073eeeeeeeeeeeeeeeeeeeeeeeeeeeeeeeeeeeeeeee908181036106f257503482106106b6575b60208301516001600160a01b03169081036105455750938394848085801561053b575b8280929181923390f1156104f2575b602060018060a01b03600654169160018060a01b03828601511692868860808801519561039860a08a01518960018060a01b036101208d015116916040519a8b998a988997631c57bf7160e21b89523395359060043560048b01612671565b03925af1801561053057610501575b506007546001600160a01b031690813b156104fd57849182916040518094819363f094cb9560e01b835260043560048401528860248401525af19081156104f25784916104de575b505060035460209182015160405163912d228f60e01b81526001600160a01b0391821660048201526024810194909452839160449183918791165af19081156104955782916104a4575b506002546001600160a01b0316803b156104a0576040516311eba9df60e21b8152336004820152602481019290925282908290818381604481015b03925af18015610495576104855750f35b61048e906123b8565b6100e95780f35b6040513d84823e3d90fd5b5050fd5b9150506020813d6020116104d6575b816104c0602093836123cc565b810103126104d15781905183610439565b600080fd5b3d91506104b3565b6104e7906123b8565b6104a05782856103ef565b6040513d86823e3d90fd5b8480fd5b6020809295503d8311610529575b61051981836123cc565b810103126104d1578392856103a7565b503d61050f565b6040513d87823e3d90fd5b6108fc915061032a565b60405163a9059cbb60e01b6020820152336024820152604480820186905281526105706064826123cc565b6040519081604081011067ffffffffffffffff6040840111176106935786809160408401604052602084527f5361666545524332303a206c6f772d6c6576656c2063616c6c206661696c6564602085015260208151910182865af13d156106a9573d9067ffffffffffffffff82116106935761060c93604051926105fe6020601f19601f84011601856123cc565b83523d89602085013e6128ed565b80518061061e575b5050938394610339565b9060208061063093830101910161242c565b1561063c578580610614565b60405162461bcd60e51b815260206004820152602a60248201527f5361666545524332303a204552433230206f7065726174696f6e20646964206e81870152691bdd081cdd58d8d9595960b21b6064820152608490fd5b634e487b7160e01b600052604160045260246000fd5b9161060c926060916128ed565b60405162461bcd60e51b815260206004820152601560248201527411549497d0d3d31310551154905317d05353d55395605a1b81880152606490fd5b6040516323b872dd60e01b81523360048201523060248201526044810184905290602090829060649082908a905af1801561076157610732575b50610307565b6107539060203d60201161075a575b61074b81836123cc565b81019061242c565b508661072c565b503d610741565b6040513d88823e3d90fd5b61078e915060203d602011610794575b61078681836123cc565b8101906128b4565b896102d8565b503d61077c565b506020823d6020116107c7575b816107b5602093836123cc565b810103126104d15761029d9151610293565b3d91506107a8565b506020813d602011610802575b816107e9602093836123cc565b810103126104fd576107fd610282916124dc565b61023d565b3d91506107dc565b60405162461bcd60e51b815260206004820152601760248201527f4552525f494e53554646494349454e545f414d4f554e5400000000000000000081870152606490fd5b60405162461bcd60e51b815260206004820152601c60248201527f4552525f434f4c4c41544552414c5f4e4f545f535550504f525445440000000081870152606490fd5b5050909192946101e9565b61016e9192506108be903d8088833e6108b681836123cc565b810190612754565b9190610156565b82346100e95760603660031901126100e95760206100e1604435602435600435612b0a565b82346100e95760206100e16108fe36612406565b90612b34565b82346100e957806003193601126100e9576020604051670de0b6b3a76400008152f35b8260c03660031901126100e9578061093d61238c565b6109456123a2565b6001600160a01b03908082169060443573eeeeeeeeeeeeeeeeeeeeeeeeeeeeeeeeeeeeeeee8303610ca9575034915b83600454169460405180966356512fcd60e11b82523360048301528160246020998a935afa908115610c9e578891610c65575b50600354604051631c07d98160e21b81526001600160a01b0386811660048301528416602482015260448101879052908890829060649082908d908c165af1908115610c09578991610c31575b50600491610a0191612b58565b878783541660405193848092636882509b60e11b82525afa918215610c0957610a359260ff918b91610c14575016906128cd565b600554604051638340f54960e01b81523360048201526001600160a01b038616602482015260448101879052908890829060649082908d908c165af1928315610c0957898893610a918b96610104958491610bec575b50612444565b8460075416906040519788968795637789f19f60e01b875216600486015260248501528960448501526064840152606435608484015260843560a484015260a43560c48401523360e48401525af1908115610761578691610bb7575b50918491610aff610b3a941515612490565b60035460405163912d228f60e01b81526001600160a01b03909216600483015260248201929092529283918516908290889082906044820190565b03925af19283156104f2578493610b84575b505060025416803b156104a05760405163094f618d60e11b815233600482015260248101929092528290829081838160448101610474565b819450809293503d8311610bb0575b610b9d81836123cc565b810103126104d157829151908480610b4c565b503d610b93565b8092939650858092503d8311610be5575b610bd281836123cc565b810103126104d157518594919084610aed565b503d610bc8565b610c039150883d8a1161075a5761074b81836123cc565b8f610a8b565b6040513d8b823e3d90fd5b610c2b91508a3d8c116107945761078681836123cc565b8c6102d8565b809950888092503d8311610c5e575b610c4a81836123cc565b810103126104d157965188979060046109f4565b503d610c40565b90508681813d8311610c97575b610c7c81836123cc565b81010312610c9357610c8d906124dc565b896109a7565b8780fd5b503d610c72565b6040513d8a823e3d90fd5b6040516323b872dd60e01b8152336004820152306024820152604481018290529092906020816064818a865af18015610d0557610ce7575b50610974565b610cfe9060203d811161075a5761074b81836123cc565b5087610ce1565b6040513d89823e3d90fd5b82346100e95760203660031901126100e957610d2a61238c565b600154906001600160a01b0390610d443383851614612aba565b16906bffffffffffffffffffffffff60a01b161760015580f35b905060c036600319011261105057600435610d776123a2565b916044359167ffffffffffffffff83116104fd57366023840112156104fd57826004013590610da5826123ee565b610db260405191826123cc565b8281526020948582016024819560051b8301019136831161104c57602401905b82821061102d57505050805115610fe8576001600160a01b038681169290919073eeeeeeeeeeeeeeeeeeeeeeeeeeeeeeeeeeeeeeee8403610f7b5750610e57863480995b600554604051638340f54960e01b81523360048201526001600160a01b039092166024830152604482019290925292839186169082908d9082906064820190565b03925af18015610c0957610e7c918a91610f5e575b5093899391889799969395612444565b816007541694604051998a9763dbaf4f7f60e01b895260e489019360048a015260248901526084356044890152606435606489015260a435608489015260a4880152518091526101048601929184905b828210610f3d5750505050908380923360c483015203925af1908115610f32578391610f02575b83610eff831515612490565b80f35b905081813d8311610f2b575b610f1881836123cc565b810103126104d157610eff905138610ef3565b503d610f0e565b6040513d85823e3d90fd5b83518116855289988b98508c96509485019490930192600190910190610ecc565b610f759150883d8a1161075a5761074b81836123cc565b38610e6c565b6040516323b872dd60e01b81523360048201523060248201526044810182905290979087816064818d895af18015610fdd57610e579289928b92610fc0575b50610e16565b610fd690843d861161075a5761074b81836123cc565b5038610fba565b6040513d8c823e3d90fd5b60405162461bcd60e51b815260048101869052601760248201527f4552525f4e4f5f434f4c4c41544552414c5f54595045530000000000000000006044820152606490fd5b81356001600160a01b03811681036104d1578152908701908701610dd2565b8980fd5b5080fd5b90506040366003190112611050576004359061106e61237b565b9060018060a01b038060075416604051809163bf1e609760e01b82528660048301528160246101809485935afa918215610d055787926114cb575b50506110bd826101208301511642106125b6565b610160810193828551163314611490576110ef61ffff809216916110e460648411156125f6565b601983061615612634565b61110b611100826080850151612b34565b9160c0840151612b34565b91816060820151101580611482575b1561143e578796602095868301928684511673eeeeeeeeeeeeeeeeeeeeeeeeeeeeeeeeeeeeeeee811460001461136b575085341061104c5789808080898b8e5116828215611362575bf115610c09578861014489925b8c8a600654168251928c8a5116958d610100816040850151169a84015193015191511691604051998a988997631c57bf7160e21b8952600489015260016024890152604488015260648701528d60848701528c60a487015260c486015260e4850152610104840152336101248401525af1908115610c0957899161132e575b506111fb9015156126c6565b846007541692833b1561132a576040516324b42bc160e01b815260048101929092526024820185905260448201529187908390606490829084905af18015610d05578592889161130d575b5050600354905160405163912d228f60e01b81529085166001600160a01b031660048201526024810193909352829084168188816044810103925af19283156105305785936112da575b5050806002541692511690823b156112d5576040516311eba9df60e21b81526001600160a01b0390921660048301526024820152908290829081838160448101610474565b505050fd5b819550809293503d8311611306575b6112f381836123cc565b810103126104d157839251903880611290565b503d6112e9565b611319919293506123b8565b6113265783908638611246565b8580fd5b8880fd5b809950878092503d831161135b575b61134781836123cc565b810103126104d1576111fb899851906111ef565b503d61133d565b506108fc611163565b6040516323b872dd60e01b815233600482015230602482015260448101889052908990829060649082908f905af1801561141657611421575b508351895160405163a9059cbb60e01b81529089166001600160a01b031660048201526024810188905290899082908a16818e816044810103925af180156114165789928b92610144926113f9575b50611170565b61140f90853d871161075a5761074b81836123cc565b50386113f3565b6040513d8d823e3d90fd5b61143790893d8b1161075a5761074b81836123cc565b50386113a4565b606460405162461bcd60e51b815260206004820152602060248201527f4552525f434f4c4c41544552414c5f5052494e434950414c5f42414c414e43456044820152fd5b508260a0820151101561111a565b60405162461bcd60e51b815260206004820152601360248201527222a9292fa1a0a72a2fa127a92927abafa7aba760691b6044820152606490fd5b6114ea9250803d106114f1575b6114e281836123cc565b8101906124f0565b38806110a9565b503d6114d8565b82346100e95760203660031901126100e95761151261238c565b6001546001600160a01b03919061152c9083163314612aba565b166bffffffffffffffffffffffff60a01b600354161760035580f35b8260403660031901126100e9576004359161156161237b565b600654604051632820036560e11b8152600481018690526001600160a01b03959293926101e0929091908716908381602481855afa938415610d05578794611946575b50506115bd61ffff8096169561018560648811156125f6565b866101a084015116330361190e57866101408401511687421603908782116118f85761160e6115fe6115f38860a0880151612b34565b978897870151612b34565b9289610120870151911687612b0a565b92604051809263464244f960e11b8252818a816116448860209d8e98600485016040919493926060820195825260208201520152565b03925af18015610d05576118db575b50606083018051909373eeeeeeeeeeeeeeeeeeeeeeeeeeeeeeeeeeeeeeee9189168281036118745750833410610c935791868893928a608086955b01511690810361181d575050818091818115611814575b3390f1156104f2575b856003541686835116918481039081116118005760405163912d228f60e01b8082526001600160a01b0394909416600482015260248101919091529596879695949093909290918590879060449082908b905af1958615610d055787966117c8575b50600354915160405191825284166001600160a01b031660048201526024810192909252839082906044908290899087165af1928315610530578593611795575b50506002541691823b156112d5576064849283604051958694859363720722fd60e01b8552336004860152602485015260448401525af18015610495576104855750f35b819550809293503d83116117c1575b6117ae81836123cc565b810103126104d157839251908580611751565b503d6117a4565b9296509450908381813d81116117f9575b6117e381836123cc565b810103126104d157518695909490919084611710565b503d6117d9565b634e487b7160e01b87526011600452602487fd5b506108fc6116a5565b60405163a9059cbb60e01b815233600482015260248101939093529193909250839160449183915af1801561076157611857575b506116ae565b61186d90853d871161075a5761074b81836123cc565b5086611851565b6040516323b872dd60e01b815233600482015230602482015260448101869052908890829060649082908d905af18015610c0957928a60808b96948b9488976118be575b5061168e565b6118d490863d881161075a5761074b81836123cc565b508e6118b8565b6118f190863d881161075a5761074b81836123cc565b5087611653565b634e487b7160e01b600052601160045260246000fd5b60405162461bcd60e51b815260206004820152601060248201526f22a9292fa727aa2fa127a92927aba2a960811b6044820152606490fd5b611966929450803d1061196e575b61195e81836123cc565b8101906129c1565b9187806115a4565b503d611954565b8260203660031901126100e957600654604051632820036560e11b815260048035908201526101e0918290829060249082906001600160a01b03165afa908115610f325760209284926119ee575b5050015160038110156119da576002036100e95780f35b634e487b7160e01b82526021600452602482fd5b611a049250803d1061196e5761195e81836123cc565b83806119c3565b82602080600319360112611050576007546040516314c7eb4960e01b815260048035908201526001600160a01b039182166101208083602481855afa928315610761578693611db9575b5050611a6660a08301514210612712565b6101008201805160405192839163bf1e609760e01b835260048301528160246101809586935afa928315610d05578793611d9a575b505083610160830151163303611d61578596608083015190611ada60608601611acb61ffff948583511690612b34565b9360c087015191511690612b34565b94826060860151101580611d53575b611af290612876565b8785019389898987511673eeeeeeeeeeeeeeeeeeeeeeeeeeeeeeeeeeeeeeee8114600014611cf057505080888015611ce6575b8280929181923390f115610c0957878a87611b808c96898c975b8660408180600654169a5194511696015116968a82015193608083015192015116926040519b8c9a8b998a98631c57bf7160e21b8a52339660048b01612671565b03925af1908115610d05578791611cb2575b50611b9e9015156126c6565b83600754169151823b15611cae57869260448492604051958693849263f094cb9560e01b845260048401528860248401525af180156107615785928791611c95575b5050600354905160405163912d228f60e01b81529085166001600160a01b031660048201526024810193909352829084168187816044810103925af19283156104f2578493611c62575b505060025416803b156104a0576040516311eba9df60e21b815233600482015260248101929092528290829081838160448101610474565b819450809293503d8311611c8e575b611c7b81836123cc565b810103126104d157829151908480611c2a565b503d611c71565b611ca1919293506123b8565b6104fd5783908588611be0565b8680fd5b809750868092503d8311611cdf575b611ccb81836123cc565b810103126104d157611b9e87965190611b92565b503d611cc1565b6108fc9150611b25565b60405163a9059cbb60e01b8152336004820152602481018b9052949592859160449183915af180156114165787611b808b93898f94988f99988e99611d36575b50611b3f565b611d4c908b3d8d1161075a5761074b81836123cc565b5038611d30565b5060a0850151861115611ae9565b60405162461bcd60e51b815260048101869052601160248201527022a9292fa7a7262cafa127a92927aba2a960791b6044820152606490fd5b611db1929350803d106114f1576114e281836123cc565b908780611a9b565b908092935081813d8311611e61575b611dd281836123cc565b810103126113265760405191820182811067ffffffffffffffff8211176106935760405280518252848101518583015260408101516040830152606081015161ffff81168103611cae5760608301526080810151608083015260a081015160a083015260c081015160c0830152611e4a8782016124dc565b878301526101008091015190820152908680611a55565b503d611dc8565b8260203660031901126100e957600754604051632a3884d760e21b815260048035908201526001600160a01b03918216939190610140908181602481895afa93841561053057859461227f575b505050611ec760c08301514210612712565b61012093838584015160246040518094819363ab64a18560e01b835260048301525afa9081156104f2578491612265575b50818582015116330361222e57604081015194611f1c606085019687511115612876565b848360208401511673eeeeeeeeeeeeeeeeeeeeeeeeeeeeeeeeeeeeeeee81146000146121605750508551803410611326578580808093876101008a015116828215612157575bf1156104f2575b82600654166020828601519185828601511690868389015116898b5193611fc260408c01519760808d01518d8d61010060a083015192015116916040519b8c9a8b998a98631c57bf7160e21b8a52339760048b01612671565b03925af18015610761578690612123575b611fdf915015156126c6565b826007541690840151908651604086015192823b15610c93576040516324b42bc160e01b815260048101919091526024810191909152604481019290925285908290606490829084905af1801561053057612109575b50600354602091820151955160405163912d228f60e01b81529684166001600160a01b031660048801526024870152939485949092919083908316818781604481015b03925af19182156104f25784926120d2575b5061010081600254169301511690823b156112d5576040516311eba9df60e21b81526001600160a01b0390921660048301526024820152908290829081838160448101610474565b935090506020833d602011612101575b816120ef602093836123cc565b810103126104d157839251908561208a565b3d91506120e2565b61207892919461211a6020926123b8565b94919250612035565b506020813d60201161214f575b8161213d602093836123cc565b8101031261132657611fdf9051611fd3565b3d9150612130565b506108fc611f62565b87516040516323b872dd60e01b815233600482015230602482015260448101919091529160209183916064918391905af180156107615761220f575b50602082810151610100860151885160405163a9059cbb60e01b81529187166001600160a01b0316600483015260248201529190829086168189816044810103925af18015610761576121f0575b50611f69565b6122089060203d60201161075a5761074b81836123cc565b50866121ea565b6122279060203d60201161075a5761074b81836123cc565b508661219c565b60405162461bcd60e51b815260206004820152600f60248201526e22a9292fa7a7262cafa622a72222a960891b6044820152606490fd5b61227991503d8086833e6108b681836123cc565b85611ef8565b90918093945082813d8311612346575b61229981836123cc565b810103126104fd5760405192830183811067ffffffffffffffff82111761233257604052815183526122cd602083016124dc565b602084015260408201516040840152606082015160608401526080820151608084015260a082015160a084015260c082015160c0840152808201519083015261010061231a8183016124dc565b90830152610120809101519082015290848080611eb5565b634e487b7160e01b86526041600452602486fd5b503d61228f565b8390346110505781600319360112611050578073eeeeeeeeeeeeeeeeeeeeeeeeeeeeeeeeeeeeeeee60209252f35b6024359061ffff821682036104d157565b600435906001600160a01b03821682036104d157565b602435906001600160a01b03821682036104d157565b67ffffffffffffffff811161069357604052565b90601f8019910116810190811067ffffffffffffffff82111761069357604052565b67ffffffffffffffff81116106935760051b60200190565b60409060031901126104d157600435906024356001600160a01b03811681036104d15790565b908160209103126104d1575180151581036104d15790565b1561244b57565b60405162461bcd60e51b815260206004820152601860248201527f4552525f504f4f4c5f4d414e414745525f4445504f53495400000000000000006044820152606490fd5b1561249757565b60405162461bcd60e51b815260206004820152601860248201527f4552525f4f464645525f4d414e414745525f43524541544500000000000000006044820152606490fd5b51906001600160a01b03821682036104d157565b809161018092839103126104d15760405191820182811067ffffffffffffffff821117610693576040528051825261252a602082016124dc565b602083015261253b604082016124dc565b6040830152606081015160608301526080810151608083015260a081015160a083015260c081015160c083015260e081015160e0830152610100808201519083015261012061258b8183016124dc565b9083015261014061259d8183016124dc565b908301526125af6101608092016124dc565b9082015290565b156125bd57565b60405162461bcd60e51b815260206004820152601160248201527011549497d3d191915497d1561412549151607a1b6044820152606490fd5b156125fd57565b60405162461bcd60e51b815260206004820152600f60248201526e4f5645525f50455243454e5441474560881b6044820152606490fd5b1561263b57565b60405162461bcd60e51b815260206004820152600e60248201526d4552525f50455243454e5441474560901b6044820152606490fd5b979295909998946101209792946101408a019b8a52600060208b015260018060a01b0380988180981660408d01521660608b015260808a015260a089015260c088015260e08701521661010085015216910152565b156126cd57565b60405162461bcd60e51b815260206004820152601760248201527f4552525f4c4f414e5f4d414e414745525f4352454154450000000000000000006044820152606490fd5b1561271957565b60405162461bcd60e51b815260206004820152601360248201527211549497d49154555154d517d1561412549151606a1b6044820152606490fd5b9060209081838203126104d157825167ffffffffffffffff938482116104d15701916101409384848403126104d1576040519485018581108282111761069357604052835185526127a68285016124dc565b8286015260408401516040860152606084015160608601526080840151608086015260a084015160a086015260c08401519081116104d15783019180601f840112156104d15782516127f7816123ee565b9361280560405195866123cc565b818552838086019260051b8201019283116104d1578301905b82821061285f575050505060c083015261283a60e082016124dc565b60e083015261010061284d8183016124dc565b908301526125af6101208092016124dc565b83809161286b846124dc565b81520191019061281e565b1561287d57565b60405162461bcd60e51b815260206004820152600f60248201526e11549497d25394d5519250d2515395608a1b6044820152606490fd5b908160209103126104d1575160ff811681036104d15790565b81156128d7570490565b634e487b7160e01b600052601260045260246000fd5b9192901561294f5750815115612901575090565b3b1561290a5790565b60405162461bcd60e51b815260206004820152601d60248201527f416464726573733a2063616c6c20746f206e6f6e2d636f6e74726163740000006044820152606490fd5b8251909150156129625750805190602001fd5b6040519062461bcd60e51b82528160208060048301528251908160248401526000935b8285106129a8575050604492506000838284010152601f80199101168101030190fd5b8481018201518686016044015293810193859350612985565b80916101e092839103126104d15760405191820182811067ffffffffffffffff8211176106935760405280518252602081015160038110156104d1576020830152604081015160028110156104d1576040830152612a21606082016124dc565b6060830152612a32608082016124dc565b608083015260a081015160a083015260c081015160c083015260e081015160e083015261010080820151908301526101208082015190830152610140612a798183016124dc565b90830152610160612a8b8183016124dc565b9083015261018080820151908301526101a0612aa88183016124dc565b908301526125af6101c08092016124dc565b15612ac157565b60405162461bcd60e51b815260206004820152600e60248201526d22a9292fa7a7262cafa7aba722a960911b6044820152606490fd5b818102929181159184041417156118f857565b91670de0b6b3a764000091612b22612b279285612af7565b612af7565b0481018091116118f85790565b906001600160a01b03168015612b5457612b5090606492612af7565b0490565b5090565b906001600160a01b03908116606481106104d157606319018181116118f85781166064039081116118f857612b8c91612b34565b9056fea26469706673582212206cee87980788309c3c08834e9631515e5d3f445ee765c5e3f4a34fea3f6d6ce664736f6c63430008110033",
  "immutableReferences": {},
  "source": "// SPDX-License-Identifier: GPL-3.0\r\npragma solidity >=0.7.0 <0.9.0;\r\n\r\nimport \"./Activity.sol\";\r\n\r\nimport \"./libraries/Errors.sol\";\r\nimport \"./libraries/AssetLibrary.sol\";\r\n\r\nimport \"./math/SimpleInterest.sol\";\r\n\r\nimport \"./interfaces/IPriceFeed.sol\";\r\nimport \"./interfaces/ILoanToValueRatio.sol\";\r\n\r\nimport \"./managers/LoanManager.sol\";\r\nimport \"./managers/OfferManager.sol\";\r\nimport \"./managers/PoolManager.sol\";\r\n\r\nimport \"@openzeppelin/contracts/utils/Context.sol\";\r\nimport \"@openzeppelin/contracts/utils/math/SafeMath.sol\";\r\nimport \"@openzeppelin/contracts/token/ERC20/utils/SafeERC20.sol\";\r\nimport \"@openzeppelin/contracts/token/ERC20/ERC20.sol\";\r\nimport \"@openzeppelin/contracts/security/ReentrancyGuard.sol\";\r\n\r\ncontract LendingPool is Context, ReentrancyGuard, SimpleInterest {\r\n    using SafeMath for uint256;\r\n    using SafeERC20 for ERC20;\r\n\r\n    address deployer;\r\n\r\n    Activity private _activity;\r\n    IPriceFeed private _priceFeed;\r\n    ILoanToValueRatio private _ltv;\r\n\r\n    // managers\r\n    PoolManager private _poolManager;\r\n    LoanManager private _loanManager;\r\n    OfferManager private _offerManager;\r\n\r\n    address public constant nativeAddress =\r\n        0xEeeeeEeeeEeEeeEeEeEeeEEEeeeeEeeeeeeeEEeE;\r\n\r\n    constructor(\r\n        address ltv_,\r\n        address activity_,\r\n        address poolManager_,\r\n        address loanManager_,\r\n        address offerManager_\r\n    ) ReentrancyGuard() {\r\n        _ltv = ILoanToValueRatio(ltv_);\r\n        _activity = Activity(activity_);\r\n        _poolManager = PoolManager(poolManager_);\r\n        _loanManager = LoanManager(loanManager_);\r\n        _offerManager = OfferManager(offerManager_);\r\n\r\n        deployer = _msgSender();\r\n    }\r\n\r\n    // @lenders\r\n    function createLendingOffer(\r\n        uint256 principalAmount_, // only for ERC20 assets\r\n        address principalToken,\r\n        address[] memory collateralTokens,\r\n        uint256 daysToMaturity,\r\n        uint256 interest,\r\n        uint256 daysToExpire\r\n    ) public payable {\r\n        uint256 principalAmount;\r\n\r\n        require(collateralTokens.length > 0, \"ERR_NO_COLLATERAL_TYPES\");\r\n\r\n        /* extract tokens from lender */\r\n        if (principalToken == nativeAddress) {\r\n            principalAmount = msg.value;\r\n        } else {\r\n            principalAmount = principalAmount_;\r\n            ERC20(principalToken).transferFrom(\r\n                _msgSender(),\r\n                address(this),\r\n                principalAmount\r\n            );\r\n        }\r\n\r\n        /* record principal to pool manager */\r\n        require(\r\n            _poolManager.deposit(_msgSender(), principalToken, principalAmount),\r\n            \"ERR_POOL_MANAGER_DEPOSIT\"\r\n        );\r\n\r\n        /* create the lending offer */\r\n        require(\r\n            _offerManager.createLendingOffer(\r\n                principalToken,\r\n                principalAmount,\r\n                interest,\r\n                daysToMaturity,\r\n                daysToExpire,\r\n                collateralTokens,\r\n                _msgSender()\r\n            ) > 0,\r\n            \"ERR_OFFER_MANAGER_CREATE\"\r\n        );\r\n    }\r\n\r\n    // @lenders\r\n    function acceptBorrowingOffer(uint256 offerId, uint16 percentage)\r\n        public\r\n        payable\r\n    {\r\n        OfferLibrary.BorrowingOffer memory offer = _offerManager\r\n            .getBorrowingOffer(offerId);\r\n\r\n        // platform safety\r\n        require(offer.expiresAt > block.timestamp, \"ERR_OFFER_EXPIRED\");\r\n        require(_msgSender() != offer.borrower, \"ERR_CANT_BORROW_OWN\");\r\n\r\n        // percentage must be 25, 50, 75 or 100\r\n        require(percentage <= 100, \"OVER_PERCENTAGE\");\r\n        require(percentage % 25 == 0, \"ERR_PERCENTAGE\");\r\n\r\n        uint256 collateralAmount = percentageOf(\r\n            offer.initialCollateral,\r\n            percentage\r\n        );\r\n\r\n        uint256 principalAmount = percentageOf(\r\n            offer.initialPrincipal,\r\n            percentage\r\n        );\r\n\r\n        // verify if the remain offer amounts are enough\r\n        require(\r\n            offer.currentCollateral >= collateralAmount &&\r\n                offer.currentPrincipal >= principalAmount,\r\n            \"ERR_COLLATERAL_PRINCIPAL_BALANCE\"\r\n        );\r\n\r\n        /* extract principal from lender/caller and transfer to borrower */\r\n        if (offer.principalToken == nativeAddress) {\r\n            require(msg.value >= principalAmount);\r\n            payable(offer.borrower).transfer(principalAmount);\r\n        } else {\r\n            ERC20(offer.principalToken).transferFrom(\r\n                _msgSender(),\r\n                address(this),\r\n                principalAmount\r\n            );\r\n            ERC20(offer.principalToken).transfer(\r\n                offer.borrower,\r\n                principalAmount\r\n            );\r\n        }\r\n\r\n        /* register the loan from the loan manager */\r\n        require(\r\n            _loanManager.createLoan(\r\n                offer.offerId,\r\n                OfferLibrary.Type.BORROWING_OFFER,\r\n                offer.principalToken,\r\n                offer.collateralToken,\r\n                principalAmount,\r\n                collateralAmount,\r\n                offer.interest,\r\n                offer.daysToMaturity,\r\n                offer.borrower,\r\n                _msgSender()\r\n            ) > 0,\r\n            \"ERR_LOAN_MANAGER_CREATE\"\r\n        );\r\n\r\n        _offerManager._afterOfferBorrowingLoan(\r\n            offerId,\r\n            principalAmount,\r\n            collateralAmount\r\n        );\r\n        uint256 borrowedAmountInUSD = _priceFeed.amountInUSD(\r\n            offer.principalToken,\r\n            principalAmount\r\n        );\r\n        _activity._borrowLoan(offer.borrower, borrowedAmountInUSD);\r\n    }\r\n\r\n    // @lenders\r\n    function acceptBorrowingRequest(uint256 requestId) public payable {\r\n        RequestLibrary.BorrowingRequest memory request = _offerManager\r\n            .getBorrowingRequest(requestId);\r\n\r\n        require(request.expiresAt > block.timestamp, \"ERR_REQUEST_EXPIRED\");\r\n\r\n        OfferLibrary.LendingOffer memory offer = _offerManager.getLendingOffer(\r\n            request.offerId\r\n        );\r\n        require(offer.lender == _msgSender(), \"ERR_ONLY_LENDER\");\r\n\r\n        // verify if the remain offer is enough\r\n        require(\r\n            offer.currentPrincipal >= request.principalAmount,\r\n            \"ERR_INSUFICIENT\"\r\n        );\r\n\r\n        /* extract principal from lender */\r\n        /* transfer principal to borrower */\r\n        if (offer.principalToken == nativeAddress) {\r\n            // if principal is native coin\r\n            require(msg.value >= request.principalAmount);\r\n            payable(request.borrower).transfer(request.principalAmount);\r\n        } else {\r\n            // if principal is ERC20\r\n            ERC20(offer.principalToken).transferFrom(\r\n                _msgSender(),\r\n                address(this),\r\n                request.principalAmount\r\n            );\r\n            ERC20(offer.principalToken).transfer(\r\n                request.borrower,\r\n                request.principalAmount\r\n            );\r\n        }\r\n\r\n        /* register the loan from the loan manager */\r\n        require(\r\n            _loanManager.createLoan(\r\n                request.offerId,\r\n                OfferLibrary.Type.LENDING_OFFER,\r\n                offer.principalToken,\r\n                request.collateralToken,\r\n                request.principalAmount,\r\n                request.collateralAmount,\r\n                request.interest,\r\n                request.daysToMaturity,\r\n                request.borrower,\r\n                _msgSender()\r\n            ) > 0,\r\n            \"ERR_LOAN_MANAGER_CREATE\"\r\n        );\r\n\r\n        _offerManager._afterOfferBorrowingLoan(\r\n            request.offerId,\r\n            request.principalAmount,\r\n            request.collateralAmount\r\n        );\r\n        uint256 amountBorrowedInUSD = _priceFeed.amountInUSD(\r\n            offer.principalToken,\r\n            request.principalAmount\r\n        );\r\n        _activity._borrowLoan(request.borrower, amountBorrowedInUSD);\r\n    }\r\n\r\n    // @borrower\r\n    function createBorrowingOffer(\r\n        address principalToken,\r\n        address collateralToken,\r\n        uint256 collateralAmount_, // for ERC20 assets\r\n        uint256 interest,\r\n        uint256 daysToMaturity,\r\n        uint256 daysToExpire\r\n    ) public payable {\r\n        uint256 collateralAmount;\r\n\r\n        /* extract collateral from borrower */\r\n        if (collateralToken == nativeAddress) {\r\n            collateralAmount = msg.value;\r\n        } else {\r\n            collateralAmount = collateralAmount_;\r\n            ERC20(collateralToken).transferFrom(\r\n                _msgSender(),\r\n                address(this),\r\n                collateralAmount\r\n            );\r\n        }\r\n\r\n        uint160 ltv = _ltv.getLTV(_msgSender());\r\n\r\n        uint256 principalPrice = _priceFeed.exchangeRate(\r\n            collateralToken,\r\n            principalToken,\r\n            collateralAmount\r\n        );\r\n\r\n        uint256 principalAmount = percentageInverseOf(principalPrice, ltv) /\r\n            _ltv.getBase();\r\n\r\n        /* deposit tokens to vault */\r\n        require(\r\n            _poolManager.deposit(\r\n                _msgSender(),\r\n                collateralToken,\r\n                collateralAmount\r\n            ),\r\n            \"ERR_POOL_MANAGER_DEPOSIT\"\r\n        );\r\n\r\n        /* create the offer */\r\n        require(\r\n            _offerManager.createBorrowingOffer(\r\n                principalToken,\r\n                collateralToken,\r\n                collateralAmount,\r\n                principalAmount,\r\n                interest,\r\n                daysToMaturity,\r\n                daysToExpire,\r\n                _msgSender()\r\n            ) > 0,\r\n            \"ERR_OFFER_MANAGER_CREATE\"\r\n        );\r\n\r\n        uint256 amountInUSD = _priceFeed.amountInUSD(\r\n            collateralToken,\r\n            collateralAmount\r\n        );\r\n        _activity._dropCollateral(_msgSender(), amountInUSD);\r\n    }\r\n\r\n    // @borrower\r\n    function acceptLendingOffer(\r\n        uint256 offerId,\r\n        uint16 percentage,\r\n        address collateralToken\r\n    ) public payable {\r\n        OfferLibrary.LendingOffer memory offer = _offerManager.getLendingOffer(\r\n            offerId\r\n        );\r\n\r\n        require(offer.expiresAt > block.timestamp, \"ERR_OFFER_EXPIRED\");\r\n        // percentage must be 25, 50, 75 or 100\r\n        require(percentage <= 100, \"OVER_PERCENTAGE\");\r\n        require(percentage % 25 == 0, \"ERR_PERCENTAGE\");\r\n\r\n        bool supported = false;\r\n        for (\r\n            uint256 index = 0;\r\n            index < offer.collateralTokens.length;\r\n            index++\r\n        ) {\r\n            if (offer.collateralTokens[index] == collateralToken) {\r\n                supported = true;\r\n                break;\r\n            }\r\n        }\r\n        require(supported, \"ERR_COLLATERAL_NOT_SUPPORTED\");\r\n\r\n        uint256 principalAmount = percentageOf(\r\n            offer.initialPrincipal,\r\n            percentage\r\n        );\r\n\r\n        require(\r\n            offer.currentPrincipal >= principalAmount,\r\n            \"ERR_INSUFFICIENT_AMOUNT\"\r\n        );\r\n\r\n        /* get the trust factor of the borrower */\r\n        uint160 ltv = _ltv.getLTV(_msgSender());\r\n\r\n        /* calculate the collateral amount */\r\n        uint256 collateralNormalAmount = _priceFeed.exchangeRate(\r\n            offer.principalToken,\r\n            collateralToken,\r\n            principalAmount\r\n        );\r\n\r\n        uint256 collateralAmount = percentageOf(collateralNormalAmount, ltv) /\r\n            _ltv.getBase();\r\n\r\n        /* extract collateral tokens from borrower */\r\n        if (collateralToken == nativeAddress) {\r\n            require(collateralAmount >= msg.value, \"ERR_COLLATERAL_AMOUNT\");\r\n        } else {\r\n            ERC20(collateralToken).transferFrom(\r\n                _msgSender(),\r\n                address(this),\r\n                collateralAmount\r\n            );\r\n        }\r\n\r\n        /* transfer the asset to borrower */\r\n        if (offer.principalToken == nativeAddress) {\r\n            payable(_msgSender()).transfer(principalAmount);\r\n        } else {\r\n            ERC20(offer.principalToken).safeTransfer(\r\n                _msgSender(),\r\n                principalAmount\r\n            );\r\n        }\r\n\r\n        /* register the loan */\r\n        _loanManager.createLoan(\r\n            offerId,\r\n            OfferLibrary.Type.LENDING_OFFER,\r\n            offer.principalToken,\r\n            collateralToken,\r\n            principalAmount,\r\n            collateralAmount,\r\n            offer.interest,\r\n            offer.daysToMaturity,\r\n            _msgSender(),\r\n            offer.lender\r\n        );\r\n\r\n        _offerManager._afterOfferLendingLoan(offerId, principalAmount);\r\n        uint256 amountBorrowedInUSD = _priceFeed.amountInUSD(\r\n            offer.principalToken,\r\n            principalAmount\r\n        );\r\n        _activity._borrowLoan(_msgSender(), amountBorrowedInUSD);\r\n    }\r\n\r\n    // @borrower\r\n    function acceptLendingRequest(uint256 requestId) public payable {\r\n        RequestLibrary.LendingRequest memory request = _offerManager\r\n            .getLendingRequest(requestId);\r\n\r\n        require(request.expiresAt > block.timestamp, \"ERR_REQUEST_EXPIRED\");\r\n\r\n        OfferLibrary.BorrowingOffer memory offer = _offerManager\r\n            .getBorrowingOffer(request.offerId);\r\n\r\n        require(offer.borrower == _msgSender(), \"ERR_ONLY_BORROWER\");\r\n\r\n        uint256 collateralAmount = percentageOf(\r\n            offer.initialCollateral,\r\n            request.percentage\r\n        );\r\n\r\n        uint256 principalAmount = percentageOf(\r\n            offer.initialPrincipal,\r\n            request.percentage\r\n        );\r\n\r\n        // verify if the remain offer amounts is enough\r\n        require(\r\n            offer.currentCollateral >= collateralAmount &&\r\n                offer.currentPrincipal >= principalAmount,\r\n            \"ERR_INSUFICIENT\"\r\n        );\r\n\r\n        /* extract principal from lender */\r\n        /* transfer principal to borrower */\r\n        if (offer.principalToken == nativeAddress) {\r\n            // if principal is native coin\r\n            payable(_msgSender()).transfer(principalAmount);\r\n        } else {\r\n            // if principal is ERC20\r\n            ERC20(offer.principalToken).transfer(_msgSender(), principalAmount);\r\n        }\r\n\r\n        /* register the loan from the loan manager */\r\n        require(\r\n            _loanManager.createLoan(\r\n                request.offerId,\r\n                OfferLibrary.Type.LENDING_OFFER,\r\n                offer.principalToken,\r\n                offer.collateralToken,\r\n                principalAmount,\r\n                collateralAmount,\r\n                request.interest,\r\n                request.daysToMaturity,\r\n                _msgSender(),\r\n                request.lender\r\n            ) > 0,\r\n            \"ERR_LOAN_MANAGER_CREATE\"\r\n        );\r\n\r\n        _offerManager._afterOfferLendingLoan(offer.offerId, principalAmount);\r\n        uint256 amountBorrowedInUSD = _priceFeed.amountInUSD(\r\n            offer.principalToken,\r\n            principalAmount\r\n        );\r\n        _activity._borrowLoan(_msgSender(), amountBorrowedInUSD);\r\n    }\r\n\r\n    function repayLoan(uint256 loanId, uint16 percentage) public payable {\r\n        LoanLibrary.Loan memory loan = _loanManager.getLoan(loanId);\r\n\r\n        // percentage must be 25, 50, 75 or 100\r\n        require(percentage <= 100, \"OVER_PERCENTAGE\");\r\n        require(percentage % 25 == 0, \"ERR_PERCENTAGE\");\r\n\r\n        // verify the borrower is the repayer\r\n        require(loan.borrower == _msgSender(), \"ERR_NOT_BORROWER\");\r\n\r\n        // calculate the duration of the loan\r\n        uint160 time = uint160(block.timestamp);\r\n        uint160 ellapsedSecs = (time - loan.startDate);\r\n\r\n        uint256 principalAmount = percentageOf(\r\n            loan.initialPrincipal,\r\n            percentage\r\n        );\r\n\r\n        uint256 collateralAmount = percentageOf(\r\n            loan.initialCollateral,\r\n            percentage\r\n        );\r\n\r\n        // calculate the pay back amount\r\n        uint256 repaymentPrincipalAmount = getFullInterestAmount(\r\n            principalAmount,\r\n            ellapsedSecs,\r\n            loan.interest\r\n        );\r\n\r\n        // update ledger book\r\n        // will fail if encounter an error\r\n        _loanManager.repayLoan(loanId, principalAmount, collateralAmount);\r\n\r\n        /* extract pay back amount */\r\n        if (loan.principalToken == nativeAddress) {\r\n            // if principal is native coin\r\n            require(msg.value >= repaymentPrincipalAmount);\r\n        } else {\r\n            // if principal is ERC20 token\r\n            ERC20(loan.principalToken).transferFrom(\r\n                _msgSender(),\r\n                address(this),\r\n                repaymentPrincipalAmount\r\n            );\r\n        }\r\n\r\n        /* transfer collateral */\r\n        if (loan.collateralToken == nativeAddress) {\r\n            // if collateral is native coin\r\n            payable(_msgSender()).transfer(collateralAmount);\r\n        } else {\r\n            // if collateral is ERC20 token\r\n            ERC20(loan.collateralToken).transfer(\r\n                _msgSender(),\r\n                collateralAmount\r\n            );\r\n        }\r\n\r\n        uint256 interestPaidInUSD = _priceFeed.amountInUSD(\r\n            loan.principalToken,\r\n            (repaymentPrincipalAmount - principalAmount)\r\n        );\r\n\r\n        uint256 amountPaidInUSD = _priceFeed.amountInUSD(\r\n            loan.principalToken,\r\n            principalAmount\r\n        );\r\n\r\n        _activity._repayLoan(_msgSender(), amountPaidInUSD, interestPaidInUSD);\r\n    }\r\n\r\n    function repayLiquidatedLoan(uint256 loanId) public payable {\r\n        LoanLibrary.Loan memory loan = _loanManager.getLoan(loanId);\r\n\r\n        bool liquidated = loan.state == LoanLibrary.State.LIQUIDATED;\r\n        require(liquidated);\r\n    }\r\n\r\n    function setPriceFeed(address priceFeed_) public onlyOwner {\r\n        _priceFeed = IPriceFeed(priceFeed_);\r\n    }\r\n\r\n    function changeOwner(address newOwner) public onlyOwner {\r\n        deployer = newOwner;\r\n    }\r\n\r\n    modifier onlyOwner() {\r\n        require(_msgSender() == deployer, \"ERR_ONLY_OWNER\");\r\n        _;\r\n    }\r\n}\r\n",
  "sourcePath": "C:\\Users\\DELL\\Documents\\darsh\\smart-contracts\\contracts\\LendingPool.sol",
  "compiler": {
    "name": "solc",
    "version": "0.8.17+commit.8df45f5f.Emscripten.clang"
  },
  "schemaVersion": "3.4.11",
  "updatedAt": "2023-02-12T13:47:15.192Z",
  "devdoc": {
    "kind": "dev",
    "methods": {},
    "version": 1
  },
  "userdoc": {
    "kind": "user",
    "methods": {},
    "version": 1
  }
}