{
  "contractName": "LendingPool",
  "abi": [
    {
      "inputs": [],
      "stateMutability": "nonpayable",
      "type": "constructor"
    },
    {
      "anonymous": false,
      "inputs": [
        {
          "indexed": false,
          "internalType": "uint256",
          "name": "id",
          "type": "uint256"
        },
        {
          "indexed": false,
          "internalType": "uint256",
          "name": "timestamp",
          "type": "uint256"
        },
        {
          "indexed": false,
          "internalType": "address",
          "name": "from",
          "type": "address"
        },
        {
          "indexed": false,
          "internalType": "address",
          "name": "to",
          "type": "address"
        },
        {
          "indexed": false,
          "internalType": "uint256",
          "name": "fieldId",
          "type": "uint256"
        }
      ],
      "name": "Notify",
      "type": "event"
    },
    {
      "anonymous": false,
      "inputs": [
        {
          "indexed": true,
          "internalType": "address",
          "name": "previousOwner",
          "type": "address"
        },
        {
          "indexed": true,
          "internalType": "address",
          "name": "newOwner",
          "type": "address"
        }
      ],
      "name": "OwnershipTransferStarted",
      "type": "event"
    },
    {
      "anonymous": false,
      "inputs": [
        {
          "indexed": true,
          "internalType": "address",
          "name": "previousOwner",
          "type": "address"
        },
        {
          "indexed": true,
          "internalType": "address",
          "name": "newOwner",
          "type": "address"
        }
      ],
      "name": "OwnershipTransferred",
      "type": "event"
    },
    {
      "anonymous": false,
      "inputs": [
        {
          "indexed": false,
          "internalType": "address",
          "name": "account",
          "type": "address"
        }
      ],
      "name": "Paused",
      "type": "event"
    },
    {
      "anonymous": false,
      "inputs": [
        {
          "indexed": false,
          "internalType": "uint256",
          "name": "transferId",
          "type": "uint256"
        },
        {
          "indexed": false,
          "internalType": "uint256",
          "name": "offerId",
          "type": "uint256"
        },
        {
          "indexed": false,
          "internalType": "address",
          "name": "from",
          "type": "address"
        },
        {
          "indexed": false,
          "internalType": "uint256",
          "name": "amount",
          "type": "uint256"
        },
        {
          "indexed": false,
          "internalType": "address",
          "name": "token",
          "type": "address"
        },
        {
          "indexed": false,
          "internalType": "enum LendingPoolProvider.Type",
          "name": "transferType",
          "type": "uint8"
        },
        {
          "indexed": false,
          "internalType": "uint256",
          "name": "timestamp",
          "type": "uint256"
        }
      ],
      "name": "Transfer",
      "type": "event"
    },
    {
      "anonymous": false,
      "inputs": [
        {
          "indexed": false,
          "internalType": "address",
          "name": "account",
          "type": "address"
        }
      ],
      "name": "Unpaused",
      "type": "event"
    },
    {
      "inputs": [],
      "name": "ACCEPT_REQUEST",
      "outputs": [
        {
          "internalType": "uint256",
          "name": "",
          "type": "uint256"
        }
      ],
      "stateMutability": "view",
      "type": "function"
    },
    {
      "inputs": [],
      "name": "EXPIRE_REQUEST",
      "outputs": [
        {
          "internalType": "uint256",
          "name": "",
          "type": "uint256"
        }
      ],
      "stateMutability": "view",
      "type": "function"
    },
    {
      "inputs": [],
      "name": "INTEREST_RATE_DENOMINATOR",
      "outputs": [
        {
          "internalType": "uint256",
          "name": "",
          "type": "uint256"
        }
      ],
      "stateMutability": "view",
      "type": "function"
    },
    {
      "inputs": [],
      "name": "LENDINGPOOL_VERSION",
      "outputs": [
        {
          "internalType": "uint256",
          "name": "",
          "type": "uint256"
        }
      ],
      "stateMutability": "view",
      "type": "function"
    },
    {
      "inputs": [],
      "name": "LIQUIDATION",
      "outputs": [
        {
          "internalType": "uint256",
          "name": "",
          "type": "uint256"
        }
      ],
      "stateMutability": "view",
      "type": "function"
    },
    {
      "inputs": [],
      "name": "PERCENT",
      "outputs": [
        {
          "internalType": "uint16",
          "name": "",
          "type": "uint16"
        }
      ],
      "stateMutability": "view",
      "type": "function"
    },
    {
      "inputs": [],
      "name": "REJECT_REQUEST",
      "outputs": [
        {
          "internalType": "uint256",
          "name": "",
          "type": "uint256"
        }
      ],
      "stateMutability": "view",
      "type": "function"
    },
    {
      "inputs": [],
      "name": "REPAID_LOAN",
      "outputs": [
        {
          "internalType": "uint256",
          "name": "",
          "type": "uint256"
        }
      ],
      "stateMutability": "view",
      "type": "function"
    },
    {
      "inputs": [],
      "name": "acceptOwnership",
      "outputs": [],
      "stateMutability": "nonpayable",
      "type": "function"
    },
    {
      "inputs": [
        {
          "internalType": "uint16",
          "name": "percentage",
          "type": "uint16"
        }
      ],
      "name": "checkPercentage",
      "outputs": [],
      "stateMutability": "pure",
      "type": "function"
    },
    {
      "inputs": [
        {
          "internalType": "uint256",
          "name": "principal",
          "type": "uint256"
        },
        {
          "internalType": "uint256",
          "name": "durationSecs",
          "type": "uint256"
        },
        {
          "internalType": "uint256",
          "name": "interestRate",
          "type": "uint256"
        }
      ],
      "name": "getFullInterestAmount",
      "outputs": [
        {
          "internalType": "uint256",
          "name": "",
          "type": "uint256"
        }
      ],
      "stateMutability": "pure",
      "type": "function"
    },
    {
      "inputs": [],
      "name": "nativeAddress",
      "outputs": [
        {
          "internalType": "address",
          "name": "",
          "type": "address"
        }
      ],
      "stateMutability": "view",
      "type": "function"
    },
    {
      "inputs": [
        {
          "internalType": "address",
          "name": "from",
          "type": "address"
        },
        {
          "internalType": "address",
          "name": "to",
          "type": "address"
        },
        {
          "internalType": "uint256",
          "name": "notification",
          "type": "uint256"
        },
        {
          "internalType": "uint256",
          "name": "fieldId",
          "type": "uint256"
        }
      ],
      "name": "notify",
      "outputs": [],
      "stateMutability": "nonpayable",
      "type": "function"
    },
    {
      "inputs": [],
      "name": "owner",
      "outputs": [
        {
          "internalType": "address",
          "name": "",
          "type": "address"
        }
      ],
      "stateMutability": "view",
      "type": "function"
    },
    {
      "inputs": [],
      "name": "paused",
      "outputs": [
        {
          "internalType": "bool",
          "name": "",
          "type": "bool"
        }
      ],
      "stateMutability": "view",
      "type": "function"
    },
    {
      "inputs": [],
      "name": "pendingOwner",
      "outputs": [
        {
          "internalType": "address",
          "name": "",
          "type": "address"
        }
      ],
      "stateMutability": "view",
      "type": "function"
    },
    {
      "inputs": [
        {
          "internalType": "uint256",
          "name": "total",
          "type": "uint256"
        },
        {
          "internalType": "uint160",
          "name": "percent",
          "type": "uint160"
        }
      ],
      "name": "percentageOf",
      "outputs": [
        {
          "internalType": "uint256",
          "name": "",
          "type": "uint256"
        }
      ],
      "stateMutability": "pure",
      "type": "function"
    },
    {
      "inputs": [],
      "name": "renounceOwnership",
      "outputs": [],
      "stateMutability": "nonpayable",
      "type": "function"
    },
    {
      "inputs": [
        {
          "internalType": "uint256",
          "name": "offerId",
          "type": "uint256"
        },
        {
          "internalType": "address",
          "name": "from",
          "type": "address"
        },
        {
          "internalType": "uint256",
          "name": "amount",
          "type": "uint256"
        },
        {
          "internalType": "address",
          "name": "token",
          "type": "address"
        },
        {
          "internalType": "enum LendingPoolProvider.Type",
          "name": "transferType",
          "type": "uint8"
        }
      ],
      "name": "transfer",
      "outputs": [],
      "stateMutability": "nonpayable",
      "type": "function"
    },
    {
      "inputs": [
        {
          "internalType": "address",
          "name": "newOwner",
          "type": "address"
        }
      ],
      "name": "transferOwnership",
      "outputs": [],
      "stateMutability": "nonpayable",
      "type": "function"
    },
    {
      "inputs": [
        {
          "internalType": "uint256",
          "name": "principalAmount_",
          "type": "uint256"
        },
        {
          "internalType": "address",
          "name": "principalToken",
          "type": "address"
        },
        {
          "internalType": "address[]",
          "name": "collateralTokens",
          "type": "address[]"
        },
        {
          "internalType": "uint16",
          "name": "daysToMaturity",
          "type": "uint16"
        },
        {
          "internalType": "uint256",
          "name": "interestRate",
          "type": "uint256"
        },
        {
          "internalType": "uint16",
          "name": "daysToExpire",
          "type": "uint16"
        }
      ],
      "name": "createLendingOffer",
      "outputs": [],
      "stateMutability": "payable",
      "type": "function"
    },
    {
      "inputs": [
        {
          "internalType": "address",
          "name": "principalToken",
          "type": "address"
        },
        {
          "internalType": "uint256",
          "name": "principalAmount",
          "type": "uint256"
        },
        {
          "internalType": "address",
          "name": "collateralToken",
          "type": "address"
        },
        {
          "internalType": "uint256",
          "name": "interestRate",
          "type": "uint256"
        },
        {
          "internalType": "uint16",
          "name": "daysToMaturity",
          "type": "uint16"
        },
        {
          "internalType": "uint16",
          "name": "hoursToExpire",
          "type": "uint16"
        }
      ],
      "name": "createBorrowingOffer",
      "outputs": [],
      "stateMutability": "payable",
      "type": "function"
    },
    {
      "inputs": [
        {
          "internalType": "uint256",
          "name": "offerId",
          "type": "uint256"
        },
        {
          "internalType": "uint16",
          "name": "percentage",
          "type": "uint16"
        },
        {
          "internalType": "uint16",
          "name": "daysToMaturity",
          "type": "uint16"
        },
        {
          "internalType": "uint256",
          "name": "interestRate",
          "type": "uint256"
        },
        {
          "internalType": "uint16",
          "name": "hoursToExpire",
          "type": "uint16"
        }
      ],
      "name": "createLendingRequest",
      "outputs": [],
      "stateMutability": "payable",
      "type": "function"
    },
    {
      "inputs": [
        {
          "internalType": "uint256",
          "name": "offerId",
          "type": "uint256"
        },
        {
          "internalType": "uint16",
          "name": "percentage",
          "type": "uint16"
        },
        {
          "internalType": "address",
          "name": "collateralToken",
          "type": "address"
        },
        {
          "internalType": "uint256",
          "name": "interestRate",
          "type": "uint256"
        },
        {
          "internalType": "uint16",
          "name": "daysToMaturity",
          "type": "uint16"
        },
        {
          "internalType": "uint16",
          "name": "hoursToExpire",
          "type": "uint16"
        }
      ],
      "name": "createBorrowingRequest",
      "outputs": [],
      "stateMutability": "payable",
      "type": "function"
    },
    {
      "inputs": [
        {
          "internalType": "uint256",
          "name": "offerId",
          "type": "uint256"
        },
        {
          "internalType": "uint16",
          "name": "percentage",
          "type": "uint16"
        }
      ],
      "name": "acceptBorrowingOffer",
      "outputs": [],
      "stateMutability": "payable",
      "type": "function"
    },
    {
      "inputs": [
        {
          "internalType": "uint256",
          "name": "offerId",
          "type": "uint256"
        },
        {
          "internalType": "uint16",
          "name": "percentage",
          "type": "uint16"
        },
        {
          "internalType": "address",
          "name": "collateralToken",
          "type": "address"
        }
      ],
      "name": "acceptLendingOffer",
      "outputs": [],
      "stateMutability": "payable",
      "type": "function"
    },
    {
      "inputs": [
        {
          "internalType": "uint256",
          "name": "offerId",
          "type": "uint256"
        },
        {
          "internalType": "uint16",
          "name": "percentage",
          "type": "uint16"
        }
      ],
      "name": "removePrincipal",
      "outputs": [],
      "stateMutability": "nonpayable",
      "type": "function"
    },
    {
      "inputs": [
        {
          "internalType": "uint256",
          "name": "offerId",
          "type": "uint256"
        },
        {
          "internalType": "uint16",
          "name": "percentage",
          "type": "uint16"
        }
      ],
      "name": "removeCollateral",
      "outputs": [],
      "stateMutability": "nonpayable",
      "type": "function"
    },
    {
      "inputs": [
        {
          "internalType": "uint256",
          "name": "requestId",
          "type": "uint256"
        }
      ],
      "name": "acceptBorrowingRequest",
      "outputs": [],
      "stateMutability": "nonpayable",
      "type": "function"
    },
    {
      "inputs": [
        {
          "internalType": "uint256",
          "name": "requestId",
          "type": "uint256"
        }
      ],
      "name": "acceptLendingRequest",
      "outputs": [],
      "stateMutability": "payable",
      "type": "function"
    },
    {
      "inputs": [
        {
          "internalType": "uint256",
          "name": "offerId",
          "type": "uint256"
        },
        {
          "internalType": "uint16",
          "name": "toExpire",
          "type": "uint16"
        }
      ],
      "name": "reActivateOffer",
      "outputs": [],
      "stateMutability": "nonpayable",
      "type": "function"
    },
    {
      "inputs": [
        {
          "internalType": "uint256",
          "name": "loanId",
          "type": "uint256"
        },
        {
          "internalType": "uint16",
          "name": "percentage",
          "type": "uint16"
        }
      ],
      "name": "repayLoan",
      "outputs": [],
      "stateMutability": "payable",
      "type": "function"
    },
    {
      "inputs": [
        {
          "internalType": "uint256",
          "name": "loanId",
          "type": "uint256"
        }
      ],
      "name": "repayLiquidatedLoan",
      "outputs": [],
      "stateMutability": "payable",
      "type": "function"
    },
    {
      "inputs": [
        {
          "internalType": "uint256",
          "name": "requestId",
          "type": "uint256"
        }
      ],
      "name": "rejectRequest",
      "outputs": [],
      "stateMutability": "nonpayable",
      "type": "function"
    },
    {
      "inputs": [
        {
          "internalType": "uint256",
          "name": "requestId",
          "type": "uint256"
        }
      ],
      "name": "cancelRequest",
      "outputs": [],
      "stateMutability": "nonpayable",
      "type": "function"
    },
    {
      "inputs": [
        {
          "internalType": "uint256",
          "name": "loanId",
          "type": "uint256"
        }
      ],
      "name": "claimCollateral",
      "outputs": [],
      "stateMutability": "nonpayable",
      "type": "function"
    },
    {
      "inputs": [
        {
          "internalType": "uint256",
          "name": "loanId",
          "type": "uint256"
        }
      ],
      "name": "claimBorrowedPrincipal",
      "outputs": [],
      "stateMutability": "nonpayable",
      "type": "function"
    },
    {
      "inputs": [
        {
          "internalType": "uint256",
          "name": "loanId",
          "type": "uint256"
        }
      ],
      "name": "claimPrincipal",
      "outputs": [],
      "stateMutability": "nonpayable",
      "type": "function"
    },
    {
      "inputs": [
        {
          "internalType": "uint256",
          "name": "loanId",
          "type": "uint256"
        }
      ],
      "name": "claimDefaultCollateral",
      "outputs": [],
      "stateMutability": "nonpayable",
      "type": "function"
    },
    {
      "inputs": [
        {
          "internalType": "uint256",
          "name": "loanId",
          "type": "uint256"
        }
      ],
      "name": "liquidateLoan",
      "outputs": [],
      "stateMutability": "nonpayable",
      "type": "function"
    },
    {
      "inputs": [],
      "name": "getVersion",
      "outputs": [
        {
          "internalType": "uint256",
          "name": "",
          "type": "uint256"
        }
      ],
      "stateMutability": "pure",
      "type": "function"
    },
    {
      "inputs": [
        {
          "internalType": "address",
          "name": "ltv_",
          "type": "address"
        },
        {
          "internalType": "address",
          "name": "activity_",
          "type": "address"
        },
        {
          "internalType": "address",
          "name": "priceFeed_",
          "type": "address"
        }
      ],
      "name": "setFeeds",
      "outputs": [],
      "stateMutability": "nonpayable",
      "type": "function"
    },
    {
      "inputs": [
        {
          "internalType": "address",
          "name": "loanManager_",
          "type": "address"
        },
        {
          "internalType": "address",
          "name": "offerManager_",
          "type": "address"
        },
        {
          "internalType": "address",
          "name": "feeManager_",
          "type": "address"
        }
      ],
      "name": "setManagers",
      "outputs": [],
      "stateMutability": "nonpayable",
      "type": "function"
    },
    {
      "inputs": [
        {
          "internalType": "address",
          "name": "token",
          "type": "address"
        },
        {
          "internalType": "address payable",
          "name": "receiver",
          "type": "address"
        },
        {
          "internalType": "uint256",
          "name": "amount",
          "type": "uint256"
        }
      ],
      "name": "claim",
      "outputs": [],
      "stateMutability": "nonpayable",
      "type": "function"
    }
  ],
  "bytecode": "0x6080806040523461006d576001805560035460028054336001600160a01b0319821681179092556001600160a01b03167f8be0079c531659141344cd1fd0a4f28419497f9722a3daafe3b4186f6b6457e0600080a36001600160a81b0319166003556146be90816100738239f35b600080fdfe608080604052600436101561001357600080fd5b600090813560e01c90816303e7783714613957575080630548db12146138e25780630c49f023146137805780630d11c0d3146113395780630d8e6e2c14612b3057806310b3ed2a146137235780632672a87a146132495780632d7788db1461312a5780632e476337146131015780633015394c14612f1e578063380dad5714612f025780634add7c8214612b4c5780634ae3223514612b3057806350a55fe614612b1457806353188b14146127455780635c7f31aa146122835780635c975abb1461225d5780635d03999f146121e857806361ba9443146121d3578063628118ee14611dad578063669c987f14611d225780636fb9316714611bd6578063715018a614611b6e57806379ba509714611aaa5780637a5ae69e14611a815780637cc5805a146119205780638da5cb5b146118f7578063996cba68146117ca578063a33928da14611426578063a6aea415146113c9578063b2ac850d14611355578063b85a8b2014611339578063b91dc4bb146112d6578063c1bc89ef146110d9578063c49785b41461107c578063cc3266e814611059578063ccdd9f5d14610baf578063e0b2695914610b7b578063e0f7dffd14610b2f578063e30c397814610b06578063e643321b14610aea578063e826fbe714610389578063f2fde38b1461031b5763f9af05791461020557600080fd5b346103185760203660031901126103185761021e614387565b610226613aa3565b60075460405163f400c74360e01b81526004803590820152336024820152906001600160a01b039060609083908316818681604481015b03925af19081156102b7578390849385936102e1575b50821660008051602061464983398151915281036102cc575083808280156102c2575b8280929181923390f1156102b7576102b0925b339061446f565b6001805580f35b6040513d85823e3d90fd5b6108fc9150610296565b926102dc826102b095339061408b565b6102a9565b91509250610306915060603d8111610311575b6102fe8183613a11565b810190614365565b929190929138610273565b503d6102f4565b80fd5b503461031857602036600319011261031857610335613972565b61033d613a4b565b600380546001600160a01b0319166001600160a01b039283169081179091556002549091167f38d16b8cac22d99fc7c124b9cd0de2d3fa1faef420bfe791d8c362d765e227008380a380f35b5060603660031901126103185761039e6139b4565b6103a661399e565b6103ae613aa3565b6103b7826145a2565b6008546040516322bc934560e11b81526004803590820152926001600160a01b03909116908484602481855afa9384156108b8578594610ac6575b50604051633970062960e01b815260048035908201526001600160a01b0384166024820152916020908390604490829089905af19182156108b85761045292610442918791610a97575b50613f36565b61ffff608085015191169061457e565b600554604084810151905163912d228f60e01b81526001600160a01b0391821660048201526024810184905292949291602091839160449183918a91165af19081156108b8578591610a64575b506006546040516322a0fe3360e21b81523360048201526024810192909252602090829060449082906001600160a01b03165afa9081156108b8578591610a2a575b506005546040838101519051631c07d98160e21b81526001600160a01b03918216600482015285821660248201526044810187905291602091839160649183918b91165af190811561092b5786916109f8575b50600654604051636882509b60e11b815290602090829060049082906001600160a01b03165afa9081156109ed5787916109a3575b506105819260ff61057b921690613d88565b9061457e565b6000805160206146498339815191529390856001600160a01b03851686810361098d5750503481106109505785945b6105be8583336004356144c3565b60408401516001600160a01b031690839082036109405750508480838015610936575b8280929181923390f115610894575b604083015161060c906001600160a01b0316833360043561446f565b60055460405163912d228f60e01b81526001600160a01b03868116600483015260248201849052909591602091879160449183918b91165af194851561092b5786956108f2575b506007546101c085015160209285926001600160a01b031691899061067781613f82565b6106cb8a60018060a01b0360408c015116928b61ffff60c060a083015192015116908d61012060018060a01b0391015116936040519c8d9b8c9a8b996319467e2760e01b8b52339760043560048d01614016565b03925af180156108b8576108c3575b506008546001600160a01b0316803b1561085657848091604460405180948193630a5ff10960e41b835260043560048401528760248401525af19081156108b857859161089f575b5050600554604083810151905163912d228f60e01b81526001600160a01b0391821660048201526024810193909352602091839160449183918991165af190811561089457849161085a575b50600454610120909201516001600160a01b03928316921690823b15610856576040516328cdd6eb60e11b81526001600160a01b0392909216600483015233602483015260448201529083908290606490829084905af19081156102b757839161083f575b50506004546001600160a01b0316803b1561083b576040516363a6c98160e01b8152336004820152602481019290925282908290818381604481015b03925af18015610830576108205750f35b610829906139e7565b6103185780f35b6040513d84823e3d90fd5b5050fd5b610848906139e7565b6108535781386107d3565b50fd5b8480fd5b9350506020833d60201161088c575b8161087660209383613a11565b81010312610887578392513861076e565b600080fd5b3d9150610869565b6040513d86823e3d90fd5b6108a8906139e7565b6108b3578338610722565b505050fd5b6040513d87823e3d90fd5b6020809295503d83116108eb575b6108db8183613a11565b81010312610887578392386106da565b503d6108d1565b955093506020853d602011610923575b8161090f60209383613a11565b810103126108875793518594909382610653565b3d9150610902565b6040513d88823e3d90fd5b6108fc91506105e1565b61094b91339061408b565b6105f0565b60405162461bcd60e51b815260206004820152601560248201527411549497d0d3d31310551154905317d05353d55395605a1b6044820152606490fd5b8261099e9197929730903390613aea565b6105b0565b90506020813d6020116109e5575b816109be60209383613a11565b810103126109e1576105819260ff6109d861057b93613d7a565b92505092610569565b8680fd5b3d91506109b1565b6040513d89823e3d90fd5b90506020813d602011610a22575b81610a1360209383613a11565b81010312610887575138610534565b3d9150610a06565b90506020813d602011610a5c575b81610a4560209383613a11565b8101031261085657610a5690613d66565b386104e1565b3d9150610a38565b90506020813d602011610a8f575b81610a7f60209383613a11565b810103126108875751602061049f565b3d9150610a72565b610ab9915060203d602011610abf575b610ab18183613a11565b810190613b3d565b3861043c565b503d610aa7565b610ae39194503d8087833e610adb8183613a11565b810190613dc5565b92386103f2565b5034610318578060031936011261031857602060405160668152f35b50346103185780600319360112610318576003546040516001600160a01b039091168152602090f35b5034610318576060366003190112610318576020610b736004356064670de0b6b3a7640000610b6b602435610b666044358661456b565b61456b565b040490614358565b604051908152f35b503461031857604036600319011261031857602435906001600160a01b0382168203610318576020610b738360043561457e565b5034610318578060208060031936011261085357610bcb614387565b60018060a01b039082826007541660405190632820036560e11b82526004356004830152816024816102c09586945af19182156108b857859261102c575b5050610140810151610c1b9042614335565b9260a0820193845190610120840151610c34908361456b565b90610c3e9161456b565b670de0b6b3a7640000900460649004610c5691614358565b6005546040848101516060860180519251631c07d98160e21b8082529287166001600160a01b039081166004830152938716909316602484015260448301859052909690939092839083908716818c816064810103925af1918215610fef578992610ffa575b50828560055416918660408901511692610cdc88885116928c5190614335565b6040518b81526001600160a01b039586166004820152929094166024830152604482019390935291829060649082908d905af1908115610fef578991610fbd575b50889083866009541660046040518095819363a001ecdd60e01b83525af1908115610fb2578a91610f76575b610d53925061457e565b9060e08601968751610d658484614335565b11610ecd5750610d758282614335565b97519651818110610e9d5750506000805160206146698339815191529160a091955b85610280820151169051906040519260688452429084015233604084015260608301526080820152a181806009541691511690803b156109e15760405163ef6506db60e01b81526001600160a01b039290921660048301526024820184905286908290604490829084905af190811561092b578691610e89575b5050610e2290600754169184614335565b90803b1561085657604051633799ba3f60e01b815260048035908201526024810193909352604483019390935260648201529082908290608490829084905af1801561083057610e75575b506001805580f35b610e7e906139e7565b610318578038610e6d565b610e92906139e7565b610856578438610e11565b6000805160206146698339815191529391985080610ec160a094610ec7939b614335565b90614335565b95610d97565b9651600554855160408981015190519a8b526001600160a01b03918916821660048c015288161660248a0152604489018290529098509296928792508391508516818a816064810103925af19081156109ed578791610f42575b5060a060008051602061466983398151915291958895610d97565b809750858092503d8311610f6f575b610f5b8183613a11565b8101031261088757945186959060a0610f27565b503d610f51565b90508382813d8311610fab575b610f8d8183613a11565b81010312610fa757610fa1610d5392613d66565b90610d49565b8980fd5b503d610f83565b6040513d8c823e3d90fd5b809950838092503d8311610fe8575b610fd68183613a11565b81010312610887578880985190610d1d565b503d610fcc565b6040513d8b823e3d90fd5b985090508188813d8111611025575b6110138183613a11565b81010312610887578897519038610cbc565b503d611009565b61104b9250803d10611052575b6110438183613a11565b8101906141f1565b3880610c09565b503d611039565b50346103185780600319360112610318576020604051670de0b6b3a76400008152f35b503461031857602036600319011261031857611096614387565b61109e613aa3565b60075460405163014b594760e71b81526004803590820152336024820152906001600160a01b0390606090839083168186816044810161025d565b5060c0366003190112610318576004356110f1613988565b60443567ffffffffffffffff81116112d257366023820112156112d25780600401359061111d82613a33565b9061112b6040519283613a11565b82825260208201906024829460051b820101903682116112ce57602401915b8183106112ae575050506064359161ffff831683036108875761116b6139d6565b94611174613aa3565b6001600160a01b0385166000805160206146498339815191520361128b57503492918661ffff9692935b60018060a01b03600854169260405198899563031137cd60e61b87528160e488019460018060a01b038c1660048a01528a60248a015260843560448a015216606488015216608486015260e060a48601525180915261010484019490825b818110611266575050508290816020953360c483015203925af18015610894578490611232575b61122f93503390614517565b80f35b506020833d60201161125e575b8161124c60209383613a11565b810103126108875761122f9251611223565b3d915061123f565b82516001600160a01b031687526020968701968a96508b9450909201916001016111fc565b926112a18430336001600160a01b038916613aea565b918661ffff96929361119e565b82356001600160a01b03811681036108875781526020928301920161114a565b8780fd5b8380fd5b50346103185760803660031901126103185760008051602061466983398151915260a0611301613972565b611309613988565b90604051916044358352426020840152600180851b0380921660408401521660608201526064356080820152a180f35b5034610318578060031936011261031857602060405160648152f35b503461031857604036600319011261031857806113706139b4565b611378613aa3565b6008546001600160a01b031690813b1561083b5761ffff6064849283604051958694859363099bfe6b60e01b855260043560048601521660248401523360448401525af18015610830576108205750f35b5034610318576020366003190112610318576113e3614387565b6113eb613aa3565b60075460405163e41936d760e01b81526004803590820152336024820152906001600160a01b0390606090839083168186816044810161025d565b506040366003190112610318578060043561143f6139b4565b611447613aa3565b611450816145a2565b6008546040516322bc934560e11b815260048101849052908490829060249082906001600160a01b03165afa9081156108945784916117b0575b506114ae6114a361ffff6101a08401519416809461457e565b92608083015161457e565b60408201519092906001600160a01b031683600080516020614649833981519152820361179e5790503410610856575b60408201516114f8906001600160a01b0316843387614517565b61012082018051610160840151919591611521916001600160a01b0391821691859116846144c3565b60055461016084015160405163912d228f60e01b81526001600160a01b0391821660048201526024810185905291602091839160449183918c91165af19081156109ed578791611766575b506020859160018060a01b0360075416868a8a6115ed83518a896101c08701519461159686613f82565b60018060a01b036040890151169760018060a01b03610160820151169a61ffff60c060a0840151930151169260018060a01b03905116946040519e8f9d8e9c8d9b8c9a6319467e2760e01b8c526004339c01613fa2565b03925af180156109ed57611737575b506008546001600160a01b031691823b156109e15760405163346dab9960e01b815260048101929092526024820185905260448201529085908290606490829084905af19081156108b8578591611723575b5050600554604091820151915163912d228f60e01b81526001600160a01b0392831660048201526024810193909352602091839160449183918891165af19081156102b75783916116ee575b5060045491516001600160a01b03928316921690823b156108b3576040516328cdd6eb60e11b81523360048201526001600160a01b039092166024830152604482015290829082908183816064810161080f565b9250506020823d60201161171b575b8161170a60209383613a11565b81010312610887578291513861169a565b3d91506116fd565b61172c906139e7565b6108b357833861164e565b6020809297503d831161175f575b61174f8183613a11565b81010312610887578594386115fc565b503d611745565b9650506020863d602011611796575b8161178260209383613a11565b81010312610887579451869590602061156c565b3d9150611775565b6117ab9130903390613aea565b6114de565b6117c491503d8086833e610adb8183613a11565b3861148a565b5034610318576060366003190112610318576117e4613972565b6001600160a01b03602435818116908190036112d25760443591611806613a4b565b61180e614387565b82156118c05784938160095416803b156118bc576040516331b5f13d60e11b81526001600160a01b0383166004820152602481018690529086908290604490829084905af190811561092b5786916118a8575b50501660008051602061464983398151915281036118995750828092819282f11561188d576001805580f35b604051903d90823e3d90fd5b6118a3935061408b565b6102b0565b6118b1906139e7565b610856578438611861565b8580fd5b60405162461bcd60e51b815260206004820152600f60248201526e11549497d6915493d7d05353d55395608a1b6044820152606490fd5b50346103185780600319360112610318576002546040516001600160a01b039091168152602090f35b5060a0366003190112610318576004356119386139b4565b9060443561ffff808216809203610887576119516139c5565b9361195a613aa3565b611963816145a2565b8560018060a01b03926024828560085416604051928380926322bc934560e11b82528b60048301525afa9081156102b7578391611a67575b508460406119b18460808501519716809761457e565b920151166000805160206146498339815191528103611a4e57503410611a4a5760209560c4945b60085416916040519889978896630b438b8960e41b885260048801526064356024880152604487015216606485015233608485015260a48401525af1801561083057611a22575080f35b602090813d8111611a43575b611a388183613a11565b810103126108875780f35b503d611a2e565b5080fd5b94611a626020989260c49730903390613aea565b6119d8565b611a7b91503d8085833e610adb8183613a11565b3861199b565b50346103185760203660031901126103185760043561ffff811681036108875761122f906145a2565b50346103185780600319360112610318576003546001600160a01b033381831603611b17576001600160601b0360a01b8092166003556002549133908316176002553391167f8be0079c531659141344cd1fd0a4f28419497f9722a3daafe3b4186f6b6457e0600080a380f35b60405162461bcd60e51b815260206004820152602960248201527f4f776e61626c6532537465703a2063616c6c6572206973206e6f7420746865206044820152683732bb9037bbb732b960b91b6064820152608490fd5b5034610318578060031936011261031857611b87613a4b565b600380546001600160a01b03199081169091556002805491821690556000906001600160a01b03167f8be0079c531659141344cd1fd0a4f28419497f9722a3daafe3b4186f6b6457e08280a380f35b503461031857604036600319011261031857806024600435611bf66139b4565b611bfe613aa3565b611c07816145a2565b6008546040516322bc934560e11b815260048101849052936001600160a01b03929186918691829086165afa9384156108b8578594611cff575b50611c5860409161ffff608087015191169061457e565b93018184818351166000805160206146498339815191528114600014611cea575050508480858015611ce0575b8280929181923390f1156108945781611ca3915b511684338561441b565b6008541691823b156108b357604051633fa5085b60e11b81526004810192909252336024830152604482015290829082908183816064810161080f565b6108fc9150611c85565b611ca39391611cfa91339061408b565b611c99565b6040919450611d1a611c58913d8089833e610adb8183613a11565b949150611c41565b50346103185760a036600319011261031857611d3c613988565b6001600160a01b036064358181169290839003610887576084356004811015610856576000805160206146298339815191529360e093600160005401938460005560405194855260043560208601521660408401526044356060840152608083015260a08201524260c0820152a180f35b50604036600319011261031857600435611dc56139b4565b611dcd613aa3565b611dd6816145a2565b8260018060a01b0392836007541660405190632820036560e11b8252826004830152816024816102c09687945af192831561092b5786936121b4575b50508361028083015116330361217c57849384611e3461014085015142614335565b94611e806064670de0b6b3a7640000611e78611e68611e5d61ffff60808c01519716809761457e565b9560c08b015161457e565b99610b666101208b01518761456b565b040482614358565b611e8a8282614335565b84600954166040519063a001ecdd60e01b82528160048160209889945af1908115610fb2578a91612140575b50611ec4611ecb918361457e565b8092614335565b95856009541660408901928784511690823b1561213c5760405163ef6506db60e01b81526001600160a01b039290921660048301526024820152908b908290604490829084905af1918215612131578b86928894612115575b508990896007541692611f646040519e8f968795869463094bb9f160e11b8652600486019094939260609260808301968352602083015260408201520152565b03925af1978815610fef5789986120f6575b508051851660008051602061464983398151915281036120d757508134106120d357611fcc8493611fbd612000985b611fb18b519184614358565b89865116913390614517565b86806005541693511693614335565b60405163912d228f60e01b81526001600160a01b0390931660048401526024830152909485919082908a9082906044820190565b03925af192831561092b57869361209e575b5060a0600080516020614669833981519152916102a0860195848751169051906040519260678452429084015233604084015260608301526080820152a1806004541692511691803b1561085657849283608492604051968795869463875bc3d160e01b865260048601523360248601526044850152151560648401525af18015610830576108205750f35b809650818094503d83116120cc575b6120b78183613a11565b810103126108875793518594909160a0612012565b503d6120ad565b8880fd5b8493611fbd612000986120f186611fcc9530903390613aea565b611fa5565b61210e919850843d8611610abf57610ab18183613a11565b9638611f76565b9092506121239193506139e7565b610fa7578385918b38611f24565b6040513d8d823e3d90fd5b8c80fd5b90508481813d8311612175575b6121578183613a11565b81010312610fa757611ec461216e611ecb92613d66565b9150611eb6565b503d61214d565b60405162461bcd60e51b815260206004820152601060248201526f22a9292fa727aa2fa127a92927aba2a960811b6044820152606490fd5b6121cb929350803d10611052576110438183613a11565b903880611e12565b5060203660031901126103185761122f613aa3565b503461031857606036600319011261031857612202613972565b61220a613988565b61221261399e565b61221a613a4b565b612222614387565b60018060a01b038092816001600160601b0360a01b951685600754161760075516836008541617600855169060095416176009556001805580f35b5034610318578060031936011261031857602060ff60035460a01c166040519015158152f35b50602036600319011261031857612298613aa3565b60085460405163c58343ef60e01b8152600480359082015282916001600160a01b03166101c082602481845afa9182156102b7578392612712575b506101a06122f6818401516122e781613f82565b6122f081613f82565b156141b2565b836101008401516024604051809581936322bc934560e11b835260048301525afa9182156108945784926126f6575b5081015190612353612341604085019361ffff8551169061457e565b9261ffff60808401519151169061457e565b916123746101008501518260018060a01b03610160860151169133906144c3565b60408201516001600160a01b03168360008051602061464983398151915282036126e657505084808480156126dc575b8280929181923390f115610894575b6123d26101008501518460018060a01b0360408601511691339061446f565b60e08401516101008501516123f0916001600160a01b0316336143dd565b60055461016083015160405163912d228f60e01b81526001600160a01b0391821660048201526024810184905291602091839160449183918b91165af190811561092b5786916126a4575b506007546101008601516101c085015186936020936001600160a01b0316918a9061246581613f82565b6124c360018060a01b0360408b0151169360018060a01b036101608c015116968d608081015161ffff6060830151169160e060018060a01b0391015116938d6040519d8e9c8d9b8c9a6319467e2760e01b8c52339860048d01614016565b03925af1801561092b57612675575b5060085482516001600160a01b0390911691823b156109e15760405163346dab9960e01b815260048101929092526024820185905260448201529085908290606490829084905af19081156108b8578591612661575b50506008546001600160a01b0316803b1561085657604051636d5d42c560e11b815260048035908201523360248201529085908290604490829084905af19081156108b857859161264d575b5050600554604091820151915163912d228f60e01b81526001600160a01b0392831660048201526024810193909352602091839160449183918891165af19081156102b7578391612618575b5060045460e0909201516001600160a01b03928316921690823b156108b3576040516328cdd6eb60e11b81526001600160a01b039092166004830152336024830152604482015290829082908183816064810161080f565b9250506020823d602011612645575b8161263460209383613a11565b8101031261088757829151386125c0565b3d9150612627565b612656906139e7565b6108b3578338612574565b61266a906139e7565b6108b3578338612528565b6020809296503d831161269d575b61268d8183613a11565b81010312610887578493386124d2565b503d612683565b9550506020853d6020116126d4575b816126c060209383613a11565b81010312610887579351859490602061243b565b3d91506126b3565b6108fc91506123a4565b6126f191339061408b565b6123b3565b61270b9192503d8086833e610adb8183613a11565b9038612325565b6127379192506101c03d6101c01161273e575b61272f8183613a11565b8101906140c4565b90386122d3565b503d612725565b5060c03660031901126103185761275a613972565b8161276361399e565b9161276c6139c5565b6127746139d6565b61277c613aa3565b60055460405163912d228f60e01b81526001600160a01b03858116600483015260248035908301529491602090829060449082908a908a165af190811561092b578691612adc575b506006546040516322a0fe3360e21b815233600482015260248101929092526020908290604490829089165afa90811561092b578691612aa2575b50600554604051631c07d98160e21b81526001600160a01b038481166004830152891660248083019190915235604482015290602090829060649082908b908b165af19081156109ed578791612a6d575b5060046020876006541660405192838092636882509b60e11b82525afa908115612a62578891612a1c575b5061288d9260ff61057b921690613d88565b928685169285876000805160206146498339815191528603612a025750508434106109e157602092876101049288945b856008541691604051988997889663486c386960e11b885216600487015260248601528960448601526024356064860152606435608486015261ffff80921660a48601521660c48401523360e48401525af18015610894576129d3575b5060055460405163912d228f60e01b81526001600160a01b03959095166004860152602485019190915291929160209083906044908290879086165af19182156102b757839261299c575b5060045416803b1561083b576040516363a6c98160e01b81523360048201526024810192909252829082908183816044810161080f565b925090506020823d6020116129cb575b816129b960209383613a11565b81010312610887578291519038612965565b3d91506129ac565b6020809294503d83116129fb575b6129eb8183613a11565b810103126108875783913861291a565b503d6129e1565b610104926020959294612a178930338b613aea565b6128bd565b90506020813d602011612a5a575b81612a3760209383613a11565b810103126112ce5761288d9260ff612a5161057b93613d7a565b9250509261287b565b3d9150612a2a565b6040513d8a823e3d90fd5b9650506020863d602011612a9a575b81612a8960209383613a11565b810103126108875787955138612850565b3d9150612a7c565b90506020813d602011612ad4575b81612abd60209383613a11565b810103126118bc57612ace90613d66565b386127ff565b3d9150612ab0565b9550506020853d602011612b0c575b81612af860209383613a11565b8101031261088757935186949060206127c4565b3d9150612aeb565b5034610318578060031936011261031857602060405160688152f35b5034610318578060031936011261031857602060405160028152f35b503461031857602036600319011261031857612b66613aa3565b60085460405163c58343ef60e01b8152600480359082015282916001600160a01b03166101c082602481845afa9182156102b7578392612edf575b50612bc560016101a0840151612bb681613f82565b612bbf81613f82565b146141b2565b826101008301516024604051809481936322bc934560e11b835260048301525afa9081156102b7578391612ec5575b50612c0c608082015161ffff6040850151169061457e565b61010083015160e0840151610140850151610120860151939493612c3f936001600160a01b0391821693909116906144c3565b81602060018060a01b0360075416610100860151906101c0850151612c6381613f82565b8860018060a01b0360408801511691612cd060018060a01b036101208c015116956101408c0151898d61016081015160808201519061ffff6060840151169260e060018060a01b0391015116946040519e8f9d8e9c8d9b8c9a6319467e2760e01b8c526004339c01613fa2565b03925af180156108b857612e96575b5060e0830151610100840151612cfe916001600160a01b0316336143dd565b60018060a01b0360085416610100840151813b156118bc578591604483926040519485938492630a5ff10960e41b845260048401528860248401525af19081156108b8578591612e82575b50506008546001600160a01b0316803b1561085657604051636d5d42c560e11b815260048035908201523360248201529085908290604490829084905af19081156108b8578591612e6e575b5050600554604091820151915163912d228f60e01b81526001600160a01b0392831660048201526024810193909352602091839160449183918891165af19081156102b7578391612e39575b5060045460e0909201516001600160a01b03928316921690823b156108b3576040516328cdd6eb60e11b81523360048201526001600160a01b039092166024830152604482015290829082908183816064810161080f565b9250506020823d602011612e66575b81612e5560209383613a11565b810103126108875782915138612de1565b3d9150612e48565b612e77906139e7565b6108b3578338612d95565b612e8b906139e7565b6108b3578338612d49565b6020809295503d8311612ebe575b612eae8183613a11565b8101031261088757839238612cdf565b503d612ea4565b612ed991503d8085833e610adb8183613a11565b38612bf4565b612efb9192506101c03d6101c01161273e5761272f8183613a11565b9038612ba1565b5034610318578060031936011261031857602060405160678152f35b50346103185760203660031901126103185780600435612f3c613aa3565b60085460405163c58343ef60e01b8152600481018390526001600160a01b03916101c091908316908281602481855afa92831561092b5786936130e2575b5050846101008301516024604051809481936322bc934560e11b835260048301525afa9081156108b8578592849184936130c6575b506101a0810151612fbf81613f82565b612fc881613f82565b61306457612fe560409161ffff836080870151920151169061457e565b92015116600080516020614649833981519152810361305357508180809281811561304a575b3390f115610830575b60085416803b1561083b57604051639498506560e01b81526004810192909252336024830152829082908183816044810161080f565b506108fc61300b565b61305f9250339061408b565b613014565b9291506101208301511660008051602061464983398151915281146000146130b357508080610140819401518181156130aa575b3390f1613014576040513d84823e3d90fd5b506108fc613098565b905061014061305f92015190339061408b565b6130db9193503d8086833e610adb8183613a11565b9138612faf565b6130f9929350803d1061273e5761272f8183613a11565b903880612f7a565b503461031857806003193601126103185760206040516000805160206146498339815191528152f35b503461031857602036600319011261031857600435613147613aa3565b6008546001600160a01b03919083908316803b15611a4a5760405163774d3df560e01b8152600481018490523360248201529082908290604490829084905af1801561083057613231575b505081600854169160405192839263c58343ef60e01b845260048401528260246101c09485935afa908115610894576000805160206146698339815191529360a093869361320c575b50506101009060e083015116910151604051916065835242602084015233604084015260608301526080820152a180f35b610100929350908161322992903d1061273e5761272f8183613a11565b9190386131db565b61323a906139e7565b613245578238613192565b8280fd5b5060c036600319011261031857806004356132626139b4565b9061326b61399e565b916132746139c5565b9161327d6139d6565b91613286613aa3565b61328f816145a2565b6008546040516322bc934560e11b8152600481018490526001600160a01b039590949186169390918886602481885afa948515610fef5761330c968a96613707575b50604051633970062960e01b8152600481018490526001600160a01b038a1660248201526020979091889183919082908e9082906044820190565b03925af18015610fb257613326918b916136f05750613f36565b608085015161ffff85166133399161457e565b60055460409687018051975163912d228f60e01b808252988b166001600160a01b031660048201526024810184905290959291899082908c16818f816044810103925af190811561363a578c916136bd575b506006546040516322a0fe3360e21b815233600482015260248101929092529091908990839060449082908e165afa95861561363a578b8d8b948199613678575b506005549251604051631c07d98160e21b81526001600160a01b03918f1682166004820152921660248301526044820193909352929183918c1690829081606481015b03925af1908115612131578b91613645575b50600490888a6006541660405193848092636882509b60e11b82525afa91821561363a578c926135fb575b5061057b60ff61345d931687613d88565b93888a16968b60008051602061464983398151915289146000146135e757503486106135e3578b9a89915b6005546040519182526001600160a01b03929092166004820152602481018890529b8c9160449183918e165af1998a15612131578b9a6135a3575b509088889695949392816008541695604051998a98633bb1374b60e01b8a5261ffff1660048a0152602489015260448801528b606488015216608486015260643560a486015261ffff1660c485015261ffff1660e48401523361010484015261012483015281885a9261014493f180156108b857613574575b505060045416803b1561083b576040516363a6c98160e01b81523360048201526024810192909252829082908183816044810161080f565b90809294503d831161359c575b61358b8183613a11565b81010312610887578291388061353c565b503d613581565b919a509850939291908685813d81116135dc575b6135c18183613a11565b81010312610887578a99888896519a919293949596506134c3565b503d6135b7565b8b80fd5b9a89916135f68830338d613aea565b613488565b91508882813d8311613633575b6136128183613a11565b810103126135e35761057b60ff61362b61345d94613d7a565b93505061344c565b503d613608565b6040513d8e823e3d90fd5b809b50888092503d8311613671575b61365e8183613a11565b810103126108875760048b9a5190613421565b503d613654565b93985050509181813d83116136b6575b6136928183613a11565b810103126135e3578b9561340f928c6136ab8c94613d66565b9890919293946133cc565b503d613688565b80929c50898092503d83116136e9575b6136d78183613a11565b8101031261088757518b9a908861338b565b503d6136cd565b610ab99150883d8a11610abf57610ab18183613a11565b61371c9196503d808c833e610adb8183613a11565b94386132d1565b50346103185760203660031901126103185761373d614387565b613745613aa3565b600754604051630c4d25bb60e11b81526004803590820152336024820152906001600160a01b0390606090839083168186816044810161025d565b5034610318576040366003190112610318576004358160246137a06139b4565b6137a8613aa3565b6137b1816145a2565b6008546040516322bc934560e11b815260048101869052926001600160a01b03929185918591829086165afa9283156108945784936138be575b506138046101609161ffff6101a086015191169061457e565b920181838183511660008051602061464983398151915281146000146138a957505050838084801561389f575b8280929181923390f1156102b7578161384f915b511683338761441b565b60085416803b156132455760405163021d5b1160e11b8152600481019490945233602485015260448401919091528290606490829084905af1801561083057613896575080f35b61122f906139e7565b6108fc9150613831565b61384f93916138b991339061408b565b613845565b6101609193506138da613804913d8088833e610adb8183613a11565b9391506137eb565b5034610318576060366003190112610318576138fc613972565b613904613988565b61390c61399e565b613914613a4b565b61391c614387565b60018060a01b038092816001600160601b0360a01b951685600654161760065516836004541617600455169060055416176005556001805580f35b905034611a4a5781600319360112611a4a5780606560209252f35b600435906001600160a01b038216820361088757565b602435906001600160a01b038216820361088757565b604435906001600160a01b038216820361088757565b6024359061ffff8216820361088757565b6084359061ffff8216820361088757565b60a4359061ffff8216820361088757565b67ffffffffffffffff81116139fb57604052565b634e487b7160e01b600052604160045260246000fd5b90601f8019910116810190811067ffffffffffffffff8211176139fb57604052565b67ffffffffffffffff81116139fb5760051b60200190565b6002546001600160a01b03163303613a5f57565b606460405162461bcd60e51b815260206004820152602060248201527f4f776e61626c653a2063616c6c6572206973206e6f7420746865206f776e65726044820152fd5b60ff60035460a01c16613ab257565b60405162461bcd60e51b815260206004820152601060248201526f14185d5cd8589b194e881c185d5cd95960821b6044820152606490fd5b6040516323b872dd60e01b60208201526001600160a01b0392831660248201529290911660448301526064820192909252613b3b91613b3682608481015b03601f198101845283613a11565b613b55565b565b90816020910312610887575180151581036108875790565b6040805167ffffffffffffffff94936001600160a01b039093169290918201858111838210176139fb576040526020928383527f5361666545524332303a206c6f772d6c6576656c2063616c6c206661696c6564848401526000808386829551910182855af1903d15613c85573d968711613c7157613bf594959660405190613be788601f19601f8401160183613a11565b81528093873d92013e613c92565b80519081613c0257505050565b8280613c12938301019101613b3d565b15613c1a5750565b6084906040519062461bcd60e51b82526004820152602a60248201527f5361666545524332303a204552433230206f7065726174696f6e20646964206e6044820152691bdd081cdd58d8d9595960b21b6064820152fd5b634e487b7160e01b83526041600452602483fd5b9150613bf5939495506060915b91929015613cf45750815115613ca6575090565b3b15613caf5790565b60405162461bcd60e51b815260206004820152601d60248201527f416464726573733a2063616c6c20746f206e6f6e2d636f6e74726163740000006044820152606490fd5b825190915015613d075750805190602001fd5b6040519062461bcd60e51b82528160208060048301528251908160248401526000935b828510613d4d575050604492506000838284010152601f80199101168101030190fd5b8481018201518686016044015293810193859350613d2a565b51906001600160a01b038216820361088757565b519060ff8216820361088757565b6001600160a01b0391821691908215613da057160490565b634e487b7160e01b600052601260045260246000fd5b519061ffff8216820361088757565b602091828282031261088757815167ffffffffffffffff928382116108875701916101e093848484031261088757604051948501858110838211176139fb57604052835185528084015160028110156108875781860152613e2860408501613d66565b6040860152606084015160608601526080840151608086015260a084015160a0860152613e5760c08501613db6565b60c086015260e084015160e08601526101008085015190860152610120613e7f818601613d66565b9086015261014091828501519081116108875784019280601f85011215610887578351613eab81613a33565b94613eb96040519687613a11565b818652838087019260051b820101928311610887578301905b828210613f1f5750505050830152610160613eee818301613d66565b9083015261018080820151908301526101a080820151908301526101c0809101519060028210156108875782015290565b838091613f2b84613d66565b815201910190613ed2565b15613f3d57565b60405162461bcd60e51b815260206004820152601c60248201527f4552525f434f4c4c41544552414c5f4e4f545f535550504f52544544000000006044820152606490fd5b60021115613f8c57565b634e487b7160e01b600052602160045260246000fd5b9a96928b98949a96929d9c9995919d6101808a019e8a52613fc281613f82565b60208a0152600160a01b600190039a8b998a80931690604001521660608c015260808b015260a08a015260c089015260e088015261ffff166101008701526101208601521661014084015216906101600152565b9995919b9a97939894909b9692966101808b019c8b5261403581613f82565b60208b0152600160a01b6001900380998180991660408d01521660608b015260808a015260a089015260c088015260e087015261ffff166101008601526101208501600090521661014084015216906101600152565b60405163a9059cbb60e01b60208201526001600160a01b0390921660248301526044820192909252613b3b91613b368260648101613b28565b80916101c092839103126108875760405191820182811067ffffffffffffffff8211176139fb57604052805182526020810151600481101561088757602083015261411160408201613db6565b604083015261412260608201613db6565b60608301526080810151608083015260a081015160a083015260c081015160c083015261415160e08201613d66565b60e0830152610100808201519083015261012061416f818301613d66565b9083015261014080820151908301526101608082015190830152610180614197818301613d66565b908301526101a0809101519060028210156108875782015290565b156141b957565b60405162461bcd60e51b815260206004820152601060248201526f4552525f524551554553545f5459504560801b6044820152606490fd5b80916102c092839103126108875760405191820182811067ffffffffffffffff8211176139fb57604052805182526020810151600481101561088757602083015261423e60408201613d66565b604083015261424f60608201613d66565b60608301526080810151608083015260a081015160a083015260c081015160c083015260e081015160e083015261010080820151908301526101208082015190830152610140808201519083015261016080820151908301526101806142b6818301613db6565b908301526101a06142c8818301613d7a565b908301526101c080820151908301526101e08082015190830152610200808201519083015261022080820151908301526102408082015190830152610260808201519083015261028061431c818301613d66565b9083015261432e6102a0809201613d66565b9082015290565b9190820391821161434257565b634e487b7160e01b600052601160045260246000fd5b9190820180921161434257565b9081606091031261088757805191614384604060208401519301613d66565b90565b600260015414614398576002600155565b60405162461bcd60e51b815260206004820152601f60248201527f5265656e7472616e637947756172643a207265656e7472616e742063616c6c006044820152606490fd5b906000805160206146698339815191529260a0926040519260648452426020850152600180861b0380921660408501521660608301526080820152a1565b906000805160206146298339815191529360e0936001600054019384600055604051948552602085015260018060a01b0380931660408501526060840152166080820152600360a08201524260c0820152a1565b906000805160206146298339815191529360e0936001600054019384600055604051948552602085015260018060a01b0380931660408501526060840152166080820152600160a08201524260c0820152a1565b906000805160206146298339815191529360e0936001600054019384600055604051948552602085015260018060a01b0380931660408501526060840152166080820152600260a08201524260c0820152a1565b906000805160206146298339815191529360e0936001600054019384600055604051948552602085015260018060a01b0380931660408501526060840152166080820152600060a08201524260c0820152a1565b8181029291811591840414171561434257565b906001600160a01b0316801561459e5761459a9060649261456b565b0490565b5090565b61ffff809116606481116145f15760199006166145bb57565b60405162461bcd60e51b815260206004820152600e60248201526d4552525f50455243454e5441474560901b6044820152606490fd5b60405162461bcd60e51b815260206004820152600f60248201526e4f5645525f50455243454e5441474560881b6044820152606490fdfe1b89f92faead76d76eeb15b01f4ca1cff0fcbad53196805a290812426389ea7e000000000000000000000000eeeeeeeeeeeeeeeeeeeeeeeeeeeeeeeeeeeeeeee8a8cb0fe37d0c19cc9895f868058c082887e682f711d8492ab309eb12e9f29dfa2646970667358221220a5a45387c20a876901a40576380662f8ac17bb48f992ffded5776fcceec8361064736f6c63430008110033",
  "immutableReferences": {},
  "source": "// SPDX-License-Identifier: MIT\r\npragma solidity ^0.8.17;\r\n\r\nimport \"./LendingPoolProvider.sol\";\r\n\r\nimport \"./libraries/Errors.sol\";\r\n\r\nimport \"./math/SimpleInterest.sol\";\r\n\r\nimport \"./interfaces/IPriceFeed.sol\";\r\nimport \"./interfaces/IFeeManager.sol\";\r\nimport \"./interfaces/IOfferManager.sol\";\r\nimport \"./interfaces/ILoanManager.sol\";\r\nimport \"./interfaces/ILoanToValueRatio.sol\";\r\nimport \"./interfaces/IActivity.sol\";\r\n\r\nimport \"@openzeppelin/contracts/utils/Context.sol\";\r\nimport \"@openzeppelin/contracts/token/ERC20/ERC20.sol\";\r\nimport \"@openzeppelin/contracts/token/ERC20/utils/SafeERC20.sol\";\r\nimport \"@openzeppelin/contracts/security/ReentrancyGuard.sol\";\r\nimport \"@openzeppelin/contracts/access/Ownable2Step.sol\";\r\nimport \"@openzeppelin/contracts/security/Pausable.sol\";\r\nimport \"@openzeppelin/contracts/utils/math/SafeMath.sol\";\r\n\r\n/**\r\n * @title LendingPool contract\r\n * @dev Main point of interaction with the DARSH protocol's market\r\n * - Users can:\r\n *   # Create Lending/Borrowing offers\r\n *   # Request for new terms on offers\r\n *   # Repay (Fully/Installment)\r\n *   # Claim principal and earnings\r\n *   # Claim back collateral\r\n *   # Cancel/Reject/Accept requests\r\n * - All admin functions are callable by the deployer address\r\n * @author Arogundade Ibrahim\r\n **/\r\ncontract LendingPool is\r\n    LendingPoolProvider,\r\n    Context,\r\n    ReentrancyGuard,\r\n    SimpleInterest,\r\n    Ownable2Step,\r\n    Pausable\r\n{\r\n    using SafeMath for uint256;\r\n    using SafeERC20 for ERC20;\r\n\r\n    /// @dev contract version\r\n    uint256 public constant LENDINGPOOL_VERSION = 0x2;\r\n\r\n    IActivity private _activity;\r\n    IPriceFeed private _priceFeed;\r\n    ILoanToValueRatio private _ltvRatio;\r\n    ILoanManager private _loanManager;\r\n    IOfferManager private _offerManager;\r\n    IFeeManager private _feeManager;\r\n\r\n    /// @dev for convienency this address is used to represent FTM just like ERC20\r\n    address public constant nativeAddress =\r\n        0xEeeeeEeeeEeEeeEeEeEeeEEEeeeeEeeeeeeeEEeE;\r\n\r\n    constructor() ReentrancyGuard() Ownable2Step() {}\r\n\r\n    // ============= Create Lending / Borrowing Offer ============ //\r\n\r\n    /// @notice This function creates a new lending offer\r\n    /// @dev the principalAmount_ parameter is use for ERC20 tokens only\r\n    function createLendingOffer(\r\n        uint256 principalAmount_,\r\n        address principalToken,\r\n        address[] memory collateralTokens,\r\n        uint16 daysToMaturity,\r\n        uint256 interestRate,\r\n        uint16 daysToExpire\r\n    ) public payable whenNotPaused {\r\n        uint256 principalAmount;\r\n\r\n        /* extract tokens from lender */\r\n        if (principalToken == nativeAddress) {\r\n            principalAmount = msg.value;\r\n        } else {\r\n            principalAmount = principalAmount_;\r\n            ERC20(principalToken).safeTransferFrom(\r\n                _msgSender(),\r\n                address(this),\r\n                principalAmount\r\n            );\r\n        }\r\n\r\n        /* create the lending offer */\r\n        uint256 offerId = _offerManager.createLendingOffer(\r\n            principalToken,\r\n            principalAmount,\r\n            interestRate,\r\n            daysToMaturity,\r\n            daysToExpire,\r\n            collateralTokens,\r\n            _msgSender()\r\n        );\r\n\r\n        transfer(\r\n            offerId,\r\n            _msgSender(),\r\n            principalAmount,\r\n            principalToken,\r\n            Type.ADDED\r\n        );\r\n    }\r\n\r\n    /// @notice This function creates a new borrowing offer\r\n    function createBorrowingOffer(\r\n        address principalToken,\r\n        uint256 principalAmount,\r\n        address collateralToken,\r\n        uint256 interestRate,\r\n        uint16 daysToMaturity,\r\n        uint16 hoursToExpire\r\n    ) public payable whenNotPaused {\r\n        uint256 principalAmountInUSD = _priceFeed.amountInUSD(\r\n            principalToken,\r\n            principalAmount\r\n        );\r\n\r\n        uint160 ltvRatio = _ltvRatio.getRelativeLTV(\r\n            _msgSender(),\r\n            principalAmountInUSD\r\n        );\r\n\r\n        uint256 collateralNormalAmount = _priceFeed.exchangeRate(\r\n            principalToken,\r\n            collateralToken,\r\n            principalAmount\r\n        );\r\n\r\n        uint256 collateralAmount = percentageOf(\r\n            collateralNormalAmount,\r\n            ltvRatio / _ltvRatio.getBase()\r\n        );\r\n\r\n        if (collateralToken == nativeAddress) {\r\n            require(msg.value >= collateralAmount);\r\n        } else {\r\n            ERC20(collateralToken).safeTransferFrom(\r\n                _msgSender(),\r\n                address(this),\r\n                collateralAmount\r\n            );\r\n        }\r\n\r\n        _offerManager.createBorrowingOffer(\r\n            principalToken,\r\n            collateralToken,\r\n            collateralAmount,\r\n            principalAmount,\r\n            interestRate,\r\n            daysToMaturity,\r\n            hoursToExpire,\r\n            _msgSender()\r\n        );\r\n\r\n        uint256 amountInUSD = _priceFeed.amountInUSD(\r\n            collateralToken,\r\n            collateralAmount\r\n        );\r\n\r\n        _activity.dropCollateral(_msgSender(), amountInUSD);\r\n    }\r\n\r\n    // ============ Create Lending / Borrowing Request ============= //\r\n\r\n    /// @notice This function creates a new lending request on a borrowing offer\r\n    function createLendingRequest(\r\n        uint256 offerId,\r\n        uint16 percentage,\r\n        uint16 daysToMaturity,\r\n        uint256 interestRate,\r\n        uint16 hoursToExpire\r\n    ) public payable whenNotPaused {\r\n        checkPercentage(percentage);\r\n\r\n        OfferLibrary.Offer memory offer = _offerManager.getOffer(offerId);\r\n\r\n        uint256 principalAmount = percentageOf(\r\n            offer.initialPrincipal,\r\n            percentage\r\n        );\r\n\r\n        if (offer.principalToken == nativeAddress) {\r\n            require(msg.value >= principalAmount);\r\n        } else {\r\n            ERC20(offer.principalToken).safeTransferFrom(\r\n                _msgSender(),\r\n                address(this),\r\n                principalAmount\r\n            );\r\n        }\r\n\r\n        /* create the lending request */\r\n        _offerManager.createLendingRequest(\r\n            percentage,\r\n            interestRate,\r\n            daysToMaturity,\r\n            hoursToExpire,\r\n            _msgSender(),\r\n            offerId\r\n        );\r\n    }\r\n\r\n    /// @notice This function creates a new borrowing request on a lending offer\r\n    function createBorrowingRequest(\r\n        uint256 offerId,\r\n        uint16 percentage,\r\n        address collateralToken,\r\n        uint256 interestRate,\r\n        uint16 daysToMaturity,\r\n        uint16 hoursToExpire\r\n    ) public payable whenNotPaused {\r\n        checkPercentage(percentage);\r\n\r\n        OfferLibrary.Offer memory offer = _offerManager.getOffer(offerId);\r\n\r\n        require(\r\n            _offerManager.isCollateralSupported(offerId, collateralToken),\r\n            \"ERR_COLLATERAL_NOT_SUPPORTED\"\r\n        );\r\n\r\n        uint256 principalAmount = percentageOf(\r\n            offer.initialPrincipal,\r\n            percentage\r\n        );\r\n\r\n        uint256 principalPriceInUSD = _priceFeed.amountInUSD(\r\n            offer.principalToken,\r\n            principalAmount\r\n        );\r\n\r\n        uint160 ltvRatio = _ltvRatio.getRelativeLTV(\r\n            _msgSender(),\r\n            principalPriceInUSD\r\n        );\r\n\r\n        uint256 collateralNormalAmount = _priceFeed.exchangeRate(\r\n            offer.principalToken,\r\n            collateralToken,\r\n            principalAmount\r\n        );\r\n\r\n        uint256 collateralAmount = percentageOf(\r\n            collateralNormalAmount,\r\n            ltvRatio / _ltvRatio.getBase()\r\n        );\r\n\r\n        if (collateralToken == nativeAddress) {\r\n            require(collateralAmount >= msg.value);\r\n        } else {\r\n            ERC20(collateralToken).safeTransferFrom(\r\n                _msgSender(),\r\n                address(this),\r\n                collateralAmount\r\n            );\r\n        }\r\n\r\n        uint256 collateralPriceInUSD = _priceFeed.amountInUSD(\r\n            collateralToken,\r\n            collateralAmount\r\n        );\r\n\r\n        _offerManager.createBorrowingRequest(\r\n            percentage,\r\n            collateralToken,\r\n            collateralAmount,\r\n            collateralPriceInUSD,\r\n            ltvRatio,\r\n            interestRate,\r\n            daysToMaturity,\r\n            hoursToExpire,\r\n            _msgSender(),\r\n            offerId\r\n        );\r\n\r\n        _activity.dropCollateral(_msgSender(), collateralPriceInUSD);\r\n    }\r\n\r\n    // ============ Accept Lending / Borrowing Offer =============== //\r\n\r\n    /// @notice This function accepts a borrowing offer | LEND\r\n    /// @dev The percentage params specifies the portion of the offer to accept\r\n    function acceptBorrowingOffer(uint256 offerId, uint16 percentage)\r\n        public\r\n        payable\r\n        whenNotPaused\r\n    {\r\n        checkPercentage(percentage);\r\n\r\n        OfferLibrary.Offer memory offer = _offerManager.getOffer(offerId);\r\n\r\n        uint256 collateralAmount = percentageOf(\r\n            offer.initialCollateral,\r\n            percentage\r\n        );\r\n\r\n        uint256 principalAmount = percentageOf(\r\n            offer.initialPrincipal,\r\n            percentage\r\n        );\r\n\r\n        if (offer.principalToken == nativeAddress) {\r\n            require(msg.value >= principalAmount);\r\n        } else {\r\n            ERC20(offer.principalToken).safeTransferFrom(\r\n                _msgSender(),\r\n                address(this),\r\n                principalAmount\r\n            );\r\n        }\r\n\r\n        transfer(\r\n            offerId,\r\n            _msgSender(),\r\n            principalAmount,\r\n            offer.principalToken,\r\n            Type.ADDED\r\n        );\r\n\r\n        transfer(\r\n            offerId,\r\n            offer.creator,\r\n            collateralAmount,\r\n            offer.collateralToken,\r\n            Type.LOCKED\r\n        );\r\n\r\n        uint256 collateralPriceInUSD = _priceFeed.amountInUSD(\r\n            offer.collateralToken,\r\n            collateralAmount\r\n        );\r\n\r\n        _loanManager.createLoan(\r\n            offer.offerId,\r\n            offer.offerType,\r\n            offer.principalToken,\r\n            offer.collateralToken,\r\n            principalAmount,\r\n            collateralAmount,\r\n            collateralPriceInUSD,\r\n            offer.interestRate,\r\n            offer.daysToMaturity,\r\n            principalAmount,\r\n            offer.creator,\r\n            _msgSender()\r\n        );\r\n\r\n        _offerManager.afterBorrowingLoan(\r\n            offerId,\r\n            principalAmount,\r\n            collateralAmount\r\n        );\r\n\r\n        uint256 borrowedAmountInUSD = _priceFeed.amountInUSD(\r\n            offer.principalToken,\r\n            principalAmount\r\n        );\r\n\r\n        _activity.borrowLoan(_msgSender(), offer.creator, borrowedAmountInUSD);\r\n    }\r\n\r\n    /// @notice This function accepts a lending offer | BORROW\r\n    /// @dev The percentage params specifies the portion of the offer to accept\r\n    function acceptLendingOffer(\r\n        uint256 offerId,\r\n        uint16 percentage,\r\n        address collateralToken\r\n    ) public payable whenNotPaused {\r\n        checkPercentage(percentage);\r\n\r\n        OfferLibrary.Offer memory offer = _offerManager.getOffer(offerId);\r\n\r\n        require(\r\n            _offerManager.isCollateralSupported(offerId, collateralToken),\r\n            \"ERR_COLLATERAL_NOT_SUPPORTED\"\r\n        );\r\n\r\n        uint256 principalAmount = percentageOf(\r\n            offer.initialPrincipal,\r\n            percentage\r\n        );\r\n\r\n        uint256 principalPriceInUSD = _priceFeed.amountInUSD(\r\n            offer.principalToken,\r\n            principalAmount\r\n        );\r\n\r\n        uint160 ltvRatio = _ltvRatio.getRelativeLTV(\r\n            _msgSender(),\r\n            principalPriceInUSD\r\n        );\r\n\r\n        /* calculate the collateral amount */\r\n        uint256 collateralNormalAmount = _priceFeed.exchangeRate(\r\n            offer.principalToken,\r\n            collateralToken,\r\n            principalAmount\r\n        );\r\n\r\n        uint256 collateralAmount = percentageOf(\r\n            collateralNormalAmount,\r\n            ltvRatio / _ltvRatio.getBase()\r\n        );\r\n\r\n        if (collateralToken == nativeAddress) {\r\n            require(collateralAmount >= msg.value, \"ERR_COLLATERAL_AMOUNT\");\r\n        } else {\r\n            ERC20(collateralToken).safeTransferFrom(\r\n                _msgSender(),\r\n                address(this),\r\n                collateralAmount\r\n            );\r\n        }\r\n\r\n        transfer(\r\n            offerId,\r\n            _msgSender(),\r\n            collateralAmount,\r\n            collateralToken,\r\n            Type.LOCKED\r\n        );\r\n\r\n        if (offer.principalToken == nativeAddress) {\r\n            payable(_msgSender()).transfer(principalAmount);\r\n        } else {\r\n            ERC20(offer.principalToken).safeTransfer(\r\n                _msgSender(),\r\n                principalAmount\r\n            );\r\n        }\r\n\r\n        transfer(\r\n            offerId,\r\n            _msgSender(),\r\n            principalAmount,\r\n            offer.principalToken,\r\n            Type.CLAIMED\r\n        );\r\n\r\n        uint256 collateralPriceInUSD = _priceFeed.amountInUSD(\r\n            collateralToken,\r\n            collateralAmount\r\n        );\r\n\r\n        _loanManager.createLoan(\r\n            offerId,\r\n            offer.offerType,\r\n            offer.principalToken,\r\n            collateralToken,\r\n            principalAmount,\r\n            collateralAmount,\r\n            collateralPriceInUSD,\r\n            offer.interestRate,\r\n            offer.daysToMaturity,\r\n            0,\r\n            _msgSender(),\r\n            offer.creator\r\n        );\r\n\r\n        _offerManager.afterLendingLoan(offerId, principalAmount);\r\n\r\n        uint256 amountBorrowedInUSD = _priceFeed.amountInUSD(\r\n            offer.principalToken,\r\n            principalAmount\r\n        );\r\n\r\n        _activity.borrowLoan(offer.creator, _msgSender(), amountBorrowedInUSD);\r\n\r\n        _activity.dropCollateral(_msgSender(), collateralPriceInUSD);\r\n    }\r\n\r\n    // =========== Withdraw From Offer ============== //\r\n    function removePrincipal(uint256 offerId, uint16 percentage)\r\n        public\r\n        whenNotPaused\r\n    {\r\n        checkPercentage(percentage);\r\n        OfferLibrary.Offer memory offer = _offerManager.getOffer(offerId);\r\n\r\n        uint256 principalAmount = percentageOf(\r\n            offer.initialPrincipal,\r\n            percentage\r\n        );\r\n\r\n        if (offer.principalToken == nativeAddress) {\r\n            payable(_msgSender()).transfer(principalAmount);\r\n        } else {\r\n            ERC20(offer.principalToken).safeTransfer(\r\n                _msgSender(),\r\n                principalAmount\r\n            );\r\n        }\r\n\r\n        transfer(\r\n            offerId,\r\n            _msgSender(),\r\n            principalAmount,\r\n            offer.principalToken,\r\n            Type.REMOVED\r\n        );\r\n\r\n        _offerManager.removePrincipal(offerId, _msgSender(), principalAmount);\r\n    }\r\n\r\n    function removeCollateral(uint256 offerId, uint16 percentage)\r\n        public\r\n        whenNotPaused\r\n    {\r\n        checkPercentage(percentage);\r\n        OfferLibrary.Offer memory offer = _offerManager.getOffer(offerId);\r\n\r\n        uint256 collateralAmount = percentageOf(\r\n            offer.initialCollateral,\r\n            percentage\r\n        );\r\n\r\n        if (offer.collateralToken == nativeAddress) {\r\n            payable(_msgSender()).transfer(collateralAmount);\r\n        } else {\r\n            ERC20(offer.collateralToken).safeTransfer(\r\n                _msgSender(),\r\n                collateralAmount\r\n            );\r\n        }\r\n\r\n        transfer(\r\n            offerId,\r\n            _msgSender(),\r\n            collateralAmount,\r\n            offer.collateralToken,\r\n            Type.REMOVED\r\n        );\r\n\r\n        _offerManager.removeCollateral(offerId, _msgSender(), collateralAmount);\r\n    }\r\n\r\n    // ============ Accept Lending / Borrowing Request =============== //\r\n\r\n    /// @notice This funcion accepts a borrowing request placed on a lender's offer\r\n    function acceptBorrowingRequest(uint256 requestId) public whenNotPaused {\r\n        RequestLibrary.Request memory request = _offerManager.getRequest(\r\n            requestId\r\n        );\r\n\r\n        require(\r\n            request.requestType == RequestLibrary.Type.BORROWING_REQUEST,\r\n            \"ERR_REQUEST_TYPE\"\r\n        );\r\n\r\n        OfferLibrary.Offer memory offer = _offerManager.getOffer(\r\n            request.offerId\r\n        );\r\n\r\n        uint256 principalAmount = percentageOf(\r\n            offer.initialPrincipal,\r\n            request.percentage\r\n        );\r\n\r\n        transfer(\r\n            request.offerId,\r\n            request.creator,\r\n            request.collateralAmount,\r\n            request.collateralToken,\r\n            Type.LOCKED\r\n        );\r\n\r\n        _loanManager.createLoan(\r\n            request.offerId,\r\n            offer.offerType,\r\n            offer.principalToken,\r\n            request.collateralToken,\r\n            principalAmount,\r\n            request.collateralAmount,\r\n            request.collateralPriceInUSD,\r\n            request.interestRate,\r\n            request.daysToMaturity,\r\n            principalAmount,\r\n            request.creator,\r\n            _msgSender()\r\n        );\r\n\r\n        notify(_msgSender(), request.creator, ACCEPT_REQUEST, request.offerId);\r\n\r\n        _offerManager.afterLendingLoan(request.offerId, principalAmount);\r\n        _offerManager.acceptRequest(requestId, _msgSender());\r\n\r\n        uint256 amountBorrowedInUSD = _priceFeed.amountInUSD(\r\n            offer.principalToken,\r\n            principalAmount\r\n        );\r\n\r\n        _activity.borrowLoan(\r\n            _msgSender(),\r\n            request.creator,\r\n            amountBorrowedInUSD\r\n        );\r\n    }\r\n\r\n    /// @notice This funcion accepts a lending request placed on a borrower's offer\r\n    function acceptLendingRequest(uint256 requestId)\r\n        public\r\n        payable\r\n        whenNotPaused\r\n    {\r\n        RequestLibrary.Request memory request = _offerManager.getRequest(\r\n            requestId\r\n        );\r\n\r\n        require(\r\n            request.requestType == RequestLibrary.Type.LENDING_REQUEST,\r\n            \"ERR_REQUEST_TYPE\"\r\n        );\r\n\r\n        OfferLibrary.Offer memory offer = _offerManager.getOffer(\r\n            request.offerId\r\n        );\r\n\r\n        uint256 collateralAmount = percentageOf(\r\n            offer.initialCollateral,\r\n            request.percentage\r\n        );\r\n\r\n        uint256 principalAmount = percentageOf(\r\n            offer.initialPrincipal,\r\n            request.percentage\r\n        );\r\n\r\n        transfer(\r\n            request.offerId,\r\n            _msgSender(),\r\n            collateralAmount,\r\n            offer.collateralToken,\r\n            Type.LOCKED\r\n        );\r\n\r\n        if (offer.principalToken == nativeAddress) {\r\n            payable(_msgSender()).transfer(principalAmount);\r\n        } else {\r\n            ERC20(offer.principalToken).safeTransfer(\r\n                _msgSender(),\r\n                principalAmount\r\n            );\r\n        }\r\n\r\n        transfer(\r\n            request.offerId,\r\n            _msgSender(),\r\n            principalAmount,\r\n            offer.principalToken,\r\n            Type.CLAIMED\r\n        );\r\n\r\n        notify(_msgSender(), request.creator, ACCEPT_REQUEST, request.offerId);\r\n\r\n        uint256 collateralPriceInUSD = _priceFeed.amountInUSD(\r\n            offer.collateralToken,\r\n            collateralAmount\r\n        );\r\n\r\n        _loanManager.createLoan(\r\n            request.offerId,\r\n            offer.offerType,\r\n            offer.principalToken,\r\n            offer.collateralToken,\r\n            principalAmount,\r\n            collateralAmount,\r\n            collateralPriceInUSD,\r\n            request.interestRate,\r\n            request.daysToMaturity,\r\n            0,\r\n            _msgSender(),\r\n            request.creator\r\n        );\r\n\r\n        _offerManager.afterBorrowingLoan(\r\n            offer.offerId,\r\n            principalAmount,\r\n            collateralAmount\r\n        );\r\n\r\n        _offerManager.acceptRequest(requestId, _msgSender());\r\n\r\n        uint256 amountBorrowedInUSD = _priceFeed.amountInUSD(\r\n            offer.principalToken,\r\n            principalAmount\r\n        );\r\n\r\n        _activity.borrowLoan(\r\n            request.creator,\r\n            _msgSender(),\r\n            amountBorrowedInUSD\r\n        );\r\n    }\r\n\r\n    // ============= ReActivating Lending / Borrowing Offer ============= //\r\n\r\n    /// @notice This function will reactivate a offer when they expires\r\n    function reActivateOffer(uint256 offerId, uint16 toExpire)\r\n        public\r\n        whenNotPaused\r\n    {\r\n        _offerManager.reActivateOffer(offerId, toExpire, _msgSender());\r\n    }\r\n\r\n    // =============== Loan Repayment ============= //\r\n\r\n    /// @notice This function is use to repay a loan\r\n    /// @dev The percentage params specifies the portion to be repaid\r\n    function repayLoan(uint256 loanId, uint16 percentage)\r\n        public\r\n        payable\r\n        whenNotPaused\r\n    {\r\n        checkPercentage(percentage);\r\n\r\n        LoanLibrary.Loan memory loan = _loanManager.getLoan(loanId);\r\n\r\n        require(loan.borrower == _msgSender(), \"ERR_NOT_BORROWER\");\r\n\r\n        uint256 time = block.timestamp;\r\n        uint256 ellapsedSecs = (time - loan.startDate);\r\n\r\n        uint256 principalAmount = percentageOf(\r\n            loan.initialPrincipal,\r\n            percentage\r\n        );\r\n\r\n        uint256 collateralAmount = percentageOf(\r\n            loan.initialCollateral,\r\n            percentage\r\n        );\r\n\r\n        uint256 repaymentPrincipal = getFullInterestAmount(\r\n            principalAmount,\r\n            ellapsedSecs,\r\n            loan.interestRate\r\n        );\r\n\r\n        uint256 interestPaid = (repaymentPrincipal - principalAmount);\r\n        uint256 fee = percentageOf(interestPaid, _feeManager.feePercentage());\r\n\r\n        uint256 unClaimedInterest = (interestPaid - fee);\r\n\r\n        _feeManager.credit(loan.principalToken, fee);\r\n\r\n        bool completed = _loanManager.repayLoan(\r\n            loanId,\r\n            unClaimedInterest,\r\n            principalAmount,\r\n            collateralAmount\r\n        );\r\n\r\n        if (loan.principalToken == nativeAddress) {\r\n            require(msg.value >= repaymentPrincipal);\r\n        } else {\r\n            ERC20(loan.principalToken).safeTransferFrom(\r\n                _msgSender(),\r\n                address(this),\r\n                repaymentPrincipal\r\n            );\r\n        }\r\n\r\n        transfer(\r\n            loan.offerId,\r\n            _msgSender(),\r\n            principalAmount.add(unClaimedInterest),\r\n            loan.principalToken,\r\n            Type.ADDED\r\n        );\r\n\r\n        uint256 interestPaidInUSD = _priceFeed.amountInUSD(\r\n            loan.principalToken,\r\n            (repaymentPrincipal - principalAmount)\r\n        );\r\n\r\n        notify(_msgSender(), loan.lender, REPAID_LOAN, loan.offerId);\r\n\r\n        _activity.repayLoan(\r\n            loan.lender,\r\n            _msgSender(),\r\n            interestPaidInUSD,\r\n            completed\r\n        );\r\n    }\r\n\r\n    /// @notice This function is use to repay a liquidated loan\r\n    /// @dev Liquidated loans cannot be repaid by percentage\r\n    function repayLiquidatedLoan(uint256 loanId) public payable whenNotPaused {}\r\n\r\n    // =========== Cancel / Reject Request Functions =========== //\r\n\r\n    /// @notice This function will reject a request\r\n    /// @dev Request can only be rejected by the offer creator\r\n    function rejectRequest(uint256 requestId) public whenNotPaused {\r\n        _offerManager.rejectRequest(requestId, _msgSender());\r\n        RequestLibrary.Request memory request = _offerManager.getRequest(\r\n            requestId\r\n        );\r\n        notify(_msgSender(), request.creator, REJECT_REQUEST, request.offerId);\r\n    }\r\n\r\n    /// @notice This function will cancel a request\r\n    /// @dev Request can only be calncelled by the request creator\r\n    function cancelRequest(uint256 requestId) public whenNotPaused {\r\n        RequestLibrary.Request memory request = _offerManager.getRequest(\r\n            requestId\r\n        );\r\n\r\n        OfferLibrary.Offer memory offer = _offerManager.getOffer(\r\n            request.offerId\r\n        );\r\n\r\n        if (request.requestType == RequestLibrary.Type.LENDING_REQUEST) {\r\n            uint256 principalAmount = percentageOf(\r\n                offer.initialPrincipal,\r\n                request.percentage\r\n            );\r\n\r\n            if (offer.principalToken == nativeAddress) {\r\n                payable(_msgSender()).transfer(principalAmount);\r\n            } else {\r\n                ERC20(offer.principalToken).safeTransfer(\r\n                    _msgSender(),\r\n                    principalAmount\r\n                );\r\n            }\r\n        } else {\r\n            if (request.collateralToken == nativeAddress) {\r\n                payable(_msgSender()).transfer(request.collateralAmount);\r\n            } else {\r\n                ERC20(request.collateralToken).safeTransfer(\r\n                    _msgSender(),\r\n                    request.collateralAmount\r\n                );\r\n            }\r\n        }\r\n\r\n        _offerManager.cancelRequest(requestId, _msgSender());\r\n    }\r\n\r\n    // =========== Claim Functions =========== //\r\n\r\n    /// @notice This function is use to claim back unlocked collateral from a loan\r\n    /// @dev Can only be called by the borrower\r\n    function claimCollateral(uint256 loanId) public nonReentrant whenNotPaused {\r\n        (uint256 amount, uint256 offerId, address token) = _loanManager\r\n            .claimCollateral(loanId, _msgSender());\r\n\r\n        if (token == nativeAddress) {\r\n            payable(_msgSender()).transfer(amount);\r\n        } else {\r\n            ERC20(token).safeTransfer(_msgSender(), amount);\r\n        }\r\n\r\n        transfer(offerId, _msgSender(), amount, token, Type.CLAIMED);\r\n    }\r\n\r\n    /// @notice This function is use to claim borrowed loan principal\r\n    /// @dev Can only be called by the borrower\r\n    function claimBorrowedPrincipal(uint256 loanId)\r\n        public\r\n        nonReentrant\r\n        whenNotPaused\r\n    {\r\n        (uint256 amount, uint256 offerId, address token) = _loanManager\r\n            .claimBorrowedPrincipal(loanId, _msgSender());\r\n\r\n        if (token == nativeAddress) {\r\n            payable(_msgSender()).transfer(amount);\r\n        } else {\r\n            ERC20(token).safeTransfer(_msgSender(), amount);\r\n        }\r\n\r\n        transfer(offerId, _msgSender(), amount, token, Type.CLAIMED);\r\n    }\r\n\r\n    /// @notice This function is use to claim back repaid principal + interests from a loan\r\n    /// @dev Can only be called by the lender\r\n    function claimPrincipal(uint256 loanId) public nonReentrant whenNotPaused {\r\n        (uint256 amount, uint256 offerId, address token) = _loanManager\r\n            .claimPrincipal(loanId, _msgSender());\r\n\r\n        if (token == nativeAddress) {\r\n            payable(_msgSender()).transfer(amount);\r\n        } else {\r\n            ERC20(token).safeTransfer(_msgSender(), amount);\r\n        }\r\n\r\n        transfer(offerId, _msgSender(), amount, token, Type.CLAIMED);\r\n    }\r\n\r\n    /// @notice This function is use to claim defaulted loan collateral\r\n    /// @dev Can only be called by the lender\r\n    function claimDefaultCollateral(uint256 loanId)\r\n        public\r\n        nonReentrant\r\n        whenNotPaused\r\n    {\r\n        (uint256 amount, uint256 offerId, address token) = _loanManager\r\n            .claimDefaultCollateral(loanId, _msgSender());\r\n\r\n        if (token == nativeAddress) {\r\n            payable(_msgSender()).transfer(amount);\r\n        } else {\r\n            ERC20(token).safeTransfer(_msgSender(), amount);\r\n        }\r\n\r\n        transfer(offerId, _msgSender(), amount, token, Type.CLAIMED);\r\n    }\r\n\r\n    // =========== Loan Liquidation ============= //\r\n\r\n    /// @dev this function will liquidate a loan when it has pass\r\n    /// maturity date + grace days.\r\n    /// It can be call by anyone\r\n    function liquidateLoan(uint256 loanId) public nonReentrant {\r\n        LoanLibrary.Loan memory loan = _loanManager.getLoan(loanId);\r\n\r\n        // calculate the duration of the loan\r\n        uint256 time = block.timestamp;\r\n        uint256 ellapsedSecs = (time - loan.startDate);\r\n\r\n        uint256 repaymentPrincipal = getFullInterestAmount(\r\n            loan.currentPrincipal,\r\n            ellapsedSecs,\r\n            loan.interestRate\r\n        );\r\n\r\n        uint256 repaymentCollateral = _priceFeed.exchangeRate(\r\n            loan.principalToken,\r\n            loan.collateralToken,\r\n            repaymentPrincipal\r\n        );\r\n\r\n        uint256 interestInCollateral = _priceFeed.exchangeRate(\r\n            loan.principalToken,\r\n            loan.collateralToken,\r\n            (repaymentPrincipal - loan.currentPrincipal)\r\n        );\r\n\r\n        uint256 principalPaid;\r\n        uint256 collateralRetrieved;\r\n        uint256 collateralFee;\r\n\r\n        uint256 fee = percentageOf(\r\n            interestInCollateral,\r\n            _feeManager.feePercentage()\r\n        );\r\n\r\n        if (loan.currentCollateral >= (repaymentCollateral - fee)) {\r\n            collateralRetrieved = (repaymentCollateral - fee);\r\n            principalPaid = loan.currentPrincipal;\r\n\r\n            if (loan.currentCollateral >= repaymentCollateral) {\r\n                collateralFee = fee;\r\n            } else {\r\n                collateralRetrieved = loan.currentCollateral;\r\n                collateralFee = (loan.currentCollateral -\r\n                    (repaymentCollateral - fee));\r\n            }\r\n        } else {\r\n            collateralRetrieved = loan.currentCollateral;\r\n\r\n            uint256 collateralInPrincipal = _priceFeed.exchangeRate(\r\n                loan.collateralToken,\r\n                loan.principalToken,\r\n                collateralRetrieved\r\n            );\r\n\r\n            principalPaid = collateralInPrincipal;\r\n            collateralFee = 0;\r\n        }\r\n\r\n        notify(_msgSender(), loan.borrower, LIQUIDATION, loan.offerId);\r\n\r\n        _feeManager.credit(loan.collateralToken, collateralFee);\r\n\r\n        _loanManager.liquidateLoan(\r\n            loanId,\r\n            principalPaid,\r\n            collateralRetrieved,\r\n            (collateralRetrieved - collateralFee)\r\n        );\r\n    }\r\n\r\n    // ============= ABOUT ============ //\r\n\r\n    function getVersion() public pure returns (uint256) {\r\n        return LENDINGPOOL_VERSION;\r\n    }\r\n\r\n    // ============= ADMIN FUNCTIONS =============== //\r\n\r\n    function setFeeds(\r\n        address ltv_,\r\n        address activity_,\r\n        address priceFeed_\r\n    ) public onlyOwner nonReentrant {\r\n        _ltvRatio = ILoanToValueRatio(ltv_);\r\n        _activity = IActivity(activity_);\r\n        _priceFeed = IPriceFeed(priceFeed_);\r\n    }\r\n\r\n    function setManagers(\r\n        address loanManager_,\r\n        address offerManager_,\r\n        address feeManager_\r\n    ) public onlyOwner nonReentrant {\r\n        _loanManager = ILoanManager(loanManager_);\r\n        _offerManager = IOfferManager(offerManager_);\r\n        _feeManager = IFeeManager(feeManager_);\r\n    }\r\n\r\n    /// @dev to claim developer revenue\r\n    function claim(\r\n        address token,\r\n        address payable receiver,\r\n        uint256 amount\r\n    ) public onlyOwner nonReentrant {\r\n        require(amount > 0, \"ERR_ZERO_AMOUNT\");\r\n        _feeManager.debit(token, amount);\r\n        if (token == nativeAddress) {\r\n            receiver.transfer(amount);\r\n        } else {\r\n            ERC20(token).safeTransfer(receiver, amount);\r\n        }\r\n    }\r\n}\r\n",
  "sourcePath": "C:\\Users\\DELL\\Documents\\darsh\\smart-contracts\\contracts\\LendingPool.sol",
  "compiler": {
    "name": "solc",
    "version": "0.8.17+commit.8df45f5f.Emscripten.clang"
  },
  "schemaVersion": "3.4.11",
  "updatedAt": "2023-03-06T17:44:41.139Z",
  "devdoc": {
    "author": "Arogundade Ibrahim*",
    "details": "Main point of interaction with the DARSH protocol's market - Users can:   # Create Lending/Borrowing offers   # Request for new terms on offers   # Repay (Fully/Installment)   # Claim principal and earnings   # Claim back collateral   # Cancel/Reject/Accept requests - All admin functions are callable by the deployer address",
    "kind": "dev",
    "methods": {
      "acceptBorrowingOffer(uint256,uint16)": {
        "details": "The percentage params specifies the portion of the offer to accept"
      },
      "acceptLendingOffer(uint256,uint16,address)": {
        "details": "The percentage params specifies the portion of the offer to accept"
      },
      "acceptOwnership()": {
        "details": "The new owner accepts the ownership transfer."
      },
      "cancelRequest(uint256)": {
        "details": "Request can only be calncelled by the request creator"
      },
      "claim(address,address,uint256)": {
        "details": "to claim developer revenue"
      },
      "claimBorrowedPrincipal(uint256)": {
        "details": "Can only be called by the borrower"
      },
      "claimCollateral(uint256)": {
        "details": "Can only be called by the borrower"
      },
      "claimDefaultCollateral(uint256)": {
        "details": "Can only be called by the lender"
      },
      "claimPrincipal(uint256)": {
        "details": "Can only be called by the lender"
      },
      "createLendingOffer(uint256,address,address[],uint16,uint256,uint16)": {
        "details": "the principalAmount_ parameter is use for ERC20 tokens only"
      },
      "liquidateLoan(uint256)": {
        "details": "this function will liquidate a loan when it has pass maturity date + grace days. It can be call by anyone"
      },
      "owner()": {
        "details": "Returns the address of the current owner."
      },
      "paused()": {
        "details": "Returns true if the contract is paused, and false otherwise."
      },
      "pendingOwner()": {
        "details": "Returns the address of the pending owner."
      },
      "rejectRequest(uint256)": {
        "details": "Request can only be rejected by the offer creator"
      },
      "renounceOwnership()": {
        "details": "Leaves the contract without owner. It will not be possible to call `onlyOwner` functions anymore. Can only be called by the current owner. NOTE: Renouncing ownership will leave the contract without an owner, thereby removing any functionality that is only available to the owner."
      },
      "repayLiquidatedLoan(uint256)": {
        "details": "Liquidated loans cannot be repaid by percentage"
      },
      "repayLoan(uint256,uint16)": {
        "details": "The percentage params specifies the portion to be repaid"
      },
      "transferOwnership(address)": {
        "details": "Starts the ownership transfer of the contract to a new account. Replaces the pending transfer if there is one. Can only be called by the current owner."
      }
    },
    "stateVariables": {
      "LENDINGPOOL_VERSION": {
        "details": "contract version"
      },
      "nativeAddress": {
        "details": "for convienency this address is used to represent FTM just like ERC20"
      }
    },
    "title": "LendingPool contract",
    "version": 1
  },
  "userdoc": {
    "kind": "user",
    "methods": {
      "acceptBorrowingOffer(uint256,uint16)": {
        "notice": "This function accepts a borrowing offer | LEND"
      },
      "acceptBorrowingRequest(uint256)": {
        "notice": "This funcion accepts a borrowing request placed on a lender's offer"
      },
      "acceptLendingOffer(uint256,uint16,address)": {
        "notice": "This function accepts a lending offer | BORROW"
      },
      "acceptLendingRequest(uint256)": {
        "notice": "This funcion accepts a lending request placed on a borrower's offer"
      },
      "cancelRequest(uint256)": {
        "notice": "This function will cancel a request"
      },
      "claimBorrowedPrincipal(uint256)": {
        "notice": "This function is use to claim borrowed loan principal"
      },
      "claimCollateral(uint256)": {
        "notice": "This function is use to claim back unlocked collateral from a loan"
      },
      "claimDefaultCollateral(uint256)": {
        "notice": "This function is use to claim defaulted loan collateral"
      },
      "claimPrincipal(uint256)": {
        "notice": "This function is use to claim back repaid principal + interests from a loan"
      },
      "createBorrowingOffer(address,uint256,address,uint256,uint16,uint16)": {
        "notice": "This function creates a new borrowing offer"
      },
      "createBorrowingRequest(uint256,uint16,address,uint256,uint16,uint16)": {
        "notice": "This function creates a new borrowing request on a lending offer"
      },
      "createLendingOffer(uint256,address,address[],uint16,uint256,uint16)": {
        "notice": "This function creates a new lending offer"
      },
      "createLendingRequest(uint256,uint16,uint16,uint256,uint16)": {
        "notice": "This function creates a new lending request on a borrowing offer"
      },
      "reActivateOffer(uint256,uint16)": {
        "notice": "This function will reactivate a offer when they expires"
      },
      "rejectRequest(uint256)": {
        "notice": "This function will reject a request"
      },
      "repayLiquidatedLoan(uint256)": {
        "notice": "This function is use to repay a liquidated loan"
      },
      "repayLoan(uint256,uint16)": {
        "notice": "This function is use to repay a loan"
      }
    },
    "version": 1
  }
}