{
  "contractName": "LendingPool",
  "abi": [
    {
      "inputs": [
        {
          "internalType": "address",
          "name": "poolManager_",
          "type": "address"
        },
        {
          "internalType": "address",
          "name": "loanManager_",
          "type": "address"
        },
        {
          "internalType": "address",
          "name": "offerManager_",
          "type": "address"
        }
      ],
      "stateMutability": "nonpayable",
      "type": "constructor"
    },
    {
      "inputs": [],
      "name": "INTEREST_RATE_DENOMINATOR",
      "outputs": [
        {
          "internalType": "uint256",
          "name": "",
          "type": "uint256"
        }
      ],
      "stateMutability": "view",
      "type": "function"
    },
    {
      "inputs": [
        {
          "internalType": "uint256",
          "name": "principal",
          "type": "uint256"
        },
        {
          "internalType": "uint256",
          "name": "durationSecs",
          "type": "uint256"
        },
        {
          "internalType": "uint256",
          "name": "interest",
          "type": "uint256"
        }
      ],
      "name": "getFullInterestAmount",
      "outputs": [
        {
          "internalType": "uint256",
          "name": "",
          "type": "uint256"
        }
      ],
      "stateMutability": "pure",
      "type": "function"
    },
    {
      "inputs": [],
      "name": "nativeAddress",
      "outputs": [
        {
          "internalType": "address",
          "name": "",
          "type": "address"
        }
      ],
      "stateMutability": "view",
      "type": "function"
    },
    {
      "inputs": [
        {
          "internalType": "uint256",
          "name": "total",
          "type": "uint256"
        },
        {
          "internalType": "uint160",
          "name": "percent",
          "type": "uint160"
        }
      ],
      "name": "percentageInverseOf",
      "outputs": [
        {
          "internalType": "uint256",
          "name": "",
          "type": "uint256"
        }
      ],
      "stateMutability": "pure",
      "type": "function"
    },
    {
      "inputs": [
        {
          "internalType": "uint256",
          "name": "total",
          "type": "uint256"
        },
        {
          "internalType": "uint160",
          "name": "percent",
          "type": "uint160"
        }
      ],
      "name": "percentageOf",
      "outputs": [
        {
          "internalType": "uint256",
          "name": "",
          "type": "uint256"
        }
      ],
      "stateMutability": "pure",
      "type": "function"
    },
    {
      "inputs": [
        {
          "internalType": "uint256",
          "name": "principalAmount_",
          "type": "uint256"
        },
        {
          "internalType": "address",
          "name": "principalToken",
          "type": "address"
        },
        {
          "internalType": "address[]",
          "name": "collateralTokens",
          "type": "address[]"
        },
        {
          "internalType": "uint16",
          "name": "daysToMaturity",
          "type": "uint16"
        },
        {
          "internalType": "uint256",
          "name": "interest",
          "type": "uint256"
        },
        {
          "internalType": "uint16",
          "name": "daysToExpire",
          "type": "uint16"
        }
      ],
      "name": "createLendingOffer",
      "outputs": [],
      "stateMutability": "payable",
      "type": "function"
    },
    {
      "inputs": [
        {
          "internalType": "uint160",
          "name": "offerId",
          "type": "uint160"
        },
        {
          "internalType": "uint16",
          "name": "percentage",
          "type": "uint16"
        },
        {
          "internalType": "uint16",
          "name": "daysToMaturity",
          "type": "uint16"
        },
        {
          "internalType": "uint256",
          "name": "interest",
          "type": "uint256"
        },
        {
          "internalType": "uint16",
          "name": "daysToExpire",
          "type": "uint16"
        }
      ],
      "name": "createLendingRequest",
      "outputs": [],
      "stateMutability": "payable",
      "type": "function"
    },
    {
      "inputs": [
        {
          "internalType": "uint160",
          "name": "offerId",
          "type": "uint160"
        },
        {
          "internalType": "uint16",
          "name": "percentage",
          "type": "uint16"
        }
      ],
      "name": "acceptBorrowingOffer",
      "outputs": [],
      "stateMutability": "payable",
      "type": "function"
    },
    {
      "inputs": [
        {
          "internalType": "uint256",
          "name": "requestId",
          "type": "uint256"
        }
      ],
      "name": "acceptBorrowingRequest",
      "outputs": [],
      "stateMutability": "nonpayable",
      "type": "function"
    },
    {
      "inputs": [
        {
          "internalType": "address",
          "name": "principalToken",
          "type": "address"
        },
        {
          "internalType": "address",
          "name": "collateralToken",
          "type": "address"
        },
        {
          "internalType": "uint256",
          "name": "collateralAmount_",
          "type": "uint256"
        },
        {
          "internalType": "uint256",
          "name": "interest",
          "type": "uint256"
        },
        {
          "internalType": "uint16",
          "name": "daysToMaturity",
          "type": "uint16"
        },
        {
          "internalType": "uint16",
          "name": "daysToExpire",
          "type": "uint16"
        }
      ],
      "name": "createBorrowingOffer",
      "outputs": [],
      "stateMutability": "payable",
      "type": "function"
    },
    {
      "inputs": [
        {
          "internalType": "uint160",
          "name": "offerId",
          "type": "uint160"
        },
        {
          "internalType": "uint16",
          "name": "percentage",
          "type": "uint16"
        },
        {
          "internalType": "address",
          "name": "collateralToken",
          "type": "address"
        },
        {
          "internalType": "uint256",
          "name": "interest",
          "type": "uint256"
        },
        {
          "internalType": "uint16",
          "name": "daysToMaturity",
          "type": "uint16"
        },
        {
          "internalType": "uint16",
          "name": "daysToExpire",
          "type": "uint16"
        }
      ],
      "name": "createBorrowingRequest",
      "outputs": [],
      "stateMutability": "payable",
      "type": "function"
    },
    {
      "inputs": [
        {
          "internalType": "uint160",
          "name": "offerId",
          "type": "uint160"
        },
        {
          "internalType": "uint16",
          "name": "percentage",
          "type": "uint16"
        },
        {
          "internalType": "address",
          "name": "collateralToken",
          "type": "address"
        }
      ],
      "name": "acceptLendingOffer",
      "outputs": [],
      "stateMutability": "payable",
      "type": "function"
    },
    {
      "inputs": [
        {
          "internalType": "uint256",
          "name": "requestId",
          "type": "uint256"
        }
      ],
      "name": "acceptLendingRequest",
      "outputs": [],
      "stateMutability": "payable",
      "type": "function"
    },
    {
      "inputs": [],
      "name": "reActivateOffer",
      "outputs": [],
      "stateMutability": "payable",
      "type": "function"
    },
    {
      "inputs": [],
      "name": "reActivateRequest",
      "outputs": [],
      "stateMutability": "payable",
      "type": "function"
    },
    {
      "inputs": [
        {
          "internalType": "uint256",
          "name": "loanId",
          "type": "uint256"
        },
        {
          "internalType": "uint16",
          "name": "percentage",
          "type": "uint16"
        }
      ],
      "name": "repayLoan",
      "outputs": [],
      "stateMutability": "payable",
      "type": "function"
    },
    {
      "inputs": [
        {
          "internalType": "uint256",
          "name": "loanId",
          "type": "uint256"
        }
      ],
      "name": "repayLiquidatedLoan",
      "outputs": [],
      "stateMutability": "payable",
      "type": "function"
    },
    {
      "inputs": [
        {
          "internalType": "address",
          "name": "ltv_",
          "type": "address"
        }
      ],
      "name": "setLTV",
      "outputs": [],
      "stateMutability": "nonpayable",
      "type": "function"
    },
    {
      "inputs": [
        {
          "internalType": "address",
          "name": "activity_",
          "type": "address"
        }
      ],
      "name": "setActivity",
      "outputs": [],
      "stateMutability": "nonpayable",
      "type": "function"
    },
    {
      "inputs": [
        {
          "internalType": "address",
          "name": "priceFeed_",
          "type": "address"
        }
      ],
      "name": "setPriceFeed",
      "outputs": [],
      "stateMutability": "nonpayable",
      "type": "function"
    },
    {
      "inputs": [
        {
          "internalType": "address",
          "name": "newOwner",
          "type": "address"
        }
      ],
      "name": "changeOwner",
      "outputs": [],
      "stateMutability": "nonpayable",
      "type": "function"
    }
  ],
  "bytecode": "0x608034620000ba57601f6200379538819003918201601f19168301916001600160401b03831184841017620000bf57808492606094604052833981010312620000ba576200004d81620000d5565b906200006a60406200006260208401620000d5565b9201620000d5565b600160005560018060a01b0380928160018060a01b031995168560055416176005551683600654161760065516816007541617600755339060015416176001556040516136aa9081620000eb8239f35b600080fd5b634e487b7160e01b600052604160045260246000fd5b51906001600160a01b0382168203620000ba5756fe6080604052600436101561001257600080fd5b6000803560e01c806310e14e1914612fd95780632e47633714612faa57806331f00e8d146129ee57806337787d51146101365780634ab2618c146124ed5780634add7c8214611f165780635c7f31aa146119c45780635cb933981461115457806361ba944314611144578063628118ee14610be3578063724e78da14610b985780639ca6005f14610752578063a6f9dae114610709578063afaa0691146104f1578063c1bc89ef146101fa578063cc3266e8146101d7578063e0b26959146101b0578063e0f7dffd1461018b578063e3f43fdb14610140578063eb1f613d146101365763f4e02f4614610105575b600080fd5b3461013357604036600319011261013357602061012b610123613050565b60043561363d565b604051908152f35b80fd5b5050610100613099565b50346101335760203660031901126101335761015a613024565b6001546001600160a01b0391906101749083163314613566565b166001600160601b0360a01b600254161760025580f35b503461013357606036600319011261013357602061012b6044356024356004356135ef565b503461013357604036600319011261013357602061012b6101cf613050565b600435613619565b50346101335780600319360112610133576020604051670de0b6b3a76400008152f35b5060c03660031901126101335761020f613050565b60443567ffffffffffffffff8111610416573660238201121561041657806004013561023a816130de565b9061024860405192836130bc565b8082526020928383016024819360051b830101913683116104ed57602401905b8282106104ce575050506064359161ffff8084168094036101005761028b613088565b91805115610489576001600160a01b038781169390929073eeeeeeeeeeeeeeeeeeeeeeeeeeeeeeeeeeeeeeee850361041a578934995b8560055416803b1561041657604051638340f54960e01b81523360048201526001600160a01b03929092166024830152604482018c905282908290606490829084905af1801561040b576103f3575b5093919288979996938360079793975416966040519b8c9963031137cd60e61b8b5260e48b019560048c015260248b015260843560448b015260648a015216608488015260e060a4880152518091526101048601929184905b8282106103d25750505050908380923360c483015203925af180156103c757610390578280f35b81813d83116103c0575b6103a481836130bc565b810103126103bc576103b59061310e565b5038808280f35b5080fd5b503d61039a565b6040513d85823e3d90fd5b83518116855289988b98508c96509485019490930192600190910190610369565b6103fc906130a8565b610407578938610310565b8980fd5b6040513d84823e3d90fd5b8280fd5b6040516323b872dd60e01b8152336004808301919091523060248301523560448201819052998b918a81606481868c5af180156103c75761045c575b506102c1565b61047b908b3d8d11610482575b61047381836130bc565b8101906130f6565b5038610456565b503d610469565b60405162461bcd60e51b815260048101879052601760248201527f4552525f4e4f5f434f4c4c41544552414c5f54595045530000000000000000006044820152606490fd5b81356001600160a01b0381168103610100578152908501908501610268565b8780fd5b5060a036600319011261013357610506613024565b61050e613066565b906044359061ffff80831680930361010057849261052a613077565b94610534816135a3565b60018060a01b03948593818560075416966024604051809a8193630ce7621960e11b835216998a60048301525afa96871561040b5782976106e5575b5061058381606089015194168094613619565b956020809801968688511673eeeeeeeeeeeeeeeeeeeeeeeeeeeeeeeeeeeeeeee811460001461067e575080341061067a575b86806005541698511690883b1561067657604051638340f54960e01b81523360048201526001600160a01b0392909216602483015260448201529683908890606490829084905af19586156103c757889661065b575b60c4959697506007541691604051998a97889663ab488b0b60e01b885260048801526064356024880152604487015216606485015233608485015260a48401525af180156103c757610390578280f35b9495509561066983916130a8565b6103bc578587959461060b565b8480fd5b8380fd5b6040516323b872dd60e01b815233600482015230602482015260448101839052908a908290606490829089905af180156106da576106bd575b506105b5565b6106d3908a3d8c116104825761047381836130bc565b50386106b7565b6040513d87823e3d90fd5b6107029197503d8084833e6106fa81836130bc565b810190613131565b9538610570565b503461013357602036600319011261013357610723613024565b600154906001600160a01b039061073d3383851614613566565b16906001600160601b0360a01b161760015580f35b5060c03660031901126101335780610768613024565b610770613050565b6044359061077c613077565b91610785613088565b6001600160a01b03938385169290919073eeeeeeeeeeeeeeeeeeeeeeeeeeeeeeeeeeeeeeee8403610b31575034915b85600454169660405180986356512fcd60e11b825233600483015281602460209b8c935afa908115610b26578a91610af1575b50600354604051631c07d98160e21b81526001600160a01b0389811660048301528416602482015260448101879052908a90829060649082908f908e165af1908115610a73578b91610abd575b506004916108419161363d565b898983541660405193848092636882509b60e11b82525afa918215610a73578b92610a82575b5060ff6108759216906133ab565b90876005541691823b15610a7e57604051638340f54960e01b81523360048201526001600160a01b038916602482015260448101879052928b908490606490829084905af1908115610a73578a948a948d93610a56575b508495966101049560075416926040519a8b98899763486c386960e11b895216600488015260248701528960448701526064860152606435608486015261ffff80921660a48601521660c48401523360e48401525af1918215610a4b578592610a0e575b5060035460405163912d228f60e01b81526001600160a01b039094166004850152602484019190915282908416818781604481015b03925af1928315610a035784936109d0575b505060025416803b156109cc5760405163094f618d60e11b8152336004820152602481019290925282908290818381604481015b03925af1801561040b576109bc5750f35b6109c5906130a8565b6101335780f35b5050fd5b819450809293503d83116109fc575b6109e981836130bc565b8101031261010057829151903880610977565b503d6109df565b6040513d86823e3d90fd5b9182813d8311610a44575b610a2381836130bc565b81010312610a405761096592610a39869361310e565b5092610930565b8580fd5b503d610a19565b6040513d88823e3d90fd5b909450610a649195506130a8565b610407578989938993386108cc565b6040513d8d823e3d90fd5b8a80fd5b91508982813d8311610ab6575b610a9981836130bc565b81010312610a7e5760ff610aaf6108759361339d565b9250610867565b503d610a8f565b809b508a8092503d8311610aea575b610ad681836130bc565b810103126101005798518a99906004610834565b503d610acc565b90508881813d8311610b1f575b610b0881836130bc565b8101031261040757610b199061310e565b386107e7565b503d610afe565b6040513d8c823e3d90fd5b6040516323b872dd60e01b8152336004820152306024820152604481018290529092906020816064818c895af18015610b8d57610b6f575b506107b4565b610b869060203d81116104825761047381836130bc565b5038610b69565b6040513d8b823e3d90fd5b503461013357602036600319011261013357610bb2613024565b6001546001600160a01b039190610bcc9083163314613566565b166001600160601b0360a01b600354161760035580f35b5060403660031901126101335760043590610bfc613066565b600654604051632820036560e11b815260048101859052602494926001600160a01b0392909190831661020080838981855afa928315610f14578793610ff3575b5050610c6161ffff80941693610c5660648611156134eb565b601985061615613529565b836101c0830151163303610fbc57836101608301511684421603848111610fa7578695610cb3610ca3610c988760a0880151613619565b9660e0870151613619565b92876101408701519116876135ef565b926040519163464244f960e11b83526004830152858a8301528260448301528160648160209a8b945af18015610e9657610f8a575b50606083018051909373eeeeeeeeeeeeeeeeeeeeeeeeeeeeeeeeeeeeeeee918716828103610f235750833410610f1f57918789939288608086955b015116908103610ebd575050818091818115610eb4575b3390f1156106da575b83600354168483511691848103908111610ea15760405163912d228f60e01b8082526001600160a01b0394909416600482015260248101919091529697889796909590949093909290918590889060449082908c905af1968715610e96578897610e5e575b50600354915160405191825284166001600160a01b0316600482015260248101929092528390829060449082908a9087165af1928315610a4b578693610e2b575b505060025416803b1561067657849283606492604051968795869463720722fd60e01b865233600487015285015260448401525af1801561040b576109bc5750f35b819650809293503d8311610e57575b610e4481836130bc565b8101031261010057849351903880610de9565b503d610e3a565b9297509550908381813d8111610e8f575b610e7981836130bc565b8101031261010057518796909590919084610da8565b503d610e6f565b6040513d8a823e3d90fd5b634e487b7160e01b885260116004528888fd5b506108fc610d3a565b60405163a9059cbb60e01b815233600482015260248101939093529193909250839160449183915af18015610f1457610ef7575b50610d43565b610f0d90863d88116104825761047381836130bc565b5038610ef1565b6040513d89823e3d90fd5b8880fd5b6040516323b872dd60e01b815233600482015230602482015260448101869052908990829060649082908e905af18015610b2657928860808c96948c948897610f6d575b50610d23565b610f8390863d88116104825761047381836130bc565b5038610f67565b610fa090873d89116104825761047381836130bc565b5038610ce8565b87634e487b7160e01b60005260116004526000fd5b60405162461bcd60e51b8152602060048201526010818901526f22a9292fa727aa2fa127a92927aba2a960811b6044820152606490fd5b908092935081813d831161113d575b61100c81836130bc565b810103126111395760405191820182811067ffffffffffffffff821117611124576040526110398161310e565b8252602081015160038110156104ed576020830152604081015160028110156104ed57604083015261106d6060820161310e565b606083015261107e6080820161310e565b608083015260a081015160a083015260c081015160c083015260e081015160e08301526101008082015190830152610120808201519083015261014080820151908301526101606110d081830161310e565b908301526101806110e281830161310e565b908301526101a06110f481830161339d565b908301526101c061110681830161310e565b908301526111186101e080920161310e565b90820152903880610c3d565b88634e487b7160e01b60005260416004526000fd5b8680fd5b503d611002565b5060203660031901126101335780f35b50606036600319011261013357611169613024565b90611172613066565b61117a61303a565b90611184816135a3565b600754604051630ce7621960e11b81526001600160a01b038681166004830152602496919391921685848881845afa938415610a4b5786946119a8575b50604051634cf732f160e11b81526001600160a01b0384811660048301528616602482015290602090829060449082905afa908115610a4b576112209291611210918891611989575b506133cb565b61ffff6060850151911690613619565b9285602060018060a01b0360045416604051928380926356512fcd60e11b82523360048301525afa8015610a4b57869061194e575b600354602086810151604051631c07d98160e21b81526001600160a01b0391821660048201528682166024820152604481018a905294509091849116818a81606481015b03925af18015610f1457879061191a575b6112b49250613619565b60048054604051636882509b60e11b81529160209183919082906001600160a01b03165afa908115610f145787916118d8575b509060ff6112f69216906133ab565b9073eeeeeeeeeeeeeeeeeeeeeeeeeeeeeeeeeeeeeeee6001600160a01b038216818103611879575034831061183d575b60208501516001600160a01b03169081036116ac575085808098508680156116a2575b8280929181923390f1156106da575b6005546101208501516001600160a01b039081169116803b156104ed57604051633c6340f360e21b81523360048201526001600160a01b03928316602482015291831660448301526064820184905287908290608490829084905af1908115610f1457879161168e575b505060055461012085015160208601516001600160a01b03928316929081169116823b15610f1f57604051633dae446f60e21b81526001600160a01b03918216600482015291166024820152604481018790529087908290606490829084905af1908115610f1457879161167a575b505060035460405163912d228f60e01b81526001600160a01b03838116600483015260248201859052909291602091849160449183918c91165af1918215610f14578792611643575b5060209186918860018060a01b0360065416926114dd60018060a01b03878b01511691898b61ffff60a0608083015192015116908d61012060018060a01b0391015116936040519c8d9b8c9a8b99636667fe2160e11b8b52339760048c01613335565b03925af180156106da57611614575b506007546001600160a01b0316803b156106765760405163d0dd830360e01b81526001600160a01b0390921660048301526024820184905284908290818381604481015b03925af1908115610a03578491611600575b505060035460209182015160405163912d228f60e01b81526001600160a01b0391821660048201526024810194909452839160449183918791165af190811561040b5782916115cb575b506002546001600160a01b0316803b156109cc576040516311eba9df60e21b8152336004820152602481019290925282908290818381604481016109ab565b9150506020813d6020116115f8575b816115e7602093836130bc565b81010312610100578190513861158c565b3d91506115da565b611609906130a8565b6109cc578238611542565b6020809295503d831161163c575b61162c81836130bc565b81010312610100578392386114ec565b503d611622565b965090506020863d602011611672575b81611660602093836130bc565b8101031261010057945186958561147a565b3d9150611653565b611683906130a8565b610a40578538611431565b611697906130a8565b610a405785386113c2565b6108fc9150611349565b6040805163a9059cbb60e01b602080830191909152338b83019081528082018a9052829003908101825290916116e39101826130bc565b6040519081604081011067ffffffffffffffff6040840111176118285788809160408401604052602084527f5361666545524332303a206c6f772d6c6576656c2063616c6c206661696c6564602085015260208151910182865af13d1561181b573d9067ffffffffffffffff82116118065761177f93604051926117716020601f19601f84011601856130bc565b83523d8b602085013e613417565b805180611791575b5050859650611358565b906020806117a39383010191016130f6565b156117af578680611787565b60405162461bcd60e51b815260206004820152602a818901527f5361666545524332303a204552433230206f7065726174696f6e20646964206e6044820152691bdd081cdd58d8d9595960b21b6064820152608490fd5b8a634e487b7160e01b60005260416004526000fd5b9161177f92606091613417565b89634e487b7160e01b60005260416004526000fd5b60405162461bcd60e51b8152602060048201526015818a01527411549497d0d3d31310551154905317d05353d55395605a1b6044820152606490fd5b6040516323b872dd60e01b81523360048201523060248201526044810185905290602090829060649082908c905af18015610e96576118b9575b50611326565b6118d19060203d6020116104825761047381836130bc565b50386118b3565b90506020813d602011611912575b816118f3602093836130bc565b81010312611139579060ff61190a6112f69361339d565b9192506112e7565b3d91506118e6565b506020823d602011611946575b81611934602093836130bc565b81010312610100576112b491516112aa565b3d9150611927565b506020813d602011611981575b81611968602093836130bc565b81010312610a405761197c6112999161310e565b611255565b3d915061195b565b6119a2915060203d6020116104825761047381836130bc565b3861120a565b6119bd9194503d8088833e6106fa81836130bc565b92386111c1565b506020366003190112610133576007546040516314c7eb4960e01b815260048035908201526001600160a01b03909116906101008082602481865afa918215610a03578492611e3a575b505060e0810151604051632bdd7c7760e01b81526001600160a01b039091166004820152610180928390829060249082905afa928315610a03578493611e0b575b50506101608201516001600160a01b03163303611dd25781608084930151611a96611a84602085019261ffff84511690613619565b9161ffff60c085015191511690613619565b60208301519093906001600160a01b031673eeeeeeeeeeeeeeeeeeeeeeeeeeeeeeeeeeeeeeee8103611d7957508480858015611d6f575b8280929181923390f115610a03575b60055460c082015160408501516001600160a01b03928316929081169116823b156104ed57604051633c6340f360e21b81523360048201526001600160a01b03918216602482015291166044820152606481018490529086908290608490829084905af1908115610a4b578691611d5b575b505060055460c082015160208501516001600160a01b03928316929081169116823b156104ed57604051633dae446f60e21b81526001600160a01b03918216600482015291166024820152604481018690529086908290606490829084905af1908115610a4b578691611d47575b5050600354604084810151905163912d228f60e01b81526001600160a01b039182166004820152602481018590529291602091849160449183918b91165af1918215610a4b578692611d10575b5060209185918760018060a01b036006541692611c8460018060a01b0360e0850151169160018060a01b03888b0151169260018060a01b0360408c01511695608081015161ffff6040830151169160c060018060a01b0391015116936040519c8d9b8c9a8b99636667fe2160e11b8b52339760048c01613335565b03925af18015610a0357611ce1575b5060075481516001600160a01b039081169116803b156106765760405163d0dd830360e01b81526001600160a01b039092166004830152602482018490528490829081838160448101611530565b6020809294503d8311611d09575b611cf981836130bc565b8101031261010057829138611c93565b503d611cef565b955090506020853d602011611d3f575b81611d2d602093836130bc565b81010312610100579351859484611c09565b3d9150611d20565b611d50906130a8565b610676578438611bbc565b611d64906130a8565b610676578438611b4e565b6108fc9150611acd565b60405163a9059cbb60e01b81523360048201526024810186905290602090829060449082908a905af18015610a4b57611db3575b50611adc565b611dcb9060203d6020116104825761047381836130bc565b5038611dad565b60405162461bcd60e51b815260206004820152601160248201527022a9292fa7a7262cafa127a92927aba2a960791b6044820152606490fd5b611e2b929350803d10611e33575b611e2381836130bc565b810190613268565b903880611a4f565b503d611e19565b9080925081813d8311611f0f575b611e5281836130bc565b8101031261067a5760405191820182811067ffffffffffffffff821117611ef957611eed9160e091604052611e868161310e565b8452611e9460208201613122565b6020850152611ea560408201613122565b6040850152611eb66060820161310e565b606085015260808101516080850152611ed160a0820161310e565b60a0850152611ee260c0820161310e565b60c08501520161310e565b60e08201523880611a0e565b634e487b7160e01b600052604160045260246000fd5b503d611e48565b503461013357602036600319011261013357600754604051632a3884d760e21b815260048035908201526001600160a01b03909116906101608082602481865afa918215610a03578492612400575b50508260018060a01b0361014083015116602460405180958193630ce7621960e11b835260048301525afa9182156103c75783926123e4575b50610120828101519091906001600160a01b031633036123ad5782611fd160608695015161ffff60208501511690613619565b602082015190929083906001600160a01b031673eeeeeeeeeeeeeeeeeeeeeeeeeeeeeeeeeeeeeeee810361234657508185015186918291829182916001600160a01b031682821561233d575bf115610a03575b60055493810180516040830151606084015192966001600160a01b0391821693928216929116803b15610f1f57604051633c6340f360e21b81526001600160a01b039384166004820152336024820152939092166044840152606483015286908290608490829084905af1908115610a4b578691612329575b505060055460208301516001600160a01b039081169116803b1561113957604051633dae446f60e21b81523360048201526001600160a01b039290921660248301526044820185905286908290606490829084905af1908115610a4b578691612315575b505060018060a01b036006541660208460018060a01b03610140850151169260018060a01b0383870151168960018060a01b036040880151169161218460608901519760808a01518d8b61ffff60a060e0830151920151169160018060a01b03905116926040519c8d9b8c9a8b99636667fe2160e11b8b52339860048c01613335565b03925af18015610a4b576122e6575b506007546101408201516060909201516001600160a01b039182169290911690823b1561113957604051634e1df74360e01b81526001600160a01b039290921660048301526024820185905260448201529085908290606490829084905af19081156106da5785916122d2575b505060035460209182015160405163912d228f60e01b81526001600160a01b0391821660048201526024810194909452839160449183918891165af19081156103c757839161229d575b5060025491516001600160a01b03928316921690823b15612298576040516311eba9df60e21b81526001600160a01b03909216600483015260248201529082908290818381604481016109ab565b505050fd5b9250506020823d6020116122ca575b816122b9602093836130bc565b81010312610100578291513861224a565b3d91506122ac565b6122db906130a8565b612298578338612200565b6020809296503d831161230e575b6122fe81836130bc565b8101031261010057849338612193565b503d6122f4565b61231e906130a8565b610676578438612101565b612332906130a8565b61067657843861209d565b506108fc61201d565b8286015160405163a9059cbb60e01b81526001600160a01b0390911660048201526024810192909252602090829060449082908a905af18015610a4b5761238e575b50612024565b6123a69060203d6020116104825761047381836130bc565b5038612388565b60405162461bcd60e51b815260206004820152600f60248201526e22a9292fa7a7262cafa622a72222a960891b6044820152606490fd5b6123f99192503d8085833e6106fa81836130bc565b9038611f9e565b9080925081813d83116124e6575b61241881836130bc565b8101031261067a5760405191820182811067ffffffffffffffff821117611ef9576040526124458161310e565b825261245360208201613122565b60208301526124646040820161310e565b6040830152606081015160608301526080810151608083015261248960a08201613122565b60a083015261249a60c0820161310e565b60c083015260e081015160e08301526101006124b781830161310e565b908301526101206124c981830161310e565b908301526124db61014080920161310e565b908201523880611f65565b503d61240e565b5060c03660031901126101335780612503613024565b61250b613066565b61251361303a565b9061251c613077565b92612525613088565b9061252f836135a3565b600754604051630ce7621960e11b81526001600160a01b038381166004830152909116908781602481855afa908115610e965788916129d4575b50604051634cf732f160e11b81526001600160a01b0384811660048301528716602482015291602090839060449082905afa918215610e96576024926125b5918a9161198957506133cb565b6125c8606082015161ffff871690613619565b90602060018060a01b0360045416604051948580926356512fcd60e11b82523360048301525afa928315610b8d578993612990575b50600354602091820151604051631c07d98160e21b81526001600160a01b039182166004820152818a1660248201526044810194909452839116818b81606481015b03925af1908115610e96578891612958575b5060049161265e91613619565b8154604051636882509b60e11b81529260209184919082906001600160a01b03165afa918215610e96578892612918575b5060ff61269d9216906133ab565b916001600160a01b03851673eeeeeeeeeeeeeeeeeeeeeeeeeeeeeeeeeeeeeeee036128b557348310611139575b6005546001600160a01b0316803b156104ed57604051638340f54960e01b81523360048201526001600160a01b0387166024820152604481018590529088908290606490829084905af1908115610e965788916128a1575b505060035460405163912d228f60e01b81526001600160a01b03878116600483015260248201869052909791602091899160449183918d91165af1968715610e9657889761285e575b5060075460405163aba001ed60e01b815261ffff96871660048201526001600160a01b0397881660248201526044810195909552606480860189905235608486015290851660a4850152931660c48301523360e483015283166101048201529160209183916101249183918891165af180156103c757612825575b506002546001600160a01b0316803b156109cc5760405163094f618d60e11b8152336004820152602481019290925282908290818381604481016109ab565b6020813d602011612856575b8161283e602093836130bc565b810103126109cc5761284f9061310e565b50386127e6565b3d9150612831565b92939491975095506020823d602011612899575b8161287f602093836130bc565b81010312610100579051879690959193929161ffff61276b565b3d9150612872565b6128aa906130a8565b611139578638612722565b6040516323b872dd60e01b8152336004820152306024820152604481018490526020816064818b6001600160a01b038b165af18015610e96576128f9575b506126ca565b6129119060203d6020116104825761047381836130bc565b50386128f3565b91506020823d602011612950575b81612933602093836130bc565b810103126104ed5760ff61294961269d9361339d565b925061268f565b3d9150612926565b9750506020873d602011612988575b81612974602093836130bc565b810103126101005795518796906004612651565b3d9150612967565b9092506020813d6020116129cc575b816129ac602093836130bc565b81010312610f1f5761263f916129c360209261310e565b939150916125fd565b3d915061299f565b6129e891503d808a833e6106fa81836130bc565b38612569565b50604036600319011261013357612a03613024565b90612a0c613066565b612a15816135a3565b600754604051632bdd7c7760e01b81526001600160a01b0385811660048301526101809392849183916024918391165afa928315610a03578493612f8b575b50506101608201516001600160a01b03163314612f5057612a8d612a8261ffff608085015193168093613619565b9160c0840151613619565b60208301519091906001600160a01b031673eeeeeeeeeeeeeeeeeeeeeeeeeeeeeeeeeeeeeeee8103612e88575081341061067a57838080808560018060a01b0361016089015116828215612e7f575bf1156103c7575b60055461016084015160408501516001600160a01b0392831697929081169116873b1561113957604051633c6340f360e21b81526001600160a01b03918216600482015233602482015291166044820152606481018390529585908790608490829084905af180156106da57612e6b575b600554602085015195965086956001600160a01b039081169116803b1561113957604051633dae446f60e21b81523360048201526001600160a01b039290921660248301526044820185905286908290606490829084905af1908115610a4b578691612e57575b5050600354604085810151905163912d228f60e01b81526001600160a01b0391821660048201526024810185905291602091839160449183918b91165af1908115610a4b578691612e22575b5060065485516020808801516040808a015160e08b01516101008c01516101608d01519351636667fe2160e11b81526001600160a01b0397881660048201526001602482015294871660448601529186166064850152608484018b905260a484018a905260c484019790975260e483019690965261ffff909516610104820152938216610124850152336101448501529183916101649183918b91165af18015610a4b57612df3575b506007546001600160a01b031691823b15610a4057604051634e1df74360e01b81526001600160a01b039290921660048301526024820184905260448201529084908290606490829084905af1908115610a03578491612ddf575b505060035460208381015160405163912d228f60e01b81526001600160a01b03918216600482015260248101949094529091839160449183918891165af19081156103c7578391612daa575b50600254610160909201516001600160a01b03928316921690823b15612298576040516311eba9df60e21b81526001600160a01b03909216600483015260248201529082908290818381604481016109ab565b9250506020823d602011612dd7575b81612dc6602093836130bc565b810103126101005782915138612d57565b3d9150612db9565b612de8906130a8565b6109cc578238612d0b565b6020809296503d8311612e1b575b612e0b81836130bc565b8101031261010057849338612cb0565b503d612e01565b9550506020853d602011612e4f575b81612e3e602093836130bc565b810103126101005785945138612c07565b3d9150612e31565b612e60906130a8565b610676578438612bbb565b939094612e77906130a8565b928490612b54565b506108fc612adc565b6040516323b872dd60e01b815233600482015230602482015260448101849052906020908290606490829089905af180156106da57612f31575b5060208381015161016085015160405163a9059cbb60e01b81526001600160a01b039182166004820152602481018690529291839160449183918a91165af180156106da57612f12575b50612ae3565b612f2a9060203d6020116104825761047381836130bc565b5038612f0c565b612f499060203d6020116104825761047381836130bc565b5038612ec2565b60405162461bcd60e51b815260206004820152601360248201527222a9292fa1a0a72a2fa127a92927abafa7aba760691b6044820152606490fd5b612fa2929350803d10611e3357611e2381836130bc565b903880612a54565b5034610133578060031936011261013357602060405173eeeeeeeeeeeeeeeeeeeeeeeeeeeeeeeeeeeeeeee8152f35b503461013357602036600319011261013357612ff3613024565b6001546001600160a01b03919061300d9083163314613566565b166001600160601b0360a01b600454161760045580f35b600435906001600160a01b038216820361010057565b604435906001600160a01b038216820361010057565b602435906001600160a01b038216820361010057565b6024359061ffff8216820361010057565b6084359061ffff8216820361010057565b60a4359061ffff8216820361010057565b50600036600319011261010057005b67ffffffffffffffff8111611ef957604052565b90601f8019910116810190811067ffffffffffffffff821117611ef957604052565b67ffffffffffffffff8111611ef95760051b60200190565b90816020910312610100575180151581036101005790565b51906001600160a01b038216820361010057565b519061ffff8216820361010057565b90602090818382031261010057825167ffffffffffffffff938482116101005701916101409384848403126101005760405194850185811082821117611ef95760405261317d8461310e565b855261318a82850161310e565b828601526040840151604086015260608401516060860152608084015160808601526131b860a08501613122565b60a086015260c08401519081116101005783019180601f840112156101005782516131e2816130de565b936131f060405195866130bc565b818552838086019260051b820101928311610100578301905b828210613251575050505060c083015261322560e0820161310e565b60e083015261010061323881830161310e565b9083015261324a61012080920161310e565b9082015290565b83809161325d8461310e565b815201910190613209565b809161018092839103126101005760405191820182811067ffffffffffffffff821117611ef95760405261329b8161310e565b82526132a96020820161310e565b60208301526132ba6040820161310e565b6040830152606081015160608301526080810151608083015260a081015160a083015260c081015160c083015260e081015160e08301526101006132ff818301613122565b9083015261012061331181830161310e565b9083015261014061332381830161310e565b9083015261324a61016080920161310e565b6001600160a01b0391821681526000602082015291811660408301529182166060820152608081019290925260a082019290925260c081019290925260e082019290925261ffff90921661010083015291821661012082015291166101408201526101600190565b519060ff8216820361010057565b81156133b5570490565b634e487b7160e01b600052601260045260246000fd5b156133d257565b60405162461bcd60e51b815260206004820152601c60248201527f4552525f434f4c4c41544552414c5f4e4f545f535550504f52544544000000006044820152606490fd5b91929015613479575081511561342b575090565b3b156134345790565b60405162461bcd60e51b815260206004820152601d60248201527f416464726573733a2063616c6c20746f206e6f6e2d636f6e74726163740000006044820152606490fd5b82519091501561348c5750805190602001fd5b6040519062461bcd60e51b82528160208060048301528251908160248401526000935b8285106134d2575050604492506000838284010152601f80199101168101030190fd5b84810182015186860160440152938101938593506134af565b156134f257565b60405162461bcd60e51b815260206004820152600f60248201526e4f5645525f50455243454e5441474560881b6044820152606490fd5b1561353057565b60405162461bcd60e51b815260206004820152600e60248201526d4552525f50455243454e5441474560901b6044820152606490fd5b1561356d57565b60405162461bcd60e51b815260206004820152600e60248201526d22a9292fa7a7262cafa7aba722a960911b6044820152606490fd5b6135c490601961ffff8092166135bc60648211156134eb565b061615613529565b565b818102929181159184041417156135d957565b634e487b7160e01b600052601160045260246000fd5b91670de0b6b3a76400009161360761360c92856135c6565b6135c6565b0481018091116135d95790565b906001600160a01b0316801561363957613635906064926135c6565b0490565b5090565b906001600160a01b039081166064811061010057606319018181116135d95781166064039081116135d95761367191613619565b9056fea264697066735822122041daa7ba66c7dbb3f13f0d4762dfa096639dd69827d8bd47d109b2236dc401d464736f6c63430008110033",
  "immutableReferences": {},
  "source": "// SPDX-License-Identifier: GPL-3.0\r\npragma solidity >=0.7.0 <0.9.0;\r\n\r\nimport \"./Activity.sol\";\r\n\r\nimport \"./libraries/Errors.sol\";\r\nimport \"./libraries/PoolLibrary.sol\";\r\n\r\nimport \"./math/SimpleInterest.sol\";\r\n\r\nimport \"./interfaces/IPriceFeed.sol\";\r\nimport \"./interfaces/ILoanToValueRatio.sol\";\r\n\r\nimport \"./managers/LoanManager.sol\";\r\nimport \"./managers/OfferManager.sol\";\r\nimport \"./managers/PoolManager.sol\";\r\n\r\nimport \"@openzeppelin/contracts/utils/Context.sol\";\r\nimport \"@openzeppelin/contracts/utils/math/SafeMath.sol\";\r\nimport \"@openzeppelin/contracts/token/ERC20/utils/SafeERC20.sol\";\r\nimport \"@openzeppelin/contracts/token/ERC20/ERC20.sol\";\r\nimport \"@openzeppelin/contracts/security/ReentrancyGuard.sol\";\r\n\r\ncontract LendingPool is Context, ReentrancyGuard, SimpleInterest {\r\n    using SafeMath for uint256;\r\n    using SafeERC20 for ERC20;\r\n\r\n    address deployer;\r\n\r\n    Activity private _activity;\r\n    IPriceFeed private _priceFeed;\r\n    ILoanToValueRatio private _ltv;\r\n\r\n    // managers\r\n    PoolManager private _poolManager;\r\n    LoanManager private _loanManager;\r\n    OfferManager private _offerManager;\r\n\r\n    address public constant nativeAddress =\r\n        0xEeeeeEeeeEeEeeEeEeEeeEEEeeeeEeeeeeeeEEeE;\r\n\r\n    constructor(\r\n        address poolManager_,\r\n        address loanManager_,\r\n        address offerManager_\r\n    ) ReentrancyGuard() {\r\n        _poolManager = PoolManager(poolManager_);\r\n        _loanManager = LoanManager(loanManager_);\r\n        _offerManager = OfferManager(offerManager_);\r\n\r\n        deployer = _msgSender();\r\n    }\r\n\r\n    // @lenders\r\n    function createLendingOffer(\r\n        uint256 principalAmount_, // only for ERC20 assets\r\n        address principalToken,\r\n        address[] memory collateralTokens,\r\n        uint16 daysToMaturity,\r\n        uint256 interest,\r\n        uint16 daysToExpire\r\n    ) public payable {\r\n        uint256 principalAmount;\r\n\r\n        require(collateralTokens.length > 0, \"ERR_NO_COLLATERAL_TYPES\");\r\n\r\n        /* extract tokens from lender */\r\n        if (principalToken == nativeAddress) {\r\n            principalAmount = msg.value;\r\n        } else {\r\n            principalAmount = principalAmount_;\r\n            ERC20(principalToken).transferFrom(\r\n                _msgSender(),\r\n                address(this),\r\n                principalAmount\r\n            );\r\n        }\r\n\r\n        /* delegate principal to lender */\r\n        _poolManager.deposit(_msgSender(), principalToken, principalAmount);\r\n\r\n        /* create the lending offer */\r\n        _offerManager.createLendingOffer(\r\n            principalToken,\r\n            principalAmount,\r\n            interest,\r\n            daysToMaturity,\r\n            daysToExpire,\r\n            collateralTokens,\r\n            _msgSender()\r\n        );\r\n    }\r\n\r\n    // @lenders\r\n    function createLendingRequest(\r\n        uint160 offerId,\r\n        uint16 percentage,\r\n        uint16 daysToMaturity,\r\n        uint256 interest,\r\n        uint16 daysToExpire\r\n    ) public payable {\r\n        _checkPercentage(percentage);\r\n\r\n        OfferLibrary.LendingOffer memory offer = _offerManager.getLendingOffer(\r\n            offerId\r\n        );\r\n\r\n        uint256 principalAmount = percentageOf(\r\n            offer.initialPrincipal,\r\n            percentage\r\n        );\r\n\r\n        /* extract tokens from lender */\r\n        if (offer.principalToken == nativeAddress) {\r\n            require(msg.value >= principalAmount);\r\n        } else {\r\n            ERC20(offer.principalToken).transferFrom(\r\n                _msgSender(),\r\n                address(this),\r\n                principalAmount\r\n            );\r\n        }\r\n\r\n        /* delegate principal to lender */\r\n        _poolManager.deposit(\r\n            _msgSender(),\r\n            offer.principalToken,\r\n            principalAmount\r\n        );\r\n\r\n        /* create the lending request */\r\n        _offerManager.createLendingRequest(\r\n            percentage,\r\n            interest,\r\n            daysToMaturity,\r\n            daysToExpire,\r\n            _msgSender(),\r\n            offerId\r\n        );\r\n    }\r\n\r\n    // @lenders\r\n    function acceptBorrowingOffer(uint160 offerId, uint16 percentage)\r\n        public\r\n        payable\r\n    {\r\n        _checkPercentage(percentage);\r\n\r\n        OfferLibrary.BorrowingOffer memory offer = _offerManager\r\n            .getBorrowingOffer(offerId);\r\n\r\n        require(_msgSender() != offer.borrower, \"ERR_CANT_BORROW_OWN\");\r\n\r\n        uint256 collateralAmount = percentageOf(\r\n            offer.initialCollateral,\r\n            percentage\r\n        );\r\n\r\n        uint256 principalAmount = percentageOf(\r\n            offer.initialPrincipal,\r\n            percentage\r\n        );\r\n\r\n        /* extract principal from lender/caller and transfer to borrower */\r\n        if (offer.principalToken == nativeAddress) {\r\n            require(msg.value >= principalAmount);\r\n            payable(offer.borrower).transfer(principalAmount);\r\n        } else {\r\n            ERC20(offer.principalToken).transferFrom(\r\n                _msgSender(),\r\n                address(this),\r\n                principalAmount\r\n            );\r\n            ERC20(offer.principalToken).transfer(\r\n                offer.borrower,\r\n                principalAmount\r\n            );\r\n        }\r\n\r\n        /* delegate the loan collateral to lender */\r\n        _poolManager.transfer(\r\n            offer.borrower,\r\n            _msgSender(),\r\n            offer.collateralToken,\r\n            collateralAmount\r\n        );\r\n        /* undelegate the principal from lender */\r\n        _poolManager.burn(_msgSender(), offer.principalToken, principalAmount);\r\n\r\n        uint256 collateralPriceInUSD = _priceFeed.amountInUSD(\r\n            offer.collateralToken,\r\n            collateralAmount\r\n        );\r\n\r\n        /* register the loan from the loan manager */\r\n        _loanManager.createLoan(\r\n            offer.offerId,\r\n            OfferLibrary.Type.BORROWING_OFFER,\r\n            offer.principalToken,\r\n            offer.collateralToken,\r\n            principalAmount,\r\n            collateralAmount,\r\n            collateralPriceInUSD,\r\n            offer.interest,\r\n            offer.daysToMaturity,\r\n            offer.borrower,\r\n            _msgSender()\r\n        );\r\n\r\n        // will revert the transaction if fail\r\n        _offerManager._afterOfferBorrowingLoan(\r\n            offerId,\r\n            principalAmount,\r\n            collateralAmount\r\n        );\r\n\r\n        // update activity\r\n        uint256 borrowedAmountInUSD = _priceFeed.amountInUSD(\r\n            offer.principalToken,\r\n            principalAmount\r\n        );\r\n        _activity._borrowLoan(offer.borrower, borrowedAmountInUSD);\r\n    }\r\n\r\n    // @lenders\r\n    function acceptBorrowingRequest(uint256 requestId) public {\r\n        RequestLibrary.BorrowingRequest memory request = _offerManager\r\n            .getBorrowingRequest(requestId);\r\n\r\n        OfferLibrary.LendingOffer memory offer = _offerManager.getLendingOffer(\r\n            request.offerId\r\n        );\r\n\r\n        require(offer.lender == _msgSender(), \"ERR_ONLY_LENDER\");\r\n\r\n        uint256 principalAmount = percentageOf(\r\n            offer.initialPrincipal,\r\n            request.percentage\r\n        );\r\n\r\n        /* transfer principal to borrower */\r\n        if (offer.principalToken == nativeAddress) {\r\n            payable(request.borrower).transfer(principalAmount);\r\n        } else {\r\n            ERC20(offer.principalToken).transfer(\r\n                request.borrower,\r\n                principalAmount\r\n            );\r\n        }\r\n\r\n        /* delegate the loan collateral to lender */\r\n        _poolManager.transfer(\r\n            request.borrower,\r\n            _msgSender(),\r\n            request.collateralToken,\r\n            request.collateralAmount\r\n        );\r\n        /* undelegate the principal from lender */\r\n        _poolManager.burn(_msgSender(), offer.principalToken, principalAmount);\r\n\r\n        /* register the loan from the loan manager */\r\n        _loanManager.createLoan(\r\n            request.offerId,\r\n            OfferLibrary.Type.LENDING_OFFER,\r\n            offer.principalToken,\r\n            request.collateralToken,\r\n            principalAmount,\r\n            request.collateralAmount,\r\n            request.collateralPriceInUSD,\r\n            request.interest,\r\n            request.daysToMaturity,\r\n            request.borrower,\r\n            _msgSender()\r\n        );\r\n\r\n        // will revert the transaction if fail\r\n        _offerManager._afterOfferBorrowingLoan(\r\n            request.offerId,\r\n            principalAmount,\r\n            request.collateralAmount\r\n        );\r\n\r\n        // update activity\r\n        uint256 amountBorrowedInUSD = _priceFeed.amountInUSD(\r\n            offer.principalToken,\r\n            principalAmount\r\n        );\r\n        _activity._borrowLoan(request.borrower, amountBorrowedInUSD);\r\n    }\r\n\r\n    // @borrower\r\n    function createBorrowingOffer(\r\n        address principalToken,\r\n        address collateralToken,\r\n        uint256 collateralAmount_, // for ERC20 assets\r\n        uint256 interest,\r\n        uint16 daysToMaturity,\r\n        uint16 daysToExpire\r\n    ) public payable {\r\n        uint256 collateralAmount;\r\n\r\n        /* extract collateral from borrower */\r\n        if (collateralToken == nativeAddress) {\r\n            collateralAmount = msg.value;\r\n        } else {\r\n            collateralAmount = collateralAmount_;\r\n            ERC20(collateralToken).transferFrom(\r\n                _msgSender(),\r\n                address(this),\r\n                collateralAmount\r\n            );\r\n        }\r\n\r\n        uint160 ltv = _ltv.getLTV(_msgSender());\r\n\r\n        uint256 principalPrice = _priceFeed.exchangeRate(\r\n            collateralToken,\r\n            principalToken,\r\n            collateralAmount\r\n        );\r\n\r\n        uint256 principalAmount = percentageInverseOf(principalPrice, ltv) /\r\n            _ltv.getBase();\r\n\r\n        /* delegate the collateral to borrower */\r\n        _poolManager.deposit(_msgSender(), collateralToken, collateralAmount);\r\n\r\n        /* create the offer */\r\n        _offerManager.createBorrowingOffer(\r\n            principalToken,\r\n            collateralToken,\r\n            collateralAmount,\r\n            principalAmount,\r\n            interest,\r\n            daysToMaturity,\r\n            daysToExpire,\r\n            _msgSender()\r\n        );\r\n\r\n        // update activity\r\n        uint256 amountInUSD = _priceFeed.amountInUSD(\r\n            collateralToken,\r\n            collateralAmount\r\n        );\r\n        _activity._dropCollateral(_msgSender(), amountInUSD);\r\n    }\r\n\r\n    // @borrower\r\n    function createBorrowingRequest(\r\n        uint160 offerId,\r\n        uint16 percentage,\r\n        address collateralToken,\r\n        uint256 interest,\r\n        uint16 daysToMaturity,\r\n        uint16 daysToExpire\r\n    ) public payable {\r\n        _checkPercentage(percentage);\r\n\r\n        OfferLibrary.LendingOffer memory offer = _offerManager.getLendingOffer(\r\n            offerId\r\n        );\r\n\r\n        require(\r\n            _offerManager.isCollateralSupported(offerId, collateralToken),\r\n            \"ERR_COLLATERAL_NOT_SUPPORTED\"\r\n        );\r\n\r\n        uint256 principalAmount = percentageOf(\r\n            offer.initialPrincipal,\r\n            percentage\r\n        );\r\n\r\n        uint160 ltv = _ltv.getLTV(_msgSender());\r\n\r\n        uint256 collateralNormalAmount = _priceFeed.exchangeRate(\r\n            offer.principalToken,\r\n            collateralToken,\r\n            principalAmount\r\n        );\r\n\r\n        uint256 collateralAmount = percentageOf(collateralNormalAmount, ltv) /\r\n            _ltv.getBase();\r\n\r\n        /* extract collateral from borrower */\r\n        if (collateralToken == nativeAddress) {\r\n            require(collateralAmount >= msg.value);\r\n        } else {\r\n            ERC20(collateralToken).transferFrom(\r\n                _msgSender(),\r\n                address(this),\r\n                collateralAmount\r\n            );\r\n        }\r\n\r\n        /* delegate the collateral to borrower */\r\n        _poolManager.deposit(_msgSender(), collateralToken, collateralAmount);\r\n\r\n        uint256 collateralPriceInUSD = _priceFeed.amountInUSD(\r\n            collateralToken,\r\n            collateralAmount\r\n        );\r\n\r\n        /* create the request */\r\n        _offerManager.createBorrowingRequest(\r\n            percentage,\r\n            collateralToken,\r\n            collateralAmount,\r\n            collateralPriceInUSD,\r\n            interest,\r\n            daysToMaturity,\r\n            daysToExpire,\r\n            _msgSender(),\r\n            offerId\r\n        );\r\n\r\n        // update activity\r\n        _activity._dropCollateral(_msgSender(), collateralPriceInUSD);\r\n    }\r\n\r\n    // @borrower\r\n    function acceptLendingOffer(\r\n        uint160 offerId,\r\n        uint16 percentage,\r\n        address collateralToken\r\n    ) public payable {\r\n        _checkPercentage(percentage);\r\n\r\n        OfferLibrary.LendingOffer memory offer = _offerManager.getLendingOffer(\r\n            offerId\r\n        );\r\n\r\n        require(\r\n            _offerManager.isCollateralSupported(offerId, collateralToken),\r\n            \"ERR_COLLATERAL_NOT_SUPPORTED\"\r\n        );\r\n\r\n        uint256 principalAmount = percentageOf(\r\n            offer.initialPrincipal,\r\n            percentage\r\n        );\r\n\r\n        /* get the trust factor of the borrower */\r\n        uint160 ltv = _ltv.getLTV(_msgSender());\r\n\r\n        /* calculate the collateral amount */\r\n        uint256 collateralNormalAmount = _priceFeed.exchangeRate(\r\n            offer.principalToken,\r\n            collateralToken,\r\n            principalAmount\r\n        );\r\n\r\n        uint256 collateralAmount = percentageOf(collateralNormalAmount, ltv) /\r\n            _ltv.getBase();\r\n\r\n        /* extract collateral tokens from borrower */\r\n        if (collateralToken == nativeAddress) {\r\n            require(collateralAmount >= msg.value, \"ERR_COLLATERAL_AMOUNT\");\r\n        } else {\r\n            ERC20(collateralToken).transferFrom(\r\n                _msgSender(),\r\n                address(this),\r\n                collateralAmount\r\n            );\r\n        }\r\n\r\n        /* transfer the principal to borrower */\r\n        if (offer.principalToken == nativeAddress) {\r\n            payable(_msgSender()).transfer(principalAmount);\r\n        } else {\r\n            ERC20(offer.principalToken).safeTransfer(\r\n                _msgSender(),\r\n                principalAmount\r\n            );\r\n        }\r\n\r\n        /* delegate the loan collateral to lender */\r\n        _poolManager.transfer(\r\n            _msgSender(),\r\n            offer.lender,\r\n            collateralToken,\r\n            collateralAmount\r\n        );\r\n        /* undelegate the loan principal from lender */\r\n        _poolManager.burn(offer.lender, offer.principalToken, principalAmount);\r\n\r\n        uint256 collateralPriceInUSD = _priceFeed.amountInUSD(\r\n            collateralToken,\r\n            collateralAmount\r\n        );\r\n\r\n        /* register the loan */\r\n        _loanManager.createLoan(\r\n            offerId,\r\n            OfferLibrary.Type.LENDING_OFFER,\r\n            offer.principalToken,\r\n            collateralToken,\r\n            principalAmount,\r\n            collateralAmount,\r\n            collateralPriceInUSD,\r\n            offer.interest,\r\n            offer.daysToMaturity,\r\n            _msgSender(),\r\n            offer.lender\r\n        );\r\n\r\n        // will revert if transaction fail\r\n        _offerManager._afterOfferLendingLoan(offerId, principalAmount);\r\n\r\n        // update activity\r\n        uint256 amountBorrowedInUSD = _priceFeed.amountInUSD(\r\n            offer.principalToken,\r\n            principalAmount\r\n        );\r\n        _activity._borrowLoan(_msgSender(), amountBorrowedInUSD);\r\n    }\r\n\r\n    // @borrower\r\n    function acceptLendingRequest(uint256 requestId) public payable {\r\n        RequestLibrary.LendingRequest memory request = _offerManager\r\n            .getLendingRequest(requestId);\r\n\r\n        OfferLibrary.BorrowingOffer memory offer = _offerManager\r\n            .getBorrowingOffer(request.offerId);\r\n\r\n        require(offer.borrower == _msgSender(), \"ERR_ONLY_BORROWER\");\r\n\r\n        uint256 collateralAmount = percentageOf(\r\n            offer.initialCollateral,\r\n            request.percentage\r\n        );\r\n\r\n        uint256 principalAmount = percentageOf(\r\n            offer.initialPrincipal,\r\n            request.percentage\r\n        );\r\n\r\n        /* transfer principal to borrower */\r\n        if (offer.principalToken == nativeAddress) {\r\n            payable(_msgSender()).transfer(principalAmount);\r\n        } else {\r\n            ERC20(offer.principalToken).transfer(_msgSender(), principalAmount);\r\n        }\r\n\r\n        /* delegate the loan collateral to lender */\r\n        _poolManager.transfer(\r\n            _msgSender(),\r\n            request.lender,\r\n            offer.collateralToken,\r\n            collateralAmount\r\n        );\r\n        /* undelegate the loan principal from lender */\r\n        _poolManager.burn(\r\n            request.lender,\r\n            offer.principalToken,\r\n            principalAmount\r\n        );\r\n\r\n        uint256 collateralPriceInUSD = _priceFeed.amountInUSD(\r\n            offer.collateralToken,\r\n            collateralAmount\r\n        );\r\n\r\n        /* register the loan from the loan manager */\r\n        _loanManager.createLoan(\r\n            request.offerId,\r\n            OfferLibrary.Type.LENDING_OFFER,\r\n            offer.principalToken,\r\n            offer.collateralToken,\r\n            principalAmount,\r\n            collateralAmount,\r\n            collateralPriceInUSD,\r\n            request.interest,\r\n            request.daysToMaturity,\r\n            _msgSender(),\r\n            request.lender\r\n        );\r\n\r\n        // will revert the transaction if fail\r\n        _offerManager._afterOfferLendingLoan(offer.offerId, principalAmount);\r\n\r\n        // update activity\r\n        uint256 amountBorrowedInUSD = _priceFeed.amountInUSD(\r\n            offer.principalToken,\r\n            principalAmount\r\n        );\r\n        _activity._borrowLoan(_msgSender(), amountBorrowedInUSD);\r\n    }\r\n\r\n    // @borrower\r\n    function reActivateOffer() public payable {}\r\n\r\n    // @borrower\r\n    function reActivateRequest() public payable {}\r\n\r\n    // @borrower\r\n    function repayLoan(uint256 loanId, uint16 percentage) public payable {\r\n        LoanLibrary.Loan memory loan = _loanManager.getLoan(loanId);\r\n\r\n        // percentage must be 25, 50, 75 or 100\r\n        require(percentage <= 100, \"OVER_PERCENTAGE\");\r\n        require(percentage % 25 == 0, \"ERR_PERCENTAGE\");\r\n\r\n        // verify the borrower is the repayer\r\n        require(loan.borrower == _msgSender(), \"ERR_NOT_BORROWER\");\r\n\r\n        // calculate the duration of the loan\r\n        uint160 time = uint160(block.timestamp);\r\n        uint160 ellapsedSecs = (time - loan.startDate);\r\n\r\n        uint256 principalAmount = percentageOf(\r\n            loan.initialPrincipal,\r\n            percentage\r\n        );\r\n\r\n        uint256 collateralAmount = percentageOf(\r\n            loan.initialCollateral,\r\n            percentage\r\n        );\r\n\r\n        // calculate the pay back amount\r\n        uint256 repaymentPrincipalAmount = getFullInterestAmount(\r\n            principalAmount,\r\n            ellapsedSecs,\r\n            loan.interest\r\n        );\r\n\r\n        // will revert the transaction if fail\r\n        _loanManager.repayLoan(loanId, principalAmount, collateralAmount);\r\n\r\n        /* extract pay back amount */\r\n        if (loan.principalToken == nativeAddress) {\r\n            require(msg.value >= repaymentPrincipalAmount);\r\n        } else {\r\n            ERC20(loan.principalToken).transferFrom(\r\n                _msgSender(),\r\n                address(this),\r\n                repaymentPrincipalAmount\r\n            );\r\n        }\r\n\r\n        /* transfer collateral */\r\n        if (loan.collateralToken == nativeAddress) {\r\n            payable(_msgSender()).transfer(collateralAmount);\r\n        } else {\r\n            ERC20(loan.collateralToken).transfer(\r\n                _msgSender(),\r\n                collateralAmount\r\n            );\r\n        }\r\n\r\n        // update activity\r\n        uint256 interestPaidInUSD = _priceFeed.amountInUSD(\r\n            loan.principalToken,\r\n            (repaymentPrincipalAmount - principalAmount)\r\n        );\r\n\r\n        uint256 amountPaidInUSD = _priceFeed.amountInUSD(\r\n            loan.principalToken,\r\n            principalAmount\r\n        );\r\n\r\n        _activity._repayLoan(_msgSender(), amountPaidInUSD, interestPaidInUSD);\r\n    }\r\n\r\n    function repayLiquidatedLoan(uint256 loanId) public payable {}\r\n\r\n    function setLTV(address ltv_) public onlyOwner {\r\n        _ltv = ILoanToValueRatio(ltv_);\r\n    }\r\n\r\n    function setActivity(address activity_) public onlyOwner {\r\n        _activity = Activity(activity_);\r\n    }\r\n\r\n    function setPriceFeed(address priceFeed_) public onlyOwner {\r\n        _priceFeed = IPriceFeed(priceFeed_);\r\n    }\r\n\r\n    function changeOwner(address newOwner) public onlyOwner {\r\n        deployer = newOwner;\r\n    }\r\n\r\n    function _checkPercentage(uint16 percentage) private pure {\r\n        // percentage must be 25, 50, 75 or 100\r\n        require(percentage <= 100, \"OVER_PERCENTAGE\");\r\n        require(percentage % 25 == 0, \"ERR_PERCENTAGE\");\r\n    }\r\n\r\n    modifier onlyOwner() {\r\n        require(_msgSender() == deployer, \"ERR_ONLY_OWNER\");\r\n        _;\r\n    }\r\n}\r\n",
  "sourcePath": "C:\\Users\\DELL\\Documents\\darsh\\smart-contracts\\contracts\\LendingPool.sol",
  "compiler": {
    "name": "solc",
    "version": "0.8.17+commit.8df45f5f.Emscripten.clang"
  },
  "schemaVersion": "3.4.11",
  "updatedAt": "2023-02-12T20:37:48.485Z",
  "devdoc": {
    "kind": "dev",
    "methods": {},
    "version": 1
  },
  "userdoc": {
    "kind": "user",
    "methods": {},
    "version": 1
  }
}