{
  "contractName": "LendingPool",
  "abi": [
    {
      "inputs": [
        {
          "internalType": "address",
          "name": "poolManager_",
          "type": "address"
        },
        {
          "internalType": "address",
          "name": "loanManager_",
          "type": "address"
        },
        {
          "internalType": "address",
          "name": "offerManager_",
          "type": "address"
        },
        {
          "internalType": "address",
          "name": "feeManager_",
          "type": "address"
        }
      ],
      "stateMutability": "nonpayable",
      "type": "constructor"
    },
    {
      "inputs": [],
      "name": "INTEREST_RATE_DENOMINATOR",
      "outputs": [
        {
          "internalType": "uint256",
          "name": "",
          "type": "uint256"
        }
      ],
      "stateMutability": "view",
      "type": "function"
    },
    {
      "inputs": [],
      "name": "PERCENT",
      "outputs": [
        {
          "internalType": "uint16",
          "name": "",
          "type": "uint16"
        }
      ],
      "stateMutability": "view",
      "type": "function"
    },
    {
      "inputs": [
        {
          "internalType": "uint256",
          "name": "principal",
          "type": "uint256"
        },
        {
          "internalType": "uint256",
          "name": "durationSecs",
          "type": "uint256"
        },
        {
          "internalType": "uint256",
          "name": "interest",
          "type": "uint256"
        }
      ],
      "name": "getFullInterestAmount",
      "outputs": [
        {
          "internalType": "uint256",
          "name": "",
          "type": "uint256"
        }
      ],
      "stateMutability": "pure",
      "type": "function"
    },
    {
      "inputs": [],
      "name": "nativeAddress",
      "outputs": [
        {
          "internalType": "address",
          "name": "",
          "type": "address"
        }
      ],
      "stateMutability": "view",
      "type": "function"
    },
    {
      "inputs": [
        {
          "internalType": "uint256",
          "name": "total",
          "type": "uint256"
        },
        {
          "internalType": "uint160",
          "name": "percent",
          "type": "uint160"
        }
      ],
      "name": "percentageInverseOf",
      "outputs": [
        {
          "internalType": "uint256",
          "name": "",
          "type": "uint256"
        }
      ],
      "stateMutability": "pure",
      "type": "function"
    },
    {
      "inputs": [
        {
          "internalType": "uint256",
          "name": "total",
          "type": "uint256"
        },
        {
          "internalType": "uint160",
          "name": "percent",
          "type": "uint160"
        }
      ],
      "name": "percentageOf",
      "outputs": [
        {
          "internalType": "uint256",
          "name": "",
          "type": "uint256"
        }
      ],
      "stateMutability": "pure",
      "type": "function"
    },
    {
      "inputs": [
        {
          "internalType": "uint256",
          "name": "principalAmount_",
          "type": "uint256"
        },
        {
          "internalType": "address",
          "name": "principalToken",
          "type": "address"
        },
        {
          "internalType": "address[]",
          "name": "collateralTokens",
          "type": "address[]"
        },
        {
          "internalType": "uint16",
          "name": "daysToMaturity",
          "type": "uint16"
        },
        {
          "internalType": "uint256",
          "name": "interest",
          "type": "uint256"
        },
        {
          "internalType": "uint16",
          "name": "daysToExpire",
          "type": "uint16"
        }
      ],
      "name": "createLendingOffer",
      "outputs": [],
      "stateMutability": "payable",
      "type": "function"
    },
    {
      "inputs": [
        {
          "internalType": "uint160",
          "name": "offerId",
          "type": "uint160"
        },
        {
          "internalType": "uint16",
          "name": "percentage",
          "type": "uint16"
        },
        {
          "internalType": "uint16",
          "name": "daysToMaturity",
          "type": "uint16"
        },
        {
          "internalType": "uint256",
          "name": "interest",
          "type": "uint256"
        },
        {
          "internalType": "uint16",
          "name": "hoursToExpire",
          "type": "uint16"
        }
      ],
      "name": "createLendingRequest",
      "outputs": [],
      "stateMutability": "payable",
      "type": "function"
    },
    {
      "inputs": [
        {
          "internalType": "uint160",
          "name": "offerId",
          "type": "uint160"
        },
        {
          "internalType": "uint16",
          "name": "percentage",
          "type": "uint16"
        }
      ],
      "name": "acceptBorrowingOffer",
      "outputs": [],
      "stateMutability": "payable",
      "type": "function"
    },
    {
      "inputs": [
        {
          "internalType": "uint256",
          "name": "requestId",
          "type": "uint256"
        }
      ],
      "name": "acceptBorrowingRequest",
      "outputs": [],
      "stateMutability": "nonpayable",
      "type": "function"
    },
    {
      "inputs": [
        {
          "internalType": "address",
          "name": "principalToken",
          "type": "address"
        },
        {
          "internalType": "address",
          "name": "collateralToken",
          "type": "address"
        },
        {
          "internalType": "uint256",
          "name": "collateralAmount_",
          "type": "uint256"
        },
        {
          "internalType": "uint256",
          "name": "interest",
          "type": "uint256"
        },
        {
          "internalType": "uint16",
          "name": "daysToMaturity",
          "type": "uint16"
        },
        {
          "internalType": "uint16",
          "name": "daysToExpire",
          "type": "uint16"
        }
      ],
      "name": "createBorrowingOffer",
      "outputs": [],
      "stateMutability": "payable",
      "type": "function"
    },
    {
      "inputs": [
        {
          "internalType": "uint160",
          "name": "offerId",
          "type": "uint160"
        },
        {
          "internalType": "uint16",
          "name": "percentage",
          "type": "uint16"
        },
        {
          "internalType": "address",
          "name": "collateralToken",
          "type": "address"
        },
        {
          "internalType": "uint256",
          "name": "interest",
          "type": "uint256"
        },
        {
          "internalType": "uint16",
          "name": "daysToMaturity",
          "type": "uint16"
        },
        {
          "internalType": "uint16",
          "name": "hoursToExpire",
          "type": "uint16"
        }
      ],
      "name": "createBorrowingRequest",
      "outputs": [],
      "stateMutability": "payable",
      "type": "function"
    },
    {
      "inputs": [
        {
          "internalType": "uint160",
          "name": "offerId",
          "type": "uint160"
        },
        {
          "internalType": "uint16",
          "name": "percentage",
          "type": "uint16"
        },
        {
          "internalType": "address",
          "name": "collateralToken",
          "type": "address"
        }
      ],
      "name": "acceptLendingOffer",
      "outputs": [],
      "stateMutability": "payable",
      "type": "function"
    },
    {
      "inputs": [
        {
          "internalType": "uint256",
          "name": "requestId",
          "type": "uint256"
        }
      ],
      "name": "acceptLendingRequest",
      "outputs": [],
      "stateMutability": "payable",
      "type": "function"
    },
    {
      "inputs": [],
      "name": "reActivateOffer",
      "outputs": [],
      "stateMutability": "payable",
      "type": "function"
    },
    {
      "inputs": [],
      "name": "reActivateRequest",
      "outputs": [],
      "stateMutability": "payable",
      "type": "function"
    },
    {
      "inputs": [
        {
          "internalType": "uint160",
          "name": "loanId",
          "type": "uint160"
        },
        {
          "internalType": "uint16",
          "name": "percentage",
          "type": "uint16"
        }
      ],
      "name": "repayLoan",
      "outputs": [],
      "stateMutability": "payable",
      "type": "function"
    },
    {
      "inputs": [
        {
          "internalType": "uint160",
          "name": "loanId",
          "type": "uint160"
        }
      ],
      "name": "claimCollateral",
      "outputs": [],
      "stateMutability": "nonpayable",
      "type": "function"
    },
    {
      "inputs": [
        {
          "internalType": "uint160",
          "name": "loanId",
          "type": "uint160"
        }
      ],
      "name": "claimPrincipal",
      "outputs": [],
      "stateMutability": "nonpayable",
      "type": "function"
    },
    {
      "inputs": [
        {
          "internalType": "uint160",
          "name": "loanId",
          "type": "uint160"
        }
      ],
      "name": "repayLiquidatedLoan",
      "outputs": [],
      "stateMutability": "payable",
      "type": "function"
    },
    {
      "inputs": [
        {
          "internalType": "address",
          "name": "ltv_",
          "type": "address"
        }
      ],
      "name": "setLTV",
      "outputs": [],
      "stateMutability": "nonpayable",
      "type": "function"
    },
    {
      "inputs": [
        {
          "internalType": "address",
          "name": "activity_",
          "type": "address"
        }
      ],
      "name": "setActivity",
      "outputs": [],
      "stateMutability": "nonpayable",
      "type": "function"
    },
    {
      "inputs": [
        {
          "internalType": "address",
          "name": "priceFeed_",
          "type": "address"
        }
      ],
      "name": "setPriceFeed",
      "outputs": [],
      "stateMutability": "nonpayable",
      "type": "function"
    },
    {
      "inputs": [
        {
          "internalType": "address",
          "name": "newOwner",
          "type": "address"
        }
      ],
      "name": "changeOwner",
      "outputs": [],
      "stateMutability": "nonpayable",
      "type": "function"
    },
    {
      "inputs": [
        {
          "internalType": "address",
          "name": "token",
          "type": "address"
        },
        {
          "internalType": "address payable",
          "name": "receiver",
          "type": "address"
        },
        {
          "internalType": "uint256",
          "name": "amount",
          "type": "uint256"
        }
      ],
      "name": "claim",
      "outputs": [],
      "stateMutability": "nonpayable",
      "type": "function"
    }
  ],
  "bytecode": "0x608034620000d557601f62003b5338819003918201601f19168301916001600160401b03831184841017620000da57808492608094604052833981010312620000d5576200004d81620000f0565b906200005c60208201620000f0565b6200007860606200007060408501620000f0565b9301620000f0565b90600160005560018060a01b03928380928160018060a01b0319971687600554161760055516856006541617600655168360075416176007551681600854161760085533906001541617600155604051613a4d9081620001068239f35b600080fd5b634e487b7160e01b600052604160045260246000fd5b51906001600160a01b0382168203620000d55756fe6080604052600436101561001257600080fd5b6000803560e01c806310e14e1914612faf57806315ae61b514612e4d5780632e47633714612e2457806331f00e8d1461290c57806337787d51146101625780634ab2618c146123a55780634add7c8214611ecf578063541a453014611dab5780635c7f31aa146119575780635cb9339814611199578063724e78da1461114e578063950d0d3f14610d24578063996cba6814610c045780639ca6005f1461073e578063a6f9dae1146106f5578063a83938b3146106e0578063afaa0691146104e3578063b85a8b20146104c7578063c1bc89ef14610226578063cc3266e814610203578063e0b26959146101dc578063e0f7dffd146101b7578063e3f43fdb1461016c578063eb1f613d146101625763f4e02f4614610131575b600080fd5b3461015f57604036600319011261015f57602061015761014f613026565b6004356139c0565b604051908152f35b80fd5b505061012c61306f565b503461015f57602036600319011261015f57610186612ffa565b6001546001600160a01b0391906101a09083163314613899565b166001600160601b0360a01b600254161760025580f35b503461015f57606036600319011261015f57602061015760443560243560043561396f565b503461015f57604036600319011261015f5760206101576101fb613026565b60043561399c565b503461015f578060031936011261015f576020604051670de0b6b3a76400008152f35b5060c036600319011261015f5760043561023e613026565b906044359067ffffffffffffffff82116104c357366023830112156104c357816004013561026b816130ca565b9161027960405193846130a8565b8183526020938484016024819460051b830101913683116104bf57602401905b8282106104a0575050506064359261ffff9081851680950361012c576102bd61305e565b9181511561045b576001600160a01b03888116949093908a6000805160206139f8833981519152870361044857905034995b8560055416803b1561044457604051638340f54960e01b81523360048201526001600160a01b03929092166024830152604482018c905282908290606490829084905af1801561043957610421575b5093919288979996938360079793975416966040519b8c9963031137cd60e61b8b5260e48b019560048c015260248b015260843560448b015260648a015216608488015260e060a4880152518091526101048601929184905b8282106104005750505050908380923360c483015203925af180156103f5576103be578280f35b81813d83116103ee575b6103d281836130a8565b810103126103ea576103e3906130e2565b5038808280f35b5080fd5b503d6103c8565b6040513d85823e3d90fd5b83518116855289988b98508c96509485019490930192600190910190610397565b61042a9061307e565b61043557893861033e565b8980fd5b6040513d84823e3d90fd5b8280fd5b90996104568b30338a6130f6565b6102ef565b60405162461bcd60e51b815260048101889052601760248201527f4552525f4e4f5f434f4c4c41544552414c5f54595045530000000000000000006044820152606490fd5b81356001600160a01b038116810361012c578152908601908601610299565b8880fd5b8380fd5b503461015f578060031936011261015f57602060405160648152f35b5060a036600319011261015f576104f8612ffa565b61050061303c565b9060443561ffff9283821680920361012c578461051b61304d565b94610525836138d6565b600754604051631eb5ab6d60e01b81526001600160a01b0396871660048201819052969184908290602490829086165afa9081156106995784916106be575b5060206105798460608401519716809761399c565b91019082825116816000805160206139f883398151915282146000146106ac57905034106106a8575b82806005541692511690823b156106a457604051638340f54960e01b81523360048201526001600160a01b0392909216602483015260448201529084908290606490829084905af180156106995761067e575b509060209560c49493926007541691604051988997889663ab488b0b60e01b885260048801526064356024880152604487015216606485015233608485015260a48401525af1801561043957610649575080f35b6020813d8211610676575b81610661602093836130a8565b810103126103ea57610672906130e2565b5080f35b3d9150610654565b9261068c819392959461307e565b6103ea57909192386105f5565b6040513d86823e3d90fd5b8580fd5b8480fd5b6106b991309033906130f6565b6105a2565b6106da91503d8086833e6106d281836130a8565b810190613381565b38610564565b50602036600319011261015f57610672612ffa565b503461015f57602036600319011261015f5761070f612ffa565b600154906001600160a01b03906107293383851614613899565b16906001600160601b0360a01b161760015580f35b5060c036600319011261015f5780610754612ffa565b61075c613026565b906044359061076961304d565b9061077261305e565b906001600160a01b0385166000805160206139f883398151915203610be6573493506107de925b600354604051631c07d98160e21b81526001600160a01b03888116600483015284811660248301526044820188905290956020928792169082908b9082906064820190565b03925af1938415610bdb578794610ba4575b5060035460405163912d228f60e01b8082526001600160a01b0385811660048401526024830188905290969192602091849160449183918e91165af1918215610ad1578992610b6c575b50600480546040516322a0fe3360e21b815233928101929092526024820193909352916001600160a01b03169060208380604481015b0381855afa928315610b61578a93610b1c575b506108926004936020926139c0565b9160405193848092636882509b60e11b82525afa918215610ad1578992610adc575b5060ff6108c29216906136b4565b9060018060a01b036005541690813b156104bf57604051638340f54960e01b81523360048201526001600160a01b0389166024820152604481018890529189908390606490829084905af1918215610ad1578992610ab5575b5060075460405163486c386960e11b81526001600160a01b0395861660048201528986166024820152604481018990526064808201959095529335608485015261ffff91821660a4850152941660c48301523360e483015290926020928492610104928492165af18015610aaa57610a66575b506003546040519182526001600160a01b039384166004830152602482019290925291602091839116818581604481015b03925af1908115610439578291610a31575b506002546001600160a01b0316803b15610a2d5760405163094f618d60e11b8152336004820152602481019290925282908290818381604481015b03925af1801561043957610a1d5750f35b610a269061307e565b61015f5780f35b5050fd5b9150506020813d602011610a5e575b81610a4d602093836130a8565b8101031261012c57819051386109d1565b3d9150610a40565b91906020833d602011610aa2575b81610a81602093836130a8565b810103126106a8576109bf93610a986020946130e2565b509350909161098e565b3d9150610a74565b6040513d87823e3d90fd5b610ac19092919261307e565b610acd5787903861091b565b8780fd5b6040513d8b823e3d90fd5b91506020823d602011610b14575b81610af7602093836130a8565b810103126104bf5760ff610b0d6108c2936136a6565b92506108b4565b3d9150610aea565b92506020833d602011610b59575b81610b37602093836130a8565b8101031261043557610892602091610b506004956130e2565b94509150610883565b3d9150610b2a565b6040513d8c823e3d90fd5b915097506020813d602011610b9c575b81610b89602093836130a8565b8101031261012c5751889761087061083a565b3d9150610b7c565b965092506020863d602011610bd3575b81610bc1602093836130a8565b8101031261012c5786955192386107f0565b3d9150610bb4565b6040513d89823e3d90fd5b6107de92610bff8530336001600160a01b038a166130f6565b610799565b503461015f57606036600319011261015f57610c1e612ffa565b6001600160a01b03602435818116908190036104c35760443591610c4781600154163314613899565b848160085416803b156103ea576040516331b5f13d60e11b81526001600160a01b0387166004820152602481018690529082908290604490829084905af1801561043957610d10575b50508215610cd9578493166000805160206139f88339815191528103610ccc5750828092819282f115610cc05780f35b604051903d90823e3d90fd5b610cd69350613577565b80f35b60405162461bcd60e51b815260206004820152600f60248201526e11549497d6915493d7d05353d55395608a1b6044820152606490fd5b610d199061307e565b6106a8578438610c90565b50604036600319011261015f57610d39612ffa565b610d4161303c565b90610d4b826138d6565b60065460405163058711b560e01b81526001600160a01b039283166004820181905291610240919082908290602490829088165afa91821561101b578692611121575b5050610da28361020083015116331461384d565b8261014082015116834216039280841161110b5785948593610def610ddf610dd461ffff60808801519516809561399c565b9360c087015161399c565b968461012087015191168461396f565b93610dfa838661388c565b9184600854166040519063a001ecdd60e01b82528160048160209b8c945af1908115610b61578a916110cf575b50610e35610e3c918561399c565b809461388c565b90604086600854169301938685511690843b156110cb5760405163ef6506db60e01b81526001600160a01b039290921660048301526024820152928a908490604490829084905af18015610b615788938b916110b2575b509060849187600654166040519b8c9586946346212c2960e01b86526004860152602485015288604485015260648401525af1958615610bdb578796611083575b5086838251166000805160206139f8833981519152811460001461106d5750508334106110695786935b85610f4a8560035416610f1586888751169561388c565b60405163912d228f60e01b8082526001600160a01b039096166004820152602481019190915297889283919082906044820190565b03925af194851561105e578895611026575b50600354915160405191825284166001600160a01b0316600482015260248101929092528490829060449082908a9087165af193841561101b578694610fe8575b505060025416803b156106a85784928360849260405196879586946311dd211f60e31b865233600487015260248601526044850152151560648401525af1801561043957610a1d5750f35b819650809294503d8311611014575b61100181836130a8565b8101031261012c57849351913880610f9d565b503d610ff7565b6040513d88823e3d90fd5b9297509350908481813d8111611057575b61104181836130a8565b8101031261012c57518796909390919085610f5c565b503d611037565b6040513d8a823e3d90fd5b8680fd5b8561107e91969296309033906130f6565b610efe565b6110a4919650853d87116110ab575b61109c81836130a8565b810190613149565b9438610ed4565b503d611092565b6110be9192945061307e565b6104bf5786918938610e93565b8b80fd5b90508781813d8311611104575b6110e681836130a8565b8101031261043557610e356110fd610e3c926130e2565b9150610e27565b503d6110dc565b634e487b7160e01b600052601160045260246000fd5b6111409250803d10611147575b61113881836130a8565b810190613720565b3880610d8e565b503d61112e565b503461015f57602036600319011261015f57611168612ffa565b6001546001600160a01b0391906111829083163314613899565b166001600160601b0360a01b600354161760035580f35b50606036600319011261015f576111ae612ffa565b906111b761303c565b906111c0613010565b916111ca816138d6565b600754604051631eb5ab6d60e01b81526001600160a01b038681166004830152909291168383602481845afa92831561069957849361193b575b50604051634cf732f160e11b81526001600160a01b0387811660048301528616602482015290602090829060449082905afa90811561069957611263929161125391869161191c575b506136d4565b61ffff606084015191169061399c565b60035460208381015160405163912d228f60e01b81526001600160a01b0391821660048201526024810185905293949392839160449183918991165af19081156106995784916118e9575b50600480546040516322a0fe3360e21b81523392810192909252602482019290925290602090829060449082906001600160a01b03165afa80156106995784906118ae575b600354602084810151604051631c07d98160e21b81526001600160a01b03918216600482015289821660248201526044810188905294509091849116818881606481015b03925af18015610aaa57859061187a575b611352925061399c565b60048054604051636882509b60e11b81529160209183919082906001600160a01b03165afa908115610aaa578591611838575b509060ff6113949216906136b4565b946000805160206139f88339815191526001600160a01b038616878282036118265750503487106117e9575b60208301516001600160a01b031690849082036117d957505083808480156117cf575b8280929181923390f1156103f5575b6005546101008301516001600160a01b039182169116813b156106a457604051638340f54960e01b81526001600160a01b0391821660048201529087166024820152604481018890529085908290606490829084905af18015610aaa579085916117bb575b505060055461010083015160208401516001600160a01b03928316929081169116823b1561106957604051633dae446f60e21b81526001600160a01b03918216600482015291166024820152604481018590529085908290606490829084905af18015610aaa576117a7575b5060035460405163912d228f60e01b81526001600160a01b0387811660048301526024820189905296979596909591602091879160449183918b91165af194851561101b578695611773575b506006546101a08401516001600160a01b0390911691600282101561175f579785928789602094611588829d898b60018060a01b038a820151169660808201519061ffff60a0840151169261010060018060a01b0391015116946040519d8e9c8d9b8c9a636667fe2160e11b8c52339860048d016134f3565b03925af1801561101b57611726575b506007546001600160a01b0316803b156106a45760405163d0dd830360e01b81526001600160a01b0390921660048301526024820184905285908290818381604481015b03925af1908115610aaa578591611712575b505060035460209182015160405163912d228f60e01b81526001600160a01b0391821660048201526024810194909452839160449183918891165af19081156103f55783916116dd575b506002546001600160a01b0316803b156116d8576040516311eba9df60e21b8152336004820152602481019290925283908290604490829084905af19081156103f55783916116c1575b50506002546001600160a01b0316803b15610a2d5760405163094f618d60e11b815233600482015260248101929092528290829081838160448101610a0c565b6116ca9061307e565b6116d5578138611681565b50fd5b505050fd5b9250506020823d60201161170a575b816116f9602093836130a8565b8101031261012c5782915138611637565b3d91506116ec565b61171b9061307e565b6116d85783386115ed565b6020813d602011611757575b8161173f602093836130a8565b810103126106a457611750906130e2565b5038611597565b3d9150611732565b634e487b7160e01b88526021600452602488fd5b9094506020813d60201161179f575b8161178f602093836130a8565b8101031261012c5751933861150f565b3d9150611782565b6117b1859161307e565b6104c357386114c3565b6117c49061307e565b6104c3578338611457565b6108fc91506113e3565b6117e4913390613577565b6113f2565b60405162461bcd60e51b815260206004820152601560248201527411549497d0d3d31310551154905317d05353d55395605a1b6044820152606490fd5b61183391309033906130f6565b6113c0565b90506020813d602011611872575b81611853602093836130a8565b810103126106a8579060ff61186a611394936136a6565b919250611385565b3d9150611846565b506020823d6020116118a6575b81611894602093836130a8565b8101031261012c576113529151611348565b3d9150611887565b506020813d6020116118e1575b816118c8602093836130a8565b810103126104c3576118dc611337916130e2565b6112f3565b3d91506118bb565b90506020813d602011611914575b81611904602093836130a8565b8101031261012c575160206112ae565b3d91506118f7565b611935915060203d6020116110ab5761109c81836130a8565b3861124d565b6119509193503d8086833e6106d281836130a8565b9138611204565b50602036600319011261015f5760075460405163c58343ef60e01b8152600480359082015291906001600160a01b03166101a083602481845afa928315610439578293611d78575b508160018060a01b0360e085015116602460405180948193631eb5ab6d60e01b835260048301525afa908115610439578291611d5e575b506101008101516001600160a01b03163303611d255761018081015190611a1c611a0a602086019361ffff8551169061399c565b9261ffff60608401519151169061399c565b60208201519092906001600160a01b0316836000805160206139f88339815191528203611d155750508380848015611d0b575b8280929181923390f1156103f5575b60055460c08601516101408401516001600160a01b03928316929081169116823b1561106957604051638340f54960e01b81526001600160a01b03918216600482015291166024820152604481018390529085908290606490829084905af18015610aaa57908591611cf7575b505060055460c086015160208401516001600160a01b03928316929081169116823b1561106957604051633dae446f60e21b81526001600160a01b03918216600482015291166024820152604481018590529085908290606490829084905af18015610aaa57908591611ce3575b505060035461014083015160405163912d228f60e01b81526001600160a01b0391821660048201526024810184905294939291602091869160449183918a91165af1938415610aaa578594611caf575b5060065460e08701516101a08401516001600160a01b03928316939290911691600282101561175f579260209288809a93611c19899760018060a01b03888b0151169460018060a01b036101408c015116978d60808201519061ffff6040840151169260c060018060a01b0391015116946040519d8e9c8d9b8c9a636667fe2160e11b8c52339860048d016134f3565b03925af18015610aaa57611c76575b5060075481516001600160a01b039081169116803b156106a45760405163d0dd830360e01b81526001600160a01b0390921660048301526024820184905285908290818381604481016115db565b6020813d602011611ca7575b81611c8f602093836130a8565b810103126106a857611ca0906130e2565b5038611c28565b3d9150611c82565b9093506020813d602011611cdb575b81611ccb602093836130a8565b8101031261012c57519238611b89565b3d9150611cbe565b611cec9061307e565b6104c3578338611b39565b611d009061307e565b6104c3578338611acb565b6108fc9150611a4f565b611d20913390613577565b611a5e565b60405162461bcd60e51b815260206004820152601160248201527022a9292fa7a7262cafa127a92927aba2a960791b6044820152606490fd5b611d7291503d8084833e6106d281836130a8565b386119d6565b611d9d9193506101a03d6101a011611da4575b611d9581836130a8565b8101906135b0565b913861199f565b503d611d8b565b503461015f57602036600319011261015f5780611dc6612ffa565b60065460405163058711b560e01b81526001600160a01b03928316600482018190529291610240919082908290602490829087165afa918215610aaa578592611eb2575b5050611e1e8261020083015116331461384d565b83826060830151166000805160206139f88339815191528114600014611e9a575080806101e081940151818115611e91575b3390f115610439575b6006541690813b15610a2d578291602483926040519485938492630541a45360e41b845260048401525af1801561043957610a1d5750f35b506108fc611e50565b90506101e0611ead920151903390613577565b611e59565b611ec89250803d106111475761113881836130a8565b3880611e0a565b503461015f57602036600319011261015f5760075460405163c58343ef60e01b815260048035908201526001600160a01b0390911691906101a081602481865afa908115610439578291612384575b508160018060a01b0360e083015116602460405180968193631eb5ab6d60e01b835260048301525afa928315610439578293612368575b50610100838101519093906001600160a01b0316330361233157611f86606082015161ffff6020850151169061399c565b60208201519091906001600160a01b0316826000805160206139f883398151915282036123125760c0850151869250829182918291906001600160a01b0316828215612309575bf1156103f5575b60055460c084018051878601516101208701519296936001600160a01b03908116929181169116823b156104bf57604051633c6340f360e21b81526001600160a01b03918216600482015233602482015291166044820152606481019290925286908290608490829084905af1801561101b579086916122f5575b505060055460208301516001600160a01b039182169116813b1561106957604051633dae446f60e21b81523360048201526001600160a01b03919091166024820152604481018590529086908290606490829084905af1801561101b579086916122e1575b505060065460e08201516101a08401516001600160a01b03918216989190921691600281101561175f5797859260209289809b61214b60018060a01b03878b0151169360018060a01b03908a015116956101208a01518d8b61014081015161ffff60406080840151930151169260018060a01b03905116936040519d8e9c8d9b8c9a636667fe2160e11b8c52339960048d016134f3565b03925af1801561101b576122a8575b5060075460e0820151610120909201516001600160a01b039182169290911690823b1561106957604051634e1df74360e01b81526001600160a01b039290921660048301526024820185905260448201529085908290606490829084905af1908115610aaa578591612294575b505060035460209182015160405163912d228f60e01b81526001600160a01b0391821660048201526024810194909452839160449183918891165af19081156103f557839161225f575b5060025491516001600160a01b03928316921690823b156116d8576040516311eba9df60e21b81526001600160a01b0390921660048301526024820152908290829081838160448101610a0c565b9250506020823d60201161228c575b8161227b602093836130a8565b8101031261012c5782915138612211565b3d915061226e565b61229d9061307e565b6116d85783386121c7565b6020813d6020116122d9575b816122c1602093836130a8565b810103126106a4576122d2906130e2565b503861215a565b3d91506122b4565b6122ea9061307e565b6106a85784386120b4565b6122fe9061307e565b6106a857843861204f565b506108fc611fcd565b60c085015161232c926001600160a01b0390911690613577565b611fd4565b60405162461bcd60e51b815260206004820152600f60248201526e22a9292fa7a7262cafa622a72222a960891b6044820152606490fd5b61237d9193503d8084833e6106d281836130a8565b9138611f55565b61239f91506101a03d6101a011611da457611d9581836130a8565b38611f1e565b5060c036600319011261015f576123ba612ffa565b816123c361303c565b6123cb613010565b906123d461304d565b6123dc61305e565b946123e6836138d6565b600754604051631eb5ab6d60e01b81526001600160a01b038381166004830181905291989193919216908789602481855afa98891561105e5788996128e5575b50604051634cf732f160e11b81526001600160a01b03918216600482015290871660248201529060209082908180604481015b03915afa8015610bdb5761247391889161191c57506136d4565b612486606088015161ffff86169061399c565b6003546020988901805160405163912d228f60e01b81526001600160a01b03918216600482015260248101859052919a9192839160449183918d91165af190811561105e5788916128ad575b50600480546040516322a0fe3360e21b815233928101929092526024820192909252979890602090899060449082906001600160a01b03165afa978815610ad1578998612869575b506003549051604051631c07d98160e21b81526001600160a01b03918216600482015281891660248201526044810193909352602091839116818b81606481015b03925af190811561105e578891612830575b5061257a8760049261399c565b8154604051636882509b60e11b81529260209184919082906001600160a01b03165afa918215610ad15789926127f0575b5060ff6125b99216906136b4565b926001600160a01b0386166000805160206139f8833981519152036127d657348410610acd575b6005546001600160a01b0316803b156104bf57604051638340f54960e01b81523360048201526001600160a01b0388166024820152604481018690529089908290606490829084905af1908115610ad15789916127c2575b505060035460405163912d228f60e01b81526001600160a01b038881166004830152602482018790529098916020918a9160449183918e91165af1978815610ad157899861277b575b5060075460405163670723fb60e01b815261ffff97881660048201526001600160a01b039889166024820152604481019690965260648087018a90529188166084870152903560a486015290851660c4850152931660e4830152336101048301526101248201529160209183916101449183918891165af180156103f55761274257506002546001600160a01b0316803b15610a2d5760405163094f618d60e11b815233600482015260248101929092528290829081838160448101610a0c565b6020813d602011612773575b8161275b602093836130a8565b81010312610a2d5761276c906130e2565b50386109d1565b3d915061274e565b919498509650602094919294813d6020116127ba575b8161279e602093836130a8565b8101031261012c57518897909691949093909291610144612681565b3d9150612791565b6127cb9061307e565b610acd578738612638565b6127eb8430336001600160a01b038a166130f6565b6125e0565b91506020823d602011612828575b8161280b602093836130a8565b810103126104bf5760ff6128216125b9936136a6565b92506125ab565b3d91506127fe565b9750506020873d602011612861575b8161284c602093836130a8565b8101031261012c57955187969061257a61256d565b3d915061283f565b9097506020813d6020116128a5575b81612885602093836130a8565b810103126104bf5761255b9161289c6020926130e2565b9891509161251a565b3d9150612878565b9750506020873d6020116128dd575b816128c9602093836130a8565b8101031261012c57955188969060206124d2565b3d91506128bc565b60209199506124599261290289923d808d833e6106d281836130a8565b9a92509250612426565b50604036600319011261015f57612921612ffa565b90602461292c61303c565b612935816138d6565b600754604051631eb5ab6d60e01b81526001600160a01b0386811660048301529093859285928391165afa9182156103f5578392612e08575b506101008201516001600160a01b03163314612dcd576129a761299c61ffff6101808501519316809361399c565b91606084015161399c565b60208301519091906001600160a01b0316826000805160206139f88339815191528203612d9857905034106104c357838080808560018060a01b0361010089015116828215612d8f575bf1156103f5575b6005546101008401516101408501516001600160a01b03928316929081169116823b1561106957604051633c6340f360e21b81526001600160a01b03918216600482015233602482015291166044820152606481018390529085908290608490829084905af18015610aaa57908591612d7b575b505060055460208401516001600160a01b039182169116813b156106a457604051633dae446f60e21b81523360048201526001600160a01b03919091166024820152604481018490529085908290606490829084905af18015610aaa57612d67575b5060035461014084015160405163912d228f60e01b81526001600160a01b039182166004820152602481018490529691602091889160449183918a91165af1958615610aaa578596612d33575b5060065484516101a08601516001600160a01b039283169290911690600281101561175f5797859260209289809b612ba860018060a01b03878d015116938a8d60018060a01b03610140820151169860808201519061ffff60a0840151169261010060018060a01b0391015116936040519d8e9c8d9b8c9a636667fe2160e11b8c52339960048d016134f3565b03925af1801561101b57612cfa575b506007546001600160a01b031691823b156106a457604051634e1df74360e01b81526001600160a01b039290921660048301526024820184905260448201529084908290606490829084905af1908115610699578491612ce6575b505060035460208381015160405163912d228f60e01b81526001600160a01b03918216600482015260248101949094529091839160449183918891165af19081156103f5578391612cb1575b50600254610100909201516001600160a01b03928316921690823b156116d8576040516311eba9df60e21b81526001600160a01b0390921660048301526024820152908290829081838160448101610a0c565b9250506020823d602011612cde575b81612ccd602093836130a8565b8101031261012c5782915138612c5e565b3d9150612cc0565b612cef9061307e565b610a2d578238612c12565b6020813d602011612d2b575b81612d13602093836130a8565b810103126106a457612d24906130e2565b5038612bb7565b3d9150612d06565b9095506020813d602011612d5f575b81612d4f602093836130a8565b8101031261012c57519438612b1b565b3d9150612d42565b612d71859161307e565b6104c35738612ace565b612d849061307e565b6104c3578338612a6c565b506108fc6129f1565b612da591309033906130f6565b6020830151610100840151612dc89184916001600160a01b039081169116613577565b6129f8565b60405162461bcd60e51b815260206004820152601360248201527222a9292fa1a0a72a2fa127a92927abafa7aba760691b6044820152606490fd5b612e1d9192503d8085833e6106d281836130a8565b903861296e565b503461015f578060031936011261015f5760206040516000805160206139f88339815191528152f35b503461015f57602036600319011261015f57612e67612ffa565b60065460405163058711b560e01b81526001600160a01b039283166004820181905261024093909290919084908290602490829086165afa938415610aaa578594612f90575b505080610220840151163303612f5a57828482604082960151166000805160206139f88339815191528114600014612f42575080806101c081940151818115612f39575b3390f115610439575b60065416803b15610a2d576024839260405194859384926315ae61b560e01b845260048401525af1801561043957612f30575080f35b610cd69061307e565b506108fc612ef1565b90506101c0612f55920151903390613577565b612efa565b60405162461bcd60e51b815260206004820152600e60248201526d22a9292fa727aa2fa622a72222a960911b6044820152606490fd5b612fa7929450803d106111475761113881836130a8565b913880612ead565b503461015f57602036600319011261015f57612fc9612ffa565b6001546001600160a01b039190612fe39083163314613899565b166001600160601b0360a01b600454161760045580f35b600435906001600160a01b038216820361012c57565b604435906001600160a01b038216820361012c57565b602435906001600160a01b038216820361012c57565b6024359061ffff8216820361012c57565b6084359061ffff8216820361012c57565b60a4359061ffff8216820361012c57565b50600036600319011261012c57005b67ffffffffffffffff811161309257604052565b634e487b7160e01b600052604160045260246000fd5b90601f8019910116810190811067ffffffffffffffff82111761309257604052565b67ffffffffffffffff81116130925760051b60200190565b51906001600160a01b038216820361012c57565b6040516323b872dd60e01b60208201526001600160a01b03928316602482015292909116604483015260648201929092526131479161314282608481015b03601f1981018452836130a8565b613161565b565b9081602091031261012c5751801515810361012c5790565b6040805167ffffffffffffffff94936001600160a01b03909316929091820185811183821017613092576040526020928383527f5361666545524332303a206c6f772d6c6576656c2063616c6c206661696c6564848401526000808386829551910182855af1903d15613291573d96871161327d57613201949596604051906131f388601f19601f84011601836130a8565b81528093873d92013e61329e565b8051908161320e57505050565b828061321e938301019101613149565b156132265750565b6084906040519062461bcd60e51b82526004820152602a60248201527f5361666545524332303a204552433230206f7065726174696f6e20646964206e6044820152691bdd081cdd58d8d9595960b21b6064820152fd5b634e487b7160e01b83526041600452602483fd5b9150613201939495506060915b9192901561330057508151156132b2575090565b3b156132bb5790565b60405162461bcd60e51b815260206004820152601d60248201527f416464726573733a2063616c6c20746f206e6f6e2d636f6e74726163740000006044820152606490fd5b8251909150156133135750805190602001fd5b6040519062461bcd60e51b82528160208060048301528251908160248401526000935b828510613359575050604492506000838284010152601f80199101168101030190fd5b8481018201518686016044015293810193859350613336565b519061ffff8216820361012c57565b602091828282031261012c57815167ffffffffffffffff9283821161012c5701916101c093848484031261012c5760405194850185811083821117613092576040526133cc846130e2565b85526133d98185016130e2565b8186015260408401516040860152606084015160608601526080840151608086015261340760a08501613372565b60a086015261341860c085016130e2565b60c086015261342960e085016130e2565b60e086015261010061343c8186016130e2565b90860152610120918285015190811161012c5784019280601f8501121561012c578351613468816130ca565b9461347660405196876130a8565b818652838087019260051b82010192831161012c578301905b8282106134dc57505050508301526101406134ab8183016130e2565b90830152610160808201519083015261018080820151908301526101a08091015190600282101561012c5782015290565b8380916134e8846130e2565b81520191019061348f565b99949b9a9690979193959892986101608b019c60018060a01b03809a168c526002861015613561578980988d6040836101409f61ffff9b6020850152169101521660608d015260808c015260a08b015260c08a015260e0890152166101008701521661012085015216910152565b634e487b7160e01b600052602160045260246000fd5b60405163a9059cbb60e01b60208201526001600160a01b0390921660248301526044820192909252613147916131428260648101613134565b80916101a0928391031261012c5760405191820182811067ffffffffffffffff821117613092576040526135e3816130e2565b82526135f160208201613372565b602083015261360260408201613372565b6040830152613613606082016130e2565b60608301526080810151608083015261362e60a082016130e2565b60a083015261363f60c082016130e2565b60c083015261365060e082016130e2565b60e08301526101006136638183016130e2565b908301526101208082015190830152610140808201519083015261016061368b8183016130e2565b908301526101808091015190600282101561012c5782015290565b519060ff8216820361012c57565b81156136be570490565b634e487b7160e01b600052601260045260246000fd5b156136db57565b60405162461bcd60e51b815260206004820152601c60248201527f4552525f434f4c4c41544552414c5f4e4f545f535550504f52544544000000006044820152606490fd5b8091610240928391031261012c5760405191820182811067ffffffffffffffff82111761309257604052613753816130e2565b82526020810151600381101561012c576020830152613774604082016130e2565b6040830152613785606082016130e2565b60608301526080810151608083015260a081015160a083015260c081015160c083015260e081015160e0830152610100808201519083015261012080820151908301526101406137d68183016130e2565b908301526101606137e88183016130e2565b908301526101806137fa818301613372565b908301526101a061380c8183016136a6565b908301526101c080820151908301526101e080820151908301526102006138348183016130e2565b908301526138466102208092016130e2565b9082015290565b1561385457565b60405162461bcd60e51b815260206004820152601060248201526f22a9292fa727aa2fa127a92927aba2a960811b6044820152606490fd5b9190820391821161110b57565b156138a057565b60405162461bcd60e51b815260206004820152600e60248201526d22a9292fa7a7262cafa7aba722a960911b6044820152606490fd5b61ffff809116606481116139255760199006166138ef57565b60405162461bcd60e51b815260206004820152600e60248201526d4552525f50455243454e5441474560901b6044820152606490fd5b60405162461bcd60e51b815260206004820152600f60248201526e4f5645525f50455243454e5441474560881b6044820152606490fd5b8181029291811591840414171561110b57565b9161398e606492613989670de0b6b3a7640000938661395c565b61395c565b0404810180911161110b5790565b906001600160a01b031680156139bc576139b89060649261395c565b0490565b5090565b906001600160a01b039081166064811061012c576063190181811161110b57811660640390811161110b576139f49161399c565b9056fe000000000000000000000000eeeeeeeeeeeeeeeeeeeeeeeeeeeeeeeeeeeeeeeea264697066735822122026ac1d4525d8dac4f2d4960af0ba4a632918037daaab7df138e3f8a97108e95e64736f6c63430008110033",
  "immutableReferences": {},
  "source": "// SPDX-License-Identifier: GPL-3.0\r\npragma solidity >=0.7.0 <0.9.0;\r\n\r\nimport \"./Activity.sol\";\r\n\r\nimport \"./libraries/Errors.sol\";\r\nimport \"./libraries/PoolLibrary.sol\";\r\n\r\nimport \"./math/SimpleInterest.sol\";\r\n\r\nimport \"./interfaces/IPriceFeed.sol\";\r\nimport \"./interfaces/ILoanToValueRatio.sol\";\r\nimport \"./interfaces/IFeeManager.sol\";\r\n\r\nimport \"./managers/LoanManager.sol\";\r\nimport \"./managers/OfferManager.sol\";\r\nimport \"./managers/PoolManager.sol\";\r\n\r\nimport \"@openzeppelin/contracts/utils/Context.sol\";\r\nimport \"@openzeppelin/contracts/token/ERC20/ERC20.sol\";\r\nimport \"@openzeppelin/contracts/token/ERC20/utils/SafeERC20.sol\";\r\nimport \"@openzeppelin/contracts/security/ReentrancyGuard.sol\";\r\n\r\n/*\r\n    LendingPool is the core contract of the DARSH ecosystem.\r\n    It interacts with Darsh MANAGERS, PRICE FEEDS, LTV, MATH LIBRARIES\r\n    and others to carry out the peer to peer functionality\r\n*/\r\n\r\ncontract LendingPool is Context, ReentrancyGuard, SimpleInterest {\r\n    using SafeERC20 for ERC20;\r\n\r\n    address deployer;\r\n\r\n    Activity private _activity;\r\n    IPriceFeed private _priceFeed;\r\n    ILoanToValueRatio private _ltv;\r\n\r\n    // managers\r\n    PoolManager private _poolManager;\r\n    LoanManager private _loanManager;\r\n    OfferManager private _offerManager;\r\n    IFeeManager private _feeManager;\r\n\r\n    address public constant nativeAddress =\r\n        0xEeeeeEeeeEeEeeEeEeEeeEEEeeeeEeeeeeeeEEeE;\r\n\r\n    constructor(\r\n        address poolManager_,\r\n        address loanManager_,\r\n        address offerManager_,\r\n        address feeManager_\r\n    ) ReentrancyGuard() {\r\n        _poolManager = PoolManager(poolManager_);\r\n        _loanManager = LoanManager(loanManager_);\r\n        _offerManager = OfferManager(offerManager_);\r\n        _feeManager = IFeeManager(feeManager_);\r\n\r\n        deployer = _msgSender();\r\n    }\r\n\r\n    // @lenders\r\n    function createLendingOffer(\r\n        uint256 principalAmount_, // only for ERC20 assets\r\n        address principalToken,\r\n        address[] memory collateralTokens,\r\n        uint16 daysToMaturity,\r\n        uint256 interest,\r\n        uint16 daysToExpire\r\n    ) public payable {\r\n        uint256 principalAmount;\r\n\r\n        require(collateralTokens.length > 0, \"ERR_NO_COLLATERAL_TYPES\");\r\n\r\n        /* extract tokens from lender */\r\n        if (principalToken == nativeAddress) {\r\n            principalAmount = msg.value;\r\n        } else {\r\n            principalAmount = principalAmount_;\r\n            ERC20(principalToken).safeTransferFrom(\r\n                _msgSender(),\r\n                address(this),\r\n                principalAmount\r\n            );\r\n        }\r\n\r\n        /* delegate principal to lender */\r\n        _poolManager.deposit(_msgSender(), principalToken, principalAmount);\r\n\r\n        /* create the lending offer */\r\n        _offerManager.createLendingOffer(\r\n            principalToken,\r\n            principalAmount,\r\n            interest,\r\n            daysToMaturity,\r\n            daysToExpire,\r\n            collateralTokens,\r\n            _msgSender()\r\n        );\r\n    }\r\n\r\n    // @lenders\r\n    function createLendingRequest(\r\n        uint160 offerId,\r\n        uint16 percentage,\r\n        uint16 daysToMaturity,\r\n        uint256 interest,\r\n        uint16 hoursToExpire\r\n    ) public payable {\r\n        _checkPercentage(percentage);\r\n\r\n        OfferLibrary.Offer memory offer = _offerManager.getOffer(offerId);\r\n\r\n        uint256 principalAmount = percentageOf(\r\n            offer.initialPrincipal,\r\n            percentage\r\n        );\r\n\r\n        /* extract tokens from lender */\r\n        if (offer.principalToken == nativeAddress) {\r\n            require(msg.value >= principalAmount);\r\n        } else {\r\n            ERC20(offer.principalToken).safeTransferFrom(\r\n                _msgSender(),\r\n                address(this),\r\n                principalAmount\r\n            );\r\n        }\r\n\r\n        /* delegate principal to lender */\r\n        _poolManager.deposit(\r\n            _msgSender(),\r\n            offer.principalToken,\r\n            principalAmount\r\n        );\r\n\r\n        /* create the lending request */\r\n        _offerManager.createLendingRequest(\r\n            percentage,\r\n            interest,\r\n            daysToMaturity,\r\n            hoursToExpire,\r\n            _msgSender(),\r\n            offerId\r\n        );\r\n    }\r\n\r\n    // @lenders\r\n    function acceptBorrowingOffer(uint160 offerId, uint16 percentage)\r\n        public\r\n        payable\r\n    {\r\n        _checkPercentage(percentage);\r\n\r\n        OfferLibrary.Offer memory offer = _offerManager.getOffer(offerId);\r\n\r\n        require(_msgSender() != offer.creator, \"ERR_CANT_BORROW_OWN\");\r\n\r\n        uint256 collateralAmount = percentageOf(\r\n            offer.initialCollateral,\r\n            percentage\r\n        );\r\n\r\n        uint256 principalAmount = percentageOf(\r\n            offer.initialPrincipal,\r\n            percentage\r\n        );\r\n\r\n        /* extract principal from lender/caller and transfer to borrower */\r\n        if (offer.principalToken == nativeAddress) {\r\n            require(msg.value >= principalAmount);\r\n            payable(offer.creator).transfer(principalAmount);\r\n        } else {\r\n            ERC20(offer.principalToken).safeTransferFrom(\r\n                _msgSender(),\r\n                address(this),\r\n                principalAmount\r\n            );\r\n            ERC20(offer.principalToken).safeTransfer(\r\n                offer.creator,\r\n                principalAmount\r\n            );\r\n        }\r\n\r\n        /* delegate the loan collateral to lender */\r\n        _poolManager.transfer(\r\n            offer.creator,\r\n            _msgSender(),\r\n            offer.collateralToken,\r\n            collateralAmount\r\n        );\r\n        /* undelegate the principal from lender */\r\n        _poolManager.burn(_msgSender(), offer.principalToken, principalAmount);\r\n\r\n        uint256 collateralPriceInUSD = _priceFeed.amountInUSD(\r\n            offer.collateralToken,\r\n            collateralAmount\r\n        );\r\n\r\n        /* register the loan from the loan manager */\r\n        _loanManager.createLoan(\r\n            offer.offerId,\r\n            offer.offerType,\r\n            offer.principalToken,\r\n            offer.collateralToken,\r\n            principalAmount,\r\n            collateralAmount,\r\n            collateralPriceInUSD,\r\n            offer.interest,\r\n            offer.daysToMaturity,\r\n            offer.creator,\r\n            _msgSender()\r\n        );\r\n\r\n        // will revert the transaction if fail\r\n        _offerManager._afterOfferBorrowingLoan(\r\n            offerId,\r\n            principalAmount,\r\n            collateralAmount\r\n        );\r\n\r\n        // update activity\r\n        uint256 borrowedAmountInUSD = _priceFeed.amountInUSD(\r\n            offer.principalToken,\r\n            principalAmount\r\n        );\r\n        _activity._borrowLoan(offer.creator, borrowedAmountInUSD);\r\n    }\r\n\r\n    // @lenders\r\n    function acceptBorrowingRequest(uint256 requestId) public {\r\n        RequestLibrary.Request memory request = _offerManager.getRequest(\r\n            requestId\r\n        );\r\n\r\n        OfferLibrary.Offer memory offer = _offerManager.getOffer(\r\n            request.offerId\r\n        );\r\n\r\n        require(offer.creator == _msgSender(), \"ERR_ONLY_LENDER\");\r\n\r\n        uint256 principalAmount = percentageOf(\r\n            offer.initialPrincipal,\r\n            request.percentage\r\n        );\r\n\r\n        /* transfer principal to borrower */\r\n        if (offer.principalToken == nativeAddress) {\r\n            payable(request.creator).transfer(principalAmount);\r\n        } else {\r\n            ERC20(offer.principalToken).safeTransfer(\r\n                request.creator,\r\n                principalAmount\r\n            );\r\n        }\r\n\r\n        /* delegate the loan collateral to lender */\r\n        _poolManager.transfer(\r\n            request.creator,\r\n            _msgSender(),\r\n            request.collateralToken,\r\n            request.collateralAmount\r\n        );\r\n        /* undelegate the principal from lender */\r\n        _poolManager.burn(_msgSender(), offer.principalToken, principalAmount);\r\n\r\n        /* register the loan from the loan manager */\r\n        _loanManager.createLoan(\r\n            request.offerId,\r\n            offer.offerType,\r\n            offer.principalToken,\r\n            request.collateralToken,\r\n            principalAmount,\r\n            request.collateralAmount,\r\n            request.collateralPriceInUSD,\r\n            request.interest,\r\n            request.daysToMaturity,\r\n            request.creator,\r\n            _msgSender()\r\n        );\r\n\r\n        // will revert the transaction if fail\r\n        _offerManager._afterOfferBorrowingLoan(\r\n            request.offerId,\r\n            principalAmount,\r\n            request.collateralAmount\r\n        );\r\n\r\n        // update activity\r\n        uint256 amountBorrowedInUSD = _priceFeed.amountInUSD(\r\n            offer.principalToken,\r\n            principalAmount\r\n        );\r\n        _activity._borrowLoan(request.creator, amountBorrowedInUSD);\r\n    }\r\n\r\n    // @borrower\r\n    function createBorrowingOffer(\r\n        address principalToken,\r\n        address collateralToken,\r\n        uint256 collateralAmount_, // for ERC20 assets\r\n        uint256 interest,\r\n        uint16 daysToMaturity,\r\n        uint16 daysToExpire\r\n    ) public payable {\r\n        uint256 collateralAmount;\r\n\r\n        /* extract collateral from borrower */\r\n        if (collateralToken == nativeAddress) {\r\n            collateralAmount = msg.value;\r\n        } else {\r\n            collateralAmount = collateralAmount_;\r\n            ERC20(collateralToken).safeTransferFrom(\r\n                _msgSender(),\r\n                address(this),\r\n                collateralAmount\r\n            );\r\n        }\r\n\r\n        uint256 principalNormalAmount = _priceFeed.exchangeRate(\r\n            collateralToken,\r\n            principalToken,\r\n            collateralAmount\r\n        );\r\n\r\n        uint256 principalAmountInUSD = _priceFeed.amountInUSD(\r\n            principalToken,\r\n            principalNormalAmount\r\n        );\r\n\r\n        uint160 ltv = _ltv.getRelativeLTV(_msgSender(), principalAmountInUSD);\r\n\r\n        uint256 principalAmount = percentageInverseOf(\r\n            principalNormalAmount,\r\n            ltv\r\n        ) / _ltv.getBase();\r\n\r\n        /* delegate the collateral to borrower */\r\n        _poolManager.deposit(_msgSender(), collateralToken, collateralAmount);\r\n\r\n        /* create the offer */\r\n        _offerManager.createBorrowingOffer(\r\n            principalToken,\r\n            collateralToken,\r\n            collateralAmount,\r\n            principalAmount,\r\n            interest,\r\n            daysToMaturity,\r\n            daysToExpire,\r\n            _msgSender()\r\n        );\r\n\r\n        // update activity\r\n        uint256 amountInUSD = _priceFeed.amountInUSD(\r\n            collateralToken,\r\n            collateralAmount\r\n        );\r\n        _activity._dropCollateral(_msgSender(), amountInUSD);\r\n    }\r\n\r\n    // @borrower\r\n    function createBorrowingRequest(\r\n        uint160 offerId,\r\n        uint16 percentage,\r\n        address collateralToken,\r\n        uint256 interest,\r\n        uint16 daysToMaturity,\r\n        uint16 hoursToExpire\r\n    ) public payable {\r\n        _checkPercentage(percentage);\r\n\r\n        OfferLibrary.Offer memory offer = _offerManager.getOffer(offerId);\r\n\r\n        require(\r\n            _offerManager.isCollateralSupported(offerId, collateralToken),\r\n            \"ERR_COLLATERAL_NOT_SUPPORTED\"\r\n        );\r\n\r\n        uint256 principalAmount = percentageOf(\r\n            offer.initialPrincipal,\r\n            percentage\r\n        );\r\n\r\n        uint256 principalPriceInUSD = _priceFeed.amountInUSD(\r\n            offer.principalToken,\r\n            principalAmount\r\n        );\r\n\r\n        uint160 ltv = _ltv.getRelativeLTV(_msgSender(), principalPriceInUSD);\r\n\r\n        uint256 collateralNormalAmount = _priceFeed.exchangeRate(\r\n            offer.principalToken,\r\n            collateralToken,\r\n            principalAmount\r\n        );\r\n\r\n        uint256 collateralAmount = percentageOf(collateralNormalAmount, ltv) /\r\n            _ltv.getBase();\r\n\r\n        /* extract collateral from borrower */\r\n        if (collateralToken == nativeAddress) {\r\n            require(collateralAmount >= msg.value);\r\n        } else {\r\n            ERC20(collateralToken).safeTransferFrom(\r\n                _msgSender(),\r\n                address(this),\r\n                collateralAmount\r\n            );\r\n        }\r\n\r\n        /* delegate the collateral to borrower */\r\n        _poolManager.deposit(_msgSender(), collateralToken, collateralAmount);\r\n\r\n        uint256 collateralPriceInUSD = _priceFeed.amountInUSD(\r\n            collateralToken,\r\n            collateralAmount\r\n        );\r\n\r\n        /* create the request */\r\n        _offerManager.createBorrowingRequest(\r\n            percentage,\r\n            collateralToken,\r\n            collateralAmount,\r\n            collateralPriceInUSD,\r\n            ltv,\r\n            interest,\r\n            daysToMaturity,\r\n            hoursToExpire,\r\n            _msgSender(),\r\n            offerId\r\n        );\r\n\r\n        // update activity\r\n        _activity._dropCollateral(_msgSender(), collateralPriceInUSD);\r\n    }\r\n\r\n    // @borrower\r\n    function acceptLendingOffer(\r\n        uint160 offerId,\r\n        uint16 percentage,\r\n        address collateralToken\r\n    ) public payable {\r\n        _checkPercentage(percentage);\r\n\r\n        OfferLibrary.Offer memory offer = _offerManager.getOffer(offerId);\r\n\r\n        require(\r\n            _offerManager.isCollateralSupported(offerId, collateralToken),\r\n            \"ERR_COLLATERAL_NOT_SUPPORTED\"\r\n        );\r\n\r\n        uint256 principalAmount = percentageOf(\r\n            offer.initialPrincipal,\r\n            percentage\r\n        );\r\n\r\n        uint256 principalPriceInUSD = _priceFeed.amountInUSD(\r\n            offer.principalToken,\r\n            principalAmount\r\n        );\r\n\r\n        uint160 ltv = _ltv.getRelativeLTV(_msgSender(), principalPriceInUSD);\r\n\r\n        /* calculate the collateral amount */\r\n        uint256 collateralNormalAmount = _priceFeed.exchangeRate(\r\n            offer.principalToken,\r\n            collateralToken,\r\n            principalAmount\r\n        );\r\n\r\n        uint256 collateralAmount = percentageOf(collateralNormalAmount, ltv) /\r\n            _ltv.getBase();\r\n\r\n        /* extract collateral tokens from borrower */\r\n        if (collateralToken == nativeAddress) {\r\n            require(collateralAmount >= msg.value, \"ERR_COLLATERAL_AMOUNT\");\r\n        } else {\r\n            ERC20(collateralToken).safeTransferFrom(\r\n                _msgSender(),\r\n                address(this),\r\n                collateralAmount\r\n            );\r\n        }\r\n\r\n        /* transfer the principal to borrower */\r\n        if (offer.principalToken == nativeAddress) {\r\n            payable(_msgSender()).transfer(principalAmount);\r\n        } else {\r\n            ERC20(offer.principalToken).safeTransfer(\r\n                _msgSender(),\r\n                principalAmount\r\n            );\r\n        }\r\n\r\n        /* delegate the loan collateral to lender */\r\n        _poolManager.deposit(offer.creator, collateralToken, collateralAmount);\r\n        /* undelegate the loan principal from lender */\r\n        _poolManager.burn(offer.creator, offer.principalToken, principalAmount);\r\n\r\n        uint256 collateralPriceInUSD = _priceFeed.amountInUSD(\r\n            collateralToken,\r\n            collateralAmount\r\n        );\r\n\r\n        /* register the loan */\r\n        _loanManager.createLoan(\r\n            offerId,\r\n            offer.offerType,\r\n            offer.principalToken,\r\n            collateralToken,\r\n            principalAmount,\r\n            collateralAmount,\r\n            collateralPriceInUSD,\r\n            offer.interest,\r\n            offer.daysToMaturity,\r\n            _msgSender(),\r\n            offer.creator\r\n        );\r\n\r\n        // will revert if transaction fail\r\n        _offerManager._afterOfferLendingLoan(offerId, principalAmount);\r\n\r\n        // update activity\r\n        uint256 amountBorrowedInUSD = _priceFeed.amountInUSD(\r\n            offer.principalToken,\r\n            principalAmount\r\n        );\r\n        _activity._borrowLoan(_msgSender(), amountBorrowedInUSD);\r\n        _activity._dropCollateral(_msgSender(), collateralPriceInUSD);\r\n    }\r\n\r\n    // @borrower\r\n    function acceptLendingRequest(uint256 requestId) public payable {\r\n        RequestLibrary.Request memory request = _offerManager.getRequest(\r\n            requestId\r\n        );\r\n\r\n        OfferLibrary.Offer memory offer = _offerManager.getOffer(\r\n            request.offerId\r\n        );\r\n\r\n        require(offer.creator == _msgSender(), \"ERR_ONLY_BORROWER\");\r\n\r\n        uint256 collateralAmount = percentageOf(\r\n            offer.initialCollateral,\r\n            request.percentage\r\n        );\r\n\r\n        uint256 principalAmount = percentageOf(\r\n            offer.initialPrincipal,\r\n            request.percentage\r\n        );\r\n\r\n        /* transfer principal to borrower */\r\n        if (offer.principalToken == nativeAddress) {\r\n            payable(_msgSender()).transfer(principalAmount);\r\n        } else {\r\n            ERC20(offer.principalToken).safeTransfer(\r\n                _msgSender(),\r\n                principalAmount\r\n            );\r\n        }\r\n\r\n        /* delegate the loan collateral to lender */\r\n        _poolManager.deposit(\r\n            request.creator,\r\n            offer.collateralToken,\r\n            collateralAmount\r\n        );\r\n        /* undelegate the loan principal from lender */\r\n        _poolManager.burn(\r\n            request.creator,\r\n            offer.principalToken,\r\n            principalAmount\r\n        );\r\n\r\n        uint256 collateralPriceInUSD = _priceFeed.amountInUSD(\r\n            offer.collateralToken,\r\n            collateralAmount\r\n        );\r\n\r\n        /* register the loan from the loan manager */\r\n        _loanManager.createLoan(\r\n            request.offerId,\r\n            offer.offerType,\r\n            offer.principalToken,\r\n            offer.collateralToken,\r\n            principalAmount,\r\n            collateralAmount,\r\n            collateralPriceInUSD,\r\n            request.interest,\r\n            request.daysToMaturity,\r\n            _msgSender(),\r\n            request.creator\r\n        );\r\n\r\n        // will revert the transaction if fail\r\n        _offerManager._afterOfferLendingLoan(offer.offerId, principalAmount);\r\n\r\n        // update activityj\r\n        uint256 amountBorrowedInUSD = _priceFeed.amountInUSD(\r\n            offer.principalToken,\r\n            principalAmount\r\n        );\r\n        _activity._borrowLoan(_msgSender(), amountBorrowedInUSD);\r\n        _activity._dropCollateral(_msgSender(), collateralPriceInUSD);\r\n    }\r\n\r\n    // @borrower\r\n    function reActivateOffer() public payable {}\r\n\r\n    // @borrower\r\n    function reActivateRequest() public payable {}\r\n\r\n    // @borrower\r\n    function repayLoan(uint160 loanId, uint16 percentage) public payable {\r\n        _checkPercentage(percentage);\r\n\r\n        LoanLibrary.Loan memory loan = _loanManager.getLoan(loanId);\r\n\r\n        // verify the borrower is the repayer\r\n        require(loan.borrower == _msgSender(), \"ERR_NOT_BORROWER\");\r\n\r\n        // calculate the duration of the loan\r\n        uint160 time = uint160(block.timestamp);\r\n        uint160 ellapsedSecs = (time - loan.startDate);\r\n\r\n        uint256 principalAmount = percentageOf(\r\n            loan.initialPrincipal,\r\n            percentage\r\n        );\r\n\r\n        uint256 collateralAmount = percentageOf(\r\n            loan.initialCollateral,\r\n            percentage\r\n        );\r\n\r\n        // calculate the pay back amount\r\n        uint256 repaymentPrincipalAmount = getFullInterestAmount(\r\n            principalAmount,\r\n            ellapsedSecs,\r\n            loan.interest\r\n        );\r\n\r\n        uint256 interestPaid = (repaymentPrincipalAmount - principalAmount);\r\n        uint256 fee = percentageOf(interestPaid, _feeManager.feePercentage());\r\n        uint256 unClaimedInterest = (interestPaid - fee);\r\n\r\n        _feeManager.credit(loan.principalToken, fee);\r\n\r\n        // will revert the transaction if fail\r\n        bool completed = _loanManager.repayLoan(\r\n            loanId,\r\n            unClaimedInterest,\r\n            principalAmount,\r\n            collateralAmount\r\n        );\r\n\r\n        /* extract pay back amount */\r\n        if (loan.principalToken == nativeAddress) {\r\n            require(msg.value >= repaymentPrincipalAmount);\r\n        } else {\r\n            ERC20(loan.principalToken).safeTransferFrom(\r\n                _msgSender(),\r\n                address(this),\r\n                repaymentPrincipalAmount\r\n            );\r\n        }\r\n\r\n        // update activity\r\n        uint256 interestPaidInUSD = _priceFeed.amountInUSD(\r\n            loan.principalToken,\r\n            (repaymentPrincipalAmount - principalAmount)\r\n        );\r\n\r\n        uint256 amountPaidInUSD = _priceFeed.amountInUSD(\r\n            loan.principalToken,\r\n            principalAmount\r\n        );\r\n\r\n        _activity._repayLoan(\r\n            _msgSender(),\r\n            amountPaidInUSD,\r\n            interestPaidInUSD,\r\n            completed\r\n        );\r\n    }\r\n\r\n    function claimCollateral(uint160 loanId) public {\r\n        LoanLibrary.Loan memory loan = _loanManager.getLoan(loanId);\r\n\r\n        require(loan.borrower == _msgSender(), \"ERR_NOT_BORROWER\");\r\n\r\n        if (loan.collateralToken == nativeAddress) {\r\n            payable(_msgSender()).transfer(loan.unClaimedCollateral);\r\n        } else {\r\n            ERC20(loan.collateralToken).safeTransfer(\r\n                _msgSender(),\r\n                loan.unClaimedCollateral\r\n            );\r\n        }\r\n\r\n        _loanManager.claimCollateral(loanId);\r\n    }\r\n\r\n    function claimPrincipal(uint160 loanId) public {\r\n        LoanLibrary.Loan memory loan = _loanManager.getLoan(loanId);\r\n\r\n        require(loan.lender == _msgSender(), \"ERR_NOT_LENDER\");\r\n\r\n        if (loan.principalToken == nativeAddress) {\r\n            payable(_msgSender()).transfer(loan.unClaimedPrincipal);\r\n        } else {\r\n            ERC20(loan.principalToken).safeTransfer(\r\n                _msgSender(),\r\n                loan.unClaimedPrincipal\r\n            );\r\n        }\r\n\r\n        _loanManager.claimPrincipal(loanId);\r\n    }\r\n\r\n    function repayLiquidatedLoan(uint160 loanId) public payable {}\r\n\r\n    // function liquidateLoan(uint160 loanId) public onlyOwner {\r\n    //     LoanLibrary.Loan memory loan = _loanManager.getLoan(loanId);\r\n    //     _loanManager.liquidateLoan(loanId);\r\n    // }\r\n\r\n    function setLTV(address ltv_) public onlyOwner {\r\n        _ltv = ILoanToValueRatio(ltv_);\r\n    }\r\n\r\n    function setActivity(address activity_) public onlyOwner {\r\n        _activity = Activity(activity_);\r\n    }\r\n\r\n    function setPriceFeed(address priceFeed_) public onlyOwner {\r\n        _priceFeed = IPriceFeed(priceFeed_);\r\n    }\r\n\r\n    function changeOwner(address newOwner) public onlyOwner {\r\n        deployer = newOwner;\r\n    }\r\n\r\n    /// @dev to claim revenue\r\n    function claim(\r\n        address token,\r\n        address payable receiver,\r\n        uint256 amount\r\n    ) public onlyOwner {\r\n        _feeManager.debit(token, amount);\r\n        require(amount > 0, \"ERR_ZERO_AMOUNT\");\r\n        if (token == nativeAddress) {\r\n            receiver.transfer(amount);\r\n        } else {\r\n            ERC20(token).safeTransfer(receiver, amount);\r\n        }\r\n    }\r\n\r\n    function _checkPercentage(uint16 percentage) private pure {\r\n        // percentage must be 25, 50, 75 or 100\r\n        require(percentage <= 100, \"OVER_PERCENTAGE\");\r\n        require(percentage % 25 == 0, \"ERR_PERCENTAGE\");\r\n    }\r\n\r\n    modifier onlyOwner() {\r\n        require(_msgSender() == deployer, \"ERR_ONLY_OWNER\");\r\n        _;\r\n    }\r\n}\r\n",
  "sourcePath": "C:\\Users\\DELL\\Documents\\darsh\\smart-contracts\\contracts\\LendingPool.sol",
  "compiler": {
    "name": "solc",
    "version": "0.8.17+commit.8df45f5f.Emscripten.clang"
  },
  "schemaVersion": "3.4.11",
  "updatedAt": "2023-02-15T20:11:12.174Z",
  "devdoc": {
    "kind": "dev",
    "methods": {
      "claim(address,address,uint256)": {
        "details": "to claim revenue"
      }
    },
    "version": 1
  },
  "userdoc": {
    "kind": "user",
    "methods": {},
    "version": 1
  }
}