{
  "contractName": "Lending",
  "abi": [
    {
      "inputs": [
        {
          "internalType": "address",
          "name": "poolManager_",
          "type": "address"
        },
        {
          "internalType": "address",
          "name": "loanManager_",
          "type": "address"
        },
        {
          "internalType": "address",
          "name": "offerManager_",
          "type": "address"
        },
        {
          "internalType": "address",
          "name": "activity_",
          "type": "address"
        },
        {
          "internalType": "address",
          "name": "stakingManager_",
          "type": "address"
        },
        {
          "internalType": "address",
          "name": "tokenFeed_",
          "type": "address"
        }
      ],
      "stateMutability": "nonpayable",
      "type": "constructor"
    },
    {
      "inputs": [
        {
          "internalType": "enum address",
          "name": "principalToken",
          "type": "uint8"
        },
        {
          "internalType": "uint256",
          "name": "_principal",
          "type": "uint256"
        },
        {
          "internalType": "uint256",
          "name": "interest",
          "type": "uint256"
        },
        {
          "internalType": "uint256",
          "name": "daysToMaturity",
          "type": "uint256"
        },
        {
          "internalType": "uint256",
          "name": "daysToExpire",
          "type": "uint256"
        }
      ],
      "name": "createLendingOffer",
      "outputs": [],
      "stateMutability": "payable",
      "type": "function",
      "payable": true
    },
    {
      "inputs": [
        {
          "internalType": "uint256",
          "name": "offerId",
          "type": "uint256"
        }
      ],
      "name": "acceptBorrowingOffer",
      "outputs": [],
      "stateMutability": "nonpayable",
      "type": "function"
    },
    {
      "inputs": [
        {
          "internalType": "uint256",
          "name": "requestId",
          "type": "uint256"
        }
      ],
      "name": "acceptBorrowingRequest",
      "outputs": [],
      "stateMutability": "nonpayable",
      "type": "function"
    }
  ],
  "bytecode": "0x6080346100ea57601f610e8f38819003918201601f19168301916001600160401b038311848410176100ef5780849260c0946040528339810103126100ea5761004781610105565b61005360208301610105565b9061006060408401610105565b9161006d60608501610105565b9361008660a061007f60808401610105565b9201610105565b9260018060a01b03948580948180948160018060a01b03199b168b60035416176003551689600054161760005516876001541617600155168560025416176002551683600454161760045516906005541617600555604051610d75908161011a8239f35b600080fd5b634e487b7160e01b600052604160045260246000fd5b51906001600160a01b03821682036100ea5756fe608080604052600436101561001357600080fd5b600090813560e01c9081633bbf03c814610ca35781634add7c82146104c657506352ca640e1461004257600080fd5b60a03660031901126104c35760043560068110156104bf5760035460405163d8689e1360e01b81523360048201526020926024928335926001600160a01b0391869082908790829086165afa90811561030e5787916104a2575b5061046a57806005541692604051630b5a7f2360e31b81526100c16004820185610d1c565b86818781885afa94851561037a578791899661042f575b50604051632e47633760e01b81529190829060049082905afa91821561037a57879189936103f3575b5085841692841683036103855750505034925b8654604051638340f54960e01b81523360048201526001600160a01b038316602482015260448101869052908790829060649082908c9088165af190811561037a57889161035d575b50156103195760048054604051635f62f12960e01b815233928101929092526001600160a01b0392909216602482015260448101859052908690829060649082908b9087165af190811561030e5787916102e1575b501561029d5760c48592876101e1936002541660405196879586946318e6a41360e11b86526004860190610d1c565b888401526044356044840152606435606484015260843560848401523360a48401525af1908115610292578491610260575b501561021d578280f35b9060186064926040519262461bcd60e51b845260048401528201527f4552525f4f464645525f4d414e414745525f43524541544500000000000000006044820152fd5b90508281813d831161028b575b6102778183610cb8565b81010312610286575138610213565b600080fd5b503d61026d565b6040513d86823e3d90fd5b60405162461bcd60e51b815260048101869052601b818601527f4552525f5354414b494e475f4d414e414745525f50524f5649444500000000006044820152606490fd5b6103019150863d8811610307575b6102f98183610cb8565b810190610cf0565b386101b2565b503d6102ef565b6040513d89823e3d90fd5b60405162461bcd60e51b8152600481018790526018818701527f4552525f504f4f4c5f4d414e414745525f4445504f53495400000000000000006044820152606490fd5b6103749150873d8911610307576102f98183610cb8565b3861015d565b6040513d8a823e3d90fd5b88546040516323b872dd60e01b81523360048201529085166001600160a01b03166024820152604481018290529095929091908290818b816064810103925af1801561037a576103d6575b50610114565b6103ec90873d8911610307576102f98183610cb8565b50386103d0565b8281939294503d8311610428575b61040b8183610cb8565b810103126104245761041d8791610d08565b9138610101565b8780fd5b503d610401565b8281939297503d8311610463575b6104478183610cb8565b81010312610424578661045b600492610d08565b9590916100d8565b503d61043d565b60405162461bcd60e51b8152600481018690526011818601527022a9292faaa729a0a322afa622a72222a960791b6044820152606490fd5b6104b99150863d8811610307576102f98183610cb8565b3861009c565b5080fd5b80fd5b9050346104bf5760203660031901126104bf57600254632a3884d760e21b825260048035908301526001600160a01b03166101608083602481855afa928315610292578493610bbb575b505060035461012083015160405163d8689e1360e01b81526001600160a01b0391821660048201529160209183916024918391165afa908115610292578491610b9c575b50610b615760e0820151421115610b26576020610140830151606460405180948193630262b60d60e31b835260048301523360248301528760448301525afa908115610b1b578391610afc575b5015610ab75760018060a01b036005541690602081018051906006821015610aa357604051630b5a7f2360e31b8152916105df906004840190610d1c565b602082602481875afa9182156108cc578592610a67575b50606083019081516006811015610a535761062b60246020926040519889938492630b5a7f2360e31b84526004840190610d1c565b5afa948515610a48578695610a08575b5060018060a01b036001541661014085015191519260068410156109f4575160068110156109f457602092886106c1959361014493896040810151608082015160a0830151916106cb60c08501519461012060018060a01b0391015116956040519d8e9c8d9b63cc2d5a2f60e01b8d5260048d0152600160248d015260448c0190610d1c565b60648a0190610d1c565b608488015260a487015260c486015260e4850152610104840152336101248401525af19081156108cc5785916109c2575b501561098757835460408381015190516323b872dd60e01b81523360048201526001600160a01b03928316602482015260448101919091529116929060208160648188885af19081156108cc578591610968575b50156109315760048054610120840151608085015160405163f773d4cd60e01b81526001600160a01b0392831694810194909452336024850152938116604484015260648301939093529091602091839160849183918991165af1908115610292578491610912575b50156108d75782546101208201516040928301516005549351632e47633760e01b815294869491936001600160a01b039081169381169260209188916004918391165afa9586156108cc578596610890575b50823b1561088c5760849285916040519788968795633a90cf2760e11b87526004870152826024870152604486015260018060a01b03161460648401525af1801561088157610858575080f35b67ffffffffffffffff811161086d5760405280f35b634e487b7160e01b82526041600452602482fd5b6040513d84823e3d90fd5b8480fd5b9095506020813d6020116108c4575b816108ac60209383610cb8565b8101031261088c576108bd90610d08565b943861080b565b3d915061089f565b6040513d87823e3d90fd5b60405162461bcd60e51b815260206004820152601360248201527212591b19481b585b9859d95c8819985a5b1959606a1b6044820152606490fd5b61092b915060203d602011610307576102f98183610cb8565b386107b9565b60405162461bcd60e51b815260206004820152600f60248201526e151c985b9cd9995c8819985a5b1959608a1b6044820152606490fd5b610981915060203d602011610307576102f98183610cb8565b38610750565b60405162461bcd60e51b8152602060048201526013602482015272131bd85b881b585b9859d95c8819985a5b1959606a1b6044820152606490fd5b90506020813d6020116109ec575b816109dd60209383610cb8565b8101031261088c5751386106fc565b3d91506109d0565b634e487b7160e01b88526021600452602488fd5b9094506020813d602011610a40575b81610a2460209383610cb8565b81010312610a3c57610a3590610d08565b933861063b565b8580fd5b3d9150610a17565b6040513d88823e3d90fd5b634e487b7160e01b87526021600452602487fd5b9091506020813d602011610a9b575b81610a8360209383610cb8565b8101031261088c57610a9490610d08565b90386105f6565b3d9150610a76565b634e487b7160e01b85526021600452602485fd5b60405162461bcd60e51b815260206004820152601c60248201527f4f6e6c79206c656e6465722063616e20616363657074206f66666572000000006044820152606490fd5b610b15915060203d602011610307576102f98183610cb8565b386105a1565b6040513d85823e3d90fd5b60405162461bcd60e51b815260206004820152601360248201527211549497d49154555154d517d1561412549151606a1b6044820152606490fd5b60405162461bcd60e51b815260206004820152601360248201527222a9292faaa729a0a322afa127a92927aba2a960691b6044820152606490fd5b610bb5915060203d602011610307576102f98183610cb8565b38610554565b908092935081813d8311610c9c575b610bd48183610cb8565b81010312610c985760405191820182811067ffffffffffffffff821117610c8457604052805182526020810151600681101561088c576020830152604081015160408301526060810151600681101561088c5760608301526080810151608083015260a081015160a083015260c081015160c083015260e081015160e08301526101008082015190830152610120610c6d818301610d08565b908301526101408091015190820152903880610510565b634e487b7160e01b85526041600452602485fd5b8380fd5b503d610bca565b82346104c35760203660031901126104c35780f35b90601f8019910116810190811067ffffffffffffffff821117610cda57604052565b634e487b7160e01b600052604160045260246000fd5b90816020910312610286575180151581036102865790565b51906001600160a01b038216820361028657565b906006821015610d295752565b634e487b7160e01b600052602160045260246000fdfea2646970667358221220a43d4e1d903dc9198ed8fd8f0f98702b1c4b2310b1d1b0f09fd5f17e9ddce25764736f6c63430008110033",
  "immutableReferences": {},
  "source": "// SPDX-License-Identifier: GPL-3.0\r\npragma solidity >=0.7.0 <0.9.0;\r\n\r\nimport \"./Activity.sol\";\r\nimport \"./LoanManager.sol\";\r\nimport \"./OfferManager.sol\";\r\nimport \"./PoolManager.sol\";\r\nimport \"./StakingManager.sol\";\r\nimport \"@openzeppelin/contracts/token/ERC20/IERC20.sol\";\r\nimport \"@openzeppelin/contracts/utils/Context.sol\";\r\nimport \"../libraries/AssetLibrary.sol\";\r\nimport \"../data/TokenFeed.sol\";\r\n\r\ncontract Lending is Context {\r\n    PoolManager private _poolManager;\r\n    LoanManager private _loanManager;\r\n    OfferManager private _offerManager;\r\n    Activity private _activity;\r\n    StakingManager private _stakingManager;\r\n    TokenFeed private _tokenFeed;\r\n\r\n    constructor(\r\n        address poolManager_,\r\n        address loanManager_,\r\n        address offerManager_,\r\n        address activity_,\r\n        address stakingManager_,\r\n        address tokenFeed_\r\n    ) {\r\n        _activity = Activity(activity_);\r\n        _poolManager = PoolManager(poolManager_);\r\n        _loanManager = LoanManager(loanManager_);\r\n        _offerManager = OfferManager(offerManager_);\r\n        _stakingManager = StakingManager(stakingManager_);\r\n        _tokenFeed = TokenFeed(tokenFeed_);\r\n    }\r\n\r\n    // @lenders\r\n    function createLendingOffer(\r\n        address principalToken,\r\n        uint256 _principal, // only for ERC20 assets\r\n        uint256 interest,\r\n        uint256 daysToMaturity,\r\n        uint256 daysToExpire\r\n    ) public payable {\r\n        uint256 principal;\r\n\r\n        /* checks if the lender is a defaulter */\r\n        require(!_activity.isDefaulter(_msgSender()), \"ERR_UNSAFE_LENDER\");\r\n\r\n        /* derive the address of the principal from data repository */\r\n        address principalToken = _tokenFeed.getTokenAddress(principalToken);\r\n\r\n        /* extract tokens from lender */\r\n        if (principalToken == _tokenFeed.nativeAddress()) {\r\n            principal = msg.value;\r\n            // (bool success, ) = _poolManager.getAddress().call{\r\n            //     value: principal\r\n            // }(\"\");\r\n            // require(success, \"ERR_TRANSFER_NATIVE\");\r\n        } else {\r\n            principal = _principal;\r\n            IERC20(principalToken).transferFrom(\r\n                _msgSender(),\r\n                address(_poolManager),\r\n                principal\r\n            );\r\n        }\r\n\r\n        require(\r\n            _poolManager.deposit(_msgSender(), principalToken, principal),\r\n            \"ERR_POOL_MANAGER_DEPOSIT\"\r\n        );\r\n\r\n        /* allocate staking reward on principal to lender */\r\n        require(\r\n            _stakingManager.provideLiquidityFor(\r\n                _msgSender(),\r\n                principalToken,\r\n                principal\r\n            ),\r\n            \"ERR_STAKING_MANAGER_PROVIDE\"\r\n        );\r\n\r\n        /* create the offer */\r\n        require(\r\n            _offerManager.createLendingOffer(\r\n                principalToken,\r\n                principal,\r\n                interest,\r\n                daysToMaturity,\r\n                daysToExpire,\r\n                _msgSender()\r\n            ) > 0,\r\n            \"ERR_OFFER_MANAGER_CREATE\"\r\n        );\r\n    }\r\n\r\n    // @lenders\r\n    function acceptBorrowingOffer(uint256 offerId) public {\r\n        // _acceptBorrowingOffer(offerId);\r\n    }\r\n\r\n    // @lenders\r\n    function acceptBorrowingRequest(uint256 requestId) public {\r\n        _acceptBorrowingRequest(requestId);\r\n    }\r\n\r\n    // function _acceptBorrowingOffer(uint256 offerId) private {\r\n    //     OfferLibrary.BorrowingOffer memory offer = _offerManager\r\n    //         .getBorrowingOffer(offerId);\r\n    // }\r\n\r\n    function _acceptBorrowingRequest(uint256 requestId) private {\r\n        RequestLibrary.BorrowingRequest memory request = _offerManager\r\n            .getBorrowingRequest(requestId);\r\n\r\n        require(\r\n            !_activity.isDefaulter(request.borrower),\r\n            \"ERR_UNSAFE_BORROWER\"\r\n        );\r\n\r\n        require(request.expiresAt < block.timestamp, \"ERR_REQUEST_EXPIRED\");\r\n\r\n        require(\r\n            _offerManager.belongsTo(\r\n                request.offerId,\r\n                _msgSender(),\r\n                OfferLibrary.Type.LENDING_OFFER\r\n            ),\r\n            \"Only lender can accept offer\"\r\n        );\r\n\r\n        /* derive the address of the asset types from data repository */\r\n        address principalToken = _tokenFeed.getTokenAddress(request.principalToken);\r\n        address collateralToken = _tokenFeed.getTokenAddress(\r\n            request.collateralToken\r\n        );\r\n\r\n        /* register the loan from the loan manager */\r\n        require(\r\n            _loanManager.createLoan(\r\n                request.offerId,\r\n                OfferLibrary.Type.BORROWING_OFFER,\r\n                request.principalToken,\r\n                request.collateralToken,\r\n                request.principal,\r\n                request.collateral,\r\n                request.interest,\r\n                request.daysToMaturity,\r\n                request.borrower,\r\n                _msgSender()\r\n            ) > 0,\r\n            \"Loan manager failed\"\r\n        );\r\n\r\n        /* transfer asset to pool manager */\r\n        require(\r\n            IERC20(principalToken).transferFrom(\r\n                _msgSender(),\r\n                address(_poolManager),\r\n                request.principal\r\n            ),\r\n            \"Transfer failed\"\r\n        );\r\n\r\n        /* from the staking manager */\r\n        /* transfer staking reward on collateral receiver from borrower to lender */\r\n        require(\r\n            _stakingManager.transferLiquidityTo(\r\n                request.borrower,\r\n                _msgSender(),\r\n                collateralToken,\r\n                request.collateral\r\n            ),\r\n            \"Idle manager failed\"\r\n        );\r\n\r\n        /* from the pool manager */\r\n        /* transfer borrowed asset to borrower's address */\r\n\r\n        _poolManager.transfer(\r\n            request.borrower,\r\n            principalToken,\r\n            request.principal,\r\n            principalToken == _tokenFeed.nativeAddress()\r\n        );\r\n    }\r\n}\r\n",
  "sourcePath": "C:\\Users\\DELL\\Documents\\darsh\\smart-contracts\\contracts\\core\\Lending.sol",
  "compiler": {
    "name": "solc",
    "version": "0.8.17+commit.8df45f5f.Emscripten.clang"
  },
  "schemaVersion": "3.4.11",
  "updatedAt": "2023-02-03T22:21:06.095Z",
  "networkType": "ethereum",
  "devdoc": {
    "kind": "dev",
    "methods": {},
    "version": 1
  },
  "userdoc": {
    "kind": "user",
    "methods": {},
    "version": 1
  }
}