{
  "contractName": "LendingPool",
  "abi": [
    {
      "inputs": [],
      "stateMutability": "nonpayable",
      "type": "constructor"
    },
    {
      "anonymous": false,
      "inputs": [
        {
          "indexed": true,
          "internalType": "address",
          "name": "previousOwner",
          "type": "address"
        },
        {
          "indexed": true,
          "internalType": "address",
          "name": "newOwner",
          "type": "address"
        }
      ],
      "name": "OwnershipTransferStarted",
      "type": "event"
    },
    {
      "anonymous": false,
      "inputs": [
        {
          "indexed": true,
          "internalType": "address",
          "name": "previousOwner",
          "type": "address"
        },
        {
          "indexed": true,
          "internalType": "address",
          "name": "newOwner",
          "type": "address"
        }
      ],
      "name": "OwnershipTransferred",
      "type": "event"
    },
    {
      "anonymous": false,
      "inputs": [
        {
          "indexed": false,
          "internalType": "address",
          "name": "account",
          "type": "address"
        }
      ],
      "name": "Paused",
      "type": "event"
    },
    {
      "anonymous": false,
      "inputs": [
        {
          "indexed": false,
          "internalType": "uint256",
          "name": "transferId",
          "type": "uint256"
        },
        {
          "indexed": false,
          "internalType": "uint256",
          "name": "offerId",
          "type": "uint256"
        },
        {
          "indexed": false,
          "internalType": "address",
          "name": "from",
          "type": "address"
        },
        {
          "indexed": false,
          "internalType": "uint256",
          "name": "amount",
          "type": "uint256"
        },
        {
          "indexed": false,
          "internalType": "address",
          "name": "token",
          "type": "address"
        },
        {
          "indexed": false,
          "internalType": "enum LendingPoolProvider.Type",
          "name": "transferType",
          "type": "uint8"
        },
        {
          "indexed": false,
          "internalType": "uint256",
          "name": "timestamp",
          "type": "uint256"
        }
      ],
      "name": "Transfer",
      "type": "event"
    },
    {
      "anonymous": false,
      "inputs": [
        {
          "indexed": false,
          "internalType": "address",
          "name": "account",
          "type": "address"
        }
      ],
      "name": "Unpaused",
      "type": "event"
    },
    {
      "inputs": [],
      "name": "INTEREST_RATE_DENOMINATOR",
      "outputs": [
        {
          "internalType": "uint256",
          "name": "",
          "type": "uint256"
        }
      ],
      "stateMutability": "view",
      "type": "function"
    },
    {
      "inputs": [],
      "name": "LENDINGPOOL_VERSION",
      "outputs": [
        {
          "internalType": "uint256",
          "name": "",
          "type": "uint256"
        }
      ],
      "stateMutability": "view",
      "type": "function"
    },
    {
      "inputs": [],
      "name": "PERCENT",
      "outputs": [
        {
          "internalType": "uint16",
          "name": "",
          "type": "uint16"
        }
      ],
      "stateMutability": "view",
      "type": "function"
    },
    {
      "inputs": [],
      "name": "acceptOwnership",
      "outputs": [],
      "stateMutability": "nonpayable",
      "type": "function"
    },
    {
      "inputs": [
        {
          "internalType": "uint16",
          "name": "percentage",
          "type": "uint16"
        }
      ],
      "name": "checkPercentage",
      "outputs": [],
      "stateMutability": "pure",
      "type": "function"
    },
    {
      "inputs": [
        {
          "internalType": "uint256",
          "name": "principal",
          "type": "uint256"
        },
        {
          "internalType": "uint256",
          "name": "durationSecs",
          "type": "uint256"
        },
        {
          "internalType": "uint256",
          "name": "interestRate",
          "type": "uint256"
        }
      ],
      "name": "getFullInterestAmount",
      "outputs": [
        {
          "internalType": "uint256",
          "name": "",
          "type": "uint256"
        }
      ],
      "stateMutability": "pure",
      "type": "function"
    },
    {
      "inputs": [],
      "name": "nativeAddress",
      "outputs": [
        {
          "internalType": "address",
          "name": "",
          "type": "address"
        }
      ],
      "stateMutability": "view",
      "type": "function"
    },
    {
      "inputs": [],
      "name": "owner",
      "outputs": [
        {
          "internalType": "address",
          "name": "",
          "type": "address"
        }
      ],
      "stateMutability": "view",
      "type": "function"
    },
    {
      "inputs": [],
      "name": "paused",
      "outputs": [
        {
          "internalType": "bool",
          "name": "",
          "type": "bool"
        }
      ],
      "stateMutability": "view",
      "type": "function"
    },
    {
      "inputs": [],
      "name": "pendingOwner",
      "outputs": [
        {
          "internalType": "address",
          "name": "",
          "type": "address"
        }
      ],
      "stateMutability": "view",
      "type": "function"
    },
    {
      "inputs": [
        {
          "internalType": "uint256",
          "name": "total",
          "type": "uint256"
        },
        {
          "internalType": "uint160",
          "name": "percent",
          "type": "uint160"
        }
      ],
      "name": "percentageOf",
      "outputs": [
        {
          "internalType": "uint256",
          "name": "",
          "type": "uint256"
        }
      ],
      "stateMutability": "pure",
      "type": "function"
    },
    {
      "inputs": [],
      "name": "renounceOwnership",
      "outputs": [],
      "stateMutability": "nonpayable",
      "type": "function"
    },
    {
      "inputs": [
        {
          "internalType": "uint256",
          "name": "offerId",
          "type": "uint256"
        },
        {
          "internalType": "address",
          "name": "from",
          "type": "address"
        },
        {
          "internalType": "uint256",
          "name": "amount",
          "type": "uint256"
        },
        {
          "internalType": "address",
          "name": "token",
          "type": "address"
        },
        {
          "internalType": "enum LendingPoolProvider.Type",
          "name": "transferType",
          "type": "uint8"
        }
      ],
      "name": "transfer",
      "outputs": [],
      "stateMutability": "nonpayable",
      "type": "function"
    },
    {
      "inputs": [
        {
          "internalType": "address",
          "name": "newOwner",
          "type": "address"
        }
      ],
      "name": "transferOwnership",
      "outputs": [],
      "stateMutability": "nonpayable",
      "type": "function"
    },
    {
      "inputs": [
        {
          "internalType": "uint256",
          "name": "principalAmount_",
          "type": "uint256"
        },
        {
          "internalType": "address",
          "name": "principalToken",
          "type": "address"
        },
        {
          "internalType": "address[]",
          "name": "collateralTokens",
          "type": "address[]"
        },
        {
          "internalType": "uint16",
          "name": "daysToMaturity",
          "type": "uint16"
        },
        {
          "internalType": "uint256",
          "name": "interestRate",
          "type": "uint256"
        },
        {
          "internalType": "uint16",
          "name": "daysToExpire",
          "type": "uint16"
        }
      ],
      "name": "createLendingOffer",
      "outputs": [],
      "stateMutability": "payable",
      "type": "function"
    },
    {
      "inputs": [
        {
          "internalType": "uint256",
          "name": "offerId",
          "type": "uint256"
        },
        {
          "internalType": "uint16",
          "name": "percentage",
          "type": "uint16"
        },
        {
          "internalType": "uint16",
          "name": "daysToMaturity",
          "type": "uint16"
        },
        {
          "internalType": "uint256",
          "name": "interestRate",
          "type": "uint256"
        },
        {
          "internalType": "uint16",
          "name": "hoursToExpire",
          "type": "uint16"
        }
      ],
      "name": "createLendingRequest",
      "outputs": [],
      "stateMutability": "payable",
      "type": "function"
    },
    {
      "inputs": [
        {
          "internalType": "uint256",
          "name": "offerId",
          "type": "uint256"
        },
        {
          "internalType": "uint16",
          "name": "percentage",
          "type": "uint16"
        }
      ],
      "name": "acceptBorrowingOffer",
      "outputs": [],
      "stateMutability": "payable",
      "type": "function"
    },
    {
      "inputs": [
        {
          "internalType": "uint256",
          "name": "requestId",
          "type": "uint256"
        }
      ],
      "name": "acceptBorrowingRequest",
      "outputs": [],
      "stateMutability": "nonpayable",
      "type": "function"
    },
    {
      "inputs": [
        {
          "internalType": "address",
          "name": "principalToken",
          "type": "address"
        },
        {
          "internalType": "uint256",
          "name": "principalAmount",
          "type": "uint256"
        },
        {
          "internalType": "address",
          "name": "collateralToken",
          "type": "address"
        },
        {
          "internalType": "uint256",
          "name": "interestRate",
          "type": "uint256"
        },
        {
          "internalType": "uint16",
          "name": "daysToMaturity",
          "type": "uint16"
        },
        {
          "internalType": "uint16",
          "name": "hoursToExpire",
          "type": "uint16"
        }
      ],
      "name": "createBorrowingOffer",
      "outputs": [],
      "stateMutability": "payable",
      "type": "function"
    },
    {
      "inputs": [
        {
          "internalType": "uint256",
          "name": "offerId",
          "type": "uint256"
        },
        {
          "internalType": "uint16",
          "name": "percentage",
          "type": "uint16"
        },
        {
          "internalType": "address",
          "name": "collateralToken",
          "type": "address"
        },
        {
          "internalType": "uint256",
          "name": "interestRate",
          "type": "uint256"
        },
        {
          "internalType": "uint16",
          "name": "daysToMaturity",
          "type": "uint16"
        },
        {
          "internalType": "uint16",
          "name": "hoursToExpire",
          "type": "uint16"
        }
      ],
      "name": "createBorrowingRequest",
      "outputs": [],
      "stateMutability": "payable",
      "type": "function"
    },
    {
      "inputs": [
        {
          "internalType": "uint256",
          "name": "offerId",
          "type": "uint256"
        },
        {
          "internalType": "uint16",
          "name": "percentage",
          "type": "uint16"
        },
        {
          "internalType": "address",
          "name": "collateralToken",
          "type": "address"
        }
      ],
      "name": "acceptLendingOffer",
      "outputs": [],
      "stateMutability": "payable",
      "type": "function"
    },
    {
      "inputs": [
        {
          "internalType": "uint256",
          "name": "requestId",
          "type": "uint256"
        }
      ],
      "name": "acceptLendingRequest",
      "outputs": [],
      "stateMutability": "payable",
      "type": "function"
    },
    {
      "inputs": [
        {
          "internalType": "uint256",
          "name": "offerId",
          "type": "uint256"
        },
        {
          "internalType": "uint16",
          "name": "toExpire",
          "type": "uint16"
        }
      ],
      "name": "reActivateOffer",
      "outputs": [],
      "stateMutability": "nonpayable",
      "type": "function"
    },
    {
      "inputs": [
        {
          "internalType": "uint256",
          "name": "loanId",
          "type": "uint256"
        },
        {
          "internalType": "uint16",
          "name": "percentage",
          "type": "uint16"
        }
      ],
      "name": "repayLoan",
      "outputs": [],
      "stateMutability": "payable",
      "type": "function"
    },
    {
      "inputs": [
        {
          "internalType": "uint256",
          "name": "requestId",
          "type": "uint256"
        }
      ],
      "name": "rejectRequest",
      "outputs": [],
      "stateMutability": "nonpayable",
      "type": "function"
    },
    {
      "inputs": [
        {
          "internalType": "uint256",
          "name": "requestId",
          "type": "uint256"
        }
      ],
      "name": "cancelRequest",
      "outputs": [],
      "stateMutability": "nonpayable",
      "type": "function"
    },
    {
      "inputs": [
        {
          "internalType": "uint256",
          "name": "loanId",
          "type": "uint256"
        }
      ],
      "name": "claimCollateral",
      "outputs": [],
      "stateMutability": "nonpayable",
      "type": "function"
    },
    {
      "inputs": [
        {
          "internalType": "uint256",
          "name": "loanId",
          "type": "uint256"
        }
      ],
      "name": "claimBorrowedPrincipal",
      "outputs": [],
      "stateMutability": "nonpayable",
      "type": "function"
    },
    {
      "inputs": [
        {
          "internalType": "uint256",
          "name": "loanId",
          "type": "uint256"
        }
      ],
      "name": "claimPrincipal",
      "outputs": [],
      "stateMutability": "nonpayable",
      "type": "function"
    },
    {
      "inputs": [
        {
          "internalType": "uint256",
          "name": "loanId",
          "type": "uint256"
        }
      ],
      "name": "claimDefaultCollateral",
      "outputs": [],
      "stateMutability": "nonpayable",
      "type": "function"
    },
    {
      "inputs": [
        {
          "internalType": "uint256",
          "name": "loanId",
          "type": "uint256"
        }
      ],
      "name": "repayLiquidatedLoan",
      "outputs": [],
      "stateMutability": "payable",
      "type": "function"
    },
    {
      "inputs": [],
      "name": "getVersion",
      "outputs": [
        {
          "internalType": "uint256",
          "name": "",
          "type": "uint256"
        }
      ],
      "stateMutability": "pure",
      "type": "function"
    },
    {
      "inputs": [
        {
          "internalType": "uint256",
          "name": "loanId",
          "type": "uint256"
        }
      ],
      "name": "liquidateLoan",
      "outputs": [],
      "stateMutability": "nonpayable",
      "type": "function"
    },
    {
      "inputs": [
        {
          "internalType": "address",
          "name": "ltv_",
          "type": "address"
        },
        {
          "internalType": "address",
          "name": "activity_",
          "type": "address"
        },
        {
          "internalType": "address",
          "name": "priceFeed_",
          "type": "address"
        }
      ],
      "name": "setFeeds",
      "outputs": [],
      "stateMutability": "nonpayable",
      "type": "function"
    },
    {
      "inputs": [
        {
          "internalType": "address",
          "name": "loanManager_",
          "type": "address"
        },
        {
          "internalType": "address",
          "name": "offerManager_",
          "type": "address"
        },
        {
          "internalType": "address",
          "name": "feeManager_",
          "type": "address"
        }
      ],
      "name": "setManagers",
      "outputs": [],
      "stateMutability": "nonpayable",
      "type": "function"
    },
    {
      "inputs": [
        {
          "internalType": "address",
          "name": "token",
          "type": "address"
        },
        {
          "internalType": "address payable",
          "name": "receiver",
          "type": "address"
        },
        {
          "internalType": "uint256",
          "name": "amount",
          "type": "uint256"
        }
      ],
      "name": "claim",
      "outputs": [],
      "stateMutability": "nonpayable",
      "type": "function"
    }
  ],
  "bytecode": "0x6080806040523461006d576001805560035460028054336001600160a01b0319821681179092556001600160a01b03167f8be0079c531659141344cd1fd0a4f28419497f9722a3daafe3b4186f6b6457e0600080a36001600160a81b03191660035561401490816100738239f35b600080fdfe6080604052600436101561001257600080fd5b6000803560e01c80630548db12146133445780630d8e6e2c146127df57806310b3ed2a146132e75780632672a87a14612ddf5780632d7788db14612d845780632e47633714612d5b5780633015394c14612b7a5780634add7c82146127fb5780634ae32235146127df57806353188b141461241b5780635c7f31aa14611faa5780635c975abb14611f845780635d03999f14611f0f57806361ba944314611efa578063628118ee14611a91578063669c987f14611a06578063715018a61461199e57806379ba5097146118da5780637a5ae69e146118b15780637cc5805a146117505780638da5cb5b14611727578063996cba68146115fa578063a33928da1461124c578063a6aea415146111ef578063b2ac850d1461117b578063b85a8b201461115f578063c1bc89ef14610f66578063c49785b414610f09578063cc3266e814610ee6578063ccdd9f5d14610ab9578063e0b2695914610a85578063e0f7dffd14610a39578063e30c397814610a10578063e826fbe71461032d578063f2fde38b146102bf5763f9af0579146101a957600080fd5b346102bc5760203660031901126102bc576101c2613d8f565b6101ca6134ea565b60075460405163f400c74360e01b81526004803590820152336024820152906001600160a01b039060609083908316818681604481015b03925af190811561025b57839084938593610285575b508216600080516020613fbf833981519152810361027057508380828015610266575b8280929181923390f11561025b57610254925b3390613de5565b6001805580f35b6040513d85823e3d90fd5b6108fc915061023a565b9261028082610254953390613bc0565b61024d565b915092506102aa915060603d81116102b5575b6102a28183613458565b810190613d6d565b929190929138610217565b503d610298565b80fd5b50346102bc5760203660031901126102bc576102d96133b9565b6102e1613492565b600380546001600160a01b0319166001600160a01b039283169081179091556002549091167f38d16b8cac22d99fc7c124b9cd0de2d3fa1faef420bfe791d8c362d765e227008380a380f35b5060603660031901126102bc576103426133fb565b9061034b6133e5565b6103536134ea565b61035c83613f18565b6008546040516322bc934560e11b81526004803590820152936001600160a01b03918216908486602481855afa9586156107be5785966109ec575b50604051633970062960e01b815260048035908201526001600160a01b03851660248201526020928390829060449082908a905af19081156109e1576103f992916103e99188916109b4575b50613aff565b61ffff6080880151911690613ef4565b60055460408781018051915163912d228f60e01b8082529287166001600160a01b031660048201526024810185905290939192859082908816818b816044810103925af180156107e65785908990610985575b6006546040516322a0fe3360e21b81523360048201526024810192909252909250829088168180604481015b03915afa80156107e657889061094f575b6005548551604051631c07d98160e21b81526001600160a01b03918a1682166004820152908a166024820152604481018590529250869083908916818c81606481015b03925af1918215610944578992610915575b50600486886006541660405192838092636882509b60e11b82525afa908115610857578a916108ce575b50610521929160ff61051b921690613ad1565b90613ef4565b600080516020613fbf833981519152988787168a81036108b9575034821061087c5788995b610554898433600435613e39565b838887511691821460001461086c5750508880848015610862575b8280929181923390f1156107e6575b61058f878651168433600435613de5565b6005546040518581526001600160a01b038a16600482015260248101849052989087908a9060449082908e908d165af1988915610857578a99610823575b50869184918b8a61062c8d8b836007541696846101c0820151926105f084613941565b51169460a08201519061012061ffff60c08501511693015116936040519c8d9b8c9a8b996319467e2760e01b8b52339760043560048d01613b4b565b03925af180156107e6576107f5575b50846008541691823b156107f157878093604460405180968193631b6eb38160e21b835260043560048401528760248401525af180156107e657859389916107c9575b50600554945160405192835287166001600160a01b03166004830152602482019290925292839160449183919088165af19182156107be578592610788575b50508160045416803b156107845760405163456db94760e01b8152336004820152602481019290925284908290604490829084905af1908115610779578491610765575b505060045416803b15610761576040516363a6c98160e01b8152336004820152602481019290925282908290818381604481015b03925af18015610756576107465750f35b61074f9061342e565b6102bc5780f35b6040513d84823e3d90fd5b5050fd5b61076e9061342e565b610761578238610701565b6040513d86823e3d90fd5b8480fd5b8195508092503d83116107b7575b6107a08183613458565b810103126107b25783925138806106bd565b600080fd5b503d610796565b6040513d87823e3d90fd5b6107d59192945061342e565b6107e2578391873861067e565b8680fd5b6040513d8a823e3d90fd5b8780fd5b84809298503d831161081c575b61080c8183613458565b810103126107b25786953861063b565b503d610802565b995097508589813d8111610850575b61083c8183613458565b810103126107b257975189989097866105cd565b503d610832565b6040513d8c823e3d90fd5b6108fc915061056f565b610877913390613bc0565b61057e565b60405162461bcd60e51b815260048101879052601560248201527411549497d0d3d31310551154905317d05353d55395605a1b6044820152606490fd5b996108c9838b9c30903390613531565b610546565b90508681813d831161090e575b6108e58183613458565b8101031261090a57610521929160ff61090061051b93613ac3565b9250509192610508565b8980fd5b503d6108db565b9091508581813d831161093d575b61092d8183613458565b810103126107b2575190386104de565b503d610923565b6040513d8b823e3d90fd5b508481813d831161097e575b6109658183613458565b810103126107f1576109796104cc916137ad565b610489565b503d61095b565b5081813d83116109ad575b61099a8183613458565b810103126107b25784610478915161044c565b503d610990565b6109d49150853d87116109da575b6109cc8183613458565b810190613584565b386103e3565b503d6109c2565b6040513d88823e3d90fd5b610a099196503d8087833e610a018183613458565b8101906137d0565b9438610397565b50346102bc57806003193601126102bc576003546040516001600160a01b039091168152602090f35b50346102bc5760603660031901126102bc576020610a7d6004356064670de0b6b3a7640000610a75602435610a7060443586613ee1565b613ee1565b040490613d60565b604051908152f35b50346102bc5760403660031901126102bc57602435906001600160a01b03821682036102bc576020610a7d83600435613ef4565b50346102bc5780602080600319360112610ee357610ad5613d8f565b8160018060a01b0391826007541660405190632820036560e11b82526004356004830152816024816102c09687945af19283156107be578593610eb4575b5050610b2461014083015142613d3d565b92610b4d60a08401946064670de0b6b3a7640000610a75885193610a706101208a015186613ee1565b6005546040858101516060870180519251631c07d98160e21b8082526001600160a01b03938816841660048301529387169290921660248301526044820185905295939092849084908716818c816064810103925af1928315610944578993610e80575b5083610c0b91888a8c610bd68a6040816005541695015116948b8d5116935190613d3d565b6040518881526001600160a01b0395861660048201529290941660248301526044820193909352938492839182906064820190565b03925af1908115610944578991610e4e575b50889084866009541660046040518095819363a001ecdd60e01b83525af1908115610857578a91610e16575b610c539250613ef4565b9260e08701968751610c658686613d3d565b11610d8057505050610c778282613d3d565b95519451818110610d63575050915b81806009541691511690803b156107e25760405163ef6506db60e01b81526001600160a01b039290921660048301526024820184905286908290604490829084905af19081156109e1578691610d4f575b5050610ce890600754169184613d3d565b90803b1561078457604051633799ba3f60e01b815260048035908201526024810193909352604483019390935260648201529082908290608490829084905af1801561075657610d3b575b506001805580f35b610d449061342e565b6102bc578038610d33565b610d589061342e565b610784578438610cd7565b909550610d74610d7a928297613d3d565b90613d3d565b91610c86565b965160055487516040998a015199519485526001600160a01b039088168116600486015298871690981660248401526044830181905297509395909250839150829060649082908a9089165af19182156109e1578692610de5575b5050918491610c86565b8196508092503d8311610e0f575b610dfd8183613458565b810103126107b2578493513880610ddb565b503d610df3565b90508482813d8311610e47575b610e2d8183613458565b8101031261090a57610e41610c53926137ad565b90610c49565b503d610e23565b809950848092503d8311610e79575b610e678183613458565b810103126107b2578880985190610c1d565b503d610e5d565b985091508288813d8111610ead575b610e998183613458565b810103126107b25796518897909183610bb1565b503d610e8f565b610ed4929350803d10610edc575b610ecc8183613458565b810190613bf9565b903880610b13565b503d610ec2565b50fd5b50346102bc57806003193601126102bc576020604051670de0b6b3a76400008152f35b50346102bc5760203660031901126102bc57610f23613d8f565b610f2b6134ea565b60075460405163014b594760e71b81526004803590820152336024820152906001600160a01b03906060908390831681868160448101610201565b5060c03660031901126102bc57600435610f7e6133cf565b60443567ffffffffffffffff811161115b573660238201121561115b57806004013590610faa8261347a565b90610fb86040519283613458565b82825260208201906024829460051b820101903682116107f157602401915b81831061113b575050506064359161ffff831683036107b257610ff861341d565b946110016134ea565b6001600160a01b038516600080516020613fbf8339815191520361111857503492918661ffff9692935b60018060a01b03600854169260405198899563031137cd60e61b87528160e488019460018060a01b038c1660048a01528a60248a015260843560448a015216606488015216608486015260e060a48601525180915261010484019490825b8181106110f3575050508290816020953360c483015203925af180156107795784906110bf575b6110bc93503390613e8d565b80f35b506020833d6020116110eb575b816110d960209383613458565b810103126107b2576110bc92516110b0565b3d91506110cc565b82516001600160a01b031687526020968701968a96508b945090920191600101611089565b9261112e8430336001600160a01b038916613531565b918661ffff96929361102b565b82356001600160a01b03811681036107b257815260209283019201610fd7565b8380fd5b50346102bc57806003193601126102bc57602060405160648152f35b50346102bc5760403660031901126102bc57806111966133fb565b61119e6134ea565b6008546001600160a01b031690813b156107615761ffff6064849283604051958694859363099bfe6b60e01b855260043560048601521660248401523360448401525af18015610756576107465750f35b50346102bc5760203660031901126102bc57611209613d8f565b6112116134ea565b60075460405163e41936d760e01b81526004803590820152336024820152906001600160a01b03906060908390831681868160448101610201565b5060403660031901126102bc57806004356112656133fb565b61126d6134ea565b61127681613f18565b6008546040516322bc934560e11b815260048101849052908490829060249082906001600160a01b03165afa9081156107795784916115e0575b506112d46112c961ffff6101a084015194168094613ef4565b926080830151613ef4565b60408201519092906001600160a01b031683600080516020613fbf83398151915282036115ce5790503410610784575b604082015161131e906001600160a01b0316843387613e8d565b61012082018051610160840151919591611347916001600160a01b039182169185911684613e39565b60055461016084015160405163912d228f60e01b81526001600160a01b0391821660048201526024810185905291602091839160449183918c91165af190811561158b578791611596575b506020859160018060a01b0360075416868a8a61141383518a896101c0870151946113bc86613941565b60018060a01b036040890151169760018060a01b03610160820151169a61ffff60c060a0840151930151169260018060a01b03905116946040519e8f9d8e9c8d9b8c9a6319467e2760e01b8c526004339c01613961565b03925af1801561158b5761155c575b506008546001600160a01b031691823b156107e257604051633496841f60e11b815260048101929092526024820185905260448201529085908290606490829084905af19081156107be578591611548575b5050600554604091820151915163912d228f60e01b81526001600160a01b0392831660048201526024810193909352602091839160449183918891165af190811561025b578391611513575b5060045491516001600160a01b03928316921690823b1561150e5760405163456db94760e01b81526001600160a01b0390921660048301526024820152908290829081838160448101610735565b505050fd5b9250506020823d602011611540575b8161152f60209383613458565b810103126107b257829151386114c0565b3d9150611522565b6115519061342e565b61150e578338611474565b6020809297503d8311611584575b6115748183613458565b810103126107b257859438611422565b503d61156a565b6040513d89823e3d90fd5b9650506020863d6020116115c6575b816115b260209383613458565b810103126107b25794518695906020611392565b3d91506115a5565b6115db9130903390613531565b611304565b6115f491503d8086833e610a018183613458565b386112b0565b50346102bc5760603660031901126102bc576116146133b9565b6001600160a01b036024358181169081900361115b5760443591611636613492565b61163e613d8f565b82156116f05784938160095416803b156116ec576040516331b5f13d60e11b81526001600160a01b0383166004820152602481018690529086908290604490829084905af19081156109e15786916116d8575b505016600080516020613fbf83398151915281036116c95750828092819282f1156116bd576001805580f35b604051903d90823e3d90fd5b6116d39350613bc0565b610254565b6116e19061342e565b610784578438611691565b8580fd5b60405162461bcd60e51b815260206004820152600f60248201526e11549497d6915493d7d05353d55395608a1b6044820152606490fd5b50346102bc57806003193601126102bc576002546040516001600160a01b039091168152602090f35b5060a03660031901126102bc576004356117686133fb565b9060443561ffff8082168092036107b25761178161340c565b9361178a6134ea565b61179381613f18565b8560018060a01b03926024828560085416604051928380926322bc934560e11b82528b60048301525afa90811561025b578391611897575b508460406117e184608085015197168097613ef4565b92015116600080516020613fbf833981519152810361187e5750341061187a5760209560c4945b60085416916040519889978896630b438b8960e41b885260048801526064356024880152604487015216606485015233608485015260a48401525af1801561075657611852575080f35b602090813d8111611873575b6118688183613458565b810103126107b25780f35b503d61185e565b5080fd5b946118926020989260c49730903390613531565b611808565b6118ab91503d8085833e610a018183613458565b386117cb565b50346102bc5760203660031901126102bc5760043561ffff811681036107b2576110bc90613f18565b50346102bc57806003193601126102bc576003546001600160a01b033381831603611947576001600160601b0360a01b8092166003556002549133908316176002553391167f8be0079c531659141344cd1fd0a4f28419497f9722a3daafe3b4186f6b6457e0600080a380f35b60405162461bcd60e51b815260206004820152602960248201527f4f776e61626c6532537465703a2063616c6c6572206973206e6f7420746865206044820152683732bb9037bbb732b960b91b6064820152608490fd5b50346102bc57806003193601126102bc576119b7613492565b600380546001600160a01b03199081169091556002805491821690556000906001600160a01b03167f8be0079c531659141344cd1fd0a4f28419497f9722a3daafe3b4186f6b6457e08280a380f35b50346102bc5760a03660031901126102bc57611a206133cf565b6001600160a01b0360643581811692908390036107b257608435600481101561078457600080516020613f9f8339815191529360e093600160005401938460005560405194855260043560208601521660408401526044356060840152608083015260a08201524260c0820152a180f35b5060403660031901126102bc5760043581611aaa6133fb565b611ab26134ea565b611abb81613f18565b600754604051632820036560e11b8152600481018590526001600160a01b03946102c09490928591839160249183918a165af19384156109e1578694611edb575b505083610280840151163303611ea35784938492611b1f61014086015142613d3d565b94611b6b6064670de0b6b3a7640000611b63611b53611b4861ffff608088015198168098613ef4565b9660c0870151613ef4565b99610a7061012087015188613ee1565b040483613d60565b611b758382613d3d565b9184600954166040519063a001ecdd60e01b82528160048160209b8c945af1908115610857578a91611e67575b50611bb0611bb79185613ef4565b8094613d3d565b95856009541660408301948786511690823b15611e635760405163ef6506db60e01b81526001600160a01b039290921660048301526024820152908b908290604490829084905af1918215611e58578b87928b94611e3c575b508990896007541692611c506040519e8f968795869463094bb9f160e11b8652600486019094939260609260808301968352602083015260408201520152565b03925af1978815610944578998611e1d575b508885845116600080516020613fbf8339815191528114600014611e00575050813410611dfc578895611c9b611ca7925b519186613d60565b86855116913390613e8d565b85611cf38560055416611cbe868887511695613d3d565b60405163912d228f60e01b8082526001600160a01b039096166004820152602481019190915297889283919082906044820190565b03925af19485156107e6578895611dc4575b50600554915160405191825284166001600160a01b0316600482015260248101929092528490829060449082908a9087165af19384156109e1578694611d91575b505060045416803b15610784578492836084926040519687958694637bc5e09f60e11b865233600487015260248601526044850152151560648401525af18015610756576107465750f35b819650809294503d8311611dbd575b611daa8183613458565b810103126107b257849351913880611d46565b503d611da0565b9297509350908481813d8111611df5575b611ddf8183613458565b810103126107b257518796909390919085611d05565b503d611dd5565b8880fd5b611ca792611e1885611c9b939a949a30903390613531565b611c93565b611e35919850873d89116109da576109cc8183613458565b9638611c62565b909250611e4a91935061342e565b61090a578488918b38611c10565b6040513d8d823e3d90fd5b8c80fd5b90508781813d8311611e9c575b611e7e8183613458565b8101031261090a57611bb0611e95611bb7926137ad565b9150611ba2565b503d611e74565b60405162461bcd60e51b815260206004820152601060248201526f22a9292fa727aa2fa127a92927aba2a960811b6044820152606490fd5b611ef2929450803d10610edc57610ecc8183613458565b913880611afc565b5060203660031901126102bc57610254613d8f565b50346102bc5760603660031901126102bc57611f296133b9565b611f316133cf565b611f396133e5565b611f41613492565b611f49613d8f565b60018060a01b038092816001600160601b0360a01b951685600754161760075516836008541617600855169060095416176009556001805580f35b50346102bc57806003193601126102bc57602060ff60035460a01c166040519015158152f35b5060203660031901126102bc57611fbf6134ea565b60085460405163c58343ef60e01b8152600480359082015282916001600160a01b03166101c082602481845afa91821561025b5783926123e8575b50826101008301516024604051809481936322bc934560e11b835260048301525afa90811561025b5783916123ce575b506101a08101519161205b612049604083019461ffff86511690613ef4565b9361ffff608085015191511690613ef4565b9261207c6101008301518260018060a01b0361016087015116913390613e39565b604083015184906001600160a01b0316600080516020613fbf83398151915281036123b957505084808580156123af575b8280929181923390f11561077957612121915b6120df6101008201518660018060a01b03604088015116913390613de5565b60055461016085015160405163912d228f60e01b81526001600160a01b03918216600482015260248101859052946020928692169082908a9082906044820190565b03925af19283156109e1578693612374575b509160209185938760018060a01b0360075416926121ba610100840151916101c08a01519261216184613941565b60408b8101516101608d0151608089015160608a015160e0909a015193516319467e2760e01b81529d8e9c8d9b8c9a6001600160a01b0397881699339961ffff9093169895979396909590811693169160048d01613b4b565b03925af1801561077957612345575b5060018060a01b03600854168151813b15610784578491604483926040519485938492631b6eb38160e21b845260048401528860248401525af1908115610779578491612331575b50506008546001600160a01b0316803b1561150e57604051636d5d42c560e11b815260048035908201523360248201529084908290604490829084905af190811561077957849161231d575b5050600554604091820151915163912d228f60e01b81526001600160a01b0392831660048201526024810193909352602091839160449183918791165af19081156107565782916122e8575b506004546001600160a01b0316803b156107615760405163456db94760e01b815233600482015260248101929092528290829081838160448101610735565b9150506020813d602011612315575b8161230460209383613458565b810103126107b257819051386122a9565b3d91506122f7565b6123269061342e565b61076157823861225d565b61233a9061342e565b610761578238612211565b6020809294503d831161236d575b61235d8183613458565b810103126107b2578291386121c9565b503d612353565b91925094506020813d6020116123a7575b8161239260209383613458565b810103126107b2575185949091906020612133565b3d9150612385565b6108fc91506120ad565b61212193916123c9913390613bc0565b6120c0565b6123e291503d8085833e610a018183613458565b3861202a565b61240d9192506101c03d6101c011612414575b6124058183613458565b8101906139d5565b9038611ffa565b503d6123fb565b5060c03660031901126102bc576124306133b9565b816124396133e5565b9161244261340c565b61244a61341d565b6124526134ea565b60055460405163912d228f60e01b81526001600160a01b03858116600483015260248035908301529491602090829060449082908a908a165af19081156109e15786916127a7575b506006546040516322a0fe3360e21b815233600482015260248101929092526020908290604490829089165afa9081156109e157869161276d575b50600554604051631c07d98160e21b81526001600160a01b038481166004830152891660248083019190915235604482015290602090829060649082908b908b165af190811561158b578791612738575b5060046020876006541660405192838092636882509b60e11b82525afa9081156107e65788916126f2575b506125639260ff61051b921690613ad1565b92868516928587600080516020613fbf83398151915286036126d85750508434106107e257602092876101049288945b856008541691604051988997889663486c386960e11b885216600487015260248601528960448601526024356064860152606435608486015261ffff80921660a48601521660c48401523360e48401525af18015610779576126a9575b5060055460405163912d228f60e01b81526001600160a01b03959095166004860152602485019190915291929160209083906044908290879086165af191821561025b578392612672575b5060045416803b15610761576040516363a6c98160e01b815233600482015260248101929092528290829081838160448101610735565b925090506020823d6020116126a1575b8161268f60209383613458565b810103126107b257829151903861263b565b3d9150612682565b6020809294503d83116126d1575b6126c18183613458565b810103126107b2578391386125f0565b503d6126b7565b6101049260209592946126ed8930338b613531565b612593565b90506020813d602011612730575b8161270d60209383613458565b810103126107f1576125639260ff61272761051b93613ac3565b92505092612551565b3d9150612700565b9650506020863d602011612765575b8161275460209383613458565b810103126107b25787955138612526565b3d9150612747565b90506020813d60201161279f575b8161278860209383613458565b810103126116ec57612799906137ad565b386124d5565b3d915061277b565b9550506020853d6020116127d7575b816127c360209383613458565b810103126107b2579351869490602061249a565b3d91506127b6565b50346102bc57806003193601126102bc57602060405160028152f35b50346102bc5760203660031901126102bc576128156134ea565b60085460405163c58343ef60e01b8152600480359082015282916001600160a01b03166101c082602481845afa91821561025b578392612b57575b50826101008301516024604051809481936322bc934560e11b835260048301525afa90811561025b578391612b3d575b50612898608082015161ffff60408501511690613ef4565b61010083015160e08401516101408501516101208601519394936128cb936001600160a01b039182169390911690613e39565b81602060018060a01b0360075416610100860151906101c08501516128ef81613941565b8860018060a01b036040880151169161295c60018060a01b036101208c015116956101408c0151898d61016081015160808201519061ffff6060840151169260e060018060a01b0391015116946040519e8f9d8e9c8d9b8c9a6319467e2760e01b8c526004339c01613961565b03925af180156107be57612b0e575b5060018060a01b0360085416610100840151610140850151823b156107e257604051633496841f60e11b815260048101929092526024820185905260448201529085908290606490829084905af19081156107be578591612afa575b50506008546001600160a01b0316803b1561078457604051636d5d42c560e11b815260048035908201523360248201529085908290604490829084905af19081156107be578591612ae6575b5050600554604091820151915163912d228f60e01b81526001600160a01b0392831660048201526024810193909352602091839160449183918891165af190811561025b578391612ab1575b5060045460e0909201516001600160a01b03928316921690823b1561150e5760405163456db94760e01b81526001600160a01b0390921660048301526024820152908290829081838160448101610735565b9250506020823d602011612ade575b81612acd60209383613458565b810103126107b25782915138612a5f565b3d9150612ac0565b612aef9061342e565b61150e578338612a13565b612b039061342e565b61150e5783386129c7565b6020809295503d8311612b36575b612b268183613458565b810103126107b25783923861296b565b503d612b1c565b612b5191503d8085833e610a018183613458565b38612880565b612b739192506101c03d6101c011612414576124058183613458565b9038612850565b50346102bc5760203660031901126102bc5780600435612b986134ea565b60085460405163c58343ef60e01b8152600481018390526001600160a01b03916101c091908316908281602481855afa9283156109e1578693612d3c575b5050846101008301516024604051809481936322bc934560e11b835260048301525afa9081156107be57859284918493612d20575b506101a0810151612c1b81613941565b612c2481613941565b612cc057612c4160409161ffff8360808701519201511690613ef4565b92015116600080516020613fbf8339815191528103612caf575081808092818115612ca6575b3390f115610756575b60085416803b1561076157604051639498506560e01b815260048101929092523360248301528290829081838160448101610735565b506108fc612c67565b612cbb92503390613bc0565b612c70565b9291610160015116600080516020613fbf8339815191528114600014612d0d5750808061014081940151818115612d04575b3390f1612c70576040513d84823e3d90fd5b506108fc612cf2565b9050610140612cbb920151903390613bc0565b612d359193503d8086833e610a018183613458565b9138612c0b565b612d53929350803d10612414576124058183613458565b903880612bd6565b50346102bc57806003193601126102bc576020604051600080516020613fbf8339815191528152f35b50346102bc5760203660031901126102bc57612d9e6134ea565b60085481906001600160a01b0316803b15610ee35760405163774d3df560e01b81526004803590820152336024820152908290829081838160448101610735565b5060c03660031901126102bc5780612df56133fb565b612dfd6133e5565b612e0561340c565b91612e0e61341d565b92612e176134ea565b612e2082613f18565b6008546040516322bc934560e11b815260048035908201526001600160a01b0390911694908681602481895afa90811561158b5787916132cd575b50604051633970062960e01b815260048035908201526001600160a01b038616602482015295602090879060449082908b905af195861561158b57612f0396612eaa9189916132b45750613aff565b612ebd608082015161ffff861690613ef4565b60055460409283018051935163912d228f60e01b81526001600160a01b0394851660048201526024810184905298929390926020928a92169082908c9082906044820190565b03925af19687156107e657889761327f575b506006546040516322a0fe3360e21b81523360048201526024810198909852602090889060449082906001600160a01b03165afa9687156107e657889761323b575b506005549051604051631c07d98160e21b81526001600160a01b03918216600482015281881660248201526044810193909352602091839116818a81606481015b03925af1801561158b578790613208575b600654604051636882509b60e11b81529250602090839060049082906001600160a01b03165afa9182156107e65788926131c4575b5061051b60ff612fef931688613ad1565b906001600160a01b038516600080516020613fbf833981519152036131aa573482106107e2575b60055460405163912d228f60e01b81526001600160a01b03878116600483015260248201859052909491602091869160449183918d91165af19687156107e65788948598613167575b50600854604051633bb1374b60e01b815261ffff9788166004808301919091526001600160a01b03998a166024830152604482019690965260648082018b90529289166084820152913560a483015291861660c48201529190941660e4820152336101048201529035610124820152926020928492610144928492165af1801561025b5761313c575b506004546001600160a01b031690813b15610761576040516363a6c98160e01b8152336004820152602481019190915291908290604490829084905af1801561075657613133575080f35b6110bc9061342e565b602090813d8311613160575b6131528183613458565b81010312610ee357386130e8565b503d613148565b9194509650602094919294813d6020116131a2575b8161318960209383613458565b810103126107f15751959093879390929161ffff61305f565b3d915061317c565b6131bf8230336001600160a01b038916613531565b613016565b91506020823d602011613200575b816131df60209383613458565b810103126107f15761051b60ff6131f8612fef94613ac3565b935050612fde565b3d91506131d2565b506020813d602011613233575b8161322260209383613458565b810103126107e25760049051612fa9565b3d9150613215565b9096506020813d602011613277575b8161325760209383613458565b810103126107f157612f989161326e6020926137ad565b97915091612f57565b3d915061324a565b96506020873d6020116132ac575b8161329a60209383613458565b810103126107f1579551956020612f15565b3d915061328d565b6109d4915060203d6020116109da576109cc8183613458565b6132e191503d8089833e610a018183613458565b38612e5b565b50346102bc5760203660031901126102bc57613301613d8f565b6133096134ea565b600754604051630c4d25bb60e11b81526004803590820152336024820152906001600160a01b03906060908390831681868160448101610201565b50346102bc5760603660031901126102bc5761335e6133b9565b6133666133cf565b61336e6133e5565b613376613492565b61337e613d8f565b60018060a01b038092816001600160601b0360a01b951685600654161760065516836004541617600455169060055416176005556001805580f35b600435906001600160a01b03821682036107b257565b602435906001600160a01b03821682036107b257565b604435906001600160a01b03821682036107b257565b6024359061ffff821682036107b257565b6084359061ffff821682036107b257565b60a4359061ffff821682036107b257565b67ffffffffffffffff811161344257604052565b634e487b7160e01b600052604160045260246000fd5b90601f8019910116810190811067ffffffffffffffff82111761344257604052565b67ffffffffffffffff81116134425760051b60200190565b6002546001600160a01b031633036134a657565b606460405162461bcd60e51b815260206004820152602060248201527f4f776e61626c653a2063616c6c6572206973206e6f7420746865206f776e65726044820152fd5b60ff60035460a01c166134f957565b60405162461bcd60e51b815260206004820152601060248201526f14185d5cd8589b194e881c185d5cd95960821b6044820152606490fd5b6040516323b872dd60e01b60208201526001600160a01b03928316602482015292909116604483015260648201929092526135829161357d82608481015b03601f198101845283613458565b61359c565b565b908160209103126107b2575180151581036107b25790565b6040805167ffffffffffffffff94936001600160a01b03909316929091820185811183821017613442576040526020928383527f5361666545524332303a206c6f772d6c6576656c2063616c6c206661696c6564848401526000808386829551910182855af1903d156136cc573d9687116136b85761363c9495966040519061362e88601f19601f8401160183613458565b81528093873d92013e6136d9565b8051908161364957505050565b8280613659938301019101613584565b156136615750565b6084906040519062461bcd60e51b82526004820152602a60248201527f5361666545524332303a204552433230206f7065726174696f6e20646964206e6044820152691bdd081cdd58d8d9595960b21b6064820152fd5b634e487b7160e01b83526041600452602483fd5b915061363c939495506060915b9192901561373b57508151156136ed575090565b3b156136f65790565b60405162461bcd60e51b815260206004820152601d60248201527f416464726573733a2063616c6c20746f206e6f6e2d636f6e74726163740000006044820152606490fd5b82519091501561374e5750805190602001fd5b6040519062461bcd60e51b82528160208060048301528251908160248401526000935b828510613794575050604492506000838284010152601f80199101168101030190fd5b8481018201518686016044015293810193859350613771565b51906001600160a01b03821682036107b257565b519061ffff821682036107b257565b60209182828203126107b257815167ffffffffffffffff928382116107b25701916101e09384848403126107b2576040519485018581108382111761344257604052835185528084015160028110156107b25781860152613833604085016137ad565b6040860152606084015160608601526080840151608086015260a084015160a086015261386260c085016137c1565b60c086015260e084015160e0860152610100808501519086015261012061388a8186016137ad565b9086015261014091828501519081116107b25784019280601f850112156107b25783516138b68161347a565b946138c46040519687613458565b818652838087019260051b8201019283116107b2578301905b82821061392a57505050508301526101606138f98183016137ad565b9083015261018080820151908301526101a080820151908301526101c0809101519060028210156107b25782015290565b838091613936846137ad565b8152019101906138dd565b6002111561394b57565b634e487b7160e01b600052602160045260246000fd5b9a96928b98949a96929d9c9995919d6101808a019e8a5261398181613941565b60208a0152600160a01b600190039a8b998a80931690604001521660608c015260808b015260a08a015260c089015260e088015261ffff166101008701526101208601521661014084015216906101600152565b80916101c092839103126107b25760405191820182811067ffffffffffffffff8211176134425760405280518252602081015160048110156107b2576020830152613a22604082016137c1565b6040830152613a33606082016137c1565b60608301526080810151608083015260a081015160a083015260c081015160c0830152613a6260e082016137ad565b60e08301526101008082015190830152610120613a808183016137ad565b9083015261014080820151908301526101608082015190830152610180613aa88183016137ad565b908301526101a0809101519060028210156107b25782015290565b519060ff821682036107b257565b6001600160a01b0391821691908215613ae957160490565b634e487b7160e01b600052601260045260246000fd5b15613b0657565b60405162461bcd60e51b815260206004820152601c60248201527f4552525f434f4c4c41544552414c5f4e4f545f535550504f52544544000000006044820152606490fd5b9995919b9a97939894909b9692966101808b019c8b52613b6a81613941565b60208b0152600160a01b6001900380998180991660408d01521660608b015260808a015260a089015260c088015260e087015261ffff166101008601526101208501600090521661014084015216906101600152565b60405163a9059cbb60e01b60208201526001600160a01b03909216602483015260448201929092526135829161357d826064810161356f565b80916102c092839103126107b25760405191820182811067ffffffffffffffff8211176134425760405280518252602081015160048110156107b2576020830152613c46604082016137ad565b6040830152613c57606082016137ad565b60608301526080810151608083015260a081015160a083015260c081015160c083015260e081015160e08301526101008082015190830152610120808201519083015261014080820151908301526101608082015190830152610180613cbe8183016137c1565b908301526101a0613cd0818301613ac3565b908301526101c080820151908301526101e080820151908301526102008082015190830152610220808201519083015261024080820151908301526102608082015190830152610280613d248183016137ad565b90830152613d366102a08092016137ad565b9082015290565b91908203918211613d4a57565b634e487b7160e01b600052601160045260246000fd5b91908201809211613d4a57565b908160609103126107b257805191613d8c6040602084015193016137ad565b90565b600260015414613da0576002600155565b60405162461bcd60e51b815260206004820152601f60248201527f5265656e7472616e637947756172643a207265656e7472616e742063616c6c006044820152606490fd5b90600080516020613f9f8339815191529360e0936001600054019384600055604051948552602085015260018060a01b0380931660408501526060840152166080820152600160a08201524260c0820152a1565b90600080516020613f9f8339815191529360e0936001600054019384600055604051948552602085015260018060a01b0380931660408501526060840152166080820152600260a08201524260c0820152a1565b90600080516020613f9f8339815191529360e0936001600054019384600055604051948552602085015260018060a01b0380931660408501526060840152166080820152600060a08201524260c0820152a1565b81810292918115918404141715613d4a57565b906001600160a01b03168015613f1457613f1090606492613ee1565b0490565b5090565b61ffff80911660648111613f67576019900616613f3157565b60405162461bcd60e51b815260206004820152600e60248201526d4552525f50455243454e5441474560901b6044820152606490fd5b60405162461bcd60e51b815260206004820152600f60248201526e4f5645525f50455243454e5441474560881b6044820152606490fdfe1b89f92faead76d76eeb15b01f4ca1cff0fcbad53196805a290812426389ea7e000000000000000000000000eeeeeeeeeeeeeeeeeeeeeeeeeeeeeeeeeeeeeeeea2646970667358221220e153432e190f3b431f7f40f1f0d93b6c7707fe932fe986a73cc806ad549847a564736f6c63430008110033",
  "immutableReferences": {},
  "source": "// SPDX-License-Identifier: GPL-3.0\r\npragma solidity >=0.7.0 <0.9.0;\r\n\r\nimport \"./Activity.sol\";\r\nimport \"./LendingPoolProvider.sol\";\r\n\r\nimport \"./libraries/Errors.sol\";\r\n\r\nimport \"./math/SimpleInterest.sol\";\r\n\r\nimport \"./interfaces/IPriceFeed.sol\";\r\nimport \"./interfaces/IFeeManager.sol\";\r\nimport \"./interfaces/IOfferManager.sol\";\r\nimport \"./interfaces/ILoanManager.sol\";\r\nimport \"./interfaces/ILoanToValueRatio.sol\";\r\n\r\nimport \"@openzeppelin/contracts/utils/Context.sol\";\r\nimport \"@openzeppelin/contracts/token/ERC20/ERC20.sol\";\r\nimport \"@openzeppelin/contracts/token/ERC20/utils/SafeERC20.sol\";\r\nimport \"@openzeppelin/contracts/security/ReentrancyGuard.sol\";\r\nimport \"@openzeppelin/contracts/access/Ownable2Step.sol\";\r\nimport \"@openzeppelin/contracts/security/Pausable.sol\";\r\nimport \"@openzeppelin/contracts/utils/math/SafeMath.sol\";\r\n\r\n/**\r\n * @title LendingPool contract\r\n * @dev Main point of interaction with the DARSH protocol's market\r\n * - Users can:\r\n *   # Create Lending/Borrowing offers\r\n *   # Request for new terms on offers\r\n *   # Repay (Fully/Installment)\r\n *   # Claim principal and earnings\r\n *   # Claim back collateral\r\n *   # Cancel/Reject/Accept requests\r\n * - All admin functions are callable by the deployer address\r\n * @author Arogundade Ibrahim\r\n **/\r\ncontract LendingPool is\r\n    LendingPoolProvider,\r\n    Context,\r\n    ReentrancyGuard,\r\n    SimpleInterest,\r\n    Ownable2Step,\r\n    Pausable\r\n{\r\n    using SafeMath for uint256;\r\n    using SafeERC20 for ERC20;\r\n\r\n    /// @dev contract version\r\n    uint256 public constant LENDINGPOOL_VERSION = 0x2;\r\n\r\n    Activity private _activity;\r\n    IPriceFeed private _priceFeed;\r\n    ILoanToValueRatio private _ltvRatio;\r\n\r\n    ILoanManager private _loanManager;\r\n    IOfferManager private _offerManager;\r\n    IFeeManager private _feeManager;\r\n\r\n    /// @dev for convienency this address is used to represent FTM just like ERC20\r\n    address public constant nativeAddress =\r\n        0xEeeeeEeeeEeEeeEeEeEeeEEEeeeeEeeeeeeeEEeE;\r\n\r\n    constructor() ReentrancyGuard() Ownable2Step() {}\r\n\r\n    /// @notice This function creates a lending new lending offer\r\n    /// @dev the principalAmount_ parameter is use for ERC20 tokens only\r\n    function createLendingOffer(\r\n        uint256 principalAmount_,\r\n        address principalToken,\r\n        address[] memory collateralTokens,\r\n        uint16 daysToMaturity,\r\n        uint256 interestRate,\r\n        uint16 daysToExpire\r\n    ) public payable whenNotPaused {\r\n        uint256 principalAmount;\r\n\r\n        /* extract tokens from lender */\r\n        if (principalToken == nativeAddress) {\r\n            principalAmount = msg.value;\r\n        } else {\r\n            principalAmount = principalAmount_;\r\n            ERC20(principalToken).safeTransferFrom(\r\n                _msgSender(),\r\n                address(this),\r\n                principalAmount\r\n            );\r\n        }\r\n\r\n        /* create the lending offer */\r\n        uint256 offerId = _offerManager.createLendingOffer(\r\n            principalToken,\r\n            principalAmount,\r\n            interestRate,\r\n            daysToMaturity,\r\n            daysToExpire,\r\n            collateralTokens,\r\n            _msgSender()\r\n        );\r\n\r\n        transfer(\r\n            offerId,\r\n            _msgSender(),\r\n            principalAmount,\r\n            principalToken,\r\n            Type.ADDED\r\n        );\r\n    }\r\n\r\n    /// @notice Explain to an end user what this does\r\n    /// @dev Explain to a developer any extra details\r\n    function createLendingRequest(\r\n        uint256 offerId,\r\n        uint16 percentage,\r\n        uint16 daysToMaturity,\r\n        uint256 interestRate,\r\n        uint16 hoursToExpire\r\n    ) public payable whenNotPaused {\r\n        checkPercentage(percentage);\r\n\r\n        OfferLibrary.Offer memory offer = _offerManager.getOffer(offerId);\r\n\r\n        uint256 principalAmount = percentageOf(\r\n            offer.initialPrincipal,\r\n            percentage\r\n        );\r\n\r\n        if (offer.principalToken == nativeAddress) {\r\n            require(msg.value >= principalAmount);\r\n        } else {\r\n            ERC20(offer.principalToken).safeTransferFrom(\r\n                _msgSender(),\r\n                address(this),\r\n                principalAmount\r\n            );\r\n        }\r\n\r\n        /* create the lending request */\r\n        _offerManager.createLendingRequest(\r\n            percentage,\r\n            interestRate,\r\n            daysToMaturity,\r\n            hoursToExpire,\r\n            _msgSender(),\r\n            offerId\r\n        );\r\n    }\r\n\r\n    // @lenders\r\n    function acceptBorrowingOffer(uint256 offerId, uint16 percentage)\r\n        public\r\n        payable\r\n        whenNotPaused\r\n    {\r\n        checkPercentage(percentage);\r\n\r\n        OfferLibrary.Offer memory offer = _offerManager.getOffer(offerId);\r\n\r\n        uint256 collateralAmount = percentageOf(\r\n            offer.initialCollateral,\r\n            percentage\r\n        );\r\n\r\n        uint256 principalAmount = percentageOf(\r\n            offer.initialPrincipal,\r\n            percentage\r\n        );\r\n\r\n        if (offer.principalToken == nativeAddress) {\r\n            require(msg.value >= principalAmount);\r\n        } else {\r\n            ERC20(offer.principalToken).safeTransferFrom(\r\n                _msgSender(),\r\n                address(this),\r\n                principalAmount\r\n            );\r\n        }\r\n\r\n        transfer(\r\n            offerId,\r\n            _msgSender(),\r\n            principalAmount,\r\n            offer.principalToken,\r\n            Type.ADDED\r\n        );\r\n\r\n        transfer(\r\n            offerId,\r\n            offer.creator,\r\n            collateralAmount,\r\n            offer.collateralToken,\r\n            Type.LOCKED\r\n        );\r\n\r\n        uint256 collateralPriceInUSD = _priceFeed.amountInUSD(\r\n            offer.collateralToken,\r\n            collateralAmount\r\n        );\r\n\r\n        _loanManager.createLoan(\r\n            offer.offerId,\r\n            offer.offerType,\r\n            offer.principalToken,\r\n            offer.collateralToken,\r\n            principalAmount,\r\n            collateralAmount,\r\n            collateralPriceInUSD,\r\n            offer.interestRate,\r\n            offer.daysToMaturity,\r\n            principalAmount,\r\n            offer.creator,\r\n            _msgSender()\r\n        );\r\n\r\n        _offerManager.afterOfferBorrowingLoan(\r\n            offerId,\r\n            principalAmount,\r\n            collateralAmount\r\n        );\r\n\r\n        uint256 borrowedAmountInUSD = _priceFeed.amountInUSD(\r\n            offer.principalToken,\r\n            principalAmount\r\n        );\r\n\r\n        _activity.borrowLoan(offer.creator, borrowedAmountInUSD);\r\n    }\r\n\r\n    /// @notice accept new borrowing request placed on a lender's offer\r\n    function acceptBorrowingRequest(uint256 requestId) public whenNotPaused {\r\n        RequestLibrary.Request memory request = _offerManager.getRequest(\r\n            requestId\r\n        );\r\n\r\n        OfferLibrary.Offer memory offer = _offerManager.getOffer(\r\n            request.offerId\r\n        );\r\n\r\n        uint256 principalAmount = percentageOf(\r\n            offer.initialPrincipal,\r\n            request.percentage\r\n        );\r\n\r\n        transfer(\r\n            request.offerId,\r\n            request.creator,\r\n            request.collateralAmount,\r\n            request.collateralToken,\r\n            Type.LOCKED\r\n        );\r\n\r\n        _loanManager.createLoan(\r\n            request.offerId,\r\n            offer.offerType,\r\n            offer.principalToken,\r\n            request.collateralToken,\r\n            principalAmount,\r\n            request.collateralAmount,\r\n            request.collateralPriceInUSD,\r\n            request.interestRate,\r\n            request.daysToMaturity,\r\n            principalAmount,\r\n            request.creator,\r\n            _msgSender()\r\n        );\r\n\r\n        _offerManager.afterOfferBorrowingLoan(\r\n            request.offerId,\r\n            principalAmount,\r\n            request.collateralAmount\r\n        );\r\n\r\n        _offerManager.acceptRequest(requestId, _msgSender());\r\n\r\n        uint256 amountBorrowedInUSD = _priceFeed.amountInUSD(\r\n            offer.principalToken,\r\n            principalAmount\r\n        );\r\n\r\n        _activity.borrowLoan(request.creator, amountBorrowedInUSD);\r\n    }\r\n\r\n    // @borrower\r\n    function createBorrowingOffer(\r\n        address principalToken,\r\n        uint256 principalAmount,\r\n        address collateralToken,\r\n        uint256 interestRate,\r\n        uint16 daysToMaturity,\r\n        uint16 hoursToExpire\r\n    ) public payable whenNotPaused {\r\n        uint256 principalAmountInUSD = _priceFeed.amountInUSD(\r\n            principalToken,\r\n            principalAmount\r\n        );\r\n\r\n        uint160 ltvRatio = _ltvRatio.getRelativeLTV(\r\n            _msgSender(),\r\n            principalAmountInUSD\r\n        );\r\n\r\n        uint256 collateralNormalAmount = _priceFeed.exchangeRate(\r\n            principalToken,\r\n            collateralToken,\r\n            principalAmount\r\n        );\r\n\r\n        uint256 collateralAmount = percentageOf(\r\n            collateralNormalAmount,\r\n            ltvRatio / _ltvRatio.getBase()\r\n        );\r\n\r\n        if (collateralToken == nativeAddress) {\r\n            require(msg.value >= collateralAmount);\r\n        } else {\r\n            ERC20(collateralToken).safeTransferFrom(\r\n                _msgSender(),\r\n                address(this),\r\n                collateralAmount\r\n            );\r\n        }\r\n\r\n        _offerManager.createBorrowingOffer(\r\n            principalToken,\r\n            collateralToken,\r\n            collateralAmount,\r\n            principalAmount,\r\n            interestRate,\r\n            daysToMaturity,\r\n            hoursToExpire,\r\n            _msgSender()\r\n        );\r\n\r\n        uint256 amountInUSD = _priceFeed.amountInUSD(\r\n            collateralToken,\r\n            collateralAmount\r\n        );\r\n\r\n        _activity.dropCollateral(_msgSender(), amountInUSD);\r\n    }\r\n\r\n    // @borrower\r\n    function createBorrowingRequest(\r\n        uint256 offerId,\r\n        uint16 percentage,\r\n        address collateralToken,\r\n        uint256 interestRate,\r\n        uint16 daysToMaturity,\r\n        uint16 hoursToExpire\r\n    ) public payable whenNotPaused {\r\n        checkPercentage(percentage);\r\n\r\n        OfferLibrary.Offer memory offer = _offerManager.getOffer(offerId);\r\n\r\n        require(\r\n            _offerManager.isCollateralSupported(offerId, collateralToken),\r\n            \"ERR_COLLATERAL_NOT_SUPPORTED\"\r\n        );\r\n\r\n        uint256 principalAmount = percentageOf(\r\n            offer.initialPrincipal,\r\n            percentage\r\n        );\r\n\r\n        uint256 principalPriceInUSD = _priceFeed.amountInUSD(\r\n            offer.principalToken,\r\n            principalAmount\r\n        );\r\n\r\n        uint160 ltvRatio = _ltvRatio.getRelativeLTV(\r\n            _msgSender(),\r\n            principalPriceInUSD\r\n        );\r\n\r\n        uint256 collateralNormalAmount = _priceFeed.exchangeRate(\r\n            offer.principalToken,\r\n            collateralToken,\r\n            principalAmount\r\n        );\r\n\r\n        uint256 collateralAmount = percentageOf(\r\n            collateralNormalAmount,\r\n            ltvRatio / _ltvRatio.getBase()\r\n        );\r\n\r\n        if (collateralToken == nativeAddress) {\r\n            require(collateralAmount >= msg.value);\r\n        } else {\r\n            ERC20(collateralToken).safeTransferFrom(\r\n                _msgSender(),\r\n                address(this),\r\n                collateralAmount\r\n            );\r\n        }\r\n\r\n        uint256 collateralPriceInUSD = _priceFeed.amountInUSD(\r\n            collateralToken,\r\n            collateralAmount\r\n        );\r\n\r\n        _offerManager.createBorrowingRequest(\r\n            percentage,\r\n            collateralToken,\r\n            collateralAmount,\r\n            collateralPriceInUSD,\r\n            ltvRatio,\r\n            interestRate,\r\n            daysToMaturity,\r\n            hoursToExpire,\r\n            _msgSender(),\r\n            offerId\r\n        );\r\n\r\n        _activity.dropCollateral(_msgSender(), collateralPriceInUSD);\r\n    }\r\n\r\n    // @borrower\r\n    function acceptLendingOffer(\r\n        uint256 offerId,\r\n        uint16 percentage,\r\n        address collateralToken\r\n    ) public payable whenNotPaused {\r\n        checkPercentage(percentage);\r\n\r\n        OfferLibrary.Offer memory offer = _offerManager.getOffer(offerId);\r\n\r\n        require(\r\n            _offerManager.isCollateralSupported(offerId, collateralToken),\r\n            \"ERR_COLLATERAL_NOT_SUPPORTED\"\r\n        );\r\n\r\n        uint256 principalAmount = percentageOf(\r\n            offer.initialPrincipal,\r\n            percentage\r\n        );\r\n\r\n        uint256 principalPriceInUSD = _priceFeed.amountInUSD(\r\n            offer.principalToken,\r\n            principalAmount\r\n        );\r\n\r\n        uint160 ltvRatio = _ltvRatio.getRelativeLTV(\r\n            _msgSender(),\r\n            principalPriceInUSD\r\n        );\r\n\r\n        /* calculate the collateral amount */\r\n        uint256 collateralNormalAmount = _priceFeed.exchangeRate(\r\n            offer.principalToken,\r\n            collateralToken,\r\n            principalAmount\r\n        );\r\n\r\n        uint256 collateralAmount = percentageOf(\r\n            collateralNormalAmount,\r\n            ltvRatio / _ltvRatio.getBase()\r\n        );\r\n\r\n        if (collateralToken == nativeAddress) {\r\n            require(collateralAmount >= msg.value, \"ERR_COLLATERAL_AMOUNT\");\r\n        } else {\r\n            ERC20(collateralToken).safeTransferFrom(\r\n                _msgSender(),\r\n                address(this),\r\n                collateralAmount\r\n            );\r\n        }\r\n\r\n        transfer(\r\n            offerId,\r\n            _msgSender(),\r\n            collateralAmount,\r\n            collateralToken,\r\n            Type.LOCKED\r\n        );\r\n\r\n        if (offer.principalToken == nativeAddress) {\r\n            payable(_msgSender()).transfer(principalAmount);\r\n        } else {\r\n            ERC20(offer.principalToken).safeTransfer(\r\n                _msgSender(),\r\n                principalAmount\r\n            );\r\n        }\r\n\r\n        transfer(\r\n            offerId,\r\n            _msgSender(),\r\n            principalAmount,\r\n            offer.principalToken,\r\n            Type.CLAIMED\r\n        );\r\n\r\n        uint256 collateralPriceInUSD = _priceFeed.amountInUSD(\r\n            collateralToken,\r\n            collateralAmount\r\n        );\r\n\r\n        _loanManager.createLoan(\r\n            offerId,\r\n            offer.offerType,\r\n            offer.principalToken,\r\n            collateralToken,\r\n            principalAmount,\r\n            collateralAmount,\r\n            collateralPriceInUSD,\r\n            offer.interestRate,\r\n            offer.daysToMaturity,\r\n            0,\r\n            _msgSender(),\r\n            offer.creator\r\n        );\r\n\r\n        _offerManager.afterOfferLendingLoan(offerId, principalAmount);\r\n\r\n        uint256 amountBorrowedInUSD = _priceFeed.amountInUSD(\r\n            offer.principalToken,\r\n            principalAmount\r\n        );\r\n\r\n        _activity.borrowLoan(_msgSender(), amountBorrowedInUSD);\r\n\r\n        _activity.dropCollateral(_msgSender(), collateralPriceInUSD);\r\n    }\r\n\r\n    // @borrower\r\n    function acceptLendingRequest(uint256 requestId)\r\n        public\r\n        payable\r\n        whenNotPaused\r\n    {\r\n        RequestLibrary.Request memory request = _offerManager.getRequest(\r\n            requestId\r\n        );\r\n\r\n        OfferLibrary.Offer memory offer = _offerManager.getOffer(\r\n            request.offerId\r\n        );\r\n\r\n        uint256 collateralAmount = percentageOf(\r\n            offer.initialCollateral,\r\n            request.percentage\r\n        );\r\n\r\n        uint256 principalAmount = percentageOf(\r\n            offer.initialPrincipal,\r\n            request.percentage\r\n        );\r\n\r\n        transfer(\r\n            request.offerId,\r\n            _msgSender(),\r\n            collateralAmount,\r\n            offer.collateralToken,\r\n            Type.LOCKED\r\n        );\r\n\r\n        if (offer.principalToken == nativeAddress) {\r\n            payable(_msgSender()).transfer(principalAmount);\r\n        } else {\r\n            ERC20(offer.principalToken).safeTransfer(\r\n                _msgSender(),\r\n                principalAmount\r\n            );\r\n        }\r\n\r\n        transfer(\r\n            request.offerId,\r\n            _msgSender(),\r\n            principalAmount,\r\n            offer.principalToken,\r\n            Type.CLAIMED\r\n        );\r\n\r\n        uint256 collateralPriceInUSD = _priceFeed.amountInUSD(\r\n            offer.collateralToken,\r\n            collateralAmount\r\n        );\r\n\r\n        _loanManager.createLoan(\r\n            request.offerId,\r\n            offer.offerType,\r\n            offer.principalToken,\r\n            offer.collateralToken,\r\n            principalAmount,\r\n            collateralAmount,\r\n            collateralPriceInUSD,\r\n            request.interestRate,\r\n            request.daysToMaturity,\r\n            0,\r\n            _msgSender(),\r\n            request.creator\r\n        );\r\n\r\n        _offerManager.afterOfferLendingLoan(offer.offerId, principalAmount);\r\n\r\n        _offerManager.acceptRequest(requestId, _msgSender());\r\n\r\n        uint256 amountBorrowedInUSD = _priceFeed.amountInUSD(\r\n            offer.principalToken,\r\n            principalAmount\r\n        );\r\n\r\n        _activity.borrowLoan(_msgSender(), amountBorrowedInUSD);\r\n    }\r\n\r\n    // @lender\r\n    function reActivateOffer(uint256 offerId, uint16 toExpire)\r\n        public\r\n        whenNotPaused\r\n    {\r\n        _offerManager.reActivateOffer(offerId, toExpire, _msgSender());\r\n    }\r\n\r\n    // @borrower\r\n    function repayLoan(uint256 loanId, uint16 percentage)\r\n        public\r\n        payable\r\n        whenNotPaused\r\n    {\r\n        checkPercentage(percentage);\r\n\r\n        LoanLibrary.Loan memory loan = _loanManager.getLoan(loanId);\r\n\r\n        require(loan.borrower == _msgSender(), \"ERR_NOT_BORROWER\");\r\n\r\n        uint256 time = block.timestamp;\r\n        uint256 ellapsedSecs = (time - loan.startDate);\r\n\r\n        uint256 principalAmount = percentageOf(\r\n            loan.initialPrincipal,\r\n            percentage\r\n        );\r\n\r\n        uint256 collateralAmount = percentageOf(\r\n            loan.initialCollateral,\r\n            percentage\r\n        );\r\n\r\n        uint256 repaymentPrincipal = getFullInterestAmount(\r\n            principalAmount,\r\n            ellapsedSecs,\r\n            loan.interestRate\r\n        );\r\n\r\n        uint256 interestPaid = (repaymentPrincipal - principalAmount);\r\n        uint256 fee = percentageOf(interestPaid, _feeManager.feePercentage());\r\n\r\n        uint256 unClaimedInterest = (interestPaid - fee);\r\n\r\n        _feeManager.credit(loan.principalToken, fee);\r\n\r\n        bool completed = _loanManager.repayLoan(\r\n            loanId,\r\n            unClaimedInterest,\r\n            principalAmount,\r\n            collateralAmount\r\n        );\r\n\r\n        if (loan.principalToken == nativeAddress) {\r\n            require(msg.value >= repaymentPrincipal);\r\n        } else {\r\n            ERC20(loan.principalToken).safeTransferFrom(\r\n                _msgSender(),\r\n                address(this),\r\n                repaymentPrincipal\r\n            );\r\n        }\r\n\r\n        transfer(\r\n            loan.offerId,\r\n            _msgSender(),\r\n            principalAmount.add(unClaimedInterest),\r\n            loan.principalToken,\r\n            Type.ADDED\r\n        );\r\n\r\n        uint256 interestPaidInUSD = _priceFeed.amountInUSD(\r\n            loan.principalToken,\r\n            (repaymentPrincipal - principalAmount)\r\n        );\r\n\r\n        uint256 amountPaidInUSD = _priceFeed.amountInUSD(\r\n            loan.principalToken,\r\n            principalAmount\r\n        );\r\n\r\n        _activity.repayLoan(\r\n            _msgSender(),\r\n            amountPaidInUSD,\r\n            interestPaidInUSD,\r\n            completed\r\n        );\r\n    }\r\n\r\n    // =========== Request Functions =========== //\r\n\r\n    function rejectRequest(uint256 requestId) public whenNotPaused {\r\n        _offerManager.rejectRequest(requestId, _msgSender());\r\n    }\r\n\r\n    function cancelRequest(uint256 requestId) public whenNotPaused {\r\n        RequestLibrary.Request memory request = _offerManager.getRequest(\r\n            requestId\r\n        );\r\n\r\n        OfferLibrary.Offer memory offer = _offerManager.getOffer(\r\n            request.offerId\r\n        );\r\n\r\n        if (request.requestType == RequestLibrary.Type.LENDING_REQUEST) {\r\n            uint256 principalAmount = percentageOf(\r\n                offer.initialPrincipal,\r\n                request.percentage\r\n            );\r\n\r\n            if (offer.principalToken == nativeAddress) {\r\n                payable(_msgSender()).transfer(principalAmount);\r\n            } else {\r\n                ERC20(offer.principalToken).safeTransfer(\r\n                    _msgSender(),\r\n                    principalAmount\r\n                );\r\n            }\r\n        } else {\r\n            if (offer.collateralToken == nativeAddress) {\r\n                payable(_msgSender()).transfer(request.collateralAmount);\r\n            } else {\r\n                ERC20(offer.collateralToken).safeTransfer(\r\n                    _msgSender(),\r\n                    request.collateralAmount\r\n                );\r\n            }\r\n        }\r\n\r\n        _offerManager.cancelRequest(requestId, _msgSender());\r\n    }\r\n\r\n    // =========== Claim Functions =========== //\r\n\r\n    function claimCollateral(uint256 loanId) public nonReentrant whenNotPaused {\r\n        (uint256 amount, uint256 offerId, address token) = _loanManager\r\n            .claimCollateral(loanId, _msgSender());\r\n\r\n        if (token == nativeAddress) {\r\n            payable(_msgSender()).transfer(amount);\r\n        } else {\r\n            ERC20(token).safeTransfer(_msgSender(), amount);\r\n        }\r\n\r\n        transfer(offerId, _msgSender(), amount, token, Type.CLAIMED);\r\n    }\r\n\r\n    function claimBorrowedPrincipal(uint256 loanId)\r\n        public\r\n        nonReentrant\r\n        whenNotPaused\r\n    {\r\n        (uint256 amount, uint256 offerId, address token) = _loanManager\r\n            .claimBorrowedPrincipal(loanId, _msgSender());\r\n\r\n        if (token == nativeAddress) {\r\n            payable(_msgSender()).transfer(amount);\r\n        } else {\r\n            ERC20(token).safeTransfer(_msgSender(), amount);\r\n        }\r\n\r\n        transfer(offerId, _msgSender(), amount, token, Type.CLAIMED);\r\n    }\r\n\r\n    function claimPrincipal(uint256 loanId) public nonReentrant whenNotPaused {\r\n        (uint256 amount, uint256 offerId, address token) = _loanManager\r\n            .claimPrincipal(loanId, _msgSender());\r\n\r\n        if (token == nativeAddress) {\r\n            payable(_msgSender()).transfer(amount);\r\n        } else {\r\n            ERC20(token).safeTransfer(_msgSender(), amount);\r\n        }\r\n\r\n        transfer(offerId, _msgSender(), amount, token, Type.CLAIMED);\r\n    }\r\n\r\n    function claimDefaultCollateral(uint256 loanId)\r\n        public\r\n        nonReentrant\r\n        whenNotPaused\r\n    {\r\n        (uint256 amount, uint256 offerId, address token) = _loanManager\r\n            .claimDefaultCollateral(loanId, _msgSender());\r\n\r\n        if (token == nativeAddress) {\r\n            payable(_msgSender()).transfer(amount);\r\n        } else {\r\n            ERC20(token).safeTransfer(_msgSender(), amount);\r\n        }\r\n\r\n        transfer(offerId, _msgSender(), amount, token, Type.CLAIMED);\r\n    }\r\n\r\n    function repayLiquidatedLoan(uint256 loanId) public payable nonReentrant {}\r\n\r\n    // ============= ABOUT ============ //\r\n\r\n    function getVersion() public pure returns (uint256) {\r\n        return LENDINGPOOL_VERSION;\r\n    }\r\n\r\n    // ============= ADMIN FUNCTIONS =============== //\r\n\r\n    /// @dev this function will liquidate a loan when it has pass\r\n    /// maturity date + grace days.\r\n    /// It can be call by anyone\r\n    function liquidateLoan(uint256 loanId) public nonReentrant {\r\n        LoanLibrary.Loan memory loan = _loanManager.getLoan(loanId);\r\n\r\n        // calculate the duration of the loan\r\n        uint256 time = block.timestamp;\r\n        uint256 ellapsedSecs = (time - loan.startDate);\r\n\r\n        uint256 repaymentPrincipal = getFullInterestAmount(\r\n            loan.currentPrincipal,\r\n            ellapsedSecs,\r\n            loan.interestRate\r\n        );\r\n\r\n        uint256 repaymentCollateral = _priceFeed.exchangeRate(\r\n            loan.principalToken,\r\n            loan.collateralToken,\r\n            repaymentPrincipal\r\n        );\r\n\r\n        uint256 interestInCollateral = _priceFeed.exchangeRate(\r\n            loan.principalToken,\r\n            loan.collateralToken,\r\n            (repaymentPrincipal - loan.currentPrincipal)\r\n        );\r\n\r\n        uint256 principalPaid;\r\n        uint256 collateralRetrieved;\r\n        uint256 collateralFee;\r\n\r\n        uint256 fee = percentageOf(\r\n            interestInCollateral,\r\n            _feeManager.feePercentage()\r\n        );\r\n\r\n        if (loan.currentCollateral >= (repaymentCollateral - fee)) {\r\n            collateralRetrieved = (repaymentCollateral - fee);\r\n            principalPaid = loan.currentPrincipal;\r\n\r\n            if (loan.currentCollateral >= repaymentCollateral) {\r\n                collateralFee = fee;\r\n            } else {\r\n                collateralRetrieved = loan.currentCollateral;\r\n                collateralFee = (loan.currentCollateral -\r\n                    (repaymentCollateral - fee));\r\n            }\r\n        } else {\r\n            collateralRetrieved = loan.currentCollateral;\r\n\r\n            uint256 collateralInPrincipal = _priceFeed.exchangeRate(\r\n                loan.collateralToken,\r\n                loan.principalToken,\r\n                collateralRetrieved\r\n            );\r\n\r\n            principalPaid = collateralInPrincipal;\r\n            collateralFee = 0;\r\n        }\r\n\r\n        _feeManager.credit(loan.collateralToken, collateralFee);\r\n\r\n        _loanManager.liquidateLoan(\r\n            loanId,\r\n            principalPaid,\r\n            collateralRetrieved,\r\n            (collateralRetrieved - collateralFee)\r\n        );\r\n    }\r\n\r\n    function setFeeds(\r\n        address ltv_,\r\n        address activity_,\r\n        address priceFeed_\r\n    ) public onlyOwner nonReentrant {\r\n        _ltvRatio = ILoanToValueRatio(ltv_);\r\n        _activity = Activity(activity_);\r\n        _priceFeed = IPriceFeed(priceFeed_);\r\n    }\r\n\r\n    function setManagers(\r\n        address loanManager_,\r\n        address offerManager_,\r\n        address feeManager_\r\n    ) public onlyOwner nonReentrant {\r\n        _loanManager = ILoanManager(loanManager_);\r\n        _offerManager = IOfferManager(offerManager_);\r\n        _feeManager = IFeeManager(feeManager_);\r\n    }\r\n\r\n    /// @dev to claim developer revenue\r\n    function claim(\r\n        address token,\r\n        address payable receiver,\r\n        uint256 amount\r\n    ) public onlyOwner nonReentrant {\r\n        require(amount > 0, \"ERR_ZERO_AMOUNT\");\r\n        _feeManager.debit(token, amount);\r\n        if (token == nativeAddress) {\r\n            receiver.transfer(amount);\r\n        } else {\r\n            ERC20(token).safeTransfer(receiver, amount);\r\n        }\r\n    }\r\n}\r\n",
  "sourcePath": "C:\\Users\\DELL\\Documents\\darsh\\smart-contracts\\contracts\\LendingPool.sol",
  "compiler": {
    "name": "solc",
    "version": "0.8.17+commit.8df45f5f.Emscripten.clang"
  },
  "schemaVersion": "3.4.11",
  "updatedAt": "2023-02-22T13:20:39.938Z",
  "devdoc": {
    "author": "Arogundade Ibrahim*",
    "details": "Main point of interaction with the DARSH protocol's market - Users can:   # Create Lending/Borrowing offers   # Request for new terms on offers   # Repay (Fully/Installment)   # Claim principal and earnings   # Claim back collateral   # Cancel/Reject/Accept requests - All admin functions are callable by the deployer address",
    "kind": "dev",
    "methods": {
      "acceptOwnership()": {
        "details": "The new owner accepts the ownership transfer."
      },
      "claim(address,address,uint256)": {
        "details": "to claim developer revenue"
      },
      "createLendingOffer(uint256,address,address[],uint16,uint256,uint16)": {
        "details": "the principalAmount_ parameter is use for ERC20 tokens only"
      },
      "createLendingRequest(uint256,uint16,uint16,uint256,uint16)": {
        "details": "Explain to a developer any extra details"
      },
      "liquidateLoan(uint256)": {
        "details": "this function will liquidate a loan when it has pass maturity date + grace days. It can be call by anyone"
      },
      "owner()": {
        "details": "Returns the address of the current owner."
      },
      "paused()": {
        "details": "Returns true if the contract is paused, and false otherwise."
      },
      "pendingOwner()": {
        "details": "Returns the address of the pending owner."
      },
      "renounceOwnership()": {
        "details": "Leaves the contract without owner. It will not be possible to call `onlyOwner` functions anymore. Can only be called by the current owner. NOTE: Renouncing ownership will leave the contract without an owner, thereby removing any functionality that is only available to the owner."
      },
      "transferOwnership(address)": {
        "details": "Starts the ownership transfer of the contract to a new account. Replaces the pending transfer if there is one. Can only be called by the current owner."
      }
    },
    "stateVariables": {
      "LENDINGPOOL_VERSION": {
        "details": "contract version"
      },
      "nativeAddress": {
        "details": "for convienency this address is used to represent FTM just like ERC20"
      }
    },
    "title": "LendingPool contract",
    "version": 1
  },
  "userdoc": {
    "kind": "user",
    "methods": {
      "acceptBorrowingRequest(uint256)": {
        "notice": "accept new borrowing request placed on a lender's offer"
      },
      "createLendingOffer(uint256,address,address[],uint16,uint256,uint16)": {
        "notice": "This function creates a lending new lending offer"
      },
      "createLendingRequest(uint256,uint16,uint16,uint256,uint16)": {
        "notice": "Explain to an end user what this does"
      }
    },
    "version": 1
  }
}