{
  "contractName": "LendingPool",
  "abi": [
    {
      "inputs": [],
      "stateMutability": "nonpayable",
      "type": "constructor"
    },
    {
      "anonymous": false,
      "inputs": [
        {
          "indexed": true,
          "internalType": "address",
          "name": "previousOwner",
          "type": "address"
        },
        {
          "indexed": true,
          "internalType": "address",
          "name": "newOwner",
          "type": "address"
        }
      ],
      "name": "OwnershipTransferStarted",
      "type": "event"
    },
    {
      "anonymous": false,
      "inputs": [
        {
          "indexed": true,
          "internalType": "address",
          "name": "previousOwner",
          "type": "address"
        },
        {
          "indexed": true,
          "internalType": "address",
          "name": "newOwner",
          "type": "address"
        }
      ],
      "name": "OwnershipTransferred",
      "type": "event"
    },
    {
      "anonymous": false,
      "inputs": [
        {
          "indexed": false,
          "internalType": "address",
          "name": "account",
          "type": "address"
        }
      ],
      "name": "Paused",
      "type": "event"
    },
    {
      "anonymous": false,
      "inputs": [
        {
          "indexed": false,
          "internalType": "uint256",
          "name": "transferId",
          "type": "uint256"
        },
        {
          "indexed": false,
          "internalType": "uint256",
          "name": "offerId",
          "type": "uint256"
        },
        {
          "indexed": false,
          "internalType": "address",
          "name": "from",
          "type": "address"
        },
        {
          "indexed": false,
          "internalType": "uint256",
          "name": "amount",
          "type": "uint256"
        },
        {
          "indexed": false,
          "internalType": "address",
          "name": "token",
          "type": "address"
        },
        {
          "indexed": false,
          "internalType": "enum LendingPoolProvider.Type",
          "name": "transferType",
          "type": "uint8"
        },
        {
          "indexed": false,
          "internalType": "uint256",
          "name": "timestamp",
          "type": "uint256"
        }
      ],
      "name": "Transfer",
      "type": "event"
    },
    {
      "anonymous": false,
      "inputs": [
        {
          "indexed": false,
          "internalType": "address",
          "name": "account",
          "type": "address"
        }
      ],
      "name": "Unpaused",
      "type": "event"
    },
    {
      "inputs": [],
      "name": "INTEREST_RATE_DENOMINATOR",
      "outputs": [
        {
          "internalType": "uint256",
          "name": "",
          "type": "uint256"
        }
      ],
      "stateMutability": "view",
      "type": "function"
    },
    {
      "inputs": [],
      "name": "LENDINGPOOL_VERSION",
      "outputs": [
        {
          "internalType": "uint256",
          "name": "",
          "type": "uint256"
        }
      ],
      "stateMutability": "view",
      "type": "function"
    },
    {
      "inputs": [],
      "name": "PERCENT",
      "outputs": [
        {
          "internalType": "uint16",
          "name": "",
          "type": "uint16"
        }
      ],
      "stateMutability": "view",
      "type": "function"
    },
    {
      "inputs": [],
      "name": "acceptOwnership",
      "outputs": [],
      "stateMutability": "nonpayable",
      "type": "function"
    },
    {
      "inputs": [
        {
          "internalType": "uint16",
          "name": "percentage",
          "type": "uint16"
        }
      ],
      "name": "checkPercentage",
      "outputs": [],
      "stateMutability": "pure",
      "type": "function"
    },
    {
      "inputs": [
        {
          "internalType": "uint256",
          "name": "principal",
          "type": "uint256"
        },
        {
          "internalType": "uint256",
          "name": "durationSecs",
          "type": "uint256"
        },
        {
          "internalType": "uint256",
          "name": "interestRate",
          "type": "uint256"
        }
      ],
      "name": "getFullInterestAmount",
      "outputs": [
        {
          "internalType": "uint256",
          "name": "",
          "type": "uint256"
        }
      ],
      "stateMutability": "pure",
      "type": "function"
    },
    {
      "inputs": [],
      "name": "nativeAddress",
      "outputs": [
        {
          "internalType": "address",
          "name": "",
          "type": "address"
        }
      ],
      "stateMutability": "view",
      "type": "function"
    },
    {
      "inputs": [],
      "name": "owner",
      "outputs": [
        {
          "internalType": "address",
          "name": "",
          "type": "address"
        }
      ],
      "stateMutability": "view",
      "type": "function"
    },
    {
      "inputs": [],
      "name": "paused",
      "outputs": [
        {
          "internalType": "bool",
          "name": "",
          "type": "bool"
        }
      ],
      "stateMutability": "view",
      "type": "function"
    },
    {
      "inputs": [],
      "name": "pendingOwner",
      "outputs": [
        {
          "internalType": "address",
          "name": "",
          "type": "address"
        }
      ],
      "stateMutability": "view",
      "type": "function"
    },
    {
      "inputs": [
        {
          "internalType": "uint256",
          "name": "total",
          "type": "uint256"
        },
        {
          "internalType": "uint160",
          "name": "percent",
          "type": "uint160"
        }
      ],
      "name": "percentageOf",
      "outputs": [
        {
          "internalType": "uint256",
          "name": "",
          "type": "uint256"
        }
      ],
      "stateMutability": "pure",
      "type": "function"
    },
    {
      "inputs": [],
      "name": "renounceOwnership",
      "outputs": [],
      "stateMutability": "nonpayable",
      "type": "function"
    },
    {
      "inputs": [
        {
          "internalType": "uint256",
          "name": "offerId",
          "type": "uint256"
        },
        {
          "internalType": "address",
          "name": "from",
          "type": "address"
        },
        {
          "internalType": "uint256",
          "name": "amount",
          "type": "uint256"
        },
        {
          "internalType": "address",
          "name": "token",
          "type": "address"
        },
        {
          "internalType": "enum LendingPoolProvider.Type",
          "name": "transferType",
          "type": "uint8"
        }
      ],
      "name": "transfer",
      "outputs": [],
      "stateMutability": "nonpayable",
      "type": "function"
    },
    {
      "inputs": [
        {
          "internalType": "address",
          "name": "newOwner",
          "type": "address"
        }
      ],
      "name": "transferOwnership",
      "outputs": [],
      "stateMutability": "nonpayable",
      "type": "function"
    },
    {
      "inputs": [
        {
          "internalType": "uint256",
          "name": "principalAmount_",
          "type": "uint256"
        },
        {
          "internalType": "address",
          "name": "principalToken",
          "type": "address"
        },
        {
          "internalType": "address[]",
          "name": "collateralTokens",
          "type": "address[]"
        },
        {
          "internalType": "uint16",
          "name": "daysToMaturity",
          "type": "uint16"
        },
        {
          "internalType": "uint256",
          "name": "interestRate",
          "type": "uint256"
        },
        {
          "internalType": "uint16",
          "name": "daysToExpire",
          "type": "uint16"
        }
      ],
      "name": "createLendingOffer",
      "outputs": [],
      "stateMutability": "payable",
      "type": "function"
    },
    {
      "inputs": [
        {
          "internalType": "address",
          "name": "principalToken",
          "type": "address"
        },
        {
          "internalType": "uint256",
          "name": "principalAmount",
          "type": "uint256"
        },
        {
          "internalType": "address",
          "name": "collateralToken",
          "type": "address"
        },
        {
          "internalType": "uint256",
          "name": "interestRate",
          "type": "uint256"
        },
        {
          "internalType": "uint16",
          "name": "daysToMaturity",
          "type": "uint16"
        },
        {
          "internalType": "uint16",
          "name": "hoursToExpire",
          "type": "uint16"
        }
      ],
      "name": "createBorrowingOffer",
      "outputs": [],
      "stateMutability": "payable",
      "type": "function"
    },
    {
      "inputs": [
        {
          "internalType": "uint256",
          "name": "offerId",
          "type": "uint256"
        },
        {
          "internalType": "uint16",
          "name": "percentage",
          "type": "uint16"
        },
        {
          "internalType": "uint16",
          "name": "daysToMaturity",
          "type": "uint16"
        },
        {
          "internalType": "uint256",
          "name": "interestRate",
          "type": "uint256"
        },
        {
          "internalType": "uint16",
          "name": "hoursToExpire",
          "type": "uint16"
        }
      ],
      "name": "createLendingRequest",
      "outputs": [],
      "stateMutability": "payable",
      "type": "function"
    },
    {
      "inputs": [
        {
          "internalType": "uint256",
          "name": "offerId",
          "type": "uint256"
        },
        {
          "internalType": "uint16",
          "name": "percentage",
          "type": "uint16"
        },
        {
          "internalType": "address",
          "name": "collateralToken",
          "type": "address"
        },
        {
          "internalType": "uint256",
          "name": "interestRate",
          "type": "uint256"
        },
        {
          "internalType": "uint16",
          "name": "daysToMaturity",
          "type": "uint16"
        },
        {
          "internalType": "uint16",
          "name": "hoursToExpire",
          "type": "uint16"
        }
      ],
      "name": "createBorrowingRequest",
      "outputs": [],
      "stateMutability": "payable",
      "type": "function"
    },
    {
      "inputs": [
        {
          "internalType": "uint256",
          "name": "offerId",
          "type": "uint256"
        },
        {
          "internalType": "uint16",
          "name": "percentage",
          "type": "uint16"
        }
      ],
      "name": "acceptBorrowingOffer",
      "outputs": [],
      "stateMutability": "payable",
      "type": "function"
    },
    {
      "inputs": [
        {
          "internalType": "uint256",
          "name": "offerId",
          "type": "uint256"
        },
        {
          "internalType": "uint16",
          "name": "percentage",
          "type": "uint16"
        },
        {
          "internalType": "address",
          "name": "collateralToken",
          "type": "address"
        }
      ],
      "name": "acceptLendingOffer",
      "outputs": [],
      "stateMutability": "payable",
      "type": "function"
    },
    {
      "inputs": [
        {
          "internalType": "uint256",
          "name": "offerId",
          "type": "uint256"
        },
        {
          "internalType": "uint16",
          "name": "percentage",
          "type": "uint16"
        }
      ],
      "name": "removePrincipal",
      "outputs": [],
      "stateMutability": "nonpayable",
      "type": "function"
    },
    {
      "inputs": [
        {
          "internalType": "uint256",
          "name": "offerId",
          "type": "uint256"
        },
        {
          "internalType": "uint16",
          "name": "percentage",
          "type": "uint16"
        }
      ],
      "name": "removeCollateral",
      "outputs": [],
      "stateMutability": "nonpayable",
      "type": "function"
    },
    {
      "inputs": [
        {
          "internalType": "uint256",
          "name": "requestId",
          "type": "uint256"
        }
      ],
      "name": "acceptBorrowingRequest",
      "outputs": [],
      "stateMutability": "nonpayable",
      "type": "function"
    },
    {
      "inputs": [
        {
          "internalType": "uint256",
          "name": "requestId",
          "type": "uint256"
        }
      ],
      "name": "acceptLendingRequest",
      "outputs": [],
      "stateMutability": "payable",
      "type": "function"
    },
    {
      "inputs": [
        {
          "internalType": "uint256",
          "name": "offerId",
          "type": "uint256"
        },
        {
          "internalType": "uint16",
          "name": "toExpire",
          "type": "uint16"
        }
      ],
      "name": "reActivateOffer",
      "outputs": [],
      "stateMutability": "nonpayable",
      "type": "function"
    },
    {
      "inputs": [
        {
          "internalType": "uint256",
          "name": "loanId",
          "type": "uint256"
        },
        {
          "internalType": "uint16",
          "name": "percentage",
          "type": "uint16"
        }
      ],
      "name": "repayLoan",
      "outputs": [],
      "stateMutability": "payable",
      "type": "function"
    },
    {
      "inputs": [
        {
          "internalType": "uint256",
          "name": "loanId",
          "type": "uint256"
        }
      ],
      "name": "repayLiquidatedLoan",
      "outputs": [],
      "stateMutability": "payable",
      "type": "function"
    },
    {
      "inputs": [
        {
          "internalType": "uint256",
          "name": "requestId",
          "type": "uint256"
        }
      ],
      "name": "rejectRequest",
      "outputs": [],
      "stateMutability": "nonpayable",
      "type": "function"
    },
    {
      "inputs": [
        {
          "internalType": "uint256",
          "name": "requestId",
          "type": "uint256"
        }
      ],
      "name": "cancelOfferRequest",
      "outputs": [],
      "stateMutability": "nonpayable",
      "type": "function"
    },
    {
      "inputs": [
        {
          "internalType": "uint256",
          "name": "loanId",
          "type": "uint256"
        }
      ],
      "name": "claimCollateral",
      "outputs": [],
      "stateMutability": "nonpayable",
      "type": "function"
    },
    {
      "inputs": [
        {
          "internalType": "uint256",
          "name": "loanId",
          "type": "uint256"
        }
      ],
      "name": "claimBorrowedPrincipal",
      "outputs": [],
      "stateMutability": "nonpayable",
      "type": "function"
    },
    {
      "inputs": [
        {
          "internalType": "uint256",
          "name": "loanId",
          "type": "uint256"
        }
      ],
      "name": "claimPrincipal",
      "outputs": [],
      "stateMutability": "nonpayable",
      "type": "function"
    },
    {
      "inputs": [
        {
          "internalType": "uint256",
          "name": "loanId",
          "type": "uint256"
        }
      ],
      "name": "claimDefaultCollateral",
      "outputs": [],
      "stateMutability": "nonpayable",
      "type": "function"
    },
    {
      "inputs": [
        {
          "internalType": "uint256",
          "name": "loanId",
          "type": "uint256"
        }
      ],
      "name": "liquidateLoan",
      "outputs": [],
      "stateMutability": "nonpayable",
      "type": "function"
    },
    {
      "inputs": [],
      "name": "getVersion",
      "outputs": [
        {
          "internalType": "uint256",
          "name": "",
          "type": "uint256"
        }
      ],
      "stateMutability": "pure",
      "type": "function"
    },
    {
      "inputs": [
        {
          "internalType": "address",
          "name": "ltv_",
          "type": "address"
        },
        {
          "internalType": "address",
          "name": "activity_",
          "type": "address"
        },
        {
          "internalType": "address",
          "name": "priceFeed_",
          "type": "address"
        }
      ],
      "name": "setFeeds",
      "outputs": [],
      "stateMutability": "nonpayable",
      "type": "function"
    },
    {
      "inputs": [
        {
          "internalType": "address",
          "name": "loanManager_",
          "type": "address"
        },
        {
          "internalType": "address",
          "name": "offerManager_",
          "type": "address"
        },
        {
          "internalType": "address",
          "name": "feeManager_",
          "type": "address"
        }
      ],
      "name": "setManagers",
      "outputs": [],
      "stateMutability": "nonpayable",
      "type": "function"
    },
    {
      "inputs": [
        {
          "internalType": "address",
          "name": "token",
          "type": "address"
        },
        {
          "internalType": "address payable",
          "name": "receiver",
          "type": "address"
        },
        {
          "internalType": "uint256",
          "name": "amount",
          "type": "uint256"
        }
      ],
      "name": "claim",
      "outputs": [],
      "stateMutability": "nonpayable",
      "type": "function"
    }
  ],
  "bytecode": "0x6080806040523461006d576001805560035460028054336001600160a01b0319821681179092556001600160a01b03167f8be0079c531659141344cd1fd0a4f28419497f9722a3daafe3b4186f6b6457e0600080a36001600160a81b0319166003556143b090816100738239f35b600080fdfe6080604052600436101561001257600080fd5b6000803560e01c80630548db121461364d5780630c49f023146134e75780630d8e6e2c146129975780630eb70eaf1461330657806310b3ed2a146132a95780632672a87a14612dcf5780632d7788db14612d745780632e47633714612d4b5780634add7c82146129b35780634ae322351461299757806353188b14146125c85780635c7f31aa146121245780635c975abb146120fe5780635d03999f1461208957806361ba944314612074578063628118ee14611c82578063669c987f14611bf75780636fb9316714611aab578063715018a614611a4357806379ba50971461197f5780637a5ae69e146119565780637cc5805a146117f55780638da5cb5b146117cc578063996cba681461169f578063a33928da146112fb578063a6aea4151461129e578063b2ac850d1461122a578063b85a8b201461120e578063c1bc89ef14611011578063c49785b414610fb4578063cc3266e814610f91578063ccdd9f5d14610b4d578063e0b2695914610b19578063e0f7dffd14610acd578063e30c397814610aa4578063e826fbe714610343578063f2fde38b146102d55763f9af0579146101bf57600080fd5b346102d25760203660031901126102d2576101d86140d7565b6101e06137f3565b60075460405163f400c74360e01b81526004803590820152336024820152906001600160a01b039060609083908316818681604481015b03925af19081156102715783908493859361029b575b50821660008051602061435b83398151915281036102865750838082801561027c575b8280929181923390f1156102715761026a925b3390614181565b6001805580f35b6040513d85823e3d90fd5b6108fc9150610250565b926102968261026a953390613ddb565b610263565b915092506102c0915060603d81116102cb575b6102b88183613761565b8101906140b5565b92919092913861022d565b503d6102ae565b80fd5b50346102d25760203660031901126102d2576102ef6136c2565b6102f761379b565b600380546001600160a01b0319166001600160a01b039283169081179091556002549091167f38d16b8cac22d99fc7c124b9cd0de2d3fa1faef420bfe791d8c362d765e227008380a380f35b5060603660031901126102d257610358613704565b6103606136ee565b6103686137f3565b610371826142b4565b6008546040516322bc934560e11b81526004803590820152926001600160a01b03909116908484602481855afa938415610872578594610a80575b50604051633970062960e01b815260048035908201526001600160a01b0384166024820152916020908390604490829089905af19182156108725761040c926103fc918791610a51575b50613c86565b61ffff6080850151911690614290565b600554604084810151905163912d228f60e01b81526001600160a01b0391821660048201526024810184905292949291602091839160449183918a91165af1908115610872578591610a1e575b506006546040516322a0fe3360e21b81523360048201526024810192909252602090829060449082906001600160a01b03165afa9081156108725785916109e4575b506005546040838101519051631c07d98160e21b81526001600160a01b03918216600482015285821660248201526044810187905291602091839160649183918b91165af19081156108e55786916109b2575b50600654604051636882509b60e11b815290602090829060049082906001600160a01b03165afa9081156109a757879161095d575b5061053b9260ff610535921690613ad8565b90614290565b60008051602061435b8339815191529390856001600160a01b03851686810361094757505034811061090a5785945b6105788583336004356141d5565b60408401516001600160a01b031690839082036108fa57505084808380156108f0575b8280929181923390f11561084e575b60408301516105c6906001600160a01b03168333600435614181565b60055460405163912d228f60e01b81526001600160a01b03868116600483015260248201849052909591602091879160449183918b91165af19485156108e55786956108ac575b506007546101c085015160209285926001600160a01b031691899061063181613cd2565b6106858a60018060a01b0360408c015116928b61ffff60c060a083015192015116908d61012060018060a01b0391015116936040519c8d9b8c9a8b996319467e2760e01b8b52339760043560048d01613d66565b03925af180156108725761087d575b506008546001600160a01b0316803b1561081057848091604460405180948193630a5ff10960e41b835260043560048401528760248401525af1908115610872578591610859575b5050600554604083810151905163912d228f60e01b81526001600160a01b0391821660048201526024810193909352602091839160449183918991165af190811561084e578491610814575b50600454610120909201516001600160a01b03928316921690823b15610810576040516328cdd6eb60e11b81526001600160a01b0392909216600483015233602483015260448201529083908290606490829084905af19081156102715783916107f9575b50506004546001600160a01b0316803b156107f5576040516363a6c98160e01b8152336004820152602481019290925282908290818381604481015b03925af180156107ea576107da5750f35b6107e390613737565b6102d25780f35b6040513d84823e3d90fd5b5050fd5b61080290613737565b61080d57813861078d565b50fd5b8480fd5b9350506020833d602011610846575b8161083060209383613761565b810103126108415783925138610728565b600080fd5b3d9150610823565b6040513d86823e3d90fd5b61086290613737565b61086d5783386106dc565b505050fd5b6040513d87823e3d90fd5b6020809295503d83116108a5575b6108958183613761565b8101031261084157839238610694565b503d61088b565b955093506020853d6020116108dd575b816108c960209383613761565b81010312610841579351859490938261060d565b3d91506108bc565b6040513d88823e3d90fd5b6108fc915061059b565b610905913390613ddb565b6105aa565b60405162461bcd60e51b815260206004820152601560248201527411549497d0d3d31310551154905317d05353d55395605a1b6044820152606490fd5b82610958919792973090339061383a565b61056a565b90506020813d60201161099f575b8161097860209383613761565b8101031261099b5761053b9260ff61099261053593613aca565b92505092610523565b8680fd5b3d915061096b565b6040513d89823e3d90fd5b90506020813d6020116109dc575b816109cd60209383613761565b810103126108415751386104ee565b3d91506109c0565b90506020813d602011610a16575b816109ff60209383613761565b8101031261081057610a1090613ab6565b3861049b565b3d91506109f2565b90506020813d602011610a49575b81610a3960209383613761565b8101031261084157516020610459565b3d9150610a2c565b610a73915060203d602011610a79575b610a6b8183613761565b81019061388d565b386103f6565b503d610a61565b610a9d9194503d8087833e610a958183613761565b810190613b15565b92386103ac565b50346102d257806003193601126102d2576003546040516001600160a01b039091168152602090f35b50346102d25760603660031901126102d2576020610b116004356064670de0b6b3a7640000610b09602435610b046044358661427d565b61427d565b0404906140a8565b604051908152f35b50346102d25760403660031901126102d257602435906001600160a01b03821682036102d2576020610b1183600435614290565b50346102d2578060208060031936011261080d57610b696140d7565b8160018060a01b0391826007541660405190632820036560e11b82526004356004830152816024816102c09687945af1928315610872578593610f62575b5050610bb861014083015142614085565b92610be160a08401946064670de0b6b3a7640000610b09885193610b046101208a01518661427d565b6005546040858101516060870180519251631c07d98160e21b8082526001600160a01b03938816841660048301529387169290921660248301526044820185905295939092849084908716818c816064810103925af1928315610f23578993610f2e575b5083610c9f91888a8c610c6a8a6040816005541695015116948b8d5116935190614085565b6040518881526001600160a01b0395861660048201529290941660248301526044820193909352938492839182906064820190565b03925af1908115610f23578991610ef1575b50889084866009541660046040518095819363a001ecdd60e01b83525af1908115610ee6578a91610eaa575b610ce79250614290565b9260e08701968751610cf98686614085565b11610e1457505050610d0b8282614085565b95519451818110610df7575050915b81806009541691511690803b1561099b5760405163ef6506db60e01b81526001600160a01b039290921660048301526024820184905286908290604490829084905af19081156108e5578691610de3575b5050610d7c90600754169184614085565b90803b1561081057604051633799ba3f60e01b815260048035908201526024810193909352604483019390935260648201529082908290608490829084905af180156107ea57610dcf575b506001805580f35b610dd890613737565b6102d2578038610dc7565b610dec90613737565b610810578438610d6b565b909550610e08610e0e928297614085565b90614085565b91610d1a565b965160055487516040998a015199519485526001600160a01b039088168116600486015298871690981660248401526044830181905297509395909250839150829060649082908a9089165af19182156108e5578692610e79575b5050918491610d1a565b8196508092503d8311610ea3575b610e918183613761565b81010312610841578493513880610e6f565b503d610e87565b90508482813d8311610edf575b610ec18183613761565b81010312610edb57610ed5610ce792613ab6565b90610cdd565b8980fd5b503d610eb7565b6040513d8c823e3d90fd5b809950848092503d8311610f1c575b610f0a8183613761565b81010312610841578880985190610cb1565b503d610f00565b6040513d8b823e3d90fd5b985091508288813d8111610f5b575b610f478183613761565b810103126108415796518897909183610c45565b503d610f3d565b610f82929350803d10610f8a575b610f7a8183613761565b810190613f41565b903880610ba7565b503d610f70565b50346102d257806003193601126102d2576020604051670de0b6b3a76400008152f35b50346102d25760203660031901126102d257610fce6140d7565b610fd66137f3565b60075460405163014b594760e71b81526004803590820152336024820152906001600160a01b03906060908390831681868160448101610217565b5060c03660031901126102d2576004356110296136d8565b60443567ffffffffffffffff811161120a573660238201121561120a5780600401359061105582613783565b906110636040519283613761565b82825260208201906024829460051b8201019036821161120657602401915b8183106111e6575050506064359161ffff83168303610841576110a3613726565b946110ac6137f3565b6001600160a01b03851660008051602061435b833981519152036111c357503492918661ffff9692935b60018060a01b03600854169260405198899563031137cd60e61b87528160e488019460018060a01b038c1660048a01528a60248a015260843560448a015216606488015216608486015260e060a48601525180915261010484019490825b81811061119e575050508290816020953360c483015203925af1801561084e57849061116a575b61116793503390614229565b80f35b506020833d602011611196575b8161118460209383613761565b8101031261084157611167925161115b565b3d9150611177565b82516001600160a01b031687526020968701968a96508b945090920191600101611134565b926111d98430336001600160a01b03891661383a565b918661ffff9692936110d6565b82356001600160a01b038116810361084157815260209283019201611082565b8780fd5b8380fd5b50346102d257806003193601126102d257602060405160648152f35b50346102d25760403660031901126102d25780611245613704565b61124d6137f3565b6008546001600160a01b031690813b156107f55761ffff6064849283604051958694859363099bfe6b60e01b855260043560048601521660248401523360448401525af180156107ea576107da5750f35b50346102d25760203660031901126102d2576112b86140d7565b6112c06137f3565b60075460405163e41936d760e01b81526004803590820152336024820152906001600160a01b03906060908390831681868160448101610217565b5060403660031901126102d25780600435611314613704565b61131c6137f3565b611325816142b4565b6008546040516322bc934560e11b815260048101849052908490829060249082906001600160a01b03165afa90811561084e578491611685575b5061138361137861ffff6101a084015194168094614290565b926080830151614290565b60408201519092906001600160a01b03168360008051602061435b83398151915282036116735790503410610810575b60408201516113cd906001600160a01b0316843387614229565b610120820180516101608401519195916113f6916001600160a01b0391821691859116846141d5565b60055461016084015160405163912d228f60e01b81526001600160a01b0391821660048201526024810185905291602091839160449183918c91165af19081156109a757879161163b575b506020859160018060a01b0360075416868a8a6114c283518a896101c08701519461146b86613cd2565b60018060a01b036040890151169760018060a01b03610160820151169a61ffff60c060a0840151930151169260018060a01b03905116946040519e8f9d8e9c8d9b8c9a6319467e2760e01b8c526004339c01613cf2565b03925af180156109a75761160c575b506008546001600160a01b031691823b1561099b5760405163346dab9960e01b815260048101929092526024820185905260448201529085908290606490829084905af19081156108725785916115f8575b5050600554604091820151915163912d228f60e01b81526001600160a01b0392831660048201526024810193909352602091839160449183918891165af19081156102715783916115c3575b5060045491516001600160a01b03928316921690823b1561086d576040516328cdd6eb60e11b81523360048201526001600160a01b03909216602483015260448201529082908290818381606481016107c9565b9250506020823d6020116115f0575b816115df60209383613761565b81010312610841578291513861156f565b3d91506115d2565b61160190613737565b61086d578338611523565b6020809297503d8311611634575b6116248183613761565b81010312610841578594386114d1565b503d61161a565b9650506020863d60201161166b575b8161165760209383613761565b810103126108415794518695906020611441565b3d915061164a565b611680913090339061383a565b6113b3565b61169991503d8086833e610a958183613761565b3861135f565b50346102d25760603660031901126102d2576116b96136c2565b6001600160a01b036024358181169081900361120a57604435916116db61379b565b6116e36140d7565b82156117955784938160095416803b15611791576040516331b5f13d60e11b81526001600160a01b0383166004820152602481018690529086908290604490829084905af19081156108e557869161177d575b50501660008051602061435b833981519152810361176e5750828092819282f115611762576001805580f35b604051903d90823e3d90fd5b6117789350613ddb565b61026a565b61178690613737565b610810578438611736565b8580fd5b60405162461bcd60e51b815260206004820152600f60248201526e11549497d6915493d7d05353d55395608a1b6044820152606490fd5b50346102d257806003193601126102d2576002546040516001600160a01b039091168152602090f35b5060a03660031901126102d25760043561180d613704565b9060443561ffff80821680920361084157611826613715565b9361182f6137f3565b611838816142b4565b8560018060a01b03926024828560085416604051928380926322bc934560e11b82528b60048301525afa90811561027157839161193c575b5084604061188684608085015197168097614290565b9201511660008051602061435b83398151915281036119235750341061191f5760209560c4945b60085416916040519889978896630b438b8960e41b885260048801526064356024880152604487015216606485015233608485015260a48401525af180156107ea576118f7575080f35b602090813d8111611918575b61190d8183613761565b810103126108415780f35b503d611903565b5080fd5b946119376020989260c4973090339061383a565b6118ad565b61195091503d8085833e610a958183613761565b38611870565b50346102d25760203660031901126102d25760043561ffff8116810361084157611167906142b4565b50346102d257806003193601126102d2576003546001600160a01b0333818316036119ec576001600160601b0360a01b8092166003556002549133908316176002553391167f8be0079c531659141344cd1fd0a4f28419497f9722a3daafe3b4186f6b6457e0600080a380f35b60405162461bcd60e51b815260206004820152602960248201527f4f776e61626c6532537465703a2063616c6c6572206973206e6f7420746865206044820152683732bb9037bbb732b960b91b6064820152608490fd5b50346102d257806003193601126102d257611a5c61379b565b600380546001600160a01b03199081169091556002805491821690556000906001600160a01b03167f8be0079c531659141344cd1fd0a4f28419497f9722a3daafe3b4186f6b6457e08280a380f35b50346102d25760403660031901126102d257806024600435611acb613704565b611ad36137f3565b611adc816142b4565b6008546040516322bc934560e11b815260048101849052936001600160a01b03929186918691829086165afa938415610872578594611bd4575b50611b2d60409161ffff6080870151911690614290565b930181848183511660008051602061435b8339815191528114600014611bbf575050508480858015611bb5575b8280929181923390f11561084e5781611b78915b511684338561412d565b6008541691823b1561086d57604051633fa5085b60e11b8152600481019290925233602483015260448201529082908290818381606481016107c9565b6108fc9150611b5a565b611b789391611bcf913390613ddb565b611b6e565b6040919450611bef611b2d913d8089833e610a958183613761565b949150611b16565b50346102d25760a03660031901126102d257611c116136d8565b6001600160a01b0360643581811692908390036108415760843560048110156108105760008051602061433b8339815191529360e093600160005401938460005560405194855260043560208601521660408401526044356060840152608083015260a08201524260c0820152a180f35b5060403660031901126102d257600435611c9a613704565b611ca26137f3565b611cab816142b4565b8260018060a01b0392836007541660405190632820036560e11b8252826004830152816024816102c09687945af19283156108e5578693612055575b50508361028083015116330361201d5784938491611d0a61014085015142614085565b94611d566064670de0b6b3a7640000611d4e611d3e611d3361ffff60808c015197168097614290565b9560c08b0151614290565b99610b046101208b01518761427d565b0404826140a8565b611d608282614085565b84600954166040519063a001ecdd60e01b82528160048160209a8b945af1908115610ee6578a91611fe1575b50611d9a611da19183614290565b8092614085565b93856009541660408901928784511690823b15611fdd5760405163ef6506db60e01b81526001600160a01b039290921660048301526024820152908b908290604490829084905af1918215611fd2578b86928a94611fb6575b508790896007541692611e3a6040519e8f968795869463094bb9f160e11b8652600486019094939260609260808301968352602083015260408201520152565b03925af1978815610f23578998611f97575b50858582511660008051602061435b8339815191528114600014611f78575050813410611f7457611ea78693611e98611edb965b611e8c8b5191846140a8565b89865116913390614229565b86806005541693511693614085565b60405163912d228f60e01b81526001600160a01b0390931660048401526024830152909283919082908a9082906044820190565b03925af19283156108e5578693611f41575b50506102a081600454169301511691803b1561081057849283608492604051968795869463875bc3d160e01b865260048601523360248601526044850152151560648401525af180156107ea576107da5750f35b819650809293503d8311611f6d575b611f5a8183613761565b8101031261084157849351903880611eed565b503d611f50565b8880fd5b93611e98611edb96611f9286611ea795983090339061383a565b611e80565b611faf919850863d8811610a7957610a6b8183613761565b9638611e4c565b909250611fc4919350613737565b610edb578387918b38611dfa565b6040513d8d823e3d90fd5b8c80fd5b90508681813d8311612016575b611ff88183613761565b81010312610edb57611d9a61200f611da192613ab6565b9150611d8c565b503d611fee565b60405162461bcd60e51b815260206004820152601060248201526f22a9292fa727aa2fa127a92927aba2a960811b6044820152606490fd5b61206c929350803d10610f8a57610f7a8183613761565b903880611ce7565b5060203660031901126102d2576111676137f3565b50346102d25760603660031901126102d2576120a36136c2565b6120ab6136d8565b6120b36136ee565b6120bb61379b565b6120c36140d7565b60018060a01b038092816001600160601b0360a01b951685600754161760075516836008541617600855169060095416176009556001805580f35b50346102d257806003193601126102d257602060ff60035460a01c166040519015158152f35b5060203660031901126102d2576121396137f3565b60085460405163c58343ef60e01b8152600480359082015282916001600160a01b03166101c082602481845afa918215610271578392612595575b506101a06121978184015161218881613cd2565b61219181613cd2565b15613f02565b836101008401516024604051809581936322bc934560e11b835260048301525afa91821561084e578492612579575b50810151906121f46121e2604085019361ffff85511690614290565b9261ffff608084015191511690614290565b916122156101008501518260018060a01b03610160860151169133906141d5565b60408201516001600160a01b03168360008051602061435b8339815191528203612569575050848084801561255f575b8280929181923390f11561084e575b6122736101008501518460018060a01b03604086015116913390614181565b60055461016083015160405163912d228f60e01b81526001600160a01b0391821660048201526024810184905291602091839160449183918b91165af19081156108e5578691612527575b506007546101008601516101c085015186936020936001600160a01b0316918a906122e881613cd2565b61234660018060a01b0360408b0151169360018060a01b036101608c015116968d608081015161ffff6060830151169160e060018060a01b0391015116938d6040519d8e9c8d9b8c9a6319467e2760e01b8c52339860048d01613d66565b03925af180156108e5576124f8575b5060085482516001600160a01b0390911691823b1561099b5760405163346dab9960e01b815260048101929092526024820185905260448201529085908290606490829084905af19081156108725785916124e4575b50506008546001600160a01b0316803b1561081057604051636d5d42c560e11b815260048035908201523360248201529085908290604490829084905af19081156108725785916124d0575b5050600554604091820151915163912d228f60e01b81526001600160a01b0392831660048201526024810193909352602091839160449183918891165af190811561027157839161249b575b5060045460e0909201516001600160a01b03928316921690823b1561086d576040516328cdd6eb60e11b81526001600160a01b03909216600483015233602483015260448201529082908290818381606481016107c9565b9250506020823d6020116124c8575b816124b760209383613761565b810103126108415782915138612443565b3d91506124aa565b6124d990613737565b61086d5783386123f7565b6124ed90613737565b61086d5783386123ab565b6020809296503d8311612520575b6125108183613761565b8101031261084157849338612355565b503d612506565b9550506020853d602011612557575b8161254360209383613761565b8101031261084157935185949060206122be565b3d9150612536565b6108fc9150612245565b612574913390613ddb565b612254565b61258e9192503d8086833e610a958183613761565b90386121c6565b6125ba9192506101c03d6101c0116125c1575b6125b28183613761565b810190613e14565b9038612174565b503d6125a8565b5060c03660031901126102d2576125dd6136c2565b816125e66136ee565b916125ef613715565b6125f7613726565b6125ff6137f3565b60055460405163912d228f60e01b81526001600160a01b03858116600483015260248035908301529491602090829060449082908a908a165af19081156108e557869161295f575b506006546040516322a0fe3360e21b815233600482015260248101929092526020908290604490829089165afa9081156108e5578691612925575b50600554604051631c07d98160e21b81526001600160a01b038481166004830152891660248083019190915235604482015290602090829060649082908b908b165af19081156109a75787916128f0575b5060046020876006541660405192838092636882509b60e11b82525afa9081156128e557889161289f575b506127109260ff610535921690613ad8565b9286851692858760008051602061435b833981519152860361288557505084341061099b57602092876101049288945b856008541691604051988997889663486c386960e11b885216600487015260248601528960448601526024356064860152606435608486015261ffff80921660a48601521660c48401523360e48401525af1801561084e57612856575b5060055460405163912d228f60e01b81526001600160a01b03959095166004860152602485019190915291929160209083906044908290879086165af191821561027157839261281f575b5060045416803b156107f5576040516363a6c98160e01b8152336004820152602481019290925282908290818381604481016107c9565b925090506020823d60201161284e575b8161283c60209383613761565b810103126108415782915190386127e8565b3d915061282f565b6020809294503d831161287e575b61286e8183613761565b810103126108415783913861279d565b503d612864565b61010492602095929461289a8930338b61383a565b612740565b90506020813d6020116128dd575b816128ba60209383613761565b81010312611206576127109260ff6128d461053593613aca565b925050926126fe565b3d91506128ad565b6040513d8a823e3d90fd5b9650506020863d60201161291d575b8161290c60209383613761565b8101031261084157879551386126d3565b3d91506128ff565b90506020813d602011612957575b8161294060209383613761565b810103126117915761295190613ab6565b38612682565b3d9150612933565b9550506020853d60201161298f575b8161297b60209383613761565b810103126108415793518694906020612647565b3d915061296e565b50346102d257806003193601126102d257602060405160028152f35b50346102d25760203660031901126102d2576129cd6137f3565b60085460405163c58343ef60e01b8152600480359082015282916001600160a01b03166101c082602481845afa918215610271578392612d28575b50612a2c60016101a0840151612a1d81613cd2565b612a2681613cd2565b14613f02565b826101008301516024604051809481936322bc934560e11b835260048301525afa908115610271578391612d0e575b50612a73608082015161ffff60408501511690614290565b61010083015160e0840151610140850151610120860151939493612aa6936001600160a01b0391821693909116906141d5565b81602060018060a01b0360075416610100860151906101c0850151612aca81613cd2565b8860018060a01b0360408801511691612b3760018060a01b036101208c015116956101408c0151898d61016081015160808201519061ffff6060840151169260e060018060a01b0391015116946040519e8f9d8e9c8d9b8c9a6319467e2760e01b8c526004339c01613cf2565b03925af1801561087257612cdf575b5060018060a01b0360085416610100840151813b15611791578591604483926040519485938492630a5ff10960e41b845260048401528860248401525af1908115610872578591612ccb575b50506008546001600160a01b0316803b1561081057604051636d5d42c560e11b815260048035908201523360248201529085908290604490829084905af1908115610872578591612cb7575b5050600554604091820151915163912d228f60e01b81526001600160a01b0392831660048201526024810193909352602091839160449183918891165af1908115610271578391612c82575b5060045460e0909201516001600160a01b03928316921690823b1561086d576040516328cdd6eb60e11b81523360048201526001600160a01b03909216602483015260448201529082908290818381606481016107c9565b9250506020823d602011612caf575b81612c9e60209383613761565b810103126108415782915138612c2a565b3d9150612c91565b612cc090613737565b61086d578338612bde565b612cd490613737565b61086d578338612b92565b6020809295503d8311612d07575b612cf78183613761565b8101031261084157839238612b46565b503d612ced565b612d2291503d8085833e610a958183613761565b38612a5b565b612d449192506101c03d6101c0116125c1576125b28183613761565b9038612a08565b50346102d257806003193601126102d257602060405160008051602061435b8339815191528152f35b50346102d25760203660031901126102d257612d8e6137f3565b60085481906001600160a01b0316803b1561080d5760405163774d3df560e01b815260048035908201523360248201529082908290818381604481016107c9565b5060c03660031901126102d25780600435612de8613704565b90612df16136ee565b91612dfa613715565b91612e03613726565b91612e0c6137f3565b612e15816142b4565b6008546040516322bc934560e11b8152600481018490526001600160a01b039590949186169390918886602481885afa948515610f2357612e92968a9661328d575b50604051633970062960e01b8152600481018490526001600160a01b038a1660248201526020979091889183919082908e9082906044820190565b03925af18015610ee657612eac918b916132765750613c86565b608085015161ffff8516612ebf91614290565b60055460409687018051975163912d228f60e01b808252988b166001600160a01b031660048201526024810184905290959291899082908c16818f816044810103925af19081156131c0578c91613243575b506006546040516322a0fe3360e21b815233600482015260248101929092529091908990839060449082908e165afa9586156131c0578b8d8b9481996131fe575b506005549251604051631c07d98160e21b81526001600160a01b03918f1682166004820152921660248301526044820193909352929183918c1690829081606481015b03925af1908115611fd2578b916131cb575b50600490888a6006541660405193848092636882509b60e11b82525afa9182156131c0578c92613181575b5061053560ff612fe3931687613ad8565b93888a16968b60008051602061435b833981519152891460001461316d5750348610613169578b9a89915b6005546040519182526001600160a01b03929092166004820152602481018890529b8c9160449183918e165af1998a15611fd2578b9a613129575b509088889695949392816008541695604051998a98633bb1374b60e01b8a5261ffff1660048a0152602489015260448801528b606488015216608486015260643560a486015261ffff1660c485015261ffff1660e48401523361010484015261012483015281885a9261014493f18015610872576130fa575b505060045416803b156107f5576040516363a6c98160e01b8152336004820152602481019290925282908290818381604481016107c9565b90809294503d8311613122575b6131118183613761565b8101031261084157829138806130c2565b503d613107565b919a509850939291908685813d8111613162575b6131478183613761565b81010312610841578a99888896519a91929394959650613049565b503d61313d565b8b80fd5b9a899161317c8830338d61383a565b61300e565b91508882813d83116131b9575b6131988183613761565b810103126131695761053560ff6131b1612fe394613aca565b935050612fd2565b503d61318e565b6040513d8e823e3d90fd5b809b50888092503d83116131f7575b6131e48183613761565b810103126108415760048b9a5190612fa7565b503d6131da565b93985050509181813d831161323c575b6132188183613761565b81010312613169578b95612f95928c6132318c94613ab6565b989091929394612f52565b503d61320e565b80929c50898092503d831161326f575b61325d8183613761565b8101031261084157518b9a9088612f11565b503d613253565b610a739150883d8a11610a7957610a6b8183613761565b6132a29196503d808c833e610a958183613761565b9438612e57565b50346102d25760203660031901126102d2576132c36140d7565b6132cb6137f3565b600754604051630c4d25bb60e11b81526004803590820152336024820152906001600160a01b03906060908390831681868160448101610217565b50346102d25760203660031901126102d257806004356133246137f3565b60085460405163c58343ef60e01b8152600481018390526001600160a01b03916101c091908316908281602481855afa9283156108e55786936134c8575b5050846101008301516024604051809481936322bc934560e11b835260048301525afa908115610872578592849184936134ac575b506101a08101516133a781613cd2565b6133b081613cd2565b61344c576133cd60409161ffff8360808701519201511690614290565b9201511660008051602061435b833981519152810361343b575081808092818115613432575b3390f1156107ea575b60085416803b156107f557604051639498506560e01b8152600481019290925233602483015282908290818381604481016107c9565b506108fc6133f3565b61344792503390613ddb565b6133fc565b929161016001511660008051602061435b83398151915281146000146134995750808061014081940151818115613490575b3390f16133fc576040513d84823e3d90fd5b506108fc61347e565b9050610140613447920151903390613ddb565b6134c19193503d8086833e610a958183613761565b9138613397565b6134df929350803d106125c1576125b28183613761565b903880613362565b50346102d25760403660031901126102d257600435816024613507613704565b61350f6137f3565b613518816142b4565b6008546040516322bc934560e11b815260048101869052926001600160a01b03929185918591829086165afa92831561084e578493613629575b5061356b6101609161ffff6101a0860151911690614290565b920181838183511660008051602061435b833981519152811460001461361457505050838084801561360a575b8280929181923390f11561027157816135b6915b511683338761412d565b60085416803b156136065760405163021d5b1160e11b8152600481019490945233602485015260448401919091528290606490829084905af180156107ea576135fd575080f35b61116790613737565b8280fd5b6108fc9150613598565b6135b69391613624913390613ddb565b6135ac565b61016091935061364561356b913d8088833e610a958183613761565b939150613552565b50346102d25760603660031901126102d2576136676136c2565b61366f6136d8565b6136776136ee565b61367f61379b565b6136876140d7565b60018060a01b038092816001600160601b0360a01b951685600654161760065516836004541617600455169060055416176005556001805580f35b600435906001600160a01b038216820361084157565b602435906001600160a01b038216820361084157565b604435906001600160a01b038216820361084157565b6024359061ffff8216820361084157565b6084359061ffff8216820361084157565b60a4359061ffff8216820361084157565b67ffffffffffffffff811161374b57604052565b634e487b7160e01b600052604160045260246000fd5b90601f8019910116810190811067ffffffffffffffff82111761374b57604052565b67ffffffffffffffff811161374b5760051b60200190565b6002546001600160a01b031633036137af57565b606460405162461bcd60e51b815260206004820152602060248201527f4f776e61626c653a2063616c6c6572206973206e6f7420746865206f776e65726044820152fd5b60ff60035460a01c1661380257565b60405162461bcd60e51b815260206004820152601060248201526f14185d5cd8589b194e881c185d5cd95960821b6044820152606490fd5b6040516323b872dd60e01b60208201526001600160a01b039283166024820152929091166044830152606482019290925261388b9161388682608481015b03601f198101845283613761565b6138a5565b565b90816020910312610841575180151581036108415790565b6040805167ffffffffffffffff94936001600160a01b0390931692909182018581118382101761374b576040526020928383527f5361666545524332303a206c6f772d6c6576656c2063616c6c206661696c6564848401526000808386829551910182855af1903d156139d5573d9687116139c1576139459495966040519061393788601f19601f8401160183613761565b81528093873d92013e6139e2565b8051908161395257505050565b828061396293830101910161388d565b1561396a5750565b6084906040519062461bcd60e51b82526004820152602a60248201527f5361666545524332303a204552433230206f7065726174696f6e20646964206e6044820152691bdd081cdd58d8d9595960b21b6064820152fd5b634e487b7160e01b83526041600452602483fd5b9150613945939495506060915b91929015613a4457508151156139f6575090565b3b156139ff5790565b60405162461bcd60e51b815260206004820152601d60248201527f416464726573733a2063616c6c20746f206e6f6e2d636f6e74726163740000006044820152606490fd5b825190915015613a575750805190602001fd5b6040519062461bcd60e51b82528160208060048301528251908160248401526000935b828510613a9d575050604492506000838284010152601f80199101168101030190fd5b8481018201518686016044015293810193859350613a7a565b51906001600160a01b038216820361084157565b519060ff8216820361084157565b6001600160a01b0391821691908215613af057160490565b634e487b7160e01b600052601260045260246000fd5b519061ffff8216820361084157565b602091828282031261084157815167ffffffffffffffff928382116108415701916101e0938484840312610841576040519485018581108382111761374b57604052835185528084015160028110156108415781860152613b7860408501613ab6565b6040860152606084015160608601526080840151608086015260a084015160a0860152613ba760c08501613b06565b60c086015260e084015160e08601526101008085015190860152610120613bcf818601613ab6565b9086015261014091828501519081116108415784019280601f85011215610841578351613bfb81613783565b94613c096040519687613761565b818652838087019260051b820101928311610841578301905b828210613c6f5750505050830152610160613c3e818301613ab6565b9083015261018080820151908301526101a080820151908301526101c0809101519060028210156108415782015290565b838091613c7b84613ab6565b815201910190613c22565b15613c8d57565b60405162461bcd60e51b815260206004820152601c60248201527f4552525f434f4c4c41544552414c5f4e4f545f535550504f52544544000000006044820152606490fd5b60021115613cdc57565b634e487b7160e01b600052602160045260246000fd5b9a96928b98949a96929d9c9995919d6101808a019e8a52613d1281613cd2565b60208a0152600160a01b600190039a8b998a80931690604001521660608c015260808b015260a08a015260c089015260e088015261ffff166101008701526101208601521661014084015216906101600152565b9995919b9a97939894909b9692966101808b019c8b52613d8581613cd2565b60208b0152600160a01b6001900380998180991660408d01521660608b015260808a015260a089015260c088015260e087015261ffff166101008601526101208501600090521661014084015216906101600152565b60405163a9059cbb60e01b60208201526001600160a01b039092166024830152604482019290925261388b916138868260648101613878565b80916101c092839103126108415760405191820182811067ffffffffffffffff82111761374b576040528051825260208101516004811015610841576020830152613e6160408201613b06565b6040830152613e7260608201613b06565b60608301526080810151608083015260a081015160a083015260c081015160c0830152613ea160e08201613ab6565b60e08301526101008082015190830152610120613ebf818301613ab6565b9083015261014080820151908301526101608082015190830152610180613ee7818301613ab6565b908301526101a0809101519060028210156108415782015290565b15613f0957565b60405162461bcd60e51b815260206004820152601060248201526f4552525f524551554553545f5459504560801b6044820152606490fd5b80916102c092839103126108415760405191820182811067ffffffffffffffff82111761374b576040528051825260208101516004811015610841576020830152613f8e60408201613ab6565b6040830152613f9f60608201613ab6565b60608301526080810151608083015260a081015160a083015260c081015160c083015260e081015160e08301526101008082015190830152610120808201519083015261014080820151908301526101608082015190830152610180614006818301613b06565b908301526101a0614018818301613aca565b908301526101c080820151908301526101e08082015190830152610200808201519083015261022080820151908301526102408082015190830152610260808201519083015261028061406c818301613ab6565b9083015261407e6102a0809201613ab6565b9082015290565b9190820391821161409257565b634e487b7160e01b600052601160045260246000fd5b9190820180921161409257565b90816060910312610841578051916140d4604060208401519301613ab6565b90565b6002600154146140e8576002600155565b60405162461bcd60e51b815260206004820152601f60248201527f5265656e7472616e637947756172643a207265656e7472616e742063616c6c006044820152606490fd5b9060008051602061433b8339815191529360e0936001600054019384600055604051948552602085015260018060a01b0380931660408501526060840152166080820152600360a08201524260c0820152a1565b9060008051602061433b8339815191529360e0936001600054019384600055604051948552602085015260018060a01b0380931660408501526060840152166080820152600160a08201524260c0820152a1565b9060008051602061433b8339815191529360e0936001600054019384600055604051948552602085015260018060a01b0380931660408501526060840152166080820152600260a08201524260c0820152a1565b9060008051602061433b8339815191529360e0936001600054019384600055604051948552602085015260018060a01b0380931660408501526060840152166080820152600060a08201524260c0820152a1565b8181029291811591840414171561409257565b906001600160a01b031680156142b0576142ac9060649261427d565b0490565b5090565b61ffff809116606481116143035760199006166142cd57565b60405162461bcd60e51b815260206004820152600e60248201526d4552525f50455243454e5441474560901b6044820152606490fd5b60405162461bcd60e51b815260206004820152600f60248201526e4f5645525f50455243454e5441474560881b6044820152606490fdfe1b89f92faead76d76eeb15b01f4ca1cff0fcbad53196805a290812426389ea7e000000000000000000000000eeeeeeeeeeeeeeeeeeeeeeeeeeeeeeeeeeeeeeeea2646970667358221220b1c0ec42ec9906251150c707fe246c5d967dca5af146494fa62ba5dda253572064736f6c63430008110033",
  "immutableReferences": {},
  "source": "// SPDX-License-Identifier: GPL-3.0\r\npragma solidity >=0.7.0 <0.9.0;\r\n\r\nimport \"./Activity.sol\";\r\nimport \"./LendingPoolProvider.sol\";\r\n\r\nimport \"./libraries/Errors.sol\";\r\n\r\nimport \"./math/SimpleInterest.sol\";\r\n\r\nimport \"./interfaces/IPriceFeed.sol\";\r\nimport \"./interfaces/IFeeManager.sol\";\r\nimport \"./interfaces/IOfferManager.sol\";\r\nimport \"./interfaces/ILoanManager.sol\";\r\nimport \"./interfaces/ILoanToValueRatio.sol\";\r\n\r\nimport \"@openzeppelin/contracts/utils/Context.sol\";\r\nimport \"@openzeppelin/contracts/token/ERC20/ERC20.sol\";\r\nimport \"@openzeppelin/contracts/token/ERC20/utils/SafeERC20.sol\";\r\nimport \"@openzeppelin/contracts/security/ReentrancyGuard.sol\";\r\nimport \"@openzeppelin/contracts/access/Ownable2Step.sol\";\r\nimport \"@openzeppelin/contracts/security/Pausable.sol\";\r\nimport \"@openzeppelin/contracts/utils/math/SafeMath.sol\";\r\n\r\n/**\r\n * @title LendingPool contract\r\n * @dev Main point of interaction with the DARSH protocol's market\r\n * - Users can:\r\n *   # Create Lending/Borrowing offers\r\n *   # Request for new terms on offers\r\n *   # Repay (Fully/Installment)\r\n *   # Claim principal and earnings\r\n *   # Claim back collateral\r\n *   # Cancel/Reject/Accept requests\r\n * - All admin functions are callable by the deployer address\r\n * @author Arogundade Ibrahim\r\n **/\r\ncontract LendingPool is\r\n    LendingPoolProvider,\r\n    Context,\r\n    ReentrancyGuard,\r\n    SimpleInterest,\r\n    Ownable2Step,\r\n    Pausable\r\n{\r\n    using SafeMath for uint256;\r\n    using SafeERC20 for ERC20;\r\n\r\n    /// @dev contract version\r\n    uint256 public constant LENDINGPOOL_VERSION = 0x2;\r\n\r\n    Activity private _activity;\r\n    IPriceFeed private _priceFeed;\r\n    ILoanToValueRatio private _ltvRatio;\r\n\r\n    ILoanManager private _loanManager;\r\n    IOfferManager private _offerManager;\r\n    IFeeManager private _feeManager;\r\n\r\n    /// @dev for convienency this address is used to represent FTM just like ERC20\r\n    address public constant nativeAddress =\r\n        0xEeeeeEeeeEeEeeEeEeEeeEEEeeeeEeeeeeeeEEeE;\r\n\r\n    constructor() ReentrancyGuard() Ownable2Step() {}\r\n\r\n    // ============= Create Lending / Borrowing Offer ============ //\r\n\r\n    /// @notice This function creates a new lending offer\r\n    /// @dev the principalAmount_ parameter is use for ERC20 tokens only\r\n    function createLendingOffer(\r\n        uint256 principalAmount_,\r\n        address principalToken,\r\n        address[] memory collateralTokens,\r\n        uint16 daysToMaturity,\r\n        uint256 interestRate,\r\n        uint16 daysToExpire\r\n    ) public payable whenNotPaused {\r\n        uint256 principalAmount;\r\n\r\n        /* extract tokens from lender */\r\n        if (principalToken == nativeAddress) {\r\n            principalAmount = msg.value;\r\n        } else {\r\n            principalAmount = principalAmount_;\r\n            ERC20(principalToken).safeTransferFrom(\r\n                _msgSender(),\r\n                address(this),\r\n                principalAmount\r\n            );\r\n        }\r\n\r\n        /* create the lending offer */\r\n        uint256 offerId = _offerManager.createLendingOffer(\r\n            principalToken,\r\n            principalAmount,\r\n            interestRate,\r\n            daysToMaturity,\r\n            daysToExpire,\r\n            collateralTokens,\r\n            _msgSender()\r\n        );\r\n\r\n        transfer(\r\n            offerId,\r\n            _msgSender(),\r\n            principalAmount,\r\n            principalToken,\r\n            Type.ADDED\r\n        );\r\n    }\r\n\r\n    /// @notice This function creates a new borrowing offer\r\n    function createBorrowingOffer(\r\n        address principalToken,\r\n        uint256 principalAmount,\r\n        address collateralToken,\r\n        uint256 interestRate,\r\n        uint16 daysToMaturity,\r\n        uint16 hoursToExpire\r\n    ) public payable whenNotPaused {\r\n        uint256 principalAmountInUSD = _priceFeed.amountInUSD(\r\n            principalToken,\r\n            principalAmount\r\n        );\r\n\r\n        uint160 ltvRatio = _ltvRatio.getRelativeLTV(\r\n            _msgSender(),\r\n            principalAmountInUSD\r\n        );\r\n\r\n        uint256 collateralNormalAmount = _priceFeed.exchangeRate(\r\n            principalToken,\r\n            collateralToken,\r\n            principalAmount\r\n        );\r\n\r\n        uint256 collateralAmount = percentageOf(\r\n            collateralNormalAmount,\r\n            ltvRatio / _ltvRatio.getBase()\r\n        );\r\n\r\n        if (collateralToken == nativeAddress) {\r\n            require(msg.value >= collateralAmount);\r\n        } else {\r\n            ERC20(collateralToken).safeTransferFrom(\r\n                _msgSender(),\r\n                address(this),\r\n                collateralAmount\r\n            );\r\n        }\r\n\r\n        _offerManager.createBorrowingOffer(\r\n            principalToken,\r\n            collateralToken,\r\n            collateralAmount,\r\n            principalAmount,\r\n            interestRate,\r\n            daysToMaturity,\r\n            hoursToExpire,\r\n            _msgSender()\r\n        );\r\n\r\n        uint256 amountInUSD = _priceFeed.amountInUSD(\r\n            collateralToken,\r\n            collateralAmount\r\n        );\r\n\r\n        _activity.dropCollateral(_msgSender(), amountInUSD);\r\n    }\r\n\r\n    // ============ Create Lending / Borrowing Request ============= //\r\n\r\n    /// @notice This function creates a new lending request on a borrowing offer\r\n    function createLendingRequest(\r\n        uint256 offerId,\r\n        uint16 percentage,\r\n        uint16 daysToMaturity,\r\n        uint256 interestRate,\r\n        uint16 hoursToExpire\r\n    ) public payable whenNotPaused {\r\n        checkPercentage(percentage);\r\n\r\n        OfferLibrary.Offer memory offer = _offerManager.getOffer(offerId);\r\n\r\n        uint256 principalAmount = percentageOf(\r\n            offer.initialPrincipal,\r\n            percentage\r\n        );\r\n\r\n        if (offer.principalToken == nativeAddress) {\r\n            require(msg.value >= principalAmount);\r\n        } else {\r\n            ERC20(offer.principalToken).safeTransferFrom(\r\n                _msgSender(),\r\n                address(this),\r\n                principalAmount\r\n            );\r\n        }\r\n\r\n        /* create the lending request */\r\n        _offerManager.createLendingRequest(\r\n            percentage,\r\n            interestRate,\r\n            daysToMaturity,\r\n            hoursToExpire,\r\n            _msgSender(),\r\n            offerId\r\n        );\r\n    }\r\n\r\n    /// @notice This function creates a new borrowing request on a lending offer\r\n    function createBorrowingRequest(\r\n        uint256 offerId,\r\n        uint16 percentage,\r\n        address collateralToken,\r\n        uint256 interestRate,\r\n        uint16 daysToMaturity,\r\n        uint16 hoursToExpire\r\n    ) public payable whenNotPaused {\r\n        checkPercentage(percentage);\r\n\r\n        OfferLibrary.Offer memory offer = _offerManager.getOffer(offerId);\r\n\r\n        require(\r\n            _offerManager.isCollateralSupported(offerId, collateralToken),\r\n            \"ERR_COLLATERAL_NOT_SUPPORTED\"\r\n        );\r\n\r\n        uint256 principalAmount = percentageOf(\r\n            offer.initialPrincipal,\r\n            percentage\r\n        );\r\n\r\n        uint256 principalPriceInUSD = _priceFeed.amountInUSD(\r\n            offer.principalToken,\r\n            principalAmount\r\n        );\r\n\r\n        uint160 ltvRatio = _ltvRatio.getRelativeLTV(\r\n            _msgSender(),\r\n            principalPriceInUSD\r\n        );\r\n\r\n        uint256 collateralNormalAmount = _priceFeed.exchangeRate(\r\n            offer.principalToken,\r\n            collateralToken,\r\n            principalAmount\r\n        );\r\n\r\n        uint256 collateralAmount = percentageOf(\r\n            collateralNormalAmount,\r\n            ltvRatio / _ltvRatio.getBase()\r\n        );\r\n\r\n        if (collateralToken == nativeAddress) {\r\n            require(collateralAmount >= msg.value);\r\n        } else {\r\n            ERC20(collateralToken).safeTransferFrom(\r\n                _msgSender(),\r\n                address(this),\r\n                collateralAmount\r\n            );\r\n        }\r\n\r\n        uint256 collateralPriceInUSD = _priceFeed.amountInUSD(\r\n            collateralToken,\r\n            collateralAmount\r\n        );\r\n\r\n        _offerManager.createBorrowingRequest(\r\n            percentage,\r\n            collateralToken,\r\n            collateralAmount,\r\n            collateralPriceInUSD,\r\n            ltvRatio,\r\n            interestRate,\r\n            daysToMaturity,\r\n            hoursToExpire,\r\n            _msgSender(),\r\n            offerId\r\n        );\r\n\r\n        _activity.dropCollateral(_msgSender(), collateralPriceInUSD);\r\n    }\r\n\r\n    // ============ Accept Lending / Borrowing Offer =============== //\r\n\r\n    /// @notice This function accepts a borrowing offer | LEND\r\n    /// @dev The percentage params specifies the portion of the offer to accept\r\n    function acceptBorrowingOffer(uint256 offerId, uint16 percentage)\r\n        public\r\n        payable\r\n        whenNotPaused\r\n    {\r\n        checkPercentage(percentage);\r\n\r\n        OfferLibrary.Offer memory offer = _offerManager.getOffer(offerId);\r\n\r\n        uint256 collateralAmount = percentageOf(\r\n            offer.initialCollateral,\r\n            percentage\r\n        );\r\n\r\n        uint256 principalAmount = percentageOf(\r\n            offer.initialPrincipal,\r\n            percentage\r\n        );\r\n\r\n        if (offer.principalToken == nativeAddress) {\r\n            require(msg.value >= principalAmount);\r\n        } else {\r\n            ERC20(offer.principalToken).safeTransferFrom(\r\n                _msgSender(),\r\n                address(this),\r\n                principalAmount\r\n            );\r\n        }\r\n\r\n        transfer(\r\n            offerId,\r\n            _msgSender(),\r\n            principalAmount,\r\n            offer.principalToken,\r\n            Type.ADDED\r\n        );\r\n\r\n        transfer(\r\n            offerId,\r\n            offer.creator,\r\n            collateralAmount,\r\n            offer.collateralToken,\r\n            Type.LOCKED\r\n        );\r\n\r\n        uint256 collateralPriceInUSD = _priceFeed.amountInUSD(\r\n            offer.collateralToken,\r\n            collateralAmount\r\n        );\r\n\r\n        _loanManager.createLoan(\r\n            offer.offerId,\r\n            offer.offerType,\r\n            offer.principalToken,\r\n            offer.collateralToken,\r\n            principalAmount,\r\n            collateralAmount,\r\n            collateralPriceInUSD,\r\n            offer.interestRate,\r\n            offer.daysToMaturity,\r\n            principalAmount,\r\n            offer.creator,\r\n            _msgSender()\r\n        );\r\n\r\n        _offerManager.afterBorrowingLoan(\r\n            offerId,\r\n            principalAmount,\r\n            collateralAmount\r\n        );\r\n\r\n        uint256 borrowedAmountInUSD = _priceFeed.amountInUSD(\r\n            offer.principalToken,\r\n            principalAmount\r\n        );\r\n\r\n        _activity.borrowLoan(_msgSender(), offer.creator, borrowedAmountInUSD);\r\n    }\r\n\r\n    /// @notice This function accepts a lending offer | BORROW\r\n    /// @dev The percentage params specifies the portion of the offer to accept\r\n    function acceptLendingOffer(\r\n        uint256 offerId,\r\n        uint16 percentage,\r\n        address collateralToken\r\n    ) public payable whenNotPaused {\r\n        checkPercentage(percentage);\r\n\r\n        OfferLibrary.Offer memory offer = _offerManager.getOffer(offerId);\r\n\r\n        require(\r\n            _offerManager.isCollateralSupported(offerId, collateralToken),\r\n            \"ERR_COLLATERAL_NOT_SUPPORTED\"\r\n        );\r\n\r\n        uint256 principalAmount = percentageOf(\r\n            offer.initialPrincipal,\r\n            percentage\r\n        );\r\n\r\n        uint256 principalPriceInUSD = _priceFeed.amountInUSD(\r\n            offer.principalToken,\r\n            principalAmount\r\n        );\r\n\r\n        uint160 ltvRatio = _ltvRatio.getRelativeLTV(\r\n            _msgSender(),\r\n            principalPriceInUSD\r\n        );\r\n\r\n        /* calculate the collateral amount */\r\n        uint256 collateralNormalAmount = _priceFeed.exchangeRate(\r\n            offer.principalToken,\r\n            collateralToken,\r\n            principalAmount\r\n        );\r\n\r\n        uint256 collateralAmount = percentageOf(\r\n            collateralNormalAmount,\r\n            ltvRatio / _ltvRatio.getBase()\r\n        );\r\n\r\n        if (collateralToken == nativeAddress) {\r\n            require(collateralAmount >= msg.value, \"ERR_COLLATERAL_AMOUNT\");\r\n        } else {\r\n            ERC20(collateralToken).safeTransferFrom(\r\n                _msgSender(),\r\n                address(this),\r\n                collateralAmount\r\n            );\r\n        }\r\n\r\n        transfer(\r\n            offerId,\r\n            _msgSender(),\r\n            collateralAmount,\r\n            collateralToken,\r\n            Type.LOCKED\r\n        );\r\n\r\n        if (offer.principalToken == nativeAddress) {\r\n            payable(_msgSender()).transfer(principalAmount);\r\n        } else {\r\n            ERC20(offer.principalToken).safeTransfer(\r\n                _msgSender(),\r\n                principalAmount\r\n            );\r\n        }\r\n\r\n        transfer(\r\n            offerId,\r\n            _msgSender(),\r\n            principalAmount,\r\n            offer.principalToken,\r\n            Type.CLAIMED\r\n        );\r\n\r\n        uint256 collateralPriceInUSD = _priceFeed.amountInUSD(\r\n            collateralToken,\r\n            collateralAmount\r\n        );\r\n\r\n        _loanManager.createLoan(\r\n            offerId,\r\n            offer.offerType,\r\n            offer.principalToken,\r\n            collateralToken,\r\n            principalAmount,\r\n            collateralAmount,\r\n            collateralPriceInUSD,\r\n            offer.interestRate,\r\n            offer.daysToMaturity,\r\n            0,\r\n            _msgSender(),\r\n            offer.creator\r\n        );\r\n\r\n        _offerManager.afterLendingLoan(offerId, principalAmount);\r\n\r\n        uint256 amountBorrowedInUSD = _priceFeed.amountInUSD(\r\n            offer.principalToken,\r\n            principalAmount\r\n        );\r\n\r\n        _activity.borrowLoan(offer.creator, _msgSender(), amountBorrowedInUSD);\r\n\r\n        _activity.dropCollateral(_msgSender(), collateralPriceInUSD);\r\n    }\r\n\r\n    // =========== Withdraw From Offer ============== //\r\n    function removePrincipal(uint256 offerId, uint16 percentage)\r\n        public\r\n        whenNotPaused\r\n    {\r\n        checkPercentage(percentage);\r\n        OfferLibrary.Offer memory offer = _offerManager.getOffer(offerId);\r\n\r\n        uint256 principalAmount = percentageOf(\r\n            offer.initialPrincipal,\r\n            percentage\r\n        );\r\n\r\n        if (offer.principalToken == nativeAddress) {\r\n            payable(_msgSender()).transfer(principalAmount);\r\n        } else {\r\n            ERC20(offer.principalToken).safeTransfer(\r\n                _msgSender(),\r\n                principalAmount\r\n            );\r\n        }\r\n\r\n        transfer(\r\n            offerId,\r\n            _msgSender(),\r\n            principalAmount,\r\n            offer.principalToken,\r\n            Type.REMOVED\r\n        );\r\n\r\n        _offerManager.removePrincipal(offerId, _msgSender(), principalAmount);\r\n    }\r\n\r\n    function removeCollateral(uint256 offerId, uint16 percentage)\r\n        public\r\n        whenNotPaused\r\n    {\r\n        checkPercentage(percentage);\r\n        OfferLibrary.Offer memory offer = _offerManager.getOffer(offerId);\r\n\r\n        uint256 collateralAmount = percentageOf(\r\n            offer.initialCollateral,\r\n            percentage\r\n        );\r\n\r\n        if (offer.collateralToken == nativeAddress) {\r\n            payable(_msgSender()).transfer(collateralAmount);\r\n        } else {\r\n            ERC20(offer.collateralToken).safeTransfer(\r\n                _msgSender(),\r\n                collateralAmount\r\n            );\r\n        }\r\n\r\n        transfer(\r\n            offerId,\r\n            _msgSender(),\r\n            collateralAmount,\r\n            offer.collateralToken,\r\n            Type.REMOVED\r\n        );\r\n\r\n        _offerManager.removeCollateral(offerId, _msgSender(), collateralAmount);\r\n    }\r\n\r\n    // ============ Accept Lending / Borrowing Request =============== //\r\n\r\n    /// @notice This funcion accepts a borrowing request placed on a lender's offer\r\n    function acceptBorrowingRequest(uint256 requestId) public whenNotPaused {\r\n        RequestLibrary.Request memory request = _offerManager.getRequest(\r\n            requestId\r\n        );\r\n\r\n        require(\r\n            request.requestType == RequestLibrary.Type.BORROWING_REQUEST,\r\n            \"ERR_REQUEST_TYPE\"\r\n        );\r\n\r\n        OfferLibrary.Offer memory offer = _offerManager.getOffer(\r\n            request.offerId\r\n        );\r\n\r\n        uint256 principalAmount = percentageOf(\r\n            offer.initialPrincipal,\r\n            request.percentage\r\n        );\r\n\r\n        transfer(\r\n            request.offerId,\r\n            request.creator,\r\n            request.collateralAmount,\r\n            request.collateralToken,\r\n            Type.LOCKED\r\n        );\r\n\r\n        _loanManager.createLoan(\r\n            request.offerId,\r\n            offer.offerType,\r\n            offer.principalToken,\r\n            request.collateralToken,\r\n            principalAmount,\r\n            request.collateralAmount,\r\n            request.collateralPriceInUSD,\r\n            request.interestRate,\r\n            request.daysToMaturity,\r\n            principalAmount,\r\n            request.creator,\r\n            _msgSender()\r\n        );\r\n\r\n        _offerManager.afterLendingLoan(request.offerId, principalAmount);\r\n        _offerManager.acceptRequest(requestId, _msgSender());\r\n\r\n        uint256 amountBorrowedInUSD = _priceFeed.amountInUSD(\r\n            offer.principalToken,\r\n            principalAmount\r\n        );\r\n\r\n        _activity.borrowLoan(\r\n            _msgSender(),\r\n            request.creator,\r\n            amountBorrowedInUSD\r\n        );\r\n    }\r\n\r\n    /// @notice This funcion accepts a lending request placed on a borrower's offer\r\n    function acceptLendingRequest(uint256 requestId)\r\n        public\r\n        payable\r\n        whenNotPaused\r\n    {\r\n        RequestLibrary.Request memory request = _offerManager.getRequest(\r\n            requestId\r\n        );\r\n\r\n        require(\r\n            request.requestType == RequestLibrary.Type.LENDING_REQUEST,\r\n            \"ERR_REQUEST_TYPE\"\r\n        );\r\n\r\n        OfferLibrary.Offer memory offer = _offerManager.getOffer(\r\n            request.offerId\r\n        );\r\n\r\n        uint256 collateralAmount = percentageOf(\r\n            offer.initialCollateral,\r\n            request.percentage\r\n        );\r\n\r\n        uint256 principalAmount = percentageOf(\r\n            offer.initialPrincipal,\r\n            request.percentage\r\n        );\r\n\r\n        transfer(\r\n            request.offerId,\r\n            _msgSender(),\r\n            collateralAmount,\r\n            offer.collateralToken,\r\n            Type.LOCKED\r\n        );\r\n\r\n        if (offer.principalToken == nativeAddress) {\r\n            payable(_msgSender()).transfer(principalAmount);\r\n        } else {\r\n            ERC20(offer.principalToken).safeTransfer(\r\n                _msgSender(),\r\n                principalAmount\r\n            );\r\n        }\r\n\r\n        transfer(\r\n            request.offerId,\r\n            _msgSender(),\r\n            principalAmount,\r\n            offer.principalToken,\r\n            Type.CLAIMED\r\n        );\r\n\r\n        uint256 collateralPriceInUSD = _priceFeed.amountInUSD(\r\n            offer.collateralToken,\r\n            collateralAmount\r\n        );\r\n\r\n        _loanManager.createLoan(\r\n            request.offerId,\r\n            offer.offerType,\r\n            offer.principalToken,\r\n            offer.collateralToken,\r\n            principalAmount,\r\n            collateralAmount,\r\n            collateralPriceInUSD,\r\n            request.interestRate,\r\n            request.daysToMaturity,\r\n            0,\r\n            _msgSender(),\r\n            request.creator\r\n        );\r\n\r\n        _offerManager.afterBorrowingLoan(\r\n            offer.offerId,\r\n            principalAmount,\r\n            collateralAmount\r\n        );\r\n\r\n        _offerManager.acceptRequest(requestId, _msgSender());\r\n\r\n        uint256 amountBorrowedInUSD = _priceFeed.amountInUSD(\r\n            offer.principalToken,\r\n            principalAmount\r\n        );\r\n\r\n        _activity.borrowLoan(\r\n            request.creator,\r\n            _msgSender(),\r\n            amountBorrowedInUSD\r\n        );\r\n    }\r\n\r\n    // ============= ReActivating Lending / Borrowing Offer ============= //\r\n\r\n    /// @notice This function will reactivate a offer when they expires\r\n    function reActivateOffer(uint256 offerId, uint16 toExpire)\r\n        public\r\n        whenNotPaused\r\n    {\r\n        _offerManager.reActivateOffer(offerId, toExpire, _msgSender());\r\n    }\r\n\r\n    // =============== Loan Repayment ============= //\r\n\r\n    /// @notice This function is use to repay a loan\r\n    /// @dev The percentage params specifies the portion to be repaid\r\n    function repayLoan(uint256 loanId, uint16 percentage)\r\n        public\r\n        payable\r\n        whenNotPaused\r\n    {\r\n        checkPercentage(percentage);\r\n\r\n        LoanLibrary.Loan memory loan = _loanManager.getLoan(loanId);\r\n\r\n        require(loan.borrower == _msgSender(), \"ERR_NOT_BORROWER\");\r\n\r\n        uint256 time = block.timestamp;\r\n        uint256 ellapsedSecs = (time - loan.startDate);\r\n\r\n        uint256 principalAmount = percentageOf(\r\n            loan.initialPrincipal,\r\n            percentage\r\n        );\r\n\r\n        uint256 collateralAmount = percentageOf(\r\n            loan.initialCollateral,\r\n            percentage\r\n        );\r\n\r\n        uint256 repaymentPrincipal = getFullInterestAmount(\r\n            principalAmount,\r\n            ellapsedSecs,\r\n            loan.interestRate\r\n        );\r\n\r\n        uint256 interestPaid = (repaymentPrincipal - principalAmount);\r\n        uint256 fee = percentageOf(interestPaid, _feeManager.feePercentage());\r\n\r\n        uint256 unClaimedInterest = (interestPaid - fee);\r\n\r\n        _feeManager.credit(loan.principalToken, fee);\r\n\r\n        bool completed = _loanManager.repayLoan(\r\n            loanId,\r\n            unClaimedInterest,\r\n            principalAmount,\r\n            collateralAmount\r\n        );\r\n\r\n        if (loan.principalToken == nativeAddress) {\r\n            require(msg.value >= repaymentPrincipal);\r\n        } else {\r\n            ERC20(loan.principalToken).safeTransferFrom(\r\n                _msgSender(),\r\n                address(this),\r\n                repaymentPrincipal\r\n            );\r\n        }\r\n\r\n        transfer(\r\n            loan.offerId,\r\n            _msgSender(),\r\n            principalAmount.add(unClaimedInterest),\r\n            loan.principalToken,\r\n            Type.ADDED\r\n        );\r\n\r\n        uint256 interestPaidInUSD = _priceFeed.amountInUSD(\r\n            loan.principalToken,\r\n            (repaymentPrincipal - principalAmount)\r\n        );\r\n\r\n        _activity.repayLoan(\r\n            loan.lender,\r\n            _msgSender(),\r\n            interestPaidInUSD,\r\n            completed\r\n        );\r\n    }\r\n\r\n    /// @notice This function is use to repay a liquidated loan\r\n    /// @dev Liquidated loans cannot be repaid by percentage\r\n    function repayLiquidatedLoan(uint256 loanId) public payable whenNotPaused {}\r\n\r\n    // =========== Cancel / Reject Request Functions =========== //\r\n\r\n    /// @notice This function will reject a request\r\n    /// @dev Request can only be rejected by the offer creator\r\n    function rejectRequest(uint256 requestId) public whenNotPaused {\r\n        _offerManager.rejectRequest(requestId, _msgSender());\r\n    }\r\n\r\n    /// @notice This function will cancel a request\r\n    /// @dev Request can only be calncelled by the request creator\r\n    function cancelOfferRequest(uint256 requestId) public whenNotPaused {\r\n        RequestLibrary.Request memory request = _offerManager.getRequest(\r\n            requestId\r\n        );\r\n\r\n        OfferLibrary.Offer memory offer = _offerManager.getOffer(\r\n            request.offerId\r\n        );\r\n\r\n        if (request.requestType == RequestLibrary.Type.LENDING_REQUEST) {\r\n            uint256 principalAmount = percentageOf(\r\n                offer.initialPrincipal,\r\n                request.percentage\r\n            );\r\n\r\n            if (offer.principalToken == nativeAddress) {\r\n                payable(_msgSender()).transfer(principalAmount);\r\n            } else {\r\n                ERC20(offer.principalToken).safeTransfer(\r\n                    _msgSender(),\r\n                    principalAmount\r\n                );\r\n            }\r\n        } else {\r\n            if (offer.collateralToken == nativeAddress) {\r\n                payable(_msgSender()).transfer(request.collateralAmount);\r\n            } else {\r\n                ERC20(offer.collateralToken).safeTransfer(\r\n                    _msgSender(),\r\n                    request.collateralAmount\r\n                );\r\n            }\r\n        }\r\n\r\n        _offerManager.cancelRequest(requestId, _msgSender());\r\n    }\r\n\r\n    // =========== Claim Functions =========== //\r\n\r\n    /// @notice This function is use to claim back unlocked collateral from a loan\r\n    /// @dev Can only be called by the borrower\r\n    function claimCollateral(uint256 loanId) public nonReentrant whenNotPaused {\r\n        (uint256 amount, uint256 offerId, address token) = _loanManager\r\n            .claimCollateral(loanId, _msgSender());\r\n\r\n        if (token == nativeAddress) {\r\n            payable(_msgSender()).transfer(amount);\r\n        } else {\r\n            ERC20(token).safeTransfer(_msgSender(), amount);\r\n        }\r\n\r\n        transfer(offerId, _msgSender(), amount, token, Type.CLAIMED);\r\n    }\r\n\r\n    /// @notice This function is use to claim borrowed loan principal\r\n    /// @dev Can only be called by the borrower\r\n    function claimBorrowedPrincipal(uint256 loanId)\r\n        public\r\n        nonReentrant\r\n        whenNotPaused\r\n    {\r\n        (uint256 amount, uint256 offerId, address token) = _loanManager\r\n            .claimBorrowedPrincipal(loanId, _msgSender());\r\n\r\n        if (token == nativeAddress) {\r\n            payable(_msgSender()).transfer(amount);\r\n        } else {\r\n            ERC20(token).safeTransfer(_msgSender(), amount);\r\n        }\r\n\r\n        transfer(offerId, _msgSender(), amount, token, Type.CLAIMED);\r\n    }\r\n\r\n    /// @notice This function is use to claim back repaid principal + interests from a loan\r\n    /// @dev Can only be called by the lender\r\n    function claimPrincipal(uint256 loanId) public nonReentrant whenNotPaused {\r\n        (uint256 amount, uint256 offerId, address token) = _loanManager\r\n            .claimPrincipal(loanId, _msgSender());\r\n\r\n        if (token == nativeAddress) {\r\n            payable(_msgSender()).transfer(amount);\r\n        } else {\r\n            ERC20(token).safeTransfer(_msgSender(), amount);\r\n        }\r\n\r\n        transfer(offerId, _msgSender(), amount, token, Type.CLAIMED);\r\n    }\r\n\r\n    /// @notice This function is use to claim defaulted loan collateral\r\n    /// @dev Can only be called by the lender\r\n    function claimDefaultCollateral(uint256 loanId)\r\n        public\r\n        nonReentrant\r\n        whenNotPaused\r\n    {\r\n        (uint256 amount, uint256 offerId, address token) = _loanManager\r\n            .claimDefaultCollateral(loanId, _msgSender());\r\n\r\n        if (token == nativeAddress) {\r\n            payable(_msgSender()).transfer(amount);\r\n        } else {\r\n            ERC20(token).safeTransfer(_msgSender(), amount);\r\n        }\r\n\r\n        transfer(offerId, _msgSender(), amount, token, Type.CLAIMED);\r\n    }\r\n\r\n    // =========== Loan Liquidation ============= //\r\n\r\n    /// @dev this function will liquidate a loan when it has pass\r\n    /// maturity date + grace days.\r\n    /// It can be call by anyone\r\n    function liquidateLoan(uint256 loanId) public nonReentrant {\r\n        LoanLibrary.Loan memory loan = _loanManager.getLoan(loanId);\r\n\r\n        // calculate the duration of the loan\r\n        uint256 time = block.timestamp;\r\n        uint256 ellapsedSecs = (time - loan.startDate);\r\n\r\n        uint256 repaymentPrincipal = getFullInterestAmount(\r\n            loan.currentPrincipal,\r\n            ellapsedSecs,\r\n            loan.interestRate\r\n        );\r\n\r\n        uint256 repaymentCollateral = _priceFeed.exchangeRate(\r\n            loan.principalToken,\r\n            loan.collateralToken,\r\n            repaymentPrincipal\r\n        );\r\n\r\n        uint256 interestInCollateral = _priceFeed.exchangeRate(\r\n            loan.principalToken,\r\n            loan.collateralToken,\r\n            (repaymentPrincipal - loan.currentPrincipal)\r\n        );\r\n\r\n        uint256 principalPaid;\r\n        uint256 collateralRetrieved;\r\n        uint256 collateralFee;\r\n\r\n        uint256 fee = percentageOf(\r\n            interestInCollateral,\r\n            _feeManager.feePercentage()\r\n        );\r\n\r\n        if (loan.currentCollateral >= (repaymentCollateral - fee)) {\r\n            collateralRetrieved = (repaymentCollateral - fee);\r\n            principalPaid = loan.currentPrincipal;\r\n\r\n            if (loan.currentCollateral >= repaymentCollateral) {\r\n                collateralFee = fee;\r\n            } else {\r\n                collateralRetrieved = loan.currentCollateral;\r\n                collateralFee = (loan.currentCollateral -\r\n                    (repaymentCollateral - fee));\r\n            }\r\n        } else {\r\n            collateralRetrieved = loan.currentCollateral;\r\n\r\n            uint256 collateralInPrincipal = _priceFeed.exchangeRate(\r\n                loan.collateralToken,\r\n                loan.principalToken,\r\n                collateralRetrieved\r\n            );\r\n\r\n            principalPaid = collateralInPrincipal;\r\n            collateralFee = 0;\r\n        }\r\n\r\n        _feeManager.credit(loan.collateralToken, collateralFee);\r\n\r\n        _loanManager.liquidateLoan(\r\n            loanId,\r\n            principalPaid,\r\n            collateralRetrieved,\r\n            (collateralRetrieved - collateralFee)\r\n        );\r\n    }\r\n\r\n    // ============= ABOUT ============ //\r\n\r\n    function getVersion() public pure returns (uint256) {\r\n        return LENDINGPOOL_VERSION;\r\n    }\r\n\r\n    // ============= ADMIN FUNCTIONS =============== //\r\n\r\n    function setFeeds(\r\n        address ltv_,\r\n        address activity_,\r\n        address priceFeed_\r\n    ) public onlyOwner nonReentrant {\r\n        _ltvRatio = ILoanToValueRatio(ltv_);\r\n        _activity = Activity(activity_);\r\n        _priceFeed = IPriceFeed(priceFeed_);\r\n    }\r\n\r\n    function setManagers(\r\n        address loanManager_,\r\n        address offerManager_,\r\n        address feeManager_\r\n    ) public onlyOwner nonReentrant {\r\n        _loanManager = ILoanManager(loanManager_);\r\n        _offerManager = IOfferManager(offerManager_);\r\n        _feeManager = IFeeManager(feeManager_);\r\n    }\r\n\r\n    /// @dev to claim developer revenue\r\n    function claim(\r\n        address token,\r\n        address payable receiver,\r\n        uint256 amount\r\n    ) public onlyOwner nonReentrant {\r\n        require(amount > 0, \"ERR_ZERO_AMOUNT\");\r\n        _feeManager.debit(token, amount);\r\n        if (token == nativeAddress) {\r\n            receiver.transfer(amount);\r\n        } else {\r\n            ERC20(token).safeTransfer(receiver, amount);\r\n        }\r\n    }\r\n}\r\n",
  "sourcePath": "C:\\Users\\DELL\\Documents\\darsh\\smart-contracts\\contracts\\LendingPool.sol",
  "compiler": {
    "name": "solc",
    "version": "0.8.17+commit.8df45f5f.Emscripten.clang"
  },
  "schemaVersion": "3.4.11",
  "updatedAt": "2023-02-28T15:07:35.796Z",
  "devdoc": {
    "author": "Arogundade Ibrahim*",
    "details": "Main point of interaction with the DARSH protocol's market - Users can:   # Create Lending/Borrowing offers   # Request for new terms on offers   # Repay (Fully/Installment)   # Claim principal and earnings   # Claim back collateral   # Cancel/Reject/Accept requests - All admin functions are callable by the deployer address",
    "kind": "dev",
    "methods": {
      "acceptBorrowingOffer(uint256,uint16)": {
        "details": "The percentage params specifies the portion of the offer to accept"
      },
      "acceptLendingOffer(uint256,uint16,address)": {
        "details": "The percentage params specifies the portion of the offer to accept"
      },
      "acceptOwnership()": {
        "details": "The new owner accepts the ownership transfer."
      },
      "cancelOfferRequest(uint256)": {
        "details": "Request can only be calncelled by the request creator"
      },
      "claim(address,address,uint256)": {
        "details": "to claim developer revenue"
      },
      "claimBorrowedPrincipal(uint256)": {
        "details": "Can only be called by the borrower"
      },
      "claimCollateral(uint256)": {
        "details": "Can only be called by the borrower"
      },
      "claimDefaultCollateral(uint256)": {
        "details": "Can only be called by the lender"
      },
      "claimPrincipal(uint256)": {
        "details": "Can only be called by the lender"
      },
      "createLendingOffer(uint256,address,address[],uint16,uint256,uint16)": {
        "details": "the principalAmount_ parameter is use for ERC20 tokens only"
      },
      "liquidateLoan(uint256)": {
        "details": "this function will liquidate a loan when it has pass maturity date + grace days. It can be call by anyone"
      },
      "owner()": {
        "details": "Returns the address of the current owner."
      },
      "paused()": {
        "details": "Returns true if the contract is paused, and false otherwise."
      },
      "pendingOwner()": {
        "details": "Returns the address of the pending owner."
      },
      "rejectRequest(uint256)": {
        "details": "Request can only be rejected by the offer creator"
      },
      "renounceOwnership()": {
        "details": "Leaves the contract without owner. It will not be possible to call `onlyOwner` functions anymore. Can only be called by the current owner. NOTE: Renouncing ownership will leave the contract without an owner, thereby removing any functionality that is only available to the owner."
      },
      "repayLiquidatedLoan(uint256)": {
        "details": "Liquidated loans cannot be repaid by percentage"
      },
      "repayLoan(uint256,uint16)": {
        "details": "The percentage params specifies the portion to be repaid"
      },
      "transferOwnership(address)": {
        "details": "Starts the ownership transfer of the contract to a new account. Replaces the pending transfer if there is one. Can only be called by the current owner."
      }
    },
    "stateVariables": {
      "LENDINGPOOL_VERSION": {
        "details": "contract version"
      },
      "nativeAddress": {
        "details": "for convienency this address is used to represent FTM just like ERC20"
      }
    },
    "title": "LendingPool contract",
    "version": 1
  },
  "userdoc": {
    "kind": "user",
    "methods": {
      "acceptBorrowingOffer(uint256,uint16)": {
        "notice": "This function accepts a borrowing offer | LEND"
      },
      "acceptBorrowingRequest(uint256)": {
        "notice": "This funcion accepts a borrowing request placed on a lender's offer"
      },
      "acceptLendingOffer(uint256,uint16,address)": {
        "notice": "This function accepts a lending offer | BORROW"
      },
      "acceptLendingRequest(uint256)": {
        "notice": "This funcion accepts a lending request placed on a borrower's offer"
      },
      "cancelOfferRequest(uint256)": {
        "notice": "This function will cancel a request"
      },
      "claimBorrowedPrincipal(uint256)": {
        "notice": "This function is use to claim borrowed loan principal"
      },
      "claimCollateral(uint256)": {
        "notice": "This function is use to claim back unlocked collateral from a loan"
      },
      "claimDefaultCollateral(uint256)": {
        "notice": "This function is use to claim defaulted loan collateral"
      },
      "claimPrincipal(uint256)": {
        "notice": "This function is use to claim back repaid principal + interests from a loan"
      },
      "createBorrowingOffer(address,uint256,address,uint256,uint16,uint16)": {
        "notice": "This function creates a new borrowing offer"
      },
      "createBorrowingRequest(uint256,uint16,address,uint256,uint16,uint16)": {
        "notice": "This function creates a new borrowing request on a lending offer"
      },
      "createLendingOffer(uint256,address,address[],uint16,uint256,uint16)": {
        "notice": "This function creates a new lending offer"
      },
      "createLendingRequest(uint256,uint16,uint16,uint256,uint16)": {
        "notice": "This function creates a new lending request on a borrowing offer"
      },
      "reActivateOffer(uint256,uint16)": {
        "notice": "This function will reactivate a offer when they expires"
      },
      "rejectRequest(uint256)": {
        "notice": "This function will reject a request"
      },
      "repayLiquidatedLoan(uint256)": {
        "notice": "This function is use to repay a liquidated loan"
      },
      "repayLoan(uint256,uint16)": {
        "notice": "This function is use to repay a loan"
      }
    },
    "version": 1
  }
}