{
  "contractName": "LendingPool",
  "abi": [
    {
      "inputs": [
        {
          "internalType": "address",
          "name": "poolManager_",
          "type": "address"
        },
        {
          "internalType": "address",
          "name": "loanManager_",
          "type": "address"
        },
        {
          "internalType": "address",
          "name": "offerManager_",
          "type": "address"
        },
        {
          "internalType": "address",
          "name": "feeManager_",
          "type": "address"
        }
      ],
      "stateMutability": "nonpayable",
      "type": "constructor"
    },
    {
      "inputs": [],
      "name": "INTEREST_RATE_DENOMINATOR",
      "outputs": [
        {
          "internalType": "uint256",
          "name": "",
          "type": "uint256"
        }
      ],
      "stateMutability": "view",
      "type": "function"
    },
    {
      "inputs": [],
      "name": "PERCENT",
      "outputs": [
        {
          "internalType": "uint16",
          "name": "",
          "type": "uint16"
        }
      ],
      "stateMutability": "view",
      "type": "function"
    },
    {
      "inputs": [
        {
          "internalType": "uint256",
          "name": "principal",
          "type": "uint256"
        },
        {
          "internalType": "uint256",
          "name": "durationSecs",
          "type": "uint256"
        },
        {
          "internalType": "uint256",
          "name": "interest",
          "type": "uint256"
        }
      ],
      "name": "getFullInterestAmount",
      "outputs": [
        {
          "internalType": "uint256",
          "name": "",
          "type": "uint256"
        }
      ],
      "stateMutability": "pure",
      "type": "function"
    },
    {
      "inputs": [],
      "name": "nativeAddress",
      "outputs": [
        {
          "internalType": "address",
          "name": "",
          "type": "address"
        }
      ],
      "stateMutability": "view",
      "type": "function"
    },
    {
      "inputs": [
        {
          "internalType": "uint256",
          "name": "total",
          "type": "uint256"
        },
        {
          "internalType": "uint160",
          "name": "percent",
          "type": "uint160"
        }
      ],
      "name": "percentageOf",
      "outputs": [
        {
          "internalType": "uint256",
          "name": "",
          "type": "uint256"
        }
      ],
      "stateMutability": "pure",
      "type": "function"
    },
    {
      "inputs": [
        {
          "internalType": "uint256",
          "name": "principalAmount_",
          "type": "uint256"
        },
        {
          "internalType": "address",
          "name": "principalToken",
          "type": "address"
        },
        {
          "internalType": "address[]",
          "name": "collateralTokens",
          "type": "address[]"
        },
        {
          "internalType": "uint16",
          "name": "daysToMaturity",
          "type": "uint16"
        },
        {
          "internalType": "uint256",
          "name": "interest",
          "type": "uint256"
        },
        {
          "internalType": "uint16",
          "name": "daysToExpire",
          "type": "uint16"
        }
      ],
      "name": "createLendingOffer",
      "outputs": [],
      "stateMutability": "payable",
      "type": "function"
    },
    {
      "inputs": [
        {
          "internalType": "uint256",
          "name": "offerId",
          "type": "uint256"
        },
        {
          "internalType": "uint16",
          "name": "percentage",
          "type": "uint16"
        },
        {
          "internalType": "uint16",
          "name": "daysToMaturity",
          "type": "uint16"
        },
        {
          "internalType": "uint256",
          "name": "interest",
          "type": "uint256"
        },
        {
          "internalType": "uint16",
          "name": "hoursToExpire",
          "type": "uint16"
        }
      ],
      "name": "createLendingRequest",
      "outputs": [],
      "stateMutability": "payable",
      "type": "function"
    },
    {
      "inputs": [
        {
          "internalType": "uint256",
          "name": "offerId",
          "type": "uint256"
        },
        {
          "internalType": "uint16",
          "name": "percentage",
          "type": "uint16"
        }
      ],
      "name": "acceptBorrowingOffer",
      "outputs": [],
      "stateMutability": "payable",
      "type": "function"
    },
    {
      "inputs": [
        {
          "internalType": "uint256",
          "name": "requestId",
          "type": "uint256"
        }
      ],
      "name": "acceptBorrowingRequest",
      "outputs": [],
      "stateMutability": "nonpayable",
      "type": "function"
    },
    {
      "inputs": [
        {
          "internalType": "address",
          "name": "principalToken",
          "type": "address"
        },
        {
          "internalType": "uint256",
          "name": "principalAmount",
          "type": "uint256"
        },
        {
          "internalType": "address",
          "name": "collateralToken",
          "type": "address"
        },
        {
          "internalType": "uint256",
          "name": "interest",
          "type": "uint256"
        },
        {
          "internalType": "uint16",
          "name": "daysToMaturity",
          "type": "uint16"
        },
        {
          "internalType": "uint16",
          "name": "hoursToExpire",
          "type": "uint16"
        }
      ],
      "name": "createBorrowingOffer",
      "outputs": [],
      "stateMutability": "payable",
      "type": "function"
    },
    {
      "inputs": [
        {
          "internalType": "uint256",
          "name": "offerId",
          "type": "uint256"
        },
        {
          "internalType": "uint16",
          "name": "percentage",
          "type": "uint16"
        },
        {
          "internalType": "address",
          "name": "collateralToken",
          "type": "address"
        },
        {
          "internalType": "uint256",
          "name": "interest",
          "type": "uint256"
        },
        {
          "internalType": "uint16",
          "name": "daysToMaturity",
          "type": "uint16"
        },
        {
          "internalType": "uint16",
          "name": "hoursToExpire",
          "type": "uint16"
        }
      ],
      "name": "createBorrowingRequest",
      "outputs": [],
      "stateMutability": "payable",
      "type": "function"
    },
    {
      "inputs": [
        {
          "internalType": "uint256",
          "name": "offerId",
          "type": "uint256"
        },
        {
          "internalType": "uint16",
          "name": "percentage",
          "type": "uint16"
        },
        {
          "internalType": "address",
          "name": "collateralToken",
          "type": "address"
        }
      ],
      "name": "acceptLendingOffer",
      "outputs": [],
      "stateMutability": "payable",
      "type": "function"
    },
    {
      "inputs": [
        {
          "internalType": "uint256",
          "name": "requestId",
          "type": "uint256"
        }
      ],
      "name": "acceptLendingRequest",
      "outputs": [],
      "stateMutability": "payable",
      "type": "function"
    },
    {
      "inputs": [
        {
          "internalType": "uint256",
          "name": "offerId",
          "type": "uint256"
        },
        {
          "internalType": "uint16",
          "name": "toExpire",
          "type": "uint16"
        }
      ],
      "name": "reActivateOffer",
      "outputs": [],
      "stateMutability": "nonpayable",
      "type": "function"
    },
    {
      "inputs": [
        {
          "internalType": "uint256",
          "name": "loanId",
          "type": "uint256"
        },
        {
          "internalType": "uint16",
          "name": "percentage",
          "type": "uint16"
        }
      ],
      "name": "repayLoan",
      "outputs": [],
      "stateMutability": "payable",
      "type": "function"
    },
    {
      "inputs": [
        {
          "internalType": "uint256",
          "name": "loanId",
          "type": "uint256"
        }
      ],
      "name": "claimCollateral",
      "outputs": [],
      "stateMutability": "nonpayable",
      "type": "function"
    },
    {
      "inputs": [
        {
          "internalType": "uint256",
          "name": "loanId",
          "type": "uint256"
        }
      ],
      "name": "claimPrincipal",
      "outputs": [],
      "stateMutability": "nonpayable",
      "type": "function"
    },
    {
      "inputs": [
        {
          "internalType": "uint256",
          "name": "loanId",
          "type": "uint256"
        }
      ],
      "name": "claimDefaultCollateral",
      "outputs": [],
      "stateMutability": "nonpayable",
      "type": "function"
    },
    {
      "inputs": [
        {
          "internalType": "uint256",
          "name": "loanId",
          "type": "uint256"
        }
      ],
      "name": "repayLiquidatedLoan",
      "outputs": [],
      "stateMutability": "payable",
      "type": "function"
    },
    {
      "inputs": [
        {
          "internalType": "uint256",
          "name": "loanId",
          "type": "uint256"
        }
      ],
      "name": "liquidateLoan",
      "outputs": [],
      "stateMutability": "nonpayable",
      "type": "function"
    },
    {
      "inputs": [
        {
          "internalType": "address",
          "name": "ltv_",
          "type": "address"
        }
      ],
      "name": "setLTV",
      "outputs": [],
      "stateMutability": "nonpayable",
      "type": "function"
    },
    {
      "inputs": [
        {
          "internalType": "address",
          "name": "activity_",
          "type": "address"
        }
      ],
      "name": "setActivity",
      "outputs": [],
      "stateMutability": "nonpayable",
      "type": "function"
    },
    {
      "inputs": [
        {
          "internalType": "address",
          "name": "priceFeed_",
          "type": "address"
        }
      ],
      "name": "setPriceFeed",
      "outputs": [],
      "stateMutability": "nonpayable",
      "type": "function"
    },
    {
      "inputs": [
        {
          "internalType": "address",
          "name": "newOwner",
          "type": "address"
        }
      ],
      "name": "changeOwner",
      "outputs": [],
      "stateMutability": "nonpayable",
      "type": "function"
    },
    {
      "inputs": [
        {
          "internalType": "address",
          "name": "token",
          "type": "address"
        },
        {
          "internalType": "address payable",
          "name": "receiver",
          "type": "address"
        },
        {
          "internalType": "uint256",
          "name": "amount",
          "type": "uint256"
        }
      ],
      "name": "claim",
      "outputs": [],
      "stateMutability": "nonpayable",
      "type": "function"
    }
  ],
  "bytecode": "0x608034620000d557601f62003ecb38819003918201601f19168301916001600160401b03831184841017620000da57808492608094604052833981010312620000d5576200004d81620000f0565b906200005c60208201620000f0565b6200007860606200007060408501620000f0565b9301620000f0565b90600160005560018060a01b03928380928160018060a01b0319971687600554161760055516856006541617600655168360075416176007551681600854161760085533906001541617600155604051613dc59081620001068239f35b600080fd5b634e487b7160e01b600052604160045260246000fd5b51906001600160a01b0382168203620000d55756fe6080604052600436101561001257600080fd5b6000803560e01c806310e14e19146133515780632672a87a14612e055780632e47633714612ddc5780634add7c821461293157806353188b14146125075780635c7f31aa1461207f57806361ba94431461206f578063628118ee14611c70578063724e78da14611c255780637cc5805a14611a55578063996cba6814611933578063a33928da146114bc578063a6aea415146113a7578063a6f9dae11461135e578063b2ac850d146112f2578063b85a8b20146112d6578063c1bc89ef1461106a578063c49785b414610f55578063cc3266e814610f32578063ccdd9f5d14610b29578063e0b2695914610af5578063e0f7dffd14610ac8578063e3f43fdb14610a7d578063e826fbe7146102815763f9af05791461013057600080fd5b34610216576020366003190112610216578060043560018060a01b0380600654166040518091632820036560e11b82528460048301528160246102809485935afa918215610276578592610249575b505061019382610260830151163314613c0b565b8382604083015116600080516020613d708339815191528114600014610231575080806101c081940151818115610228575b3390f115610219575b6006541690813b1561022457829160248392604051948593849263f9af057960e01b845260048401525af18015610219576102065750f35b61020f906133fb565b6102165780f35b80fd5b6040513d84823e3d90fd5b5050fd5b506108fc6101c5565b90506101c06102449201519033906138e0565b6101ce565b6102689250803d1061026f575b6102608183613425565b810190613a7b565b388061017f565b503d610256565b6040513d87823e3d90fd5b506060366003190112610216576102966133c8565b9061029f6133b2565b916102a981613c85565b6007546040516322bc934560e11b8152600480359082015291906001600160a01b03168383602481845afa9283156109ec578493610a59575b50604051633970062960e01b815260048035908201526001600160a01b038616602482015290602090829060449082905afa9081156109ec576103419291610331918691610a2a575b50613a2f565b61ffff6060840151911690613d4b565b60035460208381015160405163912d228f60e01b81526001600160a01b0391821660048201526024810185905292839160449183918991165af19081156109ec5784916109f7575b50600480546040516322a0fe3360e21b81523392810192909252602482019290925290602090829060449082906001600160a01b03165afa80156109ec5784906109b1575b600354602085810151604051631c07d98160e21b81526001600160a01b03918216600482015289821660248201526044810187905294509091849116818881606481015b03925af191821561027657859261097d575b5060048054604051636882509b60e11b81529160209183919082906001600160a01b03165afa90811561097257869161092a575b50610471929160ff61046b921690613a01565b90613d4b565b91600080516020613d708339815191526001600160a01b038616848282036109185750503484106108db575b60208201516001600160a01b031690839082036108cb57505083808380156108c1575b8280929181923390f1156107b4575b6005546101008201516001600160a01b039182169116813b156108bd57604051638340f54960e01b81526001600160a01b0391821660048201529087166024820152604481018590529085908290606490829084905af18015610276579085916108a9575b505060055461010082015160208301516001600160a01b03928316929081169116823b156108a557604051633dae446f60e21b81526001600160a01b03918216600482015291166024820152604481018490529085908290606490829084905af180156102765790859161088d575b505060035460405163912d228f60e01b81526001600160a01b03878116600483015260248201869052909491602091869160449183918a91165af1938415610276578594610859575b5060018060a01b0360065416956101a083015160028110156108455786976020928887936106628a60018060a01b03888b0151169260808b015161ffff60a08d015116908c61010060018060a01b0391015116936040519c8d9b8c9a8b9963298b04a560e01b8b52339760043560048d0161385b565b03925af1801561027657610816575b506007546001600160a01b0316803b156108125784809160446040518094819363f094cb9560e01b835260043560048401528860248401525af19081156102765785916107fe575b505060035460209182015160405163912d228f60e01b81526001600160a01b0391821660048201526024810194909452839116818681604481015b03925af19081156107b45783916107c4575b506002546001600160a01b0316803b156107bf576040516311eba9df60e21b8152336004820152602481019290925283908290604490829084905af19081156107b457839161079d575b50506002546001600160a01b0316803b156102245760405163094f618d60e11b8152336004820152602481019290925282908290818381604481015b03925af18015610219576102065750f35b6107a6906133fb565b6107b1578138610750565b50fd5b6040513d85823e3d90fd5b505050fd5b9250506020823d6020116107f6575b816107e060209383613425565b810103126107f15782915138610706565b600080fd5b3d91506107d3565b610807906133fb565b6107bf5783386106b9565b8480fd5b6020809295503d831161083e575b61082e8183613425565b810103126107f157839238610671565b503d610824565b634e487b7160e01b87526021600452602487fd5b9093506020813d602011610885575b8161087560209383613425565b810103126107f1575192386105ec565b3d9150610868565b610896906133fb565b6108a15783386105a3565b8380fd5b8680fd5b6108b2906133fb565b6108a1578338610534565b8580fd5b6108fc91506104c0565b6108d69133906138e0565b6104cf565b60405162461bcd60e51b815260206004820152601560248201527411549497d0d3d31310551154905317d05353d55395605a1b6044820152606490fd5b610925913090339061345f565b61049d565b90506020813d60201161096a575b8161094560209383613425565b810103126108bd57610471929160ff61096061046b936139f3565b9250509192610458565b3d9150610938565b6040513d88823e3d90fd5b9091506020813d6020116109a9575b8161099960209383613425565b810103126107f157519038610424565b3d915061098c565b506020813d6020116109e4575b816109cb60209383613425565b810103126108a1576109df610412916136db565b6103ce565b3d91506109be565b6040513d86823e3d90fd5b90506020813d602011610a22575b81610a1260209383613425565b810103126107f157516020610389565b3d9150610a05565b610a4c915060203d602011610a52575b610a448183613425565b8101906134b2565b3861032b565b503d610a3a565b610a769193503d8086833e610a6e8183613425565b8101906136fe565b91386102e2565b503461021657602036600319011261021657610a9761339c565b6001546001600160a01b039190610ab19083163314613c48565b166001600160601b0360a01b600254161760025580f35b5034610216576060366003190112610216576020610aed604435602435600435613d1e565b604051908152f35b503461021657604036600319011261021657602435906001600160a01b0382168203610216576020610aed83600435613d4b565b503461021657806020806003193601126107b1576001546001600160a01b039190610b579083163314613c48565b8160065416906040518092632820036560e11b825260043560048301528160246102809586935afa928315610276578593610f13575b5050610b9e61014083015142613be8565b92610bb660a084019485519061012086015191613d1e565b6003546040858101516060870180519251631c07d98160e21b8082526001600160a01b03938816841660048301529387169290921660248301526044820185905295939092849084908716818c816064810103925af1928315610ed4578993610edf575b5083610c7491888a8c610c3f8a6040816003541695015116948b8d5116935190613be8565b6040518881526001600160a01b0395861660048201529290941660248301526044820193909352938492839182906064820190565b03925af1908115610ed4578991610ea2575b50889084866008541660046040518095819363a001ecdd60e01b83525af1908115610e97578a91610e5b575b610cbc9250613d4b565b9260e08701968751610cce8686613be8565b11610dc557505050610ce08282613be8565b95519451818110610da8575050915b81806008541691511690803b156108a55760405163ef6506db60e01b81526001600160a01b039290921660048301526024820184905286908290604490829084905af1908115610972578691610d94575b5050610d5190600654169184613be8565b90803b1561081257604051633799ba3f60e01b8152600480359082015260248101939093526044830193909352606482015290829082908183816084810161078c565b610d9d906133fb565b610812578438610d40565b909550610db9610dbf928297613be8565b90613be8565b91610cef565b965160035487516040998a015199519485526001600160a01b039088168116600486015298871690981660248401526044830181905297509395909250839150829060649082908a9089165af1918215610972578692610e2a575b5050918491610cef565b8196508092503d8311610e54575b610e428183613425565b810103126107f1578493513880610e20565b503d610e38565b90508482813d8311610e90575b610e728183613425565b81010312610e8c57610e86610cbc926136db565b90610cb2565b8980fd5b503d610e68565b6040513d8c823e3d90fd5b809950848092503d8311610ecd575b610ebb8183613425565b810103126107f1578880985190610c86565b503d610eb1565b6040513d8b823e3d90fd5b985091508288813d8111610f0c575b610ef88183613425565b810103126107f15796518897909183610c1a565b503d610eee565b610f2a929350803d1061026f576102608183613425565b903880610b8d565b50346102165780600319360112610216576020604051670de0b6b3a76400008152f35b5034610216576020366003190112610216578060043560018060a01b0380600654166040518091632820036560e11b82528460048301528160246102809485935afa91821561027657859261104d575b5050610fb982610240830151163314613ba9565b8382606083015116600080516020613d708339815191528114600014611035575080806101e08194015181811561102c575b3390f115610219575b6006541690813b15610224578291602483926040519485938492633125e16d60e21b845260048401525af18015610219576102065750f35b506108fc610feb565b90506101e06110489201519033906138e0565b610ff4565b6110639250803d1061026f576102608183613425565b3880610fa5565b5060c0366003190112610216576001600160a01b0360243581811691600435908383036107f1576044359367ffffffffffffffff85116108bd57366023860112156108bd578460040135916110be83613447565b6110cb6040519182613425565b8381526020968782016024819660051b830101913683116112d257602401905b8282106112ba575050506064359461ffff908187168097036107f15761110f6133ea565b90835115611275578a600080516020613d70833981519152870361126257905034985b8560055416803b1561125e57604051638340f54960e01b81523360048201526001600160a01b03929092166024830152604482018b905282908290606490829084905af180156102195761124a575b5093919289979896938360079793975416966040519a8b9963031137cd60e61b8b5260e48b019560048c015260248b015260843560448b015260648a015216608488015260e060a4880152518091526101048601929184905b8282106112295750505050908380923360c483015203925af180156107b457611201578280f35b813d8311611222575b6112148183613425565b810103126107f15738808280f35b503d61120a565b8351811685528a988a98508c965094850194909301926001909101906111da565b611253906133fb565b610e8c578938611181565b8280fd5b90986112708a30338a61345f565b611132565b60405162461bcd60e51b8152600481018b9052601760248201527f4552525f4e4f5f434f4c4c41544552414c5f54595045530000000000000000006044820152606490fd5b813585811681036107f15781529089019089016110eb565b8a80fd5b5034610216578060031936011261021657602060405160648152f35b5034610216576040366003190112610216578061130d6133c8565b6007546001600160a01b031690813b156102245761ffff6064849283604051958694859363099bfe6b60e01b855260043560048601521660248401523360448401525af18015610219576102065750f35b50346102165760203660031901126102165761137861339c565b600154906001600160a01b03906113923383851614613c48565b16906001600160601b0360a01b161760015580f35b5034610216576020366003190112610216578060043560018060a01b0380600654166040518091632820036560e11b82528460048301528160246102809485935afa91821561027657859261149f575b505061140b82610260830151163314613c0b565b8382606083015116600080516020613d708339815191528114600014611487575080806102008194015181811561147e575b3390f115610219575b6006541690813b1561022457829160248392604051948593849263a6aea41560e01b845260048401525af18015610219576102065750f35b506108fc61143d565b905061020061149a9201519033906138e0565b611446565b6114b59250803d1061026f576102608183613425565b38806113f7565b506040366003190112610216576114d16133c8565b906114db82613c85565b6007546040516322bc934560e11b81526004803590820152908290829060249082906001600160a01b03165afa908115610219578291611919575b506101008101516001600160a01b031633146118de5761154f61154461ffff61018084015195168095613d4b565b936060830151613d4b565b60208201516001600160a01b031681600080516020613d7083398151915282036118a9579050341061125e57828080808460018060a01b03610100880151168282156118a0575bf115610219575b6005546101008301516101408401516001600160a01b03928316929081169116823b156108bd57604051633c6340f360e21b81526001600160a01b03918216600482015233602482015291166044820152606481018690529084908290608490829084905af180156109ec5761188c575b5060035461014083015160405163912d228f60e01b81526001600160a01b039182166004820152602481018790529591602091879160449183918991165af19485156109ec578495611858575b5060018060a01b036006541683516101a085015160028110156108455796849260209288809a6116df60018060a01b03878c0151169360018060a01b036101408d015116968c608081015161ffff60a0830151169161010060018060a01b0391015116928d6040519d8e9c8d9b8c9a63298b04a560e01b8c52339960048d0161385b565b03925af1801561027657611829575b506007546001600160a01b0316803b15610812576040516324b42bc160e01b8152600480359082015260248101849052604481019290925284908290606490829084905af19081156109ec578491611815575b505060035460208381015160405163912d228f60e01b81526001600160a01b03918216600482015260248101949094529091839160449183918891165af19081156107b45783916117e0575b50600254610100909201516001600160a01b03928316921690823b156107bf576040516311eba9df60e21b81526001600160a01b039092166004830152602482015290829082908183816044810161078c565b9250506020823d60201161180d575b816117fc60209383613425565b810103126107f1578291513861178d565b3d91506117ef565b61181e906133fb565b610224578238611741565b6020809295503d8311611851575b6118418183613425565b810103126107f1578392386116ee565b503d611837565b9094506020813d602011611884575b8161187460209383613425565b810103126107f15751933861165b565b3d9150611867565b61189684916133fb565b61125e573861160e565b506108fc611596565b6118b6913090339061345f565b60208201516101008301516118d99183916001600160a01b0390811691166138e0565b61159d565b60405162461bcd60e51b815260206004820152601360248201527222a9292fa1a0a72a2fa127a92927abafa7aba760691b6044820152606490fd5b61192d91503d8084833e610a6e8183613425565b38611516565b50346102165760603660031901126102165761194d61339c565b6001600160a01b03602435818116908190036108a1576044359161197681600154163314613c48565b8215611a1e5784938160085416803b156108bd576040516331b5f13d60e11b81526001600160a01b0383166004820152602481018690529086908290604490829084905af1908115610972578691611a0a575b505016600080516020613d7083398151915281036119fd5750828092819282f1156119f15780f35b604051903d90823e3d90fd5b611a0793506138e0565b80f35b611a13906133fb565b6108125784386119c9565b60405162461bcd60e51b815260206004820152600f60248201526e11549497d6915493d7d05353d55395608a1b6044820152606490fd5b5060a036600319011261021657600435611a6d6133c8565b9060443561ffff928382168092036107f15784611a886133d9565b94611a9283613c85565b6007546040516322bc934560e11b8152600481018790526001600160a01b039184908290602490829086165afa9081156109ec578491611c0b575b506020611ae284606084015197168097613d4b565b9101908282511681600080516020613d708339815191528214600014611bf95790503410610812575b82806005541692511690823b156108bd57604051638340f54960e01b81523360048201526001600160a01b0392909216602483015260448201529084908290606490829084905af180156109ec57611bda575b509060209560c494939260075416916040519889978896630b438b8960e41b885260048801526064356024880152604487015216606485015233608485015260a48401525af1801561021957611bb2575080f35b602090813d8111611bd3575b611bc88183613425565b810103126107f15780f35b503d611bbe565b92611be881939295946133fb565b611bf55790919238611b5e565b5080fd5b611c06913090339061345f565b611b0b565b611c1f91503d8086833e610a6e8183613425565b38611acd565b503461021657602036600319011261021657611c3f61339c565b6001546001600160a01b039190611c599083163314613c48565b166001600160601b0360a01b600354161760035580f35b5060403660031901126102165780600435611c896133c8565b90611c9382613c85565b600654604051632820036560e11b8152600481018390529261028092916001600160a01b03919084908690602490829086165afa9485156109725786948596612050575b5050611ceb82610240870151163314613ba9565b611cfa61014086015142613be8565b94611d2e611d20611d1561ffff608085015195168095613d4b565b9360c0840151613d4b565b966101208301519084613d1e565b93611d398386613be8565b9184600854166040519063a001ecdd60e01b82528160048160209b8c945af1908115610e97578a91612014575b50611d74611d7b9185613d4b565b8094613be8565b91604086600854169201938685511690833b156120105760405163ef6506db60e01b81526001600160a01b039290921660048301526024820152918a908390604490829084905af1928315610e97578a86938a95611fee575b50876006541692611e126040519c8d968795869463094bb9f160e11b8652600486019094939260609260808301968352602083015260408201520152565b03925af1958615611fe3578796611fc4575b508683825116600080516020613d708339815191528114600014611fae5750508334106108a55786935b85611e9a8560035416611e65868887511695613be8565b60405163912d228f60e01b8082526001600160a01b039096166004820152602481019190915297889283919082906044820190565b03925af1948515611fa3578895611f6b575b50600354915160405191825284166001600160a01b0316600482015260248101929092528490829060449082908a9087165af1938415610972578694611f38575b505060025416803b156108125784928360849260405196879586946311dd211f60e31b865233600487015260248601526044850152151560648401525af18015610219576102065750f35b819650809294503d8311611f64575b611f518183613425565b810103126107f157849351913880611eed565b503d611f47565b9297509350908481813d8111611f9c575b611f868183613425565b810103126107f157518796909390919085611eac565b503d611f7c565b6040513d8a823e3d90fd5b85611fbf919692963090339061345f565b611e4e565b611fdc919650853d8711610a5257610a448183613425565b9438611e24565b6040513d89823e3d90fd5b90929450611ffd9193506133fb565b61200c57869184918a38611dd4565b8880fd5b8b80fd5b90508781813d8311612049575b61202b8183613425565b81010312610e8c57611d74612042611d7b926136db565b9150611d66565b503d612021565b612067929650803d1061026f576102608183613425565b933880611cd7565b5060203660031901126102165780f35b5060203660031901126102165760075460405163c58343ef60e01b8152600480359082015291906001600160a01b03166101a083602481845afa9283156102195782936124d4575b508160e08401516024604051809481936322bc934560e11b835260048301525afa9081156102195782916124ba575b506101008101516001600160a01b03163303612481576101808101519061213c61212a602086019361ffff85511690613d4b565b9261ffff606084015191511690613d4b565b60208201519092906001600160a01b031683600080516020613d7083398151915282036124715750508380848015612467575b8280929181923390f1156107b4575b60055460c08601516101408401516001600160a01b03928316929081169116823b156108a557604051638340f54960e01b81526001600160a01b03918216600482015291166024820152604481018390529085908290606490829084905af1801561027657908591612453575b505060055460c086015160208401516001600160a01b03928316929081169116823b156108a557604051633dae446f60e21b81526001600160a01b03918216600482015291166024820152604481018590529085908290606490829084905af180156102765790859161243f575b505060035461014083015160405163912d228f60e01b81526001600160a01b0391821660048201526024810184905294939291602091869160449183918a91165af193841561027657859461240b575b5060018060a01b03600654169060e0870151906101a08401519060028210156123f7579260209288809a93612333899760018060a01b03888b0151169460018060a01b036101408c015116978d60608201519061ffff6040840151169260c060018060a01b0391015116946040519d8e9c8d9b8c9a63298b04a560e01b8c52339860048d0161385b565b03925af18015610276576123c8575b5060018060a01b03600754168151813b156108bd57859160448392604051948593849263f094cb9560e01b845260048401528860248401525af19081156102765785916107fe57505060035460209182015160405163912d228f60e01b81526001600160a01b0391821660048201526024810194909452839116818681604481016106f4565b6020809295503d83116123f0575b6123e08183613425565b810103126107f157839238612342565b503d6123d6565b634e487b7160e01b88526021600452602488fd5b9093506020813d602011612437575b8161242760209383613425565b810103126107f1575192386122a9565b3d915061241a565b612448906133fb565b6108a1578338612259565b61245c906133fb565b6108a15783386121eb565b6108fc915061216f565b61247c9133906138e0565b61217e565b60405162461bcd60e51b815260206004820152601160248201527022a9292fa7a7262cafa127a92927aba2a960791b6044820152606490fd5b6124ce91503d8084833e610a6e8183613425565b386120f6565b6124f99193506101a03d6101a011612500575b6124f18183613425565b810190613919565b91386120c7565b503d6124e7565b5060c03660031901126102165761251c61339c565b816125256133b2565b9161252e6133d9565b906125376133ea565b60035460405163912d228f60e01b81526001600160a01b03848116600483015260248035908301529492939291602090829060449082908a908a165af19081156109725786916128f9575b50600480546040516322a0fe3360e21b815233928101929092526024820192909252906020908290604490829089165afa9081156109725786916128bf575b50600354604051631c07d98160e21b81526001600160a01b038581166004830152891660248083019190915235604482015290602090829060649082908b908b165af1908115611fe357879161288a575b50600460208782541660405192838092636882509b60e11b82525afa908115611fa3578891612844575b5061264e9260ff61046b921690613a01565b9286851692600080516020613d708339815191528403612833578434106108a5575b856005541691823b1561282f57604051638340f54960e01b81523360048201526001600160a01b038a166024820152604481018790529288908490606490829084905af1908115611fa35787938992612813575b50906101049291602095856007541691604051988997889663486c386960e11b885216600487015260248601528960448601526024356064860152606435608486015261ffff80921660a48601521660c48401523360e48401525af180156109ec576127e4575b5060035460405163912d228f60e01b81526001600160a01b03959095166004860152602485019190915291929160209083906044908290879086165af19182156107b45783926127ad575b5060025416803b156102245760405163094f618d60e11b81523360048201526024810192909252829082908183816044810161078c565b925090506020823d6020116127dc575b816127ca60209383613425565b810103126107f1578291519038612776565b3d91506127bd565b6020809294503d831161280c575b6127fc8183613425565b810103126107f15783913861272b565b503d6127f2565b61282091939594506133fb565b6108a5579186869293386126c4565b8780fd5b61283f8530338761345f565b612670565b90506020813d602011612882575b8161285f60209383613425565b8101031261282f5761264e9260ff61287961046b936139f3565b9250509261263c565b3d9150612852565b9650506020863d6020116128b7575b816128a660209383613425565b810103126107f15787955138612612565b3d9150612899565b90506020813d6020116128f1575b816128da60209383613425565b810103126108bd576128eb906136db565b386125c1565b3d91506128cd565b9550506020853d602011612929575b8161291560209383613425565b810103126107f15793518694906020612582565b3d9150612908565b50346102165760203660031901126102165760075460405163c58343ef60e01b815260048035908201526001600160a01b0390911691906101a081602481865afa908115610219578291612dbb575b508160e08201516024604051809681936322bc934560e11b835260048301525afa928315610219578293612d9f575b50610100838101519093906001600160a01b03163303612d68576129e0606082015161ffff60208501511690613d4b565b60208201519091906001600160a01b031682600080516020613d708339815191528203612d495760c0850151869250829182918291906001600160a01b0316828215612d40575bf1156107b4575b60055460c084018051878601516101208701519296936001600160a01b03908116929181169116823b1561200c57604051633c6340f360e21b81526001600160a01b03918216600482015233602482015291166044820152606481019290925286908290608490829084905af1801561097257908691612d2c575b505060055460208301516001600160a01b039182169116813b156108a557604051633dae446f60e21b81523360048201526001600160a01b03919091166024820152604481018590529086908290606490829084905af1801561097257908691612d18575b505060018060a01b036006541660e0820151966101a084015160028110156123f75797859260209289809b612b9d60018060a01b03878b0151169360018060a01b03908a015116956101208a01518d8b61014081015161ffff60406060840151930151169260018060a01b03905116936040519d8e9c8d9b8c9a63298b04a560e01b8c52339960048d0161385b565b03925af1801561097257612ce9575b5060018060a01b03600754169061012060e0820151910151823b156108a5576040516324b42bc160e01b815260048101929092526024820185905260448201529085908290606490829084905af1908115610276578591612cd5575b505060035460209182015160405163912d228f60e01b81526001600160a01b0391821660048201526024810194909452839160449183918891165af19081156107b4578391612ca0575b5060025491516001600160a01b03928316921690823b156107bf576040516311eba9df60e21b81526001600160a01b039092166004830152602482015290829082908183816044810161078c565b9250506020823d602011612ccd575b81612cbc60209383613425565b810103126107f15782915138612c52565b3d9150612caf565b612cde906133fb565b6107bf578338612c08565b6020809296503d8311612d11575b612d018183613425565b810103126107f157849338612bac565b503d612cf7565b612d21906133fb565b610812578438612b0e565b612d35906133fb565b610812578438612aa9565b506108fc612a27565b60c0850151612d63926001600160a01b03909116906138e0565b612a2e565b60405162461bcd60e51b815260206004820152600f60248201526e22a9292fa7a7262cafa622a72222a960891b6044820152606490fd5b612db49193503d8084833e610a6e8183613425565b91386129af565b612dd691506101a03d6101a011612500576124f18183613425565b38612980565b50346102165780600319360112610216576020604051600080516020613d708339815191528152f35b5060c036600319011261021657612e1a6133c8565b90612e236133b2565b90612e2c6133d9565b91612e356133ea565b93612e3f81613c85565b6007546040516322bc934560e11b815260048035908201526001600160a01b03909116959084816024818a5afa908115610276578591613337575b50604051633970062960e01b815260048035908201526001600160a01b038516602482015296602090889060449082905afa96871561027657612f1f97612ec7918791610a2a5750613a2f565b612eda606082015161ffff851690613d4b565b60035460208084015160405163912d228f60e01b81526001600160a01b039182166004820152602481018590529a93949391928b9291169082908a9082906044820190565b03925af1978815610972578698613302575b50600480546040516322a0fe3360e21b8152339281019290925260248201999099529697959695602090879060449082906001600160a01b03165afa958615611fe35787966132be575b50600354602091820151604051631c07d98160e21b81526001600160a01b03918216600482015281881660248201526044810194909452839116818981606481015b03925af190811561097257869161328c575b5060048054604051636882509b60e11b81529160209183919082906001600160a01b03165afa908115611fe3578791613246575b509061046b60ff613015931687613a01565b906001600160a01b038416600080516020613d708339815191520361322c573482106108bd575b6005546001600160a01b031696873b156108a557604051638340f54960e01b81523360048201526001600160a01b0386166024820152604481018490529787908990606490829084905af18015611fe357613218575b60035460405163912d228f60e01b81526001600160a01b038781166004830152602482018690529899508998909791602091899160449183918d91165af1968715611fa35788976131d7575b50600754604051633bb1374b60e01b815261ffff9687166004808301919091526001600160a01b039889166024830152604482019690965260648082018a90529288166084820152913560a483015291851660c48201529190931660e48201523361010482015290356101248201529160209183916101449183918891165af180156107b4576131a8575b506002546001600160a01b0316803b156102245760405163094f618d60e11b81523360048201526024810192909252829082908183816044810161078c565b6020809293503d83116131d0575b6131c08183613425565b810103126107f157819038613169565b503d6131b6565b9750955091926020873d602011613210575b816131f660209383613425565b810103126107f1579551879690959093929061ffff6130de565b3d91506131e9565b959096613224906133fb565b948690613092565b6132418230336001600160a01b03881661345f565b61303c565b90506020813d602011613284575b8161326160209383613425565b810103126108a5579061046b60ff61327b613015946139f3565b92935050613003565b3d9150613254565b90506020813d6020116132b6575b816132a760209383613425565b810103126108bd575138612fcf565b3d915061329a565b9095506020813d6020116132fa575b816132da60209383613425565b810103126108a557612fbd916132f16020926136db565b96915091612f7b565b3d91506132cd565b97506020883d60201161332f575b8161331d60209383613425565b810103126108bd579651966020612f31565b3d9150613310565b61334b91503d8087833e610a6e8183613425565b38612e7a565b50346102165760203660031901126102165761336b61339c565b6001546001600160a01b0391906133859083163314613c48565b166001600160601b0360a01b600454161760045580f35b600435906001600160a01b03821682036107f157565b604435906001600160a01b03821682036107f157565b6024359061ffff821682036107f157565b6084359061ffff821682036107f157565b60a4359061ffff821682036107f157565b67ffffffffffffffff811161340f57604052565b634e487b7160e01b600052604160045260246000fd5b90601f8019910116810190811067ffffffffffffffff82111761340f57604052565b67ffffffffffffffff811161340f5760051b60200190565b6040516323b872dd60e01b60208201526001600160a01b03928316602482015292909116604483015260648201929092526134b0916134ab82608481015b03601f198101845283613425565b6134ca565b565b908160209103126107f1575180151581036107f15790565b6040805167ffffffffffffffff94936001600160a01b0390931692909182018581118382101761340f576040526020928383527f5361666545524332303a206c6f772d6c6576656c2063616c6c206661696c6564848401526000808386829551910182855af1903d156135fa573d9687116135e65761356a9495966040519061355c88601f19601f8401160183613425565b81528093873d92013e613607565b8051908161357757505050565b82806135879383010191016134b2565b1561358f5750565b6084906040519062461bcd60e51b82526004820152602a60248201527f5361666545524332303a204552433230206f7065726174696f6e20646964206e6044820152691bdd081cdd58d8d9595960b21b6064820152fd5b634e487b7160e01b83526041600452602483fd5b915061356a939495506060915b91929015613669575081511561361b575090565b3b156136245790565b60405162461bcd60e51b815260206004820152601d60248201527f416464726573733a2063616c6c20746f206e6f6e2d636f6e74726163740000006044820152606490fd5b82519091501561367c5750805190602001fd5b6040519062461bcd60e51b82528160208060048301528251908160248401526000935b8285106136c2575050604492506000838284010152601f80199101168101030190fd5b848101820151868601604401529381019385935061369f565b51906001600160a01b03821682036107f157565b519061ffff821682036107f157565b60209182828203126107f157815167ffffffffffffffff928382116107f15701916101c09384848403126107f1576040519485018581108382111761340f576040528351855261374f8185016136db565b8186015260408401516040860152606084015160608601526080840151608086015261377d60a085016136ef565b60a086015260c084015160c086015260e084015160e08601526101006137a48186016136db565b9086015261012091828501519081116107f15784019280601f850112156107f15783516137d081613447565b946137de6040519687613425565b818652838087019260051b8201019283116107f1578301905b82821061384457505050508301526101406138138183016136db565b90830152610160808201519083015261018080820151908301526101a0809101519060028210156107f15782015290565b838091613850846136db565b8152019101906137f7565b99949892979193959b9a96909b6101608b019c8b5260028510156138ca57610140998b9960409861ffff9760208d015260018060a01b039b8c9a8b8094169101521660608d015260808c015260a08b015260c08a015260e0890152166101008701521661012085015216910152565b634e487b7160e01b600052602160045260246000fd5b60405163a9059cbb60e01b60208201526001600160a01b03909216602483015260448201929092526134b0916134ab826064810161349d565b80916101a092839103126107f15760405191820182811067ffffffffffffffff82111761340f5760405280518252613953602082016136ef565b6020830152613964604082016136ef565b6040830152606081015160608301526080810151608083015260a081015160a083015261399360c082016136db565b60c083015260e081015160e08301526101006139b08183016136db565b90830152610120808201519083015261014080820151908301526101606139d88183016136db565b90830152610180809101519060028210156107f15782015290565b519060ff821682036107f157565b6001600160a01b0391821691908215613a1957160490565b634e487b7160e01b600052601260045260246000fd5b15613a3657565b60405162461bcd60e51b815260206004820152601c60248201527f4552525f434f4c4c41544552414c5f4e4f545f535550504f52544544000000006044820152606490fd5b809161028092839103126107f15760405191820182811067ffffffffffffffff82111761340f5760405280518252602081015160048110156107f1576020830152613ac8604082016136db565b6040830152613ad9606082016136db565b60608301526080810151608083015260a081015160a083015260c081015160c083015260e081015160e08301526101008082015190830152610120808201519083015261014080820151908301526101608082015190830152610180613b408183016136ef565b908301526101a0613b528183016139f3565b908301526101c080820151908301526101e0808201519083015261020080820151908301526102208082015190830152610240613b908183016136db565b90830152613ba26102608092016136db565b9082015290565b15613bb057565b60405162461bcd60e51b815260206004820152601060248201526f22a9292fa727aa2fa127a92927aba2a960811b6044820152606490fd5b91908203918211613bf557565b634e487b7160e01b600052601160045260246000fd5b15613c1257565b60405162461bcd60e51b815260206004820152600e60248201526d22a9292fa727aa2fa622a72222a960911b6044820152606490fd5b15613c4f57565b60405162461bcd60e51b815260206004820152600e60248201526d22a9292fa7a7262cafa7aba722a960911b6044820152606490fd5b61ffff80911660648111613cd4576019900616613c9e57565b60405162461bcd60e51b815260206004820152600e60248201526d4552525f50455243454e5441474560901b6044820152606490fd5b60405162461bcd60e51b815260206004820152600f60248201526e4f5645525f50455243454e5441474560881b6044820152606490fd5b81810292918115918404141715613bf557565b91613d3d606492613d38670de0b6b3a76400009386613d0b565b613d0b565b04048101809111613bf55790565b906001600160a01b03168015613d6b57613d6790606492613d0b565b0490565b509056fe000000000000000000000000eeeeeeeeeeeeeeeeeeeeeeeeeeeeeeeeeeeeeeeea2646970667358221220aa672594da7c2f3e50bd3cf4ccb3d91528fa32d24c0f959d03979c6a77cbe37864736f6c63430008110033",
  "immutableReferences": {},
  "source": "// SPDX-License-Identifier: GPL-3.0\r\npragma solidity >=0.7.0 <0.9.0;\r\n\r\nimport \"./Activity.sol\";\r\n\r\nimport \"./libraries/Errors.sol\";\r\nimport \"./libraries/PoolLibrary.sol\";\r\n\r\nimport \"./math/SimpleInterest.sol\";\r\n\r\nimport \"./interfaces/IPriceFeed.sol\";\r\nimport \"./interfaces/ILoanToValueRatio.sol\";\r\nimport \"./interfaces/IFeeManager.sol\";\r\n\r\nimport \"./managers/LoanManager.sol\";\r\nimport \"./managers/OfferManager.sol\";\r\nimport \"./managers/PoolManager.sol\";\r\n\r\nimport \"@openzeppelin/contracts/utils/Context.sol\";\r\nimport \"@openzeppelin/contracts/token/ERC20/ERC20.sol\";\r\nimport \"@openzeppelin/contracts/token/ERC20/utils/SafeERC20.sol\";\r\nimport \"@openzeppelin/contracts/security/ReentrancyGuard.sol\";\r\n\r\n/*\r\n    LendingPool is the core contract of the DARSH protocol.\r\n    It interacts with managers, price feed, loan-to-Value ratio, math libraries,\r\n    trust score, and others to carry out the peer to peer functionality.\r\n*/\r\n\r\ncontract LendingPool is Context, ReentrancyGuard, SimpleInterest {\r\n    using SafeERC20 for ERC20;\r\n\r\n    address deployer;\r\n\r\n    Activity private _activity;\r\n    IPriceFeed private _priceFeed;\r\n    ILoanToValueRatio private _ltv;\r\n\r\n    // managers\r\n    PoolManager private _poolManager;\r\n    LoanManager private _loanManager;\r\n    OfferManager private _offerManager;\r\n    IFeeManager private _feeManager;\r\n\r\n    address public constant nativeAddress =\r\n        0xEeeeeEeeeEeEeeEeEeEeeEEEeeeeEeeeeeeeEEeE;\r\n\r\n    constructor(\r\n        address poolManager_,\r\n        address loanManager_,\r\n        address offerManager_,\r\n        address feeManager_\r\n    ) ReentrancyGuard() {\r\n        _poolManager = PoolManager(poolManager_);\r\n        _loanManager = LoanManager(loanManager_);\r\n        _offerManager = OfferManager(offerManager_);\r\n        _feeManager = IFeeManager(feeManager_);\r\n\r\n        deployer = _msgSender();\r\n    }\r\n\r\n    // @lenders\r\n    function createLendingOffer(\r\n        uint256 principalAmount_, // only for ERC20 assets\r\n        address principalToken,\r\n        address[] memory collateralTokens,\r\n        uint16 daysToMaturity,\r\n        uint256 interest,\r\n        uint16 daysToExpire\r\n    ) public payable {\r\n        uint256 principalAmount;\r\n\r\n        require(collateralTokens.length > 0, \"ERR_NO_COLLATERAL_TYPES\");\r\n\r\n        /* extract tokens from lender */\r\n        if (principalToken == nativeAddress) {\r\n            principalAmount = msg.value;\r\n        } else {\r\n            principalAmount = principalAmount_;\r\n            ERC20(principalToken).safeTransferFrom(\r\n                _msgSender(),\r\n                address(this),\r\n                principalAmount\r\n            );\r\n        }\r\n\r\n        /* delegate principal to lender */\r\n        _poolManager.deposit(_msgSender(), principalToken, principalAmount);\r\n\r\n        /* create the lending offer */\r\n        _offerManager.createLendingOffer(\r\n            principalToken,\r\n            principalAmount,\r\n            interest,\r\n            daysToMaturity,\r\n            daysToExpire,\r\n            collateralTokens,\r\n            _msgSender()\r\n        );\r\n    }\r\n\r\n    // @lenders\r\n    function createLendingRequest(\r\n        uint256 offerId,\r\n        uint16 percentage,\r\n        uint16 daysToMaturity,\r\n        uint256 interest,\r\n        uint16 hoursToExpire\r\n    ) public payable {\r\n        _checkPercentage(percentage);\r\n\r\n        OfferLibrary.Offer memory offer = _offerManager.getOffer(offerId);\r\n\r\n        uint256 principalAmount = percentageOf(\r\n            offer.initialPrincipal,\r\n            percentage\r\n        );\r\n\r\n        /* extract tokens from lender */\r\n        if (offer.principalToken == nativeAddress) {\r\n            require(msg.value >= principalAmount);\r\n        } else {\r\n            ERC20(offer.principalToken).safeTransferFrom(\r\n                _msgSender(),\r\n                address(this),\r\n                principalAmount\r\n            );\r\n        }\r\n\r\n        /* delegate principal to lender */\r\n        _poolManager.deposit(\r\n            _msgSender(),\r\n            offer.principalToken,\r\n            principalAmount\r\n        );\r\n\r\n        /* create the lending request */\r\n        _offerManager.createLendingRequest(\r\n            percentage,\r\n            interest,\r\n            daysToMaturity,\r\n            hoursToExpire,\r\n            _msgSender(),\r\n            offerId\r\n        );\r\n    }\r\n\r\n    // @lenders\r\n    function acceptBorrowingOffer(uint256 offerId, uint16 percentage)\r\n        public\r\n        payable\r\n    {\r\n        _checkPercentage(percentage);\r\n\r\n        OfferLibrary.Offer memory offer = _offerManager.getOffer(offerId);\r\n\r\n        require(_msgSender() != offer.creator, \"ERR_CANT_BORROW_OWN\");\r\n\r\n        uint256 collateralAmount = percentageOf(\r\n            offer.initialCollateral,\r\n            percentage\r\n        );\r\n\r\n        uint256 principalAmount = percentageOf(\r\n            offer.initialPrincipal,\r\n            percentage\r\n        );\r\n\r\n        /* extract principal from lender/caller and transfer to borrower */\r\n        if (offer.principalToken == nativeAddress) {\r\n            require(msg.value >= principalAmount);\r\n            payable(offer.creator).transfer(principalAmount);\r\n        } else {\r\n            ERC20(offer.principalToken).safeTransferFrom(\r\n                _msgSender(),\r\n                address(this),\r\n                principalAmount\r\n            );\r\n            ERC20(offer.principalToken).safeTransfer(\r\n                offer.creator,\r\n                principalAmount\r\n            );\r\n        }\r\n\r\n        /* delegate the loan collateral to lender */\r\n        _poolManager.transfer(\r\n            offer.creator,\r\n            _msgSender(),\r\n            offer.collateralToken,\r\n            collateralAmount\r\n        );\r\n\r\n        uint256 collateralPriceInUSD = _priceFeed.amountInUSD(\r\n            offer.collateralToken,\r\n            collateralAmount\r\n        );\r\n\r\n        /* register the loan from the loan manager */\r\n        _loanManager.createLoan(\r\n            offer.offerId,\r\n            offer.offerType,\r\n            offer.principalToken,\r\n            offer.collateralToken,\r\n            principalAmount,\r\n            collateralAmount,\r\n            collateralPriceInUSD,\r\n            offer.interest,\r\n            offer.daysToMaturity,\r\n            offer.creator,\r\n            _msgSender()\r\n        );\r\n\r\n        // will revert the transaction if fail\r\n        _offerManager._afterOfferBorrowingLoan(\r\n            offerId,\r\n            principalAmount,\r\n            collateralAmount\r\n        );\r\n\r\n        // update activity\r\n        uint256 borrowedAmountInUSD = _priceFeed.amountInUSD(\r\n            offer.principalToken,\r\n            principalAmount\r\n        );\r\n        _activity._borrowLoan(offer.creator, borrowedAmountInUSD);\r\n    }\r\n\r\n    // @lenders\r\n    function acceptBorrowingRequest(uint256 requestId) public {\r\n        RequestLibrary.Request memory request = _offerManager.getRequest(\r\n            requestId\r\n        );\r\n\r\n        OfferLibrary.Offer memory offer = _offerManager.getOffer(\r\n            request.offerId\r\n        );\r\n\r\n        require(offer.creator == _msgSender(), \"ERR_ONLY_LENDER\");\r\n\r\n        uint256 principalAmount = percentageOf(\r\n            offer.initialPrincipal,\r\n            request.percentage\r\n        );\r\n\r\n        /* transfer principal to borrower */\r\n        if (offer.principalToken == nativeAddress) {\r\n            payable(request.creator).transfer(principalAmount);\r\n        } else {\r\n            ERC20(offer.principalToken).safeTransfer(\r\n                request.creator,\r\n                principalAmount\r\n            );\r\n        }\r\n\r\n        /* delegate the loan collateral to lender */\r\n        _poolManager.transfer(\r\n            request.creator,\r\n            _msgSender(),\r\n            request.collateralToken,\r\n            request.collateralAmount\r\n        );\r\n        /* undelegate the principal from lender */\r\n        _poolManager.burn(_msgSender(), offer.principalToken, principalAmount);\r\n\r\n        /* register the loan from the loan manager */\r\n        _loanManager.createLoan(\r\n            request.offerId,\r\n            offer.offerType,\r\n            offer.principalToken,\r\n            request.collateralToken,\r\n            principalAmount,\r\n            request.collateralAmount,\r\n            request.collateralPriceInUSD,\r\n            request.interest,\r\n            request.daysToMaturity,\r\n            request.creator,\r\n            _msgSender()\r\n        );\r\n\r\n        // will revert the transaction if fail\r\n        _offerManager._afterOfferBorrowingLoan(\r\n            request.offerId,\r\n            principalAmount,\r\n            request.collateralAmount\r\n        );\r\n\r\n        // update activity\r\n        uint256 amountBorrowedInUSD = _priceFeed.amountInUSD(\r\n            offer.principalToken,\r\n            principalAmount\r\n        );\r\n        _activity._borrowLoan(request.creator, amountBorrowedInUSD);\r\n    }\r\n\r\n    // @borrower\r\n    function createBorrowingOffer(\r\n        address principalToken,\r\n        uint256 principalAmount,\r\n        address collateralToken,\r\n        uint256 interest,\r\n        uint16 daysToMaturity,\r\n        uint16 hoursToExpire\r\n    ) public payable {\r\n        uint256 principalAmountInUSD = _priceFeed.amountInUSD(\r\n            principalToken,\r\n            principalAmount\r\n        );\r\n\r\n        uint160 ltv = _ltv.getRelativeLTV(_msgSender(), principalAmountInUSD);\r\n\r\n        uint256 collateralNormalAmount = _priceFeed.exchangeRate(\r\n            principalToken,\r\n            collateralToken,\r\n            principalAmount\r\n        );\r\n\r\n        uint256 collateralAmount = percentageOf(\r\n            collateralNormalAmount,\r\n            ltv / _ltv.getBase()\r\n        );\r\n\r\n        /* extract collateral from borrower */\r\n        if (collateralToken == nativeAddress) {\r\n            require(msg.value >= collateralAmount);\r\n        } else {\r\n            ERC20(collateralToken).safeTransferFrom(\r\n                _msgSender(),\r\n                address(this),\r\n                collateralAmount\r\n            );\r\n        }\r\n\r\n        /* delegate the collateral to borrower */\r\n        _poolManager.deposit(_msgSender(), collateralToken, collateralAmount);\r\n\r\n        /* create the offer */\r\n        _offerManager.createBorrowingOffer(\r\n            principalToken,\r\n            collateralToken,\r\n            collateralAmount,\r\n            principalAmount,\r\n            interest,\r\n            daysToMaturity,\r\n            hoursToExpire,\r\n            _msgSender()\r\n        );\r\n\r\n        // update activity\r\n        uint256 amountInUSD = _priceFeed.amountInUSD(\r\n            collateralToken,\r\n            collateralAmount\r\n        );\r\n        _activity._dropCollateral(_msgSender(), amountInUSD);\r\n    }\r\n\r\n    // @borrower\r\n    function createBorrowingRequest(\r\n        uint256 offerId,\r\n        uint16 percentage,\r\n        address collateralToken,\r\n        uint256 interest,\r\n        uint16 daysToMaturity,\r\n        uint16 hoursToExpire\r\n    ) public payable {\r\n        _checkPercentage(percentage);\r\n\r\n        OfferLibrary.Offer memory offer = _offerManager.getOffer(offerId);\r\n\r\n        require(\r\n            _offerManager.isCollateralSupported(offerId, collateralToken),\r\n            \"ERR_COLLATERAL_NOT_SUPPORTED\"\r\n        );\r\n\r\n        uint256 principalAmount = percentageOf(\r\n            offer.initialPrincipal,\r\n            percentage\r\n        );\r\n\r\n        uint256 principalPriceInUSD = _priceFeed.amountInUSD(\r\n            offer.principalToken,\r\n            principalAmount\r\n        );\r\n\r\n        uint160 ltv = _ltv.getRelativeLTV(_msgSender(), principalPriceInUSD);\r\n\r\n        uint256 collateralNormalAmount = _priceFeed.exchangeRate(\r\n            offer.principalToken,\r\n            collateralToken,\r\n            principalAmount\r\n        );\r\n\r\n        uint256 collateralAmount = percentageOf(\r\n            collateralNormalAmount,\r\n            ltv / _ltv.getBase()\r\n        );\r\n\r\n        /* extract collateral from borrower */\r\n        if (collateralToken == nativeAddress) {\r\n            require(collateralAmount >= msg.value);\r\n        } else {\r\n            ERC20(collateralToken).safeTransferFrom(\r\n                _msgSender(),\r\n                address(this),\r\n                collateralAmount\r\n            );\r\n        }\r\n\r\n        /* delegate the collateral to borrower */\r\n        _poolManager.deposit(_msgSender(), collateralToken, collateralAmount);\r\n\r\n        uint256 collateralPriceInUSD = _priceFeed.amountInUSD(\r\n            collateralToken,\r\n            collateralAmount\r\n        );\r\n\r\n        /* create the request */\r\n        _offerManager.createBorrowingRequest(\r\n            percentage,\r\n            collateralToken,\r\n            collateralAmount,\r\n            collateralPriceInUSD,\r\n            ltv,\r\n            interest,\r\n            daysToMaturity,\r\n            hoursToExpire,\r\n            _msgSender(),\r\n            offerId\r\n        );\r\n\r\n        // update activity\r\n        _activity._dropCollateral(_msgSender(), collateralPriceInUSD);\r\n    }\r\n\r\n    // @borrower\r\n    function acceptLendingOffer(\r\n        uint256 offerId,\r\n        uint16 percentage,\r\n        address collateralToken\r\n    ) public payable {\r\n        _checkPercentage(percentage);\r\n\r\n        OfferLibrary.Offer memory offer = _offerManager.getOffer(offerId);\r\n\r\n        require(\r\n            _offerManager.isCollateralSupported(offerId, collateralToken),\r\n            \"ERR_COLLATERAL_NOT_SUPPORTED\"\r\n        );\r\n\r\n        uint256 principalAmount = percentageOf(\r\n            offer.initialPrincipal,\r\n            percentage\r\n        );\r\n\r\n        uint256 principalPriceInUSD = _priceFeed.amountInUSD(\r\n            offer.principalToken,\r\n            principalAmount\r\n        );\r\n\r\n        uint160 ltv = _ltv.getRelativeLTV(_msgSender(), principalPriceInUSD);\r\n\r\n        /* calculate the collateral amount */\r\n        uint256 collateralNormalAmount = _priceFeed.exchangeRate(\r\n            offer.principalToken,\r\n            collateralToken,\r\n            principalAmount\r\n        );\r\n\r\n        uint256 collateralAmount = percentageOf(\r\n            collateralNormalAmount,\r\n            ltv / _ltv.getBase()\r\n        );\r\n\r\n        /* extract collateral tokens from borrower */\r\n        if (collateralToken == nativeAddress) {\r\n            require(collateralAmount >= msg.value, \"ERR_COLLATERAL_AMOUNT\");\r\n        } else {\r\n            ERC20(collateralToken).safeTransferFrom(\r\n                _msgSender(),\r\n                address(this),\r\n                collateralAmount\r\n            );\r\n        }\r\n\r\n        /* transfer the principal to borrower */\r\n        if (offer.principalToken == nativeAddress) {\r\n            payable(_msgSender()).transfer(principalAmount);\r\n        } else {\r\n            ERC20(offer.principalToken).safeTransfer(\r\n                _msgSender(),\r\n                principalAmount\r\n            );\r\n        }\r\n\r\n        /* delegate the loan collateral to lender */\r\n        _poolManager.deposit(offer.creator, collateralToken, collateralAmount);\r\n        /* undelegate the loan principal from lender */\r\n        _poolManager.burn(offer.creator, offer.principalToken, principalAmount);\r\n\r\n        uint256 collateralPriceInUSD = _priceFeed.amountInUSD(\r\n            collateralToken,\r\n            collateralAmount\r\n        );\r\n\r\n        /* register the loan */\r\n        _loanManager.createLoan(\r\n            offerId,\r\n            offer.offerType,\r\n            offer.principalToken,\r\n            collateralToken,\r\n            principalAmount,\r\n            collateralAmount,\r\n            collateralPriceInUSD,\r\n            offer.interest,\r\n            offer.daysToMaturity,\r\n            _msgSender(),\r\n            offer.creator\r\n        );\r\n\r\n        // will revert if transaction fail\r\n        _offerManager._afterOfferLendingLoan(offerId, principalAmount);\r\n\r\n        // update activity\r\n        uint256 amountBorrowedInUSD = _priceFeed.amountInUSD(\r\n            offer.principalToken,\r\n            principalAmount\r\n        );\r\n        _activity._borrowLoan(_msgSender(), amountBorrowedInUSD);\r\n        _activity._dropCollateral(_msgSender(), collateralPriceInUSD);\r\n    }\r\n\r\n    // @borrower\r\n    function acceptLendingRequest(uint256 requestId) public payable {\r\n        RequestLibrary.Request memory request = _offerManager.getRequest(\r\n            requestId\r\n        );\r\n\r\n        OfferLibrary.Offer memory offer = _offerManager.getOffer(\r\n            request.offerId\r\n        );\r\n\r\n        require(offer.creator == _msgSender(), \"ERR_ONLY_BORROWER\");\r\n\r\n        uint256 collateralAmount = percentageOf(\r\n            offer.initialCollateral,\r\n            request.percentage\r\n        );\r\n\r\n        uint256 principalAmount = percentageOf(\r\n            offer.initialPrincipal,\r\n            request.percentage\r\n        );\r\n\r\n        /* transfer principal to borrower */\r\n        if (offer.principalToken == nativeAddress) {\r\n            payable(_msgSender()).transfer(principalAmount);\r\n        } else {\r\n            ERC20(offer.principalToken).safeTransfer(\r\n                _msgSender(),\r\n                principalAmount\r\n            );\r\n        }\r\n\r\n        /* delegate the loan collateral to lender */\r\n        _poolManager.deposit(\r\n            request.creator,\r\n            offer.collateralToken,\r\n            collateralAmount\r\n        );\r\n        /* undelegate the loan principal from lender */\r\n        _poolManager.burn(\r\n            request.creator,\r\n            offer.principalToken,\r\n            principalAmount\r\n        );\r\n\r\n        uint256 collateralPriceInUSD = _priceFeed.amountInUSD(\r\n            offer.collateralToken,\r\n            collateralAmount\r\n        );\r\n\r\n        /* register the loan from the loan manager */\r\n        _loanManager.createLoan(\r\n            request.offerId,\r\n            offer.offerType,\r\n            offer.principalToken,\r\n            offer.collateralToken,\r\n            principalAmount,\r\n            collateralAmount,\r\n            collateralPriceInUSD,\r\n            request.interest,\r\n            request.daysToMaturity,\r\n            _msgSender(),\r\n            request.creator\r\n        );\r\n\r\n        // will revert the transaction if fail\r\n        _offerManager._afterOfferLendingLoan(offer.offerId, principalAmount);\r\n\r\n        // update activityj\r\n        uint256 amountBorrowedInUSD = _priceFeed.amountInUSD(\r\n            offer.principalToken,\r\n            principalAmount\r\n        );\r\n        _activity._borrowLoan(_msgSender(), amountBorrowedInUSD);\r\n        _activity._dropCollateral(_msgSender(), collateralPriceInUSD);\r\n    }\r\n\r\n    // @lender\r\n    function reActivateOffer(uint256 offerId, uint16 toExpire) public {\r\n        _offerManager.reActivateOffer(offerId, toExpire, _msgSender());\r\n    }\r\n\r\n    // @borrower\r\n    function repayLoan(uint256 loanId, uint16 percentage) public payable {\r\n        _checkPercentage(percentage);\r\n\r\n        LoanLibrary.Loan memory loan = _loanManager.getLoan(loanId);\r\n\r\n        // verify the borrower is the repayer\r\n        require(loan.borrower == _msgSender(), \"ERR_NOT_BORROWER\");\r\n\r\n        // calculate the duration of the loan\r\n        uint256 time = block.timestamp;\r\n        uint256 ellapsedSecs = (time - loan.startDate);\r\n\r\n        uint256 principalAmount = percentageOf(\r\n            loan.initialPrincipal,\r\n            percentage\r\n        );\r\n\r\n        uint256 collateralAmount = percentageOf(\r\n            loan.initialCollateral,\r\n            percentage\r\n        );\r\n\r\n        // calculate the pay back amount\r\n        uint256 repaymentPrincipal = getFullInterestAmount(\r\n            principalAmount,\r\n            ellapsedSecs,\r\n            loan.interest\r\n        );\r\n\r\n        uint256 interestPaid = (repaymentPrincipal - principalAmount);\r\n        uint256 fee = percentageOf(interestPaid, _feeManager.feePercentage());\r\n        uint256 unClaimedInterest = (interestPaid - fee);\r\n\r\n        _feeManager.credit(loan.principalToken, fee);\r\n\r\n        // will revert the transaction if fail\r\n        bool completed = _loanManager.repayLoan(\r\n            loanId,\r\n            unClaimedInterest,\r\n            principalAmount,\r\n            collateralAmount\r\n        );\r\n\r\n        /* extract pay back amount */\r\n        if (loan.principalToken == nativeAddress) {\r\n            require(msg.value >= repaymentPrincipal);\r\n        } else {\r\n            ERC20(loan.principalToken).safeTransferFrom(\r\n                _msgSender(),\r\n                address(this),\r\n                repaymentPrincipal\r\n            );\r\n        }\r\n\r\n        // update activity\r\n        uint256 interestPaidInUSD = _priceFeed.amountInUSD(\r\n            loan.principalToken,\r\n            (repaymentPrincipal - principalAmount)\r\n        );\r\n\r\n        uint256 amountPaidInUSD = _priceFeed.amountInUSD(\r\n            loan.principalToken,\r\n            principalAmount\r\n        );\r\n\r\n        _activity._repayLoan(\r\n            _msgSender(),\r\n            amountPaidInUSD,\r\n            interestPaidInUSD,\r\n            completed\r\n        );\r\n    }\r\n\r\n    function claimCollateral(uint256 loanId) public {\r\n        LoanLibrary.Loan memory loan = _loanManager.getLoan(loanId);\r\n\r\n        require(loan.borrower == _msgSender(), \"ERR_NOT_BORROWER\");\r\n\r\n        if (loan.collateralToken == nativeAddress) {\r\n            payable(_msgSender()).transfer(loan.unClaimedCollateral);\r\n        } else {\r\n            ERC20(loan.collateralToken).safeTransfer(\r\n                _msgSender(),\r\n                loan.unClaimedCollateral\r\n            );\r\n        }\r\n\r\n        _loanManager.claimCollateral(loanId);\r\n    }\r\n\r\n    function claimPrincipal(uint256 loanId) public {\r\n        LoanLibrary.Loan memory loan = _loanManager.getLoan(loanId);\r\n\r\n        require(loan.lender == _msgSender(), \"ERR_NOT_LENDER\");\r\n\r\n        if (loan.principalToken == nativeAddress) {\r\n            payable(_msgSender()).transfer(loan.unClaimedPrincipal);\r\n        } else {\r\n            ERC20(loan.principalToken).safeTransfer(\r\n                _msgSender(),\r\n                loan.unClaimedPrincipal\r\n            );\r\n        }\r\n\r\n        _loanManager.claimPrincipal(loanId);\r\n    }\r\n\r\n    function claimDefaultCollateral(uint256 loanId) public {\r\n        LoanLibrary.Loan memory loan = _loanManager.getLoan(loanId);\r\n\r\n        require(loan.lender == _msgSender(), \"ERR_NOT_LENDER\");\r\n\r\n        if (loan.collateralToken == nativeAddress) {\r\n            payable(_msgSender()).transfer(loan.unClaimedDefaultCollateral);\r\n        } else {\r\n            ERC20(loan.collateralToken).safeTransfer(\r\n                _msgSender(),\r\n                loan.unClaimedDefaultCollateral\r\n            );\r\n        }\r\n\r\n        _loanManager.claimDefaultCollateral(loanId);\r\n    }\r\n\r\n    function repayLiquidatedLoan(uint256 loanId) public payable {}\r\n\r\n    function liquidateLoan(uint256 loanId) public onlyOwner {\r\n        LoanLibrary.Loan memory loan = _loanManager.getLoan(loanId);\r\n\r\n        // calculate the duration of the loan\r\n        uint256 time = block.timestamp;\r\n        uint256 ellapsedSecs = (time - loan.startDate);\r\n\r\n        // 1.01 btc\r\n        uint256 repaymentPrincipal = getFullInterestAmount(\r\n            loan.currentPrincipal,\r\n            ellapsedSecs,\r\n            loan.interest\r\n        );\r\n\r\n        // 11 usdt\r\n        uint256 repaymentCollateral = _priceFeed.exchangeRate(\r\n            loan.principalToken,\r\n            loan.collateralToken,\r\n            repaymentPrincipal\r\n        );\r\n\r\n        // 1 usdt\r\n        uint256 interestInCollateral = _priceFeed.exchangeRate(\r\n            loan.principalToken,\r\n            loan.collateralToken,\r\n            (repaymentPrincipal - loan.currentPrincipal)\r\n        );\r\n\r\n        uint256 principalPaid;\r\n        uint256 collateralRetrieved;\r\n        uint256 collateralFee;\r\n\r\n        // 0.2 usdt\r\n        uint256 fee = percentageOf(\r\n            interestInCollateral,\r\n            _feeManager.feePercentage()\r\n        );\r\n\r\n        if (loan.currentCollateral >= (repaymentCollateral - fee)) {\r\n            collateralRetrieved = (repaymentCollateral - fee);\r\n            principalPaid = loan.currentPrincipal;\r\n\r\n            if (loan.currentCollateral >= repaymentCollateral) {\r\n                collateralFee = fee;\r\n            } else {\r\n                collateralRetrieved = loan.currentCollateral;\r\n                collateralFee = (loan.currentCollateral -\r\n                    (repaymentCollateral - fee));\r\n            }\r\n        } else {\r\n            collateralRetrieved = loan.currentCollateral;\r\n\r\n            uint256 collateralInPrincipal = _priceFeed.exchangeRate(\r\n                loan.collateralToken,\r\n                loan.principalToken,\r\n                collateralRetrieved\r\n            );\r\n\r\n            principalPaid = collateralInPrincipal;\r\n            collateralFee = 0;\r\n        }\r\n\r\n        _feeManager.credit(loan.collateralToken, collateralFee);\r\n        \r\n        _loanManager.liquidateLoan(\r\n            loanId,\r\n            principalPaid,\r\n            collateralRetrieved,\r\n            (collateralRetrieved - collateralFee)\r\n        );\r\n    }\r\n\r\n    function setLTV(address ltv_) public onlyOwner {\r\n        _ltv = ILoanToValueRatio(ltv_);\r\n    }\r\n\r\n    function setActivity(address activity_) public onlyOwner {\r\n        _activity = Activity(activity_);\r\n    }\r\n\r\n    function setPriceFeed(address priceFeed_) public onlyOwner {\r\n        _priceFeed = IPriceFeed(priceFeed_);\r\n    }\r\n\r\n    function changeOwner(address newOwner) public onlyOwner {\r\n        deployer = newOwner;\r\n    }\r\n\r\n    /// @dev to claim revenue\r\n    function claim(\r\n        address token,\r\n        address payable receiver,\r\n        uint256 amount\r\n    ) public onlyOwner {\r\n        require(amount > 0, \"ERR_ZERO_AMOUNT\");\r\n        _feeManager.debit(token, amount);\r\n        if (token == nativeAddress) {\r\n            receiver.transfer(amount);\r\n        } else {\r\n            ERC20(token).safeTransfer(receiver, amount);\r\n        }\r\n    }\r\n\r\n    function _checkPercentage(uint16 percentage) private pure {\r\n        // percentage must be 25, 50, 75 or 100\r\n        require(percentage <= 100, \"OVER_PERCENTAGE\");\r\n        require(percentage % 25 == 0, \"ERR_PERCENTAGE\");\r\n    }\r\n\r\n    modifier onlyOwner() {\r\n        require(_msgSender() == deployer, \"ERR_ONLY_OWNER\");\r\n        _;\r\n    }\r\n}\r\n",
  "sourcePath": "C:\\Users\\DELL\\Documents\\darsh\\smart-contracts\\contracts\\LendingPool.sol",
  "compiler": {
    "name": "solc",
    "version": "0.8.17+commit.8df45f5f.Emscripten.clang"
  },
  "schemaVersion": "3.4.11",
  "updatedAt": "2023-02-18T15:28:17.836Z",
  "devdoc": {
    "kind": "dev",
    "methods": {
      "claim(address,address,uint256)": {
        "details": "to claim revenue"
      }
    },
    "version": 1
  },
  "userdoc": {
    "kind": "user",
    "methods": {},
    "version": 1
  }
}