{
  "contractName": "LendingPool",
  "abi": [
    {
      "inputs": [],
      "stateMutability": "nonpayable",
      "type": "constructor"
    },
    {
      "anonymous": false,
      "inputs": [
        {
          "indexed": true,
          "internalType": "address",
          "name": "previousOwner",
          "type": "address"
        },
        {
          "indexed": true,
          "internalType": "address",
          "name": "newOwner",
          "type": "address"
        }
      ],
      "name": "OwnershipTransferStarted",
      "type": "event"
    },
    {
      "anonymous": false,
      "inputs": [
        {
          "indexed": true,
          "internalType": "address",
          "name": "previousOwner",
          "type": "address"
        },
        {
          "indexed": true,
          "internalType": "address",
          "name": "newOwner",
          "type": "address"
        }
      ],
      "name": "OwnershipTransferred",
      "type": "event"
    },
    {
      "anonymous": false,
      "inputs": [
        {
          "indexed": false,
          "internalType": "address",
          "name": "account",
          "type": "address"
        }
      ],
      "name": "Paused",
      "type": "event"
    },
    {
      "anonymous": false,
      "inputs": [
        {
          "indexed": false,
          "internalType": "uint256",
          "name": "transferId",
          "type": "uint256"
        },
        {
          "indexed": false,
          "internalType": "uint256",
          "name": "offerId",
          "type": "uint256"
        },
        {
          "indexed": false,
          "internalType": "address",
          "name": "from",
          "type": "address"
        },
        {
          "indexed": false,
          "internalType": "uint256",
          "name": "amount",
          "type": "uint256"
        },
        {
          "indexed": false,
          "internalType": "address",
          "name": "token",
          "type": "address"
        },
        {
          "indexed": false,
          "internalType": "enum LendingPoolProvider.Type",
          "name": "transferType",
          "type": "uint8"
        },
        {
          "indexed": false,
          "internalType": "uint256",
          "name": "timestamp",
          "type": "uint256"
        }
      ],
      "name": "Transfer",
      "type": "event"
    },
    {
      "anonymous": false,
      "inputs": [
        {
          "indexed": false,
          "internalType": "address",
          "name": "account",
          "type": "address"
        }
      ],
      "name": "Unpaused",
      "type": "event"
    },
    {
      "inputs": [],
      "name": "INTEREST_RATE_DENOMINATOR",
      "outputs": [
        {
          "internalType": "uint256",
          "name": "",
          "type": "uint256"
        }
      ],
      "stateMutability": "view",
      "type": "function"
    },
    {
      "inputs": [],
      "name": "LENDINGPOOL_VERSION",
      "outputs": [
        {
          "internalType": "uint256",
          "name": "",
          "type": "uint256"
        }
      ],
      "stateMutability": "view",
      "type": "function"
    },
    {
      "inputs": [],
      "name": "PERCENT",
      "outputs": [
        {
          "internalType": "uint16",
          "name": "",
          "type": "uint16"
        }
      ],
      "stateMutability": "view",
      "type": "function"
    },
    {
      "inputs": [],
      "name": "acceptOwnership",
      "outputs": [],
      "stateMutability": "nonpayable",
      "type": "function"
    },
    {
      "inputs": [
        {
          "internalType": "uint16",
          "name": "percentage",
          "type": "uint16"
        }
      ],
      "name": "checkPercentage",
      "outputs": [],
      "stateMutability": "pure",
      "type": "function"
    },
    {
      "inputs": [
        {
          "internalType": "uint256",
          "name": "principal",
          "type": "uint256"
        },
        {
          "internalType": "uint256",
          "name": "durationSecs",
          "type": "uint256"
        },
        {
          "internalType": "uint256",
          "name": "interestRate",
          "type": "uint256"
        }
      ],
      "name": "getFullInterestAmount",
      "outputs": [
        {
          "internalType": "uint256",
          "name": "",
          "type": "uint256"
        }
      ],
      "stateMutability": "pure",
      "type": "function"
    },
    {
      "inputs": [],
      "name": "nativeAddress",
      "outputs": [
        {
          "internalType": "address",
          "name": "",
          "type": "address"
        }
      ],
      "stateMutability": "view",
      "type": "function"
    },
    {
      "inputs": [],
      "name": "owner",
      "outputs": [
        {
          "internalType": "address",
          "name": "",
          "type": "address"
        }
      ],
      "stateMutability": "view",
      "type": "function"
    },
    {
      "inputs": [],
      "name": "paused",
      "outputs": [
        {
          "internalType": "bool",
          "name": "",
          "type": "bool"
        }
      ],
      "stateMutability": "view",
      "type": "function"
    },
    {
      "inputs": [],
      "name": "pendingOwner",
      "outputs": [
        {
          "internalType": "address",
          "name": "",
          "type": "address"
        }
      ],
      "stateMutability": "view",
      "type": "function"
    },
    {
      "inputs": [
        {
          "internalType": "uint256",
          "name": "total",
          "type": "uint256"
        },
        {
          "internalType": "uint160",
          "name": "percent",
          "type": "uint160"
        }
      ],
      "name": "percentageOf",
      "outputs": [
        {
          "internalType": "uint256",
          "name": "",
          "type": "uint256"
        }
      ],
      "stateMutability": "pure",
      "type": "function"
    },
    {
      "inputs": [],
      "name": "renounceOwnership",
      "outputs": [],
      "stateMutability": "nonpayable",
      "type": "function"
    },
    {
      "inputs": [
        {
          "internalType": "uint256",
          "name": "offerId",
          "type": "uint256"
        },
        {
          "internalType": "address",
          "name": "from",
          "type": "address"
        },
        {
          "internalType": "uint256",
          "name": "amount",
          "type": "uint256"
        },
        {
          "internalType": "address",
          "name": "token",
          "type": "address"
        },
        {
          "internalType": "enum LendingPoolProvider.Type",
          "name": "transferType",
          "type": "uint8"
        }
      ],
      "name": "transfer",
      "outputs": [],
      "stateMutability": "nonpayable",
      "type": "function"
    },
    {
      "inputs": [
        {
          "internalType": "address",
          "name": "newOwner",
          "type": "address"
        }
      ],
      "name": "transferOwnership",
      "outputs": [],
      "stateMutability": "nonpayable",
      "type": "function"
    },
    {
      "inputs": [
        {
          "internalType": "uint256",
          "name": "principalAmount_",
          "type": "uint256"
        },
        {
          "internalType": "address",
          "name": "principalToken",
          "type": "address"
        },
        {
          "internalType": "address[]",
          "name": "collateralTokens",
          "type": "address[]"
        },
        {
          "internalType": "uint16",
          "name": "daysToMaturity",
          "type": "uint16"
        },
        {
          "internalType": "uint256",
          "name": "interestRate",
          "type": "uint256"
        },
        {
          "internalType": "uint16",
          "name": "daysToExpire",
          "type": "uint16"
        }
      ],
      "name": "createLendingOffer",
      "outputs": [],
      "stateMutability": "payable",
      "type": "function"
    },
    {
      "inputs": [
        {
          "internalType": "address",
          "name": "principalToken",
          "type": "address"
        },
        {
          "internalType": "uint256",
          "name": "principalAmount",
          "type": "uint256"
        },
        {
          "internalType": "address",
          "name": "collateralToken",
          "type": "address"
        },
        {
          "internalType": "uint256",
          "name": "interestRate",
          "type": "uint256"
        },
        {
          "internalType": "uint16",
          "name": "daysToMaturity",
          "type": "uint16"
        },
        {
          "internalType": "uint16",
          "name": "hoursToExpire",
          "type": "uint16"
        }
      ],
      "name": "createBorrowingOffer",
      "outputs": [],
      "stateMutability": "payable",
      "type": "function"
    },
    {
      "inputs": [
        {
          "internalType": "uint256",
          "name": "offerId",
          "type": "uint256"
        },
        {
          "internalType": "uint16",
          "name": "percentage",
          "type": "uint16"
        },
        {
          "internalType": "uint16",
          "name": "daysToMaturity",
          "type": "uint16"
        },
        {
          "internalType": "uint256",
          "name": "interestRate",
          "type": "uint256"
        },
        {
          "internalType": "uint16",
          "name": "hoursToExpire",
          "type": "uint16"
        }
      ],
      "name": "createLendingRequest",
      "outputs": [],
      "stateMutability": "payable",
      "type": "function"
    },
    {
      "inputs": [
        {
          "internalType": "uint256",
          "name": "offerId",
          "type": "uint256"
        },
        {
          "internalType": "uint16",
          "name": "percentage",
          "type": "uint16"
        },
        {
          "internalType": "address",
          "name": "collateralToken",
          "type": "address"
        },
        {
          "internalType": "uint256",
          "name": "interestRate",
          "type": "uint256"
        },
        {
          "internalType": "uint16",
          "name": "daysToMaturity",
          "type": "uint16"
        },
        {
          "internalType": "uint16",
          "name": "hoursToExpire",
          "type": "uint16"
        }
      ],
      "name": "createBorrowingRequest",
      "outputs": [],
      "stateMutability": "payable",
      "type": "function"
    },
    {
      "inputs": [
        {
          "internalType": "uint256",
          "name": "offerId",
          "type": "uint256"
        },
        {
          "internalType": "uint16",
          "name": "percentage",
          "type": "uint16"
        }
      ],
      "name": "acceptBorrowingOffer",
      "outputs": [],
      "stateMutability": "payable",
      "type": "function"
    },
    {
      "inputs": [
        {
          "internalType": "uint256",
          "name": "offerId",
          "type": "uint256"
        },
        {
          "internalType": "uint16",
          "name": "percentage",
          "type": "uint16"
        },
        {
          "internalType": "address",
          "name": "collateralToken",
          "type": "address"
        }
      ],
      "name": "acceptLendingOffer",
      "outputs": [],
      "stateMutability": "payable",
      "type": "function"
    },
    {
      "inputs": [
        {
          "internalType": "uint256",
          "name": "requestId",
          "type": "uint256"
        }
      ],
      "name": "acceptBorrowingRequest",
      "outputs": [],
      "stateMutability": "nonpayable",
      "type": "function"
    },
    {
      "inputs": [
        {
          "internalType": "uint256",
          "name": "requestId",
          "type": "uint256"
        }
      ],
      "name": "acceptLendingRequest",
      "outputs": [],
      "stateMutability": "payable",
      "type": "function"
    },
    {
      "inputs": [
        {
          "internalType": "uint256",
          "name": "offerId",
          "type": "uint256"
        },
        {
          "internalType": "uint16",
          "name": "toExpire",
          "type": "uint16"
        }
      ],
      "name": "reActivateOffer",
      "outputs": [],
      "stateMutability": "nonpayable",
      "type": "function"
    },
    {
      "inputs": [
        {
          "internalType": "uint256",
          "name": "loanId",
          "type": "uint256"
        },
        {
          "internalType": "uint16",
          "name": "percentage",
          "type": "uint16"
        }
      ],
      "name": "repayLoan",
      "outputs": [],
      "stateMutability": "payable",
      "type": "function"
    },
    {
      "inputs": [
        {
          "internalType": "uint256",
          "name": "loanId",
          "type": "uint256"
        }
      ],
      "name": "repayLiquidatedLoan",
      "outputs": [],
      "stateMutability": "payable",
      "type": "function"
    },
    {
      "inputs": [
        {
          "internalType": "uint256",
          "name": "requestId",
          "type": "uint256"
        }
      ],
      "name": "rejectRequest",
      "outputs": [],
      "stateMutability": "nonpayable",
      "type": "function"
    },
    {
      "inputs": [
        {
          "internalType": "uint256",
          "name": "requestId",
          "type": "uint256"
        }
      ],
      "name": "cancelRequest",
      "outputs": [],
      "stateMutability": "nonpayable",
      "type": "function"
    },
    {
      "inputs": [
        {
          "internalType": "uint256",
          "name": "loanId",
          "type": "uint256"
        }
      ],
      "name": "claimCollateral",
      "outputs": [],
      "stateMutability": "nonpayable",
      "type": "function"
    },
    {
      "inputs": [
        {
          "internalType": "uint256",
          "name": "loanId",
          "type": "uint256"
        }
      ],
      "name": "claimBorrowedPrincipal",
      "outputs": [],
      "stateMutability": "nonpayable",
      "type": "function"
    },
    {
      "inputs": [
        {
          "internalType": "uint256",
          "name": "loanId",
          "type": "uint256"
        }
      ],
      "name": "claimPrincipal",
      "outputs": [],
      "stateMutability": "nonpayable",
      "type": "function"
    },
    {
      "inputs": [
        {
          "internalType": "uint256",
          "name": "loanId",
          "type": "uint256"
        }
      ],
      "name": "claimDefaultCollateral",
      "outputs": [],
      "stateMutability": "nonpayable",
      "type": "function"
    },
    {
      "inputs": [
        {
          "internalType": "uint256",
          "name": "loanId",
          "type": "uint256"
        }
      ],
      "name": "liquidateLoan",
      "outputs": [],
      "stateMutability": "nonpayable",
      "type": "function"
    },
    {
      "inputs": [],
      "name": "getVersion",
      "outputs": [
        {
          "internalType": "uint256",
          "name": "",
          "type": "uint256"
        }
      ],
      "stateMutability": "pure",
      "type": "function"
    },
    {
      "inputs": [
        {
          "internalType": "address",
          "name": "ltv_",
          "type": "address"
        },
        {
          "internalType": "address",
          "name": "activity_",
          "type": "address"
        },
        {
          "internalType": "address",
          "name": "priceFeed_",
          "type": "address"
        }
      ],
      "name": "setFeeds",
      "outputs": [],
      "stateMutability": "nonpayable",
      "type": "function"
    },
    {
      "inputs": [
        {
          "internalType": "address",
          "name": "loanManager_",
          "type": "address"
        },
        {
          "internalType": "address",
          "name": "offerManager_",
          "type": "address"
        },
        {
          "internalType": "address",
          "name": "feeManager_",
          "type": "address"
        }
      ],
      "name": "setManagers",
      "outputs": [],
      "stateMutability": "nonpayable",
      "type": "function"
    },
    {
      "inputs": [
        {
          "internalType": "address",
          "name": "token",
          "type": "address"
        },
        {
          "internalType": "address payable",
          "name": "receiver",
          "type": "address"
        },
        {
          "internalType": "uint256",
          "name": "amount",
          "type": "uint256"
        }
      ],
      "name": "claim",
      "outputs": [],
      "stateMutability": "nonpayable",
      "type": "function"
    }
  ],
  "bytecode": "0x6080806040523461006d576001805560035460028054336001600160a01b0319821681179092556001600160a01b03167f8be0079c531659141344cd1fd0a4f28419497f9722a3daafe3b4186f6b6457e0600080a36001600160a81b03191660035561403f90816100738239f35b600080fdfe6080604052600436101561001257600080fd5b6000803560e01c80630548db121461336f5780630d8e6e2c1461281d57806310b3ed2a146133125780632672a87a14612e235780632d7788db14612dc85780632e47633714612d9f5780633015394c14612bbe5780634add7c82146128395780634ae322351461281d57806353188b141461244e5780635c7f31aa14611fc25780635c975abb14611f9c5780635d03999f14611f2757806361ba944314611f12578063628118ee14611b20578063669c987f14611a95578063715018a614611a2d57806379ba5097146119695780637a5ae69e146119405780637cc5805a146117df5780638da5cb5b146117b6578063996cba6814611689578063a33928da146112e5578063a6aea41514611288578063b2ac850d14611214578063b85a8b20146111f8578063c1bc89ef14610ffb578063c49785b414610f9e578063cc3266e814610f7b578063ccdd9f5d14610b37578063e0b2695914610b03578063e0f7dffd14610ab7578063e30c397814610a8e578063e826fbe71461032d578063f2fde38b146102bf5763f9af0579146101a957600080fd5b346102bc5760203660031901126102bc576101c2613dba565b6101ca613515565b60075460405163f400c74360e01b81526004803590820152336024820152906001600160a01b039060609083908316818681604481015b03925af190811561025b57839084938593610285575b508216600080516020613fea833981519152810361027057508380828015610266575b8280929181923390f11561025b57610254925b3390613e10565b6001805580f35b6040513d85823e3d90fd5b6108fc915061023a565b9261028082610254953390613afd565b61024d565b915092506102aa915060603d81116102b5575b6102a28183613483565b810190613d98565b929190929138610217565b503d610298565b80fd5b50346102bc5760203660031901126102bc576102d96133e4565b6102e16134bd565b600380546001600160a01b0319166001600160a01b039283169081179091556002549091167f38d16b8cac22d99fc7c124b9cd0de2d3fa1faef420bfe791d8c362d765e227008380a380f35b5060603660031901126102bc57610342613426565b61034a613410565b610352613515565b61035b82613f43565b6008546040516322bc934560e11b81526004803590820152926001600160a01b03909116908484602481855afa93841561085c578594610a6a575b50604051633970062960e01b815260048035908201526001600160a01b0384166024820152916020908390604490829089905af191821561085c576103f6926103e6918791610a3b575b506139a8565b61ffff6080850151911690613f1f565b600554604084810151905163912d228f60e01b81526001600160a01b0391821660048201526024810184905292949291602091839160449183918a91165af190811561085c578591610a08575b506006546040516322a0fe3360e21b81523360048201526024810192909252602090829060449082906001600160a01b03165afa90811561085c5785916109ce575b506005546040838101519051631c07d98160e21b81526001600160a01b03918216600482015285821660248201526044810187905291602091839160649183918b91165af19081156108cf57869161099c575b50600654604051636882509b60e11b815290602090829060049082906001600160a01b03165afa908115610991578791610947575b506105259260ff61051f9216906137fa565b90613f1f565b600080516020613fea8339815191529390856001600160a01b0385168681036109315750503481106108f45785945b610562858333600435613e64565b60408401516001600160a01b031690839082036108e457505084808380156108da575b8280929181923390f115610838575b60408301516105b0906001600160a01b03168333600435613e10565b60055460405163912d228f60e01b81526001600160a01b03868116600483015260248201849052909591602091879160449183918b91165af19485156108cf578695610896575b506007546101c085015160209285926001600160a01b031691899061061b816139f4565b61066f8a60018060a01b0360408c015116928b61ffff60c060a083015192015116908d61012060018060a01b0391015116936040519c8d9b8c9a8b996319467e2760e01b8b52339760043560048d01613a88565b03925af1801561085c57610867575b506008546001600160a01b0316803b156107fa57848091604460405180948193631b6eb38160e21b835260043560048401528760248401525af190811561085c578591610843575b5050600554604083810151905163912d228f60e01b81526001600160a01b0391821660048201526024810193909352602091839160449183918991165af19081156108385784916107fe575b50600454610120909201516001600160a01b03928316921690823b156107fa576040516328cdd6eb60e11b81526001600160a01b0392909216600483015233602483015260448201529083908290606490829084905af190811561025b5783916107e3575b50506004546001600160a01b0316803b156107df576040516363a6c98160e01b8152336004820152602481019290925282908290818381604481015b03925af180156107d4576107c45750f35b6107cd90613459565b6102bc5780f35b6040513d84823e3d90fd5b5050fd5b6107ec90613459565b6107f7578138610777565b50fd5b8480fd5b9350506020833d602011610830575b8161081a60209383613483565b8101031261082b5783925138610712565b600080fd5b3d915061080d565b6040513d86823e3d90fd5b61084c90613459565b6108575783386106c6565b505050fd5b6040513d87823e3d90fd5b6020809295503d831161088f575b61087f8183613483565b8101031261082b5783923861067e565b503d610875565b955093506020853d6020116108c7575b816108b360209383613483565b8101031261082b57935185949093826105f7565b3d91506108a6565b6040513d88823e3d90fd5b6108fc9150610585565b6108ef913390613afd565b610594565b60405162461bcd60e51b815260206004820152601560248201527411549497d0d3d31310551154905317d05353d55395605a1b6044820152606490fd5b82610942919792973090339061355c565b610554565b90506020813d602011610989575b8161096260209383613483565b81010312610985576105259260ff61097c61051f936137ec565b9250509261050d565b8680fd5b3d9150610955565b6040513d89823e3d90fd5b90506020813d6020116109c6575b816109b760209383613483565b8101031261082b5751386104d8565b3d91506109aa565b90506020813d602011610a00575b816109e960209383613483565b810103126107fa576109fa906137d8565b38610485565b3d91506109dc565b90506020813d602011610a33575b81610a2360209383613483565b8101031261082b57516020610443565b3d9150610a16565b610a5d915060203d602011610a63575b610a558183613483565b8101906135af565b386103e0565b503d610a4b565b610a879194503d8087833e610a7f8183613483565b810190613837565b9238610396565b50346102bc57806003193601126102bc576003546040516001600160a01b039091168152602090f35b50346102bc5760603660031901126102bc576020610afb6004356064670de0b6b3a7640000610af3602435610aee60443586613f0c565b613f0c565b040490613d8b565b604051908152f35b50346102bc5760403660031901126102bc57602435906001600160a01b03821682036102bc576020610afb83600435613f1f565b50346102bc57806020806003193601126107f757610b53613dba565b8160018060a01b0391826007541660405190632820036560e11b82526004356004830152816024816102c09687945af192831561085c578593610f4c575b5050610ba261014083015142613d68565b92610bcb60a08401946064670de0b6b3a7640000610af3885193610aee6101208a015186613f0c565b6005546040858101516060870180519251631c07d98160e21b8082526001600160a01b03938816841660048301529387169290921660248301526044820185905295939092849084908716818c816064810103925af1928315610f0d578993610f18575b5083610c8991888a8c610c548a6040816005541695015116948b8d5116935190613d68565b6040518881526001600160a01b0395861660048201529290941660248301526044820193909352938492839182906064820190565b03925af1908115610f0d578991610edb575b50889084866009541660046040518095819363a001ecdd60e01b83525af1908115610ed0578a91610e94575b610cd19250613f1f565b9260e08701968751610ce38686613d68565b11610dfe57505050610cf58282613d68565b95519451818110610de1575050915b81806009541691511690803b156109855760405163ef6506db60e01b81526001600160a01b039290921660048301526024820184905286908290604490829084905af19081156108cf578691610dcd575b5050610d6690600754169184613d68565b90803b156107fa57604051633799ba3f60e01b815260048035908201526024810193909352604483019390935260648201529082908290608490829084905af180156107d457610db9575b506001805580f35b610dc290613459565b6102bc578038610db1565b610dd690613459565b6107fa578438610d55565b909550610df2610df8928297613d68565b90613d68565b91610d04565b965160055487516040998a015199519485526001600160a01b039088168116600486015298871690981660248401526044830181905297509395909250839150829060649082908a9089165af19182156108cf578692610e63575b5050918491610d04565b8196508092503d8311610e8d575b610e7b8183613483565b8101031261082b578493513880610e59565b503d610e71565b90508482813d8311610ec9575b610eab8183613483565b81010312610ec557610ebf610cd1926137d8565b90610cc7565b8980fd5b503d610ea1565b6040513d8c823e3d90fd5b809950848092503d8311610f06575b610ef48183613483565b8101031261082b578880985190610c9b565b503d610eea565b6040513d8b823e3d90fd5b985091508288813d8111610f45575b610f318183613483565b8101031261082b5796518897909183610c2f565b503d610f27565b610f6c929350803d10610f74575b610f648183613483565b810190613c24565b903880610b91565b503d610f5a565b50346102bc57806003193601126102bc576020604051670de0b6b3a76400008152f35b50346102bc5760203660031901126102bc57610fb8613dba565b610fc0613515565b60075460405163014b594760e71b81526004803590820152336024820152906001600160a01b03906060908390831681868160448101610201565b5060c03660031901126102bc576004356110136133fa565b60443567ffffffffffffffff81116111f457366023820112156111f45780600401359061103f826134a5565b9061104d6040519283613483565b82825260208201906024829460051b820101903682116111f057602401915b8183106111d0575050506064359161ffff8316830361082b5761108d613448565b94611096613515565b6001600160a01b038516600080516020613fea833981519152036111ad57503492918661ffff9692935b60018060a01b03600854169260405198899563031137cd60e61b87528160e488019460018060a01b038c1660048a01528a60248a015260843560448a015216606488015216608486015260e060a48601525180915261010484019490825b818110611188575050508290816020953360c483015203925af18015610838578490611154575b61115193503390613eb8565b80f35b506020833d602011611180575b8161116e60209383613483565b8101031261082b576111519251611145565b3d9150611161565b82516001600160a01b031687526020968701968a96508b94509092019160010161111e565b926111c38430336001600160a01b03891661355c565b918661ffff9692936110c0565b82356001600160a01b038116810361082b5781526020928301920161106c565b8780fd5b8380fd5b50346102bc57806003193601126102bc57602060405160648152f35b50346102bc5760403660031901126102bc578061122f613426565b611237613515565b6008546001600160a01b031690813b156107df5761ffff6064849283604051958694859363099bfe6b60e01b855260043560048601521660248401523360448401525af180156107d4576107c45750f35b50346102bc5760203660031901126102bc576112a2613dba565b6112aa613515565b60075460405163e41936d760e01b81526004803590820152336024820152906001600160a01b03906060908390831681868160448101610201565b5060403660031901126102bc57806004356112fe613426565b611306613515565b61130f81613f43565b6008546040516322bc934560e11b815260048101849052908490829060249082906001600160a01b03165afa90811561083857849161166f575b5061136d61136261ffff6101a084015194168094613f1f565b926080830151613f1f565b60408201519092906001600160a01b031683600080516020613fea833981519152820361165d57905034106107fa575b60408201516113b7906001600160a01b0316843387613eb8565b610120820180516101608401519195916113e0916001600160a01b039182169185911684613e64565b60055461016084015160405163912d228f60e01b81526001600160a01b0391821660048201526024810185905291602091839160449183918c91165af1908115610991578791611625575b506020859160018060a01b0360075416868a8a6114ac83518a896101c087015194611455866139f4565b60018060a01b036040890151169760018060a01b03610160820151169a61ffff60c060a0840151930151169260018060a01b03905116946040519e8f9d8e9c8d9b8c9a6319467e2760e01b8c526004339c01613a14565b03925af18015610991576115f6575b506008546001600160a01b031691823b1561098557604051633496841f60e11b815260048101929092526024820185905260448201529085908290606490829084905af190811561085c5785916115e2575b5050600554604091820151915163912d228f60e01b81526001600160a01b0392831660048201526024810193909352602091839160449183918891165af190811561025b5783916115ad575b5060045491516001600160a01b03928316921690823b15610857576040516328cdd6eb60e11b81523360048201526001600160a01b03909216602483015260448201529082908290818381606481016107b3565b9250506020823d6020116115da575b816115c960209383613483565b8101031261082b5782915138611559565b3d91506115bc565b6115eb90613459565b61085757833861150d565b6020809297503d831161161e575b61160e8183613483565b8101031261082b578594386114bb565b503d611604565b9650506020863d602011611655575b8161164160209383613483565b8101031261082b579451869590602061142b565b3d9150611634565b61166a913090339061355c565b61139d565b61168391503d8086833e610a7f8183613483565b38611349565b50346102bc5760603660031901126102bc576116a36133e4565b6001600160a01b03602435818116908190036111f457604435916116c56134bd565b6116cd613dba565b821561177f5784938160095416803b1561177b576040516331b5f13d60e11b81526001600160a01b0383166004820152602481018690529086908290604490829084905af19081156108cf578691611767575b505016600080516020613fea83398151915281036117585750828092819282f11561174c576001805580f35b604051903d90823e3d90fd5b6117629350613afd565b610254565b61177090613459565b6107fa578438611720565b8580fd5b60405162461bcd60e51b815260206004820152600f60248201526e11549497d6915493d7d05353d55395608a1b6044820152606490fd5b50346102bc57806003193601126102bc576002546040516001600160a01b039091168152602090f35b5060a03660031901126102bc576004356117f7613426565b9060443561ffff80821680920361082b57611810613437565b93611819613515565b61182281613f43565b8560018060a01b03926024828560085416604051928380926322bc934560e11b82528b60048301525afa90811561025b578391611926575b5084604061187084608085015197168097613f1f565b92015116600080516020613fea833981519152810361190d575034106119095760209560c4945b60085416916040519889978896630b438b8960e41b885260048801526064356024880152604487015216606485015233608485015260a48401525af180156107d4576118e1575080f35b602090813d8111611902575b6118f78183613483565b8101031261082b5780f35b503d6118ed565b5080fd5b946119216020989260c4973090339061355c565b611897565b61193a91503d8085833e610a7f8183613483565b3861185a565b50346102bc5760203660031901126102bc5760043561ffff8116810361082b5761115190613f43565b50346102bc57806003193601126102bc576003546001600160a01b0333818316036119d6576001600160601b0360a01b8092166003556002549133908316176002553391167f8be0079c531659141344cd1fd0a4f28419497f9722a3daafe3b4186f6b6457e0600080a380f35b60405162461bcd60e51b815260206004820152602960248201527f4f776e61626c6532537465703a2063616c6c6572206973206e6f7420746865206044820152683732bb9037bbb732b960b91b6064820152608490fd5b50346102bc57806003193601126102bc57611a466134bd565b600380546001600160a01b03199081169091556002805491821690556000906001600160a01b03167f8be0079c531659141344cd1fd0a4f28419497f9722a3daafe3b4186f6b6457e08280a380f35b50346102bc5760a03660031901126102bc57611aaf6133fa565b6001600160a01b03606435818116929083900361082b5760843560048110156107fa57600080516020613fca8339815191529360e093600160005401938460005560405194855260043560208601521660408401526044356060840152608083015260a08201524260c0820152a180f35b5060403660031901126102bc57600435611b38613426565b611b40613515565b611b4981613f43565b8260018060a01b0392836007541660405190632820036560e11b8252826004830152816024816102c09687945af19283156108cf578693611ef3575b505083610280830151163303611ebb5784938491611ba861014085015142613d68565b94611bf46064670de0b6b3a7640000611bec611bdc611bd161ffff60808c015197168097613f1f565b9560c08b0151613f1f565b99610aee6101208b015187613f0c565b040482613d8b565b611bfe8282613d68565b84600954166040519063a001ecdd60e01b82528160048160209a8b945af1908115610ed0578a91611e7f575b50611c38611c3f9183613f1f565b8092613d68565b93856009541660408901928784511690823b15611e7b5760405163ef6506db60e01b81526001600160a01b039290921660048301526024820152908b908290604490829084905af1918215611e70578b86928a94611e54575b508790896007541692611cd86040519e8f968795869463094bb9f160e11b8652600486019094939260609260808301968352602083015260408201520152565b03925af1978815610f0d578998611e35575b508585825116600080516020613fea8339815191528114600014611e16575050813410611e1257611d458693611d36611d79965b611d2a8b519184613d8b565b89865116913390613eb8565b86806005541693511693613d68565b60405163912d228f60e01b81526001600160a01b0390931660048401526024830152909283919082908a9082906044820190565b03925af19283156108cf578693611ddf575b50506102a081600454169301511691803b156107fa57849283608492604051968795869463875bc3d160e01b865260048601523360248601526044850152151560648401525af180156107d4576107c45750f35b819650809293503d8311611e0b575b611df88183613483565b8101031261082b57849351903880611d8b565b503d611dee565b8880fd5b93611d36611d7996611e3086611d4595983090339061355c565b611d1e565b611e4d919850863d8811610a6357610a558183613483565b9638611cea565b909250611e62919350613459565b610ec5578387918b38611c98565b6040513d8d823e3d90fd5b8c80fd5b90508681813d8311611eb4575b611e968183613483565b81010312610ec557611c38611ead611c3f926137d8565b9150611c2a565b503d611e8c565b60405162461bcd60e51b815260206004820152601060248201526f22a9292fa727aa2fa127a92927aba2a960811b6044820152606490fd5b611f0a929350803d10610f7457610f648183613483565b903880611b85565b5060203660031901126102bc57611151613515565b50346102bc5760603660031901126102bc57611f416133e4565b611f496133fa565b611f51613410565b611f596134bd565b611f61613dba565b60018060a01b038092816001600160601b0360a01b951685600754161760075516836008541617600855169060095416176009556001805580f35b50346102bc57806003193601126102bc57602060ff60035460a01c166040519015158152f35b5060203660031901126102bc57611fd7613515565b60085460405163c58343ef60e01b8152600480359082015282916001600160a01b03166101c082602481845afa91821561025b57839261241b575b50826101008301516024604051809481936322bc934560e11b835260048301525afa90811561025b578391612401575b506101a081015190612073612061604085019361ffff85511690613f1f565b9261ffff608084015191511690613f1f565b916120946101008501518260018060a01b0361016086015116913390613e64565b604082015183906001600160a01b0316600080516020613fea83398151915281036123ec57505084808480156123e2575b8280929181923390f11561083857612139905b6120f76101008601518560018060a01b03604087015116913390613e10565b60055461016084015160405163912d228f60e01b81526001600160a01b03918216600482015260248101849052936020928592169082908a9082906044820190565b03925af19182156108cf5786926123aa575b506007546101008601516101c0850151869460209490936001600160a01b031692918a916121d79061217c836139f4565b60018060a01b0360408b015116948c60018060a01b036101608d0151169860808201519061ffff6060840151169260e060018060a01b0391015116946040519d8e9c8d9b8c9a6319467e2760e01b8c52339860048d01613a88565b03925af1801561085c5761237b575b5060018060a01b03600854168151813b1561177b578591604483926040519485938492631b6eb38160e21b845260048401528860248401525af190811561085c578591612367575b50506008546001600160a01b0316803b156107fa57604051636d5d42c560e11b815260048035908201523360248201529085908290604490829084905af190811561085c578591612353575b5050600554604091820151915163912d228f60e01b81526001600160a01b0392831660048201526024810193909352602091839160449183918891165af190811561025b57839161231e575b5060045460e0909201516001600160a01b03928316921690823b15610857576040516328cdd6eb60e11b81526001600160a01b03909216600483015233602483015260448201529082908290818381606481016107b3565b9250506020823d60201161234b575b8161233a60209383613483565b8101031261082b57829151386122c6565b3d915061232d565b61235c90613459565b61085757833861227a565b61237090613459565b61085757833861222e565b6020809295503d83116123a3575b6123938183613483565b8101031261082b578392386121e6565b503d612389565b955090506020853d6020116123da575b816123c760209383613483565b8101031261082b5793518594602061214b565b3d91506123ba565b6108fc91506120c5565b61213992916123fc913390613afd565b6120d8565b61241591503d8085833e610a7f8183613483565b38612042565b6124409192506101c03d6101c011612447575b6124388183613483565b810190613b36565b9038612012565b503d61242e565b5060c03660031901126102bc576124636133e4565b8161246c613410565b91612475613437565b61247d613448565b612485613515565b60055460405163912d228f60e01b81526001600160a01b03858116600483015260248035908301529491602090829060449082908a908a165af19081156108cf5786916127e5575b506006546040516322a0fe3360e21b815233600482015260248101929092526020908290604490829089165afa9081156108cf5786916127ab575b50600554604051631c07d98160e21b81526001600160a01b038481166004830152891660248083019190915235604482015290602090829060649082908b908b165af1908115610991578791612776575b5060046020876006541660405192838092636882509b60e11b82525afa90811561276b578891612725575b506125969260ff61051f9216906137fa565b92868516928587600080516020613fea833981519152860361270b57505084341061098557602092876101049288945b856008541691604051988997889663486c386960e11b885216600487015260248601528960448601526024356064860152606435608486015261ffff80921660a48601521660c48401523360e48401525af18015610838576126dc575b5060055460405163912d228f60e01b81526001600160a01b03959095166004860152602485019190915291929160209083906044908290879086165af191821561025b5783926126a5575b5060045416803b156107df576040516363a6c98160e01b8152336004820152602481019290925282908290818381604481016107b3565b925090506020823d6020116126d4575b816126c260209383613483565b8101031261082b57829151903861266e565b3d91506126b5565b6020809294503d8311612704575b6126f48183613483565b8101031261082b57839138612623565b503d6126ea565b6101049260209592946127208930338b61355c565b6125c6565b90506020813d602011612763575b8161274060209383613483565b810103126111f0576125969260ff61275a61051f936137ec565b92505092612584565b3d9150612733565b6040513d8a823e3d90fd5b9650506020863d6020116127a3575b8161279260209383613483565b8101031261082b5787955138612559565b3d9150612785565b90506020813d6020116127dd575b816127c660209383613483565b8101031261177b576127d7906137d8565b38612508565b3d91506127b9565b9550506020853d602011612815575b8161280160209383613483565b8101031261082b57935186949060206124cd565b3d91506127f4565b50346102bc57806003193601126102bc57602060405160028152f35b50346102bc5760203660031901126102bc57612853613515565b60085460405163c58343ef60e01b8152600480359082015282916001600160a01b03166101c082602481845afa91821561025b578392612b9b575b50826101008301516024604051809481936322bc934560e11b835260048301525afa90811561025b578391612b81575b506128d6608082015161ffff60408501511690613f1f565b61010083015160e0840151610140850151610120860151939493612909936001600160a01b039182169390911690613e64565b81602060018060a01b0360075416610100860151906101c085015161292d816139f4565b8860018060a01b036040880151169161299a60018060a01b036101208c015116956101408c0151898d61016081015160808201519061ffff6060840151169260e060018060a01b0391015116946040519e8f9d8e9c8d9b8c9a6319467e2760e01b8c526004339c01613a14565b03925af1801561085c57612b52575b5060018060a01b0360085416610100840151610140850151823b1561098557604051633496841f60e11b815260048101929092526024820185905260448201529085908290606490829084905af190811561085c578591612b3e575b50506008546001600160a01b0316803b156107fa57604051636d5d42c560e11b815260048035908201523360248201529085908290604490829084905af190811561085c578591612b2a575b5050600554604091820151915163912d228f60e01b81526001600160a01b0392831660048201526024810193909352602091839160449183918891165af190811561025b578391612af5575b5060045460e0909201516001600160a01b03928316921690823b15610857576040516328cdd6eb60e11b81523360048201526001600160a01b03909216602483015260448201529082908290818381606481016107b3565b9250506020823d602011612b22575b81612b1160209383613483565b8101031261082b5782915138612a9d565b3d9150612b04565b612b3390613459565b610857578338612a51565b612b4790613459565b610857578338612a05565b6020809295503d8311612b7a575b612b6a8183613483565b8101031261082b578392386129a9565b503d612b60565b612b9591503d8085833e610a7f8183613483565b386128be565b612bb79192506101c03d6101c011612447576124388183613483565b903861288e565b50346102bc5760203660031901126102bc5780600435612bdc613515565b60085460405163c58343ef60e01b8152600481018390526001600160a01b03916101c091908316908281602481855afa9283156108cf578693612d80575b5050846101008301516024604051809481936322bc934560e11b835260048301525afa90811561085c57859284918493612d64575b506101a0810151612c5f816139f4565b612c68816139f4565b612d0457612c8560409161ffff8360808701519201511690613f1f565b92015116600080516020613fea8339815191528103612cf3575081808092818115612cea575b3390f1156107d4575b60085416803b156107df57604051639498506560e01b8152600481019290925233602483015282908290818381604481016107b3565b506108fc612cab565b612cff92503390613afd565b612cb4565b9291610160015116600080516020613fea8339815191528114600014612d515750808061014081940151818115612d48575b3390f1612cb4576040513d84823e3d90fd5b506108fc612d36565b9050610140612cff920151903390613afd565b612d799193503d8086833e610a7f8183613483565b9138612c4f565b612d97929350803d10612447576124388183613483565b903880612c1a565b50346102bc57806003193601126102bc576020604051600080516020613fea8339815191528152f35b50346102bc5760203660031901126102bc57612de2613515565b60085481906001600160a01b0316803b156107f75760405163774d3df560e01b815260048035908201523360248201529082908290818381604481016107b3565b5060c03660031901126102bc5780612e39613426565b612e41613410565b612e49613437565b91612e52613448565b92612e5b613515565b612e6482613f43565b6008546040516322bc934560e11b815260048035908201526001600160a01b0390911694908681602481895afa9081156109915787916132f8575b50604051633970062960e01b815260048035908201526001600160a01b038616602482015295602090879060449082908b905af195861561099157612f4796612eee918991610a3b57506139a8565b612f01608082015161ffff861690613f1f565b60055460409283018051935163912d228f60e01b81526001600160a01b0394851660048201526024810184905298929390926020928a92169082908c9082906044820190565b03925af196871561276b5788976132c3575b506006546040516322a0fe3360e21b81523360048201526024810198909852602090889060449082906001600160a01b03165afa96871561276b57889761327f575b506005549051604051631c07d98160e21b81526001600160a01b03918216600482015281881660248201526044810193909352602091839116818a81606481015b03925af1801561099157879061324c575b600654604051636882509b60e11b81529250602090839060049082906001600160a01b03165afa91821561276b578892613208575b5061051f60ff6130339316886137fa565b906001600160a01b038516600080516020613fea833981519152036131ee57348210610985575b60055460405163912d228f60e01b81526001600160a01b03878116600483015260248201859052909491602091869160449183918d91165af196871561276b57889485986131ab575b50600854604051633bb1374b60e01b815261ffff9788166004808301919091526001600160a01b03998a166024830152604482019690965260648082018b90529289166084820152913560a483015291861660c48201529190941660e4820152336101048201529035610124820152926020928492610144928492165af1801561025b57613180575b506004546001600160a01b031690813b156107df576040516363a6c98160e01b8152336004820152602481019190915291908290604490829084905af180156107d457613177575080f35b61115190613459565b602090813d83116131a4575b6131968183613483565b810103126107f7573861312c565b503d61318c565b9194509650602094919294813d6020116131e6575b816131cd60209383613483565b810103126111f05751959093879390929161ffff6130a3565b3d91506131c0565b6132038230336001600160a01b03891661355c565b61305a565b91506020823d602011613244575b8161322360209383613483565b810103126111f05761051f60ff61323c613033946137ec565b935050613022565b3d9150613216565b506020813d602011613277575b8161326660209383613483565b810103126109855760049051612fed565b3d9150613259565b9096506020813d6020116132bb575b8161329b60209383613483565b810103126111f057612fdc916132b26020926137d8565b97915091612f9b565b3d915061328e565b96506020873d6020116132f0575b816132de60209383613483565b810103126111f0579551956020612f59565b3d91506132d1565b61330c91503d8089833e610a7f8183613483565b38612e9f565b50346102bc5760203660031901126102bc5761332c613dba565b613334613515565b600754604051630c4d25bb60e11b81526004803590820152336024820152906001600160a01b03906060908390831681868160448101610201565b50346102bc5760603660031901126102bc576133896133e4565b6133916133fa565b613399613410565b6133a16134bd565b6133a9613dba565b60018060a01b038092816001600160601b0360a01b951685600654161760065516836004541617600455169060055416176005556001805580f35b600435906001600160a01b038216820361082b57565b602435906001600160a01b038216820361082b57565b604435906001600160a01b038216820361082b57565b6024359061ffff8216820361082b57565b6084359061ffff8216820361082b57565b60a4359061ffff8216820361082b57565b67ffffffffffffffff811161346d57604052565b634e487b7160e01b600052604160045260246000fd5b90601f8019910116810190811067ffffffffffffffff82111761346d57604052565b67ffffffffffffffff811161346d5760051b60200190565b6002546001600160a01b031633036134d157565b606460405162461bcd60e51b815260206004820152602060248201527f4f776e61626c653a2063616c6c6572206973206e6f7420746865206f776e65726044820152fd5b60ff60035460a01c1661352457565b60405162461bcd60e51b815260206004820152601060248201526f14185d5cd8589b194e881c185d5cd95960821b6044820152606490fd5b6040516323b872dd60e01b60208201526001600160a01b03928316602482015292909116604483015260648201929092526135ad916135a882608481015b03601f198101845283613483565b6135c7565b565b9081602091031261082b5751801515810361082b5790565b6040805167ffffffffffffffff94936001600160a01b0390931692909182018581118382101761346d576040526020928383527f5361666545524332303a206c6f772d6c6576656c2063616c6c206661696c6564848401526000808386829551910182855af1903d156136f7573d9687116136e3576136679495966040519061365988601f19601f8401160183613483565b81528093873d92013e613704565b8051908161367457505050565b82806136849383010191016135af565b1561368c5750565b6084906040519062461bcd60e51b82526004820152602a60248201527f5361666545524332303a204552433230206f7065726174696f6e20646964206e6044820152691bdd081cdd58d8d9595960b21b6064820152fd5b634e487b7160e01b83526041600452602483fd5b9150613667939495506060915b919290156137665750815115613718575090565b3b156137215790565b60405162461bcd60e51b815260206004820152601d60248201527f416464726573733a2063616c6c20746f206e6f6e2d636f6e74726163740000006044820152606490fd5b8251909150156137795750805190602001fd5b6040519062461bcd60e51b82528160208060048301528251908160248401526000935b8285106137bf575050604492506000838284010152601f80199101168101030190fd5b848101820151868601604401529381019385935061379c565b51906001600160a01b038216820361082b57565b519060ff8216820361082b57565b6001600160a01b039182169190821561381257160490565b634e487b7160e01b600052601260045260246000fd5b519061ffff8216820361082b57565b602091828282031261082b57815167ffffffffffffffff9283821161082b5701916101e093848484031261082b576040519485018581108382111761346d576040528351855280840151600281101561082b578186015261389a604085016137d8565b6040860152606084015160608601526080840151608086015260a084015160a08601526138c960c08501613828565b60c086015260e084015160e086015261010080850151908601526101206138f18186016137d8565b90860152610140918285015190811161082b5784019280601f8501121561082b57835161391d816134a5565b9461392b6040519687613483565b818652838087019260051b82010192831161082b578301905b82821061399157505050508301526101606139608183016137d8565b9083015261018080820151908301526101a080820151908301526101c08091015190600282101561082b5782015290565b83809161399d846137d8565b815201910190613944565b156139af57565b60405162461bcd60e51b815260206004820152601c60248201527f4552525f434f4c4c41544552414c5f4e4f545f535550504f52544544000000006044820152606490fd5b600211156139fe57565b634e487b7160e01b600052602160045260246000fd5b9a96928b98949a96929d9c9995919d6101808a019e8a52613a34816139f4565b60208a0152600160a01b600190039a8b998a80931690604001521660608c015260808b015260a08a015260c089015260e088015261ffff166101008701526101208601521661014084015216906101600152565b9995919b9a97939894909b9692966101808b019c8b52613aa7816139f4565b60208b0152600160a01b6001900380998180991660408d01521660608b015260808a015260a089015260c088015260e087015261ffff166101008601526101208501600090521661014084015216906101600152565b60405163a9059cbb60e01b60208201526001600160a01b03909216602483015260448201929092526135ad916135a8826064810161359a565b80916101c0928391031261082b5760405191820182811067ffffffffffffffff82111761346d57604052805182526020810151600481101561082b576020830152613b8360408201613828565b6040830152613b9460608201613828565b60608301526080810151608083015260a081015160a083015260c081015160c0830152613bc360e082016137d8565b60e08301526101008082015190830152610120613be18183016137d8565b9083015261014080820151908301526101608082015190830152610180613c098183016137d8565b908301526101a08091015190600282101561082b5782015290565b80916102c0928391031261082b5760405191820182811067ffffffffffffffff82111761346d57604052805182526020810151600481101561082b576020830152613c71604082016137d8565b6040830152613c82606082016137d8565b60608301526080810151608083015260a081015160a083015260c081015160c083015260e081015160e08301526101008082015190830152610120808201519083015261014080820151908301526101608082015190830152610180613ce9818301613828565b908301526101a0613cfb8183016137ec565b908301526101c080820151908301526101e080820151908301526102008082015190830152610220808201519083015261024080820151908301526102608082015190830152610280613d4f8183016137d8565b90830152613d616102a08092016137d8565b9082015290565b91908203918211613d7557565b634e487b7160e01b600052601160045260246000fd5b91908201809211613d7557565b9081606091031261082b57805191613db76040602084015193016137d8565b90565b600260015414613dcb576002600155565b60405162461bcd60e51b815260206004820152601f60248201527f5265656e7472616e637947756172643a207265656e7472616e742063616c6c006044820152606490fd5b90600080516020613fca8339815191529360e0936001600054019384600055604051948552602085015260018060a01b0380931660408501526060840152166080820152600160a08201524260c0820152a1565b90600080516020613fca8339815191529360e0936001600054019384600055604051948552602085015260018060a01b0380931660408501526060840152166080820152600260a08201524260c0820152a1565b90600080516020613fca8339815191529360e0936001600054019384600055604051948552602085015260018060a01b0380931660408501526060840152166080820152600060a08201524260c0820152a1565b81810292918115918404141715613d7557565b906001600160a01b03168015613f3f57613f3b90606492613f0c565b0490565b5090565b61ffff80911660648111613f92576019900616613f5c57565b60405162461bcd60e51b815260206004820152600e60248201526d4552525f50455243454e5441474560901b6044820152606490fd5b60405162461bcd60e51b815260206004820152600f60248201526e4f5645525f50455243454e5441474560881b6044820152606490fdfe1b89f92faead76d76eeb15b01f4ca1cff0fcbad53196805a290812426389ea7e000000000000000000000000eeeeeeeeeeeeeeeeeeeeeeeeeeeeeeeeeeeeeeeea2646970667358221220055b9bd36a2d6a09abdbd5805440888e7bbb89d624754935b75c9aa236f2b69264736f6c63430008110033",
  "immutableReferences": {},
  "source": "// SPDX-License-Identifier: GPL-3.0\r\npragma solidity >=0.7.0 <0.9.0;\r\n\r\nimport \"./Activity.sol\";\r\nimport \"./LendingPoolProvider.sol\";\r\n\r\nimport \"./libraries/Errors.sol\";\r\n\r\nimport \"./math/SimpleInterest.sol\";\r\n\r\nimport \"./interfaces/IPriceFeed.sol\";\r\nimport \"./interfaces/IFeeManager.sol\";\r\nimport \"./interfaces/IOfferManager.sol\";\r\nimport \"./interfaces/ILoanManager.sol\";\r\nimport \"./interfaces/ILoanToValueRatio.sol\";\r\n\r\nimport \"@openzeppelin/contracts/utils/Context.sol\";\r\nimport \"@openzeppelin/contracts/token/ERC20/ERC20.sol\";\r\nimport \"@openzeppelin/contracts/token/ERC20/utils/SafeERC20.sol\";\r\nimport \"@openzeppelin/contracts/security/ReentrancyGuard.sol\";\r\nimport \"@openzeppelin/contracts/access/Ownable2Step.sol\";\r\nimport \"@openzeppelin/contracts/security/Pausable.sol\";\r\nimport \"@openzeppelin/contracts/utils/math/SafeMath.sol\";\r\n\r\n/**\r\n * @title LendingPool contract\r\n * @dev Main point of interaction with the DARSH protocol's market\r\n * - Users can:\r\n *   # Create Lending/Borrowing offers\r\n *   # Request for new terms on offers\r\n *   # Repay (Fully/Installment)\r\n *   # Claim principal and earnings\r\n *   # Claim back collateral\r\n *   # Cancel/Reject/Accept requests\r\n * - All admin functions are callable by the deployer address\r\n * @author Arogundade Ibrahim\r\n **/\r\ncontract LendingPool is\r\n    LendingPoolProvider,\r\n    Context,\r\n    ReentrancyGuard,\r\n    SimpleInterest,\r\n    Ownable2Step,\r\n    Pausable\r\n{\r\n    using SafeMath for uint256;\r\n    using SafeERC20 for ERC20;\r\n\r\n    /// @dev contract version\r\n    uint256 public constant LENDINGPOOL_VERSION = 0x2;\r\n\r\n    Activity private _activity;\r\n    IPriceFeed private _priceFeed;\r\n    ILoanToValueRatio private _ltvRatio;\r\n\r\n    ILoanManager private _loanManager;\r\n    IOfferManager private _offerManager;\r\n    IFeeManager private _feeManager;\r\n\r\n    /// @dev for convienency this address is used to represent FTM just like ERC20\r\n    address public constant nativeAddress =\r\n        0xEeeeeEeeeEeEeeEeEeEeeEEEeeeeEeeeeeeeEEeE;\r\n\r\n    constructor() ReentrancyGuard() Ownable2Step() {}\r\n\r\n    // ============= Create Lending / Borrowing Offer ============ //\r\n\r\n    /// @notice This function creates a new lending offer\r\n    /// @dev the principalAmount_ parameter is use for ERC20 tokens only\r\n    function createLendingOffer(\r\n        uint256 principalAmount_,\r\n        address principalToken,\r\n        address[] memory collateralTokens,\r\n        uint16 daysToMaturity,\r\n        uint256 interestRate,\r\n        uint16 daysToExpire\r\n    ) public payable whenNotPaused {\r\n        uint256 principalAmount;\r\n\r\n        /* extract tokens from lender */\r\n        if (principalToken == nativeAddress) {\r\n            principalAmount = msg.value;\r\n        } else {\r\n            principalAmount = principalAmount_;\r\n            ERC20(principalToken).safeTransferFrom(\r\n                _msgSender(),\r\n                address(this),\r\n                principalAmount\r\n            );\r\n        }\r\n\r\n        /* create the lending offer */\r\n        uint256 offerId = _offerManager.createLendingOffer(\r\n            principalToken,\r\n            principalAmount,\r\n            interestRate,\r\n            daysToMaturity,\r\n            daysToExpire,\r\n            collateralTokens,\r\n            _msgSender()\r\n        );\r\n\r\n        transfer(\r\n            offerId,\r\n            _msgSender(),\r\n            principalAmount,\r\n            principalToken,\r\n            Type.ADDED\r\n        );\r\n    }\r\n\r\n    /// @notice This function creates a new borrowing offer\r\n    function createBorrowingOffer(\r\n        address principalToken,\r\n        uint256 principalAmount,\r\n        address collateralToken,\r\n        uint256 interestRate,\r\n        uint16 daysToMaturity,\r\n        uint16 hoursToExpire\r\n    ) public payable whenNotPaused {\r\n        uint256 principalAmountInUSD = _priceFeed.amountInUSD(\r\n            principalToken,\r\n            principalAmount\r\n        );\r\n\r\n        uint160 ltvRatio = _ltvRatio.getRelativeLTV(\r\n            _msgSender(),\r\n            principalAmountInUSD\r\n        );\r\n\r\n        uint256 collateralNormalAmount = _priceFeed.exchangeRate(\r\n            principalToken,\r\n            collateralToken,\r\n            principalAmount\r\n        );\r\n\r\n        uint256 collateralAmount = percentageOf(\r\n            collateralNormalAmount,\r\n            ltvRatio / _ltvRatio.getBase()\r\n        );\r\n\r\n        if (collateralToken == nativeAddress) {\r\n            require(msg.value >= collateralAmount);\r\n        } else {\r\n            ERC20(collateralToken).safeTransferFrom(\r\n                _msgSender(),\r\n                address(this),\r\n                collateralAmount\r\n            );\r\n        }\r\n\r\n        _offerManager.createBorrowingOffer(\r\n            principalToken,\r\n            collateralToken,\r\n            collateralAmount,\r\n            principalAmount,\r\n            interestRate,\r\n            daysToMaturity,\r\n            hoursToExpire,\r\n            _msgSender()\r\n        );\r\n\r\n        uint256 amountInUSD = _priceFeed.amountInUSD(\r\n            collateralToken,\r\n            collateralAmount\r\n        );\r\n\r\n        _activity.dropCollateral(_msgSender(), amountInUSD);\r\n    }\r\n\r\n    // ============ Create Lending / Borrowing Request ============= //\r\n\r\n    /// @notice This function creates a new lending request on a borrowing offer\r\n    function createLendingRequest(\r\n        uint256 offerId,\r\n        uint16 percentage,\r\n        uint16 daysToMaturity,\r\n        uint256 interestRate,\r\n        uint16 hoursToExpire\r\n    ) public payable whenNotPaused {\r\n        checkPercentage(percentage);\r\n\r\n        OfferLibrary.Offer memory offer = _offerManager.getOffer(offerId);\r\n\r\n        uint256 principalAmount = percentageOf(\r\n            offer.initialPrincipal,\r\n            percentage\r\n        );\r\n\r\n        if (offer.principalToken == nativeAddress) {\r\n            require(msg.value >= principalAmount);\r\n        } else {\r\n            ERC20(offer.principalToken).safeTransferFrom(\r\n                _msgSender(),\r\n                address(this),\r\n                principalAmount\r\n            );\r\n        }\r\n\r\n        /* create the lending request */\r\n        _offerManager.createLendingRequest(\r\n            percentage,\r\n            interestRate,\r\n            daysToMaturity,\r\n            hoursToExpire,\r\n            _msgSender(),\r\n            offerId\r\n        );\r\n    }\r\n\r\n    /// @notice This function creates a new borrowing request on a lending offer\r\n    function createBorrowingRequest(\r\n        uint256 offerId,\r\n        uint16 percentage,\r\n        address collateralToken,\r\n        uint256 interestRate,\r\n        uint16 daysToMaturity,\r\n        uint16 hoursToExpire\r\n    ) public payable whenNotPaused {\r\n        checkPercentage(percentage);\r\n\r\n        OfferLibrary.Offer memory offer = _offerManager.getOffer(offerId);\r\n\r\n        require(\r\n            _offerManager.isCollateralSupported(offerId, collateralToken),\r\n            \"ERR_COLLATERAL_NOT_SUPPORTED\"\r\n        );\r\n\r\n        uint256 principalAmount = percentageOf(\r\n            offer.initialPrincipal,\r\n            percentage\r\n        );\r\n\r\n        uint256 principalPriceInUSD = _priceFeed.amountInUSD(\r\n            offer.principalToken,\r\n            principalAmount\r\n        );\r\n\r\n        uint160 ltvRatio = _ltvRatio.getRelativeLTV(\r\n            _msgSender(),\r\n            principalPriceInUSD\r\n        );\r\n\r\n        uint256 collateralNormalAmount = _priceFeed.exchangeRate(\r\n            offer.principalToken,\r\n            collateralToken,\r\n            principalAmount\r\n        );\r\n\r\n        uint256 collateralAmount = percentageOf(\r\n            collateralNormalAmount,\r\n            ltvRatio / _ltvRatio.getBase()\r\n        );\r\n\r\n        if (collateralToken == nativeAddress) {\r\n            require(collateralAmount >= msg.value);\r\n        } else {\r\n            ERC20(collateralToken).safeTransferFrom(\r\n                _msgSender(),\r\n                address(this),\r\n                collateralAmount\r\n            );\r\n        }\r\n\r\n        uint256 collateralPriceInUSD = _priceFeed.amountInUSD(\r\n            collateralToken,\r\n            collateralAmount\r\n        );\r\n\r\n        _offerManager.createBorrowingRequest(\r\n            percentage,\r\n            collateralToken,\r\n            collateralAmount,\r\n            collateralPriceInUSD,\r\n            ltvRatio,\r\n            interestRate,\r\n            daysToMaturity,\r\n            hoursToExpire,\r\n            _msgSender(),\r\n            offerId\r\n        );\r\n\r\n        _activity.dropCollateral(_msgSender(), collateralPriceInUSD);\r\n    }\r\n\r\n    // ============ Accept Lending / Borrowing Offer =============== //\r\n\r\n    /// @notice This function accepts a borrowing offer | LEND\r\n    /// @dev The percentage params specifies the portion of the offer to accept\r\n    function acceptBorrowingOffer(uint256 offerId, uint16 percentage)\r\n        public\r\n        payable\r\n        whenNotPaused\r\n    {\r\n        checkPercentage(percentage);\r\n\r\n        OfferLibrary.Offer memory offer = _offerManager.getOffer(offerId);\r\n\r\n        uint256 collateralAmount = percentageOf(\r\n            offer.initialCollateral,\r\n            percentage\r\n        );\r\n\r\n        uint256 principalAmount = percentageOf(\r\n            offer.initialPrincipal,\r\n            percentage\r\n        );\r\n\r\n        if (offer.principalToken == nativeAddress) {\r\n            require(msg.value >= principalAmount);\r\n        } else {\r\n            ERC20(offer.principalToken).safeTransferFrom(\r\n                _msgSender(),\r\n                address(this),\r\n                principalAmount\r\n            );\r\n        }\r\n\r\n        transfer(\r\n            offerId,\r\n            _msgSender(),\r\n            principalAmount,\r\n            offer.principalToken,\r\n            Type.ADDED\r\n        );\r\n\r\n        transfer(\r\n            offerId,\r\n            offer.creator,\r\n            collateralAmount,\r\n            offer.collateralToken,\r\n            Type.LOCKED\r\n        );\r\n\r\n        uint256 collateralPriceInUSD = _priceFeed.amountInUSD(\r\n            offer.collateralToken,\r\n            collateralAmount\r\n        );\r\n\r\n        _loanManager.createLoan(\r\n            offer.offerId,\r\n            offer.offerType,\r\n            offer.principalToken,\r\n            offer.collateralToken,\r\n            principalAmount,\r\n            collateralAmount,\r\n            collateralPriceInUSD,\r\n            offer.interestRate,\r\n            offer.daysToMaturity,\r\n            principalAmount,\r\n            offer.creator,\r\n            _msgSender()\r\n        );\r\n\r\n        _offerManager.afterOfferBorrowingLoan(\r\n            offerId,\r\n            principalAmount,\r\n            collateralAmount\r\n        );\r\n\r\n        uint256 borrowedAmountInUSD = _priceFeed.amountInUSD(\r\n            offer.principalToken,\r\n            principalAmount\r\n        );\r\n\r\n        _activity.borrowLoan(_msgSender(), offer.creator, borrowedAmountInUSD);\r\n    }\r\n\r\n    /// @notice This function accepts a lending offer | BORROW\r\n    /// @dev The percentage params specifies the portion of the offer to accept\r\n    function acceptLendingOffer(\r\n        uint256 offerId,\r\n        uint16 percentage,\r\n        address collateralToken\r\n    ) public payable whenNotPaused {\r\n        checkPercentage(percentage);\r\n\r\n        OfferLibrary.Offer memory offer = _offerManager.getOffer(offerId);\r\n\r\n        require(\r\n            _offerManager.isCollateralSupported(offerId, collateralToken),\r\n            \"ERR_COLLATERAL_NOT_SUPPORTED\"\r\n        );\r\n\r\n        uint256 principalAmount = percentageOf(\r\n            offer.initialPrincipal,\r\n            percentage\r\n        );\r\n\r\n        uint256 principalPriceInUSD = _priceFeed.amountInUSD(\r\n            offer.principalToken,\r\n            principalAmount\r\n        );\r\n\r\n        uint160 ltvRatio = _ltvRatio.getRelativeLTV(\r\n            _msgSender(),\r\n            principalPriceInUSD\r\n        );\r\n\r\n        /* calculate the collateral amount */\r\n        uint256 collateralNormalAmount = _priceFeed.exchangeRate(\r\n            offer.principalToken,\r\n            collateralToken,\r\n            principalAmount\r\n        );\r\n\r\n        uint256 collateralAmount = percentageOf(\r\n            collateralNormalAmount,\r\n            ltvRatio / _ltvRatio.getBase()\r\n        );\r\n\r\n        if (collateralToken == nativeAddress) {\r\n            require(collateralAmount >= msg.value, \"ERR_COLLATERAL_AMOUNT\");\r\n        } else {\r\n            ERC20(collateralToken).safeTransferFrom(\r\n                _msgSender(),\r\n                address(this),\r\n                collateralAmount\r\n            );\r\n        }\r\n\r\n        transfer(\r\n            offerId,\r\n            _msgSender(),\r\n            collateralAmount,\r\n            collateralToken,\r\n            Type.LOCKED\r\n        );\r\n\r\n        if (offer.principalToken == nativeAddress) {\r\n            payable(_msgSender()).transfer(principalAmount);\r\n        } else {\r\n            ERC20(offer.principalToken).safeTransfer(\r\n                _msgSender(),\r\n                principalAmount\r\n            );\r\n        }\r\n\r\n        transfer(\r\n            offerId,\r\n            _msgSender(),\r\n            principalAmount,\r\n            offer.principalToken,\r\n            Type.CLAIMED\r\n        );\r\n\r\n        uint256 collateralPriceInUSD = _priceFeed.amountInUSD(\r\n            collateralToken,\r\n            collateralAmount\r\n        );\r\n\r\n        _loanManager.createLoan(\r\n            offerId,\r\n            offer.offerType,\r\n            offer.principalToken,\r\n            collateralToken,\r\n            principalAmount,\r\n            collateralAmount,\r\n            collateralPriceInUSD,\r\n            offer.interestRate,\r\n            offer.daysToMaturity,\r\n            0,\r\n            _msgSender(),\r\n            offer.creator\r\n        );\r\n\r\n        _offerManager.afterOfferLendingLoan(offerId, principalAmount);\r\n\r\n        uint256 amountBorrowedInUSD = _priceFeed.amountInUSD(\r\n            offer.principalToken,\r\n            principalAmount\r\n        );\r\n\r\n        _activity.borrowLoan(offer.creator, _msgSender(), amountBorrowedInUSD);\r\n\r\n        _activity.dropCollateral(_msgSender(), collateralPriceInUSD);\r\n    }\r\n\r\n    // ============ Accept Lending / Borrowing Request =============== //\r\n\r\n    /// @notice This funcion accepts a borrowing request placed on a lender's offer\r\n    function acceptBorrowingRequest(uint256 requestId) public whenNotPaused {\r\n        RequestLibrary.Request memory request = _offerManager.getRequest(\r\n            requestId\r\n        );\r\n\r\n        OfferLibrary.Offer memory offer = _offerManager.getOffer(\r\n            request.offerId\r\n        );\r\n\r\n        uint256 principalAmount = percentageOf(\r\n            offer.initialPrincipal,\r\n            request.percentage\r\n        );\r\n\r\n        transfer(\r\n            request.offerId,\r\n            request.creator,\r\n            request.collateralAmount,\r\n            request.collateralToken,\r\n            Type.LOCKED\r\n        );\r\n\r\n        _loanManager.createLoan(\r\n            request.offerId,\r\n            offer.offerType,\r\n            offer.principalToken,\r\n            request.collateralToken,\r\n            principalAmount,\r\n            request.collateralAmount,\r\n            request.collateralPriceInUSD,\r\n            request.interestRate,\r\n            request.daysToMaturity,\r\n            principalAmount,\r\n            request.creator,\r\n            _msgSender()\r\n        );\r\n\r\n        _offerManager.afterOfferBorrowingLoan(\r\n            request.offerId,\r\n            principalAmount,\r\n            request.collateralAmount\r\n        );\r\n\r\n        _offerManager.acceptRequest(requestId, _msgSender());\r\n\r\n        uint256 amountBorrowedInUSD = _priceFeed.amountInUSD(\r\n            offer.principalToken,\r\n            principalAmount\r\n        );\r\n\r\n        _activity.borrowLoan(\r\n            _msgSender(),\r\n            request.creator,\r\n            amountBorrowedInUSD\r\n        );\r\n    }\r\n\r\n    /// @notice This funcion accepts a lending request placed on a borrower's offer\r\n    function acceptLendingRequest(uint256 requestId)\r\n        public\r\n        payable\r\n        whenNotPaused\r\n    {\r\n        RequestLibrary.Request memory request = _offerManager.getRequest(\r\n            requestId\r\n        );\r\n\r\n        OfferLibrary.Offer memory offer = _offerManager.getOffer(\r\n            request.offerId\r\n        );\r\n\r\n        uint256 collateralAmount = percentageOf(\r\n            offer.initialCollateral,\r\n            request.percentage\r\n        );\r\n\r\n        uint256 principalAmount = percentageOf(\r\n            offer.initialPrincipal,\r\n            request.percentage\r\n        );\r\n\r\n        transfer(\r\n            request.offerId,\r\n            _msgSender(),\r\n            collateralAmount,\r\n            offer.collateralToken,\r\n            Type.LOCKED\r\n        );\r\n\r\n        if (offer.principalToken == nativeAddress) {\r\n            payable(_msgSender()).transfer(principalAmount);\r\n        } else {\r\n            ERC20(offer.principalToken).safeTransfer(\r\n                _msgSender(),\r\n                principalAmount\r\n            );\r\n        }\r\n\r\n        transfer(\r\n            request.offerId,\r\n            _msgSender(),\r\n            principalAmount,\r\n            offer.principalToken,\r\n            Type.CLAIMED\r\n        );\r\n\r\n        uint256 collateralPriceInUSD = _priceFeed.amountInUSD(\r\n            offer.collateralToken,\r\n            collateralAmount\r\n        );\r\n\r\n        _loanManager.createLoan(\r\n            request.offerId,\r\n            offer.offerType,\r\n            offer.principalToken,\r\n            offer.collateralToken,\r\n            principalAmount,\r\n            collateralAmount,\r\n            collateralPriceInUSD,\r\n            request.interestRate,\r\n            request.daysToMaturity,\r\n            0,\r\n            _msgSender(),\r\n            request.creator\r\n        );\r\n\r\n        _offerManager.afterOfferLendingLoan(offer.offerId, principalAmount);\r\n\r\n        _offerManager.acceptRequest(requestId, _msgSender());\r\n\r\n        uint256 amountBorrowedInUSD = _priceFeed.amountInUSD(\r\n            offer.principalToken,\r\n            principalAmount\r\n        );\r\n\r\n        _activity.borrowLoan(\r\n            request.creator,\r\n            _msgSender(),\r\n            amountBorrowedInUSD\r\n        );\r\n    }\r\n\r\n    // ============= ReActivating Lending / Borrowing Offer ============= //\r\n\r\n    /// @notice This function will reactivate a offer when they expires\r\n    function reActivateOffer(uint256 offerId, uint16 toExpire)\r\n        public\r\n        whenNotPaused\r\n    {\r\n        _offerManager.reActivateOffer(offerId, toExpire, _msgSender());\r\n    }\r\n\r\n    // =============== Loan Repayment ============= //\r\n\r\n    /// @notice This function is use to repay a loan\r\n    /// @dev The percentage params specifies the portion to be repaid\r\n    function repayLoan(uint256 loanId, uint16 percentage)\r\n        public\r\n        payable\r\n        whenNotPaused\r\n    {\r\n        checkPercentage(percentage);\r\n\r\n        LoanLibrary.Loan memory loan = _loanManager.getLoan(loanId);\r\n\r\n        require(loan.borrower == _msgSender(), \"ERR_NOT_BORROWER\");\r\n\r\n        uint256 time = block.timestamp;\r\n        uint256 ellapsedSecs = (time - loan.startDate);\r\n\r\n        uint256 principalAmount = percentageOf(\r\n            loan.initialPrincipal,\r\n            percentage\r\n        );\r\n\r\n        uint256 collateralAmount = percentageOf(\r\n            loan.initialCollateral,\r\n            percentage\r\n        );\r\n\r\n        uint256 repaymentPrincipal = getFullInterestAmount(\r\n            principalAmount,\r\n            ellapsedSecs,\r\n            loan.interestRate\r\n        );\r\n\r\n        uint256 interestPaid = (repaymentPrincipal - principalAmount);\r\n        uint256 fee = percentageOf(interestPaid, _feeManager.feePercentage());\r\n\r\n        uint256 unClaimedInterest = (interestPaid - fee);\r\n\r\n        _feeManager.credit(loan.principalToken, fee);\r\n\r\n        bool completed = _loanManager.repayLoan(\r\n            loanId,\r\n            unClaimedInterest,\r\n            principalAmount,\r\n            collateralAmount\r\n        );\r\n\r\n        if (loan.principalToken == nativeAddress) {\r\n            require(msg.value >= repaymentPrincipal);\r\n        } else {\r\n            ERC20(loan.principalToken).safeTransferFrom(\r\n                _msgSender(),\r\n                address(this),\r\n                repaymentPrincipal\r\n            );\r\n        }\r\n\r\n        transfer(\r\n            loan.offerId,\r\n            _msgSender(),\r\n            principalAmount.add(unClaimedInterest),\r\n            loan.principalToken,\r\n            Type.ADDED\r\n        );\r\n\r\n        uint256 interestPaidInUSD = _priceFeed.amountInUSD(\r\n            loan.principalToken,\r\n            (repaymentPrincipal - principalAmount)\r\n        );\r\n\r\n        _activity.repayLoan(\r\n            loan.lender,\r\n            _msgSender(),\r\n            interestPaidInUSD,\r\n            completed\r\n        );\r\n    }\r\n\r\n    /// @notice This function is use to repay a liquidated loan\r\n    /// @dev Liquidated loans cannot be repaid by percentage\r\n    function repayLiquidatedLoan(uint256 loanId) public payable whenNotPaused {}\r\n\r\n    // =========== Cancel / Reject Request Functions =========== //\r\n\r\n    /// @notice This function will reject a request\r\n    /// @dev Request can only be rejected by the offer creator\r\n    function rejectRequest(uint256 requestId) public whenNotPaused {\r\n        _offerManager.rejectRequest(requestId, _msgSender());\r\n    }\r\n\r\n    /// @notice This function will cancel a request\r\n    /// @dev Request can only be calncelled by the request creator\r\n    function cancelRequest(uint256 requestId) public whenNotPaused {\r\n        RequestLibrary.Request memory request = _offerManager.getRequest(\r\n            requestId\r\n        );\r\n\r\n        OfferLibrary.Offer memory offer = _offerManager.getOffer(\r\n            request.offerId\r\n        );\r\n\r\n        if (request.requestType == RequestLibrary.Type.LENDING_REQUEST) {\r\n            uint256 principalAmount = percentageOf(\r\n                offer.initialPrincipal,\r\n                request.percentage\r\n            );\r\n\r\n            if (offer.principalToken == nativeAddress) {\r\n                payable(_msgSender()).transfer(principalAmount);\r\n            } else {\r\n                ERC20(offer.principalToken).safeTransfer(\r\n                    _msgSender(),\r\n                    principalAmount\r\n                );\r\n            }\r\n        } else {\r\n            if (offer.collateralToken == nativeAddress) {\r\n                payable(_msgSender()).transfer(request.collateralAmount);\r\n            } else {\r\n                ERC20(offer.collateralToken).safeTransfer(\r\n                    _msgSender(),\r\n                    request.collateralAmount\r\n                );\r\n            }\r\n        }\r\n\r\n        _offerManager.cancelRequest(requestId, _msgSender());\r\n    }\r\n\r\n    // =========== Claim Functions =========== //\r\n\r\n    /// @notice This function is use to claim back unlocked collateral from a loan\r\n    /// @dev Can only be called by the borrower\r\n    function claimCollateral(uint256 loanId) public nonReentrant whenNotPaused {\r\n        (uint256 amount, uint256 offerId, address token) = _loanManager\r\n            .claimCollateral(loanId, _msgSender());\r\n\r\n        if (token == nativeAddress) {\r\n            payable(_msgSender()).transfer(amount);\r\n        } else {\r\n            ERC20(token).safeTransfer(_msgSender(), amount);\r\n        }\r\n\r\n        transfer(offerId, _msgSender(), amount, token, Type.CLAIMED);\r\n    }\r\n\r\n    /// @notice This function is use to claim borrowed loan principal\r\n    /// @dev Can only be called by the borrower\r\n    function claimBorrowedPrincipal(uint256 loanId)\r\n        public\r\n        nonReentrant\r\n        whenNotPaused\r\n    {\r\n        (uint256 amount, uint256 offerId, address token) = _loanManager\r\n            .claimBorrowedPrincipal(loanId, _msgSender());\r\n\r\n        if (token == nativeAddress) {\r\n            payable(_msgSender()).transfer(amount);\r\n        } else {\r\n            ERC20(token).safeTransfer(_msgSender(), amount);\r\n        }\r\n\r\n        transfer(offerId, _msgSender(), amount, token, Type.CLAIMED);\r\n    }\r\n\r\n    /// @notice This function is use to claim back repaid principal + interests from a loan\r\n    /// @dev Can only be called by the lender\r\n    function claimPrincipal(uint256 loanId) public nonReentrant whenNotPaused {\r\n        (uint256 amount, uint256 offerId, address token) = _loanManager\r\n            .claimPrincipal(loanId, _msgSender());\r\n\r\n        if (token == nativeAddress) {\r\n            payable(_msgSender()).transfer(amount);\r\n        } else {\r\n            ERC20(token).safeTransfer(_msgSender(), amount);\r\n        }\r\n\r\n        transfer(offerId, _msgSender(), amount, token, Type.CLAIMED);\r\n    }\r\n\r\n    /// @notice This function is use to claim defaulted loan collateral\r\n    /// @dev Can only be called by the lender\r\n    function claimDefaultCollateral(uint256 loanId)\r\n        public\r\n        nonReentrant\r\n        whenNotPaused\r\n    {\r\n        (uint256 amount, uint256 offerId, address token) = _loanManager\r\n            .claimDefaultCollateral(loanId, _msgSender());\r\n\r\n        if (token == nativeAddress) {\r\n            payable(_msgSender()).transfer(amount);\r\n        } else {\r\n            ERC20(token).safeTransfer(_msgSender(), amount);\r\n        }\r\n\r\n        transfer(offerId, _msgSender(), amount, token, Type.CLAIMED);\r\n    }\r\n\r\n    // =========== Loan Liquidation ============= //\r\n\r\n    /// @dev this function will liquidate a loan when it has pass\r\n    /// maturity date + grace days.\r\n    /// It can be call by anyone\r\n    function liquidateLoan(uint256 loanId) public nonReentrant {\r\n        LoanLibrary.Loan memory loan = _loanManager.getLoan(loanId);\r\n\r\n        // calculate the duration of the loan\r\n        uint256 time = block.timestamp;\r\n        uint256 ellapsedSecs = (time - loan.startDate);\r\n\r\n        uint256 repaymentPrincipal = getFullInterestAmount(\r\n            loan.currentPrincipal,\r\n            ellapsedSecs,\r\n            loan.interestRate\r\n        );\r\n\r\n        uint256 repaymentCollateral = _priceFeed.exchangeRate(\r\n            loan.principalToken,\r\n            loan.collateralToken,\r\n            repaymentPrincipal\r\n        );\r\n\r\n        uint256 interestInCollateral = _priceFeed.exchangeRate(\r\n            loan.principalToken,\r\n            loan.collateralToken,\r\n            (repaymentPrincipal - loan.currentPrincipal)\r\n        );\r\n\r\n        uint256 principalPaid;\r\n        uint256 collateralRetrieved;\r\n        uint256 collateralFee;\r\n\r\n        uint256 fee = percentageOf(\r\n            interestInCollateral,\r\n            _feeManager.feePercentage()\r\n        );\r\n\r\n        if (loan.currentCollateral >= (repaymentCollateral - fee)) {\r\n            collateralRetrieved = (repaymentCollateral - fee);\r\n            principalPaid = loan.currentPrincipal;\r\n\r\n            if (loan.currentCollateral >= repaymentCollateral) {\r\n                collateralFee = fee;\r\n            } else {\r\n                collateralRetrieved = loan.currentCollateral;\r\n                collateralFee = (loan.currentCollateral -\r\n                    (repaymentCollateral - fee));\r\n            }\r\n        } else {\r\n            collateralRetrieved = loan.currentCollateral;\r\n\r\n            uint256 collateralInPrincipal = _priceFeed.exchangeRate(\r\n                loan.collateralToken,\r\n                loan.principalToken,\r\n                collateralRetrieved\r\n            );\r\n\r\n            principalPaid = collateralInPrincipal;\r\n            collateralFee = 0;\r\n        }\r\n\r\n        _feeManager.credit(loan.collateralToken, collateralFee);\r\n\r\n        _loanManager.liquidateLoan(\r\n            loanId,\r\n            principalPaid,\r\n            collateralRetrieved,\r\n            (collateralRetrieved - collateralFee)\r\n        );\r\n    }\r\n\r\n    // ============= ABOUT ============ //\r\n\r\n    function getVersion() public pure returns (uint256) {\r\n        return LENDINGPOOL_VERSION;\r\n    }\r\n\r\n    // ============= ADMIN FUNCTIONS =============== //\r\n\r\n    function setFeeds(\r\n        address ltv_,\r\n        address activity_,\r\n        address priceFeed_\r\n    ) public onlyOwner nonReentrant {\r\n        _ltvRatio = ILoanToValueRatio(ltv_);\r\n        _activity = Activity(activity_);\r\n        _priceFeed = IPriceFeed(priceFeed_);\r\n    }\r\n\r\n    function setManagers(\r\n        address loanManager_,\r\n        address offerManager_,\r\n        address feeManager_\r\n    ) public onlyOwner nonReentrant {\r\n        _loanManager = ILoanManager(loanManager_);\r\n        _offerManager = IOfferManager(offerManager_);\r\n        _feeManager = IFeeManager(feeManager_);\r\n    }\r\n\r\n    /// @dev to claim developer revenue\r\n    function claim(\r\n        address token,\r\n        address payable receiver,\r\n        uint256 amount\r\n    ) public onlyOwner nonReentrant {\r\n        require(amount > 0, \"ERR_ZERO_AMOUNT\");\r\n        _feeManager.debit(token, amount);\r\n        if (token == nativeAddress) {\r\n            receiver.transfer(amount);\r\n        } else {\r\n            ERC20(token).safeTransfer(receiver, amount);\r\n        }\r\n    }\r\n}\r\n",
  "sourcePath": "C:\\Users\\DELL\\Documents\\darsh\\smart-contracts\\contracts\\LendingPool.sol",
  "compiler": {
    "name": "solc",
    "version": "0.8.17+commit.8df45f5f.Emscripten.clang"
  },
  "schemaVersion": "3.4.11",
  "updatedAt": "2023-02-25T11:39:29.120Z",
  "devdoc": {
    "author": "Arogundade Ibrahim*",
    "details": "Main point of interaction with the DARSH protocol's market - Users can:   # Create Lending/Borrowing offers   # Request for new terms on offers   # Repay (Fully/Installment)   # Claim principal and earnings   # Claim back collateral   # Cancel/Reject/Accept requests - All admin functions are callable by the deployer address",
    "kind": "dev",
    "methods": {
      "acceptBorrowingOffer(uint256,uint16)": {
        "details": "The percentage params specifies the portion of the offer to accept"
      },
      "acceptLendingOffer(uint256,uint16,address)": {
        "details": "The percentage params specifies the portion of the offer to accept"
      },
      "acceptOwnership()": {
        "details": "The new owner accepts the ownership transfer."
      },
      "cancelRequest(uint256)": {
        "details": "Request can only be calncelled by the request creator"
      },
      "claim(address,address,uint256)": {
        "details": "to claim developer revenue"
      },
      "claimBorrowedPrincipal(uint256)": {
        "details": "Can only be called by the borrower"
      },
      "claimCollateral(uint256)": {
        "details": "Can only be called by the borrower"
      },
      "claimDefaultCollateral(uint256)": {
        "details": "Can only be called by the lender"
      },
      "claimPrincipal(uint256)": {
        "details": "Can only be called by the lender"
      },
      "createLendingOffer(uint256,address,address[],uint16,uint256,uint16)": {
        "details": "the principalAmount_ parameter is use for ERC20 tokens only"
      },
      "liquidateLoan(uint256)": {
        "details": "this function will liquidate a loan when it has pass maturity date + grace days. It can be call by anyone"
      },
      "owner()": {
        "details": "Returns the address of the current owner."
      },
      "paused()": {
        "details": "Returns true if the contract is paused, and false otherwise."
      },
      "pendingOwner()": {
        "details": "Returns the address of the pending owner."
      },
      "rejectRequest(uint256)": {
        "details": "Request can only be rejected by the offer creator"
      },
      "renounceOwnership()": {
        "details": "Leaves the contract without owner. It will not be possible to call `onlyOwner` functions anymore. Can only be called by the current owner. NOTE: Renouncing ownership will leave the contract without an owner, thereby removing any functionality that is only available to the owner."
      },
      "repayLiquidatedLoan(uint256)": {
        "details": "Liquidated loans cannot be repaid by percentage"
      },
      "repayLoan(uint256,uint16)": {
        "details": "The percentage params specifies the portion to be repaid"
      },
      "transferOwnership(address)": {
        "details": "Starts the ownership transfer of the contract to a new account. Replaces the pending transfer if there is one. Can only be called by the current owner."
      }
    },
    "stateVariables": {
      "LENDINGPOOL_VERSION": {
        "details": "contract version"
      },
      "nativeAddress": {
        "details": "for convienency this address is used to represent FTM just like ERC20"
      }
    },
    "title": "LendingPool contract",
    "version": 1
  },
  "userdoc": {
    "kind": "user",
    "methods": {
      "acceptBorrowingOffer(uint256,uint16)": {
        "notice": "This function accepts a borrowing offer | LEND"
      },
      "acceptBorrowingRequest(uint256)": {
        "notice": "This funcion accepts a borrowing request placed on a lender's offer"
      },
      "acceptLendingOffer(uint256,uint16,address)": {
        "notice": "This function accepts a lending offer | BORROW"
      },
      "acceptLendingRequest(uint256)": {
        "notice": "This funcion accepts a lending request placed on a borrower's offer"
      },
      "cancelRequest(uint256)": {
        "notice": "This function will cancel a request"
      },
      "claimBorrowedPrincipal(uint256)": {
        "notice": "This function is use to claim borrowed loan principal"
      },
      "claimCollateral(uint256)": {
        "notice": "This function is use to claim back unlocked collateral from a loan"
      },
      "claimDefaultCollateral(uint256)": {
        "notice": "This function is use to claim defaulted loan collateral"
      },
      "claimPrincipal(uint256)": {
        "notice": "This function is use to claim back repaid principal + interests from a loan"
      },
      "createBorrowingOffer(address,uint256,address,uint256,uint16,uint16)": {
        "notice": "This function creates a new borrowing offer"
      },
      "createBorrowingRequest(uint256,uint16,address,uint256,uint16,uint16)": {
        "notice": "This function creates a new borrowing request on a lending offer"
      },
      "createLendingOffer(uint256,address,address[],uint16,uint256,uint16)": {
        "notice": "This function creates a new lending offer"
      },
      "createLendingRequest(uint256,uint16,uint16,uint256,uint16)": {
        "notice": "This function creates a new lending request on a borrowing offer"
      },
      "reActivateOffer(uint256,uint16)": {
        "notice": "This function will reactivate a offer when they expires"
      },
      "rejectRequest(uint256)": {
        "notice": "This function will reject a request"
      },
      "repayLiquidatedLoan(uint256)": {
        "notice": "This function is use to repay a liquidated loan"
      },
      "repayLoan(uint256,uint16)": {
        "notice": "This function is use to repay a loan"
      }
    },
    "version": 1
  }
}