{
  "contractName": "LendingPool",
  "abi": [
    {
      "inputs": [
        {
          "internalType": "address",
          "name": "poolManager_",
          "type": "address"
        },
        {
          "internalType": "address",
          "name": "loanManager_",
          "type": "address"
        },
        {
          "internalType": "address",
          "name": "offerManager_",
          "type": "address"
        },
        {
          "internalType": "address",
          "name": "feeManager_",
          "type": "address"
        }
      ],
      "stateMutability": "nonpayable",
      "type": "constructor"
    },
    {
      "inputs": [],
      "name": "INTEREST_RATE_DENOMINATOR",
      "outputs": [
        {
          "internalType": "uint256",
          "name": "",
          "type": "uint256"
        }
      ],
      "stateMutability": "view",
      "type": "function"
    },
    {
      "inputs": [],
      "name": "PERCENT",
      "outputs": [
        {
          "internalType": "uint16",
          "name": "",
          "type": "uint16"
        }
      ],
      "stateMutability": "view",
      "type": "function"
    },
    {
      "inputs": [
        {
          "internalType": "uint256",
          "name": "principal",
          "type": "uint256"
        },
        {
          "internalType": "uint256",
          "name": "durationSecs",
          "type": "uint256"
        },
        {
          "internalType": "uint256",
          "name": "interest",
          "type": "uint256"
        }
      ],
      "name": "getFullInterestAmount",
      "outputs": [
        {
          "internalType": "uint256",
          "name": "",
          "type": "uint256"
        }
      ],
      "stateMutability": "pure",
      "type": "function"
    },
    {
      "inputs": [],
      "name": "nativeAddress",
      "outputs": [
        {
          "internalType": "address",
          "name": "",
          "type": "address"
        }
      ],
      "stateMutability": "view",
      "type": "function"
    },
    {
      "inputs": [
        {
          "internalType": "uint256",
          "name": "total",
          "type": "uint256"
        },
        {
          "internalType": "uint160",
          "name": "percent",
          "type": "uint160"
        }
      ],
      "name": "percentageInverseOf",
      "outputs": [
        {
          "internalType": "uint256",
          "name": "",
          "type": "uint256"
        }
      ],
      "stateMutability": "pure",
      "type": "function"
    },
    {
      "inputs": [
        {
          "internalType": "uint256",
          "name": "total",
          "type": "uint256"
        },
        {
          "internalType": "uint160",
          "name": "percent",
          "type": "uint160"
        }
      ],
      "name": "percentageOf",
      "outputs": [
        {
          "internalType": "uint256",
          "name": "",
          "type": "uint256"
        }
      ],
      "stateMutability": "pure",
      "type": "function"
    },
    {
      "inputs": [
        {
          "internalType": "uint256",
          "name": "principalAmount_",
          "type": "uint256"
        },
        {
          "internalType": "address",
          "name": "principalToken",
          "type": "address"
        },
        {
          "internalType": "address[]",
          "name": "collateralTokens",
          "type": "address[]"
        },
        {
          "internalType": "uint16",
          "name": "daysToMaturity",
          "type": "uint16"
        },
        {
          "internalType": "uint256",
          "name": "interest",
          "type": "uint256"
        },
        {
          "internalType": "uint16",
          "name": "daysToExpire",
          "type": "uint16"
        }
      ],
      "name": "createLendingOffer",
      "outputs": [],
      "stateMutability": "payable",
      "type": "function"
    },
    {
      "inputs": [
        {
          "internalType": "uint160",
          "name": "offerId",
          "type": "uint160"
        },
        {
          "internalType": "uint16",
          "name": "percentage",
          "type": "uint16"
        },
        {
          "internalType": "uint16",
          "name": "daysToMaturity",
          "type": "uint16"
        },
        {
          "internalType": "uint256",
          "name": "interest",
          "type": "uint256"
        },
        {
          "internalType": "uint16",
          "name": "daysToExpire",
          "type": "uint16"
        }
      ],
      "name": "createLendingRequest",
      "outputs": [],
      "stateMutability": "payable",
      "type": "function"
    },
    {
      "inputs": [
        {
          "internalType": "uint160",
          "name": "offerId",
          "type": "uint160"
        },
        {
          "internalType": "uint16",
          "name": "percentage",
          "type": "uint16"
        }
      ],
      "name": "acceptBorrowingOffer",
      "outputs": [],
      "stateMutability": "payable",
      "type": "function"
    },
    {
      "inputs": [
        {
          "internalType": "uint256",
          "name": "requestId",
          "type": "uint256"
        }
      ],
      "name": "acceptBorrowingRequest",
      "outputs": [],
      "stateMutability": "nonpayable",
      "type": "function"
    },
    {
      "inputs": [
        {
          "internalType": "address",
          "name": "principalToken",
          "type": "address"
        },
        {
          "internalType": "address",
          "name": "collateralToken",
          "type": "address"
        },
        {
          "internalType": "uint256",
          "name": "collateralAmount_",
          "type": "uint256"
        },
        {
          "internalType": "uint256",
          "name": "interest",
          "type": "uint256"
        },
        {
          "internalType": "uint16",
          "name": "daysToMaturity",
          "type": "uint16"
        },
        {
          "internalType": "uint16",
          "name": "daysToExpire",
          "type": "uint16"
        }
      ],
      "name": "createBorrowingOffer",
      "outputs": [],
      "stateMutability": "payable",
      "type": "function"
    },
    {
      "inputs": [
        {
          "internalType": "uint160",
          "name": "offerId",
          "type": "uint160"
        },
        {
          "internalType": "uint16",
          "name": "percentage",
          "type": "uint16"
        },
        {
          "internalType": "address",
          "name": "collateralToken",
          "type": "address"
        },
        {
          "internalType": "uint256",
          "name": "interest",
          "type": "uint256"
        },
        {
          "internalType": "uint16",
          "name": "daysToMaturity",
          "type": "uint16"
        },
        {
          "internalType": "uint16",
          "name": "daysToExpire",
          "type": "uint16"
        }
      ],
      "name": "createBorrowingRequest",
      "outputs": [],
      "stateMutability": "payable",
      "type": "function"
    },
    {
      "inputs": [
        {
          "internalType": "uint160",
          "name": "offerId",
          "type": "uint160"
        },
        {
          "internalType": "uint16",
          "name": "percentage",
          "type": "uint16"
        },
        {
          "internalType": "address",
          "name": "collateralToken",
          "type": "address"
        }
      ],
      "name": "acceptLendingOffer",
      "outputs": [],
      "stateMutability": "payable",
      "type": "function"
    },
    {
      "inputs": [
        {
          "internalType": "uint256",
          "name": "requestId",
          "type": "uint256"
        }
      ],
      "name": "acceptLendingRequest",
      "outputs": [],
      "stateMutability": "payable",
      "type": "function"
    },
    {
      "inputs": [],
      "name": "reActivateOffer",
      "outputs": [],
      "stateMutability": "payable",
      "type": "function"
    },
    {
      "inputs": [],
      "name": "reActivateRequest",
      "outputs": [],
      "stateMutability": "payable",
      "type": "function"
    },
    {
      "inputs": [
        {
          "internalType": "uint160",
          "name": "loanId",
          "type": "uint160"
        },
        {
          "internalType": "uint16",
          "name": "percentage",
          "type": "uint16"
        }
      ],
      "name": "repayLoan",
      "outputs": [],
      "stateMutability": "payable",
      "type": "function"
    },
    {
      "inputs": [
        {
          "internalType": "uint160",
          "name": "loanId",
          "type": "uint160"
        }
      ],
      "name": "claimCollateral",
      "outputs": [],
      "stateMutability": "nonpayable",
      "type": "function"
    },
    {
      "inputs": [
        {
          "internalType": "uint160",
          "name": "loanId",
          "type": "uint160"
        }
      ],
      "name": "claimPrincipal",
      "outputs": [],
      "stateMutability": "nonpayable",
      "type": "function"
    },
    {
      "inputs": [
        {
          "internalType": "uint256",
          "name": "loanId",
          "type": "uint256"
        }
      ],
      "name": "repayLiquidatedLoan",
      "outputs": [],
      "stateMutability": "payable",
      "type": "function"
    },
    {
      "inputs": [
        {
          "internalType": "address",
          "name": "ltv_",
          "type": "address"
        }
      ],
      "name": "setLTV",
      "outputs": [],
      "stateMutability": "nonpayable",
      "type": "function"
    },
    {
      "inputs": [
        {
          "internalType": "address",
          "name": "activity_",
          "type": "address"
        }
      ],
      "name": "setActivity",
      "outputs": [],
      "stateMutability": "nonpayable",
      "type": "function"
    },
    {
      "inputs": [
        {
          "internalType": "address",
          "name": "priceFeed_",
          "type": "address"
        }
      ],
      "name": "setPriceFeed",
      "outputs": [],
      "stateMutability": "nonpayable",
      "type": "function"
    },
    {
      "inputs": [
        {
          "internalType": "address",
          "name": "newOwner",
          "type": "address"
        }
      ],
      "name": "changeOwner",
      "outputs": [],
      "stateMutability": "nonpayable",
      "type": "function"
    },
    {
      "inputs": [
        {
          "internalType": "address",
          "name": "token",
          "type": "address"
        },
        {
          "internalType": "address payable",
          "name": "receiver",
          "type": "address"
        },
        {
          "internalType": "uint256",
          "name": "amount",
          "type": "uint256"
        }
      ],
      "name": "claim",
      "outputs": [],
      "stateMutability": "nonpayable",
      "type": "function"
    }
  ],
  "bytecode": "0x608034620000d557601f62003e4038819003918201601f19168301916001600160401b03831184841017620000da57808492608094604052833981010312620000d5576200004d81620000f0565b906200005c60208201620000f0565b6200007860606200007060408501620000f0565b9301620000f0565b90600160005560018060a01b03928380928160018060a01b0319971687600554161760055516856006541617600655168360075416176007551681600854161760085533906001541617600155604051613d3a9081620001068239f35b600080fd5b634e487b7160e01b600052604160045260246000fd5b51906001600160a01b0382168203620000d55756fe6080604052600436101561001257600080fd5b6000803560e01c806310e14e191461347b57806315ae61b5146132ce5780632e476337146132a557806331f00e8d14612cfb57806337787d51146101625780634ab2618c1461274b5780634add7c821461222c578063541a4530146120c35780635c7f31aa14611c285780635cb93398146112b357806361ba9443146112a3578063724e78da14611258578063950d0d3f14610df9578063996cba6814610c975780639ca6005f14610792578063a6f9dae114610749578063afaa06911461053b578063b85a8b201461051f578063c1bc89ef14610226578063cc3266e814610203578063e0b26959146101dc578063e0f7dffd146101b7578063e3f43fdb1461016c578063eb1f613d146101625763f4e02f4614610131575b600080fd5b3461015f57604036600319011261015f57602061015761014f6134f2565b600435613cad565b604051908152f35b80fd5b505061012c61353b565b503461015f57602036600319011261015f576101866134c6565b6001546001600160a01b0391906101a09083163314613b86565b166001600160601b0360a01b600254161760025580f35b503461015f57606036600319011261015f576020610157604435602435600435613c5c565b503461015f57604036600319011261015f5760206101576101fb6134f2565b600435613c89565b503461015f578060031936011261015f576020604051670de0b6b3a76400008152f35b5060c036600319011261015f5760043561023e6134f2565b906044359067ffffffffffffffff821161051b573660238301121561051b57816004013561026b81613580565b91610279604051938461355e565b8183526020938484016024819460051b8301019136831161051757602401905b8282106104f8575050506064359261ffff9081851680950361012c576102bd61352a565b918151156104b3576001600160a01b03888116949093908a600080516020613ce5833981519152870361044857905034995b8560055416803b1561044457604051638340f54960e01b81523360048201526001600160a01b03929092166024830152604482018c905282908290606490829084905af1801561043957610421575b5093919288979996938360079793975416966040519b8c9963031137cd60e61b8b5260e48b019560048c015260248b015260843560448b015260648a015216608488015260e060a4880152518091526101048601929184905b8282106104005750505050908380923360c483015203925af180156103f5576103be578280f35b81813d83116103ee575b6103d2818361355e565b810103126103ea576103e3906135b0565b5038808280f35b5080fd5b503d6103c8565b6040513d85823e3d90fd5b83518116855289988b98508c96509485019490930192600190910190610397565b61042a9061354a565b61043557893861033e565b8980fd5b6040513d84823e3d90fd5b8280fd5b6040516323b872dd60e01b815233600482015230602482015260448101839052919a90918a81606481868c5af180156103f557610486575b506102ef565b6104a5908b3d8d116104ac575b61049d818361355e565b810190613598565b5038610480565b503d610493565b60405162461bcd60e51b815260048101889052601760248201527f4552525f4e4f5f434f4c4c41544552414c5f54595045530000000000000000006044820152606490fd5b81356001600160a01b038116810361012c578152908601908601610299565b8880fd5b8380fd5b503461015f578060031936011261015f57602060405160648152f35b5060a036600319011261015f576105506134c6565b610558613508565b906044359061ffff80831680930361012c578492610574613519565b9461057e81613bc3565b60018060a01b03948593818560075416966024604051809a8193631eb5ab6d60e01b835216998a60048301525afa968715610439578297610725575b506105cd81606089015194168094613c89565b9560208098019686885116600080516020613ce583398151915281146000146106be575080341061051b575b86806005541698511690883b156106ba57604051638340f54960e01b81523360048201526001600160a01b0392909216602483015260448201529683908890606490829084905af19586156103f557889661069f575b60c4959697506007541691604051998a97889663ab488b0b60e01b885260048801526064356024880152604487015216606485015233608485015260a48401525af180156103f5576103be578280f35b949550956106ad839161354a565b6103ea578587959461064f565b8480fd5b6040516323b872dd60e01b815233600482015230602482015260448101839052908a908290606490829089905af1801561071a576106fd575b506105f9565b610713908a3d8c116104ac5761049d818361355e565b50386106f7565b6040513d87823e3d90fd5b6107429197503d8084833e61073a818361355e565b8101906135d3565b95386105ba565b503461015f57602036600319011261015f576107636134c6565b600154906001600160a01b039061077d3383851614613b86565b16906001600160601b0360a01b161760015580f35b5060c036600319011261015f57806107a86134c6565b6107b06134f2565b90604435906107bd613519565b906107c661352a565b906001600160a01b038516600080516020613ce583398151915203610c2f57349350610832925b600354604051631c07d98160e21b81526001600160a01b03888116600483015284811660248301526044820188905290956020928792169082908b9082906064820190565b03925af1938415610c24578794610bed575b5060035460405163912d228f60e01b8082526001600160a01b0385811660048401526024830188905290969192602091849160449183918e91165af1918215610b1a578992610bb5575b50600480546040516322a0fe3360e21b815233928101929092526024820193909352916001600160a01b03169060208380604481015b0381855afa928315610baa578a93610b65575b506108e6600493602092613cad565b9160405193848092636882509b60e11b82525afa918215610b1a578992610b25575b5060ff6109169216906138cd565b9060018060a01b036005541690813b1561051757604051638340f54960e01b81523360048201526001600160a01b0389166024820152604481018890529189908390606490829084905af1918215610b1a578992610afe575b5060075460405163486c386960e11b81526001600160a01b0395861660048201528986166024820152604481018990526064808201959095529335608485015261ffff91821660a4850152941660c48301523360e483015290926020928492610104928492165af1801561071a57610aba575b506003546040519182526001600160a01b039384166004830152602482019290925291602091839116818581604481015b03925af1908115610439578291610a85575b506002546001600160a01b0316803b15610a815760405163094f618d60e11b8152336004820152602481019290925282908290818381604481015b03925af1801561043957610a715750f35b610a7a9061354a565b61015f5780f35b5050fd5b9150506020813d602011610ab2575b81610aa16020938361355e565b8101031261012c5781905138610a25565b3d9150610a94565b91906020833d602011610af6575b81610ad56020938361355e565b810103126106ba57610a1393610aec6020946135b0565b50935090916109e2565b3d9150610ac8565b610b0a9092919261354a565b610b165787903861096f565b8780fd5b6040513d8b823e3d90fd5b91506020823d602011610b5d575b81610b406020938361355e565b810103126105175760ff610b56610916936138bf565b9250610908565b3d9150610b33565b92506020833d602011610ba2575b81610b806020938361355e565b81010312610435576108e6602091610b996004956135b0565b945091506108d7565b3d9150610b73565b6040513d8c823e3d90fd5b915097506020813d602011610be5575b81610bd26020938361355e565b8101031261012c575188976108c461088e565b3d9150610bc5565b965092506020863d602011610c1c575b81610c0a6020938361355e565b8101031261012c578695519238610844565b3d9150610bfd565b6040513d89823e3d90fd5b6040516323b872dd60e01b815233600482015230602482015260448101859052926020846064818a6001600160a01b038b165af1938415610c245761083294610c79575b506107ed565b610c909060203d81116104ac5761049d818361355e565b5038610c73565b503461015f57606036600319011261015f57610cb16134c6565b6001600160a01b036024358181169081900361051b5760443591610cda81600154163314613b86565b848160085416803b156103ea576040516331b5f13d60e11b81526001600160a01b0387166004820152602481018690529082908290604490829084905af1801561043957610de5575b50508215610dae57849316600080516020613ce58339815191528103610d5f5750828092819282f115610d535780f35b604051903d90823e3d90fd5b9260209291604491604051958694859363a9059cbb60e01b8552600485015260248401525af1801561043957610d93575080f35b610daa9060203d81116104ac5761049d818361355e565b5080f35b60405162461bcd60e51b815260206004820152600f60248201526e11549497d6915493d7d05353d55395608a1b6044820152606490fd5b610dee9061354a565b6106ba578438610d23565b50604036600319011261015f57610e0e6134c6565b610e16613508565b90610e2082613bc3565b60065460405163058711b560e01b81526001600160a01b039283166004820181905291610240919082908290602490829088165afa9182156110eb57869261122b575b5050610e7783610200830151163314613b3a565b826101408201511683421603928084116112155785948593610ec4610eb4610ea961ffff608088015195168095613c89565b9360c0870151613c89565b9684610120870151911684613c5c565b93610ecf8386613b79565b9184600854166040519063a001ecdd60e01b82528160048160209b8c945af1908115610baa578a916111d9575b50610f0a610f119185613c89565b8094613b79565b90604086600854169301938685511690843b156111d55760405163ef6506db60e01b81526001600160a01b039290921660048301526024820152928a908490604490829084905af18015610baa5788938b916111bc575b509060849187600654166040519b8c9586946346212c2960e01b86526004860152602485015288604485015260648401525af1958615610c2457879661119d575b5080518316600080516020613ce5833981519152810361113d57508334106111395786935b8561101a8560035416610fe5868887511695613b79565b60405163912d228f60e01b8082526001600160a01b039096166004820152602481019190915297889283919082906044820190565b03925af194851561112e5788956110f6575b50600354915160405191825284166001600160a01b0316600482015260248101929092528490829060449082908a9087165af19384156110eb5786946110b8575b505060025416803b156106ba5784928360849260405196879586946311dd211f60e31b865233600487015260248601526044850152151560648401525af1801561043957610a715750f35b819650809294503d83116110e4575b6110d1818361355e565b8101031261012c5784935191388061106d565b503d6110c7565b6040513d88823e3d90fd5b9297509350908481813d8111611127575b611111818361355e565b8101031261012c5751879690939091908561102c565b503d611107565b6040513d8a823e3d90fd5b8680fd5b6040516323b872dd60e01b81523360048201523060248201526044810186905294908690869060649082908c905af194851561112e578895611180575b50610fce565b61119690873d89116104ac5761049d818361355e565b503861117a565b6111b5919650853d87116104ac5761049d818361355e565b9438610fa9565b6111c89192945061354a565b6105175786918938610f68565b8b80fd5b90508781813d831161120e575b6111f0818361355e565b8101031261043557610f0a611207610f11926135b0565b9150610efc565b503d6111e6565b634e487b7160e01b600052601160045260246000fd5b61124a9250803d10611251575b611242818361355e565b810190613a0d565b3880610e63565b503d611238565b503461015f57602036600319011261015f576112726134c6565b6001546001600160a01b03919061128c9083163314613b86565b166001600160601b0360a01b600354161760035580f35b50602036600319011261015f5780f35b50606036600319011261015f576112c86134c6565b906112d1613508565b906112da6134dc565b916112e481613bc3565b600754604051631eb5ab6d60e01b81526001600160a01b038681166004830152909291168383602481845afa928315611baf578493611c0c575b50604051634cf732f160e11b81526001600160a01b0387811660048301528616602482015290602090829060449082905afa908115611baf5761137d929161136d918691611bed575b506138ed565b61ffff6060840151911690613c89565b60035460208381015160405163912d228f60e01b81526001600160a01b0391821660048201526024810185905293949392839160449183918991165af1908115611baf578491611bba575b50600480546040516322a0fe3360e21b81523392810192909252602482019290925290602090829060449082906001600160a01b03165afa8015611baf578490611b74575b600354602084810151604051631c07d98160e21b81526001600160a01b03918216600482015289821660248201526044810188905294509091849116818881606481015b03925af1801561071a578590611b40575b61146c9250613c89565b60048054604051636882509b60e11b81529160209183919082906001600160a01b03165afa90811561071a578591611afe575b509060ff6114ae9216906138cd565b94600080516020613ce5833981519152846001600160a01b038716828103611aa0575050348710611a63575b60208301516001600160a01b03169081036118f4575083808480156118ea575b8280929181923390f1156103f5575b6005546101008301516001600160a01b039182169116813b1561183d57604051638340f54960e01b81526001600160a01b0391821660048201529087166024820152604481018890529085908290606490829084905af1801561071a579085916118d6575b505060055461010083015160208401516001600160a01b03928316929081169116823b1561113957604051633dae446f60e21b81526001600160a01b03918216600482015291166024820152604481018590529085908290606490829084905af1801561071a576118c2575b5060035460405163912d228f60e01b81526001600160a01b0387811660048301526024820189905296979596909591602091879160449183918b91165af19485156110eb57869561188e575b506006546101a08401516001600160a01b0390911691600282101561187a57978592878960209461169f829d898b60018060a01b038a820151169660808201519061ffff60a0840151169261010060018060a01b0391015116946040519d8e9c8d9b8c9a636667fe2160e11b8c52339860048d01613745565b03925af180156110eb57611841575b506007546001600160a01b0316803b1561183d5760405163d0dd830360e01b81526001600160a01b0390921660048301526024820184905285908290818381604481015b03925af190811561071a578591611829575b505060035460209182015160405163912d228f60e01b81526001600160a01b0391821660048201526024810194909452839160449183918891165af19081156103f55783916117f4575b506002546001600160a01b0316803b156117ef576040516311eba9df60e21b8152336004820152602481019290925283908290604490829084905af19081156103f55783916117d8575b50506002546001600160a01b0316803b15610a815760405163094f618d60e11b815233600482015260248101929092528290829081838160448101610a60565b6117e19061354a565b6117ec578138611798565b50fd5b505050fd5b9250506020823d602011611821575b816118106020938361355e565b8101031261012c578291513861174e565b3d9150611803565b6118329061354a565b6117ef578338611704565b8580fd5b6020813d602011611872575b8161185a6020938361355e565b8101031261183d5761186b906135b0565b50386116ae565b3d915061184d565b634e487b7160e01b88526021600452602488fd5b9094506020813d6020116118ba575b816118aa6020938361355e565b8101031261012c57519338611626565b3d915061189d565b6118cc859161354a565b61051b57386115da565b6118df9061354a565b61051b57833861156e565b6108fc91506114fa565b60405163a9059cbb60e01b60208201523360248201526044808201869052815261191f60648261355e565b6040519081604081011067ffffffffffffffff604084011117611a405786809160408401604052602084527f5361666545524332303a206c6f772d6c6576656c2063616c6c206661696c6564602085015260208151910182865af13d15611a56573d9067ffffffffffffffff8211611a40576119bb93604051926119ad6020601f19601f840116018561355e565b83523d89602085013e613939565b805190816119cb575b5050611509565b6020806119dc938301019101613598565b156119e85738806119c4565b60405162461bcd60e51b815260206004820152602a60248201527f5361666545524332303a204552433230206f7065726174696f6e20646964206e6044820152691bdd081cdd58d8d9595960b21b6064820152608490fd5b634e487b7160e01b600052604160045260246000fd5b916119bb92606091613939565b60405162461bcd60e51b815260206004820152601560248201527411549497d0d3d31310551154905317d05353d55395605a1b6044820152606490fd5b6040516323b872dd60e01b8152336004820152306024820152604481018a90529160209183916064918391905af180156110eb57611adf575b506114da565b611af79060203d6020116104ac5761049d818361355e565b5038611ad9565b90506020813d602011611b38575b81611b196020938361355e565b810103126106ba579060ff611b306114ae936138bf565b91925061149f565b3d9150611b0c565b506020823d602011611b6c575b81611b5a6020938361355e565b8101031261012c5761146c9151611462565b3d9150611b4d565b506020813d602011611ba7575b81611b8e6020938361355e565b8101031261051b57611ba2611451916135b0565b61140d565b3d9150611b81565b6040513d86823e3d90fd5b90506020813d602011611be5575b81611bd56020938361355e565b8101031261012c575160206113c8565b3d9150611bc8565b611c06915060203d6020116104ac5761049d818361355e565b38611367565b611c219193503d8086833e61073a818361355e565b913861131e565b50602036600319011261015f5760075460405163c58343ef60e01b8152600480359082015291906001600160a01b03166101a083602481845afa928315610439578293612090575b508160018060a01b0360e085015116602460405180948193631eb5ab6d60e01b835260048301525afa908115610439578291612076575b506101008101516001600160a01b0316330361203d5761018081015190611ced611cdb602086019361ffff85511690613c89565b9261ffff606084015191511690613c89565b60208201519092906001600160a01b0316600080516020613ce58339815191528103611fe457508380848015611fda575b8280929181923390f1156103f5575b60055460c08601516101408401516001600160a01b03928316929081169116823b1561113957604051638340f54960e01b81526001600160a01b03918216600482015291166024820152604481018390529085908290606490829084905af1801561071a57908591611fc6575b505060055460c086015160208401516001600160a01b03928316929081169116823b1561113957604051633dae446f60e21b81526001600160a01b03918216600482015291166024820152604481018590529085908290606490829084905af1801561071a57908591611fb2575b505060035461014083015160405163912d228f60e01b81526001600160a01b0391821660048201526024810184905294939291602091869160449183918a91165af193841561071a578594611f7e575b5060065460e08701516101a08401516001600160a01b03928316939290911691600282101561187a579260209288809a93611ee8899760018060a01b03888b0151169460018060a01b036101408c015116978d60808201519061ffff6040840151169260c060018060a01b0391015116946040519d8e9c8d9b8c9a636667fe2160e11b8c52339860048d01613745565b03925af1801561071a57611f45575b5060075481516001600160a01b039081169116803b1561183d5760405163d0dd830360e01b81526001600160a01b0390921660048301526024820184905285908290818381604481016116f2565b6020813d602011611f76575b81611f5e6020938361355e565b810103126106ba57611f6f906135b0565b5038611ef7565b3d9150611f51565b9093506020813d602011611faa575b81611f9a6020938361355e565b8101031261012c57519238611e58565b3d9150611f8d565b611fbb9061354a565b61051b578338611e08565b611fcf9061354a565b61051b578338611d9a565b6108fc9150611d1e565b60405163a9059cbb60e01b815233600482015260248101859052906020908290604490829089905af1801561071a5761201e575b50611d2d565b6120369060203d6020116104ac5761049d818361355e565b5038612018565b60405162461bcd60e51b815260206004820152601160248201527022a9292fa7a7262cafa127a92927aba2a960791b6044820152606490fd5b61208a91503d8084833e61073a818361355e565b38611ca7565b6120b59193506101a03d6101a0116120bc575b6120ad818361355e565b8101906137c9565b9138611c70565b503d6120a3565b503461015f57602036600319011261015f57806120de6134c6565b60065460405163058711b560e01b81526001600160a01b039283166004820181905292916102409081908390602490829087165afa801561071a5785928392839261220f575b505061213884610200830151163314613b3a565b60608101518416600080516020613ce583398151915281036121af5750816101e0819201518181156121a6575b3390f115610439575b6006541690813b15610a81578291602483926040519485938492630541a45360e41b845260048401525af1801561043957610a715750f35b506108fc612165565b6101e0919091015160405163a9059cbb60e01b815233600482015260248101919091529260209250839160449183915af18015611baf576121f1575b5061216e565b6122089060203d81116104ac5761049d818361355e565b50386121eb565b6122259250803d1061125157611242818361355e565b3880612124565b503461015f57602036600319011261015f5760075460405163c58343ef60e01b815260048035908201526001600160a01b0390911691906101a081602481865afa90811561043957829161272a575b508160018060a01b0360e083015116602460405180968193631eb5ab6d60e01b835260048301525afa92831561043957829361270e575b50610100838101519093906001600160a01b031633036126d7576122e3606082015161ffff60208501511690613c89565b602082015190919082906001600160a01b0316600080516020613ce5833981519152810361266f575060c084015185918291829182916001600160a01b0316828215612666575bf1156103f5575b60055460c084018051878601516101208701519296936001600160a01b03908116929181169116823b1561051757604051633c6340f360e21b81526001600160a01b03918216600482015233602482015291166044820152606481019290925286908290608490829084905af180156110eb57908691612652575b505060055460208301516001600160a01b039182169116813b1561113957604051633dae446f60e21b81523360048201526001600160a01b03919091166024820152604481018590529086908290606490829084905af180156110eb5790869161263e575b505060065460e08201516101a08401516001600160a01b03918216989190921691600281101561187a5797859260209289809b6124a860018060a01b03878b0151169360018060a01b03908a015116956101208a01518d8b61014081015161ffff60406080840151930151169260018060a01b03905116936040519d8e9c8d9b8c9a636667fe2160e11b8c52339960048d01613745565b03925af180156110eb57612605575b5060075460e0820151610120909201516001600160a01b039182169290911690823b1561113957604051634e1df74360e01b81526001600160a01b039290921660048301526024820185905260448201529085908290606490829084905af190811561071a5785916125f1575b505060035460209182015160405163912d228f60e01b81526001600160a01b0391821660048201526024810194909452839160449183918891165af19081156103f55783916125bc575b5060025491516001600160a01b03928316921690823b156117ef576040516311eba9df60e21b81526001600160a01b0390921660048301526024820152908290829081838160448101610a60565b9250506020823d6020116125e9575b816125d86020938361355e565b8101031261012c578291513861256e565b3d91506125cb565b6125fa9061354a565b6117ef578338612524565b6020813d602011612636575b8161261e6020938361355e565b8101031261183d5761262f906135b0565b50386124b7565b3d9150612611565b6126479061354a565b6106ba578438612411565b61265b9061354a565b6106ba5784386123ac565b506108fc61232a565b60c085015160405163a9059cbb60e01b81526001600160a01b03909116600482015260248101929092526020908290604490829089905af1801561071a576126b8575b50612331565b6126d09060203d6020116104ac5761049d818361355e565b50386126b2565b60405162461bcd60e51b815260206004820152600f60248201526e22a9292fa7a7262cafa622a72222a960891b6044820152606490fd5b6127239193503d8084833e61073a818361355e565b91386122b2565b61274591506101a03d6101a0116120bc576120ad818361355e565b3861227b565b5060c036600319011261015f576127606134c6565b81612769613508565b6127716134dc565b9061277a613519565b61278261352a565b9461278c83613bc3565b600754604051631eb5ab6d60e01b81526001600160a01b038381166004830181905291989193919216908789602481855afa98891561112e578899612cd4575b50604051634cf732f160e11b81526001600160a01b03918216600482015290871660248201529060209082908180604481015b03915afa8015610c2457612819918891611bed57506138ed565b61282c606088015161ffff861690613c89565b6003546020988901805160405163912d228f60e01b81526001600160a01b03918216600482015260248101859052919a9192839160449183918d91165af190811561112e578891612c9c575b50600480546040516322a0fe3360e21b815233928101929092526024820192909252979890602090899060449082906001600160a01b03165afa978815610b1a578998612c58575b506003549051604051631c07d98160e21b81526001600160a01b03918216600482015281891660248201526044810193909352602091839116818b81606481015b03925af190811561112e578891612c1f575b5061292087600492613c89565b8154604051636882509b60e11b81529260209184919082906001600160a01b03165afa918215610b1a578992612bdf575b5060ff61295f9216906138cd565b926001600160a01b038616600080516020613ce583398151915203612b7c57348410610b16575b6005546001600160a01b0316803b1561051757604051638340f54960e01b81523360048201526001600160a01b0388166024820152604481018690529089908290606490829084905af1908115610b1a578991612b68575b505060035460405163912d228f60e01b81526001600160a01b038881166004830152602482018790529098916020918a9160449183918e91165af1978815610b1a578998612b21575b5060075460405163670723fb60e01b815261ffff97881660048201526001600160a01b039889166024820152604481019690965260648087018a90529188166084870152903560a486015290851660c4850152931660e4830152336101048301526101248201529160209183916101449183918891165af180156103f557612ae857506002546001600160a01b0316803b15610a815760405163094f618d60e11b815233600482015260248101929092528290829081838160448101610a60565b6020813d602011612b19575b81612b016020938361355e565b81010312610a8157612b12906135b0565b5038610a25565b3d9150612af4565b919498509650602094919294813d602011612b60575b81612b446020938361355e565b8101031261012c57518897909691949093909291610144612a27565b3d9150612b37565b612b719061354a565b610b165787386129de565b6040516323b872dd60e01b8152336004820152306024820152604481018590526020816064818c6001600160a01b038c165af18015610b1a57612bc0575b50612986565b612bd89060203d6020116104ac5761049d818361355e565b5038612bba565b91506020823d602011612c17575b81612bfa6020938361355e565b810103126105175760ff612c1061295f936138bf565b9250612951565b3d9150612bed565b9750506020873d602011612c50575b81612c3b6020938361355e565b8101031261012c579551879690612920612913565b3d9150612c2e565b9097506020813d602011612c94575b81612c746020938361355e565b810103126105175761290191612c8b6020926135b0565b989150916128c0565b3d9150612c67565b9750506020873d602011612ccc575b81612cb86020938361355e565b8101031261012c5795518896906020612878565b3d9150612cab565b60209199506127ff92612cf189923d808d833e61073a818361355e565b9a925092506127cc565b50604036600319011261015f57612d106134c6565b906024612d1b613508565b612d2481613bc3565b600754604051631eb5ab6d60e01b81526001600160a01b0386811660048301529093859285928391165afa9182156103f5578392613289575b506101008201516001600160a01b0316331461324e57612d96612d8b61ffff61018085015193168093613c89565b916060840151613c89565b60208301519091906001600160a01b0316600080516020613ce58339815191528103613186575081341061051b57838080808560018060a01b036101008901511682821561317d575bf1156103f5575b6005546101008401516101408501516001600160a01b03928316929081169116823b1561113957604051633c6340f360e21b81526001600160a01b03918216600482015233602482015291166044820152606481018390529085908290608490829084905af1801561071a57908591613169575b505060055460208401516001600160a01b039182169116813b1561183d57604051633dae446f60e21b81523360048201526001600160a01b03919091166024820152604481018490529085908290606490829084905af1801561071a57613155575b5060035461014084015160405163912d228f60e01b81526001600160a01b039182166004820152602481018490529691602091889160449183918a91165af195861561071a578596613121575b5060065484516101a08601516001600160a01b039283169290911690600281101561187a5797859260209289809b612f9660018060a01b03878d015116938a8d60018060a01b03610140820151169860808201519061ffff60a0840151169261010060018060a01b0391015116936040519d8e9c8d9b8c9a636667fe2160e11b8c52339960048d01613745565b03925af180156110eb576130e8575b506007546001600160a01b031691823b1561183d57604051634e1df74360e01b81526001600160a01b039290921660048301526024820184905260448201529084908290606490829084905af1908115611baf5784916130d4575b505060035460208381015160405163912d228f60e01b81526001600160a01b03918216600482015260248101949094529091839160449183918891165af19081156103f557839161309f575b50600254610100909201516001600160a01b03928316921690823b156117ef576040516311eba9df60e21b81526001600160a01b0390921660048301526024820152908290829081838160448101610a60565b9250506020823d6020116130cc575b816130bb6020938361355e565b8101031261012c578291513861304c565b3d91506130ae565b6130dd9061354a565b610a81578238613000565b6020813d602011613119575b816131016020938361355e565b8101031261183d57613112906135b0565b5038612fa5565b3d91506130f4565b9095506020813d60201161314d575b8161313d6020938361355e565b8101031261012c57519438612f09565b3d9150613130565b61315f859161354a565b61051b5738612ebc565b6131729061354a565b61051b578338612e5a565b506108fc612ddf565b6040516323b872dd60e01b815233600482015230602482015260448101849052906020908290606490829089905af1801561071a5761322f575b5060208381015161010085015160405163a9059cbb60e01b81526001600160a01b039182166004820152602481018690529291839160449183918a91165af1801561071a57613210575b50612de6565b6132289060203d6020116104ac5761049d818361355e565b503861320a565b6132479060203d6020116104ac5761049d818361355e565b50386131c0565b60405162461bcd60e51b815260206004820152601360248201527222a9292fa1a0a72a2fa127a92927abafa7aba760691b6044820152606490fd5b61329e9192503d8085833e61073a818361355e565b9038612d5d565b503461015f578060031936011261015f576020604051600080516020613ce58339815191528152f35b503461015f57602036600319011261015f576132e86134c6565b60065460405163058711b560e01b81526001600160a01b039283166004820181905261024093909290919084908290602490829086165afa93841561071a57859461345c575b505080610220840151163303613426578380848360408397015116600080516020613ce583398151915281146000146133c65750816101c0819201518181156133bd575b3390f115610439575b60065416803b15610a8157602483926040519485938492630541a45360e41b845260048401525af18015610439576133b1575080f35b6133ba9061354a565b80f35b506108fc613372565b6101c0919091015160405163a9059cbb60e01b815233600482015260248101919091529260209250839160449183915af18015611baf57613408575b5061337b565b61341f9060203d81116104ac5761049d818361355e565b5038613402565b60405162461bcd60e51b815260206004820152600e60248201526d22a9292fa727aa2fa622a72222a960911b6044820152606490fd5b613473929450803d1061125157611242818361355e565b91388061332e565b503461015f57602036600319011261015f576134956134c6565b6001546001600160a01b0391906134af9083163314613b86565b166001600160601b0360a01b600454161760045580f35b600435906001600160a01b038216820361012c57565b604435906001600160a01b038216820361012c57565b602435906001600160a01b038216820361012c57565b6024359061ffff8216820361012c57565b6084359061ffff8216820361012c57565b60a4359061ffff8216820361012c57565b50600036600319011261012c57005b67ffffffffffffffff8111611a4057604052565b90601f8019910116810190811067ffffffffffffffff821117611a4057604052565b67ffffffffffffffff8111611a405760051b60200190565b9081602091031261012c5751801515810361012c5790565b51906001600160a01b038216820361012c57565b519061ffff8216820361012c57565b602091828282031261012c57815167ffffffffffffffff9283821161012c5701916101c093848484031261012c5760405194850185811083821117611a405760405261361e846135b0565b855261362b8185016135b0565b8186015260408401516040860152606084015160608601526080840151608086015261365960a085016135c4565b60a086015261366a60c085016135b0565b60c086015261367b60e085016135b0565b60e086015261010061368e8186016135b0565b90860152610120918285015190811161012c5784019280601f8501121561012c5783516136ba81613580565b946136c8604051968761355e565b818652838087019260051b82010192831161012c578301905b82821061372e57505050508301526101406136fd8183016135b0565b90830152610160808201519083015261018080820151908301526101a08091015190600282101561012c5782015290565b83809161373a846135b0565b8152019101906136e1565b99949b9a9690979193959892986101608b019c60018060a01b03809a168c5260028610156137b3578980988d6040836101409f61ffff9b6020850152169101521660608d015260808c015260a08b015260c08a015260e0890152166101008701521661012085015216910152565b634e487b7160e01b600052602160045260246000fd5b80916101a0928391031261012c5760405191820182811067ffffffffffffffff821117611a40576040526137fc816135b0565b825261380a602082016135c4565b602083015261381b604082016135c4565b604083015261382c606082016135b0565b60608301526080810151608083015261384760a082016135b0565b60a083015261385860c082016135b0565b60c083015261386960e082016135b0565b60e083015261010061387c8183016135b0565b90830152610120808201519083015261014080820151908301526101606138a48183016135b0565b908301526101808091015190600282101561012c5782015290565b519060ff8216820361012c57565b81156138d7570490565b634e487b7160e01b600052601260045260246000fd5b156138f457565b60405162461bcd60e51b815260206004820152601c60248201527f4552525f434f4c4c41544552414c5f4e4f545f535550504f52544544000000006044820152606490fd5b9192901561399b575081511561394d575090565b3b156139565790565b60405162461bcd60e51b815260206004820152601d60248201527f416464726573733a2063616c6c20746f206e6f6e2d636f6e74726163740000006044820152606490fd5b8251909150156139ae5750805190602001fd5b6040519062461bcd60e51b82528160208060048301528251908160248401526000935b8285106139f4575050604492506000838284010152601f80199101168101030190fd5b84810182015186860160440152938101938593506139d1565b8091610240928391031261012c5760405191820182811067ffffffffffffffff821117611a4057604052613a40816135b0565b82526020810151600381101561012c576020830152613a61604082016135b0565b6040830152613a72606082016135b0565b60608301526080810151608083015260a081015160a083015260c081015160c083015260e081015160e083015261010080820151908301526101208082015190830152610140613ac38183016135b0565b90830152610160613ad58183016135b0565b90830152610180613ae78183016135c4565b908301526101a0613af98183016138bf565b908301526101c080820151908301526101e08082015190830152610200613b218183016135b0565b90830152613b336102208092016135b0565b9082015290565b15613b4157565b60405162461bcd60e51b815260206004820152601060248201526f22a9292fa727aa2fa127a92927aba2a960811b6044820152606490fd5b9190820391821161121557565b15613b8d57565b60405162461bcd60e51b815260206004820152600e60248201526d22a9292fa7a7262cafa7aba722a960911b6044820152606490fd5b61ffff80911660648111613c12576019900616613bdc57565b60405162461bcd60e51b815260206004820152600e60248201526d4552525f50455243454e5441474560901b6044820152606490fd5b60405162461bcd60e51b815260206004820152600f60248201526e4f5645525f50455243454e5441474560881b6044820152606490fd5b8181029291811591840414171561121557565b91613c7b606492613c76670de0b6b3a76400009386613c49565b613c49565b040481018091116112155790565b906001600160a01b03168015613ca957613ca590606492613c49565b0490565b5090565b906001600160a01b039081166064811061012c576063190181811161121557811660640390811161121557613ce191613c89565b9056fe000000000000000000000000eeeeeeeeeeeeeeeeeeeeeeeeeeeeeeeeeeeeeeeea2646970667358221220c2319489d14ba221522176e1ab8fffe4321e973ab2ff933805367e6128c2bff564736f6c63430008110033",
  "immutableReferences": {},
  "source": "// SPDX-License-Identifier: GPL-3.0\r\npragma solidity >=0.7.0 <0.9.0;\r\n\r\nimport \"./Activity.sol\";\r\n\r\nimport \"./libraries/Errors.sol\";\r\nimport \"./libraries/PoolLibrary.sol\";\r\n\r\nimport \"./math/SimpleInterest.sol\";\r\n\r\nimport \"./interfaces/IPriceFeed.sol\";\r\nimport \"./interfaces/ILoanToValueRatio.sol\";\r\nimport \"./interfaces/IFeeManager.sol\";\r\n\r\nimport \"./managers/LoanManager.sol\";\r\nimport \"./managers/OfferManager.sol\";\r\nimport \"./managers/PoolManager.sol\";\r\n\r\nimport \"@openzeppelin/contracts/utils/Context.sol\";\r\nimport \"@openzeppelin/contracts/utils/math/SafeMath.sol\";\r\nimport \"@openzeppelin/contracts/token/ERC20/utils/SafeERC20.sol\";\r\nimport \"@openzeppelin/contracts/token/ERC20/ERC20.sol\";\r\nimport \"@openzeppelin/contracts/security/ReentrancyGuard.sol\";\r\n\r\ncontract LendingPool is Context, ReentrancyGuard, SimpleInterest {\r\n    using SafeMath for uint256;\r\n    using SafeERC20 for ERC20;\r\n\r\n    address deployer;\r\n\r\n    Activity private _activity;\r\n    IPriceFeed private _priceFeed;\r\n    ILoanToValueRatio private _ltv;\r\n\r\n    // managers\r\n    PoolManager private _poolManager;\r\n    LoanManager private _loanManager;\r\n    OfferManager private _offerManager;\r\n    IFeeManager private _feeManager;\r\n\r\n    address public constant nativeAddress =\r\n        0xEeeeeEeeeEeEeeEeEeEeeEEEeeeeEeeeeeeeEEeE;\r\n\r\n    constructor(\r\n        address poolManager_,\r\n        address loanManager_,\r\n        address offerManager_,\r\n        address feeManager_\r\n    ) ReentrancyGuard() {\r\n        _poolManager = PoolManager(poolManager_);\r\n        _loanManager = LoanManager(loanManager_);\r\n        _offerManager = OfferManager(offerManager_);\r\n        _feeManager = IFeeManager(feeManager_);\r\n\r\n        deployer = _msgSender();\r\n    }\r\n\r\n    // @lenders\r\n    function createLendingOffer(\r\n        uint256 principalAmount_, // only for ERC20 assets\r\n        address principalToken,\r\n        address[] memory collateralTokens,\r\n        uint16 daysToMaturity,\r\n        uint256 interest,\r\n        uint16 daysToExpire\r\n    ) public payable {\r\n        uint256 principalAmount;\r\n\r\n        require(collateralTokens.length > 0, \"ERR_NO_COLLATERAL_TYPES\");\r\n\r\n        /* extract tokens from lender */\r\n        if (principalToken == nativeAddress) {\r\n            principalAmount = msg.value;\r\n        } else {\r\n            principalAmount = principalAmount_;\r\n            ERC20(principalToken).transferFrom(\r\n                _msgSender(),\r\n                address(this),\r\n                principalAmount\r\n            );\r\n        }\r\n\r\n        /* delegate principal to lender */\r\n        _poolManager.deposit(_msgSender(), principalToken, principalAmount);\r\n\r\n        /* create the lending offer */\r\n        _offerManager.createLendingOffer(\r\n            principalToken,\r\n            principalAmount,\r\n            interest,\r\n            daysToMaturity,\r\n            daysToExpire,\r\n            collateralTokens,\r\n            _msgSender()\r\n        );\r\n    }\r\n\r\n    // @lenders\r\n    function createLendingRequest(\r\n        uint160 offerId,\r\n        uint16 percentage,\r\n        uint16 daysToMaturity,\r\n        uint256 interest,\r\n        uint16 daysToExpire\r\n    ) public payable {\r\n        _checkPercentage(percentage);\r\n\r\n        OfferLibrary.Offer memory offer = _offerManager.getOffer(offerId);\r\n\r\n        uint256 principalAmount = percentageOf(\r\n            offer.initialPrincipal,\r\n            percentage\r\n        );\r\n\r\n        /* extract tokens from lender */\r\n        if (offer.principalToken == nativeAddress) {\r\n            require(msg.value >= principalAmount);\r\n        } else {\r\n            ERC20(offer.principalToken).transferFrom(\r\n                _msgSender(),\r\n                address(this),\r\n                principalAmount\r\n            );\r\n        }\r\n\r\n        /* delegate principal to lender */\r\n        _poolManager.deposit(\r\n            _msgSender(),\r\n            offer.principalToken,\r\n            principalAmount\r\n        );\r\n\r\n        /* create the lending request */\r\n        _offerManager.createLendingRequest(\r\n            percentage,\r\n            interest,\r\n            daysToMaturity,\r\n            daysToExpire,\r\n            _msgSender(),\r\n            offerId\r\n        );\r\n    }\r\n\r\n    // @lenders\r\n    function acceptBorrowingOffer(uint160 offerId, uint16 percentage)\r\n        public\r\n        payable\r\n    {\r\n        _checkPercentage(percentage);\r\n\r\n        OfferLibrary.Offer memory offer = _offerManager.getOffer(offerId);\r\n\r\n        require(_msgSender() != offer.creator, \"ERR_CANT_BORROW_OWN\");\r\n\r\n        uint256 collateralAmount = percentageOf(\r\n            offer.initialCollateral,\r\n            percentage\r\n        );\r\n\r\n        uint256 principalAmount = percentageOf(\r\n            offer.initialPrincipal,\r\n            percentage\r\n        );\r\n\r\n        /* extract principal from lender/caller and transfer to borrower */\r\n        if (offer.principalToken == nativeAddress) {\r\n            require(msg.value >= principalAmount);\r\n            payable(offer.creator).transfer(principalAmount);\r\n        } else {\r\n            ERC20(offer.principalToken).transferFrom(\r\n                _msgSender(),\r\n                address(this),\r\n                principalAmount\r\n            );\r\n            ERC20(offer.principalToken).transfer(\r\n                offer.creator,\r\n                principalAmount\r\n            );\r\n        }\r\n\r\n        /* delegate the loan collateral to lender */\r\n        _poolManager.transfer(\r\n            offer.creator,\r\n            _msgSender(),\r\n            offer.collateralToken,\r\n            collateralAmount\r\n        );\r\n        /* undelegate the principal from lender */\r\n        _poolManager.burn(_msgSender(), offer.principalToken, principalAmount);\r\n\r\n        uint256 collateralPriceInUSD = _priceFeed.amountInUSD(\r\n            offer.collateralToken,\r\n            collateralAmount\r\n        );\r\n\r\n        /* register the loan from the loan manager */\r\n        _loanManager.createLoan(\r\n            offer.offerId,\r\n            offer.offerType,\r\n            offer.principalToken,\r\n            offer.collateralToken,\r\n            principalAmount,\r\n            collateralAmount,\r\n            collateralPriceInUSD,\r\n            offer.interest,\r\n            offer.daysToMaturity,\r\n            offer.creator,\r\n            _msgSender()\r\n        );\r\n\r\n        // will revert the transaction if fail\r\n        _offerManager._afterOfferBorrowingLoan(\r\n            offerId,\r\n            principalAmount,\r\n            collateralAmount\r\n        );\r\n\r\n        // update activity\r\n        uint256 borrowedAmountInUSD = _priceFeed.amountInUSD(\r\n            offer.principalToken,\r\n            principalAmount\r\n        );\r\n        _activity._borrowLoan(offer.creator, borrowedAmountInUSD);\r\n    }\r\n\r\n    // @lenders\r\n    function acceptBorrowingRequest(uint256 requestId) public {\r\n        RequestLibrary.Request memory request = _offerManager.getRequest(\r\n            requestId\r\n        );\r\n\r\n        OfferLibrary.Offer memory offer = _offerManager.getOffer(\r\n            request.offerId\r\n        );\r\n\r\n        require(offer.creator == _msgSender(), \"ERR_ONLY_LENDER\");\r\n\r\n        uint256 principalAmount = percentageOf(\r\n            offer.initialPrincipal,\r\n            request.percentage\r\n        );\r\n\r\n        /* transfer principal to borrower */\r\n        if (offer.principalToken == nativeAddress) {\r\n            payable(request.creator).transfer(principalAmount);\r\n        } else {\r\n            ERC20(offer.principalToken).transfer(\r\n                request.creator,\r\n                principalAmount\r\n            );\r\n        }\r\n\r\n        /* delegate the loan collateral to lender */\r\n        _poolManager.transfer(\r\n            request.creator,\r\n            _msgSender(),\r\n            request.collateralToken,\r\n            request.collateralAmount\r\n        );\r\n        /* undelegate the principal from lender */\r\n        _poolManager.burn(_msgSender(), offer.principalToken, principalAmount);\r\n\r\n        /* register the loan from the loan manager */\r\n        _loanManager.createLoan(\r\n            request.offerId,\r\n            offer.offerType,\r\n            offer.principalToken,\r\n            request.collateralToken,\r\n            principalAmount,\r\n            request.collateralAmount,\r\n            request.collateralPriceInUSD,\r\n            request.interest,\r\n            request.daysToMaturity,\r\n            request.creator,\r\n            _msgSender()\r\n        );\r\n\r\n        // will revert the transaction if fail\r\n        _offerManager._afterOfferBorrowingLoan(\r\n            request.offerId,\r\n            principalAmount,\r\n            request.collateralAmount\r\n        );\r\n\r\n        // update activity\r\n        uint256 amountBorrowedInUSD = _priceFeed.amountInUSD(\r\n            offer.principalToken,\r\n            principalAmount\r\n        );\r\n        _activity._borrowLoan(request.creator, amountBorrowedInUSD);\r\n    }\r\n\r\n    // @borrower\r\n    function createBorrowingOffer(\r\n        address principalToken,\r\n        address collateralToken,\r\n        uint256 collateralAmount_, // for ERC20 assets\r\n        uint256 interest,\r\n        uint16 daysToMaturity,\r\n        uint16 daysToExpire\r\n    ) public payable {\r\n        uint256 collateralAmount;\r\n\r\n        /* extract collateral from borrower */\r\n        if (collateralToken == nativeAddress) {\r\n            collateralAmount = msg.value;\r\n        } else {\r\n            collateralAmount = collateralAmount_;\r\n            ERC20(collateralToken).transferFrom(\r\n                _msgSender(),\r\n                address(this),\r\n                collateralAmount\r\n            );\r\n        }\r\n\r\n        uint256 principalNormalAmount = _priceFeed.exchangeRate(\r\n            collateralToken,\r\n            principalToken,\r\n            collateralAmount\r\n        );\r\n\r\n        uint256 principalAmountInUSD = _priceFeed.amountInUSD(\r\n            principalToken,\r\n            principalNormalAmount\r\n        );\r\n\r\n        uint160 ltv = _ltv.getRelativeLTV(_msgSender(), principalAmountInUSD);\r\n\r\n        uint256 principalAmount = percentageInverseOf(\r\n            principalNormalAmount,\r\n            ltv\r\n        ) / _ltv.getBase();\r\n\r\n        /* delegate the collateral to borrower */\r\n        _poolManager.deposit(_msgSender(), collateralToken, collateralAmount);\r\n\r\n        /* create the offer */\r\n        _offerManager.createBorrowingOffer(\r\n            principalToken,\r\n            collateralToken,\r\n            collateralAmount,\r\n            principalAmount,\r\n            interest,\r\n            daysToMaturity,\r\n            daysToExpire,\r\n            _msgSender()\r\n        );\r\n\r\n        // update activity\r\n        uint256 amountInUSD = _priceFeed.amountInUSD(\r\n            collateralToken,\r\n            collateralAmount\r\n        );\r\n        _activity._dropCollateral(_msgSender(), amountInUSD);\r\n    }\r\n\r\n    // @borrower\r\n    function createBorrowingRequest(\r\n        uint160 offerId,\r\n        uint16 percentage,\r\n        address collateralToken,\r\n        uint256 interest,\r\n        uint16 daysToMaturity,\r\n        uint16 daysToExpire\r\n    ) public payable {\r\n        _checkPercentage(percentage);\r\n\r\n        OfferLibrary.Offer memory offer = _offerManager.getOffer(offerId);\r\n\r\n        require(\r\n            _offerManager.isCollateralSupported(offerId, collateralToken),\r\n            \"ERR_COLLATERAL_NOT_SUPPORTED\"\r\n        );\r\n\r\n        uint256 principalAmount = percentageOf(\r\n            offer.initialPrincipal,\r\n            percentage\r\n        );\r\n\r\n        uint256 principalPriceInUSD = _priceFeed.amountInUSD(\r\n            offer.principalToken,\r\n            principalAmount\r\n        );\r\n\r\n        uint160 ltv = _ltv.getRelativeLTV(_msgSender(), principalPriceInUSD);\r\n\r\n        uint256 collateralNormalAmount = _priceFeed.exchangeRate(\r\n            offer.principalToken,\r\n            collateralToken,\r\n            principalAmount\r\n        );\r\n\r\n        uint256 collateralAmount = percentageOf(collateralNormalAmount, ltv) /\r\n            _ltv.getBase();\r\n\r\n        /* extract collateral from borrower */\r\n        if (collateralToken == nativeAddress) {\r\n            require(collateralAmount >= msg.value);\r\n        } else {\r\n            ERC20(collateralToken).transferFrom(\r\n                _msgSender(),\r\n                address(this),\r\n                collateralAmount\r\n            );\r\n        }\r\n\r\n        /* delegate the collateral to borrower */\r\n        _poolManager.deposit(_msgSender(), collateralToken, collateralAmount);\r\n\r\n        uint256 collateralPriceInUSD = _priceFeed.amountInUSD(\r\n            collateralToken,\r\n            collateralAmount\r\n        );\r\n\r\n        /* create the request */\r\n        _offerManager.createBorrowingRequest(\r\n            percentage,\r\n            collateralToken,\r\n            collateralAmount,\r\n            collateralPriceInUSD,\r\n            ltv,\r\n            interest,\r\n            daysToMaturity,\r\n            daysToExpire,\r\n            _msgSender(),\r\n            offerId\r\n        );\r\n\r\n        // update activity\r\n        _activity._dropCollateral(_msgSender(), collateralPriceInUSD);\r\n    }\r\n\r\n    // @borrower\r\n    function acceptLendingOffer(\r\n        uint160 offerId,\r\n        uint16 percentage,\r\n        address collateralToken\r\n    ) public payable {\r\n        _checkPercentage(percentage);\r\n\r\n        OfferLibrary.Offer memory offer = _offerManager.getOffer(offerId);\r\n\r\n        require(\r\n            _offerManager.isCollateralSupported(offerId, collateralToken),\r\n            \"ERR_COLLATERAL_NOT_SUPPORTED\"\r\n        );\r\n\r\n        uint256 principalAmount = percentageOf(\r\n            offer.initialPrincipal,\r\n            percentage\r\n        );\r\n\r\n        uint256 principalPriceInUSD = _priceFeed.amountInUSD(\r\n            offer.principalToken,\r\n            principalAmount\r\n        );\r\n\r\n        uint160 ltv = _ltv.getRelativeLTV(_msgSender(), principalPriceInUSD);\r\n\r\n        /* calculate the collateral amount */\r\n        uint256 collateralNormalAmount = _priceFeed.exchangeRate(\r\n            offer.principalToken,\r\n            collateralToken,\r\n            principalAmount\r\n        );\r\n\r\n        uint256 collateralAmount = percentageOf(collateralNormalAmount, ltv) /\r\n            _ltv.getBase();\r\n\r\n        /* extract collateral tokens from borrower */\r\n        if (collateralToken == nativeAddress) {\r\n            require(collateralAmount >= msg.value, \"ERR_COLLATERAL_AMOUNT\");\r\n        } else {\r\n            ERC20(collateralToken).transferFrom(\r\n                _msgSender(),\r\n                address(this),\r\n                collateralAmount\r\n            );\r\n        }\r\n\r\n        /* transfer the principal to borrower */\r\n        if (offer.principalToken == nativeAddress) {\r\n            payable(_msgSender()).transfer(principalAmount);\r\n        } else {\r\n            ERC20(offer.principalToken).safeTransfer(\r\n                _msgSender(),\r\n                principalAmount\r\n            );\r\n        }\r\n\r\n        /* delegate the loan collateral to lender */\r\n        _poolManager.deposit(offer.creator, collateralToken, collateralAmount);\r\n        /* undelegate the loan principal from lender */\r\n        _poolManager.burn(offer.creator, offer.principalToken, principalAmount);\r\n\r\n        uint256 collateralPriceInUSD = _priceFeed.amountInUSD(\r\n            collateralToken,\r\n            collateralAmount\r\n        );\r\n\r\n        /* register the loan */\r\n        _loanManager.createLoan(\r\n            offerId,\r\n            offer.offerType,\r\n            offer.principalToken,\r\n            collateralToken,\r\n            principalAmount,\r\n            collateralAmount,\r\n            collateralPriceInUSD,\r\n            offer.interest,\r\n            offer.daysToMaturity,\r\n            _msgSender(),\r\n            offer.creator\r\n        );\r\n\r\n        // will revert if transaction fail\r\n        _offerManager._afterOfferLendingLoan(offerId, principalAmount);\r\n\r\n        // update activity\r\n        uint256 amountBorrowedInUSD = _priceFeed.amountInUSD(\r\n            offer.principalToken,\r\n            principalAmount\r\n        );\r\n        _activity._borrowLoan(_msgSender(), amountBorrowedInUSD);\r\n        _activity._dropCollateral(_msgSender(), collateralPriceInUSD);\r\n    }\r\n\r\n    // @borrower\r\n    function acceptLendingRequest(uint256 requestId) public payable {\r\n        RequestLibrary.Request memory request = _offerManager.getRequest(\r\n            requestId\r\n        );\r\n\r\n        OfferLibrary.Offer memory offer = _offerManager.getOffer(\r\n            request.offerId\r\n        );\r\n\r\n        require(offer.creator == _msgSender(), \"ERR_ONLY_BORROWER\");\r\n\r\n        uint256 collateralAmount = percentageOf(\r\n            offer.initialCollateral,\r\n            request.percentage\r\n        );\r\n\r\n        uint256 principalAmount = percentageOf(\r\n            offer.initialPrincipal,\r\n            request.percentage\r\n        );\r\n\r\n        /* transfer principal to borrower */\r\n        if (offer.principalToken == nativeAddress) {\r\n            payable(_msgSender()).transfer(principalAmount);\r\n        } else {\r\n            ERC20(offer.principalToken).transfer(_msgSender(), principalAmount);\r\n        }\r\n\r\n        /* delegate the loan collateral to lender */\r\n        _poolManager.deposit(\r\n            request.creator,\r\n            offer.collateralToken,\r\n            collateralAmount\r\n        );\r\n        /* undelegate the loan principal from lender */\r\n        _poolManager.burn(\r\n            request.creator,\r\n            offer.principalToken,\r\n            principalAmount\r\n        );\r\n\r\n        uint256 collateralPriceInUSD = _priceFeed.amountInUSD(\r\n            offer.collateralToken,\r\n            collateralAmount\r\n        );\r\n\r\n        /* register the loan from the loan manager */\r\n        _loanManager.createLoan(\r\n            request.offerId,\r\n            offer.offerType,\r\n            offer.principalToken,\r\n            offer.collateralToken,\r\n            principalAmount,\r\n            collateralAmount,\r\n            collateralPriceInUSD,\r\n            request.interest,\r\n            request.daysToMaturity,\r\n            _msgSender(),\r\n            request.creator\r\n        );\r\n\r\n        // will revert the transaction if fail\r\n        _offerManager._afterOfferLendingLoan(offer.offerId, principalAmount);\r\n\r\n        // update activityj\r\n        uint256 amountBorrowedInUSD = _priceFeed.amountInUSD(\r\n            offer.principalToken,\r\n            principalAmount\r\n        );\r\n        _activity._borrowLoan(_msgSender(), amountBorrowedInUSD);\r\n        _activity._dropCollateral(_msgSender(), collateralPriceInUSD);\r\n    }\r\n\r\n    // @borrower\r\n    function reActivateOffer() public payable {}\r\n\r\n    // @borrower\r\n    function reActivateRequest() public payable {}\r\n\r\n    // @borrower\r\n    function repayLoan(uint160 loanId, uint16 percentage) public payable {\r\n        _checkPercentage(percentage);\r\n\r\n        LoanLibrary.Loan memory loan = _loanManager.getLoan(loanId);\r\n\r\n        // verify the borrower is the repayer\r\n        require(loan.borrower == _msgSender(), \"ERR_NOT_BORROWER\");\r\n\r\n        // calculate the duration of the loan\r\n        uint160 time = uint160(block.timestamp);\r\n        uint160 ellapsedSecs = (time - loan.startDate);\r\n\r\n        uint256 principalAmount = percentageOf(\r\n            loan.initialPrincipal,\r\n            percentage\r\n        );\r\n\r\n        uint256 collateralAmount = percentageOf(\r\n            loan.initialCollateral,\r\n            percentage\r\n        );\r\n\r\n        // calculate the pay back amount\r\n        uint256 repaymentPrincipalAmount = getFullInterestAmount(\r\n            principalAmount,\r\n            ellapsedSecs,\r\n            loan.interest\r\n        );\r\n\r\n        uint256 interestPaid = (repaymentPrincipalAmount - principalAmount);\r\n        uint256 fee = percentageOf(interestPaid, _feeManager.feePercentage());\r\n        uint256 unClaimedInterest = (interestPaid - fee);\r\n\r\n        _feeManager.credit(loan.principalToken, fee);\r\n\r\n        // will revert the transaction if fail\r\n        bool completed = _loanManager.repayLoan(\r\n            loanId,\r\n            unClaimedInterest,\r\n            principalAmount,\r\n            collateralAmount\r\n        );\r\n\r\n        /* extract pay back amount */\r\n        if (loan.principalToken == nativeAddress) {\r\n            require(msg.value >= repaymentPrincipalAmount);\r\n        } else {\r\n            ERC20(loan.principalToken).transferFrom(\r\n                _msgSender(),\r\n                address(this),\r\n                repaymentPrincipalAmount\r\n            );\r\n        }\r\n\r\n        // update activity\r\n        uint256 interestPaidInUSD = _priceFeed.amountInUSD(\r\n            loan.principalToken,\r\n            (repaymentPrincipalAmount - principalAmount)\r\n        );\r\n\r\n        uint256 amountPaidInUSD = _priceFeed.amountInUSD(\r\n            loan.principalToken,\r\n            principalAmount\r\n        );\r\n\r\n        _activity._repayLoan(\r\n            _msgSender(),\r\n            amountPaidInUSD,\r\n            interestPaidInUSD,\r\n            completed\r\n        );\r\n    }\r\n\r\n    function claimCollateral(uint160 loanId) public {\r\n        LoanLibrary.Loan memory loan = _loanManager.getLoan(loanId);\r\n\r\n        require(loan.borrower == _msgSender(), \"ERR_NOT_BORROWER\");\r\n\r\n        if (loan.collateralToken == nativeAddress) {\r\n            payable(_msgSender()).transfer(loan.unClaimedCollateral);\r\n        } else {\r\n            ERC20(loan.collateralToken).transfer(\r\n                _msgSender(),\r\n                loan.unClaimedCollateral\r\n            );\r\n        }\r\n\r\n        _loanManager.claimCollateral(loanId);\r\n    }\r\n\r\n    function claimPrincipal(uint160 loanId) public {\r\n        LoanLibrary.Loan memory loan = _loanManager.getLoan(loanId);\r\n\r\n        require(loan.lender == _msgSender(), \"ERR_NOT_LENDER\");\r\n\r\n        if (loan.principalToken == nativeAddress) {\r\n            payable(_msgSender()).transfer(loan.unClaimedPrincipal);\r\n        } else {\r\n            ERC20(loan.principalToken).transfer(\r\n                _msgSender(),\r\n                loan.unClaimedPrincipal\r\n            );\r\n        }\r\n\r\n        _loanManager.claimCollateral(loanId);\r\n    }\r\n\r\n    function repayLiquidatedLoan(uint256 loanId) public payable {}\r\n\r\n    function setLTV(address ltv_) public onlyOwner {\r\n        _ltv = ILoanToValueRatio(ltv_);\r\n    }\r\n\r\n    function setActivity(address activity_) public onlyOwner {\r\n        _activity = Activity(activity_);\r\n    }\r\n\r\n    function setPriceFeed(address priceFeed_) public onlyOwner {\r\n        _priceFeed = IPriceFeed(priceFeed_);\r\n    }\r\n\r\n    function changeOwner(address newOwner) public onlyOwner {\r\n        deployer = newOwner;\r\n    }\r\n\r\n    /// @dev to claim revenue\r\n    function claim(\r\n        address token,\r\n        address payable receiver,\r\n        uint256 amount\r\n    ) public onlyOwner {\r\n        _feeManager.debit(token, amount);\r\n        require(amount > 0, \"ERR_ZERO_AMOUNT\");\r\n        if (token == nativeAddress) {\r\n            receiver.transfer(amount);\r\n        } else {\r\n            ERC20(token).transfer(receiver, amount);\r\n        }\r\n    }\r\n\r\n    function _checkPercentage(uint16 percentage) private pure {\r\n        // percentage must be 25, 50, 75 or 100\r\n        require(percentage <= 100, \"OVER_PERCENTAGE\");\r\n        require(percentage % 25 == 0, \"ERR_PERCENTAGE\");\r\n    }\r\n\r\n    modifier onlyOwner() {\r\n        require(_msgSender() == deployer, \"ERR_ONLY_OWNER\");\r\n        _;\r\n    }\r\n}\r\n",
  "sourcePath": "C:\\Users\\DELL\\Documents\\darsh\\smart-contracts\\contracts\\LendingPool.sol",
  "compiler": {
    "name": "solc",
    "version": "0.8.17+commit.8df45f5f.Emscripten.clang"
  },
  "schemaVersion": "3.4.11",
  "updatedAt": "2023-02-15T14:27:47.871Z",
  "devdoc": {
    "kind": "dev",
    "methods": {
      "claim(address,address,uint256)": {
        "details": "to claim revenue"
      }
    },
    "version": 1
  },
  "userdoc": {
    "kind": "user",
    "methods": {},
    "version": 1
  }
}