{
  "contractName": "LendingPool",
  "abi": [
    {
      "inputs": [],
      "stateMutability": "nonpayable",
      "type": "constructor"
    },
    {
      "anonymous": false,
      "inputs": [
        {
          "indexed": true,
          "internalType": "address",
          "name": "previousOwner",
          "type": "address"
        },
        {
          "indexed": true,
          "internalType": "address",
          "name": "newOwner",
          "type": "address"
        }
      ],
      "name": "OwnershipTransferStarted",
      "type": "event"
    },
    {
      "anonymous": false,
      "inputs": [
        {
          "indexed": true,
          "internalType": "address",
          "name": "previousOwner",
          "type": "address"
        },
        {
          "indexed": true,
          "internalType": "address",
          "name": "newOwner",
          "type": "address"
        }
      ],
      "name": "OwnershipTransferred",
      "type": "event"
    },
    {
      "inputs": [],
      "name": "INTEREST_RATE_DENOMINATOR",
      "outputs": [
        {
          "internalType": "uint256",
          "name": "",
          "type": "uint256"
        }
      ],
      "stateMutability": "view",
      "type": "function"
    },
    {
      "inputs": [],
      "name": "PERCENT",
      "outputs": [
        {
          "internalType": "uint16",
          "name": "",
          "type": "uint16"
        }
      ],
      "stateMutability": "view",
      "type": "function"
    },
    {
      "inputs": [],
      "name": "acceptOwnership",
      "outputs": [],
      "stateMutability": "nonpayable",
      "type": "function"
    },
    {
      "inputs": [
        {
          "internalType": "uint256",
          "name": "principal",
          "type": "uint256"
        },
        {
          "internalType": "uint256",
          "name": "durationSecs",
          "type": "uint256"
        },
        {
          "internalType": "uint256",
          "name": "interest",
          "type": "uint256"
        }
      ],
      "name": "getFullInterestAmount",
      "outputs": [
        {
          "internalType": "uint256",
          "name": "",
          "type": "uint256"
        }
      ],
      "stateMutability": "pure",
      "type": "function"
    },
    {
      "inputs": [],
      "name": "nativeAddress",
      "outputs": [
        {
          "internalType": "address",
          "name": "",
          "type": "address"
        }
      ],
      "stateMutability": "view",
      "type": "function"
    },
    {
      "inputs": [],
      "name": "owner",
      "outputs": [
        {
          "internalType": "address",
          "name": "",
          "type": "address"
        }
      ],
      "stateMutability": "view",
      "type": "function"
    },
    {
      "inputs": [],
      "name": "pendingOwner",
      "outputs": [
        {
          "internalType": "address",
          "name": "",
          "type": "address"
        }
      ],
      "stateMutability": "view",
      "type": "function"
    },
    {
      "inputs": [
        {
          "internalType": "uint256",
          "name": "total",
          "type": "uint256"
        },
        {
          "internalType": "uint160",
          "name": "percent",
          "type": "uint160"
        }
      ],
      "name": "percentageOf",
      "outputs": [
        {
          "internalType": "uint256",
          "name": "",
          "type": "uint256"
        }
      ],
      "stateMutability": "pure",
      "type": "function"
    },
    {
      "inputs": [],
      "name": "renounceOwnership",
      "outputs": [],
      "stateMutability": "nonpayable",
      "type": "function"
    },
    {
      "inputs": [
        {
          "internalType": "address",
          "name": "newOwner",
          "type": "address"
        }
      ],
      "name": "transferOwnership",
      "outputs": [],
      "stateMutability": "nonpayable",
      "type": "function"
    },
    {
      "inputs": [
        {
          "internalType": "uint256",
          "name": "principalAmount_",
          "type": "uint256"
        },
        {
          "internalType": "address",
          "name": "principalToken",
          "type": "address"
        },
        {
          "internalType": "address[]",
          "name": "collateralTokens",
          "type": "address[]"
        },
        {
          "internalType": "uint16",
          "name": "daysToMaturity",
          "type": "uint16"
        },
        {
          "internalType": "uint256",
          "name": "interest",
          "type": "uint256"
        },
        {
          "internalType": "uint16",
          "name": "daysToExpire",
          "type": "uint16"
        }
      ],
      "name": "createLendingOffer",
      "outputs": [],
      "stateMutability": "payable",
      "type": "function"
    },
    {
      "inputs": [
        {
          "internalType": "uint256",
          "name": "offerId",
          "type": "uint256"
        },
        {
          "internalType": "uint16",
          "name": "percentage",
          "type": "uint16"
        },
        {
          "internalType": "uint16",
          "name": "daysToMaturity",
          "type": "uint16"
        },
        {
          "internalType": "uint256",
          "name": "interest",
          "type": "uint256"
        },
        {
          "internalType": "uint16",
          "name": "hoursToExpire",
          "type": "uint16"
        }
      ],
      "name": "createLendingRequest",
      "outputs": [],
      "stateMutability": "payable",
      "type": "function"
    },
    {
      "inputs": [
        {
          "internalType": "uint256",
          "name": "offerId",
          "type": "uint256"
        },
        {
          "internalType": "uint16",
          "name": "percentage",
          "type": "uint16"
        }
      ],
      "name": "acceptBorrowingOffer",
      "outputs": [],
      "stateMutability": "payable",
      "type": "function"
    },
    {
      "inputs": [
        {
          "internalType": "uint256",
          "name": "requestId",
          "type": "uint256"
        }
      ],
      "name": "acceptBorrowingRequest",
      "outputs": [],
      "stateMutability": "nonpayable",
      "type": "function"
    },
    {
      "inputs": [
        {
          "internalType": "address",
          "name": "principalToken",
          "type": "address"
        },
        {
          "internalType": "uint256",
          "name": "principalAmount",
          "type": "uint256"
        },
        {
          "internalType": "address",
          "name": "collateralToken",
          "type": "address"
        },
        {
          "internalType": "uint256",
          "name": "interest",
          "type": "uint256"
        },
        {
          "internalType": "uint16",
          "name": "daysToMaturity",
          "type": "uint16"
        },
        {
          "internalType": "uint16",
          "name": "hoursToExpire",
          "type": "uint16"
        }
      ],
      "name": "createBorrowingOffer",
      "outputs": [],
      "stateMutability": "payable",
      "type": "function"
    },
    {
      "inputs": [
        {
          "internalType": "uint256",
          "name": "offerId",
          "type": "uint256"
        },
        {
          "internalType": "uint16",
          "name": "percentage",
          "type": "uint16"
        },
        {
          "internalType": "address",
          "name": "collateralToken",
          "type": "address"
        },
        {
          "internalType": "uint256",
          "name": "interest",
          "type": "uint256"
        },
        {
          "internalType": "uint16",
          "name": "daysToMaturity",
          "type": "uint16"
        },
        {
          "internalType": "uint16",
          "name": "hoursToExpire",
          "type": "uint16"
        }
      ],
      "name": "createBorrowingRequest",
      "outputs": [],
      "stateMutability": "payable",
      "type": "function"
    },
    {
      "inputs": [
        {
          "internalType": "uint256",
          "name": "offerId",
          "type": "uint256"
        },
        {
          "internalType": "uint16",
          "name": "percentage",
          "type": "uint16"
        },
        {
          "internalType": "address",
          "name": "collateralToken",
          "type": "address"
        }
      ],
      "name": "acceptLendingOffer",
      "outputs": [],
      "stateMutability": "payable",
      "type": "function"
    },
    {
      "inputs": [
        {
          "internalType": "uint256",
          "name": "requestId",
          "type": "uint256"
        }
      ],
      "name": "acceptLendingRequest",
      "outputs": [],
      "stateMutability": "payable",
      "type": "function"
    },
    {
      "inputs": [
        {
          "internalType": "uint256",
          "name": "offerId",
          "type": "uint256"
        },
        {
          "internalType": "uint16",
          "name": "toExpire",
          "type": "uint16"
        }
      ],
      "name": "reActivateOffer",
      "outputs": [],
      "stateMutability": "nonpayable",
      "type": "function"
    },
    {
      "inputs": [
        {
          "internalType": "uint256",
          "name": "loanId",
          "type": "uint256"
        },
        {
          "internalType": "uint16",
          "name": "percentage",
          "type": "uint16"
        }
      ],
      "name": "repayLoan",
      "outputs": [],
      "stateMutability": "payable",
      "type": "function"
    },
    {
      "inputs": [
        {
          "internalType": "uint256",
          "name": "requestId",
          "type": "uint256"
        }
      ],
      "name": "rejectRequest",
      "outputs": [],
      "stateMutability": "nonpayable",
      "type": "function"
    },
    {
      "inputs": [
        {
          "internalType": "uint256",
          "name": "requestId",
          "type": "uint256"
        }
      ],
      "name": "cancelLendRequest",
      "outputs": [],
      "stateMutability": "nonpayable",
      "type": "function"
    },
    {
      "inputs": [
        {
          "internalType": "uint256",
          "name": "requestId",
          "type": "uint256"
        }
      ],
      "name": "cancelBorrowRequest",
      "outputs": [],
      "stateMutability": "nonpayable",
      "type": "function"
    },
    {
      "inputs": [
        {
          "internalType": "uint256",
          "name": "loanId",
          "type": "uint256"
        }
      ],
      "name": "claimCollateral",
      "outputs": [],
      "stateMutability": "nonpayable",
      "type": "function"
    },
    {
      "inputs": [
        {
          "internalType": "uint256",
          "name": "loanId",
          "type": "uint256"
        }
      ],
      "name": "claimPrincipal",
      "outputs": [],
      "stateMutability": "nonpayable",
      "type": "function"
    },
    {
      "inputs": [
        {
          "internalType": "uint256",
          "name": "loanId",
          "type": "uint256"
        }
      ],
      "name": "claimDefaultCollateral",
      "outputs": [],
      "stateMutability": "nonpayable",
      "type": "function"
    },
    {
      "inputs": [
        {
          "internalType": "uint256",
          "name": "loanId",
          "type": "uint256"
        }
      ],
      "name": "repayLiquidatedLoan",
      "outputs": [],
      "stateMutability": "payable",
      "type": "function"
    },
    {
      "inputs": [
        {
          "internalType": "uint256",
          "name": "loanId",
          "type": "uint256"
        }
      ],
      "name": "liquidateLoan",
      "outputs": [],
      "stateMutability": "nonpayable",
      "type": "function"
    },
    {
      "inputs": [
        {
          "internalType": "address",
          "name": "ltv_",
          "type": "address"
        },
        {
          "internalType": "address",
          "name": "activity_",
          "type": "address"
        },
        {
          "internalType": "address",
          "name": "priceFeed_",
          "type": "address"
        }
      ],
      "name": "setFeeds",
      "outputs": [],
      "stateMutability": "nonpayable",
      "type": "function"
    },
    {
      "inputs": [
        {
          "internalType": "address",
          "name": "vaultManager_",
          "type": "address"
        },
        {
          "internalType": "address",
          "name": "loanManager_",
          "type": "address"
        },
        {
          "internalType": "address",
          "name": "offerManager_",
          "type": "address"
        },
        {
          "internalType": "address",
          "name": "feeManager_",
          "type": "address"
        }
      ],
      "name": "setManagers",
      "outputs": [],
      "stateMutability": "nonpayable",
      "type": "function"
    },
    {
      "inputs": [
        {
          "internalType": "address",
          "name": "token",
          "type": "address"
        },
        {
          "internalType": "address payable",
          "name": "receiver",
          "type": "address"
        },
        {
          "internalType": "uint256",
          "name": "amount",
          "type": "uint256"
        }
      ],
      "name": "claim",
      "outputs": [],
      "stateMutability": "nonpayable",
      "type": "function"
    }
  ],
  "bytecode": "0x6080806040523461006a5760016000818155600280546001600160a01b03199081169091558254908116339081179093556001600160a01b0316907f8be0079c531659141344cd1fd0a4f28419497f9722a3daafe3b4186f6b6457e09080a361431990816100708239f35b600080fdfe6080604052600436101561001257600080fd5b6000803560e01c80630548db12146138175780632672a87a146132c75780632b994b431461314f5780632d7788db146130f45780632e476337146130cb5780634add7c8214612bf357806353188b14146127d75780635c7f31aa1461235c57806361ba944314612347578063628118ee14611f21578063715018a614611eb957806379ba509714611df55780637cc5805a14611c225780638c21eb8b14611b925780638da5cb5b14611b69578063996cba6814611a37578063a33928da146115f0578063a6aea415146114e6578063b2ac850d1461146d578063b85a8b2014611451578063c1bc89ef14611266578063c49785b41461115c578063cc3266e814611139578063ccdd9f5d14610d30578063e0b2695914610cfc578063e0f7dffd14610ccf578063e30c397814610ca6578063e826fbe7146104da578063e9d1f8df1461033d578063f2fde38b146102cf5763f9af05791461017257600080fd5b34610264576020366003190112610264578060043561018f6139e7565b60018060a01b0382816007541660405190632820036560e11b8252846004830152816024816102809586945af19182156102c4578592610297575b505083826040830151166000805160206142c4833981519152811460001461027f575080806101c081940151818115610276575b3390f115610267575b60075416803b156102725760405163f400c74360e01b8152600481019290925233602483015282908290818381604481015b03925af1801561026757610250575b506001905580f35b61025990613901565b610264578038610248565b80fd5b6040513d84823e3d90fd5b5050fd5b506108fc6101fe565b90506101c0610292920151903390613ed9565b610207565b6102b69250803d106102bd575b6102ae818361392b565b810190614088565b38806101ca565b503d6102a4565b6040513d87823e3d90fd5b5034610264576020366003190112610264576102e961388c565b6102f1613965565b600280546001600160a01b0319166001600160a01b039283169081179091556001549091167f38d16b8cac22d99fc7c124b9cd0de2d3fa1faef420bfe791d8c362d765e227008380a380f35b5034610264576020366003190112610264578060043561035b6139e7565b60085460405163c58343ef60e01b8152600481018390526001600160a01b03916101c091908316908281602481855afa9283156104cf5786936104a0575b505060016101a08301516103ac81613e4d565b6103b581613e4d565b0361049c57846101008301516024604051809481936322bc934560e11b835260048301525afa80156102c45761016084918793849161047a575b500151166000805160206142c483398151915281036104625750808061014081940151818115610459575b3390f115610267575b60085416803b1561027257604051639498506560e01b815260048101929092523360248301528290829081838160448101610239565b506108fc61041a565b9050610140610475920151903390613ed9565b610423565b61049691503d8086833e61048e818361392b565b810190613cdc565b386103ef565b8480fd5b6104c0929350803d106104c8575b6104b8818361392b565b810190613f12565b903880610399565b503d6104ae565b6040513d88823e3d90fd5b506060366003190112610264576104ef6138ce565b6104f76138b8565b6104ff6139e7565b610508826141d9565b6008546040516322bc934560e11b81526004803590820152926001600160a01b03909116908484602481855afa9384156102c4578594610c8a575b50604051633970062960e01b815260048035908201526001600160a01b0384166024820152916020908390604490829089905af19182156102c4576105a392610593918791610c5b575b5061403c565b61ffff608085015191169061429f565b60048054604085810151905163912d228f60e01b81526001600160a01b039182169381019390935260248301849052602091839160449183918a91165af19081156102c4578591610c28575b506005546040516322a0fe3360e21b81523360048201526024810192909252602090829060449082906001600160a01b03165afa9081156102c4578591610bee575b50600480546040868101519051631c07d98160e21b81526001600160a01b0391821693810193909352858116602484015260448301859052602091839160649183918b91165af19081156104cf578691610bbc575b50600554604051636882509b60e11b815290602090829060049082906001600160a01b03165afa908115610bb1578791610b6b575b506106d39260ff6106cd92169061400e565b9061429f565b6000805160206142c48339815191529390856001600160a01b038516868103610b55575050348110610b185785945b60408301516001600160a01b03169084908203610b085750508480848015610afe575b8280929181923390f115610af3575b6006546101208301516001600160a01b039081169116803b15610aef5761077b87929183926040519485809481936320e8c56560e01b8352898d60043592600486016139bd565b03925af19081156104cf578691610adb575b505060065461012083015160408401516001600160a01b03928316929081169116823b15610ad7576107de928689809460405196879586948593631effa54360e21b855260043592600486016139bd565b03925af19081156104cf578691610ac3575b50506004805460405163912d228f60e01b81526001600160a01b0387811693820193909352602481018490529591602091879160449183918b91165af19485156104cf578695610a8a575b506007546101c084015160209286926001600160a01b031691899061085f81613e4d565b6108b28a60018060a01b0360408b0151169260a08b015161ffff60c08d015116908c61012060018060a01b0391015116936040519c8d9b8c9a8b9963298b04a560e01b8b52339760043560048d01613e6d565b03925af180156102c457610a5b575b506008546001600160a01b0316803b1561049c57848091604460405180948193631b6eb38160e21b835260043560048401528860248401525af19081156102c4578591610a47575b505060048054604092830151925163912d228f60e01b81526001600160a01b0393841692810192909252602482019390935291602091839116818681604481015b03925af19081156109fd578391610a0d575b506003546001600160a01b0316803b15610a08576040516311eba9df60e21b8152336004820152602481019290925283908290604490829084905af19081156109fd5783916109e6575b50506003546001600160a01b0316803b156102725760405163094f618d60e11b815233600482015260248101929092528290829081838160448101610239565b6109ef90613901565b6109fa5781386109a6565b50fd5b6040513d85823e3d90fd5b505050fd5b9250506020823d602011610a3f575b81610a296020938361392b565b81010312610a3a578291513861095c565b600080fd5b3d9150610a1c565b610a5090613901565b610a08578338610909565b6020809295503d8311610a83575b610a73818361392b565b81010312610a3a578392386108c1565b503d610a69565b955093506020853d602011610abb575b81610aa76020938361392b565b81010312610a3a579351859490938361083b565b3d9150610a9a565b610acc90613901565b61049c5784386107f0565b8780fd5b610ae490613901565b61049c57843861078d565b8680fd5b6040513d86823e3d90fd5b6108fc9150610725565b610b13913390613ed9565b610734565b60405162461bcd60e51b815260206004820152601560248201527411549497d0d3d31310551154905317d05353d55395605a1b6044820152606490fd5b82610b669197929730903390613a3d565b610702565b90506020813d602011610ba9575b81610b866020938361392b565b81010312610aef576106d39260ff610ba06106cd93614000565b925050926106bb565b3d9150610b79565b6040513d89823e3d90fd5b90506020813d602011610be6575b81610bd76020938361392b565b81010312610a3a575138610686565b3d9150610bca565b90506020813d602011610c20575b81610c096020938361392b565b8101031261049c57610c1a90613cb9565b38610631565b3d9150610bfc565b90506020813d602011610c53575b81610c436020938361392b565b81010312610a3a575160206105ef565b3d9150610c36565b610c7d915060203d602011610c83575b610c75818361392b565b810190613a90565b3861058d565b503d610c6b565b610c9f9194503d8087833e61048e818361392b565b9238610543565b50346102645780600319360112610264576002546040516001600160a01b039091168152602090f35b5034610264576060366003190112610264576020610cf4604435602435600435614272565b604051908152f35b503461026457604036600319011261026457602435906001600160a01b0382168203610264576020610cf48360043561429f565b503461026457806020806003193601126109fa57610d4c613965565b610d546139e7565b8160018060a01b0391826007541660405190632820036560e11b82526004356004830152816024816102809687945af19283156102c457859361111a575b5050610da3610140830151426141b6565b92610dbb60a084019485519061012086015191614272565b600480546040868101516060880180519251631c07d98160e21b8082526001600160a01b0393891684169682019690965292871690911660248301526044820185905295939092918490849060649082908d908a165af19283156110db5789936110e6575b5083610e7a91888a8c610e458a6040816004541695015116948b8d51169351906141b6565b6040518881526001600160a01b0395861660048201529290941660248301526044820193909352938492839182906064820190565b03925af19081156110db5789916110a9575b50889084866009541660046040518095819363a001ecdd60e01b83525af190811561109e578a91611062575b610ec2925061429f565b9260e08701968751610ed486866141b6565b11610fcb57505050610ee682826141b6565b95519451818110610fae575050915b81806009541691511690803b15610aef5760405163ef6506db60e01b81526001600160a01b039290921660048301526024820184905286908290604490829084905af19081156104cf578691610f9a575b5050610f57906007541691846141b6565b90803b1561049c57604051633799ba3f60e01b81526004803590820152602481019390935260448301939093526064820152908290829081838160848101610239565b610fa390613901565b61049c578438610f46565b909550610fbf610fc59282976141b6565b906141b6565b91610ef5565b965160048054885160409a8b01519a5195865288166001600160a01b03908116928601929092529887161660248401526044830181905297509395909250839150829060649082908a9089165af19182156104cf578692611031575b5050918491610ef5565b8196508092503d831161105b575b611049818361392b565b81010312610a3a578493513880611027565b503d61103f565b90508482813d8311611097575b611079818361392b565b810103126110935761108d610ec292613cb9565b90610eb8565b8980fd5b503d61106f565b6040513d8c823e3d90fd5b809950848092503d83116110d4575b6110c2818361392b565b81010312610a3a578880985190610e8c565b503d6110b8565b6040513d8b823e3d90fd5b985091508288813d8111611113575b6110ff818361392b565b81010312610a3a5796518897909183610e20565b503d6110f5565b611131929350803d106102bd576102ae818361392b565b903880610d92565b50346102645780600319360112610264576020604051670de0b6b3a76400008152f35b5034610264576020366003190112610264578060043561117a6139e7565b60018060a01b0382816007541660405190632820036560e11b8252846004830152816024816102809586945af19182156102c4578592611249575b505083826060830151166000805160206142c48339815191528114600014611231575080806101e081940151818115611228575b3390f115610267575b60075416803b156102725760405163014b594760e71b815260048101929092523360248301528290829081838160448101610239565b506108fc6111e9565b90506101e0611244920151903390613ed9565b6111f2565b61125f9250803d106102bd576102ae818361392b565b38806111b5565b5060c0366003190112610264576004359061127f6138a2565b916044359267ffffffffffffffff841161144d573660238501121561144d578360040135936112ad8561394d565b6112ba604051918261392b565b8581526020918282016024819860051b83010191368311610ad757602401905b82821061142e5750505060643561ffff94858216809203610a3a576112fd6138f0565b906113066139e7565b6001600160a01b0393868516916000805160206142c4833981519152830361141c575034975b8560085416936040519563031137cd60e61b875260e487019460048801528a60248801526084356044880152606487015216608485015260e060a48501525180915261010483019890885b81811061140657505050818491818981819c3360c483015203925af19283156104cf5786936113d3575b505060065416803b1561049c5761023993858094604051968795869485936320e8c56560e01b855233600486016139bd565b819650809293503d83116113ff575b6113ec818361392b565b81010312610a3a578493519038806113a1565b503d6113e2565b825186168b529986019991860191600101611377565b9761142989303386613a3d565b61132c565b81356001600160a01b0381168103610a3a5781529084019084016112da565b8280fd5b5034610264578060031936011261026457602060405160648152f35b503461026457604036600319011261026457806114886138ce565b6114906139e7565b6008546001600160a01b031690813b156102725761ffff6064849283604051958694859363099bfe6b60e01b855260043560048601521660248401523360448401525af180156102675761025057506001905580f35b503461026457602036600319011261026457806004356115046139e7565b60018060a01b0382816007541660405190632820036560e11b8252846004830152816024816102809586945af19182156102c45785926115d3575b505083826060830151166000805160206142c483398151915281146000146115bb57508080610200819401518181156115b2575b3390f115610267575b60075416803b156102725760405163e41936d760e01b815260048101929092523360248301528290829081838160448101610239565b506108fc611573565b90506102006115ce920151903390613ed9565b61157c565b6115e99250803d106102bd576102ae818361392b565b388061153f565b506040366003190112610264576116056138ce565b61160d6139e7565b611616816141d9565b6008546040516322bc934560e11b815260048035908201526001600160a01b039184908290602490829086165afa908115610af3578491611a1d575b506101208101918083511633146119e257849361168861167d61ffff6101a08601519316809361429f565b91608085015161429f565b90604084019183835116816000805160206142c483398151915282146000146119be5790503410610aef578680808084888b51168282156119b5575bf1156104cf575b83600654169484875116956101608201968688511690823b156119b15760405163481fd22360e11b81526001600160a01b039182166004808301919091523360248301529290911660448201526064810186905290356084820152908990829060a490829084905af19081156110db57899161199d575b5060048054885160405163912d228f60e01b808252918a166001600160a01b031693810193909352602483018790526020999094939092918a91839160449183918d165af1908115611992578b9161195f575b50849289928c896117f68c958f8c908860075416978051938a806101c0840151986117bf8a613e4d565b51169951169a61ffff60c060a085015194015116935116936040519d8e9c8d9b8c9a63298b04a560e01b8c52339960048d01613e6d565b03925af180156110db57611931575b508460085416803b1561192d57604051633496841f60e11b8152600480359082015260248101849052604481019490945288908490606490829084905af180156119225786938991611909575b5060048054955160405193845287166001600160a01b031690830152602482019290925292839160449183919087165af19283156102c45785936118d6575b5050806003541692511690823b15610a08576040516311eba9df60e21b81526001600160a01b0390921660048301526024820152908290829081838160448101610239565b819550809293503d8311611902575b6118ef818361392b565b81010312610a3a57839251903880611891565b503d6118e5565b61191591929450613901565b610aef5784918738611852565b6040513d8a823e3d90fd5b8880fd5b86809299503d8311611958575b611948818361392b565b81010312610a3a57879638611805565b503d61193e565b809b50898092503d831161198b575b611978818361392b565b81010312610a3a5798518a999084611795565b503d61196e565b6040513d8d823e3d90fd5b6119a690613901565b610ad7578738611742565b8a80fd5b506108fc6116c4565b6119cb9130903390613a3d565b6119dd81858551168689511690613ed9565b6116cb565b60405162461bcd60e51b815260206004820152601360248201527222a9292fa1a0a72a2fa127a92927abafa7aba760691b6044820152606490fd5b611a3191503d8086833e61048e818361392b565b38611652565b503461026457606036600319011261026457611a5161388c565b6001600160a01b0360243581811690819003611b655760443591611a73613965565b611a7b6139e7565b8215611b2e5784938160095416803b15611b2a576040516331b5f13d60e11b81526001600160a01b0383166004820152602481018690529086908290604490829084905af19081156104cf578691611b16575b5050166000805160206142c48339815191528103611b075750828092819282f115611afb575b6001815580f35b604051903d90823e3d90fd5b611b119350613ed9565b611af4565b611b1f90613901565b61049c578438611ace565b8580fd5b60405162461bcd60e51b815260206004820152600f60248201526e11549497d6915493d7d05353d55395608a1b6044820152606490fd5b8380fd5b50346102645780600319360112610264576001546040516001600160a01b039091168152602090f35b503461026457608036600319011261026457611bac61388c565b611bb46138a2565b90611bbd6138b8565b6064356001600160a01b0381811694909291859003610a3a578290611be0613965565b611be86139e7565b816001600160601b0360a01b9516856006541617600655168360075416176007551681600854161760085560095416176009556001815580f35b5060a036600319011261026457600435611c3a6138ce565b9060443561ffff92838216809203610a3a5784611c556138df565b94611c5e6139e7565b611c67836141d9565b6008546040516322bc934560e11b8152600481018790526001600160a01b039184908290602490829086165afa908115610af3578491611ddb575b506040611cb78460808401519716809761429f565b91019082825116816000805160206142c48339815191528214600014611dc9579050341061049c575b828060065416925116823b15611b2a57611d17928692838b93604051968795869485936320e8c56560e01b855233600486016139bd565b03925af18015610af357611daa575b509060209560c494939260085416916040519889978896630b438b8960e41b885260048801526064356024880152604487015216606485015233608485015260a48401525af1801561026757611d7f575b506001815580f35b602090813d8111611da3575b611d95818361392b565b81010312610a3a5738611d77565b503d611d8b565b92611db88193929594613901565b611dc55790919238611d26565b5080fd5b611dd69130903390613a3d565b611ce0565b611def91503d8086833e61048e818361392b565b38611ca2565b50346102645780600319360112610264576002546001600160a01b033381831603611e62576001600160601b0360a01b8092166002556001549133908316176001553391167f8be0079c531659141344cd1fd0a4f28419497f9722a3daafe3b4186f6b6457e0600080a380f35b60405162461bcd60e51b815260206004820152602960248201527f4f776e61626c6532537465703a2063616c6c6572206973206e6f7420746865206044820152683732bb9037bbb732b960b91b6064820152608490fd5b5034610264578060031936011261026457611ed2613965565b600280546001600160a01b03199081169091556001805491821690556000906001600160a01b03167f8be0079c531659141344cd1fd0a4f28419497f9722a3daafe3b4186f6b6457e08280a380f35b5060403660031901126102645760043581611f3a6138ce565b611f426139e7565b611f4b816141d9565b600754604051632820036560e11b8152600481018590526001600160a01b03946102809490928591839160249183918a165af19384156104cf578694612328575b5050836102408401511633036122f05784938492611faf610140860151426141b6565b94611fe3611fd5611fca61ffff60808501519516809561429f565b9360c084015161429f565b966101208301519084614272565b93611fee83866141b6565b9184600954166040519063a001ecdd60e01b82528160048160209b8c945af190811561109e578a916122b4575b50612029612030918561429f565b80946141b6565b91604086600954169201938685511690833b156122b05760405163ef6506db60e01b81526001600160a01b039290921660048301526024820152918a908390604490829084905af192831561109e578a86938a95612292575b508760075416926120c76040519c8d968795869463094bb9f160e11b8652600486019094939260609260808301968352602083015260408201520152565b03925af1958615610bb1578796612273575b5086838251166000805160206142c4833981519152811460001461225d575050833410610aef5786935b8561214f856004541661211a8688875116956141b6565b60405163912d228f60e01b8082526001600160a01b039096166004820152602481019190915297889283919082906044820190565b03925af1948515611922578895612225575b5060048054925160405192835285166001600160a01b03169082015260248101929092528490829060449082908a9087165af19384156104cf5786946121f2575b505060035416803b1561049c5784928360849260405196879586946311dd211f60e31b865233600487015260248601526044850152151560648401525af180156102675761025057506001905580f35b819650809294503d831161221e575b61220b818361392b565b81010312610a3a578493519138806121a2565b503d612201565b9297509350908481813d8111612256575b612240818361392b565b81010312610a3a57518796909390919085612161565b503d612236565b8561226e9196929630903390613a3d565b612103565b61228b919650853d8711610c8357610c75818361392b565b94386120d9565b909294506122a1919350613901565b61192d57869184918a38612089565b8b80fd5b90508781813d83116122e9575b6122cb818361392b565b81010312611093576120296122e261203092613cb9565b915061201b565b503d6122c1565b60405162461bcd60e51b815260206004820152601060248201526f22a9292fa727aa2fa127a92927aba2a960811b6044820152606490fd5b61233f929450803d106102bd576102ae818361392b565b913880611f8c565b50602036600319011261026457611af46139e7565b506020366003190112610264576123716139e7565b60085460405163c58343ef60e01b8152600480359082015282916001600160a01b0316906101c081602481855afa9081156109fd5783916127b6575b50826101008201516024604051809581936322bc934560e11b835260048301525afa9182156109fd57839261279a575b506123f66101a083015161ffff6040840151169061429f565b9161240e608082015161ffff6040850151169061429f565b60408201519092906001600160a01b0316836000805160206142c4833981519152820361278a5750508480848015612780575b8280929181923390f115610af3575b60065460e0820151610160840151610100840151926001600160a01b039182169282169116803b1561192d5788928389936124a1604051978896879586946320e8c56560e01b8652600486016139bd565b03925af19081156104cf57869161276c575b505060065460e08201516040840151610100840151926001600160a01b039182169282169116803b1561192d57889283889361250560405197889687958694631effa54360e21b8652600486016139bd565b03925af19081156104cf578691612758575b50506004805461016084015160405163912d228f60e01b81526001600160a01b039182169381019390935260248301879052919591602091879160449183918b91165af19485156104cf57869561271f575b506007546101008301516101c0850151869460209490936001600160a01b031692918a916125f59061259a83613e4d565b60018060a01b0360408b0151169460018060a01b036101608c015116978d60808201519061ffff6060840151169260e060018060a01b0391015116946040519d8e9c8d9b8c9a63298b04a560e01b8c52339860048d01613e6d565b03925af180156102c4576126f0575b5060018060a01b03600854168151813b15611b2a578591604483926040519485938492631b6eb38160e21b845260048401528860248401525af19081156102c45785916126dc575b50506008546001600160a01b0316803b1561049c57604051636d5d42c560e11b815260048035908201523360248201529085908290604490829084905af19081156102c4578591610a4757505060048054604092830151925163912d228f60e01b81526001600160a01b03938416928101929092526024820193909352916020918391168186816044810161094a565b6126e590613901565b610a0857833861264c565b6020809295503d8311612718575b612708818361392b565b81010312610a3a57839238612604565b503d6126fe565b955093506020853d602011612750575b8161273c6020938361392b565b81010312610a3a5793518594909383612569565b3d915061272f565b61276190613901565b61049c578438612517565b61277590613901565b61049c5784386124b3565b6108fc9150612441565b612795913390613ed9565b612450565b6127af9192503d8085833e61048e818361392b565b90386123dd565b6127d191506101c03d6101c0116104c8576104b8818361392b565b386123ad565b5060c036600319011261026457806127ed61388c565b6127f56138b8565b6127fd6138df565b6128056138f0565b61280d6139e7565b6004805460405163912d228f60e01b81526001600160a01b03878116938201939093526024803590820152602096929592918790829060449082908c908b165af1908115611922578891612bc0575b506005546040516322a0fe3360e21b815233600482015260248101929092528790829060449082908a165afa908115611922578891612b8b575b5060048054604051631c07d98160e21b81526001600160a01b03858116938201939093529185166024808401919091523560448301528890829060649082908d908c165af19081156110db578991612b5a575b50600488886005541660405192838092636882509b60e11b82525afa90811561109e578a91612b19575b506129259260ff6106cd92169061400e565b938286169387878a6000805160206142c48339815191528803612afe5750505085341061192d578792896101049289945b856008541691604051998a97889663486c386960e11b885216600487015260248601528a60448601526024356064860152606435608486015261ffff80921660a48601521660c48401523360e48401525af19182156104cf578692612acc575b508360065416803b15610aef576040516320e8c56560e01b815292879184918290849082906129eb908a8933600486016139bd565b03925af180156104cf5785928791612ab3575b50506004805460405163912d228f60e01b81526001600160a01b03939093169183019190915260248201939093529182906044908290889087165af1928315610af3578493612a80575b505060035416803b156102725760405163094f618d60e11b815233600482015260248101929092528290829081838160448101610239565b819450809293503d8311612aac575b612a99818361392b565b81010312610a3a57829151903880612a48565b503d612a8f565b612abf91929350613901565b61049c57839085386129fe565b955090508385813d8111612af7575b612ae5818361392b565b81010312610a3a5785945190386129b6565b503d612adb565b90939261010493612b148a97949730338c613a3d565b612956565b90508881813d8311612b53575b612b30818361392b565b81010312611093576129259260ff612b4a6106cd93614000565b92505092612913565b503d612b26565b809950888092503d8311612b84575b612b73818361392b565b81010312610a3a57889751386128e9565b503d612b69565b90508681813d8311612bb9575b612ba2818361392b565b81010312610ad757612bb390613cb9565b38612896565b503d612b98565b809850878092503d8311612bec575b612bd9818361392b565b81010312610a3a5795518796908661285c565b503d612bcf565b503461026457602036600319011261026457612c0d6139e7565b60085460405163c58343ef60e01b8152600480359082015282916001600160a01b03166101c082602481845afa9182156109fd5783926130a8575b50826101008301516024604051809481936322bc934560e11b835260048301525afa9081156109fd57839161308e575b50612c90608082015161ffff6040850151169061429f565b60408201519091906001600160a01b0316826000805160206142c4833981519152820361306f5760e0850151869250829182918291906001600160a01b0316828215613066575bf1156109fd575b60065460e0840151610120850151610140860151610100870151936001600160a01b039384169391929082169116813b1561192d5760405163481fd22360e11b81526001600160a01b0394851660048201523360248201529316604484015260648301919091526084820192909252908590829060a490829084905af19081156102c4578591613052575b505060065460408201516101008501516001600160a01b039283169290911690823b15610aef57612db6928588809460405196879586948593631effa54360e21b855233600486016139bd565b03925af19081156102c457859161303e575b505081602060018060a01b0360075416610100860151906101c0850151612dee81613e4d565b8860018060a01b0360408801511691612e5960018060a01b036101208c015116956101408c01518c61016081015160808201519061ffff6060840151169260e060018060a01b0391015116936040519d8e9c8d9b8c9a63298b04a560e01b8c52339960048d01613e6d565b03925af180156102c45761300f575b5060018060a01b0360085416610100840151610140850151823b15610aef57604051633496841f60e11b815260048101929092526024820185905260448201529085908290606490829084905af19081156102c4578591612ffb575b50506008546001600160a01b0316803b1561049c57604051636d5d42c560e11b815260048035908201523360248201529085908290604490829084905af19081156102c4578591612fe7575b505060048054604092830151925163912d228f60e01b81526001600160a01b0393841692810192909252602482019390935291602091839160449183918891165af19081156109fd578391612fb2575b5060035460e0909201516001600160a01b03928316921690823b15610a08576040516311eba9df60e21b81526001600160a01b0390921660048301526024820152908290829081838160448101610239565b9250506020823d602011612fdf575b81612fce6020938361392b565b81010312610a3a5782915138612f60565b3d9150612fc1565b612ff090613901565b610a08578338612f10565b61300490613901565b610a08578338612ec4565b6020809295503d8311613037575b613027818361392b565b81010312610a3a57839238612e68565b503d61301d565b61304790613901565b610a08578338612dc8565b61305b90613901565b610a08578338612d69565b506108fc612cd7565b60e0850151613089926001600160a01b0390911690613ed9565b612cde565b6130a291503d8085833e61048e818361392b565b38612c78565b6130c49192506101c03d6101c0116104c8576104b8818361392b565b9038612c48565b503461026457806003193601126102645760206040516000805160206142c48339815191528152f35b50346102645760203660031901126102645761310e6139e7565b60085481906001600160a01b0316803b156109fa5760405163774d3df560e01b81526004803590820152336024820152908290829081838160448101610239565b5034610264576020366003190112610264578060043561316d6139e7565b60085460405163c58343ef60e01b8152600481018390526001600160a01b03916101c091908316908281602481855afa9283156104cf5786936132a8575b50506101a08201516131bc81613e4d565b6131c581613e4d565b61049c57846101008301516024604051809481936322bc934560e11b835260048301525afa9081156102c457859284918493613285575b5061321660409161ffff836080870151920151169061429f565b920151166000805160206142c48339815191528103613279575081808092818115610459573390f1156102675760085416803b1561027257604051639498506560e01b815260048101929092523360248301528290829081838160448101610239565b61047592503390613ed9565b60409193506132a0613216913d8088833e61048e818361392b565b9391506131fc565b6132bf929350803d106104c8576104b8818361392b565b9038806131ab565b5060c0366003190112610264576132dc6138ce565b906132e56138b8565b906132ee6138df565b916132f76138f0565b936133006139e7565b613309816141d9565b6008546040516322bc934560e11b815260048035908201526001600160a01b03909116959084816024818a5afa9081156102c45785916137fd575b50604051633970062960e01b815260048035908201526001600160a01b0385166024820152966020908890604490829089905af19687156102c4576133ee97613393918791610c5b575061403c565b6133a6608082015161ffff85169061429f565b60048054604080850151905163912d228f60e01b81526001600160a01b03918216938101939093526024830184905291999293926020928b92169082908a9082906044820190565b03925af19788156104cf5786986137c8575b506005546040516322a0fe3360e21b8152336004820152602481019990995296979596602090879060449082906001600160a01b03165afa958615610bb1578796613784575b50600480546040928301519251631c07d98160e21b81526001600160a01b03938416928101929092528287166024830152604482019390935291602091839116818981606481015b03925af19081156104cf578691613752575b50600554604051636882509b60e11b815290602090829060049082906001600160a01b03165afa908115610bb157879161370c575b50906106cd60ff6134e793168761400e565b906001600160a01b0384166000805160206142c4833981519152036136f257348210611b2a575b6006546001600160a01b031696873b15610aef578660405180996320e8c56560e01b82528183816135476004358a8d33600486016139bd565b03925af18015610bb1576136de575b6004805460405163912d228f60e01b81526001600160a01b03888116938201939093526024810186905298995089989791602091899160449183918d91165af196871561192257889761369d575b50600854604051633bb1374b60e01b815261ffff9687166004808301919091526001600160a01b039889166024830152604482019690965260648082018a90529288166084820152913560a483015291851660c48201529190931660e48201523361010482015290356101248201529160209183916101449183918891165af180156109fd5761366e575b506003546001600160a01b0316803b156102725760405163094f618d60e11b815233600482015260248101929092528290829081838160448101610239565b6020809293503d8311613696575b613686818361392b565b81010312610a3a5781903861362f565b503d61367c565b9750955091926020873d6020116136d6575b816136bc6020938361392b565b81010312610a3a579551879690959093929061ffff6135a4565b3d91506136af565b9590966136ea90613901565b948690613556565b6137078230336001600160a01b038816613a3d565b61350e565b90506020813d60201161374a575b816137276020938361392b565b81010312610aef57906106cd60ff6137416134e794614000565b929350506134d5565b3d915061371a565b90506020813d60201161377c575b8161376d6020938361392b565b81010312611b2a5751386134a0565b3d9150613760565b9095506020813d6020116137c0575b816137a06020938361392b565b81010312610aef5761348e916137b7602092613cb9565b96915091613446565b3d9150613793565b97506020883d6020116137f5575b816137e36020938361392b565b81010312611b2a579651966020613400565b3d91506137d6565b61381191503d8087833e61048e818361392b565b38613344565b50346102645760603660031901126102645761383161388c565b6138396138a2565b6138416138b8565b613849613965565b6138516139e7565b60018060a01b038092816001600160601b0360a01b951685600554161760055516836003541617600355169060045416176004556001815580f35b600435906001600160a01b0382168203610a3a57565b602435906001600160a01b0382168203610a3a57565b604435906001600160a01b0382168203610a3a57565b6024359061ffff82168203610a3a57565b6084359061ffff82168203610a3a57565b60a4359061ffff82168203610a3a57565b67ffffffffffffffff811161391557604052565b634e487b7160e01b600052604160045260246000fd5b90601f8019910116810190811067ffffffffffffffff82111761391557604052565b67ffffffffffffffff81116139155760051b60200190565b6001546001600160a01b0316330361397957565b606460405162461bcd60e51b815260206004820152602060248201527f4f776e61626c653a2063616c6c6572206973206e6f7420746865206f776e65726044820152fd5b6001600160a01b039182168152911660208201526040810191909152606081019190915260800190565b6002600054146139f8576002600055565b60405162461bcd60e51b815260206004820152601f60248201527f5265656e7472616e637947756172643a207265656e7472616e742063616c6c006044820152606490fd5b6040516323b872dd60e01b60208201526001600160a01b0392831660248201529290911660448301526064820192909252613a8e91613a8982608481015b03601f19810184528361392b565b613aa8565b565b90816020910312610a3a57518015158103610a3a5790565b6040805167ffffffffffffffff94936001600160a01b03909316929091820185811183821017613915576040526020928383527f5361666545524332303a206c6f772d6c6576656c2063616c6c206661696c6564848401526000808386829551910182855af1903d15613bd8573d968711613bc457613b4894959660405190613b3a88601f19601f840116018361392b565b81528093873d92013e613be5565b80519081613b5557505050565b8280613b65938301019101613a90565b15613b6d5750565b6084906040519062461bcd60e51b82526004820152602a60248201527f5361666545524332303a204552433230206f7065726174696f6e20646964206e6044820152691bdd081cdd58d8d9595960b21b6064820152fd5b634e487b7160e01b83526041600452602483fd5b9150613b48939495506060915b91929015613c475750815115613bf9575090565b3b15613c025790565b60405162461bcd60e51b815260206004820152601d60248201527f416464726573733a2063616c6c20746f206e6f6e2d636f6e74726163740000006044820152606490fd5b825190915015613c5a5750805190602001fd5b6040519062461bcd60e51b82528160208060048301528251908160248401526000935b828510613ca0575050604492506000838284010152601f80199101168101030190fd5b8481018201518686016044015293810193859350613c7d565b51906001600160a01b0382168203610a3a57565b519061ffff82168203610a3a57565b6020918282820312610a3a57815167ffffffffffffffff92838211610a3a5701916101e0938484840312610a3a57604051948501858110838211176139155760405283518552808401516002811015610a3a5781860152613d3f60408501613cb9565b6040860152606084015160608601526080840151608086015260a084015160a0860152613d6e60c08501613ccd565b60c086015260e084015160e08601526101008085015190860152610120613d96818601613cb9565b908601526101409182850151908111610a3a5784019280601f85011215610a3a578351613dc28161394d565b94613dd0604051968761392b565b818652838087019260051b820101928311610a3a578301905b828210613e365750505050830152610160613e05818301613cb9565b9083015261018080820151908301526101a080820151908301526101c080910151906002821015610a3a5782015290565b838091613e4284613cb9565b815201910190613de9565b60021115613e5757565b634e487b7160e01b600052602160045260246000fd5b9995919b9a97939894909b9692966101608b019c8b52613e8c81613e4d565b60208b0152600160a01b6001900380998180991660408d01521660608b015260808a015260a089015260c088015260e087015261ffff166101008601521661012084015216906101400152565b60405163a9059cbb60e01b60208201526001600160a01b0390921660248301526044820192909252613a8e91613a898260648101613a7b565b80916101c09283910312610a3a5760405191820182811067ffffffffffffffff821117613915576040528051825260208101516004811015610a3a576020830152613f5f60408201613ccd565b6040830152613f7060608201613ccd565b60608301526080810151608083015260a081015160a083015260c081015160c0830152613f9f60e08201613cb9565b60e08301526101008082015190830152610120613fbd818301613cb9565b9083015261014080820151908301526101608082015190830152610180613fe5818301613cb9565b908301526101a080910151906002821015610a3a5782015290565b519060ff82168203610a3a57565b6001600160a01b039182169190821561402657160490565b634e487b7160e01b600052601260045260246000fd5b1561404357565b60405162461bcd60e51b815260206004820152601c60248201527f4552525f434f4c4c41544552414c5f4e4f545f535550504f52544544000000006044820152606490fd5b80916102809283910312610a3a5760405191820182811067ffffffffffffffff821117613915576040528051825260208101516004811015610a3a5760208301526140d560408201613cb9565b60408301526140e660608201613cb9565b60608301526080810151608083015260a081015160a083015260c081015160c083015260e081015160e0830152610100808201519083015261012080820151908301526101408082015190830152610160808201519083015261018061414d818301613ccd565b908301526101a061415f818301614000565b908301526101c080820151908301526101e080820151908301526102008082015190830152610220808201519083015261024061419d818301613cb9565b908301526141af610260809201613cb9565b9082015290565b919082039182116141c357565b634e487b7160e01b600052601160045260246000fd5b61ffff809116606481116142285760199006166141f257565b60405162461bcd60e51b815260206004820152600e60248201526d4552525f50455243454e5441474560901b6044820152606490fd5b60405162461bcd60e51b815260206004820152600f60248201526e4f5645525f50455243454e5441474560881b6044820152606490fd5b818102929181159184041417156141c357565b9161429160649261428c670de0b6b3a7640000938661425f565b61425f565b040481018091116141c35790565b906001600160a01b031680156142bf576142bb9060649261425f565b0490565b509056fe000000000000000000000000eeeeeeeeeeeeeeeeeeeeeeeeeeeeeeeeeeeeeeeea2646970667358221220c57a217e53cbab9a4fa5e587299ff718c5601931a1587b04a4ebffcd76f42f3d64736f6c63430008110033",
  "immutableReferences": {},
  "source": "// SPDX-License-Identifier: GPL-3.0\r\npragma solidity >=0.7.0 <0.9.0;\r\n\r\nimport \"./Activity.sol\";\r\n\r\nimport \"./libraries/Errors.sol\";\r\n\r\nimport \"./math/SimpleInterest.sol\";\r\n\r\nimport \"./interfaces/IPriceFeed.sol\";\r\nimport \"./interfaces/IFeeManager.sol\";\r\nimport \"./interfaces/IVaultManager.sol\";\r\nimport \"./interfaces/IOfferManager.sol\";\r\nimport \"./interfaces/ILoanManager.sol\";\r\nimport \"./interfaces/ILoanToValueRatio.sol\";\r\n\r\nimport \"@openzeppelin/contracts/utils/Context.sol\";\r\nimport \"@openzeppelin/contracts/token/ERC20/ERC20.sol\";\r\nimport \"@openzeppelin/contracts/token/ERC20/utils/SafeERC20.sol\";\r\nimport \"@openzeppelin/contracts/security/ReentrancyGuard.sol\";\r\nimport \"@openzeppelin/contracts/access/Ownable2Step.sol\";\r\n\r\n/*\r\n    LendingPool is the core contract of the DARSH protocol.\r\n    It interacts with managers, price feed, loan-to-Value ratio, math libraries,\r\n    trust score, and others to carry out the peer to peer functionality.\r\n*/\r\n\r\ncontract LendingPool is Context, ReentrancyGuard, SimpleInterest, Ownable2Step {\r\n    using SafeERC20 for ERC20;\r\n\r\n    Activity private _activity;\r\n    IPriceFeed private _priceFeed;\r\n    ILoanToValueRatio private _ltv;\r\n\r\n    // managers\r\n    IVaultManager private _vaultManager;\r\n    ILoanManager private _loanManager;\r\n    IOfferManager private _offerManager;\r\n    IFeeManager private _feeManager;\r\n\r\n    address public constant nativeAddress =\r\n        0xEeeeeEeeeEeEeeEeEeEeeEEEeeeeEeeeeeeeEEeE;\r\n\r\n    constructor() ReentrancyGuard() Ownable2Step() {}\r\n\r\n    // @lenders\r\n    function createLendingOffer(\r\n        uint256 principalAmount_, // only for ERC20 assets\r\n        address principalToken,\r\n        address[] memory collateralTokens,\r\n        uint16 daysToMaturity,\r\n        uint256 interest,\r\n        uint16 daysToExpire\r\n    ) public payable nonReentrant {\r\n        uint256 principalAmount;\r\n\r\n        /* extract tokens from lender */\r\n        if (principalToken == nativeAddress) {\r\n            principalAmount = msg.value;\r\n        } else {\r\n            principalAmount = principalAmount_;\r\n            ERC20(principalToken).safeTransferFrom(\r\n                _msgSender(),\r\n                address(this),\r\n                principalAmount\r\n            );\r\n        }\r\n\r\n        /* create the lending offer */\r\n        uint256 offerId = _offerManager.createLendingOffer(\r\n            principalToken,\r\n            principalAmount,\r\n            interest,\r\n            daysToMaturity,\r\n            daysToExpire,\r\n            collateralTokens,\r\n            _msgSender()\r\n        );\r\n\r\n        /* delegate principal to lender */\r\n        _vaultManager.deposit(\r\n            _msgSender(),\r\n            principalToken,\r\n            principalAmount,\r\n            offerId\r\n        );\r\n    }\r\n\r\n    // @lenders\r\n    function createLendingRequest(\r\n        uint256 offerId,\r\n        uint16 percentage,\r\n        uint16 daysToMaturity,\r\n        uint256 interest,\r\n        uint16 hoursToExpire\r\n    ) public payable nonReentrant {\r\n        _checkPercentage(percentage);\r\n\r\n        OfferLibrary.Offer memory offer = _offerManager.getOffer(offerId);\r\n\r\n        uint256 principalAmount = percentageOf(\r\n            offer.initialPrincipal,\r\n            percentage\r\n        );\r\n\r\n        /* extract tokens from lender */\r\n        if (offer.principalToken == nativeAddress) {\r\n            require(msg.value >= principalAmount);\r\n        } else {\r\n            ERC20(offer.principalToken).safeTransferFrom(\r\n                _msgSender(),\r\n                address(this),\r\n                principalAmount\r\n            );\r\n        }\r\n\r\n        /* delegate principal to lender */\r\n        _vaultManager.deposit(\r\n            _msgSender(),\r\n            offer.principalToken,\r\n            principalAmount,\r\n            offerId\r\n        );\r\n\r\n        /* create the lending request */\r\n        _offerManager.createLendingRequest(\r\n            percentage,\r\n            interest,\r\n            daysToMaturity,\r\n            hoursToExpire,\r\n            _msgSender(),\r\n            offerId\r\n        );\r\n    }\r\n\r\n    // @lenders\r\n    function acceptBorrowingOffer(uint256 offerId, uint16 percentage)\r\n        public\r\n        payable\r\n        nonReentrant\r\n    {\r\n        _checkPercentage(percentage);\r\n\r\n        OfferLibrary.Offer memory offer = _offerManager.getOffer(offerId);\r\n\r\n        require(_msgSender() != offer.creator, \"ERR_CANT_BORROW_OWN\");\r\n\r\n        uint256 collateralAmount = percentageOf(\r\n            offer.initialCollateral,\r\n            percentage\r\n        );\r\n\r\n        uint256 principalAmount = percentageOf(\r\n            offer.initialPrincipal,\r\n            percentage\r\n        );\r\n\r\n        /* extract principal from lender/caller and transfer to borrower */\r\n        if (offer.principalToken == nativeAddress) {\r\n            require(msg.value >= principalAmount);\r\n            payable(offer.creator).transfer(principalAmount);\r\n        } else {\r\n            ERC20(offer.principalToken).safeTransferFrom(\r\n                _msgSender(),\r\n                address(this),\r\n                principalAmount\r\n            );\r\n            ERC20(offer.principalToken).safeTransfer(\r\n                offer.creator,\r\n                principalAmount\r\n            );\r\n        }\r\n\r\n        /* delegate the loan collateral to lender */\r\n        _vaultManager.transfer(\r\n            offer.creator,\r\n            _msgSender(),\r\n            offer.collateralToken,\r\n            collateralAmount,\r\n            offerId\r\n        );\r\n\r\n        uint256 collateralPriceInUSD = _priceFeed.amountInUSD(\r\n            offer.collateralToken,\r\n            collateralAmount\r\n        );\r\n\r\n        /* register the loan from the loan manager */\r\n        _loanManager.createLoan(\r\n            offer.offerId,\r\n            offer.offerType,\r\n            offer.principalToken,\r\n            offer.collateralToken,\r\n            principalAmount,\r\n            collateralAmount,\r\n            collateralPriceInUSD,\r\n            offer.interest,\r\n            offer.daysToMaturity,\r\n            offer.creator,\r\n            _msgSender()\r\n        );\r\n\r\n        // will revert the transaction if fail\r\n        _offerManager.afterOfferBorrowingLoan(\r\n            offerId,\r\n            principalAmount,\r\n            collateralAmount\r\n        );\r\n\r\n        // update activity\r\n        uint256 borrowedAmountInUSD = _priceFeed.amountInUSD(\r\n            offer.principalToken,\r\n            principalAmount\r\n        );\r\n        _activity._borrowLoan(offer.creator, borrowedAmountInUSD);\r\n    }\r\n\r\n    // @lenders\r\n    function acceptBorrowingRequest(uint256 requestId) public nonReentrant {\r\n        RequestLibrary.Request memory request = _offerManager.getRequest(\r\n            requestId\r\n        );\r\n\r\n        OfferLibrary.Offer memory offer = _offerManager.getOffer(\r\n            request.offerId\r\n        );\r\n\r\n        uint256 principalAmount = percentageOf(\r\n            offer.initialPrincipal,\r\n            request.percentage\r\n        );\r\n\r\n        /* transfer principal to borrower */\r\n        if (offer.principalToken == nativeAddress) {\r\n            payable(request.creator).transfer(principalAmount);\r\n        } else {\r\n            ERC20(offer.principalToken).safeTransfer(\r\n                request.creator,\r\n                principalAmount\r\n            );\r\n        }\r\n\r\n        /* delegate the loan collateral to lender */\r\n        _vaultManager.transfer(\r\n            request.creator,\r\n            _msgSender(),\r\n            request.collateralToken,\r\n            request.collateralAmount,\r\n            request.offerId\r\n        );\r\n\r\n        /* undelegate the principal from lender */\r\n        _vaultManager.withdraw(\r\n            _msgSender(),\r\n            offer.principalToken,\r\n            principalAmount,\r\n            request.offerId\r\n        );\r\n\r\n        /* register the loan from the loan manager */\r\n        _loanManager.createLoan(\r\n            request.offerId,\r\n            offer.offerType,\r\n            offer.principalToken,\r\n            request.collateralToken,\r\n            principalAmount,\r\n            request.collateralAmount,\r\n            request.collateralPriceInUSD,\r\n            request.interest,\r\n            request.daysToMaturity,\r\n            request.creator,\r\n            _msgSender()\r\n        );\r\n\r\n        // will revert the transaction if fail\r\n        _offerManager.afterOfferBorrowingLoan(\r\n            request.offerId,\r\n            principalAmount,\r\n            request.collateralAmount\r\n        );\r\n        _offerManager.acceptRequest(requestId, _msgSender());\r\n\r\n        // update activity\r\n        uint256 amountBorrowedInUSD = _priceFeed.amountInUSD(\r\n            offer.principalToken,\r\n            principalAmount\r\n        );\r\n        _activity._borrowLoan(request.creator, amountBorrowedInUSD);\r\n    }\r\n\r\n    // @borrower\r\n    function createBorrowingOffer(\r\n        address principalToken,\r\n        uint256 principalAmount,\r\n        address collateralToken,\r\n        uint256 interest,\r\n        uint16 daysToMaturity,\r\n        uint16 hoursToExpire\r\n    ) public payable nonReentrant {\r\n        uint256 principalAmountInUSD = _priceFeed.amountInUSD(\r\n            principalToken,\r\n            principalAmount\r\n        );\r\n\r\n        uint160 ltv = _ltv.getRelativeLTV(_msgSender(), principalAmountInUSD);\r\n\r\n        uint256 collateralNormalAmount = _priceFeed.exchangeRate(\r\n            principalToken,\r\n            collateralToken,\r\n            principalAmount\r\n        );\r\n\r\n        uint256 collateralAmount = percentageOf(\r\n            collateralNormalAmount,\r\n            ltv / _ltv.getBase()\r\n        );\r\n\r\n        /* extract collateral from borrower */\r\n        if (collateralToken == nativeAddress) {\r\n            require(msg.value >= collateralAmount);\r\n        } else {\r\n            ERC20(collateralToken).safeTransferFrom(\r\n                _msgSender(),\r\n                address(this),\r\n                collateralAmount\r\n            );\r\n        }\r\n\r\n        /* create the offer */\r\n        uint256 offerId = _offerManager.createBorrowingOffer(\r\n            principalToken,\r\n            collateralToken,\r\n            collateralAmount,\r\n            principalAmount,\r\n            interest,\r\n            daysToMaturity,\r\n            hoursToExpire,\r\n            _msgSender()\r\n        );\r\n\r\n        /* delegate the collateral to borrower */\r\n        _vaultManager.deposit(\r\n            _msgSender(),\r\n            collateralToken,\r\n            collateralAmount,\r\n            offerId\r\n        );\r\n\r\n        // update activity\r\n        uint256 amountInUSD = _priceFeed.amountInUSD(\r\n            collateralToken,\r\n            collateralAmount\r\n        );\r\n        _activity._dropCollateral(_msgSender(), amountInUSD);\r\n    }\r\n\r\n    // @borrower\r\n    function createBorrowingRequest(\r\n        uint256 offerId,\r\n        uint16 percentage,\r\n        address collateralToken,\r\n        uint256 interest,\r\n        uint16 daysToMaturity,\r\n        uint16 hoursToExpire\r\n    ) public payable nonReentrant {\r\n        _checkPercentage(percentage);\r\n\r\n        OfferLibrary.Offer memory offer = _offerManager.getOffer(offerId);\r\n\r\n        require(\r\n            _offerManager.isCollateralSupported(offerId, collateralToken),\r\n            \"ERR_COLLATERAL_NOT_SUPPORTED\"\r\n        );\r\n\r\n        uint256 principalAmount = percentageOf(\r\n            offer.initialPrincipal,\r\n            percentage\r\n        );\r\n\r\n        uint256 principalPriceInUSD = _priceFeed.amountInUSD(\r\n            offer.principalToken,\r\n            principalAmount\r\n        );\r\n\r\n        uint160 ltv = _ltv.getRelativeLTV(_msgSender(), principalPriceInUSD);\r\n\r\n        uint256 collateralNormalAmount = _priceFeed.exchangeRate(\r\n            offer.principalToken,\r\n            collateralToken,\r\n            principalAmount\r\n        );\r\n\r\n        uint256 collateralAmount = percentageOf(\r\n            collateralNormalAmount,\r\n            ltv / _ltv.getBase()\r\n        );\r\n\r\n        /* extract collateral from borrower */\r\n        if (collateralToken == nativeAddress) {\r\n            require(collateralAmount >= msg.value);\r\n        } else {\r\n            ERC20(collateralToken).safeTransferFrom(\r\n                _msgSender(),\r\n                address(this),\r\n                collateralAmount\r\n            );\r\n        }\r\n\r\n        /* delegate the collateral to borrower */\r\n        _vaultManager.deposit(\r\n            _msgSender(),\r\n            collateralToken,\r\n            collateralAmount,\r\n            offerId\r\n        );\r\n\r\n        uint256 collateralPriceInUSD = _priceFeed.amountInUSD(\r\n            collateralToken,\r\n            collateralAmount\r\n        );\r\n\r\n        /* create the request */\r\n        _offerManager.createBorrowingRequest(\r\n            percentage,\r\n            collateralToken,\r\n            collateralAmount,\r\n            collateralPriceInUSD,\r\n            ltv,\r\n            interest,\r\n            daysToMaturity,\r\n            hoursToExpire,\r\n            _msgSender(),\r\n            offerId\r\n        );\r\n\r\n        // update activity\r\n        _activity._dropCollateral(_msgSender(), collateralPriceInUSD);\r\n    }\r\n\r\n    // @borrower\r\n    function acceptLendingOffer(\r\n        uint256 offerId,\r\n        uint16 percentage,\r\n        address collateralToken\r\n    ) public payable nonReentrant {\r\n        _checkPercentage(percentage);\r\n\r\n        OfferLibrary.Offer memory offer = _offerManager.getOffer(offerId);\r\n\r\n        require(\r\n            _offerManager.isCollateralSupported(offerId, collateralToken),\r\n            \"ERR_COLLATERAL_NOT_SUPPORTED\"\r\n        );\r\n\r\n        uint256 principalAmount = percentageOf(\r\n            offer.initialPrincipal,\r\n            percentage\r\n        );\r\n\r\n        uint256 principalPriceInUSD = _priceFeed.amountInUSD(\r\n            offer.principalToken,\r\n            principalAmount\r\n        );\r\n\r\n        uint160 ltv = _ltv.getRelativeLTV(_msgSender(), principalPriceInUSD);\r\n\r\n        /* calculate the collateral amount */\r\n        uint256 collateralNormalAmount = _priceFeed.exchangeRate(\r\n            offer.principalToken,\r\n            collateralToken,\r\n            principalAmount\r\n        );\r\n\r\n        uint256 collateralAmount = percentageOf(\r\n            collateralNormalAmount,\r\n            ltv / _ltv.getBase()\r\n        );\r\n\r\n        /* extract collateral tokens from borrower */\r\n        if (collateralToken == nativeAddress) {\r\n            require(collateralAmount >= msg.value, \"ERR_COLLATERAL_AMOUNT\");\r\n        } else {\r\n            ERC20(collateralToken).safeTransferFrom(\r\n                _msgSender(),\r\n                address(this),\r\n                collateralAmount\r\n            );\r\n        }\r\n\r\n        /* transfer the principal to borrower */\r\n        if (offer.principalToken == nativeAddress) {\r\n            payable(_msgSender()).transfer(principalAmount);\r\n        } else {\r\n            ERC20(offer.principalToken).safeTransfer(\r\n                _msgSender(),\r\n                principalAmount\r\n            );\r\n        }\r\n\r\n        /* delegate the loan collateral to lender */\r\n        _vaultManager.deposit(\r\n            offer.creator,\r\n            collateralToken,\r\n            collateralAmount,\r\n            offerId\r\n        );\r\n\r\n        /* undelegate the loan principal from lender */\r\n        _vaultManager.withdraw(\r\n            offer.creator,\r\n            offer.principalToken,\r\n            principalAmount,\r\n            offerId\r\n        );\r\n\r\n        uint256 collateralPriceInUSD = _priceFeed.amountInUSD(\r\n            collateralToken,\r\n            collateralAmount\r\n        );\r\n\r\n        /* register the loan */\r\n        _loanManager.createLoan(\r\n            offerId,\r\n            offer.offerType,\r\n            offer.principalToken,\r\n            collateralToken,\r\n            principalAmount,\r\n            collateralAmount,\r\n            collateralPriceInUSD,\r\n            offer.interest,\r\n            offer.daysToMaturity,\r\n            _msgSender(),\r\n            offer.creator\r\n        );\r\n\r\n        // will revert if transaction fail\r\n        _offerManager.afterOfferLendingLoan(offerId, principalAmount);\r\n\r\n        // update activity\r\n        uint256 amountBorrowedInUSD = _priceFeed.amountInUSD(\r\n            offer.principalToken,\r\n            principalAmount\r\n        );\r\n        _activity._borrowLoan(_msgSender(), amountBorrowedInUSD);\r\n        _activity._dropCollateral(_msgSender(), collateralPriceInUSD);\r\n    }\r\n\r\n    // @borrower\r\n    function acceptLendingRequest(uint256 requestId)\r\n        public\r\n        payable\r\n        nonReentrant\r\n    {\r\n        RequestLibrary.Request memory request = _offerManager.getRequest(\r\n            requestId\r\n        );\r\n\r\n        OfferLibrary.Offer memory offer = _offerManager.getOffer(\r\n            request.offerId\r\n        );\r\n\r\n        uint256 collateralAmount = percentageOf(\r\n            offer.initialCollateral,\r\n            request.percentage\r\n        );\r\n\r\n        uint256 principalAmount = percentageOf(\r\n            offer.initialPrincipal,\r\n            request.percentage\r\n        );\r\n\r\n        /* transfer principal to borrower */\r\n        if (offer.principalToken == nativeAddress) {\r\n            payable(_msgSender()).transfer(principalAmount);\r\n        } else {\r\n            ERC20(offer.principalToken).safeTransfer(\r\n                _msgSender(),\r\n                principalAmount\r\n            );\r\n        }\r\n\r\n        /* delegate the loan collateral to lender */\r\n        _vaultManager.deposit(\r\n            request.creator,\r\n            offer.collateralToken,\r\n            collateralAmount,\r\n            request.offerId\r\n        );\r\n\r\n        /* undelegate the loan principal from lender */\r\n        _vaultManager.withdraw(\r\n            request.creator,\r\n            offer.principalToken,\r\n            principalAmount,\r\n            request.offerId\r\n        );\r\n\r\n        uint256 collateralPriceInUSD = _priceFeed.amountInUSD(\r\n            offer.collateralToken,\r\n            collateralAmount\r\n        );\r\n\r\n        /* register the loan from the loan manager */\r\n        _loanManager.createLoan(\r\n            request.offerId,\r\n            offer.offerType,\r\n            offer.principalToken,\r\n            offer.collateralToken,\r\n            principalAmount,\r\n            collateralAmount,\r\n            collateralPriceInUSD,\r\n            request.interest,\r\n            request.daysToMaturity,\r\n            _msgSender(),\r\n            request.creator\r\n        );\r\n\r\n        // will revert the transaction if fail\r\n        _offerManager.afterOfferLendingLoan(offer.offerId, principalAmount);\r\n        _offerManager.acceptRequest(requestId, _msgSender());\r\n\r\n        // update activityj\r\n        uint256 amountBorrowedInUSD = _priceFeed.amountInUSD(\r\n            offer.principalToken,\r\n            principalAmount\r\n        );\r\n        _activity._borrowLoan(_msgSender(), amountBorrowedInUSD);\r\n        _activity._dropCollateral(_msgSender(), collateralPriceInUSD);\r\n    }\r\n\r\n    // @lender\r\n    function reActivateOffer(uint256 offerId, uint16 toExpire)\r\n        public\r\n        nonReentrant\r\n    {\r\n        _offerManager.reActivateOffer(offerId, toExpire, _msgSender());\r\n    }\r\n\r\n    // @borrower\r\n    function repayLoan(uint256 loanId, uint16 percentage)\r\n        public\r\n        payable\r\n        nonReentrant\r\n    {\r\n        _checkPercentage(percentage);\r\n\r\n        LoanLibrary.Loan memory loan = _loanManager.getLoan(loanId);\r\n\r\n        // verify the borrower is the repayer\r\n        require(loan.borrower == _msgSender(), \"ERR_NOT_BORROWER\");\r\n\r\n        // calculate the duration of the loan\r\n        uint256 time = block.timestamp;\r\n        uint256 ellapsedSecs = (time - loan.startDate);\r\n\r\n        uint256 principalAmount = percentageOf(\r\n            loan.initialPrincipal,\r\n            percentage\r\n        );\r\n\r\n        uint256 collateralAmount = percentageOf(\r\n            loan.initialCollateral,\r\n            percentage\r\n        );\r\n\r\n        // calculate the pay back amount\r\n        uint256 repaymentPrincipal = getFullInterestAmount(\r\n            principalAmount,\r\n            ellapsedSecs,\r\n            loan.interest\r\n        );\r\n\r\n        uint256 interestPaid = (repaymentPrincipal - principalAmount);\r\n        uint256 fee = percentageOf(interestPaid, _feeManager.feePercentage());\r\n        uint256 unClaimedInterest = (interestPaid - fee);\r\n\r\n        _feeManager.credit(loan.principalToken, fee);\r\n\r\n        // will revert the transaction if fail\r\n        bool completed = _loanManager.repayLoan(\r\n            loanId,\r\n            unClaimedInterest,\r\n            principalAmount,\r\n            collateralAmount\r\n        );\r\n\r\n        /* extract pay back amount */\r\n        if (loan.principalToken == nativeAddress) {\r\n            require(msg.value >= repaymentPrincipal);\r\n        } else {\r\n            ERC20(loan.principalToken).safeTransferFrom(\r\n                _msgSender(),\r\n                address(this),\r\n                repaymentPrincipal\r\n            );\r\n        }\r\n\r\n        // update activity\r\n        uint256 interestPaidInUSD = _priceFeed.amountInUSD(\r\n            loan.principalToken,\r\n            (repaymentPrincipal - principalAmount)\r\n        );\r\n\r\n        uint256 amountPaidInUSD = _priceFeed.amountInUSD(\r\n            loan.principalToken,\r\n            principalAmount\r\n        );\r\n\r\n        _activity._repayLoan(\r\n            _msgSender(),\r\n            amountPaidInUSD,\r\n            interestPaidInUSD,\r\n            completed\r\n        );\r\n    }\r\n\r\n    function rejectRequest(uint256 requestId) public nonReentrant {\r\n        _offerManager.rejectRequest(requestId, _msgSender());\r\n    }\r\n\r\n    function cancelLendRequest(uint256 requestId) public nonReentrant {\r\n        RequestLibrary.Request memory request = _offerManager.getRequest(\r\n            requestId\r\n        );\r\n        require(request.requestType == RequestLibrary.Type.LENDING_REQUEST);\r\n\r\n        OfferLibrary.Offer memory offer = _offerManager.getOffer(\r\n            request.offerId\r\n        );\r\n\r\n        uint256 principalAmount = percentageOf(\r\n            offer.initialPrincipal,\r\n            request.percentage\r\n        );\r\n\r\n        if (offer.principalToken == nativeAddress) {\r\n            payable(_msgSender()).transfer(principalAmount);\r\n        } else {\r\n            ERC20(offer.principalToken).safeTransfer(\r\n                _msgSender(),\r\n                principalAmount\r\n            );\r\n        }\r\n\r\n        _offerManager.cancelRequest(requestId, _msgSender());\r\n    }\r\n\r\n    function cancelBorrowRequest(uint256 requestId) public nonReentrant {\r\n        RequestLibrary.Request memory request = _offerManager.getRequest(\r\n            requestId\r\n        );\r\n        require(request.requestType == RequestLibrary.Type.BORROWING_REQUEST);\r\n\r\n        OfferLibrary.Offer memory offer = _offerManager.getOffer(\r\n            request.offerId\r\n        );\r\n\r\n        if (offer.collateralToken == nativeAddress) {\r\n            payable(_msgSender()).transfer(request.collateralAmount);\r\n        } else {\r\n            ERC20(offer.collateralToken).safeTransfer(\r\n                _msgSender(),\r\n                request.collateralAmount\r\n            );\r\n        }\r\n\r\n        _offerManager.cancelRequest(requestId, _msgSender());\r\n    }\r\n\r\n    function claimCollateral(uint256 loanId) public nonReentrant {\r\n        LoanLibrary.Loan memory loan = _loanManager.getLoan(loanId);\r\n\r\n        if (loan.collateralToken == nativeAddress) {\r\n            payable(_msgSender()).transfer(loan.unClaimedCollateral);\r\n        } else {\r\n            ERC20(loan.collateralToken).safeTransfer(\r\n                _msgSender(),\r\n                loan.unClaimedCollateral\r\n            );\r\n        }\r\n\r\n        _loanManager.claimCollateral(loanId, _msgSender());\r\n    }\r\n\r\n    function claimPrincipal(uint256 loanId) public nonReentrant {\r\n        LoanLibrary.Loan memory loan = _loanManager.getLoan(loanId);\r\n\r\n        if (loan.principalToken == nativeAddress) {\r\n            payable(_msgSender()).transfer(loan.unClaimedPrincipal);\r\n        } else {\r\n            ERC20(loan.principalToken).safeTransfer(\r\n                _msgSender(),\r\n                loan.unClaimedPrincipal\r\n            );\r\n        }\r\n\r\n        _loanManager.claimPrincipal(loanId, _msgSender());\r\n    }\r\n\r\n    function claimDefaultCollateral(uint256 loanId) public nonReentrant {\r\n        LoanLibrary.Loan memory loan = _loanManager.getLoan(loanId);\r\n\r\n        if (loan.collateralToken == nativeAddress) {\r\n            payable(_msgSender()).transfer(loan.unClaimedDefaultCollateral);\r\n        } else {\r\n            ERC20(loan.collateralToken).safeTransfer(\r\n                _msgSender(),\r\n                loan.unClaimedDefaultCollateral\r\n            );\r\n        }\r\n\r\n        _loanManager.claimDefaultCollateral(loanId, _msgSender());\r\n    }\r\n\r\n    function repayLiquidatedLoan(uint256 loanId) public payable nonReentrant {}\r\n\r\n    function liquidateLoan(uint256 loanId) public onlyOwner nonReentrant {\r\n        LoanLibrary.Loan memory loan = _loanManager.getLoan(loanId);\r\n\r\n        // calculate the duration of the loan\r\n        uint256 time = block.timestamp;\r\n        uint256 ellapsedSecs = (time - loan.startDate);\r\n\r\n        uint256 repaymentPrincipal = getFullInterestAmount(\r\n            loan.currentPrincipal,\r\n            ellapsedSecs,\r\n            loan.interest\r\n        );\r\n\r\n        uint256 repaymentCollateral = _priceFeed.exchangeRate(\r\n            loan.principalToken,\r\n            loan.collateralToken,\r\n            repaymentPrincipal\r\n        );\r\n\r\n        uint256 interestInCollateral = _priceFeed.exchangeRate(\r\n            loan.principalToken,\r\n            loan.collateralToken,\r\n            (repaymentPrincipal - loan.currentPrincipal)\r\n        );\r\n\r\n        uint256 principalPaid;\r\n        uint256 collateralRetrieved;\r\n        uint256 collateralFee;\r\n\r\n        uint256 fee = percentageOf(\r\n            interestInCollateral,\r\n            _feeManager.feePercentage()\r\n        );\r\n\r\n        if (loan.currentCollateral >= (repaymentCollateral - fee)) {\r\n            collateralRetrieved = (repaymentCollateral - fee);\r\n            principalPaid = loan.currentPrincipal;\r\n\r\n            if (loan.currentCollateral >= repaymentCollateral) {\r\n                collateralFee = fee;\r\n            } else {\r\n                collateralRetrieved = loan.currentCollateral;\r\n                collateralFee = (loan.currentCollateral -\r\n                    (repaymentCollateral - fee));\r\n            }\r\n        } else {\r\n            collateralRetrieved = loan.currentCollateral;\r\n\r\n            uint256 collateralInPrincipal = _priceFeed.exchangeRate(\r\n                loan.collateralToken,\r\n                loan.principalToken,\r\n                collateralRetrieved\r\n            );\r\n\r\n            principalPaid = collateralInPrincipal;\r\n            collateralFee = 0;\r\n        }\r\n\r\n        _feeManager.credit(loan.collateralToken, collateralFee);\r\n\r\n        _loanManager.liquidateLoan(\r\n            loanId,\r\n            principalPaid,\r\n            collateralRetrieved,\r\n            (collateralRetrieved - collateralFee)\r\n        );\r\n    }\r\n\r\n    function setFeeds(\r\n        address ltv_,\r\n        address activity_,\r\n        address priceFeed_\r\n    ) public onlyOwner nonReentrant {\r\n        _ltv = ILoanToValueRatio(ltv_);\r\n        _activity = Activity(activity_);\r\n        _priceFeed = IPriceFeed(priceFeed_);\r\n    }\r\n\r\n    function setManagers(\r\n        address vaultManager_,\r\n        address loanManager_,\r\n        address offerManager_,\r\n        address feeManager_\r\n    ) public onlyOwner nonReentrant {\r\n        _vaultManager = IVaultManager(vaultManager_);\r\n        _loanManager = ILoanManager(loanManager_);\r\n        _offerManager = IOfferManager(offerManager_);\r\n        _feeManager = IFeeManager(feeManager_);\r\n    }\r\n\r\n    /// @dev to claim revenue\r\n    function claim(\r\n        address token,\r\n        address payable receiver,\r\n        uint256 amount\r\n    ) public onlyOwner nonReentrant {\r\n        require(amount > 0, \"ERR_ZERO_AMOUNT\");\r\n        _feeManager.debit(token, amount);\r\n        if (token == nativeAddress) {\r\n            receiver.transfer(amount);\r\n        } else {\r\n            ERC20(token).safeTransfer(receiver, amount);\r\n        }\r\n    }\r\n\r\n    function _checkPercentage(uint16 percentage) private pure {\r\n        // percentage must be 25, 50, 75 or 100\r\n        require(percentage <= 100, \"OVER_PERCENTAGE\");\r\n        require(percentage % 25 == 0, \"ERR_PERCENTAGE\");\r\n    }\r\n}\r\n",
  "sourcePath": "C:\\Users\\DELL\\Documents\\darsh\\smart-contracts\\contracts\\LendingPool.sol",
  "compiler": {
    "name": "solc",
    "version": "0.8.17+commit.8df45f5f.Emscripten.clang"
  },
  "schemaVersion": "3.4.11",
  "updatedAt": "2023-02-19T16:11:48.145Z",
  "devdoc": {
    "kind": "dev",
    "methods": {
      "acceptOwnership()": {
        "details": "The new owner accepts the ownership transfer."
      },
      "claim(address,address,uint256)": {
        "details": "to claim revenue"
      },
      "owner()": {
        "details": "Returns the address of the current owner."
      },
      "pendingOwner()": {
        "details": "Returns the address of the pending owner."
      },
      "renounceOwnership()": {
        "details": "Leaves the contract without owner. It will not be possible to call `onlyOwner` functions anymore. Can only be called by the current owner. NOTE: Renouncing ownership will leave the contract without an owner, thereby removing any functionality that is only available to the owner."
      },
      "transferOwnership(address)": {
        "details": "Starts the ownership transfer of the contract to a new account. Replaces the pending transfer if there is one. Can only be called by the current owner."
      }
    },
    "version": 1
  },
  "userdoc": {
    "kind": "user",
    "methods": {},
    "version": 1
  }
}