{
  "contractName": "LendingPool",
  "abi": [
    {
      "inputs": [
        {
          "internalType": "address",
          "name": "ltv_",
          "type": "address"
        },
        {
          "internalType": "address",
          "name": "activity_",
          "type": "address"
        },
        {
          "internalType": "address",
          "name": "poolManager_",
          "type": "address"
        },
        {
          "internalType": "address",
          "name": "loanManager_",
          "type": "address"
        },
        {
          "internalType": "address",
          "name": "offerManager_",
          "type": "address"
        }
      ],
      "stateMutability": "nonpayable",
      "type": "constructor"
    },
    {
      "inputs": [],
      "name": "INTEREST_RATE_DENOMINATOR",
      "outputs": [
        {
          "internalType": "uint256",
          "name": "",
          "type": "uint256"
        }
      ],
      "stateMutability": "view",
      "type": "function"
    },
    {
      "inputs": [
        {
          "internalType": "uint256",
          "name": "principal",
          "type": "uint256"
        },
        {
          "internalType": "uint256",
          "name": "durationSecs",
          "type": "uint256"
        },
        {
          "internalType": "uint256",
          "name": "interest",
          "type": "uint256"
        }
      ],
      "name": "getFullInterestAmount",
      "outputs": [
        {
          "internalType": "uint256",
          "name": "",
          "type": "uint256"
        }
      ],
      "stateMutability": "pure",
      "type": "function"
    },
    {
      "inputs": [],
      "name": "nativeAddress",
      "outputs": [
        {
          "internalType": "address",
          "name": "",
          "type": "address"
        }
      ],
      "stateMutability": "view",
      "type": "function"
    },
    {
      "inputs": [
        {
          "internalType": "uint256",
          "name": "total",
          "type": "uint256"
        },
        {
          "internalType": "uint160",
          "name": "percent",
          "type": "uint160"
        }
      ],
      "name": "percentageInverseOf",
      "outputs": [
        {
          "internalType": "uint256",
          "name": "",
          "type": "uint256"
        }
      ],
      "stateMutability": "pure",
      "type": "function"
    },
    {
      "inputs": [
        {
          "internalType": "uint256",
          "name": "total",
          "type": "uint256"
        },
        {
          "internalType": "uint160",
          "name": "percent",
          "type": "uint160"
        }
      ],
      "name": "percentageOf",
      "outputs": [
        {
          "internalType": "uint256",
          "name": "",
          "type": "uint256"
        }
      ],
      "stateMutability": "pure",
      "type": "function"
    },
    {
      "inputs": [
        {
          "internalType": "uint256",
          "name": "principalAmount_",
          "type": "uint256"
        },
        {
          "internalType": "address",
          "name": "principalToken",
          "type": "address"
        },
        {
          "internalType": "address[]",
          "name": "collateralTokens",
          "type": "address[]"
        },
        {
          "internalType": "uint256",
          "name": "daysToMaturity",
          "type": "uint256"
        },
        {
          "internalType": "uint256",
          "name": "interest",
          "type": "uint256"
        },
        {
          "internalType": "uint256",
          "name": "daysToExpire",
          "type": "uint256"
        }
      ],
      "name": "createLendingOffer",
      "outputs": [],
      "stateMutability": "payable",
      "type": "function"
    },
    {
      "inputs": [
        {
          "internalType": "uint256",
          "name": "offerId",
          "type": "uint256"
        },
        {
          "internalType": "uint16",
          "name": "percentage",
          "type": "uint16"
        }
      ],
      "name": "acceptBorrowingOffer",
      "outputs": [],
      "stateMutability": "payable",
      "type": "function"
    },
    {
      "inputs": [
        {
          "internalType": "uint256",
          "name": "requestId",
          "type": "uint256"
        }
      ],
      "name": "acceptBorrowingRequest",
      "outputs": [],
      "stateMutability": "payable",
      "type": "function"
    },
    {
      "inputs": [
        {
          "internalType": "address",
          "name": "principalToken",
          "type": "address"
        },
        {
          "internalType": "address",
          "name": "collateralToken",
          "type": "address"
        },
        {
          "internalType": "uint256",
          "name": "collateralAmount_",
          "type": "uint256"
        },
        {
          "internalType": "uint256",
          "name": "interest",
          "type": "uint256"
        },
        {
          "internalType": "uint256",
          "name": "daysToMaturity",
          "type": "uint256"
        },
        {
          "internalType": "uint256",
          "name": "daysToExpire",
          "type": "uint256"
        }
      ],
      "name": "createBorrowingOffer",
      "outputs": [],
      "stateMutability": "payable",
      "type": "function"
    },
    {
      "inputs": [
        {
          "internalType": "uint256",
          "name": "offerId",
          "type": "uint256"
        },
        {
          "internalType": "uint16",
          "name": "percentage",
          "type": "uint16"
        },
        {
          "internalType": "address",
          "name": "collateralToken",
          "type": "address"
        }
      ],
      "name": "acceptLendingOffer",
      "outputs": [],
      "stateMutability": "payable",
      "type": "function"
    },
    {
      "inputs": [
        {
          "internalType": "uint256",
          "name": "requestId",
          "type": "uint256"
        }
      ],
      "name": "acceptLendingRequest",
      "outputs": [],
      "stateMutability": "payable",
      "type": "function"
    },
    {
      "inputs": [
        {
          "internalType": "uint256",
          "name": "loanId",
          "type": "uint256"
        },
        {
          "internalType": "uint16",
          "name": "percentage",
          "type": "uint16"
        }
      ],
      "name": "repayLoan",
      "outputs": [],
      "stateMutability": "payable",
      "type": "function"
    },
    {
      "inputs": [
        {
          "internalType": "uint256",
          "name": "loanId",
          "type": "uint256"
        }
      ],
      "name": "repayLiquidatedLoan",
      "outputs": [],
      "stateMutability": "payable",
      "type": "function"
    },
    {
      "inputs": [
        {
          "internalType": "address",
          "name": "priceFeed_",
          "type": "address"
        }
      ],
      "name": "setPriceFeed",
      "outputs": [],
      "stateMutability": "nonpayable",
      "type": "function"
    },
    {
      "inputs": [
        {
          "internalType": "address",
          "name": "newOwner",
          "type": "address"
        }
      ],
      "name": "changeOwner",
      "outputs": [],
      "stateMutability": "nonpayable",
      "type": "function"
    }
  ],
  "bytecode": "0x608034620000f057601f62002abf38819003918201601f19168301916001600160401b03831184841017620000f55780849260a094604052833981010312620000f0576200004d816200010b565b906200005c602082016200010b565b906200006b604082016200010b565b9162000088608062000080606085016200010b565b93016200010b565b91600160005560018060a01b0380948180948160018060a01b03199916896004541617600455168760025416176002551685600554161760055516836006541617600655168160075416176007553390600154161760015560405161299e9081620001218239f35b600080fd5b634e487b7160e01b600052604160045260246000fd5b51906001600160a01b0382168203620000f05756fe608080604052600436101561001357600080fd5b60009060e08235811c9182632e476337146122ca575081634add7c8214611dc35781635c7f31aa146119ae57816361ba94431461190d578163628118ee146114e0578163724e78da14611490578163a33928da14611039578163a49dd9b514610cc557508063a6f9dae114610c77578063b9610db4146108ca578063cc3266e8146108a7578063e0b269591461088d578063e0f7dffd14610868578063e826fbe7146100ec5763f4e02f46146100c857600080fd5b346100e95760206100e16100db36612383565b90612931565b604051908152f35b80fd5b5060603660031901126100e9576101016122f8565b906044356001600160a01b038116908181036104a95760075460405163ab64a18560e01b81526004803590820152908490829060249082906001600160a01b03165afa9081156104ca578491610846575b5061017561ffff8096169561016a606488111561249b565b6019870616156124d9565b8394845b60c0830151805182101561083a57600582901b01602001516001600160a01b031685146101c55760001981146101b157600101610179565b634e487b7160e01b86526011600452602486fd5b5090919293945060015b156107f5576101e290606083015161290d565b916024602060018060a01b0360045416604051928380926356512fcd60e11b82523360048301525afa9081156107ea5786916107ac575b50600354602084810151604051631c07d98160e21b81526001600160a01b03918216600482015285821660248201526044810188905292839160649183918c91165af190811561073f578791610779575b506004916102779161290d565b8154604051636882509b60e11b81529260209184919082906001600160a01b03165afa91821561073f576102b79260ff91899161074a575b5016906126a6565b8573eeeeeeeeeeeeeeeeeeeeeeeeeeeeeeeeeeeeeeee958681146000146106cd5750503481106106905785945b60208401516001600160a01b031690810361051357508480858015610509575b8280929181923390f1156104ca576020905b60018060a01b0360065416858760018060a01b0385880151169561037060808901519760a08a01519060018060a01b036101208c015116916040519a8b998a988997631c57bf7160e21b8952339560043560048b01612516565b03925af180156104ca576104da575b506007546001600160a01b0316803b156104d55783809160446040518094819363f094cb9560e01b835260043560048401528860248401525af19081156104ca5784916104b6575b505060035460209182015160405163912d228f60e01b81526001600160a01b0391821660048201526024810194909452839160449183918791165af190811561046d57829161047c575b506002546001600160a01b0316803b15610478576040516311eba9df60e21b8152336004820152602481019290925282908290818381604481015b03925af1801561046d5761045d5750f35b61046690612335565b6100e95780f35b6040513d84823e3d90fd5b5050fd5b9150506020813d6020116104ae575b8161049860209383612349565b810103126104a95781905138610411565b600080fd5b3d915061048b565b6104bf90612335565b6104785782386103c7565b6040513d86823e3d90fd5b505050fd5b6020809294503d8311610502575b6104f28183612349565b810103126104a95782913861037f565b503d6104e8565b6108fc9150610304565b60405163a9059cbb60e01b6020820152336024820152604480820187905281529550610540606487612349565b6040519586604081011067ffffffffffffffff60408901111761066c5787809160408901604052602089527f5361666545524332303a206c6f772d6c6576656c2063616c6c206661696c656460208a015260208151910182855af195873d1561068257503d67ffffffffffffffff811161066c5788976105e093604051926105d26020601f19601f8401160185612349565b83523d8a602085013e6126c6565b8051806105f2575b5050602090610316565b6106069296506020809183010191016123a9565b1561061457849338806105e8565b60405162461bcd60e51b815260206004820152602a60248201527f5361666545524332303a204552433230206f7065726174696f6e20646964206e6044820152691bdd081cdd58d8d9595960b21b6064820152608490fd5b634e487b7160e01b600052604160045260246000fd5b96916105e0926060916126c6565b60405162461bcd60e51b815260206004820152601560248201527411549497d0d3d31310551154905317d05353d55395605a1b6044820152606490fd5b6040516323b872dd60e01b81523360048201523060248201526044810184905291969190602090829060649082908b905af1801561073f57610710575b506102e4565b6107319060203d602011610738575b6107298183612349565b8101906123a9565b503861070a565b503d61071f565b6040513d89823e3d90fd5b61076c915060203d602011610772575b6107648183612349565b81019061268d565b386102af565b503d61075a565b90506020813d6020116107a4575b8161079460209383612349565b810103126104a95751600461026a565b3d9150610787565b90506020813d6020116107e2575b816107c760209383612349565b810103126107de576107d8906123c1565b38610219565b8580fd5b3d91506107ba565b6040513d88823e3d90fd5b60405162461bcd60e51b815260206004820152601c60248201527f4552525f434f4c4c41544552414c5f4e4f545f535550504f52544544000000006044820152606490fd5b505090919293946101cf565b61086291503d8086833e61085a8183612349565b81019061256b565b38610152565b50346100e95760603660031901126100e95760206100e16044356024356004356128e3565b50346100e95760206100e16108a136612383565b9061290d565b50346100e957806003193601126100e9576020604051670de0b6b3a76400008152f35b5060c03660031901126100e957806108e0612309565b6108e861231f565b6001600160a01b03908082169060443573eeeeeeeeeeeeeeeeeeeeeeeeeeeeeeeeeeeeeeee8303610c1b575034915b83600454169460405180966356512fcd60e11b82523360048301528160246020998a935afa908115610c10578891610bd7575b50600354604051631c07d98160e21b81526001600160a01b0386811660048301528416602482015260448101879052908890829060649082908d908c165af1908115610b81578991610ba3575b506004916109a491612931565b878783541660405193848092636882509b60e11b82525afa918215610b81576109d89260ff918b91610b8c575016906126a6565b600554604051638340f54960e01b81523360048201526001600160a01b038616602482015260448101879052908890829060649082908d908c165af1928315610b8157898893610104938b96610b64575b508460075416906040519788968795637789f19f60e01b875216600486015260248501528960448501526064840152606435608484015260843560a484015260a43560c48401523360e48401525af180156107ea57610b36575b5060035460405163912d228f60e01b81526001600160a01b03929092166004830152602482019290925290839082906044908290889087165af19283156104ca578493610b03575b505060025416803b156104785760405163094f618d60e11b81523360048201526024810192909252829082908183816044810161044c565b819450809293503d8311610b2f575b610b1c8183612349565b810103126104a957829151903880610acb565b503d610b12565b84809296503d8311610b5d575b610b4d8183612349565b810103126104a957849338610a83565b503d610b43565b610b7a90873d8911610738576107298183612349565b5038610a29565b6040513d8b823e3d90fd5b61076c91508a3d8c11610772576107648183612349565b809950888092503d8311610bd0575b610bbc8183612349565b810103126104a95796518897906004610997565b503d610bb2565b90508681813d8311610c09575b610bee8183612349565b81010312610c0557610bff906123c1565b3861094a565b8780fd5b503d610be4565b6040513d8a823e3d90fd5b6040516323b872dd60e01b8152336004820152306024820152604481018290529092906020816064818a865af1801561073f57610c59575b50610917565b610c709060203d8111610738576107298183612349565b5038610c53565b50346100e95760203660031901126100e957610c91612309565b600154906001600160a01b0390610cab3383851614612893565b16906bffffffffffffffffffffffff60a01b161760015580f35b905060c03660031901126110355760043590610cdf61231f565b6044359167ffffffffffffffff8311611031573660238401121561103157826004013592610d0c8461236b565b94610d1a6040519687612349565b84865260209586810192836024809860051b8301019136831161102d578801905b82821061100e57505050805115610fca576001600160a01b038581169290919073eeeeeeeeeeeeeeeeeeeeeeeeeeeeeeeeeeeeeeee8403610f5d5750610dc0883480985b600554604051638340f54960e01b81523360048201526001600160a01b039092166024830152604482019290925292839186169082908e9082906064820190565b03925af1908115610f52578a91610f35575b5015610ef157919281889596948a93600754169460405198899763dbaf4f7f60e01b895260e489019360048a01528b8901526084356044890152606435606489015260a435608489015260a4880152518091526101048601929184905b828210610ed05750505050908380923360c483015203925af19081156104ca578491610ea3575b5015610e60578280f35b9060186064926040519262461bcd60e51b845260048401528201527f4552525f4f464645525f4d414e414745525f43524541544500000000000000006044820152fd5b90508281813d8311610ec9575b610eba8183612349565b810103126104a9575138610e56565b503d610eb0565b8351811685528b988a98508d96509485019490930192600190910190610e2f565b60405162461bcd60e51b8152600481018990526018818901527f4552525f504f4f4c5f4d414e414745525f4445504f53495400000000000000006044820152606490fd5b610f4c9150893d8b11610738576107298183612349565b38610dd2565b6040513d8c823e3d90fd5b6040516323b872dd60e01b81523360048201523060248201526044810182905290969089816064818e895af18015610fbf57610dc0928b928a92610fa2575b50610d7f565b610fb890843d8611610738576107298183612349565b5038610f9c565b6040513d8d823e3d90fd5b60405162461bcd60e51b8152600481018890526017818801527f4552525f4e4f5f434f4c4c41544552414c5f54595045530000000000000000006044820152606490fd5b81356001600160a01b03811681036104a9578152908901908901610d3b565b8a80fd5b8480fd5b5080fd5b8260403660031901126100e957600435916110526122f8565b9060018060a01b038060075416604051809163bf1e609760e01b82528760048301528160246101809485935afa9182156107ea578692611463575b5050610160810193828551163314611428576110c161ffff809216916110b6606484111561249b565b6019830616156124d9565b6110dd6110d282608085015161290d565b9160c084015161290d565b91602094858201918583511673eeeeeeeeeeeeeeeeeeeeeeeeeeeeeeeeeeeeeeee811460001461136457508434106112e55788808080888a8d511682821561135b575bf115610c105786905b61014487600654168b8351918a885116948d8c610100816040850151169a84015193015191511691604051998a988997631c57bf7160e21b8952600489015260016024890152604488015260648701528c60848701528b60a487015260c486015260e4850152610104840152336101248401525af1908115610c1057889161132e575b50156112e9578697846007541692833b156112e5576040516324b42bc160e01b815260048101929092526024820185905260448201529187908390606490829084905af1801561073f57859288916112cc575b5050600354905160405163912d228f60e01b81529085166001600160a01b031660048201526024810193909352829084168188816044810103925af19283156112c157859361128e575b5050806002541692511690823b156104d5576040516311eba9df60e21b81526001600160a01b039092166004830152602482015290829082908183816044810161044c565b819550809293503d83116112ba575b6112a78183612349565b810103126104a957839251908580611249565b503d61129d565b6040513d87823e3d90fd5b6112d891929350612335565b6107de57839086896111ff565b8880fd5b60405162461bcd60e51b815260048101869052601760248201527f4552525f4c4f414e5f4d414e414745525f4352454154450000000000000000006044820152606490fd5b90508581813d8311611354575b6113458183612349565b810103126104a95751896111ac565b503d61133b565b506108fc611120565b6040516323b872dd60e01b815233600482015230602482015260448101879052908890829060649082908e905af18015610f525761140b575b508251885160405163a9059cbb60e01b81529088166001600160a01b031660048201526024810187905290889082908916818d816044810103925af18015610f5257908892916113ee575b50611129565b61140490833d8511610738576107298183612349565b508b6113e8565b61142190883d8a11610738576107298183612349565b508a61139d565b60405162461bcd60e51b815260206004820152601360248201527222a9292fa1a0a72a2fa127a92927abafa7aba760691b6044820152606490fd5b6114829250803d10611489575b61147a8183612349565b8101906123d5565b868061108d565b503d611470565b82346100e95760203660031901126100e9576114aa612309565b6001546001600160a01b0391906114c49083163314612893565b166bffffffffffffffffffffffff60a01b600354161760035580f35b8260403660031901126100e957600435916114f96122f8565b600654604051632820036560e11b8152600481018690526001600160a01b03959293926101e0929091908716908381602481855afa93841561073f5787946118de575b505061155561ffff8096169561016a606488111561249b565b866101a08401511633036118a65786610140840151168742160390878211611890576115a661159661158b8860a088015161290d565b97889787015161290d565b92896101208701519116876128e3565b92604051809263464244f960e11b8252818a816115dc8860209d8e98600485016040919493926060820195825260208201520152565b03925af1801561073f57611873575b50606083018051909373eeeeeeeeeeeeeeeeeeeeeeeeeeeeeeeeeeeeeeee91891682810361180c5750833410610c055791868893928a608086955b0151169081036117b55750508180918181156117ac575b3390f1156104ca575b856003541686835116918481039081116117985760405163912d228f60e01b8082526001600160a01b0394909416600482015260248101919091529596879695949093909290918590879060449082908b905af195861561073f578796611760575b50600354915160405191825284166001600160a01b031660048201526024810192909252839082906044908290899087165af19283156112c157859361172d575b50506002541691823b156104d5576064849283604051958694859363720722fd60e01b8552336004860152602485015260448401525af1801561046d5761045d5750f35b819550809293503d8311611759575b6117468183612349565b810103126104a9578392519085806116e9565b503d61173c565b9296509450908381813d8111611791575b61177b8183612349565b810103126104a9575186959094909190846116a8565b503d611771565b634e487b7160e01b87526011600452602487fd5b506108fc61163d565b60405163a9059cbb60e01b815233600482015260248101939093529193909250839160449183915af180156107ea576117ef575b50611646565b61180590853d8711610738576107298183612349565b50866117e9565b6040516323b872dd60e01b815233600482015230602482015260448101869052908890829060649082908d905af18015610b8157928a60808b96948b948897611856575b50611626565b61186c90863d8811610738576107298183612349565b508e611850565b61188990863d8811610738576107298183612349565b50876115eb565b634e487b7160e01b600052601160045260246000fd5b60405162461bcd60e51b815260206004820152601060248201526f22a9292fa727aa2fa127a92927aba2a960811b6044820152606490fd5b6118fe929450803d10611906575b6118f68183612349565b81019061279a565b91878061153c565b503d6118ec565b8260203660031901126100e957600654604051632820036560e11b815260048035908201526101e0918290829060249082906001600160a01b03165afa9081156119a3576020928492611986575b505001516003811015611972576002036100e95780f35b634e487b7160e01b82526021600452602482fd5b61199c9250803d10611906576118f68183612349565b838061195b565b6040513d85823e3d90fd5b82602080600319360112611035576007546040516314c7eb4960e01b815260048035908201526001600160a01b039182166101208083602481855afa9283156107ea578693611d14575b50506101008201805160405192839163bf1e609760e01b835260048301528160246101809586935afa92831561073f578793611cf5575b505083610160830151163303611cbc578596608083015190611a6e60608601611a5f61ffff94858351169061290d565b9360c08701519151169061290d565b948785019389898987511673eeeeeeeeeeeeeeeeeeeeeeeeeeeeeeeeeeeeeeee8114600014611c5957505080888015611c4f575b8280929181923390f115610b8157878a87611afd8c96898c975b8660408180600654169a5194511696015116968a82015193608083015192015116926040519b8c9a8b998a98631c57bf7160e21b8a52339660048b01612516565b03925af1801561073f57611c21575b5083600754169151823b15611c1d57869260448492604051958693849263f094cb9560e01b845260048401528860248401525af180156107ea5785928791611c04575b5050600354905160405163912d228f60e01b81529085166001600160a01b031660048201526024810193909352829084168187816044810103925af19283156104ca578493611bd1575b505060025416803b15610478576040516311eba9df60e21b81523360048201526024810192909252829082908183816044810161044c565b819450809293503d8311611bfd575b611bea8183612349565b810103126104a957829151908480611b99565b503d611be0565b611c1091929350612335565b6110315783908588611b4f565b8680fd5b85809297503d8311611c48575b611c388183612349565b810103126104a957859487611b0c565b503d611c2e565b6108fc9150611aa2565b60405163a9059cbb60e01b8152336004820152602481018b9052949592859160449183915af18015610fbf5787611afd8b93898f94988f99988e99611c9f575b50611abc565b611cb5908b3d8d11610738576107298183612349565b5038611c99565b60405162461bcd60e51b815260048101869052601160248201527022a9292fa7a7262cafa127a92927aba2a960791b6044820152606490fd5b611d0c929350803d106114895761147a8183612349565b908780611a2f565b908092935081813d8311611dbc575b611d2d8183612349565b810103126107de5760405191820182811067ffffffffffffffff82111761066c5760405280518252848101518583015260408101516040830152606081015161ffff81168103611c1d5760608301526080810151608083015260a081015160a083015260c081015160c0830152611da58782016123c1565b8783015261010080910151908201529086806119f8565b503d611d23565b8260203660031901126100e957600754604051632a3884d760e21b815260048035908201526001600160a01b039091169290610140908181602481885afa9283156104ca5784936121fe575b505050610120828183015160246040518097819363ab64a18560e01b835260048301525afa9384156119a35783946121e2575b50838101516001600160a01b031633036121ab5760208401516001600160a01b031673eeeeeeeeeeeeeeeeeeeeeeeeeeeeeeeeeeeeeeee81036120ca575060608201518034106120c65761010083015184918291829182916001600160a01b03168282156120bd575bf11561046d575b60018060a01b03600654166020828401519160018060a01b0382880151169060018060a01b03838701511687606088015193611f2660408a01519760808b015160a08c01518c61010060018060a01b0391015116916040519b8c9a8b998a98631c57bf7160e21b8a52339760048b01612516565b03925af180156104ca5761208e575b506007549082015160608301516040840151926001600160a01b031691823b156107de576040516324b42bc160e01b815260048101919091526024810191909152604481019290925283908290606490829084905af180156119a357612076575b50600354602093840151606083015160405163912d228f60e01b81526001600160a01b039283166004820152602481019190915293948594929091839116818681604481015b03925af19081156119a3578391612041575b50600254610100909201516001600160a01b03928316921690823b156104d5576040516311eba9df60e21b81526001600160a01b039092166004830152602482015290829082908183816044810161044c565b9250506020823d60201161206e575b8161205d60209383612349565b810103126104a95782915184611fee565b3d9150612050565b60209392612086611fdc92612335565b929350611f96565b602090813d83116120b6575b6120a48183612349565b810103126120b25784611f35565b8280fd5b503d61209a565b506108fc611eab565b8380fd5b6060830180516040516323b872dd60e01b8152336004820152306024820152604481019190915290916020908290606490829089905af180156112c1579160209161215a9361218e575b5081870151610100860151915160405163a9059cbb60e01b81526001600160a01b0393841660048201526024810191909152938492909116908290889082906044820190565b03925af180156104ca5761216f575b50611eb2565b6121879060203d602011610738576107298183612349565b5084612169565b6121a490833d8511610738576107298183612349565b5087612114565b60405162461bcd60e51b815260206004820152600f60248201526e22a9292fa7a7262cafa622a72222a960891b6044820152606490fd5b6121f79194503d8085833e61085a8183612349565b9284611e42565b909180935082813d83116122c3575b6122178183612349565b810103126120c65760405192830183811067ffffffffffffffff8211176122af576040528151835261224b602083016123c1565b602084015260408201516040840152606082015160608401526080820151608084015260a082015160a084015260c082015160c084015280820151908301526101006122988183016123c1565b908301526101208091015190820152838080611e0f565b634e487b7160e01b85526041600452602485fd5b503d61220d565b8390346110355781600319360112611035578073eeeeeeeeeeeeeeeeeeeeeeeeeeeeeeeeeeeeeeee60209252f35b6024359061ffff821682036104a957565b600435906001600160a01b03821682036104a957565b602435906001600160a01b03821682036104a957565b67ffffffffffffffff811161066c57604052565b90601f8019910116810190811067ffffffffffffffff82111761066c57604052565b67ffffffffffffffff811161066c5760051b60200190565b60409060031901126104a957600435906024356001600160a01b03811681036104a95790565b908160209103126104a9575180151581036104a95790565b51906001600160a01b03821682036104a957565b809161018092839103126104a95760405191820182811067ffffffffffffffff82111761066c576040528051825261240f602082016123c1565b6020830152612420604082016123c1565b6040830152606081015160608301526080810151608083015260a081015160a083015260c081015160c083015260e081015160e083015261010080820151908301526101206124708183016123c1565b908301526101406124828183016123c1565b908301526124946101608092016123c1565b9082015290565b156124a257565b60405162461bcd60e51b815260206004820152600f60248201526e4f5645525f50455243454e5441474560881b6044820152606490fd5b156124e057565b60405162461bcd60e51b815260206004820152600e60248201526d4552525f50455243454e5441474560901b6044820152606490fd5b979295909998946101209792946101408a019b8a52600060208b015260018060a01b0380988180981660408d01521660608b015260808a015260a089015260c088015260e08701521661010085015216910152565b9060209081838203126104a957825167ffffffffffffffff938482116104a95701916101409384848403126104a9576040519485018581108282111761066c57604052835185526125bd8285016123c1565b8286015260408401516040860152606084015160608601526080840151608086015260a084015160a086015260c08401519081116104a95783019180601f840112156104a957825161260e8161236b565b9361261c6040519586612349565b818552838086019260051b8201019283116104a9578301905b828210612676575050505060c083015261265160e082016123c1565b60e08301526101006126648183016123c1565b908301526124946101208092016123c1565b838091612682846123c1565b815201910190612635565b908160209103126104a9575160ff811681036104a95790565b81156126b0570490565b634e487b7160e01b600052601260045260246000fd5b9192901561272857508151156126da575090565b3b156126e35790565b60405162461bcd60e51b815260206004820152601d60248201527f416464726573733a2063616c6c20746f206e6f6e2d636f6e74726163740000006044820152606490fd5b82519091501561273b5750805190602001fd5b6040519062461bcd60e51b82528160208060048301528251908160248401526000935b828510612781575050604492506000838284010152601f80199101168101030190fd5b848101820151868601604401529381019385935061275e565b80916101e092839103126104a95760405191820182811067ffffffffffffffff82111761066c5760405280518252602081015160038110156104a9576020830152604081015160028110156104a95760408301526127fa606082016123c1565b606083015261280b608082016123c1565b608083015260a081015160a083015260c081015160c083015260e081015160e0830152610100808201519083015261012080820151908301526101406128528183016123c1565b908301526101606128648183016123c1565b9083015261018080820151908301526101a06128818183016123c1565b908301526124946101c08092016123c1565b1561289a57565b60405162461bcd60e51b815260206004820152600e60248201526d22a9292fa7a7262cafa7aba722a960911b6044820152606490fd5b8181029291811591840414171561189057565b91670de0b6b3a7640000916128fb61290092856128d0565b6128d0565b0481018091116118905790565b906001600160a01b0316801561292d57612929906064926128d0565b0490565b5090565b906001600160a01b03908116606481106104a95760631901818111611890578116606403908111611890576129659161290d565b9056fea2646970667358221220c74bf29a84b87a167244dd0f1081956dbc195ea077d377e28e11ffc2bc7511a764736f6c63430008110033",
  "immutableReferences": {},
  "source": "// SPDX-License-Identifier: GPL-3.0\r\npragma solidity >=0.7.0 <0.9.0;\r\n\r\nimport \"./Activity.sol\";\r\n\r\nimport \"./libraries/Errors.sol\";\r\nimport \"./libraries/AssetLibrary.sol\";\r\n\r\nimport \"./math/SimpleInterest.sol\";\r\n\r\nimport \"./interfaces/IPriceFeed.sol\";\r\nimport \"./interfaces/ILoanToValueRatio.sol\";\r\n\r\nimport \"./managers/LoanManager.sol\";\r\nimport \"./managers/OfferManager.sol\";\r\nimport \"./managers/PoolManager.sol\";\r\n\r\nimport \"@openzeppelin/contracts/utils/Context.sol\";\r\nimport \"@openzeppelin/contracts/utils/math/SafeMath.sol\";\r\nimport \"@openzeppelin/contracts/token/ERC20/utils/SafeERC20.sol\";\r\nimport \"@openzeppelin/contracts/token/ERC20/ERC20.sol\";\r\nimport \"@openzeppelin/contracts/security/ReentrancyGuard.sol\";\r\n\r\ncontract LendingPool is Context, ReentrancyGuard, SimpleInterest {\r\n    using SafeMath for uint256;\r\n    using SafeERC20 for ERC20;\r\n\r\n    address deployer;\r\n\r\n    Activity private _activity;\r\n    IPriceFeed private _priceFeed;\r\n    ILoanToValueRatio private _ltv;\r\n\r\n    // managers\r\n    PoolManager private _poolManager;\r\n    LoanManager private _loanManager;\r\n    OfferManager private _offerManager;\r\n\r\n    address public constant nativeAddress =\r\n        0xEeeeeEeeeEeEeeEeEeEeeEEEeeeeEeeeeeeeEEeE;\r\n\r\n    constructor(\r\n        address ltv_,\r\n        address activity_,\r\n        address poolManager_,\r\n        address loanManager_,\r\n        address offerManager_\r\n    ) ReentrancyGuard() {\r\n        _ltv = ILoanToValueRatio(ltv_);\r\n        _activity = Activity(activity_);\r\n        _poolManager = PoolManager(poolManager_);\r\n        _loanManager = LoanManager(loanManager_);\r\n        _offerManager = OfferManager(offerManager_);\r\n\r\n        deployer = _msgSender();\r\n    }\r\n\r\n    // @lenders\r\n    function createLendingOffer(\r\n        uint256 principalAmount_, // only for ERC20 assets\r\n        address principalToken,\r\n        address[] memory collateralTokens,\r\n        uint256 daysToMaturity,\r\n        uint256 interest,\r\n        uint256 daysToExpire\r\n    ) public payable {\r\n        uint256 principalAmount;\r\n\r\n        require(collateralTokens.length > 0, \"ERR_NO_COLLATERAL_TYPES\");\r\n\r\n        /* extract tokens from lender */\r\n        if (principalToken == nativeAddress) {\r\n            principalAmount = msg.value;\r\n        } else {\r\n            principalAmount = principalAmount_;\r\n            ERC20(principalToken).transferFrom(\r\n                _msgSender(),\r\n                address(this),\r\n                principalAmount\r\n            );\r\n        }\r\n\r\n        /* record principal to pool manager */\r\n        require(\r\n            _poolManager.deposit(_msgSender(), principalToken, principalAmount),\r\n            \"ERR_POOL_MANAGER_DEPOSIT\"\r\n        );\r\n\r\n        /* create the lending offer */\r\n        require(\r\n            _offerManager.createLendingOffer(\r\n                principalToken,\r\n                principalAmount,\r\n                interest,\r\n                daysToMaturity,\r\n                daysToExpire,\r\n                collateralTokens,\r\n                _msgSender()\r\n            ) > 0,\r\n            \"ERR_OFFER_MANAGER_CREATE\"\r\n        );\r\n    }\r\n\r\n    // @lenders\r\n    function acceptBorrowingOffer(uint256 offerId, uint16 percentage)\r\n        public\r\n        payable\r\n    {\r\n        OfferLibrary.BorrowingOffer memory offer = _offerManager\r\n            .getBorrowingOffer(offerId);\r\n\r\n        require(_msgSender() != offer.borrower, \"ERR_CANT_BORROW_OWN\");\r\n\r\n        // percentage must be 25, 50, 75 or 100\r\n        require(percentage <= 100, \"OVER_PERCENTAGE\");\r\n        require(percentage % 25 == 0, \"ERR_PERCENTAGE\");\r\n\r\n        uint256 collateralAmount = percentageOf(\r\n            offer.initialCollateral,\r\n            percentage\r\n        );\r\n\r\n        uint256 principalAmount = percentageOf(\r\n            offer.initialPrincipal,\r\n            percentage\r\n        );\r\n\r\n        /* extract principal from lender/caller and transfer to borrower */\r\n        if (offer.principalToken == nativeAddress) {\r\n            require(msg.value >= principalAmount);\r\n            payable(offer.borrower).transfer(principalAmount);\r\n        } else {\r\n            ERC20(offer.principalToken).transferFrom(\r\n                _msgSender(),\r\n                address(this),\r\n                principalAmount\r\n            );\r\n            ERC20(offer.principalToken).transfer(\r\n                offer.borrower,\r\n                principalAmount\r\n            );\r\n        }\r\n\r\n        /* register the loan from the loan manager */\r\n        require(\r\n            _loanManager.createLoan(\r\n                offer.offerId,\r\n                OfferLibrary.Type.BORROWING_OFFER,\r\n                offer.principalToken,\r\n                offer.collateralToken,\r\n                principalAmount,\r\n                collateralAmount,\r\n                offer.interest,\r\n                offer.daysToMaturity,\r\n                offer.borrower,\r\n                _msgSender()\r\n            ) > 0,\r\n            \"ERR_LOAN_MANAGER_CREATE\"\r\n        );\r\n\r\n        // will revert the transaction if fail\r\n        _offerManager._afterOfferBorrowingLoan(\r\n            offerId,\r\n            principalAmount,\r\n            collateralAmount\r\n        );\r\n\r\n        // update activity\r\n        uint256 borrowedAmountInUSD = _priceFeed.amountInUSD(\r\n            offer.principalToken,\r\n            principalAmount\r\n        );\r\n        _activity._borrowLoan(offer.borrower, borrowedAmountInUSD);\r\n    }\r\n\r\n    // @lenders\r\n    function acceptBorrowingRequest(uint256 requestId) public payable {\r\n        RequestLibrary.BorrowingRequest memory request = _offerManager\r\n            .getBorrowingRequest(requestId);\r\n\r\n        OfferLibrary.LendingOffer memory offer = _offerManager.getLendingOffer(\r\n            request.offerId\r\n        );\r\n\r\n        require(offer.lender == _msgSender(), \"ERR_ONLY_LENDER\");\r\n\r\n        /* extract principal from lender */\r\n        /* transfer principal to borrower */\r\n        if (offer.principalToken == nativeAddress) {\r\n            // if principal is native coin\r\n            require(msg.value >= request.principalAmount);\r\n            payable(request.borrower).transfer(request.principalAmount);\r\n        } else {\r\n            // if principal is ERC20\r\n            ERC20(offer.principalToken).transferFrom(\r\n                _msgSender(),\r\n                address(this),\r\n                request.principalAmount\r\n            );\r\n            ERC20(offer.principalToken).transfer(\r\n                request.borrower,\r\n                request.principalAmount\r\n            );\r\n        }\r\n\r\n        /* register the loan from the loan manager */\r\n        _loanManager.createLoan(\r\n            request.offerId,\r\n            OfferLibrary.Type.LENDING_OFFER,\r\n            offer.principalToken,\r\n            request.collateralToken,\r\n            request.principalAmount,\r\n            request.collateralAmount,\r\n            request.interest,\r\n            request.daysToMaturity,\r\n            request.borrower,\r\n            _msgSender()\r\n        );\r\n\r\n        // will revert the transaction if fail\r\n        _offerManager._afterOfferBorrowingLoan(\r\n            request.offerId,\r\n            request.principalAmount,\r\n            request.collateralAmount\r\n        );\r\n\r\n        // update activity\r\n        uint256 amountBorrowedInUSD = _priceFeed.amountInUSD(\r\n            offer.principalToken,\r\n            request.principalAmount\r\n        );\r\n        _activity._borrowLoan(request.borrower, amountBorrowedInUSD);\r\n    }\r\n\r\n    // @borrower\r\n    function createBorrowingOffer(\r\n        address principalToken,\r\n        address collateralToken,\r\n        uint256 collateralAmount_, // for ERC20 assets\r\n        uint256 interest,\r\n        uint256 daysToMaturity,\r\n        uint256 daysToExpire\r\n    ) public payable {\r\n        uint256 collateralAmount;\r\n\r\n        /* extract collateral from borrower */\r\n        if (collateralToken == nativeAddress) {\r\n            collateralAmount = msg.value;\r\n        } else {\r\n            collateralAmount = collateralAmount_;\r\n            ERC20(collateralToken).transferFrom(\r\n                _msgSender(),\r\n                address(this),\r\n                collateralAmount\r\n            );\r\n        }\r\n\r\n        uint160 ltv = _ltv.getLTV(_msgSender());\r\n\r\n        uint256 principalPrice = _priceFeed.exchangeRate(\r\n            collateralToken,\r\n            principalToken,\r\n            collateralAmount\r\n        );\r\n\r\n        uint256 principalAmount = percentageInverseOf(principalPrice, ltv) /\r\n            _ltv.getBase();\r\n\r\n        /* deposit tokens to vault */\r\n        _poolManager.deposit(_msgSender(), collateralToken, collateralAmount);\r\n\r\n        /* create the offer */\r\n        _offerManager.createBorrowingOffer(\r\n            principalToken,\r\n            collateralToken,\r\n            collateralAmount,\r\n            principalAmount,\r\n            interest,\r\n            daysToMaturity,\r\n            daysToExpire,\r\n            _msgSender()\r\n        );\r\n\r\n        // update activity\r\n        uint256 amountInUSD = _priceFeed.amountInUSD(\r\n            collateralToken,\r\n            collateralAmount\r\n        );\r\n        _activity._dropCollateral(_msgSender(), amountInUSD);\r\n    }\r\n\r\n    // @borrower\r\n    function acceptLendingOffer(\r\n        uint256 offerId,\r\n        uint16 percentage,\r\n        address collateralToken\r\n    ) public payable {\r\n        OfferLibrary.LendingOffer memory offer = _offerManager.getLendingOffer(\r\n            offerId\r\n        );\r\n\r\n        // percentage must be 25, 50, 75 or 100\r\n        require(percentage <= 100, \"OVER_PERCENTAGE\");\r\n        require(percentage % 25 == 0, \"ERR_PERCENTAGE\");\r\n\r\n        bool supported = false;\r\n        for (\r\n            uint256 index = 0;\r\n            index < offer.collateralTokens.length;\r\n            index++\r\n        ) {\r\n            if (offer.collateralTokens[index] == collateralToken) {\r\n                supported = true;\r\n                break;\r\n            }\r\n        }\r\n        require(supported, \"ERR_COLLATERAL_NOT_SUPPORTED\");\r\n\r\n        uint256 principalAmount = percentageOf(\r\n            offer.initialPrincipal,\r\n            percentage\r\n        );\r\n\r\n        /* get the trust factor of the borrower */\r\n        uint160 ltv = _ltv.getLTV(_msgSender());\r\n\r\n        /* calculate the collateral amount */\r\n        uint256 collateralNormalAmount = _priceFeed.exchangeRate(\r\n            offer.principalToken,\r\n            collateralToken,\r\n            principalAmount\r\n        );\r\n\r\n        uint256 collateralAmount = percentageOf(collateralNormalAmount, ltv) /\r\n            _ltv.getBase();\r\n\r\n        /* extract collateral tokens from borrower */\r\n        if (collateralToken == nativeAddress) {\r\n            require(collateralAmount >= msg.value, \"ERR_COLLATERAL_AMOUNT\");\r\n        } else {\r\n            ERC20(collateralToken).transferFrom(\r\n                _msgSender(),\r\n                address(this),\r\n                collateralAmount\r\n            );\r\n        }\r\n\r\n        /* transfer the asset to borrower */\r\n        if (offer.principalToken == nativeAddress) {\r\n            payable(_msgSender()).transfer(principalAmount);\r\n        } else {\r\n            ERC20(offer.principalToken).safeTransfer(\r\n                _msgSender(),\r\n                principalAmount\r\n            );\r\n        }\r\n\r\n        /* register the loan */\r\n        _loanManager.createLoan(\r\n            offerId,\r\n            OfferLibrary.Type.LENDING_OFFER,\r\n            offer.principalToken,\r\n            collateralToken,\r\n            principalAmount,\r\n            collateralAmount,\r\n            offer.interest,\r\n            offer.daysToMaturity,\r\n            _msgSender(),\r\n            offer.lender\r\n        );\r\n\r\n        // will revert if transaction fail\r\n        _offerManager._afterOfferLendingLoan(offerId, principalAmount);\r\n\r\n        // update activity\r\n        uint256 amountBorrowedInUSD = _priceFeed.amountInUSD(\r\n            offer.principalToken,\r\n            principalAmount\r\n        );\r\n        _activity._borrowLoan(_msgSender(), amountBorrowedInUSD);\r\n    }\r\n\r\n    // @borrower\r\n    function acceptLendingRequest(uint256 requestId) public payable {\r\n        RequestLibrary.LendingRequest memory request = _offerManager\r\n            .getLendingRequest(requestId);\r\n\r\n        OfferLibrary.BorrowingOffer memory offer = _offerManager\r\n            .getBorrowingOffer(request.offerId);\r\n\r\n        require(offer.borrower == _msgSender(), \"ERR_ONLY_BORROWER\");\r\n\r\n        uint256 collateralAmount = percentageOf(\r\n            offer.initialCollateral,\r\n            request.percentage\r\n        );\r\n\r\n        uint256 principalAmount = percentageOf(\r\n            offer.initialPrincipal,\r\n            request.percentage\r\n        );\r\n\r\n        /* extract principal from lender */\r\n        /* transfer principal to borrower */\r\n        if (offer.principalToken == nativeAddress) {\r\n            // if principal is native coin\r\n            payable(_msgSender()).transfer(principalAmount);\r\n        } else {\r\n            // if principal is ERC20\r\n            ERC20(offer.principalToken).transfer(_msgSender(), principalAmount);\r\n        }\r\n\r\n        /* register the loan from the loan manager */\r\n        _loanManager.createLoan(\r\n            request.offerId,\r\n            OfferLibrary.Type.LENDING_OFFER,\r\n            offer.principalToken,\r\n            offer.collateralToken,\r\n            principalAmount,\r\n            collateralAmount,\r\n            request.interest,\r\n            request.daysToMaturity,\r\n            _msgSender(),\r\n            request.lender\r\n        );\r\n\r\n        // will revert the transaction if fail\r\n        _offerManager._afterOfferLendingLoan(offer.offerId, principalAmount);\r\n\r\n        // update activity\r\n        uint256 amountBorrowedInUSD = _priceFeed.amountInUSD(\r\n            offer.principalToken,\r\n            principalAmount\r\n        );\r\n        _activity._borrowLoan(_msgSender(), amountBorrowedInUSD);\r\n    }\r\n\r\n    function repayLoan(uint256 loanId, uint16 percentage) public payable {\r\n        LoanLibrary.Loan memory loan = _loanManager.getLoan(loanId);\r\n\r\n        // percentage must be 25, 50, 75 or 100\r\n        require(percentage <= 100, \"OVER_PERCENTAGE\");\r\n        require(percentage % 25 == 0, \"ERR_PERCENTAGE\");\r\n\r\n        // verify the borrower is the repayer\r\n        require(loan.borrower == _msgSender(), \"ERR_NOT_BORROWER\");\r\n\r\n        // calculate the duration of the loan\r\n        uint160 time = uint160(block.timestamp);\r\n        uint160 ellapsedSecs = (time - loan.startDate);\r\n\r\n        uint256 principalAmount = percentageOf(\r\n            loan.initialPrincipal,\r\n            percentage\r\n        );\r\n\r\n        uint256 collateralAmount = percentageOf(\r\n            loan.initialCollateral,\r\n            percentage\r\n        );\r\n\r\n        // calculate the pay back amount\r\n        uint256 repaymentPrincipalAmount = getFullInterestAmount(\r\n            principalAmount,\r\n            ellapsedSecs,\r\n            loan.interest\r\n        );\r\n\r\n        // update ledger book\r\n        // will fail if encounter an error\r\n        _loanManager.repayLoan(loanId, principalAmount, collateralAmount);\r\n\r\n        /* extract pay back amount */\r\n        if (loan.principalToken == nativeAddress) {\r\n            // if principal is native coin\r\n            require(msg.value >= repaymentPrincipalAmount);\r\n        } else {\r\n            // if principal is ERC20 token\r\n            ERC20(loan.principalToken).transferFrom(\r\n                _msgSender(),\r\n                address(this),\r\n                repaymentPrincipalAmount\r\n            );\r\n        }\r\n\r\n        /* transfer collateral */\r\n        if (loan.collateralToken == nativeAddress) {\r\n            // if collateral is native coin\r\n            payable(_msgSender()).transfer(collateralAmount);\r\n        } else {\r\n            // if collateral is ERC20 token\r\n            ERC20(loan.collateralToken).transfer(\r\n                _msgSender(),\r\n                collateralAmount\r\n            );\r\n        }\r\n\r\n\r\n        // update activity\r\n        uint256 interestPaidInUSD = _priceFeed.amountInUSD(\r\n            loan.principalToken,\r\n            (repaymentPrincipalAmount - principalAmount)\r\n        );\r\n\r\n        uint256 amountPaidInUSD = _priceFeed.amountInUSD(\r\n            loan.principalToken,\r\n            principalAmount\r\n        );\r\n\r\n        _activity._repayLoan(_msgSender(), amountPaidInUSD, interestPaidInUSD);\r\n    }\r\n\r\n    function repayLiquidatedLoan(uint256 loanId) public payable {\r\n        LoanLibrary.Loan memory loan = _loanManager.getLoan(loanId);\r\n\r\n        bool liquidated = loan.state == LoanLibrary.State.LIQUIDATED;\r\n        require(liquidated);\r\n    }\r\n\r\n    function setPriceFeed(address priceFeed_) public onlyOwner {\r\n        _priceFeed = IPriceFeed(priceFeed_);\r\n    }\r\n\r\n    function changeOwner(address newOwner) public onlyOwner {\r\n        deployer = newOwner;\r\n    }\r\n\r\n    modifier onlyOwner() {\r\n        require(_msgSender() == deployer, \"ERR_ONLY_OWNER\");\r\n        _;\r\n    }\r\n}\r\n",
  "sourcePath": "C:\\Users\\DELL\\Documents\\darsh\\smart-contracts\\contracts\\LendingPool.sol",
  "compiler": {
    "name": "solc",
    "version": "0.8.17+commit.8df45f5f.Emscripten.clang"
  },
  "schemaVersion": "3.4.11",
  "updatedAt": "2023-02-12T14:01:17.893Z",
  "devdoc": {
    "kind": "dev",
    "methods": {},
    "version": 1
  },
  "userdoc": {
    "kind": "user",
    "methods": {},
    "version": 1
  }
}