{
  "contractName": "LoanToValueRatio",
  "abi": [
    {
      "inputs": [],
      "stateMutability": "nonpayable",
      "type": "constructor"
    },
    {
      "anonymous": false,
      "inputs": [
        {
          "indexed": true,
          "internalType": "address",
          "name": "previousOwner",
          "type": "address"
        },
        {
          "indexed": true,
          "internalType": "address",
          "name": "newOwner",
          "type": "address"
        }
      ],
      "name": "OwnershipTransferStarted",
      "type": "event"
    },
    {
      "anonymous": false,
      "inputs": [
        {
          "indexed": true,
          "internalType": "address",
          "name": "previousOwner",
          "type": "address"
        },
        {
          "indexed": true,
          "internalType": "address",
          "name": "newOwner",
          "type": "address"
        }
      ],
      "name": "OwnershipTransferred",
      "type": "event"
    },
    {
      "inputs": [],
      "name": "acceptOwnership",
      "outputs": [],
      "stateMutability": "nonpayable",
      "type": "function"
    },
    {
      "inputs": [],
      "name": "base",
      "outputs": [
        {
          "internalType": "uint8",
          "name": "",
          "type": "uint8"
        }
      ],
      "stateMutability": "view",
      "type": "function"
    },
    {
      "inputs": [],
      "name": "owner",
      "outputs": [
        {
          "internalType": "address",
          "name": "",
          "type": "address"
        }
      ],
      "stateMutability": "view",
      "type": "function"
    },
    {
      "inputs": [],
      "name": "pendingOwner",
      "outputs": [
        {
          "internalType": "address",
          "name": "",
          "type": "address"
        }
      ],
      "stateMutability": "view",
      "type": "function"
    },
    {
      "inputs": [],
      "name": "renounceOwnership",
      "outputs": [],
      "stateMutability": "nonpayable",
      "type": "function"
    },
    {
      "inputs": [
        {
          "internalType": "address",
          "name": "newOwner",
          "type": "address"
        }
      ],
      "name": "transferOwnership",
      "outputs": [],
      "stateMutability": "nonpayable",
      "type": "function"
    },
    {
      "inputs": [],
      "name": "getBase",
      "outputs": [
        {
          "internalType": "uint8",
          "name": "",
          "type": "uint8"
        }
      ],
      "stateMutability": "view",
      "type": "function"
    },
    {
      "inputs": [
        {
          "internalType": "address",
          "name": "user",
          "type": "address"
        }
      ],
      "name": "getLTV",
      "outputs": [
        {
          "internalType": "uint16",
          "name": "",
          "type": "uint16"
        }
      ],
      "stateMutability": "view",
      "type": "function"
    },
    {
      "inputs": [
        {
          "internalType": "address",
          "name": "trustScore_",
          "type": "address"
        },
        {
          "internalType": "uint16",
          "name": "minLTV_",
          "type": "uint16"
        },
        {
          "internalType": "uint16",
          "name": "maxLTV_",
          "type": "uint16"
        }
      ],
      "name": "setTrustScore",
      "outputs": [],
      "stateMutability": "nonpayable",
      "type": "function"
    }
  ],
  "bytecode": "0x6080806040523461007657600180546001600160a01b03199081169091556000805433928116831782556001600160a01b0316907f8be0079c531659141344cd1fd0a4f28419497f9722a3daafe3b4186f6b6457e09080a36002805460ff60c01b1916600560c11b1790556105a9908161007c8239f35b600080fdfe60406080815260048036101561001457600080fd5b600091823560e01c9182633d1fbc0e146103ea5782635001f3b5146103c5578263715018a61461036057826379ba5097146102a05782638da5cb5b14610278578263aca25f9a1461014757508163d104a13614610122578163e30c3978146100f5575063f2fde38b1461008657600080fd5b346100f25760203660031901126100f25761009f6104d1565b6100a76104ec565b600180546001600160a01b0319166001600160a01b0392831690811790915582549091167f38d16b8cac22d99fc7c124b9cd0de2d3fa1faef420bfe791d8c362d765e227008380a380f35b80fd5b90503461011e578160031936011261011e5760015490516001600160a01b039091168152602090f35b5080fd5b90503461011e578160031936011261011e5760209060ff60025460c01c169051908152f35b91503461027457602092836003193601126100f257906024916101686104d1565b6002548351630d47875d60e41b81526001600160a01b039283168782015294909187918691829085165afa93841561026a578294610206575b5061ffff938185809360a01c1692839160b01c16038581116101f357856101cb8193606493610544565b16041601938385116101e05750505191168152f35b634e487b7160e01b825260119052602490fd5b634e487b7160e01b845260118752602484fd5b909350853d8711610263575b601f8101601f1916820167ffffffffffffffff811183821017610250578791839186528101031261011e575161ffff8116810361011e5792386101a1565b634e487b7160e01b845260418752602484fd5b503d610212565b83513d84823e3d90fd5b8280fd5b83823461011e578160031936011261011e57905490516001600160a01b039091168152602090f35b915034610274578260031936011261027457600154916001600160a01b0391338385160361030b5750506001600160a01b031991821660015582543392811683178455167f8be0079c531659141344cd1fd0a4f28419497f9722a3daafe3b4186f6b6457e08380a380f35b906020608492519162461bcd60e51b8352820152602960248201527f4f776e61626c6532537465703a2063616c6c6572206973206e6f7420746865206044820152683732bb9037bbb732b960b91b6064820152fd5b83346100f257806003193601126100f2576103796104ec565b600180546001600160a01b03199081169091558154908116825581906001600160a01b03167f8be0079c531659141344cd1fd0a4f28419497f9722a3daafe3b4186f6b6457e08280a380f35b83823461011e578160031936011261011e5760209060ff60025460c01c169051908152f35b915034610274576060366003190112610274576104056104d1565b906024359261ffff918285168086036104cd57604435938416908185036104c95761042e6104ec565b101561049c5750506002549261045161ffff60a01b9160ff8660c01c1690610544565b60a01b169061ffff60b01b906104789061ffff60a01b198616841760c01c60ff1690610544565b60b01b169160018060a01b03169267ffffffffffffffff60c01b1617171760025580f35b906020606492519162461bcd60e51b8352820152600760248201526622a9292fa62a2b60c91b6044820152fd5b8780fd5b8680fd5b600435906001600160a01b03821682036104e757565b600080fd5b6000546001600160a01b0316330361050057565b606460405162461bcd60e51b815260206004820152602060248201527f4f776e61626c653a2063616c6c6572206973206e6f7420746865206f776e65726044820152fd5b91909161ffff8080941691160291821691820361055d57565b634e487b7160e01b600052601160045260246000fdfea2646970667358221220b42d4d96fffd049f8ee57ed11e2a56649d2131dd7b70b0e0dca2d8a1696b7d8064736f6c63430008110033",
  "immutableReferences": {},
  "source": "// SPDX-License-Identifier: GPL-3.0\r\npragma solidity >=0.7.0 <0.9.0;\r\n\r\nimport \"./interfaces/ITrustScore.sol\";\r\nimport \"./interfaces/ILoanToValueRatio.sol\";\r\nimport \"@openzeppelin/contracts/access/Ownable2Step.sol\";\r\n\r\ncontract LoanToValueRatio is Ownable2Step, ILoanToValueRatio {\r\n    ITrustScore private _trustScore;\r\n\r\n    uint16 minLTV;\r\n    uint16 maxLTV;\r\n\r\n    uint8 public base = 10;\r\n\r\n    constructor() Ownable2Step() {}\r\n\r\n    function getBase() public view override returns (uint8) {\r\n        return base;\r\n    }\r\n\r\n    function getLTV(address user) public view override returns (uint16) {\r\n        // 0 ~ 100\r\n        uint16 score = _trustScore.getScore(user);\r\n        uint16 range = maxLTV - minLTV;\r\n        uint16 scale = ((range * score) / 100);\r\n        return minLTV + scale;\r\n    }\r\n\r\n    function setTrustScore(\r\n        address trustScore_,\r\n        uint16 minLTV_,\r\n        uint16 maxLTV_\r\n    ) public onlyOwner {\r\n        require(minLTV_ < maxLTV_, \"ERR_LTV\");\r\n        minLTV = minLTV_ * base;\r\n        maxLTV = maxLTV_ * base;\r\n        _trustScore = ITrustScore(trustScore_);\r\n    }\r\n}\r\n",
  "sourcePath": "C:\\Users\\DELL\\Documents\\darsh\\smart-contracts\\contracts\\LoanToValueRatio.sol",
  "compiler": {
    "name": "solc",
    "version": "0.8.17+commit.8df45f5f.Emscripten.clang"
  },
  "schemaVersion": "3.4.11",
  "updatedAt": "2023-02-11T16:42:48.045Z",
  "devdoc": {
    "kind": "dev",
    "methods": {
      "acceptOwnership()": {
        "details": "The new owner accepts the ownership transfer."
      },
      "owner()": {
        "details": "Returns the address of the current owner."
      },
      "pendingOwner()": {
        "details": "Returns the address of the pending owner."
      },
      "renounceOwnership()": {
        "details": "Leaves the contract without owner. It will not be possible to call `onlyOwner` functions anymore. Can only be called by the current owner. NOTE: Renouncing ownership will leave the contract without an owner, thereby removing any functionality that is only available to the owner."
      },
      "transferOwnership(address)": {
        "details": "Starts the ownership transfer of the contract to a new account. Replaces the pending transfer if there is one. Can only be called by the current owner."
      }
    },
    "version": 1
  },
  "userdoc": {
    "kind": "user",
    "methods": {},
    "version": 1
  }
}