{
  "contractName": "LoanManager",
  "abi": [
    {
      "inputs": [],
      "stateMutability": "nonpayable",
      "type": "constructor"
    },
    {
      "anonymous": false,
      "inputs": [
        {
          "indexed": false,
          "internalType": "uint256",
          "name": "loanId",
          "type": "uint256"
        },
        {
          "indexed": false,
          "internalType": "uint256",
          "name": "offerId",
          "type": "uint256"
        },
        {
          "indexed": false,
          "internalType": "enum LoanLibrary.State",
          "name": "state",
          "type": "uint8"
        },
        {
          "indexed": false,
          "internalType": "address",
          "name": "principalType",
          "type": "address"
        },
        {
          "indexed": false,
          "internalType": "address",
          "name": "collateralType",
          "type": "address"
        },
        {
          "indexed": false,
          "internalType": "uint256",
          "name": "initialPrincipal",
          "type": "uint256"
        },
        {
          "indexed": false,
          "internalType": "uint256",
          "name": "currentPrincipal",
          "type": "uint256"
        },
        {
          "indexed": false,
          "internalType": "uint256",
          "name": "initialCollateral",
          "type": "uint256"
        },
        {
          "indexed": false,
          "internalType": "uint256",
          "name": "currentCollateral",
          "type": "uint256"
        },
        {
          "indexed": false,
          "internalType": "uint256",
          "name": "interest",
          "type": "uint256"
        },
        {
          "indexed": false,
          "internalType": "uint160",
          "name": "startDate",
          "type": "uint160"
        },
        {
          "indexed": false,
          "internalType": "uint160",
          "name": "maturityDate",
          "type": "uint160"
        },
        {
          "indexed": false,
          "internalType": "address",
          "name": "borrower",
          "type": "address"
        },
        {
          "indexed": false,
          "internalType": "address",
          "name": "lender",
          "type": "address"
        }
      ],
      "name": "LoanCreated",
      "type": "event"
    },
    {
      "anonymous": false,
      "inputs": [
        {
          "indexed": false,
          "internalType": "uint256",
          "name": "offerId",
          "type": "uint256"
        },
        {
          "indexed": false,
          "internalType": "uint256",
          "name": "amountPaid",
          "type": "uint256"
        },
        {
          "indexed": false,
          "internalType": "uint256",
          "name": "collateralRetrieved",
          "type": "uint256"
        }
      ],
      "name": "LoanRepaid",
      "type": "event"
    },
    {
      "anonymous": false,
      "inputs": [
        {
          "indexed": true,
          "internalType": "address",
          "name": "previousOwner",
          "type": "address"
        },
        {
          "indexed": true,
          "internalType": "address",
          "name": "newOwner",
          "type": "address"
        }
      ],
      "name": "OwnershipTransferStarted",
      "type": "event"
    },
    {
      "anonymous": false,
      "inputs": [
        {
          "indexed": true,
          "internalType": "address",
          "name": "previousOwner",
          "type": "address"
        },
        {
          "indexed": true,
          "internalType": "address",
          "name": "newOwner",
          "type": "address"
        }
      ],
      "name": "OwnershipTransferred",
      "type": "event"
    },
    {
      "inputs": [],
      "name": "acceptOwnership",
      "outputs": [],
      "stateMutability": "nonpayable",
      "type": "function"
    },
    {
      "inputs": [],
      "name": "owner",
      "outputs": [
        {
          "internalType": "address",
          "name": "",
          "type": "address"
        }
      ],
      "stateMutability": "view",
      "type": "function"
    },
    {
      "inputs": [],
      "name": "pendingOwner",
      "outputs": [
        {
          "internalType": "address",
          "name": "",
          "type": "address"
        }
      ],
      "stateMutability": "view",
      "type": "function"
    },
    {
      "inputs": [],
      "name": "renounceOwnership",
      "outputs": [],
      "stateMutability": "nonpayable",
      "type": "function"
    },
    {
      "inputs": [
        {
          "internalType": "address",
          "name": "newOwner",
          "type": "address"
        }
      ],
      "name": "transferOwnership",
      "outputs": [],
      "stateMutability": "nonpayable",
      "type": "function"
    },
    {
      "inputs": [
        {
          "internalType": "uint256",
          "name": "offerId",
          "type": "uint256"
        },
        {
          "internalType": "enum OfferLibrary.Type",
          "name": "offerType",
          "type": "uint8"
        },
        {
          "internalType": "address",
          "name": "principalType",
          "type": "address"
        },
        {
          "internalType": "address",
          "name": "collateralType",
          "type": "address"
        },
        {
          "internalType": "uint256",
          "name": "principal",
          "type": "uint256"
        },
        {
          "internalType": "uint256",
          "name": "collateral",
          "type": "uint256"
        },
        {
          "internalType": "uint256",
          "name": "interest",
          "type": "uint256"
        },
        {
          "internalType": "uint256",
          "name": "daysToMaturity",
          "type": "uint256"
        },
        {
          "internalType": "address",
          "name": "borrower",
          "type": "address"
        },
        {
          "internalType": "address",
          "name": "lender",
          "type": "address"
        }
      ],
      "name": "createLoan",
      "outputs": [
        {
          "internalType": "uint256",
          "name": "",
          "type": "uint256"
        }
      ],
      "stateMutability": "nonpayable",
      "type": "function"
    },
    {
      "inputs": [
        {
          "internalType": "uint256",
          "name": "loanId",
          "type": "uint256"
        }
      ],
      "name": "getLoan",
      "outputs": [
        {
          "components": [
            {
              "internalType": "uint256",
              "name": "offerId",
              "type": "uint256"
            },
            {
              "internalType": "enum LoanLibrary.State",
              "name": "state",
              "type": "uint8"
            },
            {
              "internalType": "enum OfferLibrary.Type",
              "name": "offerType",
              "type": "uint8"
            },
            {
              "internalType": "address",
              "name": "principalType",
              "type": "address"
            },
            {
              "internalType": "address",
              "name": "collateralType",
              "type": "address"
            },
            {
              "internalType": "uint256",
              "name": "initialPrincipal",
              "type": "uint256"
            },
            {
              "internalType": "uint256",
              "name": "currentPrincipal",
              "type": "uint256"
            },
            {
              "internalType": "uint256",
              "name": "initialCollateral",
              "type": "uint256"
            },
            {
              "internalType": "uint256",
              "name": "currentCollateral",
              "type": "uint256"
            },
            {
              "internalType": "uint256",
              "name": "interest",
              "type": "uint256"
            },
            {
              "internalType": "uint160",
              "name": "startDate",
              "type": "uint160"
            },
            {
              "internalType": "uint160",
              "name": "maturityDate",
              "type": "uint160"
            },
            {
              "internalType": "uint256",
              "name": "numInstallmentsPaid",
              "type": "uint256"
            },
            {
              "internalType": "address",
              "name": "borrower",
              "type": "address"
            },
            {
              "internalType": "address",
              "name": "lender",
              "type": "address"
            }
          ],
          "internalType": "struct LoanLibrary.Loan",
          "name": "",
          "type": "tuple"
        }
      ],
      "stateMutability": "view",
      "type": "function"
    },
    {
      "inputs": [
        {
          "internalType": "uint256",
          "name": "loanId",
          "type": "uint256"
        }
      ],
      "name": "repayLoanAll",
      "outputs": [
        {
          "internalType": "bool",
          "name": "",
          "type": "bool"
        }
      ],
      "stateMutability": "nonpayable",
      "type": "function"
    },
    {
      "inputs": [
        {
          "internalType": "uint256",
          "name": "loanId",
          "type": "uint256"
        },
        {
          "internalType": "uint256",
          "name": "principalPaid",
          "type": "uint256"
        },
        {
          "internalType": "uint256",
          "name": "collateralRetrieved",
          "type": "uint256"
        }
      ],
      "name": "repayLoanInstallment",
      "outputs": [
        {
          "internalType": "bool",
          "name": "",
          "type": "bool"
        }
      ],
      "stateMutability": "nonpayable",
      "type": "function"
    },
    {
      "inputs": [
        {
          "internalType": "uint256",
          "name": "loanId",
          "type": "uint256"
        }
      ],
      "name": "liquidateLoan",
      "outputs": [
        {
          "internalType": "bool",
          "name": "",
          "type": "bool"
        }
      ],
      "stateMutability": "nonpayable",
      "type": "function"
    },
    {
      "inputs": [
        {
          "internalType": "address",
          "name": "address_",
          "type": "address"
        }
      ],
      "name": "setLendingPool",
      "outputs": [],
      "stateMutability": "nonpayable",
      "type": "function"
    }
  ],
  "bytecode": "0x6080806040523461006357600180546001600160a01b03199081169091556000805433928116831782556001600160a01b0316907f8be0079c531659141344cd1fd0a4f28419497f9722a3daafe3b4186f6b6457e09080a3610b7690816100698239f35b600080fdfe6080604052600436101561001257600080fd5b60003560e01c8063113aa8b1146108d2578063504006ca146106b1578063715018a61461064c578063715efdc4146102c457806379ba50971461020157806387d709b7146101e35780638da5cb5b146101ba578063ccdd9f5d1461016e578063e30c397814610145578063f2fde38b146100da5763f750c43e1461009557600080fd5b346100d55760603660031901126100d5576004546001600160a01b031633036100d55760206100cb604435602435600435610a14565b6040519015158152f35b600080fd5b346100d55760203660031901126100d5576100f3610915565b6100fb61092b565b60018060a01b0380911690816001600160601b0360a01b6001541617600155600054167f38d16b8cac22d99fc7c124b9cd0de2d3fa1faef420bfe791d8c362d765e22700600080a3005b346100d55760003660031901126100d5576001546040516001600160a01b039091168152602090f35b346100d55760203660031901126100d5576004546001600160a01b031633036100d55760043560005260036020526001604060002001600260ff19825416179055602060405160018152f35b346100d55760003660031901126100d5576000546040516001600160a01b039091168152602090f35b346100d55760203660031901126100d55760206100cb6004356109c6565b346100d55760003660031901126100d5576001546001600160a01b03338183160361026d576001600160601b0360a01b8092166001556000549133908316176000553391167f8be0079c531659141344cd1fd0a4f28419497f9722a3daafe3b4186f6b6457e0600080a3005b60405162461bcd60e51b815260206004820152602960248201527f4f776e61626c6532537465703a2063616c6c6572206973206e6f7420746865206044820152683732bb9037bbb732b960b91b6064820152608490fd5b346100d5576101403660031901126100d557600260243510156100d5576044356001600160a01b03811681036100d557606435906001600160a01b03821682036100d55761010435916001600160a01b03831683036100d55761012435926001600160a01b03841684036100d5576004546001600160a01b031633036100d557600160025401928360025560e435946201518095868102968188041490151715610636576001600160a01b03428116878216011161063657610384610983565b926004358452600060208501526103a0602435604086016109ba565b6001600160a01b038381166060860152858116608086015260843560a0860181905260c086015260a43560e0860181905261010086015260c4356101208601524281166101408601819052888216018116610160860152600061018086018190528282166101a08701529083166101c0860152868152600360208181526040909220865181559186015191989196908710156106205760018901549560408101519960028b10156106205760209a7fc63637057aa35f4409b293579fe97bba867b81c7c627ad9fe7bee7490105becb996101c09960ff61ff0062010000600160b01b03606088015160101b169460081b1692169069ffffffffffffffffffff60b01b161717176001820155600c600282019160018060a01b03608085015116926001600160601b0360a01b938482541617905560a0840151600382015560c0840151600482015560e08401516005820155610100840151600682015561012084015160078201556008810160018060a01b0361014086015116848254161790556009810160018060a01b036101608601511684825416179055610180840151600a820155600b810160018060a01b036101a0860151168482541617905501918860018060a01b039101511690825416179055604051948886526004358a8701526000604087015260018060a01b0316606086015260018060a01b0316608085015260843560a085015260843560c085015260a43560e085015260a43561010085015260c43561012085015260018060a01b03421661014085015260018060a01b039060018060a01b031660018060a01b034216011661016084015260018060a01b031661018083015260018060a01b03166101a0820152a1604051908152f35b634e487b7160e01b600052602160045260246000fd5b634e487b7160e01b600052601160045260246000fd5b346100d55760003660031901126100d55761066561092b565b600180546001600160a01b0319908116909155600080549182168155906001600160a01b03167f8be0079c531659141344cd1fd0a4f28419497f9722a3daafe3b4186f6b6457e08280a3005b346100d55760203660031901126100d55760006101c06106cf610983565b8281528260208201528260408201528260608201528260808201528260a08201528260c08201528260e08201528261010082015282610120820152826101408201528261016082015282610180820152826101a0820152015260043560005260036020526040600020610740610983565b9080548252600181015460ff8116600381101561062057602084015261076f60ff8260081c16604085016109ba565b60101c6001600160a01b03908116606084015260028201548116608084015260038083015460a0850152600483015460c0850152600583015460e0850152600683015461010085015260078301546101208501526008830154821661014085015260098301548216610160850152600a830154610180850152600b83015482166101a0850152600c90920154166101c0830152604051825181526020830151909181101561062057602082015260408201519160028310156106205760408201929092526060828101516001600160a01b039081169183019190915260808084015182169083015260a0838101519083015260c0808401519083015260e0808401519083015261010080840151908301526101208084015190830152610140808401518216908301526101608084015182169083015261018080840151908301526101a0808401518216908301526101c09283015116918101919091526101e090f35b346100d55760203660031901126100d5576108eb610915565b6108f361092b565b600480546001600160a01b0319166001600160a01b0392909216919091179055005b600435906001600160a01b03821682036100d557565b6000546001600160a01b0316330361093f57565b606460405162461bcd60e51b815260206004820152602060248201527f4f776e61626c653a2063616c6c6572206973206e6f7420746865206f776e65726044820152fd5b604051906101e0820182811067ffffffffffffffff8211176109a457604052565b634e487b7160e01b600052604160045260246000fd5b60028210156106205752565b6004546001600160a01b031633036100d55760009081526003602052604081206004810182905560068101919091556001908101805460ff19168217905590565b9190820391821161063657565b9190600090838252600360205260409160ff60018483200154166003811015610b2c57610b24578481526003602052828120600401548210610a965750918391606093610a817fd9cfbcfb9ae5d65b8d34072de4575f602ee25cf3715bc05c291701fe9e258f9a966109c6565b505b81519384526020840152820152a1600190565b600483822001610aa7838254610a07565b90558481526003602052600683822001610ac2858254610a07565b90558481526003602052600a8382200180549160018301809311610b105750917fd9cfbcfb9ae5d65b8d34072de4575f602ee25cf3715bc05c291701fe9e258f9a9593916060959355610a83565b634e487b7160e01b81526011600452602490fd5b935050505090565b634e487b7160e01b82526021600452602482fdfea2646970667358221220d0deaab65e21636654eb882514eb93fcd9d9dc85b9c136ac9e747281d79e46e264736f6c63430008110033",
  "immutableReferences": {},
  "source": "// SPDX-License-Identifier: GPL-3.0\r\npragma solidity >=0.7.0 <0.9.0;\r\n\r\nimport \"../libraries/AssetLibrary.sol\";\r\nimport \"../libraries/LoanLibrary.sol\";\r\nimport \"../libraries/OfferLibrary.sol\";\r\n\r\nimport \"../interfaces/ILoanManager.sol\";\r\n\r\nimport \"@openzeppelin/contracts/access/Ownable2Step.sol\";\r\nimport \"@openzeppelin/contracts/utils/Counters.sol\";\r\n\r\ncontract LoanManager is ILoanManager, Ownable2Step {\r\n    using Counters for Counters.Counter;\r\n\r\n    Counters.Counter private loanIdTracker;\r\n    mapping(uint256 => LoanLibrary.Loan) private loans;\r\n\r\n    address lendingPool;\r\n\r\n    event LoanCreated(\r\n        uint256 loanId,\r\n        uint256 offerId,    \r\n        LoanLibrary.State state,\r\n        address principalType,    \r\n        address collateralType,\r\n        uint256 initialPrincipal,\r\n        uint256 currentPrincipal,\r\n        uint256 initialCollateral,\r\n        uint256 currentCollateral,\r\n        uint256 interest,\r\n        uint160 startDate,\r\n        uint160 maturityDate,\r\n        address borrower,\r\n        address lender\r\n    );\r\n\r\n    event LoanRepaid(\r\n        uint256 offerId,\r\n        uint256 amountPaid,\r\n        uint256 collateralRetrieved\r\n    );\r\n\r\n    constructor() Ownable2Step() {}\r\n\r\n    function createLoan(\r\n        uint256 offerId,\r\n        OfferLibrary.Type offerType,\r\n        address principalType,\r\n        address collateralType,\r\n        uint256 principal,\r\n        uint256 collateral,\r\n        uint256 interest,\r\n        uint256 daysToMaturity,\r\n        address borrower,\r\n        address lender\r\n    ) public onlyLendingPool returns (uint256) {\r\n        // avoid 0 id\r\n        loanIdTracker.increment();\r\n        uint256 loanId = loanIdTracker.current();\r\n\r\n        uint160 startDate = uint160(block.timestamp);\r\n        uint160 duration = uint160((daysToMaturity * 1 days));\r\n        uint160 maturityDate = startDate + duration;\r\n        uint256 numInstallmentsPaid = 0;\r\n\r\n        loans[loanId] = LoanLibrary.Loan(\r\n            offerId,\r\n            LoanLibrary.State.ACTIVE,\r\n            offerType,\r\n            principalType,\r\n            collateralType,\r\n            principal,\r\n            principal,\r\n            collateral,\r\n            collateral,\r\n            interest,\r\n            startDate,\r\n            maturityDate,\r\n            numInstallmentsPaid,\r\n            borrower,\r\n            lender\r\n        );\r\n\r\n        emit LoanCreated(\r\n            loanId,\r\n            offerId,\r\n            LoanLibrary.State.ACTIVE,\r\n            principalType,\r\n            collateralType,\r\n            principal,\r\n            principal,\r\n            collateral,\r\n            collateral,\r\n            interest,\r\n            startDate,\r\n            maturityDate,\r\n            borrower,\r\n            lender\r\n        );\r\n\r\n        return loanId;\r\n    }\r\n\r\n    function getLoan(uint256 loanId)\r\n        public\r\n        view\r\n        override\r\n        returns (LoanLibrary.Loan memory)\r\n    {\r\n        return loans[loanId];\r\n    }\r\n\r\n    function repayLoanAll(uint256 loanId)\r\n        public\r\n        override\r\n        onlyLendingPool\r\n        returns (bool)\r\n    {\r\n        loans[loanId].currentPrincipal = 0;\r\n        loans[loanId].currentCollateral = 0;\r\n        loans[loanId].state = LoanLibrary.State.PAID;\r\n        return true;\r\n    }\r\n\r\n    function repayLoanInstallment(\r\n        uint256 loanId,\r\n        uint256 principalPaid,\r\n        uint256 collateralRetrieved\r\n    ) public override onlyLendingPool returns (bool) {\r\n        if (loans[loanId].state != LoanLibrary.State.ACTIVE) return false;\r\n\r\n        if (principalPaid >= loans[loanId].currentPrincipal) {\r\n            repayLoanAll(loanId);\r\n        } else {\r\n            loans[loanId].currentPrincipal -= principalPaid;\r\n            loans[loanId].currentCollateral -= collateralRetrieved;\r\n            loans[loanId].numInstallmentsPaid += 1;\r\n        }\r\n\r\n        emit LoanRepaid(loanId, principalPaid, collateralRetrieved);\r\n        return true;\r\n    }\r\n\r\n    function liquidateLoan(uint256 loanId)\r\n        public\r\n        override\r\n        onlyLendingPool\r\n        returns (bool)\r\n    {\r\n        loans[loanId].state = LoanLibrary.State.LIQUIDATED;\r\n        return true;\r\n    }\r\n\r\n    function setLendingPool(address address_) public onlyOwner {\r\n        lendingPool = address_;\r\n    }\r\n\r\n    modifier onlyLendingPool() {\r\n        require(msg.sender == lendingPool);\r\n        _;\r\n    }\r\n}\r\n",
  "sourcePath": "C:\\Users\\DELL\\Documents\\darsh\\smart-contracts\\contracts\\managers\\LoanManager.sol",
  "compiler": {
    "name": "solc",
    "version": "0.8.17+commit.8df45f5f.Emscripten.clang"
  },
  "schemaVersion": "3.4.11",
  "updatedAt": "2023-02-11T16:42:48.079Z",
  "devdoc": {
    "kind": "dev",
    "methods": {
      "acceptOwnership()": {
        "details": "The new owner accepts the ownership transfer."
      },
      "owner()": {
        "details": "Returns the address of the current owner."
      },
      "pendingOwner()": {
        "details": "Returns the address of the pending owner."
      },
      "renounceOwnership()": {
        "details": "Leaves the contract without owner. It will not be possible to call `onlyOwner` functions anymore. Can only be called by the current owner. NOTE: Renouncing ownership will leave the contract without an owner, thereby removing any functionality that is only available to the owner."
      },
      "transferOwnership(address)": {
        "details": "Starts the ownership transfer of the contract to a new account. Replaces the pending transfer if there is one. Can only be called by the current owner."
      }
    },
    "version": 1
  },
  "userdoc": {
    "kind": "user",
    "methods": {},
    "version": 1
  }
}