{
  "contractName": "LoanToValueRatio",
  "abi": [
    {
      "inputs": [],
      "stateMutability": "nonpayable",
      "type": "constructor"
    },
    {
      "anonymous": false,
      "inputs": [
        {
          "indexed": true,
          "internalType": "address",
          "name": "previousOwner",
          "type": "address"
        },
        {
          "indexed": true,
          "internalType": "address",
          "name": "newOwner",
          "type": "address"
        }
      ],
      "name": "OwnershipTransferStarted",
      "type": "event"
    },
    {
      "anonymous": false,
      "inputs": [
        {
          "indexed": true,
          "internalType": "address",
          "name": "previousOwner",
          "type": "address"
        },
        {
          "indexed": true,
          "internalType": "address",
          "name": "newOwner",
          "type": "address"
        }
      ],
      "name": "OwnershipTransferred",
      "type": "event"
    },
    {
      "inputs": [],
      "name": "acceptOwnership",
      "outputs": [],
      "stateMutability": "nonpayable",
      "type": "function"
    },
    {
      "inputs": [],
      "name": "base",
      "outputs": [
        {
          "internalType": "uint8",
          "name": "",
          "type": "uint8"
        }
      ],
      "stateMutability": "view",
      "type": "function"
    },
    {
      "inputs": [],
      "name": "owner",
      "outputs": [
        {
          "internalType": "address",
          "name": "",
          "type": "address"
        }
      ],
      "stateMutability": "view",
      "type": "function"
    },
    {
      "inputs": [],
      "name": "pendingOwner",
      "outputs": [
        {
          "internalType": "address",
          "name": "",
          "type": "address"
        }
      ],
      "stateMutability": "view",
      "type": "function"
    },
    {
      "inputs": [],
      "name": "renounceOwnership",
      "outputs": [],
      "stateMutability": "nonpayable",
      "type": "function"
    },
    {
      "inputs": [
        {
          "internalType": "address",
          "name": "newOwner",
          "type": "address"
        }
      ],
      "name": "transferOwnership",
      "outputs": [],
      "stateMutability": "nonpayable",
      "type": "function"
    },
    {
      "inputs": [],
      "name": "trustPrice0",
      "outputs": [
        {
          "internalType": "uint256",
          "name": "",
          "type": "uint256"
        }
      ],
      "stateMutability": "view",
      "type": "function"
    },
    {
      "inputs": [],
      "name": "trustPrice1",
      "outputs": [
        {
          "internalType": "uint256",
          "name": "",
          "type": "uint256"
        }
      ],
      "stateMutability": "view",
      "type": "function"
    },
    {
      "inputs": [],
      "name": "getBase",
      "outputs": [
        {
          "internalType": "uint8",
          "name": "",
          "type": "uint8"
        }
      ],
      "stateMutability": "view",
      "type": "function"
    },
    {
      "inputs": [
        {
          "internalType": "address",
          "name": "user",
          "type": "address"
        },
        {
          "internalType": "uint256",
          "name": "amount",
          "type": "uint256"
        }
      ],
      "name": "getRelativeLTV",
      "outputs": [
        {
          "internalType": "uint160",
          "name": "",
          "type": "uint160"
        }
      ],
      "stateMutability": "view",
      "type": "function"
    },
    {
      "inputs": [
        {
          "internalType": "address",
          "name": "user",
          "type": "address"
        }
      ],
      "name": "getLTV",
      "outputs": [
        {
          "internalType": "uint160",
          "name": "",
          "type": "uint160"
        }
      ],
      "stateMutability": "view",
      "type": "function"
    },
    {
      "inputs": [
        {
          "internalType": "address",
          "name": "trustScore_",
          "type": "address"
        },
        {
          "internalType": "uint160",
          "name": "minLTV_",
          "type": "uint160"
        },
        {
          "internalType": "uint160",
          "name": "maxLTV_",
          "type": "uint160"
        }
      ],
      "name": "setHealthScore",
      "outputs": [],
      "stateMutability": "nonpayable",
      "type": "function"
    }
  ],
  "bytecode": "0x6080806040523461009057600180546001600160a01b03199081169091556000805433928116831782556001600160a01b0316907f8be0079c531659141344cd1fd0a4f28419497f9722a3daafe3b4186f6b6457e09080a36004805460ff60a01b1916600560a11b179055683635c9adc5dea0000060055568a2a15d09519be0000060065561067f90816100968239f35b600080fdfe60806040908082526004918236101561001757600080fd5b600092833560e01c9283633d58b0f214610411575082635001f3b514610147578263715018a6146103ac57826379ba5097146102ec578263833ba9d3146102125782638a83f8cc146101e95782638da5cb5b146101c1578263983bd9d5146101a2578263aca25f9a1461016b578263d104a1361461014757508163e30c39781461011a575063f2fde38b146100ab57600080fd5b34610117576020366003190112610117576100c461042d565b6100cc610448565b600180546001600160a01b0319166001600160a01b0392831690811790915582549091167f38d16b8cac22d99fc7c124b9cd0de2d3fa1faef420bfe791d8c362d765e227008380a380f35b80fd5b90503461014357816003193601126101435760015490516001600160a01b039091168152602090f35b5080fd5b9083346101175780600319360112610117575060ff6020925460a01c169051908152f35b8382346101435760203660031901126101435760209061019161018c61042d565b610562565b90516001600160a01b039091168152f35b8382346101435781600319360112610143576020906006549051908152f35b838234610143578160031936011261014357905490516001600160a01b039091168152602090f35b83823461014357806003193601126101435760209061019161020961042d565b602435906104cf565b909150346102e85760603660031901126102e85761022e61042d565b6001600160a01b03602435818116949193918582036102e45760443595858716908188036102e05761025e610448565b10156102b45750815490846102a18161027e60ff8660a01c16809561053c565b16926bffffffffffffffffffffffff60a01b98899485600354161760035561053c565b1691161790551690600254161760025580f35b5162461bcd60e51b8152602081840152600760248201526622a9292fa62a2b60c91b6044820152606490fd5b8880fd5b8680fd5b8280fd5b9150346102e857826003193601126102e857600154916001600160a01b039133838516036103575750506001600160a01b031991821660015582543392811683178455167f8be0079c531659141344cd1fd0a4f28419497f9722a3daafe3b4186f6b6457e08380a380f35b906020608492519162461bcd60e51b8352820152602960248201527f4f776e61626c6532537465703a2063616c6c6572206973206e6f7420746865206044820152683732bb9037bbb732b960b91b6064820152fd5b83346101175780600319360112610117576103c5610448565b600180546001600160a01b03199081169091558154908116825581906001600160a01b03167f8be0079c531659141344cd1fd0a4f28419497f9722a3daafe3b4186f6b6457e08280a380f35b8490346101435781600319360112610143576020906005548152f35b600435906001600160a01b038216820361044357565b600080fd5b6000546001600160a01b0316330361045c57565b606460405162461bcd60e51b815260206004820152602060248201527f4f776e61626c653a2063616c6c6572206973206e6f7420746865206f776e65726044820152fd5b6001600160a01b0391821690821601919082116104b957565b634e487b7160e01b600052601160045260246000fd5b6104d890610562565b90600654811161052b57600554106104ed5790565b6004546003546001600160a01b039160016001609f1b0391610514919084169084166104a0565b60011c16809183161115610526575090565b905090565b50506004546001600160a01b031690565b6001600160a01b039182169082168181029092169291801590840490911417156104b957565b600254604051630d47875d60e41b81526001600160a01b039283166004820152906020908290602490829086165afa90811561063d576000916105d7575b50908060045416908060035416809203908082116104b9576105cc60649261ffff6105d496169061053c565b1604906104a0565b90565b60203d8111610636575b601f8101601f1916820167ffffffffffffffff8111838210176106225760209183916040528101031261014357519061ffff821682036101175750386105a0565b634e487b7160e01b84526041600452602484fd5b503d6105e1565b6040513d6000823e3d90fdfea264697066735822122050cc91db93080236340dceb38ed3a0b1539a72ff2616f7aea9301748df83a78764736f6c63430008110033",
  "immutableReferences": {},
  "source": "// SPDX-License-Identifier: GPL-3.0\r\npragma solidity >=0.7.0 <0.9.0;\r\n\r\nimport \"./interfaces/IHealthScore.sol\";\r\nimport \"./interfaces/ILoanToValueRatio.sol\";\r\n\r\nimport \"@openzeppelin/contracts/access/Ownable2Step.sol\";\r\n\r\ncontract LoanToValueRatio is Ownable2Step, ILoanToValueRatio {\r\n    IHealthScore private _trustScore;\r\n\r\n    uint160 minLTV;\r\n    uint160 maxLTV;\r\n\r\n    uint8 public base = 10;\r\n    uint256 public trustPrice0 = 1000 * 1e18;\r\n    uint256 public trustPrice1 = 3000 * 1e18;\r\n\r\n    constructor() Ownable2Step() {}\r\n\r\n    function getBase() public view override returns (uint8) {\r\n        return base;\r\n    }\r\n\r\n    function getRelativeLTV(address user, uint256 amount)\r\n        public\r\n        view\r\n        override\r\n        returns (uint160)\r\n    {\r\n        uint160 ltv = getLTV(user);\r\n        \r\n        if (amount > trustPrice1) return maxLTV;\r\n\r\n        if (amount > trustPrice0) {\r\n            uint160 average = ((maxLTV + minLTV) / 2);\r\n            if (ltv <= average) return average;\r\n        }\r\n\r\n        return ltv;\r\n    }\r\n\r\n    function getLTV(address user) public view override returns (uint160) {\r\n        // 0 ~ 100\r\n        uint16 score = _trustScore.getScore(user);\r\n        uint160 range = maxLTV - minLTV;\r\n        uint160 scale = ((range * score) / 100);\r\n        return minLTV + scale;\r\n    }\r\n\r\n    function setHealthScore(\r\n        address trustScore_,\r\n        uint160 minLTV_,\r\n        uint160 maxLTV_\r\n    ) public onlyOwner {\r\n        require(minLTV_ < maxLTV_, \"ERR_LTV\");\r\n        minLTV = minLTV_ * base;\r\n        maxLTV = maxLTV_ * base;\r\n        _trustScore = IHealthScore(trustScore_);\r\n    }\r\n}\r\n",
  "sourcePath": "C:\\Users\\DELL\\Documents\\darsh\\smart-contracts\\contracts\\LoanToValueRatio.sol",
  "compiler": {
    "name": "solc",
    "version": "0.8.17+commit.8df45f5f.Emscripten.clang"
  },
  "schemaVersion": "3.4.11",
  "updatedAt": "2023-02-20T11:03:35.504Z",
  "devdoc": {
    "kind": "dev",
    "methods": {
      "acceptOwnership()": {
        "details": "The new owner accepts the ownership transfer."
      },
      "owner()": {
        "details": "Returns the address of the current owner."
      },
      "pendingOwner()": {
        "details": "Returns the address of the pending owner."
      },
      "renounceOwnership()": {
        "details": "Leaves the contract without owner. It will not be possible to call `onlyOwner` functions anymore. Can only be called by the current owner. NOTE: Renouncing ownership will leave the contract without an owner, thereby removing any functionality that is only available to the owner."
      },
      "transferOwnership(address)": {
        "details": "Starts the ownership transfer of the contract to a new account. Replaces the pending transfer if there is one. Can only be called by the current owner."
      }
    },
    "version": 1
  },
  "userdoc": {
    "kind": "user",
    "methods": {},
    "version": 1
  }
}