{
  "contractName": "LoanToValueRatio",
  "abi": [
    {
      "inputs": [],
      "stateMutability": "nonpayable",
      "type": "constructor"
    },
    {
      "anonymous": false,
      "inputs": [
        {
          "indexed": true,
          "internalType": "address",
          "name": "previousOwner",
          "type": "address"
        },
        {
          "indexed": true,
          "internalType": "address",
          "name": "newOwner",
          "type": "address"
        }
      ],
      "name": "OwnershipTransferStarted",
      "type": "event"
    },
    {
      "anonymous": false,
      "inputs": [
        {
          "indexed": true,
          "internalType": "address",
          "name": "previousOwner",
          "type": "address"
        },
        {
          "indexed": true,
          "internalType": "address",
          "name": "newOwner",
          "type": "address"
        }
      ],
      "name": "OwnershipTransferred",
      "type": "event"
    },
    {
      "inputs": [],
      "name": "acceptOwnership",
      "outputs": [],
      "stateMutability": "nonpayable",
      "type": "function"
    },
    {
      "inputs": [],
      "name": "base",
      "outputs": [
        {
          "internalType": "uint8",
          "name": "",
          "type": "uint8"
        }
      ],
      "stateMutability": "view",
      "type": "function"
    },
    {
      "inputs": [],
      "name": "owner",
      "outputs": [
        {
          "internalType": "address",
          "name": "",
          "type": "address"
        }
      ],
      "stateMutability": "view",
      "type": "function"
    },
    {
      "inputs": [],
      "name": "pendingOwner",
      "outputs": [
        {
          "internalType": "address",
          "name": "",
          "type": "address"
        }
      ],
      "stateMutability": "view",
      "type": "function"
    },
    {
      "inputs": [],
      "name": "renounceOwnership",
      "outputs": [],
      "stateMutability": "nonpayable",
      "type": "function"
    },
    {
      "inputs": [
        {
          "internalType": "address",
          "name": "newOwner",
          "type": "address"
        }
      ],
      "name": "transferOwnership",
      "outputs": [],
      "stateMutability": "nonpayable",
      "type": "function"
    },
    {
      "inputs": [],
      "name": "trustPrice0",
      "outputs": [
        {
          "internalType": "uint256",
          "name": "",
          "type": "uint256"
        }
      ],
      "stateMutability": "view",
      "type": "function"
    },
    {
      "inputs": [],
      "name": "trustPrice1",
      "outputs": [
        {
          "internalType": "uint256",
          "name": "",
          "type": "uint256"
        }
      ],
      "stateMutability": "view",
      "type": "function"
    },
    {
      "inputs": [],
      "name": "getBase",
      "outputs": [
        {
          "internalType": "uint8",
          "name": "",
          "type": "uint8"
        }
      ],
      "stateMutability": "view",
      "type": "function"
    },
    {
      "inputs": [
        {
          "internalType": "address",
          "name": "user",
          "type": "address"
        },
        {
          "internalType": "uint256",
          "name": "amount",
          "type": "uint256"
        }
      ],
      "name": "getRelativeLTV",
      "outputs": [
        {
          "internalType": "uint160",
          "name": "",
          "type": "uint160"
        }
      ],
      "stateMutability": "view",
      "type": "function"
    },
    {
      "inputs": [
        {
          "internalType": "address",
          "name": "user",
          "type": "address"
        }
      ],
      "name": "getLTV",
      "outputs": [
        {
          "internalType": "uint160",
          "name": "",
          "type": "uint160"
        }
      ],
      "stateMutability": "view",
      "type": "function"
    },
    {
      "inputs": [
        {
          "internalType": "address",
          "name": "trustScore_",
          "type": "address"
        },
        {
          "internalType": "uint160",
          "name": "minLTV_",
          "type": "uint160"
        },
        {
          "internalType": "uint160",
          "name": "maxLTV_",
          "type": "uint160"
        }
      ],
      "name": "setTrustScore",
      "outputs": [],
      "stateMutability": "nonpayable",
      "type": "function"
    }
  ],
  "bytecode": "0x6080806040523461009057600180546001600160a01b03199081169091556000805433928116831782556001600160a01b0316907f8be0079c531659141344cd1fd0a4f28419497f9722a3daafe3b4186f6b6457e09080a36004805460ff60a01b1916600560a11b179055683635c9adc5dea0000060055568a2a15d09519be0000060065561067e90816100968239f35b600080fdfe60406080815260048036101561001457600080fd5b600091823560e01c9182632cc0854c146103565782633d58b0f2146103375782635001f3b514610143578263715018a6146102d257826379ba50971461020e5782638a83f8cc146101e55782638da5cb5b146101bd578263983bd9d51461019e578263aca25f9a14610167578263d104a1361461014357508163e30c397814610116575063f2fde38b146100a757600080fd5b34610113576020366003190112610113576100c061042c565b6100c8610447565b600180546001600160a01b0319166001600160a01b0392831690811790915582549091167f38d16b8cac22d99fc7c124b9cd0de2d3fa1faef420bfe791d8c362d765e227008380a380f35b80fd5b90503461013f578160031936011261013f5760015490516001600160a01b039091168152602090f35b5080fd5b9083346101135780600319360112610113575060ff6020925460a01c169051908152f35b83823461013f57602036600319011261013f5760209061018d61018861042c565b610561565b90516001600160a01b039091168152f35b83823461013f578160031936011261013f576020906006549051908152f35b83823461013f578160031936011261013f57905490516001600160a01b039091168152602090f35b83823461013f578060031936011261013f5760209061018d61020561042c565b602435906104ce565b9150346102ce57826003193601126102ce57600154916001600160a01b039133838516036102795750506001600160a01b031991821660015582543392811683178455167f8be0079c531659141344cd1fd0a4f28419497f9722a3daafe3b4186f6b6457e08380a380f35b906020608492519162461bcd60e51b8352820152602960248201527f4f776e61626c6532537465703a2063616c6c6572206973206e6f7420746865206044820152683732bb9037bbb732b960b91b6064820152fd5b8280fd5b83346101135780600319360112610113576102eb610447565b600180546001600160a01b03199081169091558154908116825581906001600160a01b03167f8be0079c531659141344cd1fd0a4f28419497f9722a3daafe3b4186f6b6457e08280a380f35b83823461013f578160031936011261013f576020906005549051908152f35b909150346102ce5760603660031901126102ce5761037261042c565b6001600160a01b0360243581811694919391858203610428576044359585871690818803610424576103a2610447565b10156103f85750815490846103e5816103c260ff8660a01c16809561053b565b16926bffffffffffffffffffffffff60a01b98899485600354161760035561053b565b1691161790551690600254161760025580f35b5162461bcd60e51b8152602081840152600760248201526622a9292fa62a2b60c91b6044820152606490fd5b8880fd5b8680fd5b600435906001600160a01b038216820361044257565b600080fd5b6000546001600160a01b0316330361045b57565b606460405162461bcd60e51b815260206004820152602060248201527f4f776e61626c653a2063616c6c6572206973206e6f7420746865206f776e65726044820152fd5b6001600160a01b0391821690821601919082116104b857565b634e487b7160e01b600052601160045260246000fd5b6104d790610561565b90600654811161052a57600554106104ec5790565b6004546003546001600160a01b039160016001609f1b03916105139190841690841661049f565b60011c16809183161115610525575090565b905090565b50506004546001600160a01b031690565b6001600160a01b039182169082168181029092169291801590840490911417156104b857565b600254604051630d47875d60e41b81526001600160a01b039283166004820152906020908290602490829086165afa90811561063c576000916105d6575b50908060045416908060035416809203908082116104b8576105cb60649261ffff6105d396169061053b565b16049061049f565b90565b60203d8111610635575b601f8101601f1916820167ffffffffffffffff8111838210176106215760209183916040528101031261013f57519061ffff8216820361011357503861059f565b634e487b7160e01b84526041600452602484fd5b503d6105e0565b6040513d6000823e3d90fdfea2646970667358221220bf4ca615469b589db6051b825c6ee4ab9d6a1d4078705c5826101162df23567164736f6c63430008110033",
  "immutableReferences": {},
  "source": "// SPDX-License-Identifier: GPL-3.0\r\npragma solidity >=0.7.0 <0.9.0;\r\n\r\nimport \"./interfaces/ITrustScore.sol\";\r\nimport \"./interfaces/ILoanToValueRatio.sol\";\r\nimport \"@openzeppelin/contracts/access/Ownable2Step.sol\";\r\n\r\ncontract LoanToValueRatio is Ownable2Step, ILoanToValueRatio {\r\n    ITrustScore private _trustScore;\r\n\r\n    uint160 minLTV;\r\n    uint160 maxLTV;\r\n\r\n    uint8 public base = 10;\r\n    uint256 public trustPrice0 = 1000 * 1e18;\r\n    uint256 public trustPrice1 = 3000 * 1e18;\r\n\r\n    constructor() Ownable2Step() {}\r\n\r\n    function getBase() public view override returns (uint8) {\r\n        return base;\r\n    }\r\n\r\n    function getRelativeLTV(address user, uint256 amount)\r\n        public\r\n        view\r\n        override\r\n        returns (uint160)\r\n    {\r\n        uint160 ltv = getLTV(user);\r\n        \r\n        if (amount > trustPrice1) return maxLTV;\r\n\r\n        if (amount > trustPrice0) {\r\n            uint160 average = ((maxLTV + minLTV) / 2);\r\n            if (ltv <= average) return average;\r\n        }\r\n\r\n        return ltv;\r\n    }\r\n\r\n    function getLTV(address user) public view override returns (uint160) {\r\n        // 0 ~ 100\r\n        uint16 score = _trustScore.getScore(user);\r\n        uint160 range = maxLTV - minLTV;\r\n        uint160 scale = ((range * score) / 100);\r\n        return minLTV + scale;\r\n    }\r\n\r\n    function setTrustScore(\r\n        address trustScore_,\r\n        uint160 minLTV_,\r\n        uint160 maxLTV_\r\n    ) public onlyOwner {\r\n        require(minLTV_ < maxLTV_, \"ERR_LTV\");\r\n        minLTV = minLTV_ * base;\r\n        maxLTV = maxLTV_ * base;\r\n        _trustScore = ITrustScore(trustScore_);\r\n    }\r\n}\r\n",
  "sourcePath": "C:\\Users\\DELL\\Documents\\darsh\\smart-contracts\\contracts\\LoanToValueRatio.sol",
  "compiler": {
    "name": "solc",
    "version": "0.8.17+commit.8df45f5f.Emscripten.clang"
  },
  "schemaVersion": "3.4.11",
  "updatedAt": "2023-02-15T20:11:12.187Z",
  "devdoc": {
    "kind": "dev",
    "methods": {
      "acceptOwnership()": {
        "details": "The new owner accepts the ownership transfer."
      },
      "owner()": {
        "details": "Returns the address of the current owner."
      },
      "pendingOwner()": {
        "details": "Returns the address of the pending owner."
      },
      "renounceOwnership()": {
        "details": "Leaves the contract without owner. It will not be possible to call `onlyOwner` functions anymore. Can only be called by the current owner. NOTE: Renouncing ownership will leave the contract without an owner, thereby removing any functionality that is only available to the owner."
      },
      "transferOwnership(address)": {
        "details": "Starts the ownership transfer of the contract to a new account. Replaces the pending transfer if there is one. Can only be called by the current owner."
      }
    },
    "version": 1
  },
  "userdoc": {
    "kind": "user",
    "methods": {},
    "version": 1
  }
}