{
  "contractName": "LoanManager",
  "abi": [
    {
      "inputs": [],
      "stateMutability": "nonpayable",
      "type": "constructor"
    },
    {
      "anonymous": false,
      "inputs": [
        {
          "indexed": false,
          "internalType": "uint256",
          "name": "loanId",
          "type": "uint256"
        },
        {
          "indexed": false,
          "internalType": "uint160",
          "name": "offerId",
          "type": "uint160"
        },
        {
          "indexed": false,
          "internalType": "enum LoanLibrary.State",
          "name": "state",
          "type": "uint8"
        },
        {
          "indexed": false,
          "internalType": "address",
          "name": "principalToken",
          "type": "address"
        },
        {
          "indexed": false,
          "internalType": "address",
          "name": "collateralToken",
          "type": "address"
        },
        {
          "indexed": false,
          "internalType": "uint256",
          "name": "initialPrincipal",
          "type": "uint256"
        },
        {
          "indexed": false,
          "internalType": "uint256",
          "name": "currentPrincipal",
          "type": "uint256"
        },
        {
          "indexed": false,
          "internalType": "uint256",
          "name": "initialCollateral",
          "type": "uint256"
        },
        {
          "indexed": false,
          "internalType": "uint256",
          "name": "currentCollateral",
          "type": "uint256"
        },
        {
          "indexed": false,
          "internalType": "uint256",
          "name": "interest",
          "type": "uint256"
        },
        {
          "indexed": false,
          "internalType": "uint160",
          "name": "startDate",
          "type": "uint160"
        },
        {
          "indexed": false,
          "internalType": "uint160",
          "name": "maturityDate",
          "type": "uint160"
        },
        {
          "indexed": false,
          "internalType": "address",
          "name": "borrower",
          "type": "address"
        },
        {
          "indexed": false,
          "internalType": "address",
          "name": "lender",
          "type": "address"
        }
      ],
      "name": "LoanCreated",
      "type": "event"
    },
    {
      "anonymous": false,
      "inputs": [
        {
          "indexed": true,
          "internalType": "address",
          "name": "previousOwner",
          "type": "address"
        },
        {
          "indexed": true,
          "internalType": "address",
          "name": "newOwner",
          "type": "address"
        }
      ],
      "name": "OwnershipTransferStarted",
      "type": "event"
    },
    {
      "anonymous": false,
      "inputs": [
        {
          "indexed": true,
          "internalType": "address",
          "name": "previousOwner",
          "type": "address"
        },
        {
          "indexed": true,
          "internalType": "address",
          "name": "newOwner",
          "type": "address"
        }
      ],
      "name": "OwnershipTransferred",
      "type": "event"
    },
    {
      "inputs": [],
      "name": "acceptOwnership",
      "outputs": [],
      "stateMutability": "nonpayable",
      "type": "function"
    },
    {
      "inputs": [],
      "name": "owner",
      "outputs": [
        {
          "internalType": "address",
          "name": "",
          "type": "address"
        }
      ],
      "stateMutability": "view",
      "type": "function"
    },
    {
      "inputs": [],
      "name": "pendingOwner",
      "outputs": [
        {
          "internalType": "address",
          "name": "",
          "type": "address"
        }
      ],
      "stateMutability": "view",
      "type": "function"
    },
    {
      "inputs": [],
      "name": "renounceOwnership",
      "outputs": [],
      "stateMutability": "nonpayable",
      "type": "function"
    },
    {
      "inputs": [
        {
          "internalType": "address",
          "name": "newOwner",
          "type": "address"
        }
      ],
      "name": "transferOwnership",
      "outputs": [],
      "stateMutability": "nonpayable",
      "type": "function"
    },
    {
      "inputs": [
        {
          "internalType": "uint160",
          "name": "offerId",
          "type": "uint160"
        },
        {
          "internalType": "enum OfferLibrary.Type",
          "name": "offerType",
          "type": "uint8"
        },
        {
          "internalType": "address",
          "name": "principalToken",
          "type": "address"
        },
        {
          "internalType": "address",
          "name": "collateralToken",
          "type": "address"
        },
        {
          "internalType": "uint256",
          "name": "principalAmount",
          "type": "uint256"
        },
        {
          "internalType": "uint256",
          "name": "collateralAmount",
          "type": "uint256"
        },
        {
          "internalType": "uint256",
          "name": "collateralPriceInUSD",
          "type": "uint256"
        },
        {
          "internalType": "uint256",
          "name": "interest",
          "type": "uint256"
        },
        {
          "internalType": "uint16",
          "name": "daysToMaturity",
          "type": "uint16"
        },
        {
          "internalType": "address",
          "name": "borrower",
          "type": "address"
        },
        {
          "internalType": "address",
          "name": "lender",
          "type": "address"
        }
      ],
      "name": "createLoan",
      "outputs": [
        {
          "internalType": "uint256",
          "name": "",
          "type": "uint256"
        }
      ],
      "stateMutability": "nonpayable",
      "type": "function"
    },
    {
      "inputs": [
        {
          "internalType": "uint256",
          "name": "loanId",
          "type": "uint256"
        }
      ],
      "name": "getLoan",
      "outputs": [
        {
          "components": [
            {
              "internalType": "uint160",
              "name": "offerId",
              "type": "uint160"
            },
            {
              "internalType": "enum LoanLibrary.State",
              "name": "state",
              "type": "uint8"
            },
            {
              "internalType": "enum OfferLibrary.Type",
              "name": "offerType",
              "type": "uint8"
            },
            {
              "internalType": "address",
              "name": "principalToken",
              "type": "address"
            },
            {
              "internalType": "address",
              "name": "collateralToken",
              "type": "address"
            },
            {
              "internalType": "uint256",
              "name": "initialPrincipal",
              "type": "uint256"
            },
            {
              "internalType": "uint256",
              "name": "currentPrincipal",
              "type": "uint256"
            },
            {
              "internalType": "uint256",
              "name": "initialCollateral",
              "type": "uint256"
            },
            {
              "internalType": "uint256",
              "name": "currentCollateral",
              "type": "uint256"
            },
            {
              "internalType": "uint256",
              "name": "collateralPriceInUSD",
              "type": "uint256"
            },
            {
              "internalType": "uint256",
              "name": "interest",
              "type": "uint256"
            },
            {
              "internalType": "uint160",
              "name": "startDate",
              "type": "uint160"
            },
            {
              "internalType": "uint160",
              "name": "maturityDate",
              "type": "uint160"
            },
            {
              "internalType": "uint8",
              "name": "numInstallmentsPaid",
              "type": "uint8"
            },
            {
              "internalType": "uint256",
              "name": "unClaimedEarnings",
              "type": "uint256"
            },
            {
              "internalType": "address",
              "name": "borrower",
              "type": "address"
            },
            {
              "internalType": "address",
              "name": "lender",
              "type": "address"
            }
          ],
          "internalType": "struct LoanLibrary.Loan",
          "name": "",
          "type": "tuple"
        }
      ],
      "stateMutability": "view",
      "type": "function"
    },
    {
      "inputs": [
        {
          "internalType": "uint256",
          "name": "loanId",
          "type": "uint256"
        },
        {
          "internalType": "uint256",
          "name": "interestPaid",
          "type": "uint256"
        },
        {
          "internalType": "uint256",
          "name": "principalPaid",
          "type": "uint256"
        },
        {
          "internalType": "uint256",
          "name": "collateralRetrieved",
          "type": "uint256"
        }
      ],
      "name": "repayLoan",
      "outputs": [
        {
          "internalType": "bool",
          "name": "",
          "type": "bool"
        }
      ],
      "stateMutability": "nonpayable",
      "type": "function"
    },
    {
      "inputs": [
        {
          "internalType": "uint256",
          "name": "loanId",
          "type": "uint256"
        }
      ],
      "name": "liquidateLoan",
      "outputs": [
        {
          "internalType": "bool",
          "name": "",
          "type": "bool"
        }
      ],
      "stateMutability": "nonpayable",
      "type": "function"
    },
    {
      "inputs": [
        {
          "internalType": "address",
          "name": "address_",
          "type": "address"
        }
      ],
      "name": "setLendingPool",
      "outputs": [],
      "stateMutability": "nonpayable",
      "type": "function"
    }
  ],
  "bytecode": "0x6080806040523461006357600180546001600160a01b03199081169091556000805433928116831782556001600160a01b0316907f8be0079c531659141344cd1fd0a4f28419497f9722a3daafe3b4186f6b6457e09080a3610c2d90816100698239f35b600080fdfe6080604052600436101561001257600080fd5b60003560e01c8063113aa8b1146108c1578063129773e2146107bc578063504006ca1461063a578063715018a6146105d557806379ba5097146105125780638da5cb5b146104e9578063cccffc42146101b9578063ccdd9f5d14610123578063e30c3978146100fa5763f2fde38b1461008a57600080fd5b346100f55760203660031901126100f5576100a3610904565b6100ab610927565b60018060a01b0380911690816001600160601b0360a01b6001541617600155600054167f38d16b8cac22d99fc7c124b9cd0de2d3fa1faef420bfe791d8c362d765e22700600080a3005b600080fd5b346100f55760003660031901126100f5576001546040516001600160a01b039091168152602090f35b346100f55760203660031901126100f557600480549035906001600160a01b031633036100f55780600052600360205260406000209081549160ff8360a01c169060038210156101a3576101989361017e6101929315610aaa565b60ff60a01b1916600160a11b1781556109c2565b90610af9565b602060405160018152f35b634e487b7160e01b600052602160045260246000fd5b346100f5576101603660031901126100f5576004356001600160a01b038116908190036100f55760243560028110156100f5576044356001600160a01b038116908190036100f5576064356001600160a01b038116908190036100f557610104359261ffff84168094036100f55761012435916001600160a01b03831683036100f55761014435936001600160a01b03851685036100f5576004546001600160a01b031633036100f557620151806001600254019687600255029262ffffff84169384036104d3576001600160a01b034281168501116104d3576102b29061029f61097f565b988952600060208a0152604089016109b6565b6060870152608086015260843560a0860181905260c086015260a43560e0860181905261010086015260c43561012086015260e4356101408601526001600160a01b03428116610160870181905291909101811661018086015260006101a086018190526101c086018190529181166101e08601529182166102008501528281526003602081815260409092208551815493870151941695939290918310156101a35760408401519260028410156101a35760a090811b60ff60a01b9081166001600160b01b03199093169097179190911760a89390931b60ff60a81b1692909217815560608301516001820180546001600160a01b03199081166001600160a01b03938416179091556080850151600284018054831691841691909117905584840151600384015560c0850151600484015560e08501516005840155610100850151600684015561012085015160078401556101408501516008840155610160850151600984018054909216908316179055610180840151600a830180546101a08701516001600160a81b031990911692909316919091179190931b909516949094179055602092600d906101c0830151600b820155600c810160018060a01b036101e0850151166001600160601b0360a01b825416179055019061020060018060a01b03910151166001600160601b0360a01b82541617905580600052600382526104cb6104c560406000206109c2565b82610af9565b604051908152f35b634e487b7160e01b600052601160045260246000fd5b346100f55760003660031901126100f5576000546040516001600160a01b039091168152602090f35b346100f55760003660031901126100f5576001546001600160a01b03338183160361057e576001600160601b0360a01b8092166001556000549133908316176000553391167f8be0079c531659141344cd1fd0a4f28419497f9722a3daafe3b4186f6b6457e0600080a3005b60405162461bcd60e51b815260206004820152602960248201527f4f776e61626c6532537465703a2063616c6c6572206973206e6f7420746865206044820152683732bb9037bbb732b960b91b6064820152608490fd5b346100f55760003660031901126100f5576105ee610927565b600180546001600160a01b0319908116909155600080549182168155906001600160a01b03167f8be0079c531659141344cd1fd0a4f28419497f9722a3daafe3b4186f6b6457e08280a3005b346100f55760203660031901126100f55761065361097f565b6000815260006020820152600060408201526000606082015260006080820152600060a0820152600060c0820152600060e08201526101009060008282015261012090600082820152610140600081830152610160926000848401526101806000818501526101a06000818601526101c06000818701526101e09160008388015260006102008098015260043560005260036020526106f560406000206109c2565b936040519860018060a01b0397888751168b5261071a602088015160208d019061091a565b60408701519760028910156101a3576102209c8b9960408e01528c60608c818c0151169101528c60808c818c0151169101528c60a0808b01519101528c60c0808b01519101528c60e0808b015191015280890151908d015280880151908c015280870151908b0152878187015116908a01528681860151169089015260ff81850151169088015280830151908701528381830151169086015201511690820152f35b346100f55760803660031901126100f557600480549035906001600160a01b031633036100f557806000526003602052604060002060ff815460a01c1660038110156101a35761080c9015610aaa565b600a8101600160ff825460a01c160160ff81116104d357815460ff60a01b191660a09190911b60ff60a01b16179055600b810180549260243584018094116104d35760ff9361088f92556001600484016108696044358254610aec565b8091556006850161087d6064358254610aec565b905511156108ab575b610192836109c2565b5460a01c1660038110156101a357602090600160405191148152f35b825460a085901b1916600160a01b178355610886565b346100f55760203660031901126100f5576108da610904565b6108e2610927565b600480546001600160a01b0319166001600160a01b0392909216919091179055005b600435906001600160a01b03821682036100f557565b9060038210156101a35752565b6000546001600160a01b0316330361093b57565b606460405162461bcd60e51b815260206004820152602060248201527f4f776e61626c653a2063616c6c6572206973206e6f7420746865206f776e65726044820152fd5b60405190610220820182811067ffffffffffffffff8211176109a057604052565b634e487b7160e01b600052604160045260246000fd5b60028210156101a35752565b906109cb61097f565b82546001600160a01b038082168352919360a082901c60ff169160038310156101a35760ff610a0991600d94602089015260a81c16604087016109b6565b826001820154166060860152826002820154166080860152600381015460a0860152600481015460c0860152600581015460e08601526006810154610100860152600781015461012086015260088101546101408601528260098201541661016086015260ff600a82015484811661018088015260a01c166101a0860152600b8101546101c086015282600c820154166101e0860152015416610200830152565b15610ab157565b60405162461bcd60e51b81526020600482015260136024820152724552525f4c4f414e5f4e4f545f41435449564560681b6044820152606490fd5b919082039182116104d357565b60018060a01b0382511691602081015160038110156101a3576060820151608083015160a084015160c085015160e0860151610100808801516101408901516101608a01516101808b01516101e08c0151610200909c0151604080519e8f5260208f019f909f529c9d6001600160a01b039d8e169d9c8d169c9182169b9282169a939994989597959482169390911691610b95918f019061091a565b60608d015260808c015260a08b015260c08a015260e08901528701526101208601526101408501526101608401526101808301526101a08201526101c07f7e355f9694f827244573e0a21dc70fe06a622fec95fc001eef2a72fdaaf543a691a156fea2646970667358221220e15aaa9eb0484980eed6a15f50753497f4240952316460b8d21b0a501ba3149264736f6c63430008110033",
  "immutableReferences": {},
  "source": "// SPDX-License-Identifier: GPL-3.0\r\npragma solidity >=0.7.0 <0.9.0;\r\n\r\nimport \"../libraries/PoolLibrary.sol\";\r\nimport \"../libraries/LoanLibrary.sol\";\r\nimport \"../libraries/OfferLibrary.sol\";\r\n\r\nimport \"../interfaces/ILoanManager.sol\";\r\n\r\nimport \"@openzeppelin/contracts/access/Ownable2Step.sol\";\r\nimport \"@openzeppelin/contracts/utils/Counters.sol\";\r\n\r\ncontract LoanManager is ILoanManager, Ownable2Step {\r\n    using Counters for Counters.Counter;\r\n\r\n    Counters.Counter private loanIdTracker;\r\n    mapping(uint256 => LoanLibrary.Loan) private loans;\r\n\r\n    address lendingPool;\r\n\r\n    event LoanCreated(\r\n        uint256 loanId,\r\n        uint160 offerId,\r\n        LoanLibrary.State state,\r\n        address principalToken,\r\n        address collateralToken,\r\n        uint256 initialPrincipal,\r\n        uint256 currentPrincipal,\r\n        uint256 initialCollateral,\r\n        uint256 currentCollateral,\r\n        uint256 interest,\r\n        uint160 startDate,\r\n        uint160 maturityDate,\r\n        address borrower,\r\n        address lender\r\n    );\r\n\r\n    constructor() Ownable2Step() {}\r\n\r\n    function createLoan(\r\n        uint160 offerId,\r\n        OfferLibrary.Type offerType,\r\n        address principalToken,\r\n        address collateralToken,\r\n        uint256 principalAmount,\r\n        uint256 collateralAmount,\r\n        uint256 collateralPriceInUSD,\r\n        uint256 interest,\r\n        uint16 daysToMaturity,\r\n        address borrower,\r\n        address lender\r\n    ) public onlyLendingPool returns (uint256) {\r\n        // avoid 0 id\r\n        loanIdTracker.increment();\r\n        uint256 loanId = loanIdTracker.current();\r\n\r\n        uint160 startDate = uint160(block.timestamp);\r\n        uint160 duration = uint160((daysToMaturity * 1 days));\r\n        uint160 maturityDate = startDate + duration;\r\n        uint8 numInstallmentsPaid = 0;\r\n\r\n        loans[loanId] = LoanLibrary.Loan(\r\n            offerId,\r\n            LoanLibrary.State.ACTIVE,\r\n            offerType,\r\n            principalToken,\r\n            collateralToken,\r\n            principalAmount,\r\n            principalAmount,\r\n            collateralAmount,\r\n            collateralAmount,\r\n            collateralPriceInUSD,\r\n            interest,\r\n            startDate,\r\n            maturityDate,\r\n            numInstallmentsPaid,\r\n            0, // unclaimed earnings\r\n            borrower,\r\n            lender\r\n        );\r\n\r\n        _emit(loanId, loans[loanId]);\r\n\r\n        return loanId;\r\n    }\r\n\r\n    function getLoan(uint256 loanId)\r\n        public\r\n        view\r\n        override\r\n        returns (LoanLibrary.Loan memory)\r\n    {\r\n        return loans[loanId];\r\n    }\r\n\r\n    function repayLoan(\r\n        uint256 loanId,\r\n        uint256 interestPaid,\r\n        uint256 principalPaid,\r\n        uint256 collateralRetrieved\r\n    ) public override onlyLendingPool returns (bool) {\r\n        LoanLibrary.Loan storage loan = loans[loanId];\r\n\r\n        require(loan.state == LoanLibrary.State.ACTIVE, \"ERR_LOAN_NOT_ACTIVE\");\r\n\r\n        loan.numInstallmentsPaid += 1;\r\n        loan.unClaimedEarnings += interestPaid;\r\n        loan.currentPrincipal -= principalPaid;\r\n        loan.currentCollateral -= collateralRetrieved;\r\n\r\n        if (loan.currentPrincipal <= 1) {\r\n            loan.state = LoanLibrary.State.PAID;\r\n        }\r\n\r\n        _emit(loanId, loan);\r\n        return loan.state == LoanLibrary.State.PAID;\r\n    }\r\n\r\n    function liquidateLoan(uint256 loanId)\r\n        public\r\n        override\r\n        onlyLendingPool\r\n        returns (bool)\r\n    {\r\n        LoanLibrary.Loan storage loan = loans[loanId];\r\n\r\n        require(loan.state == LoanLibrary.State.ACTIVE, \"ERR_LOAN_NOT_ACTIVE\");\r\n        loan.state = LoanLibrary.State.LIQUIDATED;\r\n\r\n        _emit(loanId, loan);\r\n        return true;\r\n    }\r\n\r\n    function _emit(uint256 loanId, LoanLibrary.Loan memory loan) private {\r\n        emit LoanCreated(\r\n            loanId,\r\n            loan.offerId,\r\n            loan.state,\r\n            loan.principalToken,\r\n            loan.collateralToken,\r\n            loan.initialPrincipal,\r\n            loan.currentPrincipal,\r\n            loan.initialCollateral,\r\n            loan.currentCollateral,\r\n            loan.interest,\r\n            loan.startDate,\r\n            loan.maturityDate,\r\n            loan.borrower,\r\n            loan.lender\r\n        );\r\n    }\r\n\r\n    function setLendingPool(address address_) public onlyOwner {\r\n        lendingPool = address_;\r\n    }\r\n\r\n    modifier onlyLendingPool() {\r\n        require(msg.sender == lendingPool);\r\n        _;\r\n    }\r\n}\r\n",
  "sourcePath": "C:\\Users\\DELL\\Documents\\darsh\\smart-contracts\\contracts\\managers\\LoanManager.sol",
  "compiler": {
    "name": "solc",
    "version": "0.8.17+commit.8df45f5f.Emscripten.clang"
  },
  "schemaVersion": "3.4.11",
  "updatedAt": "2023-02-13T15:12:10.795Z",
  "devdoc": {
    "kind": "dev",
    "methods": {
      "acceptOwnership()": {
        "details": "The new owner accepts the ownership transfer."
      },
      "owner()": {
        "details": "Returns the address of the current owner."
      },
      "pendingOwner()": {
        "details": "Returns the address of the pending owner."
      },
      "renounceOwnership()": {
        "details": "Leaves the contract without owner. It will not be possible to call `onlyOwner` functions anymore. Can only be called by the current owner. NOTE: Renouncing ownership will leave the contract without an owner, thereby removing any functionality that is only available to the owner."
      },
      "transferOwnership(address)": {
        "details": "Starts the ownership transfer of the contract to a new account. Replaces the pending transfer if there is one. Can only be called by the current owner."
      }
    },
    "version": 1
  },
  "userdoc": {
    "kind": "user",
    "methods": {},
    "version": 1
  }
}