{
  "contractName": "LoanManager",
  "abi": [
    {
      "inputs": [],
      "stateMutability": "nonpayable",
      "type": "constructor"
    },
    {
      "anonymous": false,
      "inputs": [
        {
          "indexed": true,
          "internalType": "address",
          "name": "previousOwner",
          "type": "address"
        },
        {
          "indexed": true,
          "internalType": "address",
          "name": "newOwner",
          "type": "address"
        }
      ],
      "name": "OwnershipTransferStarted",
      "type": "event"
    },
    {
      "anonymous": false,
      "inputs": [
        {
          "indexed": true,
          "internalType": "address",
          "name": "previousOwner",
          "type": "address"
        },
        {
          "indexed": true,
          "internalType": "address",
          "name": "newOwner",
          "type": "address"
        }
      ],
      "name": "OwnershipTransferred",
      "type": "event"
    },
    {
      "inputs": [],
      "name": "ONE_DAY",
      "outputs": [
        {
          "internalType": "uint256",
          "name": "",
          "type": "uint256"
        }
      ],
      "stateMutability": "view",
      "type": "function"
    },
    {
      "inputs": [],
      "name": "ONE_HOUR",
      "outputs": [
        {
          "internalType": "uint256",
          "name": "",
          "type": "uint256"
        }
      ],
      "stateMutability": "view",
      "type": "function"
    },
    {
      "inputs": [],
      "name": "acceptOwnership",
      "outputs": [],
      "stateMutability": "nonpayable",
      "type": "function"
    },
    {
      "inputs": [
        {
          "internalType": "uint256",
          "name": "",
          "type": "uint256"
        }
      ],
      "name": "loans",
      "outputs": [
        {
          "internalType": "uint256",
          "name": "offerId",
          "type": "uint256"
        },
        {
          "internalType": "enum LoanLibrary.State",
          "name": "state",
          "type": "uint8"
        },
        {
          "internalType": "address",
          "name": "principalToken",
          "type": "address"
        },
        {
          "internalType": "address",
          "name": "collateralToken",
          "type": "address"
        },
        {
          "internalType": "uint256",
          "name": "initialPrincipal",
          "type": "uint256"
        },
        {
          "internalType": "uint256",
          "name": "currentPrincipal",
          "type": "uint256"
        },
        {
          "internalType": "uint256",
          "name": "initialCollateral",
          "type": "uint256"
        },
        {
          "internalType": "uint256",
          "name": "currentCollateral",
          "type": "uint256"
        },
        {
          "internalType": "uint256",
          "name": "collateralPriceInUSD",
          "type": "uint256"
        },
        {
          "internalType": "uint256",
          "name": "interest",
          "type": "uint256"
        },
        {
          "internalType": "uint256",
          "name": "startDate",
          "type": "uint256"
        },
        {
          "internalType": "uint256",
          "name": "maturityDate",
          "type": "uint256"
        },
        {
          "internalType": "uint16",
          "name": "graceDays",
          "type": "uint16"
        },
        {
          "internalType": "uint8",
          "name": "numInstallmentsPaid",
          "type": "uint8"
        },
        {
          "internalType": "uint256",
          "name": "unClaimedPrincipal",
          "type": "uint256"
        },
        {
          "internalType": "uint256",
          "name": "unClaimedCollateral",
          "type": "uint256"
        },
        {
          "internalType": "uint256",
          "name": "unClaimedDefaultCollateral",
          "type": "uint256"
        },
        {
          "internalType": "uint256",
          "name": "repaidOn",
          "type": "uint256"
        },
        {
          "internalType": "address",
          "name": "borrower",
          "type": "address"
        },
        {
          "internalType": "address",
          "name": "lender",
          "type": "address"
        }
      ],
      "stateMutability": "view",
      "type": "function"
    },
    {
      "inputs": [],
      "name": "owner",
      "outputs": [
        {
          "internalType": "address",
          "name": "",
          "type": "address"
        }
      ],
      "stateMutability": "view",
      "type": "function"
    },
    {
      "inputs": [],
      "name": "pendingOwner",
      "outputs": [
        {
          "internalType": "address",
          "name": "",
          "type": "address"
        }
      ],
      "stateMutability": "view",
      "type": "function"
    },
    {
      "inputs": [],
      "name": "renounceOwnership",
      "outputs": [],
      "stateMutability": "nonpayable",
      "type": "function"
    },
    {
      "inputs": [
        {
          "internalType": "address",
          "name": "newOwner",
          "type": "address"
        }
      ],
      "name": "transferOwnership",
      "outputs": [],
      "stateMutability": "nonpayable",
      "type": "function"
    },
    {
      "inputs": [
        {
          "internalType": "uint256",
          "name": "offerId",
          "type": "uint256"
        },
        {
          "internalType": "enum OfferLibrary.Type",
          "name": "offerType",
          "type": "uint8"
        },
        {
          "internalType": "address",
          "name": "principalToken",
          "type": "address"
        },
        {
          "internalType": "address",
          "name": "collateralToken",
          "type": "address"
        },
        {
          "internalType": "uint256",
          "name": "principalAmount",
          "type": "uint256"
        },
        {
          "internalType": "uint256",
          "name": "collateralAmount",
          "type": "uint256"
        },
        {
          "internalType": "uint256",
          "name": "collateralPriceInUSD",
          "type": "uint256"
        },
        {
          "internalType": "uint256",
          "name": "interest",
          "type": "uint256"
        },
        {
          "internalType": "uint16",
          "name": "daysToMaturity",
          "type": "uint16"
        },
        {
          "internalType": "address",
          "name": "borrower",
          "type": "address"
        },
        {
          "internalType": "address",
          "name": "lender",
          "type": "address"
        }
      ],
      "name": "createLoan",
      "outputs": [
        {
          "internalType": "uint256",
          "name": "",
          "type": "uint256"
        }
      ],
      "stateMutability": "nonpayable",
      "type": "function"
    },
    {
      "inputs": [
        {
          "internalType": "uint256",
          "name": "loanId",
          "type": "uint256"
        }
      ],
      "name": "getLoan",
      "outputs": [
        {
          "components": [
            {
              "internalType": "uint256",
              "name": "offerId",
              "type": "uint256"
            },
            {
              "internalType": "enum LoanLibrary.State",
              "name": "state",
              "type": "uint8"
            },
            {
              "internalType": "address",
              "name": "principalToken",
              "type": "address"
            },
            {
              "internalType": "address",
              "name": "collateralToken",
              "type": "address"
            },
            {
              "internalType": "uint256",
              "name": "initialPrincipal",
              "type": "uint256"
            },
            {
              "internalType": "uint256",
              "name": "currentPrincipal",
              "type": "uint256"
            },
            {
              "internalType": "uint256",
              "name": "initialCollateral",
              "type": "uint256"
            },
            {
              "internalType": "uint256",
              "name": "currentCollateral",
              "type": "uint256"
            },
            {
              "internalType": "uint256",
              "name": "collateralPriceInUSD",
              "type": "uint256"
            },
            {
              "internalType": "uint256",
              "name": "interest",
              "type": "uint256"
            },
            {
              "internalType": "uint256",
              "name": "startDate",
              "type": "uint256"
            },
            {
              "internalType": "uint256",
              "name": "maturityDate",
              "type": "uint256"
            },
            {
              "internalType": "uint16",
              "name": "graceDays",
              "type": "uint16"
            },
            {
              "internalType": "uint8",
              "name": "numInstallmentsPaid",
              "type": "uint8"
            },
            {
              "internalType": "uint256",
              "name": "unClaimedPrincipal",
              "type": "uint256"
            },
            {
              "internalType": "uint256",
              "name": "unClaimedCollateral",
              "type": "uint256"
            },
            {
              "internalType": "uint256",
              "name": "unClaimedDefaultCollateral",
              "type": "uint256"
            },
            {
              "internalType": "uint256",
              "name": "repaidOn",
              "type": "uint256"
            },
            {
              "internalType": "address",
              "name": "borrower",
              "type": "address"
            },
            {
              "internalType": "address",
              "name": "lender",
              "type": "address"
            }
          ],
          "internalType": "struct LoanLibrary.Loan",
          "name": "",
          "type": "tuple"
        }
      ],
      "stateMutability": "view",
      "type": "function"
    },
    {
      "inputs": [
        {
          "internalType": "uint256",
          "name": "loanId",
          "type": "uint256"
        },
        {
          "internalType": "uint256",
          "name": "interestPaid",
          "type": "uint256"
        },
        {
          "internalType": "uint256",
          "name": "principalPaid",
          "type": "uint256"
        },
        {
          "internalType": "uint256",
          "name": "collateralRetrieved",
          "type": "uint256"
        }
      ],
      "name": "repayLoan",
      "outputs": [
        {
          "internalType": "bool",
          "name": "",
          "type": "bool"
        }
      ],
      "stateMutability": "nonpayable",
      "type": "function"
    },
    {
      "inputs": [
        {
          "internalType": "uint256",
          "name": "loanId",
          "type": "uint256"
        },
        {
          "internalType": "address",
          "name": "user",
          "type": "address"
        }
      ],
      "name": "claimPrincipal",
      "outputs": [],
      "stateMutability": "nonpayable",
      "type": "function"
    },
    {
      "inputs": [
        {
          "internalType": "uint256",
          "name": "loanId",
          "type": "uint256"
        },
        {
          "internalType": "address",
          "name": "user",
          "type": "address"
        }
      ],
      "name": "claimDefaultCollateral",
      "outputs": [],
      "stateMutability": "nonpayable",
      "type": "function"
    },
    {
      "inputs": [
        {
          "internalType": "uint256",
          "name": "loanId",
          "type": "uint256"
        },
        {
          "internalType": "address",
          "name": "user",
          "type": "address"
        }
      ],
      "name": "claimCollateral",
      "outputs": [],
      "stateMutability": "nonpayable",
      "type": "function"
    },
    {
      "inputs": [
        {
          "internalType": "uint256",
          "name": "loanId",
          "type": "uint256"
        },
        {
          "internalType": "uint256",
          "name": "principalPaid",
          "type": "uint256"
        },
        {
          "internalType": "uint256",
          "name": "collateralRetrieved",
          "type": "uint256"
        },
        {
          "internalType": "uint256",
          "name": "collateralPaid",
          "type": "uint256"
        }
      ],
      "name": "liquidateLoan",
      "outputs": [],
      "stateMutability": "nonpayable",
      "type": "function"
    },
    {
      "inputs": [
        {
          "internalType": "uint16",
          "name": "days_",
          "type": "uint16"
        }
      ],
      "name": "setGraceDays",
      "outputs": [],
      "stateMutability": "nonpayable",
      "type": "function"
    },
    {
      "inputs": [
        {
          "internalType": "address",
          "name": "address_",
          "type": "address"
        }
      ],
      "name": "setLendingPool",
      "outputs": [],
      "stateMutability": "nonpayable",
      "type": "function"
    }
  ],
  "bytecode": "0x6080806040523461007757600180546001600160a01b03199081169091556000805433928116831782556001600160a01b0316907f8be0079c531659141344cd1fd0a4f28419497f9722a3daafe3b4186f6b6457e09080a36005805461ffff60a01b1916600560a01b179055611320908161007d8239f35b600080fdfe610100604052600436101561001357600080fd5b60003560e01c8063113aa8b114610dc6578063129773e214610cb4578063165035e214610c97578063298b04a51461091f5780633799ba3f146107b1578063504006ca146105ed578063715018a61461058857806378fe76ec1461054057806379ba50971461047d578063863e76db1461045f5780638da5cb5b14610436578063a5aca3801461039f578063e1ec3c681461022b578063e30c397814610202578063e41936d7146101ad578063f2fde38b146101425763f400c743146100d857600080fd5b3461013d57604036600319011261013d576100f1610e1f565b6005546001600160a01b0391908216330361013d5760009161012d600c92600435855260036020526040852092806011850154169116146110fd565b0161013a8154151561113a565b55005b600080fd5b3461013d57602036600319011261013d5761015b610e09565b610163610e60565b60018060a01b0380911690816001600160601b0360a01b6001541617600155600054167f38d16b8cac22d99fc7c124b9cd0de2d3fa1faef420bfe791d8c362d765e22700600080a3005b3461013d57604036600319011261013d576101c6610e1f565b6005546001600160a01b0391908216330361013d5760009161012d600e92600435855260036020526040852092806011850154169116146110fd565b3461013d57600036600319011261013d576001546040516001600160a01b039091168152602090f35b3461013d57602036600319011261013d576004356000526003602052604060002080808060ff8180808080808080808080600f600e600d600c600b600a60096008600760066005600460038d549d600181015460e052600260018060a01b03910154169e01549e01549e01549e01549e01549e01549e01549e01549e01549e01549f01549f01549f01549f60018060a01b0360108201541660a052601160018060a01b039101541660c05260405180608052526102f16020608051018c60e05116610e53565b60018060a01b0360e05160081c16604060805101526060608051015260808051015260a0608051015260c0608051015260e06080510152610100608051015261012060805101526101406080510152610160608051015261ffff8116610180608051015260101c166101a060805101526101c060805101526101e060805101526102006080510152610220608051015260a051610240608051015260c0516102606080510152610280608051f35b3461013d57604036600319011261013d576103b8610e1f565b6005546001600160a01b0391908216330361013d576004356000526003602052604060002091806010840154169116036103fe57600d6000910161013a8154151561113a565b60405162461bcd60e51b815260206004820152601060248201526f22a9292fa727aa2fa127a92927aba2a960811b6044820152606490fd5b3461013d57600036600319011261013d576000546040516001600160a01b039091168152602090f35b3461013d57600036600319011261013d576020604051620151808152f35b3461013d57600036600319011261013d576001546001600160a01b0333818316036104e9576001600160601b0360a01b8092166001556000549133908316176000553391167f8be0079c531659141344cd1fd0a4f28419497f9722a3daafe3b4186f6b6457e0600080a3005b60405162461bcd60e51b815260206004820152602960248201527f4f776e61626c6532537465703a2063616c6c6572206973206e6f7420746865206044820152683732bb9037bbb732b960b91b6064820152608490fd5b3461013d57602036600319011261013d5760043561ffff8116810361013d57610567610e60565b6005805461ffff60a01b191660a09290921b61ffff60a01b16919091179055005b3461013d57600036600319011261013d576105a1610e60565b600180546001600160a01b0319908116909155600080549182168155906001600160a01b03167f8be0079c531659141344cd1fd0a4f28419497f9722a3daafe3b4186f6b6457e08280a3005b3461013d57602036600319011261013d57600061026061060b610f84565b8281528260208201528260408201528260608201528260808201528260a08201528260c08201528260e08201528261010082015282610120820152826101408201528261016082015282610180820152826101a0820152826101c0820152826101e0820152826102008201528261022082015282610240820152015260043560005260036020526102806106a26040600020610fa5565b60405190805182526106bc60208201516020840190610e53565b60018060a01b03604082015116604083015260018060a01b0360608201511660608301526080810151608083015260a081015160a083015260c081015160c083015260e081015160e083015261010081015161010083015261012081015161012083015261014081015161014083015261016081015161016083015261ffff6101808201511661018083015260ff6101a0820151166101a08301526101c08101516101c08301526101e08101516101e083015261020081015161020083015261022081015161022083015260018060a01b036102408201511661024083015261026060018060a01b0391015116610260820152f35b3461013d576107bf36610e35565b6005549293929091906001600160a01b0316330361013d57826000526003602052604060002090600182019081549060ff821660048110156109095761080590156110ae565b61ffff600b850154166201518090808202918204036108f35761082c90600a8601546110a1565b42116108b7576108979661089195600a9261084c600488019384546110f0565b80935561085e600688019182546110f0565b91828255610871600e89019182546110a1565b9055816108a7575b5050116108995750805460ff19166003179055610fa5565b90611179565b005b60ff19166002179055610fa5565b600091600d880155558880610879565b60405162461bcd60e51b815260206004820152601460248201527311549497d313d05397d393d517d350551554915160621b6044820152606490fd5b634e487b7160e01b600052601160045260246000fd5b634e487b7160e01b600052602160045260246000fd5b3461013d5761016036600319011261013d57602435600281101561013d57604435906001600160a01b038216820361013d576064356001600160a01b038116810361013d576101043561ffff811680910361013d5761012435906001600160a01b038216820361013d5761014435926001600160a01b038416840361013d576005546001600160a01b0316330361013d57600160025401948560025515600014610c6c576004356109d96109d3858361127b565b15610eb8565b60005260046020526109ef836040600020610f29565b6201518091808302928304036108f357610a0c61ffff92426110a1565b60055491610a18610f84565b976004358952600060208a015260018060a01b0316604089015260018060a01b03166060880152608435608088015260843560a088015260a4358060c089015260e088015260c43561010088015260e4356101208801524261014088015261016087015260a01c1661018085015260006101a085015260006101c085015260006101e08501526000610200850152600061022085015260018060a01b031661024084015260018060a01b03166102608301528060005260036020526040600020918051835560208101516004811015610909578360119160016020960190815460ff610100600160a81b03604088015160081b169216906affffffffffffffffffffff60a81b161717905560018060a01b036060840151166001600160601b0360a01b6002830154161760028201556080830151600382015560a0830151600482015560c0830151600582015560e08301516006820155610100830151600782015561012083015160088201556101408301516009820155610160830151600a820155610bd6600b820161ffff6101808601511661ffff1982541617815560ff6101a08601511662ff000082549160101b169062ff00001916179055565b6101c0830151600c8201556101e0830151600d820155610200830151600e820155610220830151600f8201556010810160018060a01b03610240850151166001600160601b0360a01b825416179055019061026060018060a01b03910151166001600160601b0360a01b8254161790558060005260038252610c64610c5e6040600020610fa5565b82611179565b604051908152f35b600435610c7c6109d3868361127b565b6000526004602052610c92846040600020610f29565b6109ef565b3461013d57600036600319011261013d576020604051610e108152f35b3461013d57610cc236610e35565b6005549093919291906001600160a01b0316330361013d57806000526003602052604060002092600184019360ff855416600481101561090957610d0690156110ae565b600b810191600160ff845460101c16019060ff82116108f35760ff97610d9896610d48600a94610891979062ff000082549160101b169062ff00001916179055565b610d57600c86019182546110a1565b9055600d8401610d688282546110a1565b9055610d79600485019283546110f0565b809255610d8b600685019182546110f0565b90551115610db157610fa5565b5416600481101561090957602090600160405191148152f35b6001861986541617855542600f820155610fa5565b3461013d57602036600319011261013d57610ddf610e09565b610de7610e60565b600580546001600160a01b0319166001600160a01b0392909216919091179055005b600435906001600160a01b038216820361013d57565b602435906001600160a01b038216820361013d57565b608090600319011261013d5760043590602435906044359060643590565b9060048210156109095752565b6000546001600160a01b03163303610e7457565b606460405162461bcd60e51b815260206004820152602060248201527f4f776e61626c653a2063616c6c6572206973206e6f7420746865206f776e65726044820152fd5b15610ebf57565b60405162461bcd60e51b815260206004820152601460248201527311549497d053149150511657d093d49493d5d15160621b6044820152606490fd5b8054821015610f135760005260206000200190600090565b634e487b7160e01b600052603260045260246000fd5b805468010000000000000000811015610f6e57610f4b91600182018155610efb565b819291549060031b9160018060a01b039283811b93849216901b16911916179055565b634e487b7160e01b600052604160045260246000fd5b60405190610280820182811067ffffffffffffffff821117610f6e57604052565b90610fae610f84565b918054835260018101549060ff821690600482101561090957601191602086015260018060a01b03809360081c16604086015282600282015416606086015260038101546080860152600481015460a0860152600581015460c0860152600681015460e0860152600781015461010086015260088101546101208601526009810154610140860152600a81015461016086015260ff600b82015461ffff811661018088015260101c166101a0860152600c8101546101c0860152600d8101546101e0860152600e810154610200860152600f81015461022086015282601082015416610240860152015416610260830152565b919082018092116108f357565b156110b557565b60405162461bcd60e51b81526020600482015260136024820152724552525f4c4f414e5f4e4f545f41435449564560681b6044820152606490fd5b919082039182116108f357565b1561110457565b60405162461bcd60e51b815260206004820152600e60248201526d22a9292fa727aa2fa622a72222a960911b6044820152606490fd5b1561114157565b60405162461bcd60e51b815260206004820152601060248201526f4552525f5a45524f5f42414c414e434560801b6044820152606490fd5b81519160208101516004811015610909576040828101516060840151608085015160a086015160c087015160e08801516101208901516101408a01516101608b01516101808c01516102408d0151610260909d01518b519e8f5260208f019f909f529c9d6001600160a01b039081169d9c81169c61ffff169b919a92999398949795969594811693169161121091908f0190610e53565b60608d015260808c015260a08b015260c08a015260e08901526101008801526101208701526101408601526101608501526101808401526101a08301526101c08201526101e07f1b94239d4d6b6892c4b24e380f7225897bf6df2f2c7398b28e57b275e8cd103f91a1565b919060005b8360005260046020526040806000205461ffff831610156112e157816112a891600020610efb565b905460039190911b1c6001600160a01b03908116908316146112d95761ffff8091169081146108f357600101611280565b506001925050565b5060009350505056fea264697066735822122099abf5504027c39fee8a6412f87bd84a3a71059cfca50328f04e490efa0cafe964736f6c63430008110033",
  "immutableReferences": {},
  "source": "// SPDX-License-Identifier: GPL-3.0\r\npragma solidity >=0.7.0 <0.9.0;\r\n\r\nimport \"../libraries/LoanLibrary.sol\";\r\nimport \"../libraries/OfferLibrary.sol\";\r\n\r\nimport \"../interfaces/ILoanManager.sol\";\r\n\r\nimport \"@openzeppelin/contracts/utils/math/SafeMath.sol\";\r\nimport \"@openzeppelin/contracts/access/Ownable2Step.sol\";\r\nimport \"@openzeppelin/contracts/utils/Counters.sol\";\r\n\r\ncontract LoanManager is ILoanManager, Ownable2Step {\r\n    uint256 public constant ONE_DAY = 60 * 60 * 24;\r\n    uint256 public constant ONE_HOUR = 60 * 60;\r\n\r\n    using Counters for Counters.Counter;\r\n    using SafeMath for uint256;\r\n\r\n    Counters.Counter private loanIdTracker;\r\n    mapping(uint256 => LoanLibrary.Loan) public loans;\r\n\r\n    // offerId => wallet addresses\r\n    mapping(uint256 => address[]) private borrowers;\r\n\r\n    address lendingPool;\r\n    uint16 graceDays = 5;\r\n\r\n    constructor() Ownable2Step() {}\r\n\r\n    function createLoan(\r\n        uint256 offerId,\r\n        OfferLibrary.Type offerType,\r\n        address principalToken,\r\n        address collateralToken,\r\n        uint256 principalAmount,\r\n        uint256 collateralAmount,\r\n        uint256 collateralPriceInUSD,\r\n        uint256 interest,\r\n        uint16 daysToMaturity,\r\n        address borrower,\r\n        address lender\r\n    ) public override onlyLendingPool returns (uint256) {\r\n        // avoid 0 id\r\n        loanIdTracker.increment();\r\n        uint256 loanId = loanIdTracker.current();\r\n\r\n        if (offerType == OfferLibrary.Type.LENDING_OFFER) {\r\n            require(\r\n                !_hasBorrowedFrom(offerId, borrower),\r\n                \"ERR_ALREADY_BORROWED\"\r\n            );\r\n            borrowers[offerId].push(borrower);\r\n        } else {\r\n            require(!_hasBorrowedFrom(offerId, lender), \"ERR_ALREADY_BORROWED\");\r\n            borrowers[offerId].push(lender);\r\n        }\r\n\r\n        uint256 startDate = block.timestamp;\r\n        uint256 duration = ONE_DAY.mul(daysToMaturity);\r\n        uint256 maturityDate = startDate.add(duration);\r\n\r\n        loans[loanId] = LoanLibrary.Loan(\r\n            offerId,\r\n            LoanLibrary.State.ACTIVE,\r\n            principalToken,\r\n            collateralToken,\r\n            principalAmount,\r\n            principalAmount,\r\n            collateralAmount,\r\n            collateralAmount,\r\n            collateralPriceInUSD,\r\n            interest,\r\n            startDate,\r\n            maturityDate,\r\n            graceDays,\r\n            0, // numInstallmentsPaid\r\n            0, // unclaimed principal\r\n            0, // unclaimed collateral\r\n            0, // unclaimed default collateral\r\n            0, // repaidOn\r\n            borrower,\r\n            lender\r\n        );\r\n\r\n        _emit(loanId, loans[loanId]);\r\n        return loanId;\r\n    }\r\n\r\n    function getLoan(uint256 loanId)\r\n        public\r\n        view\r\n        override\r\n        returns (LoanLibrary.Loan memory)\r\n    {\r\n        return loans[loanId];\r\n    }\r\n\r\n    function repayLoan(\r\n        uint256 loanId,\r\n        uint256 interestPaid,\r\n        uint256 principalPaid,\r\n        uint256 collateralRetrieved\r\n    ) public override onlyLendingPool returns (bool) {\r\n        LoanLibrary.Loan storage loan = loans[loanId];\r\n        require(loan.state == LoanLibrary.State.ACTIVE, \"ERR_LOAN_NOT_ACTIVE\");\r\n\r\n        loan.numInstallmentsPaid += 1;\r\n        loan.unClaimedPrincipal += interestPaid;\r\n        loan.unClaimedCollateral += collateralRetrieved;\r\n        loan.currentPrincipal -= principalPaid;\r\n        loan.currentCollateral -= collateralRetrieved;\r\n\r\n        if (loan.currentPrincipal <= 10) {\r\n            loan.state = LoanLibrary.State.PAID;\r\n            loan.repaidOn = block.timestamp;\r\n        }\r\n\r\n        _emit(loanId, loan);\r\n        return loan.state == LoanLibrary.State.PAID;\r\n    }\r\n\r\n    function claimPrincipal(uint256 loanId, address user)\r\n        public\r\n        override\r\n        onlyLendingPool\r\n    {\r\n        LoanLibrary.Loan storage loan = loans[loanId];\r\n        require(loan.lender == user, \"ERR_NOT_LENDER\");\r\n        require(loan.unClaimedPrincipal > 0, \"ERR_ZERO_BALANCE\");\r\n        loan.unClaimedPrincipal = 0;\r\n    }\r\n\r\n    function claimDefaultCollateral(uint256 loanId, address user)\r\n        public\r\n        override\r\n        onlyLendingPool\r\n    {\r\n        LoanLibrary.Loan storage loan = loans[loanId];\r\n        require(loan.lender == user, \"ERR_NOT_LENDER\");\r\n        require(loan.unClaimedDefaultCollateral > 0, \"ERR_ZERO_BALANCE\");\r\n        loan.unClaimedDefaultCollateral = 0;\r\n    }\r\n\r\n    function claimCollateral(uint256 loanId, address user)\r\n        public\r\n        override\r\n        onlyLendingPool\r\n    {\r\n        LoanLibrary.Loan storage loan = loans[loanId];\r\n        require(loan.borrower == user, \"ERR_NOT_BORROWER\");\r\n        require(loan.unClaimedCollateral > 0, \"ERR_ZERO_BALANCE\");\r\n        loan.unClaimedCollateral = 0;\r\n    }\r\n\r\n    function liquidateLoan(\r\n        uint256 loanId,\r\n        uint256 principalPaid,\r\n        uint256 collateralRetrieved,\r\n        uint256 collateralPaid\r\n    ) public override onlyLendingPool {\r\n        LoanLibrary.Loan storage loan = loans[loanId];\r\n        require(loan.state == LoanLibrary.State.ACTIVE, \"ERR_LOAN_NOT_ACTIVE\");\r\n\r\n        uint256 graceDate = ONE_DAY.mul(loan.graceDays);\r\n        uint256 defaultDate = loan.maturityDate.add(graceDate);\r\n        uint256 currentDate = block.timestamp;\r\n\r\n        require(defaultDate >= currentDate, \"ERR_LOAN_NOT_MATURED\");\r\n\r\n        loan.currentPrincipal -= principalPaid;\r\n        loan.currentCollateral -= collateralRetrieved;\r\n        loan.unClaimedDefaultCollateral += collateralPaid;\r\n\r\n        if (loan.currentCollateral > 0) {\r\n            loan.unClaimedCollateral = loan.currentCollateral;\r\n            loan.currentCollateral = 0;\r\n        }\r\n\r\n        if (loan.currentPrincipal <= 10) {\r\n            loan.state = LoanLibrary.State.PAID_LIQUIDATED;\r\n        } else {\r\n            loan.state = LoanLibrary.State.ACTIVE_LIQUIDATED;\r\n        }\r\n\r\n        _emit(loanId, loan);\r\n    }\r\n\r\n    function _emit(uint256 loanId, LoanLibrary.Loan memory loan) private {\r\n        emit LoanLibrary.LoanCreated(\r\n            loanId,\r\n            loan.offerId,\r\n            loan.state,\r\n            loan.principalToken,\r\n            loan.collateralToken,\r\n            loan.initialPrincipal,\r\n            loan.currentPrincipal,\r\n            loan.initialCollateral,\r\n            loan.currentCollateral,\r\n            loan.interest,\r\n            loan.startDate,\r\n            loan.maturityDate,\r\n            loan.graceDays,\r\n            loan.borrower,\r\n            loan.lender\r\n        );\r\n    }\r\n\r\n    function _hasBorrowedFrom(uint256 offerId, address user)\r\n        private\r\n        view\r\n        returns (bool)\r\n    {\r\n        for (uint16 index = 0; index < borrowers[offerId].length; index++) {\r\n            if (borrowers[offerId][index] == user) {\r\n                return true;\r\n            }\r\n        }\r\n        return false;\r\n    }\r\n\r\n    function setGraceDays(uint16 days_) public onlyOwner {\r\n        graceDays = days_;\r\n    }\r\n\r\n    function setLendingPool(address address_) public onlyOwner {\r\n        lendingPool = address_;\r\n    }\r\n\r\n    modifier onlyLendingPool() {\r\n        require(msg.sender == lendingPool);\r\n        _;\r\n    }\r\n}\r\n",
  "sourcePath": "C:\\Users\\DELL\\Documents\\darsh\\smart-contracts\\contracts\\managers\\LoanManager.sol",
  "compiler": {
    "name": "solc",
    "version": "0.8.17+commit.8df45f5f.Emscripten.clang"
  },
  "schemaVersion": "3.4.11",
  "updatedAt": "2023-02-19T13:10:37.302Z",
  "devdoc": {
    "kind": "dev",
    "methods": {
      "acceptOwnership()": {
        "details": "The new owner accepts the ownership transfer."
      },
      "owner()": {
        "details": "Returns the address of the current owner."
      },
      "pendingOwner()": {
        "details": "Returns the address of the pending owner."
      },
      "renounceOwnership()": {
        "details": "Leaves the contract without owner. It will not be possible to call `onlyOwner` functions anymore. Can only be called by the current owner. NOTE: Renouncing ownership will leave the contract without an owner, thereby removing any functionality that is only available to the owner."
      },
      "transferOwnership(address)": {
        "details": "Starts the ownership transfer of the contract to a new account. Replaces the pending transfer if there is one. Can only be called by the current owner."
      }
    },
    "version": 1
  },
  "userdoc": {
    "kind": "user",
    "methods": {},
    "version": 1
  }
}