{
  "contractName": "LoanToValueRatio",
  "abi": [
    {
      "inputs": [],
      "stateMutability": "nonpayable",
      "type": "constructor"
    },
    {
      "anonymous": false,
      "inputs": [
        {
          "indexed": true,
          "internalType": "address",
          "name": "previousOwner",
          "type": "address"
        },
        {
          "indexed": true,
          "internalType": "address",
          "name": "newOwner",
          "type": "address"
        }
      ],
      "name": "OwnershipTransferStarted",
      "type": "event"
    },
    {
      "anonymous": false,
      "inputs": [
        {
          "indexed": true,
          "internalType": "address",
          "name": "previousOwner",
          "type": "address"
        },
        {
          "indexed": true,
          "internalType": "address",
          "name": "newOwner",
          "type": "address"
        }
      ],
      "name": "OwnershipTransferred",
      "type": "event"
    },
    {
      "inputs": [],
      "name": "acceptOwnership",
      "outputs": [],
      "stateMutability": "nonpayable",
      "type": "function"
    },
    {
      "inputs": [],
      "name": "base",
      "outputs": [
        {
          "internalType": "uint8",
          "name": "",
          "type": "uint8"
        }
      ],
      "stateMutability": "view",
      "type": "function"
    },
    {
      "inputs": [],
      "name": "healthMaxPrice0",
      "outputs": [
        {
          "internalType": "uint256",
          "name": "",
          "type": "uint256"
        }
      ],
      "stateMutability": "view",
      "type": "function"
    },
    {
      "inputs": [],
      "name": "healthMaxPrice1",
      "outputs": [
        {
          "internalType": "uint256",
          "name": "",
          "type": "uint256"
        }
      ],
      "stateMutability": "view",
      "type": "function"
    },
    {
      "inputs": [],
      "name": "owner",
      "outputs": [
        {
          "internalType": "address",
          "name": "",
          "type": "address"
        }
      ],
      "stateMutability": "view",
      "type": "function"
    },
    {
      "inputs": [],
      "name": "pendingOwner",
      "outputs": [
        {
          "internalType": "address",
          "name": "",
          "type": "address"
        }
      ],
      "stateMutability": "view",
      "type": "function"
    },
    {
      "inputs": [],
      "name": "renounceOwnership",
      "outputs": [],
      "stateMutability": "nonpayable",
      "type": "function"
    },
    {
      "inputs": [
        {
          "internalType": "address",
          "name": "newOwner",
          "type": "address"
        }
      ],
      "name": "transferOwnership",
      "outputs": [],
      "stateMutability": "nonpayable",
      "type": "function"
    },
    {
      "inputs": [],
      "name": "getBase",
      "outputs": [
        {
          "internalType": "uint8",
          "name": "",
          "type": "uint8"
        }
      ],
      "stateMutability": "pure",
      "type": "function"
    },
    {
      "inputs": [
        {
          "internalType": "address",
          "name": "user",
          "type": "address"
        },
        {
          "internalType": "uint256",
          "name": "amount",
          "type": "uint256"
        }
      ],
      "name": "getRelativeLTV",
      "outputs": [
        {
          "internalType": "uint160",
          "name": "",
          "type": "uint160"
        }
      ],
      "stateMutability": "view",
      "type": "function"
    },
    {
      "inputs": [
        {
          "internalType": "address",
          "name": "user",
          "type": "address"
        }
      ],
      "name": "getLTV",
      "outputs": [
        {
          "internalType": "uint160",
          "name": "",
          "type": "uint160"
        }
      ],
      "stateMutability": "view",
      "type": "function"
    },
    {
      "inputs": [
        {
          "internalType": "address",
          "name": "trustScore_",
          "type": "address"
        },
        {
          "internalType": "uint160",
          "name": "minLTV_",
          "type": "uint160"
        },
        {
          "internalType": "uint160",
          "name": "maxLTV_",
          "type": "uint160"
        }
      ],
      "name": "setHealthScore",
      "outputs": [],
      "stateMutability": "nonpayable",
      "type": "function"
    }
  ],
  "bytecode": "0x60808060405234610091576104b060018060a01b031980600154166001556000543382821617600055339060018060a01b03167f8be0079c531659141344cd1fd0a4f28419497f9722a3daafe3b4186f6b6457e0600080a36103e88160035416176003556004541617600455683635c9adc5dea0000060055568a2a15d09519be0000060065561066e90816100978239f35b600080fdfe6080604090808252600436101561001557600080fd5b600091823560e01c9182630c9a9045146103f8575081633992bb99146103d95781635001f3b514610144578163715018a61461037457816379ba5097146102b5578163833ba9d3146101e85781638a83f8cc146101bf5781638da5cb5b14610197578163aca25f9a14610160578163d104a13614610144578163e30c397814610117575063f2fde38b146100a857600080fd5b34610114576020366003190112610114576100c1610414565b6100c961042f565b600180546001600160a01b0319166001600160a01b0392831690811790915582549091167f38d16b8cac22d99fc7c124b9cd0de2d3fa1faef420bfe791d8c362d765e227008380a380f35b80fd5b90503461014057816003193601126101405760015490516001600160a01b039091168152602090f35b5080fd5b90503461014057816003193601126101405760209051600a8152f35b90503461014057602036600319011261014057602090610186610181610414565b610546565b90516001600160a01b039091168152f35b905034610140578160031936011261014057905490516001600160a01b039091168152602090f35b9050346101405780600319360112610140576020906101866101df610414565b602435906104b6565b90503461014057606036600319011261014057610203610414565b6001600160a01b03602435818116939192918482036102b15760443594848616908187036102ad5761023361042f565b10156102805750610269836102488193610523565b16946bffffffffffffffffffffffff60a01b95866003541617600355610523565b168360045416176004551690600254161760025580f35b5162461bcd60e51b815260206004820152600760248201526622a9292fa62a2b60c91b6044820152606490fd5b8780fd5b8580fd5b905034610140578160031936011261014057600154906001600160a01b0390338284160361031f57506001600160a01b031991821660015582543392811683178455167f8be0079c531659141344cd1fd0a4f28419497f9722a3daafe3b4186f6b6457e08380a380f35b5162461bcd60e51b815260206004820152602960248201527f4f776e61626c6532537465703a2063616c6c6572206973206e6f7420746865206044820152683732bb9037bbb732b960b91b6064820152608490fd5b823461011457806003193601126101145761038d61042f565b600180546001600160a01b03199081169091558154908116825581906001600160a01b03167f8be0079c531659141344cd1fd0a4f28419497f9722a3daafe3b4186f6b6457e08280a380f35b9050346101405781600319360112610140576020906005549051908152f35b8390346101405781600319360112610140576020906006548152f35b600435906001600160a01b038216820361042a57565b600080fd5b6000546001600160a01b0316330361044357565b606460405162461bcd60e51b815260206004820152602060248201527f4f776e61626c653a2063616c6c6572206973206e6f7420746865206f776e65726044820152fd5b6001600160a01b0391821690821601919082116104a057565b634e487b7160e01b600052601160045260246000fd5b6104bf90610546565b90600654811161051257600554106104d45790565b6004546003546001600160a01b039160016001609f1b03916104fb91908416908416610487565b60011c1680918316111561050d575090565b905090565b50506004546001600160a01b031690565b6001600160a01b03908116600a818102909216929181840414901517156104a057565b600254604051630d47875d60e41b81526001600160a01b039283166004820152906020908290602490829086165afa90811561062c576000916105c6575b50908060045416908060035416809203928184116104a05761ffff829116931690838202169281840414901517156104a05760646105c3920490610487565b90565b60203d8111610625575b601f8101601f1916820167ffffffffffffffff8111838210176106115760209183916040528101031261014057519061ffff82168203610114575038610584565b634e487b7160e01b84526041600452602484fd5b503d6105d0565b6040513d6000823e3d90fdfea2646970667358221220b64739f8abc102e219db507e904045886f2013e19101732ab1503f73e214b0b564736f6c63430008110033",
  "immutableReferences": {},
  "source": "// SPDX-License-Identifier: GPL-3.0\r\npragma solidity >=0.7.0 <0.9.0;\r\n\r\nimport \"./interfaces/IHealthScore.sol\";\r\nimport \"./interfaces/ILoanToValueRatio.sol\";\r\n\r\nimport \"@openzeppelin/contracts/access/Ownable2Step.sol\";\r\n\r\ncontract LoanToValueRatio is Ownable2Step, ILoanToValueRatio {\r\n    IHealthScore private _healthScore;\r\n    uint8 public constant base = 10;\r\n\r\n    uint160 minLTV = 1000;\r\n    uint160 maxLTV = 1200;\r\n\r\n    uint256 public healthMaxPrice0 = 1000 * 1e18;\r\n    uint256 public healthMaxPrice1 = 3000 * 1e18;\r\n\r\n    constructor() Ownable2Step() {}\r\n\r\n    function getBase() public pure override returns (uint8) {\r\n        return base;\r\n    }\r\n\r\n    function getRelativeLTV(address user, uint256 amount)\r\n        public\r\n        view\r\n        override\r\n        returns (uint160)\r\n    {\r\n        uint160 ltv = getLTV(user);\r\n\r\n        if (amount > healthMaxPrice1) return maxLTV;\r\n\r\n        if (amount > healthMaxPrice0) {\r\n            uint160 average = ((maxLTV + minLTV) / 2);\r\n            if (ltv <= average) return average;\r\n        }\r\n\r\n        return ltv;\r\n    }\r\n\r\n    function getLTV(address user) public view override returns (uint160) {\r\n        uint16 score = _healthScore.getScore(user);\r\n        uint160 range = maxLTV - minLTV;\r\n        uint160 scale = ((range * score) / 100);\r\n        return minLTV + scale;\r\n    }\r\n\r\n    function setHealthScore(\r\n        address trustScore_,\r\n        uint160 minLTV_,\r\n        uint160 maxLTV_\r\n    ) public onlyOwner {\r\n        require(minLTV_ < maxLTV_, \"ERR_LTV\");\r\n        minLTV = minLTV_ * base;\r\n        maxLTV = maxLTV_ * base;\r\n        \r\n        _healthScore = IHealthScore(trustScore_);\r\n    }\r\n}\r\n",
  "sourcePath": "C:\\Users\\DELL\\Documents\\darsh\\smart-contracts\\contracts\\LoanToValueRatio.sol",
  "compiler": {
    "name": "solc",
    "version": "0.8.17+commit.8df45f5f.Emscripten.clang"
  },
  "schemaVersion": "3.4.11",
  "updatedAt": "2023-02-21T15:06:15.803Z",
  "devdoc": {
    "kind": "dev",
    "methods": {
      "acceptOwnership()": {
        "details": "The new owner accepts the ownership transfer."
      },
      "owner()": {
        "details": "Returns the address of the current owner."
      },
      "pendingOwner()": {
        "details": "Returns the address of the pending owner."
      },
      "renounceOwnership()": {
        "details": "Leaves the contract without owner. It will not be possible to call `onlyOwner` functions anymore. Can only be called by the current owner. NOTE: Renouncing ownership will leave the contract without an owner, thereby removing any functionality that is only available to the owner."
      },
      "transferOwnership(address)": {
        "details": "Starts the ownership transfer of the contract to a new account. Replaces the pending transfer if there is one. Can only be called by the current owner."
      }
    },
    "version": 1
  },
  "userdoc": {
    "kind": "user",
    "methods": {},
    "version": 1
  }
}