{
  "contractName": "LoanManager",
  "abi": [
    {
      "inputs": [],
      "stateMutability": "nonpayable",
      "type": "constructor"
    },
    {
      "anonymous": false,
      "inputs": [
        {
          "indexed": false,
          "internalType": "uint256",
          "name": "loanId",
          "type": "uint256"
        },
        {
          "indexed": false,
          "internalType": "uint160",
          "name": "offerId",
          "type": "uint160"
        },
        {
          "indexed": false,
          "internalType": "enum LoanLibrary.State",
          "name": "state",
          "type": "uint8"
        },
        {
          "indexed": false,
          "internalType": "address",
          "name": "principalToken",
          "type": "address"
        },
        {
          "indexed": false,
          "internalType": "address",
          "name": "collateralToken",
          "type": "address"
        },
        {
          "indexed": false,
          "internalType": "uint256",
          "name": "initialPrincipal",
          "type": "uint256"
        },
        {
          "indexed": false,
          "internalType": "uint256",
          "name": "currentPrincipal",
          "type": "uint256"
        },
        {
          "indexed": false,
          "internalType": "uint256",
          "name": "initialCollateral",
          "type": "uint256"
        },
        {
          "indexed": false,
          "internalType": "uint256",
          "name": "currentCollateral",
          "type": "uint256"
        },
        {
          "indexed": false,
          "internalType": "uint256",
          "name": "interest",
          "type": "uint256"
        },
        {
          "indexed": false,
          "internalType": "uint160",
          "name": "startDate",
          "type": "uint160"
        },
        {
          "indexed": false,
          "internalType": "uint160",
          "name": "maturityDate",
          "type": "uint160"
        },
        {
          "indexed": false,
          "internalType": "address",
          "name": "borrower",
          "type": "address"
        },
        {
          "indexed": false,
          "internalType": "address",
          "name": "lender",
          "type": "address"
        }
      ],
      "name": "LoanCreated",
      "type": "event"
    },
    {
      "anonymous": false,
      "inputs": [
        {
          "indexed": true,
          "internalType": "address",
          "name": "previousOwner",
          "type": "address"
        },
        {
          "indexed": true,
          "internalType": "address",
          "name": "newOwner",
          "type": "address"
        }
      ],
      "name": "OwnershipTransferStarted",
      "type": "event"
    },
    {
      "anonymous": false,
      "inputs": [
        {
          "indexed": true,
          "internalType": "address",
          "name": "previousOwner",
          "type": "address"
        },
        {
          "indexed": true,
          "internalType": "address",
          "name": "newOwner",
          "type": "address"
        }
      ],
      "name": "OwnershipTransferred",
      "type": "event"
    },
    {
      "inputs": [],
      "name": "acceptOwnership",
      "outputs": [],
      "stateMutability": "nonpayable",
      "type": "function"
    },
    {
      "inputs": [],
      "name": "owner",
      "outputs": [
        {
          "internalType": "address",
          "name": "",
          "type": "address"
        }
      ],
      "stateMutability": "view",
      "type": "function"
    },
    {
      "inputs": [],
      "name": "pendingOwner",
      "outputs": [
        {
          "internalType": "address",
          "name": "",
          "type": "address"
        }
      ],
      "stateMutability": "view",
      "type": "function"
    },
    {
      "inputs": [],
      "name": "renounceOwnership",
      "outputs": [],
      "stateMutability": "nonpayable",
      "type": "function"
    },
    {
      "inputs": [
        {
          "internalType": "address",
          "name": "newOwner",
          "type": "address"
        }
      ],
      "name": "transferOwnership",
      "outputs": [],
      "stateMutability": "nonpayable",
      "type": "function"
    },
    {
      "inputs": [
        {
          "internalType": "uint160",
          "name": "offerId",
          "type": "uint160"
        },
        {
          "internalType": "enum OfferLibrary.Type",
          "name": "offerType",
          "type": "uint8"
        },
        {
          "internalType": "address",
          "name": "principalToken",
          "type": "address"
        },
        {
          "internalType": "address",
          "name": "collateralToken",
          "type": "address"
        },
        {
          "internalType": "uint256",
          "name": "principalAmount",
          "type": "uint256"
        },
        {
          "internalType": "uint256",
          "name": "collateralAmount",
          "type": "uint256"
        },
        {
          "internalType": "uint256",
          "name": "collateralPriceInUSD",
          "type": "uint256"
        },
        {
          "internalType": "uint256",
          "name": "interest",
          "type": "uint256"
        },
        {
          "internalType": "uint16",
          "name": "daysToMaturity",
          "type": "uint16"
        },
        {
          "internalType": "address",
          "name": "borrower",
          "type": "address"
        },
        {
          "internalType": "address",
          "name": "lender",
          "type": "address"
        }
      ],
      "name": "createLoan",
      "outputs": [
        {
          "internalType": "uint256",
          "name": "",
          "type": "uint256"
        }
      ],
      "stateMutability": "nonpayable",
      "type": "function"
    },
    {
      "inputs": [
        {
          "internalType": "uint256",
          "name": "loanId",
          "type": "uint256"
        }
      ],
      "name": "getLoan",
      "outputs": [
        {
          "components": [
            {
              "internalType": "uint160",
              "name": "offerId",
              "type": "uint160"
            },
            {
              "internalType": "enum LoanLibrary.State",
              "name": "state",
              "type": "uint8"
            },
            {
              "internalType": "enum OfferLibrary.Type",
              "name": "offerType",
              "type": "uint8"
            },
            {
              "internalType": "address",
              "name": "principalToken",
              "type": "address"
            },
            {
              "internalType": "address",
              "name": "collateralToken",
              "type": "address"
            },
            {
              "internalType": "uint256",
              "name": "initialPrincipal",
              "type": "uint256"
            },
            {
              "internalType": "uint256",
              "name": "currentPrincipal",
              "type": "uint256"
            },
            {
              "internalType": "uint256",
              "name": "initialCollateral",
              "type": "uint256"
            },
            {
              "internalType": "uint256",
              "name": "currentCollateral",
              "type": "uint256"
            },
            {
              "internalType": "uint256",
              "name": "collateralPriceInUSD",
              "type": "uint256"
            },
            {
              "internalType": "uint256",
              "name": "interest",
              "type": "uint256"
            },
            {
              "internalType": "uint160",
              "name": "startDate",
              "type": "uint160"
            },
            {
              "internalType": "uint160",
              "name": "maturityDate",
              "type": "uint160"
            },
            {
              "internalType": "uint8",
              "name": "numInstallmentsPaid",
              "type": "uint8"
            },
            {
              "internalType": "address",
              "name": "borrower",
              "type": "address"
            },
            {
              "internalType": "address",
              "name": "lender",
              "type": "address"
            }
          ],
          "internalType": "struct LoanLibrary.Loan",
          "name": "",
          "type": "tuple"
        }
      ],
      "stateMutability": "view",
      "type": "function"
    },
    {
      "inputs": [
        {
          "internalType": "uint256",
          "name": "loanId",
          "type": "uint256"
        },
        {
          "internalType": "uint256",
          "name": "principalPaid",
          "type": "uint256"
        },
        {
          "internalType": "uint256",
          "name": "collateralRetrieved",
          "type": "uint256"
        }
      ],
      "name": "repayLoan",
      "outputs": [
        {
          "internalType": "bool",
          "name": "",
          "type": "bool"
        }
      ],
      "stateMutability": "nonpayable",
      "type": "function"
    },
    {
      "inputs": [
        {
          "internalType": "uint256",
          "name": "loanId",
          "type": "uint256"
        }
      ],
      "name": "liquidateLoan",
      "outputs": [
        {
          "internalType": "bool",
          "name": "",
          "type": "bool"
        }
      ],
      "stateMutability": "nonpayable",
      "type": "function"
    },
    {
      "inputs": [
        {
          "internalType": "address",
          "name": "address_",
          "type": "address"
        }
      ],
      "name": "setLendingPool",
      "outputs": [],
      "stateMutability": "nonpayable",
      "type": "function"
    }
  ],
  "bytecode": "0x6080806040523461006357600180546001600160a01b03199081169091556000805433928116831782556001600160a01b0316907f8be0079c531659141344cd1fd0a4f28419497f9722a3daafe3b4186f6b6457e09080a3610bc790816100698239f35b600080fdfe6080604052600436101561001257600080fd5b60003560e01c8063113aa8b114610866578063504006ca146106f5578063715018a61461069057806379ba5097146105cd5780638c8489f2146104fe5780638da5cb5b146104d5578063cccffc42146101b9578063ccdd9f5d14610123578063e30c3978146100fa5763f2fde38b1461008a57600080fd5b346100f55760203660031901126100f5576100a36108a9565b6100ab6108cc565b60018060a01b0380911690816001600160601b0360a01b6001541617600155600054167f38d16b8cac22d99fc7c124b9cd0de2d3fa1faef420bfe791d8c362d765e22700600080a3005b600080fd5b346100f55760003660031901126100f5576001546040516001600160a01b039091168152602090f35b346100f55760203660031901126100f557600480549035906001600160a01b031633036100f55780600052600360205260406000209081549160ff8360a01c169060038210156101a3576101989361017e6101929315610a44565b60ff60a01b1916600160a11b178155610967565b90610a93565b602060405160018152f35b634e487b7160e01b600052602160045260246000fd5b346100f557610160806003193601126100f5576004356001600160a01b038116908190036100f5576024359060028210156100f5576044356001600160a01b038116908190036100f5576064356001600160a01b038116908190036100f557610104359361ffff85168095036100f55761012435916001600160a01b03831683036100f55761014435936001600160a01b03851685036100f5576004546001600160a01b031633036100f557620151806001600254019788600255029262ffffff84169384036104bf576001600160a01b034281168501116104bf576102b4906102a1610924565b978852600060208901526040880161095b565b6060860152608085015260843560a0850181905260c085015260a43560e0850181905261010085015260c43561012085015260e4356101408501526001600160a01b0342811687860181905291909101811661018085015260006101a085018190529181166101c08501529182166101e08401528381526003602081815260409092208451815493860151941696909290918410156101a35760408501519360028510156101a35760a090811b60ff60a01b9081166001600160b01b03199093169098179190911760a89490941b60ff60a81b1693909317825560608401516001830180546001600160a01b03199081166001600160a01b03938416179091556080860151600285018054831691841691909117905585850151600385015560c0860151600485015560e086015160058501556101008601516006850155610120860151600785015561014086015160088501559185015160098401805490931690821617909155610180840151600a830180546101a08701516001600160a81b031990911692909316919091179190931b909516949094179055602092600c90600b810160018060a01b036101c0850151166001600160601b0360a01b82541617905501906101e060018060a01b03910151166001600160601b0360a01b82541617905580600052600382526104b76104b16040600020610967565b82610a93565b604051908152f35b634e487b7160e01b600052601160045260246000fd5b346100f55760003660031901126100f5576000546040516001600160a01b039091168152602090f35b346100f55760603660031901126100f557600480549035906001600160a01b031633036100f55780600052600360205260406000209060ff825460a01c1660038110156101a35761054f9015610a44565b600482016105606024358254610a86565b8155600683016105736044358254610a86565b9055600a830192600160ff855460a01c16019160ff83116104bf57845460ff60a01b191660a09390931b60ff60a01b169290921790935561019892610192915461096757805460ff60a01b1916600160a01b178155610967565b346100f55760003660031901126100f5576001546001600160a01b033381831603610639576001600160601b0360a01b8092166001556000549133908316176000553391167f8be0079c531659141344cd1fd0a4f28419497f9722a3daafe3b4186f6b6457e0600080a3005b60405162461bcd60e51b815260206004820152602960248201527f4f776e61626c6532537465703a2063616c6c6572206973206e6f7420746865206044820152683732bb9037bbb732b960b91b6064820152608490fd5b346100f55760003660031901126100f5576106a96108cc565b600180546001600160a01b0319908116909155600080549182168155906001600160a01b03167f8be0079c531659141344cd1fd0a4f28419497f9722a3daafe3b4186f6b6457e08280a3005b346100f55760203660031901126100f55761070e610924565b6000815260006020820152600060408201526000606082015260006080820152600060a0820152600060c0820152600060e08201526101009060008282015261012090600082820152610140600081830152610160926000848401526101806000818501526101a06000818601526101c09060008287015260006101e08097015260043560005260036020526107a76040600020610967565b926040519760018060a01b0396878651168a526107cc602087015160208c01906108bf565b60408601519660028810156101a3576102009b8a9860408d01528960608901511660608d01528960808901511660808d015260a088015160a08d015260c088015160c08d015260e088015160e08d015280880151908c015280870151908b015280860151908a0152868186015116908901528581850151169088015260ff8184015116908701528381830151169086015201511690820152f35b346100f55760203660031901126100f55761087f6108a9565b6108876108cc565b600480546001600160a01b0319166001600160a01b0392909216919091179055005b600435906001600160a01b03821682036100f557565b9060038210156101a35752565b6000546001600160a01b031633036108e057565b606460405162461bcd60e51b815260206004820152602060248201527f4f776e61626c653a2063616c6c6572206973206e6f7420746865206f776e65726044820152fd5b60405190610200820182811067ffffffffffffffff82111761094557604052565b634e487b7160e01b600052604160045260246000fd5b60028210156101a35752565b90610970610924565b82546001600160a01b038082168352919360a082901c60ff169160038310156101a35760ff6109ae91600c94602089015260a81c166040870161095b565b826001820154166060860152826002820154166080860152600381015460a0860152600481015460c0860152600581015460e08601526006810154610100860152600781015461012086015260088101546101408601528260098201541661016086015260ff600a82015484811661018088015260a01c166101a086015282600b820154166101c08601520154166101e0830152565b15610a4b57565b60405162461bcd60e51b81526020600482015260136024820152724552525f4c4f414e5f4e4f545f41435449564560681b6044820152606490fd5b919082039182116104bf57565b60018060a01b0382511691602081015160038110156101a3576060820151608083015160a084015160c085015160e0860151610100808801516101408901516101608a01516101808b01516101c08c01516101e0909c0151604080519e8f5260208f019f909f529c9d6001600160a01b039d8e169d9c8d169c9182169b9282169a939994989597959482169390911691610b2f918f01906108bf565b60608d015260808c015260a08b015260c08a015260e08901528701526101208601526101408501526101608401526101808301526101a08201526101c07f7e355f9694f827244573e0a21dc70fe06a622fec95fc001eef2a72fdaaf543a691a156fea2646970667358221220e35e5604c70c222dd358d01bb53345f811b14d71258d7df5c365d8a9074e7d2d64736f6c63430008110033",
  "immutableReferences": {},
  "source": "// SPDX-License-Identifier: GPL-3.0\r\npragma solidity >=0.7.0 <0.9.0;\r\n\r\nimport \"../libraries/PoolLibrary.sol\";\r\nimport \"../libraries/LoanLibrary.sol\";\r\nimport \"../libraries/OfferLibrary.sol\";\r\n\r\nimport \"../interfaces/ILoanManager.sol\";\r\n\r\nimport \"@openzeppelin/contracts/access/Ownable2Step.sol\";\r\nimport \"@openzeppelin/contracts/utils/Counters.sol\";\r\n\r\ncontract LoanManager is ILoanManager, Ownable2Step {\r\n    using Counters for Counters.Counter;\r\n\r\n    Counters.Counter private loanIdTracker;\r\n    mapping(uint256 => LoanLibrary.Loan) private loans;\r\n\r\n    address lendingPool;\r\n\r\n    event LoanCreated(\r\n        uint256 loanId,\r\n        uint160 offerId,\r\n        LoanLibrary.State state,\r\n        address principalToken,\r\n        address collateralToken,\r\n        uint256 initialPrincipal,\r\n        uint256 currentPrincipal,\r\n        uint256 initialCollateral,\r\n        uint256 currentCollateral,\r\n        uint256 interest,\r\n        uint160 startDate,\r\n        uint160 maturityDate,\r\n        address borrower,\r\n        address lender\r\n    );\r\n\r\n    constructor() Ownable2Step() {}\r\n\r\n    function createLoan(\r\n        uint160 offerId,\r\n        OfferLibrary.Type offerType,\r\n        address principalToken,\r\n        address collateralToken,\r\n        uint256 principalAmount,\r\n        uint256 collateralAmount,\r\n        uint256 collateralPriceInUSD,\r\n        uint256 interest,\r\n        uint16 daysToMaturity,\r\n        address borrower,\r\n        address lender\r\n    ) public onlyLendingPool returns (uint256) {\r\n        // avoid 0 id\r\n        loanIdTracker.increment();\r\n        uint256 loanId = loanIdTracker.current();\r\n\r\n        uint160 startDate = uint160(block.timestamp);\r\n        uint160 duration = uint160((daysToMaturity * 1 days));\r\n        uint160 maturityDate = startDate + duration;\r\n        uint8 numInstallmentsPaid = 0;\r\n\r\n        loans[loanId] = LoanLibrary.Loan(\r\n            offerId,\r\n            LoanLibrary.State.ACTIVE,\r\n            offerType,\r\n            principalToken,\r\n            collateralToken,\r\n            principalAmount,\r\n            principalAmount,\r\n            collateralAmount,\r\n            collateralAmount,\r\n            collateralPriceInUSD,\r\n            interest,\r\n            startDate,\r\n            maturityDate,\r\n            numInstallmentsPaid,\r\n            borrower,\r\n            lender\r\n        );\r\n\r\n        _emit(loanId, loans[loanId]);\r\n\r\n        return loanId;\r\n    }\r\n\r\n    function getLoan(uint256 loanId)\r\n        public\r\n        view\r\n        override\r\n        returns (LoanLibrary.Loan memory)\r\n    {\r\n        return loans[loanId];\r\n    }\r\n\r\n    function repayLoan(\r\n        uint256 loanId,\r\n        uint256 principalPaid,\r\n        uint256 collateralRetrieved\r\n    ) public override onlyLendingPool returns (bool) {\r\n        LoanLibrary.Loan storage loan = loans[loanId];\r\n\r\n        require(loan.state == LoanLibrary.State.ACTIVE, \"ERR_LOAN_NOT_ACTIVE\");\r\n\r\n        loan.currentPrincipal -= principalPaid;\r\n        loan.currentCollateral -= collateralRetrieved;\r\n        loan.numInstallmentsPaid += 1;\r\n\r\n        if (loan.currentPrincipal == 0) {\r\n            // mark loan as paid\r\n            loan.state = LoanLibrary.State.PAID;\r\n        }\r\n\r\n        _emit(loanId, loan);\r\n        return true;\r\n    }\r\n\r\n    function liquidateLoan(uint256 loanId)\r\n        public\r\n        override\r\n        onlyLendingPool\r\n        returns (bool)\r\n    {\r\n        LoanLibrary.Loan storage loan = loans[loanId];\r\n\r\n        require(loan.state == LoanLibrary.State.ACTIVE, \"ERR_LOAN_NOT_ACTIVE\");\r\n        loan.state = LoanLibrary.State.LIQUIDATED;\r\n\r\n        _emit(loanId, loan);\r\n        return true;\r\n    }\r\n\r\n    function _emit(uint256 loanId, LoanLibrary.Loan memory loan) private {\r\n        emit LoanCreated(\r\n            loanId,\r\n            loan.offerId,\r\n            loan.state,\r\n            loan.principalToken,\r\n            loan.collateralToken,\r\n            loan.initialPrincipal,\r\n            loan.currentPrincipal,\r\n            loan.initialCollateral,\r\n            loan.currentCollateral,\r\n            loan.interest,\r\n            loan.startDate,\r\n            loan.maturityDate,\r\n            loan.borrower,\r\n            loan.lender\r\n        );\r\n    }\r\n\r\n    function setLendingPool(address address_) public onlyOwner {\r\n        lendingPool = address_;\r\n    }\r\n\r\n    modifier onlyLendingPool() {\r\n        require(msg.sender == lendingPool);\r\n        _;\r\n    }\r\n}\r\n",
  "sourcePath": "C:\\Users\\DELL\\Documents\\darsh\\smart-contracts\\contracts\\managers\\LoanManager.sol",
  "compiler": {
    "name": "solc",
    "version": "0.8.17+commit.8df45f5f.Emscripten.clang"
  },
  "schemaVersion": "3.4.11",
  "updatedAt": "2023-02-12T20:37:48.535Z",
  "devdoc": {
    "kind": "dev",
    "methods": {
      "acceptOwnership()": {
        "details": "The new owner accepts the ownership transfer."
      },
      "owner()": {
        "details": "Returns the address of the current owner."
      },
      "pendingOwner()": {
        "details": "Returns the address of the pending owner."
      },
      "renounceOwnership()": {
        "details": "Leaves the contract without owner. It will not be possible to call `onlyOwner` functions anymore. Can only be called by the current owner. NOTE: Renouncing ownership will leave the contract without an owner, thereby removing any functionality that is only available to the owner."
      },
      "transferOwnership(address)": {
        "details": "Starts the ownership transfer of the contract to a new account. Replaces the pending transfer if there is one. Can only be called by the current owner."
      }
    },
    "version": 1
  },
  "userdoc": {
    "kind": "user",
    "methods": {},
    "version": 1
  }
}