{
  "contractName": "LoanManager",
  "abi": [
    {
      "inputs": [],
      "stateMutability": "nonpayable",
      "type": "constructor"
    },
    {
      "anonymous": false,
      "inputs": [
        {
          "indexed": false,
          "internalType": "uint256",
          "name": "loanId",
          "type": "uint256"
        },
        {
          "indexed": false,
          "internalType": "uint256",
          "name": "offerId",
          "type": "uint256"
        },
        {
          "indexed": false,
          "internalType": "enum LoanLibrary.State",
          "name": "state",
          "type": "uint8"
        },
        {
          "indexed": false,
          "internalType": "enum AssetLibrary.Type",
          "name": "principalType",
          "type": "uint8"
        },
        {
          "indexed": false,
          "internalType": "enum AssetLibrary.Type",
          "name": "collateralType",
          "type": "uint8"
        },
        {
          "indexed": false,
          "internalType": "uint256",
          "name": "initialPrincipal",
          "type": "uint256"
        },
        {
          "indexed": false,
          "internalType": "uint256",
          "name": "currentPrincipal",
          "type": "uint256"
        },
        {
          "indexed": false,
          "internalType": "uint256",
          "name": "initialCollateral",
          "type": "uint256"
        },
        {
          "indexed": false,
          "internalType": "uint256",
          "name": "currentCollateral",
          "type": "uint256"
        },
        {
          "indexed": false,
          "internalType": "uint256",
          "name": "interest",
          "type": "uint256"
        },
        {
          "indexed": false,
          "internalType": "uint160",
          "name": "startDate",
          "type": "uint160"
        },
        {
          "indexed": false,
          "internalType": "uint160",
          "name": "maturityDate",
          "type": "uint160"
        },
        {
          "indexed": false,
          "internalType": "address",
          "name": "borrower",
          "type": "address"
        },
        {
          "indexed": false,
          "internalType": "address",
          "name": "lender",
          "type": "address"
        }
      ],
      "name": "LoanCreated",
      "type": "event"
    },
    {
      "anonymous": false,
      "inputs": [
        {
          "indexed": false,
          "internalType": "uint256",
          "name": "offerId",
          "type": "uint256"
        },
        {
          "indexed": false,
          "internalType": "uint256",
          "name": "amountPaid",
          "type": "uint256"
        },
        {
          "indexed": false,
          "internalType": "uint256",
          "name": "collateralRetrieved",
          "type": "uint256"
        }
      ],
      "name": "LoanRepaid",
      "type": "event"
    },
    {
      "anonymous": false,
      "inputs": [
        {
          "indexed": true,
          "internalType": "address",
          "name": "previousOwner",
          "type": "address"
        },
        {
          "indexed": true,
          "internalType": "address",
          "name": "newOwner",
          "type": "address"
        }
      ],
      "name": "OwnershipTransferStarted",
      "type": "event"
    },
    {
      "anonymous": false,
      "inputs": [
        {
          "indexed": true,
          "internalType": "address",
          "name": "previousOwner",
          "type": "address"
        },
        {
          "indexed": true,
          "internalType": "address",
          "name": "newOwner",
          "type": "address"
        }
      ],
      "name": "OwnershipTransferred",
      "type": "event"
    },
    {
      "inputs": [],
      "name": "acceptOwnership",
      "outputs": [],
      "stateMutability": "nonpayable",
      "type": "function"
    },
    {
      "inputs": [],
      "name": "owner",
      "outputs": [
        {
          "internalType": "address",
          "name": "",
          "type": "address"
        }
      ],
      "stateMutability": "view",
      "type": "function"
    },
    {
      "inputs": [],
      "name": "pendingOwner",
      "outputs": [
        {
          "internalType": "address",
          "name": "",
          "type": "address"
        }
      ],
      "stateMutability": "view",
      "type": "function"
    },
    {
      "inputs": [],
      "name": "renounceOwnership",
      "outputs": [],
      "stateMutability": "nonpayable",
      "type": "function"
    },
    {
      "inputs": [
        {
          "internalType": "address",
          "name": "newOwner",
          "type": "address"
        }
      ],
      "name": "transferOwnership",
      "outputs": [],
      "stateMutability": "nonpayable",
      "type": "function"
    },
    {
      "inputs": [
        {
          "internalType": "uint256",
          "name": "offerId",
          "type": "uint256"
        },
        {
          "internalType": "enum OfferLibrary.Type",
          "name": "offerType",
          "type": "uint8"
        },
        {
          "internalType": "enum AssetLibrary.Type",
          "name": "principalType",
          "type": "uint8"
        },
        {
          "internalType": "enum AssetLibrary.Type",
          "name": "collateralType",
          "type": "uint8"
        },
        {
          "internalType": "uint256",
          "name": "principal",
          "type": "uint256"
        },
        {
          "internalType": "uint256",
          "name": "collateral",
          "type": "uint256"
        },
        {
          "internalType": "uint256",
          "name": "interest",
          "type": "uint256"
        },
        {
          "internalType": "uint256",
          "name": "daysToMaturity",
          "type": "uint256"
        },
        {
          "internalType": "address",
          "name": "borrower",
          "type": "address"
        },
        {
          "internalType": "address",
          "name": "lender",
          "type": "address"
        }
      ],
      "name": "createLoan",
      "outputs": [
        {
          "internalType": "uint256",
          "name": "",
          "type": "uint256"
        }
      ],
      "stateMutability": "nonpayable",
      "type": "function"
    },
    {
      "inputs": [
        {
          "internalType": "uint256",
          "name": "loanId",
          "type": "uint256"
        }
      ],
      "name": "getLoan",
      "outputs": [
        {
          "components": [
            {
              "internalType": "uint256",
              "name": "offerId",
              "type": "uint256"
            },
            {
              "internalType": "enum LoanLibrary.State",
              "name": "state",
              "type": "uint8"
            },
            {
              "internalType": "enum OfferLibrary.Type",
              "name": "offerType",
              "type": "uint8"
            },
            {
              "internalType": "enum AssetLibrary.Type",
              "name": "principalType",
              "type": "uint8"
            },
            {
              "internalType": "enum AssetLibrary.Type",
              "name": "collateralType",
              "type": "uint8"
            },
            {
              "internalType": "uint256",
              "name": "initialPrincipal",
              "type": "uint256"
            },
            {
              "internalType": "uint256",
              "name": "currentPrincipal",
              "type": "uint256"
            },
            {
              "internalType": "uint256",
              "name": "initialCollateral",
              "type": "uint256"
            },
            {
              "internalType": "uint256",
              "name": "currentCollateral",
              "type": "uint256"
            },
            {
              "internalType": "uint256",
              "name": "interest",
              "type": "uint256"
            },
            {
              "internalType": "uint160",
              "name": "startDate",
              "type": "uint160"
            },
            {
              "internalType": "uint160",
              "name": "maturityDate",
              "type": "uint160"
            },
            {
              "internalType": "uint256",
              "name": "numInstallmentsPaid",
              "type": "uint256"
            },
            {
              "internalType": "address",
              "name": "borrower",
              "type": "address"
            },
            {
              "internalType": "address",
              "name": "lender",
              "type": "address"
            }
          ],
          "internalType": "struct LoanLibrary.Loan",
          "name": "",
          "type": "tuple"
        }
      ],
      "stateMutability": "view",
      "type": "function"
    },
    {
      "inputs": [
        {
          "internalType": "uint256",
          "name": "loanId",
          "type": "uint256"
        }
      ],
      "name": "repayLoanAll",
      "outputs": [
        {
          "internalType": "bool",
          "name": "",
          "type": "bool"
        }
      ],
      "stateMutability": "nonpayable",
      "type": "function"
    },
    {
      "inputs": [
        {
          "internalType": "uint256",
          "name": "loanId",
          "type": "uint256"
        },
        {
          "internalType": "uint256",
          "name": "principalPaid",
          "type": "uint256"
        },
        {
          "internalType": "uint256",
          "name": "collateralRetrieved",
          "type": "uint256"
        }
      ],
      "name": "repayLoanInstallment",
      "outputs": [
        {
          "internalType": "bool",
          "name": "",
          "type": "bool"
        }
      ],
      "stateMutability": "nonpayable",
      "type": "function"
    },
    {
      "inputs": [
        {
          "internalType": "uint256",
          "name": "loanId",
          "type": "uint256"
        }
      ],
      "name": "liquidateLoan",
      "outputs": [
        {
          "internalType": "bool",
          "name": "",
          "type": "bool"
        }
      ],
      "stateMutability": "nonpayable",
      "type": "function"
    },
    {
      "inputs": [
        {
          "internalType": "address",
          "name": "address_",
          "type": "address"
        }
      ],
      "name": "setLendingPool",
      "outputs": [],
      "stateMutability": "nonpayable",
      "type": "function"
    }
  ],
  "bytecode": "0x6080806040523461006357600180546001600160a01b03199081169091556000805433928116831782556001600160a01b0316907f8be0079c531659141344cd1fd0a4f28419497f9722a3daafe3b4186f6b6457e09080a3610b8790816100698239f35b600080fdfe6080604052600436101561001257600080fd5b60003560e01c8063113aa8b1146108ca578063504006ca14610692578063715018a61461062d57806379ba50971461056a57806387d709b71461054c5780638da5cb5b14610523578063cc2d5a2f146101ba578063ccdd9f5d1461016e578063e30c397814610145578063f2fde38b146100da5763f750c43e1461009557600080fd5b346100d55760603660031901126100d5576004546001600160a01b031633036100d55760206100cb604435602435600435610a27565b6040519015158152f35b600080fd5b346100d55760203660031901126100d5576100f361090d565b6100fb610930565b60018060a01b0380911690816001600160601b0360a01b6001541617600155600054167f38d16b8cac22d99fc7c124b9cd0de2d3fa1faef420bfe791d8c362d765e22700600080a3005b346100d55760003660031901126100d5576001546040516001600160a01b039091168152602090f35b346100d55760203660031901126100d5576004546001600160a01b031633036100d55760043560005260036020526001604060002001600260ff19825416179055602060405160018152f35b346100d5576101403660031901126100d557600260243510156100d557600660443510156100d557600660643510156100d557610104356001600160a01b03811681036100d55761012435906001600160a01b03821682036100d5576004546001600160a01b031633036100d557600160025401908160025560e435620151809081810291818304149015171561050d576001600160a01b03428116828216011161050d57610267610988565b90600435825260006020830152610283602435604084016109bf565b610292604435606084016109cb565b6102a1606435608084016109cb565b60843560a0830181905260c083015260a43560e0830181905261010083015260c4356101208301526001600160a01b034281166101408401819052828216018116610160840152600061018084018190528482166101a08501529086166101c0840152848152600360208181526040909220845181559184015191969194908510156104f75760018701549360408101519760028910156104f75760608201519860068a10156104f75760808301519960068b10156104f75762ff00007f3cfaa03c26402352edd36f3e411565d99bfaf3d27d6ac49991c3332f6bb06bde996101c09960ff61ff0060209f63ff0000009060181b169660081b1692169063ffffffff191617179160101b161717600182015560a0820151600282015560c0820151600382015560e0820151600482015561010082015160058201556101208201516006820155600b600782019160018060a01b0361014085015116926001600160601b0360a01b93848254161790556008810160018060a01b0361016086015116848254161790556101808401516009820155600a810160018060a01b036101a0860151168482541617905501918660018060a01b03910151169082541617905560405192868452600435888501526000604085015261048660608501604435610923565b61049560808501606435610923565b60843560a0850181905260c085015260a43560e0850181905261010085015260c4356101208501526001600160a01b0342811661014086018190529181169091018116610160850152908116610180840152166101a0820152a1604051908152f35b634e487b7160e01b600052602160045260246000fd5b634e487b7160e01b600052601160045260246000fd5b346100d55760003660031901126100d5576000546040516001600160a01b039091168152602090f35b346100d55760203660031901126100d55760206100cb6004356109d7565b346100d55760003660031901126100d5576001546001600160a01b0333818316036105d6576001600160601b0360a01b8092166001556000549133908316176000553391167f8be0079c531659141344cd1fd0a4f28419497f9722a3daafe3b4186f6b6457e0600080a3005b60405162461bcd60e51b815260206004820152602960248201527f4f776e61626c6532537465703a2063616c6c6572206973206e6f7420746865206044820152683732bb9037bbb732b960b91b6064820152608490fd5b346100d55760003660031901126100d557610646610930565b600180546001600160a01b0319908116909155600080549182168155906001600160a01b03167f8be0079c531659141344cd1fd0a4f28419497f9722a3daafe3b4186f6b6457e08280a3005b346100d55760203660031901126100d55760006101c06106b0610988565b8281528260208201528260408201528260608201528260808201528260a08201528260c08201528260e08201528261010082015282610120820152826101408201528261016082015282610180820152826101a0820152015260043560005260036020526040600020610721610988565b9080548252600181015460ff811660038110156104f7576107759160ff916020860152610756828260081c16604087016109bf565b610768828260101c16606087016109cb565b60181c16608084016109cb565b600281015460a083015260038082015460c0840152600482015460e08401526005820154610100840152600682015461012084015260078201546001600160a01b03908116610140850152600883015481166101608501526009830154610180850152600a83015481166101a0850152600b909201549091166101c083015260405182518152602083015190918110156104f757602082015260408201519160028310156104f7576101e092604083015261083860608201516060840190610923565b61084a60808201516080840190610923565b60a0818101519083015260c0808201519083015260e0808201519083015261010080820151908301526101208082015190830152610140808201516001600160a01b03908116918401919091526101608083015182169084015261018080830151908401526101a0808301518216908401526101c0918201511690820152f35b346100d55760203660031901126100d5576108e361090d565b6108eb610930565b600480546001600160a01b0319166001600160a01b0392909216919091179055005b600435906001600160a01b03821682036100d557565b9060068210156104f75752565b6000546001600160a01b0316330361094457565b606460405162461bcd60e51b815260206004820152602060248201527f4f776e61626c653a2063616c6c6572206973206e6f7420746865206f776e65726044820152fd5b604051906101e0820182811067ffffffffffffffff8211176109a957604052565b634e487b7160e01b600052604160045260246000fd5b60028210156104f75752565b60068210156104f75752565b6004546001600160a01b031633036100d557604060019160009081526003602052806003838220015580600583822001552001600160ff19825416179055600190565b9190820391821161050d57565b91906000908382526003918260205260409260ff600185842001541681811015610b3d57610b345785825260208190528382208101548310610aaa575050918391606093610a957fd9cfbcfb9ae5d65b8d34072de4575f602ee25cf3715bc05c291701fe9e258f9a966109d7565b505b81519384526020840152820152a1600190565b8084832001610aba848254610a1a565b905585825280602052600584832001610ad4868254610a1a565b905585825260205260098382200180549160018301809311610b205750917fd9cfbcfb9ae5d65b8d34072de4575f602ee25cf3715bc05c291701fe9e258f9a9593916060959355610a97565b634e487b7160e01b81526011600452602490fd5b50935050505090565b634e487b7160e01b83526021600452602483fdfea264697066735822122008fcd4e6cf34ebfd163bea740c72a97187274dcea96931d7746f31db9223065964736f6c63430008110033",
  "immutableReferences": {},
  "source": "// SPDX-License-Identifier: GPL-3.0\r\npragma solidity >=0.7.0 <0.9.0;\r\n\r\nimport \"../libraries/AssetLibrary.sol\";\r\nimport \"../libraries/LoanLibrary.sol\";\r\nimport \"../libraries/OfferLibrary.sol\";\r\n\r\nimport \"../interfaces/ILoanManager.sol\";\r\n\r\nimport \"@openzeppelin/contracts/access/Ownable2Step.sol\";\r\nimport \"@openzeppelin/contracts/utils/Counters.sol\";\r\n\r\ncontract LoanManager is ILoanManager, Ownable2Step {\r\n    using Counters for Counters.Counter;\r\n\r\n    Counters.Counter private loanIdTracker;\r\n    mapping(uint256 => LoanLibrary.Loan) private loans;\r\n\r\n    address lendingPool;\r\n\r\n    event LoanCreated(\r\n        uint256 loanId,\r\n        uint256 offerId,    \r\n        LoanLibrary.State state,\r\n        AssetLibrary.Type principalType,    \r\n        AssetLibrary.Type collateralType,\r\n        uint256 initialPrincipal,\r\n        uint256 currentPrincipal,\r\n        uint256 initialCollateral,\r\n        uint256 currentCollateral,\r\n        uint256 interest,\r\n        uint160 startDate,\r\n        uint160 maturityDate,\r\n        address borrower,\r\n        address lender\r\n    );\r\n\r\n    event LoanRepaid(\r\n        uint256 offerId,\r\n        uint256 amountPaid,\r\n        uint256 collateralRetrieved\r\n    );\r\n\r\n    constructor() Ownable2Step() {}\r\n\r\n    function createLoan(\r\n        uint256 offerId,\r\n        OfferLibrary.Type offerType,\r\n        AssetLibrary.Type principalType,\r\n        AssetLibrary.Type collateralType,\r\n        uint256 principal,\r\n        uint256 collateral,\r\n        uint256 interest,\r\n        uint256 daysToMaturity,\r\n        address borrower,\r\n        address lender\r\n    ) public onlyLendingPool returns (uint256) {\r\n        // avoid 0 id\r\n        loanIdTracker.increment();\r\n        uint256 loanId = loanIdTracker.current();\r\n\r\n        uint160 startDate = uint160(block.timestamp);\r\n        uint160 duration = uint160((daysToMaturity * 1 days));\r\n        uint160 maturityDate = startDate + duration;\r\n        uint256 numInstallmentsPaid = 0;\r\n\r\n        loans[loanId] = LoanLibrary.Loan(\r\n            offerId,\r\n            LoanLibrary.State.ACTIVE,\r\n            offerType,\r\n            principalType,\r\n            collateralType,\r\n            principal,\r\n            principal,\r\n            collateral,\r\n            collateral,\r\n            interest,\r\n            startDate,\r\n            maturityDate,\r\n            numInstallmentsPaid,\r\n            borrower,\r\n            lender\r\n        );\r\n\r\n        emit LoanCreated(\r\n            loanId,\r\n            offerId,\r\n            LoanLibrary.State.ACTIVE,\r\n            principalType,\r\n            collateralType,\r\n            principal,\r\n            principal,\r\n            collateral,\r\n            collateral,\r\n            interest,\r\n            startDate,\r\n            maturityDate,\r\n            borrower,\r\n            lender\r\n        );\r\n\r\n        return loanId;\r\n    }\r\n\r\n    function getLoan(uint256 loanId)\r\n        public\r\n        view\r\n        override\r\n        returns (LoanLibrary.Loan memory)\r\n    {\r\n        return loans[loanId];\r\n    }\r\n\r\n    function repayLoanAll(uint256 loanId)\r\n        public\r\n        override\r\n        onlyLendingPool\r\n        returns (bool)\r\n    {\r\n        loans[loanId].currentPrincipal = 0;\r\n        loans[loanId].currentCollateral = 0;\r\n        loans[loanId].state = LoanLibrary.State.PAID;\r\n        return true;\r\n    }\r\n\r\n    function repayLoanInstallment(\r\n        uint256 loanId,\r\n        uint256 principalPaid,\r\n        uint256 collateralRetrieved\r\n    ) public override onlyLendingPool returns (bool) {\r\n        if (loans[loanId].state != LoanLibrary.State.ACTIVE) return false;\r\n\r\n        if (principalPaid >= loans[loanId].currentPrincipal) {\r\n            repayLoanAll(loanId);\r\n        } else {\r\n            loans[loanId].currentPrincipal -= principalPaid;\r\n            loans[loanId].currentCollateral -= collateralRetrieved;\r\n            loans[loanId].numInstallmentsPaid += 1;\r\n        }\r\n\r\n        emit LoanRepaid(loanId, principalPaid, collateralRetrieved);\r\n        return true;\r\n    }\r\n\r\n    function liquidateLoan(uint256 loanId)\r\n        public\r\n        override\r\n        onlyLendingPool\r\n        returns (bool)\r\n    {\r\n        loans[loanId].state = LoanLibrary.State.LIQUIDATED;\r\n        return true;\r\n    }\r\n\r\n    function setLendingPool(address address_) public onlyOwner {\r\n        lendingPool = address_;\r\n    }\r\n\r\n    modifier onlyLendingPool() {\r\n        require(msg.sender == lendingPool);\r\n        _;\r\n    }\r\n}\r\n",
  "sourcePath": "C:\\Users\\DELL\\Documents\\darsh\\smart-contracts\\contracts\\managers\\LoanManager.sol",
  "compiler": {
    "name": "solc",
    "version": "0.8.17+commit.8df45f5f.Emscripten.clang"
  },
  "schemaVersion": "3.4.11",
  "updatedAt": "2023-02-11T06:38:09.138Z",
  "devdoc": {
    "kind": "dev",
    "methods": {
      "acceptOwnership()": {
        "details": "The new owner accepts the ownership transfer."
      },
      "owner()": {
        "details": "Returns the address of the current owner."
      },
      "pendingOwner()": {
        "details": "Returns the address of the pending owner."
      },
      "renounceOwnership()": {
        "details": "Leaves the contract without owner. It will not be possible to call `onlyOwner` functions anymore. Can only be called by the current owner. NOTE: Renouncing ownership will leave the contract without an owner, thereby removing any functionality that is only available to the owner."
      },
      "transferOwnership(address)": {
        "details": "Starts the ownership transfer of the contract to a new account. Replaces the pending transfer if there is one. Can only be called by the current owner."
      }
    },
    "version": 1
  },
  "userdoc": {
    "kind": "user",
    "methods": {},
    "version": 1
  }
}