{
  "contractName": "LoanManager",
  "abi": [
    {
      "inputs": [],
      "stateMutability": "nonpayable",
      "type": "constructor"
    },
    {
      "anonymous": false,
      "inputs": [
        {
          "indexed": true,
          "internalType": "address",
          "name": "previousOwner",
          "type": "address"
        },
        {
          "indexed": true,
          "internalType": "address",
          "name": "newOwner",
          "type": "address"
        }
      ],
      "name": "OwnershipTransferStarted",
      "type": "event"
    },
    {
      "anonymous": false,
      "inputs": [
        {
          "indexed": true,
          "internalType": "address",
          "name": "previousOwner",
          "type": "address"
        },
        {
          "indexed": true,
          "internalType": "address",
          "name": "newOwner",
          "type": "address"
        }
      ],
      "name": "OwnershipTransferred",
      "type": "event"
    },
    {
      "inputs": [],
      "name": "ONE_DAY",
      "outputs": [
        {
          "internalType": "uint256",
          "name": "",
          "type": "uint256"
        }
      ],
      "stateMutability": "view",
      "type": "function"
    },
    {
      "inputs": [],
      "name": "ONE_HOUR",
      "outputs": [
        {
          "internalType": "uint256",
          "name": "",
          "type": "uint256"
        }
      ],
      "stateMutability": "view",
      "type": "function"
    },
    {
      "inputs": [],
      "name": "acceptOwnership",
      "outputs": [],
      "stateMutability": "nonpayable",
      "type": "function"
    },
    {
      "inputs": [
        {
          "internalType": "uint256",
          "name": "",
          "type": "uint256"
        }
      ],
      "name": "loans",
      "outputs": [
        {
          "internalType": "uint256",
          "name": "offerId",
          "type": "uint256"
        },
        {
          "internalType": "enum LoanLibrary.State",
          "name": "state",
          "type": "uint8"
        },
        {
          "internalType": "address",
          "name": "principalToken",
          "type": "address"
        },
        {
          "internalType": "address",
          "name": "collateralToken",
          "type": "address"
        },
        {
          "internalType": "uint256",
          "name": "initialPrincipal",
          "type": "uint256"
        },
        {
          "internalType": "uint256",
          "name": "currentPrincipal",
          "type": "uint256"
        },
        {
          "internalType": "uint256",
          "name": "initialCollateral",
          "type": "uint256"
        },
        {
          "internalType": "uint256",
          "name": "currentCollateral",
          "type": "uint256"
        },
        {
          "internalType": "uint256",
          "name": "collateralPriceInUSD",
          "type": "uint256"
        },
        {
          "internalType": "uint256",
          "name": "interest",
          "type": "uint256"
        },
        {
          "internalType": "uint256",
          "name": "startDate",
          "type": "uint256"
        },
        {
          "internalType": "uint256",
          "name": "maturityDate",
          "type": "uint256"
        },
        {
          "internalType": "uint16",
          "name": "graceDays",
          "type": "uint16"
        },
        {
          "internalType": "uint8",
          "name": "numInstallmentsPaid",
          "type": "uint8"
        },
        {
          "internalType": "uint256",
          "name": "unClaimedPrincipal",
          "type": "uint256"
        },
        {
          "internalType": "uint256",
          "name": "unClaimedCollateral",
          "type": "uint256"
        },
        {
          "internalType": "uint256",
          "name": "unClaimedDefaultCollateral",
          "type": "uint256"
        },
        {
          "internalType": "uint256",
          "name": "unClaimedLoanPrincipal",
          "type": "uint256"
        },
        {
          "internalType": "uint256",
          "name": "repaidOn",
          "type": "uint256"
        },
        {
          "internalType": "address",
          "name": "borrower",
          "type": "address"
        },
        {
          "internalType": "address",
          "name": "lender",
          "type": "address"
        }
      ],
      "stateMutability": "view",
      "type": "function"
    },
    {
      "inputs": [],
      "name": "owner",
      "outputs": [
        {
          "internalType": "address",
          "name": "",
          "type": "address"
        }
      ],
      "stateMutability": "view",
      "type": "function"
    },
    {
      "inputs": [],
      "name": "pendingOwner",
      "outputs": [
        {
          "internalType": "address",
          "name": "",
          "type": "address"
        }
      ],
      "stateMutability": "view",
      "type": "function"
    },
    {
      "inputs": [],
      "name": "renounceOwnership",
      "outputs": [],
      "stateMutability": "nonpayable",
      "type": "function"
    },
    {
      "inputs": [
        {
          "internalType": "address",
          "name": "newOwner",
          "type": "address"
        }
      ],
      "name": "transferOwnership",
      "outputs": [],
      "stateMutability": "nonpayable",
      "type": "function"
    },
    {
      "inputs": [
        {
          "internalType": "uint256",
          "name": "offerId",
          "type": "uint256"
        },
        {
          "internalType": "enum OfferLibrary.Type",
          "name": "offerType",
          "type": "uint8"
        },
        {
          "internalType": "address",
          "name": "principalToken",
          "type": "address"
        },
        {
          "internalType": "address",
          "name": "collateralToken",
          "type": "address"
        },
        {
          "internalType": "uint256",
          "name": "principalAmount",
          "type": "uint256"
        },
        {
          "internalType": "uint256",
          "name": "collateralAmount",
          "type": "uint256"
        },
        {
          "internalType": "uint256",
          "name": "collateralPriceInUSD",
          "type": "uint256"
        },
        {
          "internalType": "uint256",
          "name": "interest",
          "type": "uint256"
        },
        {
          "internalType": "uint16",
          "name": "daysToMaturity",
          "type": "uint16"
        },
        {
          "internalType": "uint256",
          "name": "unClaimedLoanPrincipal",
          "type": "uint256"
        },
        {
          "internalType": "address",
          "name": "borrower",
          "type": "address"
        },
        {
          "internalType": "address",
          "name": "lender",
          "type": "address"
        }
      ],
      "name": "createLoan",
      "outputs": [
        {
          "internalType": "uint256",
          "name": "",
          "type": "uint256"
        }
      ],
      "stateMutability": "nonpayable",
      "type": "function"
    },
    {
      "inputs": [
        {
          "internalType": "uint256",
          "name": "loanId",
          "type": "uint256"
        }
      ],
      "name": "getLoan",
      "outputs": [
        {
          "components": [
            {
              "internalType": "uint256",
              "name": "offerId",
              "type": "uint256"
            },
            {
              "internalType": "enum LoanLibrary.State",
              "name": "state",
              "type": "uint8"
            },
            {
              "internalType": "address",
              "name": "principalToken",
              "type": "address"
            },
            {
              "internalType": "address",
              "name": "collateralToken",
              "type": "address"
            },
            {
              "internalType": "uint256",
              "name": "initialPrincipal",
              "type": "uint256"
            },
            {
              "internalType": "uint256",
              "name": "currentPrincipal",
              "type": "uint256"
            },
            {
              "internalType": "uint256",
              "name": "initialCollateral",
              "type": "uint256"
            },
            {
              "internalType": "uint256",
              "name": "currentCollateral",
              "type": "uint256"
            },
            {
              "internalType": "uint256",
              "name": "collateralPriceInUSD",
              "type": "uint256"
            },
            {
              "internalType": "uint256",
              "name": "interest",
              "type": "uint256"
            },
            {
              "internalType": "uint256",
              "name": "startDate",
              "type": "uint256"
            },
            {
              "internalType": "uint256",
              "name": "maturityDate",
              "type": "uint256"
            },
            {
              "internalType": "uint16",
              "name": "graceDays",
              "type": "uint16"
            },
            {
              "internalType": "uint8",
              "name": "numInstallmentsPaid",
              "type": "uint8"
            },
            {
              "internalType": "uint256",
              "name": "unClaimedPrincipal",
              "type": "uint256"
            },
            {
              "internalType": "uint256",
              "name": "unClaimedCollateral",
              "type": "uint256"
            },
            {
              "internalType": "uint256",
              "name": "unClaimedDefaultCollateral",
              "type": "uint256"
            },
            {
              "internalType": "uint256",
              "name": "unClaimedLoanPrincipal",
              "type": "uint256"
            },
            {
              "internalType": "uint256",
              "name": "repaidOn",
              "type": "uint256"
            },
            {
              "internalType": "address",
              "name": "borrower",
              "type": "address"
            },
            {
              "internalType": "address",
              "name": "lender",
              "type": "address"
            }
          ],
          "internalType": "struct LoanLibrary.Loan",
          "name": "",
          "type": "tuple"
        }
      ],
      "stateMutability": "view",
      "type": "function"
    },
    {
      "inputs": [
        {
          "internalType": "uint256",
          "name": "loanId",
          "type": "uint256"
        },
        {
          "internalType": "uint256",
          "name": "interestPaid",
          "type": "uint256"
        },
        {
          "internalType": "uint256",
          "name": "principalPaid",
          "type": "uint256"
        },
        {
          "internalType": "uint256",
          "name": "collateralRetrieved",
          "type": "uint256"
        }
      ],
      "name": "repayLoan",
      "outputs": [
        {
          "internalType": "bool",
          "name": "",
          "type": "bool"
        }
      ],
      "stateMutability": "nonpayable",
      "type": "function"
    },
    {
      "inputs": [
        {
          "internalType": "uint256",
          "name": "loanId",
          "type": "uint256"
        },
        {
          "internalType": "address",
          "name": "user",
          "type": "address"
        }
      ],
      "name": "claimPrincipal",
      "outputs": [
        {
          "internalType": "uint256",
          "name": "",
          "type": "uint256"
        },
        {
          "internalType": "address",
          "name": "",
          "type": "address"
        }
      ],
      "stateMutability": "nonpayable",
      "type": "function"
    },
    {
      "inputs": [
        {
          "internalType": "uint256",
          "name": "loanId",
          "type": "uint256"
        },
        {
          "internalType": "address",
          "name": "user",
          "type": "address"
        }
      ],
      "name": "claimDefaultCollateral",
      "outputs": [
        {
          "internalType": "uint256",
          "name": "",
          "type": "uint256"
        },
        {
          "internalType": "address",
          "name": "",
          "type": "address"
        }
      ],
      "stateMutability": "nonpayable",
      "type": "function"
    },
    {
      "inputs": [
        {
          "internalType": "uint256",
          "name": "loanId",
          "type": "uint256"
        },
        {
          "internalType": "address",
          "name": "user",
          "type": "address"
        }
      ],
      "name": "claimCollateral",
      "outputs": [
        {
          "internalType": "uint256",
          "name": "",
          "type": "uint256"
        },
        {
          "internalType": "address",
          "name": "",
          "type": "address"
        }
      ],
      "stateMutability": "nonpayable",
      "type": "function"
    },
    {
      "inputs": [
        {
          "internalType": "uint256",
          "name": "loanId",
          "type": "uint256"
        },
        {
          "internalType": "address",
          "name": "user",
          "type": "address"
        }
      ],
      "name": "claimLoanPrincipal",
      "outputs": [
        {
          "internalType": "uint256",
          "name": "",
          "type": "uint256"
        },
        {
          "internalType": "address",
          "name": "",
          "type": "address"
        }
      ],
      "stateMutability": "nonpayable",
      "type": "function"
    },
    {
      "inputs": [
        {
          "internalType": "uint256",
          "name": "loanId",
          "type": "uint256"
        },
        {
          "internalType": "uint256",
          "name": "principalPaid",
          "type": "uint256"
        },
        {
          "internalType": "uint256",
          "name": "collateralRetrieved",
          "type": "uint256"
        },
        {
          "internalType": "uint256",
          "name": "collateralPaid",
          "type": "uint256"
        }
      ],
      "name": "liquidateLoan",
      "outputs": [],
      "stateMutability": "nonpayable",
      "type": "function"
    },
    {
      "inputs": [
        {
          "internalType": "uint16",
          "name": "days_",
          "type": "uint16"
        }
      ],
      "name": "setGraceDays",
      "outputs": [],
      "stateMutability": "nonpayable",
      "type": "function"
    },
    {
      "inputs": [
        {
          "internalType": "address",
          "name": "address_",
          "type": "address"
        }
      ],
      "name": "setLendingPool",
      "outputs": [],
      "stateMutability": "nonpayable",
      "type": "function"
    }
  ],
  "bytecode": "0x6080806040523461007757600180546001600160a01b03199081169091556000805433928116831782556001600160a01b0316907f8be0079c531659141344cd1fd0a4f28419497f9722a3daafe3b4186f6b6457e09080a36005805461ffff60a01b1916600560a01b179055611495908161007d8239f35b600080fdfe610140604052600436101561001357600080fd5b60003560e01c8063113aa8b114610ef1578063129773e214610ddf578063165035e214610dc257806319467e27146109ea5780633799ba3f1461087c578063504006ca146106a5578063715018a61461064057806378fe76ec146105f857806379ba509714610535578063863e76db146105175780638da5cb5b146104ee578063a5aca38014610486578063cb7ec57b1461041e578063e1ec3c681461028e578063e30c397814610265578063e41936d7146101e0578063f2fde38b146101755763f400c743146100e357600080fd5b34610170576040366003190112610170576100fc610f4a565b6005546001600160a01b0390811633036101705760043560005260036020526101346040600020928280601286015416911614611233565b6001600c830192600084549461014b861515611270565b5501546040805193845260089190911c919091166001600160a01b0316602083015290f35b600080fd5b346101705760203660031901126101705761018e610f34565b610196610f8b565b60018060a01b0380911690816001600160601b0360a01b6001541617600155600054167f38d16b8cac22d99fc7c124b9cd0de2d3fa1faef420bfe791d8c362d765e22700600080a3005b34610170576040366003190112610170576101f9610f4a565b6005546001600160a01b0390811633036101705760043560005260036020526102316040600020928280601286015416911614611233565b6002600e8301926000845494610248861515611270565b5501546040805193845291166001600160a01b0316602083015290f35b34610170576000366003190112610170576001546040516001600160a01b039091168152602090f35b34610170576020366003190112610170576004356000526003602052604060002080808060ff81808080808080808080600f600e600d600c600b600a60096008600760066005600460038d549d60018101546101205260018060a01b0360028201541660805201549d01549d01549d01549d01549d01549d01549d01549d01549d01549e01549e01549e01549e601081015460e05260018060a01b0360118201541661010052601260018060a01b039101541660c0526040518060a05252610360602060a051018b6101205116610f7e565b60018060a01b036101205160081c16604060a0510152608051606060a0510152608060a051015260a08051015260c060a051015260e060a051015261010060a051015261012060a051015261014060a051015261016060a051015261ffff811661018060a051015260101c166101a060a05101526101c060a05101526101e060a051015261020060a051015261022060a051015260e05161024060a05101526101005161026060a051015260c05161028060a05101526102a060a051f35b3461017057604036600319011261017057610437610f4a565b6005546001600160a01b03908116330361017057600435600052600360205261046f60406000209282806011860154169116146112af565b6001600f830192600084549461014b861515611270565b346101705760403660031901126101705761049f610f4a565b6005546001600160a01b0390811633036101705760043560005260036020526104d760406000209282806011860154169116146112af565b6002600d8301926000845494610248861515611270565b34610170576000366003190112610170576000546040516001600160a01b039091168152602090f35b34610170576000366003190112610170576020604051620151808152f35b34610170576000366003190112610170576001546001600160a01b0333818316036105a1576001600160601b0360a01b8092166001556000549133908316176000553391167f8be0079c531659141344cd1fd0a4f28419497f9722a3daafe3b4186f6b6457e0600080a3005b60405162461bcd60e51b815260206004820152602960248201527f4f776e61626c6532537465703a2063616c6c6572206973206e6f7420746865206044820152683732bb9037bbb732b960b91b6064820152608490fd5b346101705760203660031901126101705760043561ffff811681036101705761061f610f8b565b6005805461ffff60a01b191660a09290921b61ffff60a01b16919091179055005b3461017057600036600319011261017057610659610f8b565b600180546001600160a01b0319908116909155600080549182168155906001600160a01b03167f8be0079c531659141344cd1fd0a4f28419497f9722a3daafe3b4186f6b6457e08280a3005b346101705760203660031901126101705760006102806106c36110af565b8281528260208201528260408201528260608201528260808201528260a08201528260c08201528260e08201528261010082015282610120820152826101408201528261016082015282610180820152826101a0820152826101c0820152826101e082015282610200820152826102208201528261024082015282610260820152015260043560005260036020526102a061076160406000206110d0565b604051908051825261077b60208201516020840190610f7e565b60018060a01b03604082015116604083015260018060a01b0360608201511660608301526080810151608083015260a081015160a083015260c081015160c083015260e081015160e083015261010081015161010083015261012081015161012083015261014081015161014083015261016081015161016083015261ffff6101808201511661018083015260ff6101a0820151166101a08301526101c08101516101c08301526101e08101516101e083015261020081015161020083015261022081015161022083015261024081015161024083015260018060a01b036102608201511661026083015261028060018060a01b0391015116610280820152f35b346101705761088a36610f60565b6005549293929091906001600160a01b0316330361017057826000526003602052604060002090600182019081549060ff821660048110156109d4576108d090156111e4565b61ffff600b850154166201518090808202918204036109be576108f790600a8601546111d7565b4211610982576109629661095c95600a9261091760048801938454611226565b80935561092960068801918254611226565b9182825561093c600e89019182546111d7565b905581610972575b5050116109645750805460ff191660031790556110d0565b906112ee565b005b60ff191660021790556110d0565b600091600d880155558880610944565b60405162461bcd60e51b815260206004820152601460248201527311549497d313d05397d393d517d350551554915160621b6044820152606490fd5b634e487b7160e01b600052601160045260246000fd5b634e487b7160e01b600052602160045260246000fd5b346101705761018036600319011261017057602435600281101561017057604435906001600160a01b0382168203610170576064356001600160a01b0381168103610170576101043561ffff81168091036101705761014435906001600160a01b03821682036101705761016435926001600160a01b0384168403610170576005546001600160a01b03163303610170576002805460010190819055946001600160a01b0385811690851614610d8757610d5c57600435610ab4610aae85836113f0565b15610fe3565b6000526004602052610aca836040600020611054565b6201518091808302928304036109be57610ae761ffff92426111d7565b60055491610af36110af565b976004358952600060208a015260018060a01b0316604089015260018060a01b03166060880152608435608088015260843560a088015260a4358060c089015260e088015260c43561010088015260e4356101208801524261014088015261016087015260a01c1661018085015260006101a085015260006101c085015260006101e0850152600061020085015261012435610220850152600061024085015260018060a01b031661026084015260018060a01b031661028083015280600052600360205260406000209180518355602081015160048110156109d4578360129160016020960190815460ff610100600160a81b03604088015160081b169216906affffffffffffffffffffff60a81b161717905560018060a01b036060840151166001600160601b0360a01b6002830154161760028201556080830151600382015560a0830151600482015560c0830151600582015560e08301516006820155610100830151600782015561012083015160088201556101408301516009820155610160830151600a820155610cbb600b820161ffff6101808601511661ffff1982541617815560ff6101a08601511662ff000082549160101b169062ff00001916179055565b6101c0830151600c8201556101e0830151600d820155610200830151600e820155610220830151600f82015561024083015160108201556011810160018060a01b03610260850151166001600160601b0360a01b825416179055019061028060018060a01b03910151166001600160601b0360a01b8254161790558060005260038252610d54610d4e60406000206110d0565b826112ee565b604051908152f35b600435610d6c610aae86836113f0565b6000526004602052610d82846040600020611054565b610aca565b60405162461bcd60e51b815260206004820152601360248201527222a9292fa1a0a72a2fa127a92927abafa7aba760691b6044820152606490fd5b34610170576000366003190112610170576020604051610e108152f35b3461017057610ded36610f60565b6005549093919291906001600160a01b0316330361017057806000526003602052604060002092600184019360ff85541660048110156109d457610e3190156111e4565b600b810191600160ff845460101c16019060ff82116109be5760ff97610ec396610e73600a9461095c979062ff000082549160101b169062ff00001916179055565b610e82600c86019182546111d7565b9055600d8401610e938282546111d7565b9055610ea460048501928354611226565b809255610eb660068501918254611226565b90551115610edc576110d0565b541660048110156109d457602090600160405191148152f35b600186198654161785554260108201556110d0565b3461017057602036600319011261017057610f0a610f34565b610f12610f8b565b600580546001600160a01b0319166001600160a01b0392909216919091179055005b600435906001600160a01b038216820361017057565b602435906001600160a01b038216820361017057565b60809060031901126101705760043590602435906044359060643590565b9060048210156109d45752565b6000546001600160a01b03163303610f9f57565b606460405162461bcd60e51b815260206004820152602060248201527f4f776e61626c653a2063616c6c6572206973206e6f7420746865206f776e65726044820152fd5b15610fea57565b60405162461bcd60e51b815260206004820152601460248201527311549497d053149150511657d093d49493d5d15160621b6044820152606490fd5b805482101561103e5760005260206000200190600090565b634e487b7160e01b600052603260045260246000fd5b8054680100000000000000008110156110995761107691600182018155611026565b819291549060031b9160018060a01b039283811b93849216901b16911916179055565b634e487b7160e01b600052604160045260246000fd5b604051906102a0820182811067ffffffffffffffff82111761109957604052565b906110d96110af565b918054835260018101549060ff82169060048210156109d457601291602086015260018060a01b03809360081c16604086015282600282015416606086015260038101546080860152600481015460a0860152600581015460c0860152600681015460e0860152600781015461010086015260088101546101208601526009810154610140860152600a81015461016086015260ff600b82015461ffff811661018088015260101c166101a0860152600c8101546101c0860152600d8101546101e0860152600e810154610200860152600f810154610220860152601081015461024086015282601182015416610260860152015416610280830152565b919082018092116109be57565b156111eb57565b60405162461bcd60e51b81526020600482015260136024820152724552525f4c4f414e5f4e4f545f41435449564560681b6044820152606490fd5b919082039182116109be57565b1561123a57565b60405162461bcd60e51b815260206004820152600e60248201526d22a9292fa727aa2fa622a72222a960911b6044820152606490fd5b1561127757565b60405162461bcd60e51b815260206004820152601060248201526f4552525f5a45524f5f42414c414e434560801b6044820152606490fd5b156112b657565b60405162461bcd60e51b815260206004820152601060248201526f22a9292fa727aa2fa127a92927aba2a960811b6044820152606490fd5b815191602081015160048110156109d4576040828101516060840151608085015160a086015160c087015160e08801516101208901516101408a01516101608b01516101808c01516102608d0151610280909d01518b519e8f5260208f019f909f529c9d6001600160a01b039081169d9c81169c61ffff169b919a92999398949795969594811693169161138591908f0190610f7e565b60608d015260808c015260a08b015260c08a015260e08901526101008801526101208701526101408601526101608501526101808401526101a08301526101c08201526101e07f1b94239d4d6b6892c4b24e380f7225897bf6df2f2c7398b28e57b275e8cd103f91a1565b919060005b8360005260046020526040806000205461ffff83161015611456578161141d91600020611026565b905460039190911b1c6001600160a01b039081169083161461144e5761ffff8091169081146109be576001016113f5565b506001925050565b5060009350505056fea264697066735822122038c0cdc3e76357a413fe868b436f1002ee2ef30777843f092c93c0c65d24df6464736f6c63430008110033",
  "immutableReferences": {},
  "source": "// SPDX-License-Identifier: GPL-3.0\r\npragma solidity >=0.7.0 <0.9.0;\r\n\r\nimport \"../libraries/LoanLibrary.sol\";\r\nimport \"../libraries/OfferLibrary.sol\";\r\n\r\nimport \"../interfaces/ILoanManager.sol\";\r\n\r\nimport \"@openzeppelin/contracts/utils/math/SafeMath.sol\";\r\nimport \"@openzeppelin/contracts/access/Ownable2Step.sol\";\r\nimport \"@openzeppelin/contracts/utils/Counters.sol\";\r\n\r\ncontract LoanManager is ILoanManager, Ownable2Step {\r\n    uint256 public constant ONE_DAY = 60 * 60 * 24;\r\n    uint256 public constant ONE_HOUR = 60 * 60;\r\n\r\n    using Counters for Counters.Counter;\r\n    using SafeMath for uint256;\r\n\r\n    Counters.Counter private loanIdTracker;\r\n    mapping(uint256 => LoanLibrary.Loan) public loans;\r\n\r\n    // offerId => wallet addresses\r\n    mapping(uint256 => address[]) private borrowers;\r\n\r\n    address lendingPool;\r\n    uint16 graceDays = 5;\r\n\r\n    constructor() Ownable2Step() {}\r\n\r\n    function createLoan(\r\n        uint256 offerId,\r\n        OfferLibrary.Type offerType,\r\n        address principalToken,\r\n        address collateralToken,\r\n        uint256 principalAmount,\r\n        uint256 collateralAmount,\r\n        uint256 collateralPriceInUSD,\r\n        uint256 interest,\r\n        uint16 daysToMaturity,\r\n        uint256 unClaimedLoanPrincipal,\r\n        address borrower,\r\n        address lender\r\n    ) public override onlyLendingPool returns (uint256) {\r\n        // avoid 0 id\r\n        loanIdTracker.increment();\r\n        uint256 loanId = loanIdTracker.current();\r\n\r\n        require(lender != borrower, \"ERR_CANT_BORROW_OWN\");\r\n\r\n        if (offerType == OfferLibrary.Type.LENDING_OFFER) {\r\n            require(\r\n                !_hasBorrowedFrom(offerId, borrower),\r\n                \"ERR_ALREADY_BORROWED\"\r\n            );\r\n            borrowers[offerId].push(borrower);\r\n        } else {\r\n            require(!_hasBorrowedFrom(offerId, lender), \"ERR_ALREADY_BORROWED\");\r\n            borrowers[offerId].push(lender);\r\n        }\r\n\r\n        uint256 startDate = block.timestamp;\r\n        uint256 duration = ONE_DAY.mul(daysToMaturity);\r\n        uint256 maturityDate = startDate.add(duration);\r\n\r\n        loans[loanId] = LoanLibrary.Loan(\r\n            offerId,\r\n            LoanLibrary.State.ACTIVE,\r\n            principalToken,\r\n            collateralToken,\r\n            principalAmount,\r\n            principalAmount,\r\n            collateralAmount,\r\n            collateralAmount,\r\n            collateralPriceInUSD,\r\n            interest,\r\n            startDate,\r\n            maturityDate,\r\n            graceDays,\r\n            0, // numInstallmentsPaid\r\n            0, // unclaimed principal\r\n            0, // unclaimed collateral\r\n            0, // unclaimed default collateral\r\n            unClaimedLoanPrincipal,\r\n            0, // repaidOn\r\n            borrower,\r\n            lender\r\n        );\r\n\r\n        _emit(loanId, loans[loanId]);\r\n        return loanId;\r\n    }\r\n\r\n    function getLoan(uint256 loanId)\r\n        public\r\n        view\r\n        override\r\n        returns (LoanLibrary.Loan memory)\r\n    {\r\n        return loans[loanId];\r\n    }\r\n\r\n    function repayLoan(\r\n        uint256 loanId,\r\n        uint256 interestPaid,\r\n        uint256 principalPaid,\r\n        uint256 collateralRetrieved\r\n    ) public override onlyLendingPool returns (bool) {\r\n        LoanLibrary.Loan storage loan = loans[loanId];\r\n        require(loan.state == LoanLibrary.State.ACTIVE, \"ERR_LOAN_NOT_ACTIVE\");\r\n\r\n        loan.numInstallmentsPaid += 1;\r\n        loan.unClaimedPrincipal += interestPaid;\r\n        loan.unClaimedCollateral += collateralRetrieved;\r\n        loan.currentPrincipal -= principalPaid;\r\n        loan.currentCollateral -= collateralRetrieved;\r\n\r\n        if (loan.currentPrincipal <= 10) {\r\n            loan.state = LoanLibrary.State.REPAID;\r\n            loan.repaidOn = block.timestamp;\r\n        }\r\n\r\n        _emit(loanId, loan);\r\n        return loan.state == LoanLibrary.State.REPAID;\r\n    }\r\n\r\n    function claimPrincipal(uint256 loanId, address user)\r\n        public\r\n        override\r\n        onlyLendingPool\r\n        returns (uint256, address)\r\n    {\r\n        LoanLibrary.Loan storage loan = loans[loanId];\r\n        require(loan.lender == user, \"ERR_NOT_LENDER\");\r\n        require(loan.unClaimedPrincipal > 0, \"ERR_ZERO_BALANCE\");\r\n        uint256 amount = loan.unClaimedPrincipal;\r\n        loan.unClaimedPrincipal = 0;\r\n        return (amount, loan.principalToken);\r\n    }\r\n\r\n    function claimDefaultCollateral(uint256 loanId, address user)\r\n        public\r\n        override\r\n        onlyLendingPool\r\n        returns (uint256, address)\r\n    {\r\n        LoanLibrary.Loan storage loan = loans[loanId];\r\n        require(loan.lender == user, \"ERR_NOT_LENDER\");\r\n        require(loan.unClaimedDefaultCollateral > 0, \"ERR_ZERO_BALANCE\");\r\n        uint256 amount = loan.unClaimedDefaultCollateral;\r\n        loan.unClaimedDefaultCollateral = 0;\r\n        return (amount, loan.collateralToken);\r\n    }\r\n\r\n    function claimCollateral(uint256 loanId, address user)\r\n        public\r\n        override\r\n        onlyLendingPool\r\n        returns (uint256, address)\r\n    {\r\n        LoanLibrary.Loan storage loan = loans[loanId];\r\n        require(loan.borrower == user, \"ERR_NOT_BORROWER\");\r\n        require(loan.unClaimedCollateral > 0, \"ERR_ZERO_BALANCE\");\r\n        uint256 amount = loan.unClaimedCollateral;\r\n        loan.unClaimedCollateral = 0;\r\n        return (amount, loan.collateralToken);\r\n    }\r\n\r\n    function claimLoanPrincipal(uint256 loanId, address user)\r\n        public\r\n        override\r\n        onlyLendingPool\r\n        returns (uint256, address)\r\n    {\r\n        LoanLibrary.Loan storage loan = loans[loanId];\r\n        require(loan.borrower == user, \"ERR_NOT_BORROWER\");\r\n        require(loan.unClaimedLoanPrincipal > 0, \"ERR_ZERO_BALANCE\");\r\n        uint256 amount = loan.unClaimedLoanPrincipal;\r\n        loan.unClaimedLoanPrincipal = 0;\r\n        return (amount, loan.principalToken);\r\n    }\r\n\r\n    function liquidateLoan(\r\n        uint256 loanId,\r\n        uint256 principalPaid,\r\n        uint256 collateralRetrieved,\r\n        uint256 collateralPaid\r\n    ) public override onlyLendingPool {\r\n        LoanLibrary.Loan storage loan = loans[loanId];\r\n        require(loan.state == LoanLibrary.State.ACTIVE, \"ERR_LOAN_NOT_ACTIVE\");\r\n\r\n        uint256 graceDate = ONE_DAY.mul(loan.graceDays);\r\n        uint256 defaultDate = loan.maturityDate.add(graceDate);\r\n        uint256 currentDate = block.timestamp;\r\n\r\n        require(defaultDate >= currentDate, \"ERR_LOAN_NOT_MATURED\");\r\n\r\n        loan.currentPrincipal -= principalPaid;\r\n        loan.currentCollateral -= collateralRetrieved;\r\n        loan.unClaimedDefaultCollateral += collateralPaid;\r\n\r\n        if (loan.currentCollateral > 0) {\r\n            loan.unClaimedCollateral = loan.currentCollateral;\r\n            loan.currentCollateral = 0;\r\n        }\r\n\r\n        if (loan.currentPrincipal <= 10) {\r\n            loan.state = LoanLibrary.State.REPAID_DEFAULTED;\r\n        } else {\r\n            loan.state = LoanLibrary.State.ACTIVE_DEFAULTED;\r\n        }\r\n\r\n        _emit(loanId, loan);\r\n    }\r\n\r\n    function _emit(uint256 loanId, LoanLibrary.Loan memory loan) private {\r\n        emit LoanLibrary.LoanCreated(\r\n            loanId,\r\n            loan.offerId,\r\n            loan.state,\r\n            loan.principalToken,\r\n            loan.collateralToken,\r\n            loan.initialPrincipal,\r\n            loan.currentPrincipal,\r\n            loan.initialCollateral,\r\n            loan.currentCollateral,\r\n            loan.interest,\r\n            loan.startDate,\r\n            loan.maturityDate,\r\n            loan.graceDays,\r\n            loan.borrower,\r\n            loan.lender\r\n        );\r\n    }\r\n\r\n    function _hasBorrowedFrom(uint256 offerId, address user)\r\n        private\r\n        view\r\n        returns (bool)\r\n    {\r\n        for (uint16 index = 0; index < borrowers[offerId].length; index++) {\r\n            if (borrowers[offerId][index] == user) {\r\n                return true;\r\n            }\r\n        }\r\n        return false;\r\n    }\r\n\r\n    function setGraceDays(uint16 days_) public onlyOwner {\r\n        graceDays = days_;\r\n    }\r\n\r\n    function setLendingPool(address address_) public onlyOwner {\r\n        lendingPool = address_;\r\n    }\r\n\r\n    modifier onlyLendingPool() {\r\n        require(msg.sender == lendingPool);\r\n        _;\r\n    }\r\n}\r\n",
  "sourcePath": "C:\\Users\\DELL\\Documents\\darsh\\smart-contracts\\contracts\\managers\\LoanManager.sol",
  "compiler": {
    "name": "solc",
    "version": "0.8.17+commit.8df45f5f.Emscripten.clang"
  },
  "schemaVersion": "3.4.11",
  "updatedAt": "2023-02-21T15:06:15.835Z",
  "devdoc": {
    "kind": "dev",
    "methods": {
      "acceptOwnership()": {
        "details": "The new owner accepts the ownership transfer."
      },
      "owner()": {
        "details": "Returns the address of the current owner."
      },
      "pendingOwner()": {
        "details": "Returns the address of the pending owner."
      },
      "renounceOwnership()": {
        "details": "Leaves the contract without owner. It will not be possible to call `onlyOwner` functions anymore. Can only be called by the current owner. NOTE: Renouncing ownership will leave the contract without an owner, thereby removing any functionality that is only available to the owner."
      },
      "transferOwnership(address)": {
        "details": "Starts the ownership transfer of the contract to a new account. Replaces the pending transfer if there is one. Can only be called by the current owner."
      }
    },
    "version": 1
  },
  "userdoc": {
    "kind": "user",
    "methods": {},
    "version": 1
  }
}