{
  "contractName": "LoanManager",
  "abi": [
    {
      "inputs": [],
      "stateMutability": "nonpayable",
      "type": "constructor"
    },
    {
      "anonymous": false,
      "inputs": [
        {
          "indexed": false,
          "internalType": "uint256",
          "name": "loanId",
          "type": "uint256"
        },
        {
          "indexed": false,
          "internalType": "uint160",
          "name": "offerId",
          "type": "uint160"
        },
        {
          "indexed": false,
          "internalType": "enum LoanLibrary.State",
          "name": "state",
          "type": "uint8"
        },
        {
          "indexed": false,
          "internalType": "address",
          "name": "principalToken",
          "type": "address"
        },
        {
          "indexed": false,
          "internalType": "address",
          "name": "collateralToken",
          "type": "address"
        },
        {
          "indexed": false,
          "internalType": "uint256",
          "name": "initialPrincipal",
          "type": "uint256"
        },
        {
          "indexed": false,
          "internalType": "uint256",
          "name": "currentPrincipal",
          "type": "uint256"
        },
        {
          "indexed": false,
          "internalType": "uint256",
          "name": "initialCollateral",
          "type": "uint256"
        },
        {
          "indexed": false,
          "internalType": "uint256",
          "name": "currentCollateral",
          "type": "uint256"
        },
        {
          "indexed": false,
          "internalType": "uint256",
          "name": "interest",
          "type": "uint256"
        },
        {
          "indexed": false,
          "internalType": "uint160",
          "name": "startDate",
          "type": "uint160"
        },
        {
          "indexed": false,
          "internalType": "uint160",
          "name": "maturityDate",
          "type": "uint160"
        },
        {
          "indexed": false,
          "internalType": "uint16",
          "name": "graceDays",
          "type": "uint16"
        },
        {
          "indexed": false,
          "internalType": "address",
          "name": "borrower",
          "type": "address"
        },
        {
          "indexed": false,
          "internalType": "address",
          "name": "lender",
          "type": "address"
        }
      ],
      "name": "LoanCreated",
      "type": "event"
    },
    {
      "anonymous": false,
      "inputs": [
        {
          "indexed": true,
          "internalType": "address",
          "name": "previousOwner",
          "type": "address"
        },
        {
          "indexed": true,
          "internalType": "address",
          "name": "newOwner",
          "type": "address"
        }
      ],
      "name": "OwnershipTransferStarted",
      "type": "event"
    },
    {
      "anonymous": false,
      "inputs": [
        {
          "indexed": true,
          "internalType": "address",
          "name": "previousOwner",
          "type": "address"
        },
        {
          "indexed": true,
          "internalType": "address",
          "name": "newOwner",
          "type": "address"
        }
      ],
      "name": "OwnershipTransferred",
      "type": "event"
    },
    {
      "inputs": [],
      "name": "acceptOwnership",
      "outputs": [],
      "stateMutability": "nonpayable",
      "type": "function"
    },
    {
      "inputs": [],
      "name": "owner",
      "outputs": [
        {
          "internalType": "address",
          "name": "",
          "type": "address"
        }
      ],
      "stateMutability": "view",
      "type": "function"
    },
    {
      "inputs": [],
      "name": "pendingOwner",
      "outputs": [
        {
          "internalType": "address",
          "name": "",
          "type": "address"
        }
      ],
      "stateMutability": "view",
      "type": "function"
    },
    {
      "inputs": [],
      "name": "renounceOwnership",
      "outputs": [],
      "stateMutability": "nonpayable",
      "type": "function"
    },
    {
      "inputs": [
        {
          "internalType": "address",
          "name": "newOwner",
          "type": "address"
        }
      ],
      "name": "transferOwnership",
      "outputs": [],
      "stateMutability": "nonpayable",
      "type": "function"
    },
    {
      "inputs": [
        {
          "internalType": "uint160",
          "name": "offerId",
          "type": "uint160"
        },
        {
          "internalType": "enum OfferLibrary.Type",
          "name": "offerType",
          "type": "uint8"
        },
        {
          "internalType": "address",
          "name": "principalToken",
          "type": "address"
        },
        {
          "internalType": "address",
          "name": "collateralToken",
          "type": "address"
        },
        {
          "internalType": "uint256",
          "name": "principalAmount",
          "type": "uint256"
        },
        {
          "internalType": "uint256",
          "name": "collateralAmount",
          "type": "uint256"
        },
        {
          "internalType": "uint256",
          "name": "collateralPriceInUSD",
          "type": "uint256"
        },
        {
          "internalType": "uint256",
          "name": "interest",
          "type": "uint256"
        },
        {
          "internalType": "uint16",
          "name": "daysToMaturity",
          "type": "uint16"
        },
        {
          "internalType": "address",
          "name": "borrower",
          "type": "address"
        },
        {
          "internalType": "address",
          "name": "lender",
          "type": "address"
        }
      ],
      "name": "createLoan",
      "outputs": [
        {
          "internalType": "uint160",
          "name": "",
          "type": "uint160"
        }
      ],
      "stateMutability": "nonpayable",
      "type": "function"
    },
    {
      "inputs": [
        {
          "internalType": "uint160",
          "name": "loanId",
          "type": "uint160"
        }
      ],
      "name": "getLoan",
      "outputs": [
        {
          "components": [
            {
              "internalType": "uint160",
              "name": "offerId",
              "type": "uint160"
            },
            {
              "internalType": "enum LoanLibrary.State",
              "name": "state",
              "type": "uint8"
            },
            {
              "internalType": "address",
              "name": "principalToken",
              "type": "address"
            },
            {
              "internalType": "address",
              "name": "collateralToken",
              "type": "address"
            },
            {
              "internalType": "uint256",
              "name": "initialPrincipal",
              "type": "uint256"
            },
            {
              "internalType": "uint256",
              "name": "currentPrincipal",
              "type": "uint256"
            },
            {
              "internalType": "uint256",
              "name": "initialCollateral",
              "type": "uint256"
            },
            {
              "internalType": "uint256",
              "name": "currentCollateral",
              "type": "uint256"
            },
            {
              "internalType": "uint256",
              "name": "collateralPriceInUSD",
              "type": "uint256"
            },
            {
              "internalType": "uint256",
              "name": "interest",
              "type": "uint256"
            },
            {
              "internalType": "uint160",
              "name": "startDate",
              "type": "uint160"
            },
            {
              "internalType": "uint160",
              "name": "maturityDate",
              "type": "uint160"
            },
            {
              "internalType": "uint16",
              "name": "graceDays",
              "type": "uint16"
            },
            {
              "internalType": "uint8",
              "name": "numInstallmentsPaid",
              "type": "uint8"
            },
            {
              "internalType": "uint256",
              "name": "unClaimedPrincipal",
              "type": "uint256"
            },
            {
              "internalType": "uint256",
              "name": "unClaimedCollateral",
              "type": "uint256"
            },
            {
              "internalType": "address",
              "name": "borrower",
              "type": "address"
            },
            {
              "internalType": "address",
              "name": "lender",
              "type": "address"
            }
          ],
          "internalType": "struct LoanLibrary.Loan",
          "name": "",
          "type": "tuple"
        }
      ],
      "stateMutability": "view",
      "type": "function"
    },
    {
      "inputs": [
        {
          "internalType": "uint160",
          "name": "loanId",
          "type": "uint160"
        },
        {
          "internalType": "uint256",
          "name": "interestPaid",
          "type": "uint256"
        },
        {
          "internalType": "uint256",
          "name": "principalPaid",
          "type": "uint256"
        },
        {
          "internalType": "uint256",
          "name": "collateralRetrieved",
          "type": "uint256"
        }
      ],
      "name": "repayLoan",
      "outputs": [
        {
          "internalType": "bool",
          "name": "",
          "type": "bool"
        }
      ],
      "stateMutability": "nonpayable",
      "type": "function"
    },
    {
      "inputs": [
        {
          "internalType": "uint160",
          "name": "loanId",
          "type": "uint160"
        }
      ],
      "name": "claimPrincipal",
      "outputs": [],
      "stateMutability": "nonpayable",
      "type": "function"
    },
    {
      "inputs": [
        {
          "internalType": "uint160",
          "name": "loanId",
          "type": "uint160"
        }
      ],
      "name": "claimCollateral",
      "outputs": [],
      "stateMutability": "nonpayable",
      "type": "function"
    },
    {
      "inputs": [
        {
          "internalType": "uint160",
          "name": "loanId",
          "type": "uint160"
        }
      ],
      "name": "liquidateLoan",
      "outputs": [
        {
          "internalType": "bool",
          "name": "",
          "type": "bool"
        }
      ],
      "stateMutability": "nonpayable",
      "type": "function"
    },
    {
      "inputs": [
        {
          "internalType": "uint16",
          "name": "days_",
          "type": "uint16"
        }
      ],
      "name": "setGraceDays",
      "outputs": [],
      "stateMutability": "nonpayable",
      "type": "function"
    },
    {
      "inputs": [
        {
          "internalType": "address",
          "name": "address_",
          "type": "address"
        }
      ],
      "name": "setLendingPool",
      "outputs": [],
      "stateMutability": "nonpayable",
      "type": "function"
    }
  ],
  "bytecode": "0x6080806040523461007757600180546001600160a01b03199081169091556000805433928116831782556001600160a01b0316907f8be0079c531659141344cd1fd0a4f28419497f9722a3daafe3b4186f6b6457e09080a36005805461ffff60a01b1916600560a01b179055610f86908161007d8239f35b600080fdfe6080604052600436101561001257600080fd5b60003560e01c806301ad01a614610a3c578063058711b5146108b9578063113aa8b11461087657806315ae61b51461082a57806346212c29146106ff578063541a4530146106b0578063715018a61461064b57806378fe76ec1461060357806379ba5097146105405780638da5cb5b14610517578063cccffc4214610144578063e30c39781461011b5763f2fde38b146100ab57600080fd5b34610116576020366003190112610116576100c4610abd565b6100cc610ae0565b60018060a01b0380911690816001600160601b0360a01b6001541617600155600054167f38d16b8cac22d99fc7c124b9cd0de2d3fa1faef420bfe791d8c362d765e22700600080a3005b600080fd5b34610116576000366003190112610116576001546040516001600160a01b039091168152602090f35b34610116576101603660031901126101165761015e610abd565b6024356002811015610116576044356001600160a01b03811690819003610116576064356001600160a01b038116919082900361011657610104359161ffff83168093036101165761012435916001600160a01b03831683036101165761014435936001600160a01b0385168503610116576005546001600160a01b031633036101165762015180906001600254019687600255156000146104e65761020d610207868a610ede565b15610b38565b60018060a01b038816600052600460205261022c856040600020610ba9565b0262ffffff81169081036104d0576001600160a01b034281168201116104d05761ffff926005549261025c610c04565b9860018060a01b03168952600060208a01526040890152606088015260843580608089015260a088015260a4358060c089015260e088015260c43561010088015260e43561012088015260018060a01b03421661014088015260018060a01b039060018060a01b034216011661016087015260a01c1661018085015260006101a085015260006101c085015260006101e085015260018060a01b031661020084015260018060a01b031661022083015280600052600360205260406000209160018060a01b038151169280549060208301519160038310156104ba576001600160a81b03191690941760a091821b60ff60a01b1617845560408201516001850180546001600160a01b03199081166001600160a01b0393841617909155606084015160028701805483169184169190911790556080840151600387015583830151600487015560c0840151600587015560e0840151600687015561010084015160078701556101208401516008870155610140840151600987018054909216908316179055610160830151600a860180546101808601516101a08701516001600160b81b031990921693909416929092179290931b61ffff60a01b169190911760b09190911b60ff60b01b16179055602092600e906101c0830151600b8201556101e0830151600c820155600d810160018060a01b03610200850151166001600160601b0360a01b825416179055019061022060018060a01b03910151166001600160601b0360a01b82541617905560018060a01b03811690600052600382526104b26104ac6040600020610c25565b82610dae565b604051908152f35b634e487b7160e01b600052602160045260246000fd5b634e487b7160e01b600052601160045260246000fd5b6104f3610207878a610ede565b60018060a01b0388166000526004602052610512866040600020610ba9565b61022c565b34610116576000366003190112610116576000546040516001600160a01b039091168152602090f35b34610116576000366003190112610116576001546001600160a01b0333818316036105ac576001600160601b0360a01b8092166001556000549133908316176000553391167f8be0079c531659141344cd1fd0a4f28419497f9722a3daafe3b4186f6b6457e0600080a3005b60405162461bcd60e51b815260206004820152602960248201527f4f776e61626c6532537465703a2063616c6c6572206973206e6f7420746865206044820152683732bb9037bbb732b960b91b6064820152608490fd5b346101165760203660031901126101165760043561ffff811681036101165761062a610ae0565b6005805461ffff60a01b191660a09290921b61ffff60a01b16919091179055005b3461011657600036600319011261011657610664610ae0565b600180546001600160a01b0319908116909155600080549182168155906001600160a01b03167f8be0079c531659141344cd1fd0a4f28419497f9722a3daafe3b4186f6b6457e08280a3005b34610116576020366003190112610116576106c9610abd565b6005546001600160a01b03919082163303610116571660005260036020526000600c60408220016106fc81541515610d6f565b55005b3461011657608036600319011261011657610718610abd565b60055460643591906001600160a01b039081163303610116578116600052600360205260406000209060ff825460a01c1660038110156104ba5761075c9015610d13565b600a820190600160ff835460b01c160160ff81116104d057825460ff60b01b191660b09190911b60ff60b01b161790915560ff926107f89190600190600b85016107a96024358254610d55565b9055600c85016107ba828254610d55565b905560048501906107ce6044358354610d62565b8092556107e060068701918254610d62565b90551115610814575b6107f283610c25565b90610dae565b5460a01c1660038110156104ba57602090600160405191148152f35b825460a085901b1916600160a01b1783556107e9565b3461011657602036600319011261011657610843610abd565b6005546001600160a01b03919082163303610116571660005260036020526000600b60408220016106fc81541515610d6f565b346101165760203660031901126101165761088f610abd565b610897610ae0565b600580546001600160a01b0319166001600160a01b0392909216919091179055005b34610116576020366003190112610116576102406108d5610abd565b60006108df610c04565b918183528160208401528160408401528160608401528160808401528160a08401528160c08401528160e084015261010092828482015261012083818301526101408481840152610160858185015261018086818601526101a087818701526101c09188838801526101e0938985890152610200958a878a01526102209a8b809a015260018060a01b03809a1660005260036020526109816040600020610c25565b97604051809d8c8b5116825261099f60208c01516020840190610ad3565b8c60408c01511660408301528c60608c015116606083015260808b0151608083015260a08b015160a083015260c08b015160c083015260e08b015160e0830152808b015191015280890151908d0152898189015116908c0152888188015116908b015261ffff8187015116908a015260ff818601511690890152808401519088015280830151908701528381830151169086015201511690820152f35b3461011657602036600319011261011657610a55610abd565b6005546001600160a01b039081163303610116578116600052600360205260406000209081549160ff8360a01c169060038210156104ba57610ab293610a9e6107f29315610d13565b60ff60a01b1916600160a11b178155610c25565b602060405160018152f35b600435906001600160a01b038216820361011657565b9060038210156104ba5752565b6000546001600160a01b03163303610af457565b606460405162461bcd60e51b815260206004820152602060248201527f4f776e61626c653a2063616c6c6572206973206e6f7420746865206f776e65726044820152fd5b15610b3f57565b60405162461bcd60e51b815260206004820152601460248201527311549497d053149150511657d093d49493d5d15160621b6044820152606490fd5b8054821015610b935760005260206000200190600090565b634e487b7160e01b600052603260045260246000fd5b805468010000000000000000811015610bee57610bcb91600182018155610b7b565b819291549060031b9160018060a01b039283811b93849216901b16911916179055565b634e487b7160e01b600052604160045260246000fd5b60405190610240820182811067ffffffffffffffff821117610bee57604052565b90610c2e610c04565b82546001600160a01b038082168352919360a09190911c60ff169060038210156104ba57600e91602086015282600182015416604086015282600282015416606086015260038101546080860152600481015460a0860152600581015460c0860152600681015460e0860152600781015461010086015260088101546101208601528260098201541661014086015260ff600a82015484811661016088015261ffff8160a01c1661018088015260b01c166101a0860152600b8101546101c0860152600c8101546101e086015282600d82015416610200860152015416610220830152565b15610d1a57565b60405162461bcd60e51b81526020600482015260136024820152724552525f4c4f414e5f4e4f545f41435449564560681b6044820152606490fd5b919082018092116104d057565b919082039182116104d057565b15610d7657565b60405162461bcd60e51b815260206004820152601060248201526f4552525f5a45524f5f42414c414e434560801b6044820152606490fd5b60018060a01b0382511691602081015160038110156104ba57600160a01b60019003604083015116600160a01b60019003606084015116608084015160a085015160c086015160e08701519161012088015193600160a01b600190036101408a01511695600160a01b600190036101608b015116976101808b015161ffff1699600160a01b600190036102008d0151169b600160a01b60019003906102200151169c6040519e8f91600160a01b600190031682526020820152604001610e7391610ad3565b60608d015260808c015260a08b015260c08a015260e08901526101008801526101208701526101408601526101608501526101808401526101a08301526101c08201526101e07fa34523190a02b26bbfebcea155fd619d6194dbc8597f7d2292a65b6b7f6e952791a1565b91909160005b6001600160a01b03828116600090815260046020526040908190205461ffff84161015610f465782610f1891600020610b7b565b9190548187169260031b1c1614610f3e5761ffff8091169081146104d057600101610ee4565b506001925050565b506000945050505056fea2646970667358221220d39ac9538b0012fc1d00c5569ce82a0c0e762ea73214c49e503793a597ca509864736f6c63430008110033",
  "immutableReferences": {},
  "source": "// SPDX-License-Identifier: GPL-3.0\r\npragma solidity >=0.7.0 <0.9.0;\r\n\r\nimport \"../libraries/PoolLibrary.sol\";\r\nimport \"../libraries/LoanLibrary.sol\";\r\nimport \"../libraries/OfferLibrary.sol\";\r\n\r\nimport \"../interfaces/ILoanManager.sol\";\r\n\r\nimport \"@openzeppelin/contracts/access/Ownable2Step.sol\";\r\nimport \"@openzeppelin/contracts/utils/Counters.sol\";\r\n\r\ncontract LoanManager is ILoanManager, Ownable2Step {\r\n    using Counters for Counters.Counter;\r\n\r\n    Counters.Counter private loanIdTracker;\r\n    mapping(uint256 => LoanLibrary.Loan) private loans;\r\n\r\n    // offerId => wallet addresses\r\n    mapping(uint160 => address[]) private borrowers;\r\n\r\n    address lendingPool;\r\n    uint16 graceDays = 5;\r\n\r\n    event LoanCreated(\r\n        uint256 loanId,\r\n        uint160 offerId,\r\n        LoanLibrary.State state,\r\n        address principalToken,\r\n        address collateralToken,\r\n        uint256 initialPrincipal,\r\n        uint256 currentPrincipal,\r\n        uint256 initialCollateral,\r\n        uint256 currentCollateral,\r\n        uint256 interest,\r\n        uint160 startDate,\r\n        uint160 maturityDate,\r\n        uint16 graceDays,\r\n        address borrower,\r\n        address lender\r\n    );\r\n\r\n    constructor() Ownable2Step() {}\r\n\r\n    function createLoan(\r\n        uint160 offerId,\r\n        OfferLibrary.Type offerType,\r\n        address principalToken,\r\n        address collateralToken,\r\n        uint256 principalAmount,\r\n        uint256 collateralAmount,\r\n        uint256 collateralPriceInUSD,\r\n        uint256 interest,\r\n        uint16 daysToMaturity,\r\n        address borrower,\r\n        address lender\r\n    ) public onlyLendingPool returns (uint160) {\r\n        // avoid 0 id\r\n        loanIdTracker.increment();\r\n        uint256 loanId = loanIdTracker.current();\r\n\r\n        if (offerType == OfferLibrary.Type.LENDING_OFFER) {\r\n            require(\r\n                !_hasBorrowedFrom(offerId, borrower),\r\n                \"ERR_ALREADY_BORROWED\"\r\n            );\r\n            borrowers[offerId].push(borrower);\r\n        } else {\r\n            require(!_hasBorrowedFrom(offerId, lender), \"ERR_ALREADY_BORROWED\");\r\n            borrowers[offerId].push(lender);\r\n        }\r\n\r\n        uint160 startDate = uint160(block.timestamp);\r\n        uint160 duration = uint160((daysToMaturity * 1 days));\r\n        uint160 maturityDate = startDate + duration;\r\n        uint8 numInstallmentsPaid = 0;\r\n\r\n        loans[loanId] = LoanLibrary.Loan(\r\n            offerId,\r\n            LoanLibrary.State.ACTIVE,\r\n            principalToken,\r\n            collateralToken,\r\n            principalAmount,\r\n            principalAmount,\r\n            collateralAmount,\r\n            collateralAmount,\r\n            collateralPriceInUSD,\r\n            interest,\r\n            startDate,\r\n            maturityDate,\r\n            graceDays,\r\n            numInstallmentsPaid,\r\n            0, // unclaimed principal\r\n            0, // unclaimed collateral\r\n            borrower,\r\n            lender\r\n        );\r\n\r\n        _emit(uint160(loanId), loans[loanId]);\r\n        return uint160(loanId);\r\n    }\r\n\r\n    function getLoan(uint160 loanId)\r\n        public\r\n        view\r\n        override\r\n        returns (LoanLibrary.Loan memory)\r\n    {\r\n        return loans[loanId];\r\n    }\r\n\r\n    function repayLoan(\r\n        uint160 loanId,\r\n        uint256 interestPaid,\r\n        uint256 principalPaid,\r\n        uint256 collateralRetrieved\r\n    ) public override onlyLendingPool returns (bool) {\r\n        LoanLibrary.Loan storage loan = loans[loanId];\r\n        require(loan.state == LoanLibrary.State.ACTIVE, \"ERR_LOAN_NOT_ACTIVE\");\r\n\r\n        loan.numInstallmentsPaid += 1;\r\n        loan.unClaimedPrincipal += interestPaid;\r\n        loan.unClaimedCollateral += collateralRetrieved;\r\n        loan.currentPrincipal -= principalPaid;\r\n        loan.currentCollateral -= collateralRetrieved;\r\n\r\n        if (loan.currentPrincipal <= 1) {\r\n            loan.state = LoanLibrary.State.PAID;\r\n        }\r\n\r\n        _emit(loanId, loan);\r\n        return loan.state == LoanLibrary.State.PAID;\r\n    }\r\n\r\n    function claimPrincipal(uint160 loanId) public override onlyLendingPool {\r\n        LoanLibrary.Loan storage loan = loans[loanId];\r\n        require(loan.unClaimedPrincipal > 0, \"ERR_ZERO_BALANCE\");\r\n        loan.unClaimedPrincipal = 0;\r\n    }\r\n\r\n    function claimCollateral(uint160 loanId) public override onlyLendingPool {\r\n        LoanLibrary.Loan storage loan = loans[loanId];\r\n        require(loan.unClaimedCollateral > 0, \"ERR_ZERO_BALANCE\");\r\n        loan.unClaimedCollateral = 0;\r\n    }\r\n\r\n    function liquidateLoan(uint160 loanId)\r\n        public\r\n        override\r\n        onlyLendingPool\r\n        returns (bool)\r\n    {\r\n        LoanLibrary.Loan storage loan = loans[loanId];\r\n        require(loan.state == LoanLibrary.State.ACTIVE, \"ERR_LOAN_NOT_ACTIVE\");\r\n\r\n        loan.state = LoanLibrary.State.LIQUIDATED;\r\n\r\n        _emit(loanId, loan);\r\n        return true;\r\n    }\r\n\r\n    function _emit(uint160 loanId, LoanLibrary.Loan memory loan) private {\r\n        emit LoanCreated(\r\n            loanId,\r\n            loan.offerId,\r\n            loan.state,\r\n            loan.principalToken,\r\n            loan.collateralToken,\r\n            loan.initialPrincipal,\r\n            loan.currentPrincipal,\r\n            loan.initialCollateral,\r\n            loan.currentCollateral,\r\n            loan.interest,\r\n            loan.startDate,\r\n            loan.maturityDate,\r\n            loan.graceDays,\r\n            loan.borrower,\r\n            loan.lender\r\n        );\r\n    }\r\n\r\n    function _hasBorrowedFrom(uint160 offerId, address user)\r\n        private\r\n        view\r\n        returns (bool)\r\n    {\r\n        for (uint16 index = 0; index < borrowers[offerId].length; index++) {\r\n            if (borrowers[offerId][index] == user) {\r\n                return true;\r\n            }\r\n        }\r\n        return false;\r\n    }\r\n\r\n    function setGraceDays(uint16 days_) public onlyOwner {\r\n        graceDays = days_;\r\n    }\r\n\r\n    function setLendingPool(address address_) public onlyOwner {\r\n        lendingPool = address_;\r\n    }\r\n\r\n    modifier onlyLendingPool() {\r\n        require(msg.sender == lendingPool);\r\n        _;\r\n    }\r\n}\r\n",
  "sourcePath": "C:\\Users\\DELL\\Documents\\darsh\\smart-contracts\\contracts\\managers\\LoanManager.sol",
  "compiler": {
    "name": "solc",
    "version": "0.8.17+commit.8df45f5f.Emscripten.clang"
  },
  "schemaVersion": "3.4.11",
  "updatedAt": "2023-02-15T14:27:47.941Z",
  "devdoc": {
    "kind": "dev",
    "methods": {
      "acceptOwnership()": {
        "details": "The new owner accepts the ownership transfer."
      },
      "owner()": {
        "details": "Returns the address of the current owner."
      },
      "pendingOwner()": {
        "details": "Returns the address of the pending owner."
      },
      "renounceOwnership()": {
        "details": "Leaves the contract without owner. It will not be possible to call `onlyOwner` functions anymore. Can only be called by the current owner. NOTE: Renouncing ownership will leave the contract without an owner, thereby removing any functionality that is only available to the owner."
      },
      "transferOwnership(address)": {
        "details": "Starts the ownership transfer of the contract to a new account. Replaces the pending transfer if there is one. Can only be called by the current owner."
      }
    },
    "version": 1
  },
  "userdoc": {
    "kind": "user",
    "methods": {},
    "version": 1
  }
}