{
  "contractName": "LoanManager",
  "abi": [
    {
      "inputs": [],
      "stateMutability": "nonpayable",
      "type": "constructor"
    },
    {
      "anonymous": false,
      "inputs": [
        {
          "indexed": true,
          "internalType": "address",
          "name": "previousOwner",
          "type": "address"
        },
        {
          "indexed": true,
          "internalType": "address",
          "name": "newOwner",
          "type": "address"
        }
      ],
      "name": "OwnershipTransferStarted",
      "type": "event"
    },
    {
      "anonymous": false,
      "inputs": [
        {
          "indexed": true,
          "internalType": "address",
          "name": "previousOwner",
          "type": "address"
        },
        {
          "indexed": true,
          "internalType": "address",
          "name": "newOwner",
          "type": "address"
        }
      ],
      "name": "OwnershipTransferred",
      "type": "event"
    },
    {
      "inputs": [],
      "name": "DUST_AMOUNT",
      "outputs": [
        {
          "internalType": "uint256",
          "name": "",
          "type": "uint256"
        }
      ],
      "stateMutability": "view",
      "type": "function"
    },
    {
      "inputs": [],
      "name": "ONE_DAY",
      "outputs": [
        {
          "internalType": "uint256",
          "name": "",
          "type": "uint256"
        }
      ],
      "stateMutability": "view",
      "type": "function"
    },
    {
      "inputs": [],
      "name": "ONE_HOUR",
      "outputs": [
        {
          "internalType": "uint256",
          "name": "",
          "type": "uint256"
        }
      ],
      "stateMutability": "view",
      "type": "function"
    },
    {
      "inputs": [],
      "name": "acceptOwnership",
      "outputs": [],
      "stateMutability": "nonpayable",
      "type": "function"
    },
    {
      "inputs": [
        {
          "internalType": "uint256",
          "name": "",
          "type": "uint256"
        }
      ],
      "name": "loans",
      "outputs": [
        {
          "internalType": "uint256",
          "name": "offerId",
          "type": "uint256"
        },
        {
          "internalType": "enum LoanLibrary.State",
          "name": "state",
          "type": "uint8"
        },
        {
          "internalType": "address",
          "name": "principalToken",
          "type": "address"
        },
        {
          "internalType": "address",
          "name": "collateralToken",
          "type": "address"
        },
        {
          "internalType": "uint256",
          "name": "initialPrincipal",
          "type": "uint256"
        },
        {
          "internalType": "uint256",
          "name": "currentPrincipal",
          "type": "uint256"
        },
        {
          "internalType": "uint256",
          "name": "initialCollateral",
          "type": "uint256"
        },
        {
          "internalType": "uint256",
          "name": "currentCollateral",
          "type": "uint256"
        },
        {
          "internalType": "uint256",
          "name": "collateralPriceInUSD",
          "type": "uint256"
        },
        {
          "internalType": "uint256",
          "name": "interestRate",
          "type": "uint256"
        },
        {
          "internalType": "uint256",
          "name": "startDate",
          "type": "uint256"
        },
        {
          "internalType": "uint256",
          "name": "maturityDate",
          "type": "uint256"
        },
        {
          "internalType": "uint16",
          "name": "graceDays",
          "type": "uint16"
        },
        {
          "internalType": "uint8",
          "name": "numInstallmentsPaid",
          "type": "uint8"
        },
        {
          "internalType": "uint256",
          "name": "unClaimedPrincipal",
          "type": "uint256"
        },
        {
          "internalType": "uint256",
          "name": "unClaimedCollateral",
          "type": "uint256"
        },
        {
          "internalType": "uint256",
          "name": "unClaimedDefaultCollateral",
          "type": "uint256"
        },
        {
          "internalType": "uint256",
          "name": "unClaimedBorrowedPrincipal",
          "type": "uint256"
        },
        {
          "internalType": "uint256",
          "name": "totalInterestPaid",
          "type": "uint256"
        },
        {
          "internalType": "uint256",
          "name": "repaidOn",
          "type": "uint256"
        },
        {
          "internalType": "address",
          "name": "borrower",
          "type": "address"
        },
        {
          "internalType": "address",
          "name": "lender",
          "type": "address"
        }
      ],
      "stateMutability": "view",
      "type": "function"
    },
    {
      "inputs": [],
      "name": "owner",
      "outputs": [
        {
          "internalType": "address",
          "name": "",
          "type": "address"
        }
      ],
      "stateMutability": "view",
      "type": "function"
    },
    {
      "inputs": [],
      "name": "pendingOwner",
      "outputs": [
        {
          "internalType": "address",
          "name": "",
          "type": "address"
        }
      ],
      "stateMutability": "view",
      "type": "function"
    },
    {
      "inputs": [],
      "name": "renounceOwnership",
      "outputs": [],
      "stateMutability": "nonpayable",
      "type": "function"
    },
    {
      "inputs": [
        {
          "internalType": "address",
          "name": "newOwner",
          "type": "address"
        }
      ],
      "name": "transferOwnership",
      "outputs": [],
      "stateMutability": "nonpayable",
      "type": "function"
    },
    {
      "inputs": [
        {
          "internalType": "uint256",
          "name": "offerId",
          "type": "uint256"
        },
        {
          "internalType": "enum OfferLibrary.Type",
          "name": "offerType",
          "type": "uint8"
        },
        {
          "internalType": "address",
          "name": "principalToken",
          "type": "address"
        },
        {
          "internalType": "address",
          "name": "collateralToken",
          "type": "address"
        },
        {
          "internalType": "uint256",
          "name": "principalAmount",
          "type": "uint256"
        },
        {
          "internalType": "uint256",
          "name": "collateralAmount",
          "type": "uint256"
        },
        {
          "internalType": "uint256",
          "name": "collateralPriceInUSD",
          "type": "uint256"
        },
        {
          "internalType": "uint256",
          "name": "interestRate",
          "type": "uint256"
        },
        {
          "internalType": "uint16",
          "name": "daysToMaturity",
          "type": "uint16"
        },
        {
          "internalType": "uint256",
          "name": "unClaimedBorrowedPrincipal",
          "type": "uint256"
        },
        {
          "internalType": "address",
          "name": "borrower",
          "type": "address"
        },
        {
          "internalType": "address",
          "name": "lender",
          "type": "address"
        }
      ],
      "name": "createLoan",
      "outputs": [
        {
          "internalType": "uint256",
          "name": "",
          "type": "uint256"
        }
      ],
      "stateMutability": "nonpayable",
      "type": "function"
    },
    {
      "inputs": [
        {
          "internalType": "uint256",
          "name": "loanId",
          "type": "uint256"
        }
      ],
      "name": "getLoan",
      "outputs": [
        {
          "components": [
            {
              "internalType": "uint256",
              "name": "offerId",
              "type": "uint256"
            },
            {
              "internalType": "enum LoanLibrary.State",
              "name": "state",
              "type": "uint8"
            },
            {
              "internalType": "address",
              "name": "principalToken",
              "type": "address"
            },
            {
              "internalType": "address",
              "name": "collateralToken",
              "type": "address"
            },
            {
              "internalType": "uint256",
              "name": "initialPrincipal",
              "type": "uint256"
            },
            {
              "internalType": "uint256",
              "name": "currentPrincipal",
              "type": "uint256"
            },
            {
              "internalType": "uint256",
              "name": "initialCollateral",
              "type": "uint256"
            },
            {
              "internalType": "uint256",
              "name": "currentCollateral",
              "type": "uint256"
            },
            {
              "internalType": "uint256",
              "name": "collateralPriceInUSD",
              "type": "uint256"
            },
            {
              "internalType": "uint256",
              "name": "interestRate",
              "type": "uint256"
            },
            {
              "internalType": "uint256",
              "name": "startDate",
              "type": "uint256"
            },
            {
              "internalType": "uint256",
              "name": "maturityDate",
              "type": "uint256"
            },
            {
              "internalType": "uint16",
              "name": "graceDays",
              "type": "uint16"
            },
            {
              "internalType": "uint8",
              "name": "numInstallmentsPaid",
              "type": "uint8"
            },
            {
              "internalType": "uint256",
              "name": "unClaimedPrincipal",
              "type": "uint256"
            },
            {
              "internalType": "uint256",
              "name": "unClaimedCollateral",
              "type": "uint256"
            },
            {
              "internalType": "uint256",
              "name": "unClaimedDefaultCollateral",
              "type": "uint256"
            },
            {
              "internalType": "uint256",
              "name": "unClaimedBorrowedPrincipal",
              "type": "uint256"
            },
            {
              "internalType": "uint256",
              "name": "totalInterestPaid",
              "type": "uint256"
            },
            {
              "internalType": "uint256",
              "name": "repaidOn",
              "type": "uint256"
            },
            {
              "internalType": "address",
              "name": "borrower",
              "type": "address"
            },
            {
              "internalType": "address",
              "name": "lender",
              "type": "address"
            }
          ],
          "internalType": "struct LoanLibrary.Loan",
          "name": "",
          "type": "tuple"
        }
      ],
      "stateMutability": "view",
      "type": "function"
    },
    {
      "inputs": [
        {
          "internalType": "uint256",
          "name": "loanId",
          "type": "uint256"
        },
        {
          "internalType": "uint256",
          "name": "interestPaid",
          "type": "uint256"
        },
        {
          "internalType": "uint256",
          "name": "principalPaid",
          "type": "uint256"
        },
        {
          "internalType": "uint256",
          "name": "collateralRetrieved",
          "type": "uint256"
        }
      ],
      "name": "repayLoan",
      "outputs": [
        {
          "internalType": "bool",
          "name": "",
          "type": "bool"
        }
      ],
      "stateMutability": "nonpayable",
      "type": "function"
    },
    {
      "inputs": [
        {
          "internalType": "uint256",
          "name": "loanId",
          "type": "uint256"
        },
        {
          "internalType": "address",
          "name": "user",
          "type": "address"
        }
      ],
      "name": "claimPrincipal",
      "outputs": [
        {
          "internalType": "uint256",
          "name": "",
          "type": "uint256"
        },
        {
          "internalType": "uint256",
          "name": "",
          "type": "uint256"
        },
        {
          "internalType": "address",
          "name": "",
          "type": "address"
        }
      ],
      "stateMutability": "nonpayable",
      "type": "function"
    },
    {
      "inputs": [
        {
          "internalType": "uint256",
          "name": "loanId",
          "type": "uint256"
        },
        {
          "internalType": "address",
          "name": "user",
          "type": "address"
        }
      ],
      "name": "claimDefaultCollateral",
      "outputs": [
        {
          "internalType": "uint256",
          "name": "",
          "type": "uint256"
        },
        {
          "internalType": "uint256",
          "name": "",
          "type": "uint256"
        },
        {
          "internalType": "address",
          "name": "",
          "type": "address"
        }
      ],
      "stateMutability": "nonpayable",
      "type": "function"
    },
    {
      "inputs": [
        {
          "internalType": "uint256",
          "name": "loanId",
          "type": "uint256"
        },
        {
          "internalType": "address",
          "name": "user",
          "type": "address"
        }
      ],
      "name": "claimCollateral",
      "outputs": [
        {
          "internalType": "uint256",
          "name": "",
          "type": "uint256"
        },
        {
          "internalType": "uint256",
          "name": "",
          "type": "uint256"
        },
        {
          "internalType": "address",
          "name": "",
          "type": "address"
        }
      ],
      "stateMutability": "nonpayable",
      "type": "function"
    },
    {
      "inputs": [
        {
          "internalType": "uint256",
          "name": "loanId",
          "type": "uint256"
        },
        {
          "internalType": "address",
          "name": "user",
          "type": "address"
        }
      ],
      "name": "claimBorrowedPrincipal",
      "outputs": [
        {
          "internalType": "uint256",
          "name": "",
          "type": "uint256"
        },
        {
          "internalType": "uint256",
          "name": "",
          "type": "uint256"
        },
        {
          "internalType": "address",
          "name": "",
          "type": "address"
        }
      ],
      "stateMutability": "nonpayable",
      "type": "function"
    },
    {
      "inputs": [
        {
          "internalType": "uint256",
          "name": "loanId",
          "type": "uint256"
        },
        {
          "internalType": "uint256",
          "name": "principalPaid",
          "type": "uint256"
        },
        {
          "internalType": "uint256",
          "name": "collateralRetrieved",
          "type": "uint256"
        },
        {
          "internalType": "uint256",
          "name": "collateralPaid",
          "type": "uint256"
        }
      ],
      "name": "liquidateLoan",
      "outputs": [],
      "stateMutability": "nonpayable",
      "type": "function"
    },
    {
      "inputs": [
        {
          "internalType": "uint16",
          "name": "days_",
          "type": "uint16"
        }
      ],
      "name": "setGraceDays",
      "outputs": [],
      "stateMutability": "nonpayable",
      "type": "function"
    },
    {
      "inputs": [
        {
          "internalType": "address",
          "name": "address_",
          "type": "address"
        }
      ],
      "name": "setLendingPool",
      "outputs": [],
      "stateMutability": "nonpayable",
      "type": "function"
    }
  ],
  "bytecode": "0x6080806040523461007c57600180546001600160a01b03199081169091556000805433928116831782556001600160a01b0316907f8be0079c531659141344cd1fd0a4f28419497f9722a3daafe3b4186f6b6457e09080a360646002556006805461ffff60a01b1916600560a01b17905561160390816100828239f35b600080fdfe610180604052600436101561001357600080fd5b60003560e01c8063113aa8b114610fd8578063129773e214610eac578063165035e214610e8f578063189a4b7614610e1e57806319467e2714610a335780633799ba3f146108cb578063504006ca146106e1578063715018a61461067c57806378fe76ec1461063457806379ba509714610571578063863e76db146105535780638da5cb5b1461052a57806397f641ab1461050c578063a5aca3801461049b578063e1ec3c68146102de578063e30c3978146102b5578063e41936d714610215578063f2fde38b146101aa5763f400c743146100ee57600080fd5b346101a55760403660031901126101a55760043561010a611031565b6006549091906001600160a01b0390811633036101a5576101a1908260005260046020526101476040600020948280601388015416911614611325565b61016f600c850193600085549561015f871515611362565b55610169866111b7565b906113e0565b6001845494015460081c16604051938493849192604091949360608401958452602084015260018060a01b0316910152565b0390f35b600080fd5b346101a55760203660031901126101a5576101c361101b565b6101cb611072565b60018060a01b0380911690816001600160601b0360a01b6001541617600155600054167f38d16b8cac22d99fc7c124b9cd0de2d3fa1faef420bfe791d8c362d765e22700600080a3005b346101a55760403660031901126101a557600435610231611031565b6006549091906001600160a01b0390811633036101a5576101a19082600052600460205261026e6040600020948280601388015416911614611325565b610286600e850193600085549561015f871515611362565b6002845494015416604051938493849192604091949360608401958452602084015260018060a01b0316910152565b346101a55760003660031901126101a5576001546040516001600160a01b039091168152602090f35b346101a55760203660031901126101a55760043560005260046020526040600020806101205280808060ff81808080808080808080600f600e600d600c600b600a60096008600760066005600460038d549d600181015460a05260018060a01b036002820154166101005201549d01549d01549d01549d01549d01549d01549d01549d01549d01549e01549e01549e01549e601081015460e052601181015460805260018060a01b0360128201541660c052601360018060a01b0391015416610160526040518061014052526103be602061014051018b60a05116611065565b60018060a01b0360a05160081c166040610140510152610100516060610140510152608061014051015260a061014051015260c061014051015260e06101405101526101006101405101526101206101405101526101408051015261016061014051015261ffff811661018061014051015260101c166101a06101405101526101c06101405101526101e061014051015261020061014051015261022061014051015260e05161024061014051015260805161026061014051015260c051610280610140510152610160516102a06101405101526102c061014051f35b346101a55760403660031901126101a5576004356104b7611031565b6006549091906001600160a01b0390811633036101a5576101a1908260005260046020526104f460406000209482806012880154169116146113a1565b610286600d850193600085549561015f871515611362565b346101a55760003660031901126101a5576020600254604051908152f35b346101a55760003660031901126101a5576000546040516001600160a01b039091168152602090f35b346101a55760003660031901126101a5576020604051620151808152f35b346101a55760003660031901126101a5576001546001600160a01b0333818316036105dd576001600160601b0360a01b8092166001556000549133908316176000553391167f8be0079c531659141344cd1fd0a4f28419497f9722a3daafe3b4186f6b6457e0600080a3005b60405162461bcd60e51b815260206004820152602960248201527f4f776e61626c6532537465703a2063616c6c6572206973206e6f7420746865206044820152683732bb9037bbb732b960b91b6064820152608490fd5b346101a55760203660031901126101a55760043561ffff811681036101a55761065b611072565b6006805461ffff60a01b191660a09290921b61ffff60a01b16919091179055005b346101a55760003660031901126101a557610695611072565b600180546001600160a01b0319908116909155600080549182168155906001600160a01b03167f8be0079c531659141344cd1fd0a4f28419497f9722a3daafe3b4186f6b6457e08280a3005b346101a55760203660031901126101a55760006102a06106ff611196565b8281528260208201528260408201528260608201528260808201528260a08201528260c08201528260e08201528261010082015282610120820152826101408201528261016082015282610180820152826101a0820152826101c0820152826101e08201528261020082015282610220820152826102408201528261026082015282610280820152015260043560005260046020526102c06107a460406000206111b7565b60405190805182526107be60208201516020840190611065565b60018060a01b03604082015116604083015260018060a01b0360608201511660608301526080810151608083015260a081015160a083015260c081015160c083015260e081015160e083015261010081015161010083015261012081015161012083015261014081015161014083015261016081015161016083015261ffff6101808201511661018083015260ff6101a0820151166101a08301526101c08101516101c08301526101e08101516101e083015261020081015161020083015261022081015161022083015261024081015161024083015261026081015161026083015260018060a01b03610280820151166102808301526102a060018060a01b03910151166102a0820152f35b346101a5576108d936611047565b6006549293929091906001600160a01b031633036101a557826000526004602052604060002090600182019081549060ff82166004811015610a1d5761091f90156112d6565b61ffff600b85015416620151809080820291820403610a075761094690600a8601546112c9565b42116109cb576109ab9661016995600a9261096660048801938454611318565b80935561097860068801918254611318565b9182825561098b600e89019182546112c9565b9055816109bb575b5050116109ad5750805460ff191660031790556111b7565b005b60ff191660021790556111b7565b600091600d880155558880610993565b60405162461bcd60e51b815260206004820152601460248201527311549497d313d05397d393d517d350551554915160621b6044820152606490fd5b634e487b7160e01b600052601160045260246000fd5b634e487b7160e01b600052602160045260246000fd5b346101a5576101803660031901126101a55760243560028110156101a557604435906001600160a01b03821682036101a5576064356001600160a01b03811681036101a5576101043561ffff81168091036101a55761014435906001600160a01b03821682036101a55761016435926001600160a01b03841684036101a5576006546001600160a01b031633036101a5576003805460010190819055946001600160a01b0385811690851614610de357610db857600435610afd610af7858361155e565b156110ca565b6000526005602052610b1383604060002061113b565b620151809180830292830403610a0757610b3061ffff92426112c9565b60065491610b3c611196565b976004358952600060208a015260018060a01b0316604089015260018060a01b03166060880152608435608088015260843560a088015260a4358060c089015260e088015260c43561010088015260e4356101208801524261014088015261016087015260a01c1661018085015260006101a085015260006101c085015260006101e08501526000610200850152610124356102208501526000610240850152600061026085015260018060a01b031661028084015260018060a01b03166102a08301528060005260046020526040600020918051835560208101516004811015610a1d578360139160016020960190815460ff610100600160a81b03604088015160081b169216906affffffffffffffffffffff60a81b161717905560018060a01b036060840151166001600160601b0360a01b6002830154161760028201556080830151600382015560a0830151600482015560c0830151600582015560e08301516006820155610100830151600782015561012083015160088201556101408301516009820155610160830151600a820155610d0c600b820161ffff6101808601511661ffff1982541617815560ff6101a08601511662ff000082549160101b169062ff00001916179055565b6101c0830151600c8201556101e0830151600d820155610200830151600e820155610220830151600f820155610240830151601082015561026083015160118201556012810160018060a01b03610280850151166001600160601b0360a01b82541617905501906102a060018060a01b03910151166001600160601b0360a01b8254161790558060005260048252610db0610daa60406000206111b7565b826113e0565b604051908152f35b600435610dc8610af7868361155e565b6000526005602052610dde84604060002061113b565b610b13565b60405162461bcd60e51b815260206004820152601360248201527222a9292fa1a0a72a2fa127a92927abafa7aba760691b6044820152606490fd5b346101a55760403660031901126101a557600435610e3a611031565b6006549091906001600160a01b0390811633036101a5576101a190826000526004602052610e7760406000209482806012880154169116146113a1565b61016f600f850193600085549561015f871515611362565b346101a55760003660031901126101a5576020604051610e108152f35b346101a557610eba36611047565b6006549093919291906001600160a01b031633036101a557806000526004602052604060002092600184019360ff8554166004811015610a1d57610efe90156112d6565b600b810191600160ff845460101c16019660ff8811610a0757610f57610fb096610f4060ff9a610169979062ff000082549160101b169062ff00001916179055565b60108501610f4f8282546112c9565b9055836112c9565b610f66600c85019182546112c9565b9055600d8301610f778282546112c9565b9055610f8860048401928354611318565b809255610f9a60068401918254611318565b90554260118301556002541015610fc9576111b7565b54166004811015610a1d57602090600160405191148152f35b600186198654161785556111b7565b346101a55760203660031901126101a557610ff161101b565b610ff9611072565b600680546001600160a01b0319166001600160a01b0392909216919091179055005b600435906001600160a01b03821682036101a557565b602435906001600160a01b03821682036101a557565b60809060031901126101a55760043590602435906044359060643590565b906004821015610a1d5752565b6000546001600160a01b0316330361108657565b606460405162461bcd60e51b815260206004820152602060248201527f4f776e61626c653a2063616c6c6572206973206e6f7420746865206f776e65726044820152fd5b156110d157565b60405162461bcd60e51b815260206004820152601460248201527311549497d053149150511657d093d49493d5d15160621b6044820152606490fd5b80548210156111255760005260206000200190600090565b634e487b7160e01b600052603260045260246000fd5b8054680100000000000000008110156111805761115d9160018201815561110d565b819291549060031b9160018060a01b039283811b93849216901b16911916179055565b634e487b7160e01b600052604160045260246000fd5b604051906102c0820182811067ffffffffffffffff82111761118057604052565b906111c0611196565b918054835260018101549060ff8216906004821015610a1d57601391602086015260018060a01b03809360081c16604086015282600282015416606086015260038101546080860152600481015460a0860152600581015460c0860152600681015460e0860152600781015461010086015260088101546101208601526009810154610140860152600a81015461016086015260ff600b82015461ffff811661018088015260101c166101a0860152600c8101546101c0860152600d8101546101e0860152600e810154610200860152600f81015461022086015260108101546102408601526011810154610260860152826012820154166102808601520154166102a0830152565b91908201809211610a0757565b156112dd57565b60405162461bcd60e51b81526020600482015260136024820152724552525f4c4f414e5f4e4f545f41435449564560681b6044820152606490fd5b91908203918211610a0757565b1561132c57565b60405162461bcd60e51b815260206004820152600e60248201526d22a9292fa727aa2fa622a72222a960911b6044820152606490fd5b1561136957565b60405162461bcd60e51b815260206004820152601060248201526f4552525f5a45524f5f42414c414e434560801b6044820152606490fd5b156113a857565b60405162461bcd60e51b815260206004820152601060248201526f22a9292fa727aa2fa127a92927aba2a960811b6044820152606490fd5b908051906020810151916004831015610a1d5781600160a01b600190039185828460408201511694806060830151169760808301519660a084015160c08501519060e0860151996101209c8d88015194610140890151966101608a015198806101808c015161ffff169b6102800151169f6102a00151169b6040519b8c5260208c015260408b0161147091611065565b60608a0152608089015260a088015260c087015260e08601526101009788860152898501526101408401526101608301526101808201526101a094858201526101c091828201526101e090817f1b94239d4d6b6892c4b24e380f7225897bf6df2f2c7398b28e57b275e8cd103f91a1838301519483015160ff1691830151908301516102008401519161022085015193610240860151956102600151976040519a8b5260208b015260408a01526060890152608088015260a087015260c086015260e08501528301527faf2b20ce1bba15f4786bb5e0af37efddd250236bdb204fa4a170338d090c5c8291a1565b919060005b8360005260056020526040806000205461ffff831610156115c4578161158b9160002061110d565b905460039190911b1c6001600160a01b03908116908316146115bc5761ffff809116908114610a0757600101611563565b506001925050565b5060009350505056fea2646970667358221220aa097129cba4014471f41435820f165936bf1226feda3c03b653bbd8ea37543d64736f6c63430008110033",
  "immutableReferences": {},
  "source": "// SPDX-License-Identifier: MIT\r\npragma solidity ^0.8.17;\r\n\r\nimport \"../libraries/LoanLibrary.sol\";\r\nimport \"../libraries/OfferLibrary.sol\";\r\n\r\nimport \"../interfaces/ILoanManager.sol\";\r\n\r\nimport \"@openzeppelin/contracts/utils/math/SafeMath.sol\";\r\nimport \"@openzeppelin/contracts/access/Ownable2Step.sol\";\r\nimport \"@openzeppelin/contracts/utils/Counters.sol\";\r\n\r\ncontract LoanManager is ILoanManager, Ownable2Step {\r\n    uint256 public constant ONE_DAY = 60 * 60 * 24;\r\n    uint256 public constant ONE_HOUR = 60 * 60;\r\n    uint256 public DUST_AMOUNT = 100;\r\n\r\n    using Counters for Counters.Counter;\r\n    using SafeMath for uint256;\r\n\r\n    Counters.Counter private loanIdTracker;\r\n    mapping(uint256 => LoanLibrary.Loan) public loans;\r\n\r\n    // offerId => wallet addresses\r\n    mapping(uint256 => address[]) private borrowers;\r\n\r\n    address lendingPool;\r\n    uint16 graceDays = 5;\r\n\r\n    constructor() Ownable2Step() {}\r\n\r\n    function createLoan(\r\n        uint256 offerId,\r\n        OfferLibrary.Type offerType,\r\n        address principalToken,\r\n        address collateralToken,\r\n        uint256 principalAmount,\r\n        uint256 collateralAmount,\r\n        uint256 collateralPriceInUSD,\r\n        uint256 interestRate,\r\n        uint16 daysToMaturity,\r\n        uint256 unClaimedBorrowedPrincipal,\r\n        address borrower,\r\n        address lender\r\n    ) public override onlyLendingPool returns (uint256) {\r\n        // avoid 0 id\r\n        loanIdTracker.increment();\r\n        uint256 loanId = loanIdTracker.current();\r\n\r\n        require(lender != borrower, \"ERR_CANT_BORROW_OWN\");\r\n\r\n        if (offerType == OfferLibrary.Type.LENDING_OFFER) {\r\n            require(\r\n                !_hasBorrowedFrom(offerId, borrower),\r\n                \"ERR_ALREADY_BORROWED\"\r\n            );\r\n            borrowers[offerId].push(borrower);\r\n        } else {\r\n            require(!_hasBorrowedFrom(offerId, lender), \"ERR_ALREADY_BORROWED\");\r\n            borrowers[offerId].push(lender);\r\n        }\r\n\r\n        uint256 startDate = block.timestamp;\r\n        uint256 duration = ONE_DAY.mul(daysToMaturity);\r\n        uint256 maturityDate = startDate.add(duration);\r\n\r\n        loans[loanId] = LoanLibrary.Loan(\r\n            offerId,\r\n            LoanLibrary.State.ACTIVE,\r\n            principalToken,\r\n            collateralToken,\r\n            principalAmount,\r\n            principalAmount,\r\n            collateralAmount,\r\n            collateralAmount,\r\n            collateralPriceInUSD,\r\n            interestRate,\r\n            startDate,\r\n            maturityDate,\r\n            graceDays,\r\n            0, // numInstallmentsPaid\r\n            0, // unclaimed principal\r\n            0, // unclaimed collateral\r\n            0, // unclaimed default collateral\r\n            unClaimedBorrowedPrincipal,\r\n            0, // total interestRate paid\r\n            0, // repaidOn\r\n            borrower,\r\n            lender\r\n        );\r\n\r\n        _emit(loanId, loans[loanId]);\r\n        return loanId;\r\n    }\r\n\r\n    function getLoan(uint256 loanId)\r\n        public\r\n        view\r\n        override\r\n        returns (LoanLibrary.Loan memory)\r\n    {\r\n        return loans[loanId];\r\n    }\r\n\r\n    function repayLoan(\r\n        uint256 loanId,\r\n        uint256 interestPaid,\r\n        uint256 principalPaid,\r\n        uint256 collateralRetrieved\r\n    ) public override onlyLendingPool returns (bool) {\r\n        LoanLibrary.Loan storage loan = loans[loanId];\r\n        require(loan.state == LoanLibrary.State.ACTIVE, \"ERR_LOAN_NOT_ACTIVE\");\r\n\r\n        loan.numInstallmentsPaid += 1;\r\n        loan.totalInterestPaid += interestPaid;\r\n        loan.unClaimedPrincipal += principalPaid.add(interestPaid);\r\n        loan.unClaimedCollateral += collateralRetrieved;\r\n        loan.currentPrincipal -= principalPaid;\r\n        loan.currentCollateral -= collateralRetrieved;\r\n        loan.repaidOn = block.timestamp;\r\n\r\n        if (loan.currentPrincipal <= DUST_AMOUNT) {\r\n            loan.state = LoanLibrary.State.REPAID;\r\n        }\r\n\r\n        _emit(loanId, loan);\r\n        return loan.state == LoanLibrary.State.REPAID;\r\n    }\r\n\r\n    function claimPrincipal(uint256 loanId, address user)\r\n        public\r\n        override\r\n        onlyLendingPool\r\n        returns (\r\n            uint256,\r\n            uint256,\r\n            address\r\n        )\r\n    {\r\n        LoanLibrary.Loan storage loan = loans[loanId];\r\n        require(loan.lender == user, \"ERR_NOT_LENDER\");\r\n        require(loan.unClaimedPrincipal > 0, \"ERR_ZERO_BALANCE\");\r\n        uint256 amount = loan.unClaimedPrincipal;\r\n        loan.unClaimedPrincipal = 0;\r\n\r\n        _emit(loanId, loan);\r\n        return (amount, loan.offerId, loan.principalToken);\r\n    }\r\n\r\n    function claimDefaultCollateral(uint256 loanId, address user)\r\n        public\r\n        override\r\n        onlyLendingPool\r\n        returns (\r\n            uint256,\r\n            uint256,\r\n            address\r\n        )\r\n    {\r\n        LoanLibrary.Loan storage loan = loans[loanId];\r\n        require(loan.lender == user, \"ERR_NOT_LENDER\");\r\n        require(loan.unClaimedDefaultCollateral > 0, \"ERR_ZERO_BALANCE\");\r\n        uint256 amount = loan.unClaimedDefaultCollateral;\r\n        loan.unClaimedDefaultCollateral = 0;\r\n\r\n        _emit(loanId, loan);\r\n        return (amount, loan.offerId, loan.collateralToken);\r\n    }\r\n\r\n    function claimCollateral(uint256 loanId, address user)\r\n        public\r\n        override\r\n        onlyLendingPool\r\n        returns (\r\n            uint256,\r\n            uint256,\r\n            address\r\n        )\r\n    {\r\n        LoanLibrary.Loan storage loan = loans[loanId];\r\n        require(loan.borrower == user, \"ERR_NOT_BORROWER\");\r\n        require(loan.unClaimedCollateral > 0, \"ERR_ZERO_BALANCE\");\r\n        uint256 amount = loan.unClaimedCollateral;\r\n        loan.unClaimedCollateral = 0;\r\n\r\n        _emit(loanId, loan);\r\n        return (amount, loan.offerId, loan.collateralToken);\r\n    }\r\n\r\n    function claimBorrowedPrincipal(uint256 loanId, address user)\r\n        public\r\n        override\r\n        onlyLendingPool\r\n        returns (\r\n            uint256,\r\n            uint256,\r\n            address\r\n        )\r\n    {\r\n        LoanLibrary.Loan storage loan = loans[loanId];\r\n        require(loan.borrower == user, \"ERR_NOT_BORROWER\");\r\n        require(loan.unClaimedBorrowedPrincipal > 0, \"ERR_ZERO_BALANCE\");\r\n        uint256 amount = loan.unClaimedBorrowedPrincipal;\r\n        loan.unClaimedBorrowedPrincipal = 0;\r\n\r\n        _emit(loanId, loan);\r\n        return (amount, loan.offerId, loan.principalToken);\r\n    }\r\n\r\n    function liquidateLoan(\r\n        uint256 loanId,\r\n        uint256 principalPaid,\r\n        uint256 collateralRetrieved,\r\n        uint256 collateralPaid\r\n    ) public override onlyLendingPool {\r\n        LoanLibrary.Loan storage loan = loans[loanId];\r\n        require(loan.state == LoanLibrary.State.ACTIVE, \"ERR_LOAN_NOT_ACTIVE\");\r\n\r\n        uint256 graceDate = ONE_DAY.mul(loan.graceDays);\r\n        uint256 defaultDate = loan.maturityDate.add(graceDate);\r\n        uint256 currentDate = block.timestamp;\r\n\r\n        require(defaultDate >= currentDate, \"ERR_LOAN_NOT_MATURED\");\r\n\r\n        loan.currentPrincipal -= principalPaid;\r\n        loan.currentCollateral -= collateralRetrieved;\r\n        loan.unClaimedDefaultCollateral += collateralPaid;\r\n\r\n        if (loan.currentCollateral > 0) {\r\n            loan.unClaimedCollateral = loan.currentCollateral;\r\n            loan.currentCollateral = 0;\r\n        }\r\n\r\n        if (loan.currentPrincipal <= 10) {\r\n            loan.state = LoanLibrary.State.REPAID_DEFAULTED;\r\n        } else {\r\n            loan.state = LoanLibrary.State.ACTIVE_DEFAULTED;\r\n        }\r\n\r\n        _emit(loanId, loan);\r\n    }\r\n\r\n    function _emit(uint256 loanId, LoanLibrary.Loan memory loan) private {\r\n        emit LoanLibrary.LoanCreated(\r\n            loanId,\r\n            loan.offerId,\r\n            loan.state,\r\n            loan.principalToken,\r\n            loan.collateralToken,\r\n            loan.initialPrincipal,\r\n            loan.currentPrincipal,\r\n            loan.initialCollateral,\r\n            loan.currentCollateral,\r\n            loan.interestRate,\r\n            loan.startDate,\r\n            loan.maturityDate,\r\n            loan.graceDays,\r\n            loan.borrower,\r\n            loan.lender\r\n        );\r\n        emit LoanLibrary.LoanCreatedProperty(\r\n            loanId,\r\n            loan.collateralPriceInUSD,\r\n            loan.numInstallmentsPaid,\r\n            loan.unClaimedPrincipal,\r\n            loan.unClaimedCollateral,\r\n            loan.unClaimedDefaultCollateral,\r\n            loan.unClaimedBorrowedPrincipal,\r\n            loan.totalInterestPaid,\r\n            loan.repaidOn\r\n        );\r\n    }\r\n\r\n    function _hasBorrowedFrom(uint256 offerId, address user)\r\n        private\r\n        view\r\n        returns (bool)\r\n    {\r\n        for (uint16 index = 0; index < borrowers[offerId].length; index++) {\r\n            if (borrowers[offerId][index] == user) {\r\n                return true;\r\n            }\r\n        }\r\n        return false;\r\n    }\r\n\r\n    function setGraceDays(uint16 days_) public onlyOwner {\r\n        graceDays = days_;\r\n    }\r\n\r\n    function setLendingPool(address address_) public onlyOwner {\r\n        lendingPool = address_;\r\n    }\r\n\r\n    modifier onlyLendingPool() {\r\n        require(msg.sender == lendingPool);\r\n        _;\r\n    }\r\n}\r\n",
  "sourcePath": "C:\\Users\\DELL\\Documents\\darsh\\smart-contracts\\contracts\\managers\\LoanManager.sol",
  "compiler": {
    "name": "solc",
    "version": "0.8.17+commit.8df45f5f.Emscripten.clang"
  },
  "schemaVersion": "3.4.11",
  "updatedAt": "2023-03-06T17:44:41.192Z",
  "devdoc": {
    "kind": "dev",
    "methods": {
      "acceptOwnership()": {
        "details": "The new owner accepts the ownership transfer."
      },
      "owner()": {
        "details": "Returns the address of the current owner."
      },
      "pendingOwner()": {
        "details": "Returns the address of the pending owner."
      },
      "renounceOwnership()": {
        "details": "Leaves the contract without owner. It will not be possible to call `onlyOwner` functions anymore. Can only be called by the current owner. NOTE: Renouncing ownership will leave the contract without an owner, thereby removing any functionality that is only available to the owner."
      },
      "transferOwnership(address)": {
        "details": "Starts the ownership transfer of the contract to a new account. Replaces the pending transfer if there is one. Can only be called by the current owner."
      }
    },
    "version": 1
  },
  "userdoc": {
    "kind": "user",
    "methods": {},
    "version": 1
  }
}