{
  "contractName": "LoanToValueRatio",
  "abi": [
    {
      "inputs": [],
      "stateMutability": "nonpayable",
      "type": "constructor"
    },
    {
      "anonymous": false,
      "inputs": [
        {
          "indexed": true,
          "internalType": "address",
          "name": "previousOwner",
          "type": "address"
        },
        {
          "indexed": true,
          "internalType": "address",
          "name": "newOwner",
          "type": "address"
        }
      ],
      "name": "OwnershipTransferStarted",
      "type": "event"
    },
    {
      "anonymous": false,
      "inputs": [
        {
          "indexed": true,
          "internalType": "address",
          "name": "previousOwner",
          "type": "address"
        },
        {
          "indexed": true,
          "internalType": "address",
          "name": "newOwner",
          "type": "address"
        }
      ],
      "name": "OwnershipTransferred",
      "type": "event"
    },
    {
      "inputs": [],
      "name": "acceptOwnership",
      "outputs": [],
      "stateMutability": "nonpayable",
      "type": "function"
    },
    {
      "inputs": [],
      "name": "base",
      "outputs": [
        {
          "internalType": "uint8",
          "name": "",
          "type": "uint8"
        }
      ],
      "stateMutability": "view",
      "type": "function"
    },
    {
      "inputs": [],
      "name": "owner",
      "outputs": [
        {
          "internalType": "address",
          "name": "",
          "type": "address"
        }
      ],
      "stateMutability": "view",
      "type": "function"
    },
    {
      "inputs": [],
      "name": "pendingOwner",
      "outputs": [
        {
          "internalType": "address",
          "name": "",
          "type": "address"
        }
      ],
      "stateMutability": "view",
      "type": "function"
    },
    {
      "inputs": [],
      "name": "renounceOwnership",
      "outputs": [],
      "stateMutability": "nonpayable",
      "type": "function"
    },
    {
      "inputs": [
        {
          "internalType": "address",
          "name": "newOwner",
          "type": "address"
        }
      ],
      "name": "transferOwnership",
      "outputs": [],
      "stateMutability": "nonpayable",
      "type": "function"
    },
    {
      "inputs": [],
      "name": "getBase",
      "outputs": [
        {
          "internalType": "uint8",
          "name": "",
          "type": "uint8"
        }
      ],
      "stateMutability": "view",
      "type": "function"
    },
    {
      "inputs": [
        {
          "internalType": "address",
          "name": "user",
          "type": "address"
        }
      ],
      "name": "getLTV",
      "outputs": [
        {
          "internalType": "uint160",
          "name": "",
          "type": "uint160"
        }
      ],
      "stateMutability": "view",
      "type": "function"
    },
    {
      "inputs": [
        {
          "internalType": "address",
          "name": "trustScore_",
          "type": "address"
        },
        {
          "internalType": "uint160",
          "name": "minLTV_",
          "type": "uint160"
        },
        {
          "internalType": "uint160",
          "name": "maxLTV_",
          "type": "uint160"
        }
      ],
      "name": "setTrustScore",
      "outputs": [],
      "stateMutability": "nonpayable",
      "type": "function"
    }
  ],
  "bytecode": "0x6080806040523461007657600180546001600160a01b03199081169091556000805433928116831782556001600160a01b0316907f8be0079c531659141344cd1fd0a4f28419497f9722a3daafe3b4186f6b6457e09080a36004805460ff60a01b1916600560a11b17905561057b908161007c8239f35b600080fdfe60406080815260048036101561001457600080fd5b600091823560e01c9182632cc0854c146103c05782635001f3b514610122578263715018a61461035b57826379ba5097146102975782638da5cb5b1461026f578263aca25f9a14610146578263d104a1361461012257508163e30c3978146100f5575063f2fde38b1461008657600080fd5b346100f25760203660031901126100f25761009f610496565b6100a76104b1565b600180546001600160a01b0319166001600160a01b0392831690811790915582549091167f38d16b8cac22d99fc7c124b9cd0de2d3fa1faef420bfe791d8c362d765e227008380a380f35b80fd5b90503461011e578160031936011261011e5760015490516001600160a01b039091168152602090f35b5080fd5b9083346100f257806003193601126100f2575060ff6020925460a01c169051908152f35b83346100f2576020928360031936011261011e57610162610496565b6002548251630d47875d60e41b81526001600160a01b03928316868201529193919086908290602490829088165afa908115610265578291610203575b5083855416908460035416809203908582116101f057856101c8819361ffff6064941690610509565b16041601938385116101dd5750505191168152f35b634e487b7160e01b825260119052602490fd5b634e487b7160e01b845260118752602484fd5b9050853d871161025e575b601f8101601f1916820167ffffffffffffffff81118382101761024b578791839186528101031261011e575161ffff8116810361011e578661019f565b634e487b7160e01b845260418752602484fd5b503d61020e565b83513d84823e3d90fd5b83823461011e578160031936011261011e57905490516001600160a01b039091168152602090f35b915034610357578260031936011261035757600154916001600160a01b039133838516036103025750506001600160a01b031991821660015582543392811683178455167f8be0079c531659141344cd1fd0a4f28419497f9722a3daafe3b4186f6b6457e08380a380f35b906020608492519162461bcd60e51b8352820152602960248201527f4f776e61626c6532537465703a2063616c6c6572206973206e6f7420746865206044820152683732bb9037bbb732b960b91b6064820152fd5b8280fd5b83346100f257806003193601126100f2576103746104b1565b600180546001600160a01b03199081169091558154908116825581906001600160a01b03167f8be0079c531659141344cd1fd0a4f28419497f9722a3daafe3b4186f6b6457e08280a380f35b90915034610357576060366003190112610357576103dc610496565b6001600160a01b036024358181169491939185820361049257604435958587169081880361048e5761040c6104b1565b101561046257508154908461044f8161042c60ff8660a01c168095610509565b16926bffffffffffffffffffffffff60a01b988994856003541617600355610509565b1691161790551690600254161760025580f35b5162461bcd60e51b8152602081840152600760248201526622a9292fa62a2b60c91b6044820152606490fd5b8880fd5b8680fd5b600435906001600160a01b03821682036104ac57565b600080fd5b6000546001600160a01b031633036104c557565b606460405162461bcd60e51b815260206004820152602060248201527f4f776e61626c653a2063616c6c6572206973206e6f7420746865206f776e65726044820152fd5b6001600160a01b0391821690821681810290921692918015908404909114171561052f57565b634e487b7160e01b600052601160045260246000fdfea26469706673582212204d7a0e98cc7c294c0c5a8590aaca3e98dcc09025ec7cc344b6994b3971033caf64736f6c63430008110033",
  "immutableReferences": {},
  "source": "// SPDX-License-Identifier: GPL-3.0\r\npragma solidity >=0.7.0 <0.9.0;\r\n\r\nimport \"./interfaces/ITrustScore.sol\";\r\nimport \"./interfaces/ILoanToValueRatio.sol\";\r\nimport \"@openzeppelin/contracts/access/Ownable2Step.sol\";\r\n\r\ncontract LoanToValueRatio is Ownable2Step, ILoanToValueRatio {\r\n    ITrustScore private _trustScore;\r\n\r\n    uint160 minLTV;\r\n    uint160 maxLTV;\r\n\r\n    uint8 public base = 10;\r\n\r\n    constructor() Ownable2Step() {}\r\n\r\n    function getBase() public view override returns (uint8) {\r\n        return base;\r\n    }\r\n\r\n    function getLTV(address user) public view override returns (uint160) {\r\n        // 0 ~ 100\r\n        uint16 score = _trustScore.getScore(user);\r\n        uint160 range = maxLTV - minLTV;\r\n        uint160 scale = ((range * score) / 100);\r\n        return minLTV + scale;\r\n    }\r\n\r\n    function setTrustScore(\r\n        address trustScore_,\r\n        uint160 minLTV_,\r\n        uint160 maxLTV_\r\n    ) public onlyOwner {\r\n        require(minLTV_ < maxLTV_, \"ERR_LTV\");\r\n        minLTV = minLTV_ * base;\r\n        maxLTV = maxLTV_ * base;\r\n        _trustScore = ITrustScore(trustScore_);\r\n    }\r\n}\r\n",
  "sourcePath": "C:\\Users\\DELL\\Documents\\darsh\\smart-contracts\\contracts\\LoanToValueRatio.sol",
  "compiler": {
    "name": "solc",
    "version": "0.8.17+commit.8df45f5f.Emscripten.clang"
  },
  "schemaVersion": "3.4.11",
  "updatedAt": "2023-02-12T20:37:48.497Z",
  "devdoc": {
    "kind": "dev",
    "methods": {
      "acceptOwnership()": {
        "details": "The new owner accepts the ownership transfer."
      },
      "owner()": {
        "details": "Returns the address of the current owner."
      },
      "pendingOwner()": {
        "details": "Returns the address of the pending owner."
      },
      "renounceOwnership()": {
        "details": "Leaves the contract without owner. It will not be possible to call `onlyOwner` functions anymore. Can only be called by the current owner. NOTE: Renouncing ownership will leave the contract without an owner, thereby removing any functionality that is only available to the owner."
      },
      "transferOwnership(address)": {
        "details": "Starts the ownership transfer of the contract to a new account. Replaces the pending transfer if there is one. Can only be called by the current owner."
      }
    },
    "version": 1
  },
  "userdoc": {
    "kind": "user",
    "methods": {},
    "version": 1
  }
}