{
  "contractName": "OfferManager",
  "abi": [
    {
      "inputs": [],
      "stateMutability": "nonpayable",
      "type": "constructor"
    },
    {
      "anonymous": false,
      "inputs": [
        {
          "indexed": false,
          "internalType": "uint256",
          "name": "offerId",
          "type": "uint256"
        },
        {
          "indexed": false,
          "internalType": "address",
          "name": "principalToken",
          "type": "address"
        },
        {
          "indexed": false,
          "internalType": "address",
          "name": "collateralToken",
          "type": "address"
        },
        {
          "indexed": false,
          "internalType": "uint256",
          "name": "initialCollateral",
          "type": "uint256"
        },
        {
          "indexed": false,
          "internalType": "uint256",
          "name": "currentCollateral",
          "type": "uint256"
        },
        {
          "indexed": false,
          "internalType": "uint256",
          "name": "interest",
          "type": "uint256"
        },
        {
          "indexed": false,
          "internalType": "uint256",
          "name": "daysToMaturity",
          "type": "uint256"
        },
        {
          "indexed": false,
          "internalType": "uint160",
          "name": "expiresAt",
          "type": "uint160"
        },
        {
          "indexed": false,
          "internalType": "uint160",
          "name": "createdAt",
          "type": "uint160"
        },
        {
          "indexed": false,
          "internalType": "address",
          "name": "borrower",
          "type": "address"
        }
      ],
      "name": "BorrowingOfferCreated",
      "type": "event"
    },
    {
      "anonymous": false,
      "inputs": [
        {
          "indexed": false,
          "internalType": "uint256",
          "name": "offerId",
          "type": "uint256"
        },
        {
          "indexed": false,
          "internalType": "address",
          "name": "principalToken",
          "type": "address"
        },
        {
          "indexed": false,
          "internalType": "uint256",
          "name": "currentPrincipal",
          "type": "uint256"
        },
        {
          "indexed": false,
          "internalType": "uint256",
          "name": "initialPrincipal",
          "type": "uint256"
        },
        {
          "indexed": false,
          "internalType": "uint256",
          "name": "interest",
          "type": "uint256"
        },
        {
          "indexed": false,
          "internalType": "uint256",
          "name": "daysToMaturity",
          "type": "uint256"
        },
        {
          "indexed": false,
          "internalType": "address[]",
          "name": "collateralTokens",
          "type": "address[]"
        },
        {
          "indexed": false,
          "internalType": "uint160",
          "name": "expiresAt",
          "type": "uint160"
        },
        {
          "indexed": false,
          "internalType": "uint160",
          "name": "createdAt",
          "type": "uint160"
        },
        {
          "indexed": false,
          "internalType": "address",
          "name": "lender",
          "type": "address"
        }
      ],
      "name": "LendingOfferCreated",
      "type": "event"
    },
    {
      "anonymous": false,
      "inputs": [
        {
          "indexed": false,
          "internalType": "uint256",
          "name": "offerId",
          "type": "uint256"
        },
        {
          "indexed": false,
          "internalType": "enum OfferLibrary.Type",
          "name": "offerType",
          "type": "uint8"
        }
      ],
      "name": "OfferClosed",
      "type": "event"
    },
    {
      "anonymous": false,
      "inputs": [
        {
          "indexed": true,
          "internalType": "address",
          "name": "previousOwner",
          "type": "address"
        },
        {
          "indexed": true,
          "internalType": "address",
          "name": "newOwner",
          "type": "address"
        }
      ],
      "name": "OwnershipTransferStarted",
      "type": "event"
    },
    {
      "anonymous": false,
      "inputs": [
        {
          "indexed": true,
          "internalType": "address",
          "name": "previousOwner",
          "type": "address"
        },
        {
          "indexed": true,
          "internalType": "address",
          "name": "newOwner",
          "type": "address"
        }
      ],
      "name": "OwnershipTransferred",
      "type": "event"
    },
    {
      "anonymous": false,
      "inputs": [
        {
          "indexed": false,
          "internalType": "uint256",
          "name": "requestId",
          "type": "uint256"
        },
        {
          "indexed": false,
          "internalType": "enum RequestLibrary.Type",
          "name": "requestType",
          "type": "uint8"
        }
      ],
      "name": "RequestClosed",
      "type": "event"
    },
    {
      "inputs": [],
      "name": "acceptOwnership",
      "outputs": [],
      "stateMutability": "nonpayable",
      "type": "function"
    },
    {
      "inputs": [
        {
          "internalType": "uint256",
          "name": "",
          "type": "uint256"
        }
      ],
      "name": "borrowingOffers",
      "outputs": [
        {
          "internalType": "uint256",
          "name": "offerId",
          "type": "uint256"
        },
        {
          "internalType": "address",
          "name": "principalToken",
          "type": "address"
        },
        {
          "internalType": "address",
          "name": "collateralToken",
          "type": "address"
        },
        {
          "internalType": "uint256",
          "name": "currentCollateral",
          "type": "uint256"
        },
        {
          "internalType": "uint256",
          "name": "initialCollateral",
          "type": "uint256"
        },
        {
          "internalType": "uint256",
          "name": "currentPrincipal",
          "type": "uint256"
        },
        {
          "internalType": "uint256",
          "name": "initialPrincipal",
          "type": "uint256"
        },
        {
          "internalType": "uint256",
          "name": "interest",
          "type": "uint256"
        },
        {
          "internalType": "uint256",
          "name": "daysToMaturity",
          "type": "uint256"
        },
        {
          "internalType": "uint160",
          "name": "expiresAt",
          "type": "uint160"
        },
        {
          "internalType": "uint160",
          "name": "createdAt",
          "type": "uint160"
        },
        {
          "internalType": "address",
          "name": "borrower",
          "type": "address"
        }
      ],
      "stateMutability": "view",
      "type": "function"
    },
    {
      "inputs": [
        {
          "internalType": "uint256",
          "name": "",
          "type": "uint256"
        }
      ],
      "name": "borrowingRequests",
      "outputs": [
        {
          "internalType": "uint256",
          "name": "requestId",
          "type": "uint256"
        },
        {
          "internalType": "address",
          "name": "collateralToken",
          "type": "address"
        },
        {
          "internalType": "uint256",
          "name": "collateralAmount",
          "type": "uint256"
        },
        {
          "internalType": "uint256",
          "name": "principalAmount",
          "type": "uint256"
        },
        {
          "internalType": "uint256",
          "name": "interest",
          "type": "uint256"
        },
        {
          "internalType": "uint256",
          "name": "daysToMaturity",
          "type": "uint256"
        },
        {
          "internalType": "uint256",
          "name": "expiresAt",
          "type": "uint256"
        },
        {
          "internalType": "uint256",
          "name": "createdAt",
          "type": "uint256"
        },
        {
          "internalType": "address",
          "name": "borrower",
          "type": "address"
        },
        {
          "internalType": "uint256",
          "name": "offerId",
          "type": "uint256"
        }
      ],
      "stateMutability": "view",
      "type": "function"
    },
    {
      "inputs": [
        {
          "internalType": "uint256",
          "name": "",
          "type": "uint256"
        }
      ],
      "name": "lendingOffers",
      "outputs": [
        {
          "internalType": "uint256",
          "name": "offerId",
          "type": "uint256"
        },
        {
          "internalType": "address",
          "name": "principalToken",
          "type": "address"
        },
        {
          "internalType": "uint256",
          "name": "currentPrincipal",
          "type": "uint256"
        },
        {
          "internalType": "uint256",
          "name": "initialPrincipal",
          "type": "uint256"
        },
        {
          "internalType": "uint256",
          "name": "interest",
          "type": "uint256"
        },
        {
          "internalType": "uint256",
          "name": "daysToMaturity",
          "type": "uint256"
        },
        {
          "internalType": "uint160",
          "name": "expiresAt",
          "type": "uint160"
        },
        {
          "internalType": "uint160",
          "name": "createdAt",
          "type": "uint160"
        },
        {
          "internalType": "address",
          "name": "lender",
          "type": "address"
        }
      ],
      "stateMutability": "view",
      "type": "function"
    },
    {
      "inputs": [
        {
          "internalType": "uint256",
          "name": "",
          "type": "uint256"
        }
      ],
      "name": "lendingRequests",
      "outputs": [
        {
          "internalType": "uint256",
          "name": "requestId",
          "type": "uint256"
        },
        {
          "internalType": "uint256",
          "name": "interest",
          "type": "uint256"
        },
        {
          "internalType": "uint256",
          "name": "principalAmount",
          "type": "uint256"
        },
        {
          "internalType": "uint16",
          "name": "percentage",
          "type": "uint16"
        },
        {
          "internalType": "uint256",
          "name": "daysToMaturity",
          "type": "uint256"
        },
        {
          "internalType": "uint256",
          "name": "expiresAt",
          "type": "uint256"
        },
        {
          "internalType": "uint256",
          "name": "createdAt",
          "type": "uint256"
        },
        {
          "internalType": "address",
          "name": "lender",
          "type": "address"
        },
        {
          "internalType": "uint256",
          "name": "offerId",
          "type": "uint256"
        }
      ],
      "stateMutability": "view",
      "type": "function"
    },
    {
      "inputs": [],
      "name": "owner",
      "outputs": [
        {
          "internalType": "address",
          "name": "",
          "type": "address"
        }
      ],
      "stateMutability": "view",
      "type": "function"
    },
    {
      "inputs": [],
      "name": "pendingOwner",
      "outputs": [
        {
          "internalType": "address",
          "name": "",
          "type": "address"
        }
      ],
      "stateMutability": "view",
      "type": "function"
    },
    {
      "inputs": [],
      "name": "renounceOwnership",
      "outputs": [],
      "stateMutability": "nonpayable",
      "type": "function"
    },
    {
      "inputs": [
        {
          "internalType": "address",
          "name": "newOwner",
          "type": "address"
        }
      ],
      "name": "transferOwnership",
      "outputs": [],
      "stateMutability": "nonpayable",
      "type": "function"
    },
    {
      "inputs": [
        {
          "internalType": "address",
          "name": "principalToken",
          "type": "address"
        },
        {
          "internalType": "uint256",
          "name": "principalAmount",
          "type": "uint256"
        },
        {
          "internalType": "uint256",
          "name": "interest",
          "type": "uint256"
        },
        {
          "internalType": "uint256",
          "name": "daysToMaturity",
          "type": "uint256"
        },
        {
          "internalType": "uint256",
          "name": "daysToExpire",
          "type": "uint256"
        },
        {
          "internalType": "address[]",
          "name": "collateralTokens",
          "type": "address[]"
        },
        {
          "internalType": "address",
          "name": "lender",
          "type": "address"
        }
      ],
      "name": "createLendingOffer",
      "outputs": [
        {
          "internalType": "uint256",
          "name": "",
          "type": "uint256"
        }
      ],
      "stateMutability": "nonpayable",
      "type": "function"
    },
    {
      "inputs": [
        {
          "internalType": "uint256",
          "name": "offerId",
          "type": "uint256"
        },
        {
          "internalType": "uint256",
          "name": "principal",
          "type": "uint256"
        }
      ],
      "name": "_afterOfferLendingLoan",
      "outputs": [],
      "stateMutability": "nonpayable",
      "type": "function"
    },
    {
      "inputs": [
        {
          "internalType": "uint256",
          "name": "offerId",
          "type": "uint256"
        },
        {
          "internalType": "uint256",
          "name": "principal",
          "type": "uint256"
        },
        {
          "internalType": "uint256",
          "name": "collateral",
          "type": "uint256"
        }
      ],
      "name": "_afterOfferBorrowingLoan",
      "outputs": [],
      "stateMutability": "nonpayable",
      "type": "function"
    },
    {
      "inputs": [
        {
          "internalType": "address",
          "name": "principalToken",
          "type": "address"
        },
        {
          "internalType": "address",
          "name": "collateralToken",
          "type": "address"
        },
        {
          "internalType": "uint256",
          "name": "collateral",
          "type": "uint256"
        },
        {
          "internalType": "uint256",
          "name": "principalNeeded",
          "type": "uint256"
        },
        {
          "internalType": "uint256",
          "name": "interest",
          "type": "uint256"
        },
        {
          "internalType": "uint256",
          "name": "daysToMaturity",
          "type": "uint256"
        },
        {
          "internalType": "uint256",
          "name": "daysToExpire",
          "type": "uint256"
        },
        {
          "internalType": "address",
          "name": "borrower",
          "type": "address"
        }
      ],
      "name": "createBorrowingOffer",
      "outputs": [
        {
          "internalType": "uint256",
          "name": "",
          "type": "uint256"
        }
      ],
      "stateMutability": "nonpayable",
      "type": "function"
    },
    {
      "inputs": [
        {
          "internalType": "uint256",
          "name": "offerId",
          "type": "uint256"
        },
        {
          "internalType": "address",
          "name": "lender",
          "type": "address"
        },
        {
          "internalType": "uint256",
          "name": "amount",
          "type": "uint256"
        }
      ],
      "name": "withdrawLendingOffer",
      "outputs": [
        {
          "internalType": "bool",
          "name": "",
          "type": "bool"
        }
      ],
      "stateMutability": "nonpayable",
      "type": "function"
    },
    {
      "inputs": [
        {
          "internalType": "uint256",
          "name": "requestId",
          "type": "uint256"
        }
      ],
      "name": "closeLendingRequest",
      "outputs": [],
      "stateMutability": "nonpayable",
      "type": "function"
    },
    {
      "inputs": [
        {
          "internalType": "uint256",
          "name": "offerId",
          "type": "uint256"
        }
      ],
      "name": "getLendingOffer",
      "outputs": [
        {
          "components": [
            {
              "internalType": "uint256",
              "name": "offerId",
              "type": "uint256"
            },
            {
              "internalType": "address",
              "name": "principalToken",
              "type": "address"
            },
            {
              "internalType": "uint256",
              "name": "currentPrincipal",
              "type": "uint256"
            },
            {
              "internalType": "uint256",
              "name": "initialPrincipal",
              "type": "uint256"
            },
            {
              "internalType": "uint256",
              "name": "interest",
              "type": "uint256"
            },
            {
              "internalType": "uint256",
              "name": "daysToMaturity",
              "type": "uint256"
            },
            {
              "internalType": "address[]",
              "name": "collateralTokens",
              "type": "address[]"
            },
            {
              "internalType": "uint160",
              "name": "expiresAt",
              "type": "uint160"
            },
            {
              "internalType": "uint160",
              "name": "createdAt",
              "type": "uint160"
            },
            {
              "internalType": "address",
              "name": "lender",
              "type": "address"
            }
          ],
          "internalType": "struct OfferLibrary.LendingOffer",
          "name": "",
          "type": "tuple"
        }
      ],
      "stateMutability": "view",
      "type": "function"
    },
    {
      "inputs": [
        {
          "internalType": "uint256",
          "name": "offerId",
          "type": "uint256"
        }
      ],
      "name": "getBorrowingOffer",
      "outputs": [
        {
          "components": [
            {
              "internalType": "uint256",
              "name": "offerId",
              "type": "uint256"
            },
            {
              "internalType": "address",
              "name": "principalToken",
              "type": "address"
            },
            {
              "internalType": "address",
              "name": "collateralToken",
              "type": "address"
            },
            {
              "internalType": "uint256",
              "name": "currentCollateral",
              "type": "uint256"
            },
            {
              "internalType": "uint256",
              "name": "initialCollateral",
              "type": "uint256"
            },
            {
              "internalType": "uint256",
              "name": "currentPrincipal",
              "type": "uint256"
            },
            {
              "internalType": "uint256",
              "name": "initialPrincipal",
              "type": "uint256"
            },
            {
              "internalType": "uint256",
              "name": "interest",
              "type": "uint256"
            },
            {
              "internalType": "uint256",
              "name": "daysToMaturity",
              "type": "uint256"
            },
            {
              "internalType": "uint160",
              "name": "expiresAt",
              "type": "uint160"
            },
            {
              "internalType": "uint160",
              "name": "createdAt",
              "type": "uint160"
            },
            {
              "internalType": "address",
              "name": "borrower",
              "type": "address"
            }
          ],
          "internalType": "struct OfferLibrary.BorrowingOffer",
          "name": "",
          "type": "tuple"
        }
      ],
      "stateMutability": "view",
      "type": "function"
    },
    {
      "inputs": [
        {
          "internalType": "uint256",
          "name": "requestId",
          "type": "uint256"
        }
      ],
      "name": "getBorrowingRequest",
      "outputs": [
        {
          "components": [
            {
              "internalType": "uint256",
              "name": "requestId",
              "type": "uint256"
            },
            {
              "internalType": "address",
              "name": "collateralToken",
              "type": "address"
            },
            {
              "internalType": "uint256",
              "name": "collateralAmount",
              "type": "uint256"
            },
            {
              "internalType": "uint256",
              "name": "principalAmount",
              "type": "uint256"
            },
            {
              "internalType": "uint256",
              "name": "interest",
              "type": "uint256"
            },
            {
              "internalType": "uint256",
              "name": "daysToMaturity",
              "type": "uint256"
            },
            {
              "internalType": "uint256",
              "name": "expiresAt",
              "type": "uint256"
            },
            {
              "internalType": "uint256",
              "name": "createdAt",
              "type": "uint256"
            },
            {
              "internalType": "address",
              "name": "borrower",
              "type": "address"
            },
            {
              "internalType": "uint256",
              "name": "offerId",
              "type": "uint256"
            }
          ],
          "internalType": "struct RequestLibrary.BorrowingRequest",
          "name": "",
          "type": "tuple"
        }
      ],
      "stateMutability": "view",
      "type": "function"
    },
    {
      "inputs": [
        {
          "internalType": "uint256",
          "name": "requestId",
          "type": "uint256"
        }
      ],
      "name": "getLendingRequest",
      "outputs": [
        {
          "components": [
            {
              "internalType": "uint256",
              "name": "requestId",
              "type": "uint256"
            },
            {
              "internalType": "uint256",
              "name": "interest",
              "type": "uint256"
            },
            {
              "internalType": "uint256",
              "name": "principalAmount",
              "type": "uint256"
            },
            {
              "internalType": "uint16",
              "name": "percentage",
              "type": "uint16"
            },
            {
              "internalType": "uint256",
              "name": "daysToMaturity",
              "type": "uint256"
            },
            {
              "internalType": "uint256",
              "name": "expiresAt",
              "type": "uint256"
            },
            {
              "internalType": "uint256",
              "name": "createdAt",
              "type": "uint256"
            },
            {
              "internalType": "address",
              "name": "lender",
              "type": "address"
            },
            {
              "internalType": "uint256",
              "name": "offerId",
              "type": "uint256"
            }
          ],
          "internalType": "struct RequestLibrary.LendingRequest",
          "name": "",
          "type": "tuple"
        }
      ],
      "stateMutability": "view",
      "type": "function"
    },
    {
      "inputs": [
        {
          "internalType": "address",
          "name": "address_",
          "type": "address"
        }
      ],
      "name": "setLendingPool",
      "outputs": [],
      "stateMutability": "nonpayable",
      "type": "function"
    }
  ],
  "bytecode": "0x6080806040523461006357600180546001600160a01b03199081169091556000805433928116831782556001600160a01b0316907f8be0079c531659141344cd1fd0a4f28419497f9722a3daafe3b4186f6b6457e09080a36115dd90816100698239f35b600080fdfe608080604052600436101561001357600080fd5b60003560e01c9081630836c696146113f557508063113aa8b1146113b257806314c7eb491461128557806324b42bc1146112215780634ca250591461120e578063554bb3d1146110cc57806361a979bf1461103c578063715018a614610fd75780637789f19f14610d5f57806379ba509714610c9c57806380a9600714610c015780638692fe0a14610b495780638da5cb5b14610b20578063a8e2135c146109c5578063ab64a185146107a8578063bf1e6097146105dd578063dbaf4f7f1461023b578063e30c397814610212578063f094cb951461016b5763f2fde38b146100fb57600080fd5b3461016657602036600319011261016657610114611484565b61011c611529565b60018060a01b0380911690816001600160601b0360a01b6001541617600155600054167f38d16b8cac22d99fc7c124b9cd0de2d3fa1faef420bfe791d8c362d765e22700600080a3005b600080fd5b3461016657604036600319011261016657600a5460243590600435906001600160a01b031633036101665780600052600460205281600260406000200154106101cd5760005260046020526101c9600260406000200191825461159a565b9055005b60405162461bcd60e51b815260206004820152601760248201527f4552525f494e53554646494349454e545f414d4f554e540000000000000000006044820152606490fd5b34610166576000366003190112610166576001546040516001600160a01b039091168152602090f35b346101665760e036600319011261016657610254611484565b60a4359067ffffffffffffffff821161016657366023830112156101665781600401359167ffffffffffffffff8311610591578260051b906040519361029d6020840186611507565b84526020840190602482938201019036821161016657602401915b8183106105bd57505060c43590506001600160a01b038116810361016657600a546001600160a01b0316330361016657600160025401928360025560843562015180908181029181830414901517156105a757610322906001600160a01b03908116904216611581565b9060405161032f816114ea565b8581526001600160a01b0382811660208084019182526024356040808601828152606087019283526044356080880190815260643560a0890190815260c089018f81528b891660e08b01524289166101008b01528c89166101208b015260008f8152600497889052949094208951815596516001880180546001600160a01b0319169190991617909755905160028601559151600385015590519183019190915591516005820155905180519067ffffffffffffffff821161059157680100000000000000008211610591576006830154826006850155808310610564575b5060200160068301600052602060002060005b838110610547575050505060e08201516007820180546001600160a01b03199081166001600160a01b03938416179091556101008401516008840180548316918416919091179055610120909301516009909201805490931691811691909117909155604080518781529290911660208301526024359082018190526060820152604435608082015260643560a082015261014060c082018190529551958101869052946101608601939060005b818110610528576001600160a01b0380851660e08a01524281166101008a015285166101208901526020877f773a450e5a0a87893bc3120bbef5e14716fc4bc64deebd4f0589b0d66cd97d138a89038ba1604051908152f35b82516001600160a01b03168652602095860195909201916001016104cf565b82516001600160a01b031681830155602090920191600101610421565b600684016000526020600020908382015b818301811061058557505061040e565b60008155600101610575565b634e487b7160e01b600052604160045260246000fd5b634e487b7160e01b600052601160045260246000fd5b82356001600160a01b0381168103610166578152602092830192016102b8565b346101665760203660031901126101665760006101606040516105ff816114cd565b8281528260208201528260408201528260608201528260808201528260a08201528260c08201528260e0820152826101008201528261012082015282610140820152015260043560005260056020526101806040600020604051610662816114cd565b81549182825260018060a01b03600182015416602083015260018060a01b0360028201541660408301526003810154606083015260048101546080830152600581015460a0830152600681015460c0830152600781015460e0830152600881015461010083015260018060a01b0360098201541661012083015260018060a01b03600a82015416610140830152600b60018060a01b039101541661016082015260405191825260018060a01b03602082015116602083015260018060a01b036040820151166040830152606081015160608301526080810151608083015260a081015160a083015260c081015160c083015260e081015160e083015261010081015161010083015260018060a01b036101208201511661012083015260018060a01b036101408201511661014083015261016060018060a01b0391015116610160820152f35b346101665760203660031901126101665760006101206040516107ca816114ea565b8281528260208201528260408201528260608201528260808201528260a0820152606060c08201528260e0820152826101008201520152600435600052600460205260406000206040519061081e826114ea565b8054825260018060a01b036001820154166020830152600281015460408301526003810154606083015260048101546080830152600581015460a0830152600681016040518082602082945493848152019060005260206000209260005b8181106109a357505061089192500382611507565b60c083015260018060a01b0360078201541660e083015260018060a01b03600882015416610100830152600960018060a01b0391015416610120820152604051602081526101608101918051602083015260018060a01b0360208201511660408301526040810151606083015260608101516080830152608081015160a083015260a081015160c083015260c081015190610140908160e085015282518095526020610180850193016000955b80871061098057505060e08101516001600160a01b03908116610100808701919091528201518116610120808701919091529091015116908301528190039150f35b81516001600160a01b03168552600196909601956020948501949091019061093e565b84546001600160a01b031683526001948501948694506020909301920161087c565b346101665760203660031901126101665760006101206040516109e7816114ea565b8281528260208201528260408201528260608201528260808201528260a08201528260c08201528260e082015282610100820152015260043560005260096020526101406040600020610120604051610a3f816114ea565b600983549384835260018060a01b036001820154166020840152600281015460408401526003810154606084015260048101546080840152600581015460a0840152600681015460c0840152600781015460e084015260018060a01b0360088201541661010084015201548282015260405192835260018060a01b03602082015116602084015260408101516040840152606081015160608401526080810151608084015260a081015160a084015260c081015160c084015260e081015160e084015260018060a01b03610100820151166101008401520151610120820152f35b34610166576000366003190112610166576000546040516001600160a01b039091168152602090f35b34610166576020366003190112610166576004356000526005602052610180604060002080549060018060a01b03908160018201541691806002830154166003830154600484015460058501546006860154916007870154936008880154958760098a01541697600b81600a8c0154169a015416996040519b8c5260208c015260408b015260608a0152608089015260a088015260c087015260e0860152610100850152610120840152610140830152610160820152f35b34610166576020366003190112610166576004356000526009602052610140604060002080549060018060a01b03908160018201541691600282015460038301546004840154600585015491600686015493600960078801549660088901541697015497604051998a5260208a015260408901526060880152608087015260a086015260c085015260e0840152610100830152610120820152f35b34610166576000366003190112610166576001546001600160a01b033381831603610d08576001600160601b0360a01b8092166001556000549133908316176000553391167f8be0079c531659141344cd1fd0a4f28419497f9722a3daafe3b4186f6b6457e0600080a3005b60405162461bcd60e51b815260206004820152602960248201527f4f776e61626c6532537465703a2063616c6c6572206973206e6f7420746865206044820152683732bb9037bbb732b960b91b6064820152608490fd5b346101665761010036600319011261016657610d79611484565b610d8161149a565b60e435919060c4356001600160a01b038416840361016657600a546001600160a01b0316330361016657600160035401928360035562015180918281029281840414901517156105a7576020947f47b49ac21a9fc5263689a6901f4202897e772057da8430a021b88ca76bc086be9361014093610e0b906001600160a01b03908116904216611581565b90604051610e18816114cd565b87815260018060a01b0385168982015260018060a01b0382166040820152604435606082015260443560808201526064358060a083015260c082015260843560e082015260a43561010082015260018060a01b03831661012082015260018060a01b0342168682015260018060a01b0384166101608201528760005260058952604060002081518155600b600182019160018060a01b038c85015116926001600160601b0360a01b93848254161790556002810160018060a01b0360408601511684825416179055606084015160038201556080840151600482015560a0840151600582015560c0840151600682015560e0840151600782015561010084015160088201556009810160018060a01b036101208601511684825416179055600a810160018060a01b038a8601511684825416179055019161016060018060a01b0391015116908254161790556040519387855260018060a01b03168885015260018060a01b031660408401526044356060840152604435608084015260843560a084015260a43560c084015260018060a01b031660e083015260018060a01b03421661010083015260018060a01b0316610120820152a1604051908152f35b3461016657600036600319011261016657610ff0611529565b600180546001600160a01b0319908116909155600080549182168155906001600160a01b03167f8be0079c531659141344cd1fd0a4f28419497f9722a3daafe3b4186f6b6457e08280a3005b346101665760203660031901126101665760043560005260086020526101206040600020805490600181015490600281015461ffff6003830154166004830154600584015491600685015493600860018060a01b0360078801541696015496604051988952602089015260408801526060870152608086015260a085015260c084015260e0830152610100820152f35b34610166576060366003190112610166576004356110e861149a565b600a5460443591906001600160a01b0390811633036101665783600052600460205280600960406000200154169116036101665780600260406000200154116101665761113e600260406000200191825461159a565b905580600052600460205260026040600020015415611163575b602060405160018152f35b6040600020600081556001600081830155600060028301556000600383015560006004830155600060058301556006820180549060008155816111ee575b5050507f33910d348349980653133cceb7aed6e2216c3ef8f0b3dccafe181486a83c730a91600060098382600760409601558260088201550155815190815260006020820152a180611158565b6000526020600020908101905b818110156111a1576000815582016111fb565b3461016657602036600319011261016657005b3461016657606036600319011261016657600a54600435906001600160a01b03163303610166578060005260056020526005604060002001611266602435825461159a565b9055600052600560205260036040600020016101c9604435825461159a565b34610166576020366003190112610166576101206040516112a5816114b0565b6000815260006020820152600060408201526000606082015260006080820152600060a0820152600060c0820152600060e08201526000610100809201526004356000526008602052604060002090604051611300816114b0565b8254928382526001810154906020830191825260028101546040840190815261ffff8060038401541690606086019182526004840154906080870191825260058501549260a0880193845260068601549460c0890195865260018060a01b03978a60088a60078b0154169960e08d019a8b5201549a01998a526040519b8c525160208c01525160408b0152511660608901525160808801525160a08701525160c0860152511660e08401525190820152f35b34610166576020366003190112610166576113cb611484565b6113d3611529565b600a80546001600160a01b0319166001600160a01b0392909216919091179055005b3461016657602036600319011261016657610120906004356000526004602052604060002080549060018060a01b038060018301541660028301546003840154600485015491600586015493856007880154169560098160088a01541698015416978952602089015260408801526060870152608086015260a085015260c084015260e0830152610100820152f35b600435906001600160a01b038216820361016657565b602435906001600160a01b038216820361016657565b610120810190811067ffffffffffffffff82111761059157604052565b610180810190811067ffffffffffffffff82111761059157604052565b610140810190811067ffffffffffffffff82111761059157604052565b90601f8019910116810190811067ffffffffffffffff82111761059157604052565b6000546001600160a01b0316330361153d57565b606460405162461bcd60e51b815260206004820152602060248201527f4f776e61626c653a2063616c6c6572206973206e6f7420746865206f776e65726044820152fd5b6001600160a01b0391821690821601919082116105a757565b919082039182116105a75756fea2646970667358221220a190ccdc3d5a528a2cceb8b1d0c15e8062626826a41456660575fea1a1057b7c64736f6c63430008110033",
  "immutableReferences": {},
  "source": "// SPDX-License-Identifier: GPL-3.0\r\npragma solidity >=0.7.0 <0.9.0;\r\n\r\nimport \"../libraries/AssetLibrary.sol\";\r\nimport \"../libraries/OfferLibrary.sol\";\r\nimport \"../libraries/RequestLibrary.sol\";\r\n\r\nimport \"../interfaces/IOfferManager.sol\";\r\n\r\nimport \"@openzeppelin/contracts/access/Ownable2Step.sol\";\r\nimport \"@openzeppelin/contracts/utils/Counters.sol\";\r\n\r\ncontract OfferManager is IOfferManager, Ownable2Step {\r\n    using Counters for Counters.Counter;\r\n\r\n    // offers\r\n    Counters.Counter private lendingOfferIdTracker;\r\n    Counters.Counter private borrowingOfferIdTracker;\r\n\r\n    mapping(uint256 => OfferLibrary.LendingOffer) public lendingOffers;\r\n    mapping(uint256 => OfferLibrary.BorrowingOffer) public borrowingOffers;\r\n\r\n    // request\r\n    Counters.Counter private lendingRequestIdTracker;\r\n    Counters.Counter private borrowingRequestIdTracker;\r\n\r\n    mapping(uint256 => RequestLibrary.LendingRequest) public lendingRequests;\r\n    mapping(uint256 => RequestLibrary.BorrowingRequest)\r\n        public borrowingRequests;\r\n\r\n    address lendingPool;\r\n\r\n    constructor() Ownable2Step() {}\r\n\r\n    event LendingOfferCreated(\r\n        uint256 offerId,\r\n        address principalToken,\r\n        uint256 currentPrincipal,\r\n        uint256 initialPrincipal,\r\n        uint256 interest,\r\n        uint256 daysToMaturity,\r\n        address[] collateralTokens,\r\n        uint160 expiresAt,\r\n        uint160 createdAt,\r\n        address lender\r\n    );\r\n\r\n    event BorrowingOfferCreated(\r\n        uint256 offerId,\r\n        address principalToken,\r\n        address collateralToken,\r\n        uint256 initialCollateral,\r\n        uint256 currentCollateral,\r\n        uint256 interest,\r\n        uint256 daysToMaturity,\r\n        uint160 expiresAt,\r\n        uint160 createdAt,\r\n        address borrower\r\n    );\r\n\r\n    event OfferClosed(uint256 offerId, OfferLibrary.Type offerType);\r\n\r\n    event RequestClosed(uint256 requestId, RequestLibrary.Type requestType);\r\n\r\n    function createLendingOffer(\r\n        address principalToken,\r\n        uint256 principalAmount,\r\n        uint256 interest,\r\n        uint256 daysToMaturity,\r\n        uint256 daysToExpire,\r\n        address[] memory collateralTokens,\r\n        address lender\r\n    ) public onlyLendingPool returns (uint256) {\r\n        // onlyOwner\r\n        lendingOfferIdTracker.increment();\r\n        uint256 offerId = lendingOfferIdTracker.current();\r\n\r\n        uint160 createdAt = uint160(block.timestamp);\r\n        uint160 duration = uint160((daysToExpire * 1 days));\r\n        uint160 expiresAt = createdAt + duration;\r\n\r\n        lendingOffers[offerId] = OfferLibrary.LendingOffer(\r\n            offerId,\r\n            principalToken,\r\n            principalAmount, // currentPrincipal\r\n            principalAmount, // initialPrincipal\r\n            interest,\r\n            daysToMaturity,\r\n            collateralTokens,\r\n            expiresAt,\r\n            createdAt,\r\n            lender\r\n        );\r\n\r\n        emit LendingOfferCreated(\r\n            offerId,\r\n            principalToken,\r\n            principalAmount, // currentPrincipal\r\n            principalAmount, // initialPrincipal\r\n            interest,\r\n            daysToMaturity,\r\n            collateralTokens,\r\n            expiresAt,\r\n            createdAt,\r\n            lender\r\n        );\r\n\r\n        return offerId;\r\n    }\r\n\r\n    function _afterOfferLendingLoan(uint256 offerId, uint256 principal)\r\n        public\r\n        onlyLendingPool\r\n    {\r\n        require(\r\n            lendingOffers[offerId].currentPrincipal >= principal,\r\n            \"ERR_INSUFFICIENT_AMOUNT\"\r\n        );\r\n        lendingOffers[offerId].currentPrincipal -= principal;\r\n    }\r\n\r\n    function _afterOfferBorrowingLoan(\r\n        uint256 offerId,\r\n        uint256 principal,\r\n        uint256 collateral\r\n    ) public onlyLendingPool {\r\n        borrowingOffers[offerId].currentPrincipal -= principal;\r\n        borrowingOffers[offerId].currentCollateral -= collateral;\r\n    }\r\n\r\n    function createBorrowingOffer(\r\n        address principalToken,\r\n        address collateralToken,\r\n        uint256 collateral,\r\n        uint256 principalNeeded,\r\n        uint256 interest,\r\n        uint256 daysToMaturity,\r\n        uint256 daysToExpire,\r\n        address borrower\r\n    ) public onlyLendingPool returns (uint256) {\r\n        borrowingOfferIdTracker.increment();\r\n        uint256 offerId = borrowingOfferIdTracker.current();\r\n\r\n        uint160 createdAt = uint160(block.timestamp);\r\n        uint160 duration = uint160((daysToExpire * 1 days));\r\n        uint160 expiresAt = createdAt + duration;\r\n\r\n        borrowingOffers[offerId] = OfferLibrary.BorrowingOffer(\r\n            offerId,\r\n            principalToken,\r\n            collateralToken,\r\n            collateral, // currentCollateral\r\n            collateral, // initialCollateral\r\n            principalNeeded, // currentPrincipal\r\n            principalNeeded, // initialPrincipal\r\n            interest,\r\n            daysToMaturity,\r\n            expiresAt,\r\n            createdAt,\r\n            borrower\r\n        );\r\n\r\n        emit BorrowingOfferCreated(\r\n            offerId,\r\n            principalToken,\r\n            collateralToken,\r\n            collateral, // currentCollateral\r\n            collateral, // initialCollateral\r\n            interest,\r\n            daysToMaturity,\r\n            expiresAt,\r\n            createdAt,\r\n            borrower\r\n        );\r\n\r\n        return offerId;\r\n    }\r\n\r\n    function withdrawLendingOffer(\r\n        uint256 offerId,\r\n        address lender,\r\n        uint256 amount\r\n    ) public onlyLendingPool returns (bool) {\r\n        require(lender == lendingOffers[offerId].lender);\r\n        require(lendingOffers[offerId].currentPrincipal <= amount);\r\n        lendingOffers[offerId].currentPrincipal -= amount;\r\n\r\n        if (lendingOffers[offerId].currentPrincipal == 0) {\r\n            delete lendingOffers[offerId];\r\n            emit OfferClosed(offerId, OfferLibrary.Type.LENDING_OFFER);\r\n        }\r\n\r\n        return true;\r\n    }\r\n\r\n    function closeLendingRequest(uint256 requestId) public {}\r\n\r\n    function getLendingOffer(uint256 offerId)\r\n        public\r\n        view\r\n        override\r\n        returns (OfferLibrary.LendingOffer memory)\r\n    {\r\n        return lendingOffers[offerId];\r\n    }\r\n\r\n    function getBorrowingOffer(uint256 offerId)\r\n        public\r\n        view\r\n        override\r\n        returns (OfferLibrary.BorrowingOffer memory)\r\n    {\r\n        return borrowingOffers[offerId];\r\n    }\r\n\r\n    function getBorrowingRequest(uint256 requestId)\r\n        public\r\n        view\r\n        override\r\n        returns (RequestLibrary.BorrowingRequest memory)\r\n    {\r\n        return borrowingRequests[requestId];\r\n    }\r\n\r\n    function getLendingRequest(uint256 requestId)\r\n        public\r\n        view\r\n        override\r\n        returns (RequestLibrary.LendingRequest memory)\r\n    {\r\n        return lendingRequests[requestId];\r\n    }\r\n\r\n    function setLendingPool(address address_) public onlyOwner {\r\n        lendingPool = address_;\r\n    }\r\n\r\n    modifier onlyLendingPool() {\r\n        require(msg.sender == lendingPool);\r\n        _;\r\n    }\r\n}\r\n",
  "sourcePath": "C:\\Users\\DELL\\Documents\\darsh\\smart-contracts\\contracts\\managers\\OfferManager.sol",
  "compiler": {
    "name": "solc",
    "version": "0.8.17+commit.8df45f5f.Emscripten.clang"
  },
  "schemaVersion": "3.4.11",
  "updatedAt": "2023-02-12T13:47:15.246Z",
  "devdoc": {
    "kind": "dev",
    "methods": {
      "acceptOwnership()": {
        "details": "The new owner accepts the ownership transfer."
      },
      "owner()": {
        "details": "Returns the address of the current owner."
      },
      "pendingOwner()": {
        "details": "Returns the address of the pending owner."
      },
      "renounceOwnership()": {
        "details": "Leaves the contract without owner. It will not be possible to call `onlyOwner` functions anymore. Can only be called by the current owner. NOTE: Renouncing ownership will leave the contract without an owner, thereby removing any functionality that is only available to the owner."
      },
      "transferOwnership(address)": {
        "details": "Starts the ownership transfer of the contract to a new account. Replaces the pending transfer if there is one. Can only be called by the current owner."
      }
    },
    "version": 1
  },
  "userdoc": {
    "kind": "user",
    "methods": {},
    "version": 1
  }
}