{
  "contractName": "OfferManager",
  "abi": [
    {
      "inputs": [],
      "stateMutability": "nonpayable",
      "type": "constructor"
    },
    {
      "anonymous": false,
      "inputs": [
        {
          "indexed": false,
          "internalType": "uint160",
          "name": "offerId",
          "type": "uint160"
        },
        {
          "indexed": false,
          "internalType": "address",
          "name": "principalToken",
          "type": "address"
        },
        {
          "indexed": false,
          "internalType": "address",
          "name": "collateralToken",
          "type": "address"
        },
        {
          "indexed": false,
          "internalType": "uint256",
          "name": "initialCollateral",
          "type": "uint256"
        },
        {
          "indexed": false,
          "internalType": "uint256",
          "name": "currentCollateral",
          "type": "uint256"
        },
        {
          "indexed": false,
          "internalType": "uint256",
          "name": "interest",
          "type": "uint256"
        },
        {
          "indexed": false,
          "internalType": "uint16",
          "name": "daysToMaturity",
          "type": "uint16"
        },
        {
          "indexed": false,
          "internalType": "uint160",
          "name": "expiresAt",
          "type": "uint160"
        },
        {
          "indexed": false,
          "internalType": "uint160",
          "name": "createdAt",
          "type": "uint160"
        },
        {
          "indexed": false,
          "internalType": "address",
          "name": "borrower",
          "type": "address"
        }
      ],
      "name": "BorrowingOfferCreated",
      "type": "event"
    },
    {
      "anonymous": false,
      "inputs": [
        {
          "indexed": false,
          "internalType": "uint160",
          "name": "offerId",
          "type": "uint160"
        },
        {
          "indexed": false,
          "internalType": "address",
          "name": "principalToken",
          "type": "address"
        },
        {
          "indexed": false,
          "internalType": "uint256",
          "name": "currentPrincipal",
          "type": "uint256"
        },
        {
          "indexed": false,
          "internalType": "uint256",
          "name": "initialPrincipal",
          "type": "uint256"
        },
        {
          "indexed": false,
          "internalType": "uint256",
          "name": "interest",
          "type": "uint256"
        },
        {
          "indexed": false,
          "internalType": "uint16",
          "name": "daysToMaturity",
          "type": "uint16"
        },
        {
          "indexed": false,
          "internalType": "address[]",
          "name": "collateralTokens",
          "type": "address[]"
        },
        {
          "indexed": false,
          "internalType": "uint160",
          "name": "expiresAt",
          "type": "uint160"
        },
        {
          "indexed": false,
          "internalType": "uint160",
          "name": "createdAt",
          "type": "uint160"
        },
        {
          "indexed": false,
          "internalType": "address",
          "name": "lender",
          "type": "address"
        }
      ],
      "name": "LendingOfferCreated",
      "type": "event"
    },
    {
      "anonymous": false,
      "inputs": [
        {
          "indexed": false,
          "internalType": "uint160",
          "name": "offerId",
          "type": "uint160"
        },
        {
          "indexed": false,
          "internalType": "enum OfferLibrary.Type",
          "name": "offerType",
          "type": "uint8"
        }
      ],
      "name": "OfferClosed",
      "type": "event"
    },
    {
      "anonymous": false,
      "inputs": [
        {
          "indexed": true,
          "internalType": "address",
          "name": "previousOwner",
          "type": "address"
        },
        {
          "indexed": true,
          "internalType": "address",
          "name": "newOwner",
          "type": "address"
        }
      ],
      "name": "OwnershipTransferStarted",
      "type": "event"
    },
    {
      "anonymous": false,
      "inputs": [
        {
          "indexed": true,
          "internalType": "address",
          "name": "previousOwner",
          "type": "address"
        },
        {
          "indexed": true,
          "internalType": "address",
          "name": "newOwner",
          "type": "address"
        }
      ],
      "name": "OwnershipTransferred",
      "type": "event"
    },
    {
      "anonymous": false,
      "inputs": [
        {
          "indexed": false,
          "internalType": "uint256",
          "name": "requestId",
          "type": "uint256"
        },
        {
          "indexed": false,
          "internalType": "enum RequestLibrary.Type",
          "name": "requestType",
          "type": "uint8"
        }
      ],
      "name": "RequestClosed",
      "type": "event"
    },
    {
      "inputs": [],
      "name": "acceptOwnership",
      "outputs": [],
      "stateMutability": "nonpayable",
      "type": "function"
    },
    {
      "inputs": [
        {
          "internalType": "uint256",
          "name": "",
          "type": "uint256"
        }
      ],
      "name": "borrowingOffers",
      "outputs": [
        {
          "internalType": "uint160",
          "name": "offerId",
          "type": "uint160"
        },
        {
          "internalType": "address",
          "name": "principalToken",
          "type": "address"
        },
        {
          "internalType": "address",
          "name": "collateralToken",
          "type": "address"
        },
        {
          "internalType": "uint256",
          "name": "currentCollateral",
          "type": "uint256"
        },
        {
          "internalType": "uint256",
          "name": "initialCollateral",
          "type": "uint256"
        },
        {
          "internalType": "uint256",
          "name": "currentPrincipal",
          "type": "uint256"
        },
        {
          "internalType": "uint256",
          "name": "initialPrincipal",
          "type": "uint256"
        },
        {
          "internalType": "uint256",
          "name": "interest",
          "type": "uint256"
        },
        {
          "internalType": "uint16",
          "name": "daysToMaturity",
          "type": "uint16"
        },
        {
          "internalType": "uint160",
          "name": "expiresAt",
          "type": "uint160"
        },
        {
          "internalType": "uint160",
          "name": "createdAt",
          "type": "uint160"
        },
        {
          "internalType": "address",
          "name": "borrower",
          "type": "address"
        }
      ],
      "stateMutability": "view",
      "type": "function"
    },
    {
      "inputs": [
        {
          "internalType": "uint256",
          "name": "",
          "type": "uint256"
        }
      ],
      "name": "borrowingRequests",
      "outputs": [
        {
          "internalType": "uint160",
          "name": "requestId",
          "type": "uint160"
        },
        {
          "internalType": "uint16",
          "name": "percentage",
          "type": "uint16"
        },
        {
          "internalType": "address",
          "name": "collateralToken",
          "type": "address"
        },
        {
          "internalType": "uint256",
          "name": "collateralAmount",
          "type": "uint256"
        },
        {
          "internalType": "uint256",
          "name": "collateralPriceInUSD",
          "type": "uint256"
        },
        {
          "internalType": "uint16",
          "name": "daysToMaturity",
          "type": "uint16"
        },
        {
          "internalType": "uint160",
          "name": "expiresAt",
          "type": "uint160"
        },
        {
          "internalType": "uint256",
          "name": "interest",
          "type": "uint256"
        },
        {
          "internalType": "uint160",
          "name": "createdAt",
          "type": "uint160"
        },
        {
          "internalType": "address",
          "name": "borrower",
          "type": "address"
        },
        {
          "internalType": "uint160",
          "name": "offerId",
          "type": "uint160"
        }
      ],
      "stateMutability": "view",
      "type": "function"
    },
    {
      "inputs": [
        {
          "internalType": "uint256",
          "name": "",
          "type": "uint256"
        }
      ],
      "name": "lendingOffers",
      "outputs": [
        {
          "internalType": "uint160",
          "name": "offerId",
          "type": "uint160"
        },
        {
          "internalType": "address",
          "name": "principalToken",
          "type": "address"
        },
        {
          "internalType": "uint256",
          "name": "currentPrincipal",
          "type": "uint256"
        },
        {
          "internalType": "uint256",
          "name": "initialPrincipal",
          "type": "uint256"
        },
        {
          "internalType": "uint256",
          "name": "interest",
          "type": "uint256"
        },
        {
          "internalType": "uint16",
          "name": "daysToMaturity",
          "type": "uint16"
        },
        {
          "internalType": "uint160",
          "name": "expiresAt",
          "type": "uint160"
        },
        {
          "internalType": "uint160",
          "name": "createdAt",
          "type": "uint160"
        },
        {
          "internalType": "address",
          "name": "lender",
          "type": "address"
        }
      ],
      "stateMutability": "view",
      "type": "function"
    },
    {
      "inputs": [
        {
          "internalType": "uint256",
          "name": "",
          "type": "uint256"
        }
      ],
      "name": "lendingRequests",
      "outputs": [
        {
          "internalType": "uint160",
          "name": "requestId",
          "type": "uint160"
        },
        {
          "internalType": "uint16",
          "name": "percentage",
          "type": "uint16"
        },
        {
          "internalType": "uint16",
          "name": "daysToMaturity",
          "type": "uint16"
        },
        {
          "internalType": "uint160",
          "name": "expiresAt",
          "type": "uint160"
        },
        {
          "internalType": "uint256",
          "name": "interest",
          "type": "uint256"
        },
        {
          "internalType": "uint160",
          "name": "createdAt",
          "type": "uint160"
        },
        {
          "internalType": "address",
          "name": "lender",
          "type": "address"
        },
        {
          "internalType": "uint160",
          "name": "offerId",
          "type": "uint160"
        }
      ],
      "stateMutability": "view",
      "type": "function"
    },
    {
      "inputs": [],
      "name": "owner",
      "outputs": [
        {
          "internalType": "address",
          "name": "",
          "type": "address"
        }
      ],
      "stateMutability": "view",
      "type": "function"
    },
    {
      "inputs": [],
      "name": "pendingOwner",
      "outputs": [
        {
          "internalType": "address",
          "name": "",
          "type": "address"
        }
      ],
      "stateMutability": "view",
      "type": "function"
    },
    {
      "inputs": [],
      "name": "renounceOwnership",
      "outputs": [],
      "stateMutability": "nonpayable",
      "type": "function"
    },
    {
      "inputs": [
        {
          "internalType": "address",
          "name": "newOwner",
          "type": "address"
        }
      ],
      "name": "transferOwnership",
      "outputs": [],
      "stateMutability": "nonpayable",
      "type": "function"
    },
    {
      "inputs": [
        {
          "internalType": "address",
          "name": "principalToken",
          "type": "address"
        },
        {
          "internalType": "uint256",
          "name": "principalAmount",
          "type": "uint256"
        },
        {
          "internalType": "uint256",
          "name": "interest",
          "type": "uint256"
        },
        {
          "internalType": "uint16",
          "name": "daysToMaturity",
          "type": "uint16"
        },
        {
          "internalType": "uint16",
          "name": "daysToExpire",
          "type": "uint16"
        },
        {
          "internalType": "address[]",
          "name": "collateralTokens",
          "type": "address[]"
        },
        {
          "internalType": "address",
          "name": "lender",
          "type": "address"
        }
      ],
      "name": "createLendingOffer",
      "outputs": [
        {
          "internalType": "uint160",
          "name": "",
          "type": "uint160"
        }
      ],
      "stateMutability": "nonpayable",
      "type": "function"
    },
    {
      "inputs": [
        {
          "internalType": "uint16",
          "name": "percentage",
          "type": "uint16"
        },
        {
          "internalType": "uint256",
          "name": "interest",
          "type": "uint256"
        },
        {
          "internalType": "uint16",
          "name": "daysToMaturity",
          "type": "uint16"
        },
        {
          "internalType": "uint16",
          "name": "daysToExpire",
          "type": "uint16"
        },
        {
          "internalType": "address",
          "name": "lender",
          "type": "address"
        },
        {
          "internalType": "uint160",
          "name": "offerId",
          "type": "uint160"
        }
      ],
      "name": "createLendingRequest",
      "outputs": [
        {
          "internalType": "uint160",
          "name": "",
          "type": "uint160"
        }
      ],
      "stateMutability": "nonpayable",
      "type": "function"
    },
    {
      "inputs": [
        {
          "internalType": "address",
          "name": "principalToken",
          "type": "address"
        },
        {
          "internalType": "address",
          "name": "collateralToken",
          "type": "address"
        },
        {
          "internalType": "uint256",
          "name": "collateralAmount",
          "type": "uint256"
        },
        {
          "internalType": "uint256",
          "name": "principalAmount",
          "type": "uint256"
        },
        {
          "internalType": "uint256",
          "name": "interest",
          "type": "uint256"
        },
        {
          "internalType": "uint16",
          "name": "daysToMaturity",
          "type": "uint16"
        },
        {
          "internalType": "uint16",
          "name": "daysToExpire",
          "type": "uint16"
        },
        {
          "internalType": "address",
          "name": "borrower",
          "type": "address"
        }
      ],
      "name": "createBorrowingOffer",
      "outputs": [
        {
          "internalType": "uint160",
          "name": "",
          "type": "uint160"
        }
      ],
      "stateMutability": "nonpayable",
      "type": "function"
    },
    {
      "inputs": [
        {
          "internalType": "uint16",
          "name": "percentage",
          "type": "uint16"
        },
        {
          "internalType": "address",
          "name": "collateralToken",
          "type": "address"
        },
        {
          "internalType": "uint256",
          "name": "collateralAmount",
          "type": "uint256"
        },
        {
          "internalType": "uint256",
          "name": "collateralPriceInUSD",
          "type": "uint256"
        },
        {
          "internalType": "uint256",
          "name": "interest",
          "type": "uint256"
        },
        {
          "internalType": "uint16",
          "name": "daysToMaturity",
          "type": "uint16"
        },
        {
          "internalType": "uint16",
          "name": "daysToExpire",
          "type": "uint16"
        },
        {
          "internalType": "address",
          "name": "borrower",
          "type": "address"
        },
        {
          "internalType": "uint160",
          "name": "offerId",
          "type": "uint160"
        }
      ],
      "name": "createBorrowingRequest",
      "outputs": [
        {
          "internalType": "uint160",
          "name": "",
          "type": "uint160"
        }
      ],
      "stateMutability": "nonpayable",
      "type": "function"
    },
    {
      "inputs": [
        {
          "internalType": "uint160",
          "name": "offerId",
          "type": "uint160"
        },
        {
          "internalType": "uint256",
          "name": "principalAmount",
          "type": "uint256"
        }
      ],
      "name": "_afterOfferLendingLoan",
      "outputs": [],
      "stateMutability": "nonpayable",
      "type": "function"
    },
    {
      "inputs": [
        {
          "internalType": "uint160",
          "name": "offerId",
          "type": "uint160"
        },
        {
          "internalType": "uint256",
          "name": "principalAmount",
          "type": "uint256"
        },
        {
          "internalType": "uint256",
          "name": "collateralAmount",
          "type": "uint256"
        }
      ],
      "name": "_afterOfferBorrowingLoan",
      "outputs": [],
      "stateMutability": "nonpayable",
      "type": "function"
    },
    {
      "inputs": [
        {
          "internalType": "uint160",
          "name": "offerId",
          "type": "uint160"
        },
        {
          "internalType": "address",
          "name": "token",
          "type": "address"
        }
      ],
      "name": "isCollateralSupported",
      "outputs": [
        {
          "internalType": "bool",
          "name": "",
          "type": "bool"
        }
      ],
      "stateMutability": "view",
      "type": "function"
    },
    {
      "inputs": [
        {
          "internalType": "uint160",
          "name": "offerId",
          "type": "uint160"
        }
      ],
      "name": "getLendingOffer",
      "outputs": [
        {
          "components": [
            {
              "internalType": "uint160",
              "name": "offerId",
              "type": "uint160"
            },
            {
              "internalType": "address",
              "name": "principalToken",
              "type": "address"
            },
            {
              "internalType": "uint256",
              "name": "currentPrincipal",
              "type": "uint256"
            },
            {
              "internalType": "uint256",
              "name": "initialPrincipal",
              "type": "uint256"
            },
            {
              "internalType": "uint256",
              "name": "interest",
              "type": "uint256"
            },
            {
              "internalType": "uint16",
              "name": "daysToMaturity",
              "type": "uint16"
            },
            {
              "internalType": "address[]",
              "name": "collateralTokens",
              "type": "address[]"
            },
            {
              "internalType": "uint160",
              "name": "expiresAt",
              "type": "uint160"
            },
            {
              "internalType": "uint160",
              "name": "createdAt",
              "type": "uint160"
            },
            {
              "internalType": "address",
              "name": "lender",
              "type": "address"
            }
          ],
          "internalType": "struct OfferLibrary.LendingOffer",
          "name": "",
          "type": "tuple"
        }
      ],
      "stateMutability": "view",
      "type": "function"
    },
    {
      "inputs": [
        {
          "internalType": "uint160",
          "name": "offerId",
          "type": "uint160"
        }
      ],
      "name": "getBorrowingOffer",
      "outputs": [
        {
          "components": [
            {
              "internalType": "uint160",
              "name": "offerId",
              "type": "uint160"
            },
            {
              "internalType": "address",
              "name": "principalToken",
              "type": "address"
            },
            {
              "internalType": "address",
              "name": "collateralToken",
              "type": "address"
            },
            {
              "internalType": "uint256",
              "name": "currentCollateral",
              "type": "uint256"
            },
            {
              "internalType": "uint256",
              "name": "initialCollateral",
              "type": "uint256"
            },
            {
              "internalType": "uint256",
              "name": "currentPrincipal",
              "type": "uint256"
            },
            {
              "internalType": "uint256",
              "name": "initialPrincipal",
              "type": "uint256"
            },
            {
              "internalType": "uint256",
              "name": "interest",
              "type": "uint256"
            },
            {
              "internalType": "uint16",
              "name": "daysToMaturity",
              "type": "uint16"
            },
            {
              "internalType": "uint160",
              "name": "expiresAt",
              "type": "uint160"
            },
            {
              "internalType": "uint160",
              "name": "createdAt",
              "type": "uint160"
            },
            {
              "internalType": "address",
              "name": "borrower",
              "type": "address"
            }
          ],
          "internalType": "struct OfferLibrary.BorrowingOffer",
          "name": "",
          "type": "tuple"
        }
      ],
      "stateMutability": "view",
      "type": "function"
    },
    {
      "inputs": [
        {
          "internalType": "uint256",
          "name": "requestId",
          "type": "uint256"
        }
      ],
      "name": "getBorrowingRequest",
      "outputs": [
        {
          "components": [
            {
              "internalType": "uint160",
              "name": "requestId",
              "type": "uint160"
            },
            {
              "internalType": "uint16",
              "name": "percentage",
              "type": "uint16"
            },
            {
              "internalType": "address",
              "name": "collateralToken",
              "type": "address"
            },
            {
              "internalType": "uint256",
              "name": "collateralAmount",
              "type": "uint256"
            },
            {
              "internalType": "uint256",
              "name": "collateralPriceInUSD",
              "type": "uint256"
            },
            {
              "internalType": "uint16",
              "name": "daysToMaturity",
              "type": "uint16"
            },
            {
              "internalType": "uint160",
              "name": "expiresAt",
              "type": "uint160"
            },
            {
              "internalType": "uint256",
              "name": "interest",
              "type": "uint256"
            },
            {
              "internalType": "uint160",
              "name": "createdAt",
              "type": "uint160"
            },
            {
              "internalType": "address",
              "name": "borrower",
              "type": "address"
            },
            {
              "internalType": "uint160",
              "name": "offerId",
              "type": "uint160"
            }
          ],
          "internalType": "struct RequestLibrary.BorrowingRequest",
          "name": "",
          "type": "tuple"
        }
      ],
      "stateMutability": "view",
      "type": "function"
    },
    {
      "inputs": [
        {
          "internalType": "uint256",
          "name": "requestId",
          "type": "uint256"
        }
      ],
      "name": "getLendingRequest",
      "outputs": [
        {
          "components": [
            {
              "internalType": "uint160",
              "name": "requestId",
              "type": "uint160"
            },
            {
              "internalType": "uint16",
              "name": "percentage",
              "type": "uint16"
            },
            {
              "internalType": "uint16",
              "name": "daysToMaturity",
              "type": "uint16"
            },
            {
              "internalType": "uint160",
              "name": "expiresAt",
              "type": "uint160"
            },
            {
              "internalType": "uint256",
              "name": "interest",
              "type": "uint256"
            },
            {
              "internalType": "uint160",
              "name": "createdAt",
              "type": "uint160"
            },
            {
              "internalType": "address",
              "name": "lender",
              "type": "address"
            },
            {
              "internalType": "uint160",
              "name": "offerId",
              "type": "uint160"
            }
          ],
          "internalType": "struct RequestLibrary.LendingRequest",
          "name": "",
          "type": "tuple"
        }
      ],
      "stateMutability": "view",
      "type": "function"
    },
    {
      "inputs": [
        {
          "internalType": "address",
          "name": "address_",
          "type": "address"
        }
      ],
      "name": "setLendingPool",
      "outputs": [],
      "stateMutability": "nonpayable",
      "type": "function"
    }
  ],
  "bytecode": "0x6080806040523461006357600180546001600160a01b03199081169091556000805433928116831782556001600160a01b0316907f8be0079c531659141344cd1fd0a4f28419497f9722a3daafe3b4186f6b6457e09080a3611d5590816100698239f35b600080fdfe608080604052600436101561001357600080fd5b60003560e01c9081630836c6961461174257508063113aa8b1146116ff57806314c7eb49146115b057806319cec432146114735780632bdd7c771461135c5780634e1df7431461127257806361a979bf146111e6578063715018a61461118157806379ba5097146110be57806380a960071461100b5780638692fe0a14610f505780638da5cb5b14610f2757806390d870d214610ce357806399ee65e214610c33578063a8e2135c14610a67578063ab488b0b1461082c578063aba001ed14610565578063c44df34014610235578063d0dd83031461019f578063e30c3978146101765763f2fde38b1461010657600080fd5b346101715760203660031901126101715761011f6117d8565b6101276118f4565b60018060a01b0380911690816001600160601b0360a01b6001541617600155600054167f38d16b8cac22d99fc7c124b9cd0de2d3fa1faef420bfe791d8c362d765e22700600080a3005b600080fd5b34610171576000366003190112610171576001546040516001600160a01b039091168152602090f35b34610171576040366003190112610171576101b86117d8565b600a546001600160a01b0391906024359083163303610171578261022d9161023394841680600052600460205261020b6040600020936101fe8460028701541015611c86565b6007850154164210611cd2565b60005260046020526102266002604060002001918254611d12565b905561197e565b90611af1565b005b346101715760e03660031901126101715761024e6117d8565b61025661184d565b6084359061ffff821682036101715760a4359067ffffffffffffffff8211610171573660238301121561017157816004013567ffffffffffffffff811161052f57604051928160051b916102ad60208401866118d2565b8452602460208501928201019036821161017157602401915b81831061054557505060c4359290506001600160a01b038316830361017157600a546001600160a01b031633036101715761ffff61032662ffffff6103168360016002540198896002551661194c565b16426001600160a01b0316611965565b92604051966103348861187b565b6001600160a01b0387811689529081166020808a019182526024356040808c0182815260608d0192835260443560808e019081529790961660a08d0190815260c08d0198895298851660e08d01524285166101008d01529884166101208c015260008a8152600492839052989098208a5181546001600160a01b031990811691861691909117825592516001820180549094169416939093179091559151600282015594516003860155905190840155905160058301805461ffff191661ffff929092169190911790555180519193919067ffffffffffffffff821161052f5768010000000000000000821161052f576006850154826006870155808310610502575b5060200160068501600052602060002060005b8381106104e55760e08501516007880180546001600160a01b039283166001600160a01b03199182161790915561010087015160088a01805491841691831691909117905561012087015160098a018054919093169116179055600086815260046020908152604090912087906104d3906104c49061197e565b6001600160a01b038316611af1565b6040516001600160a01b039091168152f35b82516001600160a01b03168183015560209092019160010161044a565b600686016000526020600020908382015b8183018110610523575050610437565b60008155600101610513565b634e487b7160e01b600052604160045260246000fd5b82356001600160a01b0381168103610171578152602092830192016102c6565b34610171576101203660031901126101715761057f61183c565b6105876117ee565b61058f61181a565b9161059861182b565b916105a1611804565b61010435916001600160a01b038316830361017157600a546001600160a01b031633036101715761ffff6020966105ea62ffffff610316846001600754019a8b6007551661194c565b9282604051976105f9896118b5565b6001600160a01b038a81168a5291168a89019081529181166040808a019190915260443560608a015260643560808a01529390921660a08881019190915293821660c088015260843560e08801524282166101008801529381166101208701529384166101408601819052600090815260098852208451815493516001600160b01b031990941694169390931791901b61ffff60a01b1617815560089060408301516001820180546001600160a01b039092166001600160a01b0319909216919091179055606083015160028201556080830151600382015560a083015160048201805460c086015162010000600160b01b0360109190911b1661ffff9093166001600160b01b03199091161791909117905560e083015160058201556006810160018060a01b03610100850151166001600160601b0360a01b8254161790556007810160018060a01b03610120850151166001600160601b0360a01b825416179055019061014060018060a01b03910151166001600160601b0360a01b82541617905580600052604060002061014060405191610796836118b5565b80546001600160a01b03808216855261ffff60a092831c81168887015260018401548216604080880191909152600285015460608801526003850154608088015260048501549182169387019390935260101c811660c0860152600583015460e0860152600683015481166101008601526007830154811661012086015260089092015482169290930191909152905191168152f35b346101715760c03660031901126101715761084561183c565b6044359061ffff821682036101715761085c61184d565b90608435906001600160a01b03821682036101715760a435916001600160a01b038316830361017157600a546001600160a01b03163303610171576020946005916108bb62ffffff61031661ffff600160065401998a6006551661194c565b91604051926108c98461185e565b6001600160a01b03888116855261ffff9687168a8601908152929096166040808601918252918716606086019081526024356080870190815242891660a0888101918252968a1660c089019081529a8a1660e08901818152600091825260088f529590209751885496516001600160b01b03199097169a16999099179490951b61ffff60a01b1693909317855590966001600160a01b03199690939092909151855461ffff60b01b191660b09190911b61ffff60b01b161785555160018501805488166001600160a01b039283161790559051600285015590516003840180548716918316919091179055905160048301805486169183169190911790559351910180549092169216919091179055600081815260409081902090519060e0906109f28361185e565b80546001600160a01b03808216855261ffff60a083811c82168988015260b09390931c166040808701919091526001840154821660608701526002840154608087015260038401548216928601929092526004830154811660c086015260059092015482169290930191909152905191168152f35b34610171576020366003190112610171576000610140604051610a89816118b5565b8281528260208201528260408201528260608201528260808201528260a08201528260c08201528260e08201528261010082015282610120820152015260043560005260096020526101606040600020604051610ae5816118b5565b81549160018060a01b038316825261ffff8360a01c16602083015260018060a01b0360018201541660408301526002810154606083015260038101546080830152600481015461ffff811660a084015260018060a01b039060101c1660c0830152600581015460e083015260018060a01b0360068201541661010083015260018060a01b03600782015416610120830152600860018060a01b03910154166101408201526040519160018060a01b0316825261ffff602082015116602083015260018060a01b036040820151166040830152606081015160608301526080810151608083015261ffff60a08201511660a083015260018060a01b0360c08201511660c083015260e081015160e083015260018060a01b036101008201511661010083015260018060a01b036101208201511661012083015261014060018060a01b0391015116610140820152f35b3461017157604036600319011261017157610c4c6117d8565b610c546117ee565b9060018060a01b0380911660005260209060048252610c76604060002061197e565b60c001928116906000805b85518051821015610cd757838686928460051b0101511614610cc4576000198114610cae57600101610c81565b634e487b7160e01b600052601160045260246000fd5b50505050905060015b6040519015158152f35b50509293505050610ccd565b346101715761010036600319011261017157610cfd6117d8565b610d056117ee565b610d0d61181a565b91610d1661182b565b91610d1f611804565b600a549091906001600160a01b031633036101715761ffff602095610d5662ffffff61031684600160035401998a6003551661194c565b9260405195610d6487611898565b60018060a01b038816875260018060a01b03168887015260018060a01b0316604086015260443580606087015260808601526064358060a087015260c086015260843560e08601521661010084015260018060a01b031661012083015260018060a01b03421661014083015260018060a01b03166101608201528160005260058352600a604060002060018060a01b038351166001600160601b0360a01b8254161781556001810160018060a01b0386850151166001600160601b0360a01b8254161790556002810160018060a01b036040850151166001600160601b0360a01b825416179055606083015160038201556080830151600482015560a0830151600582015560c0830151600682015560e08301516007820155610eca6008820161ffff6101008601511661ffff1982541617815560018060a01b036101208601511681549062010000600160b01b039060101b169062010000600160b01b031916179055565b6101408301516009820180546001600160a01b03199081166001600160a01b039384161790915561016090940151929091018054909316911617905560406000206104d390610f1890611a52565b6001600160a01b038316611bdc565b34610171576000366003190112610171576000546040516001600160a01b039091168152602090f35b34610171576020366003190112610171576004356000526005602052610180604060002060018060a01b03808254169181600182015416918060028301541660038301546004840154600585015460068601549160078701549360088801549587600a8160098c0154169a015416996040519b8c5260208c015260408b015260608a0152608089015260a088015260c087015260e086015261ffff811661010086015260101c16610120840152610140830152610160820152f35b346101715760203660031901126101715760043560005260096020526101606040600020805460018060a01b03918260018201541692600282015492600383015491600484015460058501549282600687015416948360088160078a0154169801541697604051998584168b5261ffff809460a01c1660208c015260408b015260608a01526080890152811660a088015260101c1660c086015260e0850152610100840152610120830152610140820152f35b34610171576000366003190112610171576001546001600160a01b03338183160361112a576001600160601b0360a01b8092166001556000549133908316176000553391167f8be0079c531659141344cd1fd0a4f28419497f9722a3daafe3b4186f6b6457e0600080a3005b60405162461bcd60e51b815260206004820152602960248201527f4f776e61626c6532537465703a2063616c6c6572206973206e6f7420746865206044820152683732bb9037bbb732b960b91b6064820152608490fd5b346101715760003660031901126101715761119a6118f4565b600180546001600160a01b0319908116909155600080549182168155906001600160a01b03167f8be0079c531659141344cd1fd0a4f28419497f9722a3daafe3b4186f6b6457e08280a3005b346101715760203660031901126101715760043560005260086020526101006040600020805460018060a01b03918260018201541660028201548460038401541691856005816004870154169501541694604051968116875261ffff90818160a01c16602089015260b01c1660408701526060860152608085015260a084015260c083015260e0820152f35b346101715760603660031901126101715761128b6117d8565b600a546001600160a01b03919060243590604435908416330361017157838316600052600560205260406000209060058201908154906112cd85831015611c86565b6003840192835490828210611317576113036113119761130a956112fe6102339c60088b015460101c164210611cd2565b611d12565b9055611d12565b9055611a52565b90611bdc565b60405162461bcd60e51b815260206004820152601b60248201527f4552525f494e53554646494349454e545f434f4c4c41544552414c00000000006044820152606490fd5b34610171576020366003190112610171576101806113786117d8565b60006040519161138783611898565b8183528160208401528160408401528160608401528160808401528160a08401528160c08401528160e08401526101009282848201526101208381830152610140848184015261016094858094015260018060a01b0380941660005260056020526113f56040600020611a52565b9160405196858451168852856020850151166020890152856040850151166040890152606084015160608901526080840151608089015260a084015160a089015260c084015160c089015260e084015160e089015261ffff818501511690880152848184015116908701528381830151169086015201511690820152f35b34610171576020806003193601126101715761148d6117d8565b906040519061149b8261187b565b60008252600081830152600060408301526000606083015260006080830152600060a0830152606060c0830152600060e08301526101009260008484015260006101208094015260018060a01b0380911660005260048252611500604060002061197e565b9060405193838552610160850192828151168587015282858201511660408701526040810151606087015260608101516080870152608081015160a087015261ffff60a08201511660c087015260c081015194610140948560e0890152865180915281610180890197019160005b82811061159a57505050508286978160e084015116818901528201511682870152015116908301520390f35b835187168952978101979281019260010161156e565b3461017157602036600319011261017157600060e06040516115d18161185e565b8281528260208201528260408201528260608201528260808201528260a08201528260c08201520152600435600052600860205261010060406000206040516116198161185e565b81549160018060a01b03831692838352602083019061ffff808260a01c16835280604086019260b01c16825260018060a01b036001850154169060608601918252600285015492608087019384528160018060a01b036003880154169560a0890196875260018060a01b036004890154169760c08a01988952600560018060a01b039101541660e08a0152604051998a52511660208901525116604087015260018060a01b03905116606086015251608085015260018060a01b0390511660a084015260018060a01b0390511660c083015260e060018060a01b039101511660e0820152f35b34610171576020366003190112610171576117186117d8565b6117206118f4565b600a80546001600160a01b0319166001600160a01b0392909216919091179055005b3461017157602036600319011261017157610120906004356000526004602052604060002060018060a01b03908181541691806001830154166002830154600384015460048501549161ffff60058701541693856007880154169560098160088a01541698015416978952602089015260408801526060870152608086015260a085015260c084015260e0830152610100820152f35b600435906001600160a01b038216820361017157565b602435906001600160a01b038216820361017157565b60e435906001600160a01b038216820361017157565b60a4359061ffff8216820361017157565b60c4359061ffff8216820361017157565b6004359061ffff8216820361017157565b6064359061ffff8216820361017157565b610100810190811067ffffffffffffffff82111761052f57604052565b610140810190811067ffffffffffffffff82111761052f57604052565b610180810190811067ffffffffffffffff82111761052f57604052565b610160810190811067ffffffffffffffff82111761052f57604052565b90601f8019910116810190811067ffffffffffffffff82111761052f57604052565b6000546001600160a01b0316330361190857565b606460405162461bcd60e51b815260206004820152602060248201527f4f776e61626c653a2063616c6c6572206973206e6f7420746865206f776e65726044820152fd5b906201518062ffffff80931602918216918203610cae57565b6001600160a01b039182169082160191908211610cae57565b9060405161198b8161187b565b809260018060a01b039081815416835260018281830154166020908186015260028301546040860152600383015460608601526004830154608086015261ffff60058401541660a08601526006830190604051928382845491828152019360005282600020926000905b828210611a3b5750505050509181611a15600993610120969503826118d2565b60c08601528260078201541660e086015282600882015416610100860152015416910152565b8454891686529485019493830193908301906119f5565b90604051611a5f81611898565b82546001600160a01b0390811682526001840154811660208301526002840154811660408301526003840154606083015260048401546080830152600584015460a0830152600684015460c0830152600784015460e0830152600884015461ffff811661010084015260101c811661012083015260098401548116610140830152600a90930154909216610160830152565b9060018060a01b036020918183820151169160408201519460608301519360808401519261ffff60a0860151169260c0860151978260e088015116936101009584878a0151169785610120809b0151169a60606040519e8f90610140968a8884019a168352888301526040820152015260808d015260a08c015260c08b01528851809252806101608b019901926000905b838210611bc357505050505060e08701528501528301527fc715f037642d98c9791f31ffd37dd23c8be8c598725b581a195317783ca38305919081900390a1565b845181168b529982019993820193600190910190611b82565b907f41f66277e746afc60d82e046fc0fbdc42baff107c9ed570ed2caeb38218492729160018060a01b0382816020819501511690826040820151169160608201519060808301519160e08401516101009361ffff85870151169261012097898989015116958a6101606101409e8f8c0151169a0151169a6040519c168c5260208c015260408b015260608a0152608089015260a088015260c087015260e0860152840152820152a1565b15611c8d57565b60405162461bcd60e51b815260206004820152601a60248201527f4552525f494e53554646494349454e545f5052494e434950414c0000000000006044820152606490fd5b15611cd957565b60405162461bcd60e51b815260206004820152601160248201527011549497d3d191915497d1561412549151607a1b6044820152606490fd5b91908203918211610cae5756fea2646970667358221220dc10e93308586bef152db2a3405ccb039315e0eb99a346915fda19f228c9b9f064736f6c63430008110033",
  "immutableReferences": {},
  "source": "// SPDX-License-Identifier: GPL-3.0\r\npragma solidity >=0.7.0 <0.9.0;\r\n\r\nimport \"../libraries/PoolLibrary.sol\";\r\nimport \"../libraries/OfferLibrary.sol\";\r\nimport \"../libraries/RequestLibrary.sol\";\r\n\r\nimport \"../interfaces/IOfferManager.sol\";\r\n\r\nimport \"@openzeppelin/contracts/access/Ownable2Step.sol\";\r\nimport \"@openzeppelin/contracts/utils/Counters.sol\";\r\n\r\ncontract OfferManager is IOfferManager, Ownable2Step {\r\n    using Counters for Counters.Counter;\r\n\r\n    // offers\r\n    Counters.Counter private lendingOfferIdTracker;\r\n    Counters.Counter private borrowingOfferIdTracker;\r\n\r\n    mapping(uint256 => OfferLibrary.LendingOffer) public lendingOffers;\r\n    mapping(uint256 => OfferLibrary.BorrowingOffer) public borrowingOffers;\r\n\r\n    // request\r\n    Counters.Counter private lendingRequestIdTracker;\r\n    Counters.Counter private borrowingRequestIdTracker;\r\n\r\n    mapping(uint256 => RequestLibrary.LendingRequest) public lendingRequests;\r\n    mapping(uint256 => RequestLibrary.BorrowingRequest)\r\n        public borrowingRequests;\r\n\r\n    address lendingPool;\r\n\r\n    constructor() Ownable2Step() {}\r\n\r\n    event LendingOfferCreated(\r\n        uint160 offerId,\r\n        address principalToken,\r\n        uint256 currentPrincipal,\r\n        uint256 initialPrincipal,\r\n        uint256 interest,\r\n        uint16 daysToMaturity,\r\n        address[] collateralTokens,\r\n        uint160 expiresAt,\r\n        uint160 createdAt,\r\n        address lender\r\n    );\r\n\r\n    event BorrowingOfferCreated(\r\n        uint160 offerId,\r\n        address principalToken,\r\n        address collateralToken,\r\n        uint256 initialCollateral,\r\n        uint256 currentCollateral,\r\n        uint256 interest,\r\n        uint16 daysToMaturity,\r\n        uint160 expiresAt,\r\n        uint160 createdAt,\r\n        address borrower\r\n    );\r\n\r\n    event OfferClosed(uint160 offerId, OfferLibrary.Type offerType);\r\n\r\n    event RequestClosed(uint256 requestId, RequestLibrary.Type requestType);\r\n\r\n    function createLendingOffer(\r\n        address principalToken,\r\n        uint256 principalAmount,\r\n        uint256 interest,\r\n        uint16 daysToMaturity,\r\n        uint16 daysToExpire,\r\n        address[] memory collateralTokens,\r\n        address lender\r\n    ) public onlyLendingPool returns (uint160) {\r\n        lendingOfferIdTracker.increment();\r\n        uint256 offerId = lendingOfferIdTracker.current();\r\n\r\n        uint160 createdAt = uint160(block.timestamp);\r\n        uint160 duration = uint160((daysToExpire * 1 days));\r\n        uint160 expiresAt = createdAt + duration;\r\n\r\n        lendingOffers[offerId] = OfferLibrary.LendingOffer(\r\n            uint160(offerId),\r\n            principalToken,\r\n            principalAmount, // currentPrincipal\r\n            principalAmount, // initialPrincipal\r\n            interest,\r\n            daysToMaturity,\r\n            collateralTokens,\r\n            expiresAt,\r\n            createdAt,\r\n            lender\r\n        );\r\n\r\n        _emitLendingOffer(uint160(offerId), lendingOffers[offerId]);\r\n        return uint160(offerId);\r\n    }\r\n\r\n    function createLendingRequest(\r\n        uint16 percentage,\r\n        uint256 interest,\r\n        uint16 daysToMaturity,\r\n        uint16 daysToExpire,\r\n        address lender,\r\n        uint160 offerId\r\n    ) public onlyLendingPool returns (uint160) {\r\n        lendingRequestIdTracker.increment();\r\n        uint256 requestId = lendingRequestIdTracker.current();\r\n\r\n        uint160 createdAt = uint160(block.timestamp);\r\n        uint160 duration = uint160((daysToExpire * 1 days));\r\n        uint160 expiresAt = createdAt + duration;\r\n\r\n        lendingRequests[offerId] = RequestLibrary.LendingRequest(\r\n            uint160(requestId),\r\n            percentage,\r\n            daysToMaturity,\r\n            expiresAt,\r\n            interest,\r\n            createdAt,\r\n            lender,\r\n            offerId\r\n        );\r\n\r\n        _emitLendingRequest(uint160(requestId), lendingRequests[requestId]);\r\n        return uint160(requestId);\r\n    }\r\n\r\n    function createBorrowingOffer(\r\n        address principalToken,\r\n        address collateralToken,\r\n        uint256 collateralAmount,\r\n        uint256 principalAmount,\r\n        uint256 interest,\r\n        uint16 daysToMaturity,\r\n        uint16 daysToExpire,\r\n        address borrower\r\n    ) public onlyLendingPool returns (uint160) {\r\n        borrowingOfferIdTracker.increment();\r\n        uint256 offerId = borrowingOfferIdTracker.current();\r\n\r\n        uint160 createdAt = uint160(block.timestamp);\r\n        uint160 duration = uint160((daysToExpire * 1 days));\r\n        uint160 expiresAt = createdAt + duration;\r\n\r\n        borrowingOffers[offerId] = OfferLibrary.BorrowingOffer(\r\n            uint160(offerId),\r\n            principalToken,\r\n            collateralToken,\r\n            collateralAmount, // currentCollateral\r\n            collateralAmount, // initialCollateral\r\n            principalAmount, // currentPrincipal\r\n            principalAmount, // initialPrincipal\r\n            interest,\r\n            daysToMaturity,\r\n            expiresAt,\r\n            createdAt,\r\n            borrower\r\n        );\r\n\r\n        _emitBorrowingOffer(uint160(offerId), borrowingOffers[offerId]);\r\n        return uint160(offerId);\r\n    }\r\n\r\n    function createBorrowingRequest(\r\n        uint16 percentage,\r\n        address collateralToken,\r\n        uint256 collateralAmount,\r\n        uint256 collateralPriceInUSD,\r\n        uint256 interest,\r\n        uint16 daysToMaturity,\r\n        uint16 daysToExpire,\r\n        address borrower,\r\n        uint160 offerId\r\n    ) public onlyLendingPool returns (uint160) {\r\n        borrowingRequestIdTracker.increment();\r\n        uint256 requestId = borrowingRequestIdTracker.current();\r\n\r\n        uint160 createdAt = uint160(block.timestamp);\r\n        uint160 duration = uint160((daysToExpire * 1 days));\r\n        uint160 expiresAt = createdAt + duration;\r\n\r\n        borrowingRequests[offerId] = RequestLibrary.BorrowingRequest(\r\n            uint160(requestId),\r\n            percentage,\r\n            collateralToken,\r\n            collateralAmount,\r\n            collateralPriceInUSD,\r\n            daysToMaturity,\r\n            expiresAt,\r\n            interest,\r\n            createdAt,\r\n            borrower,\r\n            offerId\r\n        );\r\n\r\n        _emitBorrowingRequest(uint160(requestId), borrowingRequests[requestId]);\r\n        return uint160(requestId);\r\n    }\r\n\r\n    // events\r\n\r\n    function _emitLendingOffer(\r\n        uint160 offerId,\r\n        OfferLibrary.LendingOffer memory offer\r\n    ) private {\r\n        emit LendingOfferCreated(\r\n            offerId,\r\n            offer.principalToken,\r\n            offer.currentPrincipal,\r\n            offer.initialPrincipal,\r\n            offer.interest,\r\n            offer.daysToMaturity,\r\n            offer.collateralTokens,\r\n            offer.expiresAt,\r\n            offer.createdAt,\r\n            offer.lender\r\n        );\r\n    }\r\n\r\n    function _emitBorrowingOffer(\r\n        uint160 offerId,\r\n        OfferLibrary.BorrowingOffer memory offer\r\n    ) private {\r\n        emit BorrowingOfferCreated(\r\n            offerId,\r\n            offer.principalToken,\r\n            offer.collateralToken,\r\n            offer.currentCollateral,\r\n            offer.initialCollateral,\r\n            offer.interest,\r\n            offer.daysToMaturity,\r\n            offer.expiresAt,\r\n            offer.createdAt,\r\n            offer.borrower\r\n        );\r\n    }\r\n\r\n    function _emitLendingRequest(\r\n        uint160 requestId,\r\n        RequestLibrary.LendingRequest memory request\r\n    ) private {}\r\n\r\n    function _emitBorrowingRequest(\r\n        uint160 requestId,\r\n        RequestLibrary.BorrowingRequest memory request\r\n    ) private {}\r\n\r\n    // updaters\r\n\r\n    function _afterOfferLendingLoan(uint160 offerId, uint256 principalAmount)\r\n        public\r\n        onlyLendingPool\r\n    {\r\n        OfferLibrary.LendingOffer storage offer = lendingOffers[offerId];\r\n        require(\r\n            offer.currentPrincipal >= principalAmount,\r\n            \"ERR_INSUFFICIENT_PRINCIPAL\"\r\n        );\r\n        require(offer.expiresAt > block.timestamp, \"ERR_OFFER_EXPIRED\");\r\n\r\n        lendingOffers[offerId].currentPrincipal -= principalAmount;\r\n\r\n        _emitLendingOffer(offerId, offer);\r\n    }\r\n\r\n    function _afterOfferBorrowingLoan(\r\n        uint160 offerId,\r\n        uint256 principalAmount,\r\n        uint256 collateralAmount\r\n    ) public onlyLendingPool {\r\n        OfferLibrary.BorrowingOffer storage offer = borrowingOffers[offerId];\r\n        require(\r\n            offer.currentPrincipal >= principalAmount,\r\n            \"ERR_INSUFFICIENT_PRINCIPAL\"\r\n        );\r\n        require(\r\n            offer.currentCollateral >= collateralAmount,\r\n            \"ERR_INSUFFICIENT_COLLATERAL\"\r\n        );\r\n        require(offer.expiresAt > block.timestamp, \"ERR_OFFER_EXPIRED\");\r\n\r\n        offer.currentPrincipal -= principalAmount;\r\n        offer.currentCollateral -= collateralAmount;\r\n\r\n        _emitBorrowingOffer(offerId, offer);\r\n    }\r\n\r\n    function isCollateralSupported(uint160 offerId, address token)\r\n        public\r\n        view\r\n        returns (bool)\r\n    {\r\n        OfferLibrary.LendingOffer memory offer = lendingOffers[offerId];\r\n        bool supported = false;\r\n        for (\r\n            uint256 index = 0;\r\n            index < offer.collateralTokens.length;\r\n            index++\r\n        ) {\r\n            if (offer.collateralTokens[index] == token) {\r\n                supported = true;\r\n                break;\r\n            }\r\n        }\r\n        return supported;\r\n    }\r\n\r\n    function getLendingOffer(uint160 offerId)\r\n        public\r\n        view\r\n        override\r\n        returns (OfferLibrary.LendingOffer memory)\r\n    {\r\n        return lendingOffers[offerId];\r\n    }\r\n\r\n    function getBorrowingOffer(uint160 offerId)\r\n        public\r\n        view\r\n        override\r\n        returns (OfferLibrary.BorrowingOffer memory)\r\n    {\r\n        return borrowingOffers[offerId];\r\n    }\r\n\r\n    function getBorrowingRequest(uint256 requestId)\r\n        public\r\n        view\r\n        override\r\n        returns (RequestLibrary.BorrowingRequest memory)\r\n    {\r\n        return borrowingRequests[requestId];\r\n    }\r\n\r\n    function getLendingRequest(uint256 requestId)\r\n        public\r\n        view\r\n        override\r\n        returns (RequestLibrary.LendingRequest memory)\r\n    {\r\n        return lendingRequests[requestId];\r\n    }\r\n\r\n    function setLendingPool(address address_) public onlyOwner {\r\n        lendingPool = address_;\r\n    }\r\n\r\n    modifier onlyLendingPool() {\r\n        require(msg.sender == lendingPool);\r\n        _;\r\n    }\r\n}\r\n",
  "sourcePath": "C:\\Users\\DELL\\Documents\\darsh\\smart-contracts\\contracts\\managers\\OfferManager.sol",
  "compiler": {
    "name": "solc",
    "version": "0.8.17+commit.8df45f5f.Emscripten.clang"
  },
  "schemaVersion": "3.4.11",
  "updatedAt": "2023-02-12T21:20:13.584Z",
  "devdoc": {
    "kind": "dev",
    "methods": {
      "acceptOwnership()": {
        "details": "The new owner accepts the ownership transfer."
      },
      "owner()": {
        "details": "Returns the address of the current owner."
      },
      "pendingOwner()": {
        "details": "Returns the address of the pending owner."
      },
      "renounceOwnership()": {
        "details": "Leaves the contract without owner. It will not be possible to call `onlyOwner` functions anymore. Can only be called by the current owner. NOTE: Renouncing ownership will leave the contract without an owner, thereby removing any functionality that is only available to the owner."
      },
      "transferOwnership(address)": {
        "details": "Starts the ownership transfer of the contract to a new account. Replaces the pending transfer if there is one. Can only be called by the current owner."
      }
    },
    "version": 1
  },
  "userdoc": {
    "kind": "user",
    "methods": {},
    "version": 1
  }
}