{
  "contractName": "OfferManager",
  "abi": [
    {
      "inputs": [],
      "stateMutability": "nonpayable",
      "type": "constructor"
    },
    {
      "anonymous": false,
      "inputs": [
        {
          "indexed": true,
          "internalType": "address",
          "name": "previousOwner",
          "type": "address"
        },
        {
          "indexed": true,
          "internalType": "address",
          "name": "newOwner",
          "type": "address"
        }
      ],
      "name": "OwnershipTransferStarted",
      "type": "event"
    },
    {
      "anonymous": false,
      "inputs": [
        {
          "indexed": true,
          "internalType": "address",
          "name": "previousOwner",
          "type": "address"
        },
        {
          "indexed": true,
          "internalType": "address",
          "name": "newOwner",
          "type": "address"
        }
      ],
      "name": "OwnershipTransferred",
      "type": "event"
    },
    {
      "inputs": [],
      "name": "ONE_DAY",
      "outputs": [
        {
          "internalType": "uint256",
          "name": "",
          "type": "uint256"
        }
      ],
      "stateMutability": "view",
      "type": "function",
      "constant": true
    },
    {
      "inputs": [],
      "name": "ONE_HOUR",
      "outputs": [
        {
          "internalType": "uint256",
          "name": "",
          "type": "uint256"
        }
      ],
      "stateMutability": "view",
      "type": "function",
      "constant": true
    },
    {
      "inputs": [],
      "name": "acceptOwnership",
      "outputs": [],
      "stateMutability": "nonpayable",
      "type": "function"
    },
    {
      "inputs": [
        {
          "internalType": "uint256",
          "name": "",
          "type": "uint256"
        }
      ],
      "name": "offers",
      "outputs": [
        {
          "internalType": "uint256",
          "name": "offerId",
          "type": "uint256"
        },
        {
          "internalType": "enum OfferLibrary.State",
          "name": "state",
          "type": "uint8"
        },
        {
          "internalType": "address",
          "name": "principalToken",
          "type": "address"
        },
        {
          "internalType": "uint256",
          "name": "currentPrincipal",
          "type": "uint256"
        },
        {
          "internalType": "uint256",
          "name": "initialPrincipal",
          "type": "uint256"
        },
        {
          "internalType": "uint256",
          "name": "interestRate",
          "type": "uint256"
        },
        {
          "internalType": "uint16",
          "name": "daysToMaturity",
          "type": "uint16"
        },
        {
          "internalType": "uint256",
          "name": "expiresAt",
          "type": "uint256"
        },
        {
          "internalType": "uint256",
          "name": "createdAt",
          "type": "uint256"
        },
        {
          "internalType": "address",
          "name": "creator",
          "type": "address"
        },
        {
          "internalType": "address",
          "name": "collateralToken",
          "type": "address"
        },
        {
          "internalType": "uint256",
          "name": "currentCollateral",
          "type": "uint256"
        },
        {
          "internalType": "uint256",
          "name": "initialCollateral",
          "type": "uint256"
        },
        {
          "internalType": "enum OfferLibrary.Type",
          "name": "offerType",
          "type": "uint8"
        }
      ],
      "stateMutability": "view",
      "type": "function",
      "constant": true
    },
    {
      "inputs": [],
      "name": "owner",
      "outputs": [
        {
          "internalType": "address",
          "name": "",
          "type": "address"
        }
      ],
      "stateMutability": "view",
      "type": "function",
      "constant": true
    },
    {
      "inputs": [],
      "name": "pendingOwner",
      "outputs": [
        {
          "internalType": "address",
          "name": "",
          "type": "address"
        }
      ],
      "stateMutability": "view",
      "type": "function",
      "constant": true
    },
    {
      "inputs": [],
      "name": "renounceOwnership",
      "outputs": [],
      "stateMutability": "nonpayable",
      "type": "function"
    },
    {
      "inputs": [
        {
          "internalType": "uint256",
          "name": "",
          "type": "uint256"
        }
      ],
      "name": "requests",
      "outputs": [
        {
          "internalType": "uint256",
          "name": "requestId",
          "type": "uint256"
        },
        {
          "internalType": "enum RequestLibrary.State",
          "name": "state",
          "type": "uint8"
        },
        {
          "internalType": "uint16",
          "name": "percentage",
          "type": "uint16"
        },
        {
          "internalType": "uint16",
          "name": "daysToMaturity",
          "type": "uint16"
        },
        {
          "internalType": "uint256",
          "name": "interestRate",
          "type": "uint256"
        },
        {
          "internalType": "uint256",
          "name": "expiresAt",
          "type": "uint256"
        },
        {
          "internalType": "uint256",
          "name": "createdAt",
          "type": "uint256"
        },
        {
          "internalType": "address",
          "name": "creator",
          "type": "address"
        },
        {
          "internalType": "uint256",
          "name": "offerId",
          "type": "uint256"
        },
        {
          "internalType": "address",
          "name": "collateralToken",
          "type": "address"
        },
        {
          "internalType": "uint256",
          "name": "collateralAmount",
          "type": "uint256"
        },
        {
          "internalType": "uint256",
          "name": "collateralPriceInUSD",
          "type": "uint256"
        },
        {
          "internalType": "uint160",
          "name": "ltvUsed",
          "type": "uint160"
        },
        {
          "internalType": "enum RequestLibrary.Type",
          "name": "requestType",
          "type": "uint8"
        }
      ],
      "stateMutability": "view",
      "type": "function",
      "constant": true
    },
    {
      "inputs": [
        {
          "internalType": "address",
          "name": "newOwner",
          "type": "address"
        }
      ],
      "name": "transferOwnership",
      "outputs": [],
      "stateMutability": "nonpayable",
      "type": "function"
    },
    {
      "inputs": [
        {
          "internalType": "address",
          "name": "principalToken",
          "type": "address"
        },
        {
          "internalType": "uint256",
          "name": "principalAmount",
          "type": "uint256"
        },
        {
          "internalType": "uint256",
          "name": "interestRate",
          "type": "uint256"
        },
        {
          "internalType": "uint16",
          "name": "daysToMaturity",
          "type": "uint16"
        },
        {
          "internalType": "uint16",
          "name": "daysToExpire",
          "type": "uint16"
        },
        {
          "internalType": "address[]",
          "name": "collateralTokens",
          "type": "address[]"
        },
        {
          "internalType": "address",
          "name": "lender",
          "type": "address"
        }
      ],
      "name": "createLendingOffer",
      "outputs": [
        {
          "internalType": "uint256",
          "name": "",
          "type": "uint256"
        }
      ],
      "stateMutability": "nonpayable",
      "type": "function"
    },
    {
      "inputs": [
        {
          "internalType": "uint256",
          "name": "offerId",
          "type": "uint256"
        },
        {
          "internalType": "uint16",
          "name": "toExpire",
          "type": "uint16"
        },
        {
          "internalType": "address",
          "name": "user",
          "type": "address"
        }
      ],
      "name": "reActivateOffer",
      "outputs": [],
      "stateMutability": "nonpayable",
      "type": "function"
    },
    {
      "inputs": [
        {
          "internalType": "uint16",
          "name": "percentage",
          "type": "uint16"
        },
        {
          "internalType": "uint256",
          "name": "interestRate",
          "type": "uint256"
        },
        {
          "internalType": "uint16",
          "name": "daysToMaturity",
          "type": "uint16"
        },
        {
          "internalType": "uint16",
          "name": "hoursToExpire",
          "type": "uint16"
        },
        {
          "internalType": "address",
          "name": "lender",
          "type": "address"
        },
        {
          "internalType": "uint256",
          "name": "offerId",
          "type": "uint256"
        }
      ],
      "name": "createLendingRequest",
      "outputs": [
        {
          "internalType": "uint256",
          "name": "",
          "type": "uint256"
        }
      ],
      "stateMutability": "nonpayable",
      "type": "function"
    },
    {
      "inputs": [
        {
          "internalType": "address",
          "name": "principalToken",
          "type": "address"
        },
        {
          "internalType": "address",
          "name": "collateralToken",
          "type": "address"
        },
        {
          "internalType": "uint256",
          "name": "collateralAmount",
          "type": "uint256"
        },
        {
          "internalType": "uint256",
          "name": "principalAmount",
          "type": "uint256"
        },
        {
          "internalType": "uint256",
          "name": "interestRate",
          "type": "uint256"
        },
        {
          "internalType": "uint16",
          "name": "daysToMaturity",
          "type": "uint16"
        },
        {
          "internalType": "uint16",
          "name": "hoursToExpire",
          "type": "uint16"
        },
        {
          "internalType": "address",
          "name": "borrower",
          "type": "address"
        }
      ],
      "name": "createBorrowingOffer",
      "outputs": [
        {
          "internalType": "uint256",
          "name": "",
          "type": "uint256"
        }
      ],
      "stateMutability": "nonpayable",
      "type": "function"
    },
    {
      "inputs": [
        {
          "internalType": "uint16",
          "name": "percentage",
          "type": "uint16"
        },
        {
          "internalType": "address",
          "name": "collateralToken",
          "type": "address"
        },
        {
          "internalType": "uint256",
          "name": "collateralAmount",
          "type": "uint256"
        },
        {
          "internalType": "uint256",
          "name": "collateralPriceInUSD",
          "type": "uint256"
        },
        {
          "internalType": "uint160",
          "name": "ltvUsed",
          "type": "uint160"
        },
        {
          "internalType": "uint256",
          "name": "interestRate",
          "type": "uint256"
        },
        {
          "internalType": "uint16",
          "name": "daysToMaturity",
          "type": "uint16"
        },
        {
          "internalType": "uint16",
          "name": "hoursToExpire",
          "type": "uint16"
        },
        {
          "internalType": "address",
          "name": "borrower",
          "type": "address"
        },
        {
          "internalType": "uint256",
          "name": "offerId",
          "type": "uint256"
        }
      ],
      "name": "createBorrowingRequest",
      "outputs": [
        {
          "internalType": "uint256",
          "name": "",
          "type": "uint256"
        }
      ],
      "stateMutability": "nonpayable",
      "type": "function"
    },
    {
      "inputs": [
        {
          "internalType": "uint256",
          "name": "requestId",
          "type": "uint256"
        },
        {
          "internalType": "address",
          "name": "user",
          "type": "address"
        }
      ],
      "name": "rejectRequest",
      "outputs": [],
      "stateMutability": "nonpayable",
      "type": "function"
    },
    {
      "inputs": [
        {
          "internalType": "uint256",
          "name": "requestId",
          "type": "uint256"
        },
        {
          "internalType": "address",
          "name": "user",
          "type": "address"
        }
      ],
      "name": "acceptRequest",
      "outputs": [],
      "stateMutability": "nonpayable",
      "type": "function"
    },
    {
      "inputs": [
        {
          "internalType": "uint256",
          "name": "requestId",
          "type": "uint256"
        },
        {
          "internalType": "address",
          "name": "user",
          "type": "address"
        }
      ],
      "name": "cancelRequest",
      "outputs": [],
      "stateMutability": "nonpayable",
      "type": "function"
    },
    {
      "inputs": [
        {
          "internalType": "uint256",
          "name": "offerId",
          "type": "uint256"
        },
        {
          "internalType": "address",
          "name": "user",
          "type": "address"
        },
        {
          "internalType": "uint256",
          "name": "amount",
          "type": "uint256"
        }
      ],
      "name": "removePrincipal",
      "outputs": [],
      "stateMutability": "nonpayable",
      "type": "function"
    },
    {
      "inputs": [
        {
          "internalType": "uint256",
          "name": "offerId",
          "type": "uint256"
        },
        {
          "internalType": "address",
          "name": "user",
          "type": "address"
        },
        {
          "internalType": "uint256",
          "name": "amount",
          "type": "uint256"
        }
      ],
      "name": "removeCollateral",
      "outputs": [],
      "stateMutability": "nonpayable",
      "type": "function"
    },
    {
      "inputs": [
        {
          "internalType": "uint256",
          "name": "offerId",
          "type": "uint256"
        },
        {
          "internalType": "uint256",
          "name": "principalAmount",
          "type": "uint256"
        }
      ],
      "name": "afterLendingLoan",
      "outputs": [],
      "stateMutability": "nonpayable",
      "type": "function"
    },
    {
      "inputs": [
        {
          "internalType": "uint256",
          "name": "offerId",
          "type": "uint256"
        },
        {
          "internalType": "uint256",
          "name": "principalAmount",
          "type": "uint256"
        },
        {
          "internalType": "uint256",
          "name": "collateralAmount",
          "type": "uint256"
        }
      ],
      "name": "afterBorrowingLoan",
      "outputs": [],
      "stateMutability": "nonpayable",
      "type": "function"
    },
    {
      "inputs": [
        {
          "internalType": "uint256",
          "name": "offerId",
          "type": "uint256"
        },
        {
          "internalType": "address",
          "name": "token",
          "type": "address"
        }
      ],
      "name": "isCollateralSupported",
      "outputs": [
        {
          "internalType": "bool",
          "name": "",
          "type": "bool"
        }
      ],
      "stateMutability": "view",
      "type": "function",
      "constant": true
    },
    {
      "inputs": [
        {
          "internalType": "uint256",
          "name": "offerId",
          "type": "uint256"
        }
      ],
      "name": "getOffer",
      "outputs": [
        {
          "components": [
            {
              "internalType": "uint256",
              "name": "offerId",
              "type": "uint256"
            },
            {
              "internalType": "enum OfferLibrary.State",
              "name": "state",
              "type": "uint8"
            },
            {
              "internalType": "address",
              "name": "principalToken",
              "type": "address"
            },
            {
              "internalType": "uint256",
              "name": "currentPrincipal",
              "type": "uint256"
            },
            {
              "internalType": "uint256",
              "name": "initialPrincipal",
              "type": "uint256"
            },
            {
              "internalType": "uint256",
              "name": "interestRate",
              "type": "uint256"
            },
            {
              "internalType": "uint16",
              "name": "daysToMaturity",
              "type": "uint16"
            },
            {
              "internalType": "uint256",
              "name": "expiresAt",
              "type": "uint256"
            },
            {
              "internalType": "uint256",
              "name": "createdAt",
              "type": "uint256"
            },
            {
              "internalType": "address",
              "name": "creator",
              "type": "address"
            },
            {
              "internalType": "address[]",
              "name": "collateralTokens",
              "type": "address[]"
            },
            {
              "internalType": "address",
              "name": "collateralToken",
              "type": "address"
            },
            {
              "internalType": "uint256",
              "name": "currentCollateral",
              "type": "uint256"
            },
            {
              "internalType": "uint256",
              "name": "initialCollateral",
              "type": "uint256"
            },
            {
              "internalType": "enum OfferLibrary.Type",
              "name": "offerType",
              "type": "uint8"
            }
          ],
          "internalType": "struct OfferLibrary.Offer",
          "name": "",
          "type": "tuple"
        }
      ],
      "stateMutability": "view",
      "type": "function",
      "constant": true
    },
    {
      "inputs": [
        {
          "internalType": "uint256",
          "name": "requestId",
          "type": "uint256"
        }
      ],
      "name": "getRequest",
      "outputs": [
        {
          "components": [
            {
              "internalType": "uint256",
              "name": "requestId",
              "type": "uint256"
            },
            {
              "internalType": "enum RequestLibrary.State",
              "name": "state",
              "type": "uint8"
            },
            {
              "internalType": "uint16",
              "name": "percentage",
              "type": "uint16"
            },
            {
              "internalType": "uint16",
              "name": "daysToMaturity",
              "type": "uint16"
            },
            {
              "internalType": "uint256",
              "name": "interestRate",
              "type": "uint256"
            },
            {
              "internalType": "uint256",
              "name": "expiresAt",
              "type": "uint256"
            },
            {
              "internalType": "uint256",
              "name": "createdAt",
              "type": "uint256"
            },
            {
              "internalType": "address",
              "name": "creator",
              "type": "address"
            },
            {
              "internalType": "uint256",
              "name": "offerId",
              "type": "uint256"
            },
            {
              "internalType": "address",
              "name": "collateralToken",
              "type": "address"
            },
            {
              "internalType": "uint256",
              "name": "collateralAmount",
              "type": "uint256"
            },
            {
              "internalType": "uint256",
              "name": "collateralPriceInUSD",
              "type": "uint256"
            },
            {
              "internalType": "uint160",
              "name": "ltvUsed",
              "type": "uint160"
            },
            {
              "internalType": "enum RequestLibrary.Type",
              "name": "requestType",
              "type": "uint8"
            }
          ],
          "internalType": "struct RequestLibrary.Request",
          "name": "",
          "type": "tuple"
        }
      ],
      "stateMutability": "view",
      "type": "function",
      "constant": true
    },
    {
      "inputs": [
        {
          "internalType": "address",
          "name": "address_",
          "type": "address"
        }
      ],
      "name": "setLendingPool",
      "outputs": [],
      "stateMutability": "nonpayable",
      "type": "function"
    }
  ],
  "bytecode": "0x6080806040523461006357600180546001600160a01b03199081169091556000805433928116831782556001600160a01b0316907f8be0079c531659141344cd1fd0a4f28419497f9722a3daafe3b4186f6b6457e09080a36121e190816100698239f35b600080fdfe6080604052600436101561001257600080fd5b60003560e01c8063043ab62214611991578063099bfe6b14611865578063113aa8b114611822578063165035e214611805578063346dab991461173c57806339700629146116a95780633bb1374b146114ca5780634579268a14611333578063715018a6146112ce578063774d3df51461120557806379ba5097146111425780637f4a10b61461109b57806381d12c5814610fff578063863e76db14610fe15780638a72ea6a14610eef5780638da5cb5b14610ec657806390d870d214610bdd5780639498506514610ada578063a5ff109014610a51578063b438b8901461078e578063c44df340146103a1578063c58343ef14610259578063daba858a146101c8578063e30c39781461019f5763f2fde38b1461012f57600080fd5b3461019a57602036600319011261019a57610148611a10565b610150611b96565b60018060a01b0380911690816001600160601b0360a01b6001541617600155600054167f38d16b8cac22d99fc7c124b9cd0de2d3fa1faef420bfe791d8c362d765e22700600080a3005b600080fd5b3461019a57600036600319011261019a576001546040516001600160a01b039091168152602090f35b3461019a57604036600319011261019a576004356101e4611a26565b6006546001600160a01b039291908316330361019a576102579261023d6102519284600052600560205260406000209260068401546000526003602052806101206102326040600020611c06565b015116911614611d32565b60018101600160ff19825416179055611e06565b906120b1565b005b3461019a57602036600319011261019a576101c060405161027981611b3a565b6000815260006020820152600060408201526000606082015260006080820152600060a0820152600060c0820152600060e082015260006101009181838201526101209282848301526101409083828401526101609084828501526101809185838601526101a095868096015260043560005260056020526102fe6040600020611e06565b936040519785518952610319602087015160208b0190611aa3565b61ffff8060408801511660408b015260608701511660608a0152608086015160808a015260a086015160a08a015260c086015160c08a015260018060a01b03938460e08801511660e08b015280870151908a0152838187015116908901528085015190880152808401519087015281830151169085015201519061039c82611a99565b820152f35b3461019a5760e036600319011261019a576103ba611a10565b6103c2611a88565b6084359061ffff821680920361019a5760a4359067ffffffffffffffff821161019a573660238301121561019a57816004013567ffffffffffffffff81116106fd57604051928160051b9161041a6020840186611b74565b8452602460208501928201019036821161019a57602401915b81831061076e5750505060c4356001600160a01b038116919082900361019a576006546001600160a01b0316330361019a5760016002540193846002556201518090808202918204036107585761048a9042611d25565b908351156107135761ffff90604051966104a388611b57565b8688526000602089015260018060a01b03166040880152602435806060890152608088015260443560a08801521660c086015260e0850152426101008501526101208401526101408301526000610160830152600061018083015260006101a083015260006101c0830152806000526003602052604060002091805183556001830161053c602083015161053681611a99565b82611bee565b60408201518154610100600160a81b031916600891821b610100600160a81b031617909155606082015160028501556080820151600385015560a0820151600485015560c082015160058501805461ffff191661ffff9290921691909117905560e08201516006850155610100820151600785015561012082015190840180546001600160a01b0319166001600160a01b039290921691909117905561014081015180519067ffffffffffffffff82116106fd57600160401b82116106fd5760098501548260098701558083106106d0575b5060200160098501600052602060002060005b8381106106b357602086866101c0600d8b600a810160018060a01b03610160860151166001600160601b0360a01b825416179055610180840151600b8201556101a0840151600c8201550191015161067881611a99565b61068181611a99565b60ff8019835416911617905580600052600382526106ab6106a56040600020611c06565b82611f58565b604051908152f35b82516001600160a01b031681830155602090920191600101610621565b600986016000526020600020908382015b81830181106106f157505061060e565b600081556001016106e1565b634e487b7160e01b600052604160045260246000fd5b60405162461bcd60e51b815260206004820152601760248201527f4552525f4e4f5f434f4c4c41544552414c5f54595045530000000000000000006044820152606490fd5b634e487b7160e01b600052601160045260246000fd5b82356001600160a01b038116810361019a57815260209283019201610433565b3461019a5760c036600319011261019a576107a7611a66565b60443561ffff8116810361019a576107bd611a88565b90608435906001600160a01b038216820361019a576006546001600160a01b0316330361019a5761ffff600160045401938460045516610e1090808202918204036107585761080f61ffff9142611d25565b9160a43560005260036020526108286040600020611c06565b61084b60016101c083015161083c81611a99565b61084581611a99565b14611d71565b6101806101a082015191015114610a2e575b816040519661086b88611b3a565b86885260006020890152166040870152166060850152602435608085015260a08401524260c084015260018060a01b031660e083015260a435610100830152600061012083015260006101408301526000610160830152600061018083015260006101a08301528060005260056020526040600020918051835560208101516004811015610a185783600a916109076001602097019182611dee565b6040840151815462ffff0064ffff000000606088015160181b169260081b169064ffffffff001916171790556080830151600282015560a0830151600382015560c083015160048201556005810160018060a01b0360e085015116906001600160601b0360a01b91828254161790556101008401516006830155600782019060018060a01b03610120860151169082541617905561014083015160088201556101608301516009820155019060018060a01b03610180820151166101a083549201516109d281611a99565b6109db81611a99565b60ff60a01b9060a01b16916affffffffffffffffffffff60a81b161717905580600052600582526106ab610a126040600020611e06565b826120b1565b634e487b7160e01b600052602160045260246000fd5b60a4356000526003602052610a4c6006604060002001544210611dae565b61085d565b3461019a57604036600319011261019a5760065460243590600435906001600160a01b0316330361019a57610ad461025792826000526003602052604060002090610aa2816002840154101561215f565b610ab160068301544210611dae565b836000526003602052610acd6002604060002001918254611f4b565b9055611c06565b90611f58565b3461019a57604036600319011261019a57600435610af6611a26565b6006546001600160a01b039291908316330361019a57610b2e9082600052600560205260406000209380600586015416911614611d32565b600182019182549060ff82166004811015610a185760018114610ba557600314610b68576102579360036102519360ff1916179055611e06565b60405162461bcd60e51b815260206004820152601560248201527411549497d053149150511657d0d05390d153131151605a1b6044820152606490fd5b60405162461bcd60e51b815260206004820152601060248201526f11549497d053149150511657d554d15160821b6044820152606490fd5b3461019a5761010036600319011261019a57610bf7611a10565b610bff611a26565b60a4359061ffff8216820361019a57610c16611a77565b9160e4356001600160a01b038116810361019a576006546001600160a01b0316330361019a5761ffff600160025401948560025516610e10908082029182040361075857610c649042611d25565b6040519283602081011067ffffffffffffffff6020860111176106fd5761ffff90602085016040526000855260405197610c9d89611b57565b878952600060208a015260018060a01b031660408901526064358060608a0152608089015260843560a08901521660c087015260e08601524261010086015260018060a01b031661012085015261014084015260018060a01b03166101608301526044356101808301526044356101a083015260016101c08301528060005260036020526040600020918051835560018301610d40602083015161053681611a99565b60408201518154610100600160a81b031916600891821b610100600160a81b031617909155606082015160028501556080820151600385015560a0820151600485015560c082015160058501805461ffff191661ffff9290921691909117905560e08201516006850155610100820151600785015561012082015190840180546001600160a01b0319166001600160a01b039290921691909117905561014081015180519067ffffffffffffffff82116106fd57600160401b82116106fd576009850154826009870155808310610e99575b5060200160098501600052602060002060005b838110610e7c57602086866101c0600d8b600a810160018060a01b03610160860151166001600160601b0360a01b825416179055610180840151600b8201556101a0840151600c8201550191015161067881611a99565b82516001600160a01b031681830155602090920191600101610e25565b600986016000526020600020908382015b8183018110610eba575050610e12565b60008155600101610eaa565b3461019a57600036600319011261019a576000546040516001600160a01b039091168152602090f35b3461019a57602036600319011261019a5760043560005260036020526101c0604060002080549060018101549060028101546003820154600483015461ffff600585015416600685015460078601549160018060a01b036008880154169360018060a01b03600a8901541695600b8901549760ff600d600c8c01549b0154169a6040519c8d528c602060ff831691610f8683611a99565b015260081c6001600160a01b031660408d015260608c015260808b015260a08a015260c089015260e0880152610100870152610120860152610140850152610160840152610180830152610fd981611a99565b6101a0820152f35b3461019a57600036600319011261019a576020604051620151808152f35b3461019a57602036600319011261019a576004356000526005602052604060002080549061109760018201549260028301549060038401549360048101549460018060a01b0395866005840154166006840154908860078601541692600886015494600a600988015497015498896040519d8e809e60ff61ffff9460a01c169d169b60ff848460181c16948460081c16931691611ab0565b0390f35b3461019a576110a936611a3c565b600654909291906001600160a01b03908116330361019a5761025793610ad492846000526003602052611121826040600020946110f660ff600d880154166110f081611a99565b15611d71565b61111c600287019485549261110d85851015611ecc565b8060088a015416911614611f0d565b611f4b565b9055600382015403611c06575b60018101600160ff19825416179055611c06565b3461019a57600036600319011261019a576001546001600160a01b0333818316036111ae576001600160601b0360a01b8092166001556000549133908316176000553391167f8be0079c531659141344cd1fd0a4f28419497f9722a3daafe3b4186f6b6457e0600080a3005b60405162461bcd60e51b815260206004820152602960248201527f4f776e61626c6532537465703a2063616c6c6572206973206e6f7420746865206044820152683732bb9037bbb732b960b91b6064820152608490fd5b3461019a57604036600319011261019a57600435611221611a26565b6006546001600160a01b039291908316330361019a576112689082600052600560205260406000209360068501546000526003602052806101206102326040600020611c06565b600182019182549060ff82166004811015610a1857611297576102579360026102519360ff1916179055611e06565b60405162461bcd60e51b815260206004820152600f60248201526e4552525f4f464645525f535441544560881b6044820152606490fd5b3461019a57600036600319011261019a576112e7611b96565b600180546001600160a01b0319908116909155600080549182168155906001600160a01b03167f8be0079c531659141344cd1fd0a4f28419497f9722a3daafe3b4186f6b6457e08280a3005b3461019a5760208060031936011261019a5760405161135181611b57565b60008152600082820152600060408201526000606082015260006080820152600060a0820152600060c0820152600060e0820152610100906000828201526101209260008483015261014091606083820152610160926000848301526101806000818401526101a09060008285015260006101c080950152600435600052600385526113e06040600020611c06565b92604051978689528451878a0152868501516113fb81611a99565b60408a015260018060a01b03998a918260408801511660608c0152606087015160808c0152608087015160a08c015260a087015160c08c015261ffff60c08801511660e08c015260e0870151818c0152860151818b01528501511681890152830151956101e09586828a015261020089018851809152816102208b0199019160005b8281106114b45750505050978798840151168188015282015181870152810151828601520151906114ad82611a99565b8301520390f35b83518d168b52998101999281019260010161147d565b3461019a5761014036600319011261019a576114e4611a66565b6114ec611a26565b6084356001600160a01b038116810361019a57611507611a77565b9160e4359261ffff841680940361019a5761010435906001600160a01b038216820361019a576006546001600160a01b0316330361019a576001600454019485600455610e1090808202918204036107585761156661ffff9142611d25565b916101243560005260036020526115806040600020611c06565b61159b6101c082015161159281611a99565b6110f081611a99565b6101243560005260036020526115ba6006604060002001544210611dae565b6101806101a082015191015114611685575b81604051986115da8a611b3a565b888a52600060208b015216604089015216606087015260a435608087015260a08601524260c086015260018060a01b031660e08501526101243561010085015260018060a01b031661012084015260443561014084015260643561016084015260018060a01b031661018083015260016101a08301528060005260056020526040600020918051835560208101516004811015610a185783600a916109076001602097019182611dee565b6101243560005260036020526116a46006604060002001544210611dae565b6115cc565b3461019a57604036600319011261019a576116c2611a26565b6004356000526020600381526116db6040600020611c06565b61014001916001600160a01b03908116906000805b8551805182101561173057838686928460051b010151161461171d576000198114610758576001016116f0565b50505050905060015b6040519015158152f35b50509293505050611726565b3461019a57606036600319011261019a576006546044359060043590602435906001600160a01b0316330361019a578160005260036020526040600020600281019384549261178d8185101561215f565b600b83019182548181106117c057610257976117b9610acd94610ad49861111c60068a01544210611dae565b9055611f4b565b60405162461bcd60e51b815260206004820152601b60248201527f4552525f494e53554646494349454e545f434f4c4c41544552414c00000000006044820152606490fd5b3461019a57600036600319011261019a576020604051610e108152f35b3461019a57602036600319011261019a5761183b611a10565b611843611b96565b600680546001600160a01b0319166001600160a01b0392909216919091179055005b3461019a57606036600319011261019a576004356024359061ffff821680920361019a576001600160a01b03906044358281169081900361019a578260065416330361019a576118d3908260005260036020526118c56040600020611c06565b936101208501511614611d32565b6101a08201516101808301510361019a5760e08201805142111561195a5760016002540190816002556101c084015161190b81611a99565b61191481611a99565b61193f5762015180948086029586040361075857611936610257955b42611d25565b90528252611f58565b610e1094808602958604036107585761193661025795611930565b60405162461bcd60e51b815260206004820152600f60248201526e11549497d393d517d1561412549151608a1b6044820152606490fd5b3461019a5761199f36611a3c565b600654909291906001600160a01b03908116330361019a5761025793610ad4928460005260036020526119ff826040600020946119e8600160ff600d8901541661084581611a99565b61111c600b87019485549261110d85851015611ecc565b9055600c8201541461112e57611c06565b600435906001600160a01b038216820361019a57565b602435906001600160a01b038216820361019a57565b606090600319011261019a57600435906024356001600160a01b038116810361019a579060443590565b6004359061ffff8216820361019a57565b60c4359061ffff8216820361019a57565b6064359061ffff8216820361019a57565b60021115610a1857565b906004821015610a185752565b9b989a97969492919e9d9c999593909e6101c08d019f8d5260208d01611ad591611aa3565b61ffff91821660408d01521660608b015260808a015260a089015260c08801526001600160a01b0391821660e088015261010087019590955293841661012086015261014085015261016084015216610180820152611b3382611a99565b6101a00152565b6101c0810190811067ffffffffffffffff8211176106fd57604052565b6101e0810190811067ffffffffffffffff8211176106fd57604052565b90601f8019910116810190811067ffffffffffffffff8211176106fd57604052565b6000546001600160a01b03163303611baa57565b606460405162461bcd60e51b815260206004820152602060248201527f4f776e61626c653a2063616c6c6572206973206e6f7420746865206f776e65726044820152fd5b90611bf881611a99565b60ff80198354169116179055565b90604051611c1381611b57565b8092805482526001808201549060ff8216611c2d81611a99565b6020908186015260018060a01b03809360081c1660408601526002840154606086015260038401546080860152600484015460a086015261ffff60058501541660c0860152600684015460e08601526007840154610100860152826008850154166101208601526009840190604051928382845491828152019360005282600020926000905b828210611d0e5750505050509260ff9282611cd5600d946101c0970382611b74565b610140870152600a82015416610160860152600b810154610180860152600c8101546101a086015201541691611d0a83611a99565b0152565b845488168652948501949383019390830190611cb3565b9190820180921161075857565b15611d3957565b60405162461bcd60e51b815260206004820152601060248201526f22a9292fa7a7262cafa1a922a0aa27a960811b6044820152606490fd5b15611d7857565b60405162461bcd60e51b815260206004820152600e60248201526d4552525f4f464645525f5459504560901b6044820152606490fd5b15611db557565b60405162461bcd60e51b815260206004820152601160248201527011549497d3d191915497d1561412549151607a1b6044820152606490fd5b906004811015610a185760ff80198354169116179055565b90604051611e1381611b3a565b80928054825260018101549060ff8216906004821015610a18576101a09260ff92602086015261ffff90818160081c16604087015260181c16606085015260028101546080850152600381015460a0850152600481015460c0850152600a60018060a01b03918260058201541660e087015260068101546101008701528260078201541661012087015260088101546101408701526009810154610160870152015490811661018085015260a01c1691611d0a83611a99565b15611ed357565b60405162461bcd60e51b8152602060048201526012602482015271125394d5519250d251539517d05353d5539560721b6044820152606490fd5b15611f1457565b60405162461bcd60e51b815260206004820152600f60248201526e22a9292fa7a7262cafa622a72222a960891b6044820152606490fd5b9190820391821161075857565b9190916020830151611f6981611a99565b60018060a01b036040850151169360608101519460808201519560a083015161ffff60c08501511660e08501516101008601519160018060a01b0361012088015116936101408801519b60018060a01b036101608a015116966101808a0151986101c06101a08c01519b01519b611fdf8d611a99565b6040519d8e5260208e611ff183611a99565b015260408d015260608c015260808b015260a08a015260c089015260e08801526101008701526101208601526101e080610140870152850187518091526020610200870198019060005b818110612092575050506101608501526101808401526101a083015291927f32a670798a1ad8df43e8adea253d7a3a694f00bd8a48236ac364cce18971f4bf9282919061208781611a99565b6101c08301520390a1565b82516001600160a01b03168a526020998a01999092019160010161203b565b6020820151906004821015610a185761215a7f34425327f0b2d0828521660e46e990c421f3654b8d649db7cc2a59fa9d1f05f49361ffff90816040820151169160608201511660808201519060a08301519160c08401519260018060a01b03938460e0870151169061010087015192866101208901511694610140890151966101a06101608b0151996101808c0151169a01519a61214e8c611a99565b6040519e8f9e8f611ab0565b0390a1565b1561216657565b60405162461bcd60e51b815260206004820152601a60248201527f4552525f494e53554646494349454e545f5052494e434950414c0000000000006044820152606490fdfea26469706673582212208e4aa1a0786c11460efb0c8ebc10481ec423eea89ef92ec81f0c40eb5766dbcc64736f6c63430008110033",
  "immutableReferences": {},
  "source": "// SPDX-License-Identifier: GPL-3.0\r\npragma solidity >=0.7.0 <0.9.0;\r\n\r\nimport \"../libraries/OfferLibrary.sol\";\r\nimport \"../libraries/RequestLibrary.sol\";\r\n\r\nimport \"../interfaces/IOfferManager.sol\";\r\n\r\nimport \"@openzeppelin/contracts/utils/math/SafeMath.sol\";\r\nimport \"@openzeppelin/contracts/access/Ownable2Step.sol\";\r\nimport \"@openzeppelin/contracts/utils/Counters.sol\";\r\n\r\n/*\r\n    The OfferManager contract is responsible for bookeeping\r\n    the offers and requests made.\r\n\r\n    It can be only modified by the LendingPool contract,\r\n    but can be read from external sources.\r\n\r\n    Any OfferManager contract must inherite the IOfferManager interface.\r\n*/\r\n\r\ncontract OfferManager is IOfferManager, Ownable2Step {\r\n    uint256 public constant ONE_DAY = 60 * 60 * 24;\r\n    uint256 public constant ONE_HOUR = 60 * 60;\r\n\r\n    using Counters for Counters.Counter;\r\n    using SafeMath for uint256;\r\n\r\n    // offers\r\n    Counters.Counter private offerIdTracker;\r\n    mapping(uint256 => OfferLibrary.Offer) public offers;\r\n\r\n    // request\r\n    Counters.Counter private requestIdTracker;\r\n    mapping(uint256 => RequestLibrary.Request) public requests;\r\n\r\n    address lendingPool;\r\n\r\n    constructor() Ownable2Step() {}\r\n\r\n    // creates a new lending offer\r\n    function createLendingOffer(\r\n        address principalToken,\r\n        uint256 principalAmount,\r\n        uint256 interestRate,\r\n        uint16 daysToMaturity,\r\n        uint16 daysToExpire,\r\n        address[] memory collateralTokens,\r\n        address lender\r\n    ) public override onlyLendingPool returns (uint256) {\r\n        offerIdTracker.increment();\r\n        uint256 offerId = offerIdTracker.current();\r\n\r\n        uint256 createdAt = block.timestamp;\r\n        uint256 duration = ONE_DAY.mul(daysToExpire);\r\n        uint256 expiresAt = createdAt.add(duration);\r\n\r\n        require(collateralTokens.length > 0, \"ERR_NO_COLLATERAL_TYPES\");\r\n\r\n        offers[offerId] = OfferLibrary.Offer(\r\n            // shared\r\n            offerId,\r\n            OfferLibrary.State.DEFAULT,\r\n            principalToken,\r\n            principalAmount, // currentPrincipal\r\n            principalAmount, // initialPrincipal\r\n            interestRate,\r\n            daysToMaturity,\r\n            expiresAt,\r\n            createdAt,\r\n            lender,\r\n            // related to lending offers only\r\n            collateralTokens,\r\n            // related to borrowing offers only\r\n            address(0),\r\n            0,\r\n            0,\r\n            // type\r\n            OfferLibrary.Type.LENDING_OFFER\r\n        );\r\n\r\n        _emitOffer(offerId, offers[offerId]);\r\n        return offerId;\r\n    }\r\n\r\n    function reActivateOffer(\r\n        uint256 offerId,\r\n        uint16 toExpire,\r\n        address user\r\n    ) public override onlyLendingPool {\r\n        OfferLibrary.Offer memory offer = offers[offerId];\r\n\r\n        require(offer.creator == user, \"ERR_ONLY_CREATOR\");\r\n        require(offer.initialCollateral == offer.currentCollateral);\r\n\r\n        uint256 createdAt = block.timestamp;\r\n        require(createdAt > offer.expiresAt, \"ERR_NOT_EXPIRED\");\r\n\r\n        offerIdTracker.increment();\r\n\r\n        uint256 duration;\r\n        if (offer.offerType == OfferLibrary.Type.LENDING_OFFER) {\r\n            duration = ONE_DAY.mul(toExpire);\r\n        } else {\r\n            duration = ONE_HOUR.mul(toExpire);\r\n        }\r\n\r\n        offer.expiresAt = createdAt + duration;\r\n        offer.offerId = offerIdTracker.current();\r\n\r\n        _emitOffer(offerId, offer);\r\n    }\r\n\r\n    // creates a new lending request\r\n    function createLendingRequest(\r\n        uint16 percentage,\r\n        uint256 interestRate,\r\n        uint16 daysToMaturity,\r\n        uint16 hoursToExpire,\r\n        address lender,\r\n        uint256 offerId\r\n    ) public override onlyLendingPool returns (uint256) {\r\n        requestIdTracker.increment();\r\n        uint256 requestId = requestIdTracker.current();\r\n\r\n        uint256 createdAt = block.timestamp;\r\n        uint256 duration = ONE_HOUR.mul(hoursToExpire);\r\n        uint256 expiresAt = createdAt.add(duration);\r\n\r\n        OfferLibrary.Offer memory offer = offers[offerId];\r\n\r\n        require(\r\n            offer.offerType == OfferLibrary.Type.BORROWING_OFFER,\r\n            \"ERR_OFFER_TYPE\"\r\n        );\r\n        if (offer.initialCollateral == offer.currentCollateral) {\r\n            require(createdAt < offers[offerId].expiresAt, \"ERR_OFFER_EXPIRED\");\r\n        }\r\n\r\n        requests[requestId] = RequestLibrary.Request(\r\n            // shared\r\n            requestId,\r\n            RequestLibrary.State.PENDING,\r\n            percentage,\r\n            daysToMaturity,\r\n            interestRate,\r\n            expiresAt,\r\n            createdAt,\r\n            lender,\r\n            offerId,\r\n            // related to borrowing request only\r\n            address(0),\r\n            0,\r\n            0,\r\n            0,\r\n            // type\r\n            RequestLibrary.Type.LENDING_REQUEST\r\n        );\r\n\r\n        _emitRequest(requestId, requests[requestId]);\r\n        return requestId;\r\n    }\r\n\r\n    // creates a new borrowing offer\r\n    function createBorrowingOffer(\r\n        address principalToken,\r\n        address collateralToken,\r\n        uint256 collateralAmount,\r\n        uint256 principalAmount,\r\n        uint256 interestRate,\r\n        uint16 daysToMaturity,\r\n        uint16 hoursToExpire,\r\n        address borrower\r\n    ) public override onlyLendingPool returns (uint256) {\r\n        offerIdTracker.increment();\r\n        uint256 offerId = offerIdTracker.current();\r\n\r\n        uint256 createdAt = block.timestamp;\r\n        uint256 duration = ONE_HOUR.mul(hoursToExpire);\r\n        uint256 expiresAt = createdAt.add(duration);\r\n\r\n        offers[offerId] = OfferLibrary.Offer(\r\n            offerId,\r\n            OfferLibrary.State.DEFAULT,\r\n            principalToken,\r\n            principalAmount, // currentPrincipal\r\n            principalAmount, // initialPrincipal\r\n            interestRate,\r\n            daysToMaturity,\r\n            expiresAt,\r\n            createdAt,\r\n            borrower,\r\n            // related to lending offers only\r\n            new address[](0),\r\n            // related to borrowing offers only\r\n            collateralToken,\r\n            collateralAmount, // currentCollateral\r\n            collateralAmount, //  initialCollateral\r\n            // type\r\n            OfferLibrary.Type.BORROWING_OFFER\r\n        );\r\n\r\n        _emitOffer(offerId, offers[offerId]);\r\n        return offerId;\r\n    }\r\n\r\n    // creates a new borrowing request\r\n    function createBorrowingRequest(\r\n        uint16 percentage,\r\n        address collateralToken,\r\n        uint256 collateralAmount,\r\n        uint256 collateralPriceInUSD,\r\n        uint160 ltvUsed,\r\n        uint256 interestRate,\r\n        uint16 daysToMaturity,\r\n        uint16 hoursToExpire,\r\n        address borrower,\r\n        uint256 offerId\r\n    ) public override onlyLendingPool returns (uint256) {\r\n        requestIdTracker.increment();\r\n        uint256 requestId = requestIdTracker.current();\r\n\r\n        uint256 createdAt = block.timestamp;\r\n        uint256 duration = ONE_HOUR.mul(hoursToExpire);\r\n        uint256 expiresAt = createdAt.add(duration);\r\n\r\n        OfferLibrary.Offer memory offer = offers[offerId];\r\n\r\n        require(\r\n            offer.offerType == OfferLibrary.Type.LENDING_OFFER,\r\n            \"ERR_OFFER_TYPE\"\r\n        );\r\n        require(createdAt < offers[offerId].expiresAt, \"ERR_OFFER_EXPIRED\");\r\n        if (offer.initialCollateral == offer.currentCollateral) {\r\n            require(createdAt < offers[offerId].expiresAt, \"ERR_OFFER_EXPIRED\");\r\n        }\r\n\r\n        requests[requestId] = RequestLibrary.Request(\r\n            // shared\r\n            requestId,\r\n            RequestLibrary.State.PENDING,\r\n            percentage,\r\n            daysToMaturity,\r\n            interestRate,\r\n            expiresAt,\r\n            createdAt,\r\n            borrower,\r\n            offerId,\r\n            // related to borrowing request only\r\n            collateralToken,\r\n            collateralAmount,\r\n            collateralPriceInUSD,\r\n            ltvUsed,\r\n            RequestLibrary.Type.BORROWING_REQUEST\r\n        );\r\n\r\n        _emitRequest(requestId, requests[requestId]);\r\n        return requestId;\r\n    }\r\n\r\n    function rejectRequest(uint256 requestId, address user)\r\n        public\r\n        override\r\n        onlyLendingPool\r\n    {\r\n        RequestLibrary.Request storage request = requests[requestId];\r\n        OfferLibrary.Offer memory offer = offers[request.offerId];\r\n        require(offer.creator == user, \"ERR_ONLY_CREATOR\");\r\n        require(\r\n            request.state == RequestLibrary.State.PENDING,\r\n            \"ERR_OFFER_STATE\"\r\n        );\r\n        request.state = RequestLibrary.State.REJECTED;\r\n        _emitRequest(requestId, request);\r\n    }\r\n\r\n    function acceptRequest(uint256 requestId, address user)\r\n        public\r\n        override\r\n        onlyLendingPool\r\n    {\r\n        RequestLibrary.Request storage request = requests[requestId];\r\n        OfferLibrary.Offer memory offer = offers[request.offerId];\r\n        require(offer.creator == user, \"ERR_ONLY_CREATOR\");\r\n        request.state = RequestLibrary.State.ACCEPTED;\r\n        _emitRequest(requestId, request);\r\n    }\r\n\r\n    function cancelRequest(uint256 requestId, address user)\r\n        public\r\n        override\r\n        onlyLendingPool\r\n    {\r\n        RequestLibrary.Request storage request = requests[requestId];\r\n        require(request.creator == user, \"ERR_ONLY_CREATOR\");\r\n        require(\r\n            request.state != RequestLibrary.State.ACCEPTED,\r\n            \"ERR_ALREADY_USED\"\r\n        );\r\n        require(\r\n            request.state != RequestLibrary.State.CANCELLED,\r\n            \"ERR_ALREADY_CANCELLED\"\r\n        );\r\n        request.state = RequestLibrary.State.CANCELLED;\r\n        _emitRequest(requestId, request);\r\n    }\r\n\r\n    function removePrincipal(\r\n        uint256 offerId,\r\n        address user,\r\n        uint256 amount\r\n    ) public override onlyLendingPool {\r\n        OfferLibrary.Offer storage offer = offers[offerId];\r\n        require(\r\n            offer.offerType == OfferLibrary.Type.LENDING_OFFER,\r\n            \"ERR_OFFER_TYPE\"\r\n        );\r\n        require(offer.currentPrincipal >= amount, \"INSUFICIENT_AMOUNT\");\r\n        require(offer.creator == user, \"ERR_ONLY_LENDER\");\r\n        \r\n        offer.currentPrincipal -= amount;\r\n\r\n        if (amount == offer.initialPrincipal) {\r\n            offer.state = OfferLibrary.State.CANCELLED;\r\n        }\r\n\r\n        _emitOffer(offerId, offer);\r\n    }\r\n\r\n     function removeCollateral(\r\n        uint256 offerId,\r\n        address user,\r\n        uint256 amount\r\n    ) public override onlyLendingPool {\r\n        OfferLibrary.Offer storage offer = offers[offerId];\r\n        require(\r\n            offer.offerType == OfferLibrary.Type.BORROWING_OFFER,\r\n            \"ERR_OFFER_TYPE\"\r\n        );\r\n        require(offer.currentCollateral >= amount, \"INSUFICIENT_AMOUNT\");\r\n        require(offer.creator == user, \"ERR_ONLY_LENDER\");\r\n\r\n        offer.currentCollateral -= amount;\r\n\r\n        if (amount == offer.initialCollateral) {\r\n            offer.state = OfferLibrary.State.CANCELLED;\r\n        }\r\n\r\n        _emitOffer(offerId, offer);\r\n    }\r\n\r\n    // events\r\n    function _emitOffer(uint256 offerId, OfferLibrary.Offer memory offer)\r\n        private\r\n    {\r\n        emit OfferLibrary.OfferCreated(\r\n            offerId,\r\n            offer.state,\r\n            offer.principalToken,\r\n            offer.currentPrincipal,\r\n            offer.initialPrincipal,\r\n            offer.interestRate,\r\n            offer.daysToMaturity,\r\n            offer.expiresAt,\r\n            offer.createdAt,\r\n            offer.creator,\r\n            offer.collateralTokens,\r\n            offer.collateralToken,\r\n            offer.currentCollateral,\r\n            offer.initialCollateral,\r\n            offer.offerType\r\n        );\r\n    }\r\n\r\n    function _emitRequest(\r\n        uint256 requestId,\r\n        RequestLibrary.Request memory request\r\n    ) private {\r\n        emit RequestLibrary.RequestCreated(\r\n            requestId,\r\n            request.state,\r\n            request.percentage,\r\n            request.daysToMaturity,\r\n            request.interestRate,\r\n            request.expiresAt,\r\n            request.createdAt,\r\n            request.creator,\r\n            request.offerId,\r\n            request.collateralToken,\r\n            request.collateralAmount,\r\n            request.collateralPriceInUSD,\r\n            request.ltvUsed,\r\n            request.requestType\r\n        );\r\n    }\r\n\r\n    // called after a lending offer loan is executed\r\n    function afterLendingLoan(uint256 offerId, uint256 principalAmount)\r\n        public\r\n        override\r\n        onlyLendingPool\r\n    {\r\n        OfferLibrary.Offer storage offer = offers[offerId];\r\n        require(\r\n            offer.currentPrincipal >= principalAmount,\r\n            \"ERR_INSUFFICIENT_PRINCIPAL\"\r\n        );\r\n        require(offer.expiresAt > block.timestamp, \"ERR_OFFER_EXPIRED\");\r\n\r\n        offers[offerId].currentPrincipal -= principalAmount;\r\n\r\n        _emitOffer(offerId, offer);\r\n    }\r\n\r\n    // called after a borrowing offer loan is executed\r\n    function afterBorrowingLoan(\r\n        uint256 offerId,\r\n        uint256 principalAmount,\r\n        uint256 collateralAmount\r\n    ) public override onlyLendingPool {\r\n        OfferLibrary.Offer storage offer = offers[offerId];\r\n        require(\r\n            offer.currentPrincipal >= principalAmount,\r\n            \"ERR_INSUFFICIENT_PRINCIPAL\"\r\n        );\r\n        require(\r\n            offer.currentCollateral >= collateralAmount,\r\n            \"ERR_INSUFFICIENT_COLLATERAL\"\r\n        );\r\n        require(offer.expiresAt > block.timestamp, \"ERR_OFFER_EXPIRED\");\r\n\r\n        offer.currentPrincipal -= principalAmount;\r\n        offer.currentCollateral -= collateralAmount;\r\n\r\n        _emitOffer(offerId, offer);\r\n    }\r\n\r\n    // checks if a offer support collateral token\r\n    function isCollateralSupported(uint256 offerId, address token)\r\n        public\r\n        view\r\n        override\r\n        returns (bool)\r\n    {\r\n        OfferLibrary.Offer memory offer = offers[offerId];\r\n        bool supported = false;\r\n        for (\r\n            uint256 index = 0;\r\n            index < offer.collateralTokens.length;\r\n            index++\r\n        ) {\r\n            if (offer.collateralTokens[index] == token) {\r\n                supported = true;\r\n                break;\r\n            }\r\n        }\r\n        return supported;\r\n    }\r\n\r\n    // getters\r\n    function getOffer(uint256 offerId)\r\n        public\r\n        view\r\n        override\r\n        returns (OfferLibrary.Offer memory)\r\n    {\r\n        return offers[offerId];\r\n    }\r\n\r\n    function getRequest(uint256 requestId)\r\n        public\r\n        view\r\n        override\r\n        returns (RequestLibrary.Request memory)\r\n    {\r\n        return requests[requestId];\r\n    }\r\n\r\n    function setLendingPool(address address_) public onlyOwner {\r\n        lendingPool = address_;\r\n    }\r\n\r\n    modifier onlyLendingPool() {\r\n        require(msg.sender == lendingPool);\r\n        _;\r\n    }\r\n}\r\n",
  "sourcePath": "C:\\Users\\DELL\\Documents\\darsh\\smart-contracts\\contracts\\managers\\OfferManager.sol",
  "compiler": {
    "name": "solc",
    "version": "0.8.17+commit.8df45f5f.Emscripten.clang"
  },
  "schemaVersion": "3.4.11",
  "updatedAt": "2023-03-01T16:48:32.103Z",
  "networkType": "ethereum",
  "devdoc": {
    "kind": "dev",
    "methods": {
      "acceptOwnership()": {
        "details": "The new owner accepts the ownership transfer."
      },
      "owner()": {
        "details": "Returns the address of the current owner."
      },
      "pendingOwner()": {
        "details": "Returns the address of the pending owner."
      },
      "renounceOwnership()": {
        "details": "Leaves the contract without owner. It will not be possible to call `onlyOwner` functions anymore. Can only be called by the current owner. NOTE: Renouncing ownership will leave the contract without an owner, thereby removing any functionality that is only available to the owner."
      },
      "transferOwnership(address)": {
        "details": "Starts the ownership transfer of the contract to a new account. Replaces the pending transfer if there is one. Can only be called by the current owner."
      }
    },
    "version": 1
  },
  "userdoc": {
    "kind": "user",
    "methods": {},
    "version": 1
  }
}