{
  "contractName": "OfferManager",
  "abi": [
    {
      "inputs": [],
      "stateMutability": "nonpayable",
      "type": "constructor"
    },
    {
      "anonymous": false,
      "inputs": [
        {
          "indexed": false,
          "internalType": "uint256",
          "name": "offerId",
          "type": "uint256"
        },
        {
          "indexed": false,
          "internalType": "enum AssetLibrary.Type",
          "name": "principalType",
          "type": "uint8"
        },
        {
          "indexed": false,
          "internalType": "enum AssetLibrary.Type",
          "name": "collateralType",
          "type": "uint8"
        },
        {
          "indexed": false,
          "internalType": "uint256",
          "name": "initialCollateral",
          "type": "uint256"
        },
        {
          "indexed": false,
          "internalType": "uint256",
          "name": "currentCollateral",
          "type": "uint256"
        },
        {
          "indexed": false,
          "internalType": "uint256",
          "name": "interest",
          "type": "uint256"
        },
        {
          "indexed": false,
          "internalType": "uint256",
          "name": "daysToMaturity",
          "type": "uint256"
        },
        {
          "indexed": false,
          "internalType": "uint160",
          "name": "expiresAt",
          "type": "uint160"
        },
        {
          "indexed": false,
          "internalType": "uint160",
          "name": "createdAt",
          "type": "uint160"
        },
        {
          "indexed": false,
          "internalType": "address",
          "name": "borrower",
          "type": "address"
        }
      ],
      "name": "BorrowingOfferCreated",
      "type": "event"
    },
    {
      "anonymous": false,
      "inputs": [
        {
          "indexed": false,
          "internalType": "uint256",
          "name": "offerId",
          "type": "uint256"
        },
        {
          "indexed": false,
          "internalType": "enum AssetLibrary.Type",
          "name": "principalType",
          "type": "uint8"
        },
        {
          "indexed": false,
          "internalType": "uint256",
          "name": "currentPrincipal",
          "type": "uint256"
        },
        {
          "indexed": false,
          "internalType": "uint256",
          "name": "initialPrincipal",
          "type": "uint256"
        },
        {
          "indexed": false,
          "internalType": "uint256",
          "name": "interest",
          "type": "uint256"
        },
        {
          "indexed": false,
          "internalType": "uint256",
          "name": "daysToMaturity",
          "type": "uint256"
        },
        {
          "indexed": false,
          "internalType": "enum AssetLibrary.Type[]",
          "name": "collateralTypes",
          "type": "uint8[]"
        },
        {
          "indexed": false,
          "internalType": "uint160",
          "name": "expiresAt",
          "type": "uint160"
        },
        {
          "indexed": false,
          "internalType": "uint160",
          "name": "createdAt",
          "type": "uint160"
        },
        {
          "indexed": false,
          "internalType": "address",
          "name": "lender",
          "type": "address"
        }
      ],
      "name": "LendingOfferCreated",
      "type": "event"
    },
    {
      "anonymous": false,
      "inputs": [
        {
          "indexed": false,
          "internalType": "uint256",
          "name": "offerId",
          "type": "uint256"
        },
        {
          "indexed": false,
          "internalType": "enum OfferLibrary.Type",
          "name": "offerType",
          "type": "uint8"
        }
      ],
      "name": "OfferClosed",
      "type": "event"
    },
    {
      "anonymous": false,
      "inputs": [
        {
          "indexed": true,
          "internalType": "address",
          "name": "previousOwner",
          "type": "address"
        },
        {
          "indexed": true,
          "internalType": "address",
          "name": "newOwner",
          "type": "address"
        }
      ],
      "name": "OwnershipTransferStarted",
      "type": "event"
    },
    {
      "anonymous": false,
      "inputs": [
        {
          "indexed": true,
          "internalType": "address",
          "name": "previousOwner",
          "type": "address"
        },
        {
          "indexed": true,
          "internalType": "address",
          "name": "newOwner",
          "type": "address"
        }
      ],
      "name": "OwnershipTransferred",
      "type": "event"
    },
    {
      "anonymous": false,
      "inputs": [
        {
          "indexed": false,
          "internalType": "uint256",
          "name": "requestId",
          "type": "uint256"
        },
        {
          "indexed": false,
          "internalType": "enum RequestLibrary.Type",
          "name": "requestType",
          "type": "uint8"
        }
      ],
      "name": "RequestClosed",
      "type": "event"
    },
    {
      "inputs": [],
      "name": "acceptOwnership",
      "outputs": [],
      "stateMutability": "nonpayable",
      "type": "function"
    },
    {
      "inputs": [
        {
          "internalType": "uint256",
          "name": "",
          "type": "uint256"
        }
      ],
      "name": "borrowingOffers",
      "outputs": [
        {
          "internalType": "uint256",
          "name": "offerId",
          "type": "uint256"
        },
        {
          "internalType": "enum AssetLibrary.Type",
          "name": "principalType",
          "type": "uint8"
        },
        {
          "internalType": "enum AssetLibrary.Type",
          "name": "collateralType",
          "type": "uint8"
        },
        {
          "internalType": "uint256",
          "name": "currentCollateral",
          "type": "uint256"
        },
        {
          "internalType": "uint256",
          "name": "initialCollateral",
          "type": "uint256"
        },
        {
          "internalType": "uint256",
          "name": "interest",
          "type": "uint256"
        },
        {
          "internalType": "uint256",
          "name": "daysToMaturity",
          "type": "uint256"
        },
        {
          "internalType": "uint160",
          "name": "expiresAt",
          "type": "uint160"
        },
        {
          "internalType": "uint160",
          "name": "createdAt",
          "type": "uint160"
        },
        {
          "internalType": "address",
          "name": "borrower",
          "type": "address"
        }
      ],
      "stateMutability": "view",
      "type": "function"
    },
    {
      "inputs": [
        {
          "internalType": "uint256",
          "name": "",
          "type": "uint256"
        }
      ],
      "name": "borrowingRequests",
      "outputs": [
        {
          "internalType": "uint256",
          "name": "requestId",
          "type": "uint256"
        },
        {
          "internalType": "uint256",
          "name": "collateral",
          "type": "uint256"
        },
        {
          "internalType": "enum AssetLibrary.Type",
          "name": "collateralType",
          "type": "uint8"
        },
        {
          "internalType": "uint256",
          "name": "interest",
          "type": "uint256"
        },
        {
          "internalType": "uint256",
          "name": "daysToMaturity",
          "type": "uint256"
        },
        {
          "internalType": "uint256",
          "name": "expiresAt",
          "type": "uint256"
        },
        {
          "internalType": "uint256",
          "name": "createdAt",
          "type": "uint256"
        },
        {
          "internalType": "address",
          "name": "borrower",
          "type": "address"
        },
        {
          "internalType": "uint256",
          "name": "offerId",
          "type": "uint256"
        }
      ],
      "stateMutability": "view",
      "type": "function"
    },
    {
      "inputs": [
        {
          "internalType": "uint256",
          "name": "",
          "type": "uint256"
        }
      ],
      "name": "lendingOffers",
      "outputs": [
        {
          "internalType": "uint256",
          "name": "offerId",
          "type": "uint256"
        },
        {
          "internalType": "enum AssetLibrary.Type",
          "name": "principalType",
          "type": "uint8"
        },
        {
          "internalType": "uint256",
          "name": "currentPrincipal",
          "type": "uint256"
        },
        {
          "internalType": "uint256",
          "name": "initialPrincipal",
          "type": "uint256"
        },
        {
          "internalType": "uint256",
          "name": "interest",
          "type": "uint256"
        },
        {
          "internalType": "uint256",
          "name": "daysToMaturity",
          "type": "uint256"
        },
        {
          "internalType": "uint160",
          "name": "expiresAt",
          "type": "uint160"
        },
        {
          "internalType": "uint160",
          "name": "createdAt",
          "type": "uint160"
        },
        {
          "internalType": "address",
          "name": "lender",
          "type": "address"
        }
      ],
      "stateMutability": "view",
      "type": "function"
    },
    {
      "inputs": [
        {
          "internalType": "uint256",
          "name": "",
          "type": "uint256"
        }
      ],
      "name": "lendingRequests",
      "outputs": [
        {
          "internalType": "uint256",
          "name": "requestId",
          "type": "uint256"
        },
        {
          "internalType": "uint256",
          "name": "interest",
          "type": "uint256"
        },
        {
          "internalType": "uint256",
          "name": "desiredPercentage",
          "type": "uint256"
        },
        {
          "internalType": "uint256",
          "name": "daysToMaturity",
          "type": "uint256"
        },
        {
          "internalType": "uint256",
          "name": "expiresAt",
          "type": "uint256"
        },
        {
          "internalType": "uint256",
          "name": "createdAt",
          "type": "uint256"
        },
        {
          "internalType": "address",
          "name": "lender",
          "type": "address"
        },
        {
          "internalType": "uint256",
          "name": "offerId",
          "type": "uint256"
        }
      ],
      "stateMutability": "view",
      "type": "function"
    },
    {
      "inputs": [],
      "name": "owner",
      "outputs": [
        {
          "internalType": "address",
          "name": "",
          "type": "address"
        }
      ],
      "stateMutability": "view",
      "type": "function"
    },
    {
      "inputs": [],
      "name": "pendingOwner",
      "outputs": [
        {
          "internalType": "address",
          "name": "",
          "type": "address"
        }
      ],
      "stateMutability": "view",
      "type": "function"
    },
    {
      "inputs": [],
      "name": "renounceOwnership",
      "outputs": [],
      "stateMutability": "nonpayable",
      "type": "function"
    },
    {
      "inputs": [
        {
          "internalType": "address",
          "name": "newOwner",
          "type": "address"
        }
      ],
      "name": "transferOwnership",
      "outputs": [],
      "stateMutability": "nonpayable",
      "type": "function"
    },
    {
      "inputs": [
        {
          "internalType": "enum AssetLibrary.Type",
          "name": "principalType",
          "type": "uint8"
        },
        {
          "internalType": "uint256",
          "name": "principal",
          "type": "uint256"
        },
        {
          "internalType": "uint256",
          "name": "interest",
          "type": "uint256"
        },
        {
          "internalType": "uint256",
          "name": "daysToMaturity",
          "type": "uint256"
        },
        {
          "internalType": "uint256",
          "name": "daysToExpire",
          "type": "uint256"
        },
        {
          "internalType": "enum AssetLibrary.Type[]",
          "name": "collateralTypes",
          "type": "uint8[]"
        },
        {
          "internalType": "address",
          "name": "lender",
          "type": "address"
        }
      ],
      "name": "createLendingOffer",
      "outputs": [
        {
          "internalType": "uint256",
          "name": "",
          "type": "uint256"
        }
      ],
      "stateMutability": "nonpayable",
      "type": "function"
    },
    {
      "inputs": [
        {
          "internalType": "uint256",
          "name": "offerId",
          "type": "uint256"
        },
        {
          "internalType": "uint256",
          "name": "principal",
          "type": "uint256"
        }
      ],
      "name": "_afterOfferLendingLoan",
      "outputs": [],
      "stateMutability": "nonpayable",
      "type": "function"
    },
    {
      "inputs": [
        {
          "internalType": "uint256",
          "name": "offerId",
          "type": "uint256"
        },
        {
          "internalType": "uint256",
          "name": "collateral",
          "type": "uint256"
        }
      ],
      "name": "_afterOfferBorrowingLoan",
      "outputs": [],
      "stateMutability": "nonpayable",
      "type": "function"
    },
    {
      "inputs": [
        {
          "internalType": "enum AssetLibrary.Type",
          "name": "principalType",
          "type": "uint8"
        },
        {
          "internalType": "enum AssetLibrary.Type",
          "name": "collateralType",
          "type": "uint8"
        },
        {
          "internalType": "uint256",
          "name": "collateral",
          "type": "uint256"
        },
        {
          "internalType": "uint256",
          "name": "interest",
          "type": "uint256"
        },
        {
          "internalType": "uint256",
          "name": "daysToMaturity",
          "type": "uint256"
        },
        {
          "internalType": "uint256",
          "name": "daysToExpire",
          "type": "uint256"
        },
        {
          "internalType": "address",
          "name": "borrower",
          "type": "address"
        }
      ],
      "name": "createBorrowingOffer",
      "outputs": [
        {
          "internalType": "uint256",
          "name": "",
          "type": "uint256"
        }
      ],
      "stateMutability": "nonpayable",
      "type": "function"
    },
    {
      "inputs": [
        {
          "internalType": "uint256",
          "name": "offerId",
          "type": "uint256"
        },
        {
          "internalType": "address",
          "name": "lender",
          "type": "address"
        },
        {
          "internalType": "uint256",
          "name": "amount",
          "type": "uint256"
        }
      ],
      "name": "withdrawLendingOffer",
      "outputs": [
        {
          "internalType": "bool",
          "name": "",
          "type": "bool"
        }
      ],
      "stateMutability": "nonpayable",
      "type": "function"
    },
    {
      "inputs": [
        {
          "internalType": "uint256",
          "name": "requestId",
          "type": "uint256"
        }
      ],
      "name": "closeLendingRequest",
      "outputs": [],
      "stateMutability": "nonpayable",
      "type": "function"
    },
    {
      "inputs": [
        {
          "internalType": "uint256",
          "name": "offerId",
          "type": "uint256"
        }
      ],
      "name": "getLendingOffer",
      "outputs": [
        {
          "components": [
            {
              "internalType": "uint256",
              "name": "offerId",
              "type": "uint256"
            },
            {
              "internalType": "enum AssetLibrary.Type",
              "name": "principalType",
              "type": "uint8"
            },
            {
              "internalType": "uint256",
              "name": "currentPrincipal",
              "type": "uint256"
            },
            {
              "internalType": "uint256",
              "name": "initialPrincipal",
              "type": "uint256"
            },
            {
              "internalType": "uint256",
              "name": "interest",
              "type": "uint256"
            },
            {
              "internalType": "uint256",
              "name": "daysToMaturity",
              "type": "uint256"
            },
            {
              "internalType": "enum AssetLibrary.Type[]",
              "name": "collateralTypes",
              "type": "uint8[]"
            },
            {
              "internalType": "uint160",
              "name": "expiresAt",
              "type": "uint160"
            },
            {
              "internalType": "uint160",
              "name": "createdAt",
              "type": "uint160"
            },
            {
              "internalType": "address",
              "name": "lender",
              "type": "address"
            }
          ],
          "internalType": "struct OfferLibrary.LendingOffer",
          "name": "",
          "type": "tuple"
        }
      ],
      "stateMutability": "view",
      "type": "function"
    },
    {
      "inputs": [
        {
          "internalType": "uint256",
          "name": "offerId",
          "type": "uint256"
        }
      ],
      "name": "getBorrowingOffer",
      "outputs": [
        {
          "components": [
            {
              "internalType": "uint256",
              "name": "offerId",
              "type": "uint256"
            },
            {
              "internalType": "enum AssetLibrary.Type",
              "name": "principalType",
              "type": "uint8"
            },
            {
              "internalType": "enum AssetLibrary.Type",
              "name": "collateralType",
              "type": "uint8"
            },
            {
              "internalType": "uint256",
              "name": "currentCollateral",
              "type": "uint256"
            },
            {
              "internalType": "uint256",
              "name": "initialCollateral",
              "type": "uint256"
            },
            {
              "internalType": "uint256",
              "name": "interest",
              "type": "uint256"
            },
            {
              "internalType": "uint256",
              "name": "daysToMaturity",
              "type": "uint256"
            },
            {
              "internalType": "uint160",
              "name": "expiresAt",
              "type": "uint160"
            },
            {
              "internalType": "uint160",
              "name": "createdAt",
              "type": "uint160"
            },
            {
              "internalType": "address",
              "name": "borrower",
              "type": "address"
            }
          ],
          "internalType": "struct OfferLibrary.BorrowingOffer",
          "name": "",
          "type": "tuple"
        }
      ],
      "stateMutability": "view",
      "type": "function"
    },
    {
      "inputs": [
        {
          "internalType": "uint256",
          "name": "requestId",
          "type": "uint256"
        }
      ],
      "name": "getBorrowingRequest",
      "outputs": [
        {
          "components": [
            {
              "internalType": "uint256",
              "name": "requestId",
              "type": "uint256"
            },
            {
              "internalType": "uint256",
              "name": "collateral",
              "type": "uint256"
            },
            {
              "internalType": "enum AssetLibrary.Type",
              "name": "collateralType",
              "type": "uint8"
            },
            {
              "internalType": "uint256",
              "name": "interest",
              "type": "uint256"
            },
            {
              "internalType": "uint256",
              "name": "daysToMaturity",
              "type": "uint256"
            },
            {
              "internalType": "uint256",
              "name": "expiresAt",
              "type": "uint256"
            },
            {
              "internalType": "uint256",
              "name": "createdAt",
              "type": "uint256"
            },
            {
              "internalType": "address",
              "name": "borrower",
              "type": "address"
            },
            {
              "internalType": "uint256",
              "name": "offerId",
              "type": "uint256"
            }
          ],
          "internalType": "struct RequestLibrary.BorrowingRequest",
          "name": "",
          "type": "tuple"
        }
      ],
      "stateMutability": "view",
      "type": "function"
    },
    {
      "inputs": [
        {
          "internalType": "uint256",
          "name": "requestId",
          "type": "uint256"
        }
      ],
      "name": "getLendingRequest",
      "outputs": [
        {
          "components": [
            {
              "internalType": "uint256",
              "name": "requestId",
              "type": "uint256"
            },
            {
              "internalType": "uint256",
              "name": "interest",
              "type": "uint256"
            },
            {
              "internalType": "uint256",
              "name": "desiredPercentage",
              "type": "uint256"
            },
            {
              "internalType": "uint256",
              "name": "daysToMaturity",
              "type": "uint256"
            },
            {
              "internalType": "uint256",
              "name": "expiresAt",
              "type": "uint256"
            },
            {
              "internalType": "uint256",
              "name": "createdAt",
              "type": "uint256"
            },
            {
              "internalType": "address",
              "name": "lender",
              "type": "address"
            },
            {
              "internalType": "uint256",
              "name": "offerId",
              "type": "uint256"
            }
          ],
          "internalType": "struct RequestLibrary.LendingRequest",
          "name": "",
          "type": "tuple"
        }
      ],
      "stateMutability": "view",
      "type": "function"
    },
    {
      "inputs": [
        {
          "internalType": "uint256",
          "name": "offerId",
          "type": "uint256"
        },
        {
          "internalType": "address",
          "name": "provider",
          "type": "address"
        },
        {
          "internalType": "enum OfferLibrary.Type",
          "name": "offerType",
          "type": "uint8"
        }
      ],
      "name": "belongsTo",
      "outputs": [
        {
          "internalType": "bool",
          "name": "",
          "type": "bool"
        }
      ],
      "stateMutability": "view",
      "type": "function"
    },
    {
      "inputs": [
        {
          "internalType": "address",
          "name": "address_",
          "type": "address"
        }
      ],
      "name": "setLendingPool",
      "outputs": [],
      "stateMutability": "nonpayable",
      "type": "function"
    }
  ],
  "bytecode": "0x6080806040523461006357600180546001600160a01b03199081169091556000805433928116831782556001600160a01b0316907f8be0079c531659141344cd1fd0a4f28419497f9722a3daafe3b4186f6b6457e09080a3611e1990816100698239f35b600080fdfe608080604052600436101561001357600080fd5b60003560e01c9081630836c69614611ab457508063113aa8b114611a715780631315b06814611a3257806314c7eb491461192f5780632c6c483c1461170c5780634ca25059146116f957806352677ae914611272578063554bb3d11461112a57806355596758146110cf57806361a979bf1461104e578063715018a614610fe957806379ba509714610f2657806380a9600714610e8f5780638692fe0a14610e145780638da5cb5b14610deb578063a8e2135c14610cb2578063ab64a18514610380578063bf1e6097146101fe578063e30c3978146101d5578063f094cb95146101765763f2fde38b1461010657600080fd5b346101715760203660031901126101715761011f611b5a565b610127611c8f565b60018060a01b0380911690816001600160601b0360a01b6001541617600155600054167f38d16b8cac22d99fc7c124b9cd0de2d3fa1faef420bfe791d8c362d765e22700600080a3005b600080fd5b346101715761018436611c15565b600a549091906001600160a01b03163303610171578060005260046020526101b6826002604060002001541015611d24565b60005260046020526101d16002604060002001918254611d70565b9055005b34610171576000366003190112610171576001546040516001600160a01b039091168152602090f35b3461017157602036600319011261017157600061012060405161022081611bb9565b8281528260208201528260408201528260608201528260808201528260a08201528260c08201528260e0820152826101008201520152600435600052600560205261014060406000206040519061027682611bb9565b805482526102a060ff600183015461029382821660208701611d00565b60081c1660408401611d00565b6002810154606083015260038101546080830152600481015460a0830152600581015460c083015260068101546001600160a01b0390811660e084015260078201548116610100840152600890910154166101208201526040518151815260208083015191929161031391840190611b4d565b61032560408201516040840190611b4d565b606081810151908301526080808201519083015260a0808201519083015260c0808201519083015260e0808201516001600160a01b039081169184019190915261010080830151821690840152610120918201511690820152f35b346101715760203660031901126101715760006101206040516103a281611bb9565b8281528260208201528260408201528260608201528260808201528260a0820152606060c08201528260e082015282610100820152015260043560005260046020526040600020604051906103f682611bb9565b8054825261040e60ff60018301541660208401611d00565b600281015460408301526003810154606083015260048101546080830152600581015460a08301526040518081602060068501549283815201600685016000526020600020926000905b80601f830110610a295761056e945491818110610a0e575b8181106109f0575b8181106109d2575b8181106109b4575b818110610997575b818110610979575b81811061095b575b81811061093d575b81811061091f575b818110610901575b8181106108e3575b8181106108c5575b8181106108a7575b818110610889575b81811061086b575b81811061084d575b81811061082f575b818110610811575b8181106107f3575b8181106107d5575b8181106107b7575b818110610799575b81811061077b575b81811061075d575b81811061073f575b818110610721575b818110610703575b8181106106e5575b8181106106c7575b8181106106a9575b81811061068b575b10610674575b500382611bf3565b60c083015260078101546001600160a01b0390811660e0840152600882015481166101008401526009909101541661012082015260408051602080825283518183015283015161016082019391926105c99190840190611b4d565b6040810151606083015260608101516080830152608081015160a083015260a081015160c083015260c081015190610140908160e085015282518095526020610180850193016000955b80871061065557505060e08101516001600160a01b03908116610100808701919091528201518116610120808701919091529091015116908301528190039150f35b9093602080826106686001948951611b4d565b01950196019590610613565b906106848160209360f81c611b4d565b0186610566565b926020816106a160019360ff8760f01c16611b4d565b019301610560565b926020816106bf60019360ff8760e81c16611b4d565b019301610558565b926020816106dd60019360ff8760e01c16611b4d565b019301610550565b926020816106fb60019360ff8760d81c16611b4d565b019301610548565b9260208161071960019360ff8760d01c16611b4d565b019301610540565b9260208161073760019360ff8760c81c16611b4d565b019301610538565b9260208161075560019360ff8760c01c16611b4d565b019301610530565b9260208161077360019360ff8760b81c16611b4d565b019301610528565b9260208161079160019360ff8760b01c16611b4d565b019301610520565b926020816107af60019360ff8760a81c16611b4d565b019301610518565b926020816107cd60019360ff8760a01c16611b4d565b019301610510565b926020816107eb60019360ff8760981c16611b4d565b019301610508565b9260208161080960019360ff8760901c16611b4d565b019301610500565b9260208161082760019360ff8760881c16611b4d565b0193016104f8565b9260208161084560019360ff8760801c16611b4d565b0193016104f0565b9260208161086360019360ff8760781c16611b4d565b0193016104e8565b9260208161088160019360ff8760701c16611b4d565b0193016104e0565b9260208161089f60019360ff8760681c16611b4d565b0193016104d8565b926020816108bd60019360ff8760601c16611b4d565b0193016104d0565b926020816108db60019360ff8760581c16611b4d565b0193016104c8565b926020816108f960019360ff8760501c16611b4d565b0193016104c0565b9260208161091760019360ff8760481c16611b4d565b0193016104b8565b9260208161093560019360ff8760401c16611b4d565b0193016104b0565b9260208161095360019360ff8760381c16611b4d565b0193016104a8565b9260208161097160019360ff8760301c16611b4d565b0193016104a0565b9260208161098f60019360ff8760281c16611b4d565b019301610498565b926020816109ac60019360ff87851c16611b4d565b019301610490565b926020816109ca60019360ff8760181c16611b4d565b019301610488565b926020816109e860019360ff8760101c16611b4d565b019301610480565b92602081610a0660019360ff8760081c16611b4d565b019301610478565b92602081610a2160019360ff8716611b4d565b019301610470565b916020919350610400600191610ca48754610a478360ff8316611b4d565b610a5986840160ff8360081c16611b4d565b610a6c6040840160ff8360101c16611b4d565b610a7f6060840160ff8360181c16611b4d565b610a916080840160ff83891c16611b4d565b610aa460a0840160ff8360281c16611b4d565b610ab760c0840160ff8360301c16611b4d565b610aca60e0840160ff8360381c16611b4d565b610ade610100840160ff8360401c16611b4d565b610af2610120840160ff8360481c16611b4d565b610b06610140840160ff8360501c16611b4d565b610b1a610160840160ff8360581c16611b4d565b610b2e610180840160ff8360601c16611b4d565b610b426101a0840160ff8360681c16611b4d565b610b566101c0840160ff8360701c16611b4d565b610b6a6101e0840160ff8360781c16611b4d565b610b7e610200840160ff8360801c16611b4d565b610b92610220840160ff8360881c16611b4d565b610ba6610240840160ff8360901c16611b4d565b610bba610260840160ff8360981c16611b4d565b610bce610280840160ff8360a01c16611b4d565b610be26102a0840160ff8360a81c16611b4d565b610bf66102c0840160ff8360b01c16611b4d565b610c0a6102e0840160ff8360b81c16611b4d565b610c1e610300840160ff8360c01c16611b4d565b610c32610320840160ff8360c81c16611b4d565b610c46610340840160ff8360d01c16611b4d565b610c5a610360840160ff8360d81c16611b4d565b610c6e610380840160ff8360e01c16611b4d565b610c826103a0840160ff8360e81c16611b4d565b610c966103c0840160ff8360f01c16611b4d565b6103e083019060f81c611b4d565b019401920184929391610458565b3461017157602036600319011261017157610120604051610cd281611bd6565b6000815260006020820152600060408201526000606082015260006080820152600060a0820152600060c0820152600060e0820152600061010080920152600435600052600960205260406000209060405191610d2e83611bd6565b805483526001810154906020840191825260ff60028201541690610d56604086019283611d00565b60038101546060860190815260048201546080870190815260058301549060a0880191825260068401549260c08901938452610dc560018060a01b03966008886007890154169760e08d019889520154988a8c01998a526040519b518c525160208c01525160408b0190611b4d565b5160608901525160808801525160a08701525160c0860152511660e08401525190820152f35b34610171576000366003190112610171576000546040516001600160a01b039091168152602090f35b3461017157602036600319011261017157600435600052600560205260406000208054610e8b6001830154926002810154906003810154600482015460058301549060018060a01b039283600686015416936008816007880154169601541695604051998a9960ff808360081c169216908b611c2b565b0390f35b34610171576020366003190112610171576004356000526009602052610120604060002080549060018101549060ff60028201541660038201546004830154600584015491610f05600686015494600860018060a01b0360078901541697015497604051998a5260208a01526040890190611b4d565b6060870152608086015260a085015260c084015260e0830152610100820152f35b34610171576000366003190112610171576001546001600160a01b033381831603610f92576001600160601b0360a01b8092166001556000549133908316176000553391167f8be0079c531659141344cd1fd0a4f28419497f9722a3daafe3b4186f6b6457e0600080a3005b60405162461bcd60e51b815260206004820152602960248201527f4f776e61626c6532537465703a2063616c6c6572206973206e6f7420746865206044820152683732bb9037bbb732b960b91b6064820152608490fd5b3461017157600036600319011261017157611002611c8f565b600180546001600160a01b0319908116909155600080549182168155906001600160a01b03167f8be0079c531659141344cd1fd0a4f28419497f9722a3daafe3b4186f6b6457e08280a3005b34610171576020366003190112610171576004356000526008602052610100604060002080549060018101549060028101546003820154600483015490600584015492600760018060a01b0360068701541695015495604051978852602088015260408701526060860152608085015260a084015260c083015260e0820152f35b34610171576110dd36611c15565b600a549091906001600160a01b031633036101715780600052600560205261110f826002604060002001541015611d24565b60005260056020526101d16002604060002001918254611d70565b3461017157606036600319011261017157600435611146611b70565b600a5460443591906001600160a01b0390811633036101715783600052600460205280600960406000200154169116036101715780600260406000200154116101715761119c6002604060002001918254611d70565b9055806000526004602052600260406000200154156111c1575b602060405160018152f35b60406000206000815560016000818301556000600283015560006003830155600060048301556000600583015560068201805490600081558161124c575b5050507f33910d348349980653133cceb7aed6e2216c3ef8f0b3dccafe181486a83c730a91600060098382600760409601558260088201550155815190815260006020820152a1806111b6565b600052601f6020600020910160051c8101905b818110156111ff5760008155820161125f565b346101715760e036600319011261017157600660043510156101715760a43567ffffffffffffffff8111610171573660238201121561017157806004013567ffffffffffffffff81116116b457604051918160051b916112d56020840185611bf3565b83526020830190602482938201019036821161017157602401915b8183106116e057505050611302611b86565b600a549091906001600160a01b0316330361017157600160025401918260025560843562015180908181029181830414901517156116ca57611351906001600160a01b03908116904216611ce7565b60405161135d81611bb9565b84815261136f60043560208301611d00565b60243560408281018290526060830191909152604435608083015260643560a083015260c082018790526001600160a01b0383811660e08401524281166101008401528416610120830152600086815260046020908152919020825181559082015160068110156115eb576113e79060018301611d0c565b60408201516002820155606082015160038201556080820151600482015560a0820151600582015560c082015180519067ffffffffffffffff82116116b4576801000000000000000082116116b457600683015482600685015580831061164e575b50602001906006830160005260206000209060005b8160051c81106116015750601f1981168103611595575b50505060e08201516007820180546001600160a01b03199081166001600160a01b0393841617909155610100840151600884018054831691841691909117905561012090930151600992909201805490931691161790556040518481529461014080870191906114ea60208901600435611b4d565b60243560408901526024356060890152604435608089015260643560a089015260c0880152518091526101608601939060005b818110611576576001600160a01b0380851660e08a01524281166101008a015285166101208901526020877f2343ee9977bec704918c6052e60079b523b3dbddf5ee696b8938e70012cc8c728a89038ba1604051908152f35b9091946020808261158a6001948a51611b4d565b01960192910161151d565b60009260005b601f198316830381106115b757505060051c0155878080611475565b9093845160068110156115eb576115e2602091846001949060031b60ff811b9283911b169119161790565b9501910161159b565b634e487b7160e01b600052602160045260246000fd5b6000805b6020811061161a57508382015560010161145e565b9490815160068110156115eb57611645602091886001949060031b60ff811b9283911b169119161790565b92019501611605565b600684016000526020600020601f841680611691575b50601f840160051c81015b601f830160051c82018110611685575050611449565b6000815560010161166f565b6000199081601f870160051c8401019182549160200360031b1c1690558b611664565b634e487b7160e01b600052604160045260246000fd5b634e487b7160e01b600052601160045260246000fd5b82356006811015610171578152602092830192016112f0565b3461017157602036600319011261017157005b346101715760e0366003190112610171576006600435101561017157600660243510156101715760a43561173e611b86565b600a549091906001600160a01b0316330361017157600160035401908160035562015180908181029181830414901517156116ca5761178a906001600160a01b03908116904216611ce7565b916040519061179882611bb9565b8282526117aa60043560208401611d00565b6117b960243560408401611d00565b60443560608301819052608083015260643560a083015260843560c08301526001600160a01b0384811660e084015242811661010084015281166101208301526000838152600560209081526040909120835181559083015190949060068110156115eb5761182b9060018701611d0c565b60408301519260068410156115eb57857f5a1067f8de82b39024b4bb9983875677c190679a5a2dcb7c1cbb5453f24c37bf9461ff00600160209901549160081b169061ff001916176001820155606082015160028201556080820151600382015560a0820151600482015560c082015160058201556008600682019160018060a01b0360e085015116926001600160601b0360a01b93848254161790556007810160018060a01b036101008601511684825416179055019161012060018060a01b03910151169082541617905561192460405192839260018060a01b034216906084356064356044356044356024356004358d8b611c2b565b0390a1604051908152f35b3461017157602036600319011261017157600060e060405161195081611b9c565b8281528260208201528260408201528260608201528260808201528260a08201528260c082015201526004356000526008602052610100604060002060405161199881611b9c565b815491828252600181015490602083019182526002810154604084019081526003820154606085019081526004830154906080860191825260058401549260a0870193845260018060a01b039560e06007886006890154169760c08b01988952015498019788526040519889525160208901525160408801525160608701525160808601525160a0850152511660c08301525160e0820152f35b3461017157606036600319011261017157611a4b611b70565b60443590600282101561017157602091611a6791600435611d7d565b6040519015158152f35b3461017157602036600319011261017157611a8a611b5a565b611a92611c8f565b600a80546001600160a01b0319166001600160a01b0392909216919091179055005b3461017157602036600319011261017157610120906004356000526004602052604060002080549060ff60018201541660028201546003830154600484015490600585015492611b2760018060a01b0395866007890154169660098160088b01541699015416988a5260208a0190611b4d565b60408801526060870152608086015260a085015260c084015260e0830152610100820152f35b9060068210156115eb5752565b600435906001600160a01b038216820361017157565b602435906001600160a01b038216820361017157565b60c435906001600160a01b038216820361017157565b610100810190811067ffffffffffffffff8211176116b457604052565b610140810190811067ffffffffffffffff8211176116b457604052565b610120810190811067ffffffffffffffff8211176116b457604052565b90601f8019910116810190811067ffffffffffffffff8211176116b457604052565b6040906003190112610171576004359060243590565b989693909a999592611c5c90611c526101209a97946101408d019e8d5260208d0190611b4d565b60408b0190611b4d565b6060890152608088015260a087015260c08601526001600160a01b0390811660e086015291821661010085015216910152565b6000546001600160a01b03163303611ca357565b606460405162461bcd60e51b815260206004820152602060248201527f4f776e61626c653a2063616c6c6572206973206e6f7420746865206f776e65726044820152fd5b6001600160a01b0391821690821601919082116116ca57565b60068210156115eb5752565b9060068110156115eb5760ff80198354169116179055565b15611d2b57565b60405162461bcd60e51b815260206004820152601760248201527f4552525f494e53554646494349454e545f414d4f554e540000000000000000006044820152606490fd5b919082039182116116ca57565b909160028110156115eb578015611dbf57600114611d9c575050600090565b6000908152600560205260409020600801546001600160a01b0391821691161490565b506000908152600460205260409020600901546001600160a01b039182169116149056fea26469706673582212201850a998b5c800bc80470b0363356d6e931a840eb0f9a73abfe38f484a296a1564736f6c63430008110033",
  "immutableReferences": {},
  "source": "// SPDX-License-Identifier: GPL-3.0\r\npragma solidity >=0.7.0 <0.9.0;\r\n\r\nimport \"../libraries/AssetLibrary.sol\";\r\nimport \"../libraries/OfferLibrary.sol\";\r\nimport \"../libraries/RequestLibrary.sol\";\r\n\r\nimport \"../interfaces/IOfferManager.sol\";\r\n\r\nimport \"@openzeppelin/contracts/access/Ownable2Step.sol\";\r\nimport \"@openzeppelin/contracts/utils/Counters.sol\";\r\n\r\ncontract OfferManager is IOfferManager, Ownable2Step {\r\n    using Counters for Counters.Counter;\r\n\r\n    // offers\r\n    Counters.Counter private lendingOfferIdTracker;\r\n    Counters.Counter private borrowingOfferIdTracker;\r\n\r\n    mapping(uint256 => OfferLibrary.LendingOffer) public lendingOffers;\r\n    mapping(uint256 => OfferLibrary.BorrowingOffer) public borrowingOffers;\r\n\r\n    // request\r\n    Counters.Counter private lendingRequestIdTracker;\r\n    Counters.Counter private borrowingRequestIdTracker;\r\n\r\n    mapping(uint256 => RequestLibrary.LendingRequest) public lendingRequests;\r\n    mapping(uint256 => RequestLibrary.BorrowingRequest)\r\n        public borrowingRequests;\r\n\r\n    address lendingPool;\r\n\r\n    constructor() Ownable2Step() {}\r\n\r\n    event LendingOfferCreated(\r\n        uint256 offerId,\r\n        AssetLibrary.Type principalType,\r\n        uint256 currentPrincipal,\r\n        uint256 initialPrincipal,\r\n        uint256 interest,\r\n        uint daysToMaturity,\r\n        AssetLibrary.Type[] collateralTypes,\r\n        uint160 expiresAt,\r\n        uint160 createdAt,\r\n        address lender\r\n    );\r\n\r\n    event BorrowingOfferCreated(\r\n        uint256 offerId,\r\n        AssetLibrary.Type principalType,\r\n        AssetLibrary.Type collateralType,\r\n        uint256 initialCollateral,\r\n        uint256 currentCollateral,\r\n        uint256 interest,\r\n        uint daysToMaturity,\r\n        uint160 expiresAt,\r\n        uint160 createdAt,\r\n        address borrower\r\n    );\r\n\r\n    event OfferClosed(uint256 offerId, OfferLibrary.Type offerType);\r\n\r\n    event RequestClosed(uint256 requestId, RequestLibrary.Type requestType);\r\n\r\n    function createLendingOffer(\r\n        AssetLibrary.Type principalType,\r\n        uint256 principal,\r\n        uint256 interest,\r\n        uint256 daysToMaturity,\r\n        uint256 daysToExpire,\r\n        AssetLibrary.Type[] memory collateralTypes,\r\n        address lender\r\n    ) public onlyLendingPool returns (uint256) {\r\n        // onlyOwner\r\n        lendingOfferIdTracker.increment();\r\n        uint256 offerId = lendingOfferIdTracker.current();\r\n\r\n        uint160 createdAt = uint160(block.timestamp);\r\n        uint160 duration = uint160((daysToExpire * 1 days));\r\n        uint160 expiresAt = createdAt + duration;\r\n\r\n        lendingOffers[offerId] = OfferLibrary.LendingOffer(\r\n            offerId,\r\n            principalType,\r\n            principal, // currentPrincipal\r\n            principal, // initialPrincipal\r\n            interest,\r\n            daysToMaturity,\r\n            collateralTypes,\r\n            expiresAt,\r\n            createdAt,\r\n            lender\r\n        );\r\n\r\n        emit LendingOfferCreated(\r\n            offerId,\r\n            principalType,\r\n            principal, // currentPrincipal\r\n            principal, // initialPrincipal\r\n            interest,\r\n            daysToMaturity,\r\n            collateralTypes,\r\n            expiresAt,\r\n            createdAt,\r\n            lender\r\n        );\r\n\r\n        return offerId;\r\n    }\r\n\r\n    function _afterOfferLendingLoan(uint256 offerId, uint256 principal)\r\n        public\r\n        onlyLendingPool\r\n    {\r\n        require(\r\n            lendingOffers[offerId].currentPrincipal >= principal,\r\n            \"ERR_INSUFFICIENT_AMOUNT\"\r\n        );\r\n        lendingOffers[offerId].currentPrincipal -= principal;\r\n    }\r\n\r\n    function _afterOfferBorrowingLoan(uint256 offerId, uint256 collateral)\r\n        public\r\n        onlyLendingPool\r\n    {\r\n        require(\r\n            borrowingOffers[offerId].currentCollateral >= collateral,\r\n            \"ERR_INSUFFICIENT_AMOUNT\"\r\n        );\r\n        borrowingOffers[offerId].currentCollateral -= collateral;\r\n    }\r\n\r\n    function createBorrowingOffer(\r\n        AssetLibrary.Type principalType,\r\n        AssetLibrary.Type collateralType,\r\n        uint256 collateral,\r\n        uint256 interest,\r\n        uint256 daysToMaturity,\r\n        uint256 daysToExpire,\r\n        address borrower\r\n    ) public onlyLendingPool returns (uint256) {\r\n        borrowingOfferIdTracker.increment();\r\n        uint256 offerId = borrowingOfferIdTracker.current();\r\n\r\n        uint160 createdAt = uint160(block.timestamp);\r\n        uint160 duration = uint160((daysToExpire * 1 days));\r\n        uint160 expiresAt = createdAt + duration;\r\n\r\n        borrowingOffers[offerId] = OfferLibrary.BorrowingOffer(\r\n            offerId,\r\n            principalType,\r\n            collateralType,\r\n            collateral, // currentCollateral\r\n            collateral, // initialCollateral\r\n            interest,\r\n            daysToMaturity,\r\n            expiresAt,\r\n            createdAt,\r\n            borrower\r\n        );\r\n\r\n        emit BorrowingOfferCreated(\r\n            offerId,\r\n            principalType,\r\n            collateralType,\r\n            collateral, // currentCollateral\r\n            collateral, // initialCollateral\r\n            interest,\r\n            daysToMaturity,\r\n            expiresAt,\r\n            createdAt,\r\n            borrower\r\n        );\r\n\r\n        return offerId;\r\n    }\r\n\r\n    function withdrawLendingOffer(\r\n        uint256 offerId,\r\n        address lender,\r\n        uint256 amount\r\n    ) public onlyLendingPool returns (bool) {\r\n        require(lender == lendingOffers[offerId].lender);\r\n        require(lendingOffers[offerId].currentPrincipal <= amount);\r\n        lendingOffers[offerId].currentPrincipal -= amount;\r\n\r\n        if (lendingOffers[offerId].currentPrincipal == 0) {\r\n            delete lendingOffers[offerId];\r\n            emit OfferClosed(offerId, OfferLibrary.Type.LENDING_OFFER);\r\n        }\r\n\r\n        return true;\r\n    }\r\n\r\n    function closeLendingRequest(uint256 requestId) public {}\r\n\r\n    function getLendingOffer(uint256 offerId)\r\n        public\r\n        view\r\n        override\r\n        returns (OfferLibrary.LendingOffer memory)\r\n    {\r\n        return lendingOffers[offerId];\r\n    }\r\n\r\n    function getBorrowingOffer(uint256 offerId)\r\n        public\r\n        view\r\n        override\r\n        returns (OfferLibrary.BorrowingOffer memory)\r\n    {\r\n        return borrowingOffers[offerId];\r\n    }\r\n\r\n    function getBorrowingRequest(uint256 requestId)\r\n        public\r\n        view\r\n        override\r\n        returns (RequestLibrary.BorrowingRequest memory)\r\n    {\r\n        return borrowingRequests[requestId];\r\n    }\r\n\r\n    function getLendingRequest(uint256 requestId)\r\n        public\r\n        view\r\n        override\r\n        returns (RequestLibrary.LendingRequest memory)\r\n    {\r\n        return lendingRequests[requestId];\r\n    }\r\n\r\n    function belongsTo(\r\n        uint256 offerId,\r\n        address provider,\r\n        OfferLibrary.Type offerType\r\n    ) public view override returns (bool) {\r\n        if (offerType == OfferLibrary.Type.LENDING_OFFER) {\r\n            return lendingOffers[offerId].lender == provider;\r\n        }\r\n        if (offerType == OfferLibrary.Type.BORROWING_OFFER) {\r\n            return borrowingOffers[offerId].borrower == provider;\r\n        }\r\n        return false;\r\n    }\r\n\r\n    function setLendingPool(address address_) public onlyOwner {\r\n        lendingPool = address_;\r\n    }\r\n\r\n    modifier onlyLendingPool() {\r\n        require(msg.sender == lendingPool);\r\n        _;\r\n    }\r\n}\r\n",
  "sourcePath": "C:\\Users\\DELL\\Documents\\darsh\\smart-contracts\\contracts\\managers\\OfferManager.sol",
  "compiler": {
    "name": "solc",
    "version": "0.8.17+commit.8df45f5f.Emscripten.clang"
  },
  "schemaVersion": "3.4.11",
  "updatedAt": "2023-02-11T06:38:09.145Z",
  "devdoc": {
    "kind": "dev",
    "methods": {
      "acceptOwnership()": {
        "details": "The new owner accepts the ownership transfer."
      },
      "owner()": {
        "details": "Returns the address of the current owner."
      },
      "pendingOwner()": {
        "details": "Returns the address of the pending owner."
      },
      "renounceOwnership()": {
        "details": "Leaves the contract without owner. It will not be possible to call `onlyOwner` functions anymore. Can only be called by the current owner. NOTE: Renouncing ownership will leave the contract without an owner, thereby removing any functionality that is only available to the owner."
      },
      "transferOwnership(address)": {
        "details": "Starts the ownership transfer of the contract to a new account. Replaces the pending transfer if there is one. Can only be called by the current owner."
      }
    },
    "version": 1
  },
  "userdoc": {
    "kind": "user",
    "methods": {},
    "version": 1
  }
}