{
  "contractName": "OfferManager",
  "abi": [
    {
      "inputs": [],
      "stateMutability": "nonpayable",
      "type": "constructor"
    },
    {
      "anonymous": false,
      "inputs": [
        {
          "indexed": true,
          "internalType": "address",
          "name": "previousOwner",
          "type": "address"
        },
        {
          "indexed": true,
          "internalType": "address",
          "name": "newOwner",
          "type": "address"
        }
      ],
      "name": "OwnershipTransferStarted",
      "type": "event"
    },
    {
      "anonymous": false,
      "inputs": [
        {
          "indexed": true,
          "internalType": "address",
          "name": "previousOwner",
          "type": "address"
        },
        {
          "indexed": true,
          "internalType": "address",
          "name": "newOwner",
          "type": "address"
        }
      ],
      "name": "OwnershipTransferred",
      "type": "event"
    },
    {
      "inputs": [],
      "name": "ONE_DAY",
      "outputs": [
        {
          "internalType": "uint256",
          "name": "",
          "type": "uint256"
        }
      ],
      "stateMutability": "view",
      "type": "function"
    },
    {
      "inputs": [],
      "name": "ONE_HOUR",
      "outputs": [
        {
          "internalType": "uint256",
          "name": "",
          "type": "uint256"
        }
      ],
      "stateMutability": "view",
      "type": "function"
    },
    {
      "inputs": [],
      "name": "acceptOwnership",
      "outputs": [],
      "stateMutability": "nonpayable",
      "type": "function"
    },
    {
      "inputs": [
        {
          "internalType": "uint256",
          "name": "",
          "type": "uint256"
        }
      ],
      "name": "offers",
      "outputs": [
        {
          "internalType": "uint256",
          "name": "offerId",
          "type": "uint256"
        },
        {
          "internalType": "enum OfferLibrary.State",
          "name": "state",
          "type": "uint8"
        },
        {
          "internalType": "address",
          "name": "principalToken",
          "type": "address"
        },
        {
          "internalType": "uint256",
          "name": "currentPrincipal",
          "type": "uint256"
        },
        {
          "internalType": "uint256",
          "name": "initialPrincipal",
          "type": "uint256"
        },
        {
          "internalType": "uint256",
          "name": "interest",
          "type": "uint256"
        },
        {
          "internalType": "uint16",
          "name": "daysToMaturity",
          "type": "uint16"
        },
        {
          "internalType": "uint256",
          "name": "expiresAt",
          "type": "uint256"
        },
        {
          "internalType": "uint256",
          "name": "createdAt",
          "type": "uint256"
        },
        {
          "internalType": "address",
          "name": "creator",
          "type": "address"
        },
        {
          "internalType": "address",
          "name": "collateralToken",
          "type": "address"
        },
        {
          "internalType": "uint256",
          "name": "currentCollateral",
          "type": "uint256"
        },
        {
          "internalType": "uint256",
          "name": "initialCollateral",
          "type": "uint256"
        },
        {
          "internalType": "enum OfferLibrary.Type",
          "name": "offerType",
          "type": "uint8"
        }
      ],
      "stateMutability": "view",
      "type": "function"
    },
    {
      "inputs": [],
      "name": "owner",
      "outputs": [
        {
          "internalType": "address",
          "name": "",
          "type": "address"
        }
      ],
      "stateMutability": "view",
      "type": "function"
    },
    {
      "inputs": [],
      "name": "pendingOwner",
      "outputs": [
        {
          "internalType": "address",
          "name": "",
          "type": "address"
        }
      ],
      "stateMutability": "view",
      "type": "function"
    },
    {
      "inputs": [],
      "name": "renounceOwnership",
      "outputs": [],
      "stateMutability": "nonpayable",
      "type": "function"
    },
    {
      "inputs": [
        {
          "internalType": "uint256",
          "name": "",
          "type": "uint256"
        }
      ],
      "name": "requests",
      "outputs": [
        {
          "internalType": "uint256",
          "name": "requestId",
          "type": "uint256"
        },
        {
          "internalType": "enum RequestLibrary.State",
          "name": "state",
          "type": "uint8"
        },
        {
          "internalType": "uint16",
          "name": "percentage",
          "type": "uint16"
        },
        {
          "internalType": "uint16",
          "name": "daysToMaturity",
          "type": "uint16"
        },
        {
          "internalType": "uint256",
          "name": "interest",
          "type": "uint256"
        },
        {
          "internalType": "uint256",
          "name": "expiresAt",
          "type": "uint256"
        },
        {
          "internalType": "uint256",
          "name": "createdAt",
          "type": "uint256"
        },
        {
          "internalType": "address",
          "name": "creator",
          "type": "address"
        },
        {
          "internalType": "uint256",
          "name": "offerId",
          "type": "uint256"
        },
        {
          "internalType": "address",
          "name": "collateralToken",
          "type": "address"
        },
        {
          "internalType": "uint256",
          "name": "collateralAmount",
          "type": "uint256"
        },
        {
          "internalType": "uint256",
          "name": "collateralPriceInUSD",
          "type": "uint256"
        },
        {
          "internalType": "uint160",
          "name": "ltvUsed",
          "type": "uint160"
        },
        {
          "internalType": "enum RequestLibrary.Type",
          "name": "requestType",
          "type": "uint8"
        }
      ],
      "stateMutability": "view",
      "type": "function"
    },
    {
      "inputs": [
        {
          "internalType": "address",
          "name": "newOwner",
          "type": "address"
        }
      ],
      "name": "transferOwnership",
      "outputs": [],
      "stateMutability": "nonpayable",
      "type": "function"
    },
    {
      "inputs": [
        {
          "internalType": "address",
          "name": "principalToken",
          "type": "address"
        },
        {
          "internalType": "uint256",
          "name": "principalAmount",
          "type": "uint256"
        },
        {
          "internalType": "uint256",
          "name": "interest",
          "type": "uint256"
        },
        {
          "internalType": "uint16",
          "name": "daysToMaturity",
          "type": "uint16"
        },
        {
          "internalType": "uint16",
          "name": "daysToExpire",
          "type": "uint16"
        },
        {
          "internalType": "address[]",
          "name": "collateralTokens",
          "type": "address[]"
        },
        {
          "internalType": "address",
          "name": "lender",
          "type": "address"
        }
      ],
      "name": "createLendingOffer",
      "outputs": [
        {
          "internalType": "uint256",
          "name": "",
          "type": "uint256"
        }
      ],
      "stateMutability": "nonpayable",
      "type": "function"
    },
    {
      "inputs": [
        {
          "internalType": "uint256",
          "name": "offerId",
          "type": "uint256"
        },
        {
          "internalType": "uint16",
          "name": "toExpire",
          "type": "uint16"
        },
        {
          "internalType": "address",
          "name": "user",
          "type": "address"
        }
      ],
      "name": "reActivateOffer",
      "outputs": [],
      "stateMutability": "nonpayable",
      "type": "function"
    },
    {
      "inputs": [
        {
          "internalType": "uint16",
          "name": "percentage",
          "type": "uint16"
        },
        {
          "internalType": "uint256",
          "name": "interest",
          "type": "uint256"
        },
        {
          "internalType": "uint16",
          "name": "daysToMaturity",
          "type": "uint16"
        },
        {
          "internalType": "uint16",
          "name": "hoursToExpire",
          "type": "uint16"
        },
        {
          "internalType": "address",
          "name": "lender",
          "type": "address"
        },
        {
          "internalType": "uint256",
          "name": "offerId",
          "type": "uint256"
        }
      ],
      "name": "createLendingRequest",
      "outputs": [
        {
          "internalType": "uint256",
          "name": "",
          "type": "uint256"
        }
      ],
      "stateMutability": "nonpayable",
      "type": "function"
    },
    {
      "inputs": [
        {
          "internalType": "address",
          "name": "principalToken",
          "type": "address"
        },
        {
          "internalType": "address",
          "name": "collateralToken",
          "type": "address"
        },
        {
          "internalType": "uint256",
          "name": "collateralAmount",
          "type": "uint256"
        },
        {
          "internalType": "uint256",
          "name": "principalAmount",
          "type": "uint256"
        },
        {
          "internalType": "uint256",
          "name": "interest",
          "type": "uint256"
        },
        {
          "internalType": "uint16",
          "name": "daysToMaturity",
          "type": "uint16"
        },
        {
          "internalType": "uint16",
          "name": "hoursToExpire",
          "type": "uint16"
        },
        {
          "internalType": "address",
          "name": "borrower",
          "type": "address"
        }
      ],
      "name": "createBorrowingOffer",
      "outputs": [
        {
          "internalType": "uint256",
          "name": "",
          "type": "uint256"
        }
      ],
      "stateMutability": "nonpayable",
      "type": "function"
    },
    {
      "inputs": [
        {
          "internalType": "uint16",
          "name": "percentage",
          "type": "uint16"
        },
        {
          "internalType": "address",
          "name": "collateralToken",
          "type": "address"
        },
        {
          "internalType": "uint256",
          "name": "collateralAmount",
          "type": "uint256"
        },
        {
          "internalType": "uint256",
          "name": "collateralPriceInUSD",
          "type": "uint256"
        },
        {
          "internalType": "uint160",
          "name": "ltvUsed",
          "type": "uint160"
        },
        {
          "internalType": "uint256",
          "name": "interest",
          "type": "uint256"
        },
        {
          "internalType": "uint16",
          "name": "daysToMaturity",
          "type": "uint16"
        },
        {
          "internalType": "uint16",
          "name": "hoursToExpire",
          "type": "uint16"
        },
        {
          "internalType": "address",
          "name": "borrower",
          "type": "address"
        },
        {
          "internalType": "uint256",
          "name": "offerId",
          "type": "uint256"
        }
      ],
      "name": "createBorrowingRequest",
      "outputs": [
        {
          "internalType": "uint256",
          "name": "",
          "type": "uint256"
        }
      ],
      "stateMutability": "nonpayable",
      "type": "function"
    },
    {
      "inputs": [
        {
          "internalType": "uint256",
          "name": "requestId",
          "type": "uint256"
        },
        {
          "internalType": "address",
          "name": "user",
          "type": "address"
        }
      ],
      "name": "rejectRequest",
      "outputs": [],
      "stateMutability": "nonpayable",
      "type": "function"
    },
    {
      "inputs": [
        {
          "internalType": "uint256",
          "name": "requestId",
          "type": "uint256"
        },
        {
          "internalType": "address",
          "name": "user",
          "type": "address"
        }
      ],
      "name": "acceptRequest",
      "outputs": [],
      "stateMutability": "nonpayable",
      "type": "function"
    },
    {
      "inputs": [
        {
          "internalType": "uint256",
          "name": "requestId",
          "type": "uint256"
        },
        {
          "internalType": "address",
          "name": "user",
          "type": "address"
        }
      ],
      "name": "cancelRequest",
      "outputs": [],
      "stateMutability": "nonpayable",
      "type": "function"
    },
    {
      "inputs": [
        {
          "internalType": "uint256",
          "name": "offerId",
          "type": "uint256"
        },
        {
          "internalType": "uint256",
          "name": "principalAmount",
          "type": "uint256"
        }
      ],
      "name": "_afterOfferLendingLoan",
      "outputs": [],
      "stateMutability": "nonpayable",
      "type": "function"
    },
    {
      "inputs": [
        {
          "internalType": "uint256",
          "name": "offerId",
          "type": "uint256"
        },
        {
          "internalType": "uint256",
          "name": "principalAmount",
          "type": "uint256"
        },
        {
          "internalType": "uint256",
          "name": "collateralAmount",
          "type": "uint256"
        }
      ],
      "name": "_afterOfferBorrowingLoan",
      "outputs": [],
      "stateMutability": "nonpayable",
      "type": "function"
    },
    {
      "inputs": [
        {
          "internalType": "uint256",
          "name": "offerId",
          "type": "uint256"
        },
        {
          "internalType": "address",
          "name": "token",
          "type": "address"
        }
      ],
      "name": "isCollateralSupported",
      "outputs": [
        {
          "internalType": "bool",
          "name": "",
          "type": "bool"
        }
      ],
      "stateMutability": "view",
      "type": "function"
    },
    {
      "inputs": [
        {
          "internalType": "uint256",
          "name": "offerId",
          "type": "uint256"
        }
      ],
      "name": "getOffer",
      "outputs": [
        {
          "components": [
            {
              "internalType": "uint256",
              "name": "offerId",
              "type": "uint256"
            },
            {
              "internalType": "enum OfferLibrary.State",
              "name": "state",
              "type": "uint8"
            },
            {
              "internalType": "address",
              "name": "principalToken",
              "type": "address"
            },
            {
              "internalType": "uint256",
              "name": "currentPrincipal",
              "type": "uint256"
            },
            {
              "internalType": "uint256",
              "name": "initialPrincipal",
              "type": "uint256"
            },
            {
              "internalType": "uint256",
              "name": "interest",
              "type": "uint256"
            },
            {
              "internalType": "uint16",
              "name": "daysToMaturity",
              "type": "uint16"
            },
            {
              "internalType": "uint256",
              "name": "expiresAt",
              "type": "uint256"
            },
            {
              "internalType": "uint256",
              "name": "createdAt",
              "type": "uint256"
            },
            {
              "internalType": "address",
              "name": "creator",
              "type": "address"
            },
            {
              "internalType": "address[]",
              "name": "collateralTokens",
              "type": "address[]"
            },
            {
              "internalType": "address",
              "name": "collateralToken",
              "type": "address"
            },
            {
              "internalType": "uint256",
              "name": "currentCollateral",
              "type": "uint256"
            },
            {
              "internalType": "uint256",
              "name": "initialCollateral",
              "type": "uint256"
            },
            {
              "internalType": "enum OfferLibrary.Type",
              "name": "offerType",
              "type": "uint8"
            }
          ],
          "internalType": "struct OfferLibrary.Offer",
          "name": "",
          "type": "tuple"
        }
      ],
      "stateMutability": "view",
      "type": "function"
    },
    {
      "inputs": [
        {
          "internalType": "uint256",
          "name": "requestId",
          "type": "uint256"
        }
      ],
      "name": "getRequest",
      "outputs": [
        {
          "components": [
            {
              "internalType": "uint256",
              "name": "requestId",
              "type": "uint256"
            },
            {
              "internalType": "enum RequestLibrary.State",
              "name": "state",
              "type": "uint8"
            },
            {
              "internalType": "uint16",
              "name": "percentage",
              "type": "uint16"
            },
            {
              "internalType": "uint16",
              "name": "daysToMaturity",
              "type": "uint16"
            },
            {
              "internalType": "uint256",
              "name": "interest",
              "type": "uint256"
            },
            {
              "internalType": "uint256",
              "name": "expiresAt",
              "type": "uint256"
            },
            {
              "internalType": "uint256",
              "name": "createdAt",
              "type": "uint256"
            },
            {
              "internalType": "address",
              "name": "creator",
              "type": "address"
            },
            {
              "internalType": "uint256",
              "name": "offerId",
              "type": "uint256"
            },
            {
              "internalType": "address",
              "name": "collateralToken",
              "type": "address"
            },
            {
              "internalType": "uint256",
              "name": "collateralAmount",
              "type": "uint256"
            },
            {
              "internalType": "uint256",
              "name": "collateralPriceInUSD",
              "type": "uint256"
            },
            {
              "internalType": "uint160",
              "name": "ltvUsed",
              "type": "uint160"
            },
            {
              "internalType": "enum RequestLibrary.Type",
              "name": "requestType",
              "type": "uint8"
            }
          ],
          "internalType": "struct RequestLibrary.Request",
          "name": "",
          "type": "tuple"
        }
      ],
      "stateMutability": "view",
      "type": "function"
    },
    {
      "inputs": [
        {
          "internalType": "address",
          "name": "address_",
          "type": "address"
        }
      ],
      "name": "setLendingPool",
      "outputs": [],
      "stateMutability": "nonpayable",
      "type": "function"
    }
  ],
  "bytecode": "0x6080806040523461006357600180546001600160a01b03199081169091556000805433928116831782556001600160a01b0316907f8be0079c531659141344cd1fd0a4f28419497f9722a3daafe3b4186f6b6457e09080a3611ee990816100698239f35b600080fdfe6080604052600436101561001257600080fd5b60003560e01c8063099bfe6b146116ad578063113aa8b11461166a578063165035e21461164d57806324b42bc11461156957806339700629146114d65780633bb1374b146112f75780634579268a14611160578063715018a6146110fb578063774d3df51461107d57806379ba509714610fba57806381d12c5814610f1e578063863e76db14610f005780638a72ea6a14610e0e5780638da5cb5b14610de557806390d870d214610af85780639498506514610a83578063b438b890146107c0578063c44df3401461041a578063c58343ef146102d2578063daba858a14610257578063e30c39781461022e578063f094cb95146101895763f2fde38b1461011957600080fd5b346101845760203660031901126101845761013261180c565b61013a611935565b60018060a01b0380911690816001600160601b0360a01b6001541617600155600054167f38d16b8cac22d99fc7c124b9cd0de2d3fa1faef420bfe791d8c362d765e22700600080a3005b600080fd5b346101845760403660031901126101845760065460243590600435906001600160a01b031633036101845761022661022c928260005260036020526040600020906101e460ff600d840154166101de81611838565b15611af8565b6101f48160028401541015611e5a565b61020360068301544210611b35565b83600052600360205261021f6002604060002001918254611ea6565b905561198d565b90611c53565b005b34610184576000366003190112610184576001546040516001600160a01b039091168152602090f35b3461018457604036600319011261018457610270611822565b6006546001600160a01b039081163303610184576102c4600192600435600052600560205260406000209260068401546000526003602052806101206102b9604060002061198d565b015116911614611ab9565b01805460ff19166001179055005b34610184576020366003190112610184576101c06040516102f2816118d9565b6000815260006020820152600060408201526000606082015260006080820152600060a0820152600060c0820152600060e082015260006101009181838201526101209282848301526101409083828401526101609084828501526101809185838601526101a095868096015260043560005260056020526103776040600020611b8d565b936040519785518952610392602087015160208b0190611842565b61ffff8060408801511660408b015260608701511660608a0152608086015160808a015260a086015160a08a015260c086015160c08a015260018060a01b03938460e08801511660e08b015280870151908a0152838187015116908901528085015190880152808401519087015281830151169085015201519061041582611838565b820152f35b346101845760e03660031901126101845761043361180c565b61043b6117fb565b6084359061ffff82168092036101845760a4359067ffffffffffffffff821161018457366023830112156101845781600401359167ffffffffffffffff8311610774578260051b90604051936104946020840186611913565b8452602460208501928201019036821161018457602401915b8183106107a057505060c4359190506001600160a01b0382168203610184576006546001600160a01b0316330361018457600160025401938460025562015180908082029182040361078a5761050661ffff9142611aac565b9160405196610514886118f6565b8688526000602089015260018060a01b03166040880152602435806060890152608088015260443560a08801521660c086015260e08501524261010085015260018060a01b03166101208401526101408301526000610160830152600061018083015260006101a083015260006101c0830152806000526003602052604060002091805183556001830160208201516105ac81611838565b6105b581611838565b815460ff610100600160a81b03604086015160081b169216906affffffffffffffffffffff60a81b1617179055606081015160028401556080810151600384015560a081015160048401556005830161ffff60c08301511661ffff1982541617905560e0810151600684015561010081015160078401556008830160018060a01b03610120830151166001600160601b0360a01b82541617905561014081015180519067ffffffffffffffff821161077457600160401b8211610774576009850154826009870155808310610747575b5060200160098501600052602060002060005b83811061072a57602086866101c0600d8b600a810160018060a01b03610160860151166001600160601b0360a01b825416179055610180840151600b8201556101a0840151600c820155019101516106ef81611838565b6106f881611838565b60ff80198354169116179055806000526003825261072261071c604060002061198d565b82611c53565b604051908152f35b82516001600160a01b031681830155602090920191600101610698565b600986016000526020600020908382015b8183018110610768575050610685565b60008155600101610758565b634e487b7160e01b600052604160045260246000fd5b634e487b7160e01b600052601160045260246000fd5b82356001600160a01b0381168103610184578152602092830192016104ad565b346101845760c0366003190112610184576107d96117d9565b60443561ffff81168103610184576107ef6117fb565b90608435906001600160a01b0382168203610184576006546001600160a01b031633036101845761ffff600160045401938460045516610e10908082029182040361078a5761084161ffff9142611aac565b9160a435600052600360205261085a604060002061198d565b61087d60016101c083015161086e81611838565b61087781611838565b14611af8565b6101806101a082015191015114610a60575b816040519661089d886118d9565b86885260006020890152166040870152166060850152602435608085015260a08401524260c084015260018060a01b031660e083015260a435610100830152600061012083015260006101408301526000610160830152600061018083015260006101a08301528060005260056020526040600020918051835560208101516004811015610a4a5783600a916109396001602097019182611b75565b6040840151815462ffff0064ffff000000606088015160181b169260081b169064ffffffff001916171790556080830151600282015560a0830151600382015560c083015160048201556005810160018060a01b0360e085015116906001600160601b0360a01b91828254161790556101008401516006830155600782019060018060a01b03610120860151169082541617905561014083015160088201556101608301516009820155019060018060a01b03610180820151166101a08354920151610a0481611838565b610a0d81611838565b60ff60a01b9060a01b16916affffffffffffffffffffff60a81b16171790558060005260058252610722610a446040600020611b8d565b82611dac565b634e487b7160e01b600052602160045260246000fd5b60a4356000526003602052610a7e6006604060002001544210611b35565b61088f565b3461018457604036600319011261018457600435610a9f611822565b6006546001600160a01b03929190831633036101845761022c92610ade610af29284600052600560205260406000209280600585015416911614611ab9565b60018101805460ff19166003179055611b8d565b90611dac565b346101845761010036600319011261018457610b1261180c565b610b1a611822565b60a4359061ffff8216820361018457610b316117ea565b9160e4356001600160a01b0381168103610184576006546001600160a01b031633036101845761ffff600160025401948560025516610e10908082029182040361078a57610b7f9042611aac565b6040519283602081011067ffffffffffffffff6020860111176107745761ffff90602085016040526000855260405197610bb8896118f6565b878952600060208a015260018060a01b031660408901526064358060608a0152608089015260843560a08901521660c087015260e08601524261010086015260018060a01b031661012085015261014084015260018060a01b03166101608301526044356101808301526044356101a083015260016101c083015280600052600360205260406000209180518355600183016020820151610c5881611838565b610c6181611838565b815460ff610100600160a81b03604086015160081b169216906affffffffffffffffffffff60a81b1617179055606081015160028401556080810151600384015560a081015160048401556005830161ffff60c08301511661ffff1982541617905560e0810151600684015561010081015160078401556008830160018060a01b03610120830151166001600160601b0360a01b82541617905561014081015180519067ffffffffffffffff821161077457600160401b8211610774576009850154826009870155808310610db8575b5060200160098501600052602060002060005b838110610d9b57602086866101c0600d8b600a810160018060a01b03610160860151166001600160601b0360a01b825416179055610180840151600b8201556101a0840151600c820155019101516106ef81611838565b82516001600160a01b031681830155602090920191600101610d44565b600986016000526020600020908382015b8183018110610dd9575050610d31565b60008155600101610dc9565b34610184576000366003190112610184576000546040516001600160a01b039091168152602090f35b346101845760203660031901126101845760043560005260036020526101c0604060002080549060018101549060028101546003820154600483015461ffff600585015416600685015460078601549160018060a01b036008880154169360018060a01b03600a8901541695600b8901549760ff600d600c8c01549b0154169a6040519c8d528c602060ff831691610ea583611838565b015260081c6001600160a01b031660408d015260608c015260808b015260a08a015260c089015260e0880152610100870152610120860152610140850152610160840152610180830152610ef881611838565b6101a0820152f35b34610184576000366003190112610184576020604051620151808152f35b346101845760203660031901126101845760043560005260056020526040600020805490610fb660018201549260028301549060038401549360048101549460018060a01b0395866005840154166006840154908860078601541692600886015494600a600988015497015498896040519d8e809e60ff61ffff9460a01c169d169b60ff848460181c16948460081c1693169161184f565b0390f35b34610184576000366003190112610184576001546001600160a01b033381831603611026576001600160601b0360a01b8092166001556000549133908316176000553391167f8be0079c531659141344cd1fd0a4f28419497f9722a3daafe3b4186f6b6457e0600080a3005b60405162461bcd60e51b815260206004820152602960248201527f4f776e61626c6532537465703a2063616c6c6572206973206e6f7420746865206044820152683732bb9037bbb732b960b91b6064820152608490fd5b3461018457604036600319011261018457600435611099611822565b6006546001600160a01b03929190831633036101845761022c926110e7610af29284600052600560205260406000209260068401546000526003602052806101206102b9604060002061198d565b60018101805460ff19166002179055611b8d565b3461018457600036600319011261018457611114611935565b600180546001600160a01b0319908116909155600080549182168155906001600160a01b03167f8be0079c531659141344cd1fd0a4f28419497f9722a3daafe3b4186f6b6457e08280a3005b34610184576020806003193601126101845760405161117e816118f6565b60008152600082820152600060408201526000606082015260006080820152600060a0820152600060c0820152600060e0820152610100906000828201526101209260008483015261014091606083820152610160926000848301526101806000818401526101a09060008285015260006101c0809501526004356000526003855261120d604060002061198d565b92604051978689528451878a01528685015161122881611838565b60408a015260018060a01b03998a918260408801511660608c0152606087015160808c0152608087015160a08c015260a087015160c08c015261ffff60c08801511660e08c015260e0870151818c0152860151818b01528501511681890152830151956101e09586828a015261020089018851809152816102208b0199019160005b8281106112e15750505050978798840151168188015282015181870152810151828601520151906112da82611838565b8301520390f35b83518d168b5299810199928101926001016112aa565b3461018457610140366003190112610184576113116117d9565b611319611822565b6084356001600160a01b0381168103610184576113346117ea565b9160e4359261ffff84168094036101845761010435906001600160a01b0382168203610184576006546001600160a01b03163303610184576001600454019485600455610e10908082029182040361078a5761139361ffff9142611aac565b916101243560005260036020526113ad604060002061198d565b6113c86101c08201516113bf81611838565b6101de81611838565b6101243560005260036020526113e76006604060002001544210611b35565b6101806101a0820151910151146114b2575b81604051986114078a6118d9565b888a52600060208b015216604089015216606087015260a435608087015260a08601524260c086015260018060a01b031660e08501526101243561010085015260018060a01b031661012084015260443561014084015260643561016084015260018060a01b031661018083015260016101a08301528060005260056020526040600020918051835560208101516004811015610a4a5783600a916109396001602097019182611b75565b6101243560005260036020526114d16006604060002001544210611b35565b6113f9565b34610184576040366003190112610184576114ef611822565b600435600052602060038152611508604060002061198d565b61014001916001600160a01b03908116906000805b8551805182101561155d57838686928460051b010151161461154a57600019811461078a5760010161151d565b50505050905060015b6040519015158152f35b50509293505050611553565b34610184576060366003190112610184576006546044359060043590602435906001600160a01b031633036101845781600052600360205260406000206115bc600160ff600d8401541661087781611838565b60028101938454926115d081851015611e5a565b600b83019182548181106116085761022c9761160161021f94610226986115fc60068a01544210611b35565b611ea6565b9055611ea6565b60405162461bcd60e51b815260206004820152601b60248201527f4552525f494e53554646494349454e545f434f4c4c41544552414c00000000006044820152606490fd5b34610184576000366003190112610184576020604051610e108152f35b346101845760203660031901126101845761168361180c565b61168b611935565b600680546001600160a01b0319166001600160a01b0392909216919091179055005b34610184576060366003190112610184576004356024359061ffff8216809203610184576001600160a01b03906044358281169081900361018457826006541633036101845761171b9082600052600360205261170d604060002061198d565b936101208501511614611ab9565b6101a0820151610180830151036101845760e0820180514211156117a25760016002540190816002556101c084015161175381611838565b61175c81611838565b6117875762015180948086029586040361078a5761177e61022c955b42611aac565b90528252611c53565b610e10948086029586040361078a5761177e61022c95611778565b60405162461bcd60e51b815260206004820152600f60248201526e11549497d393d517d1561412549151608a1b6044820152606490fd5b6004359061ffff8216820361018457565b60c4359061ffff8216820361018457565b6064359061ffff8216820361018457565b600435906001600160a01b038216820361018457565b602435906001600160a01b038216820361018457565b60021115610a4a57565b906004821015610a4a5752565b9b989a97969492919e9d9c999593909e6101c08d019f8d5260208d0161187491611842565b61ffff91821660408d01521660608b015260808a015260a089015260c08801526001600160a01b0391821660e0880152610100870195909552938416610120860152610140850152610160840152166101808201526118d282611838565b6101a00152565b6101c0810190811067ffffffffffffffff82111761077457604052565b6101e0810190811067ffffffffffffffff82111761077457604052565b90601f8019910116810190811067ffffffffffffffff82111761077457604052565b6000546001600160a01b0316330361194957565b606460405162461bcd60e51b815260206004820152602060248201527f4f776e61626c653a2063616c6c6572206973206e6f7420746865206f776e65726044820152fd5b9060405161199a816118f6565b8092805482526001808201549060ff82166119b481611838565b6020908186015260018060a01b03809360081c1660408601526002840154606086015260038401546080860152600484015460a086015261ffff60058501541660c0860152600684015460e08601526007840154610100860152826008850154166101208601526009840190604051928382845491828152019360005282600020926000905b828210611a955750505050509260ff9282611a5c600d946101c0970382611913565b610140870152600a82015416610160860152600b810154610180860152600c8101546101a086015201541691611a9183611838565b0152565b845488168652948501949383019390830190611a3a565b9190820180921161078a57565b15611ac057565b60405162461bcd60e51b815260206004820152601060248201526f22a9292fa7a7262cafa1a922a0aa27a960811b6044820152606490fd5b15611aff57565b60405162461bcd60e51b815260206004820152600e60248201526d4552525f4f464645525f5459504560901b6044820152606490fd5b15611b3c57565b60405162461bcd60e51b815260206004820152601160248201527011549497d3d191915497d1561412549151607a1b6044820152606490fd5b906004811015610a4a5760ff80198354169116179055565b90604051611b9a816118d9565b80928054825260018101549060ff8216906004821015610a4a576101a09260ff92602086015261ffff90818160081c16604087015260181c16606085015260028101546080850152600381015460a0850152600481015460c0850152600a60018060a01b03918260058201541660e087015260068101546101008701528260078201541661012087015260088101546101408701526009810154610160870152015490811661018085015260a01c1691611a9183611838565b9190916020830151611c6481611838565b60018060a01b036040850151169360608101519460808201519560a083015161ffff60c08501511660e08501516101008601519160018060a01b0361012088015116936101408801519b60018060a01b036101608a015116966101808a0151986101c06101a08c01519b01519b611cda8d611838565b6040519d8e5260208e611cec83611838565b015260408d015260608c015260808b015260a08a015260c089015260e08801526101008701526101208601526101e080610140870152850187518091526020610200870198019060005b818110611d8d575050506101608501526101808401526101a083015291927f32a670798a1ad8df43e8adea253d7a3a694f00bd8a48236ac364cce18971f4bf92829190611d8281611838565b6101c08301520390a1565b82516001600160a01b03168a526020998a019990920191600101611d36565b6020820151906004821015610a4a57611e557f34425327f0b2d0828521660e46e990c421f3654b8d649db7cc2a59fa9d1f05f49361ffff90816040820151169160608201511660808201519060a08301519160c08401519260018060a01b03938460e0870151169061010087015192866101208901511694610140890151966101a06101608b0151996101808c0151169a01519a611e498c611838565b6040519e8f9e8f61184f565b0390a1565b15611e6157565b60405162461bcd60e51b815260206004820152601a60248201527f4552525f494e53554646494349454e545f5052494e434950414c0000000000006044820152606490fd5b9190820391821161078a5756fea2646970667358221220402bd1108a5bf4601327f1a356432dde7ab1535fb5a7ff711f692314db6fe67b64736f6c63430008110033",
  "immutableReferences": {},
  "source": "// SPDX-License-Identifier: GPL-3.0\r\npragma solidity >=0.7.0 <0.9.0;\r\n\r\nimport \"../libraries/PoolLibrary.sol\";\r\nimport \"../libraries/OfferLibrary.sol\";\r\nimport \"../libraries/RequestLibrary.sol\";\r\n\r\nimport \"../interfaces/IOfferManager.sol\";\r\n\r\nimport \"@openzeppelin/contracts/utils/math/SafeMath.sol\";\r\nimport \"@openzeppelin/contracts/access/Ownable2Step.sol\";\r\nimport \"@openzeppelin/contracts/utils/Counters.sol\";\r\n\r\n/*\r\n    The OfferManager contract is responsible for bookeeping\r\n    the offers and requests made.\r\n\r\n    It can be only modified by the LendingPool contract,\r\n    but can be read from external sources.\r\n\r\n    Any OfferManager contract must inherite the IOfferManager interface.\r\n*/\r\n\r\ncontract OfferManager is IOfferManager, Ownable2Step {\r\n    uint256 public constant ONE_DAY = 60 * 60 * 24;\r\n    uint256 public constant ONE_HOUR = 60 * 60;\r\n\r\n    using Counters for Counters.Counter;\r\n    using SafeMath for uint256;\r\n\r\n    // offers\r\n    Counters.Counter private offerIdTracker;\r\n    mapping(uint256 => OfferLibrary.Offer) public offers;\r\n\r\n    // request\r\n    Counters.Counter private requestIdTracker;\r\n    mapping(uint256 => RequestLibrary.Request) public requests;\r\n\r\n    address lendingPool;\r\n\r\n    constructor() Ownable2Step() {}\r\n\r\n    // creates a new lending offer\r\n    function createLendingOffer(\r\n        address principalToken,\r\n        uint256 principalAmount,\r\n        uint256 interest,\r\n        uint16 daysToMaturity,\r\n        uint16 daysToExpire,\r\n        address[] memory collateralTokens,\r\n        address lender\r\n    ) public onlyLendingPool returns (uint256) {\r\n        offerIdTracker.increment();\r\n        uint256 offerId = offerIdTracker.current();\r\n\r\n        uint256 createdAt = block.timestamp;\r\n        uint256 duration = ONE_DAY.mul(daysToExpire);\r\n        uint256 expiresAt = createdAt.add(duration);\r\n\r\n        offers[offerId] = OfferLibrary.Offer(\r\n            // shared\r\n            offerId,\r\n            OfferLibrary.State.DEFAULT,\r\n            principalToken,\r\n            principalAmount, // currentPrincipal\r\n            principalAmount, // initialPrincipal\r\n            interest,\r\n            daysToMaturity,\r\n            expiresAt,\r\n            createdAt,\r\n            lender,\r\n            // related to lending offers only\r\n            collateralTokens,\r\n            // related to borrowing offers only\r\n            address(0),\r\n            0,\r\n            0,\r\n            // type\r\n            OfferLibrary.Type.LENDING_OFFER\r\n        );\r\n\r\n        _emitOffer(offerId, offers[offerId]);\r\n        return offerId;\r\n    }\r\n\r\n    function reActivateOffer(\r\n        uint256 offerId,\r\n        uint16 toExpire,\r\n        address user\r\n    ) public onlyLendingPool {\r\n        OfferLibrary.Offer memory offer = offers[offerId];\r\n\r\n        require(offer.creator == user, \"ERR_ONLY_CREATOR\");\r\n        require(offer.initialCollateral == offer.currentCollateral);\r\n\r\n        uint256 createdAt = block.timestamp;\r\n        require(createdAt > offer.expiresAt, \"ERR_NOT_EXPIRED\");\r\n\r\n        offerIdTracker.increment();\r\n\r\n        uint256 duration;\r\n        if (offer.offerType == OfferLibrary.Type.LENDING_OFFER) {\r\n            duration = ONE_DAY.mul(toExpire);\r\n        } else {\r\n            duration = ONE_HOUR.mul(toExpire);\r\n        }\r\n\r\n        offer.expiresAt = createdAt + duration;\r\n        offer.offerId = offerIdTracker.current();\r\n\r\n        _emitOffer(offerId, offer);\r\n    }\r\n\r\n    // creates a new lending request\r\n    function createLendingRequest(\r\n        uint16 percentage,\r\n        uint256 interest,\r\n        uint16 daysToMaturity,\r\n        uint16 hoursToExpire,\r\n        address lender,\r\n        uint256 offerId\r\n    ) public onlyLendingPool returns (uint256) {\r\n        requestIdTracker.increment();\r\n        uint256 requestId = requestIdTracker.current();\r\n\r\n        uint256 createdAt = block.timestamp;\r\n        uint256 duration = ONE_HOUR.mul(hoursToExpire);\r\n        uint256 expiresAt = createdAt.add(duration);\r\n\r\n        OfferLibrary.Offer memory offer = offers[offerId];\r\n\r\n        require(\r\n            offer.offerType == OfferLibrary.Type.BORROWING_OFFER,\r\n            \"ERR_OFFER_TYPE\"\r\n        );\r\n        if (offer.initialCollateral == offer.currentCollateral) {\r\n            require(createdAt < offers[offerId].expiresAt, \"ERR_OFFER_EXPIRED\");\r\n        }\r\n\r\n        requests[requestId] = RequestLibrary.Request(\r\n            // shared\r\n            requestId,\r\n            RequestLibrary.State.PENDING,\r\n            percentage,\r\n            daysToMaturity,\r\n            interest,\r\n            expiresAt,\r\n            createdAt,\r\n            lender,\r\n            offerId,\r\n            // related to borrowing request only\r\n            address(0),\r\n            0,\r\n            0,\r\n            0,\r\n            // type\r\n            RequestLibrary.Type.LENDING_REQUEST\r\n        );\r\n\r\n        _emitRequest(requestId, requests[requestId]);\r\n        return requestId;\r\n    }\r\n\r\n    // creates a new borrowing offer\r\n    function createBorrowingOffer(\r\n        address principalToken,\r\n        address collateralToken,\r\n        uint256 collateralAmount,\r\n        uint256 principalAmount,\r\n        uint256 interest,\r\n        uint16 daysToMaturity,\r\n        uint16 hoursToExpire,\r\n        address borrower\r\n    ) public onlyLendingPool returns (uint256) {\r\n        offerIdTracker.increment();\r\n        uint256 offerId = offerIdTracker.current();\r\n\r\n        uint256 createdAt = block.timestamp;\r\n        uint256 duration = ONE_HOUR.mul(hoursToExpire);\r\n        uint256 expiresAt = createdAt.add(duration);\r\n\r\n        offers[offerId] = OfferLibrary.Offer(\r\n            offerId,\r\n            OfferLibrary.State.DEFAULT,\r\n            principalToken,\r\n            principalAmount, // currentPrincipal\r\n            principalAmount, // initialPrincipal\r\n            interest,\r\n            daysToMaturity,\r\n            expiresAt,\r\n            createdAt,\r\n            borrower,\r\n            // related to lending offers only\r\n            new address[](0),\r\n            // related to borrowing offers only\r\n            collateralToken,\r\n            collateralAmount, // currentCollateral\r\n            collateralAmount, //  initialCollateral\r\n            // type\r\n            OfferLibrary.Type.BORROWING_OFFER\r\n        );\r\n\r\n        _emitOffer(offerId, offers[offerId]);\r\n        return offerId;\r\n    }\r\n\r\n    // creates a new borrowing request\r\n    function createBorrowingRequest(\r\n        uint16 percentage,\r\n        address collateralToken,\r\n        uint256 collateralAmount,\r\n        uint256 collateralPriceInUSD,\r\n        uint160 ltvUsed,\r\n        uint256 interest,\r\n        uint16 daysToMaturity,\r\n        uint16 hoursToExpire,\r\n        address borrower,\r\n        uint256 offerId\r\n    ) public onlyLendingPool returns (uint256) {\r\n        requestIdTracker.increment();\r\n        uint256 requestId = requestIdTracker.current();\r\n\r\n        uint256 createdAt = block.timestamp;\r\n        uint256 duration = ONE_HOUR.mul(hoursToExpire);\r\n        uint256 expiresAt = createdAt.add(duration);\r\n\r\n        OfferLibrary.Offer memory offer = offers[offerId];\r\n\r\n        require(\r\n            offer.offerType == OfferLibrary.Type.LENDING_OFFER,\r\n            \"ERR_OFFER_TYPE\"\r\n        );\r\n        require(createdAt < offers[offerId].expiresAt, \"ERR_OFFER_EXPIRED\");\r\n        if (offer.initialCollateral == offer.currentCollateral) {\r\n            require(createdAt < offers[offerId].expiresAt, \"ERR_OFFER_EXPIRED\");\r\n        }\r\n\r\n        requests[requestId] = RequestLibrary.Request(\r\n            // shared\r\n            requestId,\r\n            RequestLibrary.State.PENDING,\r\n            percentage,\r\n            daysToMaturity,\r\n            interest,\r\n            expiresAt,\r\n            createdAt,\r\n            borrower,\r\n            offerId,\r\n            // related to borrowing request only\r\n            collateralToken,\r\n            collateralAmount,\r\n            collateralPriceInUSD,\r\n            ltvUsed,\r\n            RequestLibrary.Type.BORROWING_REQUEST\r\n        );\r\n\r\n        _emitRequest(requestId, requests[requestId]);\r\n        return requestId;\r\n    }\r\n\r\n    function rejectRequest(uint256 requestId, address user)\r\n        public\r\n        onlyLendingPool\r\n    {\r\n        RequestLibrary.Request storage request = requests[requestId];\r\n        OfferLibrary.Offer memory offer = offers[request.offerId];\r\n        require(offer.creator == user, \"ERR_ONLY_CREATOR\");\r\n        request.state = RequestLibrary.State.REJECTED;\r\n        _emitRequest(requestId, request);\r\n    }\r\n\r\n    function acceptRequest(uint256 requestId, address user)\r\n        public\r\n        onlyLendingPool\r\n    {\r\n        RequestLibrary.Request storage request = requests[requestId];\r\n        OfferLibrary.Offer memory offer = offers[request.offerId];\r\n        require(offer.creator == user, \"ERR_ONLY_CREATOR\");\r\n        request.state = RequestLibrary.State.ACCEPTED;\r\n    }\r\n\r\n    function cancelRequest(uint256 requestId, address user)\r\n        public\r\n        onlyLendingPool\r\n    {\r\n        RequestLibrary.Request storage request = requests[requestId];\r\n        require(request.creator == user, \"ERR_ONLY_CREATOR\");\r\n        request.state = RequestLibrary.State.CANCELLED;\r\n        _emitRequest(requestId, request);\r\n    }\r\n\r\n    // events\r\n    function _emitOffer(uint256 offerId, OfferLibrary.Offer memory offer)\r\n        private\r\n    {\r\n        emit OfferLibrary.OfferCreated(\r\n            offerId,\r\n            offer.state,\r\n            offer.principalToken,\r\n            offer.currentPrincipal,\r\n            offer.initialPrincipal,\r\n            offer.interest,\r\n            offer.daysToMaturity,\r\n            offer.expiresAt,\r\n            offer.createdAt,\r\n            offer.creator,\r\n            offer.collateralTokens,\r\n            offer.collateralToken,\r\n            offer.currentCollateral,\r\n            offer.initialCollateral,\r\n            offer.offerType\r\n        );\r\n    }\r\n\r\n    function _emitRequest(\r\n        uint256 requestId,\r\n        RequestLibrary.Request memory request\r\n    ) private {\r\n        emit RequestLibrary.RequestCreated(\r\n            requestId,\r\n            request.state,\r\n            request.percentage,\r\n            request.daysToMaturity,\r\n            request.interest,\r\n            request.expiresAt,\r\n            request.createdAt,\r\n            request.creator,\r\n            request.offerId,\r\n            request.collateralToken,\r\n            request.collateralAmount,\r\n            request.collateralPriceInUSD,\r\n            request.ltvUsed,\r\n            request.requestType\r\n        );\r\n    }\r\n\r\n    // called after a lending offer loan is executed\r\n    function _afterOfferLendingLoan(uint256 offerId, uint256 principalAmount)\r\n        public\r\n        onlyLendingPool\r\n    {\r\n        OfferLibrary.Offer storage offer = offers[offerId];\r\n        require(\r\n            offer.offerType == OfferLibrary.Type.LENDING_OFFER,\r\n            \"ERR_OFFER_TYPE\"\r\n        );\r\n        require(\r\n            offer.currentPrincipal >= principalAmount,\r\n            \"ERR_INSUFFICIENT_PRINCIPAL\"\r\n        );\r\n        require(offer.expiresAt > block.timestamp, \"ERR_OFFER_EXPIRED\");\r\n\r\n        offers[offerId].currentPrincipal -= principalAmount;\r\n\r\n        _emitOffer(offerId, offer);\r\n    }\r\n\r\n    // called after a borrowing offer loan is executed\r\n    function _afterOfferBorrowingLoan(\r\n        uint256 offerId,\r\n        uint256 principalAmount,\r\n        uint256 collateralAmount\r\n    ) public onlyLendingPool {\r\n        OfferLibrary.Offer storage offer = offers[offerId];\r\n        require(\r\n            offer.offerType == OfferLibrary.Type.BORROWING_OFFER,\r\n            \"ERR_OFFER_TYPE\"\r\n        );\r\n        require(\r\n            offer.currentPrincipal >= principalAmount,\r\n            \"ERR_INSUFFICIENT_PRINCIPAL\"\r\n        );\r\n        require(\r\n            offer.currentCollateral >= collateralAmount,\r\n            \"ERR_INSUFFICIENT_COLLATERAL\"\r\n        );\r\n        require(offer.expiresAt > block.timestamp, \"ERR_OFFER_EXPIRED\");\r\n\r\n        offer.currentPrincipal -= principalAmount;\r\n        offer.currentCollateral -= collateralAmount;\r\n\r\n        _emitOffer(offerId, offer);\r\n    }\r\n\r\n    // checks if a offer support collateral token\r\n    function isCollateralSupported(uint256 offerId, address token)\r\n        public\r\n        view\r\n        returns (bool)\r\n    {\r\n        OfferLibrary.Offer memory offer = offers[offerId];\r\n        bool supported = false;\r\n        for (\r\n            uint256 index = 0;\r\n            index < offer.collateralTokens.length;\r\n            index++\r\n        ) {\r\n            if (offer.collateralTokens[index] == token) {\r\n                supported = true;\r\n                break;\r\n            }\r\n        }\r\n        return supported;\r\n    }\r\n\r\n    // getters\r\n    function getOffer(uint256 offerId)\r\n        public\r\n        view\r\n        override\r\n        returns (OfferLibrary.Offer memory)\r\n    {\r\n        return offers[offerId];\r\n    }\r\n\r\n    function getRequest(uint256 requestId)\r\n        public\r\n        view\r\n        override\r\n        returns (RequestLibrary.Request memory)\r\n    {\r\n        return requests[requestId];\r\n    }\r\n\r\n    function setLendingPool(address address_) public onlyOwner {\r\n        lendingPool = address_;\r\n    }\r\n\r\n    modifier onlyLendingPool() {\r\n        require(msg.sender == lendingPool);\r\n        _;\r\n    }\r\n}\r\n",
  "sourcePath": "C:\\Users\\DELL\\Documents\\darsh\\smart-contracts\\contracts\\managers\\OfferManager.sol",
  "compiler": {
    "name": "solc",
    "version": "0.8.17+commit.8df45f5f.Emscripten.clang"
  },
  "schemaVersion": "3.4.11",
  "updatedAt": "2023-02-18T16:02:15.502Z",
  "devdoc": {
    "kind": "dev",
    "methods": {
      "acceptOwnership()": {
        "details": "The new owner accepts the ownership transfer."
      },
      "owner()": {
        "details": "Returns the address of the current owner."
      },
      "pendingOwner()": {
        "details": "Returns the address of the pending owner."
      },
      "renounceOwnership()": {
        "details": "Leaves the contract without owner. It will not be possible to call `onlyOwner` functions anymore. Can only be called by the current owner. NOTE: Renouncing ownership will leave the contract without an owner, thereby removing any functionality that is only available to the owner."
      },
      "transferOwnership(address)": {
        "details": "Starts the ownership transfer of the contract to a new account. Replaces the pending transfer if there is one. Can only be called by the current owner."
      }
    },
    "version": 1
  },
  "userdoc": {
    "kind": "user",
    "methods": {},
    "version": 1
  }
}