{
  "contractName": "OfferManager",
  "abi": [
    {
      "inputs": [],
      "stateMutability": "nonpayable",
      "type": "constructor"
    },
    {
      "anonymous": false,
      "inputs": [
        {
          "indexed": false,
          "internalType": "uint256",
          "name": "offerId",
          "type": "uint256"
        },
        {
          "indexed": false,
          "internalType": "address",
          "name": "principalType",
          "type": "address"
        },
        {
          "indexed": false,
          "internalType": "address",
          "name": "collateralType",
          "type": "address"
        },
        {
          "indexed": false,
          "internalType": "uint256",
          "name": "initialCollateral",
          "type": "uint256"
        },
        {
          "indexed": false,
          "internalType": "uint256",
          "name": "currentCollateral",
          "type": "uint256"
        },
        {
          "indexed": false,
          "internalType": "uint256",
          "name": "interest",
          "type": "uint256"
        },
        {
          "indexed": false,
          "internalType": "uint256",
          "name": "daysToMaturity",
          "type": "uint256"
        },
        {
          "indexed": false,
          "internalType": "uint160",
          "name": "expiresAt",
          "type": "uint160"
        },
        {
          "indexed": false,
          "internalType": "uint160",
          "name": "createdAt",
          "type": "uint160"
        },
        {
          "indexed": false,
          "internalType": "address",
          "name": "borrower",
          "type": "address"
        }
      ],
      "name": "BorrowingOfferCreated",
      "type": "event"
    },
    {
      "anonymous": false,
      "inputs": [
        {
          "indexed": false,
          "internalType": "uint256",
          "name": "offerId",
          "type": "uint256"
        },
        {
          "indexed": false,
          "internalType": "address",
          "name": "principalType",
          "type": "address"
        },
        {
          "indexed": false,
          "internalType": "uint256",
          "name": "currentPrincipal",
          "type": "uint256"
        },
        {
          "indexed": false,
          "internalType": "uint256",
          "name": "initialPrincipal",
          "type": "uint256"
        },
        {
          "indexed": false,
          "internalType": "uint256",
          "name": "interest",
          "type": "uint256"
        },
        {
          "indexed": false,
          "internalType": "uint256",
          "name": "daysToMaturity",
          "type": "uint256"
        },
        {
          "indexed": false,
          "internalType": "address[]",
          "name": "collateralTypes",
          "type": "address[]"
        },
        {
          "indexed": false,
          "internalType": "uint160",
          "name": "expiresAt",
          "type": "uint160"
        },
        {
          "indexed": false,
          "internalType": "uint160",
          "name": "createdAt",
          "type": "uint160"
        },
        {
          "indexed": false,
          "internalType": "address",
          "name": "lender",
          "type": "address"
        }
      ],
      "name": "LendingOfferCreated",
      "type": "event"
    },
    {
      "anonymous": false,
      "inputs": [
        {
          "indexed": false,
          "internalType": "uint256",
          "name": "offerId",
          "type": "uint256"
        },
        {
          "indexed": false,
          "internalType": "enum OfferLibrary.Type",
          "name": "offerType",
          "type": "uint8"
        }
      ],
      "name": "OfferClosed",
      "type": "event"
    },
    {
      "anonymous": false,
      "inputs": [
        {
          "indexed": true,
          "internalType": "address",
          "name": "previousOwner",
          "type": "address"
        },
        {
          "indexed": true,
          "internalType": "address",
          "name": "newOwner",
          "type": "address"
        }
      ],
      "name": "OwnershipTransferStarted",
      "type": "event"
    },
    {
      "anonymous": false,
      "inputs": [
        {
          "indexed": true,
          "internalType": "address",
          "name": "previousOwner",
          "type": "address"
        },
        {
          "indexed": true,
          "internalType": "address",
          "name": "newOwner",
          "type": "address"
        }
      ],
      "name": "OwnershipTransferred",
      "type": "event"
    },
    {
      "anonymous": false,
      "inputs": [
        {
          "indexed": false,
          "internalType": "uint256",
          "name": "requestId",
          "type": "uint256"
        },
        {
          "indexed": false,
          "internalType": "enum RequestLibrary.Type",
          "name": "requestType",
          "type": "uint8"
        }
      ],
      "name": "RequestClosed",
      "type": "event"
    },
    {
      "inputs": [],
      "name": "acceptOwnership",
      "outputs": [],
      "stateMutability": "nonpayable",
      "type": "function"
    },
    {
      "inputs": [
        {
          "internalType": "uint256",
          "name": "",
          "type": "uint256"
        }
      ],
      "name": "borrowingOffers",
      "outputs": [
        {
          "internalType": "uint256",
          "name": "offerId",
          "type": "uint256"
        },
        {
          "internalType": "address",
          "name": "principalType",
          "type": "address"
        },
        {
          "internalType": "address",
          "name": "collateralType",
          "type": "address"
        },
        {
          "internalType": "uint256",
          "name": "currentCollateral",
          "type": "uint256"
        },
        {
          "internalType": "uint256",
          "name": "initialCollateral",
          "type": "uint256"
        },
        {
          "internalType": "uint256",
          "name": "currentPrincipal",
          "type": "uint256"
        },
        {
          "internalType": "uint256",
          "name": "initialPrincipal",
          "type": "uint256"
        },
        {
          "internalType": "uint256",
          "name": "interest",
          "type": "uint256"
        },
        {
          "internalType": "uint256",
          "name": "daysToMaturity",
          "type": "uint256"
        },
        {
          "internalType": "uint160",
          "name": "expiresAt",
          "type": "uint160"
        },
        {
          "internalType": "uint160",
          "name": "createdAt",
          "type": "uint160"
        },
        {
          "internalType": "address",
          "name": "borrower",
          "type": "address"
        }
      ],
      "stateMutability": "view",
      "type": "function"
    },
    {
      "inputs": [
        {
          "internalType": "uint256",
          "name": "",
          "type": "uint256"
        }
      ],
      "name": "borrowingRequests",
      "outputs": [
        {
          "internalType": "uint256",
          "name": "requestId",
          "type": "uint256"
        },
        {
          "internalType": "address",
          "name": "collateralType",
          "type": "address"
        },
        {
          "internalType": "uint256",
          "name": "collateralAmount",
          "type": "uint256"
        },
        {
          "internalType": "uint256",
          "name": "principalAmount",
          "type": "uint256"
        },
        {
          "internalType": "uint256",
          "name": "interest",
          "type": "uint256"
        },
        {
          "internalType": "uint256",
          "name": "daysToMaturity",
          "type": "uint256"
        },
        {
          "internalType": "uint256",
          "name": "expiresAt",
          "type": "uint256"
        },
        {
          "internalType": "uint256",
          "name": "createdAt",
          "type": "uint256"
        },
        {
          "internalType": "address",
          "name": "borrower",
          "type": "address"
        },
        {
          "internalType": "uint256",
          "name": "offerId",
          "type": "uint256"
        }
      ],
      "stateMutability": "view",
      "type": "function"
    },
    {
      "inputs": [
        {
          "internalType": "uint256",
          "name": "",
          "type": "uint256"
        }
      ],
      "name": "lendingOffers",
      "outputs": [
        {
          "internalType": "uint256",
          "name": "offerId",
          "type": "uint256"
        },
        {
          "internalType": "address",
          "name": "principalType",
          "type": "address"
        },
        {
          "internalType": "uint256",
          "name": "currentPrincipal",
          "type": "uint256"
        },
        {
          "internalType": "uint256",
          "name": "initialPrincipal",
          "type": "uint256"
        },
        {
          "internalType": "uint256",
          "name": "interest",
          "type": "uint256"
        },
        {
          "internalType": "uint256",
          "name": "daysToMaturity",
          "type": "uint256"
        },
        {
          "internalType": "uint160",
          "name": "expiresAt",
          "type": "uint160"
        },
        {
          "internalType": "uint160",
          "name": "createdAt",
          "type": "uint160"
        },
        {
          "internalType": "address",
          "name": "lender",
          "type": "address"
        }
      ],
      "stateMutability": "view",
      "type": "function"
    },
    {
      "inputs": [
        {
          "internalType": "uint256",
          "name": "",
          "type": "uint256"
        }
      ],
      "name": "lendingRequests",
      "outputs": [
        {
          "internalType": "uint256",
          "name": "requestId",
          "type": "uint256"
        },
        {
          "internalType": "uint256",
          "name": "interest",
          "type": "uint256"
        },
        {
          "internalType": "uint256",
          "name": "principalAmount",
          "type": "uint256"
        },
        {
          "internalType": "uint16",
          "name": "desiredPercentage",
          "type": "uint16"
        },
        {
          "internalType": "uint256",
          "name": "daysToMaturity",
          "type": "uint256"
        },
        {
          "internalType": "uint256",
          "name": "expiresAt",
          "type": "uint256"
        },
        {
          "internalType": "uint256",
          "name": "createdAt",
          "type": "uint256"
        },
        {
          "internalType": "address",
          "name": "lender",
          "type": "address"
        },
        {
          "internalType": "uint256",
          "name": "offerId",
          "type": "uint256"
        }
      ],
      "stateMutability": "view",
      "type": "function"
    },
    {
      "inputs": [],
      "name": "owner",
      "outputs": [
        {
          "internalType": "address",
          "name": "",
          "type": "address"
        }
      ],
      "stateMutability": "view",
      "type": "function"
    },
    {
      "inputs": [],
      "name": "pendingOwner",
      "outputs": [
        {
          "internalType": "address",
          "name": "",
          "type": "address"
        }
      ],
      "stateMutability": "view",
      "type": "function"
    },
    {
      "inputs": [],
      "name": "renounceOwnership",
      "outputs": [],
      "stateMutability": "nonpayable",
      "type": "function"
    },
    {
      "inputs": [
        {
          "internalType": "address",
          "name": "newOwner",
          "type": "address"
        }
      ],
      "name": "transferOwnership",
      "outputs": [],
      "stateMutability": "nonpayable",
      "type": "function"
    },
    {
      "inputs": [
        {
          "internalType": "address",
          "name": "principalType",
          "type": "address"
        },
        {
          "internalType": "uint256",
          "name": "principal",
          "type": "uint256"
        },
        {
          "internalType": "uint256",
          "name": "interest",
          "type": "uint256"
        },
        {
          "internalType": "uint256",
          "name": "daysToMaturity",
          "type": "uint256"
        },
        {
          "internalType": "uint256",
          "name": "daysToExpire",
          "type": "uint256"
        },
        {
          "internalType": "address[]",
          "name": "collateralTypes",
          "type": "address[]"
        },
        {
          "internalType": "address",
          "name": "lender",
          "type": "address"
        }
      ],
      "name": "createLendingOffer",
      "outputs": [
        {
          "internalType": "uint256",
          "name": "",
          "type": "uint256"
        }
      ],
      "stateMutability": "nonpayable",
      "type": "function"
    },
    {
      "inputs": [
        {
          "internalType": "uint256",
          "name": "offerId",
          "type": "uint256"
        },
        {
          "internalType": "uint256",
          "name": "principal",
          "type": "uint256"
        }
      ],
      "name": "_afterOfferLendingLoan",
      "outputs": [],
      "stateMutability": "nonpayable",
      "type": "function"
    },
    {
      "inputs": [
        {
          "internalType": "uint256",
          "name": "offerId",
          "type": "uint256"
        },
        {
          "internalType": "uint256",
          "name": "collateral",
          "type": "uint256"
        }
      ],
      "name": "_afterOfferBorrowingLoan",
      "outputs": [],
      "stateMutability": "nonpayable",
      "type": "function"
    },
    {
      "inputs": [
        {
          "internalType": "address",
          "name": "principalType",
          "type": "address"
        },
        {
          "internalType": "address",
          "name": "collateralType",
          "type": "address"
        },
        {
          "internalType": "uint256",
          "name": "collateral",
          "type": "uint256"
        },
        {
          "internalType": "uint256",
          "name": "principalNeeded",
          "type": "uint256"
        },
        {
          "internalType": "uint256",
          "name": "interest",
          "type": "uint256"
        },
        {
          "internalType": "uint256",
          "name": "daysToMaturity",
          "type": "uint256"
        },
        {
          "internalType": "uint256",
          "name": "daysToExpire",
          "type": "uint256"
        },
        {
          "internalType": "address",
          "name": "borrower",
          "type": "address"
        }
      ],
      "name": "createBorrowingOffer",
      "outputs": [
        {
          "internalType": "uint256",
          "name": "",
          "type": "uint256"
        }
      ],
      "stateMutability": "nonpayable",
      "type": "function"
    },
    {
      "inputs": [
        {
          "internalType": "uint256",
          "name": "offerId",
          "type": "uint256"
        },
        {
          "internalType": "address",
          "name": "lender",
          "type": "address"
        },
        {
          "internalType": "uint256",
          "name": "amount",
          "type": "uint256"
        }
      ],
      "name": "withdrawLendingOffer",
      "outputs": [
        {
          "internalType": "bool",
          "name": "",
          "type": "bool"
        }
      ],
      "stateMutability": "nonpayable",
      "type": "function"
    },
    {
      "inputs": [
        {
          "internalType": "uint256",
          "name": "requestId",
          "type": "uint256"
        }
      ],
      "name": "closeLendingRequest",
      "outputs": [],
      "stateMutability": "nonpayable",
      "type": "function"
    },
    {
      "inputs": [
        {
          "internalType": "uint256",
          "name": "offerId",
          "type": "uint256"
        }
      ],
      "name": "getLendingOffer",
      "outputs": [
        {
          "components": [
            {
              "internalType": "uint256",
              "name": "offerId",
              "type": "uint256"
            },
            {
              "internalType": "address",
              "name": "principalType",
              "type": "address"
            },
            {
              "internalType": "uint256",
              "name": "currentPrincipal",
              "type": "uint256"
            },
            {
              "internalType": "uint256",
              "name": "initialPrincipal",
              "type": "uint256"
            },
            {
              "internalType": "uint256",
              "name": "interest",
              "type": "uint256"
            },
            {
              "internalType": "uint256",
              "name": "daysToMaturity",
              "type": "uint256"
            },
            {
              "internalType": "address[]",
              "name": "collateralTypes",
              "type": "address[]"
            },
            {
              "internalType": "uint160",
              "name": "expiresAt",
              "type": "uint160"
            },
            {
              "internalType": "uint160",
              "name": "createdAt",
              "type": "uint160"
            },
            {
              "internalType": "address",
              "name": "lender",
              "type": "address"
            }
          ],
          "internalType": "struct OfferLibrary.LendingOffer",
          "name": "",
          "type": "tuple"
        }
      ],
      "stateMutability": "view",
      "type": "function"
    },
    {
      "inputs": [
        {
          "internalType": "uint256",
          "name": "offerId",
          "type": "uint256"
        }
      ],
      "name": "getBorrowingOffer",
      "outputs": [
        {
          "components": [
            {
              "internalType": "uint256",
              "name": "offerId",
              "type": "uint256"
            },
            {
              "internalType": "address",
              "name": "principalType",
              "type": "address"
            },
            {
              "internalType": "address",
              "name": "collateralType",
              "type": "address"
            },
            {
              "internalType": "uint256",
              "name": "currentCollateral",
              "type": "uint256"
            },
            {
              "internalType": "uint256",
              "name": "initialCollateral",
              "type": "uint256"
            },
            {
              "internalType": "uint256",
              "name": "currentPrincipal",
              "type": "uint256"
            },
            {
              "internalType": "uint256",
              "name": "initialPrincipal",
              "type": "uint256"
            },
            {
              "internalType": "uint256",
              "name": "interest",
              "type": "uint256"
            },
            {
              "internalType": "uint256",
              "name": "daysToMaturity",
              "type": "uint256"
            },
            {
              "internalType": "uint160",
              "name": "expiresAt",
              "type": "uint160"
            },
            {
              "internalType": "uint160",
              "name": "createdAt",
              "type": "uint160"
            },
            {
              "internalType": "address",
              "name": "borrower",
              "type": "address"
            }
          ],
          "internalType": "struct OfferLibrary.BorrowingOffer",
          "name": "",
          "type": "tuple"
        }
      ],
      "stateMutability": "view",
      "type": "function"
    },
    {
      "inputs": [
        {
          "internalType": "uint256",
          "name": "requestId",
          "type": "uint256"
        }
      ],
      "name": "getBorrowingRequest",
      "outputs": [
        {
          "components": [
            {
              "internalType": "uint256",
              "name": "requestId",
              "type": "uint256"
            },
            {
              "internalType": "address",
              "name": "collateralType",
              "type": "address"
            },
            {
              "internalType": "uint256",
              "name": "collateralAmount",
              "type": "uint256"
            },
            {
              "internalType": "uint256",
              "name": "principalAmount",
              "type": "uint256"
            },
            {
              "internalType": "uint256",
              "name": "interest",
              "type": "uint256"
            },
            {
              "internalType": "uint256",
              "name": "daysToMaturity",
              "type": "uint256"
            },
            {
              "internalType": "uint256",
              "name": "expiresAt",
              "type": "uint256"
            },
            {
              "internalType": "uint256",
              "name": "createdAt",
              "type": "uint256"
            },
            {
              "internalType": "address",
              "name": "borrower",
              "type": "address"
            },
            {
              "internalType": "uint256",
              "name": "offerId",
              "type": "uint256"
            }
          ],
          "internalType": "struct RequestLibrary.BorrowingRequest",
          "name": "",
          "type": "tuple"
        }
      ],
      "stateMutability": "view",
      "type": "function"
    },
    {
      "inputs": [
        {
          "internalType": "uint256",
          "name": "requestId",
          "type": "uint256"
        }
      ],
      "name": "getLendingRequest",
      "outputs": [
        {
          "components": [
            {
              "internalType": "uint256",
              "name": "requestId",
              "type": "uint256"
            },
            {
              "internalType": "uint256",
              "name": "interest",
              "type": "uint256"
            },
            {
              "internalType": "uint256",
              "name": "principalAmount",
              "type": "uint256"
            },
            {
              "internalType": "uint16",
              "name": "desiredPercentage",
              "type": "uint16"
            },
            {
              "internalType": "uint256",
              "name": "daysToMaturity",
              "type": "uint256"
            },
            {
              "internalType": "uint256",
              "name": "expiresAt",
              "type": "uint256"
            },
            {
              "internalType": "uint256",
              "name": "createdAt",
              "type": "uint256"
            },
            {
              "internalType": "address",
              "name": "lender",
              "type": "address"
            },
            {
              "internalType": "uint256",
              "name": "offerId",
              "type": "uint256"
            }
          ],
          "internalType": "struct RequestLibrary.LendingRequest",
          "name": "",
          "type": "tuple"
        }
      ],
      "stateMutability": "view",
      "type": "function"
    },
    {
      "inputs": [
        {
          "internalType": "address",
          "name": "address_",
          "type": "address"
        }
      ],
      "name": "setLendingPool",
      "outputs": [],
      "stateMutability": "nonpayable",
      "type": "function"
    }
  ],
  "bytecode": "0x6080806040523461006357600180546001600160a01b03199081169091556000805433928116831782556001600160a01b0316907f8be0079c531659141344cd1fd0a4f28419497f9722a3daafe3b4186f6b6457e09080a36115ee90816100698239f35b600080fdfe608080604052600436101561001357600080fd5b60003560e01c9081630836c696146113a457508063113aa8b11461136157806314c7eb49146112345780634ca2505914611221578063554bb3d1146110df578063555967581461108457806361a979bf14610ff4578063715018a614610f8f5780637789f19f14610d1757806379ba509714610c5457806380a9600714610bb95780638692fe0a14610b015780638da5cb5b14610ad8578063a8e2135c1461097d578063ab64a18514610760578063bf1e609714610595578063dbaf4f7f146101f3578063e30c3978146101ca578063f094cb951461016b5763f2fde38b146100fb57600080fd5b3461016657602036600319011261016657610114611433565b61011c6114ee565b60018060a01b0380911690816001600160601b0360a01b6001541617600155600054167f38d16b8cac22d99fc7c124b9cd0de2d3fa1faef420bfe791d8c362d765e22700600080a3005b600080fd5b34610166576101793661145f565b600a549091906001600160a01b03163303610166578060005260046020526101ab82600260406000200154101561155f565b60005260046020526101c660026040600020019182546115ab565b9055005b34610166576000366003190112610166576001546040516001600160a01b039091168152602090f35b346101665760e03660031901126101665761020c611433565b60a4359067ffffffffffffffff821161016657366023830112156101665781600401359167ffffffffffffffff8311610549578260051b906040519361025560208401866114cc565b84526020840190602482938201019036821161016657602401915b81831061057557505060c43590506001600160a01b038116810361016657600a546001600160a01b03163303610166576001600254019283600255608435620151809081810291818304149015171561055f576102da906001600160a01b03908116904216611546565b906040516102e7816114af565b8581526001600160a01b0382811660208084019182526024356040808601828152606087019283526044356080880190815260643560a0890190815260c089018f81528b891660e08b01524289166101008b01528c89166101208b015260008f8152600497889052949094208951815596516001880180546001600160a01b0319169190991617909755905160028601559151600385015590519183019190915591516005820155905180519067ffffffffffffffff82116105495768010000000000000000821161054957600683015482600685015580831061051c575b5060200160068301600052602060002060005b8381106104ff575050505060e08201516007820180546001600160a01b03199081166001600160a01b03938416179091556101008401516008840180548316918416919091179055610120909301516009909201805490931691811691909117909155604080518781529290911660208301526024359082018190526060820152604435608082015260643560a082015261014060c082018190529551958101869052946101608601939060005b8181106104e0576001600160a01b0380851660e08a01524281166101008a015285166101208901526020877f773a450e5a0a87893bc3120bbef5e14716fc4bc64deebd4f0589b0d66cd97d138a89038ba1604051908152f35b82516001600160a01b0316865260209586019590920191600101610487565b82516001600160a01b0316818301556020909201916001016103d9565b600684016000526020600020908382015b818301811061053d5750506103c6565b6000815560010161052d565b634e487b7160e01b600052604160045260246000fd5b634e487b7160e01b600052601160045260246000fd5b82356001600160a01b038116810361016657815260209283019201610270565b346101665760203660031901126101665760006101606040516105b781611492565b8281528260208201528260408201528260608201528260808201528260a08201528260c08201528260e082015282610100820152826101208201528261014082015201526004356000526005602052610180604060002060405161061a81611492565b81549182825260018060a01b03600182015416602083015260018060a01b0360028201541660408301526003810154606083015260048101546080830152600581015460a0830152600681015460c0830152600781015460e0830152600881015461010083015260018060a01b0360098201541661012083015260018060a01b03600a82015416610140830152600b60018060a01b039101541661016082015260405191825260018060a01b03602082015116602083015260018060a01b036040820151166040830152606081015160608301526080810151608083015260a081015160a083015260c081015160c083015260e081015160e083015261010081015161010083015260018060a01b036101208201511661012083015260018060a01b036101408201511661014083015261016060018060a01b0391015116610160820152f35b34610166576020366003190112610166576000610120604051610782816114af565b8281528260208201528260408201528260608201528260808201528260a0820152606060c08201528260e082015282610100820152015260043560005260046020526040600020604051906107d6826114af565b8054825260018060a01b036001820154166020830152600281015460408301526003810154606083015260048101546080830152600581015460a0830152600681016040518082602082945493848152019060005260206000209260005b81811061095b575050610849925003826114cc565b60c083015260018060a01b0360078201541660e083015260018060a01b03600882015416610100830152600960018060a01b0391015416610120820152604051602081526101608101918051602083015260018060a01b0360208201511660408301526040810151606083015260608101516080830152608081015160a083015260a081015160c083015260c081015190610140908160e085015282518095526020610180850193016000955b80871061093857505060e08101516001600160a01b03908116610100808701919091528201518116610120808701919091529091015116908301528190039150f35b81516001600160a01b0316855260019690960195602094850194909101906108f6565b84546001600160a01b0316835260019485019486945060209093019201610834565b3461016657602036600319011261016657600061012060405161099f816114af565b8281528260208201528260408201528260608201528260808201528260a08201528260c08201528260e0820152826101008201520152600435600052600960205261014060406000206101206040516109f7816114af565b600983549384835260018060a01b036001820154166020840152600281015460408401526003810154606084015260048101546080840152600581015460a0840152600681015460c0840152600781015460e084015260018060a01b0360088201541661010084015201548282015260405192835260018060a01b03602082015116602084015260408101516040840152606081015160608401526080810151608084015260a081015160a084015260c081015160c084015260e081015160e084015260018060a01b03610100820151166101008401520151610120820152f35b34610166576000366003190112610166576000546040516001600160a01b039091168152602090f35b34610166576020366003190112610166576004356000526005602052610180604060002080549060018060a01b03908160018201541691806002830154166003830154600484015460058501546006860154916007870154936008880154958760098a01541697600b81600a8c0154169a015416996040519b8c5260208c015260408b015260608a0152608089015260a088015260c087015260e0860152610100850152610120840152610140830152610160820152f35b34610166576020366003190112610166576004356000526009602052610140604060002080549060018060a01b03908160018201541691600282015460038301546004840154600585015491600686015493600960078801549660088901541697015497604051998a5260208a015260408901526060880152608087015260a086015260c085015260e0840152610100830152610120820152f35b34610166576000366003190112610166576001546001600160a01b033381831603610cc0576001600160601b0360a01b8092166001556000549133908316176000553391167f8be0079c531659141344cd1fd0a4f28419497f9722a3daafe3b4186f6b6457e0600080a3005b60405162461bcd60e51b815260206004820152602960248201527f4f776e61626c6532537465703a2063616c6c6572206973206e6f7420746865206044820152683732bb9037bbb732b960b91b6064820152608490fd5b346101665761010036600319011261016657610d31611433565b610d39611449565b60e435919060c4356001600160a01b038416840361016657600a546001600160a01b03163303610166576001600354019283600355620151809182810292818404149015171561055f576020947f47b49ac21a9fc5263689a6901f4202897e772057da8430a021b88ca76bc086be9361014093610dc3906001600160a01b03908116904216611546565b90604051610dd081611492565b87815260018060a01b0385168982015260018060a01b0382166040820152604435606082015260443560808201526064358060a083015260c082015260843560e082015260a43561010082015260018060a01b03831661012082015260018060a01b0342168682015260018060a01b0384166101608201528760005260058952604060002081518155600b600182019160018060a01b038c85015116926001600160601b0360a01b93848254161790556002810160018060a01b0360408601511684825416179055606084015160038201556080840151600482015560a0840151600582015560c0840151600682015560e0840151600782015561010084015160088201556009810160018060a01b036101208601511684825416179055600a810160018060a01b038a8601511684825416179055019161016060018060a01b0391015116908254161790556040519387855260018060a01b03168885015260018060a01b031660408401526044356060840152604435608084015260843560a084015260a43560c084015260018060a01b031660e083015260018060a01b03421661010083015260018060a01b0316610120820152a1604051908152f35b3461016657600036600319011261016657610fa86114ee565b600180546001600160a01b0319908116909155600080549182168155906001600160a01b03167f8be0079c531659141344cd1fd0a4f28419497f9722a3daafe3b4186f6b6457e08280a3005b346101665760203660031901126101665760043560005260086020526101206040600020805490600181015490600281015461ffff6003830154166004830154600584015491600685015493600860018060a01b0360078801541696015496604051988952602089015260408801526060870152608086015260a085015260c084015260e0830152610100820152f35b34610166576110923661145f565b600a549091906001600160a01b03163303610166578060005260056020526110c482600360406000200154101561155f565b60005260056020526101c660036040600020019182546115ab565b34610166576060366003190112610166576004356110fb611449565b600a5460443591906001600160a01b0390811633036101665783600052600460205280600960406000200154169116036101665780600260406000200154116101665761115160026040600020019182546115ab565b905580600052600460205260026040600020015415611176575b602060405160018152f35b604060002060008155600160008183015560006002830155600060038301556000600483015560006005830155600682018054906000815581611201575b5050507f33910d348349980653133cceb7aed6e2216c3ef8f0b3dccafe181486a83c730a91600060098382600760409601558260088201550155815190815260006020820152a18061116b565b6000526020600020908101905b818110156111b45760008155820161120e565b3461016657602036600319011261016657005b346101665760203660031901126101665761012060405161125481611475565b6000815260006020820152600060408201526000606082015260006080820152600060a0820152600060c0820152600060e082015260006101008092015260043560005260086020526040600020906040516112af81611475565b8254928382526001810154906020830191825260028101546040840190815261ffff8060038401541690606086019182526004840154906080870191825260058501549260a0880193845260068601549460c0890195865260018060a01b03978a60088a60078b0154169960e08d019a8b5201549a01998a526040519b8c525160208c01525160408b0152511660608901525160808801525160a08701525160c0860152511660e08401525190820152f35b346101665760203660031901126101665761137a611433565b6113826114ee565b600a80546001600160a01b0319166001600160a01b0392909216919091179055005b3461016657602036600319011261016657610120906004356000526004602052604060002080549060018060a01b038060018301541660028301546003840154600485015491600586015493856007880154169560098160088a01541698015416978952602089015260408801526060870152608086015260a085015260c084015260e0830152610100820152f35b600435906001600160a01b038216820361016657565b602435906001600160a01b038216820361016657565b6040906003190112610166576004359060243590565b610120810190811067ffffffffffffffff82111761054957604052565b610180810190811067ffffffffffffffff82111761054957604052565b610140810190811067ffffffffffffffff82111761054957604052565b90601f8019910116810190811067ffffffffffffffff82111761054957604052565b6000546001600160a01b0316330361150257565b606460405162461bcd60e51b815260206004820152602060248201527f4f776e61626c653a2063616c6c6572206973206e6f7420746865206f776e65726044820152fd5b6001600160a01b03918216908216019190821161055f57565b1561156657565b60405162461bcd60e51b815260206004820152601760248201527f4552525f494e53554646494349454e545f414d4f554e540000000000000000006044820152606490fd5b9190820391821161055f5756fea26469706673582212205e71ea49c8b27619aa22aac368af1d7bdf1c0710be2a2dc742dbdbd45937859c64736f6c63430008110033",
  "immutableReferences": {},
  "source": "// SPDX-License-Identifier: GPL-3.0\r\npragma solidity >=0.7.0 <0.9.0;\r\n\r\nimport \"../libraries/AssetLibrary.sol\";\r\nimport \"../libraries/OfferLibrary.sol\";\r\nimport \"../libraries/RequestLibrary.sol\";\r\n\r\nimport \"../interfaces/IOfferManager.sol\";\r\n\r\nimport \"@openzeppelin/contracts/access/Ownable2Step.sol\";\r\nimport \"@openzeppelin/contracts/utils/Counters.sol\";\r\n\r\ncontract OfferManager is IOfferManager, Ownable2Step {\r\n    using Counters for Counters.Counter;\r\n\r\n    // offers\r\n    Counters.Counter private lendingOfferIdTracker;\r\n    Counters.Counter private borrowingOfferIdTracker;\r\n\r\n    mapping(uint256 => OfferLibrary.LendingOffer) public lendingOffers;\r\n    mapping(uint256 => OfferLibrary.BorrowingOffer) public borrowingOffers;\r\n\r\n    // request\r\n    Counters.Counter private lendingRequestIdTracker;\r\n    Counters.Counter private borrowingRequestIdTracker;\r\n\r\n    mapping(uint256 => RequestLibrary.LendingRequest) public lendingRequests;\r\n    mapping(uint256 => RequestLibrary.BorrowingRequest)\r\n        public borrowingRequests;\r\n\r\n    address lendingPool;\r\n\r\n    constructor() Ownable2Step() {}\r\n\r\n    event LendingOfferCreated(\r\n        uint256 offerId,\r\n        address principalType,\r\n        uint256 currentPrincipal,\r\n        uint256 initialPrincipal,\r\n        uint256 interest,\r\n        uint daysToMaturity,\r\n        address[] collateralTypes,\r\n        uint160 expiresAt,\r\n        uint160 createdAt,\r\n        address lender\r\n    );\r\n\r\n    event BorrowingOfferCreated(\r\n        uint256 offerId,\r\n        address principalType,\r\n        address collateralType,\r\n        uint256 initialCollateral,\r\n        uint256 currentCollateral,\r\n        uint256 interest,\r\n        uint daysToMaturity,\r\n        uint160 expiresAt,\r\n        uint160 createdAt,\r\n        address borrower\r\n    );\r\n\r\n    event OfferClosed(uint256 offerId, OfferLibrary.Type offerType);\r\n\r\n    event RequestClosed(uint256 requestId, RequestLibrary.Type requestType);\r\n\r\n    function createLendingOffer(\r\n        address principalType,\r\n        uint256 principal,\r\n        uint256 interest,\r\n        uint256 daysToMaturity,\r\n        uint256 daysToExpire,\r\n        address[] memory collateralTypes,\r\n        address lender\r\n    ) public onlyLendingPool returns (uint256) {\r\n        // onlyOwner\r\n        lendingOfferIdTracker.increment();\r\n        uint256 offerId = lendingOfferIdTracker.current();\r\n\r\n        uint160 createdAt = uint160(block.timestamp);\r\n        uint160 duration = uint160((daysToExpire * 1 days));\r\n        uint160 expiresAt = createdAt + duration;\r\n\r\n        lendingOffers[offerId] = OfferLibrary.LendingOffer(\r\n            offerId,\r\n            principalType,\r\n            principal, // currentPrincipal\r\n            principal, // initialPrincipal\r\n            interest,\r\n            daysToMaturity,\r\n            collateralTypes,\r\n            expiresAt,\r\n            createdAt,\r\n            lender\r\n        );\r\n\r\n        emit LendingOfferCreated(\r\n            offerId,\r\n            principalType,\r\n            principal, // currentPrincipal\r\n            principal, // initialPrincipal\r\n            interest,\r\n            daysToMaturity,\r\n            collateralTypes,\r\n            expiresAt,\r\n            createdAt,\r\n            lender\r\n        );\r\n\r\n        return offerId;\r\n    }\r\n\r\n    function _afterOfferLendingLoan(uint256 offerId, uint256 principal)\r\n        public\r\n        onlyLendingPool\r\n    {\r\n        require(\r\n            lendingOffers[offerId].currentPrincipal >= principal,\r\n            \"ERR_INSUFFICIENT_AMOUNT\"\r\n        );\r\n        lendingOffers[offerId].currentPrincipal -= principal;\r\n    }\r\n\r\n    function _afterOfferBorrowingLoan(uint256 offerId, uint256 collateral)\r\n        public\r\n        onlyLendingPool\r\n    {\r\n        require(\r\n            borrowingOffers[offerId].currentCollateral >= collateral,\r\n            \"ERR_INSUFFICIENT_AMOUNT\"\r\n        );\r\n        borrowingOffers[offerId].currentCollateral -= collateral;\r\n    }\r\n\r\n    function createBorrowingOffer(\r\n        address principalType,\r\n        address collateralType,\r\n        uint256 collateral,\r\n        uint256 principalNeeded,\r\n        uint256 interest,\r\n        uint256 daysToMaturity,\r\n        uint256 daysToExpire,\r\n        address borrower\r\n    ) public onlyLendingPool returns (uint256) {\r\n        borrowingOfferIdTracker.increment();\r\n        uint256 offerId = borrowingOfferIdTracker.current();\r\n\r\n        uint160 createdAt = uint160(block.timestamp);\r\n        uint160 duration = uint160((daysToExpire * 1 days));\r\n        uint160 expiresAt = createdAt + duration;\r\n\r\n        borrowingOffers[offerId] = OfferLibrary.BorrowingOffer(\r\n            offerId,\r\n            principalType,\r\n            collateralType,\r\n            collateral, // currentCollateral\r\n            collateral, // initialCollateral\r\n            principalNeeded, // currentPrincipal\r\n            principalNeeded, // initialPrincipal\r\n            interest,\r\n            daysToMaturity,\r\n            expiresAt,\r\n            createdAt,\r\n            borrower\r\n        );\r\n\r\n        emit BorrowingOfferCreated(\r\n            offerId,\r\n            principalType,\r\n            collateralType,\r\n            collateral, // currentCollateral\r\n            collateral, // initialCollateral\r\n            interest,\r\n            daysToMaturity,\r\n            expiresAt,\r\n            createdAt,\r\n            borrower\r\n        );\r\n\r\n        return offerId;\r\n    }\r\n\r\n    function withdrawLendingOffer(\r\n        uint256 offerId,\r\n        address lender,\r\n        uint256 amount\r\n    ) public onlyLendingPool returns (bool) {\r\n        require(lender == lendingOffers[offerId].lender);\r\n        require(lendingOffers[offerId].currentPrincipal <= amount);\r\n        lendingOffers[offerId].currentPrincipal -= amount;\r\n\r\n        if (lendingOffers[offerId].currentPrincipal == 0) {\r\n            delete lendingOffers[offerId];\r\n            emit OfferClosed(offerId, OfferLibrary.Type.LENDING_OFFER);\r\n        }\r\n\r\n        return true;\r\n    }\r\n\r\n    function closeLendingRequest(uint256 requestId) public {}\r\n\r\n    function getLendingOffer(uint256 offerId)\r\n        public\r\n        view\r\n        override\r\n        returns (OfferLibrary.LendingOffer memory)\r\n    {\r\n        return lendingOffers[offerId];\r\n    }\r\n\r\n    function getBorrowingOffer(uint256 offerId)\r\n        public\r\n        view\r\n        override\r\n        returns (OfferLibrary.BorrowingOffer memory)\r\n    {\r\n        return borrowingOffers[offerId];\r\n    }\r\n\r\n    function getBorrowingRequest(uint256 requestId)\r\n        public\r\n        view\r\n        override\r\n        returns (RequestLibrary.BorrowingRequest memory)\r\n    {\r\n        return borrowingRequests[requestId];\r\n    }\r\n\r\n    function getLendingRequest(uint256 requestId)\r\n        public\r\n        view\r\n        override\r\n        returns (RequestLibrary.LendingRequest memory)\r\n    {\r\n        return lendingRequests[requestId];\r\n    }\r\n\r\n    function setLendingPool(address address_) public onlyOwner {\r\n        lendingPool = address_;\r\n    }\r\n\r\n    modifier onlyLendingPool() {\r\n        require(msg.sender == lendingPool);\r\n        _;\r\n    }\r\n}\r\n",
  "sourcePath": "C:\\Users\\DELL\\Documents\\darsh\\smart-contracts\\contracts\\managers\\OfferManager.sol",
  "compiler": {
    "name": "solc",
    "version": "0.8.17+commit.8df45f5f.Emscripten.clang"
  },
  "schemaVersion": "3.4.11",
  "updatedAt": "2023-02-11T16:42:48.085Z",
  "devdoc": {
    "kind": "dev",
    "methods": {
      "acceptOwnership()": {
        "details": "The new owner accepts the ownership transfer."
      },
      "owner()": {
        "details": "Returns the address of the current owner."
      },
      "pendingOwner()": {
        "details": "Returns the address of the pending owner."
      },
      "renounceOwnership()": {
        "details": "Leaves the contract without owner. It will not be possible to call `onlyOwner` functions anymore. Can only be called by the current owner. NOTE: Renouncing ownership will leave the contract without an owner, thereby removing any functionality that is only available to the owner."
      },
      "transferOwnership(address)": {
        "details": "Starts the ownership transfer of the contract to a new account. Replaces the pending transfer if there is one. Can only be called by the current owner."
      }
    },
    "version": 1
  },
  "userdoc": {
    "kind": "user",
    "methods": {},
    "version": 1
  }
}