{
  "contractName": "OfferManager",
  "abi": [
    {
      "inputs": [],
      "stateMutability": "nonpayable",
      "type": "constructor"
    },
    {
      "anonymous": false,
      "inputs": [
        {
          "indexed": false,
          "internalType": "uint160",
          "name": "offerId",
          "type": "uint160"
        },
        {
          "indexed": false,
          "internalType": "address",
          "name": "principalToken",
          "type": "address"
        },
        {
          "indexed": false,
          "internalType": "uint256",
          "name": "currentPrincipal",
          "type": "uint256"
        },
        {
          "indexed": false,
          "internalType": "uint256",
          "name": "initialPrincipal",
          "type": "uint256"
        },
        {
          "indexed": false,
          "internalType": "uint256",
          "name": "interest",
          "type": "uint256"
        },
        {
          "indexed": false,
          "internalType": "uint16",
          "name": "daysToMaturity",
          "type": "uint16"
        },
        {
          "indexed": false,
          "internalType": "uint160",
          "name": "expiresAt",
          "type": "uint160"
        },
        {
          "indexed": false,
          "internalType": "uint160",
          "name": "createdAt",
          "type": "uint160"
        },
        {
          "indexed": false,
          "internalType": "address",
          "name": "creator",
          "type": "address"
        },
        {
          "indexed": false,
          "internalType": "address[]",
          "name": "collateralTokens",
          "type": "address[]"
        },
        {
          "indexed": false,
          "internalType": "address",
          "name": "collateralToken",
          "type": "address"
        },
        {
          "indexed": false,
          "internalType": "uint256",
          "name": "currentCollateral",
          "type": "uint256"
        },
        {
          "indexed": false,
          "internalType": "uint256",
          "name": "initialCollateral",
          "type": "uint256"
        },
        {
          "indexed": false,
          "internalType": "enum OfferLibrary.Type",
          "name": "offerType",
          "type": "uint8"
        }
      ],
      "name": "OfferCreated",
      "type": "event"
    },
    {
      "anonymous": false,
      "inputs": [
        {
          "indexed": true,
          "internalType": "address",
          "name": "previousOwner",
          "type": "address"
        },
        {
          "indexed": true,
          "internalType": "address",
          "name": "newOwner",
          "type": "address"
        }
      ],
      "name": "OwnershipTransferStarted",
      "type": "event"
    },
    {
      "anonymous": false,
      "inputs": [
        {
          "indexed": true,
          "internalType": "address",
          "name": "previousOwner",
          "type": "address"
        },
        {
          "indexed": true,
          "internalType": "address",
          "name": "newOwner",
          "type": "address"
        }
      ],
      "name": "OwnershipTransferred",
      "type": "event"
    },
    {
      "anonymous": false,
      "inputs": [
        {
          "indexed": false,
          "internalType": "uint160",
          "name": "requestId",
          "type": "uint160"
        },
        {
          "indexed": false,
          "internalType": "uint16",
          "name": "percentage",
          "type": "uint16"
        },
        {
          "indexed": false,
          "internalType": "uint16",
          "name": "daysToMaturity",
          "type": "uint16"
        },
        {
          "indexed": false,
          "internalType": "uint160",
          "name": "expiresAt",
          "type": "uint160"
        },
        {
          "indexed": false,
          "internalType": "uint256",
          "name": "interest",
          "type": "uint256"
        },
        {
          "indexed": false,
          "internalType": "uint160",
          "name": "createdAt",
          "type": "uint160"
        },
        {
          "indexed": false,
          "internalType": "address",
          "name": "creator",
          "type": "address"
        },
        {
          "indexed": false,
          "internalType": "uint160",
          "name": "offerId",
          "type": "uint160"
        },
        {
          "indexed": false,
          "internalType": "address",
          "name": "collateralToken",
          "type": "address"
        },
        {
          "indexed": false,
          "internalType": "uint256",
          "name": "collateralAmount",
          "type": "uint256"
        },
        {
          "indexed": false,
          "internalType": "uint256",
          "name": "collateralPriceInUSD",
          "type": "uint256"
        },
        {
          "indexed": false,
          "internalType": "uint160",
          "name": "ltvUsed",
          "type": "uint160"
        },
        {
          "indexed": false,
          "internalType": "enum RequestLibrary.Type",
          "name": "requestType",
          "type": "uint8"
        }
      ],
      "name": "RequestCreated",
      "type": "event"
    },
    {
      "inputs": [],
      "name": "acceptOwnership",
      "outputs": [],
      "stateMutability": "nonpayable",
      "type": "function"
    },
    {
      "inputs": [
        {
          "internalType": "uint256",
          "name": "",
          "type": "uint256"
        }
      ],
      "name": "offers",
      "outputs": [
        {
          "internalType": "uint160",
          "name": "offerId",
          "type": "uint160"
        },
        {
          "internalType": "address",
          "name": "principalToken",
          "type": "address"
        },
        {
          "internalType": "uint256",
          "name": "currentPrincipal",
          "type": "uint256"
        },
        {
          "internalType": "uint256",
          "name": "initialPrincipal",
          "type": "uint256"
        },
        {
          "internalType": "uint256",
          "name": "interest",
          "type": "uint256"
        },
        {
          "internalType": "uint16",
          "name": "daysToMaturity",
          "type": "uint16"
        },
        {
          "internalType": "uint160",
          "name": "expiresAt",
          "type": "uint160"
        },
        {
          "internalType": "uint160",
          "name": "createdAt",
          "type": "uint160"
        },
        {
          "internalType": "address",
          "name": "creator",
          "type": "address"
        },
        {
          "internalType": "address",
          "name": "collateralToken",
          "type": "address"
        },
        {
          "internalType": "uint256",
          "name": "currentCollateral",
          "type": "uint256"
        },
        {
          "internalType": "uint256",
          "name": "initialCollateral",
          "type": "uint256"
        },
        {
          "internalType": "enum OfferLibrary.Type",
          "name": "offerType",
          "type": "uint8"
        }
      ],
      "stateMutability": "view",
      "type": "function"
    },
    {
      "inputs": [],
      "name": "owner",
      "outputs": [
        {
          "internalType": "address",
          "name": "",
          "type": "address"
        }
      ],
      "stateMutability": "view",
      "type": "function"
    },
    {
      "inputs": [],
      "name": "pendingOwner",
      "outputs": [
        {
          "internalType": "address",
          "name": "",
          "type": "address"
        }
      ],
      "stateMutability": "view",
      "type": "function"
    },
    {
      "inputs": [],
      "name": "renounceOwnership",
      "outputs": [],
      "stateMutability": "nonpayable",
      "type": "function"
    },
    {
      "inputs": [
        {
          "internalType": "uint256",
          "name": "",
          "type": "uint256"
        }
      ],
      "name": "requests",
      "outputs": [
        {
          "internalType": "uint160",
          "name": "requestId",
          "type": "uint160"
        },
        {
          "internalType": "uint16",
          "name": "percentage",
          "type": "uint16"
        },
        {
          "internalType": "uint16",
          "name": "daysToMaturity",
          "type": "uint16"
        },
        {
          "internalType": "uint160",
          "name": "expiresAt",
          "type": "uint160"
        },
        {
          "internalType": "uint256",
          "name": "interest",
          "type": "uint256"
        },
        {
          "internalType": "uint160",
          "name": "createdAt",
          "type": "uint160"
        },
        {
          "internalType": "address",
          "name": "creator",
          "type": "address"
        },
        {
          "internalType": "uint160",
          "name": "offerId",
          "type": "uint160"
        },
        {
          "internalType": "address",
          "name": "collateralToken",
          "type": "address"
        },
        {
          "internalType": "uint256",
          "name": "collateralAmount",
          "type": "uint256"
        },
        {
          "internalType": "uint256",
          "name": "collateralPriceInUSD",
          "type": "uint256"
        },
        {
          "internalType": "uint160",
          "name": "ltvUsed",
          "type": "uint160"
        },
        {
          "internalType": "enum RequestLibrary.Type",
          "name": "requestType",
          "type": "uint8"
        }
      ],
      "stateMutability": "view",
      "type": "function"
    },
    {
      "inputs": [
        {
          "internalType": "address",
          "name": "newOwner",
          "type": "address"
        }
      ],
      "name": "transferOwnership",
      "outputs": [],
      "stateMutability": "nonpayable",
      "type": "function"
    },
    {
      "inputs": [
        {
          "internalType": "address",
          "name": "principalToken",
          "type": "address"
        },
        {
          "internalType": "uint256",
          "name": "principalAmount",
          "type": "uint256"
        },
        {
          "internalType": "uint256",
          "name": "interest",
          "type": "uint256"
        },
        {
          "internalType": "uint16",
          "name": "daysToMaturity",
          "type": "uint16"
        },
        {
          "internalType": "uint16",
          "name": "daysToExpire",
          "type": "uint16"
        },
        {
          "internalType": "address[]",
          "name": "collateralTokens",
          "type": "address[]"
        },
        {
          "internalType": "address",
          "name": "lender",
          "type": "address"
        }
      ],
      "name": "createLendingOffer",
      "outputs": [
        {
          "internalType": "uint160",
          "name": "",
          "type": "uint160"
        }
      ],
      "stateMutability": "nonpayable",
      "type": "function"
    },
    {
      "inputs": [
        {
          "internalType": "uint16",
          "name": "percentage",
          "type": "uint16"
        },
        {
          "internalType": "uint256",
          "name": "interest",
          "type": "uint256"
        },
        {
          "internalType": "uint16",
          "name": "daysToMaturity",
          "type": "uint16"
        },
        {
          "internalType": "uint16",
          "name": "hoursToExpire",
          "type": "uint16"
        },
        {
          "internalType": "address",
          "name": "lender",
          "type": "address"
        },
        {
          "internalType": "uint160",
          "name": "offerId",
          "type": "uint160"
        }
      ],
      "name": "createLendingRequest",
      "outputs": [
        {
          "internalType": "uint160",
          "name": "",
          "type": "uint160"
        }
      ],
      "stateMutability": "nonpayable",
      "type": "function"
    },
    {
      "inputs": [
        {
          "internalType": "address",
          "name": "principalToken",
          "type": "address"
        },
        {
          "internalType": "address",
          "name": "collateralToken",
          "type": "address"
        },
        {
          "internalType": "uint256",
          "name": "collateralAmount",
          "type": "uint256"
        },
        {
          "internalType": "uint256",
          "name": "principalAmount",
          "type": "uint256"
        },
        {
          "internalType": "uint256",
          "name": "interest",
          "type": "uint256"
        },
        {
          "internalType": "uint16",
          "name": "daysToMaturity",
          "type": "uint16"
        },
        {
          "internalType": "uint16",
          "name": "daysToExpire",
          "type": "uint16"
        },
        {
          "internalType": "address",
          "name": "borrower",
          "type": "address"
        }
      ],
      "name": "createBorrowingOffer",
      "outputs": [
        {
          "internalType": "uint160",
          "name": "",
          "type": "uint160"
        }
      ],
      "stateMutability": "nonpayable",
      "type": "function"
    },
    {
      "inputs": [
        {
          "internalType": "uint16",
          "name": "percentage",
          "type": "uint16"
        },
        {
          "internalType": "address",
          "name": "collateralToken",
          "type": "address"
        },
        {
          "internalType": "uint256",
          "name": "collateralAmount",
          "type": "uint256"
        },
        {
          "internalType": "uint256",
          "name": "collateralPriceInUSD",
          "type": "uint256"
        },
        {
          "internalType": "uint160",
          "name": "ltvUsed",
          "type": "uint160"
        },
        {
          "internalType": "uint256",
          "name": "interest",
          "type": "uint256"
        },
        {
          "internalType": "uint16",
          "name": "daysToMaturity",
          "type": "uint16"
        },
        {
          "internalType": "uint16",
          "name": "hoursToExpire",
          "type": "uint16"
        },
        {
          "internalType": "address",
          "name": "borrower",
          "type": "address"
        },
        {
          "internalType": "uint160",
          "name": "offerId",
          "type": "uint160"
        }
      ],
      "name": "createBorrowingRequest",
      "outputs": [
        {
          "internalType": "uint160",
          "name": "",
          "type": "uint160"
        }
      ],
      "stateMutability": "nonpayable",
      "type": "function"
    },
    {
      "inputs": [
        {
          "internalType": "uint160",
          "name": "offerId",
          "type": "uint160"
        },
        {
          "internalType": "uint256",
          "name": "principalAmount",
          "type": "uint256"
        }
      ],
      "name": "_afterOfferLendingLoan",
      "outputs": [],
      "stateMutability": "nonpayable",
      "type": "function"
    },
    {
      "inputs": [
        {
          "internalType": "uint160",
          "name": "offerId",
          "type": "uint160"
        },
        {
          "internalType": "uint256",
          "name": "principalAmount",
          "type": "uint256"
        },
        {
          "internalType": "uint256",
          "name": "collateralAmount",
          "type": "uint256"
        }
      ],
      "name": "_afterOfferBorrowingLoan",
      "outputs": [],
      "stateMutability": "nonpayable",
      "type": "function"
    },
    {
      "inputs": [
        {
          "internalType": "uint160",
          "name": "offerId",
          "type": "uint160"
        },
        {
          "internalType": "address",
          "name": "token",
          "type": "address"
        }
      ],
      "name": "isCollateralSupported",
      "outputs": [
        {
          "internalType": "bool",
          "name": "",
          "type": "bool"
        }
      ],
      "stateMutability": "view",
      "type": "function"
    },
    {
      "inputs": [
        {
          "internalType": "uint160",
          "name": "offerId",
          "type": "uint160"
        }
      ],
      "name": "getOffer",
      "outputs": [
        {
          "components": [
            {
              "internalType": "uint160",
              "name": "offerId",
              "type": "uint160"
            },
            {
              "internalType": "address",
              "name": "principalToken",
              "type": "address"
            },
            {
              "internalType": "uint256",
              "name": "currentPrincipal",
              "type": "uint256"
            },
            {
              "internalType": "uint256",
              "name": "initialPrincipal",
              "type": "uint256"
            },
            {
              "internalType": "uint256",
              "name": "interest",
              "type": "uint256"
            },
            {
              "internalType": "uint16",
              "name": "daysToMaturity",
              "type": "uint16"
            },
            {
              "internalType": "uint160",
              "name": "expiresAt",
              "type": "uint160"
            },
            {
              "internalType": "uint160",
              "name": "createdAt",
              "type": "uint160"
            },
            {
              "internalType": "address",
              "name": "creator",
              "type": "address"
            },
            {
              "internalType": "address[]",
              "name": "collateralTokens",
              "type": "address[]"
            },
            {
              "internalType": "address",
              "name": "collateralToken",
              "type": "address"
            },
            {
              "internalType": "uint256",
              "name": "currentCollateral",
              "type": "uint256"
            },
            {
              "internalType": "uint256",
              "name": "initialCollateral",
              "type": "uint256"
            },
            {
              "internalType": "enum OfferLibrary.Type",
              "name": "offerType",
              "type": "uint8"
            }
          ],
          "internalType": "struct OfferLibrary.Offer",
          "name": "",
          "type": "tuple"
        }
      ],
      "stateMutability": "view",
      "type": "function"
    },
    {
      "inputs": [
        {
          "internalType": "uint256",
          "name": "requestId",
          "type": "uint256"
        }
      ],
      "name": "getRequest",
      "outputs": [
        {
          "components": [
            {
              "internalType": "uint160",
              "name": "requestId",
              "type": "uint160"
            },
            {
              "internalType": "uint16",
              "name": "percentage",
              "type": "uint16"
            },
            {
              "internalType": "uint16",
              "name": "daysToMaturity",
              "type": "uint16"
            },
            {
              "internalType": "uint160",
              "name": "expiresAt",
              "type": "uint160"
            },
            {
              "internalType": "uint256",
              "name": "interest",
              "type": "uint256"
            },
            {
              "internalType": "uint160",
              "name": "createdAt",
              "type": "uint160"
            },
            {
              "internalType": "address",
              "name": "creator",
              "type": "address"
            },
            {
              "internalType": "uint160",
              "name": "offerId",
              "type": "uint160"
            },
            {
              "internalType": "address",
              "name": "collateralToken",
              "type": "address"
            },
            {
              "internalType": "uint256",
              "name": "collateralAmount",
              "type": "uint256"
            },
            {
              "internalType": "uint256",
              "name": "collateralPriceInUSD",
              "type": "uint256"
            },
            {
              "internalType": "uint160",
              "name": "ltvUsed",
              "type": "uint160"
            },
            {
              "internalType": "enum RequestLibrary.Type",
              "name": "requestType",
              "type": "uint8"
            }
          ],
          "internalType": "struct RequestLibrary.Request",
          "name": "",
          "type": "tuple"
        }
      ],
      "stateMutability": "view",
      "type": "function"
    },
    {
      "inputs": [
        {
          "internalType": "address",
          "name": "address_",
          "type": "address"
        }
      ],
      "name": "setLendingPool",
      "outputs": [],
      "stateMutability": "nonpayable",
      "type": "function"
    }
  ],
  "bytecode": "0x6080806040523461006357600180546001600160a01b03199081169091556000805433928116831782556001600160a01b0316907f8be0079c531659141344cd1fd0a4f28419497f9722a3daafe3b4186f6b6457e09080a3611c7c90816100698239f35b600080fdfe6080604052600436101561001257600080fd5b60003560e01c8063113aa8b1146116205780631eb5ab6d146114965780634e1df743146113a5578063670723fb1461115d578063715018a6146110f857806379ba50971461103557806381d12c5814610f9d5780638a72ea6a14610ece5780638da5cb5b14610ea557806390d870d214610bd257806399ee65e214610b21578063ab488b0b1461080a578063c44df34014610434578063c58343ef14610223578063d0dd830314610170578063e30c3978146101475763f2fde38b146100d757600080fd5b34610142576020366003190112610142576100f0611663565b6100f86117d8565b60018060a01b0380911690816001600160601b0360a01b6001541617600155600054167f38d16b8cac22d99fc7c124b9cd0de2d3fa1faef420bfe791d8c362d765e22700600080a3005b600080fd5b34610142576000366003190112610142576001546040516001600160a01b039091168152602090f35b3461014257604036600319011261014257610189611663565b6006546001600160a01b0391906024359083163303610142578261021b916102219484168060005260036020526101f96040600020936101d960ff600c870154166101d3816116a5565b15611b70565b6101e98460028701541015611bad565b600585015460101c164210611bf9565b60005260036020526102146002604060002001918254611c39565b9055611862565b90611985565b005b3461014257602036600319011261014257600061018060405161024581611799565b8281528260208201528260408201528260608201528260808201528260a08201528260c08201528260e082015282610100820152826101208201528261014082015282610160820152015260043560005260056020526101a0604060002060ff6009604051926102b484611799565b80546001600160a01b03808216865261ffff60a083811c8216602089015260b09390931c1660408701526001830154811660608701526002830154608087015260038301548116828701526004830154811660c08701526005830154811660e0870152600683015481166101008701526007830154610120870152600883015461014087015292909101549182166101608501526103569082901c83166116a5565b60a01c166101808201526101806040519160018060a01b03815116835261ffff602082015116602084015261ffff604082015116604084015260018060a01b0360608201511660608401526080810151608084015260018060a01b0360a08201511660a084015260018060a01b0360c08201511660c084015260018060a01b0360e08201511660e084015260018060a01b036101008201511661010084015261012081015161012084015261014081015161014084015260018060a01b0361016082015116610160840152015161042c816116a5565b610180820152f35b346101425760e03660031901126101425761044d611663565b6104556116e7565b6084359061ffff82168092036101425760a4359067ffffffffffffffff821161014257366023830112156101425781600401359167ffffffffffffffff83116107d4578260051b90604051936104ae60208401866117b6565b8452602460208501928201019036821161014257602401915b8183106107ea57505060c4359190506001600160a01b0382168203610142576006546001600160a01b031633036101425761ffff61052562ffffff6105156001600254019788600255611830565b16426001600160a01b0316611849565b91604051966105338861177c565b60018060a01b038716885260018060a01b03166020880152602435806040890152606088015260443560808801521660a086015260018060a01b031660c085015260018060a01b03421660e085015260018060a01b031661010084015261012083015260006101408301526000610160830152600061018083015260006101a083015280600052600360205260406000209160018060a01b038151166001600160601b0360a01b8454161783556001830160018060a01b036020830151166001600160601b0360a01b8254161790556040810151600284015560608101516003840155608081015160048401556005830161ffff60a08301511681549062010000600160b01b0360c085015160101b169169ffffffffffffffffffff60b01b16171790556006830160018060a01b0360e0830151166001600160601b0360a01b8254161790556007830160018060a01b03610100830151166001600160601b0360a01b82541617905561012081015180519067ffffffffffffffff82116107d457600160401b82116107d45760088501548260088701558083106107a7575b5060200160088501600052602060002060005b83811061078a57602086866101a0600c8b6009810160018060a01b03610140860151166001600160601b0360a01b825416179055610160840151600a820155610180840151600b8201550191015161073c816116a5565b610745816116a5565b60ff8019835416911617905580600052600382526107786107696040600020611862565b6001600160a01b038316611985565b6040516001600160a01b039091168152f35b82516001600160a01b0316818301556020909201916001016106e5565b600886016000526020600020908382015b81830181106107c85750506106d2565b600081556001016107b8565b634e487b7160e01b600052604160045260246000fd5b82356001600160a01b0381168103610142578152602092830192016104c7565b346101425760c0366003190112610142576108236116c5565b6044359061ffff821682036101425761083a6116e7565b9061084361168f565b60a435906001600160a01b0382168203610142576006546001600160a01b031633036101425760209461ffff61088681610515600160045401988960045561196e565b91816040519661089588611799565b60018060a01b0389168852168887015216604085015260018060a01b03166060840152602435608084015260018060a01b03421660a084015260018060a01b031660c083015260018060a01b031660e08201526000610100820152600061012082015260006101408201526000610160820152600061018082015281600052600583526009604060002060018060a01b0383511681549061ffff60a01b8786015160a01b169061ffff60b01b604087015160b01b169267ffffffffffffffff60c01b1617171781556001810160018060a01b03606085015116906001600160601b0360a01b9182825416179055608084015160028301556003820160018060a01b0360a086015116828254161790556004820160018060a01b0360c086015116828254161790556005820160018060a01b0360e08601511682825416179055600682019060018060a01b03610100860151169082541617905561012083015160078201556101408301516008820155019060018060a01b03610160820151166101808354920151610a25816116a5565b610a2e816116a5565b60ff60a01b9060a01b16916affffffffffffffffffffff60a81b16171790558060005260058252610778604060002060ff600960405192610a6e84611799565b80546001600160a01b03808216865261ffff60a083811c82168b89015260b09390931c1660408701526001830154811660608701526002830154608087015260038301548116828701526004830154811660c08701526005830154811660e0870152600683015481166101008701526007830154610120870152600883015461014087015292909101549182166101608501521c16610b0c816116a5565b6101808201526001600160a01b038316611acf565b3461014257604036600319011261014257610b3a611663565b610b42611679565b9060018060a01b0380911660005260209060038252610b646040600020611862565b61012001928116906000805b85518051821015610bc657838686928460051b0101511614610bb3576000198114610b9d57600101610b70565b634e487b7160e01b600052601160045260246000fd5b50505050905060015b6040519015158152f35b50509293505050610bbc565b346101425761010036600319011261014257610bec611663565b610bf4611679565b60a4359061ffff8216820361014257610c0b6116d6565b9160e4356001600160a01b0381168103610142576006546001600160a01b0316330361014257610c4f62ffffff61051561ffff600160025401978860025516611830565b6040519283602081011067ffffffffffffffff6020860111176107d45761ffff90602085016040526000855260405197610c888961177c565b6001600160a01b038881168a529081166020808b019182526064356040808d0182815260608e0192835260843560808f019081529690971660a08e0190815297851660c08e0190815242861660e08f019081529986166101008f019081526101208f019b8c529b86166101408f01526044356101608f018190526101808f015260016101a08f0181905260008e8152600395869052929092208e5181549088166001600160a01b0319918216178255955192810180549388169387169390931790925596516002820155905191810191909155925160048401559351600583018054945162010000600160b01b0360109190911b1661ffff9092166001600160b01b0319909516949094171790925592516006840180549183169184169190911790559351600783018054919095169116179092555180519193919067ffffffffffffffff82116107d457600160401b82116107d4576008850154826008870155808310610e78575b5060200160088501600052602060002060005b838110610e5b57602086866101a0600c8b6009810160018060a01b03610140860151166001600160601b0360a01b825416179055610160840151600a820155610180840151600b8201550191015161073c816116a5565b82516001600160a01b031681830155602090920191600101610e04565b600886016000526020600020908382015b8183018110610e99575050610df1565b60008155600101610e89565b34610142576000366003190112610142576000546040516001600160a01b039091168152602090f35b346101425760203660031901126101425760043560005260036020526101a0604060002060018060a01b0380825416918160018201541691600282015490600383015490600484015490600585015490806006870154169181600788015416938260098901541695600a8901549760ff600c600b8c01549b0154169a6040519c8d5260208d015260408c015260608b015260808a015261ffff811660a08a015260101c1660c088015260e087015261010086015261012085015261014084015261016083015261042c816116a5565b346101425760203660031901126101425760043560005260056020526040600020805461103160018060a01b0380600185015416906002850154948160038201541682600483015416836005840154168460068501541691600785015493600960088701549601549a8b986040519c8d9c8d8b60ff61ffff9460a01c169d169b838360b01c16938360a01c169216906116f8565b0390f35b34610142576000366003190112610142576001546001600160a01b0333818316036110a1576001600160601b0360a01b8092166001556000549133908316176000553391167f8be0079c531659141344cd1fd0a4f28419497f9722a3daafe3b4186f6b6457e0600080a3005b60405162461bcd60e51b815260206004820152602960248201527f4f776e61626c6532537465703a2063616c6c6572206973206e6f7420746865206044820152683732bb9037bbb732b960b91b6064820152608490fd5b34610142576000366003190112610142576111116117d8565b600180546001600160a01b0319908116909155600080549182168155906001600160a01b03167f8be0079c531659141344cd1fd0a4f28419497f9722a3daafe3b4186f6b6457e08280a3005b3461014257610140366003190112610142576111776116c5565b61117f611679565b61118761168f565b916111906116d6565b9260e4359261ffff8416840361014257610104356001600160a01b03811681036101425761012435906001600160a01b0382168203610142576006546001600160a01b031633036101425760209661ffff6111f8816105156001600454019a8b60045561196e565b9181604051986112078a611799565b60018060a01b038b168a52168a89015216604087015260018060a01b0316606086015260a435608086015260018060a01b03421660a086015260018060a01b031660c085015260018060a01b031660e084015260018060a01b031661010083015260443561012083015260643561014083015260018060a01b0316610160820152600161018082015281600052600583526009604060002060018060a01b0383511681549061ffff60a01b8786015160a01b169061ffff60b01b604087015160b01b169267ffffffffffffffff60c01b1617171781556001810160018060a01b03606085015116906001600160601b0360a01b9182825416179055608084015160028301556003820160018060a01b0360a086015116828254161790556004820160018060a01b0360c086015116828254161790556005820160018060a01b0360e08601511682825416179055600682019060018060a01b03610100860151169082541617905561012083015160078201556101408301516008820155019060018060a01b03610160820151166101808354920151610a25816116a5565b34610142576060366003190112610142576113be611663565b6006546001600160a01b03919060243590604435908416330361014257838316600052600360205260406000209061140060ff600c840154166101d3816116a5565b600282019081549061141485831015611bad565b600a8401928354908282106114515761144a61021b97610214956114456102219c60058b015460101c164210611bf9565b611c39565b9055611c39565b60405162461bcd60e51b815260206004820152601b60248201527f4552525f494e53554646494349454e545f434f4c4c41544552414c00000000006044820152606490fd5b3461014257602080600319360112610142576114b0611663565b906040516114bd8161177c565b60008152600082820152600060408201526000606082015260006080820152600060a0820152600060c0820152600060e08201526101009160008383015261012091606083820152610140926000848301526101606000818401526101809060008285015260006101a08095015260018060a01b03809816600052600385526115496040600020611862565b928860405198878a5281865116888b015281888701511660408b0152604086015160608b0152606086015160808b0152608086015160a08b015261ffff60a08701511660c08b01528160c08701511660e08b01528160e087015116818b01528501511681890152830151956101c09586828a01526101e089018851809152816102008b0199019160005b82811061160a575050505097879884015116818801528201518187015281015182860152015190611603826116a5565b8301520390f35b83518d168b5299810199928101926001016115d3565b3461014257602036600319011261014257611639611663565b6116416117d8565b600680546001600160a01b0319166001600160a01b0392909216919091179055005b600435906001600160a01b038216820361014257565b602435906001600160a01b038216820361014257565b608435906001600160a01b038216820361014257565b600211156116af57565b634e487b7160e01b600052602160045260246000fd5b6004359061ffff8216820361014257565b60c4359061ffff8216820361014257565b6064359061ffff8216820361014257565b6001600160a01b03918216815261ffff92831660208201529190921660408201529181166060830152608082019290925291811660a083015291821660c082015291811660e083015291821661010082015261012081019290925261014082019290925291166101608201526101a08101929190611775826116a5565b6101800152565b6101c0810190811067ffffffffffffffff8211176107d457604052565b6101a0810190811067ffffffffffffffff8211176107d457604052565b90601f8019910116810190811067ffffffffffffffff8211176107d457604052565b6000546001600160a01b031633036117ec57565b606460405162461bcd60e51b815260206004820152602060248201527f4f776e61626c653a2063616c6c6572206973206e6f7420746865206f776e65726044820152fd5b906201518062ffffff80931602918216918203610b9d57565b6001600160a01b039182169082160191908211610b9d57565b9060405161186f8161177c565b809260018060a01b0380825416835260018181840154166020908186015260028401546040860152600384015460608601526004840154608086015282600585015461ffff811660a088015260101c1660c08601528260068501541660e0860152826007850154166101008601526008840190604051928382845491828152019360005282600020926000905b8282106119575750505050509260ff928261191e600c946101a09703826117b6565b610120870152600982015416610140860152600a810154610160860152600b81015461018086015201541691611953836116a5565b0152565b8454881686529485019493830193908301906118fc565b90610e1061ffff80931602918216918203610b9d57565b60208201516040838101516060850151608086015160a087015160c088015160e08901516101008a01516101208b01516101408c01516101608d01516101808e01516101a0909e0151929e9d9a9c929b90996001600160a01b039283169993989183169794831696958316959092169361ffff16929091611a058d6116a5565b8d519d8e6101c0998a82019b60018060a01b031682526020820152015260608d015260808c015260a08b015260c08a015260e0890152610100880152610120870152875180915260206101e0870198019060005b818110611ab05750505061014085015261016084015261018083015291927fb51d58bd599eddf71b7afd55d9614d0bf550af3a25bcf14698c1750b3e82b01892829190611aa5816116a5565b6101a08301520390a1565b82516001600160a01b03168a526020998a019990920191600101611a59565b907f61af38f890745a3de581c28eff4a06b50c2e63b2896fd6362e742976906bdda091611b6b61ffff9283602082015116936040820151169060018060a01b038060608301511660808301518260a0850151168360c0860151168460e08701511691856101008801511693610120880151956101806101408a0151986101608b01511699015199611b5f8b6116a5565b6040519d8e9d8e6116f8565b0390a1565b15611b7757565b60405162461bcd60e51b815260206004820152600e60248201526d4552525f4f464645525f5459504560901b6044820152606490fd5b15611bb457565b60405162461bcd60e51b815260206004820152601a60248201527f4552525f494e53554646494349454e545f5052494e434950414c0000000000006044820152606490fd5b15611c0057565b60405162461bcd60e51b815260206004820152601160248201527011549497d3d191915497d1561412549151607a1b6044820152606490fd5b91908203918211610b9d5756fea2646970667358221220f41c4033ff3b31ddb0ef3511d10ae32887acd0f345f1ceff476793196208541164736f6c63430008110033",
  "immutableReferences": {},
  "source": "// SPDX-License-Identifier: GPL-3.0\r\npragma solidity >=0.7.0 <0.9.0;\r\n\r\nimport \"../libraries/PoolLibrary.sol\";\r\nimport \"../libraries/OfferLibrary.sol\";\r\nimport \"../libraries/RequestLibrary.sol\";\r\n\r\nimport \"../interfaces/IOfferManager.sol\";\r\n\r\nimport \"@openzeppelin/contracts/access/Ownable2Step.sol\";\r\nimport \"@openzeppelin/contracts/utils/Counters.sol\";\r\n\r\ncontract OfferManager is IOfferManager, Ownable2Step {\r\n    using Counters for Counters.Counter;\r\n\r\n    // offers\r\n    Counters.Counter private offerIdTracker;\r\n    mapping(uint256 => OfferLibrary.Offer) public offers;\r\n\r\n    // request\r\n    Counters.Counter private requestIdTracker;\r\n    mapping(uint256 => RequestLibrary.Request) public requests;\r\n\r\n    address lendingPool;\r\n\r\n    constructor() Ownable2Step() {}\r\n\r\n    // events for offers\r\n    event OfferCreated(\r\n        uint160 offerId,\r\n        address principalToken,\r\n        uint256 currentPrincipal,\r\n        uint256 initialPrincipal,\r\n        uint256 interest,\r\n        uint16 daysToMaturity,\r\n        uint160 expiresAt,\r\n        uint160 createdAt,\r\n        address creator,\r\n        address[] collateralTokens,\r\n        address collateralToken,\r\n        uint256 currentCollateral,\r\n        uint256 initialCollateral,\r\n        OfferLibrary.Type offerType\r\n    );\r\n\r\n    // events for requests\r\n    event RequestCreated(\r\n        uint160 requestId,\r\n        uint16 percentage,\r\n        uint16 daysToMaturity,\r\n        uint160 expiresAt,\r\n        uint256 interest,\r\n        uint160 createdAt,\r\n        address creator,\r\n        uint160 offerId,\r\n        address collateralToken,\r\n        uint256 collateralAmount,\r\n        uint256 collateralPriceInUSD,\r\n        uint160 ltvUsed,\r\n        RequestLibrary.Type requestType\r\n    );\r\n\r\n    function createLendingOffer(\r\n        address principalToken,\r\n        uint256 principalAmount,\r\n        uint256 interest,\r\n        uint16 daysToMaturity,\r\n        uint16 daysToExpire,\r\n        address[] memory collateralTokens,\r\n        address lender\r\n    ) public onlyLendingPool returns (uint160) {\r\n        offerIdTracker.increment();\r\n        uint256 offerId = offerIdTracker.current();\r\n\r\n        uint160 createdAt = uint160(block.timestamp);\r\n        uint160 duration = uint160((daysToExpire * 1 days));\r\n        uint160 expiresAt = createdAt + duration;\r\n\r\n        offers[offerId] = OfferLibrary.Offer(\r\n            // shared\r\n            uint160(offerId),\r\n            principalToken,\r\n            principalAmount, // currentPrincipal\r\n            principalAmount, // initialPrincipal\r\n            interest,\r\n            daysToMaturity,\r\n            expiresAt,\r\n            createdAt,\r\n            lender,\r\n            // related to lending offers only\r\n            collateralTokens,\r\n            // related to borrowing offers only\r\n            address(0),\r\n            0,\r\n            0,\r\n            // type\r\n            OfferLibrary.Type.LENDING_OFFER\r\n        );\r\n\r\n        _emitOffer(uint160(offerId), offers[offerId]);\r\n        return uint160(offerId);\r\n    }\r\n\r\n    function createLendingRequest(\r\n        uint16 percentage,\r\n        uint256 interest,\r\n        uint16 daysToMaturity,\r\n        uint16 hoursToExpire,\r\n        address lender,\r\n        uint160 offerId\r\n    ) public onlyLendingPool returns (uint160) {\r\n        requestIdTracker.increment();\r\n        uint256 requestId = requestIdTracker.current();\r\n\r\n        uint160 createdAt = uint160(block.timestamp);\r\n        uint160 duration = uint160((hoursToExpire * 1 hours));\r\n        uint160 expiresAt = createdAt + duration;\r\n\r\n        requests[requestId] = RequestLibrary.Request(\r\n            // shared\r\n            uint160(requestId),\r\n            percentage,\r\n            daysToMaturity,\r\n            expiresAt,\r\n            interest,\r\n            createdAt,\r\n            lender,\r\n            offerId,\r\n            // related to borrowing request only\r\n            address(0),\r\n            0,\r\n            0,\r\n            0,\r\n            // type\r\n            RequestLibrary.Type.LENDING_REQUEST\r\n        );\r\n\r\n        _emitRequest(uint160(requestId), requests[requestId]);\r\n        return uint160(requestId);\r\n    }\r\n\r\n    function createBorrowingOffer(\r\n        address principalToken,\r\n        address collateralToken,\r\n        uint256 collateralAmount,\r\n        uint256 principalAmount,\r\n        uint256 interest,\r\n        uint16 daysToMaturity,\r\n        uint16 daysToExpire,\r\n        address borrower\r\n    ) public onlyLendingPool returns (uint160) {\r\n        offerIdTracker.increment();\r\n        uint256 offerId = offerIdTracker.current();\r\n\r\n        uint160 createdAt = uint160(block.timestamp);\r\n        uint160 duration = uint160((daysToExpire * 1 days));\r\n        uint160 expiresAt = createdAt + duration;\r\n\r\n        offers[offerId] = OfferLibrary.Offer(\r\n            uint160(offerId),\r\n            principalToken,\r\n            principalAmount, // currentPrincipal\r\n            principalAmount, // initialPrincipal\r\n            interest,\r\n            daysToMaturity,\r\n            expiresAt,\r\n            createdAt,\r\n            borrower,\r\n            // related to lending offers only\r\n            new address[](0),\r\n            // related to borrowing offers only\r\n            collateralToken,\r\n            collateralAmount, // currentCollateral\r\n            collateralAmount, //  initialCollateral\r\n            // type\r\n            OfferLibrary.Type.BORROWING_OFFER\r\n        );\r\n\r\n        _emitOffer(uint160(offerId), offers[offerId]);\r\n        return uint160(offerId);\r\n    }\r\n\r\n    function createBorrowingRequest(\r\n        uint16 percentage,\r\n        address collateralToken,\r\n        uint256 collateralAmount,\r\n        uint256 collateralPriceInUSD,\r\n        uint160 ltvUsed,\r\n        uint256 interest,\r\n        uint16 daysToMaturity,\r\n        uint16 hoursToExpire,\r\n        address borrower,\r\n        uint160 offerId\r\n    ) public onlyLendingPool returns (uint160) {\r\n        requestIdTracker.increment();\r\n        uint256 requestId = requestIdTracker.current();\r\n\r\n        uint160 createdAt = uint160(block.timestamp);\r\n        uint160 duration = uint160((hoursToExpire * 1 hours));\r\n        uint160 expiresAt = createdAt + duration;\r\n\r\n        requests[requestId] = RequestLibrary.Request(\r\n            // shared\r\n            uint160(requestId),\r\n            percentage,\r\n            daysToMaturity,\r\n            expiresAt,\r\n            interest,\r\n            createdAt,\r\n            borrower,\r\n            offerId,\r\n            // related to borrowing request only\r\n            collateralToken,\r\n            collateralAmount,\r\n            collateralPriceInUSD,\r\n            ltvUsed,\r\n            RequestLibrary.Type.BORROWING_REQUEST\r\n        );\r\n\r\n        _emitRequest(uint160(requestId), requests[requestId]);\r\n        return uint160(requestId);\r\n    }\r\n\r\n    // events\r\n    function _emitOffer(uint160 offerId, OfferLibrary.Offer memory offer)\r\n        private\r\n    {\r\n        emit OfferCreated(\r\n            offerId,\r\n            offer.principalToken,\r\n            offer.currentPrincipal,\r\n            offer.initialPrincipal,\r\n            offer.interest,\r\n            offer.daysToMaturity,\r\n            offer.expiresAt,\r\n            offer.createdAt,\r\n            offer.creator,\r\n            offer.collateralTokens,\r\n            offer.collateralToken,\r\n            offer.currentCollateral,\r\n            offer.initialCollateral,\r\n            offer.offerType\r\n        );\r\n    }\r\n\r\n    function _emitRequest(\r\n        uint160 requestId,\r\n        RequestLibrary.Request memory request\r\n    ) private {\r\n        emit RequestCreated(\r\n            requestId,\r\n            request.percentage,\r\n            request.daysToMaturity,\r\n            request.expiresAt,\r\n            request.interest,\r\n            request.createdAt,\r\n            request.creator,\r\n            request.offerId,\r\n            request.collateralToken,\r\n            request.collateralAmount,\r\n            request.collateralPriceInUSD,\r\n            request.ltvUsed,\r\n            request.requestType\r\n        );\r\n    }\r\n\r\n    // updaters\r\n    function _afterOfferLendingLoan(uint160 offerId, uint256 principalAmount)\r\n        public\r\n        onlyLendingPool\r\n    {\r\n        OfferLibrary.Offer storage offer = offers[offerId];\r\n        require(\r\n            offer.offerType == OfferLibrary.Type.LENDING_OFFER,\r\n            \"ERR_OFFER_TYPE\"\r\n        );\r\n        require(\r\n            offer.currentPrincipal >= principalAmount,\r\n            \"ERR_INSUFFICIENT_PRINCIPAL\"\r\n        );\r\n        require(offer.expiresAt > block.timestamp, \"ERR_OFFER_EXPIRED\");\r\n\r\n        offers[offerId].currentPrincipal -= principalAmount;\r\n\r\n        _emitOffer(offerId, offer);\r\n    }\r\n\r\n    function _afterOfferBorrowingLoan(\r\n        uint160 offerId,\r\n        uint256 principalAmount,\r\n        uint256 collateralAmount\r\n    ) public onlyLendingPool {\r\n        OfferLibrary.Offer storage offer = offers[offerId];\r\n        require(\r\n            offer.offerType == OfferLibrary.Type.LENDING_OFFER,\r\n            \"ERR_OFFER_TYPE\"\r\n        );\r\n        require(\r\n            offer.currentPrincipal >= principalAmount,\r\n            \"ERR_INSUFFICIENT_PRINCIPAL\"\r\n        );\r\n        require(\r\n            offer.currentCollateral >= collateralAmount,\r\n            \"ERR_INSUFFICIENT_COLLATERAL\"\r\n        );\r\n        require(offer.expiresAt > block.timestamp, \"ERR_OFFER_EXPIRED\");\r\n\r\n        offer.currentPrincipal -= principalAmount;\r\n        offer.currentCollateral -= collateralAmount;\r\n\r\n        _emitOffer(offerId, offer);\r\n    }\r\n\r\n    function isCollateralSupported(uint160 offerId, address token)\r\n        public\r\n        view\r\n        returns (bool)\r\n    {\r\n        OfferLibrary.Offer memory offer = offers[offerId];\r\n        bool supported = false;\r\n        for (\r\n            uint256 index = 0;\r\n            index < offer.collateralTokens.length;\r\n            index++\r\n        ) {\r\n            if (offer.collateralTokens[index] == token) {\r\n                supported = true;\r\n                break;\r\n            }\r\n        }\r\n        return supported;\r\n    }\r\n\r\n    // getters\r\n    function getOffer(uint160 offerId)\r\n        public\r\n        view\r\n        override\r\n        returns (OfferLibrary.Offer memory)\r\n    {\r\n        return offers[offerId];\r\n    }\r\n\r\n    function getRequest(uint256 requestId)\r\n        public\r\n        view\r\n        override\r\n        returns (RequestLibrary.Request memory)\r\n    {\r\n        return requests[requestId];\r\n    }\r\n\r\n    function setLendingPool(address address_) public onlyOwner {\r\n        lendingPool = address_;\r\n    }\r\n\r\n    modifier onlyLendingPool() {\r\n        require(msg.sender == lendingPool);\r\n        _;\r\n    }\r\n}\r\n",
  "sourcePath": "C:\\Users\\DELL\\Documents\\darsh\\smart-contracts\\contracts\\managers\\OfferManager.sol",
  "compiler": {
    "name": "solc",
    "version": "0.8.17+commit.8df45f5f.Emscripten.clang"
  },
  "schemaVersion": "3.4.11",
  "updatedAt": "2023-02-15T20:11:12.236Z",
  "devdoc": {
    "kind": "dev",
    "methods": {
      "acceptOwnership()": {
        "details": "The new owner accepts the ownership transfer."
      },
      "owner()": {
        "details": "Returns the address of the current owner."
      },
      "pendingOwner()": {
        "details": "Returns the address of the pending owner."
      },
      "renounceOwnership()": {
        "details": "Leaves the contract without owner. It will not be possible to call `onlyOwner` functions anymore. Can only be called by the current owner. NOTE: Renouncing ownership will leave the contract without an owner, thereby removing any functionality that is only available to the owner."
      },
      "transferOwnership(address)": {
        "details": "Starts the ownership transfer of the contract to a new account. Replaces the pending transfer if there is one. Can only be called by the current owner."
      }
    },
    "version": 1
  },
  "userdoc": {
    "kind": "user",
    "methods": {},
    "version": 1
  }
}