{
  "contractName": "OfferManager",
  "abi": [
    {
      "inputs": [],
      "stateMutability": "nonpayable",
      "type": "constructor"
    },
    {
      "anonymous": false,
      "inputs": [
        {
          "indexed": true,
          "internalType": "address",
          "name": "previousOwner",
          "type": "address"
        },
        {
          "indexed": true,
          "internalType": "address",
          "name": "newOwner",
          "type": "address"
        }
      ],
      "name": "OwnershipTransferStarted",
      "type": "event"
    },
    {
      "anonymous": false,
      "inputs": [
        {
          "indexed": true,
          "internalType": "address",
          "name": "previousOwner",
          "type": "address"
        },
        {
          "indexed": true,
          "internalType": "address",
          "name": "newOwner",
          "type": "address"
        }
      ],
      "name": "OwnershipTransferred",
      "type": "event"
    },
    {
      "inputs": [],
      "name": "ONE_DAY",
      "outputs": [
        {
          "internalType": "uint256",
          "name": "",
          "type": "uint256"
        }
      ],
      "stateMutability": "view",
      "type": "function"
    },
    {
      "inputs": [],
      "name": "ONE_HOUR",
      "outputs": [
        {
          "internalType": "uint256",
          "name": "",
          "type": "uint256"
        }
      ],
      "stateMutability": "view",
      "type": "function"
    },
    {
      "inputs": [],
      "name": "acceptOwnership",
      "outputs": [],
      "stateMutability": "nonpayable",
      "type": "function"
    },
    {
      "inputs": [
        {
          "internalType": "uint256",
          "name": "",
          "type": "uint256"
        }
      ],
      "name": "offers",
      "outputs": [
        {
          "internalType": "uint256",
          "name": "offerId",
          "type": "uint256"
        },
        {
          "internalType": "address",
          "name": "principalToken",
          "type": "address"
        },
        {
          "internalType": "uint256",
          "name": "currentPrincipal",
          "type": "uint256"
        },
        {
          "internalType": "uint256",
          "name": "initialPrincipal",
          "type": "uint256"
        },
        {
          "internalType": "uint256",
          "name": "interest",
          "type": "uint256"
        },
        {
          "internalType": "uint16",
          "name": "daysToMaturity",
          "type": "uint16"
        },
        {
          "internalType": "uint256",
          "name": "expiresAt",
          "type": "uint256"
        },
        {
          "internalType": "uint256",
          "name": "createdAt",
          "type": "uint256"
        },
        {
          "internalType": "address",
          "name": "creator",
          "type": "address"
        },
        {
          "internalType": "address",
          "name": "collateralToken",
          "type": "address"
        },
        {
          "internalType": "uint256",
          "name": "currentCollateral",
          "type": "uint256"
        },
        {
          "internalType": "uint256",
          "name": "initialCollateral",
          "type": "uint256"
        },
        {
          "internalType": "enum OfferLibrary.Type",
          "name": "offerType",
          "type": "uint8"
        }
      ],
      "stateMutability": "view",
      "type": "function"
    },
    {
      "inputs": [],
      "name": "owner",
      "outputs": [
        {
          "internalType": "address",
          "name": "",
          "type": "address"
        }
      ],
      "stateMutability": "view",
      "type": "function"
    },
    {
      "inputs": [],
      "name": "pendingOwner",
      "outputs": [
        {
          "internalType": "address",
          "name": "",
          "type": "address"
        }
      ],
      "stateMutability": "view",
      "type": "function"
    },
    {
      "inputs": [],
      "name": "renounceOwnership",
      "outputs": [],
      "stateMutability": "nonpayable",
      "type": "function"
    },
    {
      "inputs": [
        {
          "internalType": "uint256",
          "name": "",
          "type": "uint256"
        }
      ],
      "name": "requests",
      "outputs": [
        {
          "internalType": "uint256",
          "name": "requestId",
          "type": "uint256"
        },
        {
          "internalType": "uint16",
          "name": "percentage",
          "type": "uint16"
        },
        {
          "internalType": "uint16",
          "name": "daysToMaturity",
          "type": "uint16"
        },
        {
          "internalType": "uint256",
          "name": "interest",
          "type": "uint256"
        },
        {
          "internalType": "uint256",
          "name": "expiresAt",
          "type": "uint256"
        },
        {
          "internalType": "uint256",
          "name": "createdAt",
          "type": "uint256"
        },
        {
          "internalType": "address",
          "name": "creator",
          "type": "address"
        },
        {
          "internalType": "uint256",
          "name": "offerId",
          "type": "uint256"
        },
        {
          "internalType": "address",
          "name": "collateralToken",
          "type": "address"
        },
        {
          "internalType": "uint256",
          "name": "collateralAmount",
          "type": "uint256"
        },
        {
          "internalType": "uint256",
          "name": "collateralPriceInUSD",
          "type": "uint256"
        },
        {
          "internalType": "uint160",
          "name": "ltvUsed",
          "type": "uint160"
        },
        {
          "internalType": "enum RequestLibrary.Type",
          "name": "requestType",
          "type": "uint8"
        }
      ],
      "stateMutability": "view",
      "type": "function"
    },
    {
      "inputs": [
        {
          "internalType": "address",
          "name": "newOwner",
          "type": "address"
        }
      ],
      "name": "transferOwnership",
      "outputs": [],
      "stateMutability": "nonpayable",
      "type": "function"
    },
    {
      "inputs": [
        {
          "internalType": "address",
          "name": "principalToken",
          "type": "address"
        },
        {
          "internalType": "uint256",
          "name": "principalAmount",
          "type": "uint256"
        },
        {
          "internalType": "uint256",
          "name": "interest",
          "type": "uint256"
        },
        {
          "internalType": "uint16",
          "name": "daysToMaturity",
          "type": "uint16"
        },
        {
          "internalType": "uint16",
          "name": "daysToExpire",
          "type": "uint16"
        },
        {
          "internalType": "address[]",
          "name": "collateralTokens",
          "type": "address[]"
        },
        {
          "internalType": "address",
          "name": "lender",
          "type": "address"
        }
      ],
      "name": "createLendingOffer",
      "outputs": [
        {
          "internalType": "uint256",
          "name": "",
          "type": "uint256"
        }
      ],
      "stateMutability": "nonpayable",
      "type": "function"
    },
    {
      "inputs": [
        {
          "internalType": "uint256",
          "name": "offerId",
          "type": "uint256"
        },
        {
          "internalType": "uint16",
          "name": "toExpire",
          "type": "uint16"
        },
        {
          "internalType": "address",
          "name": "user",
          "type": "address"
        }
      ],
      "name": "reActivateOffer",
      "outputs": [],
      "stateMutability": "nonpayable",
      "type": "function"
    },
    {
      "inputs": [
        {
          "internalType": "uint16",
          "name": "percentage",
          "type": "uint16"
        },
        {
          "internalType": "uint256",
          "name": "interest",
          "type": "uint256"
        },
        {
          "internalType": "uint16",
          "name": "daysToMaturity",
          "type": "uint16"
        },
        {
          "internalType": "uint16",
          "name": "hoursToExpire",
          "type": "uint16"
        },
        {
          "internalType": "address",
          "name": "lender",
          "type": "address"
        },
        {
          "internalType": "uint256",
          "name": "offerId",
          "type": "uint256"
        }
      ],
      "name": "createLendingRequest",
      "outputs": [
        {
          "internalType": "uint256",
          "name": "",
          "type": "uint256"
        }
      ],
      "stateMutability": "nonpayable",
      "type": "function"
    },
    {
      "inputs": [
        {
          "internalType": "address",
          "name": "principalToken",
          "type": "address"
        },
        {
          "internalType": "address",
          "name": "collateralToken",
          "type": "address"
        },
        {
          "internalType": "uint256",
          "name": "collateralAmount",
          "type": "uint256"
        },
        {
          "internalType": "uint256",
          "name": "principalAmount",
          "type": "uint256"
        },
        {
          "internalType": "uint256",
          "name": "interest",
          "type": "uint256"
        },
        {
          "internalType": "uint16",
          "name": "daysToMaturity",
          "type": "uint16"
        },
        {
          "internalType": "uint16",
          "name": "hoursToExpire",
          "type": "uint16"
        },
        {
          "internalType": "address",
          "name": "borrower",
          "type": "address"
        }
      ],
      "name": "createBorrowingOffer",
      "outputs": [
        {
          "internalType": "uint256",
          "name": "",
          "type": "uint256"
        }
      ],
      "stateMutability": "nonpayable",
      "type": "function"
    },
    {
      "inputs": [
        {
          "internalType": "uint16",
          "name": "percentage",
          "type": "uint16"
        },
        {
          "internalType": "address",
          "name": "collateralToken",
          "type": "address"
        },
        {
          "internalType": "uint256",
          "name": "collateralAmount",
          "type": "uint256"
        },
        {
          "internalType": "uint256",
          "name": "collateralPriceInUSD",
          "type": "uint256"
        },
        {
          "internalType": "uint160",
          "name": "ltvUsed",
          "type": "uint160"
        },
        {
          "internalType": "uint256",
          "name": "interest",
          "type": "uint256"
        },
        {
          "internalType": "uint16",
          "name": "daysToMaturity",
          "type": "uint16"
        },
        {
          "internalType": "uint16",
          "name": "hoursToExpire",
          "type": "uint16"
        },
        {
          "internalType": "address",
          "name": "borrower",
          "type": "address"
        },
        {
          "internalType": "uint256",
          "name": "offerId",
          "type": "uint256"
        }
      ],
      "name": "createBorrowingRequest",
      "outputs": [
        {
          "internalType": "uint256",
          "name": "",
          "type": "uint256"
        }
      ],
      "stateMutability": "nonpayable",
      "type": "function"
    },
    {
      "inputs": [
        {
          "internalType": "uint256",
          "name": "offerId",
          "type": "uint256"
        },
        {
          "internalType": "uint256",
          "name": "principalAmount",
          "type": "uint256"
        }
      ],
      "name": "_afterOfferLendingLoan",
      "outputs": [],
      "stateMutability": "nonpayable",
      "type": "function"
    },
    {
      "inputs": [
        {
          "internalType": "uint256",
          "name": "offerId",
          "type": "uint256"
        },
        {
          "internalType": "uint256",
          "name": "principalAmount",
          "type": "uint256"
        },
        {
          "internalType": "uint256",
          "name": "collateralAmount",
          "type": "uint256"
        }
      ],
      "name": "_afterOfferBorrowingLoan",
      "outputs": [],
      "stateMutability": "nonpayable",
      "type": "function"
    },
    {
      "inputs": [
        {
          "internalType": "uint256",
          "name": "offerId",
          "type": "uint256"
        },
        {
          "internalType": "address",
          "name": "token",
          "type": "address"
        }
      ],
      "name": "isCollateralSupported",
      "outputs": [
        {
          "internalType": "bool",
          "name": "",
          "type": "bool"
        }
      ],
      "stateMutability": "view",
      "type": "function"
    },
    {
      "inputs": [
        {
          "internalType": "uint256",
          "name": "offerId",
          "type": "uint256"
        }
      ],
      "name": "getOffer",
      "outputs": [
        {
          "components": [
            {
              "internalType": "uint256",
              "name": "offerId",
              "type": "uint256"
            },
            {
              "internalType": "address",
              "name": "principalToken",
              "type": "address"
            },
            {
              "internalType": "uint256",
              "name": "currentPrincipal",
              "type": "uint256"
            },
            {
              "internalType": "uint256",
              "name": "initialPrincipal",
              "type": "uint256"
            },
            {
              "internalType": "uint256",
              "name": "interest",
              "type": "uint256"
            },
            {
              "internalType": "uint16",
              "name": "daysToMaturity",
              "type": "uint16"
            },
            {
              "internalType": "uint256",
              "name": "expiresAt",
              "type": "uint256"
            },
            {
              "internalType": "uint256",
              "name": "createdAt",
              "type": "uint256"
            },
            {
              "internalType": "address",
              "name": "creator",
              "type": "address"
            },
            {
              "internalType": "address[]",
              "name": "collateralTokens",
              "type": "address[]"
            },
            {
              "internalType": "address",
              "name": "collateralToken",
              "type": "address"
            },
            {
              "internalType": "uint256",
              "name": "currentCollateral",
              "type": "uint256"
            },
            {
              "internalType": "uint256",
              "name": "initialCollateral",
              "type": "uint256"
            },
            {
              "internalType": "enum OfferLibrary.Type",
              "name": "offerType",
              "type": "uint8"
            }
          ],
          "internalType": "struct OfferLibrary.Offer",
          "name": "",
          "type": "tuple"
        }
      ],
      "stateMutability": "view",
      "type": "function"
    },
    {
      "inputs": [
        {
          "internalType": "uint256",
          "name": "requestId",
          "type": "uint256"
        }
      ],
      "name": "getRequest",
      "outputs": [
        {
          "components": [
            {
              "internalType": "uint256",
              "name": "requestId",
              "type": "uint256"
            },
            {
              "internalType": "uint16",
              "name": "percentage",
              "type": "uint16"
            },
            {
              "internalType": "uint16",
              "name": "daysToMaturity",
              "type": "uint16"
            },
            {
              "internalType": "uint256",
              "name": "interest",
              "type": "uint256"
            },
            {
              "internalType": "uint256",
              "name": "expiresAt",
              "type": "uint256"
            },
            {
              "internalType": "uint256",
              "name": "createdAt",
              "type": "uint256"
            },
            {
              "internalType": "address",
              "name": "creator",
              "type": "address"
            },
            {
              "internalType": "uint256",
              "name": "offerId",
              "type": "uint256"
            },
            {
              "internalType": "address",
              "name": "collateralToken",
              "type": "address"
            },
            {
              "internalType": "uint256",
              "name": "collateralAmount",
              "type": "uint256"
            },
            {
              "internalType": "uint256",
              "name": "collateralPriceInUSD",
              "type": "uint256"
            },
            {
              "internalType": "uint160",
              "name": "ltvUsed",
              "type": "uint160"
            },
            {
              "internalType": "enum RequestLibrary.Type",
              "name": "requestType",
              "type": "uint8"
            }
          ],
          "internalType": "struct RequestLibrary.Request",
          "name": "",
          "type": "tuple"
        }
      ],
      "stateMutability": "view",
      "type": "function"
    },
    {
      "inputs": [
        {
          "internalType": "address",
          "name": "address_",
          "type": "address"
        }
      ],
      "name": "setLendingPool",
      "outputs": [],
      "stateMutability": "nonpayable",
      "type": "function"
    }
  ],
  "bytecode": "0x6080806040523461006357600180546001600160a01b03199081169091556000805433928116831782556001600160a01b0316907f8be0079c531659141344cd1fd0a4f28419497f9722a3daafe3b4186f6b6457e09080a3611d2c90816100698239f35b600080fdfe6080604052600436101561001257600080fd5b60003560e01c8063099bfe6b1461162c578063113aa8b1146115e9578063165035e2146115cc57806324b42bc1146114e857806339700629146114555780633bb1374b146111da5780634579268a1461105f578063715018a614610ffa57806379ba509714610f3757806381d12c5814610ea3578063863e76db14610e855780638a72ea6a14610dbb5780638da5cb5b14610d9257806390d870d214610ad0578063b438b890146107a6578063c44df34014610424578063c58343ef14610236578063e30c39781461020d578063f094cb95146101685763f2fde38b146100f857600080fd5b34610163576020366003190112610163576101116117be565b6101196118de565b60018060a01b0380911690816001600160601b0360a01b6001541617600155600054167f38d16b8cac22d99fc7c124b9cd0de2d3fa1faef420bfe791d8c362d765e22700600080a3005b600080fd5b346101635760403660031901126101635760065460243590600435906001600160a01b031633036101635761020561020b928260005260036020526040600020906101c360ff600d840154166101bd816117ea565b15611a46565b6101d38160028401541015611c9d565b6101e260068301544210611a83565b8360005260036020526101fe6002604060002001918254611ce9565b9055611936565b90611ac3565b005b34610163576000366003190112610163576001546040516001600160a01b039091168152602090f35b3461016357602036600319011261016357600061018060405161025881611882565b8281528260208201528260408201528260608201528260808201528260a08201528260c08201528260e082015282610100820152826101208201528261014082015282610160820152015260043560005260056020526101a0604060002060ff600a604051926102c784611882565b8054845261ffff6001820154818116602087015260101c1660408501526002810154606085015260038101546080850152600481015460a085015260018060a01b0360058201541660c0850152600681015460e085015260018060a01b0360078201541661010085015260088101546101208501526009810154610140850152015460018060a01b038116610160840152610366828260a01c166117ea565b60a01c16610180820152610180604051918051835261ffff602082015116602084015261ffff6040820151166040840152606081015160608401526080810151608084015260a081015160a084015260018060a01b0360c08201511660c084015260e081015160e084015260018060a01b036101008201511661010084015261012081015161012084015261014081015161014084015260018060a01b0361016082015116610160840152015161041c816117ea565b610180820152f35b346101635760e03660031901126101635761043d6117be565b6104456117ad565b6084359061ffff82168092036101635760a4359067ffffffffffffffff8211610163573660238301121561016357816004013567ffffffffffffffff811161075a57604051928160051b9161049d60208401866118bc565b8452602460208501928201019036821161016357602401915b81831061078657505060c4359190506001600160a01b0382168203610163576006546001600160a01b031633036101635760016002540193846002556201518090808202918204036107705761050f61ffff9142611a39565b916040519661051d8861189f565b60018060a01b038716885260018060a01b031660208801526024356040880152602435606088015260443560808801521660a086015260c08501524260e085015260018060a01b031661010084015261012083015260006101408301526000610160830152600061018083015260006101a08301528060005260036020526040600020918051835560018060a01b036020820151166001600160601b0360a01b6001850154161760018401556040810151600284015560608101516003840155608081015160048401556005830161ffff60a08301511661ffff1982541617905560c0810151600684015560e081015160078401556008830160018060a01b03610100830151166001600160601b0360a01b82541617905561012081015180519067ffffffffffffffff821161075a57600160401b821161075a57600985015482600987015580831061072d575b5060200160098501600052602060002060005b83811061071057602086866101a0600d8b600a810160018060a01b03610140860151166001600160601b0360a01b825416179055610160840151600b820155610180840151600c820155019101516106d5816117ea565b6106de816117ea565b60ff8019835416911617905580600052600382526107086107026040600020611936565b82611ac3565b604051908152f35b82516001600160a01b03168183015560209092019160010161067e565b600986016000526020600020908382015b818301811061074e57505061066b565b6000815560010161073e565b634e487b7160e01b600052604160045260246000fd5b634e487b7160e01b600052601160045260246000fd5b82356001600160a01b0381168103610163578152602092830192016104b6565b346101635760c0366003190112610163576107bf61178b565b6044359061ffff82168203610163576107d66117ad565b906084356001600160a01b0381168103610163576006546001600160a01b031633036101635761ffff60016004540193846004551693610e1094808602958604036107705761ffff61082a60209642611a39565b9160a435600052600387526108426040600020611936565b61086560016101a0830151610856816117ea565b61085f816117ea565b14611a46565b61016061018082015191015114610aae575b816040519561088587611882565b8787521687860152166040840152602435606084015260808301524260a083015260018060a01b031660c082015260a43560e0820152600061010082015260006101208201526000610140820152600061016082015260006101808201528160005260058352600a6040600020825181556001810161ffff868501511681549063ffff0000604087015160101b169163ffffffff191617179055606083015160028201556080830151600382015560a083015160048201556005810160018060a01b0360c085015116906001600160601b0360a01b918282541617905560e08401516006830155600782019060018060a01b03610100860151169082541617905561012083015160088201556101408301516009820155019060018060a01b036101608201511661018083549201516109bd816117ea565b6109c6816117ea565b60ff60a01b9060a01b16916affffffffffffffffffffff60a81b16171790558060005260058252610708604060002060ff600a60405192610a0684611882565b80548452600181015461ffff8181168987015260109190911c1660408501526002810154606085015260038101546080850152600481015460a08086019190915260058201546001600160a01b0390811660c0870152600683015460e0870152600783015481166101008701526008830154610120870152600983015461014087015292909101549182166101608501521c16610aa2816117ea565b61018082015282611bff565b60a43560005260038752610acb6006604060002001544210611a83565b610877565b346101635761010036600319011261016357610aea6117be565b610af26117d4565b60a4359061ffff8216820361016357610b0961179c565b9160e4356001600160a01b0381168103610163576006546001600160a01b031633036101635761ffff600160025401948560025516610e10908082029182040361077057610b579042611a39565b6040519283602081011067ffffffffffffffff60208601111761075a5761ffff90602085016040526000855260405197610b908961189f565b87895260018060a01b031660208901526064356040890152606435606089015260843560808901521660a087015260c08601524260e086015260018060a01b031661010085015261012084015260018060a01b031661014083015260443561016083015260443561018083015260016101a08301528060005260036020526040600020918051835560018060a01b036020820151166001600160601b0360a01b6001850154161760018401556040810151600284015560608101516003840155608081015160048401556005830161ffff60a08301511661ffff1982541617905560c0810151600684015560e081015160078401556008830160018060a01b03610100830151166001600160601b0360a01b82541617905561012081015180519067ffffffffffffffff821161075a57600160401b821161075a576009850154826009870155808310610d65575b5060200160098501600052602060002060005b838110610d4857602086866101a0600d8b600a810160018060a01b03610140860151166001600160601b0360a01b825416179055610160840151600b820155610180840151600c820155019101516106d5816117ea565b82516001600160a01b031681830155602090920191600101610cf1565b600986016000526020600020908382015b8183018110610d86575050610cde565b60008155600101610d76565b34610163576000366003190112610163576000546040516001600160a01b039091168152602090f35b346101635760203660031901126101635760043560005260036020526101a0604060002080549060018060a01b03908160018201541691600282015490600383015490600484015461ffff6005860154166006860154906007870154928460088901541694600a8901541695600b8901549760ff600d600c8c01549b0154169a6040519c8d5260208d015260408c015260608b015260808a015260a089015260c088015260e087015261010086015261012085015261014084015261016083015261041c816117ea565b34610163576000366003190112610163576020604051620151808152f35b346101635760203660031901126101635760043560005260056020526040600020805490610f33600182015460028301549060038401549360048101549460018060a01b0395866005840154166006840154908860078601541692600886015494600a6009880154970154988998604051809e819e60ff61ffff9d60a01c169d169b808460101c1693169161180a565b0390f35b34610163576000366003190112610163576001546001600160a01b033381831603610fa3576001600160601b0360a01b8092166001556000549133908316176000553391167f8be0079c531659141344cd1fd0a4f28419497f9722a3daafe3b4186f6b6457e0600080a3005b60405162461bcd60e51b815260206004820152602960248201527f4f776e61626c6532537465703a2063616c6c6572206973206e6f7420746865206044820152683732bb9037bbb732b960b91b6064820152608490fd5b34610163576000366003190112610163576110136118de565b600180546001600160a01b0319908116909155600080549182168155906001600160a01b03167f8be0079c531659141344cd1fd0a4f28419497f9722a3daafe3b4186f6b6457e08280a3005b34610163576020806003193601126101635760405161107d8161189f565b60008152600082820152600060408201526000606082015260006080820152600060a0820152600060c0820152600060e0820152610100916000838301526101206060818401526101409260008482015261016060008183015261018060008184015260006101a080940152600435600052600385526111006040600020611936565b91604051968688526101e08801958451888a015260018060a01b03809a818a8801511660408c0152604087015160608c0152606087015160808c0152608087015160a08c015261ffff60a08801511660c08c015260c087015160e08c015260e0870151818c015286015116818a0152840151966101c09687838b01528851809152816102008b0199019160005b8281106111c45750505050978798840151168188015282015181870152810151828601520151906111bd826117ea565b8301520390f35b83518d168b52998101999281019260010161118d565b3461016357610140366003190112610163576111f461178b565b6111fc6117d4565b90608435906001600160a01b03821682036101635761121961179c565b9160e4359361ffff851680950361016357610104356001600160a01b0381168103610163576006546001600160a01b03163303610163576001600454019485600455610e1096808802978804036107705761ffff61127960209842611a39565b9161012435600052600389526112926040600020611936565b6112ad6101a08201516112a4816117ea565b6101bd816117ea565b6101243560005260038a526112cb6006604060002001544210611a83565b61016061018082015191015114611432575b81604051976112eb89611882565b898952168988015216604086015260a435606086015260808501524260a085015260018060a01b031660c08401526101243560e084015260018060a01b031661010083015260443561012083015260643561014083015260018060a01b031661016082015260016101808201528160005260058352600a6040600020825181556001810161ffff868501511681549063ffff0000604087015160101b169163ffffffff191617179055606083015160028201556080830151600382015560a083015160048201556005810160018060a01b0360c085015116906001600160601b0360a01b918282541617905560e08401516006830155600782019060018060a01b03610100860151169082541617905561012083015160088201556101408301516009820155019060018060a01b036101608201511661018083549201516109bd816117ea565b61012435600052600389526114506006604060002001544210611a83565b6112dd565b346101635760403660031901126101635761146e6117d4565b6004356000526020600381526114876040600020611936565b61012001916001600160a01b03908116906000805b855180518210156114dc57838686928460051b01015116146114c95760001981146107705760010161149c565b50505050905060015b6040519015158152f35b505092935050506114d2565b34610163576060366003190112610163576006546044359060043590602435906001600160a01b0316330361016357816000526003602052604060002061153b600160ff600d8401541661085f816117ea565b600281019384549261154f81851015611c9d565b600b83019182548181106115875761020b976115806101fe946102059861157b60068a01544210611a83565b611ce9565b9055611ce9565b60405162461bcd60e51b815260206004820152601b60248201527f4552525f494e53554646494349454e545f434f4c4c41544552414c00000000006044820152606490fd5b34610163576000366003190112610163576020604051610e108152f35b34610163576020366003190112610163576116026117be565b61160a6118de565b600680546001600160a01b0319166001600160a01b0392909216919091179055005b34610163576060366003190112610163576004356024359061ffff8216809203610163576001600160a01b0390604435828116908190036101635782600654163303610163578160005260036020526116886040600020611936565b92610100840151160361175357610180820151610160830151036101635760c08201805142111561171c5760016002540190816002556101a08401516116cd816117ea565b6116d6816117ea565b61170157620151809480860295860403610770576116f861020b955b42611a39565b90528252611ac3565b610e109480860295860403610770576116f861020b956116f2565b60405162461bcd60e51b815260206004820152600f60248201526e11549497d393d517d1561412549151608a1b6044820152606490fd5b60405162461bcd60e51b815260206004820152601060248201526f22a9292fa7a7262cafa1a922a0aa27a960811b6044820152606490fd5b6004359061ffff8216820361016357565b60c4359061ffff8216820361016357565b6064359061ffff8216820361016357565b600435906001600160a01b038216820361016357565b602435906001600160a01b038216820361016357565b600211156117f457565b634e487b7160e01b600052602160045260246000fd5b999592916101809b9795929e9d9c989994919e6101a08c019f8c5261ffff80921660208d01521660408b015260608a0152608089015260a088015260018060a01b03958680931660c089015260e0880152166101008601526101208501526101408401521661016082015261187e836117ea565b0152565b6101a0810190811067ffffffffffffffff82111761075a57604052565b6101c0810190811067ffffffffffffffff82111761075a57604052565b90601f8019910116810190811067ffffffffffffffff82111761075a57604052565b6000546001600160a01b031633036118f257565b606460405162461bcd60e51b815260206004820152602060248201527f4f776e61626c653a2063616c6c6572206973206e6f7420746865206f776e65726044820152fd5b906040516119438161189f565b80928054825260018060a01b0360018181840154166020908186015260028401546040860152600384015460608601526004840154608086015261ffff60058501541660a0860152600684015460c0860152600784015460e0860152826008850154166101008601526009840190604051928382845491828152019360005282600020926000905b828210611a225750505050509260ff92826119ed600d946101a09703826118bc565b610120870152600a82015416610140860152600b810154610160860152600c8101546101808601520154169161187e836117ea565b8454881686529485019493830193908301906119cb565b9190820180921161077057565b15611a4d57565b60405162461bcd60e51b815260206004820152600e60248201526d4552525f4f464645525f5459504560901b6044820152606490fd5b15611a8a57565b60405162461bcd60e51b815260206004820152601160248201527011549497d3d191915497d1561412549151607a1b6044820152606490fd5b60208201516040838101516060850151608086015160a087015160c088015160e08901516101008a01516101208b01516101408c01516101608d01516101808e01516101a0909e0151929e9d9a9c929b90996001600160a01b039283169993989183169794909216959361ffff16929091611b3d8d6117ea565b8d519d8e6101c0998a82019b82526020820152015260608d015260808c015260a08b015260c08a015260e0890152610100880152610120870152875180915260206101e0870198019060005b818110611be05750505061014085015261016084015261018083015291927ff034007de2760441b9d7c8fcfc7f8c7d91a9a3f3a4fa6ecc07cb68977f182e8092829190611bd5816117ea565b6101a08301520390a1565b82516001600160a01b03168a526020998a019990920191600101611b89565b907f7b952b3dbb32373ea681e573bc0cbe5a16d8844124d9028d00f6ac466716a40791611c9861ffff92836020820151169360408201511690606081015160808201519060a08301519160018060a01b03928360c08601511660e086015191856101008801511693610120880151956101806101408a0151986101608b01511699015199611c8c8b6117ea565b6040519d8e9d8e61180a565b0390a1565b15611ca457565b60405162461bcd60e51b815260206004820152601a60248201527f4552525f494e53554646494349454e545f5052494e434950414c0000000000006044820152606490fd5b919082039182116107705756fea2646970667358221220f0040620eea9b90f005913870fb4733cef6ce8e0d79d46cd86e4f80ece064b5e64736f6c63430008110033",
  "immutableReferences": {},
  "source": "// SPDX-License-Identifier: GPL-3.0\r\npragma solidity >=0.7.0 <0.9.0;\r\n\r\nimport \"../libraries/PoolLibrary.sol\";\r\nimport \"../libraries/OfferLibrary.sol\";\r\nimport \"../libraries/RequestLibrary.sol\";\r\n\r\nimport \"../interfaces/IOfferManager.sol\";\r\n\r\nimport \"@openzeppelin/contracts/utils/math/SafeMath.sol\";\r\nimport \"@openzeppelin/contracts/access/Ownable2Step.sol\";\r\nimport \"@openzeppelin/contracts/utils/Counters.sol\";\r\n\r\n/*\r\n    The OfferManager contract is responsible for bookeeping\r\n    the offers and requests made.\r\n\r\n    It can be only modified by the LendingPool contract,\r\n    but can be read from external sources.\r\n\r\n    Any OfferManager contract must inherite the IOfferManager interface.\r\n*/\r\n\r\ncontract OfferManager is IOfferManager, Ownable2Step {\r\n    uint256 public constant ONE_DAY = 60 * 60 * 24;\r\n    uint256 public constant ONE_HOUR = 60 * 60;\r\n\r\n    using Counters for Counters.Counter;\r\n    using SafeMath for uint256;\r\n\r\n    // offers\r\n    Counters.Counter private offerIdTracker;\r\n    mapping(uint256 => OfferLibrary.Offer) public offers;\r\n\r\n    // request\r\n    Counters.Counter private requestIdTracker;\r\n    mapping(uint256 => RequestLibrary.Request) public requests;\r\n\r\n    address lendingPool;\r\n\r\n    constructor() Ownable2Step() {}\r\n\r\n    // creates a new lending offer\r\n    function createLendingOffer(\r\n        address principalToken,\r\n        uint256 principalAmount,\r\n        uint256 interest,\r\n        uint16 daysToMaturity,\r\n        uint16 daysToExpire,\r\n        address[] memory collateralTokens,\r\n        address lender\r\n    ) public onlyLendingPool returns (uint256) {\r\n        offerIdTracker.increment();\r\n        uint256 offerId = offerIdTracker.current();\r\n\r\n        uint256 createdAt = block.timestamp;\r\n        uint256 duration = ONE_DAY.mul(daysToExpire);\r\n        uint256 expiresAt = createdAt.add(duration);\r\n\r\n        offers[offerId] = OfferLibrary.Offer(\r\n            // shared\r\n            uint160(offerId),\r\n            principalToken,\r\n            principalAmount, // currentPrincipal\r\n            principalAmount, // initialPrincipal\r\n            interest,\r\n            daysToMaturity,\r\n            expiresAt,\r\n            createdAt,\r\n            lender,\r\n            // related to lending offers only\r\n            collateralTokens,\r\n            // related to borrowing offers only\r\n            address(0),\r\n            0,\r\n            0,\r\n            // type\r\n            OfferLibrary.Type.LENDING_OFFER\r\n        );\r\n\r\n        _emitOffer(offerId, offers[offerId]);\r\n        return offerId;\r\n    }\r\n\r\n    function reActivateOffer(uint256 offerId, uint16 toExpire, address user)\r\n        public\r\n        onlyLendingPool\r\n    {\r\n        OfferLibrary.Offer memory offer = offers[offerId];\r\n\r\n        require(offer.creator == user, \"ERR_ONLY_CREATOR\");\r\n        require(offer.initialCollateral == offer.currentCollateral);\r\n\r\n        uint256 createdAt = block.timestamp;\r\n        require(createdAt > offer.expiresAt, \"ERR_NOT_EXPIRED\");\r\n\r\n        offerIdTracker.increment();\r\n\r\n        uint256 duration;\r\n        if (offer.offerType == OfferLibrary.Type.LENDING_OFFER) {\r\n            duration = ONE_DAY.mul(toExpire);\r\n        } else {\r\n            duration = ONE_HOUR.mul(toExpire);\r\n        }\r\n\r\n        offer.expiresAt = createdAt + duration;\r\n        offer.offerId = offerIdTracker.current();\r\n\r\n        _emitOffer(offerId, offer);\r\n    }\r\n\r\n    // creates a new lending request\r\n    function createLendingRequest(\r\n        uint16 percentage,\r\n        uint256 interest,\r\n        uint16 daysToMaturity,\r\n        uint16 hoursToExpire,\r\n        address lender,\r\n        uint256 offerId\r\n    ) public onlyLendingPool returns (uint256) {\r\n        requestIdTracker.increment();\r\n        uint256 requestId = requestIdTracker.current();\r\n\r\n        uint256 createdAt = block.timestamp;\r\n        uint256 duration = ONE_HOUR.mul(hoursToExpire);\r\n        uint256 expiresAt = createdAt.add(duration);\r\n\r\n        OfferLibrary.Offer memory offer = offers[offerId];\r\n\r\n        require(\r\n            offer.offerType == OfferLibrary.Type.BORROWING_OFFER,\r\n            \"ERR_OFFER_TYPE\"\r\n        );\r\n        if (offer.initialCollateral == offer.currentCollateral) {\r\n            require(createdAt < offers[offerId].expiresAt, \"ERR_OFFER_EXPIRED\");\r\n        }\r\n\r\n        requests[requestId] = RequestLibrary.Request(\r\n            // shared\r\n            requestId,\r\n            percentage,\r\n            daysToMaturity,\r\n            interest,\r\n            expiresAt,\r\n            createdAt,\r\n            lender,\r\n            offerId,\r\n            // related to borrowing request only\r\n            address(0),\r\n            0,\r\n            0,\r\n            0,\r\n            // type\r\n            RequestLibrary.Type.LENDING_REQUEST\r\n        );\r\n\r\n        _emitRequest(requestId, requests[requestId]);\r\n        return requestId;\r\n    }\r\n\r\n    // creates a new borrowing offer\r\n    function createBorrowingOffer(\r\n        address principalToken,\r\n        address collateralToken,\r\n        uint256 collateralAmount,\r\n        uint256 principalAmount,\r\n        uint256 interest,\r\n        uint16 daysToMaturity,\r\n        uint16 hoursToExpire,\r\n        address borrower\r\n    ) public onlyLendingPool returns (uint256) {\r\n        offerIdTracker.increment();\r\n        uint256 offerId = offerIdTracker.current();\r\n\r\n        uint256 createdAt = block.timestamp;\r\n        uint256 duration = ONE_HOUR.mul(hoursToExpire);\r\n        uint256 expiresAt = createdAt.add(duration);\r\n\r\n        offers[offerId] = OfferLibrary.Offer(\r\n            offerId,\r\n            principalToken,\r\n            principalAmount, // currentPrincipal\r\n            principalAmount, // initialPrincipal\r\n            interest,\r\n            daysToMaturity,\r\n            expiresAt,\r\n            createdAt,\r\n            borrower,\r\n            // related to lending offers only\r\n            new address[](0),\r\n            // related to borrowing offers only\r\n            collateralToken,\r\n            collateralAmount, // currentCollateral\r\n            collateralAmount, //  initialCollateral\r\n            // type\r\n            OfferLibrary.Type.BORROWING_OFFER\r\n        );\r\n\r\n        _emitOffer(offerId, offers[offerId]);\r\n        return offerId;\r\n    }\r\n\r\n    // creates a new borrowing request\r\n    function createBorrowingRequest(\r\n        uint16 percentage,\r\n        address collateralToken,\r\n        uint256 collateralAmount,\r\n        uint256 collateralPriceInUSD,\r\n        uint160 ltvUsed,\r\n        uint256 interest,\r\n        uint16 daysToMaturity,\r\n        uint16 hoursToExpire,\r\n        address borrower,\r\n        uint256 offerId\r\n    ) public onlyLendingPool returns (uint256) {\r\n        requestIdTracker.increment();\r\n        uint256 requestId = requestIdTracker.current();\r\n\r\n        uint256 createdAt = block.timestamp;\r\n        uint256 duration = ONE_HOUR.mul(hoursToExpire);\r\n        uint256 expiresAt = createdAt.add(duration);\r\n\r\n        OfferLibrary.Offer memory offer = offers[offerId];\r\n\r\n        require(\r\n            offer.offerType == OfferLibrary.Type.LENDING_OFFER,\r\n            \"ERR_OFFER_TYPE\"\r\n        );\r\n        require(createdAt < offers[offerId].expiresAt, \"ERR_OFFER_EXPIRED\");\r\n        if (offer.initialCollateral == offer.currentCollateral) {\r\n            require(createdAt < offers[offerId].expiresAt, \"ERR_OFFER_EXPIRED\");\r\n        }\r\n\r\n        requests[requestId] = RequestLibrary.Request(\r\n            // shared\r\n            requestId,\r\n            percentage,\r\n            daysToMaturity,\r\n            interest,\r\n            expiresAt,\r\n            createdAt,\r\n            borrower,\r\n            offerId,\r\n            // related to borrowing request only\r\n            collateralToken,\r\n            collateralAmount,\r\n            collateralPriceInUSD,\r\n            ltvUsed,\r\n            RequestLibrary.Type.BORROWING_REQUEST\r\n        );\r\n\r\n        _emitRequest(requestId, requests[requestId]);\r\n        return requestId;\r\n    }\r\n\r\n    // events\r\n    function _emitOffer(uint256 offerId, OfferLibrary.Offer memory offer)\r\n        private\r\n    {\r\n        emit OfferLibrary.OfferCreated(\r\n            offerId,\r\n            offer.principalToken,\r\n            offer.currentPrincipal,\r\n            offer.initialPrincipal,\r\n            offer.interest,\r\n            offer.daysToMaturity,\r\n            offer.expiresAt,\r\n            offer.createdAt,\r\n            offer.creator,\r\n            offer.collateralTokens,\r\n            offer.collateralToken,\r\n            offer.currentCollateral,\r\n            offer.initialCollateral,\r\n            offer.offerType\r\n        );\r\n    }\r\n\r\n    function _emitRequest(\r\n        uint256 requestId,\r\n        RequestLibrary.Request memory request\r\n    ) private {\r\n        emit RequestLibrary.RequestCreated(\r\n            requestId,\r\n            request.percentage,\r\n            request.daysToMaturity,\r\n            request.interest,\r\n            request.expiresAt,\r\n            request.createdAt,\r\n            request.creator,\r\n            request.offerId,\r\n            request.collateralToken,\r\n            request.collateralAmount,\r\n            request.collateralPriceInUSD,\r\n            request.ltvUsed,\r\n            request.requestType\r\n        );\r\n    }\r\n\r\n    // called after a lending offer loan is executed\r\n    function _afterOfferLendingLoan(uint256 offerId, uint256 principalAmount)\r\n        public\r\n        onlyLendingPool\r\n    {\r\n        OfferLibrary.Offer storage offer = offers[offerId];\r\n        require(\r\n            offer.offerType == OfferLibrary.Type.LENDING_OFFER,\r\n            \"ERR_OFFER_TYPE\"\r\n        );\r\n        require(\r\n            offer.currentPrincipal >= principalAmount,\r\n            \"ERR_INSUFFICIENT_PRINCIPAL\"\r\n        );\r\n        require(offer.expiresAt > block.timestamp, \"ERR_OFFER_EXPIRED\");\r\n\r\n        offers[offerId].currentPrincipal -= principalAmount;\r\n\r\n        _emitOffer(offerId, offer);\r\n    }\r\n\r\n    // called after a borrowing offer loan is executed\r\n    function _afterOfferBorrowingLoan(\r\n        uint256 offerId,\r\n        uint256 principalAmount,\r\n        uint256 collateralAmount\r\n    ) public onlyLendingPool {\r\n        OfferLibrary.Offer storage offer = offers[offerId];\r\n        require(\r\n            offer.offerType == OfferLibrary.Type.BORROWING_OFFER,\r\n            \"ERR_OFFER_TYPE\"\r\n        );\r\n        require(\r\n            offer.currentPrincipal >= principalAmount,\r\n            \"ERR_INSUFFICIENT_PRINCIPAL\"\r\n        );\r\n        require(\r\n            offer.currentCollateral >= collateralAmount,\r\n            \"ERR_INSUFFICIENT_COLLATERAL\"\r\n        );\r\n        require(offer.expiresAt > block.timestamp, \"ERR_OFFER_EXPIRED\");\r\n\r\n        offer.currentPrincipal -= principalAmount;\r\n        offer.currentCollateral -= collateralAmount;\r\n\r\n        _emitOffer(offerId, offer);\r\n    }\r\n\r\n    // checks if a offer support collateral token\r\n    function isCollateralSupported(uint256 offerId, address token)\r\n        public\r\n        view\r\n        returns (bool)\r\n    {\r\n        OfferLibrary.Offer memory offer = offers[offerId];\r\n        bool supported = false;\r\n        for (\r\n            uint256 index = 0;\r\n            index < offer.collateralTokens.length;\r\n            index++\r\n        ) {\r\n            if (offer.collateralTokens[index] == token) {\r\n                supported = true;\r\n                break;\r\n            }\r\n        }\r\n        return supported;\r\n    }\r\n\r\n    // getters\r\n    function getOffer(uint256 offerId)\r\n        public\r\n        view\r\n        override\r\n        returns (OfferLibrary.Offer memory)\r\n    {\r\n        return offers[offerId];\r\n    }\r\n\r\n    function getRequest(uint256 requestId)\r\n        public\r\n        view\r\n        override\r\n        returns (RequestLibrary.Request memory)\r\n    {\r\n        return requests[requestId];\r\n    }\r\n\r\n    function setLendingPool(address address_) public onlyOwner {\r\n        lendingPool = address_;\r\n    }\r\n\r\n    modifier onlyLendingPool() {\r\n        require(msg.sender == lendingPool);\r\n        _;\r\n    }\r\n}\r\n",
  "sourcePath": "C:\\Users\\DELL\\Documents\\darsh\\smart-contracts\\contracts\\managers\\OfferManager.sol",
  "compiler": {
    "name": "solc",
    "version": "0.8.17+commit.8df45f5f.Emscripten.clang"
  },
  "schemaVersion": "3.4.11",
  "updatedAt": "2023-02-18T15:28:17.899Z",
  "devdoc": {
    "kind": "dev",
    "methods": {
      "acceptOwnership()": {
        "details": "The new owner accepts the ownership transfer."
      },
      "owner()": {
        "details": "Returns the address of the current owner."
      },
      "pendingOwner()": {
        "details": "Returns the address of the pending owner."
      },
      "renounceOwnership()": {
        "details": "Leaves the contract without owner. It will not be possible to call `onlyOwner` functions anymore. Can only be called by the current owner. NOTE: Renouncing ownership will leave the contract without an owner, thereby removing any functionality that is only available to the owner."
      },
      "transferOwnership(address)": {
        "details": "Starts the ownership transfer of the contract to a new account. Replaces the pending transfer if there is one. Can only be called by the current owner."
      }
    },
    "version": 1
  },
  "userdoc": {
    "kind": "user",
    "methods": {},
    "version": 1
  }
}