{
  "contractName": "PoolManager",
  "abi": [
    {
      "inputs": [],
      "stateMutability": "nonpayable",
      "type": "constructor"
    },
    {
      "anonymous": false,
      "inputs": [
        {
          "indexed": true,
          "internalType": "address",
          "name": "previousOwner",
          "type": "address"
        },
        {
          "indexed": true,
          "internalType": "address",
          "name": "newOwner",
          "type": "address"
        }
      ],
      "name": "OwnershipTransferStarted",
      "type": "event"
    },
    {
      "anonymous": false,
      "inputs": [
        {
          "indexed": true,
          "internalType": "address",
          "name": "previousOwner",
          "type": "address"
        },
        {
          "indexed": true,
          "internalType": "address",
          "name": "newOwner",
          "type": "address"
        }
      ],
      "name": "OwnershipTransferred",
      "type": "event"
    },
    {
      "inputs": [],
      "name": "acceptOwnership",
      "outputs": [],
      "stateMutability": "nonpayable",
      "type": "function"
    },
    {
      "inputs": [],
      "name": "owner",
      "outputs": [
        {
          "internalType": "address",
          "name": "",
          "type": "address"
        }
      ],
      "stateMutability": "view",
      "type": "function"
    },
    {
      "inputs": [],
      "name": "pendingOwner",
      "outputs": [
        {
          "internalType": "address",
          "name": "",
          "type": "address"
        }
      ],
      "stateMutability": "view",
      "type": "function"
    },
    {
      "inputs": [
        {
          "internalType": "address",
          "name": "",
          "type": "address"
        },
        {
          "internalType": "uint256",
          "name": "",
          "type": "uint256"
        }
      ],
      "name": "pools",
      "outputs": [
        {
          "internalType": "address",
          "name": "token",
          "type": "address"
        },
        {
          "internalType": "uint256",
          "name": "amount",
          "type": "uint256"
        }
      ],
      "stateMutability": "view",
      "type": "function"
    },
    {
      "inputs": [],
      "name": "renounceOwnership",
      "outputs": [],
      "stateMutability": "nonpayable",
      "type": "function"
    },
    {
      "inputs": [
        {
          "internalType": "address",
          "name": "newOwner",
          "type": "address"
        }
      ],
      "name": "transferOwnership",
      "outputs": [],
      "stateMutability": "nonpayable",
      "type": "function"
    },
    {
      "inputs": [
        {
          "internalType": "address",
          "name": "user",
          "type": "address"
        },
        {
          "internalType": "address",
          "name": "token",
          "type": "address"
        },
        {
          "internalType": "uint256",
          "name": "amount",
          "type": "uint256"
        }
      ],
      "name": "deposit",
      "outputs": [],
      "stateMutability": "nonpayable",
      "type": "function"
    },
    {
      "inputs": [
        {
          "internalType": "address",
          "name": "user",
          "type": "address"
        },
        {
          "internalType": "address",
          "name": "token",
          "type": "address"
        },
        {
          "internalType": "uint256",
          "name": "amount",
          "type": "uint256"
        }
      ],
      "name": "burn",
      "outputs": [],
      "stateMutability": "nonpayable",
      "type": "function"
    },
    {
      "inputs": [
        {
          "internalType": "address",
          "name": "from",
          "type": "address"
        },
        {
          "internalType": "address",
          "name": "to",
          "type": "address"
        },
        {
          "internalType": "address",
          "name": "token",
          "type": "address"
        },
        {
          "internalType": "uint256",
          "name": "amount",
          "type": "uint256"
        }
      ],
      "name": "transfer",
      "outputs": [],
      "stateMutability": "nonpayable",
      "type": "function"
    },
    {
      "inputs": [
        {
          "internalType": "address",
          "name": "user",
          "type": "address"
        },
        {
          "internalType": "address",
          "name": "token",
          "type": "address"
        }
      ],
      "name": "balanceOf",
      "outputs": [
        {
          "internalType": "uint256",
          "name": "",
          "type": "uint256"
        }
      ],
      "stateMutability": "view",
      "type": "function"
    },
    {
      "inputs": [
        {
          "internalType": "address",
          "name": "address_",
          "type": "address"
        }
      ],
      "name": "setLendingPool",
      "outputs": [],
      "stateMutability": "nonpayable",
      "type": "function"
    }
  ],
  "bytecode": "0x6080806040523461006357600180546001600160a01b03199081169091556000805433928116831782556001600160a01b0316907f8be0079c531659141344cd1fd0a4f28419497f9722a3daafe3b4186f6b6457e09080a36108fe90816100698239f35b600080fdfe6040608081526004908136101561001557600080fd5b600091823560e01c908163113aa8b1146105e0578163715018a61461057b57816379ba5097146104b65781638340f549146103c05781638da5cb5b146103985781638f38a55514610339578163e30c397814610310578163f18d03cc1461017757508063f2fde38b1461010a578063f6b911bc146100d35763f7888aec1461009c57600080fd5b346100cf57806003193601126100cf576020906100c86100ba610625565b6100c2610640565b9061084c565b9051908152f35b5080fd5b8234610107576100e236610656565b6002549091906001600160a01b03163303610103576101009261073a565b80f35b8380fd5b80fd5b823461010757602036600319011261010757610124610625565b61012c6106bd565b600180546001600160a01b0319166001600160a01b0392831690811790915582549091167f38d16b8cac22d99fc7c124b9cd0de2d3fa1faef420bfe791d8c362d765e227008380a380f35b82843461010757608036600319011261010757610192610625565b9061019b610640565b926044356001600160a01b038181169182810361030c576064359582600254163303610308576101cc91879161073a565b806002541633036101035780849616955b868552600360208181528587205483101561025757848461020085898b2061068b565b50541614610219575b505061021490610715565b6101dd565b88875252600161022b8286882061068b565b5001805490878201809211610244575561021489610209565b634e487b7160e01b875260118a52602487fd5b5050509193929485526003602052838520908451948086019086821067ffffffffffffffff8311176102f55752845260208401928352805490600160401b8210156102e257906102ac9160018201815561068b565b9390936102d0575183546001600160a01b0319169116178255516001919091015580f35b634e487b7160e01b8552848652602485fd5b634e487b7160e01b865260418752602486fd5b634e487b7160e01b885260418952602488fd5b8580fd5b8480fd5b5050346100cf57816003193601126100cf5760015490516001600160a01b039091168152602090f35b828434610107578160031936011261010757610353610625565b6001600160a01b0390811682526003602052828220805491926024359283101561010757506001916103849161068b565b509182541691015482519182526020820152f35b5050346100cf57816003193601126100cf57905490516001600160a01b039091168152602090f35b828434610107576103d036610656565b600254919490939290916001600160a01b0391908216330361010357835b8282168086526003906020908282528688205484101561045d578561041585898b2061068b565b505416868b1614610432575b50505061042d90610715565b6103ee565b87525260016104438286882061068b565b5001805490878201809211610244575561042d8980610421565b8a88888b898e818b1685526003602052838520908451948086019086821067ffffffffffffffff8311176102f557528216845260208401928352805490600160401b8210156102e257906102ac9160018201815561068b565b91905034610577578260031936011261057757600154916001600160a01b039133838516036105225750506001600160a01b031991821660015582543392811683178455167f8be0079c531659141344cd1fd0a4f28419497f9722a3daafe3b4186f6b6457e08380a380f35b906020608492519162461bcd60e51b8352820152602960248201527f4f776e61626c6532537465703a2063616c6c6572206973206e6f7420746865206044820152683732bb9037bbb732b960b91b6064820152fd5b8280fd5b83346101075780600319360112610107576105946106bd565b600180546001600160a01b03199081169091558154908116825581906001600160a01b03167f8be0079c531659141344cd1fd0a4f28419497f9722a3daafe3b4186f6b6457e08280a380f35b8334610107576020366003190112610107576105fa610625565b6106026106bd565b60018060a01b03166bffffffffffffffffffffffff60a01b600254161760025580f35b600435906001600160a01b038216820361063b57565b600080fd5b602435906001600160a01b038216820361063b57565b606090600319011261063b576001600160a01b0390600435828116810361063b5791602435908116810361063b579060443590565b80548210156106a75760005260206000209060011b0190600090565b634e487b7160e01b600052603260045260246000fd5b6000546001600160a01b031633036106d157565b606460405162461bcd60e51b815260206004820152602060248201527f4f776e61626c653a2063616c6c6572206973206e6f7420746865206f776e65726044820152fd5b60001981146107245760010190565b634e487b7160e01b600052601160045260246000fd5b92909160005b6001600160a01b0385811660008181526003602081815260409283902054939490938610156108145780610777878560002061068b565b50541690891614610794575050505061078f90610715565b610740565b9194959650918097506000528084526107b0838360002061068b565b509385600180960154106107e2576107d1949596976000525260002061068b565b500180549182039182116107245755565b60649083519062461bcd60e51b82526004820152600c60248201526b4552525f574954484452415760a01b6044820152fd5b60405162461bcd60e51b815260206004820152601060248201526f11549497d5d2551211149055d7d1539160821b6044820152606490fd5b60005b60018060a01b038083168060005260039060209082825260409384600020548610156108bb5780610883878760002061068b565b505416908816146108a0575050505061089b90610715565b61084f565b600196506108b595506000525260002061068b565b50015490565b505050505050505060009056fea26469706673582212207f147579fc5a70caf1fe9ca9e094355c7367d4467c8a579e8a096ec7911f422e64736f6c63430008110033",
  "immutableReferences": {},
  "source": "// SPDX-License-Identifier: GPL-3.0\r\npragma solidity >=0.7.0 <0.9.0;\r\n\r\nimport \"../libraries/PoolLibrary.sol\";\r\n\r\nimport \"../interfaces/IPoolManager.sol\";\r\n\r\nimport \"@openzeppelin/contracts/token/ERC20/IERC20.sol\";\r\nimport \"@openzeppelin/contracts/access/Ownable2Step.sol\";\r\n\r\ncontract PoolManager is IPoolManager, Ownable2Step {\r\n    address lendingPool;\r\n\r\n    mapping(address => PoolLibrary.Pool[]) public pools;\r\n\r\n    constructor() Ownable2Step() {}\r\n\r\n    function deposit(\r\n        address user,\r\n        address token,\r\n        uint256 amount\r\n    ) public onlyLendingPool {\r\n        for (uint256 index = 0; index < pools[user].length; index++) {\r\n            if (pools[user][index].token == token) {\r\n                pools[user][index].amount += amount;\r\n            }\r\n        }\r\n\r\n        pools[user].push(PoolLibrary.Pool(token, amount));\r\n    }\r\n\r\n    function burn(\r\n        address user,\r\n        address token,\r\n        uint256 amount\r\n    ) public onlyLendingPool {\r\n        for (uint256 index = 0; index < pools[user].length; index++) {\r\n            if (pools[user][index].token == token) {\r\n                // insuficient amount\r\n                if (pools[user][index].amount < amount) revert(\"ERR_WITHDRAW\");\r\n\r\n                // burn successful\r\n                pools[user][index].amount -= amount;\r\n                return;\r\n            }\r\n        }\r\n\r\n        revert(\"ERR_WITHDRAW_END\");\r\n    }\r\n\r\n    function transfer(\r\n        address from,\r\n        address to,\r\n        address token,\r\n        uint256 amount\r\n    ) public onlyLendingPool {\r\n        burn(from, token, amount);\r\n        deposit(to, token, amount);\r\n    }\r\n\r\n    function balanceOf(address user, address token)\r\n        public\r\n        view\r\n        override\r\n        returns (uint256)\r\n    {\r\n        for (uint256 index = 0; index < pools[user].length; index++) {\r\n            if (pools[user][index].token == token) {\r\n                return pools[user][index].amount;\r\n            }\r\n        }\r\n\r\n        return 0;\r\n    }\r\n\r\n    function setLendingPool(address address_) public onlyOwner {\r\n        lendingPool = address_;\r\n    }\r\n\r\n    modifier onlyLendingPool() {\r\n        require(msg.sender == lendingPool);\r\n        _;\r\n    }\r\n}\r\n",
  "sourcePath": "C:\\Users\\DELL\\Documents\\darsh\\smart-contracts\\contracts\\managers\\PoolManager.sol",
  "compiler": {
    "name": "solc",
    "version": "0.8.17+commit.8df45f5f.Emscripten.clang"
  },
  "schemaVersion": "3.4.11",
  "updatedAt": "2023-02-18T15:28:17.906Z",
  "devdoc": {
    "kind": "dev",
    "methods": {
      "acceptOwnership()": {
        "details": "The new owner accepts the ownership transfer."
      },
      "owner()": {
        "details": "Returns the address of the current owner."
      },
      "pendingOwner()": {
        "details": "Returns the address of the pending owner."
      },
      "renounceOwnership()": {
        "details": "Leaves the contract without owner. It will not be possible to call `onlyOwner` functions anymore. Can only be called by the current owner. NOTE: Renouncing ownership will leave the contract without an owner, thereby removing any functionality that is only available to the owner."
      },
      "transferOwnership(address)": {
        "details": "Starts the ownership transfer of the contract to a new account. Replaces the pending transfer if there is one. Can only be called by the current owner."
      }
    },
    "version": 1
  },
  "userdoc": {
    "kind": "user",
    "methods": {},
    "version": 1
  }
}