{
  "contractName": "PoolManager",
  "abi": [
    {
      "inputs": [],
      "stateMutability": "nonpayable",
      "type": "constructor"
    },
    {
      "anonymous": false,
      "inputs": [
        {
          "indexed": true,
          "internalType": "address",
          "name": "previousOwner",
          "type": "address"
        },
        {
          "indexed": true,
          "internalType": "address",
          "name": "newOwner",
          "type": "address"
        }
      ],
      "name": "OwnershipTransferStarted",
      "type": "event"
    },
    {
      "anonymous": false,
      "inputs": [
        {
          "indexed": true,
          "internalType": "address",
          "name": "previousOwner",
          "type": "address"
        },
        {
          "indexed": true,
          "internalType": "address",
          "name": "newOwner",
          "type": "address"
        }
      ],
      "name": "OwnershipTransferred",
      "type": "event"
    },
    {
      "inputs": [],
      "name": "acceptOwnership",
      "outputs": [],
      "stateMutability": "nonpayable",
      "type": "function"
    },
    {
      "inputs": [],
      "name": "owner",
      "outputs": [
        {
          "internalType": "address",
          "name": "",
          "type": "address"
        }
      ],
      "stateMutability": "view",
      "type": "function"
    },
    {
      "inputs": [],
      "name": "pendingOwner",
      "outputs": [
        {
          "internalType": "address",
          "name": "",
          "type": "address"
        }
      ],
      "stateMutability": "view",
      "type": "function"
    },
    {
      "inputs": [
        {
          "internalType": "address",
          "name": "",
          "type": "address"
        },
        {
          "internalType": "uint256",
          "name": "",
          "type": "uint256"
        }
      ],
      "name": "pools",
      "outputs": [
        {
          "internalType": "address",
          "name": "token",
          "type": "address"
        },
        {
          "internalType": "uint256",
          "name": "amount",
          "type": "uint256"
        }
      ],
      "stateMutability": "view",
      "type": "function"
    },
    {
      "inputs": [],
      "name": "renounceOwnership",
      "outputs": [],
      "stateMutability": "nonpayable",
      "type": "function"
    },
    {
      "inputs": [
        {
          "internalType": "address",
          "name": "newOwner",
          "type": "address"
        }
      ],
      "name": "transferOwnership",
      "outputs": [],
      "stateMutability": "nonpayable",
      "type": "function"
    },
    {
      "inputs": [],
      "name": "getAddress",
      "outputs": [
        {
          "internalType": "address payable",
          "name": "",
          "type": "address"
        }
      ],
      "stateMutability": "view",
      "type": "function"
    },
    {
      "inputs": [
        {
          "internalType": "address",
          "name": "user",
          "type": "address"
        },
        {
          "internalType": "address",
          "name": "token",
          "type": "address"
        },
        {
          "internalType": "uint256",
          "name": "amount",
          "type": "uint256"
        }
      ],
      "name": "deposit",
      "outputs": [
        {
          "internalType": "bool",
          "name": "",
          "type": "bool"
        }
      ],
      "stateMutability": "nonpayable",
      "type": "function"
    },
    {
      "inputs": [
        {
          "internalType": "address",
          "name": "user",
          "type": "address"
        },
        {
          "internalType": "address",
          "name": "token",
          "type": "address"
        },
        {
          "internalType": "uint256",
          "name": "amount",
          "type": "uint256"
        }
      ],
      "name": "withdraw",
      "outputs": [
        {
          "internalType": "bool",
          "name": "",
          "type": "bool"
        }
      ],
      "stateMutability": "nonpayable",
      "type": "function"
    },
    {
      "inputs": [
        {
          "internalType": "address",
          "name": "user",
          "type": "address"
        },
        {
          "internalType": "address",
          "name": "token",
          "type": "address"
        }
      ],
      "name": "balanceOf",
      "outputs": [
        {
          "internalType": "uint256",
          "name": "",
          "type": "uint256"
        }
      ],
      "stateMutability": "view",
      "type": "function"
    },
    {
      "inputs": [
        {
          "internalType": "address",
          "name": "address_",
          "type": "address"
        }
      ],
      "name": "setLendingPool",
      "outputs": [],
      "stateMutability": "nonpayable",
      "type": "function"
    }
  ],
  "bytecode": "0x6080806040523461006357600180546001600160a01b03199081169091556000805433928116831782556001600160a01b0316907f8be0079c531659141344cd1fd0a4f28419497f9722a3daafe3b4186f6b6457e09080a36107ab90816100698239f35b600080fdfe604060808152600436101561001357600080fd5b600090813560e01c8063113aa8b1146103aa57806338cc483114610390578063715018a61461032b57806379ba50971461026d5780638340f549146102385780638da5cb5b146102115780638f38a555146101b2578063d9caed1214610174578063e30c39781461014c578063f2fde38b146100df5763f7888aec1461009857600080fd5b346100db57806003193601126100db576100b06103ef565b602435926001600160a01b03841684036100d857506020926100d1916106f9565b9051908152f35b80fd5b5080fd5b82346100d85760203660031901126100d8576100f96103ef565b610101610471565b600180546001600160a01b0319166001600160a01b0392831690811790915582549091167f38d16b8cac22d99fc7c124b9cd0de2d3fa1faef420bfe791d8c362d765e227008380a380f35b50346100db57816003193601126100db5760015490516001600160a01b039091168152602090f35b50346100db576101833661040a565b6003549094919291906001600160a01b031633036100d85750926101a99160209461063a565b90519015158152f35b5090346100d857816003193601126100d8576101cc6103ef565b6001600160a01b039081168252600260205282822080549192602435928310156100d857506001916101fd9161043f565b509182541691015482519182526020820152f35b50346100db57816003193601126100db57905490516001600160a01b039091168152602090f35b50346100db576102473661040a565b6003549094919291906001600160a01b031633036100d85750926101a9916020946104ee565b50346100db57816003193601126100db57600154906001600160a01b039033828416036102d657506001600160a01b031991821660015582543392811683178455167f8be0079c531659141344cd1fd0a4f28419497f9722a3daafe3b4186f6b6457e08380a380f35b5162461bcd60e51b815260206004820152602960248201527f4f776e61626c6532537465703a2063616c6c6572206973206e6f7420746865206044820152683732bb9037bbb732b960b91b6064820152608490fd5b82346100d857806003193601126100d857610344610471565b600180546001600160a01b03199081169091558154908116825581906001600160a01b03167f8be0079c531659141344cd1fd0a4f28419497f9722a3daafe3b4186f6b6457e08280a380f35b50346100db57816003193601126100db5760209051308152f35b82346100d85760203660031901126100d8576103c46103ef565b6103cc610471565b60018060a01b03166bffffffffffffffffffffffff60a01b600354161760035580f35b600435906001600160a01b038216820361040557565b600080fd5b6060906003190112610405576001600160a01b0390600435828116810361040557916024359081168103610405579060443590565b805482101561045b5760005260206000209060011b0190600090565b634e487b7160e01b600052603260045260246000fd5b6000546001600160a01b0316330361048557565b606460405162461bcd60e51b815260206004820152602060248201527f4f776e61626c653a2063616c6c6572206973206e6f7420746865206f776e65726044820152fd5b60001981146104d85760010190565b634e487b7160e01b600052601160045260246000fd5b9192909260005b60018060a01b038085168060005260029060209082825260409384600020548610156105765780610529878760002061043f565b505416908a16146105465750505050610541906104c9565b6104f5565b9091929394965061055f9597506000525260002061043f565b5090600180920180549182018092116104d8575590565b50505050505092909260018060a01b038093166000526002602052604060002060405192604084019084821067ffffffffffffffff83111761062457859160405216835260208301918252805468010000000000000000811015610624576105e39160018201815561043f565b93909361060e5760019251166bffffffffffffffffffffffff60a01b84541617835551910155600190565b634e487b7160e01b600052600060045260246000fd5b634e487b7160e01b600052604160045260246000fd5b909160005b60018060a01b03808416908160005260029160209183835260409081600020548610156106eb5780610674878460002061043f565b50541690891614610691575050505061068c906104c9565b61063f565b9194955080939296506000528584526106ad828260002061043f565b509585600180980154106106df5786946106cd946000525260002061043f565b500180549182039182116104d8575590565b50505050505050600090565b505050505050505050600090565b60005b60018060a01b038083168060005260029060209082825260409384600020548610156107685780610730878760002061043f565b5054169088161461074d5750505050610748906104c9565b6106fc565b6001965061076295506000525260002061043f565b50015490565b505050505050505060009056fea2646970667358221220c6bd39eac6c359b61350991b381443885ed148561016e98a56795e57693d5f9264736f6c63430008110033",
  "immutableReferences": {},
  "source": "// SPDX-License-Identifier: GPL-3.0\r\npragma solidity >=0.7.0 <0.9.0;\r\n\r\nimport \"../libraries/AssetLibrary.sol\";\r\n\r\nimport \"../interfaces/IPoolManager.sol\";\r\n\r\nimport \"@openzeppelin/contracts/token/ERC20/IERC20.sol\";\r\nimport \"@openzeppelin/contracts/access/Ownable2Step.sol\";\r\n\r\ncontract PoolManager is IPoolManager, Ownable2Step {\r\n    // user => pools\r\n    mapping(address => AssetLibrary.Pool[]) public pools;\r\n\r\n    address lendingPool;\r\n\r\n    constructor() Ownable2Step() {}\r\n\r\n    function getAddress() public view override returns (address payable) {\r\n        return payable(address(this));\r\n    }\r\n\r\n    function deposit(\r\n        address user,\r\n        address token,\r\n        uint256 amount\r\n    ) public onlyLendingPool returns (bool) {\r\n        // onlyOwner\r\n        for (uint256 index = 0; index < pools[user].length; index++) {\r\n            if (pools[user][index].token == token) {\r\n                pools[user][index].amount += amount;\r\n                return true;\r\n            }\r\n        }\r\n\r\n        pools[user].push(AssetLibrary.Pool(token, amount));\r\n        return true;\r\n    }\r\n\r\n    function withdraw(\r\n        address user,\r\n        address token,\r\n        uint256 amount\r\n    ) public onlyLendingPool returns (bool) {\r\n        // onlyOwner\r\n        for (uint256 index = 0; index < pools[user].length; index++) {\r\n            if (pools[user][index].token == token) {\r\n                // insuficient amount\r\n                if (pools[user][index].amount < amount) return false;\r\n\r\n                // withdrawn successful\r\n                pools[user][index].amount -= amount;\r\n                return true;\r\n            }\r\n        }\r\n\r\n        return false;\r\n    }\r\n\r\n    function balanceOf(address user, address token)\r\n        public\r\n        view\r\n        override\r\n        returns (uint256)\r\n    {\r\n        for (uint256 index = 0; index < pools[user].length; index++) {\r\n            if (pools[user][index].token == token) {\r\n                return pools[user][index].amount;\r\n            }\r\n        }\r\n\r\n        return 0;\r\n    }\r\n\r\n    function setLendingPool(address address_) public onlyOwner {\r\n        lendingPool = address_;\r\n    }\r\n\r\n    modifier onlyLendingPool() {\r\n        require(msg.sender == lendingPool);\r\n        _;\r\n    }\r\n}\r\n",
  "sourcePath": "C:\\Users\\DELL\\Documents\\darsh\\smart-contracts\\contracts\\managers\\PoolManager.sol",
  "compiler": {
    "name": "solc",
    "version": "0.8.17+commit.8df45f5f.Emscripten.clang"
  },
  "schemaVersion": "3.4.11",
  "updatedAt": "2023-02-11T16:42:48.090Z",
  "devdoc": {
    "kind": "dev",
    "methods": {
      "acceptOwnership()": {
        "details": "The new owner accepts the ownership transfer."
      },
      "owner()": {
        "details": "Returns the address of the current owner."
      },
      "pendingOwner()": {
        "details": "Returns the address of the pending owner."
      },
      "renounceOwnership()": {
        "details": "Leaves the contract without owner. It will not be possible to call `onlyOwner` functions anymore. Can only be called by the current owner. NOTE: Renouncing ownership will leave the contract without an owner, thereby removing any functionality that is only available to the owner."
      },
      "transferOwnership(address)": {
        "details": "Starts the ownership transfer of the contract to a new account. Replaces the pending transfer if there is one. Can only be called by the current owner."
      }
    },
    "version": 1
  },
  "userdoc": {
    "kind": "user",
    "methods": {},
    "version": 1
  }
}