{
  "contractName": "PoolManager",
  "abi": [
    {
      "inputs": [],
      "stateMutability": "nonpayable",
      "type": "constructor"
    },
    {
      "anonymous": false,
      "inputs": [
        {
          "indexed": true,
          "internalType": "address",
          "name": "previousOwner",
          "type": "address"
        },
        {
          "indexed": true,
          "internalType": "address",
          "name": "newOwner",
          "type": "address"
        }
      ],
      "name": "OwnershipTransferStarted",
      "type": "event"
    },
    {
      "anonymous": false,
      "inputs": [
        {
          "indexed": true,
          "internalType": "address",
          "name": "previousOwner",
          "type": "address"
        },
        {
          "indexed": true,
          "internalType": "address",
          "name": "newOwner",
          "type": "address"
        }
      ],
      "name": "OwnershipTransferred",
      "type": "event"
    },
    {
      "inputs": [],
      "name": "acceptOwnership",
      "outputs": [],
      "stateMutability": "nonpayable",
      "type": "function"
    },
    {
      "inputs": [],
      "name": "owner",
      "outputs": [
        {
          "internalType": "address",
          "name": "",
          "type": "address"
        }
      ],
      "stateMutability": "view",
      "type": "function"
    },
    {
      "inputs": [],
      "name": "pendingOwner",
      "outputs": [
        {
          "internalType": "address",
          "name": "",
          "type": "address"
        }
      ],
      "stateMutability": "view",
      "type": "function"
    },
    {
      "inputs": [],
      "name": "renounceOwnership",
      "outputs": [],
      "stateMutability": "nonpayable",
      "type": "function"
    },
    {
      "inputs": [
        {
          "internalType": "address",
          "name": "newOwner",
          "type": "address"
        }
      ],
      "name": "transferOwnership",
      "outputs": [],
      "stateMutability": "nonpayable",
      "type": "function"
    },
    {
      "inputs": [
        {
          "internalType": "address",
          "name": "user",
          "type": "address"
        },
        {
          "internalType": "address",
          "name": "token",
          "type": "address"
        },
        {
          "internalType": "uint256",
          "name": "amount",
          "type": "uint256"
        }
      ],
      "name": "deposit",
      "outputs": [],
      "stateMutability": "nonpayable",
      "type": "function"
    },
    {
      "inputs": [
        {
          "internalType": "address",
          "name": "user",
          "type": "address"
        },
        {
          "internalType": "address",
          "name": "token",
          "type": "address"
        },
        {
          "internalType": "uint256",
          "name": "amount",
          "type": "uint256"
        }
      ],
      "name": "burn",
      "outputs": [],
      "stateMutability": "nonpayable",
      "type": "function"
    },
    {
      "inputs": [
        {
          "internalType": "address",
          "name": "from",
          "type": "address"
        },
        {
          "internalType": "address",
          "name": "to",
          "type": "address"
        },
        {
          "internalType": "address",
          "name": "token",
          "type": "address"
        },
        {
          "internalType": "uint256",
          "name": "amount",
          "type": "uint256"
        }
      ],
      "name": "transfer",
      "outputs": [],
      "stateMutability": "nonpayable",
      "type": "function"
    },
    {
      "inputs": [
        {
          "internalType": "address",
          "name": "user",
          "type": "address"
        },
        {
          "internalType": "address",
          "name": "token",
          "type": "address"
        }
      ],
      "name": "balanceOf",
      "outputs": [
        {
          "internalType": "uint256",
          "name": "",
          "type": "uint256"
        }
      ],
      "stateMutability": "view",
      "type": "function"
    },
    {
      "inputs": [
        {
          "internalType": "address",
          "name": "address_",
          "type": "address"
        }
      ],
      "name": "setLendingPool",
      "outputs": [],
      "stateMutability": "nonpayable",
      "type": "function"
    }
  ],
  "bytecode": "0x6080806040523461006357600180546001600160a01b03199081169091556000805433928116831782556001600160a01b0316907f8be0079c531659141344cd1fd0a4f28419497f9722a3daafe3b4186f6b6457e09080a361089190816100698239f35b600080fdfe6040608081526004908136101561001557600080fd5b600091823560e01c908163113aa8b114610576578163715018a61461051157816379ba50971461044c5781638340f549146103565781638da5cb5b1461032e578163e30c397814610305578163f18d03cc1461016c57508063f2fde38b146100ff578063f6b911bc146100c85763f7888aec1461009157600080fd5b346100c457806003193601126100c4576020906100bd6100af6105bb565b6100b76105d6565b906107df565b9051908152f35b5080fd5b82346100fc576100d7366105ec565b6002549091906001600160a01b031633036100f8576100f5926106d0565b80f35b8380fd5b80fd5b82346100fc5760203660031901126100fc576101196105bb565b610121610621565b600180546001600160a01b0319166001600160a01b0392831690811790915582549091167f38d16b8cac22d99fc7c124b9cd0de2d3fa1faef420bfe791d8c362d765e227008380a380f35b8284346100fc5760803660031901126100fc576101876105bb565b906101906105d6565b926044356001600160a01b03818116918281036103015760643595826002541633036102fd576101c19187916106d0565b806002541633036100f85780849616955b868552600360208181528587205483101561024c5784846101f585898b2061069e565b5054161461020e575b505061020990610679565b6101d2565b8887525260016102208286882061069e565b50018054908782018092116102395755610209896101fe565b634e487b7160e01b875260118a52602487fd5b5050509193929485526003602052838520908451948086019086821067ffffffffffffffff8311176102ea5752845260208401928352805490600160401b8210156102d757906102a19160018201815561069e565b9390936102c5575183546001600160a01b0319169116178255516001919091015580f35b634e487b7160e01b8552848652602485fd5b634e487b7160e01b865260418752602486fd5b634e487b7160e01b885260418952602488fd5b8580fd5b8480fd5b5050346100c457816003193601126100c45760015490516001600160a01b039091168152602090f35b5050346100c457816003193601126100c457905490516001600160a01b039091168152602090f35b8284346100fc57610366366105ec565b600254919490939290916001600160a01b039190821633036100f857835b828216808652600390602090828252868820548410156103f357856103ab85898b2061069e565b505416868b16146103c8575b5050506103c390610679565b610384565b87525260016103d98286882061069e565b500180549087820180921161023957556103c389806103b7565b8a88888b898e818b1685526003602052838520908451948086019086821067ffffffffffffffff8311176102ea57528216845260208401928352805490600160401b8210156102d757906102a19160018201815561069e565b9190503461050d578260031936011261050d57600154916001600160a01b039133838516036104b85750506001600160a01b031991821660015582543392811683178455167f8be0079c531659141344cd1fd0a4f28419497f9722a3daafe3b4186f6b6457e08380a380f35b906020608492519162461bcd60e51b8352820152602960248201527f4f776e61626c6532537465703a2063616c6c6572206973206e6f7420746865206044820152683732bb9037bbb732b960b91b6064820152fd5b8280fd5b83346100fc57806003193601126100fc5761052a610621565b600180546001600160a01b03199081169091558154908116825581906001600160a01b03167f8be0079c531659141344cd1fd0a4f28419497f9722a3daafe3b4186f6b6457e08280a380f35b83346100fc5760203660031901126100fc576105906105bb565b610598610621565b60018060a01b03166bffffffffffffffffffffffff60a01b600254161760025580f35b600435906001600160a01b03821682036105d157565b600080fd5b602435906001600160a01b03821682036105d157565b60609060031901126105d1576001600160a01b039060043582811681036105d1579160243590811681036105d1579060443590565b6000546001600160a01b0316330361063557565b606460405162461bcd60e51b815260206004820152602060248201527f4f776e61626c653a2063616c6c6572206973206e6f7420746865206f776e65726044820152fd5b60001981146106885760010190565b634e487b7160e01b600052601160045260246000fd5b80548210156106ba5760005260206000209060011b0190600090565b634e487b7160e01b600052603260045260246000fd5b92909160005b6001600160a01b0385811660008181526003602081815260409283902054939490938610156107ab578061070d878560002061069e565b5054169089161461072a575050505061072590610679565b6106d6565b919495965091809750600052808452610746838360002061069e565b5093856001809601541061077857610767949596976000525260002061069e565b500180549182039182116106885755565b825162461bcd60e51b815260206004820152600c60248201526b4552525f574954484452415760a01b6044820152606490fd5b60405162461bcd60e51b815260206004820152600c60248201526b4552525f574954484452415760a01b6044820152606490fd5b60005b60018060a01b0380831680600052600390602090828252604093846000205486101561084e5780610816878760002061069e565b50541690881614610833575050505061082e90610679565b6107e2565b6001965061084895506000525260002061069e565b50015490565b505050505050505060009056fea26469706673582212203da7a5e83a238b38871b94449a3ea79bf426055e942c5adadf2c051b17de201664736f6c63430008110033",
  "immutableReferences": {},
  "source": "// SPDX-License-Identifier: GPL-3.0\r\npragma solidity >=0.7.0 <0.9.0;\r\n\r\nimport \"../libraries/PoolLibrary.sol\";\r\n\r\nimport \"../interfaces/IPoolManager.sol\";\r\n\r\nimport \"@openzeppelin/contracts/token/ERC20/IERC20.sol\";\r\nimport \"@openzeppelin/contracts/access/Ownable2Step.sol\";\r\n\r\ncontract PoolManager is IPoolManager, Ownable2Step {\r\n    address lendingPool;\r\n\r\n    mapping(address => PoolLibrary.Pool[]) pools;\r\n\r\n    constructor() Ownable2Step() {}\r\n\r\n    function deposit(\r\n        address user,\r\n        address token,\r\n        uint256 amount\r\n    ) public onlyLendingPool {\r\n        for (uint256 index = 0; index < pools[user].length; index++) {\r\n            if (pools[user][index].token == token) {\r\n                pools[user][index].amount += amount;\r\n            }\r\n        }\r\n\r\n        pools[user].push(PoolLibrary.Pool(token, amount));\r\n    }\r\n\r\n    function burn(\r\n        address user,\r\n        address token,\r\n        uint256 amount\r\n    ) public onlyLendingPool {\r\n        for (uint256 index = 0; index < pools[user].length; index++) {\r\n            if (pools[user][index].token == token) {\r\n                // insuficient amount\r\n                if (pools[user][index].amount < amount) revert(\"ERR_WITHDRAW\");\r\n\r\n                // burn successful\r\n                pools[user][index].amount -= amount;\r\n                return;\r\n            }\r\n        }\r\n\r\n        revert(\"ERR_WITHDRAW\");\r\n    }\r\n\r\n    function transfer(\r\n        address from,\r\n        address to,\r\n        address token,\r\n        uint256 amount\r\n    ) public onlyLendingPool {\r\n        burn(from, token, amount);\r\n        deposit(to, token, amount);\r\n    }\r\n\r\n    function balanceOf(address user, address token)\r\n        public\r\n        view\r\n        override\r\n        returns (uint256)\r\n    {\r\n        for (uint256 index = 0; index < pools[user].length; index++) {\r\n            if (pools[user][index].token == token) {\r\n                return pools[user][index].amount;\r\n            }\r\n        }\r\n\r\n        return 0;\r\n    }\r\n\r\n    function setLendingPool(address address_) public onlyOwner {\r\n        lendingPool = address_;\r\n    }\r\n\r\n    modifier onlyLendingPool() {\r\n        require(msg.sender == lendingPool);\r\n        _;\r\n    }\r\n}\r\n",
  "sourcePath": "C:\\Users\\DELL\\Documents\\darsh\\smart-contracts\\contracts\\managers\\PoolManager.sol",
  "compiler": {
    "name": "solc",
    "version": "0.8.17+commit.8df45f5f.Emscripten.clang"
  },
  "schemaVersion": "3.4.11",
  "updatedAt": "2023-02-13T14:55:36.966Z",
  "devdoc": {
    "kind": "dev",
    "methods": {
      "acceptOwnership()": {
        "details": "The new owner accepts the ownership transfer."
      },
      "owner()": {
        "details": "Returns the address of the current owner."
      },
      "pendingOwner()": {
        "details": "Returns the address of the pending owner."
      },
      "renounceOwnership()": {
        "details": "Leaves the contract without owner. It will not be possible to call `onlyOwner` functions anymore. Can only be called by the current owner. NOTE: Renouncing ownership will leave the contract without an owner, thereby removing any functionality that is only available to the owner."
      },
      "transferOwnership(address)": {
        "details": "Starts the ownership transfer of the contract to a new account. Replaces the pending transfer if there is one. Can only be called by the current owner."
      }
    },
    "version": 1
  },
  "userdoc": {
    "kind": "user",
    "methods": {},
    "version": 1
  }
}