{
  "contractName": "PriceFeed",
  "abi": [
    {
      "inputs": [],
      "stateMutability": "nonpayable",
      "type": "constructor"
    },
    {
      "anonymous": false,
      "inputs": [
        {
          "indexed": true,
          "internalType": "address",
          "name": "previousOwner",
          "type": "address"
        },
        {
          "indexed": true,
          "internalType": "address",
          "name": "newOwner",
          "type": "address"
        }
      ],
      "name": "OwnershipTransferStarted",
      "type": "event"
    },
    {
      "anonymous": false,
      "inputs": [
        {
          "indexed": true,
          "internalType": "address",
          "name": "previousOwner",
          "type": "address"
        },
        {
          "indexed": true,
          "internalType": "address",
          "name": "newOwner",
          "type": "address"
        }
      ],
      "name": "OwnershipTransferred",
      "type": "event"
    },
    {
      "anonymous": false,
      "inputs": [
        {
          "indexed": false,
          "internalType": "uint256",
          "name": "timestamp",
          "type": "uint256"
        },
        {
          "indexed": true,
          "internalType": "address",
          "name": "token",
          "type": "address"
        },
        {
          "indexed": true,
          "internalType": "address",
          "name": "priceFeed",
          "type": "address"
        }
      ],
      "name": "PriceFeedAdded",
      "type": "event"
    },
    {
      "inputs": [],
      "name": "acceptOwnership",
      "outputs": [],
      "stateMutability": "nonpayable",
      "type": "function"
    },
    {
      "inputs": [],
      "name": "owner",
      "outputs": [
        {
          "internalType": "address",
          "name": "",
          "type": "address"
        }
      ],
      "stateMutability": "view",
      "type": "function"
    },
    {
      "inputs": [],
      "name": "pendingOwner",
      "outputs": [
        {
          "internalType": "address",
          "name": "",
          "type": "address"
        }
      ],
      "stateMutability": "view",
      "type": "function"
    },
    {
      "inputs": [],
      "name": "renounceOwnership",
      "outputs": [],
      "stateMutability": "nonpayable",
      "type": "function"
    },
    {
      "inputs": [
        {
          "internalType": "address",
          "name": "newOwner",
          "type": "address"
        }
      ],
      "name": "transferOwnership",
      "outputs": [],
      "stateMutability": "nonpayable",
      "type": "function"
    },
    {
      "inputs": [
        {
          "internalType": "address",
          "name": "token",
          "type": "address"
        },
        {
          "internalType": "address",
          "name": "feed",
          "type": "address"
        }
      ],
      "name": "addPriceFeed",
      "outputs": [],
      "stateMutability": "nonpayable",
      "type": "function"
    },
    {
      "inputs": [
        {
          "internalType": "address",
          "name": "token",
          "type": "address"
        }
      ],
      "name": "getLatestPriceUSD",
      "outputs": [
        {
          "internalType": "uint256",
          "name": "",
          "type": "uint256"
        },
        {
          "internalType": "uint8",
          "name": "",
          "type": "uint8"
        }
      ],
      "stateMutability": "view",
      "type": "function"
    },
    {
      "inputs": [
        {
          "internalType": "address",
          "name": "base",
          "type": "address"
        },
        {
          "internalType": "address",
          "name": "quote",
          "type": "address"
        },
        {
          "internalType": "uint256",
          "name": "amount",
          "type": "uint256"
        }
      ],
      "name": "exchangeRate",
      "outputs": [
        {
          "internalType": "uint256",
          "name": "",
          "type": "uint256"
        }
      ],
      "stateMutability": "view",
      "type": "function"
    }
  ],
  "bytecode": "0x6080806040523461006357600180546001600160a01b03199081169091556000805433928116831782556001600160a01b0316907f8be0079c531659141344cd1fd0a4f28419497f9722a3daafe3b4186f6b6457e09080a36105cf90816100698239f35b600080fdfe604060808152600436101561001357600080fd5b600090813560e01c908163701f660414610316578163715018a6146102b157816379ba5097146101f25781638da5cb5b146101ca57816398d423a114610196578163e30c39781461016d578163e8a97a3e146100e8575063f2fde38b1461007957600080fd5b346100e55760203660031901126100e55761009261039c565b61009a6103cd565b600180546001600160a01b0319166001600160a01b0392831690811790915582549091167f38d16b8cac22d99fc7c124b9cd0de2d3fa1faef420bfe791d8c362d765e227008380a380f35b80fd5b90503461016957806003193601126101695761010261039c565b7f1d6faa3aebf3e2db1b9604d052181d2eb65633d2d8f8612f39beacc8e6a8882c602061012d6103b7565b936101366103cd565b6001600160a01b039384168087526002835281872080546001600160a01b0319169690951695861790945551428152a380f35b5080fd5b90503461016957816003193601126101695760015490516001600160a01b039091168152602090f35b82346100e55760203660031901126100e5575060ff6101bb6101b661039c565b61043c565b83519182529091166020820152f35b905034610169578160031936011261016957905490516001600160a01b039091168152602090f35b905034610169578160031936011261016957600154906001600160a01b0390338284160361025c57506001600160a01b031991821660015582543392811683178455167f8be0079c531659141344cd1fd0a4f28419497f9722a3daafe3b4186f6b6457e08380a380f35b5162461bcd60e51b815260206004820152602960248201527f4f776e61626c6532537465703a2063616c6c6572206973206e6f7420746865206044820152683732bb9037bbb732b960b91b6064820152608490fd5b82346100e557806003193601126100e5576102ca6103cd565b600180546001600160a01b03199081169091558154908116825581906001600160a01b03167f8be0079c531659141344cd1fd0a4f28419497f9722a3daafe3b4186f6b6457e08280a380f35b9050346101695760603660031901126101695761033161039c565b9061033a6103b7565b9061035161034a6044359461043c565b509261043c565b509183810293818504149015171561038857811561037457602093505191048152f35b634e487b7160e01b84526012600452602484fd5b634e487b7160e01b84526011600452602484fd5b600435906001600160a01b03821682036103b257565b600080fd5b602435906001600160a01b03821682036103b257565b6000546001600160a01b031633036103e157565b606460405162461bcd60e51b815260206004820152602060248201527f4f776e61626c653a2063616c6c6572206973206e6f7420746865206f776e65726044820152fd5b519069ffffffffffffffffffff821682036103b257565b9060018060a01b038092166000928184526002602052604091818386205416156105615784526002602052818420548251633fabe5a360e21b8152929160a09184916004918391165afa93841561055657809281956104db575b508213156104a657509160ff1690565b5162461bcd60e51b815260206004820152600f60248201526e22a9292fad22a927afa0a729aba2a960891b6044820152606490fd5b9250935060a03d811161054f575b601f8101601f1916830167ffffffffffffffff81118482101761053b5760a09184918452810103126105375761051e82610425565b50610530608060208401519301610425565b9338610496565b8380fd5b634e487b7160e01b86526041600452602486fd5b503d6104e9565b9051903d90823e3d90fd5b825162461bcd60e51b81526020600482015260116024820152704552525f544f4b454e5f4144445245535360781b6044820152606490fdfea264697066735822122038489be801010ecf8092cd51fb56f21f22d24e7d07596fb47b17f32cd326474764736f6c63430008110033",
  "immutableReferences": {},
  "source": "// SPDX-License-Identifier: GPL-3.0\r\npragma solidity >=0.7.0 <0.9.0;\r\n\r\nimport \"../interfaces/IPriceFeed.sol\";\r\nimport \"@openzeppelin/contracts/access/Ownable2Step.sol\";\r\nimport \"@chainlink/contracts/src/v0.8/interfaces/AggregatorV3Interface.sol\";\r\nimport \"../libraries/Errors.sol\";\r\n\r\n// WBTC/USD -> 0x65E8d79f3e8e36fE48eC31A2ae935e92F5bBF529\r\n// WETH/USD -> 0xB8C458C957a6e6ca7Cc53eD95bEA548c52AFaA24\r\n// FTM/USD -> 0xe04676B9A9A2973BCb0D1478b5E1E9098BBB7f3D\r\n\r\n// USDT/USD -> 0x9BB8A6dcD83E36726Cc230a97F1AF8a84ae5F128\r\n// USDC/USD -> 0x9BB8A6dcD83E36726Cc230a97F1AF8a84ae5F128\r\n// DAI/USD -> 0x9BB8A6dcD83E36726Cc230a97F1AF8a84ae5F128\r\n\r\ncontract PriceFeed is Ownable2Step, IPriceFeed {\r\n    mapping(address => address) feedAddresses;\r\n\r\n    event PriceFeedAdded(\r\n        uint256 timestamp,\r\n        address indexed token,\r\n        address indexed priceFeed\r\n    );\r\n\r\n    constructor() Ownable2Step() {}\r\n\r\n    /// @dev function for owner to add more price feeds\r\n    function addPriceFeed(address token, address feed) external onlyOwner {\r\n        feedAddresses[token] = feed;\r\n        emit PriceFeedAdded(block.timestamp, token, feed);\r\n    }\r\n\r\n    /**\r\n     * Returns the latest price\r\n     */\r\n    function getLatestPriceUSD(address token)\r\n        public\r\n        view\r\n        override\r\n        returns (uint256, uint8)\r\n    {\r\n        require(feedAddresses[token] != address(0), \"ERR_TOKEN_ADDRESS\");\r\n\r\n        AggregatorV3Interface priceFeed = AggregatorV3Interface(\r\n            feedAddresses[token]\r\n        );\r\n\r\n        (, int256 answer, , , uint80 decimal) = priceFeed.latestRoundData();\r\n        require(answer > 0, \"ERR_ZERO_ANSWER\");\r\n\r\n        return (uint256(answer), uint8(decimal));\r\n    }\r\n\r\n    function exchangeRate(\r\n        address base,\r\n        address quote,\r\n        uint256 amount\r\n    ) public view override returns (uint256) {\r\n        (uint256 basePrice, ) = getLatestPriceUSD(base);\r\n        (uint256 quotePrice, ) = getLatestPriceUSD(quote);\r\n\r\n        return (basePrice * amount) / quotePrice;\r\n    }\r\n}\r\n",
  "sourcePath": "C:\\Users\\DELL\\Documents\\darsh\\smart-contracts\\contracts\\data\\PriceFeed.sol",
  "compiler": {
    "name": "solc",
    "version": "0.8.17+commit.8df45f5f.Emscripten.clang"
  },
  "schemaVersion": "3.4.11",
  "updatedAt": "2023-02-11T16:42:48.056Z",
  "devdoc": {
    "kind": "dev",
    "methods": {
      "acceptOwnership()": {
        "details": "The new owner accepts the ownership transfer."
      },
      "addPriceFeed(address,address)": {
        "details": "function for owner to add more price feeds"
      },
      "owner()": {
        "details": "Returns the address of the current owner."
      },
      "pendingOwner()": {
        "details": "Returns the address of the pending owner."
      },
      "renounceOwnership()": {
        "details": "Leaves the contract without owner. It will not be possible to call `onlyOwner` functions anymore. Can only be called by the current owner. NOTE: Renouncing ownership will leave the contract without an owner, thereby removing any functionality that is only available to the owner."
      },
      "transferOwnership(address)": {
        "details": "Starts the ownership transfer of the contract to a new account. Replaces the pending transfer if there is one. Can only be called by the current owner."
      }
    },
    "version": 1
  },
  "userdoc": {
    "kind": "user",
    "methods": {
      "getLatestPriceUSD(address)": {
        "notice": "Returns the latest price"
      }
    },
    "version": 1
  }
}