{
  "contractName": "PriceFeed",
  "abi": [
    {
      "inputs": [],
      "stateMutability": "nonpayable",
      "type": "constructor"
    },
    {
      "anonymous": false,
      "inputs": [
        {
          "indexed": true,
          "internalType": "address",
          "name": "previousOwner",
          "type": "address"
        },
        {
          "indexed": true,
          "internalType": "address",
          "name": "newOwner",
          "type": "address"
        }
      ],
      "name": "OwnershipTransferStarted",
      "type": "event"
    },
    {
      "anonymous": false,
      "inputs": [
        {
          "indexed": true,
          "internalType": "address",
          "name": "previousOwner",
          "type": "address"
        },
        {
          "indexed": true,
          "internalType": "address",
          "name": "newOwner",
          "type": "address"
        }
      ],
      "name": "OwnershipTransferred",
      "type": "event"
    },
    {
      "anonymous": false,
      "inputs": [
        {
          "indexed": false,
          "internalType": "uint256",
          "name": "timestamp",
          "type": "uint256"
        },
        {
          "indexed": true,
          "internalType": "address",
          "name": "token",
          "type": "address"
        },
        {
          "indexed": true,
          "internalType": "address",
          "name": "priceFeed",
          "type": "address"
        }
      ],
      "name": "PriceFeedAdded",
      "type": "event"
    },
    {
      "inputs": [],
      "name": "acceptOwnership",
      "outputs": [],
      "stateMutability": "nonpayable",
      "type": "function"
    },
    {
      "inputs": [],
      "name": "owner",
      "outputs": [
        {
          "internalType": "address",
          "name": "",
          "type": "address"
        }
      ],
      "stateMutability": "view",
      "type": "function",
      "constant": true
    },
    {
      "inputs": [],
      "name": "pendingOwner",
      "outputs": [
        {
          "internalType": "address",
          "name": "",
          "type": "address"
        }
      ],
      "stateMutability": "view",
      "type": "function",
      "constant": true
    },
    {
      "inputs": [],
      "name": "renounceOwnership",
      "outputs": [],
      "stateMutability": "nonpayable",
      "type": "function"
    },
    {
      "inputs": [
        {
          "internalType": "address",
          "name": "newOwner",
          "type": "address"
        }
      ],
      "name": "transferOwnership",
      "outputs": [],
      "stateMutability": "nonpayable",
      "type": "function"
    },
    {
      "inputs": [
        {
          "internalType": "address",
          "name": "usd_",
          "type": "address"
        }
      ],
      "name": "addUSDFeed",
      "outputs": [],
      "stateMutability": "nonpayable",
      "type": "function"
    },
    {
      "inputs": [
        {
          "internalType": "address",
          "name": "_tokenAddress",
          "type": "address"
        },
        {
          "internalType": "address",
          "name": "_chainlinkPriceFeed",
          "type": "address"
        }
      ],
      "name": "addPriceFeed",
      "outputs": [],
      "stateMutability": "nonpayable",
      "type": "function"
    },
    {
      "inputs": [
        {
          "internalType": "address",
          "name": "_tokenAddress",
          "type": "address"
        }
      ],
      "name": "getLatestPriceUSD",
      "outputs": [
        {
          "internalType": "uint256",
          "name": "",
          "type": "uint256"
        },
        {
          "internalType": "uint8",
          "name": "",
          "type": "uint8"
        }
      ],
      "stateMutability": "view",
      "type": "function",
      "constant": true
    },
    {
      "inputs": [
        {
          "internalType": "address",
          "name": "_tokenAddress",
          "type": "address"
        },
        {
          "internalType": "uint256",
          "name": "_amount",
          "type": "uint256"
        }
      ],
      "name": "amountInUSD",
      "outputs": [
        {
          "internalType": "uint256",
          "name": "",
          "type": "uint256"
        }
      ],
      "stateMutability": "view",
      "type": "function",
      "constant": true
    },
    {
      "inputs": [
        {
          "internalType": "address",
          "name": "_base",
          "type": "address"
        },
        {
          "internalType": "address",
          "name": "_quote",
          "type": "address"
        },
        {
          "internalType": "uint256",
          "name": "_amount",
          "type": "uint256"
        }
      ],
      "name": "exchangeRate",
      "outputs": [
        {
          "internalType": "uint256",
          "name": "",
          "type": "uint256"
        }
      ],
      "stateMutability": "view",
      "type": "function",
      "constant": true
    }
  ],
  "bytecode": "0x6080806040523461007d57600180546001600160a01b03199081169091556000805433818416811783556040916001600160a01b03919082167f8be0079c531659141344cd1fd0a4f28419497f9722a3daafe3b4186f6b6457e08580a360035416918281526002602052209182541617905561067390816100838239f35b600080fdfe604060808152600436101561001357600080fd5b600090813560e01c90816343a7b0c11461039d578163701f66041461036b578163715018a61461030657816379ba5097146102475781638da5cb5b1461021f578163912d228f146101e057816398d423a1146101ac578163e30c397814610183578163e8a97a3e146100fe575063f2fde38b1461008f57600080fd5b346100fb5760203660031901126100fb576100a86103e2565b6100b0610413565b600180546001600160a01b0319166001600160a01b0392831690811790915582549091167f38d16b8cac22d99fc7c124b9cd0de2d3fa1faef420bfe791d8c362d765e227008380a380f35b80fd5b90503461017f578060031936011261017f576101186103e2565b7f1d6faa3aebf3e2db1b9604d052181d2eb65633d2d8f8612f39beacc8e6a8882c60206101436103fd565b9361014c610413565b6001600160a01b039384168087526002835281872080546001600160a01b0319169690951695861790945551428152a380f35b5080fd5b90503461017f578160031936011261017f5760015490516001600160a01b039091168152602090f35b82346100fb5760203660031901126100fb575060ff6101d16101cc6103e2565b610482565b83519182529091166020820152f35b90503461017f578060031936011261017f576020906102186102006103e2565b600354602435916001600160a01b03909116906105df565b9051908152f35b90503461017f578160031936011261017f57905490516001600160a01b039091168152602090f35b90503461017f578160031936011261017f57600154906001600160a01b039033828416036102b157506001600160a01b031991821660015582543392811683178455167f8be0079c531659141344cd1fd0a4f28419497f9722a3daafe3b4186f6b6457e08380a380f35b5162461bcd60e51b815260206004820152602960248201527f4f776e61626c6532537465703a2063616c6c6572206973206e6f7420746865206044820152683732bb9037bbb732b960b91b6064820152608490fd5b82346100fb57806003193601126100fb5761031f610413565b600180546001600160a01b03199081169091558154908116825581906001600160a01b03167f8be0079c531659141344cd1fd0a4f28419497f9722a3daafe3b4186f6b6457e08280a380f35b90503461017f57606036600319011261017f5760209061021861038c6103e2565b6103946103fd565b604435916105df565b82346100fb5760203660031901126100fb576103b76103e2565b6103bf610413565b60018060a01b03166bffffffffffffffffffffffff60a01b600354161760035580f35b600435906001600160a01b03821682036103f857565b600080fd5b602435906001600160a01b03821682036103f857565b6000546001600160a01b0316330361042757565b606460405162461bcd60e51b815260206004820152602060248201527f4f776e61626c653a2063616c6c6572206973206e6f7420746865206f776e65726044820152fd5b519069ffffffffffffffffffff821682036103f857565b9060018060a01b038092166000928184526002602052604091818386205416156105a75784526002602052818420548251633fabe5a360e21b8152929160a09184916004918391165afa93841561059c5780928195610521575b508213156104ec57509160ff1690565b5162461bcd60e51b815260206004820152600f60248201526e22a9292fad22a927afa0a729aba2a960891b6044820152606490fd5b9250935060a03d8111610595575b601f8101601f1916830167ffffffffffffffff8111848210176105815760a091849184528101031261057d576105648261046b565b5061057660806020840151930161046b565b93386104dc565b8380fd5b634e487b7160e01b86526041600452602486fd5b503d61052f565b9051903d90823e3d90fd5b825162461bcd60e51b81526020600482015260116024820152704552525f544f4b454e5f4144445245535360781b6044820152606490fd5b6105ee6105f591939293610482565b5092610482565b5091818102918183041490151715610627578115610611570490565b634e487b7160e01b600052601260045260246000fd5b634e487b7160e01b600052601160045260246000fdfea2646970667358221220537b548d3aea11221e5a181a627817da805814f5215b4a8bd6fada2e976d625064736f6c63430008110033",
  "immutableReferences": {},
  "source": "// SPDX-License-Identifier: MIT\r\npragma solidity ^0.8.17;\r\n\r\nimport \"./libraries/Errors.sol\";\r\n\r\nimport \"./interfaces/IPriceFeed.sol\";\r\n\r\nimport \"@openzeppelin/contracts/access/Ownable2Step.sol\";\r\nimport \"@chainlink/contracts/src/v0.8/interfaces/AggregatorV3Interface.sol\";\r\n\r\ncontract PriceFeed is Ownable2Step, IPriceFeed {\r\n    mapping(address => address) feedAddresses;\r\n\r\n    address private USD;\r\n\r\n    event PriceFeedAdded(\r\n        uint256 timestamp,\r\n        address indexed token,\r\n        address indexed priceFeed\r\n    );\r\n\r\n    constructor() Ownable2Step() {\r\n        feedAddresses[USD] = USD;\r\n    }\r\n\r\n    function addUSDFeed(address usd_) external onlyOwner {\r\n        USD = usd_;\r\n    }\r\n\r\n    /// @dev function for owner to add more price feeds\r\n    function addPriceFeed(address _tokenAddress, address _chainlinkPriceFeed)\r\n        external\r\n        onlyOwner\r\n    {\r\n        feedAddresses[_tokenAddress] = _chainlinkPriceFeed;\r\n        emit PriceFeedAdded(\r\n            block.timestamp,\r\n            _tokenAddress,\r\n            _chainlinkPriceFeed\r\n        );\r\n    }\r\n\r\n    /* Returns the latest price */\r\n    function getLatestPriceUSD(address _tokenAddress)\r\n        public\r\n        view\r\n        override\r\n        returns (uint256, uint8)\r\n    {\r\n        require(\r\n            feedAddresses[_tokenAddress] != address(0),\r\n            \"ERR_TOKEN_ADDRESS\"\r\n        );\r\n\r\n        AggregatorV3Interface priceFeed = AggregatorV3Interface(\r\n            feedAddresses[_tokenAddress]\r\n        );\r\n\r\n        (, int256 answer, , , uint80 decimal) = priceFeed.latestRoundData();\r\n        require(answer > 0, \"ERR_ZERO_ANSWER\");\r\n\r\n        return (uint256(answer), uint8(decimal));\r\n    }\r\n\r\n    function amountInUSD(address _tokenAddress, uint256 _amount)\r\n        public\r\n        view\r\n        override\r\n        returns (uint256)\r\n    {\r\n        return exchangeRate(_tokenAddress, USD, _amount);\r\n    }\r\n\r\n    function exchangeRate(\r\n        address _base,\r\n        address _quote,\r\n        uint256 _amount\r\n    ) public view override returns (uint256) {\r\n        (uint256 basePrice, ) = getLatestPriceUSD(_base);\r\n        (uint256 quotePrice, ) = getLatestPriceUSD(_quote);\r\n\r\n        return (basePrice * _amount) / quotePrice;\r\n    }\r\n}\r\n",
  "sourcePath": "C:\\Users\\DELL\\Documents\\darsh\\smart-contracts\\contracts\\PriceFeed.sol",
  "compiler": {
    "name": "solc",
    "version": "0.8.17+commit.8df45f5f.Emscripten.clang"
  },
  "schemaVersion": "3.4.11",
  "updatedAt": "2023-03-04T17:24:57.134Z",
  "networkType": "ethereum",
  "devdoc": {
    "kind": "dev",
    "methods": {
      "acceptOwnership()": {
        "details": "The new owner accepts the ownership transfer."
      },
      "addPriceFeed(address,address)": {
        "details": "function for owner to add more price feeds"
      },
      "owner()": {
        "details": "Returns the address of the current owner."
      },
      "pendingOwner()": {
        "details": "Returns the address of the pending owner."
      },
      "renounceOwnership()": {
        "details": "Leaves the contract without owner. It will not be possible to call `onlyOwner` functions anymore. Can only be called by the current owner. NOTE: Renouncing ownership will leave the contract without an owner, thereby removing any functionality that is only available to the owner."
      },
      "transferOwnership(address)": {
        "details": "Starts the ownership transfer of the contract to a new account. Replaces the pending transfer if there is one. Can only be called by the current owner."
      }
    },
    "version": 1
  },
  "userdoc": {
    "kind": "user",
    "methods": {},
    "version": 1
  }
}