{
  "contractName": "PriceFeed",
  "abi": [
    {
      "inputs": [],
      "stateMutability": "nonpayable",
      "type": "constructor"
    },
    {
      "anonymous": false,
      "inputs": [
        {
          "indexed": true,
          "internalType": "address",
          "name": "previousOwner",
          "type": "address"
        },
        {
          "indexed": true,
          "internalType": "address",
          "name": "newOwner",
          "type": "address"
        }
      ],
      "name": "OwnershipTransferStarted",
      "type": "event"
    },
    {
      "anonymous": false,
      "inputs": [
        {
          "indexed": true,
          "internalType": "address",
          "name": "previousOwner",
          "type": "address"
        },
        {
          "indexed": true,
          "internalType": "address",
          "name": "newOwner",
          "type": "address"
        }
      ],
      "name": "OwnershipTransferred",
      "type": "event"
    },
    {
      "anonymous": false,
      "inputs": [
        {
          "indexed": false,
          "internalType": "uint256",
          "name": "timestamp",
          "type": "uint256"
        },
        {
          "indexed": true,
          "internalType": "address",
          "name": "token",
          "type": "address"
        },
        {
          "indexed": true,
          "internalType": "address",
          "name": "priceFeed",
          "type": "address"
        }
      ],
      "name": "PriceFeedAdded",
      "type": "event"
    },
    {
      "inputs": [],
      "name": "acceptOwnership",
      "outputs": [],
      "stateMutability": "nonpayable",
      "type": "function"
    },
    {
      "inputs": [],
      "name": "owner",
      "outputs": [
        {
          "internalType": "address",
          "name": "",
          "type": "address"
        }
      ],
      "stateMutability": "view",
      "type": "function"
    },
    {
      "inputs": [],
      "name": "pendingOwner",
      "outputs": [
        {
          "internalType": "address",
          "name": "",
          "type": "address"
        }
      ],
      "stateMutability": "view",
      "type": "function"
    },
    {
      "inputs": [],
      "name": "renounceOwnership",
      "outputs": [],
      "stateMutability": "nonpayable",
      "type": "function"
    },
    {
      "inputs": [
        {
          "internalType": "address",
          "name": "newOwner",
          "type": "address"
        }
      ],
      "name": "transferOwnership",
      "outputs": [],
      "stateMutability": "nonpayable",
      "type": "function"
    },
    {
      "inputs": [
        {
          "internalType": "address",
          "name": "usd_",
          "type": "address"
        }
      ],
      "name": "addUSDFeed",
      "outputs": [],
      "stateMutability": "nonpayable",
      "type": "function"
    },
    {
      "inputs": [
        {
          "internalType": "address",
          "name": "_tokenAddress",
          "type": "address"
        },
        {
          "internalType": "address",
          "name": "_chainlinkPriceFeed",
          "type": "address"
        }
      ],
      "name": "addPriceFeed",
      "outputs": [],
      "stateMutability": "nonpayable",
      "type": "function"
    },
    {
      "inputs": [
        {
          "internalType": "address",
          "name": "_tokenAddress",
          "type": "address"
        }
      ],
      "name": "getLatestPriceUSD",
      "outputs": [
        {
          "internalType": "uint256",
          "name": "",
          "type": "uint256"
        },
        {
          "internalType": "uint8",
          "name": "",
          "type": "uint8"
        }
      ],
      "stateMutability": "view",
      "type": "function"
    },
    {
      "inputs": [
        {
          "internalType": "address",
          "name": "_tokenAddress",
          "type": "address"
        },
        {
          "internalType": "uint256",
          "name": "_amount",
          "type": "uint256"
        }
      ],
      "name": "amountInUSD",
      "outputs": [
        {
          "internalType": "uint256",
          "name": "",
          "type": "uint256"
        }
      ],
      "stateMutability": "view",
      "type": "function"
    },
    {
      "inputs": [
        {
          "internalType": "address",
          "name": "_base",
          "type": "address"
        },
        {
          "internalType": "address",
          "name": "_quote",
          "type": "address"
        },
        {
          "internalType": "uint256",
          "name": "_amount",
          "type": "uint256"
        }
      ],
      "name": "exchangeRate",
      "outputs": [
        {
          "internalType": "uint256",
          "name": "",
          "type": "uint256"
        }
      ],
      "stateMutability": "view",
      "type": "function"
    }
  ],
  "bytecode": "0x6080806040523461006357600180546001600160a01b03199081169091556000805433928116831782556001600160a01b0316907f8be0079c531659141344cd1fd0a4f28419497f9722a3daafe3b4186f6b6457e09080a361068890816100698239f35b600080fdfe604060808152600436101561001357600080fd5b600090813560e01c90816343a7b0c11461039d578163701f66041461036b578163715018a61461030657816379ba5097146102475781638da5cb5b1461021f578163912d228f146101e057816398d423a1146101ac578163e30c397814610183578163e8a97a3e146100fe575063f2fde38b1461008f57600080fd5b346100fb5760203660031901126100fb576100a86103f7565b6100b0610428565b600180546001600160a01b0319166001600160a01b0392831690811790915582549091167f38d16b8cac22d99fc7c124b9cd0de2d3fa1faef420bfe791d8c362d765e227008380a380f35b80fd5b90503461017f578060031936011261017f576101186103f7565b7f1d6faa3aebf3e2db1b9604d052181d2eb65633d2d8f8612f39beacc8e6a8882c6020610143610412565b9361014c610428565b6001600160a01b039384168087526002835281872080546001600160a01b0319169690951695861790945551428152a380f35b5080fd5b90503461017f578160031936011261017f5760015490516001600160a01b039091168152602090f35b82346100fb5760203660031901126100fb575060ff6101d16101cc6103f7565b610497565b83519182529091166020820152f35b90503461017f578060031936011261017f576020906102186102006103f7565b600354602435916001600160a01b03909116906105f4565b9051908152f35b90503461017f578160031936011261017f57905490516001600160a01b039091168152602090f35b90503461017f578160031936011261017f57600154906001600160a01b039033828416036102b157506001600160a01b031991821660015582543392811683178455167f8be0079c531659141344cd1fd0a4f28419497f9722a3daafe3b4186f6b6457e08380a380f35b5162461bcd60e51b815260206004820152602960248201527f4f776e61626c6532537465703a2063616c6c6572206973206e6f7420746865206044820152683732bb9037bbb732b960b91b6064820152608490fd5b82346100fb57806003193601126100fb5761031f610428565b600180546001600160a01b03199081169091558154908116825581906001600160a01b03167f8be0079c531659141344cd1fd0a4f28419497f9722a3daafe3b4186f6b6457e08280a380f35b90503461017f57606036600319011261017f5760209061021861038c6103f7565b610394610412565b604435916105f4565b90503461017f57602036600319011261017f576103b86103f7565b6103c0610428565b60018060a01b03166bffffffffffffffffffffffff60a01b9181836003541617600355818452600260205283209182541617905580f35b600435906001600160a01b038216820361040d57565b600080fd5b602435906001600160a01b038216820361040d57565b6000546001600160a01b0316330361043c57565b606460405162461bcd60e51b815260206004820152602060248201527f4f776e61626c653a2063616c6c6572206973206e6f7420746865206f776e65726044820152fd5b519069ffffffffffffffffffff8216820361040d57565b9060018060a01b038092166000928184526002602052604091818386205416156105bc5784526002602052818420548251633fabe5a360e21b8152929160a09184916004918391165afa9384156105b15780928195610536575b5082131561050157509160ff1690565b5162461bcd60e51b815260206004820152600f60248201526e22a9292fad22a927afa0a729aba2a960891b6044820152606490fd5b9250935060a03d81116105aa575b601f8101601f1916830167ffffffffffffffff8111848210176105965760a09184918452810103126105925761057982610480565b5061058b608060208401519301610480565b93386104f1565b8380fd5b634e487b7160e01b86526041600452602486fd5b503d610544565b9051903d90823e3d90fd5b825162461bcd60e51b81526020600482015260116024820152704552525f544f4b454e5f4144445245535360781b6044820152606490fd5b61060361060a91939293610497565b5092610497565b509181810291818304149015171561063c578115610626570490565b634e487b7160e01b600052601260045260246000fd5b634e487b7160e01b600052601160045260246000fdfea2646970667358221220611f62f85a32a773c436bc375a0873ab4f582ae98b68638cab4032f0c9ba54ff64736f6c63430008110033",
  "immutableReferences": {},
  "source": "// SPDX-License-Identifier: MIT\r\npragma solidity ^0.8.17;\r\n\r\nimport \"./libraries/Errors.sol\";\r\n\r\nimport \"./interfaces/IPriceFeed.sol\";\r\n\r\nimport \"@openzeppelin/contracts/access/Ownable2Step.sol\";\r\nimport \"@chainlink/contracts/src/v0.8/interfaces/AggregatorV3Interface.sol\";\r\n\r\ncontract PriceFeed is Ownable2Step, IPriceFeed {\r\n    mapping(address => address) feedAddresses;\r\n\r\n    address private USD;\r\n\r\n    event PriceFeedAdded(\r\n        uint256 timestamp,\r\n        address indexed token,\r\n        address indexed priceFeed\r\n    );\r\n\r\n    constructor() Ownable2Step() {}\r\n\r\n    function addUSDFeed(address usd_) external onlyOwner {\r\n        USD = usd_;\r\n        feedAddresses[usd_] = usd_;\r\n    }\r\n\r\n    /// @dev function for owner to add more price feeds\r\n    function addPriceFeed(address _tokenAddress, address _chainlinkPriceFeed)\r\n        external\r\n        onlyOwner\r\n    {\r\n        feedAddresses[_tokenAddress] = _chainlinkPriceFeed;\r\n        emit PriceFeedAdded(\r\n            block.timestamp,\r\n            _tokenAddress,\r\n            _chainlinkPriceFeed\r\n        );\r\n    }\r\n\r\n    /* Returns the latest price */\r\n    function getLatestPriceUSD(address _tokenAddress)\r\n        public\r\n        view\r\n        override\r\n        returns (uint256, uint8)\r\n    {\r\n        require(\r\n            feedAddresses[_tokenAddress] != address(0),\r\n            \"ERR_TOKEN_ADDRESS\"\r\n        );\r\n\r\n        AggregatorV3Interface priceFeed = AggregatorV3Interface(\r\n            feedAddresses[_tokenAddress]\r\n        );\r\n\r\n        (, int256 answer, , , uint80 decimal) = priceFeed.latestRoundData();\r\n        require(answer > 0, \"ERR_ZERO_ANSWER\");\r\n\r\n        return (uint256(answer), uint8(decimal));\r\n    }\r\n\r\n    function amountInUSD(address _tokenAddress, uint256 _amount)\r\n        public\r\n        view\r\n        override\r\n        returns (uint256)\r\n    {\r\n        return exchangeRate(_tokenAddress, USD, _amount);\r\n    }\r\n\r\n    function exchangeRate(\r\n        address _base,\r\n        address _quote,\r\n        uint256 _amount\r\n    ) public view override returns (uint256) {\r\n        (uint256 basePrice, ) = getLatestPriceUSD(_base);\r\n        (uint256 quotePrice, ) = getLatestPriceUSD(_quote);\r\n\r\n        return (basePrice * _amount) / quotePrice;\r\n    }\r\n}\r\n",
  "sourcePath": "C:\\Users\\DELL\\Documents\\darsh\\smart-contracts\\contracts\\PriceFeed.sol",
  "compiler": {
    "name": "solc",
    "version": "0.8.17+commit.8df45f5f.Emscripten.clang"
  },
  "schemaVersion": "3.4.11",
  "updatedAt": "2023-03-06T17:44:41.158Z",
  "devdoc": {
    "kind": "dev",
    "methods": {
      "acceptOwnership()": {
        "details": "The new owner accepts the ownership transfer."
      },
      "addPriceFeed(address,address)": {
        "details": "function for owner to add more price feeds"
      },
      "owner()": {
        "details": "Returns the address of the current owner."
      },
      "pendingOwner()": {
        "details": "Returns the address of the pending owner."
      },
      "renounceOwnership()": {
        "details": "Leaves the contract without owner. It will not be possible to call `onlyOwner` functions anymore. Can only be called by the current owner. NOTE: Renouncing ownership will leave the contract without an owner, thereby removing any functionality that is only available to the owner."
      },
      "transferOwnership(address)": {
        "details": "Starts the ownership transfer of the contract to a new account. Replaces the pending transfer if there is one. Can only be called by the current owner."
      }
    },
    "version": 1
  },
  "userdoc": {
    "kind": "user",
    "methods": {},
    "version": 1
  }
}