{
  "contractName": "PriceFeed",
  "abi": [
    {
      "inputs": [],
      "stateMutability": "nonpayable",
      "type": "constructor"
    },
    {
      "anonymous": false,
      "inputs": [
        {
          "indexed": true,
          "internalType": "address",
          "name": "previousOwner",
          "type": "address"
        },
        {
          "indexed": true,
          "internalType": "address",
          "name": "newOwner",
          "type": "address"
        }
      ],
      "name": "OwnershipTransferStarted",
      "type": "event"
    },
    {
      "anonymous": false,
      "inputs": [
        {
          "indexed": true,
          "internalType": "address",
          "name": "previousOwner",
          "type": "address"
        },
        {
          "indexed": true,
          "internalType": "address",
          "name": "newOwner",
          "type": "address"
        }
      ],
      "name": "OwnershipTransferred",
      "type": "event"
    },
    {
      "anonymous": false,
      "inputs": [
        {
          "indexed": false,
          "internalType": "uint256",
          "name": "timestamp",
          "type": "uint256"
        },
        {
          "indexed": true,
          "internalType": "address",
          "name": "token",
          "type": "address"
        },
        {
          "indexed": true,
          "internalType": "address",
          "name": "priceFeed",
          "type": "address"
        }
      ],
      "name": "PriceFeedAdded",
      "type": "event"
    },
    {
      "inputs": [],
      "name": "acceptOwnership",
      "outputs": [],
      "stateMutability": "nonpayable",
      "type": "function"
    },
    {
      "inputs": [],
      "name": "owner",
      "outputs": [
        {
          "internalType": "address",
          "name": "",
          "type": "address"
        }
      ],
      "stateMutability": "view",
      "type": "function"
    },
    {
      "inputs": [],
      "name": "pendingOwner",
      "outputs": [
        {
          "internalType": "address",
          "name": "",
          "type": "address"
        }
      ],
      "stateMutability": "view",
      "type": "function"
    },
    {
      "inputs": [],
      "name": "renounceOwnership",
      "outputs": [],
      "stateMutability": "nonpayable",
      "type": "function"
    },
    {
      "inputs": [
        {
          "internalType": "address",
          "name": "newOwner",
          "type": "address"
        }
      ],
      "name": "transferOwnership",
      "outputs": [],
      "stateMutability": "nonpayable",
      "type": "function"
    },
    {
      "inputs": [
        {
          "internalType": "address",
          "name": "token",
          "type": "address"
        },
        {
          "internalType": "address",
          "name": "feed",
          "type": "address"
        }
      ],
      "name": "addPriceFeed",
      "outputs": [],
      "stateMutability": "nonpayable",
      "type": "function"
    },
    {
      "inputs": [
        {
          "internalType": "address",
          "name": "token",
          "type": "address"
        }
      ],
      "name": "getLatestPriceUSD",
      "outputs": [
        {
          "internalType": "uint256",
          "name": "",
          "type": "uint256"
        },
        {
          "internalType": "uint8",
          "name": "",
          "type": "uint8"
        }
      ],
      "stateMutability": "view",
      "type": "function"
    },
    {
      "inputs": [
        {
          "internalType": "address",
          "name": "token",
          "type": "address"
        },
        {
          "internalType": "uint256",
          "name": "amount",
          "type": "uint256"
        }
      ],
      "name": "amountInUSD",
      "outputs": [
        {
          "internalType": "uint256",
          "name": "",
          "type": "uint256"
        }
      ],
      "stateMutability": "view",
      "type": "function"
    },
    {
      "inputs": [
        {
          "internalType": "address",
          "name": "base",
          "type": "address"
        },
        {
          "internalType": "address",
          "name": "quote",
          "type": "address"
        },
        {
          "internalType": "uint256",
          "name": "amount",
          "type": "uint256"
        }
      ],
      "name": "exchangeRate",
      "outputs": [
        {
          "internalType": "uint256",
          "name": "",
          "type": "uint256"
        }
      ],
      "stateMutability": "view",
      "type": "function"
    }
  ],
  "bytecode": "0x6080806040523461007d57739bb8a6dcd83e36726cc230a97f1af8a84ae5f12860018060a01b031980600154166001556000543382821617600055339060018060a01b03167f8be0079c531659141344cd1fd0a4f28419497f9722a3daafe3b4186f6b6457e0600080a3600354161760035561062390816100838239f35b600080fdfe604060808152600436101561001357600080fd5b600090813560e01c908163701f660414610360578163715018a6146102fb57816379ba50971461023c5781638da5cb5b14610214578163912d228f146101d557816398d423a1146101a1578163e30c397814610178578163e8a97a3e146100f3575063f2fde38b1461008457600080fd5b346100f05760203660031901126100f05761009d610392565b6100a56103c3565b600180546001600160a01b0319166001600160a01b0392831690811790915582549091167f38d16b8cac22d99fc7c124b9cd0de2d3fa1faef420bfe791d8c362d765e227008380a380f35b80fd5b90503461017457806003193601126101745761010d610392565b7f1d6faa3aebf3e2db1b9604d052181d2eb65633d2d8f8612f39beacc8e6a8882c60206101386103ad565b936101416103c3565b6001600160a01b039384168087526002835281872080546001600160a01b0319169690951695861790945551428152a380f35b5080fd5b90503461017457816003193601126101745760015490516001600160a01b039091168152602090f35b82346100f05760203660031901126100f0575060ff6101c66101c1610392565b610432565b83519182529091166020820152f35b90503461017457806003193601126101745760209061020d6101f5610392565b600354602435916001600160a01b039091169061058f565b9051908152f35b905034610174578160031936011261017457905490516001600160a01b039091168152602090f35b905034610174578160031936011261017457600154906001600160a01b039033828416036102a657506001600160a01b031991821660015582543392811683178455167f8be0079c531659141344cd1fd0a4f28419497f9722a3daafe3b4186f6b6457e08380a380f35b5162461bcd60e51b815260206004820152602960248201527f4f776e61626c6532537465703a2063616c6c6572206973206e6f7420746865206044820152683732bb9037bbb732b960b91b6064820152608490fd5b82346100f057806003193601126100f0576103146103c3565b600180546001600160a01b03199081169091558154908116825581906001600160a01b03167f8be0079c531659141344cd1fd0a4f28419497f9722a3daafe3b4186f6b6457e08280a380f35b9050346101745760603660031901126101745760209061020d610381610392565b6103896103ad565b6044359161058f565b600435906001600160a01b03821682036103a857565b600080fd5b602435906001600160a01b03821682036103a857565b6000546001600160a01b031633036103d757565b606460405162461bcd60e51b815260206004820152602060248201527f4f776e61626c653a2063616c6c6572206973206e6f7420746865206f776e65726044820152fd5b519069ffffffffffffffffffff821682036103a857565b9060018060a01b038092166000928184526002602052604091818386205416156105575784526002602052818420548251633fabe5a360e21b8152929160a09184916004918391165afa93841561054c57809281956104d1575b5082131561049c57509160ff1690565b5162461bcd60e51b815260206004820152600f60248201526e22a9292fad22a927afa0a729aba2a960891b6044820152606490fd5b9250935060a03d8111610545575b601f8101601f1916830167ffffffffffffffff8111848210176105315760a091849184528101031261052d576105148261041b565b5061052660806020840151930161041b565b933861048c565b8380fd5b634e487b7160e01b86526041600452602486fd5b503d6104df565b9051903d90823e3d90fd5b825162461bcd60e51b81526020600482015260116024820152704552525f544f4b454e5f4144445245535360781b6044820152606490fd5b61059e6105a591939293610432565b5092610432565b50918181029181830414901517156105d75781156105c1570490565b634e487b7160e01b600052601260045260246000fd5b634e487b7160e01b600052601160045260246000fdfea2646970667358221220c7302d21503db165dc259be0b64ee654cf6e0e3da68cde82ecffde1887d8392e64736f6c63430008110033",
  "immutableReferences": {},
  "source": "// SPDX-License-Identifier: GPL-3.0\r\npragma solidity >=0.7.0 <0.9.0;\r\n\r\nimport \"./libraries/Errors.sol\";\r\nimport \"./interfaces/IPriceFeed.sol\";\r\n\r\nimport \"@openzeppelin/contracts/access/Ownable2Step.sol\";\r\nimport \"@chainlink/contracts/src/v0.8/interfaces/AggregatorV3Interface.sol\";\r\n\r\n// WBTC/USD -> 0x65E8d79f3e8e36fE48eC31A2ae935e92F5bBF529\r\n// WETH/USD -> 0xB8C458C957a6e6ca7Cc53eD95bEA548c52AFaA24\r\n// FTM/USD -> 0xe04676B9A9A2973BCb0D1478b5E1E9098BBB7f3D\r\n\r\n// USDT/USD -> 0x9BB8A6dcD83E36726Cc230a97F1AF8a84ae5F128\r\n// USDC/USD -> 0x9BB8A6dcD83E36726Cc230a97F1AF8a84ae5F128\r\n// DAI/USD -> 0x9BB8A6dcD83E36726Cc230a97F1AF8a84ae5F128\r\n\r\ncontract PriceFeed is Ownable2Step, IPriceFeed {\r\n    mapping(address => address) feedAddresses;\r\n    address USD = 0x9BB8A6dcD83E36726Cc230a97F1AF8a84ae5F128;\r\n\r\n    event PriceFeedAdded(\r\n        uint256 timestamp,\r\n        address indexed token,\r\n        address indexed priceFeed\r\n    );\r\n\r\n    constructor() Ownable2Step() {}\r\n\r\n    /// @dev function for owner to add more price feeds\r\n    function addPriceFeed(address token, address feed) external onlyOwner {\r\n        feedAddresses[token] = feed;\r\n        emit PriceFeedAdded(block.timestamp, token, feed);\r\n    }\r\n\r\n    /* Returns the latest price */\r\n    function getLatestPriceUSD(address token)\r\n        public\r\n        view\r\n        override\r\n        returns (uint256, uint8)\r\n    {\r\n        require(feedAddresses[token] != address(0), \"ERR_TOKEN_ADDRESS\");\r\n\r\n        AggregatorV3Interface priceFeed = AggregatorV3Interface(\r\n            feedAddresses[token]\r\n        );\r\n\r\n        (, int256 answer, , , uint80 decimal) = priceFeed.latestRoundData();\r\n        require(answer > 0, \"ERR_ZERO_ANSWER\");\r\n\r\n        return (uint256(answer), uint8(decimal));\r\n    }\r\n\r\n    function amountInUSD(address token, uint256 amount)\r\n        public\r\n        view\r\n        override\r\n        returns (uint256)\r\n    {\r\n        return exchangeRate(token, USD, amount);\r\n    }\r\n\r\n    function exchangeRate(\r\n        address base,\r\n        address quote,\r\n        uint256 amount\r\n    ) public view override returns (uint256) {\r\n        (uint256 basePrice, ) = getLatestPriceUSD(base);\r\n        (uint256 quotePrice, ) = getLatestPriceUSD(quote);\r\n\r\n        return (basePrice * amount) / quotePrice;\r\n    }\r\n}\r\n",
  "sourcePath": "C:\\Users\\DELL\\Documents\\darsh\\smart-contracts\\contracts\\PriceFeed.sol",
  "compiler": {
    "name": "solc",
    "version": "0.8.17+commit.8df45f5f.Emscripten.clang"
  },
  "schemaVersion": "3.4.11",
  "updatedAt": "2023-02-11T17:40:35.435Z",
  "devdoc": {
    "kind": "dev",
    "methods": {
      "acceptOwnership()": {
        "details": "The new owner accepts the ownership transfer."
      },
      "addPriceFeed(address,address)": {
        "details": "function for owner to add more price feeds"
      },
      "owner()": {
        "details": "Returns the address of the current owner."
      },
      "pendingOwner()": {
        "details": "Returns the address of the pending owner."
      },
      "renounceOwnership()": {
        "details": "Leaves the contract without owner. It will not be possible to call `onlyOwner` functions anymore. Can only be called by the current owner. NOTE: Renouncing ownership will leave the contract without an owner, thereby removing any functionality that is only available to the owner."
      },
      "transferOwnership(address)": {
        "details": "Starts the ownership transfer of the contract to a new account. Replaces the pending transfer if there is one. Can only be called by the current owner."
      }
    },
    "version": 1
  },
  "userdoc": {
    "kind": "user",
    "methods": {},
    "version": 1
  }
}