{
  "contractName": "SimpleMath",
  "abi": [
    {
      "inputs": [
        {
          "internalType": "uint256",
          "name": "total",
          "type": "uint256"
        },
        {
          "internalType": "uint256",
          "name": "percent",
          "type": "uint256"
        }
      ],
      "name": "percentageOf",
      "outputs": [
        {
          "internalType": "uint256",
          "name": "",
          "type": "uint256"
        }
      ],
      "stateMutability": "pure",
      "type": "function"
    }
  ],
  "bytecode": "0x608080604052346100195760b7908161001f823930815050f35b600080fdfe60806040526004361015601157600080fd5b60003560e01c63b71051e214602557600080fd5b60403660031901126046576020603e602435600435604b565b604051908152f35b600080fd5b8115607c578181029181830414901517156066576064900490565b634e487b7160e01b600052601160045260246000fd5b90509056fea2646970667358221220d9a805db980d0435262bae37595f644b1ca3a72adba4765d545d93420230ddbb64736f6c63430008110033",
  "immutableReferences": {},
  "source": "// SPDX-License-Identifier: GPL-3.0\r\npragma solidity >=0.7.0 <0.9.0;\r\n\r\nlibrary SimpleMath {\r\n\r\n    function percentageOf(uint256 total, uint256 percent) public pure returns(uint256) {\r\n        if (percent == 0) return total;\r\n        return (total * percent) / 100;\r\n    }\r\n\r\n    function minimumBetween(uint256 a, uint256 b)\r\n        private\r\n        pure\r\n        returns (uint256)\r\n    {\r\n        if (b > a) return a;\r\n        return b;\r\n    }\r\n\r\n}",
  "sourcePath": "C:\\Users\\DELL\\Documents\\darsh\\smart-contracts\\contracts\\math\\SimpleMath.sol",
  "compiler": {
    "name": "solc",
    "version": "0.8.17+commit.8df45f5f.Emscripten.clang"
  },
  "schemaVersion": "3.4.11",
  "updatedAt": "2023-02-04T12:11:30.921Z",
  "devdoc": {
    "kind": "dev",
    "methods": {},
    "version": 1
  },
  "userdoc": {
    "kind": "user",
    "methods": {},
    "version": 1
  }
}