{
  "contractName": "StakingFeed",
  "abi": [
    {
      "inputs": [
        {
          "internalType": "address",
          "name": "token",
          "type": "address"
        }
      ],
      "name": "getAPY",
      "outputs": [
        {
          "internalType": "uint256",
          "name": "",
          "type": "uint256"
        }
      ],
      "stateMutability": "pure",
      "type": "function"
    }
  ],
  "bytecode": "0x60808060405234601457608b908161001a8239f35b600080fdfe6080806040526004361015601257600080fd5b600090813560e01c63c4f9870b14602857600080fd5b3460515760203660031901126051576004356001600160a01b0381160360515780600260209252f35b5080fdfea26469706673582212207e6bda6ca0dc79d1af447114c1661a62024e4b0ca1bead9eae7cc721ed67411864736f6c63430008110033",
  "immutableReferences": {},
  "source": "// SPDX-License-Identifier: GPL-3.0\r\npragma solidity >=0.7.0 <0.9.0;\r\n\r\ncontract StakingFeed {\r\n\r\n    function getAPY(address token) public pure returns(uint) {\r\n        return 2;\r\n    }\r\n\r\n}",
  "sourcePath": "C:\\Users\\DELL\\Documents\\darsh\\smart-contracts\\contracts\\data\\StakingFeed.sol",
  "compiler": {
    "name": "solc",
    "version": "0.8.17+commit.8df45f5f.Emscripten.clang"
  },
  "schemaVersion": "3.4.11",
  "updatedAt": "2023-02-11T06:38:09.113Z",
  "devdoc": {
    "kind": "dev",
    "methods": {},
    "version": 1
  },
  "userdoc": {
    "kind": "user",
    "methods": {},
    "version": 1
  }
}