{
  "contractName": "StakingManager",
  "abi": [
    {
      "inputs": [
        {
          "internalType": "address",
          "name": "stakingFeed_",
          "type": "address"
        }
      ],
      "stateMutability": "nonpayable",
      "type": "constructor"
    },
    {
      "anonymous": false,
      "inputs": [
        {
          "indexed": false,
          "internalType": "address",
          "name": "user",
          "type": "address"
        },
        {
          "indexed": false,
          "internalType": "address",
          "name": "token",
          "type": "address"
        },
        {
          "indexed": false,
          "internalType": "uint256",
          "name": "amount",
          "type": "uint256"
        },
        {
          "indexed": false,
          "internalType": "uint256",
          "name": "date",
          "type": "uint256"
        }
      ],
      "name": "RewardClaimed",
      "type": "event"
    },
    {
      "inputs": [
        {
          "internalType": "address",
          "name": "",
          "type": "address"
        },
        {
          "internalType": "uint256",
          "name": "",
          "type": "uint256"
        }
      ],
      "name": "rewards",
      "outputs": [
        {
          "internalType": "address",
          "name": "token",
          "type": "address"
        },
        {
          "internalType": "uint256",
          "name": "amount",
          "type": "uint256"
        },
        {
          "internalType": "uint256",
          "name": "amount24",
          "type": "uint256"
        },
        {
          "internalType": "uint256",
          "name": "reward",
          "type": "uint256"
        }
      ],
      "stateMutability": "view",
      "type": "function"
    },
    {
      "inputs": [
        {
          "internalType": "address",
          "name": "token",
          "type": "address"
        }
      ],
      "name": "balance",
      "outputs": [
        {
          "internalType": "uint256",
          "name": "",
          "type": "uint256"
        }
      ],
      "stateMutability": "view",
      "type": "function"
    },
    {
      "inputs": [
        {
          "internalType": "address",
          "name": "user",
          "type": "address"
        },
        {
          "internalType": "address",
          "name": "token",
          "type": "address"
        }
      ],
      "name": "balanceOf",
      "outputs": [
        {
          "internalType": "uint256",
          "name": "",
          "type": "uint256"
        }
      ],
      "stateMutability": "view",
      "type": "function"
    },
    {
      "inputs": [
        {
          "internalType": "address",
          "name": "from",
          "type": "address"
        },
        {
          "internalType": "address",
          "name": "to",
          "type": "address"
        },
        {
          "internalType": "address",
          "name": "token",
          "type": "address"
        },
        {
          "internalType": "uint256",
          "name": "amount",
          "type": "uint256"
        }
      ],
      "name": "transferLiquidityTo",
      "outputs": [
        {
          "internalType": "bool",
          "name": "",
          "type": "bool"
        }
      ],
      "stateMutability": "nonpayable",
      "type": "function"
    },
    {
      "inputs": [
        {
          "internalType": "address",
          "name": "user",
          "type": "address"
        },
        {
          "internalType": "address",
          "name": "token",
          "type": "address"
        },
        {
          "internalType": "uint256",
          "name": "amount",
          "type": "uint256"
        }
      ],
      "name": "provideLiquidityFor",
      "outputs": [
        {
          "internalType": "bool",
          "name": "",
          "type": "bool"
        }
      ],
      "stateMutability": "nonpayable",
      "type": "function"
    },
    {
      "inputs": [
        {
          "internalType": "address",
          "name": "user",
          "type": "address"
        },
        {
          "internalType": "address",
          "name": "token",
          "type": "address"
        },
        {
          "internalType": "uint256",
          "name": "amount",
          "type": "uint256"
        }
      ],
      "name": "withdrawLiquidityFor",
      "outputs": [
        {
          "internalType": "bool",
          "name": "",
          "type": "bool"
        }
      ],
      "stateMutability": "nonpayable",
      "type": "function"
    },
    {
      "inputs": [
        {
          "internalType": "address",
          "name": "token",
          "type": "address"
        },
        {
          "internalType": "uint256",
          "name": "amount",
          "type": "uint256"
        }
      ],
      "name": "claimEarnings",
      "outputs": [
        {
          "internalType": "bool",
          "name": "",
          "type": "bool"
        }
      ],
      "stateMutability": "nonpayable",
      "type": "function"
    },
    {
      "inputs": [
        {
          "internalType": "address",
          "name": "token",
          "type": "address"
        }
      ],
      "name": "getAPY",
      "outputs": [
        {
          "internalType": "uint256",
          "name": "",
          "type": "uint256"
        }
      ],
      "stateMutability": "view",
      "type": "function"
    }
  ],
  "bytecode": "0x60803461007457601f61093238819003918201601f19168301916001600160401b038311848410176100795780849260209460405283398101031261007457516001600160a01b0381169081900361007457600480546001600160a01b0319169190911790556040516108a290816100908239f35b600080fd5b634e487b7160e01b600052604160045260246000fdfe604060808152600436101561001357600080fd5b600090813560e01c806323138276146102f95780635f62f129146102de5780636a257bbe146102ad578063b933ceac14610236578063c4f9870b1461016f578063e3d670d714610134578063f773d4cd146100ae5763f7888aec1461007757600080fd5b346100aa57806003193601126100aa576020906100a3610095610314565b61009d61032f565b906103d1565b9051908152f35b5080fd5b50346100aa5760803660031901126100aa576100c8610314565b6100d061032f565b906001600160a01b039060443590828216820361012c5760643592831561013057808516156101305781161561012c57828261010b92610627565b15610128576101199261045a565b156100aa576020905160018152f35b8480fd5b8580fd5b8680fd5b50346100aa5760203660031901126100aa5760209160019082906001600160a01b0361015e610314565b168152600285522001549051908152f35b50903461020d57602091826003193601126100aa5761018c610314565b8360018060a01b0360248160045416938551948593849263c4f9870b60e01b84521660048301525afa92831561022b5780936101cb575b505051908152f35b90919250833d8511610224575b601f8101601f1916830167ffffffffffffffff811184821017610210578591849186528101031261020d5750519038806101c3565b80fd5b634e487b7160e01b83526041600452602483fd5b503d6101d8565b8251903d90823e3d90fd5b50346100aa57806003193601126100aa5761024f610314565b6001600160a01b03908116835260036020528183208054602435949293929085101561020d57506080936102829161037a565b5091825416916001810154916003600283015492015492815194855260208501528301526060820152f35b50346100aa57806003193601126100aa576020906102d56102cc610314565b60243590610786565b90519015158152f35b50346100aa576020906102d56102f336610345565b9161045a565b50346100aa576020906102d561030e36610345565b91610627565b600435906001600160a01b038216820361032a57565b600080fd5b602435906001600160a01b038216820361032a57565b606090600319011261032a576001600160a01b0390600435828116810361032a5791602435908116810361032a579060443590565b80548210156103965760005260206000209060021b0190600090565b634e487b7160e01b600052603260045260246000fd5b60001981146103bb5760010190565b634e487b7160e01b600052601160045260246000fd5b60005b60018060a01b038083168060005260039060209082825260409384600020548610156104405780610408878760002061037a565b505416908816146104255750505050610420906103ac565b6103d4565b6001965061043a95506000525260002061037a565b50015490565b5050505050505050600090565b919082018092116103bb57565b9192909260005b60018060a01b038085168060005260039060209082825260409384600020548610156104e25780610495878760002061037a565b505416908a16146104b257505050506104ad906103ac565b610461565b909192939496506104cb9597506000525260002061037a565b50906104dd600180930191825461044d565b905590565b50505050505090929160018060a01b038093169182600052600260205260408060002092835493680100000000000000009485811015610604576001810180835581101561039657879160005260206000200191166bffffffffffffffffffffffff60a01b9181838254161790558560005260026020526001836000200161056b85825461044d565b90556000526003602052816000208251956080870187811067ffffffffffffffff821117610604578452865260208601928484528601938452606086019460008652815490811015610604576105c69160018201815561037a565b9690966105ee5760039551169086541617855551600185015551600284015551910155600190565b634e487b7160e01b600052600060045260246000fd5b634e487b7160e01b600052604160045260246000fd5b919082039182116103bb57565b909160005b6001600160a01b0383811660008181526003602081815260409283902054919493918610156107785783610663878560002061037a565b50541693891680941461068357505050505061067e906103ac565b61062c565b91939750809295965060005286815261069f848460002061037a565b5096866001809901541061044057879483600052818352856106c4828760002061037a565b50016106d189825461061a565b905583600052818352856106e8828760002061037a565b5001549380600052828452610700828760002061037a565b5094600280960155806000528284528661071d838860002061037a565b5001541561073d575b5050506104dd94600052526000200191825461061a565b6107529296506000528583528460002061037a565b9590956105ee576000889587826104dd9955828882015582868201550155943880610726565b505050505050505050600090565b90801561032a5760005b336000526003602081815260408060002054841015610861576107b6848260002061037a565b50546001600160a01b03878116911681146107dd57505050506107d8906103ac565b610790565b909193949295503360005285845282866107fa878560002061037a565b50015410610861577f7a84a08b02c91f3c62d572853f966fc799bbd121e8ad7833a4494ab8dcfcb4049561083a608096336000528287528460002061037a565b500161084784825461061a565b9055815193338552840152820152426060820152a1600190565b50505050505060009056fea26469706673582212202b48e6c17777e2aa52315f921fa1787b4d819273c3a60c6b7f17ac52aec96c0964736f6c63430008110033",
  "immutableReferences": {},
  "source": "// SPDX-License-Identifier: GPL-3.0\r\npragma solidity >=0.7.0 <0.9.0;\r\n\r\nimport \"../data/StakingFeed.sol\";\r\nimport \"../libraries/AssetLibrary.sol\";\r\nimport \"../interfaces/IStakingManager.sol\";\r\n\r\ncontract StakingManager is IStakingManager {\r\n    uint256 private _rewardFee;\r\n    mapping(address => uint256) private _last24HAPY;\r\n\r\n    // token address => reserve\r\n    mapping(address => AssetLibrary.Reserve) private reserves;\r\n\r\n    // user'swallet address => rewards\r\n    mapping(address => AssetLibrary.StakingReward[]) public rewards;\r\n\r\n    // provides data for staking manager\r\n    // from example the current APY\r\n    StakingFeed private _stakingFeed;\r\n\r\n    event RewardClaimed(\r\n        address user,\r\n        address token,\r\n        uint256 amount,\r\n        uint256 date\r\n    );\r\n\r\n    constructor(address stakingFeed_) {\r\n        _stakingFeed = StakingFeed(stakingFeed_);\r\n    }\r\n\r\n    // get balance of a reverse token by it's address\r\n    function balance(address token) public view override returns (uint256) {\r\n        return reserves[token].total;\r\n    }\r\n\r\n    // get user's balance\r\n    function balanceOf(address user, address token)\r\n        public\r\n        view\r\n        override\r\n        returns (uint256)\r\n    {\r\n        for (uint256 index = 0; index < rewards[user].length; index++) {\r\n            if (rewards[user][index].token == token) {\r\n                return rewards[user][index].amount;\r\n            }\r\n        }\r\n\r\n        return 0;\r\n    }\r\n\r\n    // transfer staking balance and consecutive rewards from\r\n    // a user to another user\r\n    // a use case is when a staked token is used as collateral\r\n    // when executing a loan contract\r\n    function transferLiquidityTo(\r\n        address from,\r\n        address to,\r\n        address token,\r\n        uint256 amount\r\n    ) external returns (bool) {\r\n        require(amount > 0);\r\n        require(to != address(0));\r\n        require(from != address(0));\r\n        require(withdrawLiquidityFor(from, token, amount));\r\n        require(provideLiquidityFor(to, token, amount));\r\n        return true;\r\n    }\r\n\r\n    function provideLiquidityFor(\r\n        address user,\r\n        address token,\r\n        uint256 amount\r\n    ) public returns (bool) { // onlyOwner\r\n        for (uint256 index = 0; index < rewards[user].length; index++) {\r\n            if (rewards[user][index].token == token) {\r\n                rewards[user][index].amount += amount;\r\n                return true;\r\n            }\r\n        }\r\n\r\n        reserves[token].providers.push(user);\r\n        reserves[token].total += amount;\r\n        rewards[user].push(\r\n            AssetLibrary.StakingReward(token, amount, amount, 0)\r\n        );\r\n        return true;\r\n    }\r\n\r\n    function withdrawLiquidityFor(\r\n        address user,\r\n        address token,\r\n        uint256 amount\r\n    ) public returns (bool) { // onlyOwner\r\n        for (uint256 index = 0; index < rewards[user].length; index++) {\r\n            if (rewards[user][index].token == token) {\r\n                // insuficient amount\r\n                if (rewards[user][index].amount < amount) return false;\r\n\r\n                // withdrawn successful\r\n                rewards[user][index].amount -= amount;\r\n\r\n                // balance amount and safe amount\r\n                rewards[user][index].amount24 = rewards[user][index]\r\n                    .amount;\r\n\r\n                if (rewards[user][index].amount == 0) {\r\n                    delete rewards[user][index];\r\n                }\r\n\r\n                reserves[token].total -= amount;\r\n                return true;\r\n            }\r\n        }\r\n\r\n        return false;\r\n    }\r\n\r\n    // function to claim staking reward\r\n    function claimEarnings(address token, uint256 amount)\r\n        public\r\n        returns (bool)\r\n    { // onlyOwner\r\n        require(amount > 0);\r\n        address user = msg.sender;\r\n\r\n        for (uint256 index = 0; index < rewards[user].length; index++) {\r\n            if (rewards[user][index].token == token) {\r\n                // insuficient amount\r\n                if (rewards[user][index].reward < amount) return false;\r\n\r\n                // withdrawn successful\r\n                rewards[user][index].reward -= amount;\r\n                emit RewardClaimed(user, token, amount, block.timestamp);\r\n                return true;\r\n            }\r\n        }\r\n\r\n        return false;\r\n    }\r\n\r\n    // @params token -> token address\r\n    // @returns APY for token\r\n    function getAPY(address token) public view override returns (uint) {\r\n        return _stakingFeed.getAPY(token);\r\n    }\r\n\r\n    function _getSafeAPY(address token) private view returns (uint256) {\r\n        uint256 _apy = getAPY(token);\r\n        if (_apy > _last24HAPY[token]) return _last24HAPY[token];\r\n        return _apy;\r\n    }\r\n\r\n    function _increaseEarnings(\r\n        address token,\r\n        address user,\r\n        uint256 amount\r\n    ) private returns (bool) {\r\n        for (uint256 index = 0; index < rewards[user].length; index++) {\r\n            if (rewards[user][index].token == token) {\r\n                rewards[user][index].reward += amount;\r\n                return true;\r\n            }\r\n        }\r\n\r\n        return false;\r\n    }\r\n}\r\n",
  "sourcePath": "C:\\Users\\DELL\\Documents\\darsh\\smart-contracts\\contracts\\managers\\StakingManager.sol",
  "compiler": {
    "name": "solc",
    "version": "0.8.17+commit.8df45f5f.Emscripten.clang"
  },
  "schemaVersion": "3.4.11",
  "updatedAt": "2023-02-11T06:38:09.155Z",
  "devdoc": {
    "kind": "dev",
    "methods": {},
    "version": 1
  },
  "userdoc": {
    "kind": "user",
    "methods": {},
    "version": 1
  }
}