{
  "contractName": "TokenFeed",
  "abi": [
    {
      "anonymous": false,
      "inputs": [
        {
          "indexed": true,
          "internalType": "address",
          "name": "previousOwner",
          "type": "address"
        },
        {
          "indexed": true,
          "internalType": "address",
          "name": "newOwner",
          "type": "address"
        }
      ],
      "name": "OwnershipTransferStarted",
      "type": "event"
    },
    {
      "anonymous": false,
      "inputs": [
        {
          "indexed": true,
          "internalType": "address",
          "name": "previousOwner",
          "type": "address"
        },
        {
          "indexed": true,
          "internalType": "address",
          "name": "newOwner",
          "type": "address"
        }
      ],
      "name": "OwnershipTransferred",
      "type": "event"
    },
    {
      "inputs": [],
      "name": "acceptOwnership",
      "outputs": [],
      "stateMutability": "nonpayable",
      "type": "function"
    },
    {
      "inputs": [],
      "name": "nativeAddress",
      "outputs": [
        {
          "internalType": "address",
          "name": "",
          "type": "address"
        }
      ],
      "stateMutability": "view",
      "type": "function"
    },
    {
      "inputs": [],
      "name": "owner",
      "outputs": [
        {
          "internalType": "address",
          "name": "",
          "type": "address"
        }
      ],
      "stateMutability": "view",
      "type": "function"
    },
    {
      "inputs": [],
      "name": "pendingOwner",
      "outputs": [
        {
          "internalType": "address",
          "name": "",
          "type": "address"
        }
      ],
      "stateMutability": "view",
      "type": "function"
    },
    {
      "inputs": [],
      "name": "renounceOwnership",
      "outputs": [],
      "stateMutability": "nonpayable",
      "type": "function"
    },
    {
      "inputs": [
        {
          "internalType": "enum address",
          "name": "",
          "type": "uint8"
        }
      ],
      "name": "tokenAddresses",
      "outputs": [
        {
          "internalType": "address",
          "name": "",
          "type": "address"
        }
      ],
      "stateMutability": "view",
      "type": "function"
    },
    {
      "inputs": [
        {
          "internalType": "address",
          "name": "newOwner",
          "type": "address"
        }
      ],
      "name": "transferOwnership",
      "outputs": [],
      "stateMutability": "nonpayable",
      "type": "function"
    },
    {
      "inputs": [
        {
          "internalType": "enum address",
          "name": "assetType",
          "type": "uint8"
        }
      ],
      "name": "getTokenAddress",
      "outputs": [
        {
          "internalType": "address",
          "name": "",
          "type": "address"
        }
      ],
      "stateMutability": "view",
      "type": "function"
    },
    {
      "inputs": [
        {
          "internalType": "enum address",
          "name": "assetType",
          "type": "uint8"
        },
        {
          "internalType": "address",
          "name": "tokenAddress",
          "type": "address"
        }
      ],
      "name": "setTokenAddress",
      "outputs": [],
      "stateMutability": "nonpayable",
      "type": "function"
    }
  ],
  "bytecode": "0x6080806040523461006357600180546001600160a01b03199081169091556000805433928116831782556001600160a01b0316907f8be0079c531659141344cd1fd0a4f28419497f9722a3daafe3b4186f6b6457e09080a361042b90816100698239f35b600080fdfe60406080815260048036101561001457600080fd5b600091823560e01c908163290060ac146103185781632e476337146102e95781635ad3f918146102ac578163715018a61461024457816379ba5097146101845781638da5cb5b1461015c578163cf0d74371461011f578163e30c3978146100f6575063f2fde38b1461008557600080fd5b346100f25760203660031901126100f257356001600160a01b03818116918290036100ee576100b261039d565b600180546001600160a01b031916831790558254167f38d16b8cac22d99fc7c124b9cd0de2d3fa1faef420bfe791d8c362d765e227008380a380f35b8280fd5b5080fd5b8390346100f257816003193601126100f25760015490516001600160a01b039091168152602090f35b919050346100ee5760203660031901126100ee573560068110156100ee57825260026020908152918190205490516001600160a01b039091168152f35b8390346100f257816003193601126100f257905490516001600160a01b039091168152602090f35b9050346100ee57826003193601126100ee57600154916001600160a01b039133838516036101ef5750506001600160a01b031991821660015582543392811683178455167f8be0079c531659141344cd1fd0a4f28419497f9722a3daafe3b4186f6b6457e08380a380f35b906020608492519162461bcd60e51b8352820152602960248201527f4f776e61626c6532537465703a2063616c6c6572206973206e6f7420746865206044820152683732bb9037bbb732b960b91b6064820152fd5b83346102a957806003193601126102a95761025d61039d565b600180546001600160a01b03199081169091558154908116825581906001600160a01b03167f8be0079c531659141344cd1fd0a4f28419497f9722a3daafe3b4186f6b6457e08280a380f35b80fd5b919050346100ee5760203660031901126100ee573560068110156100ee57602092506001600160a01b03906102e09061036e565b54169051908152f35b8390346100f257816003193601126100f2576020905173eeeeeeeeeeeeeeeeeeeeeeeeeeeeeeeeeeeeeeee8152f35b9050346100ee573660031901126100f2573560068110156100f2576024356001600160a01b03811691908290036100ee5761035a9061035561039d565b61036e565b80546001600160a01b031916909117905580f35b6006811015610387576000526002602052604060002090565b634e487b7160e01b600052602160045260246000fd5b6000546001600160a01b031633036103b157565b606460405162461bcd60e51b815260206004820152602060248201527f4f776e61626c653a2063616c6c6572206973206e6f7420746865206f776e65726044820152fdfea2646970667358221220fc91bc771a2d6892b660e063035b171e706a5f29c5a66642b2772151433af2fb64736f6c63430008110033",
  "immutableReferences": {},
  "source": "// SPDX-License-Identifier: GPL-3.0\r\npragma solidity >=0.7.0 <0.9.0;\r\n\r\nimport \"../libraries/AssetLibrary.sol\";\r\nimport \"@openzeppelin/contracts/access/Ownable2Step.sol\";\r\n\r\n/*\r\n    ChainLink Fantom Testnet Price Feed Addresses.\r\n    For developent purpose.\r\n\r\n    WBTC/USD -> 0x65E8d79f3e8e36fE48eC31A2ae935e92F5bBF529\r\n    WETH/USD -> 0xB8C458C957a6e6ca7Cc53eD95bEA548c52AFaA24\r\n    FTM/USD -> 0xe04676B9A9A2973BCb0D1478b5E1E9098BBB7f3D\r\n\r\n    USDT/USD -> 0x9BB8A6dcD83E36726Cc230a97F1AF8a84ae5F128\r\n    USDC/USD -> 0x9BB8A6dcD83E36726Cc230a97F1AF8a84ae5F128\r\n    DAI/USD -> 0x9BB8A6dcD83E36726Cc230a97F1AF8a84ae5F128\r\n*/\r\n\r\ncontract TokenFeed is Ownable2Step {\r\n    mapping(address => address) public tokenAddresses;\r\n\r\n    address public constant nativeAddress = 0xEeeeeEeeeEeEeeEeEeEeeEEEeeeeEeeeeeeeEEeE;\r\n\r\n    function getTokenAddress(address assetType)\r\n        public\r\n        view\r\n        returns (address)\r\n    {\r\n        return tokenAddresses[assetType];\r\n    }\r\n\r\n    function setTokenAddress(address assetType, address tokenAddress)\r\n        external\r\n        onlyOwner\r\n    {\r\n        tokenAddresses[assetType] = tokenAddress;\r\n    }\r\n}\r\n",
  "sourcePath": "C:\\Users\\DELL\\Documents\\darsh\\smart-contracts\\contracts\\data\\TokenFeed.sol",
  "compiler": {
    "name": "solc",
    "version": "0.8.17+commit.8df45f5f.Emscripten.clang"
  },
  "schemaVersion": "3.4.11",
  "updatedAt": "2023-02-11T06:38:09.115Z",
  "devdoc": {
    "kind": "dev",
    "methods": {
      "acceptOwnership()": {
        "details": "The new owner accepts the ownership transfer."
      },
      "owner()": {
        "details": "Returns the address of the current owner."
      },
      "pendingOwner()": {
        "details": "Returns the address of the pending owner."
      },
      "renounceOwnership()": {
        "details": "Leaves the contract without owner. It will not be possible to call `onlyOwner` functions anymore. Can only be called by the current owner. NOTE: Renouncing ownership will leave the contract without an owner, thereby removing any functionality that is only available to the owner."
      },
      "transferOwnership(address)": {
        "details": "Starts the ownership transfer of the contract to a new account. Replaces the pending transfer if there is one. Can only be called by the current owner."
      }
    },
    "version": 1
  },
  "userdoc": {
    "kind": "user",
    "methods": {},
    "version": 1
  }
}