{
  "contractName": "TrustScore",
  "abi": [
    {
      "inputs": [],
      "stateMutability": "nonpayable",
      "type": "constructor"
    },
    {
      "anonymous": false,
      "inputs": [
        {
          "indexed": true,
          "internalType": "address",
          "name": "previousOwner",
          "type": "address"
        },
        {
          "indexed": true,
          "internalType": "address",
          "name": "newOwner",
          "type": "address"
        }
      ],
      "name": "OwnershipTransferStarted",
      "type": "event"
    },
    {
      "anonymous": false,
      "inputs": [
        {
          "indexed": true,
          "internalType": "address",
          "name": "previousOwner",
          "type": "address"
        },
        {
          "indexed": true,
          "internalType": "address",
          "name": "newOwner",
          "type": "address"
        }
      ],
      "name": "OwnershipTransferred",
      "type": "event"
    },
    {
      "inputs": [],
      "name": "acceptOwnership",
      "outputs": [],
      "stateMutability": "nonpayable",
      "type": "function"
    },
    {
      "inputs": [],
      "name": "owner",
      "outputs": [
        {
          "internalType": "address",
          "name": "",
          "type": "address"
        }
      ],
      "stateMutability": "view",
      "type": "function"
    },
    {
      "inputs": [],
      "name": "pendingOwner",
      "outputs": [
        {
          "internalType": "address",
          "name": "",
          "type": "address"
        }
      ],
      "stateMutability": "view",
      "type": "function"
    },
    {
      "inputs": [
        {
          "internalType": "address",
          "name": "",
          "type": "address"
        }
      ],
      "name": "percentages",
      "outputs": [
        {
          "internalType": "uint256",
          "name": "",
          "type": "uint256"
        }
      ],
      "stateMutability": "view",
      "type": "function"
    },
    {
      "inputs": [],
      "name": "renounceOwnership",
      "outputs": [],
      "stateMutability": "nonpayable",
      "type": "function"
    },
    {
      "inputs": [
        {
          "internalType": "address",
          "name": "newOwner",
          "type": "address"
        }
      ],
      "name": "transferOwnership",
      "outputs": [],
      "stateMutability": "nonpayable",
      "type": "function"
    },
    {
      "inputs": [
        {
          "internalType": "uint256",
          "name": "poorPercentage",
          "type": "uint256"
        },
        {
          "internalType": "uint256",
          "name": "goodPercentage",
          "type": "uint256"
        },
        {
          "internalType": "uint256",
          "name": "excellentPercentage",
          "type": "uint256"
        }
      ],
      "name": "updateScores",
      "outputs": [],
      "stateMutability": "nonpayable",
      "type": "function"
    },
    {
      "inputs": [
        {
          "internalType": "address",
          "name": "user",
          "type": "address"
        },
        {
          "internalType": "uint256",
          "name": "pendingLoans",
          "type": "uint256"
        }
      ],
      "name": "trustGrade",
      "outputs": [
        {
          "internalType": "enum TrustScore.Grade",
          "name": "",
          "type": "uint8"
        },
        {
          "internalType": "uint256",
          "name": "",
          "type": "uint256"
        }
      ],
      "stateMutability": "view",
      "type": "function"
    },
    {
      "inputs": [
        {
          "internalType": "address",
          "name": "user",
          "type": "address"
        },
        {
          "internalType": "uint256",
          "name": "pendingLoans",
          "type": "uint256"
        }
      ],
      "name": "inverseTrustGrade",
      "outputs": [
        {
          "internalType": "enum TrustScore.Grade",
          "name": "",
          "type": "uint8"
        },
        {
          "internalType": "uint256",
          "name": "",
          "type": "uint256"
        }
      ],
      "stateMutability": "view",
      "type": "function"
    }
  ],
  "bytecode": "0x6080806040523461007257600180546001600160a01b03199081169091556000805433928116831782556001600160a01b0316907f8be0079c531659141344cd1fd0a4f28419497f9722a3daafe3b4186f6b6457e09080a3606e600255605a600355605060045561052690816100788239f35b600080fdfe604060808152600436101561001357600080fd5b600090813560e01c908163069108741461032257816315d91def146102df5781634c71d5ca146102a4578163715018a61461023f57816379ba5097146101805781638da5cb5b146101585781639d592c6614610120578163e30c3978146100f3575063f2fde38b1461008457600080fd5b346100f05760203660031901126100f05761009d61034c565b6100a5610397565b600180546001600160a01b0319166001600160a01b0392831690811790915582549091167f38d16b8cac22d99fc7c124b9cd0de2d3fa1faef420bfe791d8c362d765e227008380a380f35b80fd5b90503461011c578160031936011261011c5760015490516001600160a01b039091168152602090f35b5080fd5b90503461011c57602036600319011261011c5760209181906001600160a01b0361014861034c565b1681526005845220549051908152f35b90503461011c578160031936011261011c57905490516001600160a01b039091168152602090f35b90503461011c578160031936011261011c57600154906001600160a01b039033828416036101ea57506001600160a01b031991821660015582543392811683178455167f8be0079c531659141344cd1fd0a4f28419497f9722a3daafe3b4186f6b6457e08380a380f35b5162461bcd60e51b815260206004820152602960248201527f4f776e61626c6532537465703a2063616c6c6572206973206e6f7420746865206044820152683732bb9037bbb732b960b91b6064820152608490fd5b82346100f057806003193601126100f057610258610397565b600180546001600160a01b03199081169091558154908116825581906001600160a01b03167f8be0079c531659141344cd1fd0a4f28419497f9722a3daafe3b4186f6b6457e08280a380f35b90503461011c578060031936011261011c576102db906102ce6102c561034c565b602435906103ef565b9290915192839283610367565b0390f35b82346100f05760603660031901126100f057604435602435600435610302610397565b8181111561031e578282111561031e5760025560035560045580f35b8380fd5b90503461011c578060031936011261011c576102db906102ce61034361034c565b60243590610472565b600435906001600160a01b038216820361036257565b600080fd5b929190604084019360038210156103815760209181520152565b634e487b7160e01b600052602160045260246000fd5b6000546001600160a01b031633036103ab57565b606460405162461bcd60e51b815260206004820152602060248201527f4f776e61626c653a2063616c6c6572206973206e6f7420746865206f776e65726044820152fd5b6001600160a01b03166000908152600560205260409020549081158015610466575b61045c5760035480921015610445576001811115610433575050600254600091565b6104405750600454600291565b600191565b9190916104525760019190565b6002546000925090565b5050600254600091565b50600254821015610411565b6001600160a01b031660009081526005602052604090205490811580156104e4575b6104da57600354809210156104c35760018111156104b6575050600454600291565b6104405750600254600091565b9190916104d05760019190565b6004546002925090565b5050600454600291565b5060025482101561049456fea2646970667358221220a84e25ec63119ce5a325d2dea6f0da74c7c27d91c6ed4b4cd436c796f898d19164736f6c63430008110033",
  "immutableReferences": {},
  "source": "// SPDX-License-Identifier: GPL-3.0\r\npragma solidity >=0.7.0 <0.9.0;\r\n\r\nimport \"@openzeppelin/contracts/access/Ownable2Step.sol\";\r\n\r\ncontract TrustScore is Ownable2Step {\r\n    uint256 private POOR_PERCENTAGE;\r\n    uint256 private GOOD_PERCENTAGE;\r\n    uint256 private EXCELLENT_PERCENTAGE;\r\n\r\n    enum Grade {\r\n        POOR,\r\n        GOOD,\r\n        EXCELLENT\r\n    }\r\n\r\n    mapping(address => uint256) public percentages;\r\n\r\n    constructor() Ownable2Step() {\r\n        POOR_PERCENTAGE = 110;\r\n        GOOD_PERCENTAGE = 90;\r\n        EXCELLENT_PERCENTAGE = 80;\r\n    }\r\n\r\n    function updateScores(\r\n        uint256 poorPercentage,\r\n        uint256 goodPercentage,\r\n        uint256 excellentPercentage\r\n    ) public onlyOwner {\r\n        require(poorPercentage > goodPercentage);\r\n        require(goodPercentage > excellentPercentage);\r\n\r\n        POOR_PERCENTAGE = poorPercentage;\r\n        GOOD_PERCENTAGE = goodPercentage;\r\n        EXCELLENT_PERCENTAGE = excellentPercentage;\r\n    }\r\n\r\n    function trustGrade(address user, uint256 pendingLoans)\r\n        public\r\n        view\r\n        returns (Grade, uint256)\r\n    {\r\n        uint256 percentage = percentages[user];\r\n\r\n        if (percentage == 0 || percentage >= POOR_PERCENTAGE) {\r\n            return (Grade.POOR, POOR_PERCENTAGE);\r\n        }\r\n        if (percentage >= GOOD_PERCENTAGE) {\r\n            if (pendingLoans > 0) {\r\n                return (Grade.POOR, POOR_PERCENTAGE);\r\n            }\r\n            return (Grade.GOOD, GOOD_PERCENTAGE);\r\n        }\r\n        if (pendingLoans > 1) {\r\n            return (Grade.POOR, POOR_PERCENTAGE);\r\n        } else if (pendingLoans > 0) {\r\n            return (Grade.GOOD, GOOD_PERCENTAGE);\r\n        }\r\n        return (Grade.EXCELLENT, EXCELLENT_PERCENTAGE);\r\n    }\r\n\r\n    function inverseTrustGrade(address user, uint256 pendingLoans)\r\n        public\r\n        view\r\n        returns (Grade, uint256)\r\n    {\r\n        uint256 percentage = percentages[user];\r\n\r\n        if (percentage == 0 || percentage >= POOR_PERCENTAGE) {\r\n            return (Grade.EXCELLENT, EXCELLENT_PERCENTAGE);\r\n        }\r\n        if (percentage >= GOOD_PERCENTAGE) {\r\n            if (pendingLoans > 0) {\r\n                return (Grade.EXCELLENT, EXCELLENT_PERCENTAGE);\r\n            }\r\n            return (Grade.GOOD, GOOD_PERCENTAGE);\r\n        }\r\n        if (pendingLoans > 1) {\r\n            return (Grade.EXCELLENT, EXCELLENT_PERCENTAGE);\r\n        } else if (pendingLoans > 0) {\r\n            return (Grade.GOOD, GOOD_PERCENTAGE);\r\n        }\r\n        return (Grade.POOR, POOR_PERCENTAGE);\r\n    }\r\n}\r\n",
  "sourcePath": "C:\\Users\\DELL\\Documents\\darsh\\smart-contracts\\contracts\\TrustScore.sol",
  "compiler": {
    "name": "solc",
    "version": "0.8.17+commit.8df45f5f.Emscripten.clang"
  },
  "schemaVersion": "3.4.11",
  "updatedAt": "2023-02-11T06:38:09.107Z",
  "devdoc": {
    "kind": "dev",
    "methods": {
      "acceptOwnership()": {
        "details": "The new owner accepts the ownership transfer."
      },
      "owner()": {
        "details": "Returns the address of the current owner."
      },
      "pendingOwner()": {
        "details": "Returns the address of the pending owner."
      },
      "renounceOwnership()": {
        "details": "Leaves the contract without owner. It will not be possible to call `onlyOwner` functions anymore. Can only be called by the current owner. NOTE: Renouncing ownership will leave the contract without an owner, thereby removing any functionality that is only available to the owner."
      },
      "transferOwnership(address)": {
        "details": "Starts the ownership transfer of the contract to a new account. Replaces the pending transfer if there is one. Can only be called by the current owner."
      }
    },
    "version": 1
  },
  "userdoc": {
    "kind": "user",
    "methods": {},
    "version": 1
  }
}