{
  "contractName": "TrustScore",
  "abi": [
    {
      "inputs": [],
      "stateMutability": "nonpayable",
      "type": "constructor"
    },
    {
      "anonymous": false,
      "inputs": [
        {
          "indexed": true,
          "internalType": "address",
          "name": "previousOwner",
          "type": "address"
        },
        {
          "indexed": true,
          "internalType": "address",
          "name": "newOwner",
          "type": "address"
        }
      ],
      "name": "OwnershipTransferStarted",
      "type": "event"
    },
    {
      "anonymous": false,
      "inputs": [
        {
          "indexed": true,
          "internalType": "address",
          "name": "previousOwner",
          "type": "address"
        },
        {
          "indexed": true,
          "internalType": "address",
          "name": "newOwner",
          "type": "address"
        }
      ],
      "name": "OwnershipTransferred",
      "type": "event"
    },
    {
      "inputs": [],
      "name": "acceptOwnership",
      "outputs": [],
      "stateMutability": "nonpayable",
      "type": "function"
    },
    {
      "inputs": [],
      "name": "owner",
      "outputs": [
        {
          "internalType": "address",
          "name": "",
          "type": "address"
        }
      ],
      "stateMutability": "view",
      "type": "function"
    },
    {
      "inputs": [],
      "name": "pendingOwner",
      "outputs": [
        {
          "internalType": "address",
          "name": "",
          "type": "address"
        }
      ],
      "stateMutability": "view",
      "type": "function"
    },
    {
      "inputs": [],
      "name": "renounceOwnership",
      "outputs": [],
      "stateMutability": "nonpayable",
      "type": "function"
    },
    {
      "inputs": [
        {
          "internalType": "address",
          "name": "newOwner",
          "type": "address"
        }
      ],
      "name": "transferOwnership",
      "outputs": [],
      "stateMutability": "nonpayable",
      "type": "function"
    },
    {
      "inputs": [
        {
          "internalType": "address",
          "name": "user",
          "type": "address"
        }
      ],
      "name": "getScore",
      "outputs": [
        {
          "internalType": "uint16",
          "name": "",
          "type": "uint16"
        }
      ],
      "stateMutability": "view",
      "type": "function"
    },
    {
      "inputs": [
        {
          "internalType": "address",
          "name": "activity_",
          "type": "address"
        }
      ],
      "name": "setActivity",
      "outputs": [],
      "stateMutability": "nonpayable",
      "type": "function"
    }
  ],
  "bytecode": "0x6080806040523461006357600180546001600160a01b03199081169091556000805433928116831782556001600160a01b0316907f8be0079c531659141344cd1fd0a4f28419497f9722a3daafe3b4186f6b6457e09080a3610c2d90816100698239f35b600080fdfe60406080815260048036101561001457600080fd5b600091823560e01c908163715018a6146109e357816379ba5097146109235781638da5cb5b146108fb578163d47875d014610151578163e30c39781461012857508063e3f43fdb146100e05763f2fde38b1461006f57600080fd5b346100dc5760203660031901126100dc57356001600160a01b03818116918290036100d85761009c610a48565b600180546001600160a01b031916831790558254167f38d16b8cac22d99fc7c124b9cd0de2d3fa1faef420bfe791d8c362d765e227008380a380f35b8280fd5b5080fd5b50346100dc5760203660031901126100dc57356001600160a01b038116908190036100dc5761010d610a48565b6bffffffffffffffffffffffff60a01b600254161760025580f35b8390346100dc57816003193601126100dc5760015490516001600160a01b039091168152602090f35b905082346108f85760203660031901126108f8576001600160a01b03908335828116908190036100dc578260025416918451809381936333689fdb60e11b83528883015261012091829160249586915afa9384156108ee5782946107fb575b5050809361ffff9485855116601e81116000146107a257506101d190610b16565b965b6060850151686c6b935b8bbd4000009890898111156106be57506101f690610b16565b60208601518716601a811115610666575061021090610b16565b8588015189811115610581575061022690610b16565b935b82421693608087018481511680156000146104c9575050505050505060209461025361010092610bbe565b905b60a0840151908111156103e5575061026c90610b16565b60c0830151680821ab0d4414980000811115610304575061028c90610b16565b60e08301518416806102e557506102a290610b16565b915b0151806102be57506102b590610b16565b915b5191168152f35b6801158e460913d00000106102dc576102d690610bbe565b916102b7565b6102d690610b26565b6001036102fb576102f590610add565b916102a4565b6102f590610bbe565b68056bc75e2d63100000811115610324575061031f90610af0565b61028c565b6804563918244f40000081111561033f575061031f90610add565b680340aad21b3b70000081111561035a575061031f90610b98565b680270801d946c940000811115610375575061031f90610b85565b68015af1d78b58c40000811115610390575061031f90610b72565b67d02ab486cedc00008111156103aa575061031f90610b5f565b678ac7230489e800008111156103c4575061031f90610b4c565b674563918244f4000010156103dc5761031f90610b39565b61031f90610b26565b6856bc75e2d631000000811115610405575061040090610b03565b61026c565b6846791fc84e07d00000811115610420575061040090610be4565b683ba1910bf341b0000081111561043b575061040090610af0565b6830ca024f987b900000811115610456575061040090610bd1565b682086ac351052600000811115610471575061040090610bab565b6815af1d78b58c40000081111561048c575061040090610ab4565b680d8d726b7177a800008111156104a7575061040090610b98565b68056bc75e2d6310000010156104c05761040090610b85565b61040090610bbe565b621a5e000185811161056f5785168611156104f9575050505050506020946104f361010092610b16565b90610255565b622e2480858251160185811161056f578516861115610527575050505050506020946104f361010092610bd1565b5184166241eb00019284841161055f57505050916101009391602098931610600014610556576104f390610ab4565b6104f390610bbe565b634e487b7160e01b825260119052fd5b5050634e487b7160e01b815260118352fd5b6856bc75e2d6310000008111156105a2575061059c90610b03565b93610228565b6846791fc84e07d000008111156105bd575061059c90610be4565b683ba1910bf341b000008111156105d8575061059c90610af0565b6830ca024f987b9000008111156105f3575061059c90610bd1565b682086ac35105260000081111561060e575061059c90610bab565b6815af1d78b58c400000811115610629575061059c90610ab4565b680d8d726b7177a80000811115610644575061059c90610b98565b68056bc75e2d63100000101561065d5761059c90610b85565b61059c90610bbe565b601281111561067e575061067990610b03565b610210565b600a811115610691575061067990610af0565b60058111156106a4575061067990610add565b600210156106b55761067990610bab565b61067990610ab4565b6856bc75e2d6310000008111156106de57506106d990610af0565b6101f6565b6846791fc84e07d000008111156106f957506106d990610add565b683ba1910bf341b0000081111561071457506106d990610b98565b6830ca024f987b90000081111561072f57506106d990610b85565b682086ac35105260000081111561074a57506106d990610b72565b6815af1d78b58c40000081111561076557506106d990610b5f565b680d8d726b7177a8000081111561078057506106d990610b4c565b68056bc75e2d631000001015610799576106d990610b39565b6106d990610b26565b60158111156107bb57506107b590610b03565b966101d3565b600d8111156107ce57506107b590610af0565b60078111156107e157506107b590610add565b600310156107f2576107b590610ab4565b506008966101d3565b90809294503d83116108e7575b601f8101601f191682019267ffffffffffffffff91828511848610176108d557838291810103126108d1578301908111838210176108bf57865261084b81610aa0565b825261085960208201610aa0565b6020830152858101518683015260608101516060830152608081015185811681036108bb57608083015260a081015160a083015260c081015160c08301526108a360e08201610aa0565b60e083015261010080910151908201529186806101b0565b8480fd5b634e487b7160e01b8552604188528385fd5b8580fd5b634e487b7160e01b875260418a528587fd5b503d610808565b86513d84823e3d90fd5b80fd5b8390346100dc57816003193601126100dc57905490516001600160a01b039091168152602090f35b9050346100d857826003193601126100d857600154916001600160a01b0391338385160361098e5750506001600160a01b031991821660015582543392811683178455167f8be0079c531659141344cd1fd0a4f28419497f9722a3daafe3b4186f6b6457e08380a380f35b906020608492519162461bcd60e51b8352820152602960248201527f4f776e61626c6532537465703a2063616c6c6572206973206e6f7420746865206044820152683732bb9037bbb732b960b91b6064820152fd5b83346108f857806003193601126108f8576109fc610a48565b600180546001600160a01b03199081169091558154908116825581906001600160a01b03167f8be0079c531659141344cd1fd0a4f28419497f9722a3daafe3b4186f6b6457e08280a380f35b6000546001600160a01b03163303610a5c57565b606460405162461bcd60e51b815260206004820152602060248201527f4f776e61626c653a2063616c6c6572206973206e6f7420746865206f776e65726044820152fd5b519061ffff82168203610aaf57565b600080fd5b90600761ffff80931601918211610ac757565b634e487b7160e01b600052601160045260246000fd5b90600561ffff80931601918211610ac757565b90600361ffff80931601918211610ac757565b90600161ffff80931601918211610ac757565b9061ffff809216918211610ac757565b90600f61ffff80931601918211610ac757565b90600e61ffff80931601918211610ac757565b90600d61ffff80931601918211610ac757565b90600c61ffff80931601918211610ac757565b90600b61ffff80931601918211610ac757565b90600961ffff80931601918211610ac757565b90600861ffff80931601918211610ac757565b90600661ffff80931601918211610ac757565b90600a61ffff80931601918211610ac757565b90600461ffff80931601918211610ac757565b90600261ffff80931601918211610ac75756fea2646970667358221220589db9b4a55c9e568730856a0de1c5a54eb629c628d080e69b344d292a43688164736f6c63430008110033",
  "immutableReferences": {},
  "source": "// SPDX-License-Identifier: GPL-3.0\r\npragma solidity >=0.7.0 <0.9.0;\r\n\r\nimport \"./Activity.sol\";\r\nimport \"./interfaces/ITrustScore.sol\";\r\nimport \"@openzeppelin/contracts/access/Ownable2Step.sol\";\r\n\r\ncontract TrustScore is Ownable2Step, ITrustScore {\r\n    Activity private _activity;\r\n\r\n    constructor() Ownable2Step() {}\r\n\r\n    function getScore(address user) public view override returns (uint16) {\r\n        Activity.ActivityModel memory activity = _activity.getActivity(user);\r\n        uint16 result;\r\n\r\n        // repaymentTimes\r\n        if (activity.repaymentTimes > 30) {\r\n            result += 0;\r\n        } else if (activity.repaymentTimes > 21) {\r\n            result += 1;\r\n        } else if (activity.repaymentTimes > 13) {\r\n            result += 3;\r\n        } else if (activity.repaymentTimes > 7) {\r\n            result += 5;\r\n        } else if (activity.repaymentTimes > 3) {\r\n            result += 7;\r\n        } else {\r\n            result += 8;\r\n        }\r\n\r\n        // repaymentVolume\r\n        if (activity.repaymentVolume > 2000 * 1e18) {\r\n            result += 0;\r\n        } else if (activity.repaymentVolume > 1600 * 1e18) {\r\n            result += 3;\r\n        } else if (activity.repaymentVolume > 1300 * 1e18) {\r\n            result += 5;\r\n        } else if (activity.repaymentVolume > 1100 * 1e18) {\r\n            result += 8;\r\n        } else if (activity.repaymentVolume > 900 * 1e18) {\r\n            result += 9;\r\n        } else if (activity.repaymentVolume > 600 * 1e18) {\r\n            result += 11;\r\n        } else if (activity.repaymentVolume > 400 * 1e18) {\r\n            result += 12;\r\n        } else if (activity.repaymentVolume > 250 * 1e18) {\r\n            result += 13;\r\n        } else if (activity.repaymentVolume > 100 * 1e18) {\r\n            result += 14;\r\n        } else {\r\n            result += 15;\r\n        }\r\n\r\n        // borrowedTimes\r\n        if (activity.borrowedTimes > 26) {\r\n            result += 0;\r\n        } else if (activity.borrowedTimes > 18) {\r\n            result += 1;\r\n        } else if (activity.borrowedTimes > 10) {\r\n            result += 3;\r\n        } else if (activity.borrowedTimes > 5) {\r\n            result += 5;\r\n        } else if (activity.borrowedTimes > 2) {\r\n            result += 6;\r\n        } else {\r\n            result += 7;\r\n        }\r\n\r\n        // borrowedVolume\r\n        if (activity.borrowedVolume > 2000 * 1e18) {\r\n            result += 0;\r\n        } else if (activity.borrowedVolume > 1600 * 1e18) {\r\n            result += 1;\r\n        } else if (activity.borrowedVolume > 1300 * 1e18) {\r\n            result += 2;\r\n        } else if (activity.borrowedVolume > 1100 * 1e18) {\r\n            result += 3;\r\n        } else if (activity.borrowedVolume > 900 * 1e18) {\r\n            result += 4;\r\n        } else if (activity.borrowedVolume > 600 * 1e18) {\r\n            result += 6;\r\n        } else if (activity.borrowedVolume > 400 * 1e18) {\r\n            result += 7;\r\n        } else if (activity.borrowedVolume > 250 * 1e18) {\r\n            result += 8;\r\n        } else if (activity.borrowedVolume > 100 * 1e18) {\r\n            result += 9;\r\n        } else {\r\n            result += 10;\r\n        }\r\n\r\n        // lastActive\r\n        uint160 currentTime = uint160(block.timestamp);\r\n\r\n        if (activity.lastActive == 0) {\r\n            result += 10;\r\n        } else if ((activity.lastActive + 20 days) < currentTime) {\r\n            result += 0;\r\n        } else if ((activity.lastActive + 35 days) < currentTime) {\r\n            result += 4;\r\n        } else if ((activity.lastActive + 50 days) < currentTime) {\r\n            result += 7;\r\n        } else {\r\n            result += 10;\r\n        }\r\n\r\n        // collateralVolume\r\n        if (activity.collateralVolume > 2000 * 1e18) {\r\n            result += 0;\r\n        } else if (activity.collateralVolume > 1600 * 1e18) {\r\n            result += 1;\r\n        } else if (activity.collateralVolume > 1300 * 1e18) {\r\n            result += 2;\r\n        } else if (activity.collateralVolume > 1100 * 1e18) {\r\n            result += 3;\r\n        } else if (activity.collateralVolume > 900 * 1e18) {\r\n            result += 4;\r\n        } else if (activity.collateralVolume > 600 * 1e18) {\r\n            result += 6;\r\n        } else if (activity.collateralVolume > 400 * 1e18) {\r\n            result += 7;\r\n        } else if (activity.collateralVolume > 250 * 1e18) {\r\n            result += 8;\r\n        } else if (activity.collateralVolume > 100 * 1e18) {\r\n            result += 9;\r\n        } else {\r\n            result += 10;\r\n        }\r\n\r\n        // interestPaidVolume\r\n        if (activity.interestPaidVolume > 150 * 1e18) {\r\n            result += 0;\r\n        } else if (activity.interestPaidVolume > 100 * 1e18) {\r\n            result += 3;\r\n        } else if (activity.interestPaidVolume > 80 * 1e18) {\r\n            result += 5;\r\n        } else if (activity.interestPaidVolume > 60 * 1e18) {\r\n            result += 8;\r\n        } else if (activity.interestPaidVolume > 45 * 1e18) {\r\n            result += 9;\r\n        } else if (activity.interestPaidVolume > 25 * 1e18) {\r\n            result += 11;\r\n        } else if (activity.interestPaidVolume > 15 * 1e18) {\r\n            result += 12;\r\n        } else if (activity.interestPaidVolume > 10 * 1e18) {\r\n            result += 13;\r\n        } else if (activity.interestPaidVolume > 5 * 1e18) {\r\n            result += 14;\r\n        } else {\r\n            result += 15;\r\n        }\r\n\r\n        // defaultedTimes\r\n        if (activity.defaultedTimes == 0) {\r\n            result += 0;\r\n        } else if (activity.defaultedTimes == 1) {\r\n            result += 5;\r\n        } else {\r\n            result += 10;\r\n        }\r\n\r\n        // defaultedVolume\r\n        if (activity.defaultedVolume == 0) {\r\n            result += 0;\r\n        } else if (activity.defaultedVolume <= 20 * 1e18) {\r\n            result += 10;\r\n        } else {\r\n            result += 15;\r\n        }\r\n\r\n        return result;\r\n    }\r\n\r\n    function setActivity(address activity_) public onlyOwner {\r\n        _activity = Activity(activity_);\r\n    }\r\n}\r\n",
  "sourcePath": "C:\\Users\\DELL\\Documents\\darsh\\smart-contracts\\contracts\\TrustScore.sol",
  "compiler": {
    "name": "solc",
    "version": "0.8.17+commit.8df45f5f.Emscripten.clang"
  },
  "schemaVersion": "3.4.11",
  "updatedAt": "2023-02-11T16:42:48.050Z",
  "devdoc": {
    "kind": "dev",
    "methods": {
      "acceptOwnership()": {
        "details": "The new owner accepts the ownership transfer."
      },
      "owner()": {
        "details": "Returns the address of the current owner."
      },
      "pendingOwner()": {
        "details": "Returns the address of the pending owner."
      },
      "renounceOwnership()": {
        "details": "Leaves the contract without owner. It will not be possible to call `onlyOwner` functions anymore. Can only be called by the current owner. NOTE: Renouncing ownership will leave the contract without an owner, thereby removing any functionality that is only available to the owner."
      },
      "transferOwnership(address)": {
        "details": "Starts the ownership transfer of the contract to a new account. Replaces the pending transfer if there is one. Can only be called by the current owner."
      }
    },
    "version": 1
  },
  "userdoc": {
    "kind": "user",
    "methods": {},
    "version": 1
  }
}