{
  "contractName": "VaultManager",
  "abi": [
    {
      "inputs": [],
      "stateMutability": "nonpayable",
      "type": "constructor"
    },
    {
      "anonymous": false,
      "inputs": [
        {
          "indexed": true,
          "internalType": "address",
          "name": "previousOwner",
          "type": "address"
        },
        {
          "indexed": true,
          "internalType": "address",
          "name": "newOwner",
          "type": "address"
        }
      ],
      "name": "OwnershipTransferStarted",
      "type": "event"
    },
    {
      "anonymous": false,
      "inputs": [
        {
          "indexed": true,
          "internalType": "address",
          "name": "previousOwner",
          "type": "address"
        },
        {
          "indexed": true,
          "internalType": "address",
          "name": "newOwner",
          "type": "address"
        }
      ],
      "name": "OwnershipTransferred",
      "type": "event"
    },
    {
      "inputs": [],
      "name": "acceptOwnership",
      "outputs": [],
      "stateMutability": "nonpayable",
      "type": "function"
    },
    {
      "inputs": [],
      "name": "owner",
      "outputs": [
        {
          "internalType": "address",
          "name": "",
          "type": "address"
        }
      ],
      "stateMutability": "view",
      "type": "function"
    },
    {
      "inputs": [],
      "name": "pendingOwner",
      "outputs": [
        {
          "internalType": "address",
          "name": "",
          "type": "address"
        }
      ],
      "stateMutability": "view",
      "type": "function"
    },
    {
      "inputs": [],
      "name": "renounceOwnership",
      "outputs": [],
      "stateMutability": "nonpayable",
      "type": "function"
    },
    {
      "inputs": [
        {
          "internalType": "address",
          "name": "newOwner",
          "type": "address"
        }
      ],
      "name": "transferOwnership",
      "outputs": [],
      "stateMutability": "nonpayable",
      "type": "function"
    },
    {
      "inputs": [
        {
          "internalType": "address",
          "name": "",
          "type": "address"
        },
        {
          "internalType": "uint256",
          "name": "",
          "type": "uint256"
        }
      ],
      "name": "vaults",
      "outputs": [
        {
          "internalType": "address",
          "name": "token",
          "type": "address"
        },
        {
          "internalType": "uint256",
          "name": "amount",
          "type": "uint256"
        }
      ],
      "stateMutability": "view",
      "type": "function"
    },
    {
      "inputs": [
        {
          "internalType": "address",
          "name": "to",
          "type": "address"
        },
        {
          "internalType": "address",
          "name": "token",
          "type": "address"
        },
        {
          "internalType": "uint256",
          "name": "amount",
          "type": "uint256"
        },
        {
          "internalType": "uint256",
          "name": "offerId",
          "type": "uint256"
        }
      ],
      "name": "deposit",
      "outputs": [],
      "stateMutability": "nonpayable",
      "type": "function"
    },
    {
      "inputs": [
        {
          "internalType": "address",
          "name": "from",
          "type": "address"
        },
        {
          "internalType": "address",
          "name": "token",
          "type": "address"
        },
        {
          "internalType": "uint256",
          "name": "amount",
          "type": "uint256"
        },
        {
          "internalType": "uint256",
          "name": "offerId",
          "type": "uint256"
        }
      ],
      "name": "withdraw",
      "outputs": [],
      "stateMutability": "nonpayable",
      "type": "function"
    },
    {
      "inputs": [
        {
          "internalType": "address",
          "name": "from",
          "type": "address"
        },
        {
          "internalType": "address",
          "name": "to",
          "type": "address"
        },
        {
          "internalType": "address",
          "name": "token",
          "type": "address"
        },
        {
          "internalType": "uint256",
          "name": "amount",
          "type": "uint256"
        },
        {
          "internalType": "uint256",
          "name": "offerId",
          "type": "uint256"
        }
      ],
      "name": "transfer",
      "outputs": [],
      "stateMutability": "nonpayable",
      "type": "function"
    },
    {
      "inputs": [
        {
          "internalType": "address",
          "name": "user",
          "type": "address"
        },
        {
          "internalType": "address",
          "name": "token",
          "type": "address"
        }
      ],
      "name": "balanceOf",
      "outputs": [
        {
          "internalType": "uint256",
          "name": "",
          "type": "uint256"
        }
      ],
      "stateMutability": "view",
      "type": "function"
    },
    {
      "inputs": [
        {
          "internalType": "address",
          "name": "address_",
          "type": "address"
        }
      ],
      "name": "setLendingPool",
      "outputs": [],
      "stateMutability": "nonpayable",
      "type": "function"
    }
  ],
  "bytecode": "0x6080806040523461006357600180546001600160a01b03199081169091556000805433928116831782556001600160a01b0316907f8be0079c531659141344cd1fd0a4f28419497f9722a3daafe3b4186f6b6457e09080a36109c490816100698239f35b600080fdfe6040608081526004908136101561001557600080fd5b600091823560e01c908163113aa8b11461065857816320e8c56514610538578163715018a6146104d357816379ba50971461040e5781637bbfc69e146103af5781637bfe950c1461037f5781638da5cb5b14610357578163903fa4461461016b57508063e30c397814610143578063f2fde38b146100d35763f7888aec1461009c57600080fd5b346100cf57806003193601126100cf576020906100c86100ba61069d565b6100c26106b8565b90610912565b9051908152f35b5080fd5b8234610140576020366003190112610140576100ed61069d565b6100f5610739565b600180546001600160a01b0319166001600160a01b0392831690811790915582549091167f38d16b8cac22d99fc7c124b9cd0de2d3fa1faef420bfe791d8c362d765e227008380a380f35b80fd5b50346100cf57816003193601126100cf5760015490516001600160a01b039091168152602090f35b8383346100cf5760a03660031901126100cf5761018661069d565b9161018f6106b8565b6001600160a01b039360443585811694928582036103535760643595608435938860025416330361034f578488856101c6936107b6565b8760025416330361034b5790968781169190865b83885260036020818152888a20548310156102545784846101fd858c8e20610707565b50541614610216575b505061021190610791565b6101da565b858a5252600161022882898b20610707565b50018054908a820180921161024157556102118c610206565b634e487b7160e01b8a5260118d5260248afd5b50505089989592979697885260036020528288209083519284840184811067ffffffffffffffff82111761033857855283526020830191888352805490600160401b82101561033857906102ad91600182018155610707565b939093610326575183546001600160a01b031916911617825551600190910155519182526001600160a01b039283166020830152600060408301526060820193909352911660808201524260a08201527f2d5713f209cdeb25742d2c58ffd9d94df7033a29df09099cd3ec10195d492bbe9060c090a180f35b634e487b7160e01b8a52898b5260248afd5b634e487b7160e01b8b5260418c5260248bfd5b8580fd5b8680fd5b8480fd5b5050346100cf57816003193601126100cf57905490516001600160a01b039091168152602090f35b83346101405761038e366106ce565b6002549092906001600160a01b03163303610353576103ac936107b6565b80f35b8284346101405781600319360112610140576103c961069d565b6001600160a01b0390811682526003602052828220805491926024359283101561014057506001916103fa91610707565b509182541691015482519182526020820152f35b919050346104cf57826003193601126104cf57600154916001600160a01b0391338385160361047a5750506001600160a01b031991821660015582543392811683178455167f8be0079c531659141344cd1fd0a4f28419497f9722a3daafe3b4186f6b6457e08380a380f35b906020608492519162461bcd60e51b8352820152602960248201527f4f776e61626c6532537465703a2063616c6c6572206973206e6f7420746865206044820152683732bb9037bbb732b960b91b6064820152fd5b8280fd5b83346101405780600319360112610140576104ec610739565b600180546001600160a01b03199081169091558154908116825581906001600160a01b03167f8be0079c531659141344cd1fd0a4f28419497f9722a3daafe3b4186f6b6457e08280a380f35b8383346100cf57610548366106ce565b60025492959194919391926001600160a01b03908116330361035357845b818416808752600390602090828252878920548410156105e8578461058d858a8c20610707565b505416858c16146105aa575b5050506105a590610791565b610566565b88525260016105bb82878920610707565b50018054908882018092116105d557556105a58a80610599565b634e487b7160e01b885260118b52602488fd5b5050505087959387918085168752600360205281872082519183830183811067ffffffffffffffff82111761064557845280851683526020830191888352805490600160401b82101561033857906102ad91600182018155610707565b634e487b7160e01b8a5260418b5260248afd5b83346101405760203660031901126101405761067261069d565b61067a610739565b60018060a01b03166bffffffffffffffffffffffff60a01b600254161760025580f35b600435906001600160a01b03821682036106b357565b600080fd5b602435906001600160a01b03821682036106b357565b60809060031901126106b3576001600160a01b039060043582811681036106b3579160243590811681036106b357906044359060643590565b80548210156107235760005260206000209060011b0190600090565b634e487b7160e01b600052603260045260246000fd5b6000546001600160a01b0316330361074d57565b606460405162461bcd60e51b815260206004820152602060248201527f4f776e61626c653a2063616c6c6572206973206e6f7420746865206f776e65726044820152fd5b60001981146107a05760010190565b634e487b7160e01b600052601160045260246000fd5b909260005b60018060a01b03808416908160005260039060209282845260409283600020548610156108da57826107f08786600020610707565b505416928a1680931461081057505050505061080b90610791565b6107bb565b929794919596508093985060005281885261082e8188600020610707565b509184600180940154106108a757906108509184600052895287600020610707565b5001948554958387039687116107a0577f2d5713f209cdeb25742d2c58ffd9d94df7033a29df09099cd3ec10195d492bbe9760c097600092558251968752860152840152606083015260808201524260a0820152a1565b875162461bcd60e51b8152600481018a9052600c60248201526b4552525f574954484452415760a01b6044820152606490fd5b60405162461bcd60e51b815260206004820152601060248201526f11549497d5d2551211149055d7d1539160821b6044820152606490fd5b60005b60018060a01b0380831680600052600390602090828252604093846000205486101561098157806109498787600020610707565b50541690881614610966575050505061096190610791565b610915565b6001965061097b955060005252600020610707565b50015490565b505050505050505060009056fea26469706673582212205108cc25aa648cb6a822c070793fb3bed3dcc88c4d087263fa75b78011052ef764736f6c63430008110033",
  "immutableReferences": {},
  "source": "// SPDX-License-Identifier: GPL-3.0\r\npragma solidity >=0.7.0 <0.9.0;\r\n\r\nimport \"../libraries/VaultLibrary.sol\";\r\n\r\nimport \"../interfaces/IVaultManager.sol\";\r\n\r\nimport \"@openzeppelin/contracts/token/ERC20/IERC20.sol\";\r\nimport \"@openzeppelin/contracts/access/Ownable2Step.sol\";\r\n\r\ncontract VaultManager is IVaultManager, Ownable2Step {\r\n    address lendingPool;\r\n\r\n    mapping(address => VaultLibrary.Vault[]) public vaults;\r\n\r\n    constructor() Ownable2Step() {}\r\n\r\n    function deposit(\r\n        address to,\r\n        address token,\r\n        uint256 amount,\r\n        uint256 offerId\r\n    ) public override onlyLendingPool {\r\n        for (uint256 index = 0; index < vaults[to].length; index++) {\r\n            if (vaults[to][index].token == token) {\r\n                vaults[to][index].amount += amount;\r\n            }\r\n        }\r\n\r\n        vaults[to].push(VaultLibrary.Vault(token, amount));\r\n\r\n        emit VaultLibrary.Transfer(\r\n            offerId,\r\n            to,\r\n            address(0),\r\n            amount,\r\n            token,\r\n            block.timestamp\r\n        );\r\n    }\r\n\r\n    function withdraw(\r\n        address from,\r\n        address token,\r\n        uint256 amount,\r\n        uint256 offerId\r\n    ) public override onlyLendingPool {\r\n        for (uint256 index = 0; index < vaults[from].length; index++) {\r\n            if (vaults[from][index].token == token) {\r\n                // insuficient amount\r\n                if (vaults[from][index].amount < amount) revert(\"ERR_WITHDRAW\");\r\n\r\n                // burn successful\r\n                vaults[from][index].amount -= amount;\r\n\r\n                emit VaultLibrary.Transfer(\r\n                    offerId,\r\n                    address(0),\r\n                    from,\r\n                    amount,\r\n                    token,\r\n                    block.timestamp\r\n                );\r\n                return;\r\n            }\r\n        }\r\n\r\n        revert(\"ERR_WITHDRAW_END\");\r\n    }\r\n\r\n    function transfer(\r\n        address from,\r\n        address to,\r\n        address token,\r\n        uint256 amount,\r\n        uint256 offerId\r\n    ) public override onlyLendingPool {\r\n        withdraw(from, token, amount, offerId);\r\n        deposit(to, token, amount, offerId);\r\n    }\r\n\r\n    function balanceOf(address user, address token)\r\n        public\r\n        view\r\n        override\r\n        returns (uint256)\r\n    {\r\n        for (uint256 index = 0; index < vaults[user].length; index++) {\r\n            if (vaults[user][index].token == token) {\r\n                return vaults[user][index].amount;\r\n            }\r\n        }\r\n\r\n        return 0;\r\n    }\r\n\r\n    function setLendingPool(address address_) public onlyOwner {\r\n        lendingPool = address_;\r\n    }\r\n\r\n    modifier onlyLendingPool() {\r\n        require(msg.sender == lendingPool);\r\n        _;\r\n    }\r\n}\r\n",
  "sourcePath": "C:\\Users\\DELL\\Documents\\darsh\\smart-contracts\\contracts\\managers\\VaultManager.sol",
  "compiler": {
    "name": "solc",
    "version": "0.8.17+commit.8df45f5f.Emscripten.clang"
  },
  "schemaVersion": "3.4.11",
  "updatedAt": "2023-02-20T11:03:35.553Z",
  "devdoc": {
    "kind": "dev",
    "methods": {
      "acceptOwnership()": {
        "details": "The new owner accepts the ownership transfer."
      },
      "owner()": {
        "details": "Returns the address of the current owner."
      },
      "pendingOwner()": {
        "details": "Returns the address of the pending owner."
      },
      "renounceOwnership()": {
        "details": "Leaves the contract without owner. It will not be possible to call `onlyOwner` functions anymore. Can only be called by the current owner. NOTE: Renouncing ownership will leave the contract without an owner, thereby removing any functionality that is only available to the owner."
      },
      "transferOwnership(address)": {
        "details": "Starts the ownership transfer of the contract to a new account. Replaces the pending transfer if there is one. Can only be called by the current owner."
      }
    },
    "version": 1
  },
  "userdoc": {
    "kind": "user",
    "methods": {},
    "version": 1
  }
}