{
  "contractName": "VaultManager",
  "abi": [
    {
      "inputs": [],
      "stateMutability": "nonpayable",
      "type": "constructor"
    },
    {
      "anonymous": false,
      "inputs": [
        {
          "indexed": true,
          "internalType": "address",
          "name": "previousOwner",
          "type": "address"
        },
        {
          "indexed": true,
          "internalType": "address",
          "name": "newOwner",
          "type": "address"
        }
      ],
      "name": "OwnershipTransferStarted",
      "type": "event"
    },
    {
      "anonymous": false,
      "inputs": [
        {
          "indexed": true,
          "internalType": "address",
          "name": "previousOwner",
          "type": "address"
        },
        {
          "indexed": true,
          "internalType": "address",
          "name": "newOwner",
          "type": "address"
        }
      ],
      "name": "OwnershipTransferred",
      "type": "event"
    },
    {
      "inputs": [],
      "name": "acceptOwnership",
      "outputs": [],
      "stateMutability": "nonpayable",
      "type": "function"
    },
    {
      "inputs": [],
      "name": "owner",
      "outputs": [
        {
          "internalType": "address",
          "name": "",
          "type": "address"
        }
      ],
      "stateMutability": "view",
      "type": "function"
    },
    {
      "inputs": [],
      "name": "pendingOwner",
      "outputs": [
        {
          "internalType": "address",
          "name": "",
          "type": "address"
        }
      ],
      "stateMutability": "view",
      "type": "function"
    },
    {
      "inputs": [],
      "name": "renounceOwnership",
      "outputs": [],
      "stateMutability": "nonpayable",
      "type": "function"
    },
    {
      "inputs": [
        {
          "internalType": "address",
          "name": "newOwner",
          "type": "address"
        }
      ],
      "name": "transferOwnership",
      "outputs": [],
      "stateMutability": "nonpayable",
      "type": "function"
    },
    {
      "inputs": [
        {
          "internalType": "uint256",
          "name": "",
          "type": "uint256"
        },
        {
          "internalType": "uint256",
          "name": "",
          "type": "uint256"
        }
      ],
      "name": "vaults",
      "outputs": [
        {
          "internalType": "address",
          "name": "token",
          "type": "address"
        },
        {
          "internalType": "uint256",
          "name": "amount",
          "type": "uint256"
        }
      ],
      "stateMutability": "view",
      "type": "function"
    },
    {
      "inputs": [
        {
          "internalType": "address",
          "name": "from",
          "type": "address"
        },
        {
          "internalType": "address",
          "name": "token",
          "type": "address"
        },
        {
          "internalType": "uint256",
          "name": "amount",
          "type": "uint256"
        },
        {
          "internalType": "uint256",
          "name": "offerId",
          "type": "uint256"
        }
      ],
      "name": "deposit",
      "outputs": [],
      "stateMutability": "nonpayable",
      "type": "function"
    },
    {
      "inputs": [
        {
          "internalType": "address",
          "name": "from",
          "type": "address"
        },
        {
          "internalType": "address",
          "name": "token",
          "type": "address"
        },
        {
          "internalType": "uint256",
          "name": "amount",
          "type": "uint256"
        },
        {
          "internalType": "uint256",
          "name": "offerId",
          "type": "uint256"
        }
      ],
      "name": "withdraw",
      "outputs": [],
      "stateMutability": "nonpayable",
      "type": "function"
    },
    {
      "inputs": [
        {
          "internalType": "uint256",
          "name": "offerId",
          "type": "uint256"
        },
        {
          "internalType": "address",
          "name": "token",
          "type": "address"
        }
      ],
      "name": "balanceOf",
      "outputs": [
        {
          "internalType": "uint256",
          "name": "",
          "type": "uint256"
        }
      ],
      "stateMutability": "view",
      "type": "function"
    },
    {
      "inputs": [
        {
          "internalType": "address",
          "name": "address_",
          "type": "address"
        }
      ],
      "name": "setLendingPool",
      "outputs": [],
      "stateMutability": "nonpayable",
      "type": "function"
    }
  ],
  "bytecode": "0x6080806040523461006357600180546001600160a01b03199081169091556000805433928116831782556001600160a01b0316907f8be0079c531659141344cd1fd0a4f28419497f9722a3daafe3b4186f6b6457e09080a361089e90816100698239f35b600080fdfe60406080815260048036101561001457600080fd5b600091823560e01c918263113aa8b11461052b57826320e8c565146103455782633656eec21461030957826366a82a51146102b5578263715018a61461025057826379ba50971461018c5782637bfe950c14610155575081638da5cb5b1461012d578163e30c397814610100575063f2fde38b1461009157600080fd5b346100fd5760203660031901126100fd576100aa61056c565b6100b26105f2565b600180546001600160a01b0319166001600160a01b0392831690811790915582549091167f38d16b8cac22d99fc7c124b9cd0de2d3fa1faef420bfe791d8c362d765e227008380a380f35b80fd5b90503461012957816003193601126101295760015490516001600160a01b039091168152602090f35b5080fd5b905034610129578160031936011261012957905490516001600160a01b039091168152602090f35b8390346101295761016536610587565b93549293929091906001600160a01b03163303610188576101859361066f565b80f35b8480fd5b91503461024c578260031936011261024c57600154916001600160a01b039133838516036101f75750506001600160a01b031991821660015582543392811683178455167f8be0079c531659141344cd1fd0a4f28419497f9722a3daafe3b4186f6b6457e08380a380f35b906020608492519162461bcd60e51b8352820152602960248201527f4f776e61626c6532537465703a2063616c6c6572206973206e6f7420746865206044820152683732bb9037bbb732b960b91b6064820152fd5b8280fd5b83346100fd57806003193601126100fd576102696105f2565b600180546001600160a01b03199081169091558154908116825581906001600160a01b03167f8be0079c531659141344cd1fd0a4f28419497f9722a3daafe3b4186f6b6457e08280a380f35b9091503461024c578160031936011261024c57602435903583526003602052818320805482101561030557906102ea916105c0565b506001808060a01b0382541691015482519182526020820152f35b8380fd5b9091503461024c578160031936011261024c57602435926001600160a01b03841684036100fd575060209261033e91356107f2565b9051908152f35b9083346100fd5761035536610587565b8654929591949391926001600160a01b039291908316330361018857845b81865260036020818152868820548310156103ef578561039584898b206105c0565b505416868b16146103b1575b50506103ac9061064a565b610373565b8388525260016103c3828789206105c0565b50018054908882018092116103dc57556103ac8a6103a1565b634e487b7160e01b885260118b52602488fd5b50505092869288969285875260036020528287209483519084820182811067ffffffffffffffff82111761051857908491865216958682526020820190868252805490680100000000000000008210156105055790610453916001820181556105c0565b9290926104f35791600161012098969492867fa18a90b0aa25f3a9d4cce0e6c938bc8a526ae379574b33863333807a93e988139b99979551166bffffffffffffffffffffffff60a01b8454161783555191015560016002540195866002558351968752602087015216908401526060830152608082015260e060a0820152600760e08201526619195c1bdcda5d60ca1b6101008201524260c0820152a180f35b634e487b7160e01b8a52898b5260248afd5b634e487b7160e01b8b5260418c5260248bfd5b634e487b7160e01b8a5260418b5260248afd5b8390346101295760203660031901126101295761054661056c565b61054e6105f2565b81546001600160a01b0319166001600160a01b039190911617905580f35b600435906001600160a01b038216820361058257565b600080fd5b6080906003190112610582576001600160a01b039060043582811681036105825791602435908116810361058257906044359060643590565b80548210156105dc5760005260206000209060011b0190600090565b634e487b7160e01b600052603260045260246000fd5b6000546001600160a01b0316330361060657565b606460405162461bcd60e51b815260206004820152602060248201527f4f776e61626c653a2063616c6c6572206973206e6f7420746865206f776e65726044820152fd5b60001981146106595760010190565b634e487b7160e01b600052601160045260246000fd5b9192909260005b826000526003602090808252604080600020548410156107ba5761069d84826000206105c0565b50546001600160a01b038981169291811683146106c75750505050506106c29061064a565b610676565b92968098929695919499506000528689526106e581856000206105c0565b50968560018099015410610787578791610708918a6000528b52856000206105c0565b500196875498858a03998a11610659577fa18a90b0aa25f3a9d4cce0e6c938bc8a526ae379574b33863333807a93e988139961012099556002978854018098558451978852870152169084015260608301526080820152600860e08060a084015282015267776974686472617760c01b6101008201524260c0820152a1565b845162461bcd60e51b8152600481018b9052600c60248201526b4552525f574954484452415760a01b6044820152606490fd5b60405162461bcd60e51b815260206004820152601060248201526f11549497d5d2551211149055d7d1539160821b6044820152606490fd5b9060005b826000526003602090808252604091826000205484101561085d5761081e84846000206105c0565b50546001600160a01b038681169116146108435750505061083e9061064a565b6107f6565b6108579450600195600052526000206105c0565b50015490565b50505050505060009056fea2646970667358221220df883c4031857c843affd709c3c7baddec9b68976858ad845cb028c8ec19a35264736f6c63430008110033",
  "immutableReferences": {},
  "source": "// SPDX-License-Identifier: GPL-3.0\r\npragma solidity >=0.7.0 <0.9.0;\r\n\r\nimport \"../libraries/VaultLibrary.sol\";\r\n\r\nimport \"../interfaces/IVaultManager.sol\";\r\n\r\nimport \"@openzeppelin/contracts/token/ERC20/IERC20.sol\";\r\nimport \"@openzeppelin/contracts/access/Ownable2Step.sol\";\r\nimport \"@openzeppelin/contracts/utils/Counters.sol\";\r\n\r\ncontract VaultManager is IVaultManager, Ownable2Step {\r\n    using Counters for Counters.Counter;\r\n\r\n    Counters.Counter private transferIdTracker;\r\n    mapping(uint256 => VaultLibrary.Vault[]) public vaults;\r\n\r\n    address lendingPool;\r\n\r\n    constructor() Ownable2Step() {}\r\n\r\n    function deposit(\r\n        address from,\r\n        address token,\r\n        uint256 amount,\r\n        uint256 offerId\r\n    ) public override onlyLendingPool {\r\n        for (uint256 index = 0; index < vaults[offerId].length; index++) {\r\n            if (vaults[offerId][index].token == token) {\r\n                vaults[offerId][index].amount += amount;\r\n            }\r\n        }\r\n\r\n        vaults[offerId].push(VaultLibrary.Vault(token, amount));\r\n\r\n        transferIdTracker.increment();\r\n\r\n        emit VaultLibrary.Transfer(\r\n            transferIdTracker.current(),\r\n            offerId,\r\n            from,\r\n            amount,\r\n            token,\r\n            \"deposit\",\r\n            block.timestamp\r\n        );\r\n    }\r\n\r\n    function withdraw(\r\n        address from,\r\n        address token,\r\n        uint256 amount,\r\n        uint256 offerId\r\n    ) public override onlyLendingPool {\r\n        for (uint256 index = 0; index < vaults[offerId].length; index++) {\r\n            if (vaults[offerId][index].token == token) {\r\n                // insuficient amount\r\n                if (vaults[offerId][index].amount < amount)\r\n                    revert(\"ERR_WITHDRAW\");\r\n\r\n                // burn successful\r\n                vaults[offerId][index].amount -= amount;\r\n\r\n                transferIdTracker.increment();\r\n\r\n                emit VaultLibrary.Transfer(\r\n                    transferIdTracker.current(),\r\n                    offerId,\r\n                    from,\r\n                    amount,\r\n                    token,\r\n                    \"withdraw\",\r\n                    block.timestamp\r\n                );\r\n                return;\r\n            }\r\n        }\r\n\r\n        revert(\"ERR_WITHDRAW_END\");\r\n    }\r\n\r\n    function balanceOf(uint256 offerId, address token)\r\n        public\r\n        view\r\n        override\r\n        returns (uint256)\r\n    {\r\n        for (uint256 index = 0; index < vaults[offerId].length; index++) {\r\n            if (vaults[offerId][index].token == token) {\r\n                return vaults[offerId][index].amount;\r\n            }\r\n        }\r\n\r\n        return 0;\r\n    }\r\n\r\n    function setLendingPool(address address_) public onlyOwner {\r\n        lendingPool = address_;\r\n    }\r\n\r\n    modifier onlyLendingPool() {\r\n        require(msg.sender == lendingPool);\r\n        _;\r\n    }\r\n}\r\n",
  "sourcePath": "C:\\Users\\DELL\\Documents\\darsh\\smart-contracts\\contracts\\managers\\VaultManager.sol",
  "compiler": {
    "name": "solc",
    "version": "0.8.17+commit.8df45f5f.Emscripten.clang"
  },
  "schemaVersion": "3.4.11",
  "updatedAt": "2023-02-21T19:17:15.289Z",
  "devdoc": {
    "kind": "dev",
    "methods": {
      "acceptOwnership()": {
        "details": "The new owner accepts the ownership transfer."
      },
      "owner()": {
        "details": "Returns the address of the current owner."
      },
      "pendingOwner()": {
        "details": "Returns the address of the pending owner."
      },
      "renounceOwnership()": {
        "details": "Leaves the contract without owner. It will not be possible to call `onlyOwner` functions anymore. Can only be called by the current owner. NOTE: Renouncing ownership will leave the contract without an owner, thereby removing any functionality that is only available to the owner."
      },
      "transferOwnership(address)": {
        "details": "Starts the ownership transfer of the contract to a new account. Replaces the pending transfer if there is one. Can only be called by the current owner."
      }
    },
    "version": 1
  },
  "userdoc": {
    "kind": "user",
    "methods": {},
    "version": 1
  }
}