{
  "contractName": "VaultManager",
  "abi": [
    {
      "inputs": [],
      "stateMutability": "nonpayable",
      "type": "constructor"
    },
    {
      "anonymous": false,
      "inputs": [
        {
          "indexed": true,
          "internalType": "address",
          "name": "previousOwner",
          "type": "address"
        },
        {
          "indexed": true,
          "internalType": "address",
          "name": "newOwner",
          "type": "address"
        }
      ],
      "name": "OwnershipTransferStarted",
      "type": "event"
    },
    {
      "anonymous": false,
      "inputs": [
        {
          "indexed": true,
          "internalType": "address",
          "name": "previousOwner",
          "type": "address"
        },
        {
          "indexed": true,
          "internalType": "address",
          "name": "newOwner",
          "type": "address"
        }
      ],
      "name": "OwnershipTransferred",
      "type": "event"
    },
    {
      "inputs": [],
      "name": "acceptOwnership",
      "outputs": [],
      "stateMutability": "nonpayable",
      "type": "function"
    },
    {
      "inputs": [],
      "name": "owner",
      "outputs": [
        {
          "internalType": "address",
          "name": "",
          "type": "address"
        }
      ],
      "stateMutability": "view",
      "type": "function"
    },
    {
      "inputs": [],
      "name": "pendingOwner",
      "outputs": [
        {
          "internalType": "address",
          "name": "",
          "type": "address"
        }
      ],
      "stateMutability": "view",
      "type": "function"
    },
    {
      "inputs": [],
      "name": "renounceOwnership",
      "outputs": [],
      "stateMutability": "nonpayable",
      "type": "function"
    },
    {
      "inputs": [
        {
          "internalType": "address",
          "name": "newOwner",
          "type": "address"
        }
      ],
      "name": "transferOwnership",
      "outputs": [],
      "stateMutability": "nonpayable",
      "type": "function"
    },
    {
      "inputs": [
        {
          "internalType": "uint256",
          "name": "",
          "type": "uint256"
        },
        {
          "internalType": "uint256",
          "name": "",
          "type": "uint256"
        }
      ],
      "name": "vaults",
      "outputs": [
        {
          "internalType": "address",
          "name": "token",
          "type": "address"
        },
        {
          "internalType": "uint256",
          "name": "amount",
          "type": "uint256"
        }
      ],
      "stateMutability": "view",
      "type": "function"
    },
    {
      "inputs": [
        {
          "internalType": "address",
          "name": "to",
          "type": "address"
        },
        {
          "internalType": "address",
          "name": "token",
          "type": "address"
        },
        {
          "internalType": "uint256",
          "name": "amount",
          "type": "uint256"
        },
        {
          "internalType": "uint256",
          "name": "offerId",
          "type": "uint256"
        }
      ],
      "name": "deposit",
      "outputs": [],
      "stateMutability": "nonpayable",
      "type": "function"
    },
    {
      "inputs": [
        {
          "internalType": "address",
          "name": "from",
          "type": "address"
        },
        {
          "internalType": "address",
          "name": "token",
          "type": "address"
        },
        {
          "internalType": "uint256",
          "name": "amount",
          "type": "uint256"
        },
        {
          "internalType": "uint256",
          "name": "offerId",
          "type": "uint256"
        }
      ],
      "name": "withdraw",
      "outputs": [],
      "stateMutability": "nonpayable",
      "type": "function"
    },
    {
      "inputs": [
        {
          "internalType": "uint256",
          "name": "offerId",
          "type": "uint256"
        },
        {
          "internalType": "address",
          "name": "token",
          "type": "address"
        }
      ],
      "name": "balanceOf",
      "outputs": [
        {
          "internalType": "uint256",
          "name": "",
          "type": "uint256"
        }
      ],
      "stateMutability": "view",
      "type": "function"
    },
    {
      "inputs": [
        {
          "internalType": "address",
          "name": "address_",
          "type": "address"
        }
      ],
      "name": "setLendingPool",
      "outputs": [],
      "stateMutability": "nonpayable",
      "type": "function"
    }
  ],
  "bytecode": "0x6080806040523461006357600180546001600160a01b03199081169091556000805433928116831782556001600160a01b0316907f8be0079c531659141344cd1fd0a4f28419497f9722a3daafe3b4186f6b6457e09080a361084190816100698239f35b600080fdfe60406080815260048036101561001457600080fd5b600091823560e01c918263113aa8b1146104f357826320e8c565146103425782633656eec21461030657826366a82a51146102b2578263715018a61461024d57826379ba509714610189575081637bfe950c146101555781638da5cb5b1461012d578163e30c397814610100575063f2fde38b1461009157600080fd5b346100fd5760203660031901126100fd576100aa610538565b6100b26105be565b600180546001600160a01b0319166001600160a01b0392831690811790915582549091167f38d16b8cac22d99fc7c124b9cd0de2d3fa1faef420bfe791d8c362d765e227008380a380f35b80fd5b90503461012957816003193601126101295760015490516001600160a01b039091168152602090f35b5080fd5b905034610129578160031936011261012957905490516001600160a01b039091168152602090f35b82346100fd5761016436610553565b6002549092906001600160a01b03163303610185576101829361063b565b80f35b8480fd5b915034610249578260031936011261024957600154916001600160a01b039133838516036101f45750506001600160a01b031991821660015582543392811683178455167f8be0079c531659141344cd1fd0a4f28419497f9722a3daafe3b4186f6b6457e08380a380f35b906020608492519162461bcd60e51b8352820152602960248201527f4f776e61626c6532537465703a2063616c6c6572206973206e6f7420746865206044820152683732bb9037bbb732b960b91b6064820152fd5b8280fd5b83346100fd57806003193601126100fd576102666105be565b600180546001600160a01b03199081169091558154908116825581906001600160a01b03167f8be0079c531659141344cd1fd0a4f28419497f9722a3daafe3b4186f6b6457e08280a380f35b90915034610249578160031936011261024957602435903583526003602052818320805482101561030257906102e79161058c565b506001808060a01b0382541691015482519182526020820152f35b8380fd5b90915034610249578160031936011261024957602435926001600160a01b03841684036100fd575060209261033b9135610795565b9051908152f35b9083346100fd5761035236610553565b600254929591949391926001600160a01b039291908316330361018557845b81865260036020818152868820548310156103ed578561039384898b2061058c565b505416868b16146103af575b50506103aa90610616565b610371565b8388525260016103c18287892061058c565b50018054908882018092116103da57556103aa8a61039f565b634e487b7160e01b885260118b52602488fd5b50505092869288969285875260036020528287209483519084820182811067ffffffffffffffff8211176104e057908491865216958682526020820190868252805490680100000000000000008210156104cd57906104519160018201815561058c565b9290926104bb575182546001600160a01b0319169085161782555160019091015582519586521660208501528301849052606083015260808201524260a08201527f2d5713f209cdeb25742d2c58ffd9d94df7033a29df09099cd3ec10195d492bbe9060c090a180f35b634e487b7160e01b8a52898b5260248afd5b634e487b7160e01b8b5260418c5260248bfd5b634e487b7160e01b8a5260418b5260248afd5b83346100fd5760203660031901126100fd5761050d610538565b6105156105be565b60018060a01b03166bffffffffffffffffffffffff60a01b600254161760025580f35b600435906001600160a01b038216820361054e57565b600080fd5b608090600319011261054e576001600160a01b0390600435828116810361054e5791602435908116810361054e57906044359060643590565b80548210156105a85760005260206000209060011b0190600090565b634e487b7160e01b600052603260045260246000fd5b6000546001600160a01b031633036105d257565b606460405162461bcd60e51b815260206004820152602060248201527f4f776e61626c653a2063616c6c6572206973206e6f7420746865206f776e65726044820152fd5b60001981146106255760010190565b634e487b7160e01b600052601160045260246000fd5b909260005b8160005260036020908082526040806000205484101561075d57610667848260002061058c565b50546001600160a01b038981169390918216841461069257505050505061068d90610616565b610640565b919398509194959693866000528189526106af818560002061058c565b5091856001809401541061072a57906106d191886000528a528460002061058c565b500195865496848803978811610625577f2d5713f209cdeb25742d2c58ffd9d94df7033a29df09099cd3ec10195d492bbe9860c0986000925584519788528701521690840152606083015260808201524260a0820152a1565b845162461bcd60e51b8152600481018b9052600c60248201526b4552525f574954484452415760a01b6044820152606490fd5b60405162461bcd60e51b815260206004820152601060248201526f11549497d5d2551211149055d7d1539160821b6044820152606490fd5b9060005b8260005260036020908082526040918260002054841015610800576107c1848460002061058c565b50546001600160a01b038681169116146107e6575050506107e190610616565b610799565b6107fa94506001956000525260002061058c565b50015490565b50505050505060009056fea26469706673582212202ec7ee3ac7da30b91bbdcb9c3ed50fbff3d26da1fcff6b75d568b0630623a62264736f6c63430008110033",
  "immutableReferences": {},
  "source": "// SPDX-License-Identifier: GPL-3.0\r\npragma solidity >=0.7.0 <0.9.0;\r\n\r\nimport \"../libraries/VaultLibrary.sol\";\r\n\r\nimport \"../interfaces/IVaultManager.sol\";\r\n\r\nimport \"@openzeppelin/contracts/token/ERC20/IERC20.sol\";\r\nimport \"@openzeppelin/contracts/access/Ownable2Step.sol\";\r\n\r\ncontract VaultManager is IVaultManager, Ownable2Step {\r\n    address lendingPool;\r\n\r\n    mapping(uint256 => VaultLibrary.Vault[]) public vaults;\r\n\r\n    constructor() Ownable2Step() {}\r\n\r\n    function deposit(\r\n        address to,\r\n        address token,\r\n        uint256 amount,\r\n        uint256 offerId\r\n    ) public override onlyLendingPool {\r\n        for (uint256 index = 0; index < vaults[offerId].length; index++) {\r\n            if (vaults[offerId][index].token == token) {\r\n                vaults[offerId][index].amount += amount;\r\n            }\r\n        }\r\n\r\n        vaults[offerId].push(VaultLibrary.Vault(token, amount));\r\n\r\n        emit VaultLibrary.Transfer(\r\n            offerId,\r\n            to,\r\n            address(0),\r\n            amount,\r\n            token,\r\n            block.timestamp\r\n        );\r\n    }\r\n\r\n    function withdraw(\r\n        address from,\r\n        address token,\r\n        uint256 amount,\r\n        uint256 offerId\r\n    ) public override onlyLendingPool {\r\n        for (uint256 index = 0; index < vaults[offerId].length; index++) {\r\n            if (vaults[offerId][index].token == token) {\r\n                // insuficient amount\r\n                if (vaults[offerId][index].amount < amount) revert(\"ERR_WITHDRAW\");\r\n\r\n                // burn successful\r\n                vaults[offerId][index].amount -= amount;\r\n\r\n                emit VaultLibrary.Transfer(\r\n                    offerId,\r\n                    address(0),\r\n                    from,\r\n                    amount,\r\n                    token,\r\n                    block.timestamp\r\n                );\r\n                return;\r\n            }\r\n        }\r\n\r\n        revert(\"ERR_WITHDRAW_END\");\r\n    }\r\n\r\n    function balanceOf(uint256 offerId, address token)\r\n        public\r\n        view\r\n        override\r\n        returns (uint256)\r\n    {\r\n        for (uint256 index = 0; index < vaults[offerId].length; index++) {\r\n            if (vaults[offerId][index].token == token) {\r\n                return vaults[offerId][index].amount;\r\n            }\r\n        }\r\n\r\n        return 0;\r\n    }\r\n\r\n    function setLendingPool(address address_) public onlyOwner {\r\n        lendingPool = address_;\r\n    }\r\n\r\n    modifier onlyLendingPool() {\r\n        require(msg.sender == lendingPool);\r\n        _;\r\n    }\r\n}\r\n",
  "sourcePath": "C:\\Users\\DELL\\Documents\\darsh\\smart-contracts\\contracts\\managers\\VaultManager.sol",
  "compiler": {
    "name": "solc",
    "version": "0.8.17+commit.8df45f5f.Emscripten.clang"
  },
  "schemaVersion": "3.4.11",
  "updatedAt": "2023-02-21T15:06:15.852Z",
  "devdoc": {
    "kind": "dev",
    "methods": {
      "acceptOwnership()": {
        "details": "The new owner accepts the ownership transfer."
      },
      "owner()": {
        "details": "Returns the address of the current owner."
      },
      "pendingOwner()": {
        "details": "Returns the address of the pending owner."
      },
      "renounceOwnership()": {
        "details": "Leaves the contract without owner. It will not be possible to call `onlyOwner` functions anymore. Can only be called by the current owner. NOTE: Renouncing ownership will leave the contract without an owner, thereby removing any functionality that is only available to the owner."
      },
      "transferOwnership(address)": {
        "details": "Starts the ownership transfer of the contract to a new account. Replaces the pending transfer if there is one. Can only be called by the current owner."
      }
    },
    "version": 1
  },
  "userdoc": {
    "kind": "user",
    "methods": {},
    "version": 1
  }
}