{
  "contractName": "WBTC",
  "abi": [
    {
      "inputs": [],
      "stateMutability": "nonpayable",
      "type": "constructor"
    },
    {
      "anonymous": false,
      "inputs": [
        {
          "indexed": true,
          "internalType": "address",
          "name": "owner",
          "type": "address"
        },
        {
          "indexed": true,
          "internalType": "address",
          "name": "spender",
          "type": "address"
        },
        {
          "indexed": false,
          "internalType": "uint256",
          "name": "value",
          "type": "uint256"
        }
      ],
      "name": "Approval",
      "type": "event"
    },
    {
      "anonymous": false,
      "inputs": [
        {
          "indexed": true,
          "internalType": "address",
          "name": "from",
          "type": "address"
        },
        {
          "indexed": true,
          "internalType": "address",
          "name": "to",
          "type": "address"
        },
        {
          "indexed": false,
          "internalType": "uint256",
          "name": "value",
          "type": "uint256"
        }
      ],
      "name": "Transfer",
      "type": "event"
    },
    {
      "inputs": [
        {
          "internalType": "address",
          "name": "owner",
          "type": "address"
        },
        {
          "internalType": "address",
          "name": "spender",
          "type": "address"
        }
      ],
      "name": "allowance",
      "outputs": [
        {
          "internalType": "uint256",
          "name": "",
          "type": "uint256"
        }
      ],
      "stateMutability": "view",
      "type": "function"
    },
    {
      "inputs": [
        {
          "internalType": "address",
          "name": "spender",
          "type": "address"
        },
        {
          "internalType": "uint256",
          "name": "amount",
          "type": "uint256"
        }
      ],
      "name": "approve",
      "outputs": [
        {
          "internalType": "bool",
          "name": "",
          "type": "bool"
        }
      ],
      "stateMutability": "nonpayable",
      "type": "function"
    },
    {
      "inputs": [
        {
          "internalType": "address",
          "name": "account",
          "type": "address"
        }
      ],
      "name": "balanceOf",
      "outputs": [
        {
          "internalType": "uint256",
          "name": "",
          "type": "uint256"
        }
      ],
      "stateMutability": "view",
      "type": "function"
    },
    {
      "inputs": [],
      "name": "decimals",
      "outputs": [
        {
          "internalType": "uint8",
          "name": "",
          "type": "uint8"
        }
      ],
      "stateMutability": "view",
      "type": "function"
    },
    {
      "inputs": [
        {
          "internalType": "address",
          "name": "spender",
          "type": "address"
        },
        {
          "internalType": "uint256",
          "name": "subtractedValue",
          "type": "uint256"
        }
      ],
      "name": "decreaseAllowance",
      "outputs": [
        {
          "internalType": "bool",
          "name": "",
          "type": "bool"
        }
      ],
      "stateMutability": "nonpayable",
      "type": "function"
    },
    {
      "inputs": [
        {
          "internalType": "address",
          "name": "spender",
          "type": "address"
        },
        {
          "internalType": "uint256",
          "name": "addedValue",
          "type": "uint256"
        }
      ],
      "name": "increaseAllowance",
      "outputs": [
        {
          "internalType": "bool",
          "name": "",
          "type": "bool"
        }
      ],
      "stateMutability": "nonpayable",
      "type": "function"
    },
    {
      "inputs": [],
      "name": "name",
      "outputs": [
        {
          "internalType": "string",
          "name": "",
          "type": "string"
        }
      ],
      "stateMutability": "view",
      "type": "function"
    },
    {
      "inputs": [],
      "name": "symbol",
      "outputs": [
        {
          "internalType": "string",
          "name": "",
          "type": "string"
        }
      ],
      "stateMutability": "view",
      "type": "function"
    },
    {
      "inputs": [],
      "name": "totalSupply",
      "outputs": [
        {
          "internalType": "uint256",
          "name": "",
          "type": "uint256"
        }
      ],
      "stateMutability": "view",
      "type": "function"
    },
    {
      "inputs": [
        {
          "internalType": "address",
          "name": "to",
          "type": "address"
        },
        {
          "internalType": "uint256",
          "name": "amount",
          "type": "uint256"
        }
      ],
      "name": "transfer",
      "outputs": [
        {
          "internalType": "bool",
          "name": "",
          "type": "bool"
        }
      ],
      "stateMutability": "nonpayable",
      "type": "function"
    },
    {
      "inputs": [
        {
          "internalType": "address",
          "name": "from",
          "type": "address"
        },
        {
          "internalType": "address",
          "name": "to",
          "type": "address"
        },
        {
          "internalType": "uint256",
          "name": "amount",
          "type": "uint256"
        }
      ],
      "name": "transferFrom",
      "outputs": [
        {
          "internalType": "bool",
          "name": "",
          "type": "bool"
        }
      ],
      "stateMutability": "nonpayable",
      "type": "function"
    },
    {
      "inputs": [
        {
          "internalType": "uint256",
          "name": "amount",
          "type": "uint256"
        }
      ],
      "name": "faucetMint",
      "outputs": [],
      "stateMutability": "nonpayable",
      "type": "function"
    }
  ],
  "bytecode": "0x608034620003f3576040906001600160401b039080830182811182821017620003dd578352600f81526020906e2bb930b83832b2102134ba31b7b4b760891b8282015283519084820182811085821117620003dd578552600493848352635742544360e01b84840152815192818411620003c8576003908154946001948587811c97168015620003bd575b88881014620003a8578190601f9788811162000352575b508890888311600114620002eb57600092620002df575b505060001982851b1c191690851b1782555b8051928311620002ca5786548481811c91168015620002bf575b87821014620002aa578581116200025f575b508590858411600114620001f457938394918492600095620001e8575b50501b92600019911b1c19161783555b3315620001a957506002546a52b7d2dcc80cd2e4000000928382018092116200019457506000917fddf252ad1be2c89b69c2b068fc378daa952ba7f163c4a11628f55a4df523b3ef9160025533835282815284832084815401905584519384523393a35161096e9081620003f98239f35b601190634e487b7160e01b6000525260246000fd5b90606493519262461bcd60e51b845283015260248201527f45524332303a206d696e7420746f20746865207a65726f2061646472657373006044820152fd5b01519350388062000113565b9190601f198416928860005284886000209460005b8a898383106200024757505050106200022c575b50505050811b01835562000123565b01519060f884600019921b161c19169055388080806200021d565b86860151895590970196948501948893500162000209565b87600052866000208680860160051c820192898710620002a0575b0160051c019085905b82811062000293575050620000f6565b6000815501859062000283565b925081926200027a565b602288634e487b7160e01b6000525260246000fd5b90607f1690620000e4565b604187634e487b7160e01b6000525260246000fd5b015190503880620000b8565b90879350601f19831691866000528a6000209260005b8c8282106200033b575050841162000322575b505050811b018255620000ca565b015160001983871b60f8161c1916905538808062000314565b8385015186558b9790950194938401930162000301565b90915084600052886000208880850160051c8201928b86106200039e575b918991869594930160051c01915b8281106200038e575050620000a1565b600081558594508991016200037e565b9250819262000370565b602289634e487b7160e01b6000525260246000fd5b96607f16966200008a565b604186634e487b7160e01b6000525260246000fd5b634e487b7160e01b600052604160045260246000fd5b600080fdfe608060408181526004918236101561001657600080fd5b600092833560e01c91826306fdde031461055357508163095ea7b31461052957816318160ddd1461050a57816323b872dd14610440578163313ce5671461042457816339509351146103d457816370a082311461039d57816395d89b411461027e578163a457c2d7146101d6578163a9059cbb146101a5578163d8181951146100f4575063dd62ed3e146100a957600080fd5b346100f057806003193601126100f057806020926100c5610674565b6100cd61068f565b6001600160a01b0391821683526001865283832091168252845220549051908152f35b5080fd5b919050346101a15760203660031901126101a157813591331561015f575061011e826002546106a5565b6002553383528260205280832082815401905551908152817fddf252ad1be2c89b69c2b068fc378daa952ba7f163c4a11628f55a4df523b3ef60203393a380f35b6020606492519162461bcd60e51b8352820152601f60248201527f45524332303a206d696e7420746f20746865207a65726f2061646472657373006044820152fd5b8280fd5b5050346100f057806003193601126100f0576020906101cf6101c5610674565b60243590336106c8565b5160018152f35b9050823461027b578260031936011261027b576101f1610674565b918360243592338152600160205281812060018060a01b038616825260205220549082821061022a576020856101cf8585038733610836565b608490602086519162461bcd60e51b8352820152602560248201527f45524332303a2064656372656173656420616c6c6f77616e63652062656c6f77604482015264207a65726f60d81b6064820152fd5b80fd5b8383346100f057816003193601126100f057805190828454600181811c90808316928315610393575b602093848410811461038057838852908115610364575060011461030f575b505050829003601f01601f191682019267ffffffffffffffff8411838510176102fc57508291826102f892528261062b565b0390f35b634e487b7160e01b815260418552602490fd5b8787529192508591837f8a35acfbc15ff81a39ae7d344fd709f28e8600b4aa8c65c6b64bfe7fe36bd19b5b83851061035057505050508301018580806102c6565b80548886018301529301928490820161033a565b60ff1916878501525050151560051b84010190508580806102c6565b634e487b7160e01b895260228a52602489fd5b91607f16916102a7565b5050346100f05760203660031901126100f05760209181906001600160a01b036103c5610674565b16815280845220549051908152f35b5050346100f057806003193601126100f0576101cf60209261041d6103f7610674565b338352600186528483206001600160a01b038216845286529184902054602435906106a5565b9033610836565b5050346100f057816003193601126100f0576020905160128152f35b839150346100f05760603660031901126100f05761045c610674565b61046461068f565b91846044359460018060a01b03841681526001602052818120338252602052205490600019820361049e575b6020866101cf8787876106c8565b8482106104c757509183916104bc602096956101cf95033383610836565b919394819350610490565b606490602087519162461bcd60e51b8352820152601d60248201527f45524332303a20696e73756666696369656e7420616c6c6f77616e63650000006044820152fd5b5050346100f057816003193601126100f0576020906002549051908152f35b5050346100f057806003193601126100f0576020906101cf610549610674565b6024359033610836565b849084346101a157826003193601126101a15782600354600181811c90808316928315610621575b60209384841081146103805783885290811561036457506001146105cb57505050829003601f01601f191682019267ffffffffffffffff8411838510176102fc57508291826102f892528261062b565b600387529192508591837fc2575a0e9e593c00f959f8c92f12db2869c3395a3b0502d05e2516446f71f85b5b83851061060d57505050508301018580806102c6565b8054888601830152930192849082016105f7565b91607f169161057b565b6020808252825181830181905290939260005b82811061066057505060409293506000838284010152601f8019910116010190565b81810186015184820160400152850161063e565b600435906001600160a01b038216820361068a57565b600080fd5b602435906001600160a01b038216820361068a57565b919082018092116106b257565b634e487b7160e01b600052601160045260246000fd5b6001600160a01b039081169182156107e357169182156107925760008281528060205260408120549180831061073e57604082827fddf252ad1be2c89b69c2b068fc378daa952ba7f163c4a11628f55a4df523b3ef958760209652828652038282205586815220818154019055604051908152a3565b60405162461bcd60e51b815260206004820152602660248201527f45524332303a207472616e7366657220616d6f756e7420657863656564732062604482015265616c616e636560d01b6064820152608490fd5b60405162461bcd60e51b815260206004820152602360248201527f45524332303a207472616e7366657220746f20746865207a65726f206164647260448201526265737360e81b6064820152608490fd5b60405162461bcd60e51b815260206004820152602560248201527f45524332303a207472616e736665722066726f6d20746865207a65726f206164604482015264647265737360d81b6064820152608490fd5b6001600160a01b039081169182156108e757169182156108975760207f8c5be1e5ebec7d5bd14f71427d1e84f3dd0314c0f7b2291e5b200ac8c7c3b925918360005260018252604060002085600052825280604060002055604051908152a3565b60405162461bcd60e51b815260206004820152602260248201527f45524332303a20617070726f766520746f20746865207a65726f206164647265604482015261737360f01b6064820152608490fd5b60405162461bcd60e51b8152602060048201526024808201527f45524332303a20617070726f76652066726f6d20746865207a65726f206164646044820152637265737360e01b6064820152608490fdfea2646970667358221220dfeed9676df26d96aa44e1d5f0c6b322373341bd10ac368c9206db83ef3150af64736f6c63430008110033",
  "immutableReferences": {},
  "source": "// SPDX-License-Identifier: GPL-3.0\r\npragma solidity >=0.7.0 <0.9.0;\r\n\r\nimport \"@openzeppelin/contracts/token/ERC20/ERC20.sol\";\r\n\r\ncontract WBTC is ERC20 {\r\n    constructor() ERC20(\"Wrapped Bitcoin\", \"WBTC\") {\r\n        _mint(msg.sender, 100000000 * 10**18);\r\n    }\r\n\r\n    function faucetMint(uint256 amount) public {\r\n        _mint(msg.sender, amount);\r\n    }\r\n}\r\n",
  "sourcePath": "C:\\Users\\DELL\\Documents\\darsh\\smart-contracts\\contracts\\tokens\\WBTC.sol",
  "compiler": {
    "name": "solc",
    "version": "0.8.17+commit.8df45f5f.Emscripten.clang"
  },
  "schemaVersion": "3.4.11",
  "updatedAt": "2023-02-22T13:26:53.304Z",
  "devdoc": {
    "kind": "dev",
    "methods": {
      "allowance(address,address)": {
        "details": "See {IERC20-allowance}."
      },
      "approve(address,uint256)": {
        "details": "See {IERC20-approve}. NOTE: If `amount` is the maximum `uint256`, the allowance is not updated on `transferFrom`. This is semantically equivalent to an infinite approval. Requirements: - `spender` cannot be the zero address."
      },
      "balanceOf(address)": {
        "details": "See {IERC20-balanceOf}."
      },
      "decimals()": {
        "details": "Returns the number of decimals used to get its user representation. For example, if `decimals` equals `2`, a balance of `505` tokens should be displayed to a user as `5.05` (`505 / 10 ** 2`). Tokens usually opt for a value of 18, imitating the relationship between Ether and Wei. This is the value {ERC20} uses, unless this function is overridden; NOTE: This information is only used for _display_ purposes: it in no way affects any of the arithmetic of the contract, including {IERC20-balanceOf} and {IERC20-transfer}."
      },
      "decreaseAllowance(address,uint256)": {
        "details": "Atomically decreases the allowance granted to `spender` by the caller. This is an alternative to {approve} that can be used as a mitigation for problems described in {IERC20-approve}. Emits an {Approval} event indicating the updated allowance. Requirements: - `spender` cannot be the zero address. - `spender` must have allowance for the caller of at least `subtractedValue`."
      },
      "increaseAllowance(address,uint256)": {
        "details": "Atomically increases the allowance granted to `spender` by the caller. This is an alternative to {approve} that can be used as a mitigation for problems described in {IERC20-approve}. Emits an {Approval} event indicating the updated allowance. Requirements: - `spender` cannot be the zero address."
      },
      "name()": {
        "details": "Returns the name of the token."
      },
      "symbol()": {
        "details": "Returns the symbol of the token, usually a shorter version of the name."
      },
      "totalSupply()": {
        "details": "See {IERC20-totalSupply}."
      },
      "transfer(address,uint256)": {
        "details": "See {IERC20-transfer}. Requirements: - `to` cannot be the zero address. - the caller must have a balance of at least `amount`."
      },
      "transferFrom(address,address,uint256)": {
        "details": "See {IERC20-transferFrom}. Emits an {Approval} event indicating the updated allowance. This is not required by the EIP. See the note at the beginning of {ERC20}. NOTE: Does not update the allowance if the current allowance is the maximum `uint256`. Requirements: - `from` and `to` cannot be the zero address. - `from` must have a balance of at least `amount`. - the caller must have allowance for ``from``'s tokens of at least `amount`."
      }
    },
    "version": 1
  },
  "userdoc": {
    "kind": "user",
    "methods": {},
    "version": 1
  }
}